{"contracts/SaraLiquidityManager.sol":{"SaraLiquidityManager":{"abi":[{"inputs":[{"internalType":"address","name":"_sonicToken","type":"address"}],"stateMutability":"nonpayable","type":"constructor"},{"inputs":[],"name":"AccessControlBadConfirmation","type":"error"},{"inputs":[{"internalType":"address","name":"account","type":"address"},{"internalType":"bytes32","name":"neededRole","type":"bytes32"}],"name":"AccessControlUnauthorizedAccount","type":"error"},{"inputs":[{"internalType":"address","name":"owner","type":"address"}],"name":"OwnableInvalidOwner","type":"error"},{"inputs":[{"internalType":"address","name":"account","type":"address"}],"name":"OwnableUnauthorizedAccount","type":"error"},{"inputs":[{"internalType":"address","name":"token","type":"address"}],"name":"SafeERC20FailedOperation","type":"error"},{"anonymous":false,"inputs":[{"indexed":true,"internalType":"address","name":"token","type":"address"},{"indexed":false,"internalType":"uint256","name":"amount","type":"uint256"},{"indexed":true,"internalType":"address","name":"targetPool","type":"address"},{"indexed":false,"internalType":"uint256","name":"timestamp","type":"uint256"}],"name":"AutoFeesRedeployed","type":"event"},{"anonymous":false,"inputs":[{"indexed":true,"internalType":"address","name":"token","type":"address"},{"indexed":false,"internalType":"uint256","name":"rawCount","type":"uint256"},{"indexed":false,"internalType":"uint256","name":"smoothedCount","type":"uint256"},{"indexed":false,"internalType":"uint256","name":"timestamp","type":"uint256"}],"name":"EngagementSmoothed","type":"event"},{"anonymous":false,"inputs":[{"indexed":true,"internalType":"address","name":"token","type":"address"},{"indexed":false,"internalType":"uint256","name":"subscribers","type":"uint256"},{"indexed":false,"internalType":"uint256","name":"timestamp","type":"uint256"}],"name":"EngagementSnapshotTaken","type":"event"},{"anonymous":false,"inputs":[{"indexed":true,"internalType":"address","name":"pool","type":"address"},{"indexed":false,"internalType":"uint256","name":"reserveAmount","type":"uint256"}],"name":"FallbackPoolSelected","type":"event"},{"anonymous":false,"inputs":[{"indexed":true,"internalType":"address","name":"token","type":"address"},{"indexed":false,"internalType":"uint256","name":"amount","type":"uint256"}],"name":"FeesCollected","type":"event"},{"anonymous":false,"inputs":[{"indexed":true,"internalType":"address","name":"token","type":"address"},{"indexed":false,"internalType":"uint256","name":"amount","type":"uint256"},{"indexed":true,"internalType":"address","name":"targetPool","type":"address"}],"name":"FeesRedeployed","type":"event"},{"anonymous":false,"inputs":[{"indexed":true,"internalType":"address","name":"token","type":"address"},{"indexed":false,"internalType":"uint256","name":"amount","type":"uint256"}],"name":"FeesWithdrawn","type":"event"},{"anonymous":false,"inputs":[{"indexed":true,"internalType":"address","name":"creatorToken","type":"address"},{"indexed":false,"internalType":"uint256","name":"amountCreator","type":"uint256"},{"indexed":false,"internalType":"uint256","name":"amountS","type":"uint256"}],"name":"LiquidityAdded","type":"event"},{"anonymous":false,"inputs":[{"indexed":true,"internalType":"address","name":"token","type":"address"},{"indexed":false,"internalType":"uint256","name":"newReserveS","type":"uint256"}],"name":"LiquidityRebalanced","type":"event"},{"anonymous":false,"inputs":[{"indexed":true,"internalType":"address","name":"creatorToken","type":"address"},{"indexed":false,"internalType":"uint256","name":"amountCreator","type":"uint256"},{"indexed":false,"internalType":"uint256","name":"amountS","type":"uint256"}],"name":"LiquidityRemoved","type":"event"},{"anonymous":false,"inputs":[{"indexed":true,"internalType":"address","name":"previousOwner","type":"address"},{"indexed":true,"internalType":"address","name":"newOwner","type":"address"}],"name":"OwnershipTransferred","type":"event"},{"anonymous":false,"inputs":[{"indexed":true,"internalType":"address","name":"pool","type":"address"},{"indexed":false,"internalType":"uint256","name":"volume24h","type":"uint256"},{"indexed":false,"internalType":"uint256","name":"timestamp","type":"uint256"}],"name":"PoolActivityUpdated","type":"event"},{"anonymous":false,"inputs":[{"indexed":true,"internalType":"address","name":"pool","type":"address"},{"indexed":false,"internalType":"uint256","name":"score","type":"uint256"},{"indexed":false,"internalType":"uint256","name":"timestamp","type":"uint256"}],"name":"PoolNeedUpdated","type":"event"},{"anonymous":false,"inputs":[{"indexed":true,"internalType":"address","name":"pool","type":"address"},{"indexed":false,"internalType":"uint256","name":"score","type":"uint256"},{"indexed":false,"internalType":"uint256","name":"currentLiquidity","type":"uint256"}],"name":"PoolSelected","type":"event"},{"anonymous":false,"inputs":[{"indexed":true,"internalType":"address","name":"pool","type":"address"}],"name":"PoolTracked","type":"event"},{"anonymous":false,"inputs":[{"indexed":true,"internalType":"address","name":"pool","type":"address"}],"name":"PoolUntracked","type":"event"},{"anonymous":false,"inputs":[{"indexed":true,"internalType":"address","name":"token","type":"address"},{"indexed":false,"internalType":"uint256","name":"calculatedPrice","type":"uint256"},{"indexed":false,"internalType":"uint256","name":"cappedPrice","type":"uint256"}],"name":"PriceCapReached","type":"event"},{"anonymous":false,"inputs":[{"indexed":true,"internalType":"address","name":"token","type":"address"},{"indexed":false,"internalType":"uint256","name":"finalPrice","type":"uint256"},{"indexed":false,"internalType":"uint256","name":"initialLiquidity","type":"uint256"}],"name":"PriceDiscoveryCompleted","type":"event"},{"anonymous":false,"inputs":[{"indexed":true,"internalType":"address","name":"token","type":"address"},{"indexed":false,"internalType":"uint256","name":"initialSubscribers","type":"uint256"}],"name":"PriceDiscoveryStarted","type":"event"},{"anonymous":false,"inputs":[{"indexed":true,"internalType":"address","name":"token","type":"address"},{"indexed":false,"internalType":"uint256","name":"currentLiquidity","type":"uint256"},{"indexed":false,"internalType":"string","name":"reason","type":"string"}],"name":"RebalanceSkipped","type":"event"},{"anonymous":false,"inputs":[{"indexed":true,"internalType":"bytes32","name":"role","type":"bytes32"},{"indexed":true,"internalType":"bytes32","name":"previousAdminRole","type":"bytes32"},{"indexed":true,"internalType":"bytes32","name":"newAdminRole","type":"bytes32"}],"name":"RoleAdminChanged","type":"event"},{"anonymous":false,"inputs":[{"indexed":true,"internalType":"bytes32","name":"role","type":"bytes32"},{"indexed":true,"internalType":"address","name":"account","type":"address"},{"indexed":true,"internalType":"address","name":"sender","type":"address"}],"name":"RoleGranted","type":"event"},{"anonymous":false,"inputs":[{"indexed":true,"internalType":"bytes32","name":"role","type":"bytes32"},{"indexed":true,"internalType":"address","name":"account","type":"address"},{"indexed":true,"internalType":"address","name":"sender","type":"address"}],"name":"RoleRevoked","type":"event"},{"stateMutability":"payable","type":"fallback"},{"inputs":[],"name":"ACTIVITY_THRESHOLD","outputs":[{"internalType":"uint256","name":"","type":"uint256"}],"stateMutability":"view","type":"function"},{"inputs":[],"name":"BASE_PRICE","outputs":[{"internalType":"uint256","name":"","type":"uint256"}],"stateMutability":"view","type":"function"},{"inputs":[],"name":"DEFAULT_ADMIN_ROLE","outputs":[{"internalType":"bytes32","name":"","type":"bytes32"}],"stateMutability":"view","type":"function"},{"inputs":[],"name":"DEX_ROLE","outputs":[{"internalType":"bytes32","name":"","type":"bytes32"}],"stateMutability":"view","type":"function"},{"inputs":[],"name":"DISCOVERY_PERIOD","outputs":[{"internalType":"uint256","name":"","type":"uint256"}],"stateMutability":"view","type":"function"},{"inputs":[],"name":"ENGAGEMENT_THRESHOLD","outputs":[{"internalType":"uint256","name":"","type":"uint256"}],"stateMutability":"view","type":"function"},{"inputs":[],"name":"MAX_PRICE_MULTIPLIER","outputs":[{"internalType":"uint256","name":"","type":"uint256"}],"stateMutability":"view","type":"function"},{"inputs":[],"name":"MAX_SNAPSHOTS","outputs":[{"internalType":"uint256","name":"","type":"uint256"}],"stateMutability":"view","type":"function"},{"inputs":[],"name":"MIN_24H_VOLUME","outputs":[{"internalType":"uint256","name":"","type":"uint256"}],"stateMutability":"view","type":"function"},{"inputs":[],"name":"MIN_FEES_FOR_REDEPLOY","outputs":[{"internalType":"uint256","name":"","type":"uint256"}],"stateMutability":"view","type":"function"},{"inputs":[],"name":"MIN_LIQUIDITY","outputs":[{"internalType":"uint256","name":"","type":"uint256"}],"stateMutability":"view","type":"function"},{"inputs":[],"name":"MIN_TOKEN_PRICE","outputs":[{"internalType":"uint256","name":"","type":"uint256"}],"stateMutability":"view","type":"function"},{"inputs":[],"name":"POOL_NEED_UPDATE_INTERVAL","outputs":[{"internalType":"uint256","name":"","type":"uint256"}],"stateMutability":"view","type":"function"},{"inputs":[],"name":"REBALANCE_INTERVAL","outputs":[{"internalType":"uint256","name":"","type":"uint256"}],"stateMutability":"view","type":"function"},{"inputs":[],"name":"SNAPSHOT_INTERVAL","outputs":[{"internalType":"uint256","name":"","type":"uint256"}],"stateMutability":"view","type":"function"},{"inputs":[{"internalType":"address","name":"creatorToken","type":"address"},{"internalType":"uint256","name":"amountCreator","type":"uint256"},{"internalType":"uint256","name":"amountS","type":"uint256"}],"name":"addLiquidity","outputs":[],"stateMutability":"payable","type":"function"},{"inputs":[{"internalType":"address","name":"token","type":"address"}],"name":"autoRedeployFees","outputs":[],"stateMutability":"nonpayable","type":"function"},{"inputs":[{"internalType":"uint256","name":"subscriberCount","type":"uint256"},{"internalType":"uint256","name":"price","type":"uint256"}],"name":"calculateInitialLiquidity","outputs":[{"internalType":"uint256","name":"","type":"uint256"}],"stateMutability":"pure","type":"function"},{"inputs":[{"internalType":"address","name":"pool","type":"address"},{"internalType":"uint256","name":"availableFees","type":"uint256"}],"name":"calculateOptimalDeployment","outputs":[{"internalType":"uint256","name":"","type":"uint256"}],"stateMutability":"view","type":"function"},{"inputs":[{"internalType":"address","name":"token","type":"address"}],"name":"checkAndRebalance","outputs":[],"stateMutability":"nonpayable","type":"function"},{"inputs":[{"internalType":"address","name":"token","type":"address"},{"internalType":"uint256","name":"amount","type":"uint256"}],"name":"collectFees","outputs":[],"stateMutability":"nonpayable","type":"function"},{"inputs":[{"internalType":"address","name":"","type":"address"}],"name":"collectedFees","outputs":[{"internalType":"uint256","name":"","type":"uint256"}],"stateMutability":"view","type":"function"},{"inputs":[{"internalType":"address","name":"token","type":"address"}],"name":"completePriceDiscovery","outputs":[],"stateMutability":"nonpayable","type":"function"},{"inputs":[{"internalType":"address","name":"","type":"address"}],"name":"creatorTokenReserves","outputs":[{"internalType":"uint256","name":"","type":"uint256"}],"stateMutability":"view","type":"function"},{"inputs":[],"name":"dex","outputs":[{"internalType":"address","name":"","type":"address"}],"stateMutability":"view","type":"function"},{"inputs":[],"name":"forcePoolNeedUpdate","outputs":[],"stateMutability":"nonpayable","type":"function"},{"inputs":[{"internalType":"address","name":"pool","type":"address"}],"name":"getPoolActivity","outputs":[{"internalType":"uint256","name":"lastTrade","type":"uint256"},{"internalType":"uint256","name":"volume24h","type":"uint256"},{"internalType":"bool","name":"isActive","type":"bool"}],"stateMutability":"view","type":"function"},{"inputs":[],"name":"getPoolNeedInfo","outputs":[{"internalType":"address","name":"pool","type":"address"},{"internalType":"uint256","name":"score","type":"uint256"},{"internalType":"uint256","name":"lastUpdate","type":"uint256"},{"internalType":"bool","name":"isStale","type":"bool"}],"stateMutability":"view","type":"function"},{"inputs":[{"internalType":"address","name":"creatorToken","type":"address"}],"name":"getReserves","outputs":[{"internalType":"uint256","name":"creatorReserve","type":"uint256"},{"internalType":"uint256","name":"sReserve","type":"uint256"}],"stateMutability":"view","type":"function"},{"inputs":[{"internalType":"bytes32","name":"role","type":"bytes32"}],"name":"getRoleAdmin","outputs":[{"internalType":"bytes32","name":"","type":"bytes32"}],"stateMutability":"view","type":"function"},{"inputs":[{"internalType":"address","name":"token","type":"address"}],"name":"getSmoothedMetrics","outputs":[{"internalType":"uint256","name":"lastCount","type":"uint256"},{"internalType":"uint256","name":"smoothedCount","type":"uint256"},{"internalType":"uint256","name":"updateCount","type":"uint256"},{"internalType":"bool","name":"eligibleForRebalance","type":"bool"}],"stateMutability":"view","type":"function"},{"inputs":[],"name":"getTrackedPools","outputs":[{"internalType":"address[]","name":"","type":"address[]"}],"stateMutability":"view","type":"function"},{"inputs":[{"internalType":"address","name":"dex","type":"address"}],"name":"grantDEXRole","outputs":[],"stateMutability":"nonpayable","type":"function"},{"inputs":[{"internalType":"bytes32","name":"role","type":"bytes32"},{"internalType":"address","name":"account","type":"address"}],"name":"grantRole","outputs":[],"stateMutability":"nonpayable","type":"function"},{"inputs":[{"internalType":"bytes32","name":"role","type":"bytes32"},{"internalType":"address","name":"account","type":"address"}],"name":"hasRole","outputs":[{"internalType":"bool","name":"","type":"bool"}],"stateMutability":"view","type":"function"},{"inputs":[{"internalType":"address","name":"pool","type":"address"}],"name":"isPoolActive","outputs":[{"internalType":"bool","name":"","type":"bool"}],"stateMutability":"view","type":"function"},{"inputs":[{"internalType":"address","name":"","type":"address"}],"name":"isTrackedPool","outputs":[{"internalType":"bool","name":"","type":"bool"}],"stateMutability":"view","type":"function"},{"inputs":[],"name":"lastRebalanceTimestamp","outputs":[{"internalType":"uint256","name":"","type":"uint256"}],"stateMutability":"view","type":"function"},{"inputs":[],"name":"mostNeededPool","outputs":[{"internalType":"address","name":"pool","type":"address"},{"internalType":"uint256","name":"score","type":"uint256"},{"internalType":"uint256","name":"lastUpdateTime","type":"uint256"}],"stateMutability":"view","type":"function"},{"inputs":[],"name":"owner","outputs":[{"internalType":"address","name":"","type":"address"}],"stateMutability":"view","type":"function"},{"inputs":[{"internalType":"address","name":"","type":"address"}],"name":"poolActivity","outputs":[{"internalType":"uint256","name":"lastTradeTimestamp","type":"uint256"},{"internalType":"uint256","name":"tradingVolume24h","type":"uint256"},{"internalType":"uint256","name":"lastVolumeUpdateTime","type":"uint256"}],"stateMutability":"view","type":"function"},{"inputs":[{"internalType":"address","name":"","type":"address"}],"name":"priceDiscovery","outputs":[{"internalType":"uint256","name":"initialSubscribers","type":"uint256"},{"internalType":"uint256","name":"currentSubscribers","type":"uint256"},{"internalType":"uint256","name":"observationStartTime","type":"uint256"},{"internalType":"bool","name":"isInDiscovery","type":"bool"}],"stateMutability":"view","type":"function"},{"inputs":[{"internalType":"address","name":"token","type":"address"},{"internalType":"uint256","name":"currentSubscribers","type":"uint256"}],"name":"recordEngagementSnapshot","outputs":[],"stateMutability":"nonpayable","type":"function"},{"inputs":[{"internalType":"address","name":"token","type":"address"},{"internalType":"address","name":"targetPool","type":"address"}],"name":"redeployFees","outputs":[],"stateMutability":"nonpayable","type":"function"},{"inputs":[{"internalType":"address","name":"creatorToken","type":"address"},{"internalType":"uint256","name":"amountCreator","type":"uint256"},{"internalType":"uint256","name":"amountS","type":"uint256"}],"name":"removeLiquidity","outputs":[],"stateMutability":"nonpayable","type":"function"},{"inputs":[{"internalType":"address","name":"pool","type":"address"}],"name":"removePoolFromTracking","outputs":[],"stateMutability":"nonpayable","type":"function"},{"inputs":[],"name":"renounceOwnership","outputs":[],"stateMutability":"nonpayable","type":"function"},{"inputs":[{"internalType":"bytes32","name":"role","type":"bytes32"},{"internalType":"address","name":"callerConfirmation","type":"address"}],"name":"renounceRole","outputs":[],"stateMutability":"nonpayable","type":"function"},{"inputs":[{"internalType":"address","name":"dex","type":"address"}],"name":"revokeDEXRole","outputs":[],"stateMutability":"nonpayable","type":"function"},{"inputs":[{"internalType":"bytes32","name":"role","type":"bytes32"},{"internalType":"address","name":"account","type":"address"}],"name":"revokeRole","outputs":[],"stateMutability":"nonpayable","type":"function"},{"inputs":[{"internalType":"address","name":"_dex","type":"address"}],"name":"setDEX","outputs":[],"stateMutability":"nonpayable","type":"function"},{"inputs":[{"internalType":"address","name":"","type":"address"}],"name":"sonicReserves","outputs":[{"internalType":"uint256","name":"","type":"uint256"}],"stateMutability":"view","type":"function"},{"inputs":[],"name":"sonicToken","outputs":[{"internalType":"address","name":"","type":"address"}],"stateMutability":"view","type":"function"},{"inputs":[{"internalType":"address","name":"token","type":"address"},{"internalType":"uint256","name":"initialSubscribers","type":"uint256"}],"name":"startPriceDiscovery","outputs":[],"stateMutability":"nonpayable","type":"function"},{"inputs":[{"internalType":"bytes4","name":"interfaceId","type":"bytes4"}],"name":"supportsInterface","outputs":[{"internalType":"bool","name":"","type":"bool"}],"stateMutability":"view","type":"function"},{"inputs":[{"internalType":"address","name":"","type":"address"}],"name":"tokenEngagement","outputs":[{"internalType":"uint256","name":"lastSubscriberCount","type":"uint256"},{"internalType":"uint256","name":"smoothedSubscriberCount","type":"uint256"},{"internalType":"uint256","name":"lastUpdateTime","type":"uint256"},{"internalType":"uint256","name":"updateCount","type":"uint256"}],"stateMutability":"view","type":"function"},{"inputs":[{"internalType":"uint256","name":"","type":"uint256"}],"name":"trackedPools","outputs":[{"internalType":"address","name":"","type":"address"}],"stateMutability":"view","type":"function"},{"inputs":[{"internalType":"address","name":"newOwner","type":"address"}],"name":"transferOwnership","outputs":[],"stateMutability":"nonpayable","type":"function"},{"inputs":[{"internalType":"address","name":"token","type":"address"},{"internalType":"uint256","name":"newSubscriberCount","type":"uint256"}],"name":"updateEngagementMetrics","outputs":[],"stateMutability":"nonpayable","type":"function"},{"inputs":[{"internalType":"address","name":"pool","type":"address"},{"internalType":"uint256","name":"tradeAmount","type":"uint256"}],"name":"updatePoolActivity","outputs":[],"stateMutability":"nonpayable","type":"function"},{"inputs":[{"internalType":"address","name":"token","type":"address"},{"internalType":"uint256","name":"amount","type":"uint256"}],"name":"withdrawFees","outputs":[],"stateMutability":"nonpayable","type":"function"},{"stateMutability":"payable","type":"receive"}],"evm":{"bytecode":{"linkReferences":{},"object":"6080346100e957601f61335138819003918201601f19168301916001600160401b038311848410176100ee578084926020946040528339810103126100e957516001600160a01b038116908190036100e95733156100d35760008054336001600160a01b0319821681178355916001600160a01b03909116907f8be0079c531659141344cd1fd0a4f28419497f9722a3daafe3b4186f6b6457e09080a3600580546001600160a01b0319169190911790556100b933610104565b506100c333610180565b506040516130d890816102198239f35b631e4fbdf760e01b600052600060045260246000fd5b600080fd5b634e487b7160e01b600052604160045260246000fd5b6001600160a01b0381166000908152600080516020613311833981519152602052604090205460ff1661017a576001600160a01b0316600081815260008051602061331183398151915260205260408120805460ff191660011790553391906000805160206132f18339815191528180a4600190565b50600090565b6001600160a01b0381166000908152600080516020613331833981519152602052604090205460ff1661017a576001600160a01b0316600081815260008051602061333183398151915260205260408120805460ff191660011790553391907f3d962df346299889e3ddd098bdd68cf335a1e370339bd306448317d39b39a66d906000805160206132f18339815191529080a460019056fe6080806040526004361015610011575b005b60003560e01c90816301ffc9a71461217557508063051e0e671461211a57806314f302ac146120f957806317359688146114fc5780631879dcf3146120d65780631b5a799a146120b25780631cead9a71461207857806321b77d631461101d5780632253fc3c14611efa57806323bfa79214611eb8578063248a9ca314611e8b5780632d957a8c14611e6e5780632ef9726514611e455780632f2ff15d14611e0557806330ae780514611de857806331ad24f814611dcc5780633417c3d014611d9f57806336568abe14611d595780633e99c1e414611d0d5780633ec4335014611c71578063414f99ae14611c53578063461a3a9514611c2a5780634e358af21461192157806355776b771461151d5780635889486e146115015780635c2da7cd146114fc5780636576594b146114cd57806368d693c314611462578063692058c2146114395780636d2beef11461141c578063708b9935146113e2578063715018a61461138957806374a92c661461134a5780637b66a723146112c2578063863ab9c8146112575780638c93ca7c146110985780638da5cb5b1461106f57806391d1485414611022578063993d34501461101d578063a033fcd414610fb1578063a1ce920414610f7a578063a217fddf14610f5e578063a711e6a114610f31578063ad3b1b4714610e63578063b1eb483514610e07578063b2098fa214610d3b578063b83d815714610d1d578063bc99f48714610c06578063bd1e31aa14610bd4578063bd368d4814610bb3578063c157c05f14610b79578063d547741f14610b34578063d6f969e214610ae4578063e1aeb09214610a7d578063e38192e314610826578063e71e76c11461071d578063f2fd23de146106c1578063f2fde38b14610638578063f836c8f2146105e1578063f86325ed146105be5763fb99d5f4146102b957005b346105b95760203660031901126105b9576102d26121c8565b6102da6129b9565b60018060a01b03168060005260086020526040600020600381019061030260ff835416612412565b60028101546201518081018091116104635742106105745760008381526008602052604081206004018054829190825b818110610482575050811590506104795761034c916122d8565b80670de0b6b3a76400000290670de0b6b3a7640000820403610463576127109004670de0b6b3a7640000019081670de0b6b3a764000011610463577f928602a1348c2d5cc6354f7e6953a38bfaf42426cd5d8c83dc7c42b972cfcdb0926103e26001928487604096916729a2241af62c00008111610419575b505067016345785d8a0000811115610407579384915b01546122a9565b9085600052600360205281846000205560ff19815416905582519182526020820152a2005b5067016345785d8a00009384916103db565b7ffbb0338b3040d7b9bd8495de3d07128625b3ead1c3464340ed2e760a015d7447919250879081519081526729a2241af62c00006020820152a26729a2241af62c000087386103c5565b634e487b7160e01b600052601160045260246000fd5b5050600061034c565b80610490575b600101610332565b61049a8184612267565b905460001983019160031b1c828211610463576104b78286612267565b90549060031b1c106104ca575b50610488565b6104d8828597939697612267565b90549060031b1c906104fd6000926104f08388612267565b90549060031b1c906122bc565b91612710830292808404612710149015171561056057926105396105539361052c61054d946001975089612267565b90549060031b1c906122d8565b61271081111561055a575061271090612405565b956122c9565b93906104c4565b90612405565b634e487b7160e01b81526011600452602490fd5b60405162461bcd60e51b815260206004820152601d60248201527f446973636f7665727920706572696f64206e6f7420636f6d706c6574650000006044820152606490fd5b600080fd5b346105b95760003660031901126105b9576020604051670de0b6b3a76400008152f35b346105b95760203660031901126105b95760606105fc6121c8565b60018060a01b038116600052600b6020526040600020906106236001835493015491612533565b90604051928352602083015215156040820152f35b346105b95760203660031901126105b9576106516121c8565b6106596129b9565b6001600160a01b031680156106ab57600080546001600160a01b03198116831782556001600160a01b0316907f8be0079c531659141344cd1fd0a4f28419497f9722a3daafe3b4186f6b6457e09080a3005b631e4fbdf760e01b600052600060045260246000fd5b346105b95760203660031901126105b9576001600160a01b036106e26121c8565b166000526007602052608060406000208054906001810154906003600282015491015491604051938452602084015260408301526060820152f35b346105b95760403660031901126105b9576107366121c8565b3360009081526000805160206130838339815191526020526040902054602435919060ff16156107ed5760018060a01b03169081600052600b6020526040600020904282556002820191825490620151808201809211610463577f339a588d56f667ba0a8358be57070b2b0c9f5159d43eba838ef1da89159b985a9360409360019342106107d657838301554290555b01548151908152426020820152a2005b90506107e6838301918254612405565b90556107c6565b60405162461bcd60e51b8152602060048201526011602482015270086c2d8d8cae440d2e640dcdee840888ab607b1b6044820152606490fd5b346105b9576108343661227f565b9161083d6129b9565b60018060a01b0316918260005260026020528160406000205410610a2c5782600052600360205280604060002054106109e75761087c814710156126f7565b8260005260026020526108a8683635c9adc5dea000006108a1846040600020546122bc565b101561296d565b8260005260036020526108cd683635c9adc5dea000006108a1836040600020546122bc565b82600052600260205260406000206108e68382546122bc565b905582600052600360205260406000206109018282546122bc565b905561090e823385612d4f565b600080808084335af13d156109e2573d67ffffffffffffffff81116109cc5760405190610945601f8201601f191660200183612451565b8152600060203d92013e5b15610987577f96cd817c6329656790ef8fba7675405193677d39619571282f5e21f3a98cd0599160409182519182526020820152a2005b60405162461bcd60e51b815260206004820152601760248201527f5320746f6b656e207472616e73666572206661696c65640000000000000000006044820152606490fd5b634e487b7160e01b600052604160045260246000fd5b610950565b60405162461bcd60e51b815260206004820152601e60248201527f496e73756666696369656e74205320746f6b656e206c697175696469747900006044820152606490fd5b60405162461bcd60e51b8152602060048201526024808201527f496e73756666696369656e742063726561746f7220746f6b656e206c697175696044820152636469747960e01b6064820152608490fd5b346105b95760203660031901126105b9576001600160a01b03610a9e6121c8565b166000908152600860209081526040918290208054600182015460028301546003909301548551928352938201529283015260ff161515606082015280608081015b0390f35b346105b95760003660031901126105b957600d54600e54600f5490916001600160a01b031690610e1081019081811161046357608093604051938452602084015260408301524210156060820152f35b346105b95760403660031901126105b95761000f600435610b536121de565b90610b74610b6f82600052600160205260016040600020015490565b6129e2565b612cc9565b346105b95760203660031901126105b9576001600160a01b03610b9a6121c8565b1660005260036020526020604060002054604051908152f35b346105b95760003660031901126105b957610bcc6129b9565b61000f612e49565b346105b95760403660031901126105b95761000f610bf06121c8565b610bf86121de565b90610c016129b9565b61273c565b346105b95760203660031901126105b957610c1f6121c8565b6001600160a01b03811660008181526004602052604090205491610c4c610c44612583565b8415156125be565b610c69610c57612621565b68056bc75e2d631000008510156125be565b610c71612d8f565b916001600160a01b038316908115610cdf577f2301fe8a9459a994e4a19640f476ca1a19507b1f70fb40de46adf16db68b39ac604086610ccb610cb761000f99896124bf565b91610cc383151561265c565b82111561269f565b8151908152426020820152a3610c016129b9565b60405162461bcd60e51b8152602060048201526016602482015275139bc81cdd5a5d18589b19481c1bdbdb08199bdd5b9960521b6044820152606490fd5b346105b95760003660031901126105b9576020600654604051908152f35b346105b95760003660031901126105b9576040518060206009549283815201809260096000527f6e1540171b6c0c960b71a7020d9f60077f6af931a8bbf590da0223dacf75c7af9060005b818110610de85750505081610d9c910382612451565b6040519182916020830190602084525180915260408301919060005b818110610dc6575050500390f35b82516001600160a01b0316845285945060209384019390920191600101610db8565b82546001600160a01b0316845260209093019260019283019201610d86565b346105b95760203660031901126105b9576001600160a01b03610e286121c8565b166000908152600760209081526040918290208054600182015460039283015485519283529382015292830182905211156060820152608090f35b346105b95760403660031901126105b957610e7c6121c8565b60243590610e886129b9565b60018060a01b0316908160005260046020528060406000205410610ef85760207fc0819c13be868895eb93e40eaceb96de976442fa1d404e5c55f14bb65a8c489a9183600052600482526040600020610ee28282546122bc565b9055610eef813386612d4f565b604051908152a2005b60405162461bcd60e51b8152602060048201526011602482015270496e73756666696369656e74206665657360781b6044820152606490fd5b346105b95760203660031901126105b9576020610f54610f4f6121c8565b612533565b6040519015158152f35b346105b95760003660031901126105b957602060405160008152f35b346105b95760003660031901126105b957606060018060a01b03600d5416600e54600f549060405192835260208301526040820152f35b346105b95760403660031901126105b957610fca6121c8565b7f9dc46f23cfb5ddcad0ae7ea2be38d47fec07bb9382ec7e564efc69e036dd66ce60206024359260018060a01b03169283600052600482526040600020611012828254612405565b9055604051908152a2005b612212565b346105b95760403660031901126105b95761103b6121de565b600435600052600160205260406000209060018060a01b0316600052602052602060ff604060002054166040519015158152f35b346105b95760003660031901126105b9576000546040516001600160a01b039091168152602090f35b346105b95760403660031901126105b9576110b16121c8565b602435906110bd6129b9565b6001600160a01b031660008181526008602052604090206003015490919060ff1661121b576020906040516110f28382612451565b60008152600036813760405160a081019080821067ffffffffffffffff8311176109cc5760049160405283815284810184815260408201428152606083019160018352608084019586528860005260088852604060002093518455516001840155516002830155600382019051151560ff801983541691161790550190519081519167ffffffffffffffff83116109cc57600160401b83116109cc57849082548484558085106111f0575b5001906000528360002060005b8381106111de57867f9d3136590a24e6eb0d058d4d9b8c4d5be27926b0abfeca301a4d5fc0aaab775d8787604051908152a2005b825182820155918501916001016111aa565b83600052848360002091820191015b81811061120c575061119d565b600081558793506001016111ff565b60405162461bcd60e51b8152602060048201526014602482015273416c726561647920696e20646973636f7665727960601b6044820152606490fd5b346105b95760203660031901126105b95761000f6112736121c8565b61127b6129b9565b60008051602061306383398151915260005260016020527f7ada6dbb520616cff5d6f574aff5a85f6d0dabe1f7d96c08fe8e54d79bfca6e1546112bd906129e2565b612a1f565b346105b95760203660031901126105b9576112db6121c8565b6112e36129b9565b6001600160a01b0316801561130f576bffffffffffffffffffffffff60a01b600c541617600c55600080f35b60405162461bcd60e51b8152602060048201526013602482015272496e76616c696420444558206164647265737360681b6044820152606490fd5b346105b95760203660031901126105b9576001600160a01b0361136b6121c8565b16600052600a602052602060ff604060002054166040519015158152f35b346105b95760003660031901126105b9576113a26129b9565b600080546001600160a01b0319811682556001600160a01b03167f8be0079c531659141344cd1fd0a4f28419497f9722a3daafe3b4186f6b6457e08280a3005b346105b95760203660031901126105b9576001600160a01b036114036121c8565b1660005260026020526020604060002054604051908152f35b346105b95760003660031901126105b95760206040516138408152f35b346105b95760003660031901126105b957600c546040516001600160a01b039091168152602090f35b346105b95760203660031901126105b95761000f61147e6121c8565b6114866129b9565b60008051602061306383398151915260005260016020527f7ada6dbb520616cff5d6f574aff5a85f6d0dabe1f7d96c08fe8e54d79bfca6e1546114c8906129e2565b612c33565b346105b95760403660031901126105b95760206114f46114eb6121c8565b602435906124bf565b604051908152f35b6121f4565b346105b95760003660031901126105b957602060405160038152f35b6115263661227f565b9061152f6129b9565b80151580611918575b156118d35781340361188e57604051636eb1769f60e11b81523360048201523060248201526001600160a01b0384169390602081604481885afa80156117fc578391600091611859575b5010611808576040516370a0823160e01b8152336004820152602081602481885afa80156117fc5783916000916117c7575b5010611777578360005260026020526115e6683635c9adc5dea000006115df84604060002054612405565b1015612473565b83600052600360205261160b683635c9adc5dea000006115df85604060002054612405565b8360005260026020526040600020611624838254612405565b9055836000526003602052604060002061163f848254612405565b905583600052600a60205260ff60406000205416156116c5575b506040907fac1d76749e5447b7b16f5ab61447e1bd502f3bb4807af3b28e620d1700a6ee45926116b883516323b872dd60e01b6020820152336024820152306044820152836064820152606481526116b2608482612451565b86613007565b82519182526020820152a2005b9060095492600160401b8410156109cc5761173160409361170d8660017fac1d76749e5447b7b16f5ab61447e1bd502f3bb4807af3b28e620d1700a6ee459801600955612236565b81546001600160a01b0393841660039290921b91821b9390911b1916919091179055565b84600052600a60205282600020600160ff19825416179055847f402f8a396b78c225022a54972367fd98a174c970fbf537400bb383a0690ebd78600080a2925090611659565b60405162461bcd60e51b815260206004820152602260248201527f496e73756666696369656e742063726561746f7220746f6b656e2062616c616e604482015261636560f01b6064820152608490fd5b9150506020813d6020116117f4575b816117e360209383612451565b810103126105b957829051866115b4565b3d91506117d6565b6040513d6000823e3d90fd5b60405162461bcd60e51b8152602060048201526024808201527f496e73756666696369656e742063726561746f7220746f6b656e20616c6c6f77604482015263616e636560e01b6064820152608490fd5b9150506020813d602011611886575b8161187560209383612451565b810103126105b95782905186611582565b3d9150611868565b60405162461bcd60e51b815260206004820152601760248201527f496e636f7272656374205320616d6f756e742073656e740000000000000000006044820152606490fd5b60405162461bcd60e51b815260206004820152601960248201527f496e76616c6964206c697175696469747920616d6f756e7473000000000000006044820152606490fd5b50811515611538565b346105b95760403660031901126105b95761193a6121c8565b602435906119466129b9565b60018060a01b03169081600052600860205260406000209061196e60ff600384015416612412565b60048201908154926006841015611bed57600160401b8410156109cc57604082869360017f469b6894b4b45f49c7c10aa3e70e1fae20f0eba89b628e3d69af9d7a34ef8bcf946119c5898360069b018a5589612267565b81549060031b9085821b91600019901b191617905501558151908152426020820152a254146119f057005b6119f86129b9565b80600052600860205260406000206003810190611a1860ff835416612412565b60028101546201518081018091116104635742106105745760008381526008602052604081206004018054829190825b818110611b4957505081159050611b4057611a62916122d8565b80670de0b6b3a76400000290670de0b6b3a7640000820403610463576127109004670de0b6b3a7640000019081670de0b6b3a764000011610463577f928602a1348c2d5cc6354f7e6953a38bfaf42426cd5d8c83dc7c42b972cfcdb0926103e26001928487604096916729a2241af62c00008111611af657505067016345785d8a00008111156104075793849101546122a9565b7ffbb0338b3040d7b9bd8495de3d07128625b3ead1c3464340ed2e760a015d7447919250879081519081526729a2241af62c00006020820152a26729a2241af62c000087896103c5565b50506000611a62565b80611b57575b600101611a48565b611b618184612267565b905460001983019160031b1c82821161046357611b7e8286612267565b90549060031b1c10611b91575b50611b4f565b611b9f828597939697612267565b90549060031b1c90611bb76000926104f08388612267565b9161271083029280840461271014901517156105605792610539611be69361052c61054d946001975089612267565b9390611b8b565b60405162461bcd60e51b815260206004820152601560248201527413585e081cdb985c1cda1bdd1cc81c995858da1959605a1b6044820152606490fd5b346105b95760003660031901126105b9576005546040516001600160a01b039091168152602090f35b346105b95760003660031901126105b957602060405162093a808152f35b346105b95760203660031901126105b957611c8a6121c8565b600654620151808101809111610463574210611cc8576001600160a01b038116600090815260076020526040902054611cc291612b46565b42600655005b60405162461bcd60e51b815260206004820152601760248201527f546f6f206561726c7920666f7220726562616c616e63650000000000000000006044820152606490fd5b346105b95760203660031901126105b95760406001600160a01b03611d306121c8565b168060005260026020528160002054906000526003602052816000205482519182526020820152f35b346105b95760403660031901126105b957611d726121de565b336001600160a01b03821603611d8e5761000f90600435612cc9565b63334bd91960e11b60005260046000fd5b346105b95760403660031901126105b95761000f611dbb6121c8565b611dc36129b9565b602435906122f8565b346105b95760003660031901126105b957602060405160068152f35b346105b95760003660031901126105b95760206040516103e88152f35b346105b95760403660031901126105b95761000f600435611e246121de565b90611e40610b6f82600052600160205260016040600020015490565b612ab7565b346105b95760003660031901126105b95760206040516000805160206130638339815191528152f35b346105b95760003660031901126105b9576020604051610e108152f35b346105b95760203660031901126105b95760206114f4600435600052600160205260016040600020015490565b346105b95760203660031901126105b9576004356009548110156105b957611ee1602091612236565b905460405160039290921b1c6001600160a01b03168152f35b346105b95760203660031901126105b957611f136121c8565b611f1b6129b9565b6001600160a01b03166000818152600a602052604090205460ff16156120405760005b60095490818110156120395782611f5482612236565b905460039190911b1c6001600160a01b031614611f75576001915001611f3e565b60001982019182116104635781810361200b575b50506009548015611ff55760001901611fa181612236565b81549060018060a01b039060031b1b191690556009555b80600052600a602052604060002060ff1981541690557ffe00c1e8cd2c81e2fc9fbcfbd6eef9904d0b41515821320d5c45abe6e8baae55600080a2005b634e487b7160e01b600052603160045260246000fd5b61170d61201a61203293612236565b905460039190911b1c6001600160a01b031691612236565b8180611f89565b5050611fb8565b60405162461bcd60e51b815260206004820152601060248201526f141bdbdb081b9bdd081d1c9858dad95960821b6044820152606490fd5b346105b95760203660031901126105b9576001600160a01b036120996121c8565b1660005260046020526020604060002054604051908152f35b346105b95760003660031901126105b957602060405168056bc75e2d631000008152f35b346105b95760003660031901126105b957602060405167016345785d8a00008152f35b346105b95760403660031901126105b95760206114f46024356004356122a9565b346105b95760203660031901126105b9576001600160a01b0361213b6121c8565b16600052600b60205260406000208054610ae060026001840154930154604051938493846040919493926060820195825260208201520152565b346105b95760203660031901126105b9576004359063ffffffff60e01b82168092036105b957602091637965db0b60e01b81149081156121b7575b5015158152f35b6301ffc9a760e01b149050836121b0565b600435906001600160a01b03821682036105b957565b602435906001600160a01b03821682036105b957565b346105b95760003660031901126105b9576020604051620151808152f35b346105b95760003660031901126105b9576020604051683635c9adc5dea000008152f35b60095481101561225157600960005260206000200190600090565b634e487b7160e01b600052603260045260246000fd5b80548210156122515760005260206000200190600090565b60609060031901126105b9576004356001600160a01b03811681036105b957906024359060443590565b8181029291811591840414171561046357565b9190820391821161046357565b60001981146104635760010190565b81156122e2570490565b634e487b7160e01b600052601260045260246000fd5b6001600160a01b0381166000818152600760205260409020805492939192156123f15760018101928354605081029080820460501490151715610463576014840292848404601414851517156104635761235c600394926064808795049104612405565b809686835555426002820155019061237482546122c9565b8092557fca21c0666034043e35144e1a6964b4519a124330e0122463475f81a0c189d119604051806123b9428989846040919493926060820195825260208201520152565b0390a210156123c757505050565b606e8202828104606e14831517156104635760649004106123e6575050565b6123ef91612b46565b565b906001935060039250808255838201550155565b9190820180921161046357565b1561241957565b60405162461bcd60e51b815260206004820152601060248201526f4e6f7420696e20646973636f7665727960801b6044820152606490fd5b90601f8019910116810190811067ffffffffffffffff8211176109cc57604052565b1561247a57565b60405162461bcd60e51b815260206004820152601760248201527f42656c6f77206d696e696d756d206c69717569646974790000000000000000006044820152606490fd5b60018060a01b03168060005260076020526040600020906000526003602052604060002054905490670de0b6b3a7640000820291808304670de0b6b3a76400001490151715610463578181101561252b57612519916122bc565b9080821015612526575090565b905090565b505050600090565b60018060a01b0316600052600b6020526040600020600181549101549062093a7f19420190428211610463571061257d57683635c9adc5dea000001161257857600190565b600090565b50600090565b60405190612592604083612451565b601d82527f4e6f206665657320617661696c61626c6520746f2072656465706c6f790000006020830152565b156125c65750565b6040519062461bcd60e51b8252602060048301528181519182602483015260005b8381106126095750508160006044809484010152601f80199101168101030190fd5b602082820181015160448784010152859350016125e7565b60405190612630604083612451565b601b82527f42656c6f77206d696e696d756d20666565207468726573686f6c6400000000006020830152565b1561266357565b60405162461bcd60e51b8152602060048201526014602482015273139bc819195c1b1bde5b595b9d081b995959195960621b6044820152606490fd5b156126a657565b60405162461bcd60e51b8152602060048201526024808201527f4465706c6f7920616d6f756e74206578636565647320617661696c61626c65206044820152636665657360e01b6064820152608490fd5b156126fe57565b60405162461bcd60e51b8152602060048201526016602482015275496e73756666696369656e7420532062616c616e636560501b6044820152606490fd5b6001600160a01b038116600081815260046020526040902054909161276a612762612583565b8315156125be565b612787612775612621565b68056bc75e2d631000008410156125be565b6127a861279483866124bf565b926127a084151561265c565b83111561269f565b82600052600460205260406000206127c18382546122bc565b905582158015612950575b6128fd576040516370a0823160e01b8152306004820152602081602481875afa80156117fc5783916000916128c8575b501061288357816128307fa2e59056a8017237dd27a52d5981fb4983f1a43828d018d9ba6e76c801fe905993602093612e08565b9461283d864710156126f7565b60018060a01b0316948560005260028352604060002061285e838254612405565b905585600052600383526128786040600020918254612405565b9055604051908152a3565b60405162461bcd60e51b815260206004820152601a60248201527f496e73756666696369656e7420746f6b656e2062616c616e63650000000000006044820152606490fd5b9150506020813d6020116128f5575b816128e460209383612451565b810103126105b957829051386127fc565b3d91506128d7565b509160207fa2e59056a8017237dd27a52d5981fb4983f1a43828d018d9ba6e76c801fe90599161292f854710156126f7565b60018060a01b03169384600052600382526040600020612878828254612405565b5073eeeeeeeeeeeeeeeeeeeeeeeeeeeeeeeeeeeeeeee83146127cc565b1561297457565b60405162461bcd60e51b815260206004820152601b60248201527f43616e6e6f742072656d6f766520616c6c206c697175696469747900000000006044820152606490fd5b6000546001600160a01b031633036129cd57565b63118cdaa760e01b6000523360045260246000fd5b600081815260016020908152604080832033845290915290205460ff1615612a075750565b63e2517d3f60e01b6000523360045260245260446000fd5b6001600160a01b0381166000908152600080516020613083833981519152602052604090205460ff1661257d576001600160a01b0316600081815260008051602061308383398151915260205260408120805460ff19166001179055339190600080516020613063833981519152907f2f8788117e7eff1d82e926ec794901d17c78024a50270940304540a733656f0d9080a4600190565b60008181526001602090815260408083206001600160a01b038616845290915290205460ff16612b3f5760008181526001602081815260408084206001600160a01b0396909616808552959091528220805460ff19169091179055339291907f2f8788117e7eff1d82e926ec794901d17c78024a50270940304540a733656f0d9080a4600190565b5050600090565b60018060a01b031690816000526003602052683635c9adc5dea0000060406000205410612bca57670de0b6b3a7640000810290808204670de0b6b3a764000014901517156104635760207f8eb665708d1cbfa2df196d5f041bc00ac33e9c6e0b42b64233aed0c7c84da7e191836000526003825280604060002055604051908152a2565b508060005260036020527f43c29e41362bceae5b8f10cf00d57c5b525a270a7ff263f5c6b24158459b0bbe6080604060002054604051908152604060208201526016604082015275496e73756666696369656e74206c697175696469747960501b6060820152a2565b6001600160a01b0381166000908152600080516020613083833981519152602052604090205460ff161561257d576001600160a01b0316600081815260008051602061308383398151915260205260408120805460ff19169055339190600080516020613063833981519152907ff6391f5c32d9c69d2a47ea670b442974b53935d1edc7fd64eb21e047a839171b9080a4600190565b60008181526001602090815260408083206001600160a01b038616845290915290205460ff1615612b3f5760008181526001602090815260408083206001600160a01b0395909516808452949091528120805460ff19169055339291907ff6391f5c32d9c69d2a47ea670b442974b53935d1edc7fd64eb21e047a839171b9080a4600190565b60405163a9059cbb60e01b60208201526001600160a01b0390921660248301526044808301939093529181526123ef91612d8a606483612451565b613007565b600d546001600160a01b031680151580612df1575b612dc1575b50612db2612e49565b600d546001600160a01b031690565b80600052600a60205260ff6040600020541680612de2575b15612da9575b90565b50612dec81612533565b612dd9565b50600f54610e108101809111610463574210612da4565b6001600160a01b03166000908152600260209081526040808320546003909252909120548115612e4457612e3f90612ddf936122a9565b6122d8565b505090565b600d80546001600160a01b03191690556000600e5560095480156130045762093a7f194201904282116104635760005b818110612ec65750505042600f5560018060a01b03600d54167f02bc000d157093a2097e6514a43c3baea9e0cfbe6ee606d000e64892a9ec425d6040600e548151908152426020820152a2565b612ecf81612236565b60018060a01b0391549060031b1c169081600052600b6020526040600020604051906060820182811067ffffffffffffffff8211176109cc57604052805482526002600182015491602084019283520154604083015283600052600a6020528560ff6040600020541615928315612ff9575b50508115612fe5575b50612fdc578160005260036020526040600020549180600052600b6020526001604060002001546007840293808504600714901517156104635760038102908082046003149015171561046357612fa5600a91600195612405565b0490600e548211612fba575b50505b01612e79565b6bffffffffffffffffffffffff60a01b600d541617600d55600e553880612fb1565b60019150612fb4565b683635c9adc5dea000009150511038612f4a565b511091508538612f41565b50565b906000602091828151910182855af1156117fc576000513d61305957506001600160a01b0381163b155b6130385750565b635274afe760e01b60009081526001600160a01b0391909116600452602490fd5b6001141561303156fe3d962df346299889e3ddd098bdd68cf335a1e370339bd306448317d39b39a66d7ada6dbb520616cff5d6f574aff5a85f6d0dabe1f7d96c08fe8e54d79bfca6e0a264697066735822122026e73909976e2e66d76484a4e68744c20a9f0a61cba454caabdb0a793361313e64736f6c634300081c00332f8788117e7eff1d82e926ec794901d17c78024a50270940304540a733656f0da6eef7e35abe7026729641147f7915573c7e97b47efa546f5f6e3230263bcb497ada6dbb520616cff5d6f574aff5a85f6d0dabe1f7d96c08fe8e54d79bfca6e0","opcodes":"PUSH1 0x80 CALLVALUE PUSH2 0xE9 JUMPI PUSH1 0x1F PUSH2 0x3351 CODESIZE DUP2 SWAP1 SUB SWAP2 DUP3 ADD PUSH1 0x1F NOT AND DUP4 ADD SWAP2 PUSH1 0x1 PUSH1 0x1 PUSH1 0x40 SHL SUB DUP4 GT DUP5 DUP5 LT OR PUSH2 0xEE JUMPI DUP1 DUP5 SWAP3 PUSH1 0x20 SWAP5 PUSH1 0x40 MSTORE DUP4 CODECOPY DUP2 ADD SUB SLT PUSH2 0xE9 JUMPI MLOAD PUSH1 0x1 PUSH1 0x1 PUSH1 0xA0 SHL SUB DUP2 AND SWAP1 DUP2 SWAP1 SUB PUSH2 0xE9 JUMPI CALLER ISZERO PUSH2 0xD3 JUMPI PUSH1 0x0 DUP1 SLOAD CALLER PUSH1 0x1 PUSH1 0x1 PUSH1 0xA0 SHL SUB NOT DUP3 AND DUP2 OR DUP4 SSTORE SWAP2 PUSH1 0x1 PUSH1 0x1 PUSH1 0xA0 SHL SUB SWAP1 SWAP2 AND SWAP1 PUSH32 0x8BE0079C531659141344CD1FD0A4F28419497F9722A3DAAFE3B4186F6B6457E0 SWAP1 DUP1 LOG3 PUSH1 0x5 DUP1 SLOAD PUSH1 0x1 PUSH1 0x1 PUSH1 0xA0 SHL SUB NOT AND SWAP2 SWAP1 SWAP2 OR SWAP1 SSTORE PUSH2 0xB9 CALLER PUSH2 0x104 JUMP JUMPDEST POP PUSH2 0xC3 CALLER PUSH2 0x180 JUMP JUMPDEST POP PUSH1 0x40 MLOAD PUSH2 0x30D8 SWAP1 DUP2 PUSH2 0x219 DUP3 CODECOPY RETURN JUMPDEST PUSH4 0x1E4FBDF7 PUSH1 0xE0 SHL PUSH1 0x0 MSTORE PUSH1 0x0 PUSH1 0x4 MSTORE PUSH1 0x24 PUSH1 0x0 REVERT JUMPDEST PUSH1 0x0 DUP1 REVERT JUMPDEST PUSH4 0x4E487B71 PUSH1 0xE0 SHL PUSH1 0x0 MSTORE PUSH1 0x41 PUSH1 0x4 MSTORE PUSH1 0x24 PUSH1 0x0 REVERT JUMPDEST PUSH1 0x1 PUSH1 0x1 PUSH1 0xA0 SHL SUB DUP2 AND PUSH1 0x0 SWAP1 DUP2 MSTORE PUSH1 0x0 DUP1 MLOAD PUSH1 0x20 PUSH2 0x3311 DUP4 CODECOPY DUP2 MLOAD SWAP2 MSTORE PUSH1 0x20 MSTORE PUSH1 0x40 SWAP1 KECCAK256 SLOAD PUSH1 0xFF AND PUSH2 0x17A JUMPI PUSH1 0x1 PUSH1 0x1 PUSH1 0xA0 SHL SUB AND PUSH1 0x0 DUP2 DUP2 MSTORE PUSH1 0x0 DUP1 MLOAD PUSH1 0x20 PUSH2 0x3311 DUP4 CODECOPY DUP2 MLOAD SWAP2 MSTORE PUSH1 0x20 MSTORE PUSH1 0x40 DUP2 KECCAK256 DUP1 SLOAD PUSH1 0xFF NOT AND PUSH1 0x1 OR SWAP1 SSTORE CALLER SWAP2 SWAP1 PUSH1 0x0 DUP1 MLOAD PUSH1 0x20 PUSH2 0x32F1 DUP4 CODECOPY DUP2 MLOAD SWAP2 MSTORE DUP2 DUP1 LOG4 PUSH1 0x1 SWAP1 JUMP JUMPDEST POP PUSH1 0x0 SWAP1 JUMP JUMPDEST PUSH1 0x1 PUSH1 0x1 PUSH1 0xA0 SHL SUB DUP2 AND PUSH1 0x0 SWAP1 DUP2 MSTORE PUSH1 0x0 DUP1 MLOAD PUSH1 0x20 PUSH2 0x3331 DUP4 CODECOPY DUP2 MLOAD SWAP2 MSTORE PUSH1 0x20 MSTORE PUSH1 0x40 SWAP1 KECCAK256 SLOAD PUSH1 0xFF AND PUSH2 0x17A JUMPI PUSH1 0x1 PUSH1 0x1 PUSH1 0xA0 SHL SUB AND PUSH1 0x0 DUP2 DUP2 MSTORE PUSH1 0x0 DUP1 MLOAD PUSH1 0x20 PUSH2 0x3331 DUP4 CODECOPY DUP2 MLOAD SWAP2 MSTORE PUSH1 0x20 MSTORE PUSH1 0x40 DUP2 KECCAK256 DUP1 SLOAD PUSH1 0xFF NOT AND PUSH1 0x1 OR SWAP1 SSTORE CALLER SWAP2 SWAP1 PUSH32 0x3D962DF346299889E3DDD098BDD68CF335A1E370339BD306448317D39B39A66D SWAP1 PUSH1 0x0 DUP1 MLOAD PUSH1 0x20 PUSH2 0x32F1 DUP4 CODECOPY DUP2 MLOAD SWAP2 MSTORE SWAP1 DUP1 LOG4 PUSH1 0x1 SWAP1 JUMP INVALID PUSH1 0x80 DUP1 PUSH1 0x40 MSTORE PUSH1 0x4 CALLDATASIZE LT ISZERO PUSH2 0x11 JUMPI JUMPDEST STOP JUMPDEST PUSH1 0x0 CALLDATALOAD PUSH1 0xE0 SHR SWAP1 DUP2 PUSH4 0x1FFC9A7 EQ PUSH2 0x2175 JUMPI POP DUP1 PUSH4 0x51E0E67 EQ PUSH2 0x211A JUMPI DUP1 PUSH4 0x14F302AC EQ PUSH2 0x20F9 JUMPI DUP1 PUSH4 0x17359688 EQ PUSH2 0x14FC JUMPI DUP1 PUSH4 0x1879DCF3 EQ PUSH2 0x20D6 JUMPI DUP1 PUSH4 0x1B5A799A EQ PUSH2 0x20B2 JUMPI DUP1 PUSH4 0x1CEAD9A7 EQ PUSH2 0x2078 JUMPI DUP1 PUSH4 0x21B77D63 EQ PUSH2 0x101D JUMPI DUP1 PUSH4 0x2253FC3C EQ PUSH2 0x1EFA JUMPI DUP1 PUSH4 0x23BFA792 EQ PUSH2 0x1EB8 JUMPI DUP1 PUSH4 0x248A9CA3 EQ PUSH2 0x1E8B JUMPI DUP1 PUSH4 0x2D957A8C EQ PUSH2 0x1E6E JUMPI DUP1 PUSH4 0x2EF97265 EQ PUSH2 0x1E45 JUMPI DUP1 PUSH4 0x2F2FF15D EQ PUSH2 0x1E05 JUMPI DUP1 PUSH4 0x30AE7805 EQ PUSH2 0x1DE8 JUMPI DUP1 PUSH4 0x31AD24F8 EQ PUSH2 0x1DCC JUMPI DUP1 PUSH4 0x3417C3D0 EQ PUSH2 0x1D9F JUMPI DUP1 PUSH4 0x36568ABE EQ PUSH2 0x1D59 JUMPI DUP1 PUSH4 0x3E99C1E4 EQ PUSH2 0x1D0D JUMPI DUP1 PUSH4 0x3EC43350 EQ PUSH2 0x1C71 JUMPI DUP1 PUSH4 0x414F99AE EQ PUSH2 0x1C53 JUMPI DUP1 PUSH4 0x461A3A95 EQ PUSH2 0x1C2A JUMPI DUP1 PUSH4 0x4E358AF2 EQ PUSH2 0x1921 JUMPI DUP1 PUSH4 0x55776B77 EQ PUSH2 0x151D JUMPI DUP1 PUSH4 0x5889486E EQ PUSH2 0x1501 JUMPI DUP1 PUSH4 0x5C2DA7CD EQ PUSH2 0x14FC JUMPI DUP1 PUSH4 0x6576594B EQ PUSH2 0x14CD JUMPI DUP1 PUSH4 0x68D693C3 EQ PUSH2 0x1462 JUMPI DUP1 PUSH4 0x692058C2 EQ PUSH2 0x1439 JUMPI DUP1 PUSH4 0x6D2BEEF1 EQ PUSH2 0x141C JUMPI DUP1 PUSH4 0x708B9935 EQ PUSH2 0x13E2 JUMPI DUP1 PUSH4 0x715018A6 EQ PUSH2 0x1389 JUMPI DUP1 PUSH4 0x74A92C66 EQ PUSH2 0x134A JUMPI DUP1 PUSH4 0x7B66A723 EQ PUSH2 0x12C2 JUMPI DUP1 PUSH4 0x863AB9C8 EQ PUSH2 0x1257 JUMPI DUP1 PUSH4 0x8C93CA7C EQ PUSH2 0x1098 JUMPI DUP1 PUSH4 0x8DA5CB5B EQ PUSH2 0x106F JUMPI DUP1 PUSH4 0x91D14854 EQ PUSH2 0x1022 JUMPI DUP1 PUSH4 0x993D3450 EQ PUSH2 0x101D JUMPI DUP1 PUSH4 0xA033FCD4 EQ PUSH2 0xFB1 JUMPI DUP1 PUSH4 0xA1CE9204 EQ PUSH2 0xF7A JUMPI DUP1 PUSH4 0xA217FDDF EQ PUSH2 0xF5E JUMPI DUP1 PUSH4 0xA711E6A1 EQ PUSH2 0xF31 JUMPI DUP1 PUSH4 0xAD3B1B47 EQ PUSH2 0xE63 JUMPI DUP1 PUSH4 0xB1EB4835 EQ PUSH2 0xE07 JUMPI DUP1 PUSH4 0xB2098FA2 EQ PUSH2 0xD3B JUMPI DUP1 PUSH4 0xB83D8157 EQ PUSH2 0xD1D JUMPI DUP1 PUSH4 0xBC99F487 EQ PUSH2 0xC06 JUMPI DUP1 PUSH4 0xBD1E31AA EQ PUSH2 0xBD4 JUMPI DUP1 PUSH4 0xBD368D48 EQ PUSH2 0xBB3 JUMPI DUP1 PUSH4 0xC157C05F EQ PUSH2 0xB79 JUMPI DUP1 PUSH4 0xD547741F EQ PUSH2 0xB34 JUMPI DUP1 PUSH4 0xD6F969E2 EQ PUSH2 0xAE4 JUMPI DUP1 PUSH4 0xE1AEB092 EQ PUSH2 0xA7D JUMPI DUP1 PUSH4 0xE38192E3 EQ PUSH2 0x826 JUMPI DUP1 PUSH4 0xE71E76C1 EQ PUSH2 0x71D JUMPI DUP1 PUSH4 0xF2FD23DE EQ PUSH2 0x6C1 JUMPI DUP1 PUSH4 0xF2FDE38B EQ PUSH2 0x638 JUMPI DUP1 PUSH4 0xF836C8F2 EQ PUSH2 0x5E1 JUMPI DUP1 PUSH4 0xF86325ED EQ PUSH2 0x5BE JUMPI PUSH4 0xFB99D5F4 EQ PUSH2 0x2B9 JUMPI STOP JUMPDEST CALLVALUE PUSH2 0x5B9 JUMPI PUSH1 0x20 CALLDATASIZE PUSH1 0x3 NOT ADD SLT PUSH2 0x5B9 JUMPI PUSH2 0x2D2 PUSH2 0x21C8 JUMP JUMPDEST PUSH2 0x2DA PUSH2 0x29B9 JUMP JUMPDEST PUSH1 0x1 DUP1 PUSH1 0xA0 SHL SUB AND DUP1 PUSH1 0x0 MSTORE PUSH1 0x8 PUSH1 0x20 MSTORE PUSH1 0x40 PUSH1 0x0 KECCAK256 PUSH1 0x3 DUP2 ADD SWAP1 PUSH2 0x302 PUSH1 0xFF DUP4 SLOAD AND PUSH2 0x2412 JUMP JUMPDEST PUSH1 0x2 DUP2 ADD SLOAD PUSH3 0x15180 DUP2 ADD DUP1 SWAP2 GT PUSH2 0x463 JUMPI TIMESTAMP LT PUSH2 0x574 JUMPI PUSH1 0x0 DUP4 DUP2 MSTORE PUSH1 0x8 PUSH1 0x20 MSTORE PUSH1 0x40 DUP2 KECCAK256 PUSH1 0x4 ADD DUP1 SLOAD DUP3 SWAP2 SWAP1 DUP3 JUMPDEST DUP2 DUP2 LT PUSH2 0x482 JUMPI POP POP DUP2 ISZERO SWAP1 POP PUSH2 0x479 JUMPI PUSH2 0x34C SWAP2 PUSH2 0x22D8 JUMP JUMPDEST DUP1 PUSH8 0xDE0B6B3A7640000 MUL SWAP1 PUSH8 0xDE0B6B3A7640000 DUP3 DIV SUB PUSH2 0x463 JUMPI PUSH2 0x2710 SWAP1 DIV PUSH8 0xDE0B6B3A7640000 ADD SWAP1 DUP2 PUSH8 0xDE0B6B3A7640000 GT PUSH2 0x463 JUMPI PUSH32 0x928602A1348C2D5CC6354F7E6953A38BFAF42426CD5D8C83DC7C42B972CFCDB0 SWAP3 PUSH2 0x3E2 PUSH1 0x1 SWAP3 DUP5 DUP8 PUSH1 0x40 SWAP7 SWAP2 PUSH8 0x29A2241AF62C0000 DUP2 GT PUSH2 0x419 JUMPI JUMPDEST POP POP PUSH8 0x16345785D8A0000 DUP2 GT ISZERO PUSH2 0x407 JUMPI SWAP4 DUP5 SWAP2 JUMPDEST ADD SLOAD PUSH2 0x22A9 JUMP JUMPDEST SWAP1 DUP6 PUSH1 0x0 MSTORE PUSH1 0x3 PUSH1 0x20 MSTORE DUP2 DUP5 PUSH1 0x0 KECCAK256 SSTORE PUSH1 0xFF NOT DUP2 SLOAD AND SWAP1 SSTORE DUP3 MLOAD SWAP2 DUP3 MSTORE PUSH1 0x20 DUP3 ADD MSTORE LOG2 STOP JUMPDEST POP PUSH8 0x16345785D8A0000 SWAP4 DUP5 SWAP2 PUSH2 0x3DB JUMP JUMPDEST PUSH32 0xFBB0338B3040D7B9BD8495DE3D07128625B3EAD1C3464340ED2E760A015D7447 SWAP2 SWAP3 POP DUP8 SWAP1 DUP2 MLOAD SWAP1 DUP2 MSTORE PUSH8 0x29A2241AF62C0000 PUSH1 0x20 DUP3 ADD MSTORE LOG2 PUSH8 0x29A2241AF62C0000 DUP8 CODESIZE PUSH2 0x3C5 JUMP JUMPDEST PUSH4 0x4E487B71 PUSH1 0xE0 SHL PUSH1 0x0 MSTORE PUSH1 0x11 PUSH1 0x4 MSTORE PUSH1 0x24 PUSH1 0x0 REVERT JUMPDEST POP POP PUSH1 0x0 PUSH2 0x34C JUMP JUMPDEST DUP1 PUSH2 0x490 JUMPI JUMPDEST PUSH1 0x1 ADD PUSH2 0x332 JUMP JUMPDEST PUSH2 0x49A DUP2 DUP5 PUSH2 0x2267 JUMP JUMPDEST SWAP1 SLOAD PUSH1 0x0 NOT DUP4 ADD SWAP2 PUSH1 0x3 SHL SHR DUP3 DUP3 GT PUSH2 0x463 JUMPI PUSH2 0x4B7 DUP3 DUP7 PUSH2 0x2267 JUMP JUMPDEST SWAP1 SLOAD SWAP1 PUSH1 0x3 SHL SHR LT PUSH2 0x4CA JUMPI JUMPDEST POP PUSH2 0x488 JUMP JUMPDEST PUSH2 0x4D8 DUP3 DUP6 SWAP8 SWAP4 SWAP7 SWAP8 PUSH2 0x2267 JUMP JUMPDEST SWAP1 SLOAD SWAP1 PUSH1 0x3 SHL SHR SWAP1 PUSH2 0x4FD PUSH1 0x0 SWAP3 PUSH2 0x4F0 DUP4 DUP9 PUSH2 0x2267 JUMP JUMPDEST SWAP1 SLOAD SWAP1 PUSH1 0x3 SHL SHR SWAP1 PUSH2 0x22BC JUMP JUMPDEST SWAP2 PUSH2 0x2710 DUP4 MUL SWAP3 DUP1 DUP5 DIV PUSH2 0x2710 EQ SWAP1 ISZERO OR ISZERO PUSH2 0x560 JUMPI SWAP3 PUSH2 0x539 PUSH2 0x553 SWAP4 PUSH2 0x52C PUSH2 0x54D SWAP5 PUSH1 0x1 SWAP8 POP DUP10 PUSH2 0x2267 JUMP JUMPDEST SWAP1 SLOAD SWAP1 PUSH1 0x3 SHL SHR SWAP1 PUSH2 0x22D8 JUMP JUMPDEST PUSH2 0x2710 DUP2 GT ISZERO PUSH2 0x55A JUMPI POP PUSH2 0x2710 SWAP1 PUSH2 0x2405 JUMP JUMPDEST SWAP6 PUSH2 0x22C9 JUMP JUMPDEST SWAP4 SWAP1 PUSH2 0x4C4 JUMP JUMPDEST SWAP1 PUSH2 0x2405 JUMP JUMPDEST PUSH4 0x4E487B71 PUSH1 0xE0 SHL DUP2 MSTORE PUSH1 0x11 PUSH1 0x4 MSTORE PUSH1 0x24 SWAP1 REVERT JUMPDEST PUSH1 0x40 MLOAD PUSH3 0x461BCD PUSH1 0xE5 SHL DUP2 MSTORE PUSH1 0x20 PUSH1 0x4 DUP3 ADD MSTORE PUSH1 0x1D PUSH1 0x24 DUP3 ADD MSTORE PUSH32 0x446973636F7665727920706572696F64206E6F7420636F6D706C657465000000 PUSH1 0x44 DUP3 ADD MSTORE PUSH1 0x64 SWAP1 REVERT JUMPDEST PUSH1 0x0 DUP1 REVERT JUMPDEST CALLVALUE PUSH2 0x5B9 JUMPI PUSH1 0x0 CALLDATASIZE PUSH1 0x3 NOT ADD SLT PUSH2 0x5B9 JUMPI PUSH1 0x20 PUSH1 0x40 MLOAD PUSH8 0xDE0B6B3A7640000 DUP2 MSTORE RETURN JUMPDEST CALLVALUE PUSH2 0x5B9 JUMPI PUSH1 0x20 CALLDATASIZE PUSH1 0x3 NOT ADD SLT PUSH2 0x5B9 JUMPI PUSH1 0x60 PUSH2 0x5FC PUSH2 0x21C8 JUMP JUMPDEST PUSH1 0x1 DUP1 PUSH1 0xA0 SHL SUB DUP2 AND PUSH1 0x0 MSTORE PUSH1 0xB PUSH1 0x20 MSTORE PUSH1 0x40 PUSH1 0x0 KECCAK256 SWAP1 PUSH2 0x623 PUSH1 0x1 DUP4 SLOAD SWAP4 ADD SLOAD SWAP2 PUSH2 0x2533 JUMP JUMPDEST SWAP1 PUSH1 0x40 MLOAD SWAP3 DUP4 MSTORE PUSH1 0x20 DUP4 ADD MSTORE ISZERO ISZERO PUSH1 0x40 DUP3 ADD MSTORE RETURN JUMPDEST CALLVALUE PUSH2 0x5B9 JUMPI PUSH1 0x20 CALLDATASIZE PUSH1 0x3 NOT ADD SLT PUSH2 0x5B9 JUMPI PUSH2 0x651 PUSH2 0x21C8 JUMP JUMPDEST PUSH2 0x659 PUSH2 0x29B9 JUMP JUMPDEST PUSH1 0x1 PUSH1 0x1 PUSH1 0xA0 SHL SUB AND DUP1 ISZERO PUSH2 0x6AB JUMPI PUSH1 0x0 DUP1 SLOAD PUSH1 0x1 PUSH1 0x1 PUSH1 0xA0 SHL SUB NOT DUP2 AND DUP4 OR DUP3 SSTORE PUSH1 0x1 PUSH1 0x1 PUSH1 0xA0 SHL SUB AND SWAP1 PUSH32 0x8BE0079C531659141344CD1FD0A4F28419497F9722A3DAAFE3B4186F6B6457E0 SWAP1 DUP1 LOG3 STOP JUMPDEST PUSH4 0x1E4FBDF7 PUSH1 0xE0 SHL PUSH1 0x0 MSTORE PUSH1 0x0 PUSH1 0x4 MSTORE PUSH1 0x24 PUSH1 0x0 REVERT JUMPDEST CALLVALUE PUSH2 0x5B9 JUMPI PUSH1 0x20 CALLDATASIZE PUSH1 0x3 NOT ADD SLT PUSH2 0x5B9 JUMPI PUSH1 0x1 PUSH1 0x1 PUSH1 0xA0 SHL SUB PUSH2 0x6E2 PUSH2 0x21C8 JUMP JUMPDEST AND PUSH1 0x0 MSTORE PUSH1 0x7 PUSH1 0x20 MSTORE PUSH1 0x80 PUSH1 0x40 PUSH1 0x0 KECCAK256 DUP1 SLOAD SWAP1 PUSH1 0x1 DUP2 ADD SLOAD SWAP1 PUSH1 0x3 PUSH1 0x2 DUP3 ADD SLOAD SWAP2 ADD SLOAD SWAP2 PUSH1 0x40 MLOAD SWAP4 DUP5 MSTORE PUSH1 0x20 DUP5 ADD MSTORE PUSH1 0x40 DUP4 ADD MSTORE PUSH1 0x60 DUP3 ADD MSTORE RETURN JUMPDEST CALLVALUE PUSH2 0x5B9 JUMPI PUSH1 0x40 CALLDATASIZE PUSH1 0x3 NOT ADD SLT PUSH2 0x5B9 JUMPI PUSH2 0x736 PUSH2 0x21C8 JUMP JUMPDEST CALLER PUSH1 0x0 SWAP1 DUP2 MSTORE PUSH1 0x0 DUP1 MLOAD PUSH1 0x20 PUSH2 0x3083 DUP4 CODECOPY DUP2 MLOAD SWAP2 MSTORE PUSH1 0x20 MSTORE PUSH1 0x40 SWAP1 KECCAK256 SLOAD PUSH1 0x24 CALLDATALOAD SWAP2 SWAP1 PUSH1 0xFF AND ISZERO PUSH2 0x7ED JUMPI PUSH1 0x1 DUP1 PUSH1 0xA0 SHL SUB AND SWAP1 DUP2 PUSH1 0x0 MSTORE PUSH1 0xB PUSH1 0x20 MSTORE PUSH1 0x40 PUSH1 0x0 KECCAK256 SWAP1 TIMESTAMP DUP3 SSTORE PUSH1 0x2 DUP3 ADD SWAP2 DUP3 SLOAD SWAP1 PUSH3 0x15180 DUP3 ADD DUP1 SWAP3 GT PUSH2 0x463 JUMPI PUSH32 0x339A588D56F667BA0A8358BE57070B2B0C9F5159D43EBA838EF1DA89159B985A SWAP4 PUSH1 0x40 SWAP4 PUSH1 0x1 SWAP4 TIMESTAMP LT PUSH2 0x7D6 JUMPI DUP4 DUP4 ADD SSTORE TIMESTAMP SWAP1 SSTORE JUMPDEST ADD SLOAD DUP2 MLOAD SWAP1 DUP2 MSTORE TIMESTAMP PUSH1 0x20 DUP3 ADD MSTORE LOG2 STOP JUMPDEST SWAP1 POP PUSH2 0x7E6 DUP4 DUP4 ADD SWAP2 DUP3 SLOAD PUSH2 0x2405 JUMP JUMPDEST SWAP1 SSTORE PUSH2 0x7C6 JUMP JUMPDEST PUSH1 0x40 MLOAD PUSH3 0x461BCD PUSH1 0xE5 SHL DUP2 MSTORE PUSH1 0x20 PUSH1 0x4 DUP3 ADD MSTORE PUSH1 0x11 PUSH1 0x24 DUP3 ADD MSTORE PUSH17 0x86C2D8D8CAE440D2E640DCDEE840888AB PUSH1 0x7B SHL PUSH1 0x44 DUP3 ADD MSTORE PUSH1 0x64 SWAP1 REVERT JUMPDEST CALLVALUE PUSH2 0x5B9 JUMPI PUSH2 0x834 CALLDATASIZE PUSH2 0x227F JUMP JUMPDEST SWAP2 PUSH2 0x83D PUSH2 0x29B9 JUMP JUMPDEST PUSH1 0x1 DUP1 PUSH1 0xA0 SHL SUB AND SWAP2 DUP3 PUSH1 0x0 MSTORE PUSH1 0x2 PUSH1 0x20 MSTORE DUP2 PUSH1 0x40 PUSH1 0x0 KECCAK256 SLOAD LT PUSH2 0xA2C JUMPI DUP3 PUSH1 0x0 MSTORE PUSH1 0x3 PUSH1 0x20 MSTORE DUP1 PUSH1 0x40 PUSH1 0x0 KECCAK256 SLOAD LT PUSH2 0x9E7 JUMPI PUSH2 0x87C DUP2 SELFBALANCE LT ISZERO PUSH2 0x26F7 JUMP JUMPDEST DUP3 PUSH1 0x0 MSTORE PUSH1 0x2 PUSH1 0x20 MSTORE PUSH2 0x8A8 PUSH9 0x3635C9ADC5DEA00000 PUSH2 0x8A1 DUP5 PUSH1 0x40 PUSH1 0x0 KECCAK256 SLOAD PUSH2 0x22BC JUMP JUMPDEST LT ISZERO PUSH2 0x296D JUMP JUMPDEST DUP3 PUSH1 0x0 MSTORE PUSH1 0x3 PUSH1 0x20 MSTORE PUSH2 0x8CD PUSH9 0x3635C9ADC5DEA00000 PUSH2 0x8A1 DUP4 PUSH1 0x40 PUSH1 0x0 KECCAK256 SLOAD PUSH2 0x22BC JUMP JUMPDEST DUP3 PUSH1 0x0 MSTORE PUSH1 0x2 PUSH1 0x20 MSTORE PUSH1 0x40 PUSH1 0x0 KECCAK256 PUSH2 0x8E6 DUP4 DUP3 SLOAD PUSH2 0x22BC JUMP JUMPDEST SWAP1 SSTORE DUP3 PUSH1 0x0 MSTORE PUSH1 0x3 PUSH1 0x20 MSTORE PUSH1 0x40 PUSH1 0x0 KECCAK256 PUSH2 0x901 DUP3 DUP3 SLOAD PUSH2 0x22BC JUMP JUMPDEST SWAP1 SSTORE PUSH2 0x90E DUP3 CALLER DUP6 PUSH2 0x2D4F JUMP JUMPDEST PUSH1 0x0 DUP1 DUP1 DUP1 DUP5 CALLER GAS CALL RETURNDATASIZE ISZERO PUSH2 0x9E2 JUMPI RETURNDATASIZE PUSH8 0xFFFFFFFFFFFFFFFF DUP2 GT PUSH2 0x9CC JUMPI PUSH1 0x40 MLOAD SWAP1 PUSH2 0x945 PUSH1 0x1F DUP3 ADD PUSH1 0x1F NOT AND PUSH1 0x20 ADD DUP4 PUSH2 0x2451 JUMP JUMPDEST DUP2 MSTORE PUSH1 0x0 PUSH1 0x20 RETURNDATASIZE SWAP3 ADD RETURNDATACOPY JUMPDEST ISZERO PUSH2 0x987 JUMPI PUSH32 0x96CD817C6329656790EF8FBA7675405193677D39619571282F5E21F3A98CD059 SWAP2 PUSH1 0x40 SWAP2 DUP3 MLOAD SWAP2 DUP3 MSTORE PUSH1 0x20 DUP3 ADD MSTORE LOG2 STOP JUMPDEST PUSH1 0x40 MLOAD PUSH3 0x461BCD PUSH1 0xE5 SHL DUP2 MSTORE PUSH1 0x20 PUSH1 0x4 DUP3 ADD MSTORE PUSH1 0x17 PUSH1 0x24 DUP3 ADD MSTORE PUSH32 0x5320746F6B656E207472616E73666572206661696C6564000000000000000000 PUSH1 0x44 DUP3 ADD MSTORE PUSH1 0x64 SWAP1 REVERT JUMPDEST PUSH4 0x4E487B71 PUSH1 0xE0 SHL PUSH1 0x0 MSTORE PUSH1 0x41 PUSH1 0x4 MSTORE PUSH1 0x24 PUSH1 0x0 REVERT JUMPDEST PUSH2 0x950 JUMP JUMPDEST PUSH1 0x40 MLOAD PUSH3 0x461BCD PUSH1 0xE5 SHL DUP2 MSTORE PUSH1 0x20 PUSH1 0x4 DUP3 ADD MSTORE PUSH1 0x1E PUSH1 0x24 DUP3 ADD MSTORE PUSH32 0x496E73756666696369656E74205320746F6B656E206C69717569646974790000 PUSH1 0x44 DUP3 ADD MSTORE PUSH1 0x64 SWAP1 REVERT JUMPDEST PUSH1 0x40 MLOAD PUSH3 0x461BCD PUSH1 0xE5 SHL DUP2 MSTORE PUSH1 0x20 PUSH1 0x4 DUP3 ADD MSTORE PUSH1 0x24 DUP1 DUP3 ADD MSTORE PUSH32 0x496E73756666696369656E742063726561746F7220746F6B656E206C69717569 PUSH1 0x44 DUP3 ADD MSTORE PUSH4 0x64697479 PUSH1 0xE0 SHL PUSH1 0x64 DUP3 ADD MSTORE PUSH1 0x84 SWAP1 REVERT JUMPDEST CALLVALUE PUSH2 0x5B9 JUMPI PUSH1 0x20 CALLDATASIZE PUSH1 0x3 NOT ADD SLT PUSH2 0x5B9 JUMPI PUSH1 0x1 PUSH1 0x1 PUSH1 0xA0 SHL SUB PUSH2 0xA9E PUSH2 0x21C8 JUMP JUMPDEST AND PUSH1 0x0 SWAP1 DUP2 MSTORE PUSH1 0x8 PUSH1 0x20 SWAP1 DUP2 MSTORE PUSH1 0x40 SWAP2 DUP3 SWAP1 KECCAK256 DUP1 SLOAD PUSH1 0x1 DUP3 ADD SLOAD PUSH1 0x2 DUP4 ADD SLOAD PUSH1 0x3 SWAP1 SWAP4 ADD SLOAD DUP6 MLOAD SWAP3 DUP4 MSTORE SWAP4 DUP3 ADD MSTORE SWAP3 DUP4 ADD MSTORE PUSH1 0xFF AND ISZERO ISZERO PUSH1 0x60 DUP3 ADD MSTORE DUP1 PUSH1 0x80 DUP2 ADD JUMPDEST SUB SWAP1 RETURN JUMPDEST CALLVALUE PUSH2 0x5B9 JUMPI PUSH1 0x0 CALLDATASIZE PUSH1 0x3 NOT ADD SLT PUSH2 0x5B9 JUMPI PUSH1 0xD SLOAD PUSH1 0xE SLOAD PUSH1 0xF SLOAD SWAP1 SWAP2 PUSH1 0x1 PUSH1 0x1 PUSH1 0xA0 SHL SUB AND SWAP1 PUSH2 0xE10 DUP2 ADD SWAP1 DUP2 DUP2 GT PUSH2 0x463 JUMPI PUSH1 0x80 SWAP4 PUSH1 0x40 MLOAD SWAP4 DUP5 MSTORE PUSH1 0x20 DUP5 ADD MSTORE PUSH1 0x40 DUP4 ADD MSTORE TIMESTAMP LT ISZERO PUSH1 0x60 DUP3 ADD MSTORE RETURN JUMPDEST CALLVALUE PUSH2 0x5B9 JUMPI PUSH1 0x40 CALLDATASIZE PUSH1 0x3 NOT ADD SLT PUSH2 0x5B9 JUMPI PUSH2 0xF PUSH1 0x4 CALLDATALOAD PUSH2 0xB53 PUSH2 0x21DE JUMP JUMPDEST SWAP1 PUSH2 0xB74 PUSH2 0xB6F DUP3 PUSH1 0x0 MSTORE PUSH1 0x1 PUSH1 0x20 MSTORE PUSH1 0x1 PUSH1 0x40 PUSH1 0x0 KECCAK256 ADD SLOAD SWAP1 JUMP JUMPDEST PUSH2 0x29E2 JUMP JUMPDEST PUSH2 0x2CC9 JUMP JUMPDEST CALLVALUE PUSH2 0x5B9 JUMPI PUSH1 0x20 CALLDATASIZE PUSH1 0x3 NOT ADD SLT PUSH2 0x5B9 JUMPI PUSH1 0x1 PUSH1 0x1 PUSH1 0xA0 SHL SUB PUSH2 0xB9A PUSH2 0x21C8 JUMP JUMPDEST AND PUSH1 0x0 MSTORE PUSH1 0x3 PUSH1 0x20 MSTORE PUSH1 0x20 PUSH1 0x40 PUSH1 0x0 KECCAK256 SLOAD PUSH1 0x40 MLOAD SWAP1 DUP2 MSTORE RETURN JUMPDEST CALLVALUE PUSH2 0x5B9 JUMPI PUSH1 0x0 CALLDATASIZE PUSH1 0x3 NOT ADD SLT PUSH2 0x5B9 JUMPI PUSH2 0xBCC PUSH2 0x29B9 JUMP JUMPDEST PUSH2 0xF PUSH2 0x2E49 JUMP JUMPDEST CALLVALUE PUSH2 0x5B9 JUMPI PUSH1 0x40 CALLDATASIZE PUSH1 0x3 NOT ADD SLT PUSH2 0x5B9 JUMPI PUSH2 0xF PUSH2 0xBF0 PUSH2 0x21C8 JUMP JUMPDEST PUSH2 0xBF8 PUSH2 0x21DE JUMP JUMPDEST SWAP1 PUSH2 0xC01 PUSH2 0x29B9 JUMP JUMPDEST PUSH2 0x273C JUMP JUMPDEST CALLVALUE PUSH2 0x5B9 JUMPI PUSH1 0x20 CALLDATASIZE PUSH1 0x3 NOT ADD SLT PUSH2 0x5B9 JUMPI PUSH2 0xC1F PUSH2 0x21C8 JUMP JUMPDEST PUSH1 0x1 PUSH1 0x1 PUSH1 0xA0 SHL SUB DUP2 AND PUSH1 0x0 DUP2 DUP2 MSTORE PUSH1 0x4 PUSH1 0x20 MSTORE PUSH1 0x40 SWAP1 KECCAK256 SLOAD SWAP2 PUSH2 0xC4C PUSH2 0xC44 PUSH2 0x2583 JUMP JUMPDEST DUP5 ISZERO ISZERO PUSH2 0x25BE JUMP JUMPDEST PUSH2 0xC69 PUSH2 0xC57 PUSH2 0x2621 JUMP JUMPDEST PUSH9 0x56BC75E2D63100000 DUP6 LT ISZERO PUSH2 0x25BE JUMP JUMPDEST PUSH2 0xC71 PUSH2 0x2D8F JUMP JUMPDEST SWAP2 PUSH1 0x1 PUSH1 0x1 PUSH1 0xA0 SHL SUB DUP4 AND SWAP1 DUP2 ISZERO PUSH2 0xCDF JUMPI PUSH32 0x2301FE8A9459A994E4A19640F476CA1A19507B1F70FB40DE46ADF16DB68B39AC PUSH1 0x40 DUP7 PUSH2 0xCCB PUSH2 0xCB7 PUSH2 0xF SWAP10 DUP10 PUSH2 0x24BF JUMP JUMPDEST SWAP2 PUSH2 0xCC3 DUP4 ISZERO ISZERO PUSH2 0x265C JUMP JUMPDEST DUP3 GT ISZERO PUSH2 0x269F JUMP JUMPDEST DUP2 MLOAD SWAP1 DUP2 MSTORE TIMESTAMP PUSH1 0x20 DUP3 ADD MSTORE LOG3 PUSH2 0xC01 PUSH2 0x29B9 JUMP JUMPDEST PUSH1 0x40 MLOAD PUSH3 0x461BCD PUSH1 0xE5 SHL DUP2 MSTORE PUSH1 0x20 PUSH1 0x4 DUP3 ADD MSTORE PUSH1 0x16 PUSH1 0x24 DUP3 ADD MSTORE PUSH22 0x139BC81CDD5A5D18589B19481C1BDBDB08199BDD5B99 PUSH1 0x52 SHL PUSH1 0x44 DUP3 ADD MSTORE PUSH1 0x64 SWAP1 REVERT JUMPDEST CALLVALUE PUSH2 0x5B9 JUMPI PUSH1 0x0 CALLDATASIZE PUSH1 0x3 NOT ADD SLT PUSH2 0x5B9 JUMPI PUSH1 0x20 PUSH1 0x6 SLOAD PUSH1 0x40 MLOAD SWAP1 DUP2 MSTORE RETURN JUMPDEST CALLVALUE PUSH2 0x5B9 JUMPI PUSH1 0x0 CALLDATASIZE PUSH1 0x3 NOT ADD SLT PUSH2 0x5B9 JUMPI PUSH1 0x40 MLOAD DUP1 PUSH1 0x20 PUSH1 0x9 SLOAD SWAP3 DUP4 DUP2 MSTORE ADD DUP1 SWAP3 PUSH1 0x9 PUSH1 0x0 MSTORE PUSH32 0x6E1540171B6C0C960B71A7020D9F60077F6AF931A8BBF590DA0223DACF75C7AF SWAP1 PUSH1 0x0 JUMPDEST DUP2 DUP2 LT PUSH2 0xDE8 JUMPI POP POP POP DUP2 PUSH2 0xD9C SWAP2 SUB DUP3 PUSH2 0x2451 JUMP JUMPDEST PUSH1 0x40 MLOAD SWAP2 DUP3 SWAP2 PUSH1 0x20 DUP4 ADD SWAP1 PUSH1 0x20 DUP5 MSTORE MLOAD DUP1 SWAP2 MSTORE PUSH1 0x40 DUP4 ADD SWAP2 SWAP1 PUSH1 0x0 JUMPDEST DUP2 DUP2 LT PUSH2 0xDC6 JUMPI POP POP POP SUB SWAP1 RETURN JUMPDEST DUP3 MLOAD PUSH1 0x1 PUSH1 0x1 PUSH1 0xA0 SHL SUB AND DUP5 MSTORE DUP6 SWAP5 POP PUSH1 0x20 SWAP4 DUP5 ADD SWAP4 SWAP1 SWAP3 ADD SWAP2 PUSH1 0x1 ADD PUSH2 0xDB8 JUMP JUMPDEST DUP3 SLOAD PUSH1 0x1 PUSH1 0x1 PUSH1 0xA0 SHL SUB AND DUP5 MSTORE PUSH1 0x20 SWAP1 SWAP4 ADD SWAP3 PUSH1 0x1 SWAP3 DUP4 ADD SWAP3 ADD PUSH2 0xD86 JUMP JUMPDEST CALLVALUE PUSH2 0x5B9 JUMPI PUSH1 0x20 CALLDATASIZE PUSH1 0x3 NOT ADD SLT PUSH2 0x5B9 JUMPI PUSH1 0x1 PUSH1 0x1 PUSH1 0xA0 SHL SUB PUSH2 0xE28 PUSH2 0x21C8 JUMP JUMPDEST AND PUSH1 0x0 SWAP1 DUP2 MSTORE PUSH1 0x7 PUSH1 0x20 SWAP1 DUP2 MSTORE PUSH1 0x40 SWAP2 DUP3 SWAP1 KECCAK256 DUP1 SLOAD PUSH1 0x1 DUP3 ADD SLOAD PUSH1 0x3 SWAP3 DUP4 ADD SLOAD DUP6 MLOAD SWAP3 DUP4 MSTORE SWAP4 DUP3 ADD MSTORE SWAP3 DUP4 ADD DUP3 SWAP1 MSTORE GT ISZERO PUSH1 0x60 DUP3 ADD MSTORE PUSH1 0x80 SWAP1 RETURN JUMPDEST CALLVALUE PUSH2 0x5B9 JUMPI PUSH1 0x40 CALLDATASIZE PUSH1 0x3 NOT ADD SLT PUSH2 0x5B9 JUMPI PUSH2 0xE7C PUSH2 0x21C8 JUMP JUMPDEST PUSH1 0x24 CALLDATALOAD SWAP1 PUSH2 0xE88 PUSH2 0x29B9 JUMP JUMPDEST PUSH1 0x1 DUP1 PUSH1 0xA0 SHL SUB AND SWAP1 DUP2 PUSH1 0x0 MSTORE PUSH1 0x4 PUSH1 0x20 MSTORE DUP1 PUSH1 0x40 PUSH1 0x0 KECCAK256 SLOAD LT PUSH2 0xEF8 JUMPI PUSH1 0x20 PUSH32 0xC0819C13BE868895EB93E40EACEB96DE976442FA1D404E5C55F14BB65A8C489A SWAP2 DUP4 PUSH1 0x0 MSTORE PUSH1 0x4 DUP3 MSTORE PUSH1 0x40 PUSH1 0x0 KECCAK256 PUSH2 0xEE2 DUP3 DUP3 SLOAD PUSH2 0x22BC JUMP JUMPDEST SWAP1 SSTORE PUSH2 0xEEF DUP2 CALLER DUP7 PUSH2 0x2D4F JUMP JUMPDEST PUSH1 0x40 MLOAD SWAP1 DUP2 MSTORE LOG2 STOP JUMPDEST PUSH1 0x40 MLOAD PUSH3 0x461BCD PUSH1 0xE5 SHL DUP2 MSTORE PUSH1 0x20 PUSH1 0x4 DUP3 ADD MSTORE PUSH1 0x11 PUSH1 0x24 DUP3 ADD MSTORE PUSH17 0x496E73756666696369656E742066656573 PUSH1 0x78 SHL PUSH1 0x44 DUP3 ADD MSTORE PUSH1 0x64 SWAP1 REVERT JUMPDEST CALLVALUE PUSH2 0x5B9 JUMPI PUSH1 0x20 CALLDATASIZE PUSH1 0x3 NOT ADD SLT PUSH2 0x5B9 JUMPI PUSH1 0x20 PUSH2 0xF54 PUSH2 0xF4F PUSH2 0x21C8 JUMP JUMPDEST PUSH2 0x2533 JUMP JUMPDEST PUSH1 0x40 MLOAD SWAP1 ISZERO ISZERO DUP2 MSTORE RETURN JUMPDEST CALLVALUE PUSH2 0x5B9 JUMPI PUSH1 0x0 CALLDATASIZE PUSH1 0x3 NOT ADD SLT PUSH2 0x5B9 JUMPI PUSH1 0x20 PUSH1 0x40 MLOAD PUSH1 0x0 DUP2 MSTORE RETURN JUMPDEST CALLVALUE PUSH2 0x5B9 JUMPI PUSH1 0x0 CALLDATASIZE PUSH1 0x3 NOT ADD SLT PUSH2 0x5B9 JUMPI PUSH1 0x60 PUSH1 0x1 DUP1 PUSH1 0xA0 SHL SUB PUSH1 0xD SLOAD AND PUSH1 0xE SLOAD PUSH1 0xF SLOAD SWAP1 PUSH1 0x40 MLOAD SWAP3 DUP4 MSTORE PUSH1 0x20 DUP4 ADD MSTORE PUSH1 0x40 DUP3 ADD MSTORE RETURN JUMPDEST CALLVALUE PUSH2 0x5B9 JUMPI PUSH1 0x40 CALLDATASIZE PUSH1 0x3 NOT ADD SLT PUSH2 0x5B9 JUMPI PUSH2 0xFCA PUSH2 0x21C8 JUMP JUMPDEST PUSH32 0x9DC46F23CFB5DDCAD0AE7EA2BE38D47FEC07BB9382EC7E564EFC69E036DD66CE PUSH1 0x20 PUSH1 0x24 CALLDATALOAD SWAP3 PUSH1 0x1 DUP1 PUSH1 0xA0 SHL SUB AND SWAP3 DUP4 PUSH1 0x0 MSTORE PUSH1 0x4 DUP3 MSTORE PUSH1 0x40 PUSH1 0x0 KECCAK256 PUSH2 0x1012 DUP3 DUP3 SLOAD PUSH2 0x2405 JUMP JUMPDEST SWAP1 SSTORE PUSH1 0x40 MLOAD SWAP1 DUP2 MSTORE LOG2 STOP JUMPDEST PUSH2 0x2212 JUMP JUMPDEST CALLVALUE PUSH2 0x5B9 JUMPI PUSH1 0x40 CALLDATASIZE PUSH1 0x3 NOT ADD SLT PUSH2 0x5B9 JUMPI PUSH2 0x103B PUSH2 0x21DE JUMP JUMPDEST PUSH1 0x4 CALLDATALOAD PUSH1 0x0 MSTORE PUSH1 0x1 PUSH1 0x20 MSTORE PUSH1 0x40 PUSH1 0x0 KECCAK256 SWAP1 PUSH1 0x1 DUP1 PUSH1 0xA0 SHL SUB AND PUSH1 0x0 MSTORE PUSH1 0x20 MSTORE PUSH1 0x20 PUSH1 0xFF PUSH1 0x40 PUSH1 0x0 KECCAK256 SLOAD AND PUSH1 0x40 MLOAD SWAP1 ISZERO ISZERO DUP2 MSTORE RETURN JUMPDEST CALLVALUE PUSH2 0x5B9 JUMPI PUSH1 0x0 CALLDATASIZE PUSH1 0x3 NOT ADD SLT PUSH2 0x5B9 JUMPI PUSH1 0x0 SLOAD PUSH1 0x40 MLOAD PUSH1 0x1 PUSH1 0x1 PUSH1 0xA0 SHL SUB SWAP1 SWAP2 AND DUP2 MSTORE PUSH1 0x20 SWAP1 RETURN JUMPDEST CALLVALUE PUSH2 0x5B9 JUMPI PUSH1 0x40 CALLDATASIZE PUSH1 0x3 NOT ADD SLT PUSH2 0x5B9 JUMPI PUSH2 0x10B1 PUSH2 0x21C8 JUMP JUMPDEST PUSH1 0x24 CALLDATALOAD SWAP1 PUSH2 0x10BD PUSH2 0x29B9 JUMP JUMPDEST PUSH1 0x1 PUSH1 0x1 PUSH1 0xA0 SHL SUB AND PUSH1 0x0 DUP2 DUP2 MSTORE PUSH1 0x8 PUSH1 0x20 MSTORE PUSH1 0x40 SWAP1 KECCAK256 PUSH1 0x3 ADD SLOAD SWAP1 SWAP2 SWAP1 PUSH1 0xFF AND PUSH2 0x121B JUMPI PUSH1 0x20 SWAP1 PUSH1 0x40 MLOAD PUSH2 0x10F2 DUP4 DUP3 PUSH2 0x2451 JUMP JUMPDEST PUSH1 0x0 DUP2 MSTORE PUSH1 0x0 CALLDATASIZE DUP2 CALLDATACOPY PUSH1 0x40 MLOAD PUSH1 0xA0 DUP2 ADD SWAP1 DUP1 DUP3 LT PUSH8 0xFFFFFFFFFFFFFFFF DUP4 GT OR PUSH2 0x9CC JUMPI PUSH1 0x4 SWAP2 PUSH1 0x40 MSTORE DUP4 DUP2 MSTORE DUP5 DUP2 ADD DUP5 DUP2 MSTORE PUSH1 0x40 DUP3 ADD TIMESTAMP DUP2 MSTORE PUSH1 0x60 DUP4 ADD SWAP2 PUSH1 0x1 DUP4 MSTORE PUSH1 0x80 DUP5 ADD SWAP6 DUP7 MSTORE DUP9 PUSH1 0x0 MSTORE PUSH1 0x8 DUP9 MSTORE PUSH1 0x40 PUSH1 0x0 KECCAK256 SWAP4 MLOAD DUP5 SSTORE MLOAD PUSH1 0x1 DUP5 ADD SSTORE MLOAD PUSH1 0x2 DUP4 ADD SSTORE PUSH1 0x3 DUP3 ADD SWAP1 MLOAD ISZERO ISZERO PUSH1 0xFF DUP1 NOT DUP4 SLOAD AND SWAP2 AND OR SWAP1 SSTORE ADD SWAP1 MLOAD SWAP1 DUP2 MLOAD SWAP2 PUSH8 0xFFFFFFFFFFFFFFFF DUP4 GT PUSH2 0x9CC JUMPI PUSH1 0x1 PUSH1 0x40 SHL DUP4 GT PUSH2 0x9CC JUMPI DUP5 SWAP1 DUP3 SLOAD DUP5 DUP5 SSTORE DUP1 DUP6 LT PUSH2 0x11F0 JUMPI JUMPDEST POP ADD SWAP1 PUSH1 0x0 MSTORE DUP4 PUSH1 0x0 KECCAK256 PUSH1 0x0 JUMPDEST DUP4 DUP2 LT PUSH2 0x11DE JUMPI DUP7 PUSH32 0x9D3136590A24E6EB0D058D4D9B8C4D5BE27926B0ABFECA301A4D5FC0AAAB775D DUP8 DUP8 PUSH1 0x40 MLOAD SWAP1 DUP2 MSTORE LOG2 STOP JUMPDEST DUP3 MLOAD DUP3 DUP3 ADD SSTORE SWAP2 DUP6 ADD SWAP2 PUSH1 0x1 ADD PUSH2 0x11AA JUMP JUMPDEST DUP4 PUSH1 0x0 MSTORE DUP5 DUP4 PUSH1 0x0 KECCAK256 SWAP2 DUP3 ADD SWAP2 ADD JUMPDEST DUP2 DUP2 LT PUSH2 0x120C JUMPI POP PUSH2 0x119D JUMP JUMPDEST PUSH1 0x0 DUP2 SSTORE DUP8 SWAP4 POP PUSH1 0x1 ADD PUSH2 0x11FF JUMP JUMPDEST PUSH1 0x40 MLOAD PUSH3 0x461BCD PUSH1 0xE5 SHL DUP2 MSTORE PUSH1 0x20 PUSH1 0x4 DUP3 ADD MSTORE PUSH1 0x14 PUSH1 0x24 DUP3 ADD MSTORE PUSH20 0x416C726561647920696E20646973636F76657279 PUSH1 0x60 SHL PUSH1 0x44 DUP3 ADD MSTORE PUSH1 0x64 SWAP1 REVERT JUMPDEST CALLVALUE PUSH2 0x5B9 JUMPI PUSH1 0x20 CALLDATASIZE PUSH1 0x3 NOT ADD SLT PUSH2 0x5B9 JUMPI PUSH2 0xF PUSH2 0x1273 PUSH2 0x21C8 JUMP JUMPDEST PUSH2 0x127B PUSH2 0x29B9 JUMP JUMPDEST PUSH1 0x0 DUP1 MLOAD PUSH1 0x20 PUSH2 0x3063 DUP4 CODECOPY DUP2 MLOAD SWAP2 MSTORE PUSH1 0x0 MSTORE PUSH1 0x1 PUSH1 0x20 MSTORE PUSH32 0x7ADA6DBB520616CFF5D6F574AFF5A85F6D0DABE1F7D96C08FE8E54D79BFCA6E1 SLOAD PUSH2 0x12BD SWAP1 PUSH2 0x29E2 JUMP JUMPDEST PUSH2 0x2A1F JUMP JUMPDEST CALLVALUE PUSH2 0x5B9 JUMPI PUSH1 0x20 CALLDATASIZE PUSH1 0x3 NOT ADD SLT PUSH2 0x5B9 JUMPI PUSH2 0x12DB PUSH2 0x21C8 JUMP JUMPDEST PUSH2 0x12E3 PUSH2 0x29B9 JUMP JUMPDEST PUSH1 0x1 PUSH1 0x1 PUSH1 0xA0 SHL SUB AND DUP1 ISZERO PUSH2 0x130F JUMPI PUSH12 0xFFFFFFFFFFFFFFFFFFFFFFFF PUSH1 0xA0 SHL PUSH1 0xC SLOAD AND OR PUSH1 0xC SSTORE PUSH1 0x0 DUP1 RETURN JUMPDEST PUSH1 0x40 MLOAD PUSH3 0x461BCD PUSH1 0xE5 SHL DUP2 MSTORE PUSH1 0x20 PUSH1 0x4 DUP3 ADD MSTORE PUSH1 0x13 PUSH1 0x24 DUP3 ADD MSTORE PUSH19 0x496E76616C6964204445582061646472657373 PUSH1 0x68 SHL PUSH1 0x44 DUP3 ADD MSTORE PUSH1 0x64 SWAP1 REVERT JUMPDEST CALLVALUE PUSH2 0x5B9 JUMPI PUSH1 0x20 CALLDATASIZE PUSH1 0x3 NOT ADD SLT PUSH2 0x5B9 JUMPI PUSH1 0x1 PUSH1 0x1 PUSH1 0xA0 SHL SUB PUSH2 0x136B PUSH2 0x21C8 JUMP JUMPDEST AND PUSH1 0x0 MSTORE PUSH1 0xA PUSH1 0x20 MSTORE PUSH1 0x20 PUSH1 0xFF PUSH1 0x40 PUSH1 0x0 KECCAK256 SLOAD AND PUSH1 0x40 MLOAD SWAP1 ISZERO ISZERO DUP2 MSTORE RETURN JUMPDEST CALLVALUE PUSH2 0x5B9 JUMPI PUSH1 0x0 CALLDATASIZE PUSH1 0x3 NOT ADD SLT PUSH2 0x5B9 JUMPI PUSH2 0x13A2 PUSH2 0x29B9 JUMP JUMPDEST PUSH1 0x0 DUP1 SLOAD PUSH1 0x1 PUSH1 0x1 PUSH1 0xA0 SHL SUB NOT DUP2 AND DUP3 SSTORE PUSH1 0x1 PUSH1 0x1 PUSH1 0xA0 SHL SUB AND PUSH32 0x8BE0079C531659141344CD1FD0A4F28419497F9722A3DAAFE3B4186F6B6457E0 DUP3 DUP1 LOG3 STOP JUMPDEST CALLVALUE PUSH2 0x5B9 JUMPI PUSH1 0x20 CALLDATASIZE PUSH1 0x3 NOT ADD SLT PUSH2 0x5B9 JUMPI PUSH1 0x1 PUSH1 0x1 PUSH1 0xA0 SHL SUB PUSH2 0x1403 PUSH2 0x21C8 JUMP JUMPDEST AND PUSH1 0x0 MSTORE PUSH1 0x2 PUSH1 0x20 MSTORE PUSH1 0x20 PUSH1 0x40 PUSH1 0x0 KECCAK256 SLOAD PUSH1 0x40 MLOAD SWAP1 DUP2 MSTORE RETURN JUMPDEST CALLVALUE PUSH2 0x5B9 JUMPI PUSH1 0x0 CALLDATASIZE PUSH1 0x3 NOT ADD SLT PUSH2 0x5B9 JUMPI PUSH1 0x20 PUSH1 0x40 MLOAD PUSH2 0x3840 DUP2 MSTORE RETURN JUMPDEST CALLVALUE PUSH2 0x5B9 JUMPI PUSH1 0x0 CALLDATASIZE PUSH1 0x3 NOT ADD SLT PUSH2 0x5B9 JUMPI PUSH1 0xC SLOAD PUSH1 0x40 MLOAD PUSH1 0x1 PUSH1 0x1 PUSH1 0xA0 SHL SUB SWAP1 SWAP2 AND DUP2 MSTORE PUSH1 0x20 SWAP1 RETURN JUMPDEST CALLVALUE PUSH2 0x5B9 JUMPI PUSH1 0x20 CALLDATASIZE PUSH1 0x3 NOT ADD SLT PUSH2 0x5B9 JUMPI PUSH2 0xF PUSH2 0x147E PUSH2 0x21C8 JUMP JUMPDEST PUSH2 0x1486 PUSH2 0x29B9 JUMP JUMPDEST PUSH1 0x0 DUP1 MLOAD PUSH1 0x20 PUSH2 0x3063 DUP4 CODECOPY DUP2 MLOAD SWAP2 MSTORE PUSH1 0x0 MSTORE PUSH1 0x1 PUSH1 0x20 MSTORE PUSH32 0x7ADA6DBB520616CFF5D6F574AFF5A85F6D0DABE1F7D96C08FE8E54D79BFCA6E1 SLOAD PUSH2 0x14C8 SWAP1 PUSH2 0x29E2 JUMP JUMPDEST PUSH2 0x2C33 JUMP JUMPDEST CALLVALUE PUSH2 0x5B9 JUMPI PUSH1 0x40 CALLDATASIZE PUSH1 0x3 NOT ADD SLT PUSH2 0x5B9 JUMPI PUSH1 0x20 PUSH2 0x14F4 PUSH2 0x14EB PUSH2 0x21C8 JUMP JUMPDEST PUSH1 0x24 CALLDATALOAD SWAP1 PUSH2 0x24BF JUMP JUMPDEST PUSH1 0x40 MLOAD SWAP1 DUP2 MSTORE RETURN JUMPDEST PUSH2 0x21F4 JUMP JUMPDEST CALLVALUE PUSH2 0x5B9 JUMPI PUSH1 0x0 CALLDATASIZE PUSH1 0x3 NOT ADD SLT PUSH2 0x5B9 JUMPI PUSH1 0x20 PUSH1 0x40 MLOAD PUSH1 0x3 DUP2 MSTORE RETURN JUMPDEST PUSH2 0x1526 CALLDATASIZE PUSH2 0x227F JUMP JUMPDEST SWAP1 PUSH2 0x152F PUSH2 0x29B9 JUMP JUMPDEST DUP1 ISZERO ISZERO DUP1 PUSH2 0x1918 JUMPI JUMPDEST ISZERO PUSH2 0x18D3 JUMPI DUP2 CALLVALUE SUB PUSH2 0x188E JUMPI PUSH1 0x40 MLOAD PUSH4 0x6EB1769F PUSH1 0xE1 SHL DUP2 MSTORE CALLER PUSH1 0x4 DUP3 ADD MSTORE ADDRESS PUSH1 0x24 DUP3 ADD MSTORE PUSH1 0x1 PUSH1 0x1 PUSH1 0xA0 SHL SUB DUP5 AND SWAP4 SWAP1 PUSH1 0x20 DUP2 PUSH1 0x44 DUP2 DUP9 GAS STATICCALL DUP1 ISZERO PUSH2 0x17FC JUMPI DUP4 SWAP2 PUSH1 0x0 SWAP2 PUSH2 0x1859 JUMPI JUMPDEST POP LT PUSH2 0x1808 JUMPI PUSH1 0x40 MLOAD PUSH4 0x70A08231 PUSH1 0xE0 SHL DUP2 MSTORE CALLER PUSH1 0x4 DUP3 ADD MSTORE PUSH1 0x20 DUP2 PUSH1 0x24 DUP2 DUP9 GAS STATICCALL DUP1 ISZERO PUSH2 0x17FC JUMPI DUP4 SWAP2 PUSH1 0x0 SWAP2 PUSH2 0x17C7 JUMPI JUMPDEST POP LT PUSH2 0x1777 JUMPI DUP4 PUSH1 0x0 MSTORE PUSH1 0x2 PUSH1 0x20 MSTORE PUSH2 0x15E6 PUSH9 0x3635C9ADC5DEA00000 PUSH2 0x15DF DUP5 PUSH1 0x40 PUSH1 0x0 KECCAK256 SLOAD PUSH2 0x2405 JUMP JUMPDEST LT ISZERO PUSH2 0x2473 JUMP JUMPDEST DUP4 PUSH1 0x0 MSTORE PUSH1 0x3 PUSH1 0x20 MSTORE PUSH2 0x160B PUSH9 0x3635C9ADC5DEA00000 PUSH2 0x15DF DUP6 PUSH1 0x40 PUSH1 0x0 KECCAK256 SLOAD PUSH2 0x2405 JUMP JUMPDEST DUP4 PUSH1 0x0 MSTORE PUSH1 0x2 PUSH1 0x20 MSTORE PUSH1 0x40 PUSH1 0x0 KECCAK256 PUSH2 0x1624 DUP4 DUP3 SLOAD PUSH2 0x2405 JUMP JUMPDEST SWAP1 SSTORE DUP4 PUSH1 0x0 MSTORE PUSH1 0x3 PUSH1 0x20 MSTORE PUSH1 0x40 PUSH1 0x0 KECCAK256 PUSH2 0x163F DUP5 DUP3 SLOAD PUSH2 0x2405 JUMP JUMPDEST SWAP1 SSTORE DUP4 PUSH1 0x0 MSTORE PUSH1 0xA PUSH1 0x20 MSTORE PUSH1 0xFF PUSH1 0x40 PUSH1 0x0 KECCAK256 SLOAD AND ISZERO PUSH2 0x16C5 JUMPI JUMPDEST POP PUSH1 0x40 SWAP1 PUSH32 0xAC1D76749E5447B7B16F5AB61447E1BD502F3BB4807AF3B28E620D1700A6EE45 SWAP3 PUSH2 0x16B8 DUP4 MLOAD PUSH4 0x23B872DD PUSH1 0xE0 SHL PUSH1 0x20 DUP3 ADD MSTORE CALLER PUSH1 0x24 DUP3 ADD MSTORE ADDRESS PUSH1 0x44 DUP3 ADD MSTORE DUP4 PUSH1 0x64 DUP3 ADD MSTORE PUSH1 0x64 DUP2 MSTORE PUSH2 0x16B2 PUSH1 0x84 DUP3 PUSH2 0x2451 JUMP JUMPDEST DUP7 PUSH2 0x3007 JUMP JUMPDEST DUP3 MLOAD SWAP2 DUP3 MSTORE PUSH1 0x20 DUP3 ADD MSTORE LOG2 STOP JUMPDEST SWAP1 PUSH1 0x9 SLOAD SWAP3 PUSH1 0x1 PUSH1 0x40 SHL DUP5 LT ISZERO PUSH2 0x9CC JUMPI PUSH2 0x1731 PUSH1 0x40 SWAP4 PUSH2 0x170D DUP7 PUSH1 0x1 PUSH32 0xAC1D76749E5447B7B16F5AB61447E1BD502F3BB4807AF3B28E620D1700A6EE45 SWAP9 ADD PUSH1 0x9 SSTORE PUSH2 0x2236 JUMP JUMPDEST DUP2 SLOAD PUSH1 0x1 PUSH1 0x1 PUSH1 0xA0 SHL SUB SWAP4 DUP5 AND PUSH1 0x3 SWAP3 SWAP1 SWAP3 SHL SWAP2 DUP3 SHL SWAP4 SWAP1 SWAP2 SHL NOT AND SWAP2 SWAP1 SWAP2 OR SWAP1 SSTORE JUMP JUMPDEST DUP5 PUSH1 0x0 MSTORE PUSH1 0xA PUSH1 0x20 MSTORE DUP3 PUSH1 0x0 KECCAK256 PUSH1 0x1 PUSH1 0xFF NOT DUP3 SLOAD AND OR SWAP1 SSTORE DUP5 PUSH32 0x402F8A396B78C225022A54972367FD98A174C970FBF537400BB383A0690EBD78 PUSH1 0x0 DUP1 LOG2 SWAP3 POP SWAP1 PUSH2 0x1659 JUMP JUMPDEST PUSH1 0x40 MLOAD PUSH3 0x461BCD PUSH1 0xE5 SHL DUP2 MSTORE PUSH1 0x20 PUSH1 0x4 DUP3 ADD MSTORE PUSH1 0x22 PUSH1 0x24 DUP3 ADD MSTORE PUSH32 0x496E73756666696369656E742063726561746F7220746F6B656E2062616C616E PUSH1 0x44 DUP3 ADD MSTORE PUSH2 0x6365 PUSH1 0xF0 SHL PUSH1 0x64 DUP3 ADD MSTORE PUSH1 0x84 SWAP1 REVERT JUMPDEST SWAP2 POP POP PUSH1 0x20 DUP2 RETURNDATASIZE PUSH1 0x20 GT PUSH2 0x17F4 JUMPI JUMPDEST DUP2 PUSH2 0x17E3 PUSH1 0x20 SWAP4 DUP4 PUSH2 0x2451 JUMP JUMPDEST DUP2 ADD SUB SLT PUSH2 0x5B9 JUMPI DUP3 SWAP1 MLOAD DUP7 PUSH2 0x15B4 JUMP JUMPDEST RETURNDATASIZE SWAP2 POP PUSH2 0x17D6 JUMP JUMPDEST PUSH1 0x40 MLOAD RETURNDATASIZE PUSH1 0x0 DUP3 RETURNDATACOPY RETURNDATASIZE SWAP1 REVERT JUMPDEST PUSH1 0x40 MLOAD PUSH3 0x461BCD PUSH1 0xE5 SHL DUP2 MSTORE PUSH1 0x20 PUSH1 0x4 DUP3 ADD MSTORE PUSH1 0x24 DUP1 DUP3 ADD MSTORE PUSH32 0x496E73756666696369656E742063726561746F7220746F6B656E20616C6C6F77 PUSH1 0x44 DUP3 ADD MSTORE PUSH4 0x616E6365 PUSH1 0xE0 SHL PUSH1 0x64 DUP3 ADD MSTORE PUSH1 0x84 SWAP1 REVERT JUMPDEST SWAP2 POP POP PUSH1 0x20 DUP2 RETURNDATASIZE PUSH1 0x20 GT PUSH2 0x1886 JUMPI JUMPDEST DUP2 PUSH2 0x1875 PUSH1 0x20 SWAP4 DUP4 PUSH2 0x2451 JUMP JUMPDEST DUP2 ADD SUB SLT PUSH2 0x5B9 JUMPI DUP3 SWAP1 MLOAD DUP7 PUSH2 0x1582 JUMP JUMPDEST RETURNDATASIZE SWAP2 POP PUSH2 0x1868 JUMP JUMPDEST PUSH1 0x40 MLOAD PUSH3 0x461BCD PUSH1 0xE5 SHL DUP2 MSTORE PUSH1 0x20 PUSH1 0x4 DUP3 ADD MSTORE PUSH1 0x17 PUSH1 0x24 DUP3 ADD MSTORE PUSH32 0x496E636F7272656374205320616D6F756E742073656E74000000000000000000 PUSH1 0x44 DUP3 ADD MSTORE PUSH1 0x64 SWAP1 REVERT JUMPDEST PUSH1 0x40 MLOAD PUSH3 0x461BCD PUSH1 0xE5 SHL DUP2 MSTORE PUSH1 0x20 PUSH1 0x4 DUP3 ADD MSTORE PUSH1 0x19 PUSH1 0x24 DUP3 ADD MSTORE PUSH32 0x496E76616C6964206C697175696469747920616D6F756E747300000000000000 PUSH1 0x44 DUP3 ADD MSTORE PUSH1 0x64 SWAP1 REVERT JUMPDEST POP DUP2 ISZERO ISZERO PUSH2 0x1538 JUMP JUMPDEST CALLVALUE PUSH2 0x5B9 JUMPI PUSH1 0x40 CALLDATASIZE PUSH1 0x3 NOT ADD SLT PUSH2 0x5B9 JUMPI PUSH2 0x193A PUSH2 0x21C8 JUMP JUMPDEST PUSH1 0x24 CALLDATALOAD SWAP1 PUSH2 0x1946 PUSH2 0x29B9 JUMP JUMPDEST PUSH1 0x1 DUP1 PUSH1 0xA0 SHL SUB AND SWAP1 DUP2 PUSH1 0x0 MSTORE PUSH1 0x8 PUSH1 0x20 MSTORE PUSH1 0x40 PUSH1 0x0 KECCAK256 SWAP1 PUSH2 0x196E PUSH1 0xFF PUSH1 0x3 DUP5 ADD SLOAD AND PUSH2 0x2412 JUMP JUMPDEST PUSH1 0x4 DUP3 ADD SWAP1 DUP2 SLOAD SWAP3 PUSH1 0x6 DUP5 LT ISZERO PUSH2 0x1BED JUMPI PUSH1 0x1 PUSH1 0x40 SHL DUP5 LT ISZERO PUSH2 0x9CC JUMPI PUSH1 0x40 DUP3 DUP7 SWAP4 PUSH1 0x1 PUSH32 0x469B6894B4B45F49C7C10AA3E70E1FAE20F0EBA89B628E3D69AF9D7A34EF8BCF SWAP5 PUSH2 0x19C5 DUP10 DUP4 PUSH1 0x6 SWAP12 ADD DUP11 SSTORE DUP10 PUSH2 0x2267 JUMP JUMPDEST DUP2 SLOAD SWAP1 PUSH1 0x3 SHL SWAP1 DUP6 DUP3 SHL SWAP2 PUSH1 0x0 NOT SWAP1 SHL NOT AND OR SWAP1 SSTORE ADD SSTORE DUP2 MLOAD SWAP1 DUP2 MSTORE TIMESTAMP PUSH1 0x20 DUP3 ADD MSTORE LOG2 SLOAD EQ PUSH2 0x19F0 JUMPI STOP JUMPDEST PUSH2 0x19F8 PUSH2 0x29B9 JUMP JUMPDEST DUP1 PUSH1 0x0 MSTORE PUSH1 0x8 PUSH1 0x20 MSTORE PUSH1 0x40 PUSH1 0x0 KECCAK256 PUSH1 0x3 DUP2 ADD SWAP1 PUSH2 0x1A18 PUSH1 0xFF DUP4 SLOAD AND PUSH2 0x2412 JUMP JUMPDEST PUSH1 0x2 DUP2 ADD SLOAD PUSH3 0x15180 DUP2 ADD DUP1 SWAP2 GT PUSH2 0x463 JUMPI TIMESTAMP LT PUSH2 0x574 JUMPI PUSH1 0x0 DUP4 DUP2 MSTORE PUSH1 0x8 PUSH1 0x20 MSTORE PUSH1 0x40 DUP2 KECCAK256 PUSH1 0x4 ADD DUP1 SLOAD DUP3 SWAP2 SWAP1 DUP3 JUMPDEST DUP2 DUP2 LT PUSH2 0x1B49 JUMPI POP POP DUP2 ISZERO SWAP1 POP PUSH2 0x1B40 JUMPI PUSH2 0x1A62 SWAP2 PUSH2 0x22D8 JUMP JUMPDEST DUP1 PUSH8 0xDE0B6B3A7640000 MUL SWAP1 PUSH8 0xDE0B6B3A7640000 DUP3 DIV SUB PUSH2 0x463 JUMPI PUSH2 0x2710 SWAP1 DIV PUSH8 0xDE0B6B3A7640000 ADD SWAP1 DUP2 PUSH8 0xDE0B6B3A7640000 GT PUSH2 0x463 JUMPI PUSH32 0x928602A1348C2D5CC6354F7E6953A38BFAF42426CD5D8C83DC7C42B972CFCDB0 SWAP3 PUSH2 0x3E2 PUSH1 0x1 SWAP3 DUP5 DUP8 PUSH1 0x40 SWAP7 SWAP2 PUSH8 0x29A2241AF62C0000 DUP2 GT PUSH2 0x1AF6 JUMPI POP POP PUSH8 0x16345785D8A0000 DUP2 GT ISZERO PUSH2 0x407 JUMPI SWAP4 DUP5 SWAP2 ADD SLOAD PUSH2 0x22A9 JUMP JUMPDEST PUSH32 0xFBB0338B3040D7B9BD8495DE3D07128625B3EAD1C3464340ED2E760A015D7447 SWAP2 SWAP3 POP DUP8 SWAP1 DUP2 MLOAD SWAP1 DUP2 MSTORE PUSH8 0x29A2241AF62C0000 PUSH1 0x20 DUP3 ADD MSTORE LOG2 PUSH8 0x29A2241AF62C0000 DUP8 DUP10 PUSH2 0x3C5 JUMP JUMPDEST POP POP PUSH1 0x0 PUSH2 0x1A62 JUMP JUMPDEST DUP1 PUSH2 0x1B57 JUMPI JUMPDEST PUSH1 0x1 ADD PUSH2 0x1A48 JUMP JUMPDEST PUSH2 0x1B61 DUP2 DUP5 PUSH2 0x2267 JUMP JUMPDEST SWAP1 SLOAD PUSH1 0x0 NOT DUP4 ADD SWAP2 PUSH1 0x3 SHL SHR DUP3 DUP3 GT PUSH2 0x463 JUMPI PUSH2 0x1B7E DUP3 DUP7 PUSH2 0x2267 JUMP JUMPDEST SWAP1 SLOAD SWAP1 PUSH1 0x3 SHL SHR LT PUSH2 0x1B91 JUMPI JUMPDEST POP PUSH2 0x1B4F JUMP JUMPDEST PUSH2 0x1B9F DUP3 DUP6 SWAP8 SWAP4 SWAP7 SWAP8 PUSH2 0x2267 JUMP JUMPDEST SWAP1 SLOAD SWAP1 PUSH1 0x3 SHL SHR SWAP1 PUSH2 0x1BB7 PUSH1 0x0 SWAP3 PUSH2 0x4F0 DUP4 DUP9 PUSH2 0x2267 JUMP JUMPDEST SWAP2 PUSH2 0x2710 DUP4 MUL SWAP3 DUP1 DUP5 DIV PUSH2 0x2710 EQ SWAP1 ISZERO OR ISZERO PUSH2 0x560 JUMPI SWAP3 PUSH2 0x539 PUSH2 0x1BE6 SWAP4 PUSH2 0x52C PUSH2 0x54D SWAP5 PUSH1 0x1 SWAP8 POP DUP10 PUSH2 0x2267 JUMP JUMPDEST SWAP4 SWAP1 PUSH2 0x1B8B JUMP JUMPDEST PUSH1 0x40 MLOAD PUSH3 0x461BCD PUSH1 0xE5 SHL DUP2 MSTORE PUSH1 0x20 PUSH1 0x4 DUP3 ADD MSTORE PUSH1 0x15 PUSH1 0x24 DUP3 ADD MSTORE PUSH21 0x13585E081CDB985C1CDA1BDD1CC81C995858DA1959 PUSH1 0x5A SHL PUSH1 0x44 DUP3 ADD MSTORE PUSH1 0x64 SWAP1 REVERT JUMPDEST CALLVALUE PUSH2 0x5B9 JUMPI PUSH1 0x0 CALLDATASIZE PUSH1 0x3 NOT ADD SLT PUSH2 0x5B9 JUMPI PUSH1 0x5 SLOAD PUSH1 0x40 MLOAD PUSH1 0x1 PUSH1 0x1 PUSH1 0xA0 SHL SUB SWAP1 SWAP2 AND DUP2 MSTORE PUSH1 0x20 SWAP1 RETURN JUMPDEST CALLVALUE PUSH2 0x5B9 JUMPI PUSH1 0x0 CALLDATASIZE PUSH1 0x3 NOT ADD SLT PUSH2 0x5B9 JUMPI PUSH1 0x20 PUSH1 0x40 MLOAD PUSH3 0x93A80 DUP2 MSTORE RETURN JUMPDEST CALLVALUE PUSH2 0x5B9 JUMPI PUSH1 0x20 CALLDATASIZE PUSH1 0x3 NOT ADD SLT PUSH2 0x5B9 JUMPI PUSH2 0x1C8A PUSH2 0x21C8 JUMP JUMPDEST PUSH1 0x6 SLOAD PUSH3 0x15180 DUP2 ADD DUP1 SWAP2 GT PUSH2 0x463 JUMPI TIMESTAMP LT PUSH2 0x1CC8 JUMPI PUSH1 0x1 PUSH1 0x1 PUSH1 0xA0 SHL SUB DUP2 AND PUSH1 0x0 SWAP1 DUP2 MSTORE PUSH1 0x7 PUSH1 0x20 MSTORE PUSH1 0x40 SWAP1 KECCAK256 SLOAD PUSH2 0x1CC2 SWAP2 PUSH2 0x2B46 JUMP JUMPDEST TIMESTAMP PUSH1 0x6 SSTORE STOP JUMPDEST PUSH1 0x40 MLOAD PUSH3 0x461BCD PUSH1 0xE5 SHL DUP2 MSTORE PUSH1 0x20 PUSH1 0x4 DUP3 ADD MSTORE PUSH1 0x17 PUSH1 0x24 DUP3 ADD MSTORE PUSH32 0x546F6F206561726C7920666F7220726562616C616E6365000000000000000000 PUSH1 0x44 DUP3 ADD MSTORE PUSH1 0x64 SWAP1 REVERT JUMPDEST CALLVALUE PUSH2 0x5B9 JUMPI PUSH1 0x20 CALLDATASIZE PUSH1 0x3 NOT ADD SLT PUSH2 0x5B9 JUMPI PUSH1 0x40 PUSH1 0x1 PUSH1 0x1 PUSH1 0xA0 SHL SUB PUSH2 0x1D30 PUSH2 0x21C8 JUMP JUMPDEST AND DUP1 PUSH1 0x0 MSTORE PUSH1 0x2 PUSH1 0x20 MSTORE DUP2 PUSH1 0x0 KECCAK256 SLOAD SWAP1 PUSH1 0x0 MSTORE PUSH1 0x3 PUSH1 0x20 MSTORE DUP2 PUSH1 0x0 KECCAK256 SLOAD DUP3 MLOAD SWAP2 DUP3 MSTORE PUSH1 0x20 DUP3 ADD MSTORE RETURN JUMPDEST CALLVALUE PUSH2 0x5B9 JUMPI PUSH1 0x40 CALLDATASIZE PUSH1 0x3 NOT ADD SLT PUSH2 0x5B9 JUMPI PUSH2 0x1D72 PUSH2 0x21DE JUMP JUMPDEST CALLER PUSH1 0x1 PUSH1 0x1 PUSH1 0xA0 SHL SUB DUP3 AND SUB PUSH2 0x1D8E JUMPI PUSH2 0xF SWAP1 PUSH1 0x4 CALLDATALOAD PUSH2 0x2CC9 JUMP JUMPDEST PUSH4 0x334BD919 PUSH1 0xE1 SHL PUSH1 0x0 MSTORE PUSH1 0x4 PUSH1 0x0 REVERT JUMPDEST CALLVALUE PUSH2 0x5B9 JUMPI PUSH1 0x40 CALLDATASIZE PUSH1 0x3 NOT ADD SLT PUSH2 0x5B9 JUMPI PUSH2 0xF PUSH2 0x1DBB PUSH2 0x21C8 JUMP JUMPDEST PUSH2 0x1DC3 PUSH2 0x29B9 JUMP JUMPDEST PUSH1 0x24 CALLDATALOAD SWAP1 PUSH2 0x22F8 JUMP JUMPDEST CALLVALUE PUSH2 0x5B9 JUMPI PUSH1 0x0 CALLDATASIZE PUSH1 0x3 NOT ADD SLT PUSH2 0x5B9 JUMPI PUSH1 0x20 PUSH1 0x40 MLOAD PUSH1 0x6 DUP2 MSTORE RETURN JUMPDEST CALLVALUE PUSH2 0x5B9 JUMPI PUSH1 0x0 CALLDATASIZE PUSH1 0x3 NOT ADD SLT PUSH2 0x5B9 JUMPI PUSH1 0x20 PUSH1 0x40 MLOAD PUSH2 0x3E8 DUP2 MSTORE RETURN JUMPDEST CALLVALUE PUSH2 0x5B9 JUMPI PUSH1 0x40 CALLDATASIZE PUSH1 0x3 NOT ADD SLT PUSH2 0x5B9 JUMPI PUSH2 0xF PUSH1 0x4 CALLDATALOAD PUSH2 0x1E24 PUSH2 0x21DE JUMP JUMPDEST SWAP1 PUSH2 0x1E40 PUSH2 0xB6F DUP3 PUSH1 0x0 MSTORE PUSH1 0x1 PUSH1 0x20 MSTORE PUSH1 0x1 PUSH1 0x40 PUSH1 0x0 KECCAK256 ADD SLOAD SWAP1 JUMP JUMPDEST PUSH2 0x2AB7 JUMP JUMPDEST CALLVALUE PUSH2 0x5B9 JUMPI PUSH1 0x0 CALLDATASIZE PUSH1 0x3 NOT ADD SLT PUSH2 0x5B9 JUMPI PUSH1 0x20 PUSH1 0x40 MLOAD PUSH1 0x0 DUP1 MLOAD PUSH1 0x20 PUSH2 0x3063 DUP4 CODECOPY DUP2 MLOAD SWAP2 MSTORE DUP2 MSTORE RETURN JUMPDEST CALLVALUE PUSH2 0x5B9 JUMPI PUSH1 0x0 CALLDATASIZE PUSH1 0x3 NOT ADD SLT PUSH2 0x5B9 JUMPI PUSH1 0x20 PUSH1 0x40 MLOAD PUSH2 0xE10 DUP2 MSTORE RETURN JUMPDEST CALLVALUE PUSH2 0x5B9 JUMPI PUSH1 0x20 CALLDATASIZE PUSH1 0x3 NOT ADD SLT PUSH2 0x5B9 JUMPI PUSH1 0x20 PUSH2 0x14F4 PUSH1 0x4 CALLDATALOAD PUSH1 0x0 MSTORE PUSH1 0x1 PUSH1 0x20 MSTORE PUSH1 0x1 PUSH1 0x40 PUSH1 0x0 KECCAK256 ADD SLOAD SWAP1 JUMP JUMPDEST CALLVALUE PUSH2 0x5B9 JUMPI PUSH1 0x20 CALLDATASIZE PUSH1 0x3 NOT ADD SLT PUSH2 0x5B9 JUMPI PUSH1 0x4 CALLDATALOAD PUSH1 0x9 SLOAD DUP2 LT ISZERO PUSH2 0x5B9 JUMPI PUSH2 0x1EE1 PUSH1 0x20 SWAP2 PUSH2 0x2236 JUMP JUMPDEST SWAP1 SLOAD PUSH1 0x40 MLOAD PUSH1 0x3 SWAP3 SWAP1 SWAP3 SHL SHR PUSH1 0x1 PUSH1 0x1 PUSH1 0xA0 SHL SUB AND DUP2 MSTORE RETURN JUMPDEST CALLVALUE PUSH2 0x5B9 JUMPI PUSH1 0x20 CALLDATASIZE PUSH1 0x3 NOT ADD SLT PUSH2 0x5B9 JUMPI PUSH2 0x1F13 PUSH2 0x21C8 JUMP JUMPDEST PUSH2 0x1F1B PUSH2 0x29B9 JUMP JUMPDEST PUSH1 0x1 PUSH1 0x1 PUSH1 0xA0 SHL SUB AND PUSH1 0x0 DUP2 DUP2 MSTORE PUSH1 0xA PUSH1 0x20 MSTORE PUSH1 0x40 SWAP1 KECCAK256 SLOAD PUSH1 0xFF AND ISZERO PUSH2 0x2040 JUMPI PUSH1 0x0 JUMPDEST PUSH1 0x9 SLOAD SWAP1 DUP2 DUP2 LT ISZERO PUSH2 0x2039 JUMPI DUP3 PUSH2 0x1F54 DUP3 PUSH2 0x2236 JUMP JUMPDEST SWAP1 SLOAD PUSH1 0x3 SWAP2 SWAP1 SWAP2 SHL SHR PUSH1 0x1 PUSH1 0x1 PUSH1 0xA0 SHL SUB AND EQ PUSH2 0x1F75 JUMPI PUSH1 0x1 SWAP2 POP ADD PUSH2 0x1F3E JUMP JUMPDEST PUSH1 0x0 NOT DUP3 ADD SWAP2 DUP3 GT PUSH2 0x463 JUMPI DUP2 DUP2 SUB PUSH2 0x200B JUMPI JUMPDEST POP POP PUSH1 0x9 SLOAD DUP1 ISZERO PUSH2 0x1FF5 JUMPI PUSH1 0x0 NOT ADD PUSH2 0x1FA1 DUP2 PUSH2 0x2236 JUMP JUMPDEST DUP2 SLOAD SWAP1 PUSH1 0x1 DUP1 PUSH1 0xA0 SHL SUB SWAP1 PUSH1 0x3 SHL SHL NOT AND SWAP1 SSTORE PUSH1 0x9 SSTORE JUMPDEST DUP1 PUSH1 0x0 MSTORE PUSH1 0xA PUSH1 0x20 MSTORE PUSH1 0x40 PUSH1 0x0 KECCAK256 PUSH1 0xFF NOT DUP2 SLOAD AND SWAP1 SSTORE PUSH32 0xFE00C1E8CD2C81E2FC9FBCFBD6EEF9904D0B41515821320D5C45ABE6E8BAAE55 PUSH1 0x0 DUP1 LOG2 STOP JUMPDEST PUSH4 0x4E487B71 PUSH1 0xE0 SHL PUSH1 0x0 MSTORE PUSH1 0x31 PUSH1 0x4 MSTORE PUSH1 0x24 PUSH1 0x0 REVERT JUMPDEST PUSH2 0x170D PUSH2 0x201A PUSH2 0x2032 SWAP4 PUSH2 0x2236 JUMP JUMPDEST SWAP1 SLOAD PUSH1 0x3 SWAP2 SWAP1 SWAP2 SHL SHR PUSH1 0x1 PUSH1 0x1 PUSH1 0xA0 SHL SUB AND SWAP2 PUSH2 0x2236 JUMP JUMPDEST DUP2 DUP1 PUSH2 0x1F89 JUMP JUMPDEST POP POP PUSH2 0x1FB8 JUMP JUMPDEST PUSH1 0x40 MLOAD PUSH3 0x461BCD PUSH1 0xE5 SHL DUP2 MSTORE PUSH1 0x20 PUSH1 0x4 DUP3 ADD MSTORE PUSH1 0x10 PUSH1 0x24 DUP3 ADD MSTORE PUSH16 0x141BDBDB081B9BDD081D1C9858DAD959 PUSH1 0x82 SHL PUSH1 0x44 DUP3 ADD MSTORE PUSH1 0x64 SWAP1 REVERT JUMPDEST CALLVALUE PUSH2 0x5B9 JUMPI PUSH1 0x20 CALLDATASIZE PUSH1 0x3 NOT ADD SLT PUSH2 0x5B9 JUMPI PUSH1 0x1 PUSH1 0x1 PUSH1 0xA0 SHL SUB PUSH2 0x2099 PUSH2 0x21C8 JUMP JUMPDEST AND PUSH1 0x0 MSTORE PUSH1 0x4 PUSH1 0x20 MSTORE PUSH1 0x20 PUSH1 0x40 PUSH1 0x0 KECCAK256 SLOAD PUSH1 0x40 MLOAD SWAP1 DUP2 MSTORE RETURN JUMPDEST CALLVALUE PUSH2 0x5B9 JUMPI PUSH1 0x0 CALLDATASIZE PUSH1 0x3 NOT ADD SLT PUSH2 0x5B9 JUMPI PUSH1 0x20 PUSH1 0x40 MLOAD PUSH9 0x56BC75E2D63100000 DUP2 MSTORE RETURN JUMPDEST CALLVALUE PUSH2 0x5B9 JUMPI PUSH1 0x0 CALLDATASIZE PUSH1 0x3 NOT ADD SLT PUSH2 0x5B9 JUMPI PUSH1 0x20 PUSH1 0x40 MLOAD PUSH8 0x16345785D8A0000 DUP2 MSTORE RETURN JUMPDEST CALLVALUE PUSH2 0x5B9 JUMPI PUSH1 0x40 CALLDATASIZE PUSH1 0x3 NOT ADD SLT PUSH2 0x5B9 JUMPI PUSH1 0x20 PUSH2 0x14F4 PUSH1 0x24 CALLDATALOAD PUSH1 0x4 CALLDATALOAD PUSH2 0x22A9 JUMP JUMPDEST CALLVALUE PUSH2 0x5B9 JUMPI PUSH1 0x20 CALLDATASIZE PUSH1 0x3 NOT ADD SLT PUSH2 0x5B9 JUMPI PUSH1 0x1 PUSH1 0x1 PUSH1 0xA0 SHL SUB PUSH2 0x213B PUSH2 0x21C8 JUMP JUMPDEST AND PUSH1 0x0 MSTORE PUSH1 0xB PUSH1 0x20 MSTORE PUSH1 0x40 PUSH1 0x0 KECCAK256 DUP1 SLOAD PUSH2 0xAE0 PUSH1 0x2 PUSH1 0x1 DUP5 ADD SLOAD SWAP4 ADD SLOAD PUSH1 0x40 MLOAD SWAP4 DUP5 SWAP4 DUP5 PUSH1 0x40 SWAP2 SWAP5 SWAP4 SWAP3 PUSH1 0x60 DUP3 ADD SWAP6 DUP3 MSTORE PUSH1 0x20 DUP3 ADD MSTORE ADD MSTORE JUMP JUMPDEST CALLVALUE PUSH2 0x5B9 JUMPI PUSH1 0x20 CALLDATASIZE PUSH1 0x3 NOT ADD SLT PUSH2 0x5B9 JUMPI PUSH1 0x4 CALLDATALOAD SWAP1 PUSH4 0xFFFFFFFF PUSH1 0xE0 SHL DUP3 AND DUP1 SWAP3 SUB PUSH2 0x5B9 JUMPI PUSH1 0x20 SWAP2 PUSH4 0x7965DB0B PUSH1 0xE0 SHL DUP2 EQ SWAP1 DUP2 ISZERO PUSH2 0x21B7 JUMPI JUMPDEST POP ISZERO ISZERO DUP2 MSTORE RETURN JUMPDEST PUSH4 0x1FFC9A7 PUSH1 0xE0 SHL EQ SWAP1 POP DUP4 PUSH2 0x21B0 JUMP JUMPDEST PUSH1 0x4 CALLDATALOAD SWAP1 PUSH1 0x1 PUSH1 0x1 PUSH1 0xA0 SHL SUB DUP3 AND DUP3 SUB PUSH2 0x5B9 JUMPI JUMP JUMPDEST PUSH1 0x24 CALLDATALOAD SWAP1 PUSH1 0x1 PUSH1 0x1 PUSH1 0xA0 SHL SUB DUP3 AND DUP3 SUB PUSH2 0x5B9 JUMPI JUMP JUMPDEST CALLVALUE PUSH2 0x5B9 JUMPI PUSH1 0x0 CALLDATASIZE PUSH1 0x3 NOT ADD SLT PUSH2 0x5B9 JUMPI PUSH1 0x20 PUSH1 0x40 MLOAD PUSH3 0x15180 DUP2 MSTORE RETURN JUMPDEST CALLVALUE PUSH2 0x5B9 JUMPI PUSH1 0x0 CALLDATASIZE PUSH1 0x3 NOT ADD SLT PUSH2 0x5B9 JUMPI PUSH1 0x20 PUSH1 0x40 MLOAD PUSH9 0x3635C9ADC5DEA00000 DUP2 MSTORE RETURN JUMPDEST PUSH1 0x9 SLOAD DUP2 LT ISZERO PUSH2 0x2251 JUMPI PUSH1 0x9 PUSH1 0x0 MSTORE PUSH1 0x20 PUSH1 0x0 KECCAK256 ADD SWAP1 PUSH1 0x0 SWAP1 JUMP JUMPDEST PUSH4 0x4E487B71 PUSH1 0xE0 SHL PUSH1 0x0 MSTORE PUSH1 0x32 PUSH1 0x4 MSTORE PUSH1 0x24 PUSH1 0x0 REVERT JUMPDEST DUP1 SLOAD DUP3 LT ISZERO PUSH2 0x2251 JUMPI PUSH1 0x0 MSTORE PUSH1 0x20 PUSH1 0x0 KECCAK256 ADD SWAP1 PUSH1 0x0 SWAP1 JUMP JUMPDEST PUSH1 0x60 SWAP1 PUSH1 0x3 NOT ADD SLT PUSH2 0x5B9 JUMPI PUSH1 0x4 CALLDATALOAD PUSH1 0x1 PUSH1 0x1 PUSH1 0xA0 SHL SUB DUP2 AND DUP2 SUB PUSH2 0x5B9 JUMPI SWAP1 PUSH1 0x24 CALLDATALOAD SWAP1 PUSH1 0x44 CALLDATALOAD SWAP1 JUMP JUMPDEST DUP2 DUP2 MUL SWAP3 SWAP2 DUP2 ISZERO SWAP2 DUP5 DIV EQ OR ISZERO PUSH2 0x463 JUMPI JUMP JUMPDEST SWAP2 SWAP1 DUP3 SUB SWAP2 DUP3 GT PUSH2 0x463 JUMPI JUMP JUMPDEST PUSH1 0x0 NOT DUP2 EQ PUSH2 0x463 JUMPI PUSH1 0x1 ADD SWAP1 JUMP JUMPDEST DUP2 ISZERO PUSH2 0x22E2 JUMPI DIV SWAP1 JUMP JUMPDEST PUSH4 0x4E487B71 PUSH1 0xE0 SHL PUSH1 0x0 MSTORE PUSH1 0x12 PUSH1 0x4 MSTORE PUSH1 0x24 PUSH1 0x0 REVERT JUMPDEST PUSH1 0x1 PUSH1 0x1 PUSH1 0xA0 SHL SUB DUP2 AND PUSH1 0x0 DUP2 DUP2 MSTORE PUSH1 0x7 PUSH1 0x20 MSTORE PUSH1 0x40 SWAP1 KECCAK256 DUP1 SLOAD SWAP3 SWAP4 SWAP2 SWAP3 ISZERO PUSH2 0x23F1 JUMPI PUSH1 0x1 DUP2 ADD SWAP3 DUP4 SLOAD PUSH1 0x50 DUP2 MUL SWAP1 DUP1 DUP3 DIV PUSH1 0x50 EQ SWAP1 ISZERO OR ISZERO PUSH2 0x463 JUMPI PUSH1 0x14 DUP5 MUL SWAP3 DUP5 DUP5 DIV PUSH1 0x14 EQ DUP6 ISZERO OR ISZERO PUSH2 0x463 JUMPI PUSH2 0x235C PUSH1 0x3 SWAP5 SWAP3 PUSH1 0x64 DUP1 DUP8 SWAP6 DIV SWAP2 DIV PUSH2 0x2405 JUMP JUMPDEST DUP1 SWAP7 DUP7 DUP4 SSTORE SSTORE TIMESTAMP PUSH1 0x2 DUP3 ADD SSTORE ADD SWAP1 PUSH2 0x2374 DUP3 SLOAD PUSH2 0x22C9 JUMP JUMPDEST DUP1 SWAP3 SSTORE PUSH32 0xCA21C0666034043E35144E1A6964B4519A124330E0122463475F81A0C189D119 PUSH1 0x40 MLOAD DUP1 PUSH2 0x23B9 TIMESTAMP DUP10 DUP10 DUP5 PUSH1 0x40 SWAP2 SWAP5 SWAP4 SWAP3 PUSH1 0x60 DUP3 ADD SWAP6 DUP3 MSTORE PUSH1 0x20 DUP3 ADD MSTORE ADD MSTORE JUMP JUMPDEST SUB SWAP1 LOG2 LT ISZERO PUSH2 0x23C7 JUMPI POP POP POP JUMP JUMPDEST PUSH1 0x6E DUP3 MUL DUP3 DUP2 DIV PUSH1 0x6E EQ DUP4 ISZERO OR ISZERO PUSH2 0x463 JUMPI PUSH1 0x64 SWAP1 DIV LT PUSH2 0x23E6 JUMPI POP POP JUMP JUMPDEST PUSH2 0x23EF SWAP2 PUSH2 0x2B46 JUMP JUMPDEST JUMP JUMPDEST SWAP1 PUSH1 0x1 SWAP4 POP PUSH1 0x3 SWAP3 POP DUP1 DUP3 SSTORE DUP4 DUP3 ADD SSTORE ADD SSTORE JUMP JUMPDEST SWAP2 SWAP1 DUP3 ADD DUP1 SWAP3 GT PUSH2 0x463 JUMPI JUMP JUMPDEST ISZERO PUSH2 0x2419 JUMPI JUMP JUMPDEST PUSH1 0x40 MLOAD PUSH3 0x461BCD PUSH1 0xE5 SHL DUP2 MSTORE PUSH1 0x20 PUSH1 0x4 DUP3 ADD MSTORE PUSH1 0x10 PUSH1 0x24 DUP3 ADD MSTORE PUSH16 0x4E6F7420696E20646973636F76657279 PUSH1 0x80 SHL PUSH1 0x44 DUP3 ADD MSTORE PUSH1 0x64 SWAP1 REVERT JUMPDEST SWAP1 PUSH1 0x1F DUP1 NOT SWAP2 ADD AND DUP2 ADD SWAP1 DUP2 LT PUSH8 0xFFFFFFFFFFFFFFFF DUP3 GT OR PUSH2 0x9CC JUMPI PUSH1 0x40 MSTORE JUMP JUMPDEST ISZERO PUSH2 0x247A JUMPI JUMP JUMPDEST PUSH1 0x40 MLOAD PUSH3 0x461BCD PUSH1 0xE5 SHL DUP2 MSTORE PUSH1 0x20 PUSH1 0x4 DUP3 ADD MSTORE PUSH1 0x17 PUSH1 0x24 DUP3 ADD MSTORE PUSH32 0x42656C6F77206D696E696D756D206C6971756964697479000000000000000000 PUSH1 0x44 DUP3 ADD MSTORE PUSH1 0x64 SWAP1 REVERT JUMPDEST PUSH1 0x1 DUP1 PUSH1 0xA0 SHL SUB AND DUP1 PUSH1 0x0 MSTORE PUSH1 0x7 PUSH1 0x20 MSTORE PUSH1 0x40 PUSH1 0x0 KECCAK256 SWAP1 PUSH1 0x0 MSTORE PUSH1 0x3 PUSH1 0x20 MSTORE PUSH1 0x40 PUSH1 0x0 KECCAK256 SLOAD SWAP1 SLOAD SWAP1 PUSH8 0xDE0B6B3A7640000 DUP3 MUL SWAP2 DUP1 DUP4 DIV PUSH8 0xDE0B6B3A7640000 EQ SWAP1 ISZERO OR ISZERO PUSH2 0x463 JUMPI DUP2 DUP2 LT ISZERO PUSH2 0x252B JUMPI PUSH2 0x2519 SWAP2 PUSH2 0x22BC JUMP JUMPDEST SWAP1 DUP1 DUP3 LT ISZERO PUSH2 0x2526 JUMPI POP SWAP1 JUMP JUMPDEST SWAP1 POP SWAP1 JUMP JUMPDEST POP POP POP PUSH1 0x0 SWAP1 JUMP JUMPDEST PUSH1 0x1 DUP1 PUSH1 0xA0 SHL SUB AND PUSH1 0x0 MSTORE PUSH1 0xB PUSH1 0x20 MSTORE PUSH1 0x40 PUSH1 0x0 KECCAK256 PUSH1 0x1 DUP2 SLOAD SWAP2 ADD SLOAD SWAP1 PUSH3 0x93A7F NOT TIMESTAMP ADD SWAP1 TIMESTAMP DUP3 GT PUSH2 0x463 JUMPI LT PUSH2 0x257D JUMPI PUSH9 0x3635C9ADC5DEA00000 GT PUSH2 0x2578 JUMPI PUSH1 0x1 SWAP1 JUMP JUMPDEST PUSH1 0x0 SWAP1 JUMP JUMPDEST POP PUSH1 0x0 SWAP1 JUMP JUMPDEST PUSH1 0x40 MLOAD SWAP1 PUSH2 0x2592 PUSH1 0x40 DUP4 PUSH2 0x2451 JUMP JUMPDEST PUSH1 0x1D DUP3 MSTORE PUSH32 0x4E6F206665657320617661696C61626C6520746F2072656465706C6F79000000 PUSH1 0x20 DUP4 ADD MSTORE JUMP JUMPDEST ISZERO PUSH2 0x25C6 JUMPI POP JUMP JUMPDEST PUSH1 0x40 MLOAD SWAP1 PUSH3 0x461BCD PUSH1 0xE5 SHL DUP3 MSTORE PUSH1 0x20 PUSH1 0x4 DUP4 ADD MSTORE DUP2 DUP2 MLOAD SWAP2 DUP3 PUSH1 0x24 DUP4 ADD MSTORE PUSH1 0x0 JUMPDEST DUP4 DUP2 LT PUSH2 0x2609 JUMPI POP POP DUP2 PUSH1 0x0 PUSH1 0x44 DUP1 SWAP5 DUP5 ADD ADD MSTORE PUSH1 0x1F DUP1 NOT SWAP2 ADD AND DUP2 ADD SUB ADD SWAP1 REVERT JUMPDEST PUSH1 0x20 DUP3 DUP3 ADD DUP2 ADD MLOAD PUSH1 0x44 DUP8 DUP5 ADD ADD MSTORE DUP6 SWAP4 POP ADD PUSH2 0x25E7 JUMP JUMPDEST PUSH1 0x40 MLOAD SWAP1 PUSH2 0x2630 PUSH1 0x40 DUP4 PUSH2 0x2451 JUMP JUMPDEST PUSH1 0x1B DUP3 MSTORE PUSH32 0x42656C6F77206D696E696D756D20666565207468726573686F6C640000000000 PUSH1 0x20 DUP4 ADD MSTORE JUMP JUMPDEST ISZERO PUSH2 0x2663 JUMPI JUMP JUMPDEST PUSH1 0x40 MLOAD PUSH3 0x461BCD PUSH1 0xE5 SHL DUP2 MSTORE PUSH1 0x20 PUSH1 0x4 DUP3 ADD MSTORE PUSH1 0x14 PUSH1 0x24 DUP3 ADD MSTORE PUSH20 0x139BC819195C1B1BDE5B595B9D081B9959591959 PUSH1 0x62 SHL PUSH1 0x44 DUP3 ADD MSTORE PUSH1 0x64 SWAP1 REVERT JUMPDEST ISZERO PUSH2 0x26A6 JUMPI JUMP JUMPDEST PUSH1 0x40 MLOAD PUSH3 0x461BCD PUSH1 0xE5 SHL DUP2 MSTORE PUSH1 0x20 PUSH1 0x4 DUP3 ADD MSTORE PUSH1 0x24 DUP1 DUP3 ADD MSTORE PUSH32 0x4465706C6F7920616D6F756E74206578636565647320617661696C61626C6520 PUSH1 0x44 DUP3 ADD MSTORE PUSH4 0x66656573 PUSH1 0xE0 SHL PUSH1 0x64 DUP3 ADD MSTORE PUSH1 0x84 SWAP1 REVERT JUMPDEST ISZERO PUSH2 0x26FE JUMPI JUMP JUMPDEST PUSH1 0x40 MLOAD PUSH3 0x461BCD PUSH1 0xE5 SHL DUP2 MSTORE PUSH1 0x20 PUSH1 0x4 DUP3 ADD MSTORE PUSH1 0x16 PUSH1 0x24 DUP3 ADD MSTORE PUSH22 0x496E73756666696369656E7420532062616C616E6365 PUSH1 0x50 SHL PUSH1 0x44 DUP3 ADD MSTORE PUSH1 0x64 SWAP1 REVERT JUMPDEST PUSH1 0x1 PUSH1 0x1 PUSH1 0xA0 SHL SUB DUP2 AND PUSH1 0x0 DUP2 DUP2 MSTORE PUSH1 0x4 PUSH1 0x20 MSTORE PUSH1 0x40 SWAP1 KECCAK256 SLOAD SWAP1 SWAP2 PUSH2 0x276A PUSH2 0x2762 PUSH2 0x2583 JUMP JUMPDEST DUP4 ISZERO ISZERO PUSH2 0x25BE JUMP JUMPDEST PUSH2 0x2787 PUSH2 0x2775 PUSH2 0x2621 JUMP JUMPDEST PUSH9 0x56BC75E2D63100000 DUP5 LT ISZERO PUSH2 0x25BE JUMP JUMPDEST PUSH2 0x27A8 PUSH2 0x2794 DUP4 DUP7 PUSH2 0x24BF JUMP JUMPDEST SWAP3 PUSH2 0x27A0 DUP5 ISZERO ISZERO PUSH2 0x265C JUMP JUMPDEST DUP4 GT ISZERO PUSH2 0x269F JUMP JUMPDEST DUP3 PUSH1 0x0 MSTORE PUSH1 0x4 PUSH1 0x20 MSTORE PUSH1 0x40 PUSH1 0x0 KECCAK256 PUSH2 0x27C1 DUP4 DUP3 SLOAD PUSH2 0x22BC JUMP JUMPDEST SWAP1 SSTORE DUP3 ISZERO DUP1 ISZERO PUSH2 0x2950 JUMPI JUMPDEST PUSH2 0x28FD JUMPI PUSH1 0x40 MLOAD PUSH4 0x70A08231 PUSH1 0xE0 SHL DUP2 MSTORE ADDRESS PUSH1 0x4 DUP3 ADD MSTORE PUSH1 0x20 DUP2 PUSH1 0x24 DUP2 DUP8 GAS STATICCALL DUP1 ISZERO PUSH2 0x17FC JUMPI DUP4 SWAP2 PUSH1 0x0 SWAP2 PUSH2 0x28C8 JUMPI JUMPDEST POP LT PUSH2 0x2883 JUMPI DUP2 PUSH2 0x2830 PUSH32 0xA2E59056A8017237DD27A52D5981FB4983F1A43828D018D9BA6E76C801FE9059 SWAP4 PUSH1 0x20 SWAP4 PUSH2 0x2E08 JUMP JUMPDEST SWAP5 PUSH2 0x283D DUP7 SELFBALANCE LT ISZERO PUSH2 0x26F7 JUMP JUMPDEST PUSH1 0x1 DUP1 PUSH1 0xA0 SHL SUB AND SWAP5 DUP6 PUSH1 0x0 MSTORE PUSH1 0x2 DUP4 MSTORE PUSH1 0x40 PUSH1 0x0 KECCAK256 PUSH2 0x285E DUP4 DUP3 SLOAD PUSH2 0x2405 JUMP JUMPDEST SWAP1 SSTORE DUP6 PUSH1 0x0 MSTORE PUSH1 0x3 DUP4 MSTORE PUSH2 0x2878 PUSH1 0x40 PUSH1 0x0 KECCAK256 SWAP2 DUP3 SLOAD PUSH2 0x2405 JUMP JUMPDEST SWAP1 SSTORE PUSH1 0x40 MLOAD SWAP1 DUP2 MSTORE LOG3 JUMP JUMPDEST PUSH1 0x40 MLOAD PUSH3 0x461BCD PUSH1 0xE5 SHL DUP2 MSTORE PUSH1 0x20 PUSH1 0x4 DUP3 ADD MSTORE PUSH1 0x1A PUSH1 0x24 DUP3 ADD MSTORE PUSH32 0x496E73756666696369656E7420746F6B656E2062616C616E6365000000000000 PUSH1 0x44 DUP3 ADD MSTORE PUSH1 0x64 SWAP1 REVERT JUMPDEST SWAP2 POP POP PUSH1 0x20 DUP2 RETURNDATASIZE PUSH1 0x20 GT PUSH2 0x28F5 JUMPI JUMPDEST DUP2 PUSH2 0x28E4 PUSH1 0x20 SWAP4 DUP4 PUSH2 0x2451 JUMP JUMPDEST DUP2 ADD SUB SLT PUSH2 0x5B9 JUMPI DUP3 SWAP1 MLOAD CODESIZE PUSH2 0x27FC JUMP JUMPDEST RETURNDATASIZE SWAP2 POP PUSH2 0x28D7 JUMP JUMPDEST POP SWAP2 PUSH1 0x20 PUSH32 0xA2E59056A8017237DD27A52D5981FB4983F1A43828D018D9BA6E76C801FE9059 SWAP2 PUSH2 0x292F DUP6 SELFBALANCE LT ISZERO PUSH2 0x26F7 JUMP JUMPDEST PUSH1 0x1 DUP1 PUSH1 0xA0 SHL SUB AND SWAP4 DUP5 PUSH1 0x0 MSTORE PUSH1 0x3 DUP3 MSTORE PUSH1 0x40 PUSH1 0x0 KECCAK256 PUSH2 0x2878 DUP3 DUP3 SLOAD PUSH2 0x2405 JUMP JUMPDEST POP PUSH20 0xEEEEEEEEEEEEEEEEEEEEEEEEEEEEEEEEEEEEEEEE DUP4 EQ PUSH2 0x27CC JUMP JUMPDEST ISZERO PUSH2 0x2974 JUMPI JUMP JUMPDEST PUSH1 0x40 MLOAD PUSH3 0x461BCD PUSH1 0xE5 SHL DUP2 MSTORE PUSH1 0x20 PUSH1 0x4 DUP3 ADD MSTORE PUSH1 0x1B PUSH1 0x24 DUP3 ADD MSTORE PUSH32 0x43616E6E6F742072656D6F766520616C6C206C69717569646974790000000000 PUSH1 0x44 DUP3 ADD MSTORE PUSH1 0x64 SWAP1 REVERT JUMPDEST PUSH1 0x0 SLOAD PUSH1 0x1 PUSH1 0x1 PUSH1 0xA0 SHL SUB AND CALLER SUB PUSH2 0x29CD JUMPI JUMP JUMPDEST PUSH4 0x118CDAA7 PUSH1 0xE0 SHL PUSH1 0x0 MSTORE CALLER PUSH1 0x4 MSTORE PUSH1 0x24 PUSH1 0x0 REVERT JUMPDEST PUSH1 0x0 DUP2 DUP2 MSTORE PUSH1 0x1 PUSH1 0x20 SWAP1 DUP2 MSTORE PUSH1 0x40 DUP1 DUP4 KECCAK256 CALLER DUP5 MSTORE SWAP1 SWAP2 MSTORE SWAP1 KECCAK256 SLOAD PUSH1 0xFF AND ISZERO PUSH2 0x2A07 JUMPI POP JUMP JUMPDEST PUSH4 0xE2517D3F PUSH1 0xE0 SHL PUSH1 0x0 MSTORE CALLER PUSH1 0x4 MSTORE PUSH1 0x24 MSTORE PUSH1 0x44 PUSH1 0x0 REVERT JUMPDEST PUSH1 0x1 PUSH1 0x1 PUSH1 0xA0 SHL SUB DUP2 AND PUSH1 0x0 SWAP1 DUP2 MSTORE PUSH1 0x0 DUP1 MLOAD PUSH1 0x20 PUSH2 0x3083 DUP4 CODECOPY DUP2 MLOAD SWAP2 MSTORE PUSH1 0x20 MSTORE PUSH1 0x40 SWAP1 KECCAK256 SLOAD PUSH1 0xFF AND PUSH2 0x257D JUMPI PUSH1 0x1 PUSH1 0x1 PUSH1 0xA0 SHL SUB AND PUSH1 0x0 DUP2 DUP2 MSTORE PUSH1 0x0 DUP1 MLOAD PUSH1 0x20 PUSH2 0x3083 DUP4 CODECOPY DUP2 MLOAD SWAP2 MSTORE PUSH1 0x20 MSTORE PUSH1 0x40 DUP2 KECCAK256 DUP1 SLOAD PUSH1 0xFF NOT AND PUSH1 0x1 OR SWAP1 SSTORE CALLER SWAP2 SWAP1 PUSH1 0x0 DUP1 MLOAD PUSH1 0x20 PUSH2 0x3063 DUP4 CODECOPY DUP2 MLOAD SWAP2 MSTORE SWAP1 PUSH32 0x2F8788117E7EFF1D82E926EC794901D17C78024A50270940304540A733656F0D SWAP1 DUP1 LOG4 PUSH1 0x1 SWAP1 JUMP JUMPDEST PUSH1 0x0 DUP2 DUP2 MSTORE PUSH1 0x1 PUSH1 0x20 SWAP1 DUP2 MSTORE PUSH1 0x40 DUP1 DUP4 KECCAK256 PUSH1 0x1 PUSH1 0x1 PUSH1 0xA0 SHL SUB DUP7 AND DUP5 MSTORE SWAP1 SWAP2 MSTORE SWAP1 KECCAK256 SLOAD PUSH1 0xFF AND PUSH2 0x2B3F JUMPI PUSH1 0x0 DUP2 DUP2 MSTORE PUSH1 0x1 PUSH1 0x20 DUP2 DUP2 MSTORE PUSH1 0x40 DUP1 DUP5 KECCAK256 PUSH1 0x1 PUSH1 0x1 PUSH1 0xA0 SHL SUB SWAP7 SWAP1 SWAP7 AND DUP1 DUP6 MSTORE SWAP6 SWAP1 SWAP2 MSTORE DUP3 KECCAK256 DUP1 SLOAD PUSH1 0xFF NOT AND SWAP1 SWAP2 OR SWAP1 SSTORE CALLER SWAP3 SWAP2 SWAP1 PUSH32 0x2F8788117E7EFF1D82E926EC794901D17C78024A50270940304540A733656F0D SWAP1 DUP1 LOG4 PUSH1 0x1 SWAP1 JUMP JUMPDEST POP POP PUSH1 0x0 SWAP1 JUMP JUMPDEST PUSH1 0x1 DUP1 PUSH1 0xA0 SHL SUB AND SWAP1 DUP2 PUSH1 0x0 MSTORE PUSH1 0x3 PUSH1 0x20 MSTORE PUSH9 0x3635C9ADC5DEA00000 PUSH1 0x40 PUSH1 0x0 KECCAK256 SLOAD LT PUSH2 0x2BCA JUMPI PUSH8 0xDE0B6B3A7640000 DUP2 MUL SWAP1 DUP1 DUP3 DIV PUSH8 0xDE0B6B3A7640000 EQ SWAP1 ISZERO OR ISZERO PUSH2 0x463 JUMPI PUSH1 0x20 PUSH32 0x8EB665708D1CBFA2DF196D5F041BC00AC33E9C6E0B42B64233AED0C7C84DA7E1 SWAP2 DUP4 PUSH1 0x0 MSTORE PUSH1 0x3 DUP3 MSTORE DUP1 PUSH1 0x40 PUSH1 0x0 KECCAK256 SSTORE PUSH1 0x40 MLOAD SWAP1 DUP2 MSTORE LOG2 JUMP JUMPDEST POP DUP1 PUSH1 0x0 MSTORE PUSH1 0x3 PUSH1 0x20 MSTORE PUSH32 0x43C29E41362BCEAE5B8F10CF00D57C5B525A270A7FF263F5C6B24158459B0BBE PUSH1 0x80 PUSH1 0x40 PUSH1 0x0 KECCAK256 SLOAD PUSH1 0x40 MLOAD SWAP1 DUP2 MSTORE PUSH1 0x40 PUSH1 0x20 DUP3 ADD MSTORE PUSH1 0x16 PUSH1 0x40 DUP3 ADD MSTORE PUSH22 0x496E73756666696369656E74206C6971756964697479 PUSH1 0x50 SHL PUSH1 0x60 DUP3 ADD MSTORE LOG2 JUMP JUMPDEST PUSH1 0x1 PUSH1 0x1 PUSH1 0xA0 SHL SUB DUP2 AND PUSH1 0x0 SWAP1 DUP2 MSTORE PUSH1 0x0 DUP1 MLOAD PUSH1 0x20 PUSH2 0x3083 DUP4 CODECOPY DUP2 MLOAD SWAP2 MSTORE PUSH1 0x20 MSTORE PUSH1 0x40 SWAP1 KECCAK256 SLOAD PUSH1 0xFF AND ISZERO PUSH2 0x257D JUMPI PUSH1 0x1 PUSH1 0x1 PUSH1 0xA0 SHL SUB AND PUSH1 0x0 DUP2 DUP2 MSTORE PUSH1 0x0 DUP1 MLOAD PUSH1 0x20 PUSH2 0x3083 DUP4 CODECOPY DUP2 MLOAD SWAP2 MSTORE PUSH1 0x20 MSTORE PUSH1 0x40 DUP2 KECCAK256 DUP1 SLOAD PUSH1 0xFF NOT AND SWAP1 SSTORE CALLER SWAP2 SWAP1 PUSH1 0x0 DUP1 MLOAD PUSH1 0x20 PUSH2 0x3063 DUP4 CODECOPY DUP2 MLOAD SWAP2 MSTORE SWAP1 PUSH32 0xF6391F5C32D9C69D2A47EA670B442974B53935D1EDC7FD64EB21E047A839171B SWAP1 DUP1 LOG4 PUSH1 0x1 SWAP1 JUMP JUMPDEST PUSH1 0x0 DUP2 DUP2 MSTORE PUSH1 0x1 PUSH1 0x20 SWAP1 DUP2 MSTORE PUSH1 0x40 DUP1 DUP4 KECCAK256 PUSH1 0x1 PUSH1 0x1 PUSH1 0xA0 SHL SUB DUP7 AND DUP5 MSTORE SWAP1 SWAP2 MSTORE SWAP1 KECCAK256 SLOAD PUSH1 0xFF AND ISZERO PUSH2 0x2B3F JUMPI PUSH1 0x0 DUP2 DUP2 MSTORE PUSH1 0x1 PUSH1 0x20 SWAP1 DUP2 MSTORE PUSH1 0x40 DUP1 DUP4 KECCAK256 PUSH1 0x1 PUSH1 0x1 PUSH1 0xA0 SHL SUB SWAP6 SWAP1 SWAP6 AND DUP1 DUP5 MSTORE SWAP5 SWAP1 SWAP2 MSTORE DUP2 KECCAK256 DUP1 SLOAD PUSH1 0xFF NOT AND SWAP1 SSTORE CALLER SWAP3 SWAP2 SWAP1 PUSH32 0xF6391F5C32D9C69D2A47EA670B442974B53935D1EDC7FD64EB21E047A839171B SWAP1 DUP1 LOG4 PUSH1 0x1 SWAP1 JUMP JUMPDEST PUSH1 0x40 MLOAD PUSH4 0xA9059CBB PUSH1 0xE0 SHL PUSH1 0x20 DUP3 ADD MSTORE PUSH1 0x1 PUSH1 0x1 PUSH1 0xA0 SHL SUB SWAP1 SWAP3 AND PUSH1 0x24 DUP4 ADD MSTORE PUSH1 0x44 DUP1 DUP4 ADD SWAP4 SWAP1 SWAP4 MSTORE SWAP2 DUP2 MSTORE PUSH2 0x23EF SWAP2 PUSH2 0x2D8A PUSH1 0x64 DUP4 PUSH2 0x2451 JUMP JUMPDEST PUSH2 0x3007 JUMP JUMPDEST PUSH1 0xD SLOAD PUSH1 0x1 PUSH1 0x1 PUSH1 0xA0 SHL SUB AND DUP1 ISZERO ISZERO DUP1 PUSH2 0x2DF1 JUMPI JUMPDEST PUSH2 0x2DC1 JUMPI JUMPDEST POP PUSH2 0x2DB2 PUSH2 0x2E49 JUMP JUMPDEST PUSH1 0xD SLOAD PUSH1 0x1 PUSH1 0x1 PUSH1 0xA0 SHL SUB AND SWAP1 JUMP JUMPDEST DUP1 PUSH1 0x0 MSTORE PUSH1 0xA PUSH1 0x20 MSTORE PUSH1 0xFF PUSH1 0x40 PUSH1 0x0 KECCAK256 SLOAD AND DUP1 PUSH2 0x2DE2 JUMPI JUMPDEST ISZERO PUSH2 0x2DA9 JUMPI JUMPDEST SWAP1 JUMP JUMPDEST POP PUSH2 0x2DEC DUP2 PUSH2 0x2533 JUMP JUMPDEST PUSH2 0x2DD9 JUMP JUMPDEST POP PUSH1 0xF SLOAD PUSH2 0xE10 DUP2 ADD DUP1 SWAP2 GT PUSH2 0x463 JUMPI TIMESTAMP LT PUSH2 0x2DA4 JUMP JUMPDEST PUSH1 0x1 PUSH1 0x1 PUSH1 0xA0 SHL SUB AND PUSH1 0x0 SWAP1 DUP2 MSTORE PUSH1 0x2 PUSH1 0x20 SWAP1 DUP2 MSTORE PUSH1 0x40 DUP1 DUP4 KECCAK256 SLOAD PUSH1 0x3 SWAP1 SWAP3 MSTORE SWAP1 SWAP2 KECCAK256 SLOAD DUP2 ISZERO PUSH2 0x2E44 JUMPI PUSH2 0x2E3F SWAP1 PUSH2 0x2DDF SWAP4 PUSH2 0x22A9 JUMP JUMPDEST PUSH2 0x22D8 JUMP JUMPDEST POP POP SWAP1 JUMP JUMPDEST PUSH1 0xD DUP1 SLOAD PUSH1 0x1 PUSH1 0x1 PUSH1 0xA0 SHL SUB NOT AND SWAP1 SSTORE PUSH1 0x0 PUSH1 0xE SSTORE PUSH1 0x9 SLOAD DUP1 ISZERO PUSH2 0x3004 JUMPI PUSH3 0x93A7F NOT TIMESTAMP ADD SWAP1 TIMESTAMP DUP3 GT PUSH2 0x463 JUMPI PUSH1 0x0 JUMPDEST DUP2 DUP2 LT PUSH2 0x2EC6 JUMPI POP POP POP TIMESTAMP PUSH1 0xF SSTORE PUSH1 0x1 DUP1 PUSH1 0xA0 SHL SUB PUSH1 0xD SLOAD AND PUSH32 0x2BC000D157093A2097E6514A43C3BAEA9E0CFBE6EE606D000E64892A9EC425D PUSH1 0x40 PUSH1 0xE SLOAD DUP2 MLOAD SWAP1 DUP2 MSTORE TIMESTAMP PUSH1 0x20 DUP3 ADD MSTORE LOG2 JUMP JUMPDEST PUSH2 0x2ECF DUP2 PUSH2 0x2236 JUMP JUMPDEST PUSH1 0x1 DUP1 PUSH1 0xA0 SHL SUB SWAP2 SLOAD SWAP1 PUSH1 0x3 SHL SHR AND SWAP1 DUP2 PUSH1 0x0 MSTORE PUSH1 0xB PUSH1 0x20 MSTORE PUSH1 0x40 PUSH1 0x0 KECCAK256 PUSH1 0x40 MLOAD SWAP1 PUSH1 0x60 DUP3 ADD DUP3 DUP2 LT PUSH8 0xFFFFFFFFFFFFFFFF DUP3 GT OR PUSH2 0x9CC JUMPI PUSH1 0x40 MSTORE DUP1 SLOAD DUP3 MSTORE PUSH1 0x2 PUSH1 0x1 DUP3 ADD SLOAD SWAP2 PUSH1 0x20 DUP5 ADD SWAP3 DUP4 MSTORE ADD SLOAD PUSH1 0x40 DUP4 ADD MSTORE DUP4 PUSH1 0x0 MSTORE PUSH1 0xA PUSH1 0x20 MSTORE DUP6 PUSH1 0xFF PUSH1 0x40 PUSH1 0x0 KECCAK256 SLOAD AND ISZERO SWAP3 DUP4 ISZERO PUSH2 0x2FF9 JUMPI JUMPDEST POP POP DUP2 ISZERO PUSH2 0x2FE5 JUMPI JUMPDEST POP PUSH2 0x2FDC JUMPI DUP2 PUSH1 0x0 MSTORE PUSH1 0x3 PUSH1 0x20 MSTORE PUSH1 0x40 PUSH1 0x0 KECCAK256 SLOAD SWAP2 DUP1 PUSH1 0x0 MSTORE PUSH1 0xB PUSH1 0x20 MSTORE PUSH1 0x1 PUSH1 0x40 PUSH1 0x0 KECCAK256 ADD SLOAD PUSH1 0x7 DUP5 MUL SWAP4 DUP1 DUP6 DIV PUSH1 0x7 EQ SWAP1 ISZERO OR ISZERO PUSH2 0x463 JUMPI PUSH1 0x3 DUP2 MUL SWAP1 DUP1 DUP3 DIV PUSH1 0x3 EQ SWAP1 ISZERO OR ISZERO PUSH2 0x463 JUMPI PUSH2 0x2FA5 PUSH1 0xA SWAP2 PUSH1 0x1 SWAP6 PUSH2 0x2405 JUMP JUMPDEST DIV SWAP1 PUSH1 0xE SLOAD DUP3 GT PUSH2 0x2FBA JUMPI JUMPDEST POP POP JUMPDEST ADD PUSH2 0x2E79 JUMP JUMPDEST PUSH12 0xFFFFFFFFFFFFFFFFFFFFFFFF PUSH1 0xA0 SHL PUSH1 0xD SLOAD AND OR PUSH1 0xD SSTORE PUSH1 0xE SSTORE CODESIZE DUP1 PUSH2 0x2FB1 JUMP JUMPDEST PUSH1 0x1 SWAP2 POP PUSH2 0x2FB4 JUMP JUMPDEST PUSH9 0x3635C9ADC5DEA00000 SWAP2 POP MLOAD LT CODESIZE PUSH2 0x2F4A JUMP JUMPDEST MLOAD LT SWAP2 POP DUP6 CODESIZE PUSH2 0x2F41 JUMP JUMPDEST POP JUMP JUMPDEST SWAP1 PUSH1 0x0 PUSH1 0x20 SWAP2 DUP3 DUP2 MLOAD SWAP2 ADD DUP3 DUP6 GAS CALL ISZERO PUSH2 0x17FC JUMPI PUSH1 0x0 MLOAD RETURNDATASIZE PUSH2 0x3059 JUMPI POP PUSH1 0x1 PUSH1 0x1 PUSH1 0xA0 SHL SUB DUP2 AND EXTCODESIZE ISZERO JUMPDEST PUSH2 0x3038 JUMPI POP JUMP JUMPDEST PUSH4 0x5274AFE7 PUSH1 0xE0 SHL PUSH1 0x0 SWAP1 DUP2 MSTORE PUSH1 0x1 PUSH1 0x1 PUSH1 0xA0 SHL SUB SWAP2 SWAP1 SWAP2 AND PUSH1 0x4 MSTORE PUSH1 0x24 SWAP1 REVERT JUMPDEST PUSH1 0x1 EQ ISZERO PUSH2 0x3031 JUMP INVALID RETURNDATASIZE SWAP7 0x2D RETURN CHAINID 0x29 SWAP9 DUP10 0xE3 0xDD 0xD0 SWAP9 0xBD 0xD6 DUP13 RETURN CALLDATALOAD LOG1 0xE3 PUSH17 0x339BD306448317D39B39A66D7ADA6DBB52 MOD AND 0xCF CREATE2 0xD6 CREATE2 PUSH21 0xAFF5A85F6D0DABE1F7D96C08FE8E54D79BFCA6E0A2 PUSH5 0x6970667358 0x22 SLT KECCAK256 0x26 0xE7 CODECOPY MULMOD SWAP8 PUSH15 0x2E66D76484A4E68744C20A9F0A61CB LOG4 SLOAD 0xCA 0xAB 0xDB EXP PUSH26 0x3361313E64736F6C634300081C00332F8788117E7EFF1D82E926 0xEC PUSH26 0x4901D17C78024A50270940304540A733656F0DA6EEF7E35ABE70 0x26 PUSH19 0x9641147F7915573C7E97B47EFA546F5F6E3230 0x26 EXTCODESIZE 0xCB BLOBHASH PUSH27 0xDA6DBB520616CFF5D6F574AFF5A85F6D0DABE1F7D96C08FE8E54D7 SWAP12 0xFC 0xA6 0xE0 "},"methodIdentifiers":{"ACTIVITY_THRESHOLD()":"414f99ae","BASE_PRICE()":"f86325ed","DEFAULT_ADMIN_ROLE()":"a217fddf","DEX_ROLE()":"2ef97265","DISCOVERY_PERIOD()":"17359688","ENGAGEMENT_THRESHOLD()":"30ae7805","MAX_PRICE_MULTIPLIER()":"5889486e","MAX_SNAPSHOTS()":"31ad24f8","MIN_24H_VOLUME()":"993d3450","MIN_FEES_FOR_REDEPLOY()":"1b5a799a","MIN_LIQUIDITY()":"21b77d63","MIN_TOKEN_PRICE()":"1879dcf3","POOL_NEED_UPDATE_INTERVAL()":"2d957a8c","REBALANCE_INTERVAL()":"5c2da7cd","SNAPSHOT_INTERVAL()":"6d2beef1","addLiquidity(address,uint256,uint256)":"55776b77","autoRedeployFees(address)":"bc99f487","calculateInitialLiquidity(uint256,uint256)":"14f302ac","calculateOptimalDeployment(address,uint256)":"6576594b","checkAndRebalance(address)":"3ec43350","collectFees(address,uint256)":"a033fcd4","collectedFees(address)":"1cead9a7","completePriceDiscovery(address)":"fb99d5f4","creatorTokenReserves(address)":"708b9935","dex()":"692058c2","forcePoolNeedUpdate()":"bd368d48","getPoolActivity(address)":"f836c8f2","getPoolNeedInfo()":"d6f969e2","getReserves(address)":"3e99c1e4","getRoleAdmin(bytes32)":"248a9ca3","getSmoothedMetrics(address)":"b1eb4835","getTrackedPools()":"b2098fa2","grantDEXRole(address)":"863ab9c8","grantRole(bytes32,address)":"2f2ff15d","hasRole(bytes32,address)":"91d14854","isPoolActive(address)":"a711e6a1","isTrackedPool(address)":"74a92c66","lastRebalanceTimestamp()":"b83d8157","mostNeededPool()":"a1ce9204","owner()":"8da5cb5b","poolActivity(address)":"051e0e67","priceDiscovery(address)":"e1aeb092","recordEngagementSnapshot(address,uint256)":"4e358af2","redeployFees(address,address)":"bd1e31aa","removeLiquidity(address,uint256,uint256)":"e38192e3","removePoolFromTracking(address)":"2253fc3c","renounceOwnership()":"715018a6","renounceRole(bytes32,address)":"36568abe","revokeDEXRole(address)":"68d693c3","revokeRole(bytes32,address)":"d547741f","setDEX(address)":"7b66a723","sonicReserves(address)":"c157c05f","sonicToken()":"461a3a95","startPriceDiscovery(address,uint256)":"8c93ca7c","supportsInterface(bytes4)":"01ffc9a7","tokenEngagement(address)":"f2fd23de","trackedPools(uint256)":"23bfa792","transferOwnership(address)":"f2fde38b","updateEngagementMetrics(address,uint256)":"3417c3d0","updatePoolActivity(address,uint256)":"e71e76c1","withdrawFees(address,uint256)":"ad3b1b47"}},"storageLayout":{"storage":[{"astId":387,"contract":"contracts/SaraLiquidityManager.sol:SaraLiquidityManager","label":"_owner","offset":0,"slot":"0","type":"t_address"},{"astId":26,"contract":"contracts/SaraLiquidityManager.sol:SaraLiquidityManager","label":"_roles","offset":0,"slot":"1","type":"t_mapping(t_bytes32,t_struct(RoleData)21_storage)"},{"astId":2320,"contract":"contracts/SaraLiquidityManager.sol:SaraLiquidityManager","label":"creatorTokenReserves","offset":0,"slot":"2","type":"t_mapping(t_address,t_uint256)"},{"astId":2324,"contract":"contracts/SaraLiquidityManager.sol:SaraLiquidityManager","label":"sonicReserves","offset":0,"slot":"3","type":"t_mapping(t_address,t_uint256)"},{"astId":2328,"contract":"contracts/SaraLiquidityManager.sol:SaraLiquidityManager","label":"collectedFees","offset":0,"slot":"4","type":"t_mapping(t_address,t_uint256)"},{"astId":2330,"contract":"contracts/SaraLiquidityManager.sol:SaraLiquidityManager","label":"sonicToken","offset":0,"slot":"5","type":"t_address"},{"astId":2335,"contract":"contracts/SaraLiquidityManager.sol:SaraLiquidityManager","label":"lastRebalanceTimestamp","offset":0,"slot":"6","type":"t_uint256"},{"astId":2352,"contract":"contracts/SaraLiquidityManager.sol:SaraLiquidityManager","label":"tokenEngagement","offset":0,"slot":"7","type":"t_mapping(t_address,t_struct(EngagementMetrics)2347_storage)"},{"astId":2387,"contract":"contracts/SaraLiquidityManager.sol:SaraLiquidityManager","label":"priceDiscovery","offset":0,"slot":"8","type":"t_mapping(t_address,t_struct(PriceDiscoveryData)2382_storage)"},{"astId":2421,"contract":"contracts/SaraLiquidityManager.sol:SaraLiquidityManager","label":"trackedPools","offset":0,"slot":"9","type":"t_array(t_address)dyn_storage"},{"astId":2425,"contract":"contracts/SaraLiquidityManager.sol:SaraLiquidityManager","label":"isTrackedPool","offset":0,"slot":"10","type":"t_mapping(t_address,t_bool)"},{"astId":2486,"contract":"contracts/SaraLiquidityManager.sol:SaraLiquidityManager","label":"poolActivity","offset":0,"slot":"11","type":"t_mapping(t_address,t_struct(PoolActivity)2481_storage)"},{"astId":2510,"contract":"contracts/SaraLiquidityManager.sol:SaraLiquidityManager","label":"dex","offset":0,"slot":"12","type":"t_address"},{"astId":2525,"contract":"contracts/SaraLiquidityManager.sol:SaraLiquidityManager","label":"mostNeededPool","offset":0,"slot":"13","type":"t_struct(PoolNeedInfo)2522_storage"}],"types":{"t_address":{"encoding":"inplace","label":"address","numberOfBytes":"20"},"t_array(t_address)dyn_storage":{"base":"t_address","encoding":"dynamic_array","label":"address[]","numberOfBytes":"32"},"t_array(t_uint256)dyn_storage":{"base":"t_uint256","encoding":"dynamic_array","label":"uint256[]","numberOfBytes":"32"},"t_bool":{"encoding":"inplace","label":"bool","numberOfBytes":"1"},"t_bytes32":{"encoding":"inplace","label":"bytes32","numberOfBytes":"32"},"t_mapping(t_address,t_bool)":{"encoding":"mapping","key":"t_address","label":"mapping(address => bool)","numberOfBytes":"32","value":"t_bool"},"t_mapping(t_address,t_struct(EngagementMetrics)2347_storage)":{"encoding":"mapping","key":"t_address","label":"mapping(address => struct SaraLiquidityManager.EngagementMetrics)","numberOfBytes":"32","value":"t_struct(EngagementMetrics)2347_storage"},"t_mapping(t_address,t_struct(PoolActivity)2481_storage)":{"encoding":"mapping","key":"t_address","label":"mapping(address => struct SaraLiquidityManager.PoolActivity)","numberOfBytes":"32","value":"t_struct(PoolActivity)2481_storage"},"t_mapping(t_address,t_struct(PriceDiscoveryData)2382_storage)":{"encoding":"mapping","key":"t_address","label":"mapping(address => struct SaraLiquidityManager.PriceDiscoveryData)","numberOfBytes":"32","value":"t_struct(PriceDiscoveryData)2382_storage"},"t_mapping(t_address,t_uint256)":{"encoding":"mapping","key":"t_address","label":"mapping(address => uint256)","numberOfBytes":"32","value":"t_uint256"},"t_mapping(t_bytes32,t_struct(RoleData)21_storage)":{"encoding":"mapping","key":"t_bytes32","label":"mapping(bytes32 => struct AccessControl.RoleData)","numberOfBytes":"32","value":"t_struct(RoleData)21_storage"},"t_struct(EngagementMetrics)2347_storage":{"encoding":"inplace","label":"struct SaraLiquidityManager.EngagementMetrics","members":[{"astId":2340,"contract":"contracts/SaraLiquidityManager.sol:SaraLiquidityManager","label":"lastSubscriberCount","offset":0,"slot":"0","type":"t_uint256"},{"astId":2342,"contract":"contracts/SaraLiquidityManager.sol:SaraLiquidityManager","label":"smoothedSubscriberCount","offset":0,"slot":"1","type":"t_uint256"},{"astId":2344,"contract":"contracts/SaraLiquidityManager.sol:SaraLiquidityManager","label":"lastUpdateTime","offset":0,"slot":"2","type":"t_uint256"},{"astId":2346,"contract":"contracts/SaraLiquidityManager.sol:SaraLiquidityManager","label":"updateCount","offset":0,"slot":"3","type":"t_uint256"}],"numberOfBytes":"128"},"t_struct(PoolActivity)2481_storage":{"encoding":"inplace","label":"struct SaraLiquidityManager.PoolActivity","members":[{"astId":2476,"contract":"contracts/SaraLiquidityManager.sol:SaraLiquidityManager","label":"lastTradeTimestamp","offset":0,"slot":"0","type":"t_uint256"},{"astId":2478,"contract":"contracts/SaraLiquidityManager.sol:SaraLiquidityManager","label":"tradingVolume24h","offset":0,"slot":"1","type":"t_uint256"},{"astId":2480,"contract":"contracts/SaraLiquidityManager.sol:SaraLiquidityManager","label":"lastVolumeUpdateTime","offset":0,"slot":"2","type":"t_uint256"}],"numberOfBytes":"96"},"t_struct(PoolNeedInfo)2522_storage":{"encoding":"inplace","label":"struct SaraLiquidityManager.PoolNeedInfo","members":[{"astId":2517,"contract":"contracts/SaraLiquidityManager.sol:SaraLiquidityManager","label":"pool","offset":0,"slot":"0","type":"t_address"},{"astId":2519,"contract":"contracts/SaraLiquidityManager.sol:SaraLiquidityManager","label":"score","offset":0,"slot":"1","type":"t_uint256"},{"astId":2521,"contract":"contracts/SaraLiquidityManager.sol:SaraLiquidityManager","label":"lastUpdateTime","offset":0,"slot":"2","type":"t_uint256"}],"numberOfBytes":"96"},"t_struct(PriceDiscoveryData)2382_storage":{"encoding":"inplace","label":"struct SaraLiquidityManager.PriceDiscoveryData","members":[{"astId":2372,"contract":"contracts/SaraLiquidityManager.sol:SaraLiquidityManager","label":"initialSubscribers","offset":0,"slot":"0","type":"t_uint256"},{"astId":2374,"contract":"contracts/SaraLiquidityManager.sol:SaraLiquidityManager","label":"currentSubscribers","offset":0,"slot":"1","type":"t_uint256"},{"astId":2376,"contract":"contracts/SaraLiquidityManager.sol:SaraLiquidityManager","label":"observationStartTime","offset":0,"slot":"2","type":"t_uint256"},{"astId":2378,"contract":"contracts/SaraLiquidityManager.sol:SaraLiquidityManager","label":"isInDiscovery","offset":0,"slot":"3","type":"t_bool"},{"astId":2381,"contract":"contracts/SaraLiquidityManager.sol:SaraLiquidityManager","label":"engagementSnapshots","offset":0,"slot":"4","type":"t_array(t_uint256)dyn_storage"}],"numberOfBytes":"160"},"t_struct(RoleData)21_storage":{"encoding":"inplace","label":"struct AccessControl.RoleData","members":[{"astId":18,"contract":"contracts/SaraLiquidityManager.sol:SaraLiquidityManager","label":"hasRole","offset":0,"slot":"0","type":"t_mapping(t_address,t_bool)"},{"astId":20,"contract":"contracts/SaraLiquidityManager.sol:SaraLiquidityManager","label":"adminRole","offset":0,"slot":"1","type":"t_bytes32"}],"numberOfBytes":"64"},"t_uint256":{"encoding":"inplace","label":"uint256","numberOfBytes":"32"}}}}}}