{"contracts/SaraTokenRouter.sol":{"SaraTokenRouter":{"abi":[{"inputs":[{"internalType":"address payable","name":"_dex","type":"address"},{"internalType":"address","name":"_creatorTokenFactory","type":"address"}],"stateMutability":"nonpayable","type":"constructor"},{"inputs":[{"internalType":"address","name":"owner","type":"address"}],"name":"OwnableInvalidOwner","type":"error"},{"inputs":[{"internalType":"address","name":"account","type":"address"}],"name":"OwnableUnauthorizedAccount","type":"error"},{"anonymous":false,"inputs":[{"indexed":true,"internalType":"address","name":"token","type":"address"},{"indexed":false,"internalType":"uint256","name":"amount","type":"uint256"},{"indexed":false,"internalType":"uint256","name":"timestamp","type":"uint256"}],"name":"ApprovalGranted","type":"event"},{"anonymous":false,"inputs":[{"indexed":true,"internalType":"address","name":"token","type":"address"},{"indexed":false,"internalType":"uint256","name":"timestamp","type":"uint256"}],"name":"ApprovalRevoked","type":"event"},{"anonymous":false,"inputs":[{"indexed":true,"internalType":"address","name":"previousOwner","type":"address"},{"indexed":true,"internalType":"address","name":"newOwner","type":"address"}],"name":"OwnershipTransferred","type":"event"},{"anonymous":false,"inputs":[{"indexed":true,"internalType":"bool","name":"isPaused","type":"bool"},{"indexed":false,"internalType":"uint256","name":"timestamp","type":"uint256"},{"indexed":true,"internalType":"address","name":"actor","type":"address"}],"name":"PauseStateChanged","type":"event"},{"anonymous":false,"inputs":[{"indexed":true,"internalType":"address","name":"token","type":"address"},{"indexed":false,"internalType":"uint256","name":"initialLiquidity","type":"uint256"}],"name":"TokenAutoListed","type":"event"},{"anonymous":false,"inputs":[{"indexed":true,"internalType":"address","name":"creatorToken","type":"address"}],"name":"TokenListed","type":"event"},{"inputs":[],"name":"APPROVAL_TIMEOUT","outputs":[{"internalType":"uint256","name":"","type":"uint256"}],"stateMutability":"view","type":"function"},{"inputs":[],"name":"MAX_INITIAL_LIQUIDITY","outputs":[{"internalType":"uint256","name":"","type":"uint256"}],"stateMutability":"view","type":"function"},{"inputs":[],"name":"MIN_INITIAL_LIQUIDITY","outputs":[{"internalType":"uint256","name":"","type":"uint256"}],"stateMutability":"view","type":"function"},{"inputs":[{"internalType":"uint256","name":"subscriberCount","type":"uint256"}],"name":"calculateInitialLiquidity","outputs":[{"internalType":"uint256","name":"","type":"uint256"}],"stateMutability":"pure","type":"function"},{"inputs":[{"internalType":"address","name":"token","type":"address"}],"name":"completePriceDiscovery","outputs":[],"stateMutability":"nonpayable","type":"function"},{"inputs":[],"name":"creatorTokenFactory","outputs":[{"internalType":"contract ICreatorCoin","name":"","type":"address"}],"stateMutability":"view","type":"function"},{"inputs":[],"name":"dex","outputs":[{"internalType":"contract SaraDEX","name":"","type":"address"}],"stateMutability":"view","type":"function"},{"inputs":[],"name":"getPauseState","outputs":[{"internalType":"bool","name":"isPaused","type":"bool"},{"internalType":"uint256","name":"lastChange","type":"uint256"},{"internalType":"uint256","name":"duration","type":"uint256"}],"stateMutability":"view","type":"function"},{"inputs":[{"internalType":"address","name":"","type":"address"}],"name":"hasOpenApproval","outputs":[{"internalType":"bool","name":"","type":"bool"}],"stateMutability":"view","type":"function"},{"inputs":[{"internalType":"address","name":"","type":"address"}],"name":"inPriceDiscovery","outputs":[{"internalType":"bool","name":"","type":"bool"}],"stateMutability":"view","type":"function"},{"inputs":[],"name":"lastApprovalTimestamp","outputs":[{"internalType":"uint256","name":"","type":"uint256"}],"stateMutability":"view","type":"function"},{"inputs":[],"name":"lastPauseChange","outputs":[{"internalType":"uint256","name":"","type":"uint256"}],"stateMutability":"view","type":"function"},{"inputs":[{"internalType":"address","name":"creatorToken","type":"address"}],"name":"listNewCreatorToken","outputs":[],"stateMutability":"nonpayable","type":"function"},{"inputs":[{"internalType":"address","name":"","type":"address"}],"name":"listedTokens","outputs":[{"internalType":"bool","name":"","type":"bool"}],"stateMutability":"view","type":"function"},{"inputs":[{"internalType":"address","name":"token","type":"address"},{"internalType":"uint256","name":"subscriberCount","type":"uint256"}],"name":"onTokenMinted","outputs":[],"stateMutability":"payable","type":"function"},{"inputs":[],"name":"owner","outputs":[{"internalType":"address","name":"","type":"address"}],"stateMutability":"view","type":"function"},{"inputs":[],"name":"paused","outputs":[{"internalType":"bool","name":"","type":"bool"}],"stateMutability":"view","type":"function"},{"inputs":[],"name":"renounceOwnership","outputs":[],"stateMutability":"nonpayable","type":"function"},{"inputs":[{"internalType":"address","name":"token","type":"address"}],"name":"revokeApproval","outputs":[],"stateMutability":"nonpayable","type":"function"},{"inputs":[],"name":"togglePause","outputs":[],"stateMutability":"nonpayable","type":"function"},{"inputs":[{"internalType":"address","name":"newOwner","type":"address"}],"name":"transferOwnership","outputs":[],"stateMutability":"nonpayable","type":"function"},{"inputs":[{"internalType":"address","name":"creatorToken","type":"address"},{"internalType":"uint256","name":"newReserveS","type":"uint256"}],"name":"updateAIRebalance","outputs":[],"stateMutability":"nonpayable","type":"function"},{"inputs":[{"internalType":"address","name":"token","type":"address"},{"internalType":"uint256","name":"currentSubscribers","type":"uint256"}],"name":"updateEngagementMetrics","outputs":[],"stateMutability":"nonpayable","type":"function"},{"stateMutability":"payable","type":"receive"}],"evm":{"bytecode":{"linkReferences":{},"object":"6080346100f957601f61130b38819003918201601f19168301916001600160401b038311848410176100fe5780849260409485528339810103126100f95780516001600160a01b03811691908290036100f957602001516001600160a01b038116908190036100f95733156100e35760008054336001600160a01b0319821681178355604051949290916001600160a01b0316907f8be0079c531659141344cd1fd0a4f28419497f9722a3daafe3b4186f6b6457e09080a360018060a01b0319600154161760015560018060a01b031960035416176003556111f690816101158239f35b631e4fbdf760e01b600052600060045260246000fd5b600080fd5b634e487b7160e01b600052604160045260246000fdfe608080604052600436101561001d575b50361561001b57600080fd5b005b600090813560e01c9081632ac84af914610dd9575080633417c3d014610cd25780633f80aace1461097f578063484685b0146109555780635c975abb1461092f578063692058c2146109065780636cbb348614610823578063700d53a7146107e45780637093f47f146107a5578063715018a61461074b578063728780fa1461072757806388ed7512146106fe57806389312c35146106e05780638da5cb5b146106b95780638e3b58e2146106925780638f8f54b3146106745780639a44f1fb1461060c5780639c3ba48b14610553578063c4ae31681461052f578063c6a55cbb146104f0578063f2fde38b1461046a578063f36834281461044d5763fb99d5f40361000f573461044a57602036600319011261044a5761013c610dfd565b610144611197565b6001600160a01b0316808252600460205260408220546101669060ff16610e18565b60015460405163461a3a9560e01b815283916001600160a01b031690602081600481855afa90811561037d57602491602091859161042d575b506040516370a0823160e01b815230600482015292839182906001600160a01b03165afa90811561037d5783916103fa575b50600491610219602092604051906101ea604083610e5d565b8482527f496e697469616c206c69717569646974792063616e6e6f74206265207a65726f858301521515610efa565b6040516306704e8760e31b815292839182905afa9081156103d05782916103db575b506001600160a01b0316803b156103cc57818091602460405180948193633ee6757d60e21b83528860048401525af180156103d0576103b7575b50506001546040516306704e8760e31b815290602090829060049082906001600160a01b03165afa90811561037d576024916040918591610388575b508151630fa6707960e21b81526004810185905292839182906001600160a01b03165afa90811561037d578391610344575b50156102ff578152600460205260408120805460ff1916905580f35b60405162461bcd60e51b815260206004820152601e60248201527f5a65726f206c697175696469747920616674657220646973636f7665727900006044820152606490fd5b90506040813d604011610375575b8161035f60409383610e5d565b810103126103715760200151386102e3565b8280fd5b3d9150610352565b6040513d85823e3d90fd5b6103aa915060203d6020116103b0575b6103a28183610e5d565b810190610e95565b386102b1565b503d610398565b816103c191610e5d565b6103cc578138610275565b5080fd5b6040513d84823e3d90fd5b6103f4915060203d6020116103b0576103a28183610e5d565b3861023b565b90506020813d602011610425575b8161041560209383610e5d565b81010312610371575160046101d1565b3d9150610408565b6104449150823d84116103b0576103a28183610e5d565b3861019f565b80fd5b503461044a578060031936011261044a576020604051610e108152f35b503461044a57602036600319011261044a57610484610dfd565b61048c611197565b6001600160a01b031680156104dc5781546001600160a01b03198116821783556001600160a01b03167f8be0079c531659141344cd1fd0a4f28419497f9722a3daafe3b4186f6b6457e08380a380f35b631e4fbdf760e01b82526004829052602482fd5b503461044a57602036600319011261044a5760209060ff906040906001600160a01b0361051b610dfd565b168152600484522054166040519015158152f35b503461044a578060031936011261044a57610548611197565b610550611136565b80f35b503461044a57602036600319011261044a5761056d610dfd565b610575611197565b6001600160a01b03168082526002602052604082205460ff166105d057808252600260205260408220805460ff191660011790557f017664858438d89f547fee46da0bcfc5396ea13a9fb1490b8fdd76cfa979f1a98280a280f35b60405162461bcd60e51b8152602060048201526014602482015273151bdad95b88185b1c9958591e481b1a5cdd195960621b6044820152606490fd5b503461044a578060031936011261044a5760ff60035460a01c1660075480151560001461066b578042034281116106575760609350905b604051921515835260208301526040820152f35b634e487b7160e01b84526011600452602484fd5b60609290610643565b503461044a578060031936011261044a576020600754604051908152f35b503461044a57602036600319011261044a5760206106b16004356110eb565b604051908152f35b503461044a578060031936011261044a57546040516001600160a01b039091168152602090f35b503461044a578060031936011261044a576020600654604051908152f35b503461044a578060031936011261044a576003546040516001600160a01b039091168152602090f35b503461044a578060031936011261044a576020604051683635c9adc5dea000008152f35b503461044a578060031936011261044a57610764611197565b80546001600160a01b03198116825581906001600160a01b03167f8be0079c531659141344cd1fd0a4f28419497f9722a3daafe3b4186f6b6457e08280a380f35b503461044a57602036600319011261044a5760209060ff906040906001600160a01b036107d0610dfd565b168152600284522054166040519015158152f35b503461044a57602036600319011261044a5760209060ff906040906001600160a01b0361080f610dfd565b168152600584522054166040519015158152f35b503461044a57604036600319011261044a578061083e610dfd565b610846611197565b6001546040516306704e8760e31b815290602090829060049082906001600160a01b03165afa90811561037d5783916108e7575b506001600160a01b031690813b156108e3576040516355776b7760e01b81526001600160a01b03909116600482015260248082018490523560448201529082908290606490829084905af180156103d0576108d25750f35b816108dc91610e5d565b61044a5780f35b5050fd5b610900915060203d6020116103b0576103a28183610e5d565b3861087a565b503461044a578060031936011261044a576001546040516001600160a01b039091168152602090f35b503461044a578060031936011261044a57602060ff60035460a01c166040519015158152f35b503461044a57602036600319011261044a57610550610972610dfd565b61097a611197565b610f5d565b50604036600319011261044a57610994610dfd565b60243560035460ff8160a01c16610c98573415610c60576001600160a01b03163303610c2c576001600160a01b0382168084526004602052604084205490929060ff16610be7576109ee6109e6610eb4565b831515610efa565b6109f7826110eb565b91610a3b604051610a09604082610e5d565b602081527f496e697469616c206c69717569646974792063616e6e6f74206265207a65726f6020820152841515610efa565b823403610ba2578491848352600460205260408320600160ff198254161790556004602060018060a01b0360015416604051928380926306704e8760e31b82525afa908115610b97578491610b78575b506001600160a01b031691823b15610b7457604051632324f29f60e21b81526001600160a01b0392909216600483015260248201529082908290604490829084905af180156103d057610b5f575b5050610ae3611197565b818352600260205260ff6040842054166105d057818352600260209081526040808520805460ff19166001179055517fd6d6d534b6d189e6da779fc9a8cc9ab4bd2680e9443079b472ebd776e7b5728a92847f017664858438d89f547fee46da0bcfc5396ea13a9fb1490b8fdd76cfa979f1a98780a28152a280f35b81610b6991610e5d565b610371578238610ad9565b8380fd5b610b91915060203d6020116103b0576103a28183610e5d565b38610a8b565b6040513d86823e3d90fd5b60405162461bcd60e51b815260206004820152601760248201527f496e636f7272656374205320616d6f756e742073656e740000000000000000006044820152606490fd5b60405162461bcd60e51b815260206004820152601a60248201527f546f6b656e20616c726561647920696e20646973636f766572790000000000006044820152606490fd5b60405162461bcd60e51b815260206004820152600c60248201526b155b985d5d1a1bdc9a5e995960a21b6044820152606490fd5b60405162461bcd60e51b815260206004820152601060248201526f139bc814c81d1bdad95b9cc81cd95b9d60821b6044820152606490fd5b60405162461bcd60e51b815260206004820152601260248201527110dbdb9d1c9858dd081a5cc81c185d5cd95960721b6044820152606490fd5b503461044a57604036600319011261044a5780610ced610dfd565b610cf5611197565b6001600160a01b038116825260046020526040822054610d179060ff16610e18565b6001546040516306704e8760e31b815290602090829060049082906001600160a01b03165afa90811561037d578391610dba575b506001600160a01b0316803b156108e35760405163271ac57960e11b81526001600160a01b03929092166004830152602480359083015290919081908390604490829084905af18015610dad57610d9f5780f35b610da891610e5d565b388180f35b50604051903d90823e3d90fd5b610dd3915060203d6020116103b0576103a28183610e5d565b38610d4b565b9050346103cc57816003193601126103cc578069d3c21bcecceda100000060209252f35b600435906001600160a01b0382168203610e1357565b600080fd5b15610e1f57565b60405162461bcd60e51b8152602060048201526016602482015275546f6b656e206e6f7420696e20646973636f7665727960501b6044820152606490fd5b90601f8019910116810190811067ffffffffffffffff821117610e7f57604052565b634e487b7160e01b600052604160045260246000fd5b90816020910312610e1357516001600160a01b0381168103610e135790565b60405190610ec3606083610e5d565b6022825261726f60f01b6040837f496e697469616c2073756273637269626572732063616e6e6f74206265207a6560208201520152565b15610f025750565b6040519062461bcd60e51b8252602060048301528181519182602483015260005b838110610f455750508160006044809484010152601f80199101168101030190fd5b60208282018101516044878401015285935001610f23565b60015460405163461a3a9560e01b8152916001600160a01b0390911690602083600481855afa92831561109b576000936110ca575b506001600160a01b03908116921682146110c65781600052600560205260ff60406000205416610fc0575050565b6020600491604051928380926306704e8760e31b82525afa90811561109b576000916110a7575b506040519063095ea7b360e01b825260018060a01b03166004820152600060248201526020816044816000865af1801561109b57611063575b50806000526005602052604060002060ff1981541690557f3e776e19fc0f05c1b8270744b61c5729d5d1a5d8dded1bfb81e3979e257edd596020604051428152a2565b6020813d602011611093575b8161107c60209383610e5d565b81010312610e135751801515811461102057600080fd5b3d915061106f565b6040513d6000823e3d90fd5b6110c0915060203d6020116103b0576103a28183610e5d565b38610fe7565b5050565b6110e491935060203d6020116103b0576103a28183610e5d565b9138610f92565b80156110ff6110f8610eb4565b8215610efa565b670de0b6b3a76400008202918204670de0b6b3a76400001417156111205790565b634e487b7160e01b600052601160045260246000fd5b60035460ff8160a01c161590818015146110c65760ff60a01b191660a082901b60ff60a01b16176003554260078190556040519081523391907fa965406db9d595b01329adb8152ce3b8bac4b7bfb1e705308939fb0c4a88318c90602090a3565b6000546001600160a01b031633036111ab57565b63118cdaa760e01b6000523360045260246000fdfea264697066735822122018f80dad17395dd50b532307c1a7884c91b0ac689d165d6e0dd0e60fb3f6ad9c64736f6c634300081c0033","opcodes":"PUSH1 0x80 CALLVALUE PUSH2 0xF9 JUMPI PUSH1 0x1F PUSH2 0x130B CODESIZE DUP2 SWAP1 SUB SWAP2 DUP3 ADD PUSH1 0x1F NOT AND DUP4 ADD SWAP2 PUSH1 0x1 PUSH1 0x1 PUSH1 0x40 SHL SUB DUP4 GT DUP5 DUP5 LT OR PUSH2 0xFE JUMPI DUP1 DUP5 SWAP3 PUSH1 0x40 SWAP5 DUP6 MSTORE DUP4 CODECOPY DUP2 ADD SUB SLT PUSH2 0xF9 JUMPI DUP1 MLOAD PUSH1 0x1 PUSH1 0x1 PUSH1 0xA0 SHL SUB DUP2 AND SWAP2 SWAP1 DUP3 SWAP1 SUB PUSH2 0xF9 JUMPI PUSH1 0x20 ADD MLOAD PUSH1 0x1 PUSH1 0x1 PUSH1 0xA0 SHL SUB DUP2 AND SWAP1 DUP2 SWAP1 SUB PUSH2 0xF9 JUMPI CALLER ISZERO PUSH2 0xE3 JUMPI PUSH1 0x0 DUP1 SLOAD CALLER PUSH1 0x1 PUSH1 0x1 PUSH1 0xA0 SHL SUB NOT DUP3 AND DUP2 OR DUP4 SSTORE PUSH1 0x40 MLOAD SWAP5 SWAP3 SWAP1 SWAP2 PUSH1 0x1 PUSH1 0x1 PUSH1 0xA0 SHL SUB AND SWAP1 PUSH32 0x8BE0079C531659141344CD1FD0A4F28419497F9722A3DAAFE3B4186F6B6457E0 SWAP1 DUP1 LOG3 PUSH1 0x1 DUP1 PUSH1 0xA0 SHL SUB NOT PUSH1 0x1 SLOAD AND OR PUSH1 0x1 SSTORE PUSH1 0x1 DUP1 PUSH1 0xA0 SHL SUB NOT PUSH1 0x3 SLOAD AND OR PUSH1 0x3 SSTORE PUSH2 0x11F6 SWAP1 DUP2 PUSH2 0x115 DUP3 CODECOPY RETURN JUMPDEST PUSH4 0x1E4FBDF7 PUSH1 0xE0 SHL PUSH1 0x0 MSTORE PUSH1 0x0 PUSH1 0x4 MSTORE PUSH1 0x24 PUSH1 0x0 REVERT JUMPDEST PUSH1 0x0 DUP1 REVERT JUMPDEST PUSH4 0x4E487B71 PUSH1 0xE0 SHL PUSH1 0x0 MSTORE PUSH1 0x41 PUSH1 0x4 MSTORE PUSH1 0x24 PUSH1 0x0 REVERT INVALID PUSH1 0x80 DUP1 PUSH1 0x40 MSTORE PUSH1 0x4 CALLDATASIZE LT ISZERO PUSH2 0x1D JUMPI JUMPDEST POP CALLDATASIZE ISZERO PUSH2 0x1B JUMPI PUSH1 0x0 DUP1 REVERT JUMPDEST STOP JUMPDEST PUSH1 0x0 SWAP1 DUP2 CALLDATALOAD PUSH1 0xE0 SHR SWAP1 DUP2 PUSH4 0x2AC84AF9 EQ PUSH2 0xDD9 JUMPI POP DUP1 PUSH4 0x3417C3D0 EQ PUSH2 0xCD2 JUMPI DUP1 PUSH4 0x3F80AACE EQ PUSH2 0x97F JUMPI DUP1 PUSH4 0x484685B0 EQ PUSH2 0x955 JUMPI DUP1 PUSH4 0x5C975ABB EQ PUSH2 0x92F JUMPI DUP1 PUSH4 0x692058C2 EQ PUSH2 0x906 JUMPI DUP1 PUSH4 0x6CBB3486 EQ PUSH2 0x823 JUMPI DUP1 PUSH4 0x700D53A7 EQ PUSH2 0x7E4 JUMPI DUP1 PUSH4 0x7093F47F EQ PUSH2 0x7A5 JUMPI DUP1 PUSH4 0x715018A6 EQ PUSH2 0x74B JUMPI DUP1 PUSH4 0x728780FA EQ PUSH2 0x727 JUMPI DUP1 PUSH4 0x88ED7512 EQ PUSH2 0x6FE JUMPI DUP1 PUSH4 0x89312C35 EQ PUSH2 0x6E0 JUMPI DUP1 PUSH4 0x8DA5CB5B EQ PUSH2 0x6B9 JUMPI DUP1 PUSH4 0x8E3B58E2 EQ PUSH2 0x692 JUMPI DUP1 PUSH4 0x8F8F54B3 EQ PUSH2 0x674 JUMPI DUP1 PUSH4 0x9A44F1FB EQ PUSH2 0x60C JUMPI DUP1 PUSH4 0x9C3BA48B EQ PUSH2 0x553 JUMPI DUP1 PUSH4 0xC4AE3168 EQ PUSH2 0x52F JUMPI DUP1 PUSH4 0xC6A55CBB EQ PUSH2 0x4F0 JUMPI DUP1 PUSH4 0xF2FDE38B EQ PUSH2 0x46A JUMPI DUP1 PUSH4 0xF3683428 EQ PUSH2 0x44D JUMPI PUSH4 0xFB99D5F4 SUB PUSH2 0xF JUMPI CALLVALUE PUSH2 0x44A JUMPI PUSH1 0x20 CALLDATASIZE PUSH1 0x3 NOT ADD SLT PUSH2 0x44A JUMPI PUSH2 0x13C PUSH2 0xDFD JUMP JUMPDEST PUSH2 0x144 PUSH2 0x1197 JUMP JUMPDEST PUSH1 0x1 PUSH1 0x1 PUSH1 0xA0 SHL SUB AND DUP1 DUP3 MSTORE PUSH1 0x4 PUSH1 0x20 MSTORE PUSH1 0x40 DUP3 KECCAK256 SLOAD PUSH2 0x166 SWAP1 PUSH1 0xFF AND PUSH2 0xE18 JUMP JUMPDEST PUSH1 0x1 SLOAD PUSH1 0x40 MLOAD PUSH4 0x461A3A95 PUSH1 0xE0 SHL DUP2 MSTORE DUP4 SWAP2 PUSH1 0x1 PUSH1 0x1 PUSH1 0xA0 SHL SUB AND SWAP1 PUSH1 0x20 DUP2 PUSH1 0x4 DUP2 DUP6 GAS STATICCALL SWAP1 DUP2 ISZERO PUSH2 0x37D JUMPI PUSH1 0x24 SWAP2 PUSH1 0x20 SWAP2 DUP6 SWAP2 PUSH2 0x42D JUMPI JUMPDEST POP PUSH1 0x40 MLOAD PUSH4 0x70A08231 PUSH1 0xE0 SHL DUP2 MSTORE ADDRESS PUSH1 0x4 DUP3 ADD MSTORE SWAP3 DUP4 SWAP2 DUP3 SWAP1 PUSH1 0x1 PUSH1 0x1 PUSH1 0xA0 SHL SUB AND GAS STATICCALL SWAP1 DUP2 ISZERO PUSH2 0x37D JUMPI DUP4 SWAP2 PUSH2 0x3FA JUMPI JUMPDEST POP PUSH1 0x4 SWAP2 PUSH2 0x219 PUSH1 0x20 SWAP3 PUSH1 0x40 MLOAD SWAP1 PUSH2 0x1EA PUSH1 0x40 DUP4 PUSH2 0xE5D JUMP JUMPDEST DUP5 DUP3 MSTORE PUSH32 0x496E697469616C206C69717569646974792063616E6E6F74206265207A65726F DUP6 DUP4 ADD MSTORE ISZERO ISZERO PUSH2 0xEFA JUMP JUMPDEST PUSH1 0x40 MLOAD PUSH4 0x6704E87 PUSH1 0xE3 SHL DUP2 MSTORE SWAP3 DUP4 SWAP2 DUP3 SWAP1 GAS STATICCALL SWAP1 DUP2 ISZERO PUSH2 0x3D0 JUMPI DUP3 SWAP2 PUSH2 0x3DB JUMPI JUMPDEST POP PUSH1 0x1 PUSH1 0x1 PUSH1 0xA0 SHL SUB AND DUP1 EXTCODESIZE ISZERO PUSH2 0x3CC JUMPI DUP2 DUP1 SWAP2 PUSH1 0x24 PUSH1 0x40 MLOAD DUP1 SWAP5 DUP2 SWAP4 PUSH4 0x3EE6757D PUSH1 0xE2 SHL DUP4 MSTORE DUP9 PUSH1 0x4 DUP5 ADD MSTORE GAS CALL DUP1 ISZERO PUSH2 0x3D0 JUMPI PUSH2 0x3B7 JUMPI JUMPDEST POP POP PUSH1 0x1 SLOAD PUSH1 0x40 MLOAD PUSH4 0x6704E87 PUSH1 0xE3 SHL DUP2 MSTORE SWAP1 PUSH1 0x20 SWAP1 DUP3 SWAP1 PUSH1 0x4 SWAP1 DUP3 SWAP1 PUSH1 0x1 PUSH1 0x1 PUSH1 0xA0 SHL SUB AND GAS STATICCALL SWAP1 DUP2 ISZERO PUSH2 0x37D JUMPI PUSH1 0x24 SWAP2 PUSH1 0x40 SWAP2 DUP6 SWAP2 PUSH2 0x388 JUMPI JUMPDEST POP DUP2 MLOAD PUSH4 0xFA67079 PUSH1 0xE2 SHL DUP2 MSTORE PUSH1 0x4 DUP2 ADD DUP6 SWAP1 MSTORE SWAP3 DUP4 SWAP2 DUP3 SWAP1 PUSH1 0x1 PUSH1 0x1 PUSH1 0xA0 SHL SUB AND GAS STATICCALL SWAP1 DUP2 ISZERO PUSH2 0x37D JUMPI DUP4 SWAP2 PUSH2 0x344 JUMPI JUMPDEST POP ISZERO PUSH2 0x2FF JUMPI DUP2 MSTORE PUSH1 0x4 PUSH1 0x20 MSTORE PUSH1 0x40 DUP2 KECCAK256 DUP1 SLOAD PUSH1 0xFF NOT AND SWAP1 SSTORE DUP1 RETURN JUMPDEST PUSH1 0x40 MLOAD PUSH3 0x461BCD PUSH1 0xE5 SHL DUP2 MSTORE PUSH1 0x20 PUSH1 0x4 DUP3 ADD MSTORE PUSH1 0x1E PUSH1 0x24 DUP3 ADD MSTORE PUSH32 0x5A65726F206C697175696469747920616674657220646973636F766572790000 PUSH1 0x44 DUP3 ADD MSTORE PUSH1 0x64 SWAP1 REVERT JUMPDEST SWAP1 POP PUSH1 0x40 DUP2 RETURNDATASIZE PUSH1 0x40 GT PUSH2 0x375 JUMPI JUMPDEST DUP2 PUSH2 0x35F PUSH1 0x40 SWAP4 DUP4 PUSH2 0xE5D JUMP JUMPDEST DUP2 ADD SUB SLT PUSH2 0x371 JUMPI PUSH1 0x20 ADD MLOAD CODESIZE PUSH2 0x2E3 JUMP JUMPDEST DUP3 DUP1 REVERT JUMPDEST RETURNDATASIZE SWAP2 POP PUSH2 0x352 JUMP JUMPDEST PUSH1 0x40 MLOAD RETURNDATASIZE DUP6 DUP3 RETURNDATACOPY RETURNDATASIZE SWAP1 REVERT JUMPDEST PUSH2 0x3AA SWAP2 POP PUSH1 0x20 RETURNDATASIZE PUSH1 0x20 GT PUSH2 0x3B0 JUMPI JUMPDEST PUSH2 0x3A2 DUP2 DUP4 PUSH2 0xE5D JUMP JUMPDEST DUP2 ADD SWAP1 PUSH2 0xE95 JUMP JUMPDEST CODESIZE PUSH2 0x2B1 JUMP JUMPDEST POP RETURNDATASIZE PUSH2 0x398 JUMP JUMPDEST DUP2 PUSH2 0x3C1 SWAP2 PUSH2 0xE5D JUMP JUMPDEST PUSH2 0x3CC JUMPI DUP2 CODESIZE PUSH2 0x275 JUMP JUMPDEST POP DUP1 REVERT JUMPDEST PUSH1 0x40 MLOAD RETURNDATASIZE DUP5 DUP3 RETURNDATACOPY RETURNDATASIZE SWAP1 REVERT JUMPDEST PUSH2 0x3F4 SWAP2 POP PUSH1 0x20 RETURNDATASIZE PUSH1 0x20 GT PUSH2 0x3B0 JUMPI PUSH2 0x3A2 DUP2 DUP4 PUSH2 0xE5D JUMP JUMPDEST CODESIZE PUSH2 0x23B JUMP JUMPDEST SWAP1 POP PUSH1 0x20 DUP2 RETURNDATASIZE PUSH1 0x20 GT PUSH2 0x425 JUMPI JUMPDEST DUP2 PUSH2 0x415 PUSH1 0x20 SWAP4 DUP4 PUSH2 0xE5D JUMP JUMPDEST DUP2 ADD SUB SLT PUSH2 0x371 JUMPI MLOAD PUSH1 0x4 PUSH2 0x1D1 JUMP JUMPDEST RETURNDATASIZE SWAP2 POP PUSH2 0x408 JUMP JUMPDEST PUSH2 0x444 SWAP2 POP DUP3 RETURNDATASIZE DUP5 GT PUSH2 0x3B0 JUMPI PUSH2 0x3A2 DUP2 DUP4 PUSH2 0xE5D JUMP JUMPDEST CODESIZE PUSH2 0x19F JUMP JUMPDEST DUP1 REVERT JUMPDEST POP CALLVALUE PUSH2 0x44A JUMPI DUP1 PUSH1 0x3 NOT CALLDATASIZE ADD SLT PUSH2 0x44A JUMPI PUSH1 0x20 PUSH1 0x40 MLOAD PUSH2 0xE10 DUP2 MSTORE RETURN JUMPDEST POP CALLVALUE PUSH2 0x44A JUMPI PUSH1 0x20 CALLDATASIZE PUSH1 0x3 NOT ADD SLT PUSH2 0x44A JUMPI PUSH2 0x484 PUSH2 0xDFD JUMP JUMPDEST PUSH2 0x48C PUSH2 0x1197 JUMP JUMPDEST PUSH1 0x1 PUSH1 0x1 PUSH1 0xA0 SHL SUB AND DUP1 ISZERO PUSH2 0x4DC JUMPI DUP2 SLOAD PUSH1 0x1 PUSH1 0x1 PUSH1 0xA0 SHL SUB NOT DUP2 AND DUP3 OR DUP4 SSTORE PUSH1 0x1 PUSH1 0x1 PUSH1 0xA0 SHL SUB AND PUSH32 0x8BE0079C531659141344CD1FD0A4F28419497F9722A3DAAFE3B4186F6B6457E0 DUP4 DUP1 LOG3 DUP1 RETURN JUMPDEST PUSH4 0x1E4FBDF7 PUSH1 0xE0 SHL DUP3 MSTORE PUSH1 0x4 DUP3 SWAP1 MSTORE PUSH1 0x24 DUP3 REVERT JUMPDEST POP CALLVALUE PUSH2 0x44A JUMPI PUSH1 0x20 CALLDATASIZE PUSH1 0x3 NOT ADD SLT PUSH2 0x44A JUMPI PUSH1 0x20 SWAP1 PUSH1 0xFF SWAP1 PUSH1 0x40 SWAP1 PUSH1 0x1 PUSH1 0x1 PUSH1 0xA0 SHL SUB PUSH2 0x51B PUSH2 0xDFD JUMP JUMPDEST AND DUP2 MSTORE PUSH1 0x4 DUP5 MSTORE KECCAK256 SLOAD AND PUSH1 0x40 MLOAD SWAP1 ISZERO ISZERO DUP2 MSTORE RETURN JUMPDEST POP CALLVALUE PUSH2 0x44A JUMPI DUP1 PUSH1 0x3 NOT CALLDATASIZE ADD SLT PUSH2 0x44A JUMPI PUSH2 0x548 PUSH2 0x1197 JUMP JUMPDEST PUSH2 0x550 PUSH2 0x1136 JUMP JUMPDEST DUP1 RETURN JUMPDEST POP CALLVALUE PUSH2 0x44A JUMPI PUSH1 0x20 CALLDATASIZE PUSH1 0x3 NOT ADD SLT PUSH2 0x44A JUMPI PUSH2 0x56D PUSH2 0xDFD JUMP JUMPDEST PUSH2 0x575 PUSH2 0x1197 JUMP JUMPDEST PUSH1 0x1 PUSH1 0x1 PUSH1 0xA0 SHL SUB AND DUP1 DUP3 MSTORE PUSH1 0x2 PUSH1 0x20 MSTORE PUSH1 0x40 DUP3 KECCAK256 SLOAD PUSH1 0xFF AND PUSH2 0x5D0 JUMPI DUP1 DUP3 MSTORE PUSH1 0x2 PUSH1 0x20 MSTORE PUSH1 0x40 DUP3 KECCAK256 DUP1 SLOAD PUSH1 0xFF NOT AND PUSH1 0x1 OR SWAP1 SSTORE PUSH32 0x17664858438D89F547FEE46DA0BCFC5396EA13A9FB1490B8FDD76CFA979F1A9 DUP3 DUP1 LOG2 DUP1 RETURN JUMPDEST PUSH1 0x40 MLOAD PUSH3 0x461BCD PUSH1 0xE5 SHL DUP2 MSTORE PUSH1 0x20 PUSH1 0x4 DUP3 ADD MSTORE PUSH1 0x14 PUSH1 0x24 DUP3 ADD MSTORE PUSH20 0x151BDAD95B88185B1C9958591E481B1A5CDD1959 PUSH1 0x62 SHL PUSH1 0x44 DUP3 ADD MSTORE PUSH1 0x64 SWAP1 REVERT JUMPDEST POP CALLVALUE PUSH2 0x44A JUMPI DUP1 PUSH1 0x3 NOT CALLDATASIZE ADD SLT PUSH2 0x44A JUMPI PUSH1 0xFF PUSH1 0x3 SLOAD PUSH1 0xA0 SHR AND PUSH1 0x7 SLOAD DUP1 ISZERO ISZERO PUSH1 0x0 EQ PUSH2 0x66B JUMPI DUP1 TIMESTAMP SUB TIMESTAMP DUP2 GT PUSH2 0x657 JUMPI PUSH1 0x60 SWAP4 POP SWAP1 JUMPDEST PUSH1 0x40 MLOAD SWAP3 ISZERO ISZERO DUP4 MSTORE PUSH1 0x20 DUP4 ADD MSTORE PUSH1 0x40 DUP3 ADD MSTORE RETURN JUMPDEST PUSH4 0x4E487B71 PUSH1 0xE0 SHL DUP5 MSTORE PUSH1 0x11 PUSH1 0x4 MSTORE PUSH1 0x24 DUP5 REVERT JUMPDEST PUSH1 0x60 SWAP3 SWAP1 PUSH2 0x643 JUMP JUMPDEST POP CALLVALUE PUSH2 0x44A JUMPI DUP1 PUSH1 0x3 NOT CALLDATASIZE ADD SLT PUSH2 0x44A JUMPI PUSH1 0x20 PUSH1 0x7 SLOAD PUSH1 0x40 MLOAD SWAP1 DUP2 MSTORE RETURN JUMPDEST POP CALLVALUE PUSH2 0x44A JUMPI PUSH1 0x20 CALLDATASIZE PUSH1 0x3 NOT ADD SLT PUSH2 0x44A JUMPI PUSH1 0x20 PUSH2 0x6B1 PUSH1 0x4 CALLDATALOAD PUSH2 0x10EB JUMP JUMPDEST PUSH1 0x40 MLOAD SWAP1 DUP2 MSTORE RETURN JUMPDEST POP CALLVALUE PUSH2 0x44A JUMPI DUP1 PUSH1 0x3 NOT CALLDATASIZE ADD SLT PUSH2 0x44A JUMPI SLOAD PUSH1 0x40 MLOAD PUSH1 0x1 PUSH1 0x1 PUSH1 0xA0 SHL SUB SWAP1 SWAP2 AND DUP2 MSTORE PUSH1 0x20 SWAP1 RETURN JUMPDEST POP CALLVALUE PUSH2 0x44A JUMPI DUP1 PUSH1 0x3 NOT CALLDATASIZE ADD SLT PUSH2 0x44A JUMPI PUSH1 0x20 PUSH1 0x6 SLOAD PUSH1 0x40 MLOAD SWAP1 DUP2 MSTORE RETURN JUMPDEST POP CALLVALUE PUSH2 0x44A JUMPI DUP1 PUSH1 0x3 NOT CALLDATASIZE ADD SLT PUSH2 0x44A JUMPI PUSH1 0x3 SLOAD PUSH1 0x40 MLOAD PUSH1 0x1 PUSH1 0x1 PUSH1 0xA0 SHL SUB SWAP1 SWAP2 AND DUP2 MSTORE PUSH1 0x20 SWAP1 RETURN JUMPDEST POP CALLVALUE PUSH2 0x44A JUMPI DUP1 PUSH1 0x3 NOT CALLDATASIZE ADD SLT PUSH2 0x44A JUMPI PUSH1 0x20 PUSH1 0x40 MLOAD PUSH9 0x3635C9ADC5DEA00000 DUP2 MSTORE RETURN JUMPDEST POP CALLVALUE PUSH2 0x44A JUMPI DUP1 PUSH1 0x3 NOT CALLDATASIZE ADD SLT PUSH2 0x44A JUMPI PUSH2 0x764 PUSH2 0x1197 JUMP JUMPDEST DUP1 SLOAD PUSH1 0x1 PUSH1 0x1 PUSH1 0xA0 SHL SUB NOT DUP2 AND DUP3 SSTORE DUP2 SWAP1 PUSH1 0x1 PUSH1 0x1 PUSH1 0xA0 SHL SUB AND PUSH32 0x8BE0079C531659141344CD1FD0A4F28419497F9722A3DAAFE3B4186F6B6457E0 DUP3 DUP1 LOG3 DUP1 RETURN JUMPDEST POP CALLVALUE PUSH2 0x44A JUMPI PUSH1 0x20 CALLDATASIZE PUSH1 0x3 NOT ADD SLT PUSH2 0x44A JUMPI PUSH1 0x20 SWAP1 PUSH1 0xFF SWAP1 PUSH1 0x40 SWAP1 PUSH1 0x1 PUSH1 0x1 PUSH1 0xA0 SHL SUB PUSH2 0x7D0 PUSH2 0xDFD JUMP JUMPDEST AND DUP2 MSTORE PUSH1 0x2 DUP5 MSTORE KECCAK256 SLOAD AND PUSH1 0x40 MLOAD SWAP1 ISZERO ISZERO DUP2 MSTORE RETURN JUMPDEST POP CALLVALUE PUSH2 0x44A JUMPI PUSH1 0x20 CALLDATASIZE PUSH1 0x3 NOT ADD SLT PUSH2 0x44A JUMPI PUSH1 0x20 SWAP1 PUSH1 0xFF SWAP1 PUSH1 0x40 SWAP1 PUSH1 0x1 PUSH1 0x1 PUSH1 0xA0 SHL SUB PUSH2 0x80F PUSH2 0xDFD JUMP JUMPDEST AND DUP2 MSTORE PUSH1 0x5 DUP5 MSTORE KECCAK256 SLOAD AND PUSH1 0x40 MLOAD SWAP1 ISZERO ISZERO DUP2 MSTORE RETURN JUMPDEST POP CALLVALUE PUSH2 0x44A JUMPI PUSH1 0x40 CALLDATASIZE PUSH1 0x3 NOT ADD SLT PUSH2 0x44A JUMPI DUP1 PUSH2 0x83E PUSH2 0xDFD JUMP JUMPDEST PUSH2 0x846 PUSH2 0x1197 JUMP JUMPDEST PUSH1 0x1 SLOAD PUSH1 0x40 MLOAD PUSH4 0x6704E87 PUSH1 0xE3 SHL DUP2 MSTORE SWAP1 PUSH1 0x20 SWAP1 DUP3 SWAP1 PUSH1 0x4 SWAP1 DUP3 SWAP1 PUSH1 0x1 PUSH1 0x1 PUSH1 0xA0 SHL SUB AND GAS STATICCALL SWAP1 DUP2 ISZERO PUSH2 0x37D JUMPI DUP4 SWAP2 PUSH2 0x8E7 JUMPI JUMPDEST POP PUSH1 0x1 PUSH1 0x1 PUSH1 0xA0 SHL SUB AND SWAP1 DUP2 EXTCODESIZE ISZERO PUSH2 0x8E3 JUMPI PUSH1 0x40 MLOAD PUSH4 0x55776B77 PUSH1 0xE0 SHL DUP2 MSTORE PUSH1 0x1 PUSH1 0x1 PUSH1 0xA0 SHL SUB SWAP1 SWAP2 AND PUSH1 0x4 DUP3 ADD MSTORE PUSH1 0x24 DUP1 DUP3 ADD DUP5 SWAP1 MSTORE CALLDATALOAD PUSH1 0x44 DUP3 ADD MSTORE SWAP1 DUP3 SWAP1 DUP3 SWAP1 PUSH1 0x64 SWAP1 DUP3 SWAP1 DUP5 SWAP1 GAS CALL DUP1 ISZERO PUSH2 0x3D0 JUMPI PUSH2 0x8D2 JUMPI POP RETURN JUMPDEST DUP2 PUSH2 0x8DC SWAP2 PUSH2 0xE5D JUMP JUMPDEST PUSH2 0x44A JUMPI DUP1 RETURN JUMPDEST POP POP REVERT JUMPDEST PUSH2 0x900 SWAP2 POP PUSH1 0x20 RETURNDATASIZE PUSH1 0x20 GT PUSH2 0x3B0 JUMPI PUSH2 0x3A2 DUP2 DUP4 PUSH2 0xE5D JUMP JUMPDEST CODESIZE PUSH2 0x87A JUMP JUMPDEST POP CALLVALUE PUSH2 0x44A JUMPI DUP1 PUSH1 0x3 NOT CALLDATASIZE ADD SLT PUSH2 0x44A JUMPI PUSH1 0x1 SLOAD PUSH1 0x40 MLOAD PUSH1 0x1 PUSH1 0x1 PUSH1 0xA0 SHL SUB SWAP1 SWAP2 AND DUP2 MSTORE PUSH1 0x20 SWAP1 RETURN JUMPDEST POP CALLVALUE PUSH2 0x44A JUMPI DUP1 PUSH1 0x3 NOT CALLDATASIZE ADD SLT PUSH2 0x44A JUMPI PUSH1 0x20 PUSH1 0xFF PUSH1 0x3 SLOAD PUSH1 0xA0 SHR AND PUSH1 0x40 MLOAD SWAP1 ISZERO ISZERO DUP2 MSTORE RETURN JUMPDEST POP CALLVALUE PUSH2 0x44A JUMPI PUSH1 0x20 CALLDATASIZE PUSH1 0x3 NOT ADD SLT PUSH2 0x44A JUMPI PUSH2 0x550 PUSH2 0x972 PUSH2 0xDFD JUMP JUMPDEST PUSH2 0x97A PUSH2 0x1197 JUMP JUMPDEST PUSH2 0xF5D JUMP JUMPDEST POP PUSH1 0x40 CALLDATASIZE PUSH1 0x3 NOT ADD SLT PUSH2 0x44A JUMPI PUSH2 0x994 PUSH2 0xDFD JUMP JUMPDEST PUSH1 0x24 CALLDATALOAD PUSH1 0x3 SLOAD PUSH1 0xFF DUP2 PUSH1 0xA0 SHR AND PUSH2 0xC98 JUMPI CALLVALUE ISZERO PUSH2 0xC60 JUMPI PUSH1 0x1 PUSH1 0x1 PUSH1 0xA0 SHL SUB AND CALLER SUB PUSH2 0xC2C JUMPI PUSH1 0x1 PUSH1 0x1 PUSH1 0xA0 SHL SUB DUP3 AND DUP1 DUP5 MSTORE PUSH1 0x4 PUSH1 0x20 MSTORE PUSH1 0x40 DUP5 KECCAK256 SLOAD SWAP1 SWAP3 SWAP1 PUSH1 0xFF AND PUSH2 0xBE7 JUMPI PUSH2 0x9EE PUSH2 0x9E6 PUSH2 0xEB4 JUMP JUMPDEST DUP4 ISZERO ISZERO PUSH2 0xEFA JUMP JUMPDEST PUSH2 0x9F7 DUP3 PUSH2 0x10EB JUMP JUMPDEST SWAP2 PUSH2 0xA3B PUSH1 0x40 MLOAD PUSH2 0xA09 PUSH1 0x40 DUP3 PUSH2 0xE5D JUMP JUMPDEST PUSH1 0x20 DUP2 MSTORE PUSH32 0x496E697469616C206C69717569646974792063616E6E6F74206265207A65726F PUSH1 0x20 DUP3 ADD MSTORE DUP5 ISZERO ISZERO PUSH2 0xEFA JUMP JUMPDEST DUP3 CALLVALUE SUB PUSH2 0xBA2 JUMPI DUP5 SWAP2 DUP5 DUP4 MSTORE PUSH1 0x4 PUSH1 0x20 MSTORE PUSH1 0x40 DUP4 KECCAK256 PUSH1 0x1 PUSH1 0xFF NOT DUP3 SLOAD AND OR SWAP1 SSTORE PUSH1 0x4 PUSH1 0x20 PUSH1 0x1 DUP1 PUSH1 0xA0 SHL SUB PUSH1 0x1 SLOAD AND PUSH1 0x40 MLOAD SWAP3 DUP4 DUP1 SWAP3 PUSH4 0x6704E87 PUSH1 0xE3 SHL DUP3 MSTORE GAS STATICCALL SWAP1 DUP2 ISZERO PUSH2 0xB97 JUMPI DUP5 SWAP2 PUSH2 0xB78 JUMPI JUMPDEST POP PUSH1 0x1 PUSH1 0x1 PUSH1 0xA0 SHL SUB AND SWAP2 DUP3 EXTCODESIZE ISZERO PUSH2 0xB74 JUMPI PUSH1 0x40 MLOAD PUSH4 0x2324F29F PUSH1 0xE2 SHL DUP2 MSTORE PUSH1 0x1 PUSH1 0x1 PUSH1 0xA0 SHL SUB SWAP3 SWAP1 SWAP3 AND PUSH1 0x4 DUP4 ADD MSTORE PUSH1 0x24 DUP3 ADD MSTORE SWAP1 DUP3 SWAP1 DUP3 SWAP1 PUSH1 0x44 SWAP1 DUP3 SWAP1 DUP5 SWAP1 GAS CALL DUP1 ISZERO PUSH2 0x3D0 JUMPI PUSH2 0xB5F JUMPI JUMPDEST POP POP PUSH2 0xAE3 PUSH2 0x1197 JUMP JUMPDEST DUP2 DUP4 MSTORE PUSH1 0x2 PUSH1 0x20 MSTORE PUSH1 0xFF PUSH1 0x40 DUP5 KECCAK256 SLOAD AND PUSH2 0x5D0 JUMPI DUP2 DUP4 MSTORE PUSH1 0x2 PUSH1 0x20 SWAP1 DUP2 MSTORE PUSH1 0x40 DUP1 DUP6 KECCAK256 DUP1 SLOAD PUSH1 0xFF NOT AND PUSH1 0x1 OR SWAP1 SSTORE MLOAD PUSH32 0xD6D6D534B6D189E6DA779FC9A8CC9AB4BD2680E9443079B472EBD776E7B5728A SWAP3 DUP5 PUSH32 0x17664858438D89F547FEE46DA0BCFC5396EA13A9FB1490B8FDD76CFA979F1A9 DUP8 DUP1 LOG2 DUP2 MSTORE LOG2 DUP1 RETURN JUMPDEST DUP2 PUSH2 0xB69 SWAP2 PUSH2 0xE5D JUMP JUMPDEST PUSH2 0x371 JUMPI DUP3 CODESIZE PUSH2 0xAD9 JUMP JUMPDEST DUP4 DUP1 REVERT JUMPDEST PUSH2 0xB91 SWAP2 POP PUSH1 0x20 RETURNDATASIZE PUSH1 0x20 GT PUSH2 0x3B0 JUMPI PUSH2 0x3A2 DUP2 DUP4 PUSH2 0xE5D JUMP JUMPDEST CODESIZE PUSH2 0xA8B JUMP JUMPDEST PUSH1 0x40 MLOAD RETURNDATASIZE DUP7 DUP3 RETURNDATACOPY RETURNDATASIZE SWAP1 REVERT JUMPDEST PUSH1 0x40 MLOAD PUSH3 0x461BCD PUSH1 0xE5 SHL DUP2 MSTORE PUSH1 0x20 PUSH1 0x4 DUP3 ADD MSTORE PUSH1 0x17 PUSH1 0x24 DUP3 ADD MSTORE PUSH32 0x496E636F7272656374205320616D6F756E742073656E74000000000000000000 PUSH1 0x44 DUP3 ADD MSTORE PUSH1 0x64 SWAP1 REVERT JUMPDEST PUSH1 0x40 MLOAD PUSH3 0x461BCD PUSH1 0xE5 SHL DUP2 MSTORE PUSH1 0x20 PUSH1 0x4 DUP3 ADD MSTORE PUSH1 0x1A PUSH1 0x24 DUP3 ADD MSTORE PUSH32 0x546F6B656E20616C726561647920696E20646973636F76657279000000000000 PUSH1 0x44 DUP3 ADD MSTORE PUSH1 0x64 SWAP1 REVERT JUMPDEST PUSH1 0x40 MLOAD PUSH3 0x461BCD PUSH1 0xE5 SHL DUP2 MSTORE PUSH1 0x20 PUSH1 0x4 DUP3 ADD MSTORE PUSH1 0xC PUSH1 0x24 DUP3 ADD MSTORE PUSH12 0x155B985D5D1A1BDC9A5E9959 PUSH1 0xA2 SHL PUSH1 0x44 DUP3 ADD MSTORE PUSH1 0x64 SWAP1 REVERT JUMPDEST PUSH1 0x40 MLOAD PUSH3 0x461BCD PUSH1 0xE5 SHL DUP2 MSTORE PUSH1 0x20 PUSH1 0x4 DUP3 ADD MSTORE PUSH1 0x10 PUSH1 0x24 DUP3 ADD MSTORE PUSH16 0x139BC814C81D1BDAD95B9CC81CD95B9D PUSH1 0x82 SHL PUSH1 0x44 DUP3 ADD MSTORE PUSH1 0x64 SWAP1 REVERT JUMPDEST PUSH1 0x40 MLOAD PUSH3 0x461BCD PUSH1 0xE5 SHL DUP2 MSTORE PUSH1 0x20 PUSH1 0x4 DUP3 ADD MSTORE PUSH1 0x12 PUSH1 0x24 DUP3 ADD MSTORE PUSH18 0x10DBDB9D1C9858DD081A5CC81C185D5CD959 PUSH1 0x72 SHL PUSH1 0x44 DUP3 ADD MSTORE PUSH1 0x64 SWAP1 REVERT JUMPDEST POP CALLVALUE PUSH2 0x44A JUMPI PUSH1 0x40 CALLDATASIZE PUSH1 0x3 NOT ADD SLT PUSH2 0x44A JUMPI DUP1 PUSH2 0xCED PUSH2 0xDFD JUMP JUMPDEST PUSH2 0xCF5 PUSH2 0x1197 JUMP JUMPDEST PUSH1 0x1 PUSH1 0x1 PUSH1 0xA0 SHL SUB DUP2 AND DUP3 MSTORE PUSH1 0x4 PUSH1 0x20 MSTORE PUSH1 0x40 DUP3 KECCAK256 SLOAD PUSH2 0xD17 SWAP1 PUSH1 0xFF AND PUSH2 0xE18 JUMP JUMPDEST PUSH1 0x1 SLOAD PUSH1 0x40 MLOAD PUSH4 0x6704E87 PUSH1 0xE3 SHL DUP2 MSTORE SWAP1 PUSH1 0x20 SWAP1 DUP3 SWAP1 PUSH1 0x4 SWAP1 DUP3 SWAP1 PUSH1 0x1 PUSH1 0x1 PUSH1 0xA0 SHL SUB AND GAS STATICCALL SWAP1 DUP2 ISZERO PUSH2 0x37D JUMPI DUP4 SWAP2 PUSH2 0xDBA JUMPI JUMPDEST POP PUSH1 0x1 PUSH1 0x1 PUSH1 0xA0 SHL SUB AND DUP1 EXTCODESIZE ISZERO PUSH2 0x8E3 JUMPI PUSH1 0x40 MLOAD PUSH4 0x271AC579 PUSH1 0xE1 SHL DUP2 MSTORE PUSH1 0x1 PUSH1 0x1 PUSH1 0xA0 SHL SUB SWAP3 SWAP1 SWAP3 AND PUSH1 0x4 DUP4 ADD MSTORE PUSH1 0x24 DUP1 CALLDATALOAD SWAP1 DUP4 ADD MSTORE SWAP1 SWAP2 SWAP1 DUP2 SWAP1 DUP4 SWAP1 PUSH1 0x44 SWAP1 DUP3 SWAP1 DUP5 SWAP1 GAS CALL DUP1 ISZERO PUSH2 0xDAD JUMPI PUSH2 0xD9F JUMPI DUP1 RETURN JUMPDEST PUSH2 0xDA8 SWAP2 PUSH2 0xE5D JUMP JUMPDEST CODESIZE DUP2 DUP1 RETURN JUMPDEST POP PUSH1 0x40 MLOAD SWAP1 RETURNDATASIZE SWAP1 DUP3 RETURNDATACOPY RETURNDATASIZE SWAP1 REVERT JUMPDEST PUSH2 0xDD3 SWAP2 POP PUSH1 0x20 RETURNDATASIZE PUSH1 0x20 GT PUSH2 0x3B0 JUMPI PUSH2 0x3A2 DUP2 DUP4 PUSH2 0xE5D JUMP JUMPDEST CODESIZE PUSH2 0xD4B JUMP JUMPDEST SWAP1 POP CALLVALUE PUSH2 0x3CC JUMPI DUP2 PUSH1 0x3 NOT CALLDATASIZE ADD SLT PUSH2 0x3CC JUMPI DUP1 PUSH10 0xD3C21BCECCEDA1000000 PUSH1 0x20 SWAP3 MSTORE RETURN JUMPDEST PUSH1 0x4 CALLDATALOAD SWAP1 PUSH1 0x1 PUSH1 0x1 PUSH1 0xA0 SHL SUB DUP3 AND DUP3 SUB PUSH2 0xE13 JUMPI JUMP JUMPDEST PUSH1 0x0 DUP1 REVERT JUMPDEST ISZERO PUSH2 0xE1F JUMPI JUMP JUMPDEST PUSH1 0x40 MLOAD PUSH3 0x461BCD PUSH1 0xE5 SHL DUP2 MSTORE PUSH1 0x20 PUSH1 0x4 DUP3 ADD MSTORE PUSH1 0x16 PUSH1 0x24 DUP3 ADD MSTORE PUSH22 0x546F6B656E206E6F7420696E20646973636F76657279 PUSH1 0x50 SHL PUSH1 0x44 DUP3 ADD MSTORE PUSH1 0x64 SWAP1 REVERT JUMPDEST SWAP1 PUSH1 0x1F DUP1 NOT SWAP2 ADD AND DUP2 ADD SWAP1 DUP2 LT PUSH8 0xFFFFFFFFFFFFFFFF DUP3 GT OR PUSH2 0xE7F JUMPI PUSH1 0x40 MSTORE JUMP JUMPDEST PUSH4 0x4E487B71 PUSH1 0xE0 SHL PUSH1 0x0 MSTORE PUSH1 0x41 PUSH1 0x4 MSTORE PUSH1 0x24 PUSH1 0x0 REVERT JUMPDEST SWAP1 DUP2 PUSH1 0x20 SWAP2 SUB SLT PUSH2 0xE13 JUMPI MLOAD PUSH1 0x1 PUSH1 0x1 PUSH1 0xA0 SHL SUB DUP2 AND DUP2 SUB PUSH2 0xE13 JUMPI SWAP1 JUMP JUMPDEST PUSH1 0x40 MLOAD SWAP1 PUSH2 0xEC3 PUSH1 0x60 DUP4 PUSH2 0xE5D JUMP JUMPDEST PUSH1 0x22 DUP3 MSTORE PUSH2 0x726F PUSH1 0xF0 SHL PUSH1 0x40 DUP4 PUSH32 0x496E697469616C2073756273637269626572732063616E6E6F74206265207A65 PUSH1 0x20 DUP3 ADD MSTORE ADD MSTORE JUMP JUMPDEST ISZERO PUSH2 0xF02 JUMPI POP JUMP JUMPDEST PUSH1 0x40 MLOAD SWAP1 PUSH3 0x461BCD PUSH1 0xE5 SHL DUP3 MSTORE PUSH1 0x20 PUSH1 0x4 DUP4 ADD MSTORE DUP2 DUP2 MLOAD SWAP2 DUP3 PUSH1 0x24 DUP4 ADD MSTORE PUSH1 0x0 JUMPDEST DUP4 DUP2 LT PUSH2 0xF45 JUMPI POP POP DUP2 PUSH1 0x0 PUSH1 0x44 DUP1 SWAP5 DUP5 ADD ADD MSTORE PUSH1 0x1F DUP1 NOT SWAP2 ADD AND DUP2 ADD SUB ADD SWAP1 REVERT JUMPDEST PUSH1 0x20 DUP3 DUP3 ADD DUP2 ADD MLOAD PUSH1 0x44 DUP8 DUP5 ADD ADD MSTORE DUP6 SWAP4 POP ADD PUSH2 0xF23 JUMP JUMPDEST PUSH1 0x1 SLOAD PUSH1 0x40 MLOAD PUSH4 0x461A3A95 PUSH1 0xE0 SHL DUP2 MSTORE SWAP2 PUSH1 0x1 PUSH1 0x1 PUSH1 0xA0 SHL SUB SWAP1 SWAP2 AND SWAP1 PUSH1 0x20 DUP4 PUSH1 0x4 DUP2 DUP6 GAS STATICCALL SWAP3 DUP4 ISZERO PUSH2 0x109B JUMPI PUSH1 0x0 SWAP4 PUSH2 0x10CA JUMPI JUMPDEST POP PUSH1 0x1 PUSH1 0x1 PUSH1 0xA0 SHL SUB SWAP1 DUP2 AND SWAP3 AND DUP3 EQ PUSH2 0x10C6 JUMPI DUP2 PUSH1 0x0 MSTORE PUSH1 0x5 PUSH1 0x20 MSTORE PUSH1 0xFF PUSH1 0x40 PUSH1 0x0 KECCAK256 SLOAD AND PUSH2 0xFC0 JUMPI POP POP JUMP JUMPDEST PUSH1 0x20 PUSH1 0x4 SWAP2 PUSH1 0x40 MLOAD SWAP3 DUP4 DUP1 SWAP3 PUSH4 0x6704E87 PUSH1 0xE3 SHL DUP3 MSTORE GAS STATICCALL SWAP1 DUP2 ISZERO PUSH2 0x109B JUMPI PUSH1 0x0 SWAP2 PUSH2 0x10A7 JUMPI JUMPDEST POP PUSH1 0x40 MLOAD SWAP1 PUSH4 0x95EA7B3 PUSH1 0xE0 SHL DUP3 MSTORE PUSH1 0x1 DUP1 PUSH1 0xA0 SHL SUB AND PUSH1 0x4 DUP3 ADD MSTORE PUSH1 0x0 PUSH1 0x24 DUP3 ADD MSTORE PUSH1 0x20 DUP2 PUSH1 0x44 DUP2 PUSH1 0x0 DUP7 GAS CALL DUP1 ISZERO PUSH2 0x109B JUMPI PUSH2 0x1063 JUMPI JUMPDEST POP DUP1 PUSH1 0x0 MSTORE PUSH1 0x5 PUSH1 0x20 MSTORE PUSH1 0x40 PUSH1 0x0 KECCAK256 PUSH1 0xFF NOT DUP2 SLOAD AND SWAP1 SSTORE PUSH32 0x3E776E19FC0F05C1B8270744B61C5729D5D1A5D8DDED1BFB81E3979E257EDD59 PUSH1 0x20 PUSH1 0x40 MLOAD TIMESTAMP DUP2 MSTORE LOG2 JUMP JUMPDEST PUSH1 0x20 DUP2 RETURNDATASIZE PUSH1 0x20 GT PUSH2 0x1093 JUMPI JUMPDEST DUP2 PUSH2 0x107C PUSH1 0x20 SWAP4 DUP4 PUSH2 0xE5D JUMP JUMPDEST DUP2 ADD SUB SLT PUSH2 0xE13 JUMPI MLOAD DUP1 ISZERO ISZERO DUP2 EQ PUSH2 0x1020 JUMPI PUSH1 0x0 DUP1 REVERT JUMPDEST RETURNDATASIZE SWAP2 POP PUSH2 0x106F JUMP JUMPDEST PUSH1 0x40 MLOAD RETURNDATASIZE PUSH1 0x0 DUP3 RETURNDATACOPY RETURNDATASIZE SWAP1 REVERT JUMPDEST PUSH2 0x10C0 SWAP2 POP PUSH1 0x20 RETURNDATASIZE PUSH1 0x20 GT PUSH2 0x3B0 JUMPI PUSH2 0x3A2 DUP2 DUP4 PUSH2 0xE5D JUMP JUMPDEST CODESIZE PUSH2 0xFE7 JUMP JUMPDEST POP POP JUMP JUMPDEST PUSH2 0x10E4 SWAP2 SWAP4 POP PUSH1 0x20 RETURNDATASIZE PUSH1 0x20 GT PUSH2 0x3B0 JUMPI PUSH2 0x3A2 DUP2 DUP4 PUSH2 0xE5D JUMP JUMPDEST SWAP2 CODESIZE PUSH2 0xF92 JUMP JUMPDEST DUP1 ISZERO PUSH2 0x10FF PUSH2 0x10F8 PUSH2 0xEB4 JUMP JUMPDEST DUP3 ISZERO PUSH2 0xEFA JUMP JUMPDEST PUSH8 0xDE0B6B3A7640000 DUP3 MUL SWAP2 DUP3 DIV PUSH8 0xDE0B6B3A7640000 EQ OR ISZERO PUSH2 0x1120 JUMPI SWAP1 JUMP JUMPDEST PUSH4 0x4E487B71 PUSH1 0xE0 SHL PUSH1 0x0 MSTORE PUSH1 0x11 PUSH1 0x4 MSTORE PUSH1 0x24 PUSH1 0x0 REVERT JUMPDEST PUSH1 0x3 SLOAD PUSH1 0xFF DUP2 PUSH1 0xA0 SHR AND ISZERO SWAP1 DUP2 DUP1 ISZERO EQ PUSH2 0x10C6 JUMPI PUSH1 0xFF PUSH1 0xA0 SHL NOT AND PUSH1 0xA0 DUP3 SWAP1 SHL PUSH1 0xFF PUSH1 0xA0 SHL AND OR PUSH1 0x3 SSTORE TIMESTAMP PUSH1 0x7 DUP2 SWAP1 SSTORE PUSH1 0x40 MLOAD SWAP1 DUP2 MSTORE CALLER SWAP2 SWAP1 PUSH32 0xA965406DB9D595B01329ADB8152CE3B8BAC4B7BFB1E705308939FB0C4A88318C SWAP1 PUSH1 0x20 SWAP1 LOG3 JUMP JUMPDEST PUSH1 0x0 SLOAD PUSH1 0x1 PUSH1 0x1 PUSH1 0xA0 SHL SUB AND CALLER SUB PUSH2 0x11AB JUMPI JUMP JUMPDEST PUSH4 0x118CDAA7 PUSH1 0xE0 SHL PUSH1 0x0 MSTORE CALLER PUSH1 0x4 MSTORE PUSH1 0x24 PUSH1 0x0 REVERT INVALID LOG2 PUSH5 0x6970667358 0x22 SLT KECCAK256 XOR 0xF8 0xD 0xAD OR CODECOPY TSTORE 0xD5 SIGNEXTEND MSTORE8 0x23 SMOD 0xC1 0xA7 DUP9 0x4C SWAP2 0xB0 0xAC PUSH9 0x9D165D6E0DD0E60FB3 0xF6 0xAD SWAP13 PUSH5 0x736F6C6343 STOP ADDMOD SHR STOP CALLER "},"methodIdentifiers":{"APPROVAL_TIMEOUT()":"f3683428","MAX_INITIAL_LIQUIDITY()":"2ac84af9","MIN_INITIAL_LIQUIDITY()":"728780fa","calculateInitialLiquidity(uint256)":"8e3b58e2","completePriceDiscovery(address)":"fb99d5f4","creatorTokenFactory()":"88ed7512","dex()":"692058c2","getPauseState()":"9a44f1fb","hasOpenApproval(address)":"700d53a7","inPriceDiscovery(address)":"c6a55cbb","lastApprovalTimestamp()":"89312c35","lastPauseChange()":"8f8f54b3","listNewCreatorToken(address)":"9c3ba48b","listedTokens(address)":"7093f47f","onTokenMinted(address,uint256)":"3f80aace","owner()":"8da5cb5b","paused()":"5c975abb","renounceOwnership()":"715018a6","revokeApproval(address)":"484685b0","togglePause()":"c4ae3168","transferOwnership(address)":"f2fde38b","updateAIRebalance(address,uint256)":"6cbb3486","updateEngagementMetrics(address,uint256)":"3417c3d0"}},"storageLayout":{"storage":[{"astId":387,"contract":"contracts/SaraTokenRouter.sol:SaraTokenRouter","label":"_owner","offset":0,"slot":"0","type":"t_address"},{"astId":4435,"contract":"contracts/SaraTokenRouter.sol:SaraTokenRouter","label":"dex","offset":0,"slot":"1","type":"t_contract(SaraDEX)2302"},{"astId":4439,"contract":"contracts/SaraTokenRouter.sol:SaraTokenRouter","label":"listedTokens","offset":0,"slot":"2","type":"t_mapping(t_address,t_bool)"},{"astId":4442,"contract":"contracts/SaraTokenRouter.sol:SaraTokenRouter","label":"creatorTokenFactory","offset":0,"slot":"3","type":"t_contract(ICreatorCoin)4426"},{"astId":4444,"contract":"contracts/SaraTokenRouter.sol:SaraTokenRouter","label":"paused","offset":20,"slot":"3","type":"t_bool"},{"astId":4458,"contract":"contracts/SaraTokenRouter.sol:SaraTokenRouter","label":"inPriceDiscovery","offset":0,"slot":"4","type":"t_mapping(t_address,t_bool)"},{"astId":4468,"contract":"contracts/SaraTokenRouter.sol:SaraTokenRouter","label":"hasOpenApproval","offset":0,"slot":"5","type":"t_mapping(t_address,t_bool)"},{"astId":4473,"contract":"contracts/SaraTokenRouter.sol:SaraTokenRouter","label":"lastApprovalTimestamp","offset":0,"slot":"6","type":"t_uint256"},{"astId":4475,"contract":"contracts/SaraTokenRouter.sol:SaraTokenRouter","label":"lastPauseChange","offset":0,"slot":"7","type":"t_uint256"}],"types":{"t_address":{"encoding":"inplace","label":"address","numberOfBytes":"20"},"t_bool":{"encoding":"inplace","label":"bool","numberOfBytes":"1"},"t_contract(ICreatorCoin)4426":{"encoding":"inplace","label":"contract ICreatorCoin","numberOfBytes":"20"},"t_contract(SaraDEX)2302":{"encoding":"inplace","label":"contract SaraDEX","numberOfBytes":"20"},"t_mapping(t_address,t_bool)":{"encoding":"mapping","key":"t_address","label":"mapping(address => bool)","numberOfBytes":"32","value":"t_bool"},"t_uint256":{"encoding":"inplace","label":"uint256","numberOfBytes":"32"}}}}}}