{"contracts/SaraDEX.sol":{"SaraDEX":{"abi":[{"inputs":[{"internalType":"address","name":"_sonicToken","type":"address"},{"internalType":"address payable","name":"_liquidityManager","type":"address"}],"stateMutability":"nonpayable","type":"constructor"},{"inputs":[{"internalType":"address","name":"owner","type":"address"}],"name":"OwnableInvalidOwner","type":"error"},{"inputs":[{"internalType":"address","name":"account","type":"address"}],"name":"OwnableUnauthorizedAccount","type":"error"},{"inputs":[{"internalType":"address","name":"token","type":"address"}],"name":"SafeERC20FailedOperation","type":"error"},{"anonymous":false,"inputs":[{"indexed":false,"internalType":"uint256","name":"oldThreshold","type":"uint256"},{"indexed":false,"internalType":"uint256","name":"newThreshold","type":"uint256"},{"indexed":true,"internalType":"address","name":"updatedBy","type":"address"}],"name":"AutoRedeployThresholdUpdated","type":"event"},{"anonymous":false,"inputs":[{"indexed":true,"internalType":"address","name":"by","type":"address"},{"indexed":false,"internalType":"uint256","name":"timestamp","type":"uint256"}],"name":"ContractPaused","type":"event"},{"anonymous":false,"inputs":[{"indexed":true,"internalType":"address","name":"by","type":"address"},{"indexed":false,"internalType":"uint256","name":"timestamp","type":"uint256"}],"name":"ContractUnpaused","type":"event"},{"anonymous":false,"inputs":[{"indexed":true,"internalType":"address","name":"token","type":"address"},{"indexed":false,"internalType":"uint256","name":"amount","type":"uint256"},{"indexed":true,"internalType":"address","name":"to","type":"address"},{"indexed":false,"internalType":"uint256","name":"timestamp","type":"uint256"}],"name":"EmergencyWithdraw","type":"event"},{"anonymous":false,"inputs":[{"indexed":true,"internalType":"address","name":"token","type":"address"},{"indexed":false,"internalType":"uint256","name":"amount","type":"uint256"}],"name":"FeesWithdrawn","type":"event"},{"anonymous":false,"inputs":[{"indexed":true,"internalType":"address","name":"oldManager","type":"address"},{"indexed":true,"internalType":"address","name":"newManager","type":"address"},{"indexed":true,"internalType":"address","name":"updatedBy","type":"address"}],"name":"LiquidityManagerUpdated","type":"event"},{"anonymous":false,"inputs":[{"indexed":false,"internalType":"uint256","name":"oldSlippage","type":"uint256"},{"indexed":false,"internalType":"uint256","name":"newSlippage","type":"uint256"},{"indexed":true,"internalType":"address","name":"updater","type":"address"}],"name":"MaxSlippageUpdated","type":"event"},{"anonymous":false,"inputs":[{"indexed":true,"internalType":"address","name":"previousOwner","type":"address"},{"indexed":true,"internalType":"address","name":"newOwner","type":"address"}],"name":"OwnershipTransferred","type":"event"},{"anonymous":false,"inputs":[{"indexed":false,"internalType":"uint256","name":"oldSlippage","type":"uint256"},{"indexed":false,"internalType":"uint256","name":"newSlippage","type":"uint256"},{"indexed":true,"internalType":"address","name":"updatedBy","type":"address"}],"name":"SlippageUpdated","type":"event"},{"anonymous":false,"inputs":[{"indexed":true,"internalType":"address","name":"user","type":"address"},{"indexed":true,"internalType":"address","name":"creatorToken","type":"address"},{"indexed":false,"internalType":"uint256","name":"amountIn","type":"uint256"},{"indexed":false,"internalType":"uint256","name":"amountOut","type":"uint256"},{"indexed":false,"internalType":"uint256","name":"fee","type":"uint256"}],"name":"SwapExecuted","type":"event"},{"anonymous":false,"inputs":[{"indexed":false,"internalType":"uint256","name":"oldFee","type":"uint256"},{"indexed":false,"internalType":"uint256","name":"newFee","type":"uint256"},{"indexed":true,"internalType":"address","name":"updatedBy","type":"address"}],"name":"SwapFeesUpdated","type":"event"},{"inputs":[],"name":"ABSOLUTE_MAX_SLIPPAGE","outputs":[{"internalType":"uint256","name":"","type":"uint256"}],"stateMutability":"view","type":"function"},{"inputs":[],"name":"AUTO_REDEPLOY_THRESHOLD","outputs":[{"internalType":"uint256","name":"","type":"uint256"}],"stateMutability":"view","type":"function"},{"inputs":[],"name":"DEFAULT_MAX_SLIPPAGE","outputs":[{"internalType":"uint256","name":"","type":"uint256"}],"stateMutability":"view","type":"function"},{"inputs":[],"name":"MAXIMUM_ALLOWED_SLIPPAGE","outputs":[{"internalType":"uint256","name":"","type":"uint256"}],"stateMutability":"view","type":"function"},{"inputs":[],"name":"MAX_SINGLE_SWAP","outputs":[{"internalType":"uint256","name":"","type":"uint256"}],"stateMutability":"view","type":"function"},{"inputs":[],"name":"MAX_SWAP_AMOUNT_PERCENT","outputs":[{"internalType":"uint256","name":"","type":"uint256"}],"stateMutability":"view","type":"function"},{"inputs":[],"name":"MIN_LIQUIDITY","outputs":[{"internalType":"uint256","name":"","type":"uint256"}],"stateMutability":"view","type":"function"},{"inputs":[],"name":"MIN_TIME_BETWEEN_SWAPS","outputs":[{"internalType":"uint256","name":"","type":"uint256"}],"stateMutability":"view","type":"function"},{"inputs":[{"internalType":"address","name":"token","type":"address"},{"internalType":"uint256","name":"amount","type":"uint256"},{"internalType":"address payable","name":"to","type":"address"}],"name":"emergencyWithdraw","outputs":[],"stateMutability":"nonpayable","type":"function"},{"inputs":[{"internalType":"uint256","name":"amountIn","type":"uint256"},{"internalType":"uint256","name":"reserveIn","type":"uint256"},{"internalType":"uint256","name":"reserveOut","type":"uint256"}],"name":"getAmountOut","outputs":[{"internalType":"uint256","name":"","type":"uint256"}],"stateMutability":"pure","type":"function"},{"inputs":[],"name":"getFeeRate","outputs":[{"internalType":"uint256","name":"feeNumerator","type":"uint256"},{"internalType":"uint256","name":"feeDenominator","type":"uint256"},{"internalType":"string","name":"description","type":"string"}],"stateMutability":"pure","type":"function"},{"inputs":[],"name":"getPauseStatus","outputs":[{"internalType":"bool","name":"isPaused","type":"bool"},{"internalType":"uint256","name":"pauseDuration","type":"uint256"},{"internalType":"uint256","name":"lastPause","type":"uint256"}],"stateMutability":"view","type":"function"},{"inputs":[],"name":"getSlippageSettings","outputs":[{"internalType":"uint256","name":"defaultSlippage","type":"uint256"},{"internalType":"uint256","name":"currentMaxSlippage","type":"uint256"},{"internalType":"uint256","name":"absoluteMaximum","type":"uint256"}],"stateMutability":"view","type":"function"},{"inputs":[],"name":"lastPauseTimestamp","outputs":[{"internalType":"uint256","name":"","type":"uint256"}],"stateMutability":"view","type":"function"},{"inputs":[{"internalType":"address","name":"","type":"address"}],"name":"lastSwapTimestamp","outputs":[{"internalType":"uint256","name":"","type":"uint256"}],"stateMutability":"view","type":"function"},{"inputs":[],"name":"liquidityManager","outputs":[{"internalType":"contract SaraLiquidityManager","name":"","type":"address"}],"stateMutability":"view","type":"function"},{"inputs":[],"name":"owner","outputs":[{"internalType":"address","name":"","type":"address"}],"stateMutability":"view","type":"function"},{"inputs":[],"name":"pause","outputs":[],"stateMutability":"nonpayable","type":"function"},{"inputs":[],"name":"paused","outputs":[{"internalType":"bool","name":"","type":"bool"}],"stateMutability":"view","type":"function"},{"inputs":[],"name":"renounceOwnership","outputs":[],"stateMutability":"nonpayable","type":"function"},{"inputs":[],"name":"sonicToken","outputs":[{"internalType":"address","name":"","type":"address"}],"stateMutability":"view","type":"function"},{"inputs":[{"internalType":"address","name":"","type":"address"}],"name":"storedFees","outputs":[{"internalType":"uint256","name":"","type":"uint256"}],"stateMutability":"view","type":"function"},{"inputs":[{"internalType":"address","name":"creatorToken","type":"address"},{"internalType":"uint256","name":"amountIn","type":"uint256"},{"internalType":"uint256","name":"minAmountOut","type":"uint256"},{"internalType":"uint256","name":"maxSlippage","type":"uint256"}],"name":"swapCreatorTokenForS","outputs":[],"stateMutability":"payable","type":"function"},{"inputs":[],"name":"swapFee","outputs":[{"internalType":"uint256","name":"","type":"uint256"}],"stateMutability":"view","type":"function"},{"inputs":[{"internalType":"address","name":"newOwner","type":"address"}],"name":"transferOwnership","outputs":[],"stateMutability":"nonpayable","type":"function"},{"inputs":[],"name":"unpause","outputs":[],"stateMutability":"nonpayable","type":"function"},{"inputs":[{"internalType":"uint256","name":"newThreshold","type":"uint256"}],"name":"updateAutoRedeployThreshold","outputs":[],"stateMutability":"nonpayable","type":"function"},{"inputs":[{"internalType":"address payable","name":"newManager","type":"address"}],"name":"updateLiquidityManager","outputs":[],"stateMutability":"nonpayable","type":"function"},{"inputs":[{"internalType":"uint256","name":"newMaxSlippage","type":"uint256"}],"name":"updateMaxSlippage","outputs":[],"stateMutability":"nonpayable","type":"function"},{"inputs":[{"internalType":"uint256","name":"newFee","type":"uint256"}],"name":"updateSwapFee","outputs":[],"stateMutability":"nonpayable","type":"function"},{"inputs":[{"internalType":"uint256","name":"slippage","type":"uint256"}],"name":"validateSlippage","outputs":[{"internalType":"bool","name":"","type":"bool"},{"internalType":"string","name":"","type":"string"}],"stateMutability":"view","type":"function"},{"inputs":[{"internalType":"address","name":"token","type":"address"},{"internalType":"uint256","name":"amount","type":"uint256"}],"name":"withdrawStoredFees","outputs":[],"stateMutability":"nonpayable","type":"function"},{"stateMutability":"payable","type":"receive"}],"evm":{"bytecode":{"linkReferences":{},"object":"60a03461013c57601f611c8f38819003918201601f19168301916001600160401b0383118484101761014157808492604094855283398101031261013c5780516001600160a01b038116919082900361013c57602001516001600160a01b0381169081900361013c5733156101265760008054336001600160a01b0319821681178355604051949290916001600160a01b0316907f8be0079c531659141344cd1fd0a4f28419497f9722a3daafe3b4186f6b6457e09080a3601e600355683635c9adc5dea000006006556101f46080526103e860075560018060a01b0319600154161760015560018060a01b03196002541617600255611b37908161015882396080518181816101cb01528181610362015281816104d00152818161133d01526119340152f35b631e4fbdf760e01b600052600060045260246000fd5b600080fd5b634e487b7160e01b600052604160045260246000fdfe608080604052600436101561001d575b50361561001b57600080fd5b005b60003560e01c90816302e9d3e814610d3457508063054d50d414610d08578063074872c914610c5c57806311a9992e14610c40578063125c120414610c0657806313079df514610b055780631d9023cb14610ab9578063206f248d146109fd57806321b77d63146106b357806333827438146109d45780633f4ba83a14610948578063461a3a951461091f57806354cf2aeb14610901578063551512de146106db5780635c975abb146106b85780636604b53a146106b35780636611cb3614610646578063715018a6146105ed5780638456cb591461055657806384e5eed0146104f357806385015e09146104b85780638ac058cc1461049b5780638da5cb5b1461047257806390cd3694146104545780639a5901de14610436578063bf16f65a14610392578063c54e1d3814610346578063d855dc7e1461032a578063e7b0444c1461030c578063f2c75fa0146102cd578063f2fde38b146102445763f896acc71461018a573861000f565b3461023f57602036600319011261023f576004356101a66119c8565b600754906101be6101b5611884565b83831415611998565b6101f26101c96118bf565b7f0000000000000000000000000000000000000000000000000000000000000000831015611998565b6102086101fd6118fa565b6107d0831115611998565b8060075560405191825260208201527fc2590c5cad7b84e9fae727e107e2bb810de8248ada2afbc3d638140e187c004060403392a2005b600080fd5b3461023f57602036600319011261023f5761025d610d6a565b6102656119c8565b6001600160a01b031680156102b757600080546001600160a01b03198116831782556001600160a01b0316907f8be0079c531659141344cd1fd0a4f28419497f9722a3daafe3b4186f6b6457e09080a3005b631e4fbdf760e01b600052600060045260246000fd5b3461023f57602036600319011261023f576102e9600435611929565b9061030860405192839215158352604060208401526040830190610da4565b0390f35b3461023f57600036600319011261023f576020600754604051908152f35b3461023f57600036600319011261023f57602060405160058152f35b3461023f57600036600319011261023f576060600754604051907f0000000000000000000000000000000000000000000000000000000000000000825260208201526107d06040820152f35b3461023f57602036600319011261023f576004356103ae6119c8565b8015158061042a575b156103f757600354908060035560405191825260208201527f3b70f7ec6235fb8b9f4b0a4bf6fec9a5f46a7afc052d86ab34a8b9474bde94a160403392a2005b60405162461bcd60e51b815260206004820152600b60248201526a496e76616c69642066656560a81b6044820152606490fd5b506101f48111156103b7565b3461023f57600036600319011261023f576020600954604051908152f35b3461023f57600036600319011261023f576020600654604051908152f35b3461023f57600036600319011261023f576000546040516001600160a01b039091168152602090f35b3461023f57600036600319011261023f5760206040516107d08152f35b3461023f57600036600319011261023f5760206040517f00000000000000000000000000000000000000000000000000000000000000008152f35b3461023f57600036600319011261023f576060604061030881516105178382610f37565b6014815273302e32352520666565202832352f31303030302960601b602082015282519384936019855261271060208601528401526060830190610da4565b3461023f57600036600319011261023f5761056f6119c8565b60085460ff81166105b75760019060ff191617600855426009556040514281527f80170b5fcdd2bf1e0660ef4b8851f86685f64d41b1a19de1471947ece8725aac60203392a2005b60405162461bcd60e51b815260206004820152600e60248201526d105b1c9958591e481c185d5cd95960921b6044820152606490fd5b3461023f57600036600319011261023f576106066119c8565b600080546001600160a01b0319811682556001600160a01b03167f8be0079c531659141344cd1fd0a4f28419497f9722a3daafe3b4186f6b6457e08280a3005b608036600319011261023f5761065a610d6a565b60ff600854166106795761001b906064359060443590602435906110e2565b60405162461bcd60e51b815260206004820152601260248201527110dbdb9d1c9858dd081a5cc81c185d5cd95960721b6044820152606490fd5b610d80565b3461023f57600036600319011261023f57602060ff600854166040519015158152f35b3461023f57606036600319011261023f576106f4610d6a565b6044356001600160a01b038116916024359183900361023f576107156119c8565b60ff60085416156108c657821561088d5761072f816119f1565b156107965760407fbbae553982d541d38dacb1ea468ac757f324d0e279b6e4a2958f9e894da575ff9161076484471015610ffb565b61077e6000808080888a5af1610778610f6f565b50610faf565b81519384524260208501526001600160a01b031692a3005b6040516370a0823160e01b81523060048201526001600160a01b03821690602081602481855afa801561088157849160009161084c575b5010610807577fbbae553982d541d38dacb1ea468ac757f324d0e279b6e4a2958f9e894da575ff916108028486604094611a22565b61077e565b60405162461bcd60e51b815260206004820152601a60248201527f496e73756666696369656e7420746f6b656e2062616c616e63650000000000006044820152606490fd5b9150506020813d602011610879575b8161086860209383610f37565b8101031261023f57839051866107cd565b3d915061085b565b6040513d6000823e3d90fd5b60405162461bcd60e51b8152602060048201526011602482015270125b9d985b1a59081c9958da5c1a595b9d607a1b6044820152606490fd5b60405162461bcd60e51b815260206004820152601360248201527210dbdb9d1c9858dd081b9bdd081c185d5cd959606a1b6044820152606490fd5b3461023f57600036600319011261023f576020600354604051908152f35b3461023f57600036600319011261023f576001546040516001600160a01b039091168152602090f35b3461023f57600036600319011261023f576109616119c8565b60085460ff8116156109a25760ff19166008556040514281527f107553d8191d85b405879cf752997865edd48d94e20bda4dd27223c94b31a7cc60203392a2005b60405162461bcd60e51b815260206004820152600a602482015269139bdd081c185d5cd95960b21b6044820152606490fd5b3461023f57600036600319011261023f576002546040516001600160a01b039091168152602090f35b3461023f57602036600319011261023f57610a16610d6a565b610a1e6119c8565b6001600160a01b03168015610a7457600280546001600160a01b0319811683179091553391906001600160a01b03167fe7448546463da3f04e4f62d61edd1c362ac53d025bb9a341955227b25f1899f7600080a4005b60405162461bcd60e51b815260206004820152601760248201527f496e76616c6964206d616e6167657220616464726573730000000000000000006044820152606490fd5b3461023f57600036600319011261023f57606060ff6008541680600014610afe57610ae660095442610f2a565b60095490604051921515835260208301526040820152f35b6000610ae6565b3461023f57604036600319011261023f57610b1e610d6a565b602435610b296119c8565b60018060a01b038216918260005260056020528160406000205410610bc1577fc0819c13be868895eb93e40eaceb96de976442fa1d404e5c55f14bb65a8c489a91610b8f60209285600052600584526040600020610b88848254610f2a565b90556119f1565b15610bb157610ba8600080808085335af1610778610f6f565b604051908152a2005b610bbc813386611a22565b610ba8565b60405162461bcd60e51b815260206004820152601860248201527f496e73756666696369656e742073746f726564206665657300000000000000006044820152606490fd5b3461023f57602036600319011261023f576001600160a01b03610c27610d6a565b1660005260056020526020604060002054604051908152f35b3461023f57600036600319011261023f576020604051603c8152f35b3461023f57602036600319011261023f57600435610c786119c8565b683635c9adc5dea000008110610cc357600654908060065560405191825260208201527f77a6f4bf7cf4544531633fc1c2a3e8d2c53ad36fe80a723e124caec563a3335860403392a2005b60405162461bcd60e51b815260206004820152601760248201527f42656c6f77206d696e696d756d206c69717569646974790000000000000000006044820152606490fd5b3461023f57606036600319011261023f576020610d2c604435602435600435610e1b565b604051908152f35b3461023f57602036600319011261023f576020906001600160a01b03610d58610d6a565b16600052600482526040600020548152f35b600435906001600160a01b038216820361023f57565b3461023f57600036600319011261023f576020604051683635c9adc5dea000008152f35b919082519283825260005b848110610dd0575050826000602080949584010152601f8019910116010190565b80602080928401015182828601015201610daf565b81810292918115918404141715610df857565b634e487b7160e01b600052601160045260246000fd5b91908201809211610df857565b8015610eee57811592831580610ee5575b15610ead576126f782029182046126f703610df857610e4b9082610de5565b926127108302928304612710141715610df857610e6791610e0e565b908115610e72570490565b60405162461bcd60e51b815260206004820152601360248201527224b73b30b634b21031b0b631bab630ba34b7b760691b6044820152606490fd5b60405162461bcd60e51b815260206004820152601060248201526f496e76616c696420726573657276657360801b6044820152606490fd5b50801515610e2c565b60405162461bcd60e51b8152602060048201526014602482015273125b9d985b1a59081a5b9c1d5d08185b5bdd5b9d60621b6044820152606490fd5b91908203918211610df857565b90601f8019910116810190811067ffffffffffffffff821117610f5957604052565b634e487b7160e01b600052604160045260246000fd5b3d15610faa573d9067ffffffffffffffff8211610f595760405191610f9e601f8201601f191660200184610f37565b82523d6000602084013e565b606090565b15610fb657565b60405162461bcd60e51b815260206004820152601760248201527f5320746f6b656e207472616e73666572206661696c65640000000000000000006044820152606490fd5b1561100257565b60405162461bcd60e51b8152602060048201526016602482015275496e73756666696369656e7420532062616c616e636560501b6044820152606490fd5b919082604091031261023f576020825192015190565b1561105d57565b60405162461bcd60e51b815260206004820152601e60248201527f496e73756666696369656e74206c697175696469747920696e20706f6f6c00006044820152606490fd5b156110a957565b60405162461bcd60e51b81526020600482015260116024820152700a6d8d2e0e0c2ceca40e8dede40d0d2ced607b1b6044820152606490fd5b929091336000526004602052604060002054603c8101809111610df857421061184e5760025460408051630fa6707960e21b81526001600160a01b039687166004820181905296909283916024918391165afa801561088157600091829161182d575b5061115282861115611056565b80156117f1576005820282810460051483151715610df8576064900485116117bb578415611785576040516370a0823160e01b81523360048201526020816024818a5afa8015610881578691600091611750575b5010611714576111b69185610e1b565b906111c3818310156110a2565b6111dd6127106111d560035485610de5565b048093610f2a565b92683635c9adc5dea0000085116113305750506111fc83303387611a62565b60018060a01b03600154166000526005602052604060002061121f828254610e0e565b90556001546001600160a01b031660008181526005602052604090205460065491939111156112b7575b7f28c738dbec11a1bed94ba127a3712d54bcd39cf4ae95b6ebd671aaf10fd0287b9250611280600080808085335af1610778610f6f565b336000526004602052426040600020556112b26040519283923396846040919493926060820195825260208201520152565b0390a3565b6002546001600160a01b031692833b1561023f5760009360248592604051968793849263bc99f48760e01b845260048401525af1928315610881577f28c738dbec11a1bed94ba127a3712d54bcd39cf4ae95b6ebd671aaf10fd0287b9361131f575b50611249565b600061132a91610f37565b38611319565b93959490936000935091507f0000000000000000000000000000000000000000000000000000000000000000865b6113745750505061137292935010156110a2565b565b909192683635c9adc5dea00000871160001461170e57683635c9adc5dea000005b6113a36007548611156110a2565b841561170857845b8381106116d057604051636eb1769f60e11b8152336004820152306024820152602081604481895afa8015610881578391600091611699575b50106116485760025460408051630fa6707960e21b81526004810188905291829060249082906001600160a01b03165afa8015610881576000918291611618575b5061143282851115611056565b838111156115d35761271061145661144f61145d938a9588610e1b565b9485610de5565b0483610f2a565b9161147c6114736127106111d560035485610de5565b938410156110a2565b61148883471015610ffb565b61149484303385611a62565b6114a8600080808087335af1610778610f6f565b60018060a01b0360015416600052600560205260406000206114cb828254610e0e565b90556001546001600160a01b03166000818152600560205260409020546006541115611568575b5093611558929161155e95336000526004602052426040600020557f28c738dbec11a1bed94ba127a3712d54bcd39cf4ae95b6ebd671aaf10fd0287b604051806115503394888b846040919493926060820195825260208201520152565b0390a3610e0e565b97610f2a565b959291908661135e565b60025491956001600160a01b03909216939250833b1561023f5760009360248592604051968793849263bc99f48760e01b845260048401525af180156108815761155e956115589489926115c2575b5091955091926114f2565b60006115cd91610f37565b386115b7565b60405162461bcd60e51b815260206004820152601e60248201527f496e73756666696369656e74205320746f6b656e206c697175696469747900006044820152606490fd5b905061163b915060403d8111611641575b6116338183610f37565b810190611040565b38611425565b503d611629565b60405162461bcd60e51b8152602060048201526024808201527f496e73756666696369656e742063726561746f7220746f6b656e20616c6c6f77604482015263616e636560e01b6064820152608490fd5b91506020823d82116116c8575b816116b360209383610f37565b810103126116c55750829051386113e4565b80fd5b3d91506116a6565b60405162461bcd60e51b815260206004820152601060248201526f496e76616c696420736c69707061676560801b6044820152606490fd5b826113ab565b86611395565b60405162461bcd60e51b8152602060048201526014602482015273496e73756666696369656e742062616c616e636560601b6044820152606490fd5b9150506020813d60201161177d575b8161176c60209383610f37565b8101031261023f57859051386111a6565b3d915061175f565b60405162461bcd60e51b815260206004820152600e60248201526d125b9d985b1a5908185b5bdd5b9d60921b6044820152606490fd5b60405162461bcd60e51b815260206004820152600e60248201526d5377617020746f6f206c6172676560901b6044820152606490fd5b60405162461bcd60e51b81526020600482015260146024820152734e6f205320746f6b656e206c697175696469747960601b6044820152606490fd5b9050611848915060403d604011611641576116338183610f37565b38611145565b60405162461bcd60e51b815260206004820152600e60248201526d546f6f206d616e7920737761707360901b6044820152606490fd5b60405190611893604083610f37565b601c82527f4e657720736c6970706167652073616d652061732063757272656e74000000006020830152565b604051906118ce604083610f37565b601c82527f43616e6e6f74206265206c6f776572207468616e2064656661756c74000000006020830152565b60405190611909604083610f37565b601182527043616e6e6f74206578636565642032302560781b6020830152565b600754811461198f577f00000000000000000000000000000000000000000000000000000000000000008110611986576107d01061197957600190604051611972602082610f37565b6000815290565b6119816118fa565b600091565b506119816118bf565b50611981611884565b156119a05750565b60405162461bcd60e51b8152602060048201529081906119c4906024830190610da4565b0390fd5b6000546001600160a01b031633036119dc57565b63118cdaa760e01b6000523360045260246000fd5b6001600160a01b03168015908115611a07575090565b73eeeeeeeeeeeeeeeeeeeeeeeeeeeeeeeeeeeeeeee91501490565b60405163a9059cbb60e01b60208201526001600160a01b03909216602483015260448083019390935291815261137291611a5d606483610f37565b611aa6565b6040516323b872dd60e01b60208201526001600160a01b03928316602482015292909116604483015260648083019390935291815261137291611a5d608483610f37565b906000602091828151910182855af115610881576000513d611af857506001600160a01b0381163b155b611ad75750565b635274afe760e01b60009081526001600160a01b0391909116600452602490fd5b60011415611ad056fea264697066735822122076687da6740d8d7eb7f412f79f4015426af1a02ca243ffc70744408b1961ef3e64736f6c634300081c0033","opcodes":"PUSH1 0xA0 CALLVALUE PUSH2 0x13C JUMPI PUSH1 0x1F PUSH2 0x1C8F CODESIZE DUP2 SWAP1 SUB SWAP2 DUP3 ADD PUSH1 0x1F NOT AND DUP4 ADD SWAP2 PUSH1 0x1 PUSH1 0x1 PUSH1 0x40 SHL SUB DUP4 GT DUP5 DUP5 LT OR PUSH2 0x141 JUMPI DUP1 DUP5 SWAP3 PUSH1 0x40 SWAP5 DUP6 MSTORE DUP4 CODECOPY DUP2 ADD SUB SLT PUSH2 0x13C JUMPI DUP1 MLOAD PUSH1 0x1 PUSH1 0x1 PUSH1 0xA0 SHL SUB DUP2 AND SWAP2 SWAP1 DUP3 SWAP1 SUB PUSH2 0x13C JUMPI PUSH1 0x20 ADD MLOAD PUSH1 0x1 PUSH1 0x1 PUSH1 0xA0 SHL SUB DUP2 AND SWAP1 DUP2 SWAP1 SUB PUSH2 0x13C JUMPI CALLER ISZERO PUSH2 0x126 JUMPI PUSH1 0x0 DUP1 SLOAD CALLER PUSH1 0x1 PUSH1 0x1 PUSH1 0xA0 SHL SUB NOT DUP3 AND DUP2 OR DUP4 SSTORE PUSH1 0x40 MLOAD SWAP5 SWAP3 SWAP1 SWAP2 PUSH1 0x1 PUSH1 0x1 PUSH1 0xA0 SHL SUB AND SWAP1 PUSH32 0x8BE0079C531659141344CD1FD0A4F28419497F9722A3DAAFE3B4186F6B6457E0 SWAP1 DUP1 LOG3 PUSH1 0x1E PUSH1 0x3 SSTORE PUSH9 0x3635C9ADC5DEA00000 PUSH1 0x6 SSTORE PUSH2 0x1F4 PUSH1 0x80 MSTORE PUSH2 0x3E8 PUSH1 0x7 SSTORE PUSH1 0x1 DUP1 PUSH1 0xA0 SHL SUB NOT PUSH1 0x1 SLOAD AND OR PUSH1 0x1 SSTORE PUSH1 0x1 DUP1 PUSH1 0xA0 SHL SUB NOT PUSH1 0x2 SLOAD AND OR PUSH1 0x2 SSTORE PUSH2 0x1B37 SWAP1 DUP2 PUSH2 0x158 DUP3 CODECOPY PUSH1 0x80 MLOAD DUP2 DUP2 DUP2 PUSH2 0x1CB ADD MSTORE DUP2 DUP2 PUSH2 0x362 ADD MSTORE DUP2 DUP2 PUSH2 0x4D0 ADD MSTORE DUP2 DUP2 PUSH2 0x133D ADD MSTORE PUSH2 0x1934 ADD MSTORE RETURN JUMPDEST PUSH4 0x1E4FBDF7 PUSH1 0xE0 SHL PUSH1 0x0 MSTORE PUSH1 0x0 PUSH1 0x4 MSTORE PUSH1 0x24 PUSH1 0x0 REVERT JUMPDEST PUSH1 0x0 DUP1 REVERT JUMPDEST PUSH4 0x4E487B71 PUSH1 0xE0 SHL PUSH1 0x0 MSTORE PUSH1 0x41 PUSH1 0x4 MSTORE PUSH1 0x24 PUSH1 0x0 REVERT INVALID PUSH1 0x80 DUP1 PUSH1 0x40 MSTORE PUSH1 0x4 CALLDATASIZE LT ISZERO PUSH2 0x1D JUMPI JUMPDEST POP CALLDATASIZE ISZERO PUSH2 0x1B JUMPI PUSH1 0x0 DUP1 REVERT JUMPDEST STOP JUMPDEST PUSH1 0x0 CALLDATALOAD PUSH1 0xE0 SHR SWAP1 DUP2 PUSH4 0x2E9D3E8 EQ PUSH2 0xD34 JUMPI POP DUP1 PUSH4 0x54D50D4 EQ PUSH2 0xD08 JUMPI DUP1 PUSH4 0x74872C9 EQ PUSH2 0xC5C JUMPI DUP1 PUSH4 0x11A9992E EQ PUSH2 0xC40 JUMPI DUP1 PUSH4 0x125C1204 EQ PUSH2 0xC06 JUMPI DUP1 PUSH4 0x13079DF5 EQ PUSH2 0xB05 JUMPI DUP1 PUSH4 0x1D9023CB EQ PUSH2 0xAB9 JUMPI DUP1 PUSH4 0x206F248D EQ PUSH2 0x9FD JUMPI DUP1 PUSH4 0x21B77D63 EQ PUSH2 0x6B3 JUMPI DUP1 PUSH4 0x33827438 EQ PUSH2 0x9D4 JUMPI DUP1 PUSH4 0x3F4BA83A EQ PUSH2 0x948 JUMPI DUP1 PUSH4 0x461A3A95 EQ PUSH2 0x91F JUMPI DUP1 PUSH4 0x54CF2AEB EQ PUSH2 0x901 JUMPI DUP1 PUSH4 0x551512DE EQ PUSH2 0x6DB JUMPI DUP1 PUSH4 0x5C975ABB EQ PUSH2 0x6B8 JUMPI DUP1 PUSH4 0x6604B53A EQ PUSH2 0x6B3 JUMPI DUP1 PUSH4 0x6611CB36 EQ PUSH2 0x646 JUMPI DUP1 PUSH4 0x715018A6 EQ PUSH2 0x5ED JUMPI DUP1 PUSH4 0x8456CB59 EQ PUSH2 0x556 JUMPI DUP1 PUSH4 0x84E5EED0 EQ PUSH2 0x4F3 JUMPI DUP1 PUSH4 0x85015E09 EQ PUSH2 0x4B8 JUMPI DUP1 PUSH4 0x8AC058CC EQ PUSH2 0x49B JUMPI DUP1 PUSH4 0x8DA5CB5B EQ PUSH2 0x472 JUMPI DUP1 PUSH4 0x90CD3694 EQ PUSH2 0x454 JUMPI DUP1 PUSH4 0x9A5901DE EQ PUSH2 0x436 JUMPI DUP1 PUSH4 0xBF16F65A EQ PUSH2 0x392 JUMPI DUP1 PUSH4 0xC54E1D38 EQ PUSH2 0x346 JUMPI DUP1 PUSH4 0xD855DC7E EQ PUSH2 0x32A JUMPI DUP1 PUSH4 0xE7B0444C EQ PUSH2 0x30C JUMPI DUP1 PUSH4 0xF2C75FA0 EQ PUSH2 0x2CD JUMPI DUP1 PUSH4 0xF2FDE38B EQ PUSH2 0x244 JUMPI PUSH4 0xF896ACC7 EQ PUSH2 0x18A JUMPI CODESIZE PUSH2 0xF JUMP JUMPDEST CALLVALUE PUSH2 0x23F JUMPI PUSH1 0x20 CALLDATASIZE PUSH1 0x3 NOT ADD SLT PUSH2 0x23F JUMPI PUSH1 0x4 CALLDATALOAD PUSH2 0x1A6 PUSH2 0x19C8 JUMP JUMPDEST PUSH1 0x7 SLOAD SWAP1 PUSH2 0x1BE PUSH2 0x1B5 PUSH2 0x1884 JUMP JUMPDEST DUP4 DUP4 EQ ISZERO PUSH2 0x1998 JUMP JUMPDEST PUSH2 0x1F2 PUSH2 0x1C9 PUSH2 0x18BF JUMP JUMPDEST PUSH32 0x0 DUP4 LT ISZERO PUSH2 0x1998 JUMP JUMPDEST PUSH2 0x208 PUSH2 0x1FD PUSH2 0x18FA JUMP JUMPDEST PUSH2 0x7D0 DUP4 GT ISZERO PUSH2 0x1998 JUMP JUMPDEST DUP1 PUSH1 0x7 SSTORE PUSH1 0x40 MLOAD SWAP2 DUP3 MSTORE PUSH1 0x20 DUP3 ADD MSTORE PUSH32 0xC2590C5CAD7B84E9FAE727E107E2BB810DE8248ADA2AFBC3D638140E187C0040 PUSH1 0x40 CALLER SWAP3 LOG2 STOP JUMPDEST PUSH1 0x0 DUP1 REVERT JUMPDEST CALLVALUE PUSH2 0x23F JUMPI PUSH1 0x20 CALLDATASIZE PUSH1 0x3 NOT ADD SLT PUSH2 0x23F JUMPI PUSH2 0x25D PUSH2 0xD6A JUMP JUMPDEST PUSH2 0x265 PUSH2 0x19C8 JUMP JUMPDEST PUSH1 0x1 PUSH1 0x1 PUSH1 0xA0 SHL SUB AND DUP1 ISZERO PUSH2 0x2B7 JUMPI PUSH1 0x0 DUP1 SLOAD PUSH1 0x1 PUSH1 0x1 PUSH1 0xA0 SHL SUB NOT DUP2 AND DUP4 OR DUP3 SSTORE PUSH1 0x1 PUSH1 0x1 PUSH1 0xA0 SHL SUB AND SWAP1 PUSH32 0x8BE0079C531659141344CD1FD0A4F28419497F9722A3DAAFE3B4186F6B6457E0 SWAP1 DUP1 LOG3 STOP JUMPDEST PUSH4 0x1E4FBDF7 PUSH1 0xE0 SHL PUSH1 0x0 MSTORE PUSH1 0x0 PUSH1 0x4 MSTORE PUSH1 0x24 PUSH1 0x0 REVERT JUMPDEST CALLVALUE PUSH2 0x23F JUMPI PUSH1 0x20 CALLDATASIZE PUSH1 0x3 NOT ADD SLT PUSH2 0x23F JUMPI PUSH2 0x2E9 PUSH1 0x4 CALLDATALOAD PUSH2 0x1929 JUMP JUMPDEST SWAP1 PUSH2 0x308 PUSH1 0x40 MLOAD SWAP3 DUP4 SWAP3 ISZERO ISZERO DUP4 MSTORE PUSH1 0x40 PUSH1 0x20 DUP5 ADD MSTORE PUSH1 0x40 DUP4 ADD SWAP1 PUSH2 0xDA4 JUMP JUMPDEST SUB SWAP1 RETURN JUMPDEST CALLVALUE PUSH2 0x23F JUMPI PUSH1 0x0 CALLDATASIZE PUSH1 0x3 NOT ADD SLT PUSH2 0x23F JUMPI PUSH1 0x20 PUSH1 0x7 SLOAD PUSH1 0x40 MLOAD SWAP1 DUP2 MSTORE RETURN JUMPDEST CALLVALUE PUSH2 0x23F JUMPI PUSH1 0x0 CALLDATASIZE PUSH1 0x3 NOT ADD SLT PUSH2 0x23F JUMPI PUSH1 0x20 PUSH1 0x40 MLOAD PUSH1 0x5 DUP2 MSTORE RETURN JUMPDEST CALLVALUE PUSH2 0x23F JUMPI PUSH1 0x0 CALLDATASIZE PUSH1 0x3 NOT ADD SLT PUSH2 0x23F JUMPI PUSH1 0x60 PUSH1 0x7 SLOAD PUSH1 0x40 MLOAD SWAP1 PUSH32 0x0 DUP3 MSTORE PUSH1 0x20 DUP3 ADD MSTORE PUSH2 0x7D0 PUSH1 0x40 DUP3 ADD MSTORE RETURN JUMPDEST CALLVALUE PUSH2 0x23F JUMPI PUSH1 0x20 CALLDATASIZE PUSH1 0x3 NOT ADD SLT PUSH2 0x23F JUMPI PUSH1 0x4 CALLDATALOAD PUSH2 0x3AE PUSH2 0x19C8 JUMP JUMPDEST DUP1 ISZERO ISZERO DUP1 PUSH2 0x42A JUMPI JUMPDEST ISZERO PUSH2 0x3F7 JUMPI PUSH1 0x3 SLOAD SWAP1 DUP1 PUSH1 0x3 SSTORE PUSH1 0x40 MLOAD SWAP2 DUP3 MSTORE PUSH1 0x20 DUP3 ADD MSTORE PUSH32 0x3B70F7EC6235FB8B9F4B0A4BF6FEC9A5F46A7AFC052D86AB34A8B9474BDE94A1 PUSH1 0x40 CALLER SWAP3 LOG2 STOP JUMPDEST PUSH1 0x40 MLOAD PUSH3 0x461BCD PUSH1 0xE5 SHL DUP2 MSTORE PUSH1 0x20 PUSH1 0x4 DUP3 ADD MSTORE PUSH1 0xB PUSH1 0x24 DUP3 ADD MSTORE PUSH11 0x496E76616C696420666565 PUSH1 0xA8 SHL PUSH1 0x44 DUP3 ADD MSTORE PUSH1 0x64 SWAP1 REVERT JUMPDEST POP PUSH2 0x1F4 DUP2 GT ISZERO PUSH2 0x3B7 JUMP JUMPDEST CALLVALUE PUSH2 0x23F JUMPI PUSH1 0x0 CALLDATASIZE PUSH1 0x3 NOT ADD SLT PUSH2 0x23F JUMPI PUSH1 0x20 PUSH1 0x9 SLOAD PUSH1 0x40 MLOAD SWAP1 DUP2 MSTORE RETURN JUMPDEST CALLVALUE PUSH2 0x23F JUMPI PUSH1 0x0 CALLDATASIZE PUSH1 0x3 NOT ADD SLT PUSH2 0x23F JUMPI PUSH1 0x20 PUSH1 0x6 SLOAD PUSH1 0x40 MLOAD SWAP1 DUP2 MSTORE RETURN JUMPDEST CALLVALUE PUSH2 0x23F JUMPI PUSH1 0x0 CALLDATASIZE PUSH1 0x3 NOT ADD SLT PUSH2 0x23F JUMPI PUSH1 0x0 SLOAD PUSH1 0x40 MLOAD PUSH1 0x1 PUSH1 0x1 PUSH1 0xA0 SHL SUB SWAP1 SWAP2 AND DUP2 MSTORE PUSH1 0x20 SWAP1 RETURN JUMPDEST CALLVALUE PUSH2 0x23F JUMPI PUSH1 0x0 CALLDATASIZE PUSH1 0x3 NOT ADD SLT PUSH2 0x23F JUMPI PUSH1 0x20 PUSH1 0x40 MLOAD PUSH2 0x7D0 DUP2 MSTORE RETURN JUMPDEST CALLVALUE PUSH2 0x23F JUMPI PUSH1 0x0 CALLDATASIZE PUSH1 0x3 NOT ADD SLT PUSH2 0x23F JUMPI PUSH1 0x20 PUSH1 0x40 MLOAD PUSH32 0x0 DUP2 MSTORE RETURN JUMPDEST CALLVALUE PUSH2 0x23F JUMPI PUSH1 0x0 CALLDATASIZE PUSH1 0x3 NOT ADD SLT PUSH2 0x23F JUMPI PUSH1 0x60 PUSH1 0x40 PUSH2 0x308 DUP2 MLOAD PUSH2 0x517 DUP4 DUP3 PUSH2 0xF37 JUMP JUMPDEST PUSH1 0x14 DUP2 MSTORE PUSH20 0x302E32352520666565202832352F313030303029 PUSH1 0x60 SHL PUSH1 0x20 DUP3 ADD MSTORE DUP3 MLOAD SWAP4 DUP5 SWAP4 PUSH1 0x19 DUP6 MSTORE PUSH2 0x2710 PUSH1 0x20 DUP7 ADD MSTORE DUP5 ADD MSTORE PUSH1 0x60 DUP4 ADD SWAP1 PUSH2 0xDA4 JUMP JUMPDEST CALLVALUE PUSH2 0x23F JUMPI PUSH1 0x0 CALLDATASIZE PUSH1 0x3 NOT ADD SLT PUSH2 0x23F JUMPI PUSH2 0x56F PUSH2 0x19C8 JUMP JUMPDEST PUSH1 0x8 SLOAD PUSH1 0xFF DUP2 AND PUSH2 0x5B7 JUMPI PUSH1 0x1 SWAP1 PUSH1 0xFF NOT AND OR PUSH1 0x8 SSTORE TIMESTAMP PUSH1 0x9 SSTORE PUSH1 0x40 MLOAD TIMESTAMP DUP2 MSTORE PUSH32 0x80170B5FCDD2BF1E0660EF4B8851F86685F64D41B1A19DE1471947ECE8725AAC PUSH1 0x20 CALLER SWAP3 LOG2 STOP JUMPDEST PUSH1 0x40 MLOAD PUSH3 0x461BCD PUSH1 0xE5 SHL DUP2 MSTORE PUSH1 0x20 PUSH1 0x4 DUP3 ADD MSTORE PUSH1 0xE PUSH1 0x24 DUP3 ADD MSTORE PUSH14 0x105B1C9958591E481C185D5CD959 PUSH1 0x92 SHL PUSH1 0x44 DUP3 ADD MSTORE PUSH1 0x64 SWAP1 REVERT JUMPDEST CALLVALUE PUSH2 0x23F JUMPI PUSH1 0x0 CALLDATASIZE PUSH1 0x3 NOT ADD SLT PUSH2 0x23F JUMPI PUSH2 0x606 PUSH2 0x19C8 JUMP JUMPDEST PUSH1 0x0 DUP1 SLOAD PUSH1 0x1 PUSH1 0x1 PUSH1 0xA0 SHL SUB NOT DUP2 AND DUP3 SSTORE PUSH1 0x1 PUSH1 0x1 PUSH1 0xA0 SHL SUB AND PUSH32 0x8BE0079C531659141344CD1FD0A4F28419497F9722A3DAAFE3B4186F6B6457E0 DUP3 DUP1 LOG3 STOP JUMPDEST PUSH1 0x80 CALLDATASIZE PUSH1 0x3 NOT ADD SLT PUSH2 0x23F JUMPI PUSH2 0x65A PUSH2 0xD6A JUMP JUMPDEST PUSH1 0xFF PUSH1 0x8 SLOAD AND PUSH2 0x679 JUMPI PUSH2 0x1B SWAP1 PUSH1 0x64 CALLDATALOAD SWAP1 PUSH1 0x44 CALLDATALOAD SWAP1 PUSH1 0x24 CALLDATALOAD SWAP1 PUSH2 0x10E2 JUMP JUMPDEST PUSH1 0x40 MLOAD PUSH3 0x461BCD PUSH1 0xE5 SHL DUP2 MSTORE PUSH1 0x20 PUSH1 0x4 DUP3 ADD MSTORE PUSH1 0x12 PUSH1 0x24 DUP3 ADD MSTORE PUSH18 0x10DBDB9D1C9858DD081A5CC81C185D5CD959 PUSH1 0x72 SHL PUSH1 0x44 DUP3 ADD MSTORE PUSH1 0x64 SWAP1 REVERT JUMPDEST PUSH2 0xD80 JUMP JUMPDEST CALLVALUE PUSH2 0x23F JUMPI PUSH1 0x0 CALLDATASIZE PUSH1 0x3 NOT ADD SLT PUSH2 0x23F JUMPI PUSH1 0x20 PUSH1 0xFF PUSH1 0x8 SLOAD AND PUSH1 0x40 MLOAD SWAP1 ISZERO ISZERO DUP2 MSTORE RETURN JUMPDEST CALLVALUE PUSH2 0x23F JUMPI PUSH1 0x60 CALLDATASIZE PUSH1 0x3 NOT ADD SLT PUSH2 0x23F JUMPI PUSH2 0x6F4 PUSH2 0xD6A JUMP JUMPDEST PUSH1 0x44 CALLDATALOAD PUSH1 0x1 PUSH1 0x1 PUSH1 0xA0 SHL SUB DUP2 AND SWAP2 PUSH1 0x24 CALLDATALOAD SWAP2 DUP4 SWAP1 SUB PUSH2 0x23F JUMPI PUSH2 0x715 PUSH2 0x19C8 JUMP JUMPDEST PUSH1 0xFF PUSH1 0x8 SLOAD AND ISZERO PUSH2 0x8C6 JUMPI DUP3 ISZERO PUSH2 0x88D JUMPI PUSH2 0x72F DUP2 PUSH2 0x19F1 JUMP JUMPDEST ISZERO PUSH2 0x796 JUMPI PUSH1 0x40 PUSH32 0xBBAE553982D541D38DACB1EA468AC757F324D0E279B6E4A2958F9E894DA575FF SWAP2 PUSH2 0x764 DUP5 SELFBALANCE LT ISZERO PUSH2 0xFFB JUMP JUMPDEST PUSH2 0x77E PUSH1 0x0 DUP1 DUP1 DUP1 DUP9 DUP11 GAS CALL PUSH2 0x778 PUSH2 0xF6F JUMP JUMPDEST POP PUSH2 0xFAF JUMP JUMPDEST DUP2 MLOAD SWAP4 DUP5 MSTORE TIMESTAMP PUSH1 0x20 DUP6 ADD MSTORE PUSH1 0x1 PUSH1 0x1 PUSH1 0xA0 SHL SUB AND SWAP3 LOG3 STOP JUMPDEST PUSH1 0x40 MLOAD PUSH4 0x70A08231 PUSH1 0xE0 SHL DUP2 MSTORE ADDRESS PUSH1 0x4 DUP3 ADD MSTORE PUSH1 0x1 PUSH1 0x1 PUSH1 0xA0 SHL SUB DUP3 AND SWAP1 PUSH1 0x20 DUP2 PUSH1 0x24 DUP2 DUP6 GAS STATICCALL DUP1 ISZERO PUSH2 0x881 JUMPI DUP5 SWAP2 PUSH1 0x0 SWAP2 PUSH2 0x84C JUMPI JUMPDEST POP LT PUSH2 0x807 JUMPI PUSH32 0xBBAE553982D541D38DACB1EA468AC757F324D0E279B6E4A2958F9E894DA575FF SWAP2 PUSH2 0x802 DUP5 DUP7 PUSH1 0x40 SWAP5 PUSH2 0x1A22 JUMP JUMPDEST PUSH2 0x77E JUMP JUMPDEST PUSH1 0x40 MLOAD PUSH3 0x461BCD PUSH1 0xE5 SHL DUP2 MSTORE PUSH1 0x20 PUSH1 0x4 DUP3 ADD MSTORE PUSH1 0x1A PUSH1 0x24 DUP3 ADD MSTORE PUSH32 0x496E73756666696369656E7420746F6B656E2062616C616E6365000000000000 PUSH1 0x44 DUP3 ADD MSTORE PUSH1 0x64 SWAP1 REVERT JUMPDEST SWAP2 POP POP PUSH1 0x20 DUP2 RETURNDATASIZE PUSH1 0x20 GT PUSH2 0x879 JUMPI JUMPDEST DUP2 PUSH2 0x868 PUSH1 0x20 SWAP4 DUP4 PUSH2 0xF37 JUMP JUMPDEST DUP2 ADD SUB SLT PUSH2 0x23F JUMPI DUP4 SWAP1 MLOAD DUP7 PUSH2 0x7CD JUMP JUMPDEST RETURNDATASIZE SWAP2 POP PUSH2 0x85B JUMP JUMPDEST PUSH1 0x40 MLOAD RETURNDATASIZE PUSH1 0x0 DUP3 RETURNDATACOPY RETURNDATASIZE SWAP1 REVERT JUMPDEST PUSH1 0x40 MLOAD PUSH3 0x461BCD PUSH1 0xE5 SHL DUP2 MSTORE PUSH1 0x20 PUSH1 0x4 DUP3 ADD MSTORE PUSH1 0x11 PUSH1 0x24 DUP3 ADD MSTORE PUSH17 0x125B9D985B1A59081C9958DA5C1A595B9D PUSH1 0x7A SHL PUSH1 0x44 DUP3 ADD MSTORE PUSH1 0x64 SWAP1 REVERT JUMPDEST PUSH1 0x40 MLOAD PUSH3 0x461BCD PUSH1 0xE5 SHL DUP2 MSTORE PUSH1 0x20 PUSH1 0x4 DUP3 ADD MSTORE PUSH1 0x13 PUSH1 0x24 DUP3 ADD MSTORE PUSH19 0x10DBDB9D1C9858DD081B9BDD081C185D5CD959 PUSH1 0x6A SHL PUSH1 0x44 DUP3 ADD MSTORE PUSH1 0x64 SWAP1 REVERT JUMPDEST CALLVALUE PUSH2 0x23F JUMPI PUSH1 0x0 CALLDATASIZE PUSH1 0x3 NOT ADD SLT PUSH2 0x23F JUMPI PUSH1 0x20 PUSH1 0x3 SLOAD PUSH1 0x40 MLOAD SWAP1 DUP2 MSTORE RETURN JUMPDEST CALLVALUE PUSH2 0x23F JUMPI PUSH1 0x0 CALLDATASIZE PUSH1 0x3 NOT ADD SLT PUSH2 0x23F JUMPI PUSH1 0x1 SLOAD PUSH1 0x40 MLOAD PUSH1 0x1 PUSH1 0x1 PUSH1 0xA0 SHL SUB SWAP1 SWAP2 AND DUP2 MSTORE PUSH1 0x20 SWAP1 RETURN JUMPDEST CALLVALUE PUSH2 0x23F JUMPI PUSH1 0x0 CALLDATASIZE PUSH1 0x3 NOT ADD SLT PUSH2 0x23F JUMPI PUSH2 0x961 PUSH2 0x19C8 JUMP JUMPDEST PUSH1 0x8 SLOAD PUSH1 0xFF DUP2 AND ISZERO PUSH2 0x9A2 JUMPI PUSH1 0xFF NOT AND PUSH1 0x8 SSTORE PUSH1 0x40 MLOAD TIMESTAMP DUP2 MSTORE PUSH32 0x107553D8191D85B405879CF752997865EDD48D94E20BDA4DD27223C94B31A7CC PUSH1 0x20 CALLER SWAP3 LOG2 STOP JUMPDEST PUSH1 0x40 MLOAD PUSH3 0x461BCD PUSH1 0xE5 SHL DUP2 MSTORE PUSH1 0x20 PUSH1 0x4 DUP3 ADD MSTORE PUSH1 0xA PUSH1 0x24 DUP3 ADD MSTORE PUSH10 0x139BDD081C185D5CD959 PUSH1 0xB2 SHL PUSH1 0x44 DUP3 ADD MSTORE PUSH1 0x64 SWAP1 REVERT JUMPDEST CALLVALUE PUSH2 0x23F JUMPI PUSH1 0x0 CALLDATASIZE PUSH1 0x3 NOT ADD SLT PUSH2 0x23F JUMPI PUSH1 0x2 SLOAD PUSH1 0x40 MLOAD PUSH1 0x1 PUSH1 0x1 PUSH1 0xA0 SHL SUB SWAP1 SWAP2 AND DUP2 MSTORE PUSH1 0x20 SWAP1 RETURN JUMPDEST CALLVALUE PUSH2 0x23F JUMPI PUSH1 0x20 CALLDATASIZE PUSH1 0x3 NOT ADD SLT PUSH2 0x23F JUMPI PUSH2 0xA16 PUSH2 0xD6A JUMP JUMPDEST PUSH2 0xA1E PUSH2 0x19C8 JUMP JUMPDEST PUSH1 0x1 PUSH1 0x1 PUSH1 0xA0 SHL SUB AND DUP1 ISZERO PUSH2 0xA74 JUMPI PUSH1 0x2 DUP1 SLOAD PUSH1 0x1 PUSH1 0x1 PUSH1 0xA0 SHL SUB NOT DUP2 AND DUP4 OR SWAP1 SWAP2 SSTORE CALLER SWAP2 SWAP1 PUSH1 0x1 PUSH1 0x1 PUSH1 0xA0 SHL SUB AND PUSH32 0xE7448546463DA3F04E4F62D61EDD1C362AC53D025BB9A341955227B25F1899F7 PUSH1 0x0 DUP1 LOG4 STOP JUMPDEST PUSH1 0x40 MLOAD PUSH3 0x461BCD PUSH1 0xE5 SHL DUP2 MSTORE PUSH1 0x20 PUSH1 0x4 DUP3 ADD MSTORE PUSH1 0x17 PUSH1 0x24 DUP3 ADD MSTORE PUSH32 0x496E76616C6964206D616E616765722061646472657373000000000000000000 PUSH1 0x44 DUP3 ADD MSTORE PUSH1 0x64 SWAP1 REVERT JUMPDEST CALLVALUE PUSH2 0x23F JUMPI PUSH1 0x0 CALLDATASIZE PUSH1 0x3 NOT ADD SLT PUSH2 0x23F JUMPI PUSH1 0x60 PUSH1 0xFF PUSH1 0x8 SLOAD AND DUP1 PUSH1 0x0 EQ PUSH2 0xAFE JUMPI PUSH2 0xAE6 PUSH1 0x9 SLOAD TIMESTAMP PUSH2 0xF2A JUMP JUMPDEST PUSH1 0x9 SLOAD SWAP1 PUSH1 0x40 MLOAD SWAP3 ISZERO ISZERO DUP4 MSTORE PUSH1 0x20 DUP4 ADD MSTORE PUSH1 0x40 DUP3 ADD MSTORE RETURN JUMPDEST PUSH1 0x0 PUSH2 0xAE6 JUMP JUMPDEST CALLVALUE PUSH2 0x23F JUMPI PUSH1 0x40 CALLDATASIZE PUSH1 0x3 NOT ADD SLT PUSH2 0x23F JUMPI PUSH2 0xB1E PUSH2 0xD6A JUMP JUMPDEST PUSH1 0x24 CALLDATALOAD PUSH2 0xB29 PUSH2 0x19C8 JUMP JUMPDEST PUSH1 0x1 DUP1 PUSH1 0xA0 SHL SUB DUP3 AND SWAP2 DUP3 PUSH1 0x0 MSTORE PUSH1 0x5 PUSH1 0x20 MSTORE DUP2 PUSH1 0x40 PUSH1 0x0 KECCAK256 SLOAD LT PUSH2 0xBC1 JUMPI PUSH32 0xC0819C13BE868895EB93E40EACEB96DE976442FA1D404E5C55F14BB65A8C489A SWAP2 PUSH2 0xB8F PUSH1 0x20 SWAP3 DUP6 PUSH1 0x0 MSTORE PUSH1 0x5 DUP5 MSTORE PUSH1 0x40 PUSH1 0x0 KECCAK256 PUSH2 0xB88 DUP5 DUP3 SLOAD PUSH2 0xF2A JUMP JUMPDEST SWAP1 SSTORE PUSH2 0x19F1 JUMP JUMPDEST ISZERO PUSH2 0xBB1 JUMPI PUSH2 0xBA8 PUSH1 0x0 DUP1 DUP1 DUP1 DUP6 CALLER GAS CALL PUSH2 0x778 PUSH2 0xF6F JUMP JUMPDEST PUSH1 0x40 MLOAD SWAP1 DUP2 MSTORE LOG2 STOP JUMPDEST PUSH2 0xBBC DUP2 CALLER DUP7 PUSH2 0x1A22 JUMP JUMPDEST PUSH2 0xBA8 JUMP JUMPDEST PUSH1 0x40 MLOAD PUSH3 0x461BCD PUSH1 0xE5 SHL DUP2 MSTORE PUSH1 0x20 PUSH1 0x4 DUP3 ADD MSTORE PUSH1 0x18 PUSH1 0x24 DUP3 ADD MSTORE PUSH32 0x496E73756666696369656E742073746F72656420666565730000000000000000 PUSH1 0x44 DUP3 ADD MSTORE PUSH1 0x64 SWAP1 REVERT JUMPDEST CALLVALUE PUSH2 0x23F JUMPI PUSH1 0x20 CALLDATASIZE PUSH1 0x3 NOT ADD SLT PUSH2 0x23F JUMPI PUSH1 0x1 PUSH1 0x1 PUSH1 0xA0 SHL SUB PUSH2 0xC27 PUSH2 0xD6A JUMP JUMPDEST AND PUSH1 0x0 MSTORE PUSH1 0x5 PUSH1 0x20 MSTORE PUSH1 0x20 PUSH1 0x40 PUSH1 0x0 KECCAK256 SLOAD PUSH1 0x40 MLOAD SWAP1 DUP2 MSTORE RETURN JUMPDEST CALLVALUE PUSH2 0x23F JUMPI PUSH1 0x0 CALLDATASIZE PUSH1 0x3 NOT ADD SLT PUSH2 0x23F JUMPI PUSH1 0x20 PUSH1 0x40 MLOAD PUSH1 0x3C DUP2 MSTORE RETURN JUMPDEST CALLVALUE PUSH2 0x23F JUMPI PUSH1 0x20 CALLDATASIZE PUSH1 0x3 NOT ADD SLT PUSH2 0x23F JUMPI PUSH1 0x4 CALLDATALOAD PUSH2 0xC78 PUSH2 0x19C8 JUMP JUMPDEST PUSH9 0x3635C9ADC5DEA00000 DUP2 LT PUSH2 0xCC3 JUMPI PUSH1 0x6 SLOAD SWAP1 DUP1 PUSH1 0x6 SSTORE PUSH1 0x40 MLOAD SWAP2 DUP3 MSTORE PUSH1 0x20 DUP3 ADD MSTORE PUSH32 0x77A6F4BF7CF4544531633FC1C2A3E8D2C53AD36FE80A723E124CAEC563A33358 PUSH1 0x40 CALLER SWAP3 LOG2 STOP JUMPDEST PUSH1 0x40 MLOAD PUSH3 0x461BCD PUSH1 0xE5 SHL DUP2 MSTORE PUSH1 0x20 PUSH1 0x4 DUP3 ADD MSTORE PUSH1 0x17 PUSH1 0x24 DUP3 ADD MSTORE PUSH32 0x42656C6F77206D696E696D756D206C6971756964697479000000000000000000 PUSH1 0x44 DUP3 ADD MSTORE PUSH1 0x64 SWAP1 REVERT JUMPDEST CALLVALUE PUSH2 0x23F JUMPI PUSH1 0x60 CALLDATASIZE PUSH1 0x3 NOT ADD SLT PUSH2 0x23F JUMPI PUSH1 0x20 PUSH2 0xD2C PUSH1 0x44 CALLDATALOAD PUSH1 0x24 CALLDATALOAD PUSH1 0x4 CALLDATALOAD PUSH2 0xE1B JUMP JUMPDEST PUSH1 0x40 MLOAD SWAP1 DUP2 MSTORE RETURN JUMPDEST CALLVALUE PUSH2 0x23F JUMPI PUSH1 0x20 CALLDATASIZE PUSH1 0x3 NOT ADD SLT PUSH2 0x23F JUMPI PUSH1 0x20 SWAP1 PUSH1 0x1 PUSH1 0x1 PUSH1 0xA0 SHL SUB PUSH2 0xD58 PUSH2 0xD6A JUMP JUMPDEST AND PUSH1 0x0 MSTORE PUSH1 0x4 DUP3 MSTORE PUSH1 0x40 PUSH1 0x0 KECCAK256 SLOAD DUP2 MSTORE RETURN JUMPDEST PUSH1 0x4 CALLDATALOAD SWAP1 PUSH1 0x1 PUSH1 0x1 PUSH1 0xA0 SHL SUB DUP3 AND DUP3 SUB PUSH2 0x23F JUMPI JUMP JUMPDEST CALLVALUE PUSH2 0x23F JUMPI PUSH1 0x0 CALLDATASIZE PUSH1 0x3 NOT ADD SLT PUSH2 0x23F JUMPI PUSH1 0x20 PUSH1 0x40 MLOAD PUSH9 0x3635C9ADC5DEA00000 DUP2 MSTORE RETURN JUMPDEST SWAP2 SWAP1 DUP3 MLOAD SWAP3 DUP4 DUP3 MSTORE PUSH1 0x0 JUMPDEST DUP5 DUP2 LT PUSH2 0xDD0 JUMPI POP POP DUP3 PUSH1 0x0 PUSH1 0x20 DUP1 SWAP5 SWAP6 DUP5 ADD ADD MSTORE PUSH1 0x1F DUP1 NOT SWAP2 ADD AND ADD ADD SWAP1 JUMP JUMPDEST DUP1 PUSH1 0x20 DUP1 SWAP3 DUP5 ADD ADD MLOAD DUP3 DUP3 DUP7 ADD ADD MSTORE ADD PUSH2 0xDAF JUMP JUMPDEST DUP2 DUP2 MUL SWAP3 SWAP2 DUP2 ISZERO SWAP2 DUP5 DIV EQ OR ISZERO PUSH2 0xDF8 JUMPI JUMP JUMPDEST PUSH4 0x4E487B71 PUSH1 0xE0 SHL PUSH1 0x0 MSTORE PUSH1 0x11 PUSH1 0x4 MSTORE PUSH1 0x24 PUSH1 0x0 REVERT JUMPDEST SWAP2 SWAP1 DUP3 ADD DUP1 SWAP3 GT PUSH2 0xDF8 JUMPI JUMP JUMPDEST DUP1 ISZERO PUSH2 0xEEE JUMPI DUP2 ISZERO SWAP3 DUP4 ISZERO DUP1 PUSH2 0xEE5 JUMPI JUMPDEST ISZERO PUSH2 0xEAD JUMPI PUSH2 0x26F7 DUP3 MUL SWAP2 DUP3 DIV PUSH2 0x26F7 SUB PUSH2 0xDF8 JUMPI PUSH2 0xE4B SWAP1 DUP3 PUSH2 0xDE5 JUMP JUMPDEST SWAP3 PUSH2 0x2710 DUP4 MUL SWAP3 DUP4 DIV PUSH2 0x2710 EQ OR ISZERO PUSH2 0xDF8 JUMPI PUSH2 0xE67 SWAP2 PUSH2 0xE0E JUMP JUMPDEST SWAP1 DUP2 ISZERO PUSH2 0xE72 JUMPI DIV SWAP1 JUMP JUMPDEST PUSH1 0x40 MLOAD PUSH3 0x461BCD PUSH1 0xE5 SHL DUP2 MSTORE PUSH1 0x20 PUSH1 0x4 DUP3 ADD MSTORE PUSH1 0x13 PUSH1 0x24 DUP3 ADD MSTORE PUSH19 0x24B73B30B634B21031B0B631BAB630BA34B7B7 PUSH1 0x69 SHL PUSH1 0x44 DUP3 ADD MSTORE PUSH1 0x64 SWAP1 REVERT JUMPDEST PUSH1 0x40 MLOAD PUSH3 0x461BCD PUSH1 0xE5 SHL DUP2 MSTORE PUSH1 0x20 PUSH1 0x4 DUP3 ADD MSTORE PUSH1 0x10 PUSH1 0x24 DUP3 ADD MSTORE PUSH16 0x496E76616C6964207265736572766573 PUSH1 0x80 SHL PUSH1 0x44 DUP3 ADD MSTORE PUSH1 0x64 SWAP1 REVERT JUMPDEST POP DUP1 ISZERO ISZERO PUSH2 0xE2C JUMP JUMPDEST PUSH1 0x40 MLOAD PUSH3 0x461BCD PUSH1 0xE5 SHL DUP2 MSTORE PUSH1 0x20 PUSH1 0x4 DUP3 ADD MSTORE PUSH1 0x14 PUSH1 0x24 DUP3 ADD MSTORE PUSH20 0x125B9D985B1A59081A5B9C1D5D08185B5BDD5B9D PUSH1 0x62 SHL PUSH1 0x44 DUP3 ADD MSTORE PUSH1 0x64 SWAP1 REVERT JUMPDEST SWAP2 SWAP1 DUP3 SUB SWAP2 DUP3 GT PUSH2 0xDF8 JUMPI JUMP JUMPDEST SWAP1 PUSH1 0x1F DUP1 NOT SWAP2 ADD AND DUP2 ADD SWAP1 DUP2 LT PUSH8 0xFFFFFFFFFFFFFFFF DUP3 GT OR PUSH2 0xF59 JUMPI PUSH1 0x40 MSTORE JUMP JUMPDEST PUSH4 0x4E487B71 PUSH1 0xE0 SHL PUSH1 0x0 MSTORE PUSH1 0x41 PUSH1 0x4 MSTORE PUSH1 0x24 PUSH1 0x0 REVERT JUMPDEST RETURNDATASIZE ISZERO PUSH2 0xFAA JUMPI RETURNDATASIZE SWAP1 PUSH8 0xFFFFFFFFFFFFFFFF DUP3 GT PUSH2 0xF59 JUMPI PUSH1 0x40 MLOAD SWAP2 PUSH2 0xF9E PUSH1 0x1F DUP3 ADD PUSH1 0x1F NOT AND PUSH1 0x20 ADD DUP5 PUSH2 0xF37 JUMP JUMPDEST DUP3 MSTORE RETURNDATASIZE PUSH1 0x0 PUSH1 0x20 DUP5 ADD RETURNDATACOPY JUMP JUMPDEST PUSH1 0x60 SWAP1 JUMP JUMPDEST ISZERO PUSH2 0xFB6 JUMPI JUMP JUMPDEST PUSH1 0x40 MLOAD PUSH3 0x461BCD PUSH1 0xE5 SHL DUP2 MSTORE PUSH1 0x20 PUSH1 0x4 DUP3 ADD MSTORE PUSH1 0x17 PUSH1 0x24 DUP3 ADD MSTORE PUSH32 0x5320746F6B656E207472616E73666572206661696C6564000000000000000000 PUSH1 0x44 DUP3 ADD MSTORE PUSH1 0x64 SWAP1 REVERT JUMPDEST ISZERO PUSH2 0x1002 JUMPI JUMP JUMPDEST PUSH1 0x40 MLOAD PUSH3 0x461BCD PUSH1 0xE5 SHL DUP2 MSTORE PUSH1 0x20 PUSH1 0x4 DUP3 ADD MSTORE PUSH1 0x16 PUSH1 0x24 DUP3 ADD MSTORE PUSH22 0x496E73756666696369656E7420532062616C616E6365 PUSH1 0x50 SHL PUSH1 0x44 DUP3 ADD MSTORE PUSH1 0x64 SWAP1 REVERT JUMPDEST SWAP2 SWAP1 DUP3 PUSH1 0x40 SWAP2 SUB SLT PUSH2 0x23F JUMPI PUSH1 0x20 DUP3 MLOAD SWAP3 ADD MLOAD SWAP1 JUMP JUMPDEST ISZERO PUSH2 0x105D JUMPI JUMP JUMPDEST PUSH1 0x40 MLOAD PUSH3 0x461BCD PUSH1 0xE5 SHL DUP2 MSTORE PUSH1 0x20 PUSH1 0x4 DUP3 ADD MSTORE PUSH1 0x1E PUSH1 0x24 DUP3 ADD MSTORE PUSH32 0x496E73756666696369656E74206C697175696469747920696E20706F6F6C0000 PUSH1 0x44 DUP3 ADD MSTORE PUSH1 0x64 SWAP1 REVERT JUMPDEST ISZERO PUSH2 0x10A9 JUMPI JUMP JUMPDEST PUSH1 0x40 MLOAD PUSH3 0x461BCD PUSH1 0xE5 SHL DUP2 MSTORE PUSH1 0x20 PUSH1 0x4 DUP3 ADD MSTORE PUSH1 0x11 PUSH1 0x24 DUP3 ADD MSTORE PUSH17 0xA6D8D2E0E0C2CECA40E8DEDE40D0D2CED PUSH1 0x7B SHL PUSH1 0x44 DUP3 ADD MSTORE PUSH1 0x64 SWAP1 REVERT JUMPDEST SWAP3 SWAP1 SWAP2 CALLER PUSH1 0x0 MSTORE PUSH1 0x4 PUSH1 0x20 MSTORE PUSH1 0x40 PUSH1 0x0 KECCAK256 SLOAD PUSH1 0x3C DUP2 ADD DUP1 SWAP2 GT PUSH2 0xDF8 JUMPI TIMESTAMP LT PUSH2 0x184E JUMPI PUSH1 0x2 SLOAD PUSH1 0x40 DUP1 MLOAD PUSH4 0xFA67079 PUSH1 0xE2 SHL DUP2 MSTORE PUSH1 0x1 PUSH1 0x1 PUSH1 0xA0 SHL SUB SWAP7 DUP8 AND PUSH1 0x4 DUP3 ADD DUP2 SWAP1 MSTORE SWAP7 SWAP1 SWAP3 DUP4 SWAP2 PUSH1 0x24 SWAP2 DUP4 SWAP2 AND GAS STATICCALL DUP1 ISZERO PUSH2 0x881 JUMPI PUSH1 0x0 SWAP2 DUP3 SWAP2 PUSH2 0x182D JUMPI JUMPDEST POP PUSH2 0x1152 DUP3 DUP7 GT ISZERO PUSH2 0x1056 JUMP JUMPDEST DUP1 ISZERO PUSH2 0x17F1 JUMPI PUSH1 0x5 DUP3 MUL DUP3 DUP2 DIV PUSH1 0x5 EQ DUP4 ISZERO OR ISZERO PUSH2 0xDF8 JUMPI PUSH1 0x64 SWAP1 DIV DUP6 GT PUSH2 0x17BB JUMPI DUP5 ISZERO PUSH2 0x1785 JUMPI PUSH1 0x40 MLOAD PUSH4 0x70A08231 PUSH1 0xE0 SHL DUP2 MSTORE CALLER PUSH1 0x4 DUP3 ADD MSTORE PUSH1 0x20 DUP2 PUSH1 0x24 DUP2 DUP11 GAS STATICCALL DUP1 ISZERO PUSH2 0x881 JUMPI DUP7 SWAP2 PUSH1 0x0 SWAP2 PUSH2 0x1750 JUMPI JUMPDEST POP LT PUSH2 0x1714 JUMPI PUSH2 0x11B6 SWAP2 DUP6 PUSH2 0xE1B JUMP JUMPDEST SWAP1 PUSH2 0x11C3 DUP2 DUP4 LT ISZERO PUSH2 0x10A2 JUMP JUMPDEST PUSH2 0x11DD PUSH2 0x2710 PUSH2 0x11D5 PUSH1 0x3 SLOAD DUP6 PUSH2 0xDE5 JUMP JUMPDEST DIV DUP1 SWAP4 PUSH2 0xF2A JUMP JUMPDEST SWAP3 PUSH9 0x3635C9ADC5DEA00000 DUP6 GT PUSH2 0x1330 JUMPI POP POP PUSH2 0x11FC DUP4 ADDRESS CALLER DUP8 PUSH2 0x1A62 JUMP JUMPDEST PUSH1 0x1 DUP1 PUSH1 0xA0 SHL SUB PUSH1 0x1 SLOAD AND PUSH1 0x0 MSTORE PUSH1 0x5 PUSH1 0x20 MSTORE PUSH1 0x40 PUSH1 0x0 KECCAK256 PUSH2 0x121F DUP3 DUP3 SLOAD PUSH2 0xE0E JUMP JUMPDEST SWAP1 SSTORE PUSH1 0x1 SLOAD PUSH1 0x1 PUSH1 0x1 PUSH1 0xA0 SHL SUB AND PUSH1 0x0 DUP2 DUP2 MSTORE PUSH1 0x5 PUSH1 0x20 MSTORE PUSH1 0x40 SWAP1 KECCAK256 SLOAD PUSH1 0x6 SLOAD SWAP2 SWAP4 SWAP2 GT ISZERO PUSH2 0x12B7 JUMPI JUMPDEST PUSH32 0x28C738DBEC11A1BED94BA127A3712D54BCD39CF4AE95B6EBD671AAF10FD0287B SWAP3 POP PUSH2 0x1280 PUSH1 0x0 DUP1 DUP1 DUP1 DUP6 CALLER GAS CALL PUSH2 0x778 PUSH2 0xF6F JUMP JUMPDEST CALLER PUSH1 0x0 MSTORE PUSH1 0x4 PUSH1 0x20 MSTORE TIMESTAMP PUSH1 0x40 PUSH1 0x0 KECCAK256 SSTORE PUSH2 0x12B2 PUSH1 0x40 MLOAD SWAP3 DUP4 SWAP3 CALLER SWAP7 DUP5 PUSH1 0x40 SWAP2 SWAP5 SWAP4 SWAP3 PUSH1 0x60 DUP3 ADD SWAP6 DUP3 MSTORE PUSH1 0x20 DUP3 ADD MSTORE ADD MSTORE JUMP JUMPDEST SUB SWAP1 LOG3 JUMP JUMPDEST PUSH1 0x2 SLOAD PUSH1 0x1 PUSH1 0x1 PUSH1 0xA0 SHL SUB AND SWAP3 DUP4 EXTCODESIZE ISZERO PUSH2 0x23F JUMPI PUSH1 0x0 SWAP4 PUSH1 0x24 DUP6 SWAP3 PUSH1 0x40 MLOAD SWAP7 DUP8 SWAP4 DUP5 SWAP3 PUSH4 0xBC99F487 PUSH1 0xE0 SHL DUP5 MSTORE PUSH1 0x4 DUP5 ADD MSTORE GAS CALL SWAP3 DUP4 ISZERO PUSH2 0x881 JUMPI PUSH32 0x28C738DBEC11A1BED94BA127A3712D54BCD39CF4AE95B6EBD671AAF10FD0287B SWAP4 PUSH2 0x131F JUMPI JUMPDEST POP PUSH2 0x1249 JUMP JUMPDEST PUSH1 0x0 PUSH2 0x132A SWAP2 PUSH2 0xF37 JUMP JUMPDEST CODESIZE PUSH2 0x1319 JUMP JUMPDEST SWAP4 SWAP6 SWAP5 SWAP1 SWAP4 PUSH1 0x0 SWAP4 POP SWAP2 POP PUSH32 0x0 DUP7 JUMPDEST PUSH2 0x1374 JUMPI POP POP POP PUSH2 0x1372 SWAP3 SWAP4 POP LT ISZERO PUSH2 0x10A2 JUMP JUMPDEST JUMP JUMPDEST SWAP1 SWAP2 SWAP3 PUSH9 0x3635C9ADC5DEA00000 DUP8 GT PUSH1 0x0 EQ PUSH2 0x170E JUMPI PUSH9 0x3635C9ADC5DEA00000 JUMPDEST PUSH2 0x13A3 PUSH1 0x7 SLOAD DUP7 GT ISZERO PUSH2 0x10A2 JUMP JUMPDEST DUP5 ISZERO PUSH2 0x1708 JUMPI DUP5 JUMPDEST DUP4 DUP2 LT PUSH2 0x16D0 JUMPI PUSH1 0x40 MLOAD PUSH4 0x6EB1769F PUSH1 0xE1 SHL DUP2 MSTORE CALLER PUSH1 0x4 DUP3 ADD MSTORE ADDRESS PUSH1 0x24 DUP3 ADD MSTORE PUSH1 0x20 DUP2 PUSH1 0x44 DUP2 DUP10 GAS STATICCALL DUP1 ISZERO PUSH2 0x881 JUMPI DUP4 SWAP2 PUSH1 0x0 SWAP2 PUSH2 0x1699 JUMPI JUMPDEST POP LT PUSH2 0x1648 JUMPI PUSH1 0x2 SLOAD PUSH1 0x40 DUP1 MLOAD PUSH4 0xFA67079 PUSH1 0xE2 SHL DUP2 MSTORE PUSH1 0x4 DUP2 ADD DUP9 SWAP1 MSTORE SWAP2 DUP3 SWAP1 PUSH1 0x24 SWAP1 DUP3 SWAP1 PUSH1 0x1 PUSH1 0x1 PUSH1 0xA0 SHL SUB AND GAS STATICCALL DUP1 ISZERO PUSH2 0x881 JUMPI PUSH1 0x0 SWAP2 DUP3 SWAP2 PUSH2 0x1618 JUMPI JUMPDEST POP PUSH2 0x1432 DUP3 DUP6 GT ISZERO PUSH2 0x1056 JUMP JUMPDEST DUP4 DUP2 GT ISZERO PUSH2 0x15D3 JUMPI PUSH2 0x2710 PUSH2 0x1456 PUSH2 0x144F PUSH2 0x145D SWAP4 DUP11 SWAP6 DUP9 PUSH2 0xE1B JUMP JUMPDEST SWAP5 DUP6 PUSH2 0xDE5 JUMP JUMPDEST DIV DUP4 PUSH2 0xF2A JUMP JUMPDEST SWAP2 PUSH2 0x147C PUSH2 0x1473 PUSH2 0x2710 PUSH2 0x11D5 PUSH1 0x3 SLOAD DUP6 PUSH2 0xDE5 JUMP JUMPDEST SWAP4 DUP5 LT ISZERO PUSH2 0x10A2 JUMP JUMPDEST PUSH2 0x1488 DUP4 SELFBALANCE LT ISZERO PUSH2 0xFFB JUMP JUMPDEST PUSH2 0x1494 DUP5 ADDRESS CALLER DUP6 PUSH2 0x1A62 JUMP JUMPDEST PUSH2 0x14A8 PUSH1 0x0 DUP1 DUP1 DUP1 DUP8 CALLER GAS CALL PUSH2 0x778 PUSH2 0xF6F JUMP JUMPDEST PUSH1 0x1 DUP1 PUSH1 0xA0 SHL SUB PUSH1 0x1 SLOAD AND PUSH1 0x0 MSTORE PUSH1 0x5 PUSH1 0x20 MSTORE PUSH1 0x40 PUSH1 0x0 KECCAK256 PUSH2 0x14CB DUP3 DUP3 SLOAD PUSH2 0xE0E JUMP JUMPDEST SWAP1 SSTORE PUSH1 0x1 SLOAD PUSH1 0x1 PUSH1 0x1 PUSH1 0xA0 SHL SUB AND PUSH1 0x0 DUP2 DUP2 MSTORE PUSH1 0x5 PUSH1 0x20 MSTORE PUSH1 0x40 SWAP1 KECCAK256 SLOAD PUSH1 0x6 SLOAD GT ISZERO PUSH2 0x1568 JUMPI JUMPDEST POP SWAP4 PUSH2 0x1558 SWAP3 SWAP2 PUSH2 0x155E SWAP6 CALLER PUSH1 0x0 MSTORE PUSH1 0x4 PUSH1 0x20 MSTORE TIMESTAMP PUSH1 0x40 PUSH1 0x0 KECCAK256 SSTORE PUSH32 0x28C738DBEC11A1BED94BA127A3712D54BCD39CF4AE95B6EBD671AAF10FD0287B PUSH1 0x40 MLOAD DUP1 PUSH2 0x1550 CALLER SWAP5 DUP9 DUP12 DUP5 PUSH1 0x40 SWAP2 SWAP5 SWAP4 SWAP3 PUSH1 0x60 DUP3 ADD SWAP6 DUP3 MSTORE PUSH1 0x20 DUP3 ADD MSTORE ADD MSTORE JUMP JUMPDEST SUB SWAP1 LOG3 PUSH2 0xE0E JUMP JUMPDEST SWAP8 PUSH2 0xF2A JUMP JUMPDEST SWAP6 SWAP3 SWAP2 SWAP1 DUP7 PUSH2 0x135E JUMP JUMPDEST PUSH1 0x2 SLOAD SWAP2 SWAP6 PUSH1 0x1 PUSH1 0x1 PUSH1 0xA0 SHL SUB SWAP1 SWAP3 AND SWAP4 SWAP3 POP DUP4 EXTCODESIZE ISZERO PUSH2 0x23F JUMPI PUSH1 0x0 SWAP4 PUSH1 0x24 DUP6 SWAP3 PUSH1 0x40 MLOAD SWAP7 DUP8 SWAP4 DUP5 SWAP3 PUSH4 0xBC99F487 PUSH1 0xE0 SHL DUP5 MSTORE PUSH1 0x4 DUP5 ADD MSTORE GAS CALL DUP1 ISZERO PUSH2 0x881 JUMPI PUSH2 0x155E SWAP6 PUSH2 0x1558 SWAP5 DUP10 SWAP3 PUSH2 0x15C2 JUMPI JUMPDEST POP SWAP2 SWAP6 POP SWAP2 SWAP3 PUSH2 0x14F2 JUMP JUMPDEST PUSH1 0x0 PUSH2 0x15CD SWAP2 PUSH2 0xF37 JUMP JUMPDEST CODESIZE PUSH2 0x15B7 JUMP JUMPDEST PUSH1 0x40 MLOAD PUSH3 0x461BCD PUSH1 0xE5 SHL DUP2 MSTORE PUSH1 0x20 PUSH1 0x4 DUP3 ADD MSTORE PUSH1 0x1E PUSH1 0x24 DUP3 ADD MSTORE PUSH32 0x496E73756666696369656E74205320746F6B656E206C69717569646974790000 PUSH1 0x44 DUP3 ADD MSTORE PUSH1 0x64 SWAP1 REVERT JUMPDEST SWAP1 POP PUSH2 0x163B SWAP2 POP PUSH1 0x40 RETURNDATASIZE DUP2 GT PUSH2 0x1641 JUMPI JUMPDEST PUSH2 0x1633 DUP2 DUP4 PUSH2 0xF37 JUMP JUMPDEST DUP2 ADD SWAP1 PUSH2 0x1040 JUMP JUMPDEST CODESIZE PUSH2 0x1425 JUMP JUMPDEST POP RETURNDATASIZE PUSH2 0x1629 JUMP JUMPDEST PUSH1 0x40 MLOAD PUSH3 0x461BCD PUSH1 0xE5 SHL DUP2 MSTORE PUSH1 0x20 PUSH1 0x4 DUP3 ADD MSTORE PUSH1 0x24 DUP1 DUP3 ADD MSTORE PUSH32 0x496E73756666696369656E742063726561746F7220746F6B656E20616C6C6F77 PUSH1 0x44 DUP3 ADD MSTORE PUSH4 0x616E6365 PUSH1 0xE0 SHL PUSH1 0x64 DUP3 ADD MSTORE PUSH1 0x84 SWAP1 REVERT JUMPDEST SWAP2 POP PUSH1 0x20 DUP3 RETURNDATASIZE DUP3 GT PUSH2 0x16C8 JUMPI JUMPDEST DUP2 PUSH2 0x16B3 PUSH1 0x20 SWAP4 DUP4 PUSH2 0xF37 JUMP JUMPDEST DUP2 ADD SUB SLT PUSH2 0x16C5 JUMPI POP DUP3 SWAP1 MLOAD CODESIZE PUSH2 0x13E4 JUMP JUMPDEST DUP1 REVERT JUMPDEST RETURNDATASIZE SWAP2 POP PUSH2 0x16A6 JUMP JUMPDEST PUSH1 0x40 MLOAD PUSH3 0x461BCD PUSH1 0xE5 SHL DUP2 MSTORE PUSH1 0x20 PUSH1 0x4 DUP3 ADD MSTORE PUSH1 0x10 PUSH1 0x24 DUP3 ADD MSTORE PUSH16 0x496E76616C696420736C697070616765 PUSH1 0x80 SHL PUSH1 0x44 DUP3 ADD MSTORE PUSH1 0x64 SWAP1 REVERT JUMPDEST DUP3 PUSH2 0x13AB JUMP JUMPDEST DUP7 PUSH2 0x1395 JUMP JUMPDEST PUSH1 0x40 MLOAD PUSH3 0x461BCD PUSH1 0xE5 SHL DUP2 MSTORE PUSH1 0x20 PUSH1 0x4 DUP3 ADD MSTORE PUSH1 0x14 PUSH1 0x24 DUP3 ADD MSTORE PUSH20 0x496E73756666696369656E742062616C616E6365 PUSH1 0x60 SHL PUSH1 0x44 DUP3 ADD MSTORE PUSH1 0x64 SWAP1 REVERT JUMPDEST SWAP2 POP POP PUSH1 0x20 DUP2 RETURNDATASIZE PUSH1 0x20 GT PUSH2 0x177D JUMPI JUMPDEST DUP2 PUSH2 0x176C PUSH1 0x20 SWAP4 DUP4 PUSH2 0xF37 JUMP JUMPDEST DUP2 ADD SUB SLT PUSH2 0x23F JUMPI DUP6 SWAP1 MLOAD CODESIZE PUSH2 0x11A6 JUMP JUMPDEST RETURNDATASIZE SWAP2 POP PUSH2 0x175F JUMP JUMPDEST PUSH1 0x40 MLOAD PUSH3 0x461BCD PUSH1 0xE5 SHL DUP2 MSTORE PUSH1 0x20 PUSH1 0x4 DUP3 ADD MSTORE PUSH1 0xE PUSH1 0x24 DUP3 ADD MSTORE PUSH14 0x125B9D985B1A5908185B5BDD5B9D PUSH1 0x92 SHL PUSH1 0x44 DUP3 ADD MSTORE PUSH1 0x64 SWAP1 REVERT JUMPDEST PUSH1 0x40 MLOAD PUSH3 0x461BCD PUSH1 0xE5 SHL DUP2 MSTORE PUSH1 0x20 PUSH1 0x4 DUP3 ADD MSTORE PUSH1 0xE PUSH1 0x24 DUP3 ADD MSTORE PUSH14 0x5377617020746F6F206C61726765 PUSH1 0x90 SHL PUSH1 0x44 DUP3 ADD MSTORE PUSH1 0x64 SWAP1 REVERT JUMPDEST PUSH1 0x40 MLOAD PUSH3 0x461BCD PUSH1 0xE5 SHL DUP2 MSTORE PUSH1 0x20 PUSH1 0x4 DUP3 ADD MSTORE PUSH1 0x14 PUSH1 0x24 DUP3 ADD MSTORE PUSH20 0x4E6F205320746F6B656E206C6971756964697479 PUSH1 0x60 SHL PUSH1 0x44 DUP3 ADD MSTORE PUSH1 0x64 SWAP1 REVERT JUMPDEST SWAP1 POP PUSH2 0x1848 SWAP2 POP PUSH1 0x40 RETURNDATASIZE PUSH1 0x40 GT PUSH2 0x1641 JUMPI PUSH2 0x1633 DUP2 DUP4 PUSH2 0xF37 JUMP JUMPDEST CODESIZE PUSH2 0x1145 JUMP JUMPDEST PUSH1 0x40 MLOAD PUSH3 0x461BCD PUSH1 0xE5 SHL DUP2 MSTORE PUSH1 0x20 PUSH1 0x4 DUP3 ADD MSTORE PUSH1 0xE PUSH1 0x24 DUP3 ADD MSTORE PUSH14 0x546F6F206D616E79207377617073 PUSH1 0x90 SHL PUSH1 0x44 DUP3 ADD MSTORE PUSH1 0x64 SWAP1 REVERT JUMPDEST PUSH1 0x40 MLOAD SWAP1 PUSH2 0x1893 PUSH1 0x40 DUP4 PUSH2 0xF37 JUMP JUMPDEST PUSH1 0x1C DUP3 MSTORE PUSH32 0x4E657720736C6970706167652073616D652061732063757272656E7400000000 PUSH1 0x20 DUP4 ADD MSTORE JUMP JUMPDEST PUSH1 0x40 MLOAD SWAP1 PUSH2 0x18CE PUSH1 0x40 DUP4 PUSH2 0xF37 JUMP JUMPDEST PUSH1 0x1C DUP3 MSTORE PUSH32 0x43616E6E6F74206265206C6F776572207468616E2064656661756C7400000000 PUSH1 0x20 DUP4 ADD MSTORE JUMP JUMPDEST PUSH1 0x40 MLOAD SWAP1 PUSH2 0x1909 PUSH1 0x40 DUP4 PUSH2 0xF37 JUMP JUMPDEST PUSH1 0x11 DUP3 MSTORE PUSH17 0x43616E6E6F742065786365656420323025 PUSH1 0x78 SHL PUSH1 0x20 DUP4 ADD MSTORE JUMP JUMPDEST PUSH1 0x7 SLOAD DUP2 EQ PUSH2 0x198F JUMPI PUSH32 0x0 DUP2 LT PUSH2 0x1986 JUMPI PUSH2 0x7D0 LT PUSH2 0x1979 JUMPI PUSH1 0x1 SWAP1 PUSH1 0x40 MLOAD PUSH2 0x1972 PUSH1 0x20 DUP3 PUSH2 0xF37 JUMP JUMPDEST PUSH1 0x0 DUP2 MSTORE SWAP1 JUMP JUMPDEST PUSH2 0x1981 PUSH2 0x18FA JUMP JUMPDEST PUSH1 0x0 SWAP2 JUMP JUMPDEST POP PUSH2 0x1981 PUSH2 0x18BF JUMP JUMPDEST POP PUSH2 0x1981 PUSH2 0x1884 JUMP JUMPDEST ISZERO PUSH2 0x19A0 JUMPI POP JUMP JUMPDEST PUSH1 0x40 MLOAD PUSH3 0x461BCD PUSH1 0xE5 SHL DUP2 MSTORE PUSH1 0x20 PUSH1 0x4 DUP3 ADD MSTORE SWAP1 DUP2 SWAP1 PUSH2 0x19C4 SWAP1 PUSH1 0x24 DUP4 ADD SWAP1 PUSH2 0xDA4 JUMP JUMPDEST SUB SWAP1 REVERT JUMPDEST PUSH1 0x0 SLOAD PUSH1 0x1 PUSH1 0x1 PUSH1 0xA0 SHL SUB AND CALLER SUB PUSH2 0x19DC JUMPI JUMP JUMPDEST PUSH4 0x118CDAA7 PUSH1 0xE0 SHL PUSH1 0x0 MSTORE CALLER PUSH1 0x4 MSTORE PUSH1 0x24 PUSH1 0x0 REVERT JUMPDEST PUSH1 0x1 PUSH1 0x1 PUSH1 0xA0 SHL SUB AND DUP1 ISZERO SWAP1 DUP2 ISZERO PUSH2 0x1A07 JUMPI POP SWAP1 JUMP JUMPDEST PUSH20 0xEEEEEEEEEEEEEEEEEEEEEEEEEEEEEEEEEEEEEEEE SWAP2 POP EQ SWAP1 JUMP JUMPDEST PUSH1 0x40 MLOAD PUSH4 0xA9059CBB PUSH1 0xE0 SHL PUSH1 0x20 DUP3 ADD MSTORE PUSH1 0x1 PUSH1 0x1 PUSH1 0xA0 SHL SUB SWAP1 SWAP3 AND PUSH1 0x24 DUP4 ADD MSTORE PUSH1 0x44 DUP1 DUP4 ADD SWAP4 SWAP1 SWAP4 MSTORE SWAP2 DUP2 MSTORE PUSH2 0x1372 SWAP2 PUSH2 0x1A5D PUSH1 0x64 DUP4 PUSH2 0xF37 JUMP JUMPDEST PUSH2 0x1AA6 JUMP JUMPDEST PUSH1 0x40 MLOAD PUSH4 0x23B872DD PUSH1 0xE0 SHL PUSH1 0x20 DUP3 ADD MSTORE PUSH1 0x1 PUSH1 0x1 PUSH1 0xA0 SHL SUB SWAP3 DUP4 AND PUSH1 0x24 DUP3 ADD MSTORE SWAP3 SWAP1 SWAP2 AND PUSH1 0x44 DUP4 ADD MSTORE PUSH1 0x64 DUP1 DUP4 ADD SWAP4 SWAP1 SWAP4 MSTORE SWAP2 DUP2 MSTORE PUSH2 0x1372 SWAP2 PUSH2 0x1A5D PUSH1 0x84 DUP4 PUSH2 0xF37 JUMP JUMPDEST SWAP1 PUSH1 0x0 PUSH1 0x20 SWAP2 DUP3 DUP2 MLOAD SWAP2 ADD DUP3 DUP6 GAS CALL ISZERO PUSH2 0x881 JUMPI PUSH1 0x0 MLOAD RETURNDATASIZE PUSH2 0x1AF8 JUMPI POP PUSH1 0x1 PUSH1 0x1 PUSH1 0xA0 SHL SUB DUP2 AND EXTCODESIZE ISZERO JUMPDEST PUSH2 0x1AD7 JUMPI POP JUMP JUMPDEST PUSH4 0x5274AFE7 PUSH1 0xE0 SHL PUSH1 0x0 SWAP1 DUP2 MSTORE PUSH1 0x1 PUSH1 0x1 PUSH1 0xA0 SHL SUB SWAP2 SWAP1 SWAP2 AND PUSH1 0x4 MSTORE PUSH1 0x24 SWAP1 REVERT JUMPDEST PUSH1 0x1 EQ ISZERO PUSH2 0x1AD0 JUMP INVALID LOG2 PUSH5 0x6970667358 0x22 SLT KECCAK256 PUSH23 0x687DA6740D8D7EB7F412F79F4015426AF1A02CA243FFC7 SMOD PREVRANDAO BLOCKHASH DUP12 NOT PUSH2 0xEF3E PUSH5 0x736F6C6343 STOP ADDMOD SHR STOP CALLER "},"methodIdentifiers":{"ABSOLUTE_MAX_SLIPPAGE()":"e7b0444c","AUTO_REDEPLOY_THRESHOLD()":"90cd3694","DEFAULT_MAX_SLIPPAGE()":"85015e09","MAXIMUM_ALLOWED_SLIPPAGE()":"8ac058cc","MAX_SINGLE_SWAP()":"6604b53a","MAX_SWAP_AMOUNT_PERCENT()":"d855dc7e","MIN_LIQUIDITY()":"21b77d63","MIN_TIME_BETWEEN_SWAPS()":"11a9992e","emergencyWithdraw(address,uint256,address)":"551512de","getAmountOut(uint256,uint256,uint256)":"054d50d4","getFeeRate()":"84e5eed0","getPauseStatus()":"1d9023cb","getSlippageSettings()":"c54e1d38","lastPauseTimestamp()":"9a5901de","lastSwapTimestamp(address)":"02e9d3e8","liquidityManager()":"33827438","owner()":"8da5cb5b","pause()":"8456cb59","paused()":"5c975abb","renounceOwnership()":"715018a6","sonicToken()":"461a3a95","storedFees(address)":"125c1204","swapCreatorTokenForS(address,uint256,uint256,uint256)":"6611cb36","swapFee()":"54cf2aeb","transferOwnership(address)":"f2fde38b","unpause()":"3f4ba83a","updateAutoRedeployThreshold(uint256)":"074872c9","updateLiquidityManager(address)":"206f248d","updateMaxSlippage(uint256)":"f896acc7","updateSwapFee(uint256)":"bf16f65a","validateSlippage(uint256)":"f2c75fa0","withdrawStoredFees(address,uint256)":"13079df5"}},"storageLayout":{"storage":[{"astId":387,"contract":"contracts/SaraDEX.sol:SaraDEX","label":"_owner","offset":0,"slot":"0","type":"t_address"},{"astId":1183,"contract":"contracts/SaraDEX.sol:SaraDEX","label":"sonicToken","offset":0,"slot":"1","type":"t_address"},{"astId":1186,"contract":"contracts/SaraDEX.sol:SaraDEX","label":"liquidityManager","offset":0,"slot":"2","type":"t_contract(SaraLiquidityManager)4393"},{"astId":1189,"contract":"contracts/SaraDEX.sol:SaraDEX","label":"swapFee","offset":0,"slot":"3","type":"t_uint256"},{"astId":1193,"contract":"contracts/SaraDEX.sol:SaraDEX","label":"lastSwapTimestamp","offset":0,"slot":"4","type":"t_mapping(t_address,t_uint256)"},{"astId":1203,"contract":"contracts/SaraDEX.sol:SaraDEX","label":"storedFees","offset":0,"slot":"5","type":"t_mapping(t_address,t_uint256)"},{"astId":1213,"contract":"contracts/SaraDEX.sol:SaraDEX","label":"AUTO_REDEPLOY_THRESHOLD","offset":0,"slot":"6","type":"t_uint256"},{"astId":1219,"contract":"contracts/SaraDEX.sol:SaraDEX","label":"ABSOLUTE_MAX_SLIPPAGE","offset":0,"slot":"7","type":"t_uint256"},{"astId":1291,"contract":"contracts/SaraDEX.sol:SaraDEX","label":"paused","offset":0,"slot":"8","type":"t_bool"},{"astId":1293,"contract":"contracts/SaraDEX.sol:SaraDEX","label":"lastPauseTimestamp","offset":0,"slot":"9","type":"t_uint256"}],"types":{"t_address":{"encoding":"inplace","label":"address","numberOfBytes":"20"},"t_bool":{"encoding":"inplace","label":"bool","numberOfBytes":"1"},"t_contract(SaraLiquidityManager)4393":{"encoding":"inplace","label":"contract SaraLiquidityManager","numberOfBytes":"20"},"t_mapping(t_address,t_uint256)":{"encoding":"mapping","key":"t_address","label":"mapping(address => uint256)","numberOfBytes":"32","value":"t_uint256"},"t_uint256":{"encoding":"inplace","label":"uint256","numberOfBytes":"32"}}}}}}