{"contracts/SaraDEX.sol":{"SaraDEX":{"abi":[{"inputs":[{"internalType":"address","name":"_sonicToken","type":"address"},{"internalType":"address","name":"_liquidityManager","type":"address"}],"stateMutability":"nonpayable","type":"constructor"},{"inputs":[{"internalType":"address","name":"owner","type":"address"}],"name":"OwnableInvalidOwner","type":"error"},{"inputs":[{"internalType":"address","name":"account","type":"address"}],"name":"OwnableUnauthorizedAccount","type":"error"},{"inputs":[{"internalType":"address","name":"token","type":"address"}],"name":"SafeERC20FailedOperation","type":"error"},{"anonymous":false,"inputs":[{"indexed":true,"internalType":"address","name":"token","type":"address"},{"indexed":false,"internalType":"uint256","name":"amount","type":"uint256"}],"name":"FeesWithdrawn","type":"event"},{"anonymous":false,"inputs":[{"indexed":false,"internalType":"uint256","name":"oldSlippage","type":"uint256"},{"indexed":false,"internalType":"uint256","name":"newSlippage","type":"uint256"},{"indexed":true,"internalType":"address","name":"updater","type":"address"}],"name":"MaxSlippageUpdated","type":"event"},{"anonymous":false,"inputs":[{"indexed":true,"internalType":"address","name":"previousOwner","type":"address"},{"indexed":true,"internalType":"address","name":"newOwner","type":"address"}],"name":"OwnershipTransferred","type":"event"},{"anonymous":false,"inputs":[{"indexed":true,"internalType":"address","name":"user","type":"address"},{"indexed":true,"internalType":"address","name":"creatorToken","type":"address"},{"indexed":false,"internalType":"uint256","name":"amountIn","type":"uint256"},{"indexed":false,"internalType":"uint256","name":"amountOut","type":"uint256"},{"indexed":false,"internalType":"uint256","name":"fee","type":"uint256"}],"name":"SwapExecuted","type":"event"},{"inputs":[],"name":"ABSOLUTE_MAX_SLIPPAGE","outputs":[{"internalType":"uint256","name":"","type":"uint256"}],"stateMutability":"view","type":"function"},{"inputs":[],"name":"AUTO_REDEPLOY_THRESHOLD","outputs":[{"internalType":"uint256","name":"","type":"uint256"}],"stateMutability":"view","type":"function"},{"inputs":[],"name":"DEFAULT_MAX_SLIPPAGE","outputs":[{"internalType":"uint256","name":"","type":"uint256"}],"stateMutability":"view","type":"function"},{"inputs":[],"name":"MAXIMUM_ALLOWED_SLIPPAGE","outputs":[{"internalType":"uint256","name":"","type":"uint256"}],"stateMutability":"view","type":"function"},{"inputs":[],"name":"MAX_SINGLE_SWAP","outputs":[{"internalType":"uint256","name":"","type":"uint256"}],"stateMutability":"view","type":"function"},{"inputs":[],"name":"MAX_SWAP_AMOUNT_PERCENT","outputs":[{"internalType":"uint256","name":"","type":"uint256"}],"stateMutability":"view","type":"function"},{"inputs":[],"name":"MIN_TIME_BETWEEN_SWAPS","outputs":[{"internalType":"uint256","name":"","type":"uint256"}],"stateMutability":"view","type":"function"},{"inputs":[{"internalType":"uint256","name":"amountIn","type":"uint256"},{"internalType":"uint256","name":"reserveIn","type":"uint256"},{"internalType":"uint256","name":"reserveOut","type":"uint256"}],"name":"getAmountOut","outputs":[{"internalType":"uint256","name":"","type":"uint256"}],"stateMutability":"pure","type":"function"},{"inputs":[],"name":"getSlippageSettings","outputs":[{"internalType":"uint256","name":"defaultSlippage","type":"uint256"},{"internalType":"uint256","name":"currentMaxSlippage","type":"uint256"},{"internalType":"uint256","name":"absoluteMaximum","type":"uint256"}],"stateMutability":"view","type":"function"},{"inputs":[{"internalType":"address","name":"","type":"address"}],"name":"lastSwapTimestamp","outputs":[{"internalType":"uint256","name":"","type":"uint256"}],"stateMutability":"view","type":"function"},{"inputs":[],"name":"liquidityManager","outputs":[{"internalType":"contract SaraLiquidityManager","name":"","type":"address"}],"stateMutability":"view","type":"function"},{"inputs":[],"name":"owner","outputs":[{"internalType":"address","name":"","type":"address"}],"stateMutability":"view","type":"function"},{"inputs":[],"name":"renounceOwnership","outputs":[],"stateMutability":"nonpayable","type":"function"},{"inputs":[],"name":"sonicToken","outputs":[{"internalType":"address","name":"","type":"address"}],"stateMutability":"view","type":"function"},{"inputs":[{"internalType":"address","name":"","type":"address"}],"name":"storedFees","outputs":[{"internalType":"uint256","name":"","type":"uint256"}],"stateMutability":"view","type":"function"},{"inputs":[{"internalType":"address","name":"creatorToken","type":"address"},{"internalType":"uint256","name":"amountIn","type":"uint256"},{"internalType":"uint256","name":"minAmountOut","type":"uint256"},{"internalType":"uint256","name":"maxSlippage","type":"uint256"}],"name":"swapCreatorTokenForS","outputs":[],"stateMutability":"nonpayable","type":"function"},{"inputs":[],"name":"swapFee","outputs":[{"internalType":"uint256","name":"","type":"uint256"}],"stateMutability":"view","type":"function"},{"inputs":[{"internalType":"address","name":"newOwner","type":"address"}],"name":"transferOwnership","outputs":[],"stateMutability":"nonpayable","type":"function"},{"inputs":[{"internalType":"uint256","name":"newMaxSlippage","type":"uint256"}],"name":"updateMaxSlippage","outputs":[],"stateMutability":"nonpayable","type":"function"},{"inputs":[{"internalType":"uint256","name":"slippage","type":"uint256"}],"name":"validateSlippage","outputs":[{"internalType":"bool","name":"","type":"bool"},{"internalType":"string","name":"","type":"string"}],"stateMutability":"view","type":"function"},{"inputs":[{"internalType":"address","name":"token","type":"address"},{"internalType":"uint256","name":"amount","type":"uint256"}],"name":"withdrawStoredFees","outputs":[],"stateMutability":"nonpayable","type":"function"}],"evm":{"bytecode":{"linkReferences":{},"object":"60a03461012f57601f61142238819003918201601f19168301916001600160401b0383118484101761013457808492604094855283398101031261012f57610052602061004b8361014a565b920161014a565b33156101195760008054336001600160a01b0319821681178355604051949290916001600160a01b0316907f8be0079c531659141344cd1fd0a4f28419497f9722a3daafe3b4186f6b6457e09080a3601e6003556101f46080526103e8600655600180546001600160a01b039283166001600160a01b031991821617909155600280549390921692169190911790556112c3908161015f82396080518181816101a701528181610362015281816103f501528181610c1301528181610dc2015261120d0152f35b631e4fbdf760e01b600052600060045260246000fd5b600080fd5b634e487b7160e01b600052604160045260246000fd5b51906001600160a01b038216820361012f5756fe608080604052600436101561001357600080fd5b60003560e01c90816302e9d3e81461066c57508063054d50d41461064057806311a9992e14610624578063125c1204146105ea57806313079df51461051057806333827438146104e7578063461a3a95146104be57806354cf2aeb146104a05780636604b53a146103925780636611cb3614610471578063715018a61461041857806385015e09146103dd5780638ac058cc146103c05780638da5cb5b1461039757806390cd369414610392578063c54e1d3814610346578063d855dc7e1461032a578063e7b0444c1461030c578063f2c75fa0146102cd578063f2fde38b146102445763f896acc71461010657600080fd5b3461023f57602036600319011261023f57600435610122610d3b565b6006549061016a60405161013760408261084a565b601c81527f4e657720736c6970706167652073616d652061732063757272656e7400000000602082015283831415610d0b565b6101ce60405161017b60408261084a565b601c81527f43616e6e6f74206265206c6f776572207468616e2064656661756c740000000060208201527f0000000000000000000000000000000000000000000000000000000000000000831015610d0b565b6102086040516101df60408261084a565b601181527043616e6e6f74206578636565642032302560781b60208201526107d0831115610d0b565b8060065560405191825260208201527f701caa0f8ada7952fb1d301bdfc04ed8b66396fe0181a18d0f2fe16ea0af154760403392a2005b600080fd5b3461023f57602036600319011261023f5761025d6106a2565b610265610d3b565b6001600160a01b031680156102b757600080546001600160a01b03198116831782556001600160a01b0316907f8be0079c531659141344cd1fd0a4f28419497f9722a3daafe3b4186f6b6457e09080a3005b631e4fbdf760e01b600052600060045260246000fd5b3461023f57602036600319011261023f576102e9600435610c08565b90610308604051928392151583526040602084015260408301906106dc565b0390f35b3461023f57600036600319011261023f576020600654604051908152f35b3461023f57600036600319011261023f57602060405160058152f35b3461023f57600036600319011261023f576060600654604051907f0000000000000000000000000000000000000000000000000000000000000000825260208201526107d06040820152f35b6106b8565b3461023f57600036600319011261023f576000546040516001600160a01b039091168152602090f35b3461023f57600036600319011261023f5760206040516107d08152f35b3461023f57600036600319011261023f5760206040517f00000000000000000000000000000000000000000000000000000000000000008152f35b3461023f57600036600319011261023f57610431610d3b565b600080546001600160a01b0319811682556001600160a01b03167f8be0079c531659141344cd1fd0a4f28419497f9722a3daafe3b4186f6b6457e08280a3005b3461023f57608036600319011261023f5761049e61048d6106a2565b606435906044359060243590610924565b005b3461023f57600036600319011261023f576020600354604051908152f35b3461023f57600036600319011261023f576001546040516001600160a01b039091168152602090f35b3461023f57600036600319011261023f576002546040516001600160a01b039091168152602090f35b3461023f57604036600319011261023f576105296106a2565b60243590610535610d3b565b60018060a01b03169081600052600560205280604060002054106105a55760207fc0819c13be868895eb93e40eaceb96de976442fa1d404e5c55f14bb65a8c489a918360005260058252604060002061058f82825461083d565b905561059c813386610d64565b604051908152a2005b60405162461bcd60e51b815260206004820152601860248201527f496e73756666696369656e742073746f726564206665657300000000000000006044820152606490fd5b3461023f57602036600319011261023f576001600160a01b0361060b6106a2565b1660005260056020526020604060002054604051908152f35b3461023f57600036600319011261023f576020604051603c8152f35b3461023f57606036600319011261023f576020610664604435602435600435610753565b604051908152f35b3461023f57602036600319011261023f576020906001600160a01b036106906106a2565b16600052600482526040600020548152f35b600435906001600160a01b038216820361023f57565b3461023f57600036600319011261023f576020604051683635c9adc5dea000008152f35b919082519283825260005b848110610708575050826000602080949584010152601f8019910116010190565b806020809284010151828286010152016106e7565b8181029291811591840414171561073057565b634e487b7160e01b600052601160045260246000fd5b9190820180921161073057565b8015610801578115928315806107f8575b156107c0576103e582029182046103e50361073057610783908261071d565b926103e883029283046103e81417156107305761079f91610746565b9081156107aa570490565b634e487b7160e01b600052601260045260246000fd5b60405162461bcd60e51b815260206004820152601060248201526f496e76616c696420726573657276657360801b6044820152606490fd5b50801515610764565b60405162461bcd60e51b8152602060048201526014602482015273125b9d985b1a59081a5b9c1d5d08185b5bdd5b9d60621b6044820152606490fd5b9190820391821161073057565b90601f8019910116810190811067ffffffffffffffff82111761086c57604052565b634e487b7160e01b600052604160045260246000fd5b919082604091031261023f576020825192015190565b1561089f57565b60405162461bcd60e51b815260206004820152601e60248201527f496e73756666696369656e74206c697175696469747920696e20706f6f6c00006044820152606490fd5b156108eb57565b60405162461bcd60e51b81526020600482015260116024820152700a6d8d2e0e0c2ceca40e8dede40d0d2ced607b1b6044820152606490fd5b9091939293336000526004602052604060002054603c8101809111610730574210610bd25760025460408051630fa6707960e21b81526001600160a01b03858116600483018190529391929183916024918391165afa8015610aed576000918291610ba1575b5061099782871115610898565b15610b655760058102908082046005149015171561073057606490048411610b2f578315610af9576020602491604051928380926370a0823160e01b82523360048301525afa8015610aed578491600091610ab8575b5010610a7c57683635c9adc5dea000008311610a13575090610a10929391610da4565b50565b91600091815b610a2e575050610a2c92935010156108e4565b565b9091610a6b90683635c9adc5dea00000841115610a7257610a65683635c9adc5dea00000915b610a5f898487610da4565b90610746565b9361083d565b9081610a19565b610a658491610a54565b60405162461bcd60e51b8152602060048201526014602482015273496e73756666696369656e742062616c616e636560601b6044820152606490fd5b9150506020813d602011610ae5575b81610ad46020938361084a565b8101031261023f57839051386109ed565b3d9150610ac7565b6040513d6000823e3d90fd5b60405162461bcd60e51b815260206004820152600e60248201526d125b9d985b1a5908185b5bdd5b9d60921b6044820152606490fd5b60405162461bcd60e51b815260206004820152600e60248201526d5377617020746f6f206c6172676560901b6044820152606490fd5b60405162461bcd60e51b81526020600482015260146024820152734e6f205320746f6b656e206c697175696469747960601b6044820152606490fd5b9050610bc5915060403d604011610bcb575b610bbd818361084a565b810190610882565b3861098a565b503d610bb3565b60405162461bcd60e51b815260206004820152600e60248201526d546f6f206d616e7920737761707360901b6044820152606490fd5b6006548114610ccb577f00000000000000000000000000000000000000000000000000000000000000008110610c8b576107d010610c5857600190604051610c5160208261084a565b6000815290565b60405190610c6760408361084a565b601182527043616e6e6f74206578636565642032302560781b602083015260009190565b5060405190610c9b60408361084a565b601c82527f43616e6e6f74206265206c6f776572207468616e2064656661756c7400000000602083015260009190565b5060405190610cdb60408361084a565b601c82527f4e657720736c6970706167652073616d652061732063757272656e7400000000602083015260009190565b15610d135750565b60405162461bcd60e51b815260206004820152908190610d379060248301906106dc565b0390fd5b6000546001600160a01b03163303610d4f57565b63118cdaa760e01b6000523360045260246000fd5b60405163a9059cbb60e01b60208201526001600160a01b039092166024830152604480830193909352918152610a2c91610d9f60648361084a565b611232565b909160065490610db86000928211156108e4565b801561120a57915b7f000000000000000000000000000000000000000000000000000000000000000083106111d257604051636eb1769f60e11b81523360048201523060248201526001600160a01b03919091169290602081604481875afa90811561113d579085918491611199575b50106111485760025460408051630fa6707960e21b81526004810186905291829060249082906001600160a01b03165afa90811561113d578390849261111b575b50610e7681871115610898565b858211156110d657610e99610e92610ea0936127109389610753565b938461071d565b048261083d565b93610ec7610ebe612710610eb66003548661071d565b04809461083d565b958610156108e4565b6001546040516370a0823160e01b815230600482015290602090829060249082906001600160a01b03165afa90811561104957908691859161109d575b501061105857610f446040516323b872dd60e01b602082015233602482015230604482015282606482015260648152610f3e60848261084a565b85611232565b600154610f5d90869033906001600160a01b0316610d64565b6001546001600160a01b031683526005602052604083208054610f81908490610746565b90556001546001600160a01b031680845260056020526040842054683635c9adc5dea000001115610ff7575b5033835260046020524260408420556040519250825283602083015260408201527f28c738dbec11a1bed94ba127a3712d54bcd39cf4ae95b6ebd671aaf10fd0287b60603392a390565b6002546001600160a01b031690813b1561105457849160248392604051948593849263bc99f48760e01b845260048401525af180156110495715610fad57836110429194929461084a565b9138610fad565b6040513d86823e3d90fd5b8480fd5b60405162461bcd60e51b815260206004820152601c60248201527f496e73756666696369656e74205320746f6b656e2062616c616e6365000000006044820152606490fd5b9150506020813d6020116110ce575b816110b96020938361084a565b810103126110ca5785905138610f04565b8380fd5b3d91506110ac565b60405162461bcd60e51b815260206004820152601e60248201527f496e73756666696369656e74205320746f6b656e206c697175696469747900006044820152606490fd5b9050611136915060403d604011610bcb57610bbd818361084a565b9038610e69565b6040513d85823e3d90fd5b60405162461bcd60e51b8152602060048201526024808201527f496e73756666696369656e742063726561746f7220746f6b656e20616c6c6f77604482015263616e636560e01b6064820152608490fd5b9150506020813d6020116111ca575b816111b56020938361084a565b810103126111c65784905138610e28565b8280fd5b3d91506111a8565b60405162461bcd60e51b815260206004820152601060248201526f496e76616c696420736c69707061676560801b6044820152606490fd5b507f000000000000000000000000000000000000000000000000000000000000000091610dc0565b906000602091828151910182855af115610aed576000513d61128457506001600160a01b0381163b155b6112635750565b635274afe760e01b60009081526001600160a01b0391909116600452602490fd5b6001141561125c56fea2646970667358221220f7cb61a2f06898ed0f0fc5b381e394db6f2f6343f3c246deeb15ca4b43e1664664736f6c634300081c0033","opcodes":"PUSH1 0xA0 CALLVALUE PUSH2 0x12F JUMPI PUSH1 0x1F PUSH2 0x1422 CODESIZE DUP2 SWAP1 SUB SWAP2 DUP3 ADD PUSH1 0x1F NOT AND DUP4 ADD SWAP2 PUSH1 0x1 PUSH1 0x1 PUSH1 0x40 SHL SUB DUP4 GT DUP5 DUP5 LT OR PUSH2 0x134 JUMPI DUP1 DUP5 SWAP3 PUSH1 0x40 SWAP5 DUP6 MSTORE DUP4 CODECOPY DUP2 ADD SUB SLT PUSH2 0x12F JUMPI PUSH2 0x52 PUSH1 0x20 PUSH2 0x4B DUP4 PUSH2 0x14A JUMP JUMPDEST SWAP3 ADD PUSH2 0x14A JUMP JUMPDEST CALLER ISZERO PUSH2 0x119 JUMPI PUSH1 0x0 DUP1 SLOAD CALLER PUSH1 0x1 PUSH1 0x1 PUSH1 0xA0 SHL SUB NOT DUP3 AND DUP2 OR DUP4 SSTORE PUSH1 0x40 MLOAD SWAP5 SWAP3 SWAP1 SWAP2 PUSH1 0x1 PUSH1 0x1 PUSH1 0xA0 SHL SUB AND SWAP1 PUSH32 0x8BE0079C531659141344CD1FD0A4F28419497F9722A3DAAFE3B4186F6B6457E0 SWAP1 DUP1 LOG3 PUSH1 0x1E PUSH1 0x3 SSTORE PUSH2 0x1F4 PUSH1 0x80 MSTORE PUSH2 0x3E8 PUSH1 0x6 SSTORE PUSH1 0x1 DUP1 SLOAD PUSH1 0x1 PUSH1 0x1 PUSH1 0xA0 SHL SUB SWAP3 DUP4 AND PUSH1 0x1 PUSH1 0x1 PUSH1 0xA0 SHL SUB NOT SWAP2 DUP3 AND OR SWAP1 SWAP2 SSTORE PUSH1 0x2 DUP1 SLOAD SWAP4 SWAP1 SWAP3 AND SWAP3 AND SWAP2 SWAP1 SWAP2 OR SWAP1 SSTORE PUSH2 0x12C3 SWAP1 DUP2 PUSH2 0x15F DUP3 CODECOPY PUSH1 0x80 MLOAD DUP2 DUP2 DUP2 PUSH2 0x1A7 ADD MSTORE DUP2 DUP2 PUSH2 0x362 ADD MSTORE DUP2 DUP2 PUSH2 0x3F5 ADD MSTORE DUP2 DUP2 PUSH2 0xC13 ADD MSTORE DUP2 DUP2 PUSH2 0xDC2 ADD MSTORE PUSH2 0x120D ADD MSTORE RETURN JUMPDEST PUSH4 0x1E4FBDF7 PUSH1 0xE0 SHL PUSH1 0x0 MSTORE PUSH1 0x0 PUSH1 0x4 MSTORE PUSH1 0x24 PUSH1 0x0 REVERT JUMPDEST PUSH1 0x0 DUP1 REVERT JUMPDEST PUSH4 0x4E487B71 PUSH1 0xE0 SHL PUSH1 0x0 MSTORE PUSH1 0x41 PUSH1 0x4 MSTORE PUSH1 0x24 PUSH1 0x0 REVERT JUMPDEST MLOAD SWAP1 PUSH1 0x1 PUSH1 0x1 PUSH1 0xA0 SHL SUB DUP3 AND DUP3 SUB PUSH2 0x12F JUMPI JUMP INVALID PUSH1 0x80 DUP1 PUSH1 0x40 MSTORE PUSH1 0x4 CALLDATASIZE LT ISZERO PUSH2 0x13 JUMPI PUSH1 0x0 DUP1 REVERT JUMPDEST PUSH1 0x0 CALLDATALOAD PUSH1 0xE0 SHR SWAP1 DUP2 PUSH4 0x2E9D3E8 EQ PUSH2 0x66C JUMPI POP DUP1 PUSH4 0x54D50D4 EQ PUSH2 0x640 JUMPI DUP1 PUSH4 0x11A9992E EQ PUSH2 0x624 JUMPI DUP1 PUSH4 0x125C1204 EQ PUSH2 0x5EA JUMPI DUP1 PUSH4 0x13079DF5 EQ PUSH2 0x510 JUMPI DUP1 PUSH4 0x33827438 EQ PUSH2 0x4E7 JUMPI DUP1 PUSH4 0x461A3A95 EQ PUSH2 0x4BE JUMPI DUP1 PUSH4 0x54CF2AEB EQ PUSH2 0x4A0 JUMPI DUP1 PUSH4 0x6604B53A EQ PUSH2 0x392 JUMPI DUP1 PUSH4 0x6611CB36 EQ PUSH2 0x471 JUMPI DUP1 PUSH4 0x715018A6 EQ PUSH2 0x418 JUMPI DUP1 PUSH4 0x85015E09 EQ PUSH2 0x3DD JUMPI DUP1 PUSH4 0x8AC058CC EQ PUSH2 0x3C0 JUMPI DUP1 PUSH4 0x8DA5CB5B EQ PUSH2 0x397 JUMPI DUP1 PUSH4 0x90CD3694 EQ PUSH2 0x392 JUMPI DUP1 PUSH4 0xC54E1D38 EQ PUSH2 0x346 JUMPI DUP1 PUSH4 0xD855DC7E EQ PUSH2 0x32A JUMPI DUP1 PUSH4 0xE7B0444C EQ PUSH2 0x30C JUMPI DUP1 PUSH4 0xF2C75FA0 EQ PUSH2 0x2CD JUMPI DUP1 PUSH4 0xF2FDE38B EQ PUSH2 0x244 JUMPI PUSH4 0xF896ACC7 EQ PUSH2 0x106 JUMPI PUSH1 0x0 DUP1 REVERT JUMPDEST CALLVALUE PUSH2 0x23F JUMPI PUSH1 0x20 CALLDATASIZE PUSH1 0x3 NOT ADD SLT PUSH2 0x23F JUMPI PUSH1 0x4 CALLDATALOAD PUSH2 0x122 PUSH2 0xD3B JUMP JUMPDEST PUSH1 0x6 SLOAD SWAP1 PUSH2 0x16A PUSH1 0x40 MLOAD PUSH2 0x137 PUSH1 0x40 DUP3 PUSH2 0x84A JUMP JUMPDEST PUSH1 0x1C DUP2 MSTORE PUSH32 0x4E657720736C6970706167652073616D652061732063757272656E7400000000 PUSH1 0x20 DUP3 ADD MSTORE DUP4 DUP4 EQ ISZERO PUSH2 0xD0B JUMP JUMPDEST PUSH2 0x1CE PUSH1 0x40 MLOAD PUSH2 0x17B PUSH1 0x40 DUP3 PUSH2 0x84A JUMP JUMPDEST PUSH1 0x1C DUP2 MSTORE PUSH32 0x43616E6E6F74206265206C6F776572207468616E2064656661756C7400000000 PUSH1 0x20 DUP3 ADD MSTORE PUSH32 0x0 DUP4 LT ISZERO PUSH2 0xD0B JUMP JUMPDEST PUSH2 0x208 PUSH1 0x40 MLOAD PUSH2 0x1DF PUSH1 0x40 DUP3 PUSH2 0x84A JUMP JUMPDEST PUSH1 0x11 DUP2 MSTORE PUSH17 0x43616E6E6F742065786365656420323025 PUSH1 0x78 SHL PUSH1 0x20 DUP3 ADD MSTORE PUSH2 0x7D0 DUP4 GT ISZERO PUSH2 0xD0B JUMP JUMPDEST DUP1 PUSH1 0x6 SSTORE PUSH1 0x40 MLOAD SWAP2 DUP3 MSTORE PUSH1 0x20 DUP3 ADD MSTORE PUSH32 0x701CAA0F8ADA7952FB1D301BDFC04ED8B66396FE0181A18D0F2FE16EA0AF1547 PUSH1 0x40 CALLER SWAP3 LOG2 STOP JUMPDEST PUSH1 0x0 DUP1 REVERT JUMPDEST CALLVALUE PUSH2 0x23F JUMPI PUSH1 0x20 CALLDATASIZE PUSH1 0x3 NOT ADD SLT PUSH2 0x23F JUMPI PUSH2 0x25D PUSH2 0x6A2 JUMP JUMPDEST PUSH2 0x265 PUSH2 0xD3B JUMP JUMPDEST PUSH1 0x1 PUSH1 0x1 PUSH1 0xA0 SHL SUB AND DUP1 ISZERO PUSH2 0x2B7 JUMPI PUSH1 0x0 DUP1 SLOAD PUSH1 0x1 PUSH1 0x1 PUSH1 0xA0 SHL SUB NOT DUP2 AND DUP4 OR DUP3 SSTORE PUSH1 0x1 PUSH1 0x1 PUSH1 0xA0 SHL SUB AND SWAP1 PUSH32 0x8BE0079C531659141344CD1FD0A4F28419497F9722A3DAAFE3B4186F6B6457E0 SWAP1 DUP1 LOG3 STOP JUMPDEST PUSH4 0x1E4FBDF7 PUSH1 0xE0 SHL PUSH1 0x0 MSTORE PUSH1 0x0 PUSH1 0x4 MSTORE PUSH1 0x24 PUSH1 0x0 REVERT JUMPDEST CALLVALUE PUSH2 0x23F JUMPI PUSH1 0x20 CALLDATASIZE PUSH1 0x3 NOT ADD SLT PUSH2 0x23F JUMPI PUSH2 0x2E9 PUSH1 0x4 CALLDATALOAD PUSH2 0xC08 JUMP JUMPDEST SWAP1 PUSH2 0x308 PUSH1 0x40 MLOAD SWAP3 DUP4 SWAP3 ISZERO ISZERO DUP4 MSTORE PUSH1 0x40 PUSH1 0x20 DUP5 ADD MSTORE PUSH1 0x40 DUP4 ADD SWAP1 PUSH2 0x6DC JUMP JUMPDEST SUB SWAP1 RETURN JUMPDEST CALLVALUE PUSH2 0x23F JUMPI PUSH1 0x0 CALLDATASIZE PUSH1 0x3 NOT ADD SLT PUSH2 0x23F JUMPI PUSH1 0x20 PUSH1 0x6 SLOAD PUSH1 0x40 MLOAD SWAP1 DUP2 MSTORE RETURN JUMPDEST CALLVALUE PUSH2 0x23F JUMPI PUSH1 0x0 CALLDATASIZE PUSH1 0x3 NOT ADD SLT PUSH2 0x23F JUMPI PUSH1 0x20 PUSH1 0x40 MLOAD PUSH1 0x5 DUP2 MSTORE RETURN JUMPDEST CALLVALUE PUSH2 0x23F JUMPI PUSH1 0x0 CALLDATASIZE PUSH1 0x3 NOT ADD SLT PUSH2 0x23F JUMPI PUSH1 0x60 PUSH1 0x6 SLOAD PUSH1 0x40 MLOAD SWAP1 PUSH32 0x0 DUP3 MSTORE PUSH1 0x20 DUP3 ADD MSTORE PUSH2 0x7D0 PUSH1 0x40 DUP3 ADD MSTORE RETURN JUMPDEST PUSH2 0x6B8 JUMP JUMPDEST CALLVALUE PUSH2 0x23F JUMPI PUSH1 0x0 CALLDATASIZE PUSH1 0x3 NOT ADD SLT PUSH2 0x23F JUMPI PUSH1 0x0 SLOAD PUSH1 0x40 MLOAD PUSH1 0x1 PUSH1 0x1 PUSH1 0xA0 SHL SUB SWAP1 SWAP2 AND DUP2 MSTORE PUSH1 0x20 SWAP1 RETURN JUMPDEST CALLVALUE PUSH2 0x23F JUMPI PUSH1 0x0 CALLDATASIZE PUSH1 0x3 NOT ADD SLT PUSH2 0x23F JUMPI PUSH1 0x20 PUSH1 0x40 MLOAD PUSH2 0x7D0 DUP2 MSTORE RETURN JUMPDEST CALLVALUE PUSH2 0x23F JUMPI PUSH1 0x0 CALLDATASIZE PUSH1 0x3 NOT ADD SLT PUSH2 0x23F JUMPI PUSH1 0x20 PUSH1 0x40 MLOAD PUSH32 0x0 DUP2 MSTORE RETURN JUMPDEST CALLVALUE PUSH2 0x23F JUMPI PUSH1 0x0 CALLDATASIZE PUSH1 0x3 NOT ADD SLT PUSH2 0x23F JUMPI PUSH2 0x431 PUSH2 0xD3B JUMP JUMPDEST PUSH1 0x0 DUP1 SLOAD PUSH1 0x1 PUSH1 0x1 PUSH1 0xA0 SHL SUB NOT DUP2 AND DUP3 SSTORE PUSH1 0x1 PUSH1 0x1 PUSH1 0xA0 SHL SUB AND PUSH32 0x8BE0079C531659141344CD1FD0A4F28419497F9722A3DAAFE3B4186F6B6457E0 DUP3 DUP1 LOG3 STOP JUMPDEST CALLVALUE PUSH2 0x23F JUMPI PUSH1 0x80 CALLDATASIZE PUSH1 0x3 NOT ADD SLT PUSH2 0x23F JUMPI PUSH2 0x49E PUSH2 0x48D PUSH2 0x6A2 JUMP JUMPDEST PUSH1 0x64 CALLDATALOAD SWAP1 PUSH1 0x44 CALLDATALOAD SWAP1 PUSH1 0x24 CALLDATALOAD SWAP1 PUSH2 0x924 JUMP JUMPDEST STOP JUMPDEST CALLVALUE PUSH2 0x23F JUMPI PUSH1 0x0 CALLDATASIZE PUSH1 0x3 NOT ADD SLT PUSH2 0x23F JUMPI PUSH1 0x20 PUSH1 0x3 SLOAD PUSH1 0x40 MLOAD SWAP1 DUP2 MSTORE RETURN JUMPDEST CALLVALUE PUSH2 0x23F JUMPI PUSH1 0x0 CALLDATASIZE PUSH1 0x3 NOT ADD SLT PUSH2 0x23F JUMPI PUSH1 0x1 SLOAD PUSH1 0x40 MLOAD PUSH1 0x1 PUSH1 0x1 PUSH1 0xA0 SHL SUB SWAP1 SWAP2 AND DUP2 MSTORE PUSH1 0x20 SWAP1 RETURN JUMPDEST CALLVALUE PUSH2 0x23F JUMPI PUSH1 0x0 CALLDATASIZE PUSH1 0x3 NOT ADD SLT PUSH2 0x23F JUMPI PUSH1 0x2 SLOAD PUSH1 0x40 MLOAD PUSH1 0x1 PUSH1 0x1 PUSH1 0xA0 SHL SUB SWAP1 SWAP2 AND DUP2 MSTORE PUSH1 0x20 SWAP1 RETURN JUMPDEST CALLVALUE PUSH2 0x23F JUMPI PUSH1 0x40 CALLDATASIZE PUSH1 0x3 NOT ADD SLT PUSH2 0x23F JUMPI PUSH2 0x529 PUSH2 0x6A2 JUMP JUMPDEST PUSH1 0x24 CALLDATALOAD SWAP1 PUSH2 0x535 PUSH2 0xD3B JUMP JUMPDEST PUSH1 0x1 DUP1 PUSH1 0xA0 SHL SUB AND SWAP1 DUP2 PUSH1 0x0 MSTORE PUSH1 0x5 PUSH1 0x20 MSTORE DUP1 PUSH1 0x40 PUSH1 0x0 KECCAK256 SLOAD LT PUSH2 0x5A5 JUMPI PUSH1 0x20 PUSH32 0xC0819C13BE868895EB93E40EACEB96DE976442FA1D404E5C55F14BB65A8C489A SWAP2 DUP4 PUSH1 0x0 MSTORE PUSH1 0x5 DUP3 MSTORE PUSH1 0x40 PUSH1 0x0 KECCAK256 PUSH2 0x58F DUP3 DUP3 SLOAD PUSH2 0x83D JUMP JUMPDEST SWAP1 SSTORE PUSH2 0x59C DUP2 CALLER DUP7 PUSH2 0xD64 JUMP JUMPDEST PUSH1 0x40 MLOAD SWAP1 DUP2 MSTORE LOG2 STOP JUMPDEST PUSH1 0x40 MLOAD PUSH3 0x461BCD PUSH1 0xE5 SHL DUP2 MSTORE PUSH1 0x20 PUSH1 0x4 DUP3 ADD MSTORE PUSH1 0x18 PUSH1 0x24 DUP3 ADD MSTORE PUSH32 0x496E73756666696369656E742073746F72656420666565730000000000000000 PUSH1 0x44 DUP3 ADD MSTORE PUSH1 0x64 SWAP1 REVERT JUMPDEST CALLVALUE PUSH2 0x23F JUMPI PUSH1 0x20 CALLDATASIZE PUSH1 0x3 NOT ADD SLT PUSH2 0x23F JUMPI PUSH1 0x1 PUSH1 0x1 PUSH1 0xA0 SHL SUB PUSH2 0x60B PUSH2 0x6A2 JUMP JUMPDEST AND PUSH1 0x0 MSTORE PUSH1 0x5 PUSH1 0x20 MSTORE PUSH1 0x20 PUSH1 0x40 PUSH1 0x0 KECCAK256 SLOAD PUSH1 0x40 MLOAD SWAP1 DUP2 MSTORE RETURN JUMPDEST CALLVALUE PUSH2 0x23F JUMPI PUSH1 0x0 CALLDATASIZE PUSH1 0x3 NOT ADD SLT PUSH2 0x23F JUMPI PUSH1 0x20 PUSH1 0x40 MLOAD PUSH1 0x3C DUP2 MSTORE RETURN JUMPDEST CALLVALUE PUSH2 0x23F JUMPI PUSH1 0x60 CALLDATASIZE PUSH1 0x3 NOT ADD SLT PUSH2 0x23F JUMPI PUSH1 0x20 PUSH2 0x664 PUSH1 0x44 CALLDATALOAD PUSH1 0x24 CALLDATALOAD PUSH1 0x4 CALLDATALOAD PUSH2 0x753 JUMP JUMPDEST PUSH1 0x40 MLOAD SWAP1 DUP2 MSTORE RETURN JUMPDEST CALLVALUE PUSH2 0x23F JUMPI PUSH1 0x20 CALLDATASIZE PUSH1 0x3 NOT ADD SLT PUSH2 0x23F JUMPI PUSH1 0x20 SWAP1 PUSH1 0x1 PUSH1 0x1 PUSH1 0xA0 SHL SUB PUSH2 0x690 PUSH2 0x6A2 JUMP JUMPDEST AND PUSH1 0x0 MSTORE PUSH1 0x4 DUP3 MSTORE PUSH1 0x40 PUSH1 0x0 KECCAK256 SLOAD DUP2 MSTORE RETURN JUMPDEST PUSH1 0x4 CALLDATALOAD SWAP1 PUSH1 0x1 PUSH1 0x1 PUSH1 0xA0 SHL SUB DUP3 AND DUP3 SUB PUSH2 0x23F JUMPI JUMP JUMPDEST CALLVALUE PUSH2 0x23F JUMPI PUSH1 0x0 CALLDATASIZE PUSH1 0x3 NOT ADD SLT PUSH2 0x23F JUMPI PUSH1 0x20 PUSH1 0x40 MLOAD PUSH9 0x3635C9ADC5DEA00000 DUP2 MSTORE RETURN JUMPDEST SWAP2 SWAP1 DUP3 MLOAD SWAP3 DUP4 DUP3 MSTORE PUSH1 0x0 JUMPDEST DUP5 DUP2 LT PUSH2 0x708 JUMPI POP POP DUP3 PUSH1 0x0 PUSH1 0x20 DUP1 SWAP5 SWAP6 DUP5 ADD ADD MSTORE PUSH1 0x1F DUP1 NOT SWAP2 ADD AND ADD ADD SWAP1 JUMP JUMPDEST DUP1 PUSH1 0x20 DUP1 SWAP3 DUP5 ADD ADD MLOAD DUP3 DUP3 DUP7 ADD ADD MSTORE ADD PUSH2 0x6E7 JUMP JUMPDEST DUP2 DUP2 MUL SWAP3 SWAP2 DUP2 ISZERO SWAP2 DUP5 DIV EQ OR ISZERO PUSH2 0x730 JUMPI JUMP JUMPDEST PUSH4 0x4E487B71 PUSH1 0xE0 SHL PUSH1 0x0 MSTORE PUSH1 0x11 PUSH1 0x4 MSTORE PUSH1 0x24 PUSH1 0x0 REVERT JUMPDEST SWAP2 SWAP1 DUP3 ADD DUP1 SWAP3 GT PUSH2 0x730 JUMPI JUMP JUMPDEST DUP1 ISZERO PUSH2 0x801 JUMPI DUP2 ISZERO SWAP3 DUP4 ISZERO DUP1 PUSH2 0x7F8 JUMPI JUMPDEST ISZERO PUSH2 0x7C0 JUMPI PUSH2 0x3E5 DUP3 MUL SWAP2 DUP3 DIV PUSH2 0x3E5 SUB PUSH2 0x730 JUMPI PUSH2 0x783 SWAP1 DUP3 PUSH2 0x71D JUMP JUMPDEST SWAP3 PUSH2 0x3E8 DUP4 MUL SWAP3 DUP4 DIV PUSH2 0x3E8 EQ OR ISZERO PUSH2 0x730 JUMPI PUSH2 0x79F SWAP2 PUSH2 0x746 JUMP JUMPDEST SWAP1 DUP2 ISZERO PUSH2 0x7AA JUMPI DIV SWAP1 JUMP JUMPDEST PUSH4 0x4E487B71 PUSH1 0xE0 SHL PUSH1 0x0 MSTORE PUSH1 0x12 PUSH1 0x4 MSTORE PUSH1 0x24 PUSH1 0x0 REVERT JUMPDEST PUSH1 0x40 MLOAD PUSH3 0x461BCD PUSH1 0xE5 SHL DUP2 MSTORE PUSH1 0x20 PUSH1 0x4 DUP3 ADD MSTORE PUSH1 0x10 PUSH1 0x24 DUP3 ADD MSTORE PUSH16 0x496E76616C6964207265736572766573 PUSH1 0x80 SHL PUSH1 0x44 DUP3 ADD MSTORE PUSH1 0x64 SWAP1 REVERT JUMPDEST POP DUP1 ISZERO ISZERO PUSH2 0x764 JUMP JUMPDEST PUSH1 0x40 MLOAD PUSH3 0x461BCD PUSH1 0xE5 SHL DUP2 MSTORE PUSH1 0x20 PUSH1 0x4 DUP3 ADD MSTORE PUSH1 0x14 PUSH1 0x24 DUP3 ADD MSTORE PUSH20 0x125B9D985B1A59081A5B9C1D5D08185B5BDD5B9D PUSH1 0x62 SHL PUSH1 0x44 DUP3 ADD MSTORE PUSH1 0x64 SWAP1 REVERT JUMPDEST SWAP2 SWAP1 DUP3 SUB SWAP2 DUP3 GT PUSH2 0x730 JUMPI JUMP JUMPDEST SWAP1 PUSH1 0x1F DUP1 NOT SWAP2 ADD AND DUP2 ADD SWAP1 DUP2 LT PUSH8 0xFFFFFFFFFFFFFFFF DUP3 GT OR PUSH2 0x86C JUMPI PUSH1 0x40 MSTORE JUMP JUMPDEST PUSH4 0x4E487B71 PUSH1 0xE0 SHL PUSH1 0x0 MSTORE PUSH1 0x41 PUSH1 0x4 MSTORE PUSH1 0x24 PUSH1 0x0 REVERT JUMPDEST SWAP2 SWAP1 DUP3 PUSH1 0x40 SWAP2 SUB SLT PUSH2 0x23F JUMPI PUSH1 0x20 DUP3 MLOAD SWAP3 ADD MLOAD SWAP1 JUMP JUMPDEST ISZERO PUSH2 0x89F JUMPI JUMP JUMPDEST PUSH1 0x40 MLOAD PUSH3 0x461BCD PUSH1 0xE5 SHL DUP2 MSTORE PUSH1 0x20 PUSH1 0x4 DUP3 ADD MSTORE PUSH1 0x1E PUSH1 0x24 DUP3 ADD MSTORE PUSH32 0x496E73756666696369656E74206C697175696469747920696E20706F6F6C0000 PUSH1 0x44 DUP3 ADD MSTORE PUSH1 0x64 SWAP1 REVERT JUMPDEST ISZERO PUSH2 0x8EB JUMPI JUMP JUMPDEST PUSH1 0x40 MLOAD PUSH3 0x461BCD PUSH1 0xE5 SHL DUP2 MSTORE PUSH1 0x20 PUSH1 0x4 DUP3 ADD MSTORE PUSH1 0x11 PUSH1 0x24 DUP3 ADD MSTORE PUSH17 0xA6D8D2E0E0C2CECA40E8DEDE40D0D2CED PUSH1 0x7B SHL PUSH1 0x44 DUP3 ADD MSTORE PUSH1 0x64 SWAP1 REVERT JUMPDEST SWAP1 SWAP2 SWAP4 SWAP3 SWAP4 CALLER PUSH1 0x0 MSTORE PUSH1 0x4 PUSH1 0x20 MSTORE PUSH1 0x40 PUSH1 0x0 KECCAK256 SLOAD PUSH1 0x3C DUP2 ADD DUP1 SWAP2 GT PUSH2 0x730 JUMPI TIMESTAMP LT PUSH2 0xBD2 JUMPI PUSH1 0x2 SLOAD PUSH1 0x40 DUP1 MLOAD PUSH4 0xFA67079 PUSH1 0xE2 SHL DUP2 MSTORE PUSH1 0x1 PUSH1 0x1 PUSH1 0xA0 SHL SUB DUP6 DUP2 AND PUSH1 0x4 DUP4 ADD DUP2 SWAP1 MSTORE SWAP4 SWAP2 SWAP3 SWAP2 DUP4 SWAP2 PUSH1 0x24 SWAP2 DUP4 SWAP2 AND GAS STATICCALL DUP1 ISZERO PUSH2 0xAED JUMPI PUSH1 0x0 SWAP2 DUP3 SWAP2 PUSH2 0xBA1 JUMPI JUMPDEST POP PUSH2 0x997 DUP3 DUP8 GT ISZERO PUSH2 0x898 JUMP JUMPDEST ISZERO PUSH2 0xB65 JUMPI PUSH1 0x5 DUP2 MUL SWAP1 DUP1 DUP3 DIV PUSH1 0x5 EQ SWAP1 ISZERO OR ISZERO PUSH2 0x730 JUMPI PUSH1 0x64 SWAP1 DIV DUP5 GT PUSH2 0xB2F JUMPI DUP4 ISZERO PUSH2 0xAF9 JUMPI PUSH1 0x20 PUSH1 0x24 SWAP2 PUSH1 0x40 MLOAD SWAP3 DUP4 DUP1 SWAP3 PUSH4 0x70A08231 PUSH1 0xE0 SHL DUP3 MSTORE CALLER PUSH1 0x4 DUP4 ADD MSTORE GAS STATICCALL DUP1 ISZERO PUSH2 0xAED JUMPI DUP5 SWAP2 PUSH1 0x0 SWAP2 PUSH2 0xAB8 JUMPI JUMPDEST POP LT PUSH2 0xA7C JUMPI PUSH9 0x3635C9ADC5DEA00000 DUP4 GT PUSH2 0xA13 JUMPI POP SWAP1 PUSH2 0xA10 SWAP3 SWAP4 SWAP2 PUSH2 0xDA4 JUMP JUMPDEST POP JUMP JUMPDEST SWAP2 PUSH1 0x0 SWAP2 DUP2 JUMPDEST PUSH2 0xA2E JUMPI POP POP PUSH2 0xA2C SWAP3 SWAP4 POP LT ISZERO PUSH2 0x8E4 JUMP JUMPDEST JUMP JUMPDEST SWAP1 SWAP2 PUSH2 0xA6B SWAP1 PUSH9 0x3635C9ADC5DEA00000 DUP5 GT ISZERO PUSH2 0xA72 JUMPI PUSH2 0xA65 PUSH9 0x3635C9ADC5DEA00000 SWAP2 JUMPDEST PUSH2 0xA5F DUP10 DUP5 DUP8 PUSH2 0xDA4 JUMP JUMPDEST SWAP1 PUSH2 0x746 JUMP JUMPDEST SWAP4 PUSH2 0x83D JUMP JUMPDEST SWAP1 DUP2 PUSH2 0xA19 JUMP JUMPDEST PUSH2 0xA65 DUP5 SWAP2 PUSH2 0xA54 JUMP JUMPDEST PUSH1 0x40 MLOAD PUSH3 0x461BCD PUSH1 0xE5 SHL DUP2 MSTORE PUSH1 0x20 PUSH1 0x4 DUP3 ADD MSTORE PUSH1 0x14 PUSH1 0x24 DUP3 ADD MSTORE PUSH20 0x496E73756666696369656E742062616C616E6365 PUSH1 0x60 SHL PUSH1 0x44 DUP3 ADD MSTORE PUSH1 0x64 SWAP1 REVERT JUMPDEST SWAP2 POP POP PUSH1 0x20 DUP2 RETURNDATASIZE PUSH1 0x20 GT PUSH2 0xAE5 JUMPI JUMPDEST DUP2 PUSH2 0xAD4 PUSH1 0x20 SWAP4 DUP4 PUSH2 0x84A JUMP JUMPDEST DUP2 ADD SUB SLT PUSH2 0x23F JUMPI DUP4 SWAP1 MLOAD CODESIZE PUSH2 0x9ED JUMP JUMPDEST RETURNDATASIZE SWAP2 POP PUSH2 0xAC7 JUMP JUMPDEST PUSH1 0x40 MLOAD RETURNDATASIZE PUSH1 0x0 DUP3 RETURNDATACOPY RETURNDATASIZE SWAP1 REVERT JUMPDEST PUSH1 0x40 MLOAD PUSH3 0x461BCD PUSH1 0xE5 SHL DUP2 MSTORE PUSH1 0x20 PUSH1 0x4 DUP3 ADD MSTORE PUSH1 0xE PUSH1 0x24 DUP3 ADD MSTORE PUSH14 0x125B9D985B1A5908185B5BDD5B9D PUSH1 0x92 SHL PUSH1 0x44 DUP3 ADD MSTORE PUSH1 0x64 SWAP1 REVERT JUMPDEST PUSH1 0x40 MLOAD PUSH3 0x461BCD PUSH1 0xE5 SHL DUP2 MSTORE PUSH1 0x20 PUSH1 0x4 DUP3 ADD MSTORE PUSH1 0xE PUSH1 0x24 DUP3 ADD MSTORE PUSH14 0x5377617020746F6F206C61726765 PUSH1 0x90 SHL PUSH1 0x44 DUP3 ADD MSTORE PUSH1 0x64 SWAP1 REVERT JUMPDEST PUSH1 0x40 MLOAD PUSH3 0x461BCD PUSH1 0xE5 SHL DUP2 MSTORE PUSH1 0x20 PUSH1 0x4 DUP3 ADD MSTORE PUSH1 0x14 PUSH1 0x24 DUP3 ADD MSTORE PUSH20 0x4E6F205320746F6B656E206C6971756964697479 PUSH1 0x60 SHL PUSH1 0x44 DUP3 ADD MSTORE PUSH1 0x64 SWAP1 REVERT JUMPDEST SWAP1 POP PUSH2 0xBC5 SWAP2 POP PUSH1 0x40 RETURNDATASIZE PUSH1 0x40 GT PUSH2 0xBCB JUMPI JUMPDEST PUSH2 0xBBD DUP2 DUP4 PUSH2 0x84A JUMP JUMPDEST DUP2 ADD SWAP1 PUSH2 0x882 JUMP JUMPDEST CODESIZE PUSH2 0x98A JUMP JUMPDEST POP RETURNDATASIZE PUSH2 0xBB3 JUMP JUMPDEST PUSH1 0x40 MLOAD PUSH3 0x461BCD PUSH1 0xE5 SHL DUP2 MSTORE PUSH1 0x20 PUSH1 0x4 DUP3 ADD MSTORE PUSH1 0xE PUSH1 0x24 DUP3 ADD MSTORE PUSH14 0x546F6F206D616E79207377617073 PUSH1 0x90 SHL PUSH1 0x44 DUP3 ADD MSTORE PUSH1 0x64 SWAP1 REVERT JUMPDEST PUSH1 0x6 SLOAD DUP2 EQ PUSH2 0xCCB JUMPI PUSH32 0x0 DUP2 LT PUSH2 0xC8B JUMPI PUSH2 0x7D0 LT PUSH2 0xC58 JUMPI PUSH1 0x1 SWAP1 PUSH1 0x40 MLOAD PUSH2 0xC51 PUSH1 0x20 DUP3 PUSH2 0x84A JUMP JUMPDEST PUSH1 0x0 DUP2 MSTORE SWAP1 JUMP JUMPDEST PUSH1 0x40 MLOAD SWAP1 PUSH2 0xC67 PUSH1 0x40 DUP4 PUSH2 0x84A JUMP JUMPDEST PUSH1 0x11 DUP3 MSTORE PUSH17 0x43616E6E6F742065786365656420323025 PUSH1 0x78 SHL PUSH1 0x20 DUP4 ADD MSTORE PUSH1 0x0 SWAP2 SWAP1 JUMP JUMPDEST POP PUSH1 0x40 MLOAD SWAP1 PUSH2 0xC9B PUSH1 0x40 DUP4 PUSH2 0x84A JUMP JUMPDEST PUSH1 0x1C DUP3 MSTORE PUSH32 0x43616E6E6F74206265206C6F776572207468616E2064656661756C7400000000 PUSH1 0x20 DUP4 ADD MSTORE PUSH1 0x0 SWAP2 SWAP1 JUMP JUMPDEST POP PUSH1 0x40 MLOAD SWAP1 PUSH2 0xCDB PUSH1 0x40 DUP4 PUSH2 0x84A JUMP JUMPDEST PUSH1 0x1C DUP3 MSTORE PUSH32 0x4E657720736C6970706167652073616D652061732063757272656E7400000000 PUSH1 0x20 DUP4 ADD MSTORE PUSH1 0x0 SWAP2 SWAP1 JUMP JUMPDEST ISZERO PUSH2 0xD13 JUMPI POP JUMP JUMPDEST PUSH1 0x40 MLOAD PUSH3 0x461BCD PUSH1 0xE5 SHL DUP2 MSTORE PUSH1 0x20 PUSH1 0x4 DUP3 ADD MSTORE SWAP1 DUP2 SWAP1 PUSH2 0xD37 SWAP1 PUSH1 0x24 DUP4 ADD SWAP1 PUSH2 0x6DC JUMP JUMPDEST SUB SWAP1 REVERT JUMPDEST PUSH1 0x0 SLOAD PUSH1 0x1 PUSH1 0x1 PUSH1 0xA0 SHL SUB AND CALLER SUB PUSH2 0xD4F JUMPI JUMP JUMPDEST PUSH4 0x118CDAA7 PUSH1 0xE0 SHL PUSH1 0x0 MSTORE CALLER PUSH1 0x4 MSTORE PUSH1 0x24 PUSH1 0x0 REVERT JUMPDEST PUSH1 0x40 MLOAD PUSH4 0xA9059CBB PUSH1 0xE0 SHL PUSH1 0x20 DUP3 ADD MSTORE PUSH1 0x1 PUSH1 0x1 PUSH1 0xA0 SHL SUB SWAP1 SWAP3 AND PUSH1 0x24 DUP4 ADD MSTORE PUSH1 0x44 DUP1 DUP4 ADD SWAP4 SWAP1 SWAP4 MSTORE SWAP2 DUP2 MSTORE PUSH2 0xA2C SWAP2 PUSH2 0xD9F PUSH1 0x64 DUP4 PUSH2 0x84A JUMP JUMPDEST PUSH2 0x1232 JUMP JUMPDEST SWAP1 SWAP2 PUSH1 0x6 SLOAD SWAP1 PUSH2 0xDB8 PUSH1 0x0 SWAP3 DUP3 GT ISZERO PUSH2 0x8E4 JUMP JUMPDEST DUP1 ISZERO PUSH2 0x120A JUMPI SWAP2 JUMPDEST PUSH32 0x0 DUP4 LT PUSH2 0x11D2 JUMPI PUSH1 0x40 MLOAD PUSH4 0x6EB1769F PUSH1 0xE1 SHL DUP2 MSTORE CALLER PUSH1 0x4 DUP3 ADD MSTORE ADDRESS PUSH1 0x24 DUP3 ADD MSTORE PUSH1 0x1 PUSH1 0x1 PUSH1 0xA0 SHL SUB SWAP2 SWAP1 SWAP2 AND SWAP3 SWAP1 PUSH1 0x20 DUP2 PUSH1 0x44 DUP2 DUP8 GAS STATICCALL SWAP1 DUP2 ISZERO PUSH2 0x113D JUMPI SWAP1 DUP6 SWAP2 DUP5 SWAP2 PUSH2 0x1199 JUMPI JUMPDEST POP LT PUSH2 0x1148 JUMPI PUSH1 0x2 SLOAD PUSH1 0x40 DUP1 MLOAD PUSH4 0xFA67079 PUSH1 0xE2 SHL DUP2 MSTORE PUSH1 0x4 DUP2 ADD DUP7 SWAP1 MSTORE SWAP2 DUP3 SWAP1 PUSH1 0x24 SWAP1 DUP3 SWAP1 PUSH1 0x1 PUSH1 0x1 PUSH1 0xA0 SHL SUB AND GAS STATICCALL SWAP1 DUP2 ISZERO PUSH2 0x113D JUMPI DUP4 SWAP1 DUP5 SWAP3 PUSH2 0x111B JUMPI JUMPDEST POP PUSH2 0xE76 DUP2 DUP8 GT ISZERO PUSH2 0x898 JUMP JUMPDEST DUP6 DUP3 GT ISZERO PUSH2 0x10D6 JUMPI PUSH2 0xE99 PUSH2 0xE92 PUSH2 0xEA0 SWAP4 PUSH2 0x2710 SWAP4 DUP10 PUSH2 0x753 JUMP JUMPDEST SWAP4 DUP5 PUSH2 0x71D JUMP JUMPDEST DIV DUP3 PUSH2 0x83D JUMP JUMPDEST SWAP4 PUSH2 0xEC7 PUSH2 0xEBE PUSH2 0x2710 PUSH2 0xEB6 PUSH1 0x3 SLOAD DUP7 PUSH2 0x71D JUMP JUMPDEST DIV DUP1 SWAP5 PUSH2 0x83D JUMP JUMPDEST SWAP6 DUP7 LT ISZERO PUSH2 0x8E4 JUMP JUMPDEST PUSH1 0x1 SLOAD PUSH1 0x40 MLOAD PUSH4 0x70A08231 PUSH1 0xE0 SHL DUP2 MSTORE ADDRESS PUSH1 0x4 DUP3 ADD MSTORE SWAP1 PUSH1 0x20 SWAP1 DUP3 SWAP1 PUSH1 0x24 SWAP1 DUP3 SWAP1 PUSH1 0x1 PUSH1 0x1 PUSH1 0xA0 SHL SUB AND GAS STATICCALL SWAP1 DUP2 ISZERO PUSH2 0x1049 JUMPI SWAP1 DUP7 SWAP2 DUP6 SWAP2 PUSH2 0x109D JUMPI JUMPDEST POP LT PUSH2 0x1058 JUMPI PUSH2 0xF44 PUSH1 0x40 MLOAD PUSH4 0x23B872DD PUSH1 0xE0 SHL PUSH1 0x20 DUP3 ADD MSTORE CALLER PUSH1 0x24 DUP3 ADD MSTORE ADDRESS PUSH1 0x44 DUP3 ADD MSTORE DUP3 PUSH1 0x64 DUP3 ADD MSTORE PUSH1 0x64 DUP2 MSTORE PUSH2 0xF3E PUSH1 0x84 DUP3 PUSH2 0x84A JUMP JUMPDEST DUP6 PUSH2 0x1232 JUMP JUMPDEST PUSH1 0x1 SLOAD PUSH2 0xF5D SWAP1 DUP7 SWAP1 CALLER SWAP1 PUSH1 0x1 PUSH1 0x1 PUSH1 0xA0 SHL SUB AND PUSH2 0xD64 JUMP JUMPDEST PUSH1 0x1 SLOAD PUSH1 0x1 PUSH1 0x1 PUSH1 0xA0 SHL SUB AND DUP4 MSTORE PUSH1 0x5 PUSH1 0x20 MSTORE PUSH1 0x40 DUP4 KECCAK256 DUP1 SLOAD PUSH2 0xF81 SWAP1 DUP5 SWAP1 PUSH2 0x746 JUMP JUMPDEST SWAP1 SSTORE PUSH1 0x1 SLOAD PUSH1 0x1 PUSH1 0x1 PUSH1 0xA0 SHL SUB AND DUP1 DUP5 MSTORE PUSH1 0x5 PUSH1 0x20 MSTORE PUSH1 0x40 DUP5 KECCAK256 SLOAD PUSH9 0x3635C9ADC5DEA00000 GT ISZERO PUSH2 0xFF7 JUMPI JUMPDEST POP CALLER DUP4 MSTORE PUSH1 0x4 PUSH1 0x20 MSTORE TIMESTAMP PUSH1 0x40 DUP5 KECCAK256 SSTORE PUSH1 0x40 MLOAD SWAP3 POP DUP3 MSTORE DUP4 PUSH1 0x20 DUP4 ADD MSTORE PUSH1 0x40 DUP3 ADD MSTORE PUSH32 0x28C738DBEC11A1BED94BA127A3712D54BCD39CF4AE95B6EBD671AAF10FD0287B PUSH1 0x60 CALLER SWAP3 LOG3 SWAP1 JUMP JUMPDEST PUSH1 0x2 SLOAD PUSH1 0x1 PUSH1 0x1 PUSH1 0xA0 SHL SUB AND SWAP1 DUP2 EXTCODESIZE ISZERO PUSH2 0x1054 JUMPI DUP5 SWAP2 PUSH1 0x24 DUP4 SWAP3 PUSH1 0x40 MLOAD SWAP5 DUP6 SWAP4 DUP5 SWAP3 PUSH4 0xBC99F487 PUSH1 0xE0 SHL DUP5 MSTORE PUSH1 0x4 DUP5 ADD MSTORE GAS CALL DUP1 ISZERO PUSH2 0x1049 JUMPI ISZERO PUSH2 0xFAD JUMPI DUP4 PUSH2 0x1042 SWAP2 SWAP5 SWAP3 SWAP5 PUSH2 0x84A JUMP JUMPDEST SWAP2 CODESIZE PUSH2 0xFAD JUMP JUMPDEST PUSH1 0x40 MLOAD RETURNDATASIZE DUP7 DUP3 RETURNDATACOPY RETURNDATASIZE SWAP1 REVERT JUMPDEST DUP5 DUP1 REVERT JUMPDEST PUSH1 0x40 MLOAD PUSH3 0x461BCD PUSH1 0xE5 SHL DUP2 MSTORE PUSH1 0x20 PUSH1 0x4 DUP3 ADD MSTORE PUSH1 0x1C PUSH1 0x24 DUP3 ADD MSTORE PUSH32 0x496E73756666696369656E74205320746F6B656E2062616C616E636500000000 PUSH1 0x44 DUP3 ADD MSTORE PUSH1 0x64 SWAP1 REVERT JUMPDEST SWAP2 POP POP PUSH1 0x20 DUP2 RETURNDATASIZE PUSH1 0x20 GT PUSH2 0x10CE JUMPI JUMPDEST DUP2 PUSH2 0x10B9 PUSH1 0x20 SWAP4 DUP4 PUSH2 0x84A JUMP JUMPDEST DUP2 ADD SUB SLT PUSH2 0x10CA JUMPI DUP6 SWAP1 MLOAD CODESIZE PUSH2 0xF04 JUMP JUMPDEST DUP4 DUP1 REVERT JUMPDEST RETURNDATASIZE SWAP2 POP PUSH2 0x10AC JUMP JUMPDEST PUSH1 0x40 MLOAD PUSH3 0x461BCD PUSH1 0xE5 SHL DUP2 MSTORE PUSH1 0x20 PUSH1 0x4 DUP3 ADD MSTORE PUSH1 0x1E PUSH1 0x24 DUP3 ADD MSTORE PUSH32 0x496E73756666696369656E74205320746F6B656E206C69717569646974790000 PUSH1 0x44 DUP3 ADD MSTORE PUSH1 0x64 SWAP1 REVERT JUMPDEST SWAP1 POP PUSH2 0x1136 SWAP2 POP PUSH1 0x40 RETURNDATASIZE PUSH1 0x40 GT PUSH2 0xBCB JUMPI PUSH2 0xBBD DUP2 DUP4 PUSH2 0x84A JUMP JUMPDEST SWAP1 CODESIZE PUSH2 0xE69 JUMP JUMPDEST PUSH1 0x40 MLOAD RETURNDATASIZE DUP6 DUP3 RETURNDATACOPY RETURNDATASIZE SWAP1 REVERT JUMPDEST PUSH1 0x40 MLOAD PUSH3 0x461BCD PUSH1 0xE5 SHL DUP2 MSTORE PUSH1 0x20 PUSH1 0x4 DUP3 ADD MSTORE PUSH1 0x24 DUP1 DUP3 ADD MSTORE PUSH32 0x496E73756666696369656E742063726561746F7220746F6B656E20616C6C6F77 PUSH1 0x44 DUP3 ADD MSTORE PUSH4 0x616E6365 PUSH1 0xE0 SHL PUSH1 0x64 DUP3 ADD MSTORE PUSH1 0x84 SWAP1 REVERT JUMPDEST SWAP2 POP POP PUSH1 0x20 DUP2 RETURNDATASIZE PUSH1 0x20 GT PUSH2 0x11CA JUMPI JUMPDEST DUP2 PUSH2 0x11B5 PUSH1 0x20 SWAP4 DUP4 PUSH2 0x84A JUMP JUMPDEST DUP2 ADD SUB SLT PUSH2 0x11C6 JUMPI DUP5 SWAP1 MLOAD CODESIZE PUSH2 0xE28 JUMP JUMPDEST DUP3 DUP1 REVERT JUMPDEST RETURNDATASIZE SWAP2 POP PUSH2 0x11A8 JUMP JUMPDEST PUSH1 0x40 MLOAD PUSH3 0x461BCD PUSH1 0xE5 SHL DUP2 MSTORE PUSH1 0x20 PUSH1 0x4 DUP3 ADD MSTORE PUSH1 0x10 PUSH1 0x24 DUP3 ADD MSTORE PUSH16 0x496E76616C696420736C697070616765 PUSH1 0x80 SHL PUSH1 0x44 DUP3 ADD MSTORE PUSH1 0x64 SWAP1 REVERT JUMPDEST POP PUSH32 0x0 SWAP2 PUSH2 0xDC0 JUMP JUMPDEST SWAP1 PUSH1 0x0 PUSH1 0x20 SWAP2 DUP3 DUP2 MLOAD SWAP2 ADD DUP3 DUP6 GAS CALL ISZERO PUSH2 0xAED JUMPI PUSH1 0x0 MLOAD RETURNDATASIZE PUSH2 0x1284 JUMPI POP PUSH1 0x1 PUSH1 0x1 PUSH1 0xA0 SHL SUB DUP2 AND EXTCODESIZE ISZERO JUMPDEST PUSH2 0x1263 JUMPI POP JUMP JUMPDEST PUSH4 0x5274AFE7 PUSH1 0xE0 SHL PUSH1 0x0 SWAP1 DUP2 MSTORE PUSH1 0x1 PUSH1 0x1 PUSH1 0xA0 SHL SUB SWAP2 SWAP1 SWAP2 AND PUSH1 0x4 MSTORE PUSH1 0x24 SWAP1 REVERT JUMPDEST PUSH1 0x1 EQ ISZERO PUSH2 0x125C JUMP INVALID LOG2 PUSH5 0x6970667358 0x22 SLT KECCAK256 0xF7 0xCB PUSH2 0xA2F0 PUSH9 0x98ED0F0FC5B381E394 0xDB PUSH16 0x2F6343F3C246DEEB15CA4B43E1664664 PUSH20 0x6F6C634300081C00330000000000000000000000 "},"methodIdentifiers":{"ABSOLUTE_MAX_SLIPPAGE()":"e7b0444c","AUTO_REDEPLOY_THRESHOLD()":"90cd3694","DEFAULT_MAX_SLIPPAGE()":"85015e09","MAXIMUM_ALLOWED_SLIPPAGE()":"8ac058cc","MAX_SINGLE_SWAP()":"6604b53a","MAX_SWAP_AMOUNT_PERCENT()":"d855dc7e","MIN_TIME_BETWEEN_SWAPS()":"11a9992e","getAmountOut(uint256,uint256,uint256)":"054d50d4","getSlippageSettings()":"c54e1d38","lastSwapTimestamp(address)":"02e9d3e8","liquidityManager()":"33827438","owner()":"8da5cb5b","renounceOwnership()":"715018a6","sonicToken()":"461a3a95","storedFees(address)":"125c1204","swapCreatorTokenForS(address,uint256,uint256,uint256)":"6611cb36","swapFee()":"54cf2aeb","transferOwnership(address)":"f2fde38b","updateMaxSlippage(uint256)":"f896acc7","validateSlippage(uint256)":"f2c75fa0","withdrawStoredFees(address,uint256)":"13079df5"}},"storageLayout":{"storage":[{"astId":8,"contract":"contracts/SaraDEX.sol:SaraDEX","label":"_owner","offset":0,"slot":"0","type":"t_address"},{"astId":780,"contract":"contracts/SaraDEX.sol:SaraDEX","label":"sonicToken","offset":0,"slot":"1","type":"t_address"},{"astId":783,"contract":"contracts/SaraDEX.sol:SaraDEX","label":"liquidityManager","offset":0,"slot":"2","type":"t_contract(SaraLiquidityManager)3306"},{"astId":786,"contract":"contracts/SaraDEX.sol:SaraDEX","label":"swapFee","offset":0,"slot":"3","type":"t_uint256"},{"astId":790,"contract":"contracts/SaraDEX.sol:SaraDEX","label":"lastSwapTimestamp","offset":0,"slot":"4","type":"t_mapping(t_address,t_uint256)"},{"astId":800,"contract":"contracts/SaraDEX.sol:SaraDEX","label":"storedFees","offset":0,"slot":"5","type":"t_mapping(t_address,t_uint256)"},{"astId":816,"contract":"contracts/SaraDEX.sol:SaraDEX","label":"ABSOLUTE_MAX_SLIPPAGE","offset":0,"slot":"6","type":"t_uint256"}],"types":{"t_address":{"encoding":"inplace","label":"address","numberOfBytes":"20"},"t_contract(SaraLiquidityManager)3306":{"encoding":"inplace","label":"contract SaraLiquidityManager","numberOfBytes":"20"},"t_mapping(t_address,t_uint256)":{"encoding":"mapping","key":"t_address","label":"mapping(address => uint256)","numberOfBytes":"32","value":"t_uint256"},"t_uint256":{"encoding":"inplace","label":"uint256","numberOfBytes":"32"}}}}}}