{"contracts/SaraTokenRouter.sol":{"SaraTokenRouter":{"abi":[{"inputs":[{"internalType":"address","name":"_dex","type":"address"},{"internalType":"address","name":"_creatorTokenFactory","type":"address"}],"stateMutability":"nonpayable","type":"constructor"},{"inputs":[{"internalType":"address","name":"owner","type":"address"}],"name":"OwnableInvalidOwner","type":"error"},{"inputs":[{"internalType":"address","name":"account","type":"address"}],"name":"OwnableUnauthorizedAccount","type":"error"},{"inputs":[{"internalType":"address","name":"token","type":"address"}],"name":"SafeERC20FailedOperation","type":"error"},{"anonymous":false,"inputs":[{"indexed":true,"internalType":"address","name":"token","type":"address"},{"indexed":false,"internalType":"uint256","name":"amount","type":"uint256"},{"indexed":false,"internalType":"uint256","name":"timestamp","type":"uint256"}],"name":"ApprovalGranted","type":"event"},{"anonymous":false,"inputs":[{"indexed":true,"internalType":"address","name":"token","type":"address"},{"indexed":false,"internalType":"uint256","name":"timestamp","type":"uint256"}],"name":"ApprovalRevoked","type":"event"},{"anonymous":false,"inputs":[{"indexed":true,"internalType":"address","name":"previousOwner","type":"address"},{"indexed":true,"internalType":"address","name":"newOwner","type":"address"}],"name":"OwnershipTransferred","type":"event"},{"anonymous":false,"inputs":[{"indexed":true,"internalType":"bool","name":"isPaused","type":"bool"},{"indexed":false,"internalType":"uint256","name":"timestamp","type":"uint256"},{"indexed":true,"internalType":"address","name":"actor","type":"address"}],"name":"PauseStateChanged","type":"event"},{"anonymous":false,"inputs":[{"indexed":true,"internalType":"address","name":"token","type":"address"},{"indexed":false,"internalType":"uint256","name":"initialLiquidity","type":"uint256"}],"name":"TokenAutoListed","type":"event"},{"anonymous":false,"inputs":[{"indexed":true,"internalType":"address","name":"creatorToken","type":"address"}],"name":"TokenListed","type":"event"},{"inputs":[],"name":"APPROVAL_TIMEOUT","outputs":[{"internalType":"uint256","name":"","type":"uint256"}],"stateMutability":"view","type":"function"},{"inputs":[],"name":"MAX_INITIAL_LIQUIDITY","outputs":[{"internalType":"uint256","name":"","type":"uint256"}],"stateMutability":"view","type":"function"},{"inputs":[],"name":"MIN_INITIAL_LIQUIDITY","outputs":[{"internalType":"uint256","name":"","type":"uint256"}],"stateMutability":"view","type":"function"},{"inputs":[{"internalType":"uint256","name":"subscriberCount","type":"uint256"}],"name":"calculateInitialLiquidity","outputs":[{"internalType":"uint256","name":"","type":"uint256"}],"stateMutability":"pure","type":"function"},{"inputs":[{"internalType":"address","name":"token","type":"address"}],"name":"completePriceDiscovery","outputs":[],"stateMutability":"nonpayable","type":"function"},{"inputs":[],"name":"creatorTokenFactory","outputs":[{"internalType":"contract ICreatorCoin","name":"","type":"address"}],"stateMutability":"view","type":"function"},{"inputs":[],"name":"dex","outputs":[{"internalType":"contract SaraDEX","name":"","type":"address"}],"stateMutability":"view","type":"function"},{"inputs":[],"name":"getApprovalStatus","outputs":[{"internalType":"bool","name":"isApproved","type":"bool"},{"internalType":"uint256","name":"timeUntilExpiry","type":"uint256"}],"stateMutability":"view","type":"function"},{"inputs":[],"name":"getPauseState","outputs":[{"internalType":"bool","name":"isPaused","type":"bool"},{"internalType":"uint256","name":"lastChange","type":"uint256"},{"internalType":"uint256","name":"duration","type":"uint256"}],"stateMutability":"view","type":"function"},{"inputs":[{"internalType":"address","name":"","type":"address"}],"name":"hasOpenApproval","outputs":[{"internalType":"bool","name":"","type":"bool"}],"stateMutability":"view","type":"function"},{"inputs":[{"internalType":"address","name":"","type":"address"}],"name":"inPriceDiscovery","outputs":[{"internalType":"bool","name":"","type":"bool"}],"stateMutability":"view","type":"function"},{"inputs":[],"name":"lastApprovalTimestamp","outputs":[{"internalType":"uint256","name":"","type":"uint256"}],"stateMutability":"view","type":"function"},{"inputs":[],"name":"lastPauseChange","outputs":[{"internalType":"uint256","name":"","type":"uint256"}],"stateMutability":"view","type":"function"},{"inputs":[{"internalType":"address","name":"creatorToken","type":"address"}],"name":"listNewCreatorToken","outputs":[],"stateMutability":"nonpayable","type":"function"},{"inputs":[{"internalType":"address","name":"","type":"address"}],"name":"listedTokens","outputs":[{"internalType":"bool","name":"","type":"bool"}],"stateMutability":"view","type":"function"},{"inputs":[{"internalType":"address","name":"token","type":"address"},{"internalType":"uint256","name":"subscriberCount","type":"uint256"}],"name":"onTokenMinted","outputs":[],"stateMutability":"nonpayable","type":"function"},{"inputs":[],"name":"owner","outputs":[{"internalType":"address","name":"","type":"address"}],"stateMutability":"view","type":"function"},{"inputs":[],"name":"paused","outputs":[{"internalType":"bool","name":"","type":"bool"}],"stateMutability":"view","type":"function"},{"inputs":[],"name":"renounceOwnership","outputs":[],"stateMutability":"nonpayable","type":"function"},{"inputs":[],"name":"revokeApproval","outputs":[],"stateMutability":"nonpayable","type":"function"},{"inputs":[],"name":"togglePause","outputs":[],"stateMutability":"nonpayable","type":"function"},{"inputs":[{"internalType":"address","name":"newOwner","type":"address"}],"name":"transferOwnership","outputs":[],"stateMutability":"nonpayable","type":"function"},{"inputs":[{"internalType":"address","name":"creatorToken","type":"address"},{"internalType":"uint256","name":"newReserveS","type":"uint256"}],"name":"updateAIRebalance","outputs":[],"stateMutability":"nonpayable","type":"function"},{"inputs":[{"internalType":"address","name":"token","type":"address"},{"internalType":"uint256","name":"currentSubscribers","type":"uint256"}],"name":"updateEngagementMetrics","outputs":[],"stateMutability":"nonpayable","type":"function"}],"evm":{"bytecode":{"linkReferences":{},"object":"6080346100f257601f6116aa38819003918201601f19168301916001600160401b038311848410176100f75780849260409485528339810103126100f257610052602061004b8361010d565b920161010d565b33156100dc5760008054336001600160a01b0319821681178355604051949290916001600160a01b0316907f8be0079c531659141344cd1fd0a4f28419497f9722a3daafe3b4186f6b6457e09080a3600180546001600160a01b039283166001600160a01b0319918216179091556003805493909216921691909117905561158890816101228239f35b631e4fbdf760e01b600052600060045260246000fd5b600080fd5b634e487b7160e01b600052604160045260246000fd5b51906001600160a01b03821682036100f25756fe608080604052600436101561001357600080fd5b600090813560e01c9081632ac84af9146112d0575080633417c3d0146111c95780633f80aace14610bc15780635c975abb14610b9b578063692058c214610b725780636cbb348614610a8f578063700d53a714610a505780637093f47f14610a11578063715018a6146109b7578063728780fa1461099357806388ed75121461096a57806389312c351461094c5780638da5cb5b146109255780638e3b58e2146108fe5780638f8f54b3146108e05780638f9d5aa3146107e457806390d02b3c146106635780639a44f1fb146106125780639c3ba48b14610559578063c4ae316814610535578063c6a55cbb146104f6578063f2fde38b14610470578063f3683428146104535763fb99d5f41461012957600080fd5b34610450576020366003190112610450576101426112f4565b61014a611529565b6001600160a01b03168082526004602052604082205461016c9060ff1661130f565b60015460405163461a3a9560e01b815283916001600160a01b031690602081600481855afa908115610383576024916020918591610433575b506040516370a0823160e01b815230600482015292839182906001600160a01b03165afa908115610383578391610400575b5060049161021f602092604051906101f0604083611354565b8482527f496e697469616c206c69717569646974792063616e6e6f74206265207a65726f8583015215156113f1565b6040516306704e8760e31b815292839182905afa9081156103d65782916103e1575b506001600160a01b0316803b156103d257818091602460405180948193633ee6757d60e21b83528860048401525af180156103d6576103bd575b50506001546040516306704e8760e31b815290602090829060049082906001600160a01b03165afa90811561038357602491604091859161038e575b508151630fa6707960e21b81526004810185905292839182906001600160a01b03165afa90811561038357839161034a575b5015610305578152600460205260408120805460ff1916905580f35b60405162461bcd60e51b815260206004820152601e60248201527f5a65726f206c697175696469747920616674657220646973636f7665727900006044820152606490fd5b90506040813d60401161037b575b8161036560409383611354565b810103126103775760200151386102e9565b8280fd5b3d9150610358565b6040513d85823e3d90fd5b6103b0915060203d6020116103b6575b6103a88183611354565b81019061138c565b386102b7565b503d61039e565b816103c791611354565b6103d257813861027b565b5080fd5b6040513d84823e3d90fd5b6103fa915060203d6020116103b6576103a88183611354565b38610241565b90506020813d60201161042b575b8161041b60209383611354565b81010312610377575160046101d7565b3d915061040e565b61044a9150823d84116103b6576103a88183611354565b386101a5565b80fd5b50346104505780600319360112610450576020604051610e108152f35b50346104505760203660031901126104505761048a6112f4565b610492611529565b6001600160a01b031680156104e25781546001600160a01b03198116821783556001600160a01b03167f8be0079c531659141344cd1fd0a4f28419497f9722a3daafe3b4186f6b6457e08380a380f35b631e4fbdf760e01b82526004829052602482fd5b50346104505760203660031901126104505760209060ff906040906001600160a01b036105216112f4565b168152600484522054166040519015158152f35b503461045057806003193601126104505761054e611529565b6105566114c4565b80f35b5034610450576020366003190112610450576105736112f4565b61057b611529565b6001600160a01b03168082526002602052604082205460ff166105d657808252600260205260408220805460ff191660011790557f017664858438d89f547fee46da0bcfc5396ea13a9fb1490b8fdd76cfa979f1a98280a280f35b60405162461bcd60e51b8152602060048201526014602482015273151bdad95b88185b1c9958591e481b1a5cdd195960621b6044820152606490fd5b503461045057806003193601126104505760035460075460609260a09290921c60ff1691811561065d5750610647814261149f565b905b604051921515835260208301526040820152f35b90610649565b503461045057806003193601126104505761067c611529565b60015460405163461a3a9560e01b81526001600160a01b0390911690602081600481855afa9081156103835783916107c5575b506001600160a01b03168083526005602052604083205490919060ff166106d4578280f35b6020600491604051928380926306704e8760e31b82525afa9081156103835783916107a6575b5060405163095ea7b360e01b81526001600160a01b0390911660048201526024810183905260208160448186865af1801561038357610779575b5080825260056020526040822060ff1981541690557f3e776e19fc0f05c1b8270744b61c5729d5d1a5d8dded1bfb81e3979e257edd596020604051428152a238808280f35b61079a9060203d60201161079f575b6107928183611354565b8101906114ac565b610734565b503d610788565b6107bf915060203d6020116103b6576103a88183611354565b386106fa565b6107de915060203d6020116103b6576103a88183611354565b386106af565b503461045057806003193601126104505760015460405163461a3a9560e01b815290602090829060049082906001600160a01b03165afa9081156103d65782916108c1575b506001600160a01b031681526005602052604081205460ff168080610896575b1561088e5760065491610e10830180931161087a575061086c604092429061149f565b825191151582526020820152f35b634e487b7160e01b81526011600452602490fd5b60409161086c565b50600654610e1081018091116108ad574210610849565b634e487b7160e01b83526011600452602483fd5b6108da915060203d6020116103b6576103a88183611354565b38610829565b50346104505780600319360112610450576020600754604051908152f35b503461045057602036600319011261045057602061091d600435611454565b604051908152f35b5034610450578060031936011261045057546040516001600160a01b039091168152602090f35b50346104505780600319360112610450576020600654604051908152f35b50346104505780600319360112610450576003546040516001600160a01b039091168152602090f35b50346104505780600319360112610450576020604051683635c9adc5dea000008152f35b50346104505780600319360112610450576109d0611529565b80546001600160a01b03198116825581906001600160a01b03167f8be0079c531659141344cd1fd0a4f28419497f9722a3daafe3b4186f6b6457e08280a380f35b50346104505760203660031901126104505760209060ff906040906001600160a01b03610a3c6112f4565b168152600284522054166040519015158152f35b50346104505760203660031901126104505760209060ff906040906001600160a01b03610a7b6112f4565b168152600584522054166040519015158152f35b50346104505760403660031901126104505780610aaa6112f4565b610ab2611529565b6001546040516306704e8760e31b815290602090829060049082906001600160a01b03165afa908115610383578391610b53575b506001600160a01b031690813b15610b4f576040516355776b7760e01b81526001600160a01b03909116600482015260248082018490523560448201529082908290606490829084905af180156103d657610b3e5750f35b81610b4891611354565b6104505780f35b5050fd5b610b6c915060203d6020116103b6576103a88183611354565b38610ae6565b50346104505780600319360112610450576001546040516001600160a01b039091168152602090f35b5034610450578060031936011261045057602060ff60035460a01c166040519015158152f35b503461045057604036600319011261045057610bdb6112f4565b6024359060035460ff8160a01c1661118f576001600160a01b0316330361115b576001600160a01b0381168084526004602052604084205490929060ff1661111657610c30610c286113ab565b8215156113f1565b610c3981611454565b91610c7d604051610c4b604082611354565b602081527f496e697469616c206c69717569646974792063616e6e6f74206265207a65726f60208201528415156113f1565b60015460405163461a3a9560e01b815290602090829060049082906001600160a01b03165afa90811561110b5786916110ec575b5060018060a01b0316602086604051828101906323b872dd60e01b825233602482015230604482015287606482015260648152610cef608482611354565b519082855af115610fa85785513d6110e35750803b155b6110d1575060015460405163461a3a9560e01b8152869392916001600160a01b031690602081600481855afa908115610fa85785916110b2575b506001600160a01b03168085526005602052604085205490919060ff16610fd0575b506001546040516306704e8760e31b815290602090829060049082906001600160a01b03165afa8015610fa85786602091610dd0938891610fb3575b5060405163095ea7b360e01b81526001600160a01b039091166004820152602481019190915291829081906044820190565b038188865af18015610fa857610f8b575b50808452600560205260408420600160ff19825416179055426006557fbfef02eb2bfd9f7e331d0e19356dad9cea83b5150ddd7f88213fa23208f3c79960408051878152426020820152a2848352600460208181526040808620805460ff191660019081179091555490516306704e8760e31b815292839182906001600160a01b03165afa908115610f80578491610f61575b506001600160a01b031691823b15610f5d57604051632324f29f60e21b81526001600160a01b0392909216600483015260248201529082908290604490829084905af180156103d657610f48575b5050610ecc611529565b818352600260205260ff6040842054166105d657818352600260209081526040808520805460ff19166001179055517fd6d6d534b6d189e6da779fc9a8cc9ab4bd2680e9443079b472ebd776e7b5728a92847f017664858438d89f547fee46da0bcfc5396ea13a9fb1490b8fdd76cfa979f1a98780a28152a280f35b81610f5291611354565b610377578238610ec2565b8380fd5b610f7a915060203d6020116103b6576103a88183611354565b38610e74565b6040513d86823e3d90fd5b610fa39060203d60201161079f576107928183611354565b610de1565b6040513d87823e3d90fd5b610fca9150833d85116103b6576103a88183611354565b38610d9e565b6020600491604051928380926306704e8760e31b82525afa908115610fa8578591611093575b5060405163095ea7b360e01b81526001600160a01b0390911660048201526024810185905260208160448188865af18015610fa857611076575b5080845260056020526040842060ff198154169055807f3e776e19fc0f05c1b8270744b61c5729d5d1a5d8dded1bfb81e3979e257edd596020604051428152a238610d62565b61108e9060203d60201161079f576107928183611354565b611030565b6110ac915060203d6020116103b6576103a88183611354565b38610ff6565b6110cb915060203d6020116103b6576103a88183611354565b38610d40565b635274afe760e01b8652600452602485fd5b60011415610d06565b611105915060203d6020116103b6576103a88183611354565b38610cb1565b6040513d88823e3d90fd5b60405162461bcd60e51b815260206004820152601a60248201527f546f6b656e20616c726561647920696e20646973636f766572790000000000006044820152606490fd5b60405162461bcd60e51b815260206004820152600c60248201526b155b985d5d1a1bdc9a5e995960a21b6044820152606490fd5b60405162461bcd60e51b815260206004820152601260248201527110dbdb9d1c9858dd081a5cc81c185d5cd95960721b6044820152606490fd5b503461045057604036600319011261045057806111e46112f4565b6111ec611529565b6001600160a01b03811682526004602052604082205461120e9060ff1661130f565b6001546040516306704e8760e31b815290602090829060049082906001600160a01b03165afa9081156103835783916112b1575b506001600160a01b0316803b15610b4f5760405163271ac57960e11b81526001600160a01b03929092166004830152602480359083015290919081908390604490829084905af180156112a4576112965780f35b61129f91611354565b388180f35b50604051903d90823e3d90fd5b6112ca915060203d6020116103b6576103a88183611354565b38611242565b9050346103d257816003193601126103d2578069d3c21bcecceda100000060209252f35b600435906001600160a01b038216820361130a57565b600080fd5b1561131657565b60405162461bcd60e51b8152602060048201526016602482015275546f6b656e206e6f7420696e20646973636f7665727960501b6044820152606490fd5b90601f8019910116810190811067ffffffffffffffff82111761137657604052565b634e487b7160e01b600052604160045260246000fd5b9081602091031261130a57516001600160a01b038116810361130a5790565b604051906113ba606083611354565b6022825261726f60f01b6040837f496e697469616c2073756273637269626572732063616e6e6f74206265207a6560208201520152565b156113f95750565b6040519062461bcd60e51b8252602060048301528181519182602483015260005b83811061143c5750508160006044809484010152601f80199101168101030190fd5b6020828201810151604487840101528593500161141a565b80156114686114616113ab565b82156113f1565b670de0b6b3a76400008202918204670de0b6b3a76400001417156114895790565b634e487b7160e01b600052601160045260246000fd5b9190820391821161148957565b9081602091031261130a5751801515810361130a5790565b60035460ff8160a01c161590818015146115255760ff60a01b191660a082901b60ff60a01b16176003554260078190556040519081523391907fa965406db9d595b01329adb8152ce3b8bac4b7bfb1e705308939fb0c4a88318c90602090a3565b5050565b6000546001600160a01b0316330361153d57565b63118cdaa760e01b6000523360045260246000fdfea264697066735822122098e31dc2634d1d7393afd542a7d9953099ad06a8e22317a9af03be83cbb2f2ea64736f6c634300081c0033","opcodes":"PUSH1 0x80 CALLVALUE PUSH2 0xF2 JUMPI PUSH1 0x1F PUSH2 0x16AA CODESIZE DUP2 SWAP1 SUB SWAP2 DUP3 ADD PUSH1 0x1F NOT AND DUP4 ADD SWAP2 PUSH1 0x1 PUSH1 0x1 PUSH1 0x40 SHL SUB DUP4 GT DUP5 DUP5 LT OR PUSH2 0xF7 JUMPI DUP1 DUP5 SWAP3 PUSH1 0x40 SWAP5 DUP6 MSTORE DUP4 CODECOPY DUP2 ADD SUB SLT PUSH2 0xF2 JUMPI PUSH2 0x52 PUSH1 0x20 PUSH2 0x4B DUP4 PUSH2 0x10D JUMP JUMPDEST SWAP3 ADD PUSH2 0x10D JUMP JUMPDEST CALLER ISZERO PUSH2 0xDC JUMPI PUSH1 0x0 DUP1 SLOAD CALLER PUSH1 0x1 PUSH1 0x1 PUSH1 0xA0 SHL SUB NOT DUP3 AND DUP2 OR DUP4 SSTORE PUSH1 0x40 MLOAD SWAP5 SWAP3 SWAP1 SWAP2 PUSH1 0x1 PUSH1 0x1 PUSH1 0xA0 SHL SUB AND SWAP1 PUSH32 0x8BE0079C531659141344CD1FD0A4F28419497F9722A3DAAFE3B4186F6B6457E0 SWAP1 DUP1 LOG3 PUSH1 0x1 DUP1 SLOAD PUSH1 0x1 PUSH1 0x1 PUSH1 0xA0 SHL SUB SWAP3 DUP4 AND PUSH1 0x1 PUSH1 0x1 PUSH1 0xA0 SHL SUB NOT SWAP2 DUP3 AND OR SWAP1 SWAP2 SSTORE PUSH1 0x3 DUP1 SLOAD SWAP4 SWAP1 SWAP3 AND SWAP3 AND SWAP2 SWAP1 SWAP2 OR SWAP1 SSTORE PUSH2 0x1588 SWAP1 DUP2 PUSH2 0x122 DUP3 CODECOPY RETURN JUMPDEST PUSH4 0x1E4FBDF7 PUSH1 0xE0 SHL PUSH1 0x0 MSTORE PUSH1 0x0 PUSH1 0x4 MSTORE PUSH1 0x24 PUSH1 0x0 REVERT JUMPDEST PUSH1 0x0 DUP1 REVERT JUMPDEST PUSH4 0x4E487B71 PUSH1 0xE0 SHL PUSH1 0x0 MSTORE PUSH1 0x41 PUSH1 0x4 MSTORE PUSH1 0x24 PUSH1 0x0 REVERT JUMPDEST MLOAD SWAP1 PUSH1 0x1 PUSH1 0x1 PUSH1 0xA0 SHL SUB DUP3 AND DUP3 SUB PUSH2 0xF2 JUMPI JUMP INVALID PUSH1 0x80 DUP1 PUSH1 0x40 MSTORE PUSH1 0x4 CALLDATASIZE LT ISZERO PUSH2 0x13 JUMPI PUSH1 0x0 DUP1 REVERT JUMPDEST PUSH1 0x0 SWAP1 DUP2 CALLDATALOAD PUSH1 0xE0 SHR SWAP1 DUP2 PUSH4 0x2AC84AF9 EQ PUSH2 0x12D0 JUMPI POP DUP1 PUSH4 0x3417C3D0 EQ PUSH2 0x11C9 JUMPI DUP1 PUSH4 0x3F80AACE EQ PUSH2 0xBC1 JUMPI DUP1 PUSH4 0x5C975ABB EQ PUSH2 0xB9B JUMPI DUP1 PUSH4 0x692058C2 EQ PUSH2 0xB72 JUMPI DUP1 PUSH4 0x6CBB3486 EQ PUSH2 0xA8F JUMPI DUP1 PUSH4 0x700D53A7 EQ PUSH2 0xA50 JUMPI DUP1 PUSH4 0x7093F47F EQ PUSH2 0xA11 JUMPI DUP1 PUSH4 0x715018A6 EQ PUSH2 0x9B7 JUMPI DUP1 PUSH4 0x728780FA EQ PUSH2 0x993 JUMPI DUP1 PUSH4 0x88ED7512 EQ PUSH2 0x96A JUMPI DUP1 PUSH4 0x89312C35 EQ PUSH2 0x94C JUMPI DUP1 PUSH4 0x8DA5CB5B EQ PUSH2 0x925 JUMPI DUP1 PUSH4 0x8E3B58E2 EQ PUSH2 0x8FE JUMPI DUP1 PUSH4 0x8F8F54B3 EQ PUSH2 0x8E0 JUMPI DUP1 PUSH4 0x8F9D5AA3 EQ PUSH2 0x7E4 JUMPI DUP1 PUSH4 0x90D02B3C EQ PUSH2 0x663 JUMPI DUP1 PUSH4 0x9A44F1FB EQ PUSH2 0x612 JUMPI DUP1 PUSH4 0x9C3BA48B EQ PUSH2 0x559 JUMPI DUP1 PUSH4 0xC4AE3168 EQ PUSH2 0x535 JUMPI DUP1 PUSH4 0xC6A55CBB EQ PUSH2 0x4F6 JUMPI DUP1 PUSH4 0xF2FDE38B EQ PUSH2 0x470 JUMPI DUP1 PUSH4 0xF3683428 EQ PUSH2 0x453 JUMPI PUSH4 0xFB99D5F4 EQ PUSH2 0x129 JUMPI PUSH1 0x0 DUP1 REVERT JUMPDEST CALLVALUE PUSH2 0x450 JUMPI PUSH1 0x20 CALLDATASIZE PUSH1 0x3 NOT ADD SLT PUSH2 0x450 JUMPI PUSH2 0x142 PUSH2 0x12F4 JUMP JUMPDEST PUSH2 0x14A PUSH2 0x1529 JUMP JUMPDEST PUSH1 0x1 PUSH1 0x1 PUSH1 0xA0 SHL SUB AND DUP1 DUP3 MSTORE PUSH1 0x4 PUSH1 0x20 MSTORE PUSH1 0x40 DUP3 KECCAK256 SLOAD PUSH2 0x16C SWAP1 PUSH1 0xFF AND PUSH2 0x130F JUMP JUMPDEST PUSH1 0x1 SLOAD PUSH1 0x40 MLOAD PUSH4 0x461A3A95 PUSH1 0xE0 SHL DUP2 MSTORE DUP4 SWAP2 PUSH1 0x1 PUSH1 0x1 PUSH1 0xA0 SHL SUB AND SWAP1 PUSH1 0x20 DUP2 PUSH1 0x4 DUP2 DUP6 GAS STATICCALL SWAP1 DUP2 ISZERO PUSH2 0x383 JUMPI PUSH1 0x24 SWAP2 PUSH1 0x20 SWAP2 DUP6 SWAP2 PUSH2 0x433 JUMPI JUMPDEST POP PUSH1 0x40 MLOAD PUSH4 0x70A08231 PUSH1 0xE0 SHL DUP2 MSTORE ADDRESS PUSH1 0x4 DUP3 ADD MSTORE SWAP3 DUP4 SWAP2 DUP3 SWAP1 PUSH1 0x1 PUSH1 0x1 PUSH1 0xA0 SHL SUB AND GAS STATICCALL SWAP1 DUP2 ISZERO PUSH2 0x383 JUMPI DUP4 SWAP2 PUSH2 0x400 JUMPI JUMPDEST POP PUSH1 0x4 SWAP2 PUSH2 0x21F PUSH1 0x20 SWAP3 PUSH1 0x40 MLOAD SWAP1 PUSH2 0x1F0 PUSH1 0x40 DUP4 PUSH2 0x1354 JUMP JUMPDEST DUP5 DUP3 MSTORE PUSH32 0x496E697469616C206C69717569646974792063616E6E6F74206265207A65726F DUP6 DUP4 ADD MSTORE ISZERO ISZERO PUSH2 0x13F1 JUMP JUMPDEST PUSH1 0x40 MLOAD PUSH4 0x6704E87 PUSH1 0xE3 SHL DUP2 MSTORE SWAP3 DUP4 SWAP2 DUP3 SWAP1 GAS STATICCALL SWAP1 DUP2 ISZERO PUSH2 0x3D6 JUMPI DUP3 SWAP2 PUSH2 0x3E1 JUMPI JUMPDEST POP PUSH1 0x1 PUSH1 0x1 PUSH1 0xA0 SHL SUB AND DUP1 EXTCODESIZE ISZERO PUSH2 0x3D2 JUMPI DUP2 DUP1 SWAP2 PUSH1 0x24 PUSH1 0x40 MLOAD DUP1 SWAP5 DUP2 SWAP4 PUSH4 0x3EE6757D PUSH1 0xE2 SHL DUP4 MSTORE DUP9 PUSH1 0x4 DUP5 ADD MSTORE GAS CALL DUP1 ISZERO PUSH2 0x3D6 JUMPI PUSH2 0x3BD JUMPI JUMPDEST POP POP PUSH1 0x1 SLOAD PUSH1 0x40 MLOAD PUSH4 0x6704E87 PUSH1 0xE3 SHL DUP2 MSTORE SWAP1 PUSH1 0x20 SWAP1 DUP3 SWAP1 PUSH1 0x4 SWAP1 DUP3 SWAP1 PUSH1 0x1 PUSH1 0x1 PUSH1 0xA0 SHL SUB AND GAS STATICCALL SWAP1 DUP2 ISZERO PUSH2 0x383 JUMPI PUSH1 0x24 SWAP2 PUSH1 0x40 SWAP2 DUP6 SWAP2 PUSH2 0x38E JUMPI JUMPDEST POP DUP2 MLOAD PUSH4 0xFA67079 PUSH1 0xE2 SHL DUP2 MSTORE PUSH1 0x4 DUP2 ADD DUP6 SWAP1 MSTORE SWAP3 DUP4 SWAP2 DUP3 SWAP1 PUSH1 0x1 PUSH1 0x1 PUSH1 0xA0 SHL SUB AND GAS STATICCALL SWAP1 DUP2 ISZERO PUSH2 0x383 JUMPI DUP4 SWAP2 PUSH2 0x34A JUMPI JUMPDEST POP ISZERO PUSH2 0x305 JUMPI DUP2 MSTORE PUSH1 0x4 PUSH1 0x20 MSTORE PUSH1 0x40 DUP2 KECCAK256 DUP1 SLOAD PUSH1 0xFF NOT AND SWAP1 SSTORE DUP1 RETURN JUMPDEST PUSH1 0x40 MLOAD PUSH3 0x461BCD PUSH1 0xE5 SHL DUP2 MSTORE PUSH1 0x20 PUSH1 0x4 DUP3 ADD MSTORE PUSH1 0x1E PUSH1 0x24 DUP3 ADD MSTORE PUSH32 0x5A65726F206C697175696469747920616674657220646973636F766572790000 PUSH1 0x44 DUP3 ADD MSTORE PUSH1 0x64 SWAP1 REVERT JUMPDEST SWAP1 POP PUSH1 0x40 DUP2 RETURNDATASIZE PUSH1 0x40 GT PUSH2 0x37B JUMPI JUMPDEST DUP2 PUSH2 0x365 PUSH1 0x40 SWAP4 DUP4 PUSH2 0x1354 JUMP JUMPDEST DUP2 ADD SUB SLT PUSH2 0x377 JUMPI PUSH1 0x20 ADD MLOAD CODESIZE PUSH2 0x2E9 JUMP JUMPDEST DUP3 DUP1 REVERT JUMPDEST RETURNDATASIZE SWAP2 POP PUSH2 0x358 JUMP JUMPDEST PUSH1 0x40 MLOAD RETURNDATASIZE DUP6 DUP3 RETURNDATACOPY RETURNDATASIZE SWAP1 REVERT JUMPDEST PUSH2 0x3B0 SWAP2 POP PUSH1 0x20 RETURNDATASIZE PUSH1 0x20 GT PUSH2 0x3B6 JUMPI JUMPDEST PUSH2 0x3A8 DUP2 DUP4 PUSH2 0x1354 JUMP JUMPDEST DUP2 ADD SWAP1 PUSH2 0x138C JUMP JUMPDEST CODESIZE PUSH2 0x2B7 JUMP JUMPDEST POP RETURNDATASIZE PUSH2 0x39E JUMP JUMPDEST DUP2 PUSH2 0x3C7 SWAP2 PUSH2 0x1354 JUMP JUMPDEST PUSH2 0x3D2 JUMPI DUP2 CODESIZE PUSH2 0x27B JUMP JUMPDEST POP DUP1 REVERT JUMPDEST PUSH1 0x40 MLOAD RETURNDATASIZE DUP5 DUP3 RETURNDATACOPY RETURNDATASIZE SWAP1 REVERT JUMPDEST PUSH2 0x3FA SWAP2 POP PUSH1 0x20 RETURNDATASIZE PUSH1 0x20 GT PUSH2 0x3B6 JUMPI PUSH2 0x3A8 DUP2 DUP4 PUSH2 0x1354 JUMP JUMPDEST CODESIZE PUSH2 0x241 JUMP JUMPDEST SWAP1 POP PUSH1 0x20 DUP2 RETURNDATASIZE PUSH1 0x20 GT PUSH2 0x42B JUMPI JUMPDEST DUP2 PUSH2 0x41B PUSH1 0x20 SWAP4 DUP4 PUSH2 0x1354 JUMP JUMPDEST DUP2 ADD SUB SLT PUSH2 0x377 JUMPI MLOAD PUSH1 0x4 PUSH2 0x1D7 JUMP JUMPDEST RETURNDATASIZE SWAP2 POP PUSH2 0x40E JUMP JUMPDEST PUSH2 0x44A SWAP2 POP DUP3 RETURNDATASIZE DUP5 GT PUSH2 0x3B6 JUMPI PUSH2 0x3A8 DUP2 DUP4 PUSH2 0x1354 JUMP JUMPDEST CODESIZE PUSH2 0x1A5 JUMP JUMPDEST DUP1 REVERT JUMPDEST POP CALLVALUE PUSH2 0x450 JUMPI DUP1 PUSH1 0x3 NOT CALLDATASIZE ADD SLT PUSH2 0x450 JUMPI PUSH1 0x20 PUSH1 0x40 MLOAD PUSH2 0xE10 DUP2 MSTORE RETURN JUMPDEST POP CALLVALUE PUSH2 0x450 JUMPI PUSH1 0x20 CALLDATASIZE PUSH1 0x3 NOT ADD SLT PUSH2 0x450 JUMPI PUSH2 0x48A PUSH2 0x12F4 JUMP JUMPDEST PUSH2 0x492 PUSH2 0x1529 JUMP JUMPDEST PUSH1 0x1 PUSH1 0x1 PUSH1 0xA0 SHL SUB AND DUP1 ISZERO PUSH2 0x4E2 JUMPI DUP2 SLOAD PUSH1 0x1 PUSH1 0x1 PUSH1 0xA0 SHL SUB NOT DUP2 AND DUP3 OR DUP4 SSTORE PUSH1 0x1 PUSH1 0x1 PUSH1 0xA0 SHL SUB AND PUSH32 0x8BE0079C531659141344CD1FD0A4F28419497F9722A3DAAFE3B4186F6B6457E0 DUP4 DUP1 LOG3 DUP1 RETURN JUMPDEST PUSH4 0x1E4FBDF7 PUSH1 0xE0 SHL DUP3 MSTORE PUSH1 0x4 DUP3 SWAP1 MSTORE PUSH1 0x24 DUP3 REVERT JUMPDEST POP CALLVALUE PUSH2 0x450 JUMPI PUSH1 0x20 CALLDATASIZE PUSH1 0x3 NOT ADD SLT PUSH2 0x450 JUMPI PUSH1 0x20 SWAP1 PUSH1 0xFF SWAP1 PUSH1 0x40 SWAP1 PUSH1 0x1 PUSH1 0x1 PUSH1 0xA0 SHL SUB PUSH2 0x521 PUSH2 0x12F4 JUMP JUMPDEST AND DUP2 MSTORE PUSH1 0x4 DUP5 MSTORE KECCAK256 SLOAD AND PUSH1 0x40 MLOAD SWAP1 ISZERO ISZERO DUP2 MSTORE RETURN JUMPDEST POP CALLVALUE PUSH2 0x450 JUMPI DUP1 PUSH1 0x3 NOT CALLDATASIZE ADD SLT PUSH2 0x450 JUMPI PUSH2 0x54E PUSH2 0x1529 JUMP JUMPDEST PUSH2 0x556 PUSH2 0x14C4 JUMP JUMPDEST DUP1 RETURN JUMPDEST POP CALLVALUE PUSH2 0x450 JUMPI PUSH1 0x20 CALLDATASIZE PUSH1 0x3 NOT ADD SLT PUSH2 0x450 JUMPI PUSH2 0x573 PUSH2 0x12F4 JUMP JUMPDEST PUSH2 0x57B PUSH2 0x1529 JUMP JUMPDEST PUSH1 0x1 PUSH1 0x1 PUSH1 0xA0 SHL SUB AND DUP1 DUP3 MSTORE PUSH1 0x2 PUSH1 0x20 MSTORE PUSH1 0x40 DUP3 KECCAK256 SLOAD PUSH1 0xFF AND PUSH2 0x5D6 JUMPI DUP1 DUP3 MSTORE PUSH1 0x2 PUSH1 0x20 MSTORE PUSH1 0x40 DUP3 KECCAK256 DUP1 SLOAD PUSH1 0xFF NOT AND PUSH1 0x1 OR SWAP1 SSTORE PUSH32 0x17664858438D89F547FEE46DA0BCFC5396EA13A9FB1490B8FDD76CFA979F1A9 DUP3 DUP1 LOG2 DUP1 RETURN JUMPDEST PUSH1 0x40 MLOAD PUSH3 0x461BCD PUSH1 0xE5 SHL DUP2 MSTORE PUSH1 0x20 PUSH1 0x4 DUP3 ADD MSTORE PUSH1 0x14 PUSH1 0x24 DUP3 ADD MSTORE PUSH20 0x151BDAD95B88185B1C9958591E481B1A5CDD1959 PUSH1 0x62 SHL PUSH1 0x44 DUP3 ADD MSTORE PUSH1 0x64 SWAP1 REVERT JUMPDEST POP CALLVALUE PUSH2 0x450 JUMPI DUP1 PUSH1 0x3 NOT CALLDATASIZE ADD SLT PUSH2 0x450 JUMPI PUSH1 0x3 SLOAD PUSH1 0x7 SLOAD PUSH1 0x60 SWAP3 PUSH1 0xA0 SWAP3 SWAP1 SWAP3 SHR PUSH1 0xFF AND SWAP2 DUP2 ISZERO PUSH2 0x65D JUMPI POP PUSH2 0x647 DUP2 TIMESTAMP PUSH2 0x149F JUMP JUMPDEST SWAP1 JUMPDEST PUSH1 0x40 MLOAD SWAP3 ISZERO ISZERO DUP4 MSTORE PUSH1 0x20 DUP4 ADD MSTORE PUSH1 0x40 DUP3 ADD MSTORE RETURN JUMPDEST SWAP1 PUSH2 0x649 JUMP JUMPDEST POP CALLVALUE PUSH2 0x450 JUMPI DUP1 PUSH1 0x3 NOT CALLDATASIZE ADD SLT PUSH2 0x450 JUMPI PUSH2 0x67C PUSH2 0x1529 JUMP JUMPDEST PUSH1 0x1 SLOAD PUSH1 0x40 MLOAD PUSH4 0x461A3A95 PUSH1 0xE0 SHL DUP2 MSTORE PUSH1 0x1 PUSH1 0x1 PUSH1 0xA0 SHL SUB SWAP1 SWAP2 AND SWAP1 PUSH1 0x20 DUP2 PUSH1 0x4 DUP2 DUP6 GAS STATICCALL SWAP1 DUP2 ISZERO PUSH2 0x383 JUMPI DUP4 SWAP2 PUSH2 0x7C5 JUMPI JUMPDEST POP PUSH1 0x1 PUSH1 0x1 PUSH1 0xA0 SHL SUB AND DUP1 DUP4 MSTORE PUSH1 0x5 PUSH1 0x20 MSTORE PUSH1 0x40 DUP4 KECCAK256 SLOAD SWAP1 SWAP2 SWAP1 PUSH1 0xFF AND PUSH2 0x6D4 JUMPI DUP3 DUP1 RETURN JUMPDEST PUSH1 0x20 PUSH1 0x4 SWAP2 PUSH1 0x40 MLOAD SWAP3 DUP4 DUP1 SWAP3 PUSH4 0x6704E87 PUSH1 0xE3 SHL DUP3 MSTORE GAS STATICCALL SWAP1 DUP2 ISZERO PUSH2 0x383 JUMPI DUP4 SWAP2 PUSH2 0x7A6 JUMPI JUMPDEST POP PUSH1 0x40 MLOAD PUSH4 0x95EA7B3 PUSH1 0xE0 SHL DUP2 MSTORE PUSH1 0x1 PUSH1 0x1 PUSH1 0xA0 SHL SUB SWAP1 SWAP2 AND PUSH1 0x4 DUP3 ADD MSTORE PUSH1 0x24 DUP2 ADD DUP4 SWAP1 MSTORE PUSH1 0x20 DUP2 PUSH1 0x44 DUP2 DUP7 DUP7 GAS CALL DUP1 ISZERO PUSH2 0x383 JUMPI PUSH2 0x779 JUMPI JUMPDEST POP DUP1 DUP3 MSTORE PUSH1 0x5 PUSH1 0x20 MSTORE PUSH1 0x40 DUP3 KECCAK256 PUSH1 0xFF NOT DUP2 SLOAD AND SWAP1 SSTORE PUSH32 0x3E776E19FC0F05C1B8270744B61C5729D5D1A5D8DDED1BFB81E3979E257EDD59 PUSH1 0x20 PUSH1 0x40 MLOAD TIMESTAMP DUP2 MSTORE LOG2 CODESIZE DUP1 DUP3 DUP1 RETURN JUMPDEST PUSH2 0x79A SWAP1 PUSH1 0x20 RETURNDATASIZE PUSH1 0x20 GT PUSH2 0x79F JUMPI JUMPDEST PUSH2 0x792 DUP2 DUP4 PUSH2 0x1354 JUMP JUMPDEST DUP2 ADD SWAP1 PUSH2 0x14AC JUMP JUMPDEST PUSH2 0x734 JUMP JUMPDEST POP RETURNDATASIZE PUSH2 0x788 JUMP JUMPDEST PUSH2 0x7BF SWAP2 POP PUSH1 0x20 RETURNDATASIZE PUSH1 0x20 GT PUSH2 0x3B6 JUMPI PUSH2 0x3A8 DUP2 DUP4 PUSH2 0x1354 JUMP JUMPDEST CODESIZE PUSH2 0x6FA JUMP JUMPDEST PUSH2 0x7DE SWAP2 POP PUSH1 0x20 RETURNDATASIZE PUSH1 0x20 GT PUSH2 0x3B6 JUMPI PUSH2 0x3A8 DUP2 DUP4 PUSH2 0x1354 JUMP JUMPDEST CODESIZE PUSH2 0x6AF JUMP JUMPDEST POP CALLVALUE PUSH2 0x450 JUMPI DUP1 PUSH1 0x3 NOT CALLDATASIZE ADD SLT PUSH2 0x450 JUMPI PUSH1 0x1 SLOAD PUSH1 0x40 MLOAD PUSH4 0x461A3A95 PUSH1 0xE0 SHL DUP2 MSTORE SWAP1 PUSH1 0x20 SWAP1 DUP3 SWAP1 PUSH1 0x4 SWAP1 DUP3 SWAP1 PUSH1 0x1 PUSH1 0x1 PUSH1 0xA0 SHL SUB AND GAS STATICCALL SWAP1 DUP2 ISZERO PUSH2 0x3D6 JUMPI DUP3 SWAP2 PUSH2 0x8C1 JUMPI JUMPDEST POP PUSH1 0x1 PUSH1 0x1 PUSH1 0xA0 SHL SUB AND DUP2 MSTORE PUSH1 0x5 PUSH1 0x20 MSTORE PUSH1 0x40 DUP2 KECCAK256 SLOAD PUSH1 0xFF AND DUP1 DUP1 PUSH2 0x896 JUMPI JUMPDEST ISZERO PUSH2 0x88E JUMPI PUSH1 0x6 SLOAD SWAP2 PUSH2 0xE10 DUP4 ADD DUP1 SWAP4 GT PUSH2 0x87A JUMPI POP PUSH2 0x86C PUSH1 0x40 SWAP3 TIMESTAMP SWAP1 PUSH2 0x149F JUMP JUMPDEST DUP3 MLOAD SWAP2 ISZERO ISZERO DUP3 MSTORE PUSH1 0x20 DUP3 ADD MSTORE RETURN JUMPDEST PUSH4 0x4E487B71 PUSH1 0xE0 SHL DUP2 MSTORE PUSH1 0x11 PUSH1 0x4 MSTORE PUSH1 0x24 SWAP1 REVERT JUMPDEST PUSH1 0x40 SWAP2 PUSH2 0x86C JUMP JUMPDEST POP PUSH1 0x6 SLOAD PUSH2 0xE10 DUP2 ADD DUP1 SWAP2 GT PUSH2 0x8AD JUMPI TIMESTAMP LT PUSH2 0x849 JUMP JUMPDEST PUSH4 0x4E487B71 PUSH1 0xE0 SHL DUP4 MSTORE PUSH1 0x11 PUSH1 0x4 MSTORE PUSH1 0x24 DUP4 REVERT JUMPDEST PUSH2 0x8DA SWAP2 POP PUSH1 0x20 RETURNDATASIZE PUSH1 0x20 GT PUSH2 0x3B6 JUMPI PUSH2 0x3A8 DUP2 DUP4 PUSH2 0x1354 JUMP JUMPDEST CODESIZE PUSH2 0x829 JUMP JUMPDEST POP CALLVALUE PUSH2 0x450 JUMPI DUP1 PUSH1 0x3 NOT CALLDATASIZE ADD SLT PUSH2 0x450 JUMPI PUSH1 0x20 PUSH1 0x7 SLOAD PUSH1 0x40 MLOAD SWAP1 DUP2 MSTORE RETURN JUMPDEST POP CALLVALUE PUSH2 0x450 JUMPI PUSH1 0x20 CALLDATASIZE PUSH1 0x3 NOT ADD SLT PUSH2 0x450 JUMPI PUSH1 0x20 PUSH2 0x91D PUSH1 0x4 CALLDATALOAD PUSH2 0x1454 JUMP JUMPDEST PUSH1 0x40 MLOAD SWAP1 DUP2 MSTORE RETURN JUMPDEST POP CALLVALUE PUSH2 0x450 JUMPI DUP1 PUSH1 0x3 NOT CALLDATASIZE ADD SLT PUSH2 0x450 JUMPI SLOAD PUSH1 0x40 MLOAD PUSH1 0x1 PUSH1 0x1 PUSH1 0xA0 SHL SUB SWAP1 SWAP2 AND DUP2 MSTORE PUSH1 0x20 SWAP1 RETURN JUMPDEST POP CALLVALUE PUSH2 0x450 JUMPI DUP1 PUSH1 0x3 NOT CALLDATASIZE ADD SLT PUSH2 0x450 JUMPI PUSH1 0x20 PUSH1 0x6 SLOAD PUSH1 0x40 MLOAD SWAP1 DUP2 MSTORE RETURN JUMPDEST POP CALLVALUE PUSH2 0x450 JUMPI DUP1 PUSH1 0x3 NOT CALLDATASIZE ADD SLT PUSH2 0x450 JUMPI PUSH1 0x3 SLOAD PUSH1 0x40 MLOAD PUSH1 0x1 PUSH1 0x1 PUSH1 0xA0 SHL SUB SWAP1 SWAP2 AND DUP2 MSTORE PUSH1 0x20 SWAP1 RETURN JUMPDEST POP CALLVALUE PUSH2 0x450 JUMPI DUP1 PUSH1 0x3 NOT CALLDATASIZE ADD SLT PUSH2 0x450 JUMPI PUSH1 0x20 PUSH1 0x40 MLOAD PUSH9 0x3635C9ADC5DEA00000 DUP2 MSTORE RETURN JUMPDEST POP CALLVALUE PUSH2 0x450 JUMPI DUP1 PUSH1 0x3 NOT CALLDATASIZE ADD SLT PUSH2 0x450 JUMPI PUSH2 0x9D0 PUSH2 0x1529 JUMP JUMPDEST DUP1 SLOAD PUSH1 0x1 PUSH1 0x1 PUSH1 0xA0 SHL SUB NOT DUP2 AND DUP3 SSTORE DUP2 SWAP1 PUSH1 0x1 PUSH1 0x1 PUSH1 0xA0 SHL SUB AND PUSH32 0x8BE0079C531659141344CD1FD0A4F28419497F9722A3DAAFE3B4186F6B6457E0 DUP3 DUP1 LOG3 DUP1 RETURN JUMPDEST POP CALLVALUE PUSH2 0x450 JUMPI PUSH1 0x20 CALLDATASIZE PUSH1 0x3 NOT ADD SLT PUSH2 0x450 JUMPI PUSH1 0x20 SWAP1 PUSH1 0xFF SWAP1 PUSH1 0x40 SWAP1 PUSH1 0x1 PUSH1 0x1 PUSH1 0xA0 SHL SUB PUSH2 0xA3C PUSH2 0x12F4 JUMP JUMPDEST AND DUP2 MSTORE PUSH1 0x2 DUP5 MSTORE KECCAK256 SLOAD AND PUSH1 0x40 MLOAD SWAP1 ISZERO ISZERO DUP2 MSTORE RETURN JUMPDEST POP CALLVALUE PUSH2 0x450 JUMPI PUSH1 0x20 CALLDATASIZE PUSH1 0x3 NOT ADD SLT PUSH2 0x450 JUMPI PUSH1 0x20 SWAP1 PUSH1 0xFF SWAP1 PUSH1 0x40 SWAP1 PUSH1 0x1 PUSH1 0x1 PUSH1 0xA0 SHL SUB PUSH2 0xA7B PUSH2 0x12F4 JUMP JUMPDEST AND DUP2 MSTORE PUSH1 0x5 DUP5 MSTORE KECCAK256 SLOAD AND PUSH1 0x40 MLOAD SWAP1 ISZERO ISZERO DUP2 MSTORE RETURN JUMPDEST POP CALLVALUE PUSH2 0x450 JUMPI PUSH1 0x40 CALLDATASIZE PUSH1 0x3 NOT ADD SLT PUSH2 0x450 JUMPI DUP1 PUSH2 0xAAA PUSH2 0x12F4 JUMP JUMPDEST PUSH2 0xAB2 PUSH2 0x1529 JUMP JUMPDEST PUSH1 0x1 SLOAD PUSH1 0x40 MLOAD PUSH4 0x6704E87 PUSH1 0xE3 SHL DUP2 MSTORE SWAP1 PUSH1 0x20 SWAP1 DUP3 SWAP1 PUSH1 0x4 SWAP1 DUP3 SWAP1 PUSH1 0x1 PUSH1 0x1 PUSH1 0xA0 SHL SUB AND GAS STATICCALL SWAP1 DUP2 ISZERO PUSH2 0x383 JUMPI DUP4 SWAP2 PUSH2 0xB53 JUMPI JUMPDEST POP PUSH1 0x1 PUSH1 0x1 PUSH1 0xA0 SHL SUB AND SWAP1 DUP2 EXTCODESIZE ISZERO PUSH2 0xB4F JUMPI PUSH1 0x40 MLOAD PUSH4 0x55776B77 PUSH1 0xE0 SHL DUP2 MSTORE PUSH1 0x1 PUSH1 0x1 PUSH1 0xA0 SHL SUB SWAP1 SWAP2 AND PUSH1 0x4 DUP3 ADD MSTORE PUSH1 0x24 DUP1 DUP3 ADD DUP5 SWAP1 MSTORE CALLDATALOAD PUSH1 0x44 DUP3 ADD MSTORE SWAP1 DUP3 SWAP1 DUP3 SWAP1 PUSH1 0x64 SWAP1 DUP3 SWAP1 DUP5 SWAP1 GAS CALL DUP1 ISZERO PUSH2 0x3D6 JUMPI PUSH2 0xB3E JUMPI POP RETURN JUMPDEST DUP2 PUSH2 0xB48 SWAP2 PUSH2 0x1354 JUMP JUMPDEST PUSH2 0x450 JUMPI DUP1 RETURN JUMPDEST POP POP REVERT JUMPDEST PUSH2 0xB6C SWAP2 POP PUSH1 0x20 RETURNDATASIZE PUSH1 0x20 GT PUSH2 0x3B6 JUMPI PUSH2 0x3A8 DUP2 DUP4 PUSH2 0x1354 JUMP JUMPDEST CODESIZE PUSH2 0xAE6 JUMP JUMPDEST POP CALLVALUE PUSH2 0x450 JUMPI DUP1 PUSH1 0x3 NOT CALLDATASIZE ADD SLT PUSH2 0x450 JUMPI PUSH1 0x1 SLOAD PUSH1 0x40 MLOAD PUSH1 0x1 PUSH1 0x1 PUSH1 0xA0 SHL SUB SWAP1 SWAP2 AND DUP2 MSTORE PUSH1 0x20 SWAP1 RETURN JUMPDEST POP CALLVALUE PUSH2 0x450 JUMPI DUP1 PUSH1 0x3 NOT CALLDATASIZE ADD SLT PUSH2 0x450 JUMPI PUSH1 0x20 PUSH1 0xFF PUSH1 0x3 SLOAD PUSH1 0xA0 SHR AND PUSH1 0x40 MLOAD SWAP1 ISZERO ISZERO DUP2 MSTORE RETURN JUMPDEST POP CALLVALUE PUSH2 0x450 JUMPI PUSH1 0x40 CALLDATASIZE PUSH1 0x3 NOT ADD SLT PUSH2 0x450 JUMPI PUSH2 0xBDB PUSH2 0x12F4 JUMP JUMPDEST PUSH1 0x24 CALLDATALOAD SWAP1 PUSH1 0x3 SLOAD PUSH1 0xFF DUP2 PUSH1 0xA0 SHR AND PUSH2 0x118F JUMPI PUSH1 0x1 PUSH1 0x1 PUSH1 0xA0 SHL SUB AND CALLER SUB PUSH2 0x115B JUMPI PUSH1 0x1 PUSH1 0x1 PUSH1 0xA0 SHL SUB DUP2 AND DUP1 DUP5 MSTORE PUSH1 0x4 PUSH1 0x20 MSTORE PUSH1 0x40 DUP5 KECCAK256 SLOAD SWAP1 SWAP3 SWAP1 PUSH1 0xFF AND PUSH2 0x1116 JUMPI PUSH2 0xC30 PUSH2 0xC28 PUSH2 0x13AB JUMP JUMPDEST DUP3 ISZERO ISZERO PUSH2 0x13F1 JUMP JUMPDEST PUSH2 0xC39 DUP2 PUSH2 0x1454 JUMP JUMPDEST SWAP2 PUSH2 0xC7D PUSH1 0x40 MLOAD PUSH2 0xC4B PUSH1 0x40 DUP3 PUSH2 0x1354 JUMP JUMPDEST PUSH1 0x20 DUP2 MSTORE PUSH32 0x496E697469616C206C69717569646974792063616E6E6F74206265207A65726F PUSH1 0x20 DUP3 ADD MSTORE DUP5 ISZERO ISZERO PUSH2 0x13F1 JUMP JUMPDEST PUSH1 0x1 SLOAD PUSH1 0x40 MLOAD PUSH4 0x461A3A95 PUSH1 0xE0 SHL DUP2 MSTORE SWAP1 PUSH1 0x20 SWAP1 DUP3 SWAP1 PUSH1 0x4 SWAP1 DUP3 SWAP1 PUSH1 0x1 PUSH1 0x1 PUSH1 0xA0 SHL SUB AND GAS STATICCALL SWAP1 DUP2 ISZERO PUSH2 0x110B JUMPI DUP7 SWAP2 PUSH2 0x10EC JUMPI JUMPDEST POP PUSH1 0x1 DUP1 PUSH1 0xA0 SHL SUB AND PUSH1 0x20 DUP7 PUSH1 0x40 MLOAD DUP3 DUP2 ADD SWAP1 PUSH4 0x23B872DD PUSH1 0xE0 SHL DUP3 MSTORE CALLER PUSH1 0x24 DUP3 ADD MSTORE ADDRESS PUSH1 0x44 DUP3 ADD MSTORE DUP8 PUSH1 0x64 DUP3 ADD MSTORE PUSH1 0x64 DUP2 MSTORE PUSH2 0xCEF PUSH1 0x84 DUP3 PUSH2 0x1354 JUMP JUMPDEST MLOAD SWAP1 DUP3 DUP6 GAS CALL ISZERO PUSH2 0xFA8 JUMPI DUP6 MLOAD RETURNDATASIZE PUSH2 0x10E3 JUMPI POP DUP1 EXTCODESIZE ISZERO JUMPDEST PUSH2 0x10D1 JUMPI POP PUSH1 0x1 SLOAD PUSH1 0x40 MLOAD PUSH4 0x461A3A95 PUSH1 0xE0 SHL DUP2 MSTORE DUP7 SWAP4 SWAP3 SWAP2 PUSH1 0x1 PUSH1 0x1 PUSH1 0xA0 SHL SUB AND SWAP1 PUSH1 0x20 DUP2 PUSH1 0x4 DUP2 DUP6 GAS STATICCALL SWAP1 DUP2 ISZERO PUSH2 0xFA8 JUMPI DUP6 SWAP2 PUSH2 0x10B2 JUMPI JUMPDEST POP PUSH1 0x1 PUSH1 0x1 PUSH1 0xA0 SHL SUB AND DUP1 DUP6 MSTORE PUSH1 0x5 PUSH1 0x20 MSTORE PUSH1 0x40 DUP6 KECCAK256 SLOAD SWAP1 SWAP2 SWAP1 PUSH1 0xFF AND PUSH2 0xFD0 JUMPI JUMPDEST POP PUSH1 0x1 SLOAD PUSH1 0x40 MLOAD PUSH4 0x6704E87 PUSH1 0xE3 SHL DUP2 MSTORE SWAP1 PUSH1 0x20 SWAP1 DUP3 SWAP1 PUSH1 0x4 SWAP1 DUP3 SWAP1 PUSH1 0x1 PUSH1 0x1 PUSH1 0xA0 SHL SUB AND GAS STATICCALL DUP1 ISZERO PUSH2 0xFA8 JUMPI DUP7 PUSH1 0x20 SWAP2 PUSH2 0xDD0 SWAP4 DUP9 SWAP2 PUSH2 0xFB3 JUMPI JUMPDEST POP PUSH1 0x40 MLOAD PUSH4 0x95EA7B3 PUSH1 0xE0 SHL DUP2 MSTORE PUSH1 0x1 PUSH1 0x1 PUSH1 0xA0 SHL SUB SWAP1 SWAP2 AND PUSH1 0x4 DUP3 ADD MSTORE PUSH1 0x24 DUP2 ADD SWAP2 SWAP1 SWAP2 MSTORE SWAP2 DUP3 SWAP1 DUP2 SWAP1 PUSH1 0x44 DUP3 ADD SWAP1 JUMP JUMPDEST SUB DUP2 DUP9 DUP7 GAS CALL DUP1 ISZERO PUSH2 0xFA8 JUMPI PUSH2 0xF8B JUMPI JUMPDEST POP DUP1 DUP5 MSTORE PUSH1 0x5 PUSH1 0x20 MSTORE PUSH1 0x40 DUP5 KECCAK256 PUSH1 0x1 PUSH1 0xFF NOT DUP3 SLOAD AND OR SWAP1 SSTORE TIMESTAMP PUSH1 0x6 SSTORE PUSH32 0xBFEF02EB2BFD9F7E331D0E19356DAD9CEA83B5150DDD7F88213FA23208F3C799 PUSH1 0x40 DUP1 MLOAD DUP8 DUP2 MSTORE TIMESTAMP PUSH1 0x20 DUP3 ADD MSTORE LOG2 DUP5 DUP4 MSTORE PUSH1 0x4 PUSH1 0x20 DUP2 DUP2 MSTORE PUSH1 0x40 DUP1 DUP7 KECCAK256 DUP1 SLOAD PUSH1 0xFF NOT AND PUSH1 0x1 SWAP1 DUP2 OR SWAP1 SWAP2 SSTORE SLOAD SWAP1 MLOAD PUSH4 0x6704E87 PUSH1 0xE3 SHL DUP2 MSTORE SWAP3 DUP4 SWAP2 DUP3 SWAP1 PUSH1 0x1 PUSH1 0x1 PUSH1 0xA0 SHL SUB AND GAS STATICCALL SWAP1 DUP2 ISZERO PUSH2 0xF80 JUMPI DUP5 SWAP2 PUSH2 0xF61 JUMPI JUMPDEST POP PUSH1 0x1 PUSH1 0x1 PUSH1 0xA0 SHL SUB AND SWAP2 DUP3 EXTCODESIZE ISZERO PUSH2 0xF5D JUMPI PUSH1 0x40 MLOAD PUSH4 0x2324F29F PUSH1 0xE2 SHL DUP2 MSTORE PUSH1 0x1 PUSH1 0x1 PUSH1 0xA0 SHL SUB SWAP3 SWAP1 SWAP3 AND PUSH1 0x4 DUP4 ADD MSTORE PUSH1 0x24 DUP3 ADD MSTORE SWAP1 DUP3 SWAP1 DUP3 SWAP1 PUSH1 0x44 SWAP1 DUP3 SWAP1 DUP5 SWAP1 GAS CALL DUP1 ISZERO PUSH2 0x3D6 JUMPI PUSH2 0xF48 JUMPI JUMPDEST POP POP PUSH2 0xECC PUSH2 0x1529 JUMP JUMPDEST DUP2 DUP4 MSTORE PUSH1 0x2 PUSH1 0x20 MSTORE PUSH1 0xFF PUSH1 0x40 DUP5 KECCAK256 SLOAD AND PUSH2 0x5D6 JUMPI DUP2 DUP4 MSTORE PUSH1 0x2 PUSH1 0x20 SWAP1 DUP2 MSTORE PUSH1 0x40 DUP1 DUP6 KECCAK256 DUP1 SLOAD PUSH1 0xFF NOT AND PUSH1 0x1 OR SWAP1 SSTORE MLOAD PUSH32 0xD6D6D534B6D189E6DA779FC9A8CC9AB4BD2680E9443079B472EBD776E7B5728A SWAP3 DUP5 PUSH32 0x17664858438D89F547FEE46DA0BCFC5396EA13A9FB1490B8FDD76CFA979F1A9 DUP8 DUP1 LOG2 DUP2 MSTORE LOG2 DUP1 RETURN JUMPDEST DUP2 PUSH2 0xF52 SWAP2 PUSH2 0x1354 JUMP JUMPDEST PUSH2 0x377 JUMPI DUP3 CODESIZE PUSH2 0xEC2 JUMP JUMPDEST DUP4 DUP1 REVERT JUMPDEST PUSH2 0xF7A SWAP2 POP PUSH1 0x20 RETURNDATASIZE PUSH1 0x20 GT PUSH2 0x3B6 JUMPI PUSH2 0x3A8 DUP2 DUP4 PUSH2 0x1354 JUMP JUMPDEST CODESIZE PUSH2 0xE74 JUMP JUMPDEST PUSH1 0x40 MLOAD RETURNDATASIZE DUP7 DUP3 RETURNDATACOPY RETURNDATASIZE SWAP1 REVERT JUMPDEST PUSH2 0xFA3 SWAP1 PUSH1 0x20 RETURNDATASIZE PUSH1 0x20 GT PUSH2 0x79F JUMPI PUSH2 0x792 DUP2 DUP4 PUSH2 0x1354 JUMP JUMPDEST PUSH2 0xDE1 JUMP JUMPDEST PUSH1 0x40 MLOAD RETURNDATASIZE DUP8 DUP3 RETURNDATACOPY RETURNDATASIZE SWAP1 REVERT JUMPDEST PUSH2 0xFCA SWAP2 POP DUP4 RETURNDATASIZE DUP6 GT PUSH2 0x3B6 JUMPI PUSH2 0x3A8 DUP2 DUP4 PUSH2 0x1354 JUMP JUMPDEST CODESIZE PUSH2 0xD9E JUMP JUMPDEST PUSH1 0x20 PUSH1 0x4 SWAP2 PUSH1 0x40 MLOAD SWAP3 DUP4 DUP1 SWAP3 PUSH4 0x6704E87 PUSH1 0xE3 SHL DUP3 MSTORE GAS STATICCALL SWAP1 DUP2 ISZERO PUSH2 0xFA8 JUMPI DUP6 SWAP2 PUSH2 0x1093 JUMPI JUMPDEST POP PUSH1 0x40 MLOAD PUSH4 0x95EA7B3 PUSH1 0xE0 SHL DUP2 MSTORE PUSH1 0x1 PUSH1 0x1 PUSH1 0xA0 SHL SUB SWAP1 SWAP2 AND PUSH1 0x4 DUP3 ADD MSTORE PUSH1 0x24 DUP2 ADD DUP6 SWAP1 MSTORE PUSH1 0x20 DUP2 PUSH1 0x44 DUP2 DUP9 DUP7 GAS CALL DUP1 ISZERO PUSH2 0xFA8 JUMPI PUSH2 0x1076 JUMPI JUMPDEST POP DUP1 DUP5 MSTORE PUSH1 0x5 PUSH1 0x20 MSTORE PUSH1 0x40 DUP5 KECCAK256 PUSH1 0xFF NOT DUP2 SLOAD AND SWAP1 SSTORE DUP1 PUSH32 0x3E776E19FC0F05C1B8270744B61C5729D5D1A5D8DDED1BFB81E3979E257EDD59 PUSH1 0x20 PUSH1 0x40 MLOAD TIMESTAMP DUP2 MSTORE LOG2 CODESIZE PUSH2 0xD62 JUMP JUMPDEST PUSH2 0x108E SWAP1 PUSH1 0x20 RETURNDATASIZE PUSH1 0x20 GT PUSH2 0x79F JUMPI PUSH2 0x792 DUP2 DUP4 PUSH2 0x1354 JUMP JUMPDEST PUSH2 0x1030 JUMP JUMPDEST PUSH2 0x10AC SWAP2 POP PUSH1 0x20 RETURNDATASIZE PUSH1 0x20 GT PUSH2 0x3B6 JUMPI PUSH2 0x3A8 DUP2 DUP4 PUSH2 0x1354 JUMP JUMPDEST CODESIZE PUSH2 0xFF6 JUMP JUMPDEST PUSH2 0x10CB SWAP2 POP PUSH1 0x20 RETURNDATASIZE PUSH1 0x20 GT PUSH2 0x3B6 JUMPI PUSH2 0x3A8 DUP2 DUP4 PUSH2 0x1354 JUMP JUMPDEST CODESIZE PUSH2 0xD40 JUMP JUMPDEST PUSH4 0x5274AFE7 PUSH1 0xE0 SHL DUP7 MSTORE PUSH1 0x4 MSTORE PUSH1 0x24 DUP6 REVERT JUMPDEST PUSH1 0x1 EQ ISZERO PUSH2 0xD06 JUMP JUMPDEST PUSH2 0x1105 SWAP2 POP PUSH1 0x20 RETURNDATASIZE PUSH1 0x20 GT PUSH2 0x3B6 JUMPI PUSH2 0x3A8 DUP2 DUP4 PUSH2 0x1354 JUMP JUMPDEST CODESIZE PUSH2 0xCB1 JUMP JUMPDEST PUSH1 0x40 MLOAD RETURNDATASIZE DUP9 DUP3 RETURNDATACOPY RETURNDATASIZE SWAP1 REVERT JUMPDEST PUSH1 0x40 MLOAD PUSH3 0x461BCD PUSH1 0xE5 SHL DUP2 MSTORE PUSH1 0x20 PUSH1 0x4 DUP3 ADD MSTORE PUSH1 0x1A PUSH1 0x24 DUP3 ADD MSTORE PUSH32 0x546F6B656E20616C726561647920696E20646973636F76657279000000000000 PUSH1 0x44 DUP3 ADD MSTORE PUSH1 0x64 SWAP1 REVERT JUMPDEST PUSH1 0x40 MLOAD PUSH3 0x461BCD PUSH1 0xE5 SHL DUP2 MSTORE PUSH1 0x20 PUSH1 0x4 DUP3 ADD MSTORE PUSH1 0xC PUSH1 0x24 DUP3 ADD MSTORE PUSH12 0x155B985D5D1A1BDC9A5E9959 PUSH1 0xA2 SHL PUSH1 0x44 DUP3 ADD MSTORE PUSH1 0x64 SWAP1 REVERT JUMPDEST PUSH1 0x40 MLOAD PUSH3 0x461BCD PUSH1 0xE5 SHL DUP2 MSTORE PUSH1 0x20 PUSH1 0x4 DUP3 ADD MSTORE PUSH1 0x12 PUSH1 0x24 DUP3 ADD MSTORE PUSH18 0x10DBDB9D1C9858DD081A5CC81C185D5CD959 PUSH1 0x72 SHL PUSH1 0x44 DUP3 ADD MSTORE PUSH1 0x64 SWAP1 REVERT JUMPDEST POP CALLVALUE PUSH2 0x450 JUMPI PUSH1 0x40 CALLDATASIZE PUSH1 0x3 NOT ADD SLT PUSH2 0x450 JUMPI DUP1 PUSH2 0x11E4 PUSH2 0x12F4 JUMP JUMPDEST PUSH2 0x11EC PUSH2 0x1529 JUMP JUMPDEST PUSH1 0x1 PUSH1 0x1 PUSH1 0xA0 SHL SUB DUP2 AND DUP3 MSTORE PUSH1 0x4 PUSH1 0x20 MSTORE PUSH1 0x40 DUP3 KECCAK256 SLOAD PUSH2 0x120E SWAP1 PUSH1 0xFF AND PUSH2 0x130F JUMP JUMPDEST PUSH1 0x1 SLOAD PUSH1 0x40 MLOAD PUSH4 0x6704E87 PUSH1 0xE3 SHL DUP2 MSTORE SWAP1 PUSH1 0x20 SWAP1 DUP3 SWAP1 PUSH1 0x4 SWAP1 DUP3 SWAP1 PUSH1 0x1 PUSH1 0x1 PUSH1 0xA0 SHL SUB AND GAS STATICCALL SWAP1 DUP2 ISZERO PUSH2 0x383 JUMPI DUP4 SWAP2 PUSH2 0x12B1 JUMPI JUMPDEST POP PUSH1 0x1 PUSH1 0x1 PUSH1 0xA0 SHL SUB AND DUP1 EXTCODESIZE ISZERO PUSH2 0xB4F JUMPI PUSH1 0x40 MLOAD PUSH4 0x271AC579 PUSH1 0xE1 SHL DUP2 MSTORE PUSH1 0x1 PUSH1 0x1 PUSH1 0xA0 SHL SUB SWAP3 SWAP1 SWAP3 AND PUSH1 0x4 DUP4 ADD MSTORE PUSH1 0x24 DUP1 CALLDATALOAD SWAP1 DUP4 ADD MSTORE SWAP1 SWAP2 SWAP1 DUP2 SWAP1 DUP4 SWAP1 PUSH1 0x44 SWAP1 DUP3 SWAP1 DUP5 SWAP1 GAS CALL DUP1 ISZERO PUSH2 0x12A4 JUMPI PUSH2 0x1296 JUMPI DUP1 RETURN JUMPDEST PUSH2 0x129F SWAP2 PUSH2 0x1354 JUMP JUMPDEST CODESIZE DUP2 DUP1 RETURN JUMPDEST POP PUSH1 0x40 MLOAD SWAP1 RETURNDATASIZE SWAP1 DUP3 RETURNDATACOPY RETURNDATASIZE SWAP1 REVERT JUMPDEST PUSH2 0x12CA SWAP2 POP PUSH1 0x20 RETURNDATASIZE PUSH1 0x20 GT PUSH2 0x3B6 JUMPI PUSH2 0x3A8 DUP2 DUP4 PUSH2 0x1354 JUMP JUMPDEST CODESIZE PUSH2 0x1242 JUMP JUMPDEST SWAP1 POP CALLVALUE PUSH2 0x3D2 JUMPI DUP2 PUSH1 0x3 NOT CALLDATASIZE ADD SLT PUSH2 0x3D2 JUMPI DUP1 PUSH10 0xD3C21BCECCEDA1000000 PUSH1 0x20 SWAP3 MSTORE RETURN JUMPDEST PUSH1 0x4 CALLDATALOAD SWAP1 PUSH1 0x1 PUSH1 0x1 PUSH1 0xA0 SHL SUB DUP3 AND DUP3 SUB PUSH2 0x130A JUMPI JUMP JUMPDEST PUSH1 0x0 DUP1 REVERT JUMPDEST ISZERO PUSH2 0x1316 JUMPI JUMP JUMPDEST PUSH1 0x40 MLOAD PUSH3 0x461BCD PUSH1 0xE5 SHL DUP2 MSTORE PUSH1 0x20 PUSH1 0x4 DUP3 ADD MSTORE PUSH1 0x16 PUSH1 0x24 DUP3 ADD MSTORE PUSH22 0x546F6B656E206E6F7420696E20646973636F76657279 PUSH1 0x50 SHL PUSH1 0x44 DUP3 ADD MSTORE PUSH1 0x64 SWAP1 REVERT JUMPDEST SWAP1 PUSH1 0x1F DUP1 NOT SWAP2 ADD AND DUP2 ADD SWAP1 DUP2 LT PUSH8 0xFFFFFFFFFFFFFFFF DUP3 GT OR PUSH2 0x1376 JUMPI PUSH1 0x40 MSTORE JUMP JUMPDEST PUSH4 0x4E487B71 PUSH1 0xE0 SHL PUSH1 0x0 MSTORE PUSH1 0x41 PUSH1 0x4 MSTORE PUSH1 0x24 PUSH1 0x0 REVERT JUMPDEST SWAP1 DUP2 PUSH1 0x20 SWAP2 SUB SLT PUSH2 0x130A JUMPI MLOAD PUSH1 0x1 PUSH1 0x1 PUSH1 0xA0 SHL SUB DUP2 AND DUP2 SUB PUSH2 0x130A JUMPI SWAP1 JUMP JUMPDEST PUSH1 0x40 MLOAD SWAP1 PUSH2 0x13BA PUSH1 0x60 DUP4 PUSH2 0x1354 JUMP JUMPDEST PUSH1 0x22 DUP3 MSTORE PUSH2 0x726F PUSH1 0xF0 SHL PUSH1 0x40 DUP4 PUSH32 0x496E697469616C2073756273637269626572732063616E6E6F74206265207A65 PUSH1 0x20 DUP3 ADD MSTORE ADD MSTORE JUMP JUMPDEST ISZERO PUSH2 0x13F9 JUMPI POP JUMP JUMPDEST PUSH1 0x40 MLOAD SWAP1 PUSH3 0x461BCD PUSH1 0xE5 SHL DUP3 MSTORE PUSH1 0x20 PUSH1 0x4 DUP4 ADD MSTORE DUP2 DUP2 MLOAD SWAP2 DUP3 PUSH1 0x24 DUP4 ADD MSTORE PUSH1 0x0 JUMPDEST DUP4 DUP2 LT PUSH2 0x143C JUMPI POP POP DUP2 PUSH1 0x0 PUSH1 0x44 DUP1 SWAP5 DUP5 ADD ADD MSTORE PUSH1 0x1F DUP1 NOT SWAP2 ADD AND DUP2 ADD SUB ADD SWAP1 REVERT JUMPDEST PUSH1 0x20 DUP3 DUP3 ADD DUP2 ADD MLOAD PUSH1 0x44 DUP8 DUP5 ADD ADD MSTORE DUP6 SWAP4 POP ADD PUSH2 0x141A JUMP JUMPDEST DUP1 ISZERO PUSH2 0x1468 PUSH2 0x1461 PUSH2 0x13AB JUMP JUMPDEST DUP3 ISZERO PUSH2 0x13F1 JUMP JUMPDEST PUSH8 0xDE0B6B3A7640000 DUP3 MUL SWAP2 DUP3 DIV PUSH8 0xDE0B6B3A7640000 EQ OR ISZERO PUSH2 0x1489 JUMPI SWAP1 JUMP JUMPDEST PUSH4 0x4E487B71 PUSH1 0xE0 SHL PUSH1 0x0 MSTORE PUSH1 0x11 PUSH1 0x4 MSTORE PUSH1 0x24 PUSH1 0x0 REVERT JUMPDEST SWAP2 SWAP1 DUP3 SUB SWAP2 DUP3 GT PUSH2 0x1489 JUMPI JUMP JUMPDEST SWAP1 DUP2 PUSH1 0x20 SWAP2 SUB SLT PUSH2 0x130A JUMPI MLOAD DUP1 ISZERO ISZERO DUP2 SUB PUSH2 0x130A JUMPI SWAP1 JUMP JUMPDEST PUSH1 0x3 SLOAD PUSH1 0xFF DUP2 PUSH1 0xA0 SHR AND ISZERO SWAP1 DUP2 DUP1 ISZERO EQ PUSH2 0x1525 JUMPI PUSH1 0xFF PUSH1 0xA0 SHL NOT AND PUSH1 0xA0 DUP3 SWAP1 SHL PUSH1 0xFF PUSH1 0xA0 SHL AND OR PUSH1 0x3 SSTORE TIMESTAMP PUSH1 0x7 DUP2 SWAP1 SSTORE PUSH1 0x40 MLOAD SWAP1 DUP2 MSTORE CALLER SWAP2 SWAP1 PUSH32 0xA965406DB9D595B01329ADB8152CE3B8BAC4B7BFB1E705308939FB0C4A88318C SWAP1 PUSH1 0x20 SWAP1 LOG3 JUMP JUMPDEST POP POP JUMP JUMPDEST PUSH1 0x0 SLOAD PUSH1 0x1 PUSH1 0x1 PUSH1 0xA0 SHL SUB AND CALLER SUB PUSH2 0x153D JUMPI JUMP JUMPDEST PUSH4 0x118CDAA7 PUSH1 0xE0 SHL PUSH1 0x0 MSTORE CALLER PUSH1 0x4 MSTORE PUSH1 0x24 PUSH1 0x0 REVERT INVALID LOG2 PUSH5 0x6970667358 0x22 SLT KECCAK256 SWAP9 0xE3 SAR 0xC2 PUSH4 0x4D1D7393 0xAF 0xD5 TIMESTAMP 0xA7 0xD9 SWAP6 ADDRESS SWAP10 0xAD MOD 0xA8 0xE2 0x23 OR 0xA9 0xAF SUB 0xBE DUP4 0xCB 0xB2 CALLCODE 0xEA PUSH5 0x736F6C6343 STOP ADDMOD SHR STOP CALLER "},"methodIdentifiers":{"APPROVAL_TIMEOUT()":"f3683428","MAX_INITIAL_LIQUIDITY()":"2ac84af9","MIN_INITIAL_LIQUIDITY()":"728780fa","calculateInitialLiquidity(uint256)":"8e3b58e2","completePriceDiscovery(address)":"fb99d5f4","creatorTokenFactory()":"88ed7512","dex()":"692058c2","getApprovalStatus()":"8f9d5aa3","getPauseState()":"9a44f1fb","hasOpenApproval(address)":"700d53a7","inPriceDiscovery(address)":"c6a55cbb","lastApprovalTimestamp()":"89312c35","lastPauseChange()":"8f8f54b3","listNewCreatorToken(address)":"9c3ba48b","listedTokens(address)":"7093f47f","onTokenMinted(address,uint256)":"3f80aace","owner()":"8da5cb5b","paused()":"5c975abb","renounceOwnership()":"715018a6","revokeApproval()":"90d02b3c","togglePause()":"c4ae3168","transferOwnership(address)":"f2fde38b","updateAIRebalance(address,uint256)":"6cbb3486","updateEngagementMetrics(address,uint256)":"3417c3d0"}},"storageLayout":{"storage":[{"astId":8,"contract":"contracts/SaraTokenRouter.sol:SaraTokenRouter","label":"_owner","offset":0,"slot":"0","type":"t_address"},{"astId":3348,"contract":"contracts/SaraTokenRouter.sol:SaraTokenRouter","label":"dex","offset":0,"slot":"1","type":"t_contract(SaraDEX)1405"},{"astId":3352,"contract":"contracts/SaraTokenRouter.sol:SaraTokenRouter","label":"listedTokens","offset":0,"slot":"2","type":"t_mapping(t_address,t_bool)"},{"astId":3355,"contract":"contracts/SaraTokenRouter.sol:SaraTokenRouter","label":"creatorTokenFactory","offset":0,"slot":"3","type":"t_contract(ICreatorCoin)3339"},{"astId":3357,"contract":"contracts/SaraTokenRouter.sol:SaraTokenRouter","label":"paused","offset":20,"slot":"3","type":"t_bool"},{"astId":3371,"contract":"contracts/SaraTokenRouter.sol:SaraTokenRouter","label":"inPriceDiscovery","offset":0,"slot":"4","type":"t_mapping(t_address,t_bool)"},{"astId":3381,"contract":"contracts/SaraTokenRouter.sol:SaraTokenRouter","label":"hasOpenApproval","offset":0,"slot":"5","type":"t_mapping(t_address,t_bool)"},{"astId":3386,"contract":"contracts/SaraTokenRouter.sol:SaraTokenRouter","label":"lastApprovalTimestamp","offset":0,"slot":"6","type":"t_uint256"},{"astId":3388,"contract":"contracts/SaraTokenRouter.sol:SaraTokenRouter","label":"lastPauseChange","offset":0,"slot":"7","type":"t_uint256"}],"types":{"t_address":{"encoding":"inplace","label":"address","numberOfBytes":"20"},"t_bool":{"encoding":"inplace","label":"bool","numberOfBytes":"1"},"t_contract(ICreatorCoin)3339":{"encoding":"inplace","label":"contract ICreatorCoin","numberOfBytes":"20"},"t_contract(SaraDEX)1405":{"encoding":"inplace","label":"contract SaraDEX","numberOfBytes":"20"},"t_mapping(t_address,t_bool)":{"encoding":"mapping","key":"t_address","label":"mapping(address => bool)","numberOfBytes":"32","value":"t_bool"},"t_uint256":{"encoding":"inplace","label":"uint256","numberOfBytes":"32"}}}}}}