{"contracts/SaraLiquidityManager.sol":{"SaraLiquidityManager":{"abi":[{"inputs":[{"internalType":"address","name":"_sonicToken","type":"address"}],"stateMutability":"nonpayable","type":"constructor"},{"inputs":[{"internalType":"address","name":"owner","type":"address"}],"name":"OwnableInvalidOwner","type":"error"},{"inputs":[{"internalType":"address","name":"account","type":"address"}],"name":"OwnableUnauthorizedAccount","type":"error"},{"inputs":[{"internalType":"address","name":"token","type":"address"}],"name":"SafeERC20FailedOperation","type":"error"},{"anonymous":false,"inputs":[{"indexed":true,"internalType":"address","name":"token","type":"address"},{"indexed":false,"internalType":"uint256","name":"amount","type":"uint256"},{"indexed":true,"internalType":"address","name":"targetPool","type":"address"},{"indexed":false,"internalType":"uint256","name":"timestamp","type":"uint256"}],"name":"AutoFeesRedeployed","type":"event"},{"anonymous":false,"inputs":[{"indexed":true,"internalType":"address","name":"token","type":"address"},{"indexed":false,"internalType":"uint256","name":"rawCount","type":"uint256"},{"indexed":false,"internalType":"uint256","name":"smoothedCount","type":"uint256"},{"indexed":false,"internalType":"uint256","name":"timestamp","type":"uint256"}],"name":"EngagementSmoothed","type":"event"},{"anonymous":false,"inputs":[{"indexed":true,"internalType":"address","name":"token","type":"address"},{"indexed":false,"internalType":"uint256","name":"subscribers","type":"uint256"},{"indexed":false,"internalType":"uint256","name":"timestamp","type":"uint256"}],"name":"EngagementSnapshotTaken","type":"event"},{"anonymous":false,"inputs":[{"indexed":true,"internalType":"address","name":"pool","type":"address"},{"indexed":false,"internalType":"uint256","name":"reserveAmount","type":"uint256"}],"name":"FallbackPoolSelected","type":"event"},{"anonymous":false,"inputs":[{"indexed":true,"internalType":"address","name":"token","type":"address"},{"indexed":false,"internalType":"uint256","name":"amount","type":"uint256"}],"name":"FeesCollected","type":"event"},{"anonymous":false,"inputs":[{"indexed":true,"internalType":"address","name":"token","type":"address"},{"indexed":false,"internalType":"uint256","name":"amount","type":"uint256"},{"indexed":true,"internalType":"address","name":"targetPool","type":"address"}],"name":"FeesRedeployed","type":"event"},{"anonymous":false,"inputs":[{"indexed":true,"internalType":"address","name":"token","type":"address"},{"indexed":false,"internalType":"uint256","name":"amount","type":"uint256"}],"name":"FeesWithdrawn","type":"event"},{"anonymous":false,"inputs":[{"indexed":true,"internalType":"address","name":"creatorToken","type":"address"},{"indexed":false,"internalType":"uint256","name":"amountCreator","type":"uint256"},{"indexed":false,"internalType":"uint256","name":"amountS","type":"uint256"}],"name":"LiquidityAdded","type":"event"},{"anonymous":false,"inputs":[{"indexed":true,"internalType":"address","name":"token","type":"address"},{"indexed":false,"internalType":"uint256","name":"newReserveS","type":"uint256"}],"name":"LiquidityRebalanced","type":"event"},{"anonymous":false,"inputs":[{"indexed":true,"internalType":"address","name":"creatorToken","type":"address"},{"indexed":false,"internalType":"uint256","name":"amountCreator","type":"uint256"},{"indexed":false,"internalType":"uint256","name":"amountS","type":"uint256"}],"name":"LiquidityRemoved","type":"event"},{"anonymous":false,"inputs":[{"indexed":true,"internalType":"address","name":"previousOwner","type":"address"},{"indexed":true,"internalType":"address","name":"newOwner","type":"address"}],"name":"OwnershipTransferred","type":"event"},{"anonymous":false,"inputs":[{"indexed":true,"internalType":"address","name":"pool","type":"address"},{"indexed":false,"internalType":"uint256","name":"volume24h","type":"uint256"},{"indexed":false,"internalType":"uint256","name":"timestamp","type":"uint256"}],"name":"PoolActivityUpdated","type":"event"},{"anonymous":false,"inputs":[{"indexed":true,"internalType":"address","name":"pool","type":"address"},{"indexed":false,"internalType":"uint256","name":"score","type":"uint256"},{"indexed":false,"internalType":"uint256","name":"currentLiquidity","type":"uint256"}],"name":"PoolSelected","type":"event"},{"anonymous":false,"inputs":[{"indexed":true,"internalType":"address","name":"pool","type":"address"}],"name":"PoolTracked","type":"event"},{"anonymous":false,"inputs":[{"indexed":true,"internalType":"address","name":"pool","type":"address"}],"name":"PoolUntracked","type":"event"},{"anonymous":false,"inputs":[{"indexed":true,"internalType":"address","name":"token","type":"address"},{"indexed":false,"internalType":"uint256","name":"calculatedPrice","type":"uint256"},{"indexed":false,"internalType":"uint256","name":"cappedPrice","type":"uint256"}],"name":"PriceCapReached","type":"event"},{"anonymous":false,"inputs":[{"indexed":true,"internalType":"address","name":"token","type":"address"},{"indexed":false,"internalType":"uint256","name":"finalPrice","type":"uint256"},{"indexed":false,"internalType":"uint256","name":"initialLiquidity","type":"uint256"}],"name":"PriceDiscoveryCompleted","type":"event"},{"anonymous":false,"inputs":[{"indexed":true,"internalType":"address","name":"token","type":"address"},{"indexed":false,"internalType":"uint256","name":"initialSubscribers","type":"uint256"}],"name":"PriceDiscoveryStarted","type":"event"},{"anonymous":false,"inputs":[{"indexed":true,"internalType":"address","name":"token","type":"address"},{"indexed":false,"internalType":"uint256","name":"currentLiquidity","type":"uint256"},{"indexed":false,"internalType":"string","name":"reason","type":"string"}],"name":"RebalanceSkipped","type":"event"},{"inputs":[],"name":"ACTIVITY_THRESHOLD","outputs":[{"internalType":"uint256","name":"","type":"uint256"}],"stateMutability":"view","type":"function"},{"inputs":[],"name":"BASE_PRICE","outputs":[{"internalType":"uint256","name":"","type":"uint256"}],"stateMutability":"view","type":"function"},{"inputs":[],"name":"DEX_ROLE","outputs":[{"internalType":"bytes32","name":"","type":"bytes32"}],"stateMutability":"view","type":"function"},{"inputs":[],"name":"DISCOVERY_PERIOD","outputs":[{"internalType":"uint256","name":"","type":"uint256"}],"stateMutability":"view","type":"function"},{"inputs":[],"name":"ENGAGEMENT_THRESHOLD","outputs":[{"internalType":"uint256","name":"","type":"uint256"}],"stateMutability":"view","type":"function"},{"inputs":[],"name":"MAX_PRICE_MULTIPLIER","outputs":[{"internalType":"uint256","name":"","type":"uint256"}],"stateMutability":"view","type":"function"},{"inputs":[],"name":"MAX_SNAPSHOTS","outputs":[{"internalType":"uint256","name":"","type":"uint256"}],"stateMutability":"view","type":"function"},{"inputs":[],"name":"MIN_24H_VOLUME","outputs":[{"internalType":"uint256","name":"","type":"uint256"}],"stateMutability":"view","type":"function"},{"inputs":[],"name":"MIN_FEES_FOR_REDEPLOY","outputs":[{"internalType":"uint256","name":"","type":"uint256"}],"stateMutability":"view","type":"function"},{"inputs":[],"name":"MIN_LIQUIDITY","outputs":[{"internalType":"uint256","name":"","type":"uint256"}],"stateMutability":"view","type":"function"},{"inputs":[],"name":"MIN_TOKEN_PRICE","outputs":[{"internalType":"uint256","name":"","type":"uint256"}],"stateMutability":"view","type":"function"},{"inputs":[],"name":"REBALANCE_INTERVAL","outputs":[{"internalType":"uint256","name":"","type":"uint256"}],"stateMutability":"view","type":"function"},{"inputs":[],"name":"SNAPSHOT_INTERVAL","outputs":[{"internalType":"uint256","name":"","type":"uint256"}],"stateMutability":"view","type":"function"},{"inputs":[{"internalType":"address","name":"creatorToken","type":"address"},{"internalType":"uint256","name":"amountCreator","type":"uint256"},{"internalType":"uint256","name":"amountS","type":"uint256"}],"name":"addLiquidity","outputs":[],"stateMutability":"nonpayable","type":"function"},{"inputs":[{"internalType":"address","name":"token","type":"address"}],"name":"autoRedeployFees","outputs":[],"stateMutability":"nonpayable","type":"function"},{"inputs":[{"internalType":"uint256","name":"subscriberCount","type":"uint256"},{"internalType":"uint256","name":"price","type":"uint256"}],"name":"calculateInitialLiquidity","outputs":[{"internalType":"uint256","name":"","type":"uint256"}],"stateMutability":"pure","type":"function"},{"inputs":[{"internalType":"address","name":"pool","type":"address"},{"internalType":"uint256","name":"availableFees","type":"uint256"}],"name":"calculateOptimalDeployment","outputs":[{"internalType":"uint256","name":"","type":"uint256"}],"stateMutability":"view","type":"function"},{"inputs":[{"internalType":"address","name":"token","type":"address"}],"name":"checkAndRebalance","outputs":[],"stateMutability":"nonpayable","type":"function"},{"inputs":[{"internalType":"address","name":"token","type":"address"},{"internalType":"uint256","name":"amount","type":"uint256"}],"name":"collectFees","outputs":[],"stateMutability":"nonpayable","type":"function"},{"inputs":[{"internalType":"address","name":"","type":"address"}],"name":"collectedFees","outputs":[{"internalType":"uint256","name":"","type":"uint256"}],"stateMutability":"view","type":"function"},{"inputs":[{"internalType":"address","name":"token","type":"address"}],"name":"completePriceDiscovery","outputs":[],"stateMutability":"nonpayable","type":"function"},{"inputs":[{"internalType":"address","name":"","type":"address"}],"name":"creatorTokenReserves","outputs":[{"internalType":"uint256","name":"","type":"uint256"}],"stateMutability":"view","type":"function"},{"inputs":[],"name":"dex","outputs":[{"internalType":"address","name":"","type":"address"}],"stateMutability":"view","type":"function"},{"inputs":[{"internalType":"address","name":"pool","type":"address"}],"name":"getPoolActivity","outputs":[{"internalType":"uint256","name":"lastTrade","type":"uint256"},{"internalType":"uint256","name":"volume24h","type":"uint256"},{"internalType":"bool","name":"isActive","type":"bool"}],"stateMutability":"view","type":"function"},{"inputs":[{"internalType":"address","name":"creatorToken","type":"address"}],"name":"getReserves","outputs":[{"internalType":"uint256","name":"","type":"uint256"},{"internalType":"uint256","name":"","type":"uint256"}],"stateMutability":"view","type":"function"},{"inputs":[{"internalType":"address","name":"token","type":"address"}],"name":"getSmoothedMetrics","outputs":[{"internalType":"uint256","name":"lastCount","type":"uint256"},{"internalType":"uint256","name":"smoothedCount","type":"uint256"},{"internalType":"uint256","name":"updateCount","type":"uint256"},{"internalType":"bool","name":"eligibleForRebalance","type":"bool"}],"stateMutability":"view","type":"function"},{"inputs":[],"name":"getTrackedPools","outputs":[{"internalType":"address[]","name":"","type":"address[]"}],"stateMutability":"view","type":"function"},{"inputs":[{"internalType":"address","name":"pool","type":"address"}],"name":"isPoolActive","outputs":[{"internalType":"bool","name":"","type":"bool"}],"stateMutability":"view","type":"function"},{"inputs":[{"internalType":"address","name":"","type":"address"}],"name":"isTrackedPool","outputs":[{"internalType":"bool","name":"","type":"bool"}],"stateMutability":"view","type":"function"},{"inputs":[],"name":"lastRebalanceTimestamp","outputs":[{"internalType":"uint256","name":"","type":"uint256"}],"stateMutability":"view","type":"function"},{"inputs":[],"name":"owner","outputs":[{"internalType":"address","name":"","type":"address"}],"stateMutability":"view","type":"function"},{"inputs":[{"internalType":"address","name":"","type":"address"}],"name":"poolActivity","outputs":[{"internalType":"uint256","name":"lastTradeTimestamp","type":"uint256"},{"internalType":"uint256","name":"tradingVolume24h","type":"uint256"},{"internalType":"uint256","name":"lastVolumeUpdateTime","type":"uint256"}],"stateMutability":"view","type":"function"},{"inputs":[{"internalType":"address","name":"","type":"address"}],"name":"priceDiscovery","outputs":[{"internalType":"uint256","name":"initialSubscribers","type":"uint256"},{"internalType":"uint256","name":"currentSubscribers","type":"uint256"},{"internalType":"uint256","name":"observationStartTime","type":"uint256"},{"internalType":"bool","name":"isInDiscovery","type":"bool"}],"stateMutability":"view","type":"function"},{"inputs":[{"internalType":"address","name":"token","type":"address"},{"internalType":"uint256","name":"currentSubscribers","type":"uint256"}],"name":"recordEngagementSnapshot","outputs":[],"stateMutability":"nonpayable","type":"function"},{"inputs":[{"internalType":"address","name":"token","type":"address"},{"internalType":"address","name":"targetPool","type":"address"}],"name":"redeployFees","outputs":[],"stateMutability":"nonpayable","type":"function"},{"inputs":[{"internalType":"address","name":"creatorToken","type":"address"},{"internalType":"uint256","name":"amountCreator","type":"uint256"},{"internalType":"uint256","name":"amountS","type":"uint256"}],"name":"removeLiquidity","outputs":[],"stateMutability":"nonpayable","type":"function"},{"inputs":[{"internalType":"address","name":"pool","type":"address"}],"name":"removePoolFromTracking","outputs":[],"stateMutability":"nonpayable","type":"function"},{"inputs":[],"name":"renounceOwnership","outputs":[],"stateMutability":"nonpayable","type":"function"},{"inputs":[{"internalType":"address","name":"_dex","type":"address"}],"name":"setDEX","outputs":[],"stateMutability":"nonpayable","type":"function"},{"inputs":[{"internalType":"address","name":"","type":"address"}],"name":"sonicReserves","outputs":[{"internalType":"uint256","name":"","type":"uint256"}],"stateMutability":"view","type":"function"},{"inputs":[],"name":"sonicToken","outputs":[{"internalType":"address","name":"","type":"address"}],"stateMutability":"view","type":"function"},{"inputs":[{"internalType":"address","name":"token","type":"address"},{"internalType":"uint256","name":"initialSubscribers","type":"uint256"}],"name":"startPriceDiscovery","outputs":[],"stateMutability":"nonpayable","type":"function"},{"inputs":[{"internalType":"address","name":"","type":"address"}],"name":"tokenEngagement","outputs":[{"internalType":"uint256","name":"lastSubscriberCount","type":"uint256"},{"internalType":"uint256","name":"smoothedSubscriberCount","type":"uint256"},{"internalType":"uint256","name":"lastUpdateTime","type":"uint256"},{"internalType":"uint256","name":"updateCount","type":"uint256"}],"stateMutability":"view","type":"function"},{"inputs":[{"internalType":"uint256","name":"","type":"uint256"}],"name":"trackedPools","outputs":[{"internalType":"address","name":"","type":"address"}],"stateMutability":"view","type":"function"},{"inputs":[{"internalType":"address","name":"newOwner","type":"address"}],"name":"transferOwnership","outputs":[],"stateMutability":"nonpayable","type":"function"},{"inputs":[{"internalType":"address","name":"token","type":"address"},{"internalType":"uint256","name":"newSubscriberCount","type":"uint256"}],"name":"updateEngagementMetrics","outputs":[],"stateMutability":"nonpayable","type":"function"},{"inputs":[{"internalType":"address","name":"pool","type":"address"},{"internalType":"uint256","name":"tradeAmount","type":"uint256"}],"name":"updatePoolActivity","outputs":[],"stateMutability":"nonpayable","type":"function"},{"inputs":[{"internalType":"address","name":"token","type":"address"},{"internalType":"uint256","name":"amount","type":"uint256"}],"name":"withdrawFees","outputs":[],"stateMutability":"nonpayable","type":"function"}],"evm":{"bytecode":{"linkReferences":{},"object":"60803460d157601f612aba38819003918201601f19168301916001600160401b0383118484101760d65780849260209460405283398101031260d157516001600160a01b0381169081900360d157331560bb5760008054336001600160a01b0319821681178355604051939290916001600160a01b0316907f8be0079c531659141344cd1fd0a4f28419497f9722a3daafe3b4186f6b6457e09080a3600480546001600160a01b0319169190911790556129cd90816100ed8239f35b631e4fbdf760e01b600052600060045260246000fd5b600080fd5b634e487b7160e01b600052604160045260246000fdfe608080604052600436101561001357600080fd5b60003560e01c908163051e0e6714611cb35750806314f302ac14611c9257806317359688146112025780631879dcf314611c6f5780631b5a799a14611c4b5780631cead9a714611c1157806321b77d6314610e305780632253fc3c14611a9357806323bfa79214611a515780632ef9726514611a1657806330ae7805146119f957806331ad24f8146119dd5780633417c3d0146119b05780633e99c1e4146119645780633ec43350146118c8578063414f99ae146118aa578063461a3a95146118815780634e358af21461157857806355776b77146112235780635889486e146112075780635c2da7cd146112025780636576594b146111d3578063692058c2146111aa5780636d2beef11461118d578063708b993514611153578063715018a6146110fa57806374a92c66146110bb5780637b66a723146110335780638c93ca7c14610e5e5780638da5cb5b14610e35578063993d345014610e30578063a033fcd414610dc4578063a711e6a114610d97578063ad3b1b4714610cc9578063b1eb483514610c6d578063b2098fa214610ba1578063b83d815714610b83578063bc99f48714610a2e578063bd1e31aa146109ef578063c157c05f146109b5578063e1aeb0921461094e578063e38192e314610795578063e71e76c114610693578063f2fd23de14610637578063f2fde38b146105ae578063f836c8f214610557578063f86325ed146105345763fb99d5f41461022f57600080fd5b3461052f57602036600319011261052f57610248611d0b565b610250612509565b60018060a01b03168060005260076020526040600020600381019061027860ff835416611f3f565b60028101546201518081018091116103d95742106104ea5760008381526007602052604081206004018054829190825b8181106103f8575050811590506103ef576102c291611e05565b80670de0b6b3a76400000290670de0b6b3a76400008204036103d9576127109004670de0b6b3a7640000019081670de0b6b3a7640000116103d9577f928602a1348c2d5cc6354f7e6953a38bfaf42426cd5d8c83dc7c42b972cfcdb0926103586001928487604096916729a2241af62c0000811161038f575b505067016345785d8a000081111561037d579384915b0154611dd6565b9085600052600260205281846000205560ff19815416905582519182526020820152a2005b5067016345785d8a0000938491610351565b7ffbb0338b3040d7b9bd8495de3d07128625b3ead1c3464340ed2e760a015d7447919250879081519081526729a2241af62c00006020820152a26729a2241af62c0000873861033b565b634e487b7160e01b600052601160045260246000fd5b505060006102c2565b80610406575b6001016102a8565b6104108184611d94565b905460001983019160031b1c8282116103d95761042d8286611d94565b90549060031b1c10610440575b506103fe565b61044e828597939697611d94565b90549060031b1c906104736000926104668388611d94565b90549060031b1c90611de9565b9161271083029280840461271014901517156104d657926104af6104c9936104a26104c3946001975089611d94565b90549060031b1c90611e05565b6127108111156104d0575061271090611f32565b95611df6565b939061043a565b90611f32565b634e487b7160e01b81526011600452602490fd5b60405162461bcd60e51b815260206004820152601d60248201527f446973636f7665727920706572696f64206e6f7420636f6d706c6574650000006044820152606490fd5b600080fd5b3461052f57600036600319011261052f576020604051670de0b6b3a76400008152f35b3461052f57602036600319011261052f576060610572611d0b565b60018060a01b038116600052600a6020526040600020906105996001835493015491611ffa565b90604051928352602083015215156040820152f35b3461052f57602036600319011261052f576105c7611d0b565b6105cf612509565b6001600160a01b0316801561062157600080546001600160a01b03198116831782556001600160a01b0316907f8be0079c531659141344cd1fd0a4f28419497f9722a3daafe3b4186f6b6457e09080a3005b631e4fbdf760e01b600052600060045260246000fd5b3461052f57602036600319011261052f576001600160a01b03610658611d0b565b166000526006602052608060406000208054906001810154906003600282015491015491604051938452602084015260408301526060820152f35b3461052f57604036600319011261052f576106ac611d0b565b600b5460243591906001600160a01b031633036107505760018060a01b03169081600052600a60205260406000209042825560028201918254906201518082018092116103d9577f339a588d56f667ba0a8358be57070b2b0c9f5159d43eba838ef1da89159b985a93604093600193421061073957838301554290555b01548151908152426020820152a2005b9050610749838301918254611f32565b9055610729565b60405162461bcd60e51b815260206004820152601f60248201527f4f6e6c79204445582063616e2063616c6c20746869732066756e6374696f6e006044820152606490fd5b3461052f576107a336611dac565b916107ac612509565b60018060a01b03169182600052600160205281604060002054106108fd5782600052600260205280604060002054106108b8577f96cd817c6329656790ef8fba7675405193677d39619571282f5e21f3a98cd0599160409184600052600160205261082f683635c9adc5dea00000610828848660002054611de9565b10156124bd565b846000526002602052610853683635c9adc5dea00000610828838660002054611de9565b8460005260016020528260002061086b838254611de9565b905584600052600260205282600020610885828254611de9565b905561089282338761268c565b6004546108ab90829033906001600160a01b031661268c565b82519182526020820152a2005b60405162461bcd60e51b815260206004820152601e60248201527f496e73756666696369656e74205320746f6b656e206c697175696469747900006044820152606490fd5b60405162461bcd60e51b8152602060048201526024808201527f496e73756666696369656e742063726561746f7220746f6b656e206c697175696044820152636469747960e01b6064820152608490fd5b3461052f57602036600319011261052f576001600160a01b0361096f611d0b565b166000908152600760209081526040918290208054600182015460028301546003909301548551928352938201529283015260ff161515606082015280608081015b0390f35b3461052f57602036600319011261052f576001600160a01b036109d6611d0b565b1660005260026020526020604060002054604051908152f35b3461052f57604036600319011261052f57610a08611d0b565b6024356001600160a01b038116810361052f57610a2c91610a27612509565b6120ad565b005b3461052f57602036600319011261052f57610a47611d0b565b60018060a01b03811680600052600360205260406000205491610aa3604051610a71604082611f7e565b601d81527f4e6f206665657320617661696c61626c6520746f2072656465706c6f79000000602082015284151561204a565b610af0604051610ab4604082611f7e565b601b81527f42656c6f77206d696e696d756d20666565207468726573686f6c640000000000602082015268056bc75e2d6310000085101561204a565b610af86126c7565b916001600160a01b038316908115610b45577f2301fe8a9459a994e4a19640f476ca1a19507b1f70fb40de46adf16db68b39ac6040610a2c968151908152426020820152a3610a27612509565b60405162461bcd60e51b8152602060048201526016602482015275139bc81cdd5a5d18589b19481c1bdbdb08199bdd5b9960521b6044820152606490fd5b3461052f57600036600319011261052f576020600554604051908152f35b3461052f57600036600319011261052f576040518060206008549283815201809260086000527ff3f7a9fe364faab93b216da50a3214154f22a0a2b415b23a84c8169e8b636ee39060005b818110610c4e5750505081610c02910382611f7e565b6040519182916020830190602084525180915260408301919060005b818110610c2c575050500390f35b82516001600160a01b0316845285945060209384019390920191600101610c1e565b82546001600160a01b0316845260209093019260019283019201610bec565b3461052f57602036600319011261052f576001600160a01b03610c8e611d0b565b166000908152600660209081526040918290208054600182015460039283015485519283529382015292830182905211156060820152608090f35b3461052f57604036600319011261052f57610ce2611d0b565b60243590610cee612509565b60018060a01b0316908160005260036020528060406000205410610d5e5760207fc0819c13be868895eb93e40eaceb96de976442fa1d404e5c55f14bb65a8c489a9183600052600382526040600020610d48828254611de9565b9055610d5581338661268c565b604051908152a2005b60405162461bcd60e51b8152602060048201526011602482015270496e73756666696369656e74206665657360781b6044820152606490fd5b3461052f57602036600319011261052f576020610dba610db5611d0b565b611ffa565b6040519015158152f35b3461052f57604036600319011261052f57610ddd611d0b565b7f9dc46f23cfb5ddcad0ae7ea2be38d47fec07bb9382ec7e564efc69e036dd66ce60206024359260018060a01b03169283600052600382526040600020610e25828254611f32565b9055604051908152a2005b611d3f565b3461052f57600036600319011261052f576000546040516001600160a01b039091168152602090f35b3461052f57604036600319011261052f57610e77611d0b565b60243590610e83612509565b6001600160a01b031660008181526007602052604090206003015490919060ff16610ff757602090604051610eb88382611f7e565b60008152600036813760405160a081019080821067ffffffffffffffff831117610fe15760049160405283815284810184815260408201428152606083019160018352608084019586528860005260078852604060002093518455516001840155516002830155600382019051151560ff801983541691161790550190519081519167ffffffffffffffff8311610fe157600160401b8311610fe15784908254848455808510610fb6575b5001906000528360002060005b838110610fa457867f9d3136590a24e6eb0d058d4d9b8c4d5be27926b0abfeca301a4d5fc0aaab775d8787604051908152a2005b82518282015591850191600101610f70565b83600052848360002091820191015b818110610fd25750610f63565b60008155879350600101610fc5565b634e487b7160e01b600052604160045260246000fd5b60405162461bcd60e51b8152602060048201526014602482015273416c726561647920696e20646973636f7665727960601b6044820152606490fd5b3461052f57602036600319011261052f5761104c611d0b565b611054612509565b6001600160a01b03168015611080576bffffffffffffffffffffffff60a01b600b541617600b55600080f35b60405162461bcd60e51b8152602060048201526013602482015272496e76616c696420444558206164647265737360681b6044820152606490fd5b3461052f57602036600319011261052f576001600160a01b036110dc611d0b565b166000526009602052602060ff604060002054166040519015158152f35b3461052f57600036600319011261052f57611113612509565b600080546001600160a01b0319811682556001600160a01b03167f8be0079c531659141344cd1fd0a4f28419497f9722a3daafe3b4186f6b6457e08280a3005b3461052f57602036600319011261052f576001600160a01b03611174611d0b565b1660005260016020526020604060002054604051908152f35b3461052f57600036600319011261052f5760206040516138408152f35b3461052f57600036600319011261052f57600b546040516001600160a01b039091168152602090f35b3461052f57604036600319011261052f5760206111fa6111f1611d0b565b60243590611fa0565b604051908152f35b611d21565b3461052f57600036600319011261052f57602060405160038152f35b3461052f5761123136611dac565b9061123a612509565b8015158061156f575b1561152a57604051636eb1769f60e11b81523360048201523060248201526001600160a01b0384169390602081604481885afa80156114985783916000916114f5575b50106114a45760048054604051636eb1769f60e11b81523392810192909252306024830152602090829060449082906001600160a01b03165afa8015611498578491600091611463575b501061141e5783600052600160205260406000206112ef838254611f32565b9055836000526002602052604060002061130a848254611f32565b905583600052600960205260ff604060002054161561136c575b50807fac1d76749e5447b7b16f5ab61447e1bd502f3bb4807af3b28e620d1700a6ee459261135660409330338861261f565b6108ab81303360018060a01b036004541661261f565b9060085492600160401b841015610fe1576113d86040936113b48660017fac1d76749e5447b7b16f5ab61447e1bd502f3bb4807af3b28e620d1700a6ee459801600855611d63565b81546001600160a01b0393841660039290921b91821b9390911b1916919091179055565b84600052600960205282600020600160ff19825416179055847f402f8a396b78c225022a54972367fd98a174c970fbf537400bb383a0690ebd78600080a2925090611324565b60405162461bcd60e51b815260206004820152601e60248201527f496e73756666696369656e74205320746f6b656e20616c6c6f77616e636500006044820152606490fd5b9150506020813d602011611490575b8161147f60209383611f7e565b8101031261052f57839051866112d0565b3d9150611472565b6040513d6000823e3d90fd5b60405162461bcd60e51b8152602060048201526024808201527f496e73756666696369656e742063726561746f7220746f6b656e20616c6c6f77604482015263616e636560e01b6064820152608490fd5b9150506020813d602011611522575b8161151160209383611f7e565b8101031261052f5782905186611286565b3d9150611504565b60405162461bcd60e51b815260206004820152601960248201527f496e76616c6964206c697175696469747920616d6f756e7473000000000000006044820152606490fd5b50811515611243565b3461052f57604036600319011261052f57611591611d0b565b6024359061159d612509565b60018060a01b0316908160005260076020526040600020906115c560ff600384015416611f3f565b6004820190815492600684101561184457600160401b841015610fe157604082869360017f469b6894b4b45f49c7c10aa3e70e1fae20f0eba89b628e3d69af9d7a34ef8bcf9461161c898360069b018a5589611d94565b81549060031b9085821b91600019901b191617905501558151908152426020820152a2541461164757005b61164f612509565b8060005260076020526040600020600381019061166f60ff835416611f3f565b60028101546201518081018091116103d95742106104ea5760008381526007602052604081206004018054829190825b8181106117a057505081159050611797576116b991611e05565b80670de0b6b3a76400000290670de0b6b3a76400008204036103d9576127109004670de0b6b3a7640000019081670de0b6b3a7640000116103d9577f928602a1348c2d5cc6354f7e6953a38bfaf42426cd5d8c83dc7c42b972cfcdb0926103586001928487604096916729a2241af62c0000811161174d57505067016345785d8a000081111561037d579384910154611dd6565b7ffbb0338b3040d7b9bd8495de3d07128625b3ead1c3464340ed2e760a015d7447919250879081519081526729a2241af62c00006020820152a26729a2241af62c0000878961033b565b505060006116b9565b806117ae575b60010161169f565b6117b88184611d94565b905460001983019160031b1c8282116103d9576117d58286611d94565b90549060031b1c106117e8575b506117a6565b6117f6828597939697611d94565b90549060031b1c9061180e6000926104668388611d94565b9161271083029280840461271014901517156104d657926104af61183d936104a26104c3946001975089611d94565b93906117e2565b60405162461bcd60e51b815260206004820152601560248201527413585e081cdb985c1cda1bdd1cc81c995858da1959605a1b6044820152606490fd5b3461052f57600036600319011261052f576004546040516001600160a01b039091168152602090f35b3461052f57600036600319011261052f57602060405162093a808152f35b3461052f57602036600319011261052f576118e1611d0b565b6005546201518081018091116103d957421061191f576001600160a01b03811660009081526006602052604090205461191991612532565b42600555005b60405162461bcd60e51b815260206004820152601760248201527f546f6f206561726c7920666f7220726562616c616e63650000000000000000006044820152606490fd5b3461052f57602036600319011261052f5760406001600160a01b03611987611d0b565b168060005260016020528160002054906000526002602052816000205482519182526020820152f35b3461052f57604036600319011261052f57610a2c6119cc611d0b565b6119d4612509565b60243590611e25565b3461052f57600036600319011261052f57602060405160068152f35b3461052f57600036600319011261052f5760206040516103e88152f35b3461052f57600036600319011261052f5760206040517f3d962df346299889e3ddd098bdd68cf335a1e370339bd306448317d39b39a66d8152f35b3461052f57602036600319011261052f5760043560085481101561052f57611a7a602091611d63565b905460405160039290921b1c6001600160a01b03168152f35b3461052f57602036600319011261052f57611aac611d0b565b611ab4612509565b6001600160a01b031660008181526009602052604090205460ff1615611bd95760005b6008549081811015611bd25782611aed82611d63565b905460039190911b1c6001600160a01b031614611b0e576001915001611ad7565b60001982019182116103d957818103611ba4575b50506008548015611b8e5760001901611b3a81611d63565b81549060018060a01b039060031b1b191690556008555b806000526009602052604060002060ff1981541690557ffe00c1e8cd2c81e2fc9fbcfbd6eef9904d0b41515821320d5c45abe6e8baae55600080a2005b634e487b7160e01b600052603160045260246000fd5b6113b4611bb3611bcb93611d63565b905460039190911b1c6001600160a01b031691611d63565b8180611b22565b5050611b51565b60405162461bcd60e51b815260206004820152601060248201526f141bdbdb081b9bdd081d1c9858dad95960821b6044820152606490fd5b3461052f57602036600319011261052f576001600160a01b03611c32611d0b565b1660005260036020526020604060002054604051908152f35b3461052f57600036600319011261052f57602060405168056bc75e2d631000008152f35b3461052f57600036600319011261052f57602060405167016345785d8a00008152f35b3461052f57604036600319011261052f5760206111fa602435600435611dd6565b3461052f57602036600319011261052f576001600160a01b03611cd4611d0b565b16600052600a602052806109b160406000208054906002600182015491015491846040919493926060820195825260208201520152565b600435906001600160a01b038216820361052f57565b3461052f57600036600319011261052f576020604051620151808152f35b3461052f57600036600319011261052f576020604051683635c9adc5dea000008152f35b600854811015611d7e57600860005260206000200190600090565b634e487b7160e01b600052603260045260246000fd5b8054821015611d7e5760005260206000200190600090565b606090600319011261052f576004356001600160a01b038116810361052f57906024359060443590565b818102929181159184041417156103d957565b919082039182116103d957565b60001981146103d95760010190565b8115611e0f570490565b634e487b7160e01b600052601260045260246000fd5b6001600160a01b038116600081815260066020526040902080549293919215611f1e57600181019283546050810290808204605014901517156103d9576014840292848404601414851517156103d957611e89600394926064808795049104611f32565b8096868355554260028201550190611ea18254611df6565b8092557fca21c0666034043e35144e1a6964b4519a124330e0122463475f81a0c189d11960405180611ee6428989846040919493926060820195825260208201520152565b0390a21015611ef457505050565b606e8202828104606e14831517156103d9576064900410611f13575050565b611f1c91612532565b565b906001935060039250808255838201550155565b919082018092116103d957565b15611f4657565b60405162461bcd60e51b815260206004820152601060248201526f4e6f7420696e20646973636f7665727960801b6044820152606490fd5b90601f8019910116810190811067ffffffffffffffff821117610fe157604052565b6001600160a01b031660009081526006602090815260408083206002909252909120549054611fce90612668565b9081811015611ff257611fe091611de9565b9080821015611fed575090565b905090565b505050600090565b60018060a01b0316600052600a6020526040600020600181549101549062093a7f194201904282116103d9571061204457683635c9adc5dea000001161203f57600190565b600090565b50600090565b156120525750565b6040519062461bcd60e51b8252602060048301528181519182602483015260005b8381106120955750508160006044809484010152601f80199101168101030190fd5b60208282018101516044878401015285935001612073565b6001600160a01b03811660008181526003602052604090205490919068056bc75e2d63100000811061246d576120e39084611fa0565b908115612431576040516370a0823160e01b8152306004820152602081602481875afa80156114985783916000916123fc575b50106123a5578260005260036020526040600020612135838254611de9565b90556004546001600160a01b0316838114612296575081612155916128f8565b926024602060018060a01b0360045416604051928380926370a0823160e01b82523060048301525afa8015611498578591600091612261575b50106121ff577fa2e59056a8017237dd27a52d5981fb4983f1a43828d018d9ba6e76c801fe90599160209160018060a01b031694856000526001835260406000206121da838254611f32565b905585600052600283526121f46040600020918254611f32565b9055604051908152a3565b60405162461bcd60e51b815260206004820152603460248201527f496e73756666696369656e74205320746f6b656e2062616c616e636520666f72604482015273081c185a5c9959081c9959195c1b1bde5b595b9d60621b6064820152608490fd5b9150506020813d60201161228e575b8161227d60209383611f7e565b8101031261052f578490513861218e565b3d9150612270565b6040516370a0823160e01b81523060048201529294929150602090829060249082905afa8015611498578491600091612370575b50106123155760207fa2e59056a8017237dd27a52d5981fb4983f1a43828d018d9ba6e76c801fe90599160018060a01b031693846000526002825260406000206121f4828254611f32565b60405162461bcd60e51b815260206004820152602d60248201527f496e73756666696369656e74205320746f6b656e2062616c616e636520666f7260448201526c081c9959195c1b1bde5b595b9d609a1b6064820152608490fd5b9150506020813d60201161239d575b8161238c60209383611f7e565b8101031261052f57839051386122ca565b3d915061237f565b60405162461bcd60e51b815260206004820152602960248201527f496e73756666696369656e742062616c616e636520696e206c697175696469746044820152683c9036b0b730b3b2b960b91b6064820152608490fd5b9150506020813d602011612429575b8161241860209383611f7e565b8101031261052f5782905138612116565b3d915061240b565b60405162461bcd60e51b8152602060048201526014602482015273139bc819195c1b1bde5b595b9d081b995959195960621b6044820152606490fd5b60405162461bcd60e51b815260206004820152602260248201527f496e73756666696369656e74206665657320666f722072656465706c6f796d656044820152611b9d60f21b6064820152608490fd5b156124c457565b60405162461bcd60e51b815260206004820152601b60248201527f43616e6e6f742072656d6f766520616c6c206c697175696469747900000000006044820152606490fd5b6000546001600160a01b0316330361251d57565b63118cdaa760e01b6000523360045260246000fd5b60018060a01b031690816000526002602052683635c9adc5dea00000604060002054106125b657670de0b6b3a7640000810290808204670de0b6b3a764000014901517156103d95760207f8eb665708d1cbfa2df196d5f041bc00ac33e9c6e0b42b64233aed0c7c84da7e191836000526002825280604060002055604051908152a2565b508060005260026020527f43c29e41362bceae5b8f10cf00d57c5b525a270a7ff263f5c6b24158459b0bbe6080604060002054604051908152604060208201526016604082015275496e73756666696369656e74206c697175696469747960501b6060820152a2565b6040516323b872dd60e01b60208201526001600160a01b039283166024820152929091166044830152606480830193909352918152611f1c91612663608483611f7e565b61293c565b670de0b6b3a7640000810290808204670de0b6b3a764000014901517156103d95790565b60405163a9059cbb60e01b60208201526001600160a01b039092166024830152604480830193909352918152611f1c91612663606483611f7e565b60085480156120445760009060009062093a7f1942014281116103d95760005b828110612746575050506001600160a01b038216908161270657505090565b60407f23643af3d04a13bf86e4004ef5b421d9d7c59c383201c408fb8b1645b17d533f91836000526002602052816000205482519182526020820152a290565b61274f81611d63565b60018060a01b0391549060031b1c1680600052600a60205260406000206040516060810181811067ffffffffffffffff821117610fe15760405281548152600260018301549260208301938452015460408201528260005260096020528460ff60406000205416159182156128ed575b505080156128da575b6128d057816000526002602052604060002054826000526006602052604060002060405190608082019180831067ffffffffffffffff841117610fe157612834926040526060600383549384845260018101546020850152600281015460408501520154910152612668565b6000928282111561287f575061284a9250611de9565b8060011b90808204600214901517156103d9575b858111612872575b50506001905b016126e7565b9095509350600138612866565b90506007820291808304600714901517156128bc5751916003830292808404600314901517156104d65750600a916128b691611f32565b0461285e565b634e487b7160e01b83526011600452602483fd5b505060019061286c565b50683635c9adc5dea000008151106127c8565b5110905084386127bf565b6001600160a01b031660009081526001602090815260408083205460029092529091205481156129375761292f9061293493611dd6565b611e05565b90565b505090565b906000602091828151910182855af115611498576000513d61298e57506001600160a01b0381163b155b61296d5750565b635274afe760e01b60009081526001600160a01b0391909116600452602490fd5b6001141561296656fea2646970667358221220af5bce5429073941ef04c914af132ffb40db5ffa22c8af8d218ae2679e9a125864736f6c634300081c0033","opcodes":"PUSH1 0x80 CALLVALUE PUSH1 0xD1 JUMPI PUSH1 0x1F PUSH2 0x2ABA CODESIZE DUP2 SWAP1 SUB SWAP2 DUP3 ADD PUSH1 0x1F NOT AND DUP4 ADD SWAP2 PUSH1 0x1 PUSH1 0x1 PUSH1 0x40 SHL SUB DUP4 GT DUP5 DUP5 LT OR PUSH1 0xD6 JUMPI DUP1 DUP5 SWAP3 PUSH1 0x20 SWAP5 PUSH1 0x40 MSTORE DUP4 CODECOPY DUP2 ADD SUB SLT PUSH1 0xD1 JUMPI MLOAD PUSH1 0x1 PUSH1 0x1 PUSH1 0xA0 SHL SUB DUP2 AND SWAP1 DUP2 SWAP1 SUB PUSH1 0xD1 JUMPI CALLER ISZERO PUSH1 0xBB JUMPI PUSH1 0x0 DUP1 SLOAD CALLER PUSH1 0x1 PUSH1 0x1 PUSH1 0xA0 SHL SUB NOT DUP3 AND DUP2 OR DUP4 SSTORE PUSH1 0x40 MLOAD SWAP4 SWAP3 SWAP1 SWAP2 PUSH1 0x1 PUSH1 0x1 PUSH1 0xA0 SHL SUB AND SWAP1 PUSH32 0x8BE0079C531659141344CD1FD0A4F28419497F9722A3DAAFE3B4186F6B6457E0 SWAP1 DUP1 LOG3 PUSH1 0x4 DUP1 SLOAD PUSH1 0x1 PUSH1 0x1 PUSH1 0xA0 SHL SUB NOT AND SWAP2 SWAP1 SWAP2 OR SWAP1 SSTORE PUSH2 0x29CD SWAP1 DUP2 PUSH2 0xED DUP3 CODECOPY RETURN JUMPDEST PUSH4 0x1E4FBDF7 PUSH1 0xE0 SHL PUSH1 0x0 MSTORE PUSH1 0x0 PUSH1 0x4 MSTORE PUSH1 0x24 PUSH1 0x0 REVERT JUMPDEST PUSH1 0x0 DUP1 REVERT JUMPDEST PUSH4 0x4E487B71 PUSH1 0xE0 SHL PUSH1 0x0 MSTORE PUSH1 0x41 PUSH1 0x4 MSTORE PUSH1 0x24 PUSH1 0x0 REVERT INVALID PUSH1 0x80 DUP1 PUSH1 0x40 MSTORE PUSH1 0x4 CALLDATASIZE LT ISZERO PUSH2 0x13 JUMPI PUSH1 0x0 DUP1 REVERT JUMPDEST PUSH1 0x0 CALLDATALOAD PUSH1 0xE0 SHR SWAP1 DUP2 PUSH4 0x51E0E67 EQ PUSH2 0x1CB3 JUMPI POP DUP1 PUSH4 0x14F302AC EQ PUSH2 0x1C92 JUMPI DUP1 PUSH4 0x17359688 EQ PUSH2 0x1202 JUMPI DUP1 PUSH4 0x1879DCF3 EQ PUSH2 0x1C6F JUMPI DUP1 PUSH4 0x1B5A799A EQ PUSH2 0x1C4B JUMPI DUP1 PUSH4 0x1CEAD9A7 EQ PUSH2 0x1C11 JUMPI DUP1 PUSH4 0x21B77D63 EQ PUSH2 0xE30 JUMPI DUP1 PUSH4 0x2253FC3C EQ PUSH2 0x1A93 JUMPI DUP1 PUSH4 0x23BFA792 EQ PUSH2 0x1A51 JUMPI DUP1 PUSH4 0x2EF97265 EQ PUSH2 0x1A16 JUMPI DUP1 PUSH4 0x30AE7805 EQ PUSH2 0x19F9 JUMPI DUP1 PUSH4 0x31AD24F8 EQ PUSH2 0x19DD JUMPI DUP1 PUSH4 0x3417C3D0 EQ PUSH2 0x19B0 JUMPI DUP1 PUSH4 0x3E99C1E4 EQ PUSH2 0x1964 JUMPI DUP1 PUSH4 0x3EC43350 EQ PUSH2 0x18C8 JUMPI DUP1 PUSH4 0x414F99AE EQ PUSH2 0x18AA JUMPI DUP1 PUSH4 0x461A3A95 EQ PUSH2 0x1881 JUMPI DUP1 PUSH4 0x4E358AF2 EQ PUSH2 0x1578 JUMPI DUP1 PUSH4 0x55776B77 EQ PUSH2 0x1223 JUMPI DUP1 PUSH4 0x5889486E EQ PUSH2 0x1207 JUMPI DUP1 PUSH4 0x5C2DA7CD EQ PUSH2 0x1202 JUMPI DUP1 PUSH4 0x6576594B EQ PUSH2 0x11D3 JUMPI DUP1 PUSH4 0x692058C2 EQ PUSH2 0x11AA JUMPI DUP1 PUSH4 0x6D2BEEF1 EQ PUSH2 0x118D JUMPI DUP1 PUSH4 0x708B9935 EQ PUSH2 0x1153 JUMPI DUP1 PUSH4 0x715018A6 EQ PUSH2 0x10FA JUMPI DUP1 PUSH4 0x74A92C66 EQ PUSH2 0x10BB JUMPI DUP1 PUSH4 0x7B66A723 EQ PUSH2 0x1033 JUMPI DUP1 PUSH4 0x8C93CA7C EQ PUSH2 0xE5E JUMPI DUP1 PUSH4 0x8DA5CB5B EQ PUSH2 0xE35 JUMPI DUP1 PUSH4 0x993D3450 EQ PUSH2 0xE30 JUMPI DUP1 PUSH4 0xA033FCD4 EQ PUSH2 0xDC4 JUMPI DUP1 PUSH4 0xA711E6A1 EQ PUSH2 0xD97 JUMPI DUP1 PUSH4 0xAD3B1B47 EQ PUSH2 0xCC9 JUMPI DUP1 PUSH4 0xB1EB4835 EQ PUSH2 0xC6D JUMPI DUP1 PUSH4 0xB2098FA2 EQ PUSH2 0xBA1 JUMPI DUP1 PUSH4 0xB83D8157 EQ PUSH2 0xB83 JUMPI DUP1 PUSH4 0xBC99F487 EQ PUSH2 0xA2E JUMPI DUP1 PUSH4 0xBD1E31AA EQ PUSH2 0x9EF JUMPI DUP1 PUSH4 0xC157C05F EQ PUSH2 0x9B5 JUMPI DUP1 PUSH4 0xE1AEB092 EQ PUSH2 0x94E JUMPI DUP1 PUSH4 0xE38192E3 EQ PUSH2 0x795 JUMPI DUP1 PUSH4 0xE71E76C1 EQ PUSH2 0x693 JUMPI DUP1 PUSH4 0xF2FD23DE EQ PUSH2 0x637 JUMPI DUP1 PUSH4 0xF2FDE38B EQ PUSH2 0x5AE JUMPI DUP1 PUSH4 0xF836C8F2 EQ PUSH2 0x557 JUMPI DUP1 PUSH4 0xF86325ED EQ PUSH2 0x534 JUMPI PUSH4 0xFB99D5F4 EQ PUSH2 0x22F JUMPI PUSH1 0x0 DUP1 REVERT JUMPDEST CALLVALUE PUSH2 0x52F JUMPI PUSH1 0x20 CALLDATASIZE PUSH1 0x3 NOT ADD SLT PUSH2 0x52F JUMPI PUSH2 0x248 PUSH2 0x1D0B JUMP JUMPDEST PUSH2 0x250 PUSH2 0x2509 JUMP JUMPDEST PUSH1 0x1 DUP1 PUSH1 0xA0 SHL SUB AND DUP1 PUSH1 0x0 MSTORE PUSH1 0x7 PUSH1 0x20 MSTORE PUSH1 0x40 PUSH1 0x0 KECCAK256 PUSH1 0x3 DUP2 ADD SWAP1 PUSH2 0x278 PUSH1 0xFF DUP4 SLOAD AND PUSH2 0x1F3F JUMP JUMPDEST PUSH1 0x2 DUP2 ADD SLOAD PUSH3 0x15180 DUP2 ADD DUP1 SWAP2 GT PUSH2 0x3D9 JUMPI TIMESTAMP LT PUSH2 0x4EA JUMPI PUSH1 0x0 DUP4 DUP2 MSTORE PUSH1 0x7 PUSH1 0x20 MSTORE PUSH1 0x40 DUP2 KECCAK256 PUSH1 0x4 ADD DUP1 SLOAD DUP3 SWAP2 SWAP1 DUP3 JUMPDEST DUP2 DUP2 LT PUSH2 0x3F8 JUMPI POP POP DUP2 ISZERO SWAP1 POP PUSH2 0x3EF JUMPI PUSH2 0x2C2 SWAP2 PUSH2 0x1E05 JUMP JUMPDEST DUP1 PUSH8 0xDE0B6B3A7640000 MUL SWAP1 PUSH8 0xDE0B6B3A7640000 DUP3 DIV SUB PUSH2 0x3D9 JUMPI PUSH2 0x2710 SWAP1 DIV PUSH8 0xDE0B6B3A7640000 ADD SWAP1 DUP2 PUSH8 0xDE0B6B3A7640000 GT PUSH2 0x3D9 JUMPI PUSH32 0x928602A1348C2D5CC6354F7E6953A38BFAF42426CD5D8C83DC7C42B972CFCDB0 SWAP3 PUSH2 0x358 PUSH1 0x1 SWAP3 DUP5 DUP8 PUSH1 0x40 SWAP7 SWAP2 PUSH8 0x29A2241AF62C0000 DUP2 GT PUSH2 0x38F JUMPI JUMPDEST POP POP PUSH8 0x16345785D8A0000 DUP2 GT ISZERO PUSH2 0x37D JUMPI SWAP4 DUP5 SWAP2 JUMPDEST ADD SLOAD PUSH2 0x1DD6 JUMP JUMPDEST SWAP1 DUP6 PUSH1 0x0 MSTORE PUSH1 0x2 PUSH1 0x20 MSTORE DUP2 DUP5 PUSH1 0x0 KECCAK256 SSTORE PUSH1 0xFF NOT DUP2 SLOAD AND SWAP1 SSTORE DUP3 MLOAD SWAP2 DUP3 MSTORE PUSH1 0x20 DUP3 ADD MSTORE LOG2 STOP JUMPDEST POP PUSH8 0x16345785D8A0000 SWAP4 DUP5 SWAP2 PUSH2 0x351 JUMP JUMPDEST PUSH32 0xFBB0338B3040D7B9BD8495DE3D07128625B3EAD1C3464340ED2E760A015D7447 SWAP2 SWAP3 POP DUP8 SWAP1 DUP2 MLOAD SWAP1 DUP2 MSTORE PUSH8 0x29A2241AF62C0000 PUSH1 0x20 DUP3 ADD MSTORE LOG2 PUSH8 0x29A2241AF62C0000 DUP8 CODESIZE PUSH2 0x33B JUMP JUMPDEST PUSH4 0x4E487B71 PUSH1 0xE0 SHL PUSH1 0x0 MSTORE PUSH1 0x11 PUSH1 0x4 MSTORE PUSH1 0x24 PUSH1 0x0 REVERT JUMPDEST POP POP PUSH1 0x0 PUSH2 0x2C2 JUMP JUMPDEST DUP1 PUSH2 0x406 JUMPI JUMPDEST PUSH1 0x1 ADD PUSH2 0x2A8 JUMP JUMPDEST PUSH2 0x410 DUP2 DUP5 PUSH2 0x1D94 JUMP JUMPDEST SWAP1 SLOAD PUSH1 0x0 NOT DUP4 ADD SWAP2 PUSH1 0x3 SHL SHR DUP3 DUP3 GT PUSH2 0x3D9 JUMPI PUSH2 0x42D DUP3 DUP7 PUSH2 0x1D94 JUMP JUMPDEST SWAP1 SLOAD SWAP1 PUSH1 0x3 SHL SHR LT PUSH2 0x440 JUMPI JUMPDEST POP PUSH2 0x3FE JUMP JUMPDEST PUSH2 0x44E DUP3 DUP6 SWAP8 SWAP4 SWAP7 SWAP8 PUSH2 0x1D94 JUMP JUMPDEST SWAP1 SLOAD SWAP1 PUSH1 0x3 SHL SHR SWAP1 PUSH2 0x473 PUSH1 0x0 SWAP3 PUSH2 0x466 DUP4 DUP9 PUSH2 0x1D94 JUMP JUMPDEST SWAP1 SLOAD SWAP1 PUSH1 0x3 SHL SHR SWAP1 PUSH2 0x1DE9 JUMP JUMPDEST SWAP2 PUSH2 0x2710 DUP4 MUL SWAP3 DUP1 DUP5 DIV PUSH2 0x2710 EQ SWAP1 ISZERO OR ISZERO PUSH2 0x4D6 JUMPI SWAP3 PUSH2 0x4AF PUSH2 0x4C9 SWAP4 PUSH2 0x4A2 PUSH2 0x4C3 SWAP5 PUSH1 0x1 SWAP8 POP DUP10 PUSH2 0x1D94 JUMP JUMPDEST SWAP1 SLOAD SWAP1 PUSH1 0x3 SHL SHR SWAP1 PUSH2 0x1E05 JUMP JUMPDEST PUSH2 0x2710 DUP2 GT ISZERO PUSH2 0x4D0 JUMPI POP PUSH2 0x2710 SWAP1 PUSH2 0x1F32 JUMP JUMPDEST SWAP6 PUSH2 0x1DF6 JUMP JUMPDEST SWAP4 SWAP1 PUSH2 0x43A JUMP JUMPDEST SWAP1 PUSH2 0x1F32 JUMP JUMPDEST PUSH4 0x4E487B71 PUSH1 0xE0 SHL DUP2 MSTORE PUSH1 0x11 PUSH1 0x4 MSTORE PUSH1 0x24 SWAP1 REVERT JUMPDEST PUSH1 0x40 MLOAD PUSH3 0x461BCD PUSH1 0xE5 SHL DUP2 MSTORE PUSH1 0x20 PUSH1 0x4 DUP3 ADD MSTORE PUSH1 0x1D PUSH1 0x24 DUP3 ADD MSTORE PUSH32 0x446973636F7665727920706572696F64206E6F7420636F6D706C657465000000 PUSH1 0x44 DUP3 ADD MSTORE PUSH1 0x64 SWAP1 REVERT JUMPDEST PUSH1 0x0 DUP1 REVERT JUMPDEST CALLVALUE PUSH2 0x52F JUMPI PUSH1 0x0 CALLDATASIZE PUSH1 0x3 NOT ADD SLT PUSH2 0x52F JUMPI PUSH1 0x20 PUSH1 0x40 MLOAD PUSH8 0xDE0B6B3A7640000 DUP2 MSTORE RETURN JUMPDEST CALLVALUE PUSH2 0x52F JUMPI PUSH1 0x20 CALLDATASIZE PUSH1 0x3 NOT ADD SLT PUSH2 0x52F JUMPI PUSH1 0x60 PUSH2 0x572 PUSH2 0x1D0B JUMP JUMPDEST PUSH1 0x1 DUP1 PUSH1 0xA0 SHL SUB DUP2 AND PUSH1 0x0 MSTORE PUSH1 0xA PUSH1 0x20 MSTORE PUSH1 0x40 PUSH1 0x0 KECCAK256 SWAP1 PUSH2 0x599 PUSH1 0x1 DUP4 SLOAD SWAP4 ADD SLOAD SWAP2 PUSH2 0x1FFA JUMP JUMPDEST SWAP1 PUSH1 0x40 MLOAD SWAP3 DUP4 MSTORE PUSH1 0x20 DUP4 ADD MSTORE ISZERO ISZERO PUSH1 0x40 DUP3 ADD MSTORE RETURN JUMPDEST CALLVALUE PUSH2 0x52F JUMPI PUSH1 0x20 CALLDATASIZE PUSH1 0x3 NOT ADD SLT PUSH2 0x52F JUMPI PUSH2 0x5C7 PUSH2 0x1D0B JUMP JUMPDEST PUSH2 0x5CF PUSH2 0x2509 JUMP JUMPDEST PUSH1 0x1 PUSH1 0x1 PUSH1 0xA0 SHL SUB AND DUP1 ISZERO PUSH2 0x621 JUMPI PUSH1 0x0 DUP1 SLOAD PUSH1 0x1 PUSH1 0x1 PUSH1 0xA0 SHL SUB NOT DUP2 AND DUP4 OR DUP3 SSTORE PUSH1 0x1 PUSH1 0x1 PUSH1 0xA0 SHL SUB AND SWAP1 PUSH32 0x8BE0079C531659141344CD1FD0A4F28419497F9722A3DAAFE3B4186F6B6457E0 SWAP1 DUP1 LOG3 STOP JUMPDEST PUSH4 0x1E4FBDF7 PUSH1 0xE0 SHL PUSH1 0x0 MSTORE PUSH1 0x0 PUSH1 0x4 MSTORE PUSH1 0x24 PUSH1 0x0 REVERT JUMPDEST CALLVALUE PUSH2 0x52F JUMPI PUSH1 0x20 CALLDATASIZE PUSH1 0x3 NOT ADD SLT PUSH2 0x52F JUMPI PUSH1 0x1 PUSH1 0x1 PUSH1 0xA0 SHL SUB PUSH2 0x658 PUSH2 0x1D0B JUMP JUMPDEST AND PUSH1 0x0 MSTORE PUSH1 0x6 PUSH1 0x20 MSTORE PUSH1 0x80 PUSH1 0x40 PUSH1 0x0 KECCAK256 DUP1 SLOAD SWAP1 PUSH1 0x1 DUP2 ADD SLOAD SWAP1 PUSH1 0x3 PUSH1 0x2 DUP3 ADD SLOAD SWAP2 ADD SLOAD SWAP2 PUSH1 0x40 MLOAD SWAP4 DUP5 MSTORE PUSH1 0x20 DUP5 ADD MSTORE PUSH1 0x40 DUP4 ADD MSTORE PUSH1 0x60 DUP3 ADD MSTORE RETURN JUMPDEST CALLVALUE PUSH2 0x52F JUMPI PUSH1 0x40 CALLDATASIZE PUSH1 0x3 NOT ADD SLT PUSH2 0x52F JUMPI PUSH2 0x6AC PUSH2 0x1D0B JUMP JUMPDEST PUSH1 0xB SLOAD PUSH1 0x24 CALLDATALOAD SWAP2 SWAP1 PUSH1 0x1 PUSH1 0x1 PUSH1 0xA0 SHL SUB AND CALLER SUB PUSH2 0x750 JUMPI PUSH1 0x1 DUP1 PUSH1 0xA0 SHL SUB AND SWAP1 DUP2 PUSH1 0x0 MSTORE PUSH1 0xA PUSH1 0x20 MSTORE PUSH1 0x40 PUSH1 0x0 KECCAK256 SWAP1 TIMESTAMP DUP3 SSTORE PUSH1 0x2 DUP3 ADD SWAP2 DUP3 SLOAD SWAP1 PUSH3 0x15180 DUP3 ADD DUP1 SWAP3 GT PUSH2 0x3D9 JUMPI PUSH32 0x339A588D56F667BA0A8358BE57070B2B0C9F5159D43EBA838EF1DA89159B985A SWAP4 PUSH1 0x40 SWAP4 PUSH1 0x1 SWAP4 TIMESTAMP LT PUSH2 0x739 JUMPI DUP4 DUP4 ADD SSTORE TIMESTAMP SWAP1 SSTORE JUMPDEST ADD SLOAD DUP2 MLOAD SWAP1 DUP2 MSTORE TIMESTAMP PUSH1 0x20 DUP3 ADD MSTORE LOG2 STOP JUMPDEST SWAP1 POP PUSH2 0x749 DUP4 DUP4 ADD SWAP2 DUP3 SLOAD PUSH2 0x1F32 JUMP JUMPDEST SWAP1 SSTORE PUSH2 0x729 JUMP JUMPDEST PUSH1 0x40 MLOAD PUSH3 0x461BCD PUSH1 0xE5 SHL DUP2 MSTORE PUSH1 0x20 PUSH1 0x4 DUP3 ADD MSTORE PUSH1 0x1F PUSH1 0x24 DUP3 ADD MSTORE PUSH32 0x4F6E6C79204445582063616E2063616C6C20746869732066756E6374696F6E00 PUSH1 0x44 DUP3 ADD MSTORE PUSH1 0x64 SWAP1 REVERT JUMPDEST CALLVALUE PUSH2 0x52F JUMPI PUSH2 0x7A3 CALLDATASIZE PUSH2 0x1DAC JUMP JUMPDEST SWAP2 PUSH2 0x7AC PUSH2 0x2509 JUMP JUMPDEST PUSH1 0x1 DUP1 PUSH1 0xA0 SHL SUB AND SWAP2 DUP3 PUSH1 0x0 MSTORE PUSH1 0x1 PUSH1 0x20 MSTORE DUP2 PUSH1 0x40 PUSH1 0x0 KECCAK256 SLOAD LT PUSH2 0x8FD JUMPI DUP3 PUSH1 0x0 MSTORE PUSH1 0x2 PUSH1 0x20 MSTORE DUP1 PUSH1 0x40 PUSH1 0x0 KECCAK256 SLOAD LT PUSH2 0x8B8 JUMPI PUSH32 0x96CD817C6329656790EF8FBA7675405193677D39619571282F5E21F3A98CD059 SWAP2 PUSH1 0x40 SWAP2 DUP5 PUSH1 0x0 MSTORE PUSH1 0x1 PUSH1 0x20 MSTORE PUSH2 0x82F PUSH9 0x3635C9ADC5DEA00000 PUSH2 0x828 DUP5 DUP7 PUSH1 0x0 KECCAK256 SLOAD PUSH2 0x1DE9 JUMP JUMPDEST LT ISZERO PUSH2 0x24BD JUMP JUMPDEST DUP5 PUSH1 0x0 MSTORE PUSH1 0x2 PUSH1 0x20 MSTORE PUSH2 0x853 PUSH9 0x3635C9ADC5DEA00000 PUSH2 0x828 DUP4 DUP7 PUSH1 0x0 KECCAK256 SLOAD PUSH2 0x1DE9 JUMP JUMPDEST DUP5 PUSH1 0x0 MSTORE PUSH1 0x1 PUSH1 0x20 MSTORE DUP3 PUSH1 0x0 KECCAK256 PUSH2 0x86B DUP4 DUP3 SLOAD PUSH2 0x1DE9 JUMP JUMPDEST SWAP1 SSTORE DUP5 PUSH1 0x0 MSTORE PUSH1 0x2 PUSH1 0x20 MSTORE DUP3 PUSH1 0x0 KECCAK256 PUSH2 0x885 DUP3 DUP3 SLOAD PUSH2 0x1DE9 JUMP JUMPDEST SWAP1 SSTORE PUSH2 0x892 DUP3 CALLER DUP8 PUSH2 0x268C JUMP JUMPDEST PUSH1 0x4 SLOAD PUSH2 0x8AB SWAP1 DUP3 SWAP1 CALLER SWAP1 PUSH1 0x1 PUSH1 0x1 PUSH1 0xA0 SHL SUB AND PUSH2 0x268C JUMP JUMPDEST DUP3 MLOAD SWAP2 DUP3 MSTORE PUSH1 0x20 DUP3 ADD MSTORE LOG2 STOP JUMPDEST PUSH1 0x40 MLOAD PUSH3 0x461BCD PUSH1 0xE5 SHL DUP2 MSTORE PUSH1 0x20 PUSH1 0x4 DUP3 ADD MSTORE PUSH1 0x1E PUSH1 0x24 DUP3 ADD MSTORE PUSH32 0x496E73756666696369656E74205320746F6B656E206C69717569646974790000 PUSH1 0x44 DUP3 ADD MSTORE PUSH1 0x64 SWAP1 REVERT JUMPDEST PUSH1 0x40 MLOAD PUSH3 0x461BCD PUSH1 0xE5 SHL DUP2 MSTORE PUSH1 0x20 PUSH1 0x4 DUP3 ADD MSTORE PUSH1 0x24 DUP1 DUP3 ADD MSTORE PUSH32 0x496E73756666696369656E742063726561746F7220746F6B656E206C69717569 PUSH1 0x44 DUP3 ADD MSTORE PUSH4 0x64697479 PUSH1 0xE0 SHL PUSH1 0x64 DUP3 ADD MSTORE PUSH1 0x84 SWAP1 REVERT JUMPDEST CALLVALUE PUSH2 0x52F JUMPI PUSH1 0x20 CALLDATASIZE PUSH1 0x3 NOT ADD SLT PUSH2 0x52F JUMPI PUSH1 0x1 PUSH1 0x1 PUSH1 0xA0 SHL SUB PUSH2 0x96F PUSH2 0x1D0B JUMP JUMPDEST AND PUSH1 0x0 SWAP1 DUP2 MSTORE PUSH1 0x7 PUSH1 0x20 SWAP1 DUP2 MSTORE PUSH1 0x40 SWAP2 DUP3 SWAP1 KECCAK256 DUP1 SLOAD PUSH1 0x1 DUP3 ADD SLOAD PUSH1 0x2 DUP4 ADD SLOAD PUSH1 0x3 SWAP1 SWAP4 ADD SLOAD DUP6 MLOAD SWAP3 DUP4 MSTORE SWAP4 DUP3 ADD MSTORE SWAP3 DUP4 ADD MSTORE PUSH1 0xFF AND ISZERO ISZERO PUSH1 0x60 DUP3 ADD MSTORE DUP1 PUSH1 0x80 DUP2 ADD JUMPDEST SUB SWAP1 RETURN JUMPDEST CALLVALUE PUSH2 0x52F JUMPI PUSH1 0x20 CALLDATASIZE PUSH1 0x3 NOT ADD SLT PUSH2 0x52F JUMPI PUSH1 0x1 PUSH1 0x1 PUSH1 0xA0 SHL SUB PUSH2 0x9D6 PUSH2 0x1D0B JUMP JUMPDEST AND PUSH1 0x0 MSTORE PUSH1 0x2 PUSH1 0x20 MSTORE PUSH1 0x20 PUSH1 0x40 PUSH1 0x0 KECCAK256 SLOAD PUSH1 0x40 MLOAD SWAP1 DUP2 MSTORE RETURN JUMPDEST CALLVALUE PUSH2 0x52F JUMPI PUSH1 0x40 CALLDATASIZE PUSH1 0x3 NOT ADD SLT PUSH2 0x52F JUMPI PUSH2 0xA08 PUSH2 0x1D0B JUMP JUMPDEST PUSH1 0x24 CALLDATALOAD PUSH1 0x1 PUSH1 0x1 PUSH1 0xA0 SHL SUB DUP2 AND DUP2 SUB PUSH2 0x52F JUMPI PUSH2 0xA2C SWAP2 PUSH2 0xA27 PUSH2 0x2509 JUMP JUMPDEST PUSH2 0x20AD JUMP JUMPDEST STOP JUMPDEST CALLVALUE PUSH2 0x52F JUMPI PUSH1 0x20 CALLDATASIZE PUSH1 0x3 NOT ADD SLT PUSH2 0x52F JUMPI PUSH2 0xA47 PUSH2 0x1D0B JUMP JUMPDEST PUSH1 0x1 DUP1 PUSH1 0xA0 SHL SUB DUP2 AND DUP1 PUSH1 0x0 MSTORE PUSH1 0x3 PUSH1 0x20 MSTORE PUSH1 0x40 PUSH1 0x0 KECCAK256 SLOAD SWAP2 PUSH2 0xAA3 PUSH1 0x40 MLOAD PUSH2 0xA71 PUSH1 0x40 DUP3 PUSH2 0x1F7E JUMP JUMPDEST PUSH1 0x1D DUP2 MSTORE PUSH32 0x4E6F206665657320617661696C61626C6520746F2072656465706C6F79000000 PUSH1 0x20 DUP3 ADD MSTORE DUP5 ISZERO ISZERO PUSH2 0x204A JUMP JUMPDEST PUSH2 0xAF0 PUSH1 0x40 MLOAD PUSH2 0xAB4 PUSH1 0x40 DUP3 PUSH2 0x1F7E JUMP JUMPDEST PUSH1 0x1B DUP2 MSTORE PUSH32 0x42656C6F77206D696E696D756D20666565207468726573686F6C640000000000 PUSH1 0x20 DUP3 ADD MSTORE PUSH9 0x56BC75E2D63100000 DUP6 LT ISZERO PUSH2 0x204A JUMP JUMPDEST PUSH2 0xAF8 PUSH2 0x26C7 JUMP JUMPDEST SWAP2 PUSH1 0x1 PUSH1 0x1 PUSH1 0xA0 SHL SUB DUP4 AND SWAP1 DUP2 ISZERO PUSH2 0xB45 JUMPI PUSH32 0x2301FE8A9459A994E4A19640F476CA1A19507B1F70FB40DE46ADF16DB68B39AC PUSH1 0x40 PUSH2 0xA2C SWAP7 DUP2 MLOAD SWAP1 DUP2 MSTORE TIMESTAMP PUSH1 0x20 DUP3 ADD MSTORE LOG3 PUSH2 0xA27 PUSH2 0x2509 JUMP JUMPDEST PUSH1 0x40 MLOAD PUSH3 0x461BCD PUSH1 0xE5 SHL DUP2 MSTORE PUSH1 0x20 PUSH1 0x4 DUP3 ADD MSTORE PUSH1 0x16 PUSH1 0x24 DUP3 ADD MSTORE PUSH22 0x139BC81CDD5A5D18589B19481C1BDBDB08199BDD5B99 PUSH1 0x52 SHL PUSH1 0x44 DUP3 ADD MSTORE PUSH1 0x64 SWAP1 REVERT JUMPDEST CALLVALUE PUSH2 0x52F JUMPI PUSH1 0x0 CALLDATASIZE PUSH1 0x3 NOT ADD SLT PUSH2 0x52F JUMPI PUSH1 0x20 PUSH1 0x5 SLOAD PUSH1 0x40 MLOAD SWAP1 DUP2 MSTORE RETURN JUMPDEST CALLVALUE PUSH2 0x52F JUMPI PUSH1 0x0 CALLDATASIZE PUSH1 0x3 NOT ADD SLT PUSH2 0x52F JUMPI PUSH1 0x40 MLOAD DUP1 PUSH1 0x20 PUSH1 0x8 SLOAD SWAP3 DUP4 DUP2 MSTORE ADD DUP1 SWAP3 PUSH1 0x8 PUSH1 0x0 MSTORE PUSH32 0xF3F7A9FE364FAAB93B216DA50A3214154F22A0A2B415B23A84C8169E8B636EE3 SWAP1 PUSH1 0x0 JUMPDEST DUP2 DUP2 LT PUSH2 0xC4E JUMPI POP POP POP DUP2 PUSH2 0xC02 SWAP2 SUB DUP3 PUSH2 0x1F7E JUMP JUMPDEST PUSH1 0x40 MLOAD SWAP2 DUP3 SWAP2 PUSH1 0x20 DUP4 ADD SWAP1 PUSH1 0x20 DUP5 MSTORE MLOAD DUP1 SWAP2 MSTORE PUSH1 0x40 DUP4 ADD SWAP2 SWAP1 PUSH1 0x0 JUMPDEST DUP2 DUP2 LT PUSH2 0xC2C JUMPI POP POP POP SUB SWAP1 RETURN JUMPDEST DUP3 MLOAD PUSH1 0x1 PUSH1 0x1 PUSH1 0xA0 SHL SUB AND DUP5 MSTORE DUP6 SWAP5 POP PUSH1 0x20 SWAP4 DUP5 ADD SWAP4 SWAP1 SWAP3 ADD SWAP2 PUSH1 0x1 ADD PUSH2 0xC1E JUMP JUMPDEST DUP3 SLOAD PUSH1 0x1 PUSH1 0x1 PUSH1 0xA0 SHL SUB AND DUP5 MSTORE PUSH1 0x20 SWAP1 SWAP4 ADD SWAP3 PUSH1 0x1 SWAP3 DUP4 ADD SWAP3 ADD PUSH2 0xBEC JUMP JUMPDEST CALLVALUE PUSH2 0x52F JUMPI PUSH1 0x20 CALLDATASIZE PUSH1 0x3 NOT ADD SLT PUSH2 0x52F JUMPI PUSH1 0x1 PUSH1 0x1 PUSH1 0xA0 SHL SUB PUSH2 0xC8E PUSH2 0x1D0B JUMP JUMPDEST AND PUSH1 0x0 SWAP1 DUP2 MSTORE PUSH1 0x6 PUSH1 0x20 SWAP1 DUP2 MSTORE PUSH1 0x40 SWAP2 DUP3 SWAP1 KECCAK256 DUP1 SLOAD PUSH1 0x1 DUP3 ADD SLOAD PUSH1 0x3 SWAP3 DUP4 ADD SLOAD DUP6 MLOAD SWAP3 DUP4 MSTORE SWAP4 DUP3 ADD MSTORE SWAP3 DUP4 ADD DUP3 SWAP1 MSTORE GT ISZERO PUSH1 0x60 DUP3 ADD MSTORE PUSH1 0x80 SWAP1 RETURN JUMPDEST CALLVALUE PUSH2 0x52F JUMPI PUSH1 0x40 CALLDATASIZE PUSH1 0x3 NOT ADD SLT PUSH2 0x52F JUMPI PUSH2 0xCE2 PUSH2 0x1D0B JUMP JUMPDEST PUSH1 0x24 CALLDATALOAD SWAP1 PUSH2 0xCEE PUSH2 0x2509 JUMP JUMPDEST PUSH1 0x1 DUP1 PUSH1 0xA0 SHL SUB AND SWAP1 DUP2 PUSH1 0x0 MSTORE PUSH1 0x3 PUSH1 0x20 MSTORE DUP1 PUSH1 0x40 PUSH1 0x0 KECCAK256 SLOAD LT PUSH2 0xD5E JUMPI PUSH1 0x20 PUSH32 0xC0819C13BE868895EB93E40EACEB96DE976442FA1D404E5C55F14BB65A8C489A SWAP2 DUP4 PUSH1 0x0 MSTORE PUSH1 0x3 DUP3 MSTORE PUSH1 0x40 PUSH1 0x0 KECCAK256 PUSH2 0xD48 DUP3 DUP3 SLOAD PUSH2 0x1DE9 JUMP JUMPDEST SWAP1 SSTORE PUSH2 0xD55 DUP2 CALLER DUP7 PUSH2 0x268C JUMP JUMPDEST PUSH1 0x40 MLOAD SWAP1 DUP2 MSTORE LOG2 STOP JUMPDEST PUSH1 0x40 MLOAD PUSH3 0x461BCD PUSH1 0xE5 SHL DUP2 MSTORE PUSH1 0x20 PUSH1 0x4 DUP3 ADD MSTORE PUSH1 0x11 PUSH1 0x24 DUP3 ADD MSTORE PUSH17 0x496E73756666696369656E742066656573 PUSH1 0x78 SHL PUSH1 0x44 DUP3 ADD MSTORE PUSH1 0x64 SWAP1 REVERT JUMPDEST CALLVALUE PUSH2 0x52F JUMPI PUSH1 0x20 CALLDATASIZE PUSH1 0x3 NOT ADD SLT PUSH2 0x52F JUMPI PUSH1 0x20 PUSH2 0xDBA PUSH2 0xDB5 PUSH2 0x1D0B JUMP JUMPDEST PUSH2 0x1FFA JUMP JUMPDEST PUSH1 0x40 MLOAD SWAP1 ISZERO ISZERO DUP2 MSTORE RETURN JUMPDEST CALLVALUE PUSH2 0x52F JUMPI PUSH1 0x40 CALLDATASIZE PUSH1 0x3 NOT ADD SLT PUSH2 0x52F JUMPI PUSH2 0xDDD PUSH2 0x1D0B JUMP JUMPDEST PUSH32 0x9DC46F23CFB5DDCAD0AE7EA2BE38D47FEC07BB9382EC7E564EFC69E036DD66CE PUSH1 0x20 PUSH1 0x24 CALLDATALOAD SWAP3 PUSH1 0x1 DUP1 PUSH1 0xA0 SHL SUB AND SWAP3 DUP4 PUSH1 0x0 MSTORE PUSH1 0x3 DUP3 MSTORE PUSH1 0x40 PUSH1 0x0 KECCAK256 PUSH2 0xE25 DUP3 DUP3 SLOAD PUSH2 0x1F32 JUMP JUMPDEST SWAP1 SSTORE PUSH1 0x40 MLOAD SWAP1 DUP2 MSTORE LOG2 STOP JUMPDEST PUSH2 0x1D3F JUMP JUMPDEST CALLVALUE PUSH2 0x52F JUMPI PUSH1 0x0 CALLDATASIZE PUSH1 0x3 NOT ADD SLT PUSH2 0x52F JUMPI PUSH1 0x0 SLOAD PUSH1 0x40 MLOAD PUSH1 0x1 PUSH1 0x1 PUSH1 0xA0 SHL SUB SWAP1 SWAP2 AND DUP2 MSTORE PUSH1 0x20 SWAP1 RETURN JUMPDEST CALLVALUE PUSH2 0x52F JUMPI PUSH1 0x40 CALLDATASIZE PUSH1 0x3 NOT ADD SLT PUSH2 0x52F JUMPI PUSH2 0xE77 PUSH2 0x1D0B JUMP JUMPDEST PUSH1 0x24 CALLDATALOAD SWAP1 PUSH2 0xE83 PUSH2 0x2509 JUMP JUMPDEST PUSH1 0x1 PUSH1 0x1 PUSH1 0xA0 SHL SUB AND PUSH1 0x0 DUP2 DUP2 MSTORE PUSH1 0x7 PUSH1 0x20 MSTORE PUSH1 0x40 SWAP1 KECCAK256 PUSH1 0x3 ADD SLOAD SWAP1 SWAP2 SWAP1 PUSH1 0xFF AND PUSH2 0xFF7 JUMPI PUSH1 0x20 SWAP1 PUSH1 0x40 MLOAD PUSH2 0xEB8 DUP4 DUP3 PUSH2 0x1F7E JUMP JUMPDEST PUSH1 0x0 DUP2 MSTORE PUSH1 0x0 CALLDATASIZE DUP2 CALLDATACOPY PUSH1 0x40 MLOAD PUSH1 0xA0 DUP2 ADD SWAP1 DUP1 DUP3 LT PUSH8 0xFFFFFFFFFFFFFFFF DUP4 GT OR PUSH2 0xFE1 JUMPI PUSH1 0x4 SWAP2 PUSH1 0x40 MSTORE DUP4 DUP2 MSTORE DUP5 DUP2 ADD DUP5 DUP2 MSTORE PUSH1 0x40 DUP3 ADD TIMESTAMP DUP2 MSTORE PUSH1 0x60 DUP4 ADD SWAP2 PUSH1 0x1 DUP4 MSTORE PUSH1 0x80 DUP5 ADD SWAP6 DUP7 MSTORE DUP9 PUSH1 0x0 MSTORE PUSH1 0x7 DUP9 MSTORE PUSH1 0x40 PUSH1 0x0 KECCAK256 SWAP4 MLOAD DUP5 SSTORE MLOAD PUSH1 0x1 DUP5 ADD SSTORE MLOAD PUSH1 0x2 DUP4 ADD SSTORE PUSH1 0x3 DUP3 ADD SWAP1 MLOAD ISZERO ISZERO PUSH1 0xFF DUP1 NOT DUP4 SLOAD AND SWAP2 AND OR SWAP1 SSTORE ADD SWAP1 MLOAD SWAP1 DUP2 MLOAD SWAP2 PUSH8 0xFFFFFFFFFFFFFFFF DUP4 GT PUSH2 0xFE1 JUMPI PUSH1 0x1 PUSH1 0x40 SHL DUP4 GT PUSH2 0xFE1 JUMPI DUP5 SWAP1 DUP3 SLOAD DUP5 DUP5 SSTORE DUP1 DUP6 LT PUSH2 0xFB6 JUMPI JUMPDEST POP ADD SWAP1 PUSH1 0x0 MSTORE DUP4 PUSH1 0x0 KECCAK256 PUSH1 0x0 JUMPDEST DUP4 DUP2 LT PUSH2 0xFA4 JUMPI DUP7 PUSH32 0x9D3136590A24E6EB0D058D4D9B8C4D5BE27926B0ABFECA301A4D5FC0AAAB775D DUP8 DUP8 PUSH1 0x40 MLOAD SWAP1 DUP2 MSTORE LOG2 STOP JUMPDEST DUP3 MLOAD DUP3 DUP3 ADD SSTORE SWAP2 DUP6 ADD SWAP2 PUSH1 0x1 ADD PUSH2 0xF70 JUMP JUMPDEST DUP4 PUSH1 0x0 MSTORE DUP5 DUP4 PUSH1 0x0 KECCAK256 SWAP2 DUP3 ADD SWAP2 ADD JUMPDEST DUP2 DUP2 LT PUSH2 0xFD2 JUMPI POP PUSH2 0xF63 JUMP JUMPDEST PUSH1 0x0 DUP2 SSTORE DUP8 SWAP4 POP PUSH1 0x1 ADD PUSH2 0xFC5 JUMP JUMPDEST PUSH4 0x4E487B71 PUSH1 0xE0 SHL PUSH1 0x0 MSTORE PUSH1 0x41 PUSH1 0x4 MSTORE PUSH1 0x24 PUSH1 0x0 REVERT JUMPDEST PUSH1 0x40 MLOAD PUSH3 0x461BCD PUSH1 0xE5 SHL DUP2 MSTORE PUSH1 0x20 PUSH1 0x4 DUP3 ADD MSTORE PUSH1 0x14 PUSH1 0x24 DUP3 ADD MSTORE PUSH20 0x416C726561647920696E20646973636F76657279 PUSH1 0x60 SHL PUSH1 0x44 DUP3 ADD MSTORE PUSH1 0x64 SWAP1 REVERT JUMPDEST CALLVALUE PUSH2 0x52F JUMPI PUSH1 0x20 CALLDATASIZE PUSH1 0x3 NOT ADD SLT PUSH2 0x52F JUMPI PUSH2 0x104C PUSH2 0x1D0B JUMP JUMPDEST PUSH2 0x1054 PUSH2 0x2509 JUMP JUMPDEST PUSH1 0x1 PUSH1 0x1 PUSH1 0xA0 SHL SUB AND DUP1 ISZERO PUSH2 0x1080 JUMPI PUSH12 0xFFFFFFFFFFFFFFFFFFFFFFFF PUSH1 0xA0 SHL PUSH1 0xB SLOAD AND OR PUSH1 0xB SSTORE PUSH1 0x0 DUP1 RETURN JUMPDEST PUSH1 0x40 MLOAD PUSH3 0x461BCD PUSH1 0xE5 SHL DUP2 MSTORE PUSH1 0x20 PUSH1 0x4 DUP3 ADD MSTORE PUSH1 0x13 PUSH1 0x24 DUP3 ADD MSTORE PUSH19 0x496E76616C6964204445582061646472657373 PUSH1 0x68 SHL PUSH1 0x44 DUP3 ADD MSTORE PUSH1 0x64 SWAP1 REVERT JUMPDEST CALLVALUE PUSH2 0x52F JUMPI PUSH1 0x20 CALLDATASIZE PUSH1 0x3 NOT ADD SLT PUSH2 0x52F JUMPI PUSH1 0x1 PUSH1 0x1 PUSH1 0xA0 SHL SUB PUSH2 0x10DC PUSH2 0x1D0B JUMP JUMPDEST AND PUSH1 0x0 MSTORE PUSH1 0x9 PUSH1 0x20 MSTORE PUSH1 0x20 PUSH1 0xFF PUSH1 0x40 PUSH1 0x0 KECCAK256 SLOAD AND PUSH1 0x40 MLOAD SWAP1 ISZERO ISZERO DUP2 MSTORE RETURN JUMPDEST CALLVALUE PUSH2 0x52F JUMPI PUSH1 0x0 CALLDATASIZE PUSH1 0x3 NOT ADD SLT PUSH2 0x52F JUMPI PUSH2 0x1113 PUSH2 0x2509 JUMP JUMPDEST PUSH1 0x0 DUP1 SLOAD PUSH1 0x1 PUSH1 0x1 PUSH1 0xA0 SHL SUB NOT DUP2 AND DUP3 SSTORE PUSH1 0x1 PUSH1 0x1 PUSH1 0xA0 SHL SUB AND PUSH32 0x8BE0079C531659141344CD1FD0A4F28419497F9722A3DAAFE3B4186F6B6457E0 DUP3 DUP1 LOG3 STOP JUMPDEST CALLVALUE PUSH2 0x52F JUMPI PUSH1 0x20 CALLDATASIZE PUSH1 0x3 NOT ADD SLT PUSH2 0x52F JUMPI PUSH1 0x1 PUSH1 0x1 PUSH1 0xA0 SHL SUB PUSH2 0x1174 PUSH2 0x1D0B JUMP JUMPDEST AND PUSH1 0x0 MSTORE PUSH1 0x1 PUSH1 0x20 MSTORE PUSH1 0x20 PUSH1 0x40 PUSH1 0x0 KECCAK256 SLOAD PUSH1 0x40 MLOAD SWAP1 DUP2 MSTORE RETURN JUMPDEST CALLVALUE PUSH2 0x52F JUMPI PUSH1 0x0 CALLDATASIZE PUSH1 0x3 NOT ADD SLT PUSH2 0x52F JUMPI PUSH1 0x20 PUSH1 0x40 MLOAD PUSH2 0x3840 DUP2 MSTORE RETURN JUMPDEST CALLVALUE PUSH2 0x52F JUMPI PUSH1 0x0 CALLDATASIZE PUSH1 0x3 NOT ADD SLT PUSH2 0x52F JUMPI PUSH1 0xB SLOAD PUSH1 0x40 MLOAD PUSH1 0x1 PUSH1 0x1 PUSH1 0xA0 SHL SUB SWAP1 SWAP2 AND DUP2 MSTORE PUSH1 0x20 SWAP1 RETURN JUMPDEST CALLVALUE PUSH2 0x52F JUMPI PUSH1 0x40 CALLDATASIZE PUSH1 0x3 NOT ADD SLT PUSH2 0x52F JUMPI PUSH1 0x20 PUSH2 0x11FA PUSH2 0x11F1 PUSH2 0x1D0B JUMP JUMPDEST PUSH1 0x24 CALLDATALOAD SWAP1 PUSH2 0x1FA0 JUMP JUMPDEST PUSH1 0x40 MLOAD SWAP1 DUP2 MSTORE RETURN JUMPDEST PUSH2 0x1D21 JUMP JUMPDEST CALLVALUE PUSH2 0x52F JUMPI PUSH1 0x0 CALLDATASIZE PUSH1 0x3 NOT ADD SLT PUSH2 0x52F JUMPI PUSH1 0x20 PUSH1 0x40 MLOAD PUSH1 0x3 DUP2 MSTORE RETURN JUMPDEST CALLVALUE PUSH2 0x52F JUMPI PUSH2 0x1231 CALLDATASIZE PUSH2 0x1DAC JUMP JUMPDEST SWAP1 PUSH2 0x123A PUSH2 0x2509 JUMP JUMPDEST DUP1 ISZERO ISZERO DUP1 PUSH2 0x156F JUMPI JUMPDEST ISZERO PUSH2 0x152A JUMPI PUSH1 0x40 MLOAD PUSH4 0x6EB1769F PUSH1 0xE1 SHL DUP2 MSTORE CALLER PUSH1 0x4 DUP3 ADD MSTORE ADDRESS PUSH1 0x24 DUP3 ADD MSTORE PUSH1 0x1 PUSH1 0x1 PUSH1 0xA0 SHL SUB DUP5 AND SWAP4 SWAP1 PUSH1 0x20 DUP2 PUSH1 0x44 DUP2 DUP9 GAS STATICCALL DUP1 ISZERO PUSH2 0x1498 JUMPI DUP4 SWAP2 PUSH1 0x0 SWAP2 PUSH2 0x14F5 JUMPI JUMPDEST POP LT PUSH2 0x14A4 JUMPI PUSH1 0x4 DUP1 SLOAD PUSH1 0x40 MLOAD PUSH4 0x6EB1769F PUSH1 0xE1 SHL DUP2 MSTORE CALLER SWAP3 DUP2 ADD SWAP3 SWAP1 SWAP3 MSTORE ADDRESS PUSH1 0x24 DUP4 ADD MSTORE PUSH1 0x20 SWAP1 DUP3 SWAP1 PUSH1 0x44 SWAP1 DUP3 SWAP1 PUSH1 0x1 PUSH1 0x1 PUSH1 0xA0 SHL SUB AND GAS STATICCALL DUP1 ISZERO PUSH2 0x1498 JUMPI DUP5 SWAP2 PUSH1 0x0 SWAP2 PUSH2 0x1463 JUMPI JUMPDEST POP LT PUSH2 0x141E JUMPI DUP4 PUSH1 0x0 MSTORE PUSH1 0x1 PUSH1 0x20 MSTORE PUSH1 0x40 PUSH1 0x0 KECCAK256 PUSH2 0x12EF DUP4 DUP3 SLOAD PUSH2 0x1F32 JUMP JUMPDEST SWAP1 SSTORE DUP4 PUSH1 0x0 MSTORE PUSH1 0x2 PUSH1 0x20 MSTORE PUSH1 0x40 PUSH1 0x0 KECCAK256 PUSH2 0x130A DUP5 DUP3 SLOAD PUSH2 0x1F32 JUMP JUMPDEST SWAP1 SSTORE DUP4 PUSH1 0x0 MSTORE PUSH1 0x9 PUSH1 0x20 MSTORE PUSH1 0xFF PUSH1 0x40 PUSH1 0x0 KECCAK256 SLOAD AND ISZERO PUSH2 0x136C JUMPI JUMPDEST POP DUP1 PUSH32 0xAC1D76749E5447B7B16F5AB61447E1BD502F3BB4807AF3B28E620D1700A6EE45 SWAP3 PUSH2 0x1356 PUSH1 0x40 SWAP4 ADDRESS CALLER DUP9 PUSH2 0x261F JUMP JUMPDEST PUSH2 0x8AB DUP2 ADDRESS CALLER PUSH1 0x1 DUP1 PUSH1 0xA0 SHL SUB PUSH1 0x4 SLOAD AND PUSH2 0x261F JUMP JUMPDEST SWAP1 PUSH1 0x8 SLOAD SWAP3 PUSH1 0x1 PUSH1 0x40 SHL DUP5 LT ISZERO PUSH2 0xFE1 JUMPI PUSH2 0x13D8 PUSH1 0x40 SWAP4 PUSH2 0x13B4 DUP7 PUSH1 0x1 PUSH32 0xAC1D76749E5447B7B16F5AB61447E1BD502F3BB4807AF3B28E620D1700A6EE45 SWAP9 ADD PUSH1 0x8 SSTORE PUSH2 0x1D63 JUMP JUMPDEST DUP2 SLOAD PUSH1 0x1 PUSH1 0x1 PUSH1 0xA0 SHL SUB SWAP4 DUP5 AND PUSH1 0x3 SWAP3 SWAP1 SWAP3 SHL SWAP2 DUP3 SHL SWAP4 SWAP1 SWAP2 SHL NOT AND SWAP2 SWAP1 SWAP2 OR SWAP1 SSTORE JUMP JUMPDEST DUP5 PUSH1 0x0 MSTORE PUSH1 0x9 PUSH1 0x20 MSTORE DUP3 PUSH1 0x0 KECCAK256 PUSH1 0x1 PUSH1 0xFF NOT DUP3 SLOAD AND OR SWAP1 SSTORE DUP5 PUSH32 0x402F8A396B78C225022A54972367FD98A174C970FBF537400BB383A0690EBD78 PUSH1 0x0 DUP1 LOG2 SWAP3 POP SWAP1 PUSH2 0x1324 JUMP JUMPDEST PUSH1 0x40 MLOAD PUSH3 0x461BCD PUSH1 0xE5 SHL DUP2 MSTORE PUSH1 0x20 PUSH1 0x4 DUP3 ADD MSTORE PUSH1 0x1E PUSH1 0x24 DUP3 ADD MSTORE PUSH32 0x496E73756666696369656E74205320746F6B656E20616C6C6F77616E63650000 PUSH1 0x44 DUP3 ADD MSTORE PUSH1 0x64 SWAP1 REVERT JUMPDEST SWAP2 POP POP PUSH1 0x20 DUP2 RETURNDATASIZE PUSH1 0x20 GT PUSH2 0x1490 JUMPI JUMPDEST DUP2 PUSH2 0x147F PUSH1 0x20 SWAP4 DUP4 PUSH2 0x1F7E JUMP JUMPDEST DUP2 ADD SUB SLT PUSH2 0x52F JUMPI DUP4 SWAP1 MLOAD DUP7 PUSH2 0x12D0 JUMP JUMPDEST RETURNDATASIZE SWAP2 POP PUSH2 0x1472 JUMP JUMPDEST PUSH1 0x40 MLOAD RETURNDATASIZE PUSH1 0x0 DUP3 RETURNDATACOPY RETURNDATASIZE SWAP1 REVERT JUMPDEST PUSH1 0x40 MLOAD PUSH3 0x461BCD PUSH1 0xE5 SHL DUP2 MSTORE PUSH1 0x20 PUSH1 0x4 DUP3 ADD MSTORE PUSH1 0x24 DUP1 DUP3 ADD MSTORE PUSH32 0x496E73756666696369656E742063726561746F7220746F6B656E20616C6C6F77 PUSH1 0x44 DUP3 ADD MSTORE PUSH4 0x616E6365 PUSH1 0xE0 SHL PUSH1 0x64 DUP3 ADD MSTORE PUSH1 0x84 SWAP1 REVERT JUMPDEST SWAP2 POP POP PUSH1 0x20 DUP2 RETURNDATASIZE PUSH1 0x20 GT PUSH2 0x1522 JUMPI JUMPDEST DUP2 PUSH2 0x1511 PUSH1 0x20 SWAP4 DUP4 PUSH2 0x1F7E JUMP JUMPDEST DUP2 ADD SUB SLT PUSH2 0x52F JUMPI DUP3 SWAP1 MLOAD DUP7 PUSH2 0x1286 JUMP JUMPDEST RETURNDATASIZE SWAP2 POP PUSH2 0x1504 JUMP JUMPDEST PUSH1 0x40 MLOAD PUSH3 0x461BCD PUSH1 0xE5 SHL DUP2 MSTORE PUSH1 0x20 PUSH1 0x4 DUP3 ADD MSTORE PUSH1 0x19 PUSH1 0x24 DUP3 ADD MSTORE PUSH32 0x496E76616C6964206C697175696469747920616D6F756E747300000000000000 PUSH1 0x44 DUP3 ADD MSTORE PUSH1 0x64 SWAP1 REVERT JUMPDEST POP DUP2 ISZERO ISZERO PUSH2 0x1243 JUMP JUMPDEST CALLVALUE PUSH2 0x52F JUMPI PUSH1 0x40 CALLDATASIZE PUSH1 0x3 NOT ADD SLT PUSH2 0x52F JUMPI PUSH2 0x1591 PUSH2 0x1D0B JUMP JUMPDEST PUSH1 0x24 CALLDATALOAD SWAP1 PUSH2 0x159D PUSH2 0x2509 JUMP JUMPDEST PUSH1 0x1 DUP1 PUSH1 0xA0 SHL SUB AND SWAP1 DUP2 PUSH1 0x0 MSTORE PUSH1 0x7 PUSH1 0x20 MSTORE PUSH1 0x40 PUSH1 0x0 KECCAK256 SWAP1 PUSH2 0x15C5 PUSH1 0xFF PUSH1 0x3 DUP5 ADD SLOAD AND PUSH2 0x1F3F JUMP JUMPDEST PUSH1 0x4 DUP3 ADD SWAP1 DUP2 SLOAD SWAP3 PUSH1 0x6 DUP5 LT ISZERO PUSH2 0x1844 JUMPI PUSH1 0x1 PUSH1 0x40 SHL DUP5 LT ISZERO PUSH2 0xFE1 JUMPI PUSH1 0x40 DUP3 DUP7 SWAP4 PUSH1 0x1 PUSH32 0x469B6894B4B45F49C7C10AA3E70E1FAE20F0EBA89B628E3D69AF9D7A34EF8BCF SWAP5 PUSH2 0x161C DUP10 DUP4 PUSH1 0x6 SWAP12 ADD DUP11 SSTORE DUP10 PUSH2 0x1D94 JUMP JUMPDEST DUP2 SLOAD SWAP1 PUSH1 0x3 SHL SWAP1 DUP6 DUP3 SHL SWAP2 PUSH1 0x0 NOT SWAP1 SHL NOT AND OR SWAP1 SSTORE ADD SSTORE DUP2 MLOAD SWAP1 DUP2 MSTORE TIMESTAMP PUSH1 0x20 DUP3 ADD MSTORE LOG2 SLOAD EQ PUSH2 0x1647 JUMPI STOP JUMPDEST PUSH2 0x164F PUSH2 0x2509 JUMP JUMPDEST DUP1 PUSH1 0x0 MSTORE PUSH1 0x7 PUSH1 0x20 MSTORE PUSH1 0x40 PUSH1 0x0 KECCAK256 PUSH1 0x3 DUP2 ADD SWAP1 PUSH2 0x166F PUSH1 0xFF DUP4 SLOAD AND PUSH2 0x1F3F JUMP JUMPDEST PUSH1 0x2 DUP2 ADD SLOAD PUSH3 0x15180 DUP2 ADD DUP1 SWAP2 GT PUSH2 0x3D9 JUMPI TIMESTAMP LT PUSH2 0x4EA JUMPI PUSH1 0x0 DUP4 DUP2 MSTORE PUSH1 0x7 PUSH1 0x20 MSTORE PUSH1 0x40 DUP2 KECCAK256 PUSH1 0x4 ADD DUP1 SLOAD DUP3 SWAP2 SWAP1 DUP3 JUMPDEST DUP2 DUP2 LT PUSH2 0x17A0 JUMPI POP POP DUP2 ISZERO SWAP1 POP PUSH2 0x1797 JUMPI PUSH2 0x16B9 SWAP2 PUSH2 0x1E05 JUMP JUMPDEST DUP1 PUSH8 0xDE0B6B3A7640000 MUL SWAP1 PUSH8 0xDE0B6B3A7640000 DUP3 DIV SUB PUSH2 0x3D9 JUMPI PUSH2 0x2710 SWAP1 DIV PUSH8 0xDE0B6B3A7640000 ADD SWAP1 DUP2 PUSH8 0xDE0B6B3A7640000 GT PUSH2 0x3D9 JUMPI PUSH32 0x928602A1348C2D5CC6354F7E6953A38BFAF42426CD5D8C83DC7C42B972CFCDB0 SWAP3 PUSH2 0x358 PUSH1 0x1 SWAP3 DUP5 DUP8 PUSH1 0x40 SWAP7 SWAP2 PUSH8 0x29A2241AF62C0000 DUP2 GT PUSH2 0x174D JUMPI POP POP PUSH8 0x16345785D8A0000 DUP2 GT ISZERO PUSH2 0x37D JUMPI SWAP4 DUP5 SWAP2 ADD SLOAD PUSH2 0x1DD6 JUMP JUMPDEST PUSH32 0xFBB0338B3040D7B9BD8495DE3D07128625B3EAD1C3464340ED2E760A015D7447 SWAP2 SWAP3 POP DUP8 SWAP1 DUP2 MLOAD SWAP1 DUP2 MSTORE PUSH8 0x29A2241AF62C0000 PUSH1 0x20 DUP3 ADD MSTORE LOG2 PUSH8 0x29A2241AF62C0000 DUP8 DUP10 PUSH2 0x33B JUMP JUMPDEST POP POP PUSH1 0x0 PUSH2 0x16B9 JUMP JUMPDEST DUP1 PUSH2 0x17AE JUMPI JUMPDEST PUSH1 0x1 ADD PUSH2 0x169F JUMP JUMPDEST PUSH2 0x17B8 DUP2 DUP5 PUSH2 0x1D94 JUMP JUMPDEST SWAP1 SLOAD PUSH1 0x0 NOT DUP4 ADD SWAP2 PUSH1 0x3 SHL SHR DUP3 DUP3 GT PUSH2 0x3D9 JUMPI PUSH2 0x17D5 DUP3 DUP7 PUSH2 0x1D94 JUMP JUMPDEST SWAP1 SLOAD SWAP1 PUSH1 0x3 SHL SHR LT PUSH2 0x17E8 JUMPI JUMPDEST POP PUSH2 0x17A6 JUMP JUMPDEST PUSH2 0x17F6 DUP3 DUP6 SWAP8 SWAP4 SWAP7 SWAP8 PUSH2 0x1D94 JUMP JUMPDEST SWAP1 SLOAD SWAP1 PUSH1 0x3 SHL SHR SWAP1 PUSH2 0x180E PUSH1 0x0 SWAP3 PUSH2 0x466 DUP4 DUP9 PUSH2 0x1D94 JUMP JUMPDEST SWAP2 PUSH2 0x2710 DUP4 MUL SWAP3 DUP1 DUP5 DIV PUSH2 0x2710 EQ SWAP1 ISZERO OR ISZERO PUSH2 0x4D6 JUMPI SWAP3 PUSH2 0x4AF PUSH2 0x183D SWAP4 PUSH2 0x4A2 PUSH2 0x4C3 SWAP5 PUSH1 0x1 SWAP8 POP DUP10 PUSH2 0x1D94 JUMP JUMPDEST SWAP4 SWAP1 PUSH2 0x17E2 JUMP JUMPDEST PUSH1 0x40 MLOAD PUSH3 0x461BCD PUSH1 0xE5 SHL DUP2 MSTORE PUSH1 0x20 PUSH1 0x4 DUP3 ADD MSTORE PUSH1 0x15 PUSH1 0x24 DUP3 ADD MSTORE PUSH21 0x13585E081CDB985C1CDA1BDD1CC81C995858DA1959 PUSH1 0x5A SHL PUSH1 0x44 DUP3 ADD MSTORE PUSH1 0x64 SWAP1 REVERT JUMPDEST CALLVALUE PUSH2 0x52F JUMPI PUSH1 0x0 CALLDATASIZE PUSH1 0x3 NOT ADD SLT PUSH2 0x52F JUMPI PUSH1 0x4 SLOAD PUSH1 0x40 MLOAD PUSH1 0x1 PUSH1 0x1 PUSH1 0xA0 SHL SUB SWAP1 SWAP2 AND DUP2 MSTORE PUSH1 0x20 SWAP1 RETURN JUMPDEST CALLVALUE PUSH2 0x52F JUMPI PUSH1 0x0 CALLDATASIZE PUSH1 0x3 NOT ADD SLT PUSH2 0x52F JUMPI PUSH1 0x20 PUSH1 0x40 MLOAD PUSH3 0x93A80 DUP2 MSTORE RETURN JUMPDEST CALLVALUE PUSH2 0x52F JUMPI PUSH1 0x20 CALLDATASIZE PUSH1 0x3 NOT ADD SLT PUSH2 0x52F JUMPI PUSH2 0x18E1 PUSH2 0x1D0B JUMP JUMPDEST PUSH1 0x5 SLOAD PUSH3 0x15180 DUP2 ADD DUP1 SWAP2 GT PUSH2 0x3D9 JUMPI TIMESTAMP LT PUSH2 0x191F JUMPI PUSH1 0x1 PUSH1 0x1 PUSH1 0xA0 SHL SUB DUP2 AND PUSH1 0x0 SWAP1 DUP2 MSTORE PUSH1 0x6 PUSH1 0x20 MSTORE PUSH1 0x40 SWAP1 KECCAK256 SLOAD PUSH2 0x1919 SWAP2 PUSH2 0x2532 JUMP JUMPDEST TIMESTAMP PUSH1 0x5 SSTORE STOP JUMPDEST PUSH1 0x40 MLOAD PUSH3 0x461BCD PUSH1 0xE5 SHL DUP2 MSTORE PUSH1 0x20 PUSH1 0x4 DUP3 ADD MSTORE PUSH1 0x17 PUSH1 0x24 DUP3 ADD MSTORE PUSH32 0x546F6F206561726C7920666F7220726562616C616E6365000000000000000000 PUSH1 0x44 DUP3 ADD MSTORE PUSH1 0x64 SWAP1 REVERT JUMPDEST CALLVALUE PUSH2 0x52F JUMPI PUSH1 0x20 CALLDATASIZE PUSH1 0x3 NOT ADD SLT PUSH2 0x52F JUMPI PUSH1 0x40 PUSH1 0x1 PUSH1 0x1 PUSH1 0xA0 SHL SUB PUSH2 0x1987 PUSH2 0x1D0B JUMP JUMPDEST AND DUP1 PUSH1 0x0 MSTORE PUSH1 0x1 PUSH1 0x20 MSTORE DUP2 PUSH1 0x0 KECCAK256 SLOAD SWAP1 PUSH1 0x0 MSTORE PUSH1 0x2 PUSH1 0x20 MSTORE DUP2 PUSH1 0x0 KECCAK256 SLOAD DUP3 MLOAD SWAP2 DUP3 MSTORE PUSH1 0x20 DUP3 ADD MSTORE RETURN JUMPDEST CALLVALUE PUSH2 0x52F JUMPI PUSH1 0x40 CALLDATASIZE PUSH1 0x3 NOT ADD SLT PUSH2 0x52F JUMPI PUSH2 0xA2C PUSH2 0x19CC PUSH2 0x1D0B JUMP JUMPDEST PUSH2 0x19D4 PUSH2 0x2509 JUMP JUMPDEST PUSH1 0x24 CALLDATALOAD SWAP1 PUSH2 0x1E25 JUMP JUMPDEST CALLVALUE PUSH2 0x52F JUMPI PUSH1 0x0 CALLDATASIZE PUSH1 0x3 NOT ADD SLT PUSH2 0x52F JUMPI PUSH1 0x20 PUSH1 0x40 MLOAD PUSH1 0x6 DUP2 MSTORE RETURN JUMPDEST CALLVALUE PUSH2 0x52F JUMPI PUSH1 0x0 CALLDATASIZE PUSH1 0x3 NOT ADD SLT PUSH2 0x52F JUMPI PUSH1 0x20 PUSH1 0x40 MLOAD PUSH2 0x3E8 DUP2 MSTORE RETURN JUMPDEST CALLVALUE PUSH2 0x52F JUMPI PUSH1 0x0 CALLDATASIZE PUSH1 0x3 NOT ADD SLT PUSH2 0x52F JUMPI PUSH1 0x20 PUSH1 0x40 MLOAD PUSH32 0x3D962DF346299889E3DDD098BDD68CF335A1E370339BD306448317D39B39A66D DUP2 MSTORE RETURN JUMPDEST CALLVALUE PUSH2 0x52F JUMPI PUSH1 0x20 CALLDATASIZE PUSH1 0x3 NOT ADD SLT PUSH2 0x52F JUMPI PUSH1 0x4 CALLDATALOAD PUSH1 0x8 SLOAD DUP2 LT ISZERO PUSH2 0x52F JUMPI PUSH2 0x1A7A PUSH1 0x20 SWAP2 PUSH2 0x1D63 JUMP JUMPDEST SWAP1 SLOAD PUSH1 0x40 MLOAD PUSH1 0x3 SWAP3 SWAP1 SWAP3 SHL SHR PUSH1 0x1 PUSH1 0x1 PUSH1 0xA0 SHL SUB AND DUP2 MSTORE RETURN JUMPDEST CALLVALUE PUSH2 0x52F JUMPI PUSH1 0x20 CALLDATASIZE PUSH1 0x3 NOT ADD SLT PUSH2 0x52F JUMPI PUSH2 0x1AAC PUSH2 0x1D0B JUMP JUMPDEST PUSH2 0x1AB4 PUSH2 0x2509 JUMP JUMPDEST PUSH1 0x1 PUSH1 0x1 PUSH1 0xA0 SHL SUB AND PUSH1 0x0 DUP2 DUP2 MSTORE PUSH1 0x9 PUSH1 0x20 MSTORE PUSH1 0x40 SWAP1 KECCAK256 SLOAD PUSH1 0xFF AND ISZERO PUSH2 0x1BD9 JUMPI PUSH1 0x0 JUMPDEST PUSH1 0x8 SLOAD SWAP1 DUP2 DUP2 LT ISZERO PUSH2 0x1BD2 JUMPI DUP3 PUSH2 0x1AED DUP3 PUSH2 0x1D63 JUMP JUMPDEST SWAP1 SLOAD PUSH1 0x3 SWAP2 SWAP1 SWAP2 SHL SHR PUSH1 0x1 PUSH1 0x1 PUSH1 0xA0 SHL SUB AND EQ PUSH2 0x1B0E JUMPI PUSH1 0x1 SWAP2 POP ADD PUSH2 0x1AD7 JUMP JUMPDEST PUSH1 0x0 NOT DUP3 ADD SWAP2 DUP3 GT PUSH2 0x3D9 JUMPI DUP2 DUP2 SUB PUSH2 0x1BA4 JUMPI JUMPDEST POP POP PUSH1 0x8 SLOAD DUP1 ISZERO PUSH2 0x1B8E JUMPI PUSH1 0x0 NOT ADD PUSH2 0x1B3A DUP2 PUSH2 0x1D63 JUMP JUMPDEST DUP2 SLOAD SWAP1 PUSH1 0x1 DUP1 PUSH1 0xA0 SHL SUB SWAP1 PUSH1 0x3 SHL SHL NOT AND SWAP1 SSTORE PUSH1 0x8 SSTORE JUMPDEST DUP1 PUSH1 0x0 MSTORE PUSH1 0x9 PUSH1 0x20 MSTORE PUSH1 0x40 PUSH1 0x0 KECCAK256 PUSH1 0xFF NOT DUP2 SLOAD AND SWAP1 SSTORE PUSH32 0xFE00C1E8CD2C81E2FC9FBCFBD6EEF9904D0B41515821320D5C45ABE6E8BAAE55 PUSH1 0x0 DUP1 LOG2 STOP JUMPDEST PUSH4 0x4E487B71 PUSH1 0xE0 SHL PUSH1 0x0 MSTORE PUSH1 0x31 PUSH1 0x4 MSTORE PUSH1 0x24 PUSH1 0x0 REVERT JUMPDEST PUSH2 0x13B4 PUSH2 0x1BB3 PUSH2 0x1BCB SWAP4 PUSH2 0x1D63 JUMP JUMPDEST SWAP1 SLOAD PUSH1 0x3 SWAP2 SWAP1 SWAP2 SHL SHR PUSH1 0x1 PUSH1 0x1 PUSH1 0xA0 SHL SUB AND SWAP2 PUSH2 0x1D63 JUMP JUMPDEST DUP2 DUP1 PUSH2 0x1B22 JUMP JUMPDEST POP POP PUSH2 0x1B51 JUMP JUMPDEST PUSH1 0x40 MLOAD PUSH3 0x461BCD PUSH1 0xE5 SHL DUP2 MSTORE PUSH1 0x20 PUSH1 0x4 DUP3 ADD MSTORE PUSH1 0x10 PUSH1 0x24 DUP3 ADD MSTORE PUSH16 0x141BDBDB081B9BDD081D1C9858DAD959 PUSH1 0x82 SHL PUSH1 0x44 DUP3 ADD MSTORE PUSH1 0x64 SWAP1 REVERT JUMPDEST CALLVALUE PUSH2 0x52F JUMPI PUSH1 0x20 CALLDATASIZE PUSH1 0x3 NOT ADD SLT PUSH2 0x52F JUMPI PUSH1 0x1 PUSH1 0x1 PUSH1 0xA0 SHL SUB PUSH2 0x1C32 PUSH2 0x1D0B JUMP JUMPDEST AND PUSH1 0x0 MSTORE PUSH1 0x3 PUSH1 0x20 MSTORE PUSH1 0x20 PUSH1 0x40 PUSH1 0x0 KECCAK256 SLOAD PUSH1 0x40 MLOAD SWAP1 DUP2 MSTORE RETURN JUMPDEST CALLVALUE PUSH2 0x52F JUMPI PUSH1 0x0 CALLDATASIZE PUSH1 0x3 NOT ADD SLT PUSH2 0x52F JUMPI PUSH1 0x20 PUSH1 0x40 MLOAD PUSH9 0x56BC75E2D63100000 DUP2 MSTORE RETURN JUMPDEST CALLVALUE PUSH2 0x52F JUMPI PUSH1 0x0 CALLDATASIZE PUSH1 0x3 NOT ADD SLT PUSH2 0x52F JUMPI PUSH1 0x20 PUSH1 0x40 MLOAD PUSH8 0x16345785D8A0000 DUP2 MSTORE RETURN JUMPDEST CALLVALUE PUSH2 0x52F JUMPI PUSH1 0x40 CALLDATASIZE PUSH1 0x3 NOT ADD SLT PUSH2 0x52F JUMPI PUSH1 0x20 PUSH2 0x11FA PUSH1 0x24 CALLDATALOAD PUSH1 0x4 CALLDATALOAD PUSH2 0x1DD6 JUMP JUMPDEST CALLVALUE PUSH2 0x52F JUMPI PUSH1 0x20 CALLDATASIZE PUSH1 0x3 NOT ADD SLT PUSH2 0x52F JUMPI PUSH1 0x1 PUSH1 0x1 PUSH1 0xA0 SHL SUB PUSH2 0x1CD4 PUSH2 0x1D0B JUMP JUMPDEST AND PUSH1 0x0 MSTORE PUSH1 0xA PUSH1 0x20 MSTORE DUP1 PUSH2 0x9B1 PUSH1 0x40 PUSH1 0x0 KECCAK256 DUP1 SLOAD SWAP1 PUSH1 0x2 PUSH1 0x1 DUP3 ADD SLOAD SWAP2 ADD SLOAD SWAP2 DUP5 PUSH1 0x40 SWAP2 SWAP5 SWAP4 SWAP3 PUSH1 0x60 DUP3 ADD SWAP6 DUP3 MSTORE PUSH1 0x20 DUP3 ADD MSTORE ADD MSTORE JUMP JUMPDEST PUSH1 0x4 CALLDATALOAD SWAP1 PUSH1 0x1 PUSH1 0x1 PUSH1 0xA0 SHL SUB DUP3 AND DUP3 SUB PUSH2 0x52F JUMPI JUMP JUMPDEST CALLVALUE PUSH2 0x52F JUMPI PUSH1 0x0 CALLDATASIZE PUSH1 0x3 NOT ADD SLT PUSH2 0x52F JUMPI PUSH1 0x20 PUSH1 0x40 MLOAD PUSH3 0x15180 DUP2 MSTORE RETURN JUMPDEST CALLVALUE PUSH2 0x52F JUMPI PUSH1 0x0 CALLDATASIZE PUSH1 0x3 NOT ADD SLT PUSH2 0x52F JUMPI PUSH1 0x20 PUSH1 0x40 MLOAD PUSH9 0x3635C9ADC5DEA00000 DUP2 MSTORE RETURN JUMPDEST PUSH1 0x8 SLOAD DUP2 LT ISZERO PUSH2 0x1D7E JUMPI PUSH1 0x8 PUSH1 0x0 MSTORE PUSH1 0x20 PUSH1 0x0 KECCAK256 ADD SWAP1 PUSH1 0x0 SWAP1 JUMP JUMPDEST PUSH4 0x4E487B71 PUSH1 0xE0 SHL PUSH1 0x0 MSTORE PUSH1 0x32 PUSH1 0x4 MSTORE PUSH1 0x24 PUSH1 0x0 REVERT JUMPDEST DUP1 SLOAD DUP3 LT ISZERO PUSH2 0x1D7E JUMPI PUSH1 0x0 MSTORE PUSH1 0x20 PUSH1 0x0 KECCAK256 ADD SWAP1 PUSH1 0x0 SWAP1 JUMP JUMPDEST PUSH1 0x60 SWAP1 PUSH1 0x3 NOT ADD SLT PUSH2 0x52F JUMPI PUSH1 0x4 CALLDATALOAD PUSH1 0x1 PUSH1 0x1 PUSH1 0xA0 SHL SUB DUP2 AND DUP2 SUB PUSH2 0x52F JUMPI SWAP1 PUSH1 0x24 CALLDATALOAD SWAP1 PUSH1 0x44 CALLDATALOAD SWAP1 JUMP JUMPDEST DUP2 DUP2 MUL SWAP3 SWAP2 DUP2 ISZERO SWAP2 DUP5 DIV EQ OR ISZERO PUSH2 0x3D9 JUMPI JUMP JUMPDEST SWAP2 SWAP1 DUP3 SUB SWAP2 DUP3 GT PUSH2 0x3D9 JUMPI JUMP JUMPDEST PUSH1 0x0 NOT DUP2 EQ PUSH2 0x3D9 JUMPI PUSH1 0x1 ADD SWAP1 JUMP JUMPDEST DUP2 ISZERO PUSH2 0x1E0F JUMPI DIV SWAP1 JUMP JUMPDEST PUSH4 0x4E487B71 PUSH1 0xE0 SHL PUSH1 0x0 MSTORE PUSH1 0x12 PUSH1 0x4 MSTORE PUSH1 0x24 PUSH1 0x0 REVERT JUMPDEST PUSH1 0x1 PUSH1 0x1 PUSH1 0xA0 SHL SUB DUP2 AND PUSH1 0x0 DUP2 DUP2 MSTORE PUSH1 0x6 PUSH1 0x20 MSTORE PUSH1 0x40 SWAP1 KECCAK256 DUP1 SLOAD SWAP3 SWAP4 SWAP2 SWAP3 ISZERO PUSH2 0x1F1E JUMPI PUSH1 0x1 DUP2 ADD SWAP3 DUP4 SLOAD PUSH1 0x50 DUP2 MUL SWAP1 DUP1 DUP3 DIV PUSH1 0x50 EQ SWAP1 ISZERO OR ISZERO PUSH2 0x3D9 JUMPI PUSH1 0x14 DUP5 MUL SWAP3 DUP5 DUP5 DIV PUSH1 0x14 EQ DUP6 ISZERO OR ISZERO PUSH2 0x3D9 JUMPI PUSH2 0x1E89 PUSH1 0x3 SWAP5 SWAP3 PUSH1 0x64 DUP1 DUP8 SWAP6 DIV SWAP2 DIV PUSH2 0x1F32 JUMP JUMPDEST DUP1 SWAP7 DUP7 DUP4 SSTORE SSTORE TIMESTAMP PUSH1 0x2 DUP3 ADD SSTORE ADD SWAP1 PUSH2 0x1EA1 DUP3 SLOAD PUSH2 0x1DF6 JUMP JUMPDEST DUP1 SWAP3 SSTORE PUSH32 0xCA21C0666034043E35144E1A6964B4519A124330E0122463475F81A0C189D119 PUSH1 0x40 MLOAD DUP1 PUSH2 0x1EE6 TIMESTAMP DUP10 DUP10 DUP5 PUSH1 0x40 SWAP2 SWAP5 SWAP4 SWAP3 PUSH1 0x60 DUP3 ADD SWAP6 DUP3 MSTORE PUSH1 0x20 DUP3 ADD MSTORE ADD MSTORE JUMP JUMPDEST SUB SWAP1 LOG2 LT ISZERO PUSH2 0x1EF4 JUMPI POP POP POP JUMP JUMPDEST PUSH1 0x6E DUP3 MUL DUP3 DUP2 DIV PUSH1 0x6E EQ DUP4 ISZERO OR ISZERO PUSH2 0x3D9 JUMPI PUSH1 0x64 SWAP1 DIV LT PUSH2 0x1F13 JUMPI POP POP JUMP JUMPDEST PUSH2 0x1F1C SWAP2 PUSH2 0x2532 JUMP JUMPDEST JUMP JUMPDEST SWAP1 PUSH1 0x1 SWAP4 POP PUSH1 0x3 SWAP3 POP DUP1 DUP3 SSTORE DUP4 DUP3 ADD SSTORE ADD SSTORE JUMP JUMPDEST SWAP2 SWAP1 DUP3 ADD DUP1 SWAP3 GT PUSH2 0x3D9 JUMPI JUMP JUMPDEST ISZERO PUSH2 0x1F46 JUMPI JUMP JUMPDEST PUSH1 0x40 MLOAD PUSH3 0x461BCD PUSH1 0xE5 SHL DUP2 MSTORE PUSH1 0x20 PUSH1 0x4 DUP3 ADD MSTORE PUSH1 0x10 PUSH1 0x24 DUP3 ADD MSTORE PUSH16 0x4E6F7420696E20646973636F76657279 PUSH1 0x80 SHL PUSH1 0x44 DUP3 ADD MSTORE PUSH1 0x64 SWAP1 REVERT JUMPDEST SWAP1 PUSH1 0x1F DUP1 NOT SWAP2 ADD AND DUP2 ADD SWAP1 DUP2 LT PUSH8 0xFFFFFFFFFFFFFFFF DUP3 GT OR PUSH2 0xFE1 JUMPI PUSH1 0x40 MSTORE JUMP JUMPDEST PUSH1 0x1 PUSH1 0x1 PUSH1 0xA0 SHL SUB AND PUSH1 0x0 SWAP1 DUP2 MSTORE PUSH1 0x6 PUSH1 0x20 SWAP1 DUP2 MSTORE PUSH1 0x40 DUP1 DUP4 KECCAK256 PUSH1 0x2 SWAP1 SWAP3 MSTORE SWAP1 SWAP2 KECCAK256 SLOAD SWAP1 SLOAD PUSH2 0x1FCE SWAP1 PUSH2 0x2668 JUMP JUMPDEST SWAP1 DUP2 DUP2 LT ISZERO PUSH2 0x1FF2 JUMPI PUSH2 0x1FE0 SWAP2 PUSH2 0x1DE9 JUMP JUMPDEST SWAP1 DUP1 DUP3 LT ISZERO PUSH2 0x1FED JUMPI POP SWAP1 JUMP JUMPDEST SWAP1 POP SWAP1 JUMP JUMPDEST POP POP POP PUSH1 0x0 SWAP1 JUMP JUMPDEST PUSH1 0x1 DUP1 PUSH1 0xA0 SHL SUB AND PUSH1 0x0 MSTORE PUSH1 0xA PUSH1 0x20 MSTORE PUSH1 0x40 PUSH1 0x0 KECCAK256 PUSH1 0x1 DUP2 SLOAD SWAP2 ADD SLOAD SWAP1 PUSH3 0x93A7F NOT TIMESTAMP ADD SWAP1 TIMESTAMP DUP3 GT PUSH2 0x3D9 JUMPI LT PUSH2 0x2044 JUMPI PUSH9 0x3635C9ADC5DEA00000 GT PUSH2 0x203F JUMPI PUSH1 0x1 SWAP1 JUMP JUMPDEST PUSH1 0x0 SWAP1 JUMP JUMPDEST POP PUSH1 0x0 SWAP1 JUMP JUMPDEST ISZERO PUSH2 0x2052 JUMPI POP JUMP JUMPDEST PUSH1 0x40 MLOAD SWAP1 PUSH3 0x461BCD PUSH1 0xE5 SHL DUP3 MSTORE PUSH1 0x20 PUSH1 0x4 DUP4 ADD MSTORE DUP2 DUP2 MLOAD SWAP2 DUP3 PUSH1 0x24 DUP4 ADD MSTORE PUSH1 0x0 JUMPDEST DUP4 DUP2 LT PUSH2 0x2095 JUMPI POP POP DUP2 PUSH1 0x0 PUSH1 0x44 DUP1 SWAP5 DUP5 ADD ADD MSTORE PUSH1 0x1F DUP1 NOT SWAP2 ADD AND DUP2 ADD SUB ADD SWAP1 REVERT JUMPDEST PUSH1 0x20 DUP3 DUP3 ADD DUP2 ADD MLOAD PUSH1 0x44 DUP8 DUP5 ADD ADD MSTORE DUP6 SWAP4 POP ADD PUSH2 0x2073 JUMP JUMPDEST PUSH1 0x1 PUSH1 0x1 PUSH1 0xA0 SHL SUB DUP2 AND PUSH1 0x0 DUP2 DUP2 MSTORE PUSH1 0x3 PUSH1 0x20 MSTORE PUSH1 0x40 SWAP1 KECCAK256 SLOAD SWAP1 SWAP2 SWAP1 PUSH9 0x56BC75E2D63100000 DUP2 LT PUSH2 0x246D JUMPI PUSH2 0x20E3 SWAP1 DUP5 PUSH2 0x1FA0 JUMP JUMPDEST SWAP1 DUP2 ISZERO PUSH2 0x2431 JUMPI PUSH1 0x40 MLOAD PUSH4 0x70A08231 PUSH1 0xE0 SHL DUP2 MSTORE ADDRESS PUSH1 0x4 DUP3 ADD MSTORE PUSH1 0x20 DUP2 PUSH1 0x24 DUP2 DUP8 GAS STATICCALL DUP1 ISZERO PUSH2 0x1498 JUMPI DUP4 SWAP2 PUSH1 0x0 SWAP2 PUSH2 0x23FC JUMPI JUMPDEST POP LT PUSH2 0x23A5 JUMPI DUP3 PUSH1 0x0 MSTORE PUSH1 0x3 PUSH1 0x20 MSTORE PUSH1 0x40 PUSH1 0x0 KECCAK256 PUSH2 0x2135 DUP4 DUP3 SLOAD PUSH2 0x1DE9 JUMP JUMPDEST SWAP1 SSTORE PUSH1 0x4 SLOAD PUSH1 0x1 PUSH1 0x1 PUSH1 0xA0 SHL SUB AND DUP4 DUP2 EQ PUSH2 0x2296 JUMPI POP DUP2 PUSH2 0x2155 SWAP2 PUSH2 0x28F8 JUMP JUMPDEST SWAP3 PUSH1 0x24 PUSH1 0x20 PUSH1 0x1 DUP1 PUSH1 0xA0 SHL SUB PUSH1 0x4 SLOAD AND PUSH1 0x40 MLOAD SWAP3 DUP4 DUP1 SWAP3 PUSH4 0x70A08231 PUSH1 0xE0 SHL DUP3 MSTORE ADDRESS PUSH1 0x4 DUP4 ADD MSTORE GAS STATICCALL DUP1 ISZERO PUSH2 0x1498 JUMPI DUP6 SWAP2 PUSH1 0x0 SWAP2 PUSH2 0x2261 JUMPI JUMPDEST POP LT PUSH2 0x21FF JUMPI PUSH32 0xA2E59056A8017237DD27A52D5981FB4983F1A43828D018D9BA6E76C801FE9059 SWAP2 PUSH1 0x20 SWAP2 PUSH1 0x1 DUP1 PUSH1 0xA0 SHL SUB AND SWAP5 DUP6 PUSH1 0x0 MSTORE PUSH1 0x1 DUP4 MSTORE PUSH1 0x40 PUSH1 0x0 KECCAK256 PUSH2 0x21DA DUP4 DUP3 SLOAD PUSH2 0x1F32 JUMP JUMPDEST SWAP1 SSTORE DUP6 PUSH1 0x0 MSTORE PUSH1 0x2 DUP4 MSTORE PUSH2 0x21F4 PUSH1 0x40 PUSH1 0x0 KECCAK256 SWAP2 DUP3 SLOAD PUSH2 0x1F32 JUMP JUMPDEST SWAP1 SSTORE PUSH1 0x40 MLOAD SWAP1 DUP2 MSTORE LOG3 JUMP JUMPDEST PUSH1 0x40 MLOAD PUSH3 0x461BCD PUSH1 0xE5 SHL DUP2 MSTORE PUSH1 0x20 PUSH1 0x4 DUP3 ADD MSTORE PUSH1 0x34 PUSH1 0x24 DUP3 ADD MSTORE PUSH32 0x496E73756666696369656E74205320746F6B656E2062616C616E636520666F72 PUSH1 0x44 DUP3 ADD MSTORE PUSH20 0x81C185A5C9959081C9959195C1B1BDE5B595B9D PUSH1 0x62 SHL PUSH1 0x64 DUP3 ADD MSTORE PUSH1 0x84 SWAP1 REVERT JUMPDEST SWAP2 POP POP PUSH1 0x20 DUP2 RETURNDATASIZE PUSH1 0x20 GT PUSH2 0x228E JUMPI JUMPDEST DUP2 PUSH2 0x227D PUSH1 0x20 SWAP4 DUP4 PUSH2 0x1F7E JUMP JUMPDEST DUP2 ADD SUB SLT PUSH2 0x52F JUMPI DUP5 SWAP1 MLOAD CODESIZE PUSH2 0x218E JUMP JUMPDEST RETURNDATASIZE SWAP2 POP PUSH2 0x2270 JUMP JUMPDEST PUSH1 0x40 MLOAD PUSH4 0x70A08231 PUSH1 0xE0 SHL DUP2 MSTORE ADDRESS PUSH1 0x4 DUP3 ADD MSTORE SWAP3 SWAP5 SWAP3 SWAP2 POP PUSH1 0x20 SWAP1 DUP3 SWAP1 PUSH1 0x24 SWAP1 DUP3 SWAP1 GAS STATICCALL DUP1 ISZERO PUSH2 0x1498 JUMPI DUP5 SWAP2 PUSH1 0x0 SWAP2 PUSH2 0x2370 JUMPI JUMPDEST POP LT PUSH2 0x2315 JUMPI PUSH1 0x20 PUSH32 0xA2E59056A8017237DD27A52D5981FB4983F1A43828D018D9BA6E76C801FE9059 SWAP2 PUSH1 0x1 DUP1 PUSH1 0xA0 SHL SUB AND SWAP4 DUP5 PUSH1 0x0 MSTORE PUSH1 0x2 DUP3 MSTORE PUSH1 0x40 PUSH1 0x0 KECCAK256 PUSH2 0x21F4 DUP3 DUP3 SLOAD PUSH2 0x1F32 JUMP JUMPDEST PUSH1 0x40 MLOAD PUSH3 0x461BCD PUSH1 0xE5 SHL DUP2 MSTORE PUSH1 0x20 PUSH1 0x4 DUP3 ADD MSTORE PUSH1 0x2D PUSH1 0x24 DUP3 ADD MSTORE PUSH32 0x496E73756666696369656E74205320746F6B656E2062616C616E636520666F72 PUSH1 0x44 DUP3 ADD MSTORE PUSH13 0x81C9959195C1B1BDE5B595B9D PUSH1 0x9A SHL PUSH1 0x64 DUP3 ADD MSTORE PUSH1 0x84 SWAP1 REVERT JUMPDEST SWAP2 POP POP PUSH1 0x20 DUP2 RETURNDATASIZE PUSH1 0x20 GT PUSH2 0x239D JUMPI JUMPDEST DUP2 PUSH2 0x238C PUSH1 0x20 SWAP4 DUP4 PUSH2 0x1F7E JUMP JUMPDEST DUP2 ADD SUB SLT PUSH2 0x52F JUMPI DUP4 SWAP1 MLOAD CODESIZE PUSH2 0x22CA JUMP JUMPDEST RETURNDATASIZE SWAP2 POP PUSH2 0x237F JUMP JUMPDEST PUSH1 0x40 MLOAD PUSH3 0x461BCD PUSH1 0xE5 SHL DUP2 MSTORE PUSH1 0x20 PUSH1 0x4 DUP3 ADD MSTORE PUSH1 0x29 PUSH1 0x24 DUP3 ADD MSTORE PUSH32 0x496E73756666696369656E742062616C616E636520696E206C69717569646974 PUSH1 0x44 DUP3 ADD MSTORE PUSH9 0x3C9036B0B730B3B2B9 PUSH1 0xB9 SHL PUSH1 0x64 DUP3 ADD MSTORE PUSH1 0x84 SWAP1 REVERT JUMPDEST SWAP2 POP POP PUSH1 0x20 DUP2 RETURNDATASIZE PUSH1 0x20 GT PUSH2 0x2429 JUMPI JUMPDEST DUP2 PUSH2 0x2418 PUSH1 0x20 SWAP4 DUP4 PUSH2 0x1F7E JUMP JUMPDEST DUP2 ADD SUB SLT PUSH2 0x52F JUMPI DUP3 SWAP1 MLOAD CODESIZE PUSH2 0x2116 JUMP JUMPDEST RETURNDATASIZE SWAP2 POP PUSH2 0x240B JUMP JUMPDEST PUSH1 0x40 MLOAD PUSH3 0x461BCD PUSH1 0xE5 SHL DUP2 MSTORE PUSH1 0x20 PUSH1 0x4 DUP3 ADD MSTORE PUSH1 0x14 PUSH1 0x24 DUP3 ADD MSTORE PUSH20 0x139BC819195C1B1BDE5B595B9D081B9959591959 PUSH1 0x62 SHL PUSH1 0x44 DUP3 ADD MSTORE PUSH1 0x64 SWAP1 REVERT JUMPDEST PUSH1 0x40 MLOAD PUSH3 0x461BCD PUSH1 0xE5 SHL DUP2 MSTORE PUSH1 0x20 PUSH1 0x4 DUP3 ADD MSTORE PUSH1 0x22 PUSH1 0x24 DUP3 ADD MSTORE PUSH32 0x496E73756666696369656E74206665657320666F722072656465706C6F796D65 PUSH1 0x44 DUP3 ADD MSTORE PUSH2 0x1B9D PUSH1 0xF2 SHL PUSH1 0x64 DUP3 ADD MSTORE PUSH1 0x84 SWAP1 REVERT JUMPDEST ISZERO PUSH2 0x24C4 JUMPI JUMP JUMPDEST PUSH1 0x40 MLOAD PUSH3 0x461BCD PUSH1 0xE5 SHL DUP2 MSTORE PUSH1 0x20 PUSH1 0x4 DUP3 ADD MSTORE PUSH1 0x1B PUSH1 0x24 DUP3 ADD MSTORE PUSH32 0x43616E6E6F742072656D6F766520616C6C206C69717569646974790000000000 PUSH1 0x44 DUP3 ADD MSTORE PUSH1 0x64 SWAP1 REVERT JUMPDEST PUSH1 0x0 SLOAD PUSH1 0x1 PUSH1 0x1 PUSH1 0xA0 SHL SUB AND CALLER SUB PUSH2 0x251D JUMPI JUMP JUMPDEST PUSH4 0x118CDAA7 PUSH1 0xE0 SHL PUSH1 0x0 MSTORE CALLER PUSH1 0x4 MSTORE PUSH1 0x24 PUSH1 0x0 REVERT JUMPDEST PUSH1 0x1 DUP1 PUSH1 0xA0 SHL SUB AND SWAP1 DUP2 PUSH1 0x0 MSTORE PUSH1 0x2 PUSH1 0x20 MSTORE PUSH9 0x3635C9ADC5DEA00000 PUSH1 0x40 PUSH1 0x0 KECCAK256 SLOAD LT PUSH2 0x25B6 JUMPI PUSH8 0xDE0B6B3A7640000 DUP2 MUL SWAP1 DUP1 DUP3 DIV PUSH8 0xDE0B6B3A7640000 EQ SWAP1 ISZERO OR ISZERO PUSH2 0x3D9 JUMPI PUSH1 0x20 PUSH32 0x8EB665708D1CBFA2DF196D5F041BC00AC33E9C6E0B42B64233AED0C7C84DA7E1 SWAP2 DUP4 PUSH1 0x0 MSTORE PUSH1 0x2 DUP3 MSTORE DUP1 PUSH1 0x40 PUSH1 0x0 KECCAK256 SSTORE PUSH1 0x40 MLOAD SWAP1 DUP2 MSTORE LOG2 JUMP JUMPDEST POP DUP1 PUSH1 0x0 MSTORE PUSH1 0x2 PUSH1 0x20 MSTORE PUSH32 0x43C29E41362BCEAE5B8F10CF00D57C5B525A270A7FF263F5C6B24158459B0BBE PUSH1 0x80 PUSH1 0x40 PUSH1 0x0 KECCAK256 SLOAD PUSH1 0x40 MLOAD SWAP1 DUP2 MSTORE PUSH1 0x40 PUSH1 0x20 DUP3 ADD MSTORE PUSH1 0x16 PUSH1 0x40 DUP3 ADD MSTORE PUSH22 0x496E73756666696369656E74206C6971756964697479 PUSH1 0x50 SHL PUSH1 0x60 DUP3 ADD MSTORE LOG2 JUMP JUMPDEST PUSH1 0x40 MLOAD PUSH4 0x23B872DD PUSH1 0xE0 SHL PUSH1 0x20 DUP3 ADD MSTORE PUSH1 0x1 PUSH1 0x1 PUSH1 0xA0 SHL SUB SWAP3 DUP4 AND PUSH1 0x24 DUP3 ADD MSTORE SWAP3 SWAP1 SWAP2 AND PUSH1 0x44 DUP4 ADD MSTORE PUSH1 0x64 DUP1 DUP4 ADD SWAP4 SWAP1 SWAP4 MSTORE SWAP2 DUP2 MSTORE PUSH2 0x1F1C SWAP2 PUSH2 0x2663 PUSH1 0x84 DUP4 PUSH2 0x1F7E JUMP JUMPDEST PUSH2 0x293C JUMP JUMPDEST PUSH8 0xDE0B6B3A7640000 DUP2 MUL SWAP1 DUP1 DUP3 DIV PUSH8 0xDE0B6B3A7640000 EQ SWAP1 ISZERO OR ISZERO PUSH2 0x3D9 JUMPI SWAP1 JUMP JUMPDEST PUSH1 0x40 MLOAD PUSH4 0xA9059CBB PUSH1 0xE0 SHL PUSH1 0x20 DUP3 ADD MSTORE PUSH1 0x1 PUSH1 0x1 PUSH1 0xA0 SHL SUB SWAP1 SWAP3 AND PUSH1 0x24 DUP4 ADD MSTORE PUSH1 0x44 DUP1 DUP4 ADD SWAP4 SWAP1 SWAP4 MSTORE SWAP2 DUP2 MSTORE PUSH2 0x1F1C SWAP2 PUSH2 0x2663 PUSH1 0x64 DUP4 PUSH2 0x1F7E JUMP JUMPDEST PUSH1 0x8 SLOAD DUP1 ISZERO PUSH2 0x2044 JUMPI PUSH1 0x0 SWAP1 PUSH1 0x0 SWAP1 PUSH3 0x93A7F NOT TIMESTAMP ADD TIMESTAMP DUP2 GT PUSH2 0x3D9 JUMPI PUSH1 0x0 JUMPDEST DUP3 DUP2 LT PUSH2 0x2746 JUMPI POP POP POP PUSH1 0x1 PUSH1 0x1 PUSH1 0xA0 SHL SUB DUP3 AND SWAP1 DUP2 PUSH2 0x2706 JUMPI POP POP SWAP1 JUMP JUMPDEST PUSH1 0x40 PUSH32 0x23643AF3D04A13BF86E4004EF5B421D9D7C59C383201C408FB8B1645B17D533F SWAP2 DUP4 PUSH1 0x0 MSTORE PUSH1 0x2 PUSH1 0x20 MSTORE DUP2 PUSH1 0x0 KECCAK256 SLOAD DUP3 MLOAD SWAP2 DUP3 MSTORE PUSH1 0x20 DUP3 ADD MSTORE LOG2 SWAP1 JUMP JUMPDEST PUSH2 0x274F DUP2 PUSH2 0x1D63 JUMP JUMPDEST PUSH1 0x1 DUP1 PUSH1 0xA0 SHL SUB SWAP2 SLOAD SWAP1 PUSH1 0x3 SHL SHR AND DUP1 PUSH1 0x0 MSTORE PUSH1 0xA PUSH1 0x20 MSTORE PUSH1 0x40 PUSH1 0x0 KECCAK256 PUSH1 0x40 MLOAD PUSH1 0x60 DUP2 ADD DUP2 DUP2 LT PUSH8 0xFFFFFFFFFFFFFFFF DUP3 GT OR PUSH2 0xFE1 JUMPI PUSH1 0x40 MSTORE DUP2 SLOAD DUP2 MSTORE PUSH1 0x2 PUSH1 0x1 DUP4 ADD SLOAD SWAP3 PUSH1 0x20 DUP4 ADD SWAP4 DUP5 MSTORE ADD SLOAD PUSH1 0x40 DUP3 ADD MSTORE DUP3 PUSH1 0x0 MSTORE PUSH1 0x9 PUSH1 0x20 MSTORE DUP5 PUSH1 0xFF PUSH1 0x40 PUSH1 0x0 KECCAK256 SLOAD AND ISZERO SWAP2 DUP3 ISZERO PUSH2 0x28ED JUMPI JUMPDEST POP POP DUP1 ISZERO PUSH2 0x28DA JUMPI JUMPDEST PUSH2 0x28D0 JUMPI DUP2 PUSH1 0x0 MSTORE PUSH1 0x2 PUSH1 0x20 MSTORE PUSH1 0x40 PUSH1 0x0 KECCAK256 SLOAD DUP3 PUSH1 0x0 MSTORE PUSH1 0x6 PUSH1 0x20 MSTORE PUSH1 0x40 PUSH1 0x0 KECCAK256 PUSH1 0x40 MLOAD SWAP1 PUSH1 0x80 DUP3 ADD SWAP2 DUP1 DUP4 LT PUSH8 0xFFFFFFFFFFFFFFFF DUP5 GT OR PUSH2 0xFE1 JUMPI PUSH2 0x2834 SWAP3 PUSH1 0x40 MSTORE PUSH1 0x60 PUSH1 0x3 DUP4 SLOAD SWAP4 DUP5 DUP5 MSTORE PUSH1 0x1 DUP2 ADD SLOAD PUSH1 0x20 DUP6 ADD MSTORE PUSH1 0x2 DUP2 ADD SLOAD PUSH1 0x40 DUP6 ADD MSTORE ADD SLOAD SWAP2 ADD MSTORE PUSH2 0x2668 JUMP JUMPDEST PUSH1 0x0 SWAP3 DUP3 DUP3 GT ISZERO PUSH2 0x287F JUMPI POP PUSH2 0x284A SWAP3 POP PUSH2 0x1DE9 JUMP JUMPDEST DUP1 PUSH1 0x1 SHL SWAP1 DUP1 DUP3 DIV PUSH1 0x2 EQ SWAP1 ISZERO OR ISZERO PUSH2 0x3D9 JUMPI JUMPDEST DUP6 DUP2 GT PUSH2 0x2872 JUMPI JUMPDEST POP POP PUSH1 0x1 SWAP1 JUMPDEST ADD PUSH2 0x26E7 JUMP JUMPDEST SWAP1 SWAP6 POP SWAP4 POP PUSH1 0x1 CODESIZE PUSH2 0x2866 JUMP JUMPDEST SWAP1 POP PUSH1 0x7 DUP3 MUL SWAP2 DUP1 DUP4 DIV PUSH1 0x7 EQ SWAP1 ISZERO OR ISZERO PUSH2 0x28BC JUMPI MLOAD SWAP2 PUSH1 0x3 DUP4 MUL SWAP3 DUP1 DUP5 DIV PUSH1 0x3 EQ SWAP1 ISZERO OR ISZERO PUSH2 0x4D6 JUMPI POP PUSH1 0xA SWAP2 PUSH2 0x28B6 SWAP2 PUSH2 0x1F32 JUMP JUMPDEST DIV PUSH2 0x285E JUMP JUMPDEST PUSH4 0x4E487B71 PUSH1 0xE0 SHL DUP4 MSTORE PUSH1 0x11 PUSH1 0x4 MSTORE PUSH1 0x24 DUP4 REVERT JUMPDEST POP POP PUSH1 0x1 SWAP1 PUSH2 0x286C JUMP JUMPDEST POP PUSH9 0x3635C9ADC5DEA00000 DUP2 MLOAD LT PUSH2 0x27C8 JUMP JUMPDEST MLOAD LT SWAP1 POP DUP5 CODESIZE PUSH2 0x27BF JUMP JUMPDEST PUSH1 0x1 PUSH1 0x1 PUSH1 0xA0 SHL SUB AND PUSH1 0x0 SWAP1 DUP2 MSTORE PUSH1 0x1 PUSH1 0x20 SWAP1 DUP2 MSTORE PUSH1 0x40 DUP1 DUP4 KECCAK256 SLOAD PUSH1 0x2 SWAP1 SWAP3 MSTORE SWAP1 SWAP2 KECCAK256 SLOAD DUP2 ISZERO PUSH2 0x2937 JUMPI PUSH2 0x292F SWAP1 PUSH2 0x2934 SWAP4 PUSH2 0x1DD6 JUMP JUMPDEST PUSH2 0x1E05 JUMP JUMPDEST SWAP1 JUMP JUMPDEST POP POP SWAP1 JUMP JUMPDEST SWAP1 PUSH1 0x0 PUSH1 0x20 SWAP2 DUP3 DUP2 MLOAD SWAP2 ADD DUP3 DUP6 GAS CALL ISZERO PUSH2 0x1498 JUMPI PUSH1 0x0 MLOAD RETURNDATASIZE PUSH2 0x298E JUMPI POP PUSH1 0x1 PUSH1 0x1 PUSH1 0xA0 SHL SUB DUP2 AND EXTCODESIZE ISZERO JUMPDEST PUSH2 0x296D JUMPI POP JUMP JUMPDEST PUSH4 0x5274AFE7 PUSH1 0xE0 SHL PUSH1 0x0 SWAP1 DUP2 MSTORE PUSH1 0x1 PUSH1 0x1 PUSH1 0xA0 SHL SUB SWAP2 SWAP1 SWAP2 AND PUSH1 0x4 MSTORE PUSH1 0x24 SWAP1 REVERT JUMPDEST PUSH1 0x1 EQ ISZERO PUSH2 0x2966 JUMP INVALID LOG2 PUSH5 0x6970667358 0x22 SLT KECCAK256 0xAF JUMPDEST 0xCE SLOAD 0x29 SMOD CODECOPY COINBASE 0xEF DIV 0xC9 EQ 0xAF SGT 0x2F 0xFB BLOCKHASH 0xDB PUSH0 STATICCALL 0x22 0xC8 0xAF DUP14 0x21 DUP11 0xE2 PUSH8 0x9E9A125864736F6C PUSH4 0x4300081C STOP CALLER "},"methodIdentifiers":{"ACTIVITY_THRESHOLD()":"414f99ae","BASE_PRICE()":"f86325ed","DEX_ROLE()":"2ef97265","DISCOVERY_PERIOD()":"17359688","ENGAGEMENT_THRESHOLD()":"30ae7805","MAX_PRICE_MULTIPLIER()":"5889486e","MAX_SNAPSHOTS()":"31ad24f8","MIN_24H_VOLUME()":"993d3450","MIN_FEES_FOR_REDEPLOY()":"1b5a799a","MIN_LIQUIDITY()":"21b77d63","MIN_TOKEN_PRICE()":"1879dcf3","REBALANCE_INTERVAL()":"5c2da7cd","SNAPSHOT_INTERVAL()":"6d2beef1","addLiquidity(address,uint256,uint256)":"55776b77","autoRedeployFees(address)":"bc99f487","calculateInitialLiquidity(uint256,uint256)":"14f302ac","calculateOptimalDeployment(address,uint256)":"6576594b","checkAndRebalance(address)":"3ec43350","collectFees(address,uint256)":"a033fcd4","collectedFees(address)":"1cead9a7","completePriceDiscovery(address)":"fb99d5f4","creatorTokenReserves(address)":"708b9935","dex()":"692058c2","getPoolActivity(address)":"f836c8f2","getReserves(address)":"3e99c1e4","getSmoothedMetrics(address)":"b1eb4835","getTrackedPools()":"b2098fa2","isPoolActive(address)":"a711e6a1","isTrackedPool(address)":"74a92c66","lastRebalanceTimestamp()":"b83d8157","owner()":"8da5cb5b","poolActivity(address)":"051e0e67","priceDiscovery(address)":"e1aeb092","recordEngagementSnapshot(address,uint256)":"4e358af2","redeployFees(address,address)":"bd1e31aa","removeLiquidity(address,uint256,uint256)":"e38192e3","removePoolFromTracking(address)":"2253fc3c","renounceOwnership()":"715018a6","setDEX(address)":"7b66a723","sonicReserves(address)":"c157c05f","sonicToken()":"461a3a95","startPriceDiscovery(address,uint256)":"8c93ca7c","tokenEngagement(address)":"f2fd23de","trackedPools(uint256)":"23bfa792","transferOwnership(address)":"f2fde38b","updateEngagementMetrics(address,uint256)":"3417c3d0","updatePoolActivity(address,uint256)":"e71e76c1","withdrawFees(address,uint256)":"ad3b1b47"}},"storageLayout":{"storage":[{"astId":8,"contract":"contracts/SaraLiquidityManager.sol:SaraLiquidityManager","label":"_owner","offset":0,"slot":"0","type":"t_address"},{"astId":1420,"contract":"contracts/SaraLiquidityManager.sol:SaraLiquidityManager","label":"creatorTokenReserves","offset":0,"slot":"1","type":"t_mapping(t_address,t_uint256)"},{"astId":1424,"contract":"contracts/SaraLiquidityManager.sol:SaraLiquidityManager","label":"sonicReserves","offset":0,"slot":"2","type":"t_mapping(t_address,t_uint256)"},{"astId":1428,"contract":"contracts/SaraLiquidityManager.sol:SaraLiquidityManager","label":"collectedFees","offset":0,"slot":"3","type":"t_mapping(t_address,t_uint256)"},{"astId":1430,"contract":"contracts/SaraLiquidityManager.sol:SaraLiquidityManager","label":"sonicToken","offset":0,"slot":"4","type":"t_address"},{"astId":1435,"contract":"contracts/SaraLiquidityManager.sol:SaraLiquidityManager","label":"lastRebalanceTimestamp","offset":0,"slot":"5","type":"t_uint256"},{"astId":1452,"contract":"contracts/SaraLiquidityManager.sol:SaraLiquidityManager","label":"tokenEngagement","offset":0,"slot":"6","type":"t_mapping(t_address,t_struct(EngagementMetrics)1447_storage)"},{"astId":1487,"contract":"contracts/SaraLiquidityManager.sol:SaraLiquidityManager","label":"priceDiscovery","offset":0,"slot":"7","type":"t_mapping(t_address,t_struct(PriceDiscoveryData)1482_storage)"},{"astId":1521,"contract":"contracts/SaraLiquidityManager.sol:SaraLiquidityManager","label":"trackedPools","offset":0,"slot":"8","type":"t_array(t_address)dyn_storage"},{"astId":1525,"contract":"contracts/SaraLiquidityManager.sol:SaraLiquidityManager","label":"isTrackedPool","offset":0,"slot":"9","type":"t_mapping(t_address,t_bool)"},{"astId":1586,"contract":"contracts/SaraLiquidityManager.sol:SaraLiquidityManager","label":"poolActivity","offset":0,"slot":"10","type":"t_mapping(t_address,t_struct(PoolActivity)1581_storage)"},{"astId":1610,"contract":"contracts/SaraLiquidityManager.sol:SaraLiquidityManager","label":"dex","offset":0,"slot":"11","type":"t_address"}],"types":{"t_address":{"encoding":"inplace","label":"address","numberOfBytes":"20"},"t_array(t_address)dyn_storage":{"base":"t_address","encoding":"dynamic_array","label":"address[]","numberOfBytes":"32"},"t_array(t_uint256)dyn_storage":{"base":"t_uint256","encoding":"dynamic_array","label":"uint256[]","numberOfBytes":"32"},"t_bool":{"encoding":"inplace","label":"bool","numberOfBytes":"1"},"t_mapping(t_address,t_bool)":{"encoding":"mapping","key":"t_address","label":"mapping(address => bool)","numberOfBytes":"32","value":"t_bool"},"t_mapping(t_address,t_struct(EngagementMetrics)1447_storage)":{"encoding":"mapping","key":"t_address","label":"mapping(address => struct SaraLiquidityManager.EngagementMetrics)","numberOfBytes":"32","value":"t_struct(EngagementMetrics)1447_storage"},"t_mapping(t_address,t_struct(PoolActivity)1581_storage)":{"encoding":"mapping","key":"t_address","label":"mapping(address => struct SaraLiquidityManager.PoolActivity)","numberOfBytes":"32","value":"t_struct(PoolActivity)1581_storage"},"t_mapping(t_address,t_struct(PriceDiscoveryData)1482_storage)":{"encoding":"mapping","key":"t_address","label":"mapping(address => struct SaraLiquidityManager.PriceDiscoveryData)","numberOfBytes":"32","value":"t_struct(PriceDiscoveryData)1482_storage"},"t_mapping(t_address,t_uint256)":{"encoding":"mapping","key":"t_address","label":"mapping(address => uint256)","numberOfBytes":"32","value":"t_uint256"},"t_struct(EngagementMetrics)1447_storage":{"encoding":"inplace","label":"struct SaraLiquidityManager.EngagementMetrics","members":[{"astId":1440,"contract":"contracts/SaraLiquidityManager.sol:SaraLiquidityManager","label":"lastSubscriberCount","offset":0,"slot":"0","type":"t_uint256"},{"astId":1442,"contract":"contracts/SaraLiquidityManager.sol:SaraLiquidityManager","label":"smoothedSubscriberCount","offset":0,"slot":"1","type":"t_uint256"},{"astId":1444,"contract":"contracts/SaraLiquidityManager.sol:SaraLiquidityManager","label":"lastUpdateTime","offset":0,"slot":"2","type":"t_uint256"},{"astId":1446,"contract":"contracts/SaraLiquidityManager.sol:SaraLiquidityManager","label":"updateCount","offset":0,"slot":"3","type":"t_uint256"}],"numberOfBytes":"128"},"t_struct(PoolActivity)1581_storage":{"encoding":"inplace","label":"struct SaraLiquidityManager.PoolActivity","members":[{"astId":1576,"contract":"contracts/SaraLiquidityManager.sol:SaraLiquidityManager","label":"lastTradeTimestamp","offset":0,"slot":"0","type":"t_uint256"},{"astId":1578,"contract":"contracts/SaraLiquidityManager.sol:SaraLiquidityManager","label":"tradingVolume24h","offset":0,"slot":"1","type":"t_uint256"},{"astId":1580,"contract":"contracts/SaraLiquidityManager.sol:SaraLiquidityManager","label":"lastVolumeUpdateTime","offset":0,"slot":"2","type":"t_uint256"}],"numberOfBytes":"96"},"t_struct(PriceDiscoveryData)1482_storage":{"encoding":"inplace","label":"struct SaraLiquidityManager.PriceDiscoveryData","members":[{"astId":1472,"contract":"contracts/SaraLiquidityManager.sol:SaraLiquidityManager","label":"initialSubscribers","offset":0,"slot":"0","type":"t_uint256"},{"astId":1474,"contract":"contracts/SaraLiquidityManager.sol:SaraLiquidityManager","label":"currentSubscribers","offset":0,"slot":"1","type":"t_uint256"},{"astId":1476,"contract":"contracts/SaraLiquidityManager.sol:SaraLiquidityManager","label":"observationStartTime","offset":0,"slot":"2","type":"t_uint256"},{"astId":1478,"contract":"contracts/SaraLiquidityManager.sol:SaraLiquidityManager","label":"isInDiscovery","offset":0,"slot":"3","type":"t_bool"},{"astId":1481,"contract":"contracts/SaraLiquidityManager.sol:SaraLiquidityManager","label":"engagementSnapshots","offset":0,"slot":"4","type":"t_array(t_uint256)dyn_storage"}],"numberOfBytes":"160"},"t_uint256":{"encoding":"inplace","label":"uint256","numberOfBytes":"32"}}}}}}