{"contracts/SaraDEX.sol":{"SaraDEX":{"abi":[{"inputs":[{"internalType":"address","name":"_coralToken","type":"address"},{"internalType":"address payable","name":"_liquidityManager","type":"address"}],"stateMutability":"nonpayable","type":"constructor"},{"inputs":[{"internalType":"address","name":"owner","type":"address"}],"name":"OwnableInvalidOwner","type":"error"},{"inputs":[{"internalType":"address","name":"account","type":"address"}],"name":"OwnableUnauthorizedAccount","type":"error"},{"inputs":[{"internalType":"address","name":"token","type":"address"}],"name":"SafeERC20FailedOperation","type":"error"},{"anonymous":false,"inputs":[{"indexed":true,"internalType":"address","name":"token","type":"address"},{"indexed":false,"internalType":"uint256","name":"storedFees","type":"uint256"}],"name":"CoralAutoRedeploymentFailed","type":"event"},{"anonymous":false,"inputs":[{"indexed":true,"internalType":"address","name":"token","type":"address"},{"indexed":false,"internalType":"uint256","name":"amount","type":"uint256"}],"name":"CoralFeesRedeployed","type":"event"},{"anonymous":false,"inputs":[{"indexed":true,"internalType":"address","name":"token","type":"address"},{"indexed":false,"internalType":"uint256","name":"amount","type":"uint256"},{"indexed":false,"internalType":"uint256","name":"timestamp","type":"uint256"}],"name":"CoralFeesWithdrawn","type":"event"},{"anonymous":false,"inputs":[{"indexed":true,"internalType":"address","name":"user","type":"address"},{"indexed":true,"internalType":"address","name":"creatorToken","type":"address"},{"indexed":false,"internalType":"uint256","name":"amountIn","type":"uint256"},{"indexed":false,"internalType":"uint256","name":"amountOut","type":"uint256"},{"indexed":false,"internalType":"uint256","name":"fee","type":"uint256"}],"name":"CoralSwapExecuted","type":"event"},{"anonymous":false,"inputs":[{"indexed":true,"internalType":"address","name":"token","type":"address"},{"indexed":false,"internalType":"uint256","name":"amount","type":"uint256"},{"indexed":false,"internalType":"uint256","name":"timestamp","type":"uint256"}],"name":"CoralTokensRequested","type":"event"},{"anonymous":false,"inputs":[{"indexed":true,"internalType":"address","name":"to","type":"address"},{"indexed":false,"internalType":"uint256","name":"amount","type":"uint256"},{"indexed":false,"internalType":"uint256","name":"timestamp","type":"uint256"}],"name":"CoralTransferred","type":"event"},{"anonymous":false,"inputs":[{"indexed":false,"internalType":"uint256","name":"oldSlippage","type":"uint256"},{"indexed":false,"internalType":"uint256","name":"newSlippage","type":"uint256"},{"indexed":true,"internalType":"address","name":"updater","type":"address"}],"name":"MaxSlippageUpdated","type":"event"},{"anonymous":false,"inputs":[{"indexed":true,"internalType":"address","name":"previousOwner","type":"address"},{"indexed":true,"internalType":"address","name":"newOwner","type":"address"}],"name":"OwnershipTransferred","type":"event"},{"inputs":[],"name":"ABSOLUTE_MAX_SLIPPAGE","outputs":[{"internalType":"uint256","name":"","type":"uint256"}],"stateMutability":"view","type":"function"},{"inputs":[],"name":"AUTO_REDEPLOY_THRESHOLD","outputs":[{"internalType":"uint256","name":"","type":"uint256"}],"stateMutability":"view","type":"function"},{"inputs":[],"name":"DEFAULT_MAX_SLIPPAGE","outputs":[{"internalType":"uint256","name":"","type":"uint256"}],"stateMutability":"view","type":"function"},{"inputs":[],"name":"MAXIMUM_ALLOWED_SLIPPAGE","outputs":[{"internalType":"uint256","name":"","type":"uint256"}],"stateMutability":"view","type":"function"},{"inputs":[],"name":"MAX_FEE_STORAGE","outputs":[{"internalType":"uint256","name":"","type":"uint256"}],"stateMutability":"view","type":"function"},{"inputs":[],"name":"MAX_SINGLE_SWAP","outputs":[{"internalType":"uint256","name":"","type":"uint256"}],"stateMutability":"view","type":"function"},{"inputs":[],"name":"MAX_SWAP_AMOUNT_PERCENT","outputs":[{"internalType":"uint256","name":"","type":"uint256"}],"stateMutability":"view","type":"function"},{"inputs":[],"name":"MIN_OUTPUT_AMOUNT","outputs":[{"internalType":"uint256","name":"","type":"uint256"}],"stateMutability":"view","type":"function"},{"inputs":[],"name":"MIN_SWAP_AMOUNT","outputs":[{"internalType":"uint256","name":"","type":"uint256"}],"stateMutability":"view","type":"function"},{"inputs":[],"name":"MIN_TIME_BETWEEN_SWAPS","outputs":[{"internalType":"uint256","name":"","type":"uint256"}],"stateMutability":"view","type":"function"},{"inputs":[],"name":"canHandleNativeCoral","outputs":[{"internalType":"bool","name":"","type":"bool"}],"stateMutability":"view","type":"function"},{"inputs":[{"internalType":"address","name":"token","type":"address"}],"name":"checkFeesForRedeployment","outputs":[{"internalType":"bool","name":"needsRedeploy","type":"bool"},{"internalType":"uint256","name":"amount","type":"uint256"}],"stateMutability":"view","type":"function"},{"inputs":[],"name":"coralToken","outputs":[{"internalType":"address","name":"","type":"address"}],"stateMutability":"view","type":"function"},{"inputs":[{"internalType":"uint256","name":"amountIn","type":"uint256"},{"internalType":"uint256","name":"reserveIn","type":"uint256"},{"internalType":"uint256","name":"reserveOut","type":"uint256"}],"name":"getAmountOut","outputs":[{"internalType":"uint256","name":"","type":"uint256"}],"stateMutability":"pure","type":"function"},{"inputs":[{"internalType":"uint256","name":"amountIn","type":"uint256"},{"internalType":"address[]","name":"path","type":"address[]"}],"name":"getAmountOutWithFees","outputs":[{"internalType":"uint256","name":"","type":"uint256"}],"stateMutability":"view","type":"function"},{"inputs":[],"name":"getNativeCoralBalance","outputs":[{"internalType":"uint256","name":"","type":"uint256"}],"stateMutability":"view","type":"function"},{"inputs":[],"name":"getSlippageSettings","outputs":[{"internalType":"uint256","name":"defaultSlippage","type":"uint256"},{"internalType":"uint256","name":"currentMaxSlippage","type":"uint256"},{"internalType":"uint256","name":"absoluteMaximum","type":"uint256"}],"stateMutability":"view","type":"function"},{"inputs":[{"internalType":"address","name":"token","type":"address"}],"name":"getWithdrawableFees","outputs":[{"internalType":"uint256","name":"","type":"uint256"}],"stateMutability":"view","type":"function"},{"inputs":[{"internalType":"address","name":"token","type":"address"},{"internalType":"uint256","name":"amount","type":"uint256"}],"name":"hasTokenBalance","outputs":[{"internalType":"bool","name":"","type":"bool"}],"stateMutability":"view","type":"function"},{"inputs":[{"internalType":"address","name":"token","type":"address"}],"name":"isNativeCoral","outputs":[{"internalType":"bool","name":"","type":"bool"}],"stateMutability":"view","type":"function"},{"inputs":[{"internalType":"uint256","name":"amount","type":"uint256"}],"name":"isValidSwapAmount","outputs":[{"internalType":"bool","name":"","type":"bool"}],"stateMutability":"pure","type":"function"},{"inputs":[{"internalType":"address","name":"","type":"address"}],"name":"lastSwapTimestamp","outputs":[{"internalType":"uint256","name":"","type":"uint256"}],"stateMutability":"view","type":"function"},{"inputs":[],"name":"liquidityManager","outputs":[{"internalType":"contract SaraLiquidityManager","name":"","type":"address"}],"stateMutability":"view","type":"function"},{"inputs":[],"name":"owner","outputs":[{"internalType":"address","name":"","type":"address"}],"stateMutability":"view","type":"function"},{"inputs":[],"name":"renounceOwnership","outputs":[],"stateMutability":"nonpayable","type":"function"},{"inputs":[{"internalType":"address","name":"","type":"address"}],"name":"storedFees","outputs":[{"internalType":"uint256","name":"","type":"uint256"}],"stateMutability":"view","type":"function"},{"inputs":[{"internalType":"address","name":"creatorToken","type":"address"},{"internalType":"uint256","name":"amountIn","type":"uint256"},{"internalType":"uint256","name":"minAmountOut","type":"uint256"},{"internalType":"uint256","name":"maxSlippage","type":"uint256"}],"name":"swapCoralForCreatorToken","outputs":[{"internalType":"uint256","name":"","type":"uint256"}],"stateMutability":"payable","type":"function"},{"inputs":[{"internalType":"address","name":"creatorToken","type":"address"},{"internalType":"uint256","name":"amountIn","type":"uint256"},{"internalType":"uint256","name":"minAmountOut","type":"uint256"},{"internalType":"uint256","name":"maxSlippage","type":"uint256"}],"name":"swapCreatorTokenForCoral","outputs":[],"stateMutability":"nonpayable","type":"function"},{"inputs":[],"name":"swapFee","outputs":[{"internalType":"uint256","name":"","type":"uint256"}],"stateMutability":"view","type":"function"},{"inputs":[{"internalType":"address","name":"newOwner","type":"address"}],"name":"transferOwnership","outputs":[],"stateMutability":"nonpayable","type":"function"},{"inputs":[{"internalType":"uint256","name":"newMaxSlippage","type":"uint256"}],"name":"updateMaxSlippage","outputs":[],"stateMutability":"nonpayable","type":"function"},{"inputs":[{"internalType":"uint256","name":"slippage","type":"uint256"}],"name":"validateSlippage","outputs":[{"internalType":"bool","name":"","type":"bool"},{"internalType":"string","name":"","type":"string"}],"stateMutability":"view","type":"function"},{"inputs":[{"internalType":"address","name":"token","type":"address"},{"internalType":"uint256","name":"amount","type":"uint256"}],"name":"withdrawStoredFees","outputs":[],"stateMutability":"nonpayable","type":"function"},{"stateMutability":"payable","type":"receive"}],"evm":{"bytecode":{"linkReferences":{},"object":"60a03461014457601f61238438819003918201601f19168301916001600160401b038311848410176101495780849260409485528339810103126101445780516001600160a01b038116919082900361014457602001516001600160a01b0381169081900361014457331561012e5760008054336001600160a01b0319821681178355604051949290916001600160a01b0316907f8be0079c531659141344cd1fd0a4f28419497f9722a3daafe3b4186f6b6457e09080a3601e6003556101f46080526103e860065560018060a01b0319600154161760015560018060a01b031960025416176002556122249081610160823960805181818161020801528181610413015281816109b801528181610a3c01528181610cec0152818161118f015281816115a40152611e410152f35b631e4fbdf760e01b600052600060045260246000fd5b600080fd5b634e487b7160e01b600052604160045260246000fdfe608080604052600436101561001d575b50361561001b57600080fd5b005b60003560e01c90816302e9d3e8146115ed57508063054d50d4146115c95780630c28192f1461114257806311a9992e14611126578063125c12041461027c57806313079df514610e34578063268b69cb14610dd85780633382743814610daf57806354cf2aeb14610d9157806365804d5114610d685780636604b53a14610c89578063715018a614610d0f578063797cb5a214610c3d57806385015e0914610cd45780638ac058cc14610cb75780638da5cb5b14610c8e57806390cd369414610c8957806394590aca14610c4257806399f34c1214610c3d578063a08a522014610ab1578063a5b1590514610a95578063bba2e14014610a6c578063c54e1d3814610a20578063c838889e146109f9578063d855dc7e146109dd578063dcefe5b6146103c1578063e7b0444c146103a3578063e7ca44ef1461037e578063f2c75fa01461033f578063f2fde38b146102b6578063f81bdc231461027c578063f896acc7146101c75763fb28ceb214610195573861000f565b346101c25760203660031901126101c25760206101b86101b3611623565b611ea5565b6040519015158152f35b600080fd5b346101c25760203660031901126101c2576004356101e36120fe565b600654906101fb6101f2611d91565b83831415611bbf565b61022f610206611dcc565b7f0000000000000000000000000000000000000000000000000000000000000000831015611bbf565b61024561023a611e07565b6107d0831115611bbf565b8060065560405191825260208201527f701caa0f8ada7952fb1d301bdfc04ed8b66396fe0181a18d0f2fe16ea0af154760403392a2005b346101c25760203660031901126101c2576001600160a01b0361029d611623565b1660005260056020526020604060002054604051908152f35b346101c25760203660031901126101c2576102cf611623565b6102d76120fe565b6001600160a01b0316801561032957600080546001600160a01b03198116831782556001600160a01b0316907f8be0079c531659141344cd1fd0a4f28419497f9722a3daafe3b4186f6b6457e09080a3005b631e4fbdf760e01b600052600060045260246000fd5b346101c25760203660031901126101c25761035b600435611e36565b9061037a604051928392151583526040602084015260408301906116ad565b0390f35b346101c25760003660031901126101c257602060405169021e19e0c9bab24000008152f35b346101c25760003660031901126101c2576020600654604051908152f35b346101c2576103cf36611639565b929092336000526004602052604060002054603c8101809111610929576103f8904210156119e4565b610406600654821115611a21565b80156109b557925b61043a7f0000000000000000000000000000000000000000000000000000000000000000851015611a61565b60025460408051630fa6707960e21b81526001600160a01b0385811660048301819052979391929183916024918391165afa80156107b8576000918291610984575b5081861161093f576001546104a49061049f9088906001600160a01b0316611c86565b611aee565b6005820290828204600514831517156109295761050a926104cd60646104d39404891115611b3a565b8761170e565b926105036127106104fc6104f5826104ed6003548a6116ee565b048098611b77565b95866116ee565b0484611b77565b1015611a21565b6040516370a0823160e01b8152336004820152602081602481895afa80156107b85785906000906108f3575b61054292501015611bef565b604051636eb1769f60e11b8152336004820152306024820152602081604481895afa80156107b85785916000916108be575b501061086d5761058684303388611efd565b33156108345780156107fe576001546001600160a01b03166105a781611ea5565b156106c5575061068e826000805160206121cf83398151915294610657476105d96105d0611b84565b87831015611bbf565b61064660008080808a335af16105ed611c46565b50604051906105fd606083611aa0565b603182527f4661696c656420746f2067657420434f52414c20746f6b656e732066726f6d206020830152702634b8bab4b234ba3c9026b0b730b3b2b960791b6040830152611bbf565b610651864792611b77565b14612127565b6040518481524260208201527f997d41a3a2d02ddf7873eeeaa626fcc250ea57a73e1dad920f8656df12fcd9af60403392a2611f83565b336000526004602052426040600020556106c06040519283923396846040919493926060820195825260208201520152565b0390a3005b6040516370a0823160e01b8152306004820152602081602481855afa9081156107b85783906000926107c4575b506107159060249361070e610705611b84565b83861015611bbf565b3390611f48565b6001546040516370a0823160e01b81523060048201529260209184919082906001600160a01b03165afa9182156107b857600092610776575b506000805160206121cf8339815191529461077161068e93610651868895611b77565b610657565b91506020823d6020116107b0575b8161079160209383611aa0565b810103126101c2579051906000805160206121cf83398151915261074e565b3d9150610784565b6040513d6000823e3d90fd5b9190506020823d6020116107f6575b816107e060209383611aa0565b810103126107f3575051826107156106f2565b80fd5b3d91506107d3565b60405162461bcd60e51b815260206004820152600e60248201526d125b9d985b1a5908185b5bdd5b9d60921b6044820152606490fd5b60405162461bcd60e51b8152602060048201526011602482015270125b9d985b1a59081c9958da5c1a595b9d607a1b6044820152606490fd5b60405162461bcd60e51b8152602060048201526024808201527f496e73756666696369656e742063726561746f7220746f6b656e20616c6c6f77604482015263616e636560e01b6064820152608490fd5b9150506020813d6020116108eb575b816108da60209383611aa0565b810103126101c25784905187610574565b3d91506108cd565b50506020813d602011610921575b8161090e60209383611aa0565b810103126101c257846105429151610536565b3d9150610901565b634e487b7160e01b600052601160045260246000fd5b60405162461bcd60e51b815260206004820152601e60248201527f496e73756666696369656e742063726561746f72206c697175696469747900006044820152606490fd5b90506109a8915060403d6040116109ae575b6109a08183611aa0565b810190611ad8565b8761047c565b503d610996565b507f00000000000000000000000000000000000000000000000000000000000000009261040e565b346101c25760003660031901126101c257602060405160058152f35b346101c25760403660031901126101c25760206101b8610a17611623565b60243590611c86565b346101c25760003660031901126101c2576060600654604051907f0000000000000000000000000000000000000000000000000000000000000000825260208201526107d06040820152f35b346101c25760003660031901126101c2576001546040516001600160a01b039091168152602090f35b346101c25760003660031901126101c257602047604051908152f35b346101c25760403660031901126101c25760243567ffffffffffffffff81116101c257366023820112156101c257806004013567ffffffffffffffff81116101c2573660248260051b840101116101c25760028110610c02576002546001600160a01b0316916000198201828111926000929091600435855b6109295781851015610bde57600185018086116109295784811015610bc85760249060051b840101359060018060a01b0382168092036101c25760405191630fa6707960e21b835260048301526040826024818b5afa80156107b857600192610b9d926000918293610ba6575b5061170e565b94019385610b2a565b909250610bc1915060403d81116109ae576109a08183611aa0565b918b610b97565b634e487b7160e01b600052603260045260246000fd5b610bfa602091612710610bf3600354836116ee565b0490611b77565b604051908152f35b60405162461bcd60e51b8152602060048201526013602482015272092dcecc2d8d2c840e0c2e8d040d8cadccee8d606b1b6044820152606490fd5b61168b565b346101c25760203660031901126101c257602060043566038d7ea4c680008110159081610c75575b506040519015158152f35b683635c9adc5dea000009150111582610c6a565b611667565b346101c25760003660031901126101c2576000546040516001600160a01b039091168152602090f35b346101c25760003660031901126101c25760206040516107d08152f35b346101c25760003660031901126101c25760206040517f00000000000000000000000000000000000000000000000000000000000000008152f35b346101c25760003660031901126101c257610d286120fe565b600080546001600160a01b0319811682556001600160a01b03167f8be0079c531659141344cd1fd0a4f28419497f9722a3daafe3b4186f6b6457e08280a3005b346101c25760003660031901126101c2576001546020906101b8906001600160a01b0316611ea5565b346101c25760003660031901126101c2576020600354604051908152f35b346101c25760003660031901126101c2576002546040516001600160a01b039091168152602090f35b346101c25760203660031901126101c2576001600160a01b03610df9611623565b16600052600560205260408060002054683635c9adc5dea000008110159081600014610e2c575b82519182526020820152f35b506000610e20565b346101c25760403660031901126101c257610e4d611623565b602435610e586120fe565b6001600160a01b0382169182156110e95781156110a457826000526005602052816040600020541061105f5769021e19e0c9bab2400000821161102157610eb9908360005260056020526040600020610eb2848254611b77565b9055611ea5565b15610f5a57610ed381471015610ecd611b84565b90611bbf565b600080808084335af1610ee4611c46565b5015610f1d5760407fa423987bc38eff6f10df0f3a2bc41f3394177d8602562dc2f98baabec8c811ab915b8151908152426020820152a2005b60405162461bcd60e51b815260206004820152601560248201527410d3d49053081d1c985b9cd9995c8819985a5b1959605a1b6044820152606490fd5b6040516370a0823160e01b8152306004820152602081602481865afa9081156107b857600091610fcf575b5081610fbf6040927fa423987bc38eff6f10df0f3a2bc41f3394177d8602562dc2f98baabec8c811ab94610fb7611b84565b911015611bbf565b610fca813386611f48565b610f0f565b90506020813d602011611019575b81610fea60209383611aa0565b810103126101c257517fa423987bc38eff6f10df0f3a2bc41f3394177d8602562dc2f98baabec8c811ab610f85565b3d9150610fdd565b60405162461bcd60e51b8152602060048201526016602482015275416d6f756e742065786365656473206d6178696d756d60501b6044820152606490fd5b60405162461bcd60e51b815260206004820152601860248201527f496e73756666696369656e742073746f726564206665657300000000000000006044820152606490fd5b60405162461bcd60e51b815260206004820152601960248201527f496e76616c6964207769746864726177616c20616d6f756e74000000000000006044820152606490fd5b60405162461bcd60e51b8152602060048201526015602482015274496e76616c696420746f6b656e206164647265737360581b6044820152606490fd5b346101c25760003660031901126101c2576020604051603c8152f35b61114b36611639565b929092336000526004602052604060002054603c810180911161092957611174904210156119e4565b611182600654821115611a21565b80156115a157915b6111b67f0000000000000000000000000000000000000000000000000000000000000000841015611a61565b60025460408051630fa6707960e21b81526001600160a01b0385811660048301819052959391929183916024918391165afa80156107b857600091600091611580575b506001546001600160a01b03169161121461049f8685611c86565b81851161153b5780156114f657600582029082820460051483151715610929576112819261124a60646112509404881115611b3a565b8661170e565b9661050361271061127a6112738261126b8d600354906116ee565b04809c611b77565b998a6116ee565b0488611b77565b61128a81611ea5565b156113ba5750813403611366575b6040516370a0823160e01b8152306004820152602081602481875afa9081156107b857600091611334575b50856112fa6020976000805160206121cf833981519152946112ea89611329961015611bef565b6112f589338a611f48565b611f83565b336000526004875242604060002055604051918291873396846040919493926060820195825260208201520152565b0390a3604051908152f35b90506020813d60201161135e575b8161134f60209383611aa0565b810103126101c25751856112c3565b3d9150611342565b60405162461bcd60e51b815260206004820152602660248201527f4d7573742073656e6420657861637420616d6f756e74206f66206e61746976656044820152650810d3d4905360d21b6064820152608490fd5b6040516370a0823160e01b8152336004820152602081602481855afa80156107b8576000906114c2575b6113f2915084610fb7611b84565b604051636eb1769f60e11b8152336004820152306024820152602081604481855afa80156107b857849160009161148d575b501061143d57826114389130903390611efd565b611298565b60405162461bcd60e51b815260206004820152602260248201527f496e73756666696369656e7420434f52414c20746f6b656e20616c6c6f77616e604482015261636560f01b6064820152608490fd5b9150506020813d6020116114ba575b816114a960209383611aa0565b810103126101c25783905188611424565b3d915061149c565b506020813d6020116114ee575b816114dc60209383611aa0565b810103126101c2576113f290516113e4565b3d91506114cf565b60405162461bcd60e51b815260206004820152601a60248201527f4e6f2063726561746f7220746f6b656e206c69717569646974790000000000006044820152606490fd5b60405162461bcd60e51b815260206004820152601a60248201527f496e73756666696369656e7420434f52414c20696e20706f6f6c0000000000006044820152606490fd5b905061159b915060403d6040116109ae576109a08183611aa0565b876111f9565b507f00000000000000000000000000000000000000000000000000000000000000009161118a565b346101c25760603660031901126101c2576020610bfa60443560243560043561170e565b346101c25760203660031901126101c2576020906001600160a01b03611611611623565b16600052600482526040600020548152f35b600435906001600160a01b03821682036101c257565b60809060031901126101c2576004356001600160a01b03811681036101c25790602435906044359060643590565b346101c25760003660031901126101c2576020604051683635c9adc5dea000008152f35b346101c25760003660031901126101c257602060405166038d7ea4c680008152f35b919082519283825260005b8481106116d9575050826000602080949584010152601f8019910116010190565b806020809284010151828286010152016116b8565b8181029291811591840414171561092957565b9190820180921161092957565b80156119a85781159182158061199f575b15611967578082116119225766038d7ea4c6800082106118e6577e41bbb2f80a4553f6c19ad51e8e40314cc63a07b3fef911341fd6eab024f9948211611895576103e582029182046103e50361092957811561187f57816000190484116118305761178c600094836116ee565b926103e882029182046103e814171561181c57906117a991611701565b91821561180857500466038d7ea4c6800081106117c35790565b60405162461bcd60e51b815260206004820152601960248201527f53776170206f75747075742062656c6f77206d696e696d756d000000000000006044820152606490fd5b634e487b7160e01b81526012600452602490fd5b634e487b7160e01b84526011600452602484fd5b60405162461bcd60e51b815260206004820152602160248201527f506f74656e7469616c206f766572666c6f7720696e2063616c63756c6174696f6044820152603760f91b6064820152608490fd5b634e487b7160e01b600052601260045260246000fd5b60405162461bcd60e51b8152602060048201526024808201527f416d6f756e7420746f6f206c6172676520666f72206665652063616c63756c616044820152633a34b7b760e11b6064820152608490fd5b60405162461bcd60e51b8152602060048201526014602482015273416d6f756e742062656c6f77206d696e696d756d60601b6044820152606490fd5b60405162461bcd60e51b815260206004820152601c60248201527f5377617020616d6f756e742065786365656473207265736572766573000000006044820152606490fd5b60405162461bcd60e51b815260206004820152601060248201526f496e76616c696420726573657276657360801b6044820152606490fd5b5083151561171f565b60405162461bcd60e51b8152602060048201526014602482015273125b9d985b1a59081a5b9c1d5d08185b5bdd5b9d60621b6044820152606490fd5b156119eb57565b60405162461bcd60e51b815260206004820152600e60248201526d546f6f206d616e7920737761707360901b6044820152606490fd5b15611a2857565b60405162461bcd60e51b81526020600482015260116024820152700a6d8d2e0e0c2ceca40e8dede40d0d2ced607b1b6044820152606490fd5b15611a6857565b60405162461bcd60e51b815260206004820152601060248201526f496e76616c696420736c69707061676560801b6044820152606490fd5b90601f8019910116810190811067ffffffffffffffff821117611ac257604052565b634e487b7160e01b600052604160045260246000fd5b91908260409103126101c2576020825192015190565b15611af557565b60405162461bcd60e51b815260206004820152601c60248201527f4e6f20434f52414c206c697175696469747920617661696c61626c65000000006044820152606490fd5b15611b4157565b60405162461bcd60e51b815260206004820152600e60248201526d5377617020746f6f206c6172676560901b6044820152606490fd5b9190820391821161092957565b60405190611b93604083611aa0565b602082527f496e73756666696369656e7420434f52414c20746f6b656e2062616c616e63656020830152565b15611bc75750565b60405162461bcd60e51b815260206004820152908190611beb9060248301906116ad565b0390fd5b15611bf657565b60405162461bcd60e51b815260206004820152602260248201527f496e73756666696369656e742063726561746f7220746f6b656e2062616c616e604482015261636560f01b6064820152608490fd5b3d15611c81573d9067ffffffffffffffff8211611ac25760405191611c75601f8201601f191660200184611aa0565b82523d6000602084013e565b606090565b6001546001600160a01b038281169291168214611d0357506020602491604051928380926370a0823160e01b82523060048301525afa9081156107b857600091611cd1575b50101590565b90506020813d602011611cfb575b81611cec60209383611aa0565b810103126101c2575138611ccb565b3d9150611cdf565b611d0c90611ea5565b6000919015611d1d57505047101590565b6020602491604051928380926370a0823160e01b82523060048301525afa918215611d85578092611d50575b5050101590565b9091506020823d602011611d7d575b81611d6c60209383611aa0565b810103126107f35750513880611d49565b3d9150611d5f565b604051903d90823e3d90fd5b60405190611da0604083611aa0565b601c82527f4e657720736c6970706167652073616d652061732063757272656e74000000006020830152565b60405190611ddb604083611aa0565b601c82527f43616e6e6f74206265206c6f776572207468616e2064656661756c74000000006020830152565b60405190611e16604083611aa0565b601182527043616e6e6f74206578636565642032302560781b6020830152565b6006548114611e9c577f00000000000000000000000000000000000000000000000000000000000000008110611e93576107d010611e8657600190604051611e7f602082611aa0565b6000815290565b611e8e611e07565b600091565b50611e8e611dcc565b50611e8e611d91565b6001546001600160a01b0391821691168114908115611ef4575b8115611ed6575b5080611ecf5790565b5047151590565b73eeeeeeeeeeeeeeeeeeeeeeeeeeeeeeeeeeeeeeee91501438611ec6565b80159150611ebf565b6040516323b872dd60e01b60208201526001600160a01b039283166024820152929091166044830152606480830193909352918152611f4691611f41608483611aa0565b612173565b565b60405163a9059cbb60e01b60208201526001600160a01b039092166024830152604480830193909352918152611f4691611f41606483611aa0565b60009060018060a01b031691828252600560205269021e19e0c9bab2400000611fb0826040852054611701565b116120b9578282526005602052611fcc60408320918254611701565b90558181526005602052683635c9adc5dea0000060408220541015611fef575050565b818152600560205260408120546002549091906001600160a01b0316803b156120b55781809160246040518095819363bc99f48760e01b83528960048401525af191826120a5575b509061206b575060207fc2af8177b25272aa44b4eafdf3cc4916749b55dced944e081e11d1e1a9ac7ec291604051908152a2565b7f030a9a7748b75a6ebf9c7cb2beac00be9bcc421abcf4793aa03dd54a461594ac91818460209352600583526040812055604051908152a2565b816120af91611aa0565b38612037565b5080fd5b60405162461bcd60e51b815260206004820152601960248201527f4665652073746f72616765206c696d69742072656163686564000000000000006044820152606490fd5b6000546001600160a01b0316330361211257565b63118cdaa760e01b6000523360045260246000fd5b1561212e57565b60405162461bcd60e51b815260206004820152601860248201527f5472616e7366657220616d6f756e74206d69736d6174636800000000000000006044820152606490fd5b906000602091828151910182855af1156107b8576000513d6121c557506001600160a01b0381163b155b6121a45750565b635274afe760e01b60009081526001600160a01b0391909116600452602490fd5b6001141561219d56fe5eb78b6fb12f1af3519b0bbd134251f3b57d2c31dcc8a5fcb871971ce5eb8a71a26469706673582212201df88c762ccca6ae600c110b18af4ee3098d98cd507b5309524ada506595777764736f6c634300081c0033","opcodes":"PUSH1 0xA0 CALLVALUE PUSH2 0x144 JUMPI PUSH1 0x1F PUSH2 0x2384 CODESIZE DUP2 SWAP1 SUB SWAP2 DUP3 ADD PUSH1 0x1F NOT AND DUP4 ADD SWAP2 PUSH1 0x1 PUSH1 0x1 PUSH1 0x40 SHL SUB DUP4 GT DUP5 DUP5 LT OR PUSH2 0x149 JUMPI DUP1 DUP5 SWAP3 PUSH1 0x40 SWAP5 DUP6 MSTORE DUP4 CODECOPY DUP2 ADD SUB SLT PUSH2 0x144 JUMPI DUP1 MLOAD PUSH1 0x1 PUSH1 0x1 PUSH1 0xA0 SHL SUB DUP2 AND SWAP2 SWAP1 DUP3 SWAP1 SUB PUSH2 0x144 JUMPI PUSH1 0x20 ADD MLOAD PUSH1 0x1 PUSH1 0x1 PUSH1 0xA0 SHL SUB DUP2 AND SWAP1 DUP2 SWAP1 SUB PUSH2 0x144 JUMPI CALLER ISZERO PUSH2 0x12E JUMPI PUSH1 0x0 DUP1 SLOAD CALLER PUSH1 0x1 PUSH1 0x1 PUSH1 0xA0 SHL SUB NOT DUP3 AND DUP2 OR DUP4 SSTORE PUSH1 0x40 MLOAD SWAP5 SWAP3 SWAP1 SWAP2 PUSH1 0x1 PUSH1 0x1 PUSH1 0xA0 SHL SUB AND SWAP1 PUSH32 0x8BE0079C531659141344CD1FD0A4F28419497F9722A3DAAFE3B4186F6B6457E0 SWAP1 DUP1 LOG3 PUSH1 0x1E PUSH1 0x3 SSTORE PUSH2 0x1F4 PUSH1 0x80 MSTORE PUSH2 0x3E8 PUSH1 0x6 SSTORE PUSH1 0x1 DUP1 PUSH1 0xA0 SHL SUB NOT PUSH1 0x1 SLOAD AND OR PUSH1 0x1 SSTORE PUSH1 0x1 DUP1 PUSH1 0xA0 SHL SUB NOT PUSH1 0x2 SLOAD AND OR PUSH1 0x2 SSTORE PUSH2 0x2224 SWAP1 DUP2 PUSH2 0x160 DUP3 CODECOPY PUSH1 0x80 MLOAD DUP2 DUP2 DUP2 PUSH2 0x208 ADD MSTORE DUP2 DUP2 PUSH2 0x413 ADD MSTORE DUP2 DUP2 PUSH2 0x9B8 ADD MSTORE DUP2 DUP2 PUSH2 0xA3C ADD MSTORE DUP2 DUP2 PUSH2 0xCEC ADD MSTORE DUP2 DUP2 PUSH2 0x118F ADD MSTORE DUP2 DUP2 PUSH2 0x15A4 ADD MSTORE PUSH2 0x1E41 ADD MSTORE RETURN JUMPDEST PUSH4 0x1E4FBDF7 PUSH1 0xE0 SHL PUSH1 0x0 MSTORE PUSH1 0x0 PUSH1 0x4 MSTORE PUSH1 0x24 PUSH1 0x0 REVERT JUMPDEST PUSH1 0x0 DUP1 REVERT JUMPDEST PUSH4 0x4E487B71 PUSH1 0xE0 SHL PUSH1 0x0 MSTORE PUSH1 0x41 PUSH1 0x4 MSTORE PUSH1 0x24 PUSH1 0x0 REVERT INVALID PUSH1 0x80 DUP1 PUSH1 0x40 MSTORE PUSH1 0x4 CALLDATASIZE LT ISZERO PUSH2 0x1D JUMPI JUMPDEST POP CALLDATASIZE ISZERO PUSH2 0x1B JUMPI PUSH1 0x0 DUP1 REVERT JUMPDEST STOP JUMPDEST PUSH1 0x0 CALLDATALOAD PUSH1 0xE0 SHR SWAP1 DUP2 PUSH4 0x2E9D3E8 EQ PUSH2 0x15ED JUMPI POP DUP1 PUSH4 0x54D50D4 EQ PUSH2 0x15C9 JUMPI DUP1 PUSH4 0xC28192F EQ PUSH2 0x1142 JUMPI DUP1 PUSH4 0x11A9992E EQ PUSH2 0x1126 JUMPI DUP1 PUSH4 0x125C1204 EQ PUSH2 0x27C JUMPI DUP1 PUSH4 0x13079DF5 EQ PUSH2 0xE34 JUMPI DUP1 PUSH4 0x268B69CB EQ PUSH2 0xDD8 JUMPI DUP1 PUSH4 0x33827438 EQ PUSH2 0xDAF JUMPI DUP1 PUSH4 0x54CF2AEB EQ PUSH2 0xD91 JUMPI DUP1 PUSH4 0x65804D51 EQ PUSH2 0xD68 JUMPI DUP1 PUSH4 0x6604B53A EQ PUSH2 0xC89 JUMPI DUP1 PUSH4 0x715018A6 EQ PUSH2 0xD0F JUMPI DUP1 PUSH4 0x797CB5A2 EQ PUSH2 0xC3D JUMPI DUP1 PUSH4 0x85015E09 EQ PUSH2 0xCD4 JUMPI DUP1 PUSH4 0x8AC058CC EQ PUSH2 0xCB7 JUMPI DUP1 PUSH4 0x8DA5CB5B EQ PUSH2 0xC8E JUMPI DUP1 PUSH4 0x90CD3694 EQ PUSH2 0xC89 JUMPI DUP1 PUSH4 0x94590ACA EQ PUSH2 0xC42 JUMPI DUP1 PUSH4 0x99F34C12 EQ PUSH2 0xC3D JUMPI DUP1 PUSH4 0xA08A5220 EQ PUSH2 0xAB1 JUMPI DUP1 PUSH4 0xA5B15905 EQ PUSH2 0xA95 JUMPI DUP1 PUSH4 0xBBA2E140 EQ PUSH2 0xA6C JUMPI DUP1 PUSH4 0xC54E1D38 EQ PUSH2 0xA20 JUMPI DUP1 PUSH4 0xC838889E EQ PUSH2 0x9F9 JUMPI DUP1 PUSH4 0xD855DC7E EQ PUSH2 0x9DD JUMPI DUP1 PUSH4 0xDCEFE5B6 EQ PUSH2 0x3C1 JUMPI DUP1 PUSH4 0xE7B0444C EQ PUSH2 0x3A3 JUMPI DUP1 PUSH4 0xE7CA44EF EQ PUSH2 0x37E JUMPI DUP1 PUSH4 0xF2C75FA0 EQ PUSH2 0x33F JUMPI DUP1 PUSH4 0xF2FDE38B EQ PUSH2 0x2B6 JUMPI DUP1 PUSH4 0xF81BDC23 EQ PUSH2 0x27C JUMPI DUP1 PUSH4 0xF896ACC7 EQ PUSH2 0x1C7 JUMPI PUSH4 0xFB28CEB2 EQ PUSH2 0x195 JUMPI CODESIZE PUSH2 0xF JUMP JUMPDEST CALLVALUE PUSH2 0x1C2 JUMPI PUSH1 0x20 CALLDATASIZE PUSH1 0x3 NOT ADD SLT PUSH2 0x1C2 JUMPI PUSH1 0x20 PUSH2 0x1B8 PUSH2 0x1B3 PUSH2 0x1623 JUMP JUMPDEST PUSH2 0x1EA5 JUMP JUMPDEST PUSH1 0x40 MLOAD SWAP1 ISZERO ISZERO DUP2 MSTORE RETURN JUMPDEST PUSH1 0x0 DUP1 REVERT JUMPDEST CALLVALUE PUSH2 0x1C2 JUMPI PUSH1 0x20 CALLDATASIZE PUSH1 0x3 NOT ADD SLT PUSH2 0x1C2 JUMPI PUSH1 0x4 CALLDATALOAD PUSH2 0x1E3 PUSH2 0x20FE JUMP JUMPDEST PUSH1 0x6 SLOAD SWAP1 PUSH2 0x1FB PUSH2 0x1F2 PUSH2 0x1D91 JUMP JUMPDEST DUP4 DUP4 EQ ISZERO PUSH2 0x1BBF JUMP JUMPDEST PUSH2 0x22F PUSH2 0x206 PUSH2 0x1DCC JUMP JUMPDEST PUSH32 0x0 DUP4 LT ISZERO PUSH2 0x1BBF JUMP JUMPDEST PUSH2 0x245 PUSH2 0x23A PUSH2 0x1E07 JUMP JUMPDEST PUSH2 0x7D0 DUP4 GT ISZERO PUSH2 0x1BBF JUMP JUMPDEST DUP1 PUSH1 0x6 SSTORE PUSH1 0x40 MLOAD SWAP2 DUP3 MSTORE PUSH1 0x20 DUP3 ADD MSTORE PUSH32 0x701CAA0F8ADA7952FB1D301BDFC04ED8B66396FE0181A18D0F2FE16EA0AF1547 PUSH1 0x40 CALLER SWAP3 LOG2 STOP JUMPDEST CALLVALUE PUSH2 0x1C2 JUMPI PUSH1 0x20 CALLDATASIZE PUSH1 0x3 NOT ADD SLT PUSH2 0x1C2 JUMPI PUSH1 0x1 PUSH1 0x1 PUSH1 0xA0 SHL SUB PUSH2 0x29D PUSH2 0x1623 JUMP JUMPDEST AND PUSH1 0x0 MSTORE PUSH1 0x5 PUSH1 0x20 MSTORE PUSH1 0x20 PUSH1 0x40 PUSH1 0x0 KECCAK256 SLOAD PUSH1 0x40 MLOAD SWAP1 DUP2 MSTORE RETURN JUMPDEST CALLVALUE PUSH2 0x1C2 JUMPI PUSH1 0x20 CALLDATASIZE PUSH1 0x3 NOT ADD SLT PUSH2 0x1C2 JUMPI PUSH2 0x2CF PUSH2 0x1623 JUMP JUMPDEST PUSH2 0x2D7 PUSH2 0x20FE JUMP JUMPDEST PUSH1 0x1 PUSH1 0x1 PUSH1 0xA0 SHL SUB AND DUP1 ISZERO PUSH2 0x329 JUMPI PUSH1 0x0 DUP1 SLOAD PUSH1 0x1 PUSH1 0x1 PUSH1 0xA0 SHL SUB NOT DUP2 AND DUP4 OR DUP3 SSTORE PUSH1 0x1 PUSH1 0x1 PUSH1 0xA0 SHL SUB AND SWAP1 PUSH32 0x8BE0079C531659141344CD1FD0A4F28419497F9722A3DAAFE3B4186F6B6457E0 SWAP1 DUP1 LOG3 STOP JUMPDEST PUSH4 0x1E4FBDF7 PUSH1 0xE0 SHL PUSH1 0x0 MSTORE PUSH1 0x0 PUSH1 0x4 MSTORE PUSH1 0x24 PUSH1 0x0 REVERT JUMPDEST CALLVALUE PUSH2 0x1C2 JUMPI PUSH1 0x20 CALLDATASIZE PUSH1 0x3 NOT ADD SLT PUSH2 0x1C2 JUMPI PUSH2 0x35B PUSH1 0x4 CALLDATALOAD PUSH2 0x1E36 JUMP JUMPDEST SWAP1 PUSH2 0x37A PUSH1 0x40 MLOAD SWAP3 DUP4 SWAP3 ISZERO ISZERO DUP4 MSTORE PUSH1 0x40 PUSH1 0x20 DUP5 ADD MSTORE PUSH1 0x40 DUP4 ADD SWAP1 PUSH2 0x16AD JUMP JUMPDEST SUB SWAP1 RETURN JUMPDEST CALLVALUE PUSH2 0x1C2 JUMPI PUSH1 0x0 CALLDATASIZE PUSH1 0x3 NOT ADD SLT PUSH2 0x1C2 JUMPI PUSH1 0x20 PUSH1 0x40 MLOAD PUSH10 0x21E19E0C9BAB2400000 DUP2 MSTORE RETURN JUMPDEST CALLVALUE PUSH2 0x1C2 JUMPI PUSH1 0x0 CALLDATASIZE PUSH1 0x3 NOT ADD SLT PUSH2 0x1C2 JUMPI PUSH1 0x20 PUSH1 0x6 SLOAD PUSH1 0x40 MLOAD SWAP1 DUP2 MSTORE RETURN JUMPDEST CALLVALUE PUSH2 0x1C2 JUMPI PUSH2 0x3CF CALLDATASIZE PUSH2 0x1639 JUMP JUMPDEST SWAP3 SWAP1 SWAP3 CALLER PUSH1 0x0 MSTORE PUSH1 0x4 PUSH1 0x20 MSTORE PUSH1 0x40 PUSH1 0x0 KECCAK256 SLOAD PUSH1 0x3C DUP2 ADD DUP1 SWAP2 GT PUSH2 0x929 JUMPI PUSH2 0x3F8 SWAP1 TIMESTAMP LT ISZERO PUSH2 0x19E4 JUMP JUMPDEST PUSH2 0x406 PUSH1 0x6 SLOAD DUP3 GT ISZERO PUSH2 0x1A21 JUMP JUMPDEST DUP1 ISZERO PUSH2 0x9B5 JUMPI SWAP3 JUMPDEST PUSH2 0x43A PUSH32 0x0 DUP6 LT ISZERO PUSH2 0x1A61 JUMP JUMPDEST PUSH1 0x2 SLOAD PUSH1 0x40 DUP1 MLOAD PUSH4 0xFA67079 PUSH1 0xE2 SHL DUP2 MSTORE PUSH1 0x1 PUSH1 0x1 PUSH1 0xA0 SHL SUB DUP6 DUP2 AND PUSH1 0x4 DUP4 ADD DUP2 SWAP1 MSTORE SWAP8 SWAP4 SWAP2 SWAP3 SWAP2 DUP4 SWAP2 PUSH1 0x24 SWAP2 DUP4 SWAP2 AND GAS STATICCALL DUP1 ISZERO PUSH2 0x7B8 JUMPI PUSH1 0x0 SWAP2 DUP3 SWAP2 PUSH2 0x984 JUMPI JUMPDEST POP DUP2 DUP7 GT PUSH2 0x93F JUMPI PUSH1 0x1 SLOAD PUSH2 0x4A4 SWAP1 PUSH2 0x49F SWAP1 DUP9 SWAP1 PUSH1 0x1 PUSH1 0x1 PUSH1 0xA0 SHL SUB AND PUSH2 0x1C86 JUMP JUMPDEST PUSH2 0x1AEE JUMP JUMPDEST PUSH1 0x5 DUP3 MUL SWAP1 DUP3 DUP3 DIV PUSH1 0x5 EQ DUP4 ISZERO OR ISZERO PUSH2 0x929 JUMPI PUSH2 0x50A SWAP3 PUSH2 0x4CD PUSH1 0x64 PUSH2 0x4D3 SWAP5 DIV DUP10 GT ISZERO PUSH2 0x1B3A JUMP JUMPDEST DUP8 PUSH2 0x170E JUMP JUMPDEST SWAP3 PUSH2 0x503 PUSH2 0x2710 PUSH2 0x4FC PUSH2 0x4F5 DUP3 PUSH2 0x4ED PUSH1 0x3 SLOAD DUP11 PUSH2 0x16EE JUMP JUMPDEST DIV DUP1 SWAP9 PUSH2 0x1B77 JUMP JUMPDEST SWAP6 DUP7 PUSH2 0x16EE JUMP JUMPDEST DIV DUP5 PUSH2 0x1B77 JUMP JUMPDEST LT ISZERO PUSH2 0x1A21 JUMP JUMPDEST PUSH1 0x40 MLOAD PUSH4 0x70A08231 PUSH1 0xE0 SHL DUP2 MSTORE CALLER PUSH1 0x4 DUP3 ADD MSTORE PUSH1 0x20 DUP2 PUSH1 0x24 DUP2 DUP10 GAS STATICCALL DUP1 ISZERO PUSH2 0x7B8 JUMPI DUP6 SWAP1 PUSH1 0x0 SWAP1 PUSH2 0x8F3 JUMPI JUMPDEST PUSH2 0x542 SWAP3 POP LT ISZERO PUSH2 0x1BEF JUMP JUMPDEST PUSH1 0x40 MLOAD PUSH4 0x6EB1769F PUSH1 0xE1 SHL DUP2 MSTORE CALLER PUSH1 0x4 DUP3 ADD MSTORE ADDRESS PUSH1 0x24 DUP3 ADD MSTORE PUSH1 0x20 DUP2 PUSH1 0x44 DUP2 DUP10 GAS STATICCALL DUP1 ISZERO PUSH2 0x7B8 JUMPI DUP6 SWAP2 PUSH1 0x0 SWAP2 PUSH2 0x8BE JUMPI JUMPDEST POP LT PUSH2 0x86D JUMPI PUSH2 0x586 DUP5 ADDRESS CALLER DUP9 PUSH2 0x1EFD JUMP JUMPDEST CALLER ISZERO PUSH2 0x834 JUMPI DUP1 ISZERO PUSH2 0x7FE JUMPI PUSH1 0x1 SLOAD PUSH1 0x1 PUSH1 0x1 PUSH1 0xA0 SHL SUB AND PUSH2 0x5A7 DUP2 PUSH2 0x1EA5 JUMP JUMPDEST ISZERO PUSH2 0x6C5 JUMPI POP PUSH2 0x68E DUP3 PUSH1 0x0 DUP1 MLOAD PUSH1 0x20 PUSH2 0x21CF DUP4 CODECOPY DUP2 MLOAD SWAP2 MSTORE SWAP5 PUSH2 0x657 SELFBALANCE PUSH2 0x5D9 PUSH2 0x5D0 PUSH2 0x1B84 JUMP JUMPDEST DUP8 DUP4 LT ISZERO PUSH2 0x1BBF JUMP JUMPDEST PUSH2 0x646 PUSH1 0x0 DUP1 DUP1 DUP1 DUP11 CALLER GAS CALL PUSH2 0x5ED PUSH2 0x1C46 JUMP JUMPDEST POP PUSH1 0x40 MLOAD SWAP1 PUSH2 0x5FD PUSH1 0x60 DUP4 PUSH2 0x1AA0 JUMP JUMPDEST PUSH1 0x31 DUP3 MSTORE PUSH32 0x4661696C656420746F2067657420434F52414C20746F6B656E732066726F6D20 PUSH1 0x20 DUP4 ADD MSTORE PUSH17 0x2634B8BAB4B234BA3C9026B0B730B3B2B9 PUSH1 0x79 SHL PUSH1 0x40 DUP4 ADD MSTORE PUSH2 0x1BBF JUMP JUMPDEST PUSH2 0x651 DUP7 SELFBALANCE SWAP3 PUSH2 0x1B77 JUMP JUMPDEST EQ PUSH2 0x2127 JUMP JUMPDEST PUSH1 0x40 MLOAD DUP5 DUP2 MSTORE TIMESTAMP PUSH1 0x20 DUP3 ADD MSTORE PUSH32 0x997D41A3A2D02DDF7873EEEAA626FCC250EA57A73E1DAD920F8656DF12FCD9AF PUSH1 0x40 CALLER SWAP3 LOG2 PUSH2 0x1F83 JUMP JUMPDEST CALLER PUSH1 0x0 MSTORE PUSH1 0x4 PUSH1 0x20 MSTORE TIMESTAMP PUSH1 0x40 PUSH1 0x0 KECCAK256 SSTORE PUSH2 0x6C0 PUSH1 0x40 MLOAD SWAP3 DUP4 SWAP3 CALLER SWAP7 DUP5 PUSH1 0x40 SWAP2 SWAP5 SWAP4 SWAP3 PUSH1 0x60 DUP3 ADD SWAP6 DUP3 MSTORE PUSH1 0x20 DUP3 ADD MSTORE ADD MSTORE JUMP JUMPDEST SUB SWAP1 LOG3 STOP JUMPDEST PUSH1 0x40 MLOAD PUSH4 0x70A08231 PUSH1 0xE0 SHL DUP2 MSTORE ADDRESS PUSH1 0x4 DUP3 ADD MSTORE PUSH1 0x20 DUP2 PUSH1 0x24 DUP2 DUP6 GAS STATICCALL SWAP1 DUP2 ISZERO PUSH2 0x7B8 JUMPI DUP4 SWAP1 PUSH1 0x0 SWAP3 PUSH2 0x7C4 JUMPI JUMPDEST POP PUSH2 0x715 SWAP1 PUSH1 0x24 SWAP4 PUSH2 0x70E PUSH2 0x705 PUSH2 0x1B84 JUMP JUMPDEST DUP4 DUP7 LT ISZERO PUSH2 0x1BBF JUMP JUMPDEST CALLER SWAP1 PUSH2 0x1F48 JUMP JUMPDEST PUSH1 0x1 SLOAD PUSH1 0x40 MLOAD PUSH4 0x70A08231 PUSH1 0xE0 SHL DUP2 MSTORE ADDRESS PUSH1 0x4 DUP3 ADD MSTORE SWAP3 PUSH1 0x20 SWAP2 DUP5 SWAP2 SWAP1 DUP3 SWAP1 PUSH1 0x1 PUSH1 0x1 PUSH1 0xA0 SHL SUB AND GAS STATICCALL SWAP2 DUP3 ISZERO PUSH2 0x7B8 JUMPI PUSH1 0x0 SWAP3 PUSH2 0x776 JUMPI JUMPDEST POP PUSH1 0x0 DUP1 MLOAD PUSH1 0x20 PUSH2 0x21CF DUP4 CODECOPY DUP2 MLOAD SWAP2 MSTORE SWAP5 PUSH2 0x771 PUSH2 0x68E SWAP4 PUSH2 0x651 DUP7 DUP9 SWAP6 PUSH2 0x1B77 JUMP JUMPDEST PUSH2 0x657 JUMP JUMPDEST SWAP2 POP PUSH1 0x20 DUP3 RETURNDATASIZE PUSH1 0x20 GT PUSH2 0x7B0 JUMPI JUMPDEST DUP2 PUSH2 0x791 PUSH1 0x20 SWAP4 DUP4 PUSH2 0x1AA0 JUMP JUMPDEST DUP2 ADD SUB SLT PUSH2 0x1C2 JUMPI SWAP1 MLOAD SWAP1 PUSH1 0x0 DUP1 MLOAD PUSH1 0x20 PUSH2 0x21CF DUP4 CODECOPY DUP2 MLOAD SWAP2 MSTORE PUSH2 0x74E JUMP JUMPDEST RETURNDATASIZE SWAP2 POP PUSH2 0x784 JUMP JUMPDEST PUSH1 0x40 MLOAD RETURNDATASIZE PUSH1 0x0 DUP3 RETURNDATACOPY RETURNDATASIZE SWAP1 REVERT JUMPDEST SWAP2 SWAP1 POP PUSH1 0x20 DUP3 RETURNDATASIZE PUSH1 0x20 GT PUSH2 0x7F6 JUMPI JUMPDEST DUP2 PUSH2 0x7E0 PUSH1 0x20 SWAP4 DUP4 PUSH2 0x1AA0 JUMP JUMPDEST DUP2 ADD SUB SLT PUSH2 0x7F3 JUMPI POP MLOAD DUP3 PUSH2 0x715 PUSH2 0x6F2 JUMP JUMPDEST DUP1 REVERT JUMPDEST RETURNDATASIZE SWAP2 POP PUSH2 0x7D3 JUMP JUMPDEST PUSH1 0x40 MLOAD PUSH3 0x461BCD PUSH1 0xE5 SHL DUP2 MSTORE PUSH1 0x20 PUSH1 0x4 DUP3 ADD MSTORE PUSH1 0xE PUSH1 0x24 DUP3 ADD MSTORE PUSH14 0x125B9D985B1A5908185B5BDD5B9D PUSH1 0x92 SHL PUSH1 0x44 DUP3 ADD MSTORE PUSH1 0x64 SWAP1 REVERT JUMPDEST PUSH1 0x40 MLOAD PUSH3 0x461BCD PUSH1 0xE5 SHL DUP2 MSTORE PUSH1 0x20 PUSH1 0x4 DUP3 ADD MSTORE PUSH1 0x11 PUSH1 0x24 DUP3 ADD MSTORE PUSH17 0x125B9D985B1A59081C9958DA5C1A595B9D PUSH1 0x7A SHL PUSH1 0x44 DUP3 ADD MSTORE PUSH1 0x64 SWAP1 REVERT JUMPDEST PUSH1 0x40 MLOAD PUSH3 0x461BCD PUSH1 0xE5 SHL DUP2 MSTORE PUSH1 0x20 PUSH1 0x4 DUP3 ADD MSTORE PUSH1 0x24 DUP1 DUP3 ADD MSTORE PUSH32 0x496E73756666696369656E742063726561746F7220746F6B656E20616C6C6F77 PUSH1 0x44 DUP3 ADD MSTORE PUSH4 0x616E6365 PUSH1 0xE0 SHL PUSH1 0x64 DUP3 ADD MSTORE PUSH1 0x84 SWAP1 REVERT JUMPDEST SWAP2 POP POP PUSH1 0x20 DUP2 RETURNDATASIZE PUSH1 0x20 GT PUSH2 0x8EB JUMPI JUMPDEST DUP2 PUSH2 0x8DA PUSH1 0x20 SWAP4 DUP4 PUSH2 0x1AA0 JUMP JUMPDEST DUP2 ADD SUB SLT PUSH2 0x1C2 JUMPI DUP5 SWAP1 MLOAD DUP8 PUSH2 0x574 JUMP JUMPDEST RETURNDATASIZE SWAP2 POP PUSH2 0x8CD JUMP JUMPDEST POP POP PUSH1 0x20 DUP2 RETURNDATASIZE PUSH1 0x20 GT PUSH2 0x921 JUMPI JUMPDEST DUP2 PUSH2 0x90E PUSH1 0x20 SWAP4 DUP4 PUSH2 0x1AA0 JUMP JUMPDEST DUP2 ADD SUB SLT PUSH2 0x1C2 JUMPI DUP5 PUSH2 0x542 SWAP2 MLOAD PUSH2 0x536 JUMP JUMPDEST RETURNDATASIZE SWAP2 POP PUSH2 0x901 JUMP JUMPDEST PUSH4 0x4E487B71 PUSH1 0xE0 SHL PUSH1 0x0 MSTORE PUSH1 0x11 PUSH1 0x4 MSTORE PUSH1 0x24 PUSH1 0x0 REVERT JUMPDEST PUSH1 0x40 MLOAD PUSH3 0x461BCD PUSH1 0xE5 SHL DUP2 MSTORE PUSH1 0x20 PUSH1 0x4 DUP3 ADD MSTORE PUSH1 0x1E PUSH1 0x24 DUP3 ADD MSTORE PUSH32 0x496E73756666696369656E742063726561746F72206C69717569646974790000 PUSH1 0x44 DUP3 ADD MSTORE PUSH1 0x64 SWAP1 REVERT JUMPDEST SWAP1 POP PUSH2 0x9A8 SWAP2 POP PUSH1 0x40 RETURNDATASIZE PUSH1 0x40 GT PUSH2 0x9AE JUMPI JUMPDEST PUSH2 0x9A0 DUP2 DUP4 PUSH2 0x1AA0 JUMP JUMPDEST DUP2 ADD SWAP1 PUSH2 0x1AD8 JUMP JUMPDEST DUP8 PUSH2 0x47C JUMP JUMPDEST POP RETURNDATASIZE PUSH2 0x996 JUMP JUMPDEST POP PUSH32 0x0 SWAP3 PUSH2 0x40E JUMP JUMPDEST CALLVALUE PUSH2 0x1C2 JUMPI PUSH1 0x0 CALLDATASIZE PUSH1 0x3 NOT ADD SLT PUSH2 0x1C2 JUMPI PUSH1 0x20 PUSH1 0x40 MLOAD PUSH1 0x5 DUP2 MSTORE RETURN JUMPDEST CALLVALUE PUSH2 0x1C2 JUMPI PUSH1 0x40 CALLDATASIZE PUSH1 0x3 NOT ADD SLT PUSH2 0x1C2 JUMPI PUSH1 0x20 PUSH2 0x1B8 PUSH2 0xA17 PUSH2 0x1623 JUMP JUMPDEST PUSH1 0x24 CALLDATALOAD SWAP1 PUSH2 0x1C86 JUMP JUMPDEST CALLVALUE PUSH2 0x1C2 JUMPI PUSH1 0x0 CALLDATASIZE PUSH1 0x3 NOT ADD SLT PUSH2 0x1C2 JUMPI PUSH1 0x60 PUSH1 0x6 SLOAD PUSH1 0x40 MLOAD SWAP1 PUSH32 0x0 DUP3 MSTORE PUSH1 0x20 DUP3 ADD MSTORE PUSH2 0x7D0 PUSH1 0x40 DUP3 ADD MSTORE RETURN JUMPDEST CALLVALUE PUSH2 0x1C2 JUMPI PUSH1 0x0 CALLDATASIZE PUSH1 0x3 NOT ADD SLT PUSH2 0x1C2 JUMPI PUSH1 0x1 SLOAD PUSH1 0x40 MLOAD PUSH1 0x1 PUSH1 0x1 PUSH1 0xA0 SHL SUB SWAP1 SWAP2 AND DUP2 MSTORE PUSH1 0x20 SWAP1 RETURN JUMPDEST CALLVALUE PUSH2 0x1C2 JUMPI PUSH1 0x0 CALLDATASIZE PUSH1 0x3 NOT ADD SLT PUSH2 0x1C2 JUMPI PUSH1 0x20 SELFBALANCE PUSH1 0x40 MLOAD SWAP1 DUP2 MSTORE RETURN JUMPDEST CALLVALUE PUSH2 0x1C2 JUMPI PUSH1 0x40 CALLDATASIZE PUSH1 0x3 NOT ADD SLT PUSH2 0x1C2 JUMPI PUSH1 0x24 CALLDATALOAD PUSH8 0xFFFFFFFFFFFFFFFF DUP2 GT PUSH2 0x1C2 JUMPI CALLDATASIZE PUSH1 0x23 DUP3 ADD SLT ISZERO PUSH2 0x1C2 JUMPI DUP1 PUSH1 0x4 ADD CALLDATALOAD PUSH8 0xFFFFFFFFFFFFFFFF DUP2 GT PUSH2 0x1C2 JUMPI CALLDATASIZE PUSH1 0x24 DUP3 PUSH1 0x5 SHL DUP5 ADD ADD GT PUSH2 0x1C2 JUMPI PUSH1 0x2 DUP2 LT PUSH2 0xC02 JUMPI PUSH1 0x2 SLOAD PUSH1 0x1 PUSH1 0x1 PUSH1 0xA0 SHL SUB AND SWAP2 PUSH1 0x0 NOT DUP3 ADD DUP3 DUP2 GT SWAP3 PUSH1 0x0 SWAP3 SWAP1 SWAP2 PUSH1 0x4 CALLDATALOAD DUP6 JUMPDEST PUSH2 0x929 JUMPI DUP2 DUP6 LT ISZERO PUSH2 0xBDE JUMPI PUSH1 0x1 DUP6 ADD DUP1 DUP7 GT PUSH2 0x929 JUMPI DUP5 DUP2 LT ISZERO PUSH2 0xBC8 JUMPI PUSH1 0x24 SWAP1 PUSH1 0x5 SHL DUP5 ADD ADD CALLDATALOAD SWAP1 PUSH1 0x1 DUP1 PUSH1 0xA0 SHL SUB DUP3 AND DUP1 SWAP3 SUB PUSH2 0x1C2 JUMPI PUSH1 0x40 MLOAD SWAP2 PUSH4 0xFA67079 PUSH1 0xE2 SHL DUP4 MSTORE PUSH1 0x4 DUP4 ADD MSTORE PUSH1 0x40 DUP3 PUSH1 0x24 DUP2 DUP12 GAS STATICCALL DUP1 ISZERO PUSH2 0x7B8 JUMPI PUSH1 0x1 SWAP3 PUSH2 0xB9D SWAP3 PUSH1 0x0 SWAP2 DUP3 SWAP4 PUSH2 0xBA6 JUMPI JUMPDEST POP PUSH2 0x170E JUMP JUMPDEST SWAP5 ADD SWAP4 DUP6 PUSH2 0xB2A JUMP JUMPDEST SWAP1 SWAP3 POP PUSH2 0xBC1 SWAP2 POP PUSH1 0x40 RETURNDATASIZE DUP2 GT PUSH2 0x9AE JUMPI PUSH2 0x9A0 DUP2 DUP4 PUSH2 0x1AA0 JUMP JUMPDEST SWAP2 DUP12 PUSH2 0xB97 JUMP JUMPDEST PUSH4 0x4E487B71 PUSH1 0xE0 SHL PUSH1 0x0 MSTORE PUSH1 0x32 PUSH1 0x4 MSTORE PUSH1 0x24 PUSH1 0x0 REVERT JUMPDEST PUSH2 0xBFA PUSH1 0x20 SWAP2 PUSH2 0x2710 PUSH2 0xBF3 PUSH1 0x3 SLOAD DUP4 PUSH2 0x16EE JUMP JUMPDEST DIV SWAP1 PUSH2 0x1B77 JUMP JUMPDEST PUSH1 0x40 MLOAD SWAP1 DUP2 MSTORE RETURN JUMPDEST PUSH1 0x40 MLOAD PUSH3 0x461BCD PUSH1 0xE5 SHL DUP2 MSTORE PUSH1 0x20 PUSH1 0x4 DUP3 ADD MSTORE PUSH1 0x13 PUSH1 0x24 DUP3 ADD MSTORE PUSH19 0x92DCECC2D8D2C840E0C2E8D040D8CADCCEE8D PUSH1 0x6B SHL PUSH1 0x44 DUP3 ADD MSTORE PUSH1 0x64 SWAP1 REVERT JUMPDEST PUSH2 0x168B JUMP JUMPDEST CALLVALUE PUSH2 0x1C2 JUMPI PUSH1 0x20 CALLDATASIZE PUSH1 0x3 NOT ADD SLT PUSH2 0x1C2 JUMPI PUSH1 0x20 PUSH1 0x4 CALLDATALOAD PUSH7 0x38D7EA4C68000 DUP2 LT ISZERO SWAP1 DUP2 PUSH2 0xC75 JUMPI JUMPDEST POP PUSH1 0x40 MLOAD SWAP1 ISZERO ISZERO DUP2 MSTORE RETURN JUMPDEST PUSH9 0x3635C9ADC5DEA00000 SWAP2 POP GT ISZERO DUP3 PUSH2 0xC6A JUMP JUMPDEST PUSH2 0x1667 JUMP JUMPDEST CALLVALUE PUSH2 0x1C2 JUMPI PUSH1 0x0 CALLDATASIZE PUSH1 0x3 NOT ADD SLT PUSH2 0x1C2 JUMPI PUSH1 0x0 SLOAD PUSH1 0x40 MLOAD PUSH1 0x1 PUSH1 0x1 PUSH1 0xA0 SHL SUB SWAP1 SWAP2 AND DUP2 MSTORE PUSH1 0x20 SWAP1 RETURN JUMPDEST CALLVALUE PUSH2 0x1C2 JUMPI PUSH1 0x0 CALLDATASIZE PUSH1 0x3 NOT ADD SLT PUSH2 0x1C2 JUMPI PUSH1 0x20 PUSH1 0x40 MLOAD PUSH2 0x7D0 DUP2 MSTORE RETURN JUMPDEST CALLVALUE PUSH2 0x1C2 JUMPI PUSH1 0x0 CALLDATASIZE PUSH1 0x3 NOT ADD SLT PUSH2 0x1C2 JUMPI PUSH1 0x20 PUSH1 0x40 MLOAD PUSH32 0x0 DUP2 MSTORE RETURN JUMPDEST CALLVALUE PUSH2 0x1C2 JUMPI PUSH1 0x0 CALLDATASIZE PUSH1 0x3 NOT ADD SLT PUSH2 0x1C2 JUMPI PUSH2 0xD28 PUSH2 0x20FE JUMP JUMPDEST PUSH1 0x0 DUP1 SLOAD PUSH1 0x1 PUSH1 0x1 PUSH1 0xA0 SHL SUB NOT DUP2 AND DUP3 SSTORE PUSH1 0x1 PUSH1 0x1 PUSH1 0xA0 SHL SUB AND PUSH32 0x8BE0079C531659141344CD1FD0A4F28419497F9722A3DAAFE3B4186F6B6457E0 DUP3 DUP1 LOG3 STOP JUMPDEST CALLVALUE PUSH2 0x1C2 JUMPI PUSH1 0x0 CALLDATASIZE PUSH1 0x3 NOT ADD SLT PUSH2 0x1C2 JUMPI PUSH1 0x1 SLOAD PUSH1 0x20 SWAP1 PUSH2 0x1B8 SWAP1 PUSH1 0x1 PUSH1 0x1 PUSH1 0xA0 SHL SUB AND PUSH2 0x1EA5 JUMP JUMPDEST CALLVALUE PUSH2 0x1C2 JUMPI PUSH1 0x0 CALLDATASIZE PUSH1 0x3 NOT ADD SLT PUSH2 0x1C2 JUMPI PUSH1 0x20 PUSH1 0x3 SLOAD PUSH1 0x40 MLOAD SWAP1 DUP2 MSTORE RETURN JUMPDEST CALLVALUE PUSH2 0x1C2 JUMPI PUSH1 0x0 CALLDATASIZE PUSH1 0x3 NOT ADD SLT PUSH2 0x1C2 JUMPI PUSH1 0x2 SLOAD PUSH1 0x40 MLOAD PUSH1 0x1 PUSH1 0x1 PUSH1 0xA0 SHL SUB SWAP1 SWAP2 AND DUP2 MSTORE PUSH1 0x20 SWAP1 RETURN JUMPDEST CALLVALUE PUSH2 0x1C2 JUMPI PUSH1 0x20 CALLDATASIZE PUSH1 0x3 NOT ADD SLT PUSH2 0x1C2 JUMPI PUSH1 0x1 PUSH1 0x1 PUSH1 0xA0 SHL SUB PUSH2 0xDF9 PUSH2 0x1623 JUMP JUMPDEST AND PUSH1 0x0 MSTORE PUSH1 0x5 PUSH1 0x20 MSTORE PUSH1 0x40 DUP1 PUSH1 0x0 KECCAK256 SLOAD PUSH9 0x3635C9ADC5DEA00000 DUP2 LT ISZERO SWAP1 DUP2 PUSH1 0x0 EQ PUSH2 0xE2C JUMPI JUMPDEST DUP3 MLOAD SWAP2 DUP3 MSTORE PUSH1 0x20 DUP3 ADD MSTORE RETURN JUMPDEST POP PUSH1 0x0 PUSH2 0xE20 JUMP JUMPDEST CALLVALUE PUSH2 0x1C2 JUMPI PUSH1 0x40 CALLDATASIZE PUSH1 0x3 NOT ADD SLT PUSH2 0x1C2 JUMPI PUSH2 0xE4D PUSH2 0x1623 JUMP JUMPDEST PUSH1 0x24 CALLDATALOAD PUSH2 0xE58 PUSH2 0x20FE JUMP JUMPDEST PUSH1 0x1 PUSH1 0x1 PUSH1 0xA0 SHL SUB DUP3 AND SWAP2 DUP3 ISZERO PUSH2 0x10E9 JUMPI DUP2 ISZERO PUSH2 0x10A4 JUMPI DUP3 PUSH1 0x0 MSTORE PUSH1 0x5 PUSH1 0x20 MSTORE DUP2 PUSH1 0x40 PUSH1 0x0 KECCAK256 SLOAD LT PUSH2 0x105F JUMPI PUSH10 0x21E19E0C9BAB2400000 DUP3 GT PUSH2 0x1021 JUMPI PUSH2 0xEB9 SWAP1 DUP4 PUSH1 0x0 MSTORE PUSH1 0x5 PUSH1 0x20 MSTORE PUSH1 0x40 PUSH1 0x0 KECCAK256 PUSH2 0xEB2 DUP5 DUP3 SLOAD PUSH2 0x1B77 JUMP JUMPDEST SWAP1 SSTORE PUSH2 0x1EA5 JUMP JUMPDEST ISZERO PUSH2 0xF5A JUMPI PUSH2 0xED3 DUP2 SELFBALANCE LT ISZERO PUSH2 0xECD PUSH2 0x1B84 JUMP JUMPDEST SWAP1 PUSH2 0x1BBF JUMP JUMPDEST PUSH1 0x0 DUP1 DUP1 DUP1 DUP5 CALLER GAS CALL PUSH2 0xEE4 PUSH2 0x1C46 JUMP JUMPDEST POP ISZERO PUSH2 0xF1D JUMPI PUSH1 0x40 PUSH32 0xA423987BC38EFF6F10DF0F3A2BC41F3394177D8602562DC2F98BAABEC8C811AB SWAP2 JUMPDEST DUP2 MLOAD SWAP1 DUP2 MSTORE TIMESTAMP PUSH1 0x20 DUP3 ADD MSTORE LOG2 STOP JUMPDEST PUSH1 0x40 MLOAD PUSH3 0x461BCD PUSH1 0xE5 SHL DUP2 MSTORE PUSH1 0x20 PUSH1 0x4 DUP3 ADD MSTORE PUSH1 0x15 PUSH1 0x24 DUP3 ADD MSTORE PUSH21 0x10D3D49053081D1C985B9CD9995C8819985A5B1959 PUSH1 0x5A SHL PUSH1 0x44 DUP3 ADD MSTORE PUSH1 0x64 SWAP1 REVERT JUMPDEST PUSH1 0x40 MLOAD PUSH4 0x70A08231 PUSH1 0xE0 SHL DUP2 MSTORE ADDRESS PUSH1 0x4 DUP3 ADD MSTORE PUSH1 0x20 DUP2 PUSH1 0x24 DUP2 DUP7 GAS STATICCALL SWAP1 DUP2 ISZERO PUSH2 0x7B8 JUMPI PUSH1 0x0 SWAP2 PUSH2 0xFCF JUMPI JUMPDEST POP DUP2 PUSH2 0xFBF PUSH1 0x40 SWAP3 PUSH32 0xA423987BC38EFF6F10DF0F3A2BC41F3394177D8602562DC2F98BAABEC8C811AB SWAP5 PUSH2 0xFB7 PUSH2 0x1B84 JUMP JUMPDEST SWAP2 LT ISZERO PUSH2 0x1BBF JUMP JUMPDEST PUSH2 0xFCA DUP2 CALLER DUP7 PUSH2 0x1F48 JUMP JUMPDEST PUSH2 0xF0F JUMP JUMPDEST SWAP1 POP PUSH1 0x20 DUP2 RETURNDATASIZE PUSH1 0x20 GT PUSH2 0x1019 JUMPI JUMPDEST DUP2 PUSH2 0xFEA PUSH1 0x20 SWAP4 DUP4 PUSH2 0x1AA0 JUMP JUMPDEST DUP2 ADD SUB SLT PUSH2 0x1C2 JUMPI MLOAD PUSH32 0xA423987BC38EFF6F10DF0F3A2BC41F3394177D8602562DC2F98BAABEC8C811AB PUSH2 0xF85 JUMP JUMPDEST RETURNDATASIZE SWAP2 POP PUSH2 0xFDD JUMP JUMPDEST PUSH1 0x40 MLOAD PUSH3 0x461BCD PUSH1 0xE5 SHL DUP2 MSTORE PUSH1 0x20 PUSH1 0x4 DUP3 ADD MSTORE PUSH1 0x16 PUSH1 0x24 DUP3 ADD MSTORE PUSH22 0x416D6F756E742065786365656473206D6178696D756D PUSH1 0x50 SHL PUSH1 0x44 DUP3 ADD MSTORE PUSH1 0x64 SWAP1 REVERT JUMPDEST PUSH1 0x40 MLOAD PUSH3 0x461BCD PUSH1 0xE5 SHL DUP2 MSTORE PUSH1 0x20 PUSH1 0x4 DUP3 ADD MSTORE PUSH1 0x18 PUSH1 0x24 DUP3 ADD MSTORE PUSH32 0x496E73756666696369656E742073746F72656420666565730000000000000000 PUSH1 0x44 DUP3 ADD MSTORE PUSH1 0x64 SWAP1 REVERT JUMPDEST PUSH1 0x40 MLOAD PUSH3 0x461BCD PUSH1 0xE5 SHL DUP2 MSTORE PUSH1 0x20 PUSH1 0x4 DUP3 ADD MSTORE PUSH1 0x19 PUSH1 0x24 DUP3 ADD MSTORE PUSH32 0x496E76616C6964207769746864726177616C20616D6F756E7400000000000000 PUSH1 0x44 DUP3 ADD MSTORE PUSH1 0x64 SWAP1 REVERT JUMPDEST PUSH1 0x40 MLOAD PUSH3 0x461BCD PUSH1 0xE5 SHL DUP2 MSTORE PUSH1 0x20 PUSH1 0x4 DUP3 ADD MSTORE PUSH1 0x15 PUSH1 0x24 DUP3 ADD MSTORE PUSH21 0x496E76616C696420746F6B656E2061646472657373 PUSH1 0x58 SHL PUSH1 0x44 DUP3 ADD MSTORE PUSH1 0x64 SWAP1 REVERT JUMPDEST CALLVALUE PUSH2 0x1C2 JUMPI PUSH1 0x0 CALLDATASIZE PUSH1 0x3 NOT ADD SLT PUSH2 0x1C2 JUMPI PUSH1 0x20 PUSH1 0x40 MLOAD PUSH1 0x3C DUP2 MSTORE RETURN JUMPDEST PUSH2 0x114B CALLDATASIZE PUSH2 0x1639 JUMP JUMPDEST SWAP3 SWAP1 SWAP3 CALLER PUSH1 0x0 MSTORE PUSH1 0x4 PUSH1 0x20 MSTORE PUSH1 0x40 PUSH1 0x0 KECCAK256 SLOAD PUSH1 0x3C DUP2 ADD DUP1 SWAP2 GT PUSH2 0x929 JUMPI PUSH2 0x1174 SWAP1 TIMESTAMP LT ISZERO PUSH2 0x19E4 JUMP JUMPDEST PUSH2 0x1182 PUSH1 0x6 SLOAD DUP3 GT ISZERO PUSH2 0x1A21 JUMP JUMPDEST DUP1 ISZERO PUSH2 0x15A1 JUMPI SWAP2 JUMPDEST PUSH2 0x11B6 PUSH32 0x0 DUP5 LT ISZERO PUSH2 0x1A61 JUMP JUMPDEST PUSH1 0x2 SLOAD PUSH1 0x40 DUP1 MLOAD PUSH4 0xFA67079 PUSH1 0xE2 SHL DUP2 MSTORE PUSH1 0x1 PUSH1 0x1 PUSH1 0xA0 SHL SUB DUP6 DUP2 AND PUSH1 0x4 DUP4 ADD DUP2 SWAP1 MSTORE SWAP6 SWAP4 SWAP2 SWAP3 SWAP2 DUP4 SWAP2 PUSH1 0x24 SWAP2 DUP4 SWAP2 AND GAS STATICCALL DUP1 ISZERO PUSH2 0x7B8 JUMPI PUSH1 0x0 SWAP2 PUSH1 0x0 SWAP2 PUSH2 0x1580 JUMPI JUMPDEST POP PUSH1 0x1 SLOAD PUSH1 0x1 PUSH1 0x1 PUSH1 0xA0 SHL SUB AND SWAP2 PUSH2 0x1214 PUSH2 0x49F DUP7 DUP6 PUSH2 0x1C86 JUMP JUMPDEST DUP2 DUP6 GT PUSH2 0x153B JUMPI DUP1 ISZERO PUSH2 0x14F6 JUMPI PUSH1 0x5 DUP3 MUL SWAP1 DUP3 DUP3 DIV PUSH1 0x5 EQ DUP4 ISZERO OR ISZERO PUSH2 0x929 JUMPI PUSH2 0x1281 SWAP3 PUSH2 0x124A PUSH1 0x64 PUSH2 0x1250 SWAP5 DIV DUP9 GT ISZERO PUSH2 0x1B3A JUMP JUMPDEST DUP7 PUSH2 0x170E JUMP JUMPDEST SWAP7 PUSH2 0x503 PUSH2 0x2710 PUSH2 0x127A PUSH2 0x1273 DUP3 PUSH2 0x126B DUP14 PUSH1 0x3 SLOAD SWAP1 PUSH2 0x16EE JUMP JUMPDEST DIV DUP1 SWAP13 PUSH2 0x1B77 JUMP JUMPDEST SWAP10 DUP11 PUSH2 0x16EE JUMP JUMPDEST DIV DUP9 PUSH2 0x1B77 JUMP JUMPDEST PUSH2 0x128A DUP2 PUSH2 0x1EA5 JUMP JUMPDEST ISZERO PUSH2 0x13BA JUMPI POP DUP2 CALLVALUE SUB PUSH2 0x1366 JUMPI JUMPDEST PUSH1 0x40 MLOAD PUSH4 0x70A08231 PUSH1 0xE0 SHL DUP2 MSTORE ADDRESS PUSH1 0x4 DUP3 ADD MSTORE PUSH1 0x20 DUP2 PUSH1 0x24 DUP2 DUP8 GAS STATICCALL SWAP1 DUP2 ISZERO PUSH2 0x7B8 JUMPI PUSH1 0x0 SWAP2 PUSH2 0x1334 JUMPI JUMPDEST POP DUP6 PUSH2 0x12FA PUSH1 0x20 SWAP8 PUSH1 0x0 DUP1 MLOAD PUSH1 0x20 PUSH2 0x21CF DUP4 CODECOPY DUP2 MLOAD SWAP2 MSTORE SWAP5 PUSH2 0x12EA DUP10 PUSH2 0x1329 SWAP7 LT ISZERO PUSH2 0x1BEF JUMP JUMPDEST PUSH2 0x12F5 DUP10 CALLER DUP11 PUSH2 0x1F48 JUMP JUMPDEST PUSH2 0x1F83 JUMP JUMPDEST CALLER PUSH1 0x0 MSTORE PUSH1 0x4 DUP8 MSTORE TIMESTAMP PUSH1 0x40 PUSH1 0x0 KECCAK256 SSTORE PUSH1 0x40 MLOAD SWAP2 DUP3 SWAP2 DUP8 CALLER SWAP7 DUP5 PUSH1 0x40 SWAP2 SWAP5 SWAP4 SWAP3 PUSH1 0x60 DUP3 ADD SWAP6 DUP3 MSTORE PUSH1 0x20 DUP3 ADD MSTORE ADD MSTORE JUMP JUMPDEST SUB SWAP1 LOG3 PUSH1 0x40 MLOAD SWAP1 DUP2 MSTORE RETURN JUMPDEST SWAP1 POP PUSH1 0x20 DUP2 RETURNDATASIZE PUSH1 0x20 GT PUSH2 0x135E JUMPI JUMPDEST DUP2 PUSH2 0x134F PUSH1 0x20 SWAP4 DUP4 PUSH2 0x1AA0 JUMP JUMPDEST DUP2 ADD SUB SLT PUSH2 0x1C2 JUMPI MLOAD DUP6 PUSH2 0x12C3 JUMP JUMPDEST RETURNDATASIZE SWAP2 POP PUSH2 0x1342 JUMP JUMPDEST PUSH1 0x40 MLOAD PUSH3 0x461BCD PUSH1 0xE5 SHL DUP2 MSTORE PUSH1 0x20 PUSH1 0x4 DUP3 ADD MSTORE PUSH1 0x26 PUSH1 0x24 DUP3 ADD MSTORE PUSH32 0x4D7573742073656E6420657861637420616D6F756E74206F66206E6174697665 PUSH1 0x44 DUP3 ADD MSTORE PUSH6 0x810D3D49053 PUSH1 0xD2 SHL PUSH1 0x64 DUP3 ADD MSTORE PUSH1 0x84 SWAP1 REVERT JUMPDEST PUSH1 0x40 MLOAD PUSH4 0x70A08231 PUSH1 0xE0 SHL DUP2 MSTORE CALLER PUSH1 0x4 DUP3 ADD MSTORE PUSH1 0x20 DUP2 PUSH1 0x24 DUP2 DUP6 GAS STATICCALL DUP1 ISZERO PUSH2 0x7B8 JUMPI PUSH1 0x0 SWAP1 PUSH2 0x14C2 JUMPI JUMPDEST PUSH2 0x13F2 SWAP2 POP DUP5 PUSH2 0xFB7 PUSH2 0x1B84 JUMP JUMPDEST PUSH1 0x40 MLOAD PUSH4 0x6EB1769F PUSH1 0xE1 SHL DUP2 MSTORE CALLER PUSH1 0x4 DUP3 ADD MSTORE ADDRESS PUSH1 0x24 DUP3 ADD MSTORE PUSH1 0x20 DUP2 PUSH1 0x44 DUP2 DUP6 GAS STATICCALL DUP1 ISZERO PUSH2 0x7B8 JUMPI DUP5 SWAP2 PUSH1 0x0 SWAP2 PUSH2 0x148D JUMPI JUMPDEST POP LT PUSH2 0x143D JUMPI DUP3 PUSH2 0x1438 SWAP2 ADDRESS SWAP1 CALLER SWAP1 PUSH2 0x1EFD JUMP JUMPDEST PUSH2 0x1298 JUMP JUMPDEST PUSH1 0x40 MLOAD PUSH3 0x461BCD PUSH1 0xE5 SHL DUP2 MSTORE PUSH1 0x20 PUSH1 0x4 DUP3 ADD MSTORE PUSH1 0x22 PUSH1 0x24 DUP3 ADD MSTORE PUSH32 0x496E73756666696369656E7420434F52414C20746F6B656E20616C6C6F77616E PUSH1 0x44 DUP3 ADD MSTORE PUSH2 0x6365 PUSH1 0xF0 SHL PUSH1 0x64 DUP3 ADD MSTORE PUSH1 0x84 SWAP1 REVERT JUMPDEST SWAP2 POP POP PUSH1 0x20 DUP2 RETURNDATASIZE PUSH1 0x20 GT PUSH2 0x14BA JUMPI JUMPDEST DUP2 PUSH2 0x14A9 PUSH1 0x20 SWAP4 DUP4 PUSH2 0x1AA0 JUMP JUMPDEST DUP2 ADD SUB SLT PUSH2 0x1C2 JUMPI DUP4 SWAP1 MLOAD DUP9 PUSH2 0x1424 JUMP JUMPDEST RETURNDATASIZE SWAP2 POP PUSH2 0x149C JUMP JUMPDEST POP PUSH1 0x20 DUP2 RETURNDATASIZE PUSH1 0x20 GT PUSH2 0x14EE JUMPI JUMPDEST DUP2 PUSH2 0x14DC PUSH1 0x20 SWAP4 DUP4 PUSH2 0x1AA0 JUMP JUMPDEST DUP2 ADD SUB SLT PUSH2 0x1C2 JUMPI PUSH2 0x13F2 SWAP1 MLOAD PUSH2 0x13E4 JUMP JUMPDEST RETURNDATASIZE SWAP2 POP PUSH2 0x14CF JUMP JUMPDEST PUSH1 0x40 MLOAD PUSH3 0x461BCD PUSH1 0xE5 SHL DUP2 MSTORE PUSH1 0x20 PUSH1 0x4 DUP3 ADD MSTORE PUSH1 0x1A PUSH1 0x24 DUP3 ADD MSTORE PUSH32 0x4E6F2063726561746F7220746F6B656E206C6971756964697479000000000000 PUSH1 0x44 DUP3 ADD MSTORE PUSH1 0x64 SWAP1 REVERT JUMPDEST PUSH1 0x40 MLOAD PUSH3 0x461BCD PUSH1 0xE5 SHL DUP2 MSTORE PUSH1 0x20 PUSH1 0x4 DUP3 ADD MSTORE PUSH1 0x1A PUSH1 0x24 DUP3 ADD MSTORE PUSH32 0x496E73756666696369656E7420434F52414C20696E20706F6F6C000000000000 PUSH1 0x44 DUP3 ADD MSTORE PUSH1 0x64 SWAP1 REVERT JUMPDEST SWAP1 POP PUSH2 0x159B SWAP2 POP PUSH1 0x40 RETURNDATASIZE PUSH1 0x40 GT PUSH2 0x9AE JUMPI PUSH2 0x9A0 DUP2 DUP4 PUSH2 0x1AA0 JUMP JUMPDEST DUP8 PUSH2 0x11F9 JUMP JUMPDEST POP PUSH32 0x0 SWAP2 PUSH2 0x118A JUMP JUMPDEST CALLVALUE PUSH2 0x1C2 JUMPI PUSH1 0x60 CALLDATASIZE PUSH1 0x3 NOT ADD SLT PUSH2 0x1C2 JUMPI PUSH1 0x20 PUSH2 0xBFA PUSH1 0x44 CALLDATALOAD PUSH1 0x24 CALLDATALOAD PUSH1 0x4 CALLDATALOAD PUSH2 0x170E JUMP JUMPDEST CALLVALUE PUSH2 0x1C2 JUMPI PUSH1 0x20 CALLDATASIZE PUSH1 0x3 NOT ADD SLT PUSH2 0x1C2 JUMPI PUSH1 0x20 SWAP1 PUSH1 0x1 PUSH1 0x1 PUSH1 0xA0 SHL SUB PUSH2 0x1611 PUSH2 0x1623 JUMP JUMPDEST AND PUSH1 0x0 MSTORE PUSH1 0x4 DUP3 MSTORE PUSH1 0x40 PUSH1 0x0 KECCAK256 SLOAD DUP2 MSTORE RETURN JUMPDEST PUSH1 0x4 CALLDATALOAD SWAP1 PUSH1 0x1 PUSH1 0x1 PUSH1 0xA0 SHL SUB DUP3 AND DUP3 SUB PUSH2 0x1C2 JUMPI JUMP JUMPDEST PUSH1 0x80 SWAP1 PUSH1 0x3 NOT ADD SLT PUSH2 0x1C2 JUMPI PUSH1 0x4 CALLDATALOAD PUSH1 0x1 PUSH1 0x1 PUSH1 0xA0 SHL SUB DUP2 AND DUP2 SUB PUSH2 0x1C2 JUMPI SWAP1 PUSH1 0x24 CALLDATALOAD SWAP1 PUSH1 0x44 CALLDATALOAD SWAP1 PUSH1 0x64 CALLDATALOAD SWAP1 JUMP JUMPDEST CALLVALUE PUSH2 0x1C2 JUMPI PUSH1 0x0 CALLDATASIZE PUSH1 0x3 NOT ADD SLT PUSH2 0x1C2 JUMPI PUSH1 0x20 PUSH1 0x40 MLOAD PUSH9 0x3635C9ADC5DEA00000 DUP2 MSTORE RETURN JUMPDEST CALLVALUE PUSH2 0x1C2 JUMPI PUSH1 0x0 CALLDATASIZE PUSH1 0x3 NOT ADD SLT PUSH2 0x1C2 JUMPI PUSH1 0x20 PUSH1 0x40 MLOAD PUSH7 0x38D7EA4C68000 DUP2 MSTORE RETURN JUMPDEST SWAP2 SWAP1 DUP3 MLOAD SWAP3 DUP4 DUP3 MSTORE PUSH1 0x0 JUMPDEST DUP5 DUP2 LT PUSH2 0x16D9 JUMPI POP POP DUP3 PUSH1 0x0 PUSH1 0x20 DUP1 SWAP5 SWAP6 DUP5 ADD ADD MSTORE PUSH1 0x1F DUP1 NOT SWAP2 ADD AND ADD ADD SWAP1 JUMP JUMPDEST DUP1 PUSH1 0x20 DUP1 SWAP3 DUP5 ADD ADD MLOAD DUP3 DUP3 DUP7 ADD ADD MSTORE ADD PUSH2 0x16B8 JUMP JUMPDEST DUP2 DUP2 MUL SWAP3 SWAP2 DUP2 ISZERO SWAP2 DUP5 DIV EQ OR ISZERO PUSH2 0x929 JUMPI JUMP JUMPDEST SWAP2 SWAP1 DUP3 ADD DUP1 SWAP3 GT PUSH2 0x929 JUMPI JUMP JUMPDEST DUP1 ISZERO PUSH2 0x19A8 JUMPI DUP2 ISZERO SWAP2 DUP3 ISZERO DUP1 PUSH2 0x199F JUMPI JUMPDEST ISZERO PUSH2 0x1967 JUMPI DUP1 DUP3 GT PUSH2 0x1922 JUMPI PUSH7 0x38D7EA4C68000 DUP3 LT PUSH2 0x18E6 JUMPI PUSH31 0x41BBB2F80A4553F6C19AD51E8E40314CC63A07B3FEF911341FD6EAB024F994 DUP3 GT PUSH2 0x1895 JUMPI PUSH2 0x3E5 DUP3 MUL SWAP2 DUP3 DIV PUSH2 0x3E5 SUB PUSH2 0x929 JUMPI DUP2 ISZERO PUSH2 0x187F JUMPI DUP2 PUSH1 0x0 NOT DIV DUP5 GT PUSH2 0x1830 JUMPI PUSH2 0x178C PUSH1 0x0 SWAP5 DUP4 PUSH2 0x16EE JUMP JUMPDEST SWAP3 PUSH2 0x3E8 DUP3 MUL SWAP2 DUP3 DIV PUSH2 0x3E8 EQ OR ISZERO PUSH2 0x181C JUMPI SWAP1 PUSH2 0x17A9 SWAP2 PUSH2 0x1701 JUMP JUMPDEST SWAP2 DUP3 ISZERO PUSH2 0x1808 JUMPI POP DIV PUSH7 0x38D7EA4C68000 DUP2 LT PUSH2 0x17C3 JUMPI SWAP1 JUMP JUMPDEST PUSH1 0x40 MLOAD PUSH3 0x461BCD PUSH1 0xE5 SHL DUP2 MSTORE PUSH1 0x20 PUSH1 0x4 DUP3 ADD MSTORE PUSH1 0x19 PUSH1 0x24 DUP3 ADD MSTORE PUSH32 0x53776170206F75747075742062656C6F77206D696E696D756D00000000000000 PUSH1 0x44 DUP3 ADD MSTORE PUSH1 0x64 SWAP1 REVERT JUMPDEST PUSH4 0x4E487B71 PUSH1 0xE0 SHL DUP2 MSTORE PUSH1 0x12 PUSH1 0x4 MSTORE PUSH1 0x24 SWAP1 REVERT JUMPDEST PUSH4 0x4E487B71 PUSH1 0xE0 SHL DUP5 MSTORE PUSH1 0x11 PUSH1 0x4 MSTORE PUSH1 0x24 DUP5 REVERT JUMPDEST PUSH1 0x40 MLOAD PUSH3 0x461BCD PUSH1 0xE5 SHL DUP2 MSTORE PUSH1 0x20 PUSH1 0x4 DUP3 ADD MSTORE PUSH1 0x21 PUSH1 0x24 DUP3 ADD MSTORE PUSH32 0x506F74656E7469616C206F766572666C6F7720696E2063616C63756C6174696F PUSH1 0x44 DUP3 ADD MSTORE PUSH1 0x37 PUSH1 0xF9 SHL PUSH1 0x64 DUP3 ADD MSTORE PUSH1 0x84 SWAP1 REVERT JUMPDEST PUSH4 0x4E487B71 PUSH1 0xE0 SHL PUSH1 0x0 MSTORE PUSH1 0x12 PUSH1 0x4 MSTORE PUSH1 0x24 PUSH1 0x0 REVERT JUMPDEST PUSH1 0x40 MLOAD PUSH3 0x461BCD PUSH1 0xE5 SHL DUP2 MSTORE PUSH1 0x20 PUSH1 0x4 DUP3 ADD MSTORE PUSH1 0x24 DUP1 DUP3 ADD MSTORE PUSH32 0x416D6F756E7420746F6F206C6172676520666F72206665652063616C63756C61 PUSH1 0x44 DUP3 ADD MSTORE PUSH4 0x3A34B7B7 PUSH1 0xE1 SHL PUSH1 0x64 DUP3 ADD MSTORE PUSH1 0x84 SWAP1 REVERT JUMPDEST PUSH1 0x40 MLOAD PUSH3 0x461BCD PUSH1 0xE5 SHL DUP2 MSTORE PUSH1 0x20 PUSH1 0x4 DUP3 ADD MSTORE PUSH1 0x14 PUSH1 0x24 DUP3 ADD MSTORE PUSH20 0x416D6F756E742062656C6F77206D696E696D756D PUSH1 0x60 SHL PUSH1 0x44 DUP3 ADD MSTORE PUSH1 0x64 SWAP1 REVERT JUMPDEST PUSH1 0x40 MLOAD PUSH3 0x461BCD PUSH1 0xE5 SHL DUP2 MSTORE PUSH1 0x20 PUSH1 0x4 DUP3 ADD MSTORE PUSH1 0x1C PUSH1 0x24 DUP3 ADD MSTORE PUSH32 0x5377617020616D6F756E74206578636565647320726573657276657300000000 PUSH1 0x44 DUP3 ADD MSTORE PUSH1 0x64 SWAP1 REVERT JUMPDEST PUSH1 0x40 MLOAD PUSH3 0x461BCD PUSH1 0xE5 SHL DUP2 MSTORE PUSH1 0x20 PUSH1 0x4 DUP3 ADD MSTORE PUSH1 0x10 PUSH1 0x24 DUP3 ADD MSTORE PUSH16 0x496E76616C6964207265736572766573 PUSH1 0x80 SHL PUSH1 0x44 DUP3 ADD MSTORE PUSH1 0x64 SWAP1 REVERT JUMPDEST POP DUP4 ISZERO ISZERO PUSH2 0x171F JUMP JUMPDEST PUSH1 0x40 MLOAD PUSH3 0x461BCD PUSH1 0xE5 SHL DUP2 MSTORE PUSH1 0x20 PUSH1 0x4 DUP3 ADD MSTORE PUSH1 0x14 PUSH1 0x24 DUP3 ADD MSTORE PUSH20 0x125B9D985B1A59081A5B9C1D5D08185B5BDD5B9D PUSH1 0x62 SHL PUSH1 0x44 DUP3 ADD MSTORE PUSH1 0x64 SWAP1 REVERT JUMPDEST ISZERO PUSH2 0x19EB JUMPI JUMP JUMPDEST PUSH1 0x40 MLOAD PUSH3 0x461BCD PUSH1 0xE5 SHL DUP2 MSTORE PUSH1 0x20 PUSH1 0x4 DUP3 ADD MSTORE PUSH1 0xE PUSH1 0x24 DUP3 ADD MSTORE PUSH14 0x546F6F206D616E79207377617073 PUSH1 0x90 SHL PUSH1 0x44 DUP3 ADD MSTORE PUSH1 0x64 SWAP1 REVERT JUMPDEST ISZERO PUSH2 0x1A28 JUMPI JUMP JUMPDEST PUSH1 0x40 MLOAD PUSH3 0x461BCD PUSH1 0xE5 SHL DUP2 MSTORE PUSH1 0x20 PUSH1 0x4 DUP3 ADD MSTORE PUSH1 0x11 PUSH1 0x24 DUP3 ADD MSTORE PUSH17 0xA6D8D2E0E0C2CECA40E8DEDE40D0D2CED PUSH1 0x7B SHL PUSH1 0x44 DUP3 ADD MSTORE PUSH1 0x64 SWAP1 REVERT JUMPDEST ISZERO PUSH2 0x1A68 JUMPI JUMP JUMPDEST PUSH1 0x40 MLOAD PUSH3 0x461BCD PUSH1 0xE5 SHL DUP2 MSTORE PUSH1 0x20 PUSH1 0x4 DUP3 ADD MSTORE PUSH1 0x10 PUSH1 0x24 DUP3 ADD MSTORE PUSH16 0x496E76616C696420736C697070616765 PUSH1 0x80 SHL PUSH1 0x44 DUP3 ADD MSTORE PUSH1 0x64 SWAP1 REVERT JUMPDEST SWAP1 PUSH1 0x1F DUP1 NOT SWAP2 ADD AND DUP2 ADD SWAP1 DUP2 LT PUSH8 0xFFFFFFFFFFFFFFFF DUP3 GT OR PUSH2 0x1AC2 JUMPI PUSH1 0x40 MSTORE JUMP JUMPDEST PUSH4 0x4E487B71 PUSH1 0xE0 SHL PUSH1 0x0 MSTORE PUSH1 0x41 PUSH1 0x4 MSTORE PUSH1 0x24 PUSH1 0x0 REVERT JUMPDEST SWAP2 SWAP1 DUP3 PUSH1 0x40 SWAP2 SUB SLT PUSH2 0x1C2 JUMPI PUSH1 0x20 DUP3 MLOAD SWAP3 ADD MLOAD SWAP1 JUMP JUMPDEST ISZERO PUSH2 0x1AF5 JUMPI JUMP JUMPDEST PUSH1 0x40 MLOAD PUSH3 0x461BCD PUSH1 0xE5 SHL DUP2 MSTORE PUSH1 0x20 PUSH1 0x4 DUP3 ADD MSTORE PUSH1 0x1C PUSH1 0x24 DUP3 ADD MSTORE PUSH32 0x4E6F20434F52414C206C697175696469747920617661696C61626C6500000000 PUSH1 0x44 DUP3 ADD MSTORE PUSH1 0x64 SWAP1 REVERT JUMPDEST ISZERO PUSH2 0x1B41 JUMPI JUMP JUMPDEST PUSH1 0x40 MLOAD PUSH3 0x461BCD PUSH1 0xE5 SHL DUP2 MSTORE PUSH1 0x20 PUSH1 0x4 DUP3 ADD MSTORE PUSH1 0xE PUSH1 0x24 DUP3 ADD MSTORE PUSH14 0x5377617020746F6F206C61726765 PUSH1 0x90 SHL PUSH1 0x44 DUP3 ADD MSTORE PUSH1 0x64 SWAP1 REVERT JUMPDEST SWAP2 SWAP1 DUP3 SUB SWAP2 DUP3 GT PUSH2 0x929 JUMPI JUMP JUMPDEST PUSH1 0x40 MLOAD SWAP1 PUSH2 0x1B93 PUSH1 0x40 DUP4 PUSH2 0x1AA0 JUMP JUMPDEST PUSH1 0x20 DUP3 MSTORE PUSH32 0x496E73756666696369656E7420434F52414C20746F6B656E2062616C616E6365 PUSH1 0x20 DUP4 ADD MSTORE JUMP JUMPDEST ISZERO PUSH2 0x1BC7 JUMPI POP JUMP JUMPDEST PUSH1 0x40 MLOAD PUSH3 0x461BCD PUSH1 0xE5 SHL DUP2 MSTORE PUSH1 0x20 PUSH1 0x4 DUP3 ADD MSTORE SWAP1 DUP2 SWAP1 PUSH2 0x1BEB SWAP1 PUSH1 0x24 DUP4 ADD SWAP1 PUSH2 0x16AD JUMP JUMPDEST SUB SWAP1 REVERT JUMPDEST ISZERO PUSH2 0x1BF6 JUMPI JUMP JUMPDEST PUSH1 0x40 MLOAD PUSH3 0x461BCD PUSH1 0xE5 SHL DUP2 MSTORE PUSH1 0x20 PUSH1 0x4 DUP3 ADD MSTORE PUSH1 0x22 PUSH1 0x24 DUP3 ADD MSTORE PUSH32 0x496E73756666696369656E742063726561746F7220746F6B656E2062616C616E PUSH1 0x44 DUP3 ADD MSTORE PUSH2 0x6365 PUSH1 0xF0 SHL PUSH1 0x64 DUP3 ADD MSTORE PUSH1 0x84 SWAP1 REVERT JUMPDEST RETURNDATASIZE ISZERO PUSH2 0x1C81 JUMPI RETURNDATASIZE SWAP1 PUSH8 0xFFFFFFFFFFFFFFFF DUP3 GT PUSH2 0x1AC2 JUMPI PUSH1 0x40 MLOAD SWAP2 PUSH2 0x1C75 PUSH1 0x1F DUP3 ADD PUSH1 0x1F NOT AND PUSH1 0x20 ADD DUP5 PUSH2 0x1AA0 JUMP JUMPDEST DUP3 MSTORE RETURNDATASIZE PUSH1 0x0 PUSH1 0x20 DUP5 ADD RETURNDATACOPY JUMP JUMPDEST PUSH1 0x60 SWAP1 JUMP JUMPDEST PUSH1 0x1 SLOAD PUSH1 0x1 PUSH1 0x1 PUSH1 0xA0 SHL SUB DUP3 DUP2 AND SWAP3 SWAP2 AND DUP3 EQ PUSH2 0x1D03 JUMPI POP PUSH1 0x20 PUSH1 0x24 SWAP2 PUSH1 0x40 MLOAD SWAP3 DUP4 DUP1 SWAP3 PUSH4 0x70A08231 PUSH1 0xE0 SHL DUP3 MSTORE ADDRESS PUSH1 0x4 DUP4 ADD MSTORE GAS STATICCALL SWAP1 DUP2 ISZERO PUSH2 0x7B8 JUMPI PUSH1 0x0 SWAP2 PUSH2 0x1CD1 JUMPI JUMPDEST POP LT ISZERO SWAP1 JUMP JUMPDEST SWAP1 POP PUSH1 0x20 DUP2 RETURNDATASIZE PUSH1 0x20 GT PUSH2 0x1CFB JUMPI JUMPDEST DUP2 PUSH2 0x1CEC PUSH1 0x20 SWAP4 DUP4 PUSH2 0x1AA0 JUMP JUMPDEST DUP2 ADD SUB SLT PUSH2 0x1C2 JUMPI MLOAD CODESIZE PUSH2 0x1CCB JUMP JUMPDEST RETURNDATASIZE SWAP2 POP PUSH2 0x1CDF JUMP JUMPDEST PUSH2 0x1D0C SWAP1 PUSH2 0x1EA5 JUMP JUMPDEST PUSH1 0x0 SWAP2 SWAP1 ISZERO PUSH2 0x1D1D JUMPI POP POP SELFBALANCE LT ISZERO SWAP1 JUMP JUMPDEST PUSH1 0x20 PUSH1 0x24 SWAP2 PUSH1 0x40 MLOAD SWAP3 DUP4 DUP1 SWAP3 PUSH4 0x70A08231 PUSH1 0xE0 SHL DUP3 MSTORE ADDRESS PUSH1 0x4 DUP4 ADD MSTORE GAS STATICCALL SWAP2 DUP3 ISZERO PUSH2 0x1D85 JUMPI DUP1 SWAP3 PUSH2 0x1D50 JUMPI JUMPDEST POP POP LT ISZERO SWAP1 JUMP JUMPDEST SWAP1 SWAP2 POP PUSH1 0x20 DUP3 RETURNDATASIZE PUSH1 0x20 GT PUSH2 0x1D7D JUMPI JUMPDEST DUP2 PUSH2 0x1D6C PUSH1 0x20 SWAP4 DUP4 PUSH2 0x1AA0 JUMP JUMPDEST DUP2 ADD SUB SLT PUSH2 0x7F3 JUMPI POP MLOAD CODESIZE DUP1 PUSH2 0x1D49 JUMP JUMPDEST RETURNDATASIZE SWAP2 POP PUSH2 0x1D5F JUMP JUMPDEST PUSH1 0x40 MLOAD SWAP1 RETURNDATASIZE SWAP1 DUP3 RETURNDATACOPY RETURNDATASIZE SWAP1 REVERT JUMPDEST PUSH1 0x40 MLOAD SWAP1 PUSH2 0x1DA0 PUSH1 0x40 DUP4 PUSH2 0x1AA0 JUMP JUMPDEST PUSH1 0x1C DUP3 MSTORE PUSH32 0x4E657720736C6970706167652073616D652061732063757272656E7400000000 PUSH1 0x20 DUP4 ADD MSTORE JUMP JUMPDEST PUSH1 0x40 MLOAD SWAP1 PUSH2 0x1DDB PUSH1 0x40 DUP4 PUSH2 0x1AA0 JUMP JUMPDEST PUSH1 0x1C DUP3 MSTORE PUSH32 0x43616E6E6F74206265206C6F776572207468616E2064656661756C7400000000 PUSH1 0x20 DUP4 ADD MSTORE JUMP JUMPDEST PUSH1 0x40 MLOAD SWAP1 PUSH2 0x1E16 PUSH1 0x40 DUP4 PUSH2 0x1AA0 JUMP JUMPDEST PUSH1 0x11 DUP3 MSTORE PUSH17 0x43616E6E6F742065786365656420323025 PUSH1 0x78 SHL PUSH1 0x20 DUP4 ADD MSTORE JUMP JUMPDEST PUSH1 0x6 SLOAD DUP2 EQ PUSH2 0x1E9C JUMPI PUSH32 0x0 DUP2 LT PUSH2 0x1E93 JUMPI PUSH2 0x7D0 LT PUSH2 0x1E86 JUMPI PUSH1 0x1 SWAP1 PUSH1 0x40 MLOAD PUSH2 0x1E7F PUSH1 0x20 DUP3 PUSH2 0x1AA0 JUMP JUMPDEST PUSH1 0x0 DUP2 MSTORE SWAP1 JUMP JUMPDEST PUSH2 0x1E8E PUSH2 0x1E07 JUMP JUMPDEST PUSH1 0x0 SWAP2 JUMP JUMPDEST POP PUSH2 0x1E8E PUSH2 0x1DCC JUMP JUMPDEST POP PUSH2 0x1E8E PUSH2 0x1D91 JUMP JUMPDEST PUSH1 0x1 SLOAD PUSH1 0x1 PUSH1 0x1 PUSH1 0xA0 SHL SUB SWAP2 DUP3 AND SWAP2 AND DUP2 EQ SWAP1 DUP2 ISZERO PUSH2 0x1EF4 JUMPI JUMPDEST DUP2 ISZERO PUSH2 0x1ED6 JUMPI JUMPDEST POP DUP1 PUSH2 0x1ECF JUMPI SWAP1 JUMP JUMPDEST POP SELFBALANCE ISZERO ISZERO SWAP1 JUMP JUMPDEST PUSH20 0xEEEEEEEEEEEEEEEEEEEEEEEEEEEEEEEEEEEEEEEE SWAP2 POP EQ CODESIZE PUSH2 0x1EC6 JUMP JUMPDEST DUP1 ISZERO SWAP2 POP PUSH2 0x1EBF JUMP JUMPDEST PUSH1 0x40 MLOAD PUSH4 0x23B872DD PUSH1 0xE0 SHL PUSH1 0x20 DUP3 ADD MSTORE PUSH1 0x1 PUSH1 0x1 PUSH1 0xA0 SHL SUB SWAP3 DUP4 AND PUSH1 0x24 DUP3 ADD MSTORE SWAP3 SWAP1 SWAP2 AND PUSH1 0x44 DUP4 ADD MSTORE PUSH1 0x64 DUP1 DUP4 ADD SWAP4 SWAP1 SWAP4 MSTORE SWAP2 DUP2 MSTORE PUSH2 0x1F46 SWAP2 PUSH2 0x1F41 PUSH1 0x84 DUP4 PUSH2 0x1AA0 JUMP JUMPDEST PUSH2 0x2173 JUMP JUMPDEST JUMP JUMPDEST PUSH1 0x40 MLOAD PUSH4 0xA9059CBB PUSH1 0xE0 SHL PUSH1 0x20 DUP3 ADD MSTORE PUSH1 0x1 PUSH1 0x1 PUSH1 0xA0 SHL SUB SWAP1 SWAP3 AND PUSH1 0x24 DUP4 ADD MSTORE PUSH1 0x44 DUP1 DUP4 ADD SWAP4 SWAP1 SWAP4 MSTORE SWAP2 DUP2 MSTORE PUSH2 0x1F46 SWAP2 PUSH2 0x1F41 PUSH1 0x64 DUP4 PUSH2 0x1AA0 JUMP JUMPDEST PUSH1 0x0 SWAP1 PUSH1 0x1 DUP1 PUSH1 0xA0 SHL SUB AND SWAP2 DUP3 DUP3 MSTORE PUSH1 0x5 PUSH1 0x20 MSTORE PUSH10 0x21E19E0C9BAB2400000 PUSH2 0x1FB0 DUP3 PUSH1 0x40 DUP6 KECCAK256 SLOAD PUSH2 0x1701 JUMP JUMPDEST GT PUSH2 0x20B9 JUMPI DUP3 DUP3 MSTORE PUSH1 0x5 PUSH1 0x20 MSTORE PUSH2 0x1FCC PUSH1 0x40 DUP4 KECCAK256 SWAP2 DUP3 SLOAD PUSH2 0x1701 JUMP JUMPDEST SWAP1 SSTORE DUP2 DUP2 MSTORE PUSH1 0x5 PUSH1 0x20 MSTORE PUSH9 0x3635C9ADC5DEA00000 PUSH1 0x40 DUP3 KECCAK256 SLOAD LT ISZERO PUSH2 0x1FEF JUMPI POP POP JUMP JUMPDEST DUP2 DUP2 MSTORE PUSH1 0x5 PUSH1 0x20 MSTORE PUSH1 0x40 DUP2 KECCAK256 SLOAD PUSH1 0x2 SLOAD SWAP1 SWAP2 SWAP1 PUSH1 0x1 PUSH1 0x1 PUSH1 0xA0 SHL SUB AND DUP1 EXTCODESIZE ISZERO PUSH2 0x20B5 JUMPI DUP2 DUP1 SWAP2 PUSH1 0x24 PUSH1 0x40 MLOAD DUP1 SWAP6 DUP2 SWAP4 PUSH4 0xBC99F487 PUSH1 0xE0 SHL DUP4 MSTORE DUP10 PUSH1 0x4 DUP5 ADD MSTORE GAS CALL SWAP2 DUP3 PUSH2 0x20A5 JUMPI JUMPDEST POP SWAP1 PUSH2 0x206B JUMPI POP PUSH1 0x20 PUSH32 0xC2AF8177B25272AA44B4EAFDF3CC4916749B55DCED944E081E11D1E1A9AC7EC2 SWAP2 PUSH1 0x40 MLOAD SWAP1 DUP2 MSTORE LOG2 JUMP JUMPDEST PUSH32 0x30A9A7748B75A6EBF9C7CB2BEAC00BE9BCC421ABCF4793AA03DD54A461594AC SWAP2 DUP2 DUP5 PUSH1 0x20 SWAP4 MSTORE PUSH1 0x5 DUP4 MSTORE PUSH1 0x40 DUP2 KECCAK256 SSTORE PUSH1 0x40 MLOAD SWAP1 DUP2 MSTORE LOG2 JUMP JUMPDEST DUP2 PUSH2 0x20AF SWAP2 PUSH2 0x1AA0 JUMP JUMPDEST CODESIZE PUSH2 0x2037 JUMP JUMPDEST POP DUP1 REVERT JUMPDEST PUSH1 0x40 MLOAD PUSH3 0x461BCD PUSH1 0xE5 SHL DUP2 MSTORE PUSH1 0x20 PUSH1 0x4 DUP3 ADD MSTORE PUSH1 0x19 PUSH1 0x24 DUP3 ADD MSTORE PUSH32 0x4665652073746F72616765206C696D6974207265616368656400000000000000 PUSH1 0x44 DUP3 ADD MSTORE PUSH1 0x64 SWAP1 REVERT JUMPDEST PUSH1 0x0 SLOAD PUSH1 0x1 PUSH1 0x1 PUSH1 0xA0 SHL SUB AND CALLER SUB PUSH2 0x2112 JUMPI JUMP JUMPDEST PUSH4 0x118CDAA7 PUSH1 0xE0 SHL PUSH1 0x0 MSTORE CALLER PUSH1 0x4 MSTORE PUSH1 0x24 PUSH1 0x0 REVERT JUMPDEST ISZERO PUSH2 0x212E JUMPI JUMP JUMPDEST PUSH1 0x40 MLOAD PUSH3 0x461BCD PUSH1 0xE5 SHL DUP2 MSTORE PUSH1 0x20 PUSH1 0x4 DUP3 ADD MSTORE PUSH1 0x18 PUSH1 0x24 DUP3 ADD MSTORE PUSH32 0x5472616E7366657220616D6F756E74206D69736D617463680000000000000000 PUSH1 0x44 DUP3 ADD MSTORE PUSH1 0x64 SWAP1 REVERT JUMPDEST SWAP1 PUSH1 0x0 PUSH1 0x20 SWAP2 DUP3 DUP2 MLOAD SWAP2 ADD DUP3 DUP6 GAS CALL ISZERO PUSH2 0x7B8 JUMPI PUSH1 0x0 MLOAD RETURNDATASIZE PUSH2 0x21C5 JUMPI POP PUSH1 0x1 PUSH1 0x1 PUSH1 0xA0 SHL SUB DUP2 AND EXTCODESIZE ISZERO JUMPDEST PUSH2 0x21A4 JUMPI POP JUMP JUMPDEST PUSH4 0x5274AFE7 PUSH1 0xE0 SHL PUSH1 0x0 SWAP1 DUP2 MSTORE PUSH1 0x1 PUSH1 0x1 PUSH1 0xA0 SHL SUB SWAP2 SWAP1 SWAP2 AND PUSH1 0x4 MSTORE PUSH1 0x24 SWAP1 REVERT JUMPDEST PUSH1 0x1 EQ ISZERO PUSH2 0x219D JUMP INVALID MCOPY 0xB7 DUP12 PUSH16 0xB12F1AF3519B0BBD134251F3B57D2C31 0xDC 0xC8 0xA5 0xFC 0xB8 PUSH18 0x971CE5EB8A71A26469706673582212201DF8 DUP13 PUSH23 0x2CCCA6AE600C110B18AF4EE3098D98CD507B5309524ADA POP PUSH6 0x95777764736F PUSH13 0x634300081C0033000000000000 "},"methodIdentifiers":{"ABSOLUTE_MAX_SLIPPAGE()":"e7b0444c","AUTO_REDEPLOY_THRESHOLD()":"90cd3694","DEFAULT_MAX_SLIPPAGE()":"85015e09","MAXIMUM_ALLOWED_SLIPPAGE()":"8ac058cc","MAX_FEE_STORAGE()":"e7ca44ef","MAX_SINGLE_SWAP()":"6604b53a","MAX_SWAP_AMOUNT_PERCENT()":"d855dc7e","MIN_OUTPUT_AMOUNT()":"797cb5a2","MIN_SWAP_AMOUNT()":"99f34c12","MIN_TIME_BETWEEN_SWAPS()":"11a9992e","canHandleNativeCoral()":"65804d51","checkFeesForRedeployment(address)":"268b69cb","coralToken()":"bba2e140","getAmountOut(uint256,uint256,uint256)":"054d50d4","getAmountOutWithFees(uint256,address[])":"a08a5220","getNativeCoralBalance()":"a5b15905","getSlippageSettings()":"c54e1d38","getWithdrawableFees(address)":"f81bdc23","hasTokenBalance(address,uint256)":"c838889e","isNativeCoral(address)":"fb28ceb2","isValidSwapAmount(uint256)":"94590aca","lastSwapTimestamp(address)":"02e9d3e8","liquidityManager()":"33827438","owner()":"8da5cb5b","renounceOwnership()":"715018a6","storedFees(address)":"125c1204","swapCoralForCreatorToken(address,uint256,uint256,uint256)":"0c28192f","swapCreatorTokenForCoral(address,uint256,uint256,uint256)":"dcefe5b6","swapFee()":"54cf2aeb","transferOwnership(address)":"f2fde38b","updateMaxSlippage(uint256)":"f896acc7","validateSlippage(uint256)":"f2c75fa0","withdrawStoredFees(address,uint256)":"13079df5"}},"storageLayout":{"storage":[{"astId":8,"contract":"contracts/SaraDEX.sol:SaraDEX","label":"_owner","offset":0,"slot":"0","type":"t_address"},{"astId":780,"contract":"contracts/SaraDEX.sol:SaraDEX","label":"coralToken","offset":0,"slot":"1","type":"t_address"},{"astId":783,"contract":"contracts/SaraDEX.sol:SaraDEX","label":"liquidityManager","offset":0,"slot":"2","type":"t_contract(SaraLiquidityManager)4852"},{"astId":786,"contract":"contracts/SaraDEX.sol:SaraDEX","label":"swapFee","offset":0,"slot":"3","type":"t_uint256"},{"astId":790,"contract":"contracts/SaraDEX.sol:SaraDEX","label":"lastSwapTimestamp","offset":0,"slot":"4","type":"t_mapping(t_address,t_uint256)"},{"astId":800,"contract":"contracts/SaraDEX.sol:SaraDEX","label":"storedFees","offset":0,"slot":"5","type":"t_mapping(t_address,t_uint256)"},{"astId":816,"contract":"contracts/SaraDEX.sol:SaraDEX","label":"ABSOLUTE_MAX_SLIPPAGE","offset":0,"slot":"6","type":"t_uint256"}],"types":{"t_address":{"encoding":"inplace","label":"address","numberOfBytes":"20"},"t_contract(SaraLiquidityManager)4852":{"encoding":"inplace","label":"contract SaraLiquidityManager","numberOfBytes":"20"},"t_mapping(t_address,t_uint256)":{"encoding":"mapping","key":"t_address","label":"mapping(address => uint256)","numberOfBytes":"32","value":"t_uint256"},"t_uint256":{"encoding":"inplace","label":"uint256","numberOfBytes":"32"}}}}}}