{"contracts/SaraLiquidityManager.sol":{"SaraLiquidityManager":{"abi":[{"inputs":[{"internalType":"address","name":"_coralToken","type":"address"}],"stateMutability":"nonpayable","type":"constructor"},{"inputs":[{"internalType":"address","name":"owner","type":"address"}],"name":"OwnableInvalidOwner","type":"error"},{"inputs":[{"internalType":"address","name":"account","type":"address"}],"name":"OwnableUnauthorizedAccount","type":"error"},{"inputs":[{"internalType":"address","name":"token","type":"address"}],"name":"SafeERC20FailedOperation","type":"error"},{"anonymous":false,"inputs":[{"indexed":true,"internalType":"address","name":"token","type":"address"},{"indexed":false,"internalType":"uint256","name":"amount","type":"uint256"},{"indexed":true,"internalType":"address","name":"targetPool","type":"address"},{"indexed":false,"internalType":"uint256","name":"coralAmount","type":"uint256"},{"indexed":false,"internalType":"uint256","name":"timestamp","type":"uint256"}],"name":"AutoFeesRedeployed","type":"event"},{"anonymous":false,"inputs":[{"indexed":true,"internalType":"address","name":"to","type":"address"},{"indexed":false,"internalType":"uint256","name":"amount","type":"uint256"},{"indexed":false,"internalType":"uint256","name":"timestamp","type":"uint256"}],"name":"CoralTokenTransferred","type":"event"},{"anonymous":false,"inputs":[{"indexed":true,"internalType":"address","name":"newDEX","type":"address"}],"name":"DEXUpdated","type":"event"},{"anonymous":false,"inputs":[{"indexed":true,"internalType":"address","name":"token","type":"address"},{"indexed":false,"internalType":"uint256","name":"rawCount","type":"uint256"},{"indexed":false,"internalType":"uint256","name":"smoothedCount","type":"uint256"},{"indexed":false,"internalType":"uint256","name":"timestamp","type":"uint256"}],"name":"EngagementSmoothed","type":"event"},{"anonymous":false,"inputs":[{"indexed":true,"internalType":"address","name":"token","type":"address"},{"indexed":false,"internalType":"uint256","name":"subscribers","type":"uint256"},{"indexed":false,"internalType":"uint256","name":"timestamp","type":"uint256"}],"name":"EngagementSnapshotTaken","type":"event"},{"anonymous":false,"inputs":[{"indexed":true,"internalType":"address","name":"pool","type":"address"},{"indexed":false,"internalType":"uint256","name":"reserveAmount","type":"uint256"}],"name":"FallbackPoolSelected","type":"event"},{"anonymous":false,"inputs":[{"indexed":true,"internalType":"address","name":"token","type":"address"},{"indexed":false,"internalType":"uint256","name":"amount","type":"uint256"}],"name":"FeesCollected","type":"event"},{"anonymous":false,"inputs":[{"indexed":true,"internalType":"address","name":"token","type":"address"},{"indexed":false,"internalType":"uint256","name":"amount","type":"uint256"},{"indexed":true,"internalType":"address","name":"targetPool","type":"address"}],"name":"FeesRedeployed","type":"event"},{"anonymous":false,"inputs":[{"indexed":true,"internalType":"address","name":"token","type":"address"},{"indexed":false,"internalType":"uint256","name":"amount","type":"uint256"}],"name":"FeesWithdrawn","type":"event"},{"anonymous":false,"inputs":[{"indexed":true,"internalType":"address","name":"creatorToken","type":"address"},{"indexed":false,"internalType":"uint256","name":"amountCreator","type":"uint256"},{"indexed":false,"internalType":"uint256","name":"amountCoral","type":"uint256"}],"name":"LiquidityAdded","type":"event"},{"anonymous":false,"inputs":[{"indexed":true,"internalType":"address","name":"token","type":"address"},{"indexed":false,"internalType":"uint256","name":"newReserveCoral","type":"uint256"}],"name":"LiquidityRebalanced","type":"event"},{"anonymous":false,"inputs":[{"indexed":true,"internalType":"address","name":"creatorToken","type":"address"},{"indexed":false,"internalType":"uint256","name":"amountCreator","type":"uint256"},{"indexed":false,"internalType":"uint256","name":"amountCoral","type":"uint256"}],"name":"LiquidityRemoved","type":"event"},{"anonymous":false,"inputs":[{"indexed":true,"internalType":"address","name":"previousOwner","type":"address"},{"indexed":true,"internalType":"address","name":"newOwner","type":"address"}],"name":"OwnershipTransferred","type":"event"},{"anonymous":false,"inputs":[{"indexed":true,"internalType":"address","name":"pool","type":"address"},{"indexed":false,"internalType":"uint256","name":"volume24h","type":"uint256"},{"indexed":false,"internalType":"uint256","name":"timestamp","type":"uint256"}],"name":"PoolActivityUpdated","type":"event"},{"anonymous":false,"inputs":[{"indexed":true,"internalType":"address","name":"pool","type":"address"},{"indexed":false,"internalType":"uint256","name":"score","type":"uint256"},{"indexed":false,"internalType":"uint256","name":"timestamp","type":"uint256"}],"name":"PoolNeedUpdated","type":"event"},{"anonymous":false,"inputs":[{"indexed":true,"internalType":"address","name":"pool","type":"address"},{"indexed":false,"internalType":"uint256","name":"score","type":"uint256"},{"indexed":false,"internalType":"uint256","name":"currentLiquidity","type":"uint256"}],"name":"PoolSelected","type":"event"},{"anonymous":false,"inputs":[{"indexed":true,"internalType":"address","name":"pool","type":"address"}],"name":"PoolTracked","type":"event"},{"anonymous":false,"inputs":[{"indexed":true,"internalType":"address","name":"pool","type":"address"}],"name":"PoolUntracked","type":"event"},{"anonymous":false,"inputs":[{"indexed":true,"internalType":"address","name":"token","type":"address"},{"indexed":false,"internalType":"uint256","name":"calculatedPrice","type":"uint256"},{"indexed":false,"internalType":"uint256","name":"cappedPrice","type":"uint256"}],"name":"PriceCapReached","type":"event"},{"anonymous":false,"inputs":[{"indexed":true,"internalType":"address","name":"token","type":"address"},{"indexed":false,"internalType":"uint256","name":"initialCoralPrice","type":"uint256"},{"indexed":false,"internalType":"uint256","name":"initialLiquidity","type":"uint256"}],"name":"PriceDiscoveryCompleted","type":"event"},{"anonymous":false,"inputs":[{"indexed":true,"internalType":"address","name":"token","type":"address"},{"indexed":false,"internalType":"uint256","name":"initialSubscribers","type":"uint256"}],"name":"PriceDiscoveryStarted","type":"event"},{"anonymous":false,"inputs":[{"indexed":true,"internalType":"address","name":"token","type":"address"},{"indexed":false,"internalType":"uint256","name":"coralReserve","type":"uint256"},{"indexed":false,"internalType":"string","name":"reason","type":"string"}],"name":"RebalanceSkipped","type":"event"},{"stateMutability":"payable","type":"fallback"},{"inputs":[],"name":"ACTIVITY_THRESHOLD","outputs":[{"internalType":"uint256","name":"","type":"uint256"}],"stateMutability":"view","type":"function"},{"inputs":[],"name":"BASE_PRICE","outputs":[{"internalType":"uint256","name":"","type":"uint256"}],"stateMutability":"view","type":"function"},{"inputs":[],"name":"DEX_ROLE","outputs":[{"internalType":"bytes32","name":"","type":"bytes32"}],"stateMutability":"view","type":"function"},{"inputs":[],"name":"DISCOVERY_PERIOD","outputs":[{"internalType":"uint256","name":"","type":"uint256"}],"stateMutability":"view","type":"function"},{"inputs":[],"name":"ENGAGEMENT_THRESHOLD","outputs":[{"internalType":"uint256","name":"","type":"uint256"}],"stateMutability":"view","type":"function"},{"inputs":[],"name":"MAX_PRICE_MULTIPLIER","outputs":[{"internalType":"uint256","name":"","type":"uint256"}],"stateMutability":"view","type":"function"},{"inputs":[],"name":"MAX_SNAPSHOTS","outputs":[{"internalType":"uint256","name":"","type":"uint256"}],"stateMutability":"view","type":"function"},{"inputs":[],"name":"MIN_24H_VOLUME","outputs":[{"internalType":"uint256","name":"","type":"uint256"}],"stateMutability":"view","type":"function"},{"inputs":[],"name":"MIN_FEES_FOR_REDEPLOY","outputs":[{"internalType":"uint256","name":"","type":"uint256"}],"stateMutability":"view","type":"function"},{"inputs":[],"name":"MIN_LIQUIDITY","outputs":[{"internalType":"uint256","name":"","type":"uint256"}],"stateMutability":"view","type":"function"},{"inputs":[],"name":"MIN_TOKEN_PRICE","outputs":[{"internalType":"uint256","name":"","type":"uint256"}],"stateMutability":"view","type":"function"},{"inputs":[],"name":"POOL_NEED_UPDATE_INTERVAL","outputs":[{"internalType":"uint256","name":"","type":"uint256"}],"stateMutability":"view","type":"function"},{"inputs":[],"name":"REBALANCE_INTERVAL","outputs":[{"internalType":"uint256","name":"","type":"uint256"}],"stateMutability":"view","type":"function"},{"inputs":[],"name":"SNAPSHOT_INTERVAL","outputs":[{"internalType":"uint256","name":"","type":"uint256"}],"stateMutability":"view","type":"function"},{"inputs":[{"internalType":"address","name":"creatorToken","type":"address"},{"internalType":"uint256","name":"amountCreator","type":"uint256"},{"internalType":"uint256","name":"amountCoral","type":"uint256"}],"name":"addLiquidity","outputs":[],"stateMutability":"payable","type":"function"},{"inputs":[{"internalType":"address","name":"token","type":"address"}],"name":"autoRedeployFees","outputs":[],"stateMutability":"nonpayable","type":"function"},{"inputs":[{"internalType":"uint256","name":"subscriberCount","type":"uint256"},{"internalType":"uint256","name":"price","type":"uint256"}],"name":"calculateInitialLiquidity","outputs":[{"internalType":"uint256","name":"","type":"uint256"}],"stateMutability":"pure","type":"function"},{"inputs":[{"internalType":"address","name":"token","type":"address"}],"name":"checkAndRebalance","outputs":[],"stateMutability":"nonpayable","type":"function"},{"inputs":[{"internalType":"address","name":"token","type":"address"},{"internalType":"uint256","name":"amount","type":"uint256"}],"name":"collectFees","outputs":[],"stateMutability":"nonpayable","type":"function"},{"inputs":[{"internalType":"address","name":"","type":"address"}],"name":"collectedFees","outputs":[{"internalType":"uint256","name":"","type":"uint256"}],"stateMutability":"view","type":"function"},{"inputs":[{"internalType":"address","name":"token","type":"address"}],"name":"completePriceDiscovery","outputs":[],"stateMutability":"nonpayable","type":"function"},{"inputs":[{"internalType":"address","name":"","type":"address"}],"name":"coralReserves","outputs":[{"internalType":"uint256","name":"","type":"uint256"}],"stateMutability":"view","type":"function"},{"inputs":[],"name":"coralToken","outputs":[{"internalType":"address","name":"","type":"address"}],"stateMutability":"view","type":"function"},{"inputs":[{"internalType":"address","name":"","type":"address"}],"name":"creatorTokenReserves","outputs":[{"internalType":"uint256","name":"","type":"uint256"}],"stateMutability":"view","type":"function"},{"inputs":[],"name":"dex","outputs":[{"internalType":"address","name":"","type":"address"}],"stateMutability":"view","type":"function"},{"inputs":[],"name":"forcePoolNeedUpdate","outputs":[],"stateMutability":"nonpayable","type":"function"},{"inputs":[{"internalType":"address","name":"pool","type":"address"}],"name":"getPoolActivity","outputs":[{"internalType":"uint256","name":"lastTrade","type":"uint256"},{"internalType":"uint256","name":"volume24h","type":"uint256"},{"internalType":"bool","name":"isActive","type":"bool"}],"stateMutability":"view","type":"function"},{"inputs":[],"name":"getPoolNeedInfo","outputs":[{"internalType":"address","name":"pool","type":"address"},{"internalType":"uint256","name":"score","type":"uint256"},{"internalType":"uint256","name":"lastUpdate","type":"uint256"},{"internalType":"bool","name":"isStale","type":"bool"}],"stateMutability":"view","type":"function"},{"inputs":[{"internalType":"address","name":"creatorToken","type":"address"}],"name":"getReserves","outputs":[{"internalType":"uint256","name":"creatorReserve","type":"uint256"},{"internalType":"uint256","name":"coralReserve","type":"uint256"}],"stateMutability":"view","type":"function"},{"inputs":[{"internalType":"address","name":"token","type":"address"}],"name":"getSmoothedMetrics","outputs":[{"internalType":"uint256","name":"lastCount","type":"uint256"},{"internalType":"uint256","name":"smoothedCount","type":"uint256"},{"internalType":"uint256","name":"updateCount","type":"uint256"},{"internalType":"bool","name":"eligibleForRebalance","type":"bool"}],"stateMutability":"view","type":"function"},{"inputs":[],"name":"getTrackedPools","outputs":[{"internalType":"address[]","name":"","type":"address[]"}],"stateMutability":"view","type":"function"},{"inputs":[{"internalType":"address","name":"creatorToken","type":"address"}],"name":"hasMinimumLiquidity","outputs":[{"internalType":"bool","name":"","type":"bool"}],"stateMutability":"view","type":"function"},{"inputs":[{"internalType":"address","name":"token","type":"address"}],"name":"isNativeCoral","outputs":[{"internalType":"bool","name":"","type":"bool"}],"stateMutability":"view","type":"function"},{"inputs":[{"internalType":"address","name":"pool","type":"address"}],"name":"isPoolActive","outputs":[{"internalType":"bool","name":"","type":"bool"}],"stateMutability":"view","type":"function"},{"inputs":[{"internalType":"address","name":"","type":"address"}],"name":"isTrackedPool","outputs":[{"internalType":"bool","name":"","type":"bool"}],"stateMutability":"view","type":"function"},{"inputs":[{"internalType":"uint256","name":"liquidity","type":"uint256"}],"name":"isValidLiquidity","outputs":[{"internalType":"bool","name":"","type":"bool"}],"stateMutability":"pure","type":"function"},{"inputs":[],"name":"lastRebalanceTimestamp","outputs":[{"internalType":"uint256","name":"","type":"uint256"}],"stateMutability":"view","type":"function"},{"inputs":[],"name":"mostNeededPool","outputs":[{"internalType":"address","name":"pool","type":"address"},{"internalType":"uint256","name":"score","type":"uint256"},{"internalType":"uint256","name":"lastUpdateTime","type":"uint256"}],"stateMutability":"view","type":"function"},{"inputs":[],"name":"owner","outputs":[{"internalType":"address","name":"","type":"address"}],"stateMutability":"view","type":"function"},{"inputs":[{"internalType":"address","name":"","type":"address"}],"name":"poolActivity","outputs":[{"internalType":"uint256","name":"lastTradeTimestamp","type":"uint256"},{"internalType":"uint256","name":"tradingVolume24h","type":"uint256"},{"internalType":"uint256","name":"lastVolumeUpdateTime","type":"uint256"}],"stateMutability":"view","type":"function"},{"inputs":[{"internalType":"address","name":"","type":"address"}],"name":"priceDiscovery","outputs":[{"internalType":"uint256","name":"initialSubscribers","type":"uint256"},{"internalType":"uint256","name":"currentSubscribers","type":"uint256"},{"internalType":"uint256","name":"observationStartTime","type":"uint256"},{"internalType":"bool","name":"isInDiscovery","type":"bool"}],"stateMutability":"view","type":"function"},{"inputs":[{"internalType":"address","name":"token","type":"address"},{"internalType":"uint256","name":"currentSubscribers","type":"uint256"}],"name":"recordEngagementSnapshot","outputs":[],"stateMutability":"nonpayable","type":"function"},{"inputs":[{"internalType":"address","name":"token","type":"address"},{"internalType":"address","name":"targetPool","type":"address"}],"name":"redeployFees","outputs":[],"stateMutability":"nonpayable","type":"function"},{"inputs":[{"internalType":"address","name":"creatorToken","type":"address"},{"internalType":"uint256","name":"amountCreator","type":"uint256"},{"internalType":"uint256","name":"amountCoral","type":"uint256"}],"name":"removeLiquidity","outputs":[],"stateMutability":"nonpayable","type":"function"},{"inputs":[{"internalType":"address","name":"pool","type":"address"}],"name":"removePoolFromTracking","outputs":[],"stateMutability":"nonpayable","type":"function"},{"inputs":[],"name":"renounceOwnership","outputs":[],"stateMutability":"nonpayable","type":"function"},{"inputs":[{"internalType":"address","name":"_dex","type":"address"}],"name":"setDEX","outputs":[],"stateMutability":"nonpayable","type":"function"},{"inputs":[{"internalType":"address","name":"token","type":"address"},{"internalType":"uint256","name":"initialSubscribers","type":"uint256"}],"name":"startPriceDiscovery","outputs":[],"stateMutability":"nonpayable","type":"function"},{"inputs":[{"internalType":"address","name":"","type":"address"}],"name":"tokenEngagement","outputs":[{"internalType":"uint256","name":"lastSubscriberCount","type":"uint256"},{"internalType":"uint256","name":"smoothedSubscriberCount","type":"uint256"},{"internalType":"uint256","name":"lastUpdateTime","type":"uint256"},{"internalType":"uint256","name":"updateCount","type":"uint256"}],"stateMutability":"view","type":"function"},{"inputs":[{"internalType":"uint256","name":"","type":"uint256"}],"name":"trackedPools","outputs":[{"internalType":"address","name":"","type":"address"}],"stateMutability":"view","type":"function"},{"inputs":[{"internalType":"uint256","name":"amount","type":"uint256"}],"name":"transferCoralToDEX","outputs":[],"stateMutability":"nonpayable","type":"function"},{"inputs":[{"internalType":"address","name":"newOwner","type":"address"}],"name":"transferOwnership","outputs":[],"stateMutability":"nonpayable","type":"function"},{"inputs":[{"internalType":"address","name":"token","type":"address"},{"internalType":"uint256","name":"newSubscriberCount","type":"uint256"}],"name":"updateEngagementMetrics","outputs":[],"stateMutability":"nonpayable","type":"function"},{"inputs":[{"internalType":"address","name":"pool","type":"address"},{"internalType":"uint256","name":"tradeAmount","type":"uint256"}],"name":"updatePoolActivity","outputs":[],"stateMutability":"nonpayable","type":"function"},{"inputs":[{"internalType":"address","name":"token","type":"address"},{"internalType":"uint256","name":"amount","type":"uint256"}],"name":"withdrawFees","outputs":[],"stateMutability":"nonpayable","type":"function"},{"stateMutability":"payable","type":"receive"}],"evm":{"bytecode":{"linkReferences":{},"object":"60803460d157601f61316538819003918201601f19168301916001600160401b0383118484101760d65780849260209460405283398101031260d157516001600160a01b0381169081900360d157331560bb5760008054336001600160a01b0319821681178355604051939290916001600160a01b0316907f8be0079c531659141344cd1fd0a4f28419497f9722a3daafe3b4186f6b6457e09080a3600480546001600160a01b03191691909117905561307890816100ed8239f35b631e4fbdf760e01b600052600060045260246000fd5b600080fd5b634e487b7160e01b600052604160045260246000fdfe6080806040526004361015610011575b005b60003560e01c908163051e0e67146123e15750806314f302ac146123b8578063173596881461178b5780631879dcf3146123955780631b5a799a146123725780631cead9a71461233857806321b77d63146112e55780632253fc3c146121ee57806323bfa792146121ac5780632d957a8c1461218f5780632ef972651461215457806330ae78051461213757806331ad24f81461211b5780633417c3d0146120ee5780633c231efd14611f705780633e99c1e414611e9f5780633ec4335014611e05578063414f99ae14611de75780634e358af214611ae057806355776b77146117ac5780635889486e146117905780635c2da7cd1461178b578063692058c2146117625780636d2beef114611746578063708b99351461170c578063715018a6146116b357806374a92c661461167457806376fbf2d4146115b05780637b66a7231461150c57806384f74a69146114d25780638c93ca7c146113135780638da5cb5b146112ea578063993d3450146112e5578063a033fcd414611279578063a1ce920414611242578063a711e6a11461121f578063ad3b1b4714611151578063b1eb4835146110f5578063b2098fa214611029578063b83d81571461100b578063bba2e14014610fe2578063bc99f48714610d45578063bd1e31aa14610b8a578063bd368d4814610b69578063d6f969e214610b19578063e1aeb09214610ab2578063e38192e314610824578063e71e76c114610765578063e7c75b7914610706578063f2fd23de146106aa578063f2fde38b14610621578063f836c8f2146105ca578063f86325ed146105a7578063fb28ceb21461057a5763fb99d5f41461027757005b3461057557602036600319011261057557610290612439565b610298612b90565b60018060a01b0316806000526007602052604060002060038101906102c060ff8354166128b8565b60028101546078810180911161041f5742106105305760008381526007602052604081206004018054829190825b81811061043e575050811590506104355761030891612501565b80670de0b6b3a76400000290670de0b6b3a764000082040361041f576127109004670de0b6b3a7640000019081670de0b6b3a76400001161041f577f928602a1348c2d5cc6354f7e6953a38bfaf42426cd5d8c83dc7c42b972cfcdb09261039e6001928487604096916729a2241af62c000081116103d5575b505067016345785d8a00008111156103c3579384915b0154612521565b9085600052600260205281846000205560ff19815416905582519182526020820152a2005b5067016345785d8a0000938491610397565b7ffbb0338b3040d7b9bd8495de3d07128625b3ead1c3464340ed2e760a015d7447919250879081519081526729a2241af62c00006020820152a26729a2241af62c00008738610381565b634e487b7160e01b600052601160045260246000fd5b50506000610308565b8061044c575b6001016102ee565b61045681846124bf565b905460001983019160031b1c82821161041f5761047382866124bf565b90549060031b1c10610486575b50610444565b6104948285979396976124bf565b90549060031b1c906104b96000926104ac83886124bf565b90549060031b1c906126f8565b91612710830292808404612710149015171561051c57926104f561050f936104e86105099460019750896124bf565b90549060031b1c90612501565b6127108111156105165750612710906128ab565b95612705565b9390610480565b906128ab565b634e487b7160e01b81526011600452602490fd5b60405162461bcd60e51b815260206004820152601d60248201527f446973636f7665727920706572696f64206e6f7420636f6d706c6574650000006044820152606490fd5b600080fd5b3461057557602036600319011261057557602061059d610598612439565b612b48565b6040519015158152f35b34610575576000366003190112610575576020604051670de0b6b3a76400008152f35b346105755760203660031901126105755760606105e5612439565b60018060a01b038116600052600a60205260406000209061060c60018354930154916128f7565b90604051928352602083015215156040820152f35b346105755760203660031901126105755761063a612439565b610642612b90565b6001600160a01b0316801561069457600080546001600160a01b03198116831782556001600160a01b0316907f8be0079c531659141344cd1fd0a4f28419497f9722a3daafe3b4186f6b6457e09080a3005b631e4fbdf760e01b600052600060045260246000fd5b34610575576020366003190112610575576001600160a01b036106cb612439565b166000526006602052608060406000208054906001810154906003600282015491015491604051938452602084015260408301526060820152f35b34610575576020366003190112610575576020600435678ac7230489e80000811015908161073a575b506040519015158152f35b7f5555555555555555555555555555555555555555555555555555555555555555915011158261072f565b346105755760403660031901126105755761077e612439565b6024359061079760018060a01b03600b54163314612946565b60018060a01b03169081600052600a602052604060002090428255600282019182549062015180820180921161041f577f339a588d56f667ba0a8358be57070b2b0c9f5159d43eba838ef1da89159b985a93604093600193421061080d57838301554290555b01548151908152426020820152a2005b905061081d8383019182546128ab565b90556107fd565b3461057557610832366124d7565b9161083b612b90565b60018060a01b0316918260005260016020528160406000205410610a6d578260005260026020528060406000205410610a2857826000526001602052610899678ac7230489e80000610892846040600020546126f8565b1015612afc565b8260005260026020526108bd678ac7230489e80000610892836040600020546126f8565b82600052600160205260406000206108d68382546126f8565b905582600052600260205260406000206108f18282546126f8565b9055600454610908906001600160a01b0316612b48565b156109f3576109198147101561285f565b600080808084335af13d156109ee573d67ffffffffffffffff81116109d85760405190610950601f8201601f19166020018361283d565b8152600060203d92013e5b15610993577f96cd817c6329656790ef8fba7675405193677d39619571282f5e21f3a98cd059916040915b82519182526020820152a2005b60405162461bcd60e51b815260206004820152601b60248201527f434f52414c20746f6b656e207472616e73666572206661696c656400000000006044820152606490fd5b634e487b7160e01b600052604160045260246000fd5b61095b565b81604091610a237f96cd817c6329656790ef8fba7675405193677d39619571282f5e21f3a98cd059943387612ca5565b610986565b60405162461bcd60e51b815260206004820152601c60248201527f496e73756666696369656e7420434f52414c206c6971756964697479000000006044820152606490fd5b60405162461bcd60e51b815260206004820152601e60248201527f496e73756666696369656e742063726561746f72206c697175696469747900006044820152606490fd5b34610575576020366003190112610575576001600160a01b03610ad3612439565b166000908152600760209081526040918290208054600182015460028301546003909301548551928352938201529283015260ff161515606082015280608081015b0390f35b3461057557600036600319011261057557600c54600d54600e5490916001600160a01b031690610e1081019081811161041f57608093604051938452602084015260408301524210156060820152f35b3461057557600036600319011261057557610b82612b90565b61000f612e3b565b3461057557604036600319011261057557610ba3612439565b6024356001600160a01b0381169182820361057557610bc0612b90565b6001600160a01b03166000818152600360205260409020549091610bed610be5612992565b8315156129cd565b610c09610bf8612a30565b674563918244f400008410156129cd565b8260005260036020526040600020610c228382546126f8565b9055600454610c39906001600160a01b0316612b48565b15610c925750602081610c6f7fa2e59056a8017237dd27a52d5981fb4983f1a43828d018d9ba6e76c801fe905993471015612ab7565b84600052600282526040600020610c878282546128ab565b9055604051908152a3005b906040516370a0823160e01b8152306004820152602081602481875afa908115610d3957600091610d03575b5090610cfa817fa2e59056a8017237dd27a52d5981fb4983f1a43828d018d9ba6e76c801fe905994610cf4826020961015612a6b565b86612ca5565b604051908152a3005b9190506020823d602011610d31575b81610d1f6020938361283d565b81010312610575579051610cfa610cbe565b3d9150610d12565b6040513d6000823e3d90fd5b3461057557602036600319011261057557610d5e612439565b610d7360018060a01b03600b54163314612946565b6001600160a01b031660008181526003602052604090205490610d97610be5612992565b610da2610bf8612a30565b610daa612d29565b6001600160a01b03811692908315610fa457610dc68282612da1565b918215610f68578211610f17578260005260036020526040600020610dec8382546126f8565b9055600454610e03906001600160a01b0316612b48565b15610e795750610e7481610e3a7f5b1142ecb7caa10961adcac369fb4c5e7fa3629b1b53df070f2e8a2014c5177793471015612ab7565b8460005260026020526040600020610e538282546128ab565b90555b60408051828152602081019290925242908201529081906060820190565b0390a3005b906040516370a0823160e01b8152306004820152602081602481875afa908115610d3957600091610ee1575b5090610edc817f5b1142ecb7caa10961adcac369fb4c5e7fa3629b1b53df070f2e8a2014c5177794610cf482610e74961015612a6b565b610e56565b9190506020823d602011610f0f575b81610efd6020938361283d565b81010312610575579051610edc610ea5565b3d9150610ef0565b60405162461bcd60e51b8152602060048201526024808201527f4465706c6f7920616d6f756e74206578636565647320617661696c61626c65206044820152636665657360e01b6064820152608490fd5b60405162461bcd60e51b8152602060048201526014602482015273139bc819195c1b1bde5b595b9d081b995959195960621b6044820152606490fd5b60405162461bcd60e51b8152602060048201526016602482015275139bc81cdd5a5d18589b19481c1bdbdb08199bdd5b9960521b6044820152606490fd5b34610575576000366003190112610575576004546040516001600160a01b039091168152602090f35b34610575576000366003190112610575576020600554604051908152f35b34610575576000366003190112610575576040518060206008549283815201809260086000527ff3f7a9fe364faab93b216da50a3214154f22a0a2b415b23a84c8169e8b636ee39060005b8181106110d6575050508161108a91038261283d565b6040519182916020830190602084525180915260408301919060005b8181106110b4575050500390f35b82516001600160a01b03168452859450602093840193909201916001016110a6565b82546001600160a01b0316845260209093019260019283019201611074565b34610575576020366003190112610575576001600160a01b03611116612439565b166000908152600660209081526040918290208054600182015460039283015485519283529382015292830182905211156060820152608090f35b346105755760403660031901126105755761116a612439565b60243590611176612b90565b60018060a01b03169081600052600360205280604060002054106111e65760207fc0819c13be868895eb93e40eaceb96de976442fa1d404e5c55f14bb65a8c489a91836000526003825260406000206111d08282546126f8565b90556111dd813386612ca5565b604051908152a2005b60405162461bcd60e51b8152602060048201526011602482015270496e73756666696369656e74206665657360781b6044820152606490fd5b3461057557602036600319011261057557602061059d61123d612439565b6128f7565b3461057557600036600319011261057557606060018060a01b03600c5416600d54600e549060405192835260208301526040820152f35b3461057557604036600319011261057557611292612439565b7f9dc46f23cfb5ddcad0ae7ea2be38d47fec07bb9382ec7e564efc69e036dd66ce60206024359260018060a01b031692836000526003825260406000206112da8282546128ab565b9055604051908152a2005b61246b565b34610575576000366003190112610575576000546040516001600160a01b039091168152602090f35b346105755760403660031901126105755761132c612439565b60243590611338612b90565b6001600160a01b031660008181526007602052604090206003015490919060ff166114965760209060405161136d838261283d565b60008152600036813760405160a081019080821067ffffffffffffffff8311176109d85760049160405283815284810184815260408201428152606083019160018352608084019586528860005260078852604060002093518455516001840155516002830155600382019051151560ff801983541691161790550190519081519167ffffffffffffffff83116109d857600160401b83116109d8578490825484845580851061146b575b5001906000528360002060005b83811061145957867f9d3136590a24e6eb0d058d4d9b8c4d5be27926b0abfeca301a4d5fc0aaab775d8787604051908152a2005b82518282015591850191600101611425565b83600052848360002091820191015b8181106114875750611418565b6000815587935060010161147a565b60405162461bcd60e51b8152602060048201526014602482015273416c726561647920696e20646973636f7665727960601b6044820152606490fd5b34610575576020366003190112610575576001600160a01b036114f3612439565b1660005260026020526020604060002054604051908152f35b3461057557602036600319011261057557611525612439565b61152d612b90565b6001600160a01b0316801561157557600b80546001600160a01b031916821790557ff4f735542e91d7c018c02855a6a19fbbcf7f4d7fb006982ebcbb5753408a638b600080a2005b60405162461bcd60e51b8152602060048201526013602482015272496e76616c696420444558206164647265737360681b6044820152606490fd5b34610575576020366003190112610575576115c9612439565b60408051630fa6707960e21b81526001600160a01b03909216600483015281602481305afa8015610d3957600091600091611632575b50678ac7230489e800006020921015908161161f57506040519015158152f35b678ac7230489e80000915010158261072f565b9150506040813d60401161166c575b8161164e6040938361283d565b81010312610575578051602090910151678ac7230489e800006115ff565b3d9150611641565b34610575576020366003190112610575576001600160a01b03611695612439565b166000526009602052602060ff604060002054166040519015158152f35b34610575576000366003190112610575576116cc612b90565b600080546001600160a01b0319811682556001600160a01b03167f8be0079c531659141344cd1fd0a4f28419497f9722a3daafe3b4186f6b6457e08280a3005b34610575576020366003190112610575576001600160a01b0361172d612439565b1660005260016020526020604060002054604051908152f35b3461057557600036600319011261057557602060405160148152f35b3461057557600036600319011261057557600b546040516001600160a01b039091168152602090f35b61244f565b3461057557600036600319011261057557602060405160038152f35b6117b5366124d7565b9080151580611ad7575b15611a92576001600160a01b038316928315611a55578360005260016020526040600020541580611a3f575b156119a4575b6117fd82303387612ce5565b6004546001600160a01b03168361181382612b48565b156119925790503403611954575b836000526001602052604060002061183a8382546128ab565b905583600052600260205260406000206118558482546128ab565b905583600052600960205260ff60406000205416156118a2575b506040907fac1d76749e5447b7b16f5ab61447e1bd502f3bb4807af3b28e620d1700a6ee459282519182526020820152a2005b9060085492600160401b8410156109d85761190e6040936118ea8660017fac1d76749e5447b7b16f5ab61447e1bd502f3bb4807af3b28e620d1700a6ee45980160085561248e565b81546001600160a01b0393841660039290921b91821b9390911b1916919091179055565b84600052600960205282600020600160ff19825416179055847f402f8a396b78c225022a54972367fd98a174c970fbf537400bb383a0690ebd78600080a292509061186f565b60405162461bcd60e51b8152602060048201526016602482015275125b98dbdc9c9958dd0810d3d4905308185b5bdd5b9d60521b6044820152606490fd5b61199f9130903390612ce5565b611821565b836000526001602052678ac7230489e800006119c5836040600020546128ab565b101580611a16575b6117f15760405162461bcd60e51b815260206004820152601760248201527f42656c6f77206d696e696d756d206c69717569646974790000000000000000006044820152606490fd5b50836000526002602052678ac7230489e80000611a38846040600020546128ab565b10156119cd565b50836000526002602052604060002054156117eb565b60405162461bcd60e51b815260206004820152601560248201527424b73b30b634b21031b932b0ba37b9103a37b5b2b760591b6044820152606490fd5b60405162461bcd60e51b815260206004820152601960248201527f496e76616c6964206c697175696469747920616d6f756e7473000000000000006044820152606490fd5b508115156117bf565b3461057557604036600319011261057557611af9612439565b60243590611b05612b90565b60018060a01b031690816000526007602052604060002090611b2d60ff6003840154166128b8565b60048201908154926006841015611daa57600160401b8410156109d857604082869360017f469b6894b4b45f49c7c10aa3e70e1fae20f0eba89b628e3d69af9d7a34ef8bcf94611b84898360069b018a55896124bf565b81549060031b9085821b91600019901b191617905501558151908152426020820152a25414611baf57005b611bb7612b90565b80600052600760205260406000206003810190611bd760ff8354166128b8565b60028101546078810180911161041f5742106105305760008381526007602052604081206004018054829190825b818110611d0657505081159050611cfd57611c1f91612501565b80670de0b6b3a76400000290670de0b6b3a764000082040361041f576127109004670de0b6b3a7640000019081670de0b6b3a76400001161041f577f928602a1348c2d5cc6354f7e6953a38bfaf42426cd5d8c83dc7c42b972cfcdb09261039e6001928487604096916729a2241af62c00008111611cb357505067016345785d8a00008111156103c3579384910154612521565b7ffbb0338b3040d7b9bd8495de3d07128625b3ead1c3464340ed2e760a015d7447919250879081519081526729a2241af62c00006020820152a26729a2241af62c00008789610381565b50506000611c1f565b80611d14575b600101611c05565b611d1e81846124bf565b905460001983019160031b1c82821161041f57611d3b82866124bf565b90549060031b1c10611d4e575b50611d0c565b611d5c8285979396976124bf565b90549060031b1c90611d746000926104ac83886124bf565b91612710830292808404612710149015171561051c57926104f5611da3936104e86105099460019750896124bf565b9390611d48565b60405162461bcd60e51b815260206004820152601560248201527413585e081cdb985c1cda1bdd1cc81c995858da1959605a1b6044820152606490fd5b3461057557600036600319011261057557602060405162093a808152f35b3461057557602036600319011261057557611e1e612439565b6005546078810180911161041f574210611e5a576001600160a01b038116600090815260066020526040902054611e5491612bb9565b42600555005b60405162461bcd60e51b815260206004820152601760248201527f546f6f206561726c7920666f7220726562616c616e63650000000000000000006044820152606490fd5b3461057557602036600319011261057557611eb8612439565b6001600160a01b03168015611f2b57806040916000526009602052611ee360ff8360002054166126b9565b806000526001602052816000205490611f0560018060a01b0360045416612b48565b15611f195750475b82519182526020820152f35b60005260026020528160002054611f0d565b60405162461bcd60e51b815260206004820152601d60248201527f496e76616c69642063726561746f7220746f6b656e20616464726573730000006044820152606490fd5b3461057557602036600319011261057557600435611f8c612b90565b80156120aa57600b546001600160a01b0316801561206c57600480546040516370a0823160e01b815230928101929092526001600160a01b031691602082602481865afa8015610d39578492600091612033575b5092611ff183611ff695101561285f565b612ca5565b7f5743c23aa18e9c7c385e45094156d20b8a0436ddc5e68943713e62ce630951a1604060018060a01b03600b5416928151908152426020820152a2005b9250506020823d602011612064575b8161204f6020938361283d565b81010312610575579051839190611ff1611fe0565b3d9150612042565b60405162461bcd60e51b8152602060048201526016602482015275111156081859191c995cdcc81a5cc81b9bdd081cd95d60521b6044820152606490fd5b606460405162461bcd60e51b815260206004820152602060248201527f416d6f756e74206d7573742062652067726561746572207468616e207a65726f6044820152fd5b346105755760403660031901126105755761000f61210a612439565b612112612b90565b60243590612714565b3461057557600036600319011261057557602060405160068152f35b346105755760003660031901126105755760206040516103e88152f35b346105755760003660031901126105755760206040517f3d962df346299889e3ddd098bdd68cf335a1e370339bd306448317d39b39a66d8152f35b34610575576000366003190112610575576020604051610e108152f35b3461057557602036600319011261057557600435600854811015610575576121d560209161248e565b905460405160039290921b1c6001600160a01b03168152f35b3461057557602036600319011261057557612207612439565b61220f612b90565b6001600160a01b03166000818152600960205260409020546122339060ff166126b9565b60005b6008549081811015612331578261224c8261248e565b905460039190911b1c6001600160a01b03161461226d576001915001612236565b600019820191821161041f57818103612303575b505060085480156122ed57600019016122998161248e565b81549060018060a01b039060031b1b191690556008555b806000526009602052604060002060ff1981541690557ffe00c1e8cd2c81e2fc9fbcfbd6eef9904d0b41515821320d5c45abe6e8baae55600080a2005b634e487b7160e01b600052603160045260246000fd5b6118ea61231261232a9361248e565b905460039190911b1c6001600160a01b03169161248e565b8180612281565b50506122b0565b34610575576020366003190112610575576001600160a01b03612359612439565b1660005260036020526020604060002054604051908152f35b34610575576000366003190112610575576020604051674563918244f400008152f35b3461057557600036600319011261057557602060405167016345785d8a00008152f35b346105755760403660031901126105755760206123d9602435600435612521565b604051908152f35b34610575576020366003190112610575576001600160a01b03612402612439565b16600052600a60205280610b1560406000208054906002600182015491015491846040919493926060820195825260208201520152565b600435906001600160a01b038216820361057557565b3461057557600036600319011261057557602060405160788152f35b34610575576000366003190112610575576020604051678ac7230489e800008152f35b6008548110156124a957600860005260206000200190600090565b634e487b7160e01b600052603260045260246000fd5b80548210156124a95760005260206000200190600090565b6060906003190112610575576004356001600160a01b038116810361057557906024359060443590565b811561250b570490565b634e487b7160e01b600052601260045260246000fd5b9081156126745767016345785d8a00008110612639576729a2241af62c000081116125fe5780820291808304820361041f5761255d9083612501565b036125b957678ac7230489e8000081106125745790565b60405162461bcd60e51b815260206004820152601760248201527f4c69717569646974792062656c6f77206d696e696d756d0000000000000000006044820152606490fd5b60405162461bcd60e51b815260206004820152601e60248201527f4c69717569646974792063616c63756c6174696f6e206f766572666c6f7700006044820152606490fd5b60405162461bcd60e51b815260206004820152601360248201527250726963652061626f7665206d6178696d756d60681b6044820152606490fd5b60405162461bcd60e51b815260206004820152601360248201527250726963652062656c6f77206d696e696d756d60681b6044820152606490fd5b60405162461bcd60e51b815260206004820152601860248201527f496e76616c6964207375627363726962657220636f756e7400000000000000006044820152606490fd5b156126c057565b60405162461bcd60e51b815260206004820152601060248201526f141bdbdb081b9bdd081d1c9858dad95960821b6044820152606490fd5b9190820391821161041f57565b600019811461041f5760010190565b6001600160a01b03811660008181526006602052604090208054929391921561280d576001810192835460508102908082046050149015171561041f5760148402928484046014148515171561041f576127786003949260648087950491046128ab565b80968683555542600282015501906127908254612705565b8092557fca21c0666034043e35144e1a6964b4519a124330e0122463475f81a0c189d119604051806127d5428989846040919493926060820195825260208201520152565b0390a210156127e357505050565b606e8202828104606e148315171561041f576064900410612802575050565b61280b91612bb9565b565b906001935060039250808255838201550155565b6060810190811067ffffffffffffffff8211176109d857604052565b90601f8019910116810190811067ffffffffffffffff8211176109d857604052565b1561286657565b60405162461bcd60e51b815260206004820152601a60248201527f496e73756666696369656e7420434f52414c2062616c616e63650000000000006044820152606490fd5b9190820180921161041f57565b156128bf57565b60405162461bcd60e51b815260206004820152601060248201526f4e6f7420696e20646973636f7665727960801b6044820152606490fd5b60018060a01b0316600052600a6020526040600020600181549101549062093a7f1942019042821161041f571061294057678ac7230489e800001161293b57600190565b600090565b50600090565b1561294d57565b60405162461bcd60e51b815260206004820152601f60248201527f4f6e6c79204445582063616e2063616c6c20746869732066756e6374696f6e006044820152606490fd5b604051906129a160408361283d565b601d82527f4e6f206665657320617661696c61626c6520746f2072656465706c6f790000006020830152565b156129d55750565b6040519062461bcd60e51b8252602060048301528181519182602483015260005b838110612a185750508160006044809484010152601f80199101168101030190fd5b602082820181015160448784010152859350016129f6565b60405190612a3f60408361283d565b601b82527f42656c6f77206d696e696d756d20666565207468726573686f6c6400000000006020830152565b15612a7257565b60405162461bcd60e51b815260206004820152601a60248201527f496e73756666696369656e7420746f6b656e2062616c616e63650000000000006044820152606490fd5b15612abe57565b60405162461bcd60e51b8152602060048201526016602482015275496e73756666696369656e7420532062616c616e636560501b6044820152606490fd5b15612b0357565b60405162461bcd60e51b815260206004820152601b60248201527f43616e6e6f742072656d6f766520616c6c206c697175696469747900000000006044820152606490fd5b6004546001600160a01b0391821691168114908115612b87575b8115612b6c575090565b73eeeeeeeeeeeeeeeeeeeeeeeeeeeeeeeeeeeeeeee91501490565b80159150612b62565b6000546001600160a01b03163303612ba457565b63118cdaa760e01b6000523360045260246000fd5b60018060a01b031690816000526002602052678ac7230489e8000060406000205410612c3c57670de0b6b3a7640000810290808204670de0b6b3a7640000149015171561041f5760207f8eb665708d1cbfa2df196d5f041bc00ac33e9c6e0b42b64233aed0c7c84da7e191836000526002825280604060002055604051908152a2565b508060005260026020527f43c29e41362bceae5b8f10cf00d57c5b525a270a7ff263f5c6b24158459b0bbe6080604060002054604051908152604060208201526016604082015275496e73756666696369656e74206c697175696469747960501b6060820152a2565b60405163a9059cbb60e01b60208201526001600160a01b03909216602483015260448083019390935291815261280b91612ce060648361283d565b612fe7565b6040516323b872dd60e01b60208201526001600160a01b03928316602482015292909116604483015260648083019390935291815261280b91612ce060848361283d565b600c546001600160a01b031680151580612d8a575b612d5b575b50612d4c612e3b565b600c546001600160a01b031690565b80600052600960205260ff6040600020541680612d7b575b15612d435790565b50612d85816128f7565b612d73565b50600e54610e10810180911161041f574210612d3e565b6001600160a01b03168015612e345780600052600260205260406000205490600052600a602052678ac7230489e80000604060002091604051612de381612821565b8354815260406002600186015495866020850152015491015210612e30576801158e460913d0000010612e165760011c90565b604b810290808204604b149015171561041f576064900490565b5090565b5050600090565b600c80546001600160a01b03191690556000600d556008548015612fe45762093a7f1942019042821161041f5760005b818110612eb85750505042600e5560018060a01b03600c54167f02bc000d157093a2097e6514a43c3baea9e0cfbe6ee606d000e64892a9ec425d6040600d548151908152426020820152a2565b612ec18161248e565b60018060a01b0391549060031b1c169081600052600a602052604060002060405190612eec82612821565b80548252600260018201549160208401928352015460408301528360005260096020528560ff6040600020541615928315612fd9575b50508115612fc6575b50612fbd578160005260026020526040600020549180600052600a60205260016040600020015460078402938085046007149015171561041f5760038102908082046003149015171561041f57612f86600a916001956128ab565b0490600d548211612f9b575b50505b01612e6b565b6bffffffffffffffffffffffff60a01b600c541617600c55600d553880612f92565b60019150612f95565b678ac7230489e800009150511038612f2b565b511091508538612f22565b50565b906000602091828151910182855af115610d39576000513d61303957506001600160a01b0381163b155b6130185750565b635274afe760e01b60009081526001600160a01b0391909116600452602490fd5b6001141561301156fea26469706673582212202af1891df2aa832ab2cb7a23a8d9e1268710033cfa6d9c9b57a58584be595dcc64736f6c634300081c0033","opcodes":"PUSH1 0x80 CALLVALUE PUSH1 0xD1 JUMPI PUSH1 0x1F PUSH2 0x3165 CODESIZE DUP2 SWAP1 SUB SWAP2 DUP3 ADD PUSH1 0x1F NOT AND DUP4 ADD SWAP2 PUSH1 0x1 PUSH1 0x1 PUSH1 0x40 SHL SUB DUP4 GT DUP5 DUP5 LT OR PUSH1 0xD6 JUMPI DUP1 DUP5 SWAP3 PUSH1 0x20 SWAP5 PUSH1 0x40 MSTORE DUP4 CODECOPY DUP2 ADD SUB SLT PUSH1 0xD1 JUMPI MLOAD PUSH1 0x1 PUSH1 0x1 PUSH1 0xA0 SHL SUB DUP2 AND SWAP1 DUP2 SWAP1 SUB PUSH1 0xD1 JUMPI CALLER ISZERO PUSH1 0xBB JUMPI PUSH1 0x0 DUP1 SLOAD CALLER PUSH1 0x1 PUSH1 0x1 PUSH1 0xA0 SHL SUB NOT DUP3 AND DUP2 OR DUP4 SSTORE PUSH1 0x40 MLOAD SWAP4 SWAP3 SWAP1 SWAP2 PUSH1 0x1 PUSH1 0x1 PUSH1 0xA0 SHL SUB AND SWAP1 PUSH32 0x8BE0079C531659141344CD1FD0A4F28419497F9722A3DAAFE3B4186F6B6457E0 SWAP1 DUP1 LOG3 PUSH1 0x4 DUP1 SLOAD PUSH1 0x1 PUSH1 0x1 PUSH1 0xA0 SHL SUB NOT AND SWAP2 SWAP1 SWAP2 OR SWAP1 SSTORE PUSH2 0x3078 SWAP1 DUP2 PUSH2 0xED DUP3 CODECOPY RETURN JUMPDEST PUSH4 0x1E4FBDF7 PUSH1 0xE0 SHL PUSH1 0x0 MSTORE PUSH1 0x0 PUSH1 0x4 MSTORE PUSH1 0x24 PUSH1 0x0 REVERT JUMPDEST PUSH1 0x0 DUP1 REVERT JUMPDEST PUSH4 0x4E487B71 PUSH1 0xE0 SHL PUSH1 0x0 MSTORE PUSH1 0x41 PUSH1 0x4 MSTORE PUSH1 0x24 PUSH1 0x0 REVERT INVALID PUSH1 0x80 DUP1 PUSH1 0x40 MSTORE PUSH1 0x4 CALLDATASIZE LT ISZERO PUSH2 0x11 JUMPI JUMPDEST STOP JUMPDEST PUSH1 0x0 CALLDATALOAD PUSH1 0xE0 SHR SWAP1 DUP2 PUSH4 0x51E0E67 EQ PUSH2 0x23E1 JUMPI POP DUP1 PUSH4 0x14F302AC EQ PUSH2 0x23B8 JUMPI DUP1 PUSH4 0x17359688 EQ PUSH2 0x178B JUMPI DUP1 PUSH4 0x1879DCF3 EQ PUSH2 0x2395 JUMPI DUP1 PUSH4 0x1B5A799A EQ PUSH2 0x2372 JUMPI DUP1 PUSH4 0x1CEAD9A7 EQ PUSH2 0x2338 JUMPI DUP1 PUSH4 0x21B77D63 EQ PUSH2 0x12E5 JUMPI DUP1 PUSH4 0x2253FC3C EQ PUSH2 0x21EE JUMPI DUP1 PUSH4 0x23BFA792 EQ PUSH2 0x21AC JUMPI DUP1 PUSH4 0x2D957A8C EQ PUSH2 0x218F JUMPI DUP1 PUSH4 0x2EF97265 EQ PUSH2 0x2154 JUMPI DUP1 PUSH4 0x30AE7805 EQ PUSH2 0x2137 JUMPI DUP1 PUSH4 0x31AD24F8 EQ PUSH2 0x211B JUMPI DUP1 PUSH4 0x3417C3D0 EQ PUSH2 0x20EE JUMPI DUP1 PUSH4 0x3C231EFD EQ PUSH2 0x1F70 JUMPI DUP1 PUSH4 0x3E99C1E4 EQ PUSH2 0x1E9F JUMPI DUP1 PUSH4 0x3EC43350 EQ PUSH2 0x1E05 JUMPI DUP1 PUSH4 0x414F99AE EQ PUSH2 0x1DE7 JUMPI DUP1 PUSH4 0x4E358AF2 EQ PUSH2 0x1AE0 JUMPI DUP1 PUSH4 0x55776B77 EQ PUSH2 0x17AC JUMPI DUP1 PUSH4 0x5889486E EQ PUSH2 0x1790 JUMPI DUP1 PUSH4 0x5C2DA7CD EQ PUSH2 0x178B JUMPI DUP1 PUSH4 0x692058C2 EQ PUSH2 0x1762 JUMPI DUP1 PUSH4 0x6D2BEEF1 EQ PUSH2 0x1746 JUMPI DUP1 PUSH4 0x708B9935 EQ PUSH2 0x170C JUMPI DUP1 PUSH4 0x715018A6 EQ PUSH2 0x16B3 JUMPI DUP1 PUSH4 0x74A92C66 EQ PUSH2 0x1674 JUMPI DUP1 PUSH4 0x76FBF2D4 EQ PUSH2 0x15B0 JUMPI DUP1 PUSH4 0x7B66A723 EQ PUSH2 0x150C JUMPI DUP1 PUSH4 0x84F74A69 EQ PUSH2 0x14D2 JUMPI DUP1 PUSH4 0x8C93CA7C EQ PUSH2 0x1313 JUMPI DUP1 PUSH4 0x8DA5CB5B EQ PUSH2 0x12EA JUMPI DUP1 PUSH4 0x993D3450 EQ PUSH2 0x12E5 JUMPI DUP1 PUSH4 0xA033FCD4 EQ PUSH2 0x1279 JUMPI DUP1 PUSH4 0xA1CE9204 EQ PUSH2 0x1242 JUMPI DUP1 PUSH4 0xA711E6A1 EQ PUSH2 0x121F JUMPI DUP1 PUSH4 0xAD3B1B47 EQ PUSH2 0x1151 JUMPI DUP1 PUSH4 0xB1EB4835 EQ PUSH2 0x10F5 JUMPI DUP1 PUSH4 0xB2098FA2 EQ PUSH2 0x1029 JUMPI DUP1 PUSH4 0xB83D8157 EQ PUSH2 0x100B JUMPI DUP1 PUSH4 0xBBA2E140 EQ PUSH2 0xFE2 JUMPI DUP1 PUSH4 0xBC99F487 EQ PUSH2 0xD45 JUMPI DUP1 PUSH4 0xBD1E31AA EQ PUSH2 0xB8A JUMPI DUP1 PUSH4 0xBD368D48 EQ PUSH2 0xB69 JUMPI DUP1 PUSH4 0xD6F969E2 EQ PUSH2 0xB19 JUMPI DUP1 PUSH4 0xE1AEB092 EQ PUSH2 0xAB2 JUMPI DUP1 PUSH4 0xE38192E3 EQ PUSH2 0x824 JUMPI DUP1 PUSH4 0xE71E76C1 EQ PUSH2 0x765 JUMPI DUP1 PUSH4 0xE7C75B79 EQ PUSH2 0x706 JUMPI DUP1 PUSH4 0xF2FD23DE EQ PUSH2 0x6AA JUMPI DUP1 PUSH4 0xF2FDE38B EQ PUSH2 0x621 JUMPI DUP1 PUSH4 0xF836C8F2 EQ PUSH2 0x5CA JUMPI DUP1 PUSH4 0xF86325ED EQ PUSH2 0x5A7 JUMPI DUP1 PUSH4 0xFB28CEB2 EQ PUSH2 0x57A JUMPI PUSH4 0xFB99D5F4 EQ PUSH2 0x277 JUMPI STOP JUMPDEST CALLVALUE PUSH2 0x575 JUMPI PUSH1 0x20 CALLDATASIZE PUSH1 0x3 NOT ADD SLT PUSH2 0x575 JUMPI PUSH2 0x290 PUSH2 0x2439 JUMP JUMPDEST PUSH2 0x298 PUSH2 0x2B90 JUMP JUMPDEST PUSH1 0x1 DUP1 PUSH1 0xA0 SHL SUB AND DUP1 PUSH1 0x0 MSTORE PUSH1 0x7 PUSH1 0x20 MSTORE PUSH1 0x40 PUSH1 0x0 KECCAK256 PUSH1 0x3 DUP2 ADD SWAP1 PUSH2 0x2C0 PUSH1 0xFF DUP4 SLOAD AND PUSH2 0x28B8 JUMP JUMPDEST PUSH1 0x2 DUP2 ADD SLOAD PUSH1 0x78 DUP2 ADD DUP1 SWAP2 GT PUSH2 0x41F JUMPI TIMESTAMP LT PUSH2 0x530 JUMPI PUSH1 0x0 DUP4 DUP2 MSTORE PUSH1 0x7 PUSH1 0x20 MSTORE PUSH1 0x40 DUP2 KECCAK256 PUSH1 0x4 ADD DUP1 SLOAD DUP3 SWAP2 SWAP1 DUP3 JUMPDEST DUP2 DUP2 LT PUSH2 0x43E JUMPI POP POP DUP2 ISZERO SWAP1 POP PUSH2 0x435 JUMPI PUSH2 0x308 SWAP2 PUSH2 0x2501 JUMP JUMPDEST DUP1 PUSH8 0xDE0B6B3A7640000 MUL SWAP1 PUSH8 0xDE0B6B3A7640000 DUP3 DIV SUB PUSH2 0x41F JUMPI PUSH2 0x2710 SWAP1 DIV PUSH8 0xDE0B6B3A7640000 ADD SWAP1 DUP2 PUSH8 0xDE0B6B3A7640000 GT PUSH2 0x41F JUMPI PUSH32 0x928602A1348C2D5CC6354F7E6953A38BFAF42426CD5D8C83DC7C42B972CFCDB0 SWAP3 PUSH2 0x39E PUSH1 0x1 SWAP3 DUP5 DUP8 PUSH1 0x40 SWAP7 SWAP2 PUSH8 0x29A2241AF62C0000 DUP2 GT PUSH2 0x3D5 JUMPI JUMPDEST POP POP PUSH8 0x16345785D8A0000 DUP2 GT ISZERO PUSH2 0x3C3 JUMPI SWAP4 DUP5 SWAP2 JUMPDEST ADD SLOAD PUSH2 0x2521 JUMP JUMPDEST SWAP1 DUP6 PUSH1 0x0 MSTORE PUSH1 0x2 PUSH1 0x20 MSTORE DUP2 DUP5 PUSH1 0x0 KECCAK256 SSTORE PUSH1 0xFF NOT DUP2 SLOAD AND SWAP1 SSTORE DUP3 MLOAD SWAP2 DUP3 MSTORE PUSH1 0x20 DUP3 ADD MSTORE LOG2 STOP JUMPDEST POP PUSH8 0x16345785D8A0000 SWAP4 DUP5 SWAP2 PUSH2 0x397 JUMP JUMPDEST PUSH32 0xFBB0338B3040D7B9BD8495DE3D07128625B3EAD1C3464340ED2E760A015D7447 SWAP2 SWAP3 POP DUP8 SWAP1 DUP2 MLOAD SWAP1 DUP2 MSTORE PUSH8 0x29A2241AF62C0000 PUSH1 0x20 DUP3 ADD MSTORE LOG2 PUSH8 0x29A2241AF62C0000 DUP8 CODESIZE PUSH2 0x381 JUMP JUMPDEST PUSH4 0x4E487B71 PUSH1 0xE0 SHL PUSH1 0x0 MSTORE PUSH1 0x11 PUSH1 0x4 MSTORE PUSH1 0x24 PUSH1 0x0 REVERT JUMPDEST POP POP PUSH1 0x0 PUSH2 0x308 JUMP JUMPDEST DUP1 PUSH2 0x44C JUMPI JUMPDEST PUSH1 0x1 ADD PUSH2 0x2EE JUMP JUMPDEST PUSH2 0x456 DUP2 DUP5 PUSH2 0x24BF JUMP JUMPDEST SWAP1 SLOAD PUSH1 0x0 NOT DUP4 ADD SWAP2 PUSH1 0x3 SHL SHR DUP3 DUP3 GT PUSH2 0x41F JUMPI PUSH2 0x473 DUP3 DUP7 PUSH2 0x24BF JUMP JUMPDEST SWAP1 SLOAD SWAP1 PUSH1 0x3 SHL SHR LT PUSH2 0x486 JUMPI JUMPDEST POP PUSH2 0x444 JUMP JUMPDEST PUSH2 0x494 DUP3 DUP6 SWAP8 SWAP4 SWAP7 SWAP8 PUSH2 0x24BF JUMP JUMPDEST SWAP1 SLOAD SWAP1 PUSH1 0x3 SHL SHR SWAP1 PUSH2 0x4B9 PUSH1 0x0 SWAP3 PUSH2 0x4AC DUP4 DUP9 PUSH2 0x24BF JUMP JUMPDEST SWAP1 SLOAD SWAP1 PUSH1 0x3 SHL SHR SWAP1 PUSH2 0x26F8 JUMP JUMPDEST SWAP2 PUSH2 0x2710 DUP4 MUL SWAP3 DUP1 DUP5 DIV PUSH2 0x2710 EQ SWAP1 ISZERO OR ISZERO PUSH2 0x51C JUMPI SWAP3 PUSH2 0x4F5 PUSH2 0x50F SWAP4 PUSH2 0x4E8 PUSH2 0x509 SWAP5 PUSH1 0x1 SWAP8 POP DUP10 PUSH2 0x24BF JUMP JUMPDEST SWAP1 SLOAD SWAP1 PUSH1 0x3 SHL SHR SWAP1 PUSH2 0x2501 JUMP JUMPDEST PUSH2 0x2710 DUP2 GT ISZERO PUSH2 0x516 JUMPI POP PUSH2 0x2710 SWAP1 PUSH2 0x28AB JUMP JUMPDEST SWAP6 PUSH2 0x2705 JUMP JUMPDEST SWAP4 SWAP1 PUSH2 0x480 JUMP JUMPDEST SWAP1 PUSH2 0x28AB JUMP JUMPDEST PUSH4 0x4E487B71 PUSH1 0xE0 SHL DUP2 MSTORE PUSH1 0x11 PUSH1 0x4 MSTORE PUSH1 0x24 SWAP1 REVERT JUMPDEST PUSH1 0x40 MLOAD PUSH3 0x461BCD PUSH1 0xE5 SHL DUP2 MSTORE PUSH1 0x20 PUSH1 0x4 DUP3 ADD MSTORE PUSH1 0x1D PUSH1 0x24 DUP3 ADD MSTORE PUSH32 0x446973636F7665727920706572696F64206E6F7420636F6D706C657465000000 PUSH1 0x44 DUP3 ADD MSTORE PUSH1 0x64 SWAP1 REVERT JUMPDEST PUSH1 0x0 DUP1 REVERT JUMPDEST CALLVALUE PUSH2 0x575 JUMPI PUSH1 0x20 CALLDATASIZE PUSH1 0x3 NOT ADD SLT PUSH2 0x575 JUMPI PUSH1 0x20 PUSH2 0x59D PUSH2 0x598 PUSH2 0x2439 JUMP JUMPDEST PUSH2 0x2B48 JUMP JUMPDEST PUSH1 0x40 MLOAD SWAP1 ISZERO ISZERO DUP2 MSTORE RETURN JUMPDEST CALLVALUE PUSH2 0x575 JUMPI PUSH1 0x0 CALLDATASIZE PUSH1 0x3 NOT ADD SLT PUSH2 0x575 JUMPI PUSH1 0x20 PUSH1 0x40 MLOAD PUSH8 0xDE0B6B3A7640000 DUP2 MSTORE RETURN JUMPDEST CALLVALUE PUSH2 0x575 JUMPI PUSH1 0x20 CALLDATASIZE PUSH1 0x3 NOT ADD SLT PUSH2 0x575 JUMPI PUSH1 0x60 PUSH2 0x5E5 PUSH2 0x2439 JUMP JUMPDEST PUSH1 0x1 DUP1 PUSH1 0xA0 SHL SUB DUP2 AND PUSH1 0x0 MSTORE PUSH1 0xA PUSH1 0x20 MSTORE PUSH1 0x40 PUSH1 0x0 KECCAK256 SWAP1 PUSH2 0x60C PUSH1 0x1 DUP4 SLOAD SWAP4 ADD SLOAD SWAP2 PUSH2 0x28F7 JUMP JUMPDEST SWAP1 PUSH1 0x40 MLOAD SWAP3 DUP4 MSTORE PUSH1 0x20 DUP4 ADD MSTORE ISZERO ISZERO PUSH1 0x40 DUP3 ADD MSTORE RETURN JUMPDEST CALLVALUE PUSH2 0x575 JUMPI PUSH1 0x20 CALLDATASIZE PUSH1 0x3 NOT ADD SLT PUSH2 0x575 JUMPI PUSH2 0x63A PUSH2 0x2439 JUMP JUMPDEST PUSH2 0x642 PUSH2 0x2B90 JUMP JUMPDEST PUSH1 0x1 PUSH1 0x1 PUSH1 0xA0 SHL SUB AND DUP1 ISZERO PUSH2 0x694 JUMPI PUSH1 0x0 DUP1 SLOAD PUSH1 0x1 PUSH1 0x1 PUSH1 0xA0 SHL SUB NOT DUP2 AND DUP4 OR DUP3 SSTORE PUSH1 0x1 PUSH1 0x1 PUSH1 0xA0 SHL SUB AND SWAP1 PUSH32 0x8BE0079C531659141344CD1FD0A4F28419497F9722A3DAAFE3B4186F6B6457E0 SWAP1 DUP1 LOG3 STOP JUMPDEST PUSH4 0x1E4FBDF7 PUSH1 0xE0 SHL PUSH1 0x0 MSTORE PUSH1 0x0 PUSH1 0x4 MSTORE PUSH1 0x24 PUSH1 0x0 REVERT JUMPDEST CALLVALUE PUSH2 0x575 JUMPI PUSH1 0x20 CALLDATASIZE PUSH1 0x3 NOT ADD SLT PUSH2 0x575 JUMPI PUSH1 0x1 PUSH1 0x1 PUSH1 0xA0 SHL SUB PUSH2 0x6CB PUSH2 0x2439 JUMP JUMPDEST AND PUSH1 0x0 MSTORE PUSH1 0x6 PUSH1 0x20 MSTORE PUSH1 0x80 PUSH1 0x40 PUSH1 0x0 KECCAK256 DUP1 SLOAD SWAP1 PUSH1 0x1 DUP2 ADD SLOAD SWAP1 PUSH1 0x3 PUSH1 0x2 DUP3 ADD SLOAD SWAP2 ADD SLOAD SWAP2 PUSH1 0x40 MLOAD SWAP4 DUP5 MSTORE PUSH1 0x20 DUP5 ADD MSTORE PUSH1 0x40 DUP4 ADD MSTORE PUSH1 0x60 DUP3 ADD MSTORE RETURN JUMPDEST CALLVALUE PUSH2 0x575 JUMPI PUSH1 0x20 CALLDATASIZE PUSH1 0x3 NOT ADD SLT PUSH2 0x575 JUMPI PUSH1 0x20 PUSH1 0x4 CALLDATALOAD PUSH8 0x8AC7230489E80000 DUP2 LT ISZERO SWAP1 DUP2 PUSH2 0x73A JUMPI JUMPDEST POP PUSH1 0x40 MLOAD SWAP1 ISZERO ISZERO DUP2 MSTORE RETURN JUMPDEST PUSH32 0x5555555555555555555555555555555555555555555555555555555555555555 SWAP2 POP GT ISZERO DUP3 PUSH2 0x72F JUMP JUMPDEST CALLVALUE PUSH2 0x575 JUMPI PUSH1 0x40 CALLDATASIZE PUSH1 0x3 NOT ADD SLT PUSH2 0x575 JUMPI PUSH2 0x77E PUSH2 0x2439 JUMP JUMPDEST PUSH1 0x24 CALLDATALOAD SWAP1 PUSH2 0x797 PUSH1 0x1 DUP1 PUSH1 0xA0 SHL SUB PUSH1 0xB SLOAD AND CALLER EQ PUSH2 0x2946 JUMP JUMPDEST PUSH1 0x1 DUP1 PUSH1 0xA0 SHL SUB AND SWAP1 DUP2 PUSH1 0x0 MSTORE PUSH1 0xA PUSH1 0x20 MSTORE PUSH1 0x40 PUSH1 0x0 KECCAK256 SWAP1 TIMESTAMP DUP3 SSTORE PUSH1 0x2 DUP3 ADD SWAP2 DUP3 SLOAD SWAP1 PUSH3 0x15180 DUP3 ADD DUP1 SWAP3 GT PUSH2 0x41F JUMPI PUSH32 0x339A588D56F667BA0A8358BE57070B2B0C9F5159D43EBA838EF1DA89159B985A SWAP4 PUSH1 0x40 SWAP4 PUSH1 0x1 SWAP4 TIMESTAMP LT PUSH2 0x80D JUMPI DUP4 DUP4 ADD SSTORE TIMESTAMP SWAP1 SSTORE JUMPDEST ADD SLOAD DUP2 MLOAD SWAP1 DUP2 MSTORE TIMESTAMP PUSH1 0x20 DUP3 ADD MSTORE LOG2 STOP JUMPDEST SWAP1 POP PUSH2 0x81D DUP4 DUP4 ADD SWAP2 DUP3 SLOAD PUSH2 0x28AB JUMP JUMPDEST SWAP1 SSTORE PUSH2 0x7FD JUMP JUMPDEST CALLVALUE PUSH2 0x575 JUMPI PUSH2 0x832 CALLDATASIZE PUSH2 0x24D7 JUMP JUMPDEST SWAP2 PUSH2 0x83B PUSH2 0x2B90 JUMP JUMPDEST PUSH1 0x1 DUP1 PUSH1 0xA0 SHL SUB AND SWAP2 DUP3 PUSH1 0x0 MSTORE PUSH1 0x1 PUSH1 0x20 MSTORE DUP2 PUSH1 0x40 PUSH1 0x0 KECCAK256 SLOAD LT PUSH2 0xA6D JUMPI DUP3 PUSH1 0x0 MSTORE PUSH1 0x2 PUSH1 0x20 MSTORE DUP1 PUSH1 0x40 PUSH1 0x0 KECCAK256 SLOAD LT PUSH2 0xA28 JUMPI DUP3 PUSH1 0x0 MSTORE PUSH1 0x1 PUSH1 0x20 MSTORE PUSH2 0x899 PUSH8 0x8AC7230489E80000 PUSH2 0x892 DUP5 PUSH1 0x40 PUSH1 0x0 KECCAK256 SLOAD PUSH2 0x26F8 JUMP JUMPDEST LT ISZERO PUSH2 0x2AFC JUMP JUMPDEST DUP3 PUSH1 0x0 MSTORE PUSH1 0x2 PUSH1 0x20 MSTORE PUSH2 0x8BD PUSH8 0x8AC7230489E80000 PUSH2 0x892 DUP4 PUSH1 0x40 PUSH1 0x0 KECCAK256 SLOAD PUSH2 0x26F8 JUMP JUMPDEST DUP3 PUSH1 0x0 MSTORE PUSH1 0x1 PUSH1 0x20 MSTORE PUSH1 0x40 PUSH1 0x0 KECCAK256 PUSH2 0x8D6 DUP4 DUP3 SLOAD PUSH2 0x26F8 JUMP JUMPDEST SWAP1 SSTORE DUP3 PUSH1 0x0 MSTORE PUSH1 0x2 PUSH1 0x20 MSTORE PUSH1 0x40 PUSH1 0x0 KECCAK256 PUSH2 0x8F1 DUP3 DUP3 SLOAD PUSH2 0x26F8 JUMP JUMPDEST SWAP1 SSTORE PUSH1 0x4 SLOAD PUSH2 0x908 SWAP1 PUSH1 0x1 PUSH1 0x1 PUSH1 0xA0 SHL SUB AND PUSH2 0x2B48 JUMP JUMPDEST ISZERO PUSH2 0x9F3 JUMPI PUSH2 0x919 DUP2 SELFBALANCE LT ISZERO PUSH2 0x285F JUMP JUMPDEST PUSH1 0x0 DUP1 DUP1 DUP1 DUP5 CALLER GAS CALL RETURNDATASIZE ISZERO PUSH2 0x9EE JUMPI RETURNDATASIZE PUSH8 0xFFFFFFFFFFFFFFFF DUP2 GT PUSH2 0x9D8 JUMPI PUSH1 0x40 MLOAD SWAP1 PUSH2 0x950 PUSH1 0x1F DUP3 ADD PUSH1 0x1F NOT AND PUSH1 0x20 ADD DUP4 PUSH2 0x283D JUMP JUMPDEST DUP2 MSTORE PUSH1 0x0 PUSH1 0x20 RETURNDATASIZE SWAP3 ADD RETURNDATACOPY JUMPDEST ISZERO PUSH2 0x993 JUMPI PUSH32 0x96CD817C6329656790EF8FBA7675405193677D39619571282F5E21F3A98CD059 SWAP2 PUSH1 0x40 SWAP2 JUMPDEST DUP3 MLOAD SWAP2 DUP3 MSTORE PUSH1 0x20 DUP3 ADD MSTORE LOG2 STOP JUMPDEST PUSH1 0x40 MLOAD PUSH3 0x461BCD PUSH1 0xE5 SHL DUP2 MSTORE PUSH1 0x20 PUSH1 0x4 DUP3 ADD MSTORE PUSH1 0x1B PUSH1 0x24 DUP3 ADD MSTORE PUSH32 0x434F52414C20746F6B656E207472616E73666572206661696C65640000000000 PUSH1 0x44 DUP3 ADD MSTORE PUSH1 0x64 SWAP1 REVERT JUMPDEST PUSH4 0x4E487B71 PUSH1 0xE0 SHL PUSH1 0x0 MSTORE PUSH1 0x41 PUSH1 0x4 MSTORE PUSH1 0x24 PUSH1 0x0 REVERT JUMPDEST PUSH2 0x95B JUMP JUMPDEST DUP2 PUSH1 0x40 SWAP2 PUSH2 0xA23 PUSH32 0x96CD817C6329656790EF8FBA7675405193677D39619571282F5E21F3A98CD059 SWAP5 CALLER DUP8 PUSH2 0x2CA5 JUMP JUMPDEST PUSH2 0x986 JUMP JUMPDEST PUSH1 0x40 MLOAD PUSH3 0x461BCD PUSH1 0xE5 SHL DUP2 MSTORE PUSH1 0x20 PUSH1 0x4 DUP3 ADD MSTORE PUSH1 0x1C PUSH1 0x24 DUP3 ADD MSTORE PUSH32 0x496E73756666696369656E7420434F52414C206C697175696469747900000000 PUSH1 0x44 DUP3 ADD MSTORE PUSH1 0x64 SWAP1 REVERT JUMPDEST PUSH1 0x40 MLOAD PUSH3 0x461BCD PUSH1 0xE5 SHL DUP2 MSTORE PUSH1 0x20 PUSH1 0x4 DUP3 ADD MSTORE PUSH1 0x1E PUSH1 0x24 DUP3 ADD MSTORE PUSH32 0x496E73756666696369656E742063726561746F72206C69717569646974790000 PUSH1 0x44 DUP3 ADD MSTORE PUSH1 0x64 SWAP1 REVERT JUMPDEST CALLVALUE PUSH2 0x575 JUMPI PUSH1 0x20 CALLDATASIZE PUSH1 0x3 NOT ADD SLT PUSH2 0x575 JUMPI PUSH1 0x1 PUSH1 0x1 PUSH1 0xA0 SHL SUB PUSH2 0xAD3 PUSH2 0x2439 JUMP JUMPDEST AND PUSH1 0x0 SWAP1 DUP2 MSTORE PUSH1 0x7 PUSH1 0x20 SWAP1 DUP2 MSTORE PUSH1 0x40 SWAP2 DUP3 SWAP1 KECCAK256 DUP1 SLOAD PUSH1 0x1 DUP3 ADD SLOAD PUSH1 0x2 DUP4 ADD SLOAD PUSH1 0x3 SWAP1 SWAP4 ADD SLOAD DUP6 MLOAD SWAP3 DUP4 MSTORE SWAP4 DUP3 ADD MSTORE SWAP3 DUP4 ADD MSTORE PUSH1 0xFF AND ISZERO ISZERO PUSH1 0x60 DUP3 ADD MSTORE DUP1 PUSH1 0x80 DUP2 ADD JUMPDEST SUB SWAP1 RETURN JUMPDEST CALLVALUE PUSH2 0x575 JUMPI PUSH1 0x0 CALLDATASIZE PUSH1 0x3 NOT ADD SLT PUSH2 0x575 JUMPI PUSH1 0xC SLOAD PUSH1 0xD SLOAD PUSH1 0xE SLOAD SWAP1 SWAP2 PUSH1 0x1 PUSH1 0x1 PUSH1 0xA0 SHL SUB AND SWAP1 PUSH2 0xE10 DUP2 ADD SWAP1 DUP2 DUP2 GT PUSH2 0x41F JUMPI PUSH1 0x80 SWAP4 PUSH1 0x40 MLOAD SWAP4 DUP5 MSTORE PUSH1 0x20 DUP5 ADD MSTORE PUSH1 0x40 DUP4 ADD MSTORE TIMESTAMP LT ISZERO PUSH1 0x60 DUP3 ADD MSTORE RETURN JUMPDEST CALLVALUE PUSH2 0x575 JUMPI PUSH1 0x0 CALLDATASIZE PUSH1 0x3 NOT ADD SLT PUSH2 0x575 JUMPI PUSH2 0xB82 PUSH2 0x2B90 JUMP JUMPDEST PUSH2 0xF PUSH2 0x2E3B JUMP JUMPDEST CALLVALUE PUSH2 0x575 JUMPI PUSH1 0x40 CALLDATASIZE PUSH1 0x3 NOT ADD SLT PUSH2 0x575 JUMPI PUSH2 0xBA3 PUSH2 0x2439 JUMP JUMPDEST PUSH1 0x24 CALLDATALOAD PUSH1 0x1 PUSH1 0x1 PUSH1 0xA0 SHL SUB DUP2 AND SWAP2 DUP3 DUP3 SUB PUSH2 0x575 JUMPI PUSH2 0xBC0 PUSH2 0x2B90 JUMP JUMPDEST PUSH1 0x1 PUSH1 0x1 PUSH1 0xA0 SHL SUB AND PUSH1 0x0 DUP2 DUP2 MSTORE PUSH1 0x3 PUSH1 0x20 MSTORE PUSH1 0x40 SWAP1 KECCAK256 SLOAD SWAP1 SWAP2 PUSH2 0xBED PUSH2 0xBE5 PUSH2 0x2992 JUMP JUMPDEST DUP4 ISZERO ISZERO PUSH2 0x29CD JUMP JUMPDEST PUSH2 0xC09 PUSH2 0xBF8 PUSH2 0x2A30 JUMP JUMPDEST PUSH8 0x4563918244F40000 DUP5 LT ISZERO PUSH2 0x29CD JUMP JUMPDEST DUP3 PUSH1 0x0 MSTORE PUSH1 0x3 PUSH1 0x20 MSTORE PUSH1 0x40 PUSH1 0x0 KECCAK256 PUSH2 0xC22 DUP4 DUP3 SLOAD PUSH2 0x26F8 JUMP JUMPDEST SWAP1 SSTORE PUSH1 0x4 SLOAD PUSH2 0xC39 SWAP1 PUSH1 0x1 PUSH1 0x1 PUSH1 0xA0 SHL SUB AND PUSH2 0x2B48 JUMP JUMPDEST ISZERO PUSH2 0xC92 JUMPI POP PUSH1 0x20 DUP2 PUSH2 0xC6F PUSH32 0xA2E59056A8017237DD27A52D5981FB4983F1A43828D018D9BA6E76C801FE9059 SWAP4 SELFBALANCE LT ISZERO PUSH2 0x2AB7 JUMP JUMPDEST DUP5 PUSH1 0x0 MSTORE PUSH1 0x2 DUP3 MSTORE PUSH1 0x40 PUSH1 0x0 KECCAK256 PUSH2 0xC87 DUP3 DUP3 SLOAD PUSH2 0x28AB JUMP JUMPDEST SWAP1 SSTORE PUSH1 0x40 MLOAD SWAP1 DUP2 MSTORE LOG3 STOP JUMPDEST SWAP1 PUSH1 0x40 MLOAD PUSH4 0x70A08231 PUSH1 0xE0 SHL DUP2 MSTORE ADDRESS PUSH1 0x4 DUP3 ADD MSTORE PUSH1 0x20 DUP2 PUSH1 0x24 DUP2 DUP8 GAS STATICCALL SWAP1 DUP2 ISZERO PUSH2 0xD39 JUMPI PUSH1 0x0 SWAP2 PUSH2 0xD03 JUMPI JUMPDEST POP SWAP1 PUSH2 0xCFA DUP2 PUSH32 0xA2E59056A8017237DD27A52D5981FB4983F1A43828D018D9BA6E76C801FE9059 SWAP5 PUSH2 0xCF4 DUP3 PUSH1 0x20 SWAP7 LT ISZERO PUSH2 0x2A6B JUMP JUMPDEST DUP7 PUSH2 0x2CA5 JUMP JUMPDEST PUSH1 0x40 MLOAD SWAP1 DUP2 MSTORE LOG3 STOP JUMPDEST SWAP2 SWAP1 POP PUSH1 0x20 DUP3 RETURNDATASIZE PUSH1 0x20 GT PUSH2 0xD31 JUMPI JUMPDEST DUP2 PUSH2 0xD1F PUSH1 0x20 SWAP4 DUP4 PUSH2 0x283D JUMP JUMPDEST DUP2 ADD SUB SLT PUSH2 0x575 JUMPI SWAP1 MLOAD PUSH2 0xCFA PUSH2 0xCBE JUMP JUMPDEST RETURNDATASIZE SWAP2 POP PUSH2 0xD12 JUMP JUMPDEST PUSH1 0x40 MLOAD RETURNDATASIZE PUSH1 0x0 DUP3 RETURNDATACOPY RETURNDATASIZE SWAP1 REVERT JUMPDEST CALLVALUE PUSH2 0x575 JUMPI PUSH1 0x20 CALLDATASIZE PUSH1 0x3 NOT ADD SLT PUSH2 0x575 JUMPI PUSH2 0xD5E PUSH2 0x2439 JUMP JUMPDEST PUSH2 0xD73 PUSH1 0x1 DUP1 PUSH1 0xA0 SHL SUB PUSH1 0xB SLOAD AND CALLER EQ PUSH2 0x2946 JUMP JUMPDEST PUSH1 0x1 PUSH1 0x1 PUSH1 0xA0 SHL SUB AND PUSH1 0x0 DUP2 DUP2 MSTORE PUSH1 0x3 PUSH1 0x20 MSTORE PUSH1 0x40 SWAP1 KECCAK256 SLOAD SWAP1 PUSH2 0xD97 PUSH2 0xBE5 PUSH2 0x2992 JUMP JUMPDEST PUSH2 0xDA2 PUSH2 0xBF8 PUSH2 0x2A30 JUMP JUMPDEST PUSH2 0xDAA PUSH2 0x2D29 JUMP JUMPDEST PUSH1 0x1 PUSH1 0x1 PUSH1 0xA0 SHL SUB DUP2 AND SWAP3 SWAP1 DUP4 ISZERO PUSH2 0xFA4 JUMPI PUSH2 0xDC6 DUP3 DUP3 PUSH2 0x2DA1 JUMP JUMPDEST SWAP2 DUP3 ISZERO PUSH2 0xF68 JUMPI DUP3 GT PUSH2 0xF17 JUMPI DUP3 PUSH1 0x0 MSTORE PUSH1 0x3 PUSH1 0x20 MSTORE PUSH1 0x40 PUSH1 0x0 KECCAK256 PUSH2 0xDEC DUP4 DUP3 SLOAD PUSH2 0x26F8 JUMP JUMPDEST SWAP1 SSTORE PUSH1 0x4 SLOAD PUSH2 0xE03 SWAP1 PUSH1 0x1 PUSH1 0x1 PUSH1 0xA0 SHL SUB AND PUSH2 0x2B48 JUMP JUMPDEST ISZERO PUSH2 0xE79 JUMPI POP PUSH2 0xE74 DUP2 PUSH2 0xE3A PUSH32 0x5B1142ECB7CAA10961ADCAC369FB4C5E7FA3629B1B53DF070F2E8A2014C51777 SWAP4 SELFBALANCE LT ISZERO PUSH2 0x2AB7 JUMP JUMPDEST DUP5 PUSH1 0x0 MSTORE PUSH1 0x2 PUSH1 0x20 MSTORE PUSH1 0x40 PUSH1 0x0 KECCAK256 PUSH2 0xE53 DUP3 DUP3 SLOAD PUSH2 0x28AB JUMP JUMPDEST SWAP1 SSTORE JUMPDEST PUSH1 0x40 DUP1 MLOAD DUP3 DUP2 MSTORE PUSH1 0x20 DUP2 ADD SWAP3 SWAP1 SWAP3 MSTORE TIMESTAMP SWAP1 DUP3 ADD MSTORE SWAP1 DUP2 SWAP1 PUSH1 0x60 DUP3 ADD SWAP1 JUMP JUMPDEST SUB SWAP1 LOG3 STOP JUMPDEST SWAP1 PUSH1 0x40 MLOAD PUSH4 0x70A08231 PUSH1 0xE0 SHL DUP2 MSTORE ADDRESS PUSH1 0x4 DUP3 ADD MSTORE PUSH1 0x20 DUP2 PUSH1 0x24 DUP2 DUP8 GAS STATICCALL SWAP1 DUP2 ISZERO PUSH2 0xD39 JUMPI PUSH1 0x0 SWAP2 PUSH2 0xEE1 JUMPI JUMPDEST POP SWAP1 PUSH2 0xEDC DUP2 PUSH32 0x5B1142ECB7CAA10961ADCAC369FB4C5E7FA3629B1B53DF070F2E8A2014C51777 SWAP5 PUSH2 0xCF4 DUP3 PUSH2 0xE74 SWAP7 LT ISZERO PUSH2 0x2A6B JUMP JUMPDEST PUSH2 0xE56 JUMP JUMPDEST SWAP2 SWAP1 POP PUSH1 0x20 DUP3 RETURNDATASIZE PUSH1 0x20 GT PUSH2 0xF0F JUMPI JUMPDEST DUP2 PUSH2 0xEFD PUSH1 0x20 SWAP4 DUP4 PUSH2 0x283D JUMP JUMPDEST DUP2 ADD SUB SLT PUSH2 0x575 JUMPI SWAP1 MLOAD PUSH2 0xEDC PUSH2 0xEA5 JUMP JUMPDEST RETURNDATASIZE SWAP2 POP PUSH2 0xEF0 JUMP JUMPDEST PUSH1 0x40 MLOAD PUSH3 0x461BCD PUSH1 0xE5 SHL DUP2 MSTORE PUSH1 0x20 PUSH1 0x4 DUP3 ADD MSTORE PUSH1 0x24 DUP1 DUP3 ADD MSTORE PUSH32 0x4465706C6F7920616D6F756E74206578636565647320617661696C61626C6520 PUSH1 0x44 DUP3 ADD MSTORE PUSH4 0x66656573 PUSH1 0xE0 SHL PUSH1 0x64 DUP3 ADD MSTORE PUSH1 0x84 SWAP1 REVERT JUMPDEST PUSH1 0x40 MLOAD PUSH3 0x461BCD PUSH1 0xE5 SHL DUP2 MSTORE PUSH1 0x20 PUSH1 0x4 DUP3 ADD MSTORE PUSH1 0x14 PUSH1 0x24 DUP3 ADD MSTORE PUSH20 0x139BC819195C1B1BDE5B595B9D081B9959591959 PUSH1 0x62 SHL PUSH1 0x44 DUP3 ADD MSTORE PUSH1 0x64 SWAP1 REVERT JUMPDEST PUSH1 0x40 MLOAD PUSH3 0x461BCD PUSH1 0xE5 SHL DUP2 MSTORE PUSH1 0x20 PUSH1 0x4 DUP3 ADD MSTORE PUSH1 0x16 PUSH1 0x24 DUP3 ADD MSTORE PUSH22 0x139BC81CDD5A5D18589B19481C1BDBDB08199BDD5B99 PUSH1 0x52 SHL PUSH1 0x44 DUP3 ADD MSTORE PUSH1 0x64 SWAP1 REVERT JUMPDEST CALLVALUE PUSH2 0x575 JUMPI PUSH1 0x0 CALLDATASIZE PUSH1 0x3 NOT ADD SLT PUSH2 0x575 JUMPI PUSH1 0x4 SLOAD PUSH1 0x40 MLOAD PUSH1 0x1 PUSH1 0x1 PUSH1 0xA0 SHL SUB SWAP1 SWAP2 AND DUP2 MSTORE PUSH1 0x20 SWAP1 RETURN JUMPDEST CALLVALUE PUSH2 0x575 JUMPI PUSH1 0x0 CALLDATASIZE PUSH1 0x3 NOT ADD SLT PUSH2 0x575 JUMPI PUSH1 0x20 PUSH1 0x5 SLOAD PUSH1 0x40 MLOAD SWAP1 DUP2 MSTORE RETURN JUMPDEST CALLVALUE PUSH2 0x575 JUMPI PUSH1 0x0 CALLDATASIZE PUSH1 0x3 NOT ADD SLT PUSH2 0x575 JUMPI PUSH1 0x40 MLOAD DUP1 PUSH1 0x20 PUSH1 0x8 SLOAD SWAP3 DUP4 DUP2 MSTORE ADD DUP1 SWAP3 PUSH1 0x8 PUSH1 0x0 MSTORE PUSH32 0xF3F7A9FE364FAAB93B216DA50A3214154F22A0A2B415B23A84C8169E8B636EE3 SWAP1 PUSH1 0x0 JUMPDEST DUP2 DUP2 LT PUSH2 0x10D6 JUMPI POP POP POP DUP2 PUSH2 0x108A SWAP2 SUB DUP3 PUSH2 0x283D JUMP JUMPDEST PUSH1 0x40 MLOAD SWAP2 DUP3 SWAP2 PUSH1 0x20 DUP4 ADD SWAP1 PUSH1 0x20 DUP5 MSTORE MLOAD DUP1 SWAP2 MSTORE PUSH1 0x40 DUP4 ADD SWAP2 SWAP1 PUSH1 0x0 JUMPDEST DUP2 DUP2 LT PUSH2 0x10B4 JUMPI POP POP POP SUB SWAP1 RETURN JUMPDEST DUP3 MLOAD PUSH1 0x1 PUSH1 0x1 PUSH1 0xA0 SHL SUB AND DUP5 MSTORE DUP6 SWAP5 POP PUSH1 0x20 SWAP4 DUP5 ADD SWAP4 SWAP1 SWAP3 ADD SWAP2 PUSH1 0x1 ADD PUSH2 0x10A6 JUMP JUMPDEST DUP3 SLOAD PUSH1 0x1 PUSH1 0x1 PUSH1 0xA0 SHL SUB AND DUP5 MSTORE PUSH1 0x20 SWAP1 SWAP4 ADD SWAP3 PUSH1 0x1 SWAP3 DUP4 ADD SWAP3 ADD PUSH2 0x1074 JUMP JUMPDEST CALLVALUE PUSH2 0x575 JUMPI PUSH1 0x20 CALLDATASIZE PUSH1 0x3 NOT ADD SLT PUSH2 0x575 JUMPI PUSH1 0x1 PUSH1 0x1 PUSH1 0xA0 SHL SUB PUSH2 0x1116 PUSH2 0x2439 JUMP JUMPDEST AND PUSH1 0x0 SWAP1 DUP2 MSTORE PUSH1 0x6 PUSH1 0x20 SWAP1 DUP2 MSTORE PUSH1 0x40 SWAP2 DUP3 SWAP1 KECCAK256 DUP1 SLOAD PUSH1 0x1 DUP3 ADD SLOAD PUSH1 0x3 SWAP3 DUP4 ADD SLOAD DUP6 MLOAD SWAP3 DUP4 MSTORE SWAP4 DUP3 ADD MSTORE SWAP3 DUP4 ADD DUP3 SWAP1 MSTORE GT ISZERO PUSH1 0x60 DUP3 ADD MSTORE PUSH1 0x80 SWAP1 RETURN JUMPDEST CALLVALUE PUSH2 0x575 JUMPI PUSH1 0x40 CALLDATASIZE PUSH1 0x3 NOT ADD SLT PUSH2 0x575 JUMPI PUSH2 0x116A PUSH2 0x2439 JUMP JUMPDEST PUSH1 0x24 CALLDATALOAD SWAP1 PUSH2 0x1176 PUSH2 0x2B90 JUMP JUMPDEST PUSH1 0x1 DUP1 PUSH1 0xA0 SHL SUB AND SWAP1 DUP2 PUSH1 0x0 MSTORE PUSH1 0x3 PUSH1 0x20 MSTORE DUP1 PUSH1 0x40 PUSH1 0x0 KECCAK256 SLOAD LT PUSH2 0x11E6 JUMPI PUSH1 0x20 PUSH32 0xC0819C13BE868895EB93E40EACEB96DE976442FA1D404E5C55F14BB65A8C489A SWAP2 DUP4 PUSH1 0x0 MSTORE PUSH1 0x3 DUP3 MSTORE PUSH1 0x40 PUSH1 0x0 KECCAK256 PUSH2 0x11D0 DUP3 DUP3 SLOAD PUSH2 0x26F8 JUMP JUMPDEST SWAP1 SSTORE PUSH2 0x11DD DUP2 CALLER DUP7 PUSH2 0x2CA5 JUMP JUMPDEST PUSH1 0x40 MLOAD SWAP1 DUP2 MSTORE LOG2 STOP JUMPDEST PUSH1 0x40 MLOAD PUSH3 0x461BCD PUSH1 0xE5 SHL DUP2 MSTORE PUSH1 0x20 PUSH1 0x4 DUP3 ADD MSTORE PUSH1 0x11 PUSH1 0x24 DUP3 ADD MSTORE PUSH17 0x496E73756666696369656E742066656573 PUSH1 0x78 SHL PUSH1 0x44 DUP3 ADD MSTORE PUSH1 0x64 SWAP1 REVERT JUMPDEST CALLVALUE PUSH2 0x575 JUMPI PUSH1 0x20 CALLDATASIZE PUSH1 0x3 NOT ADD SLT PUSH2 0x575 JUMPI PUSH1 0x20 PUSH2 0x59D PUSH2 0x123D PUSH2 0x2439 JUMP JUMPDEST PUSH2 0x28F7 JUMP JUMPDEST CALLVALUE PUSH2 0x575 JUMPI PUSH1 0x0 CALLDATASIZE PUSH1 0x3 NOT ADD SLT PUSH2 0x575 JUMPI PUSH1 0x60 PUSH1 0x1 DUP1 PUSH1 0xA0 SHL SUB PUSH1 0xC SLOAD AND PUSH1 0xD SLOAD PUSH1 0xE SLOAD SWAP1 PUSH1 0x40 MLOAD SWAP3 DUP4 MSTORE PUSH1 0x20 DUP4 ADD MSTORE PUSH1 0x40 DUP3 ADD MSTORE RETURN JUMPDEST CALLVALUE PUSH2 0x575 JUMPI PUSH1 0x40 CALLDATASIZE PUSH1 0x3 NOT ADD SLT PUSH2 0x575 JUMPI PUSH2 0x1292 PUSH2 0x2439 JUMP JUMPDEST PUSH32 0x9DC46F23CFB5DDCAD0AE7EA2BE38D47FEC07BB9382EC7E564EFC69E036DD66CE PUSH1 0x20 PUSH1 0x24 CALLDATALOAD SWAP3 PUSH1 0x1 DUP1 PUSH1 0xA0 SHL SUB AND SWAP3 DUP4 PUSH1 0x0 MSTORE PUSH1 0x3 DUP3 MSTORE PUSH1 0x40 PUSH1 0x0 KECCAK256 PUSH2 0x12DA DUP3 DUP3 SLOAD PUSH2 0x28AB JUMP JUMPDEST SWAP1 SSTORE PUSH1 0x40 MLOAD SWAP1 DUP2 MSTORE LOG2 STOP JUMPDEST PUSH2 0x246B JUMP JUMPDEST CALLVALUE PUSH2 0x575 JUMPI PUSH1 0x0 CALLDATASIZE PUSH1 0x3 NOT ADD SLT PUSH2 0x575 JUMPI PUSH1 0x0 SLOAD PUSH1 0x40 MLOAD PUSH1 0x1 PUSH1 0x1 PUSH1 0xA0 SHL SUB SWAP1 SWAP2 AND DUP2 MSTORE PUSH1 0x20 SWAP1 RETURN JUMPDEST CALLVALUE PUSH2 0x575 JUMPI PUSH1 0x40 CALLDATASIZE PUSH1 0x3 NOT ADD SLT PUSH2 0x575 JUMPI PUSH2 0x132C PUSH2 0x2439 JUMP JUMPDEST PUSH1 0x24 CALLDATALOAD SWAP1 PUSH2 0x1338 PUSH2 0x2B90 JUMP JUMPDEST PUSH1 0x1 PUSH1 0x1 PUSH1 0xA0 SHL SUB AND PUSH1 0x0 DUP2 DUP2 MSTORE PUSH1 0x7 PUSH1 0x20 MSTORE PUSH1 0x40 SWAP1 KECCAK256 PUSH1 0x3 ADD SLOAD SWAP1 SWAP2 SWAP1 PUSH1 0xFF AND PUSH2 0x1496 JUMPI PUSH1 0x20 SWAP1 PUSH1 0x40 MLOAD PUSH2 0x136D DUP4 DUP3 PUSH2 0x283D JUMP JUMPDEST PUSH1 0x0 DUP2 MSTORE PUSH1 0x0 CALLDATASIZE DUP2 CALLDATACOPY PUSH1 0x40 MLOAD PUSH1 0xA0 DUP2 ADD SWAP1 DUP1 DUP3 LT PUSH8 0xFFFFFFFFFFFFFFFF DUP4 GT OR PUSH2 0x9D8 JUMPI PUSH1 0x4 SWAP2 PUSH1 0x40 MSTORE DUP4 DUP2 MSTORE DUP5 DUP2 ADD DUP5 DUP2 MSTORE PUSH1 0x40 DUP3 ADD TIMESTAMP DUP2 MSTORE PUSH1 0x60 DUP4 ADD SWAP2 PUSH1 0x1 DUP4 MSTORE PUSH1 0x80 DUP5 ADD SWAP6 DUP7 MSTORE DUP9 PUSH1 0x0 MSTORE PUSH1 0x7 DUP9 MSTORE PUSH1 0x40 PUSH1 0x0 KECCAK256 SWAP4 MLOAD DUP5 SSTORE MLOAD PUSH1 0x1 DUP5 ADD SSTORE MLOAD PUSH1 0x2 DUP4 ADD SSTORE PUSH1 0x3 DUP3 ADD SWAP1 MLOAD ISZERO ISZERO PUSH1 0xFF DUP1 NOT DUP4 SLOAD AND SWAP2 AND OR SWAP1 SSTORE ADD SWAP1 MLOAD SWAP1 DUP2 MLOAD SWAP2 PUSH8 0xFFFFFFFFFFFFFFFF DUP4 GT PUSH2 0x9D8 JUMPI PUSH1 0x1 PUSH1 0x40 SHL DUP4 GT PUSH2 0x9D8 JUMPI DUP5 SWAP1 DUP3 SLOAD DUP5 DUP5 SSTORE DUP1 DUP6 LT PUSH2 0x146B JUMPI JUMPDEST POP ADD SWAP1 PUSH1 0x0 MSTORE DUP4 PUSH1 0x0 KECCAK256 PUSH1 0x0 JUMPDEST DUP4 DUP2 LT PUSH2 0x1459 JUMPI DUP7 PUSH32 0x9D3136590A24E6EB0D058D4D9B8C4D5BE27926B0ABFECA301A4D5FC0AAAB775D DUP8 DUP8 PUSH1 0x40 MLOAD SWAP1 DUP2 MSTORE LOG2 STOP JUMPDEST DUP3 MLOAD DUP3 DUP3 ADD SSTORE SWAP2 DUP6 ADD SWAP2 PUSH1 0x1 ADD PUSH2 0x1425 JUMP JUMPDEST DUP4 PUSH1 0x0 MSTORE DUP5 DUP4 PUSH1 0x0 KECCAK256 SWAP2 DUP3 ADD SWAP2 ADD JUMPDEST DUP2 DUP2 LT PUSH2 0x1487 JUMPI POP PUSH2 0x1418 JUMP JUMPDEST PUSH1 0x0 DUP2 SSTORE DUP8 SWAP4 POP PUSH1 0x1 ADD PUSH2 0x147A JUMP JUMPDEST PUSH1 0x40 MLOAD PUSH3 0x461BCD PUSH1 0xE5 SHL DUP2 MSTORE PUSH1 0x20 PUSH1 0x4 DUP3 ADD MSTORE PUSH1 0x14 PUSH1 0x24 DUP3 ADD MSTORE PUSH20 0x416C726561647920696E20646973636F76657279 PUSH1 0x60 SHL PUSH1 0x44 DUP3 ADD MSTORE PUSH1 0x64 SWAP1 REVERT JUMPDEST CALLVALUE PUSH2 0x575 JUMPI PUSH1 0x20 CALLDATASIZE PUSH1 0x3 NOT ADD SLT PUSH2 0x575 JUMPI PUSH1 0x1 PUSH1 0x1 PUSH1 0xA0 SHL SUB PUSH2 0x14F3 PUSH2 0x2439 JUMP JUMPDEST AND PUSH1 0x0 MSTORE PUSH1 0x2 PUSH1 0x20 MSTORE PUSH1 0x20 PUSH1 0x40 PUSH1 0x0 KECCAK256 SLOAD PUSH1 0x40 MLOAD SWAP1 DUP2 MSTORE RETURN JUMPDEST CALLVALUE PUSH2 0x575 JUMPI PUSH1 0x20 CALLDATASIZE PUSH1 0x3 NOT ADD SLT PUSH2 0x575 JUMPI PUSH2 0x1525 PUSH2 0x2439 JUMP JUMPDEST PUSH2 0x152D PUSH2 0x2B90 JUMP JUMPDEST PUSH1 0x1 PUSH1 0x1 PUSH1 0xA0 SHL SUB AND DUP1 ISZERO PUSH2 0x1575 JUMPI PUSH1 0xB DUP1 SLOAD PUSH1 0x1 PUSH1 0x1 PUSH1 0xA0 SHL SUB NOT AND DUP3 OR SWAP1 SSTORE PUSH32 0xF4F735542E91D7C018C02855A6A19FBBCF7F4D7FB006982EBCBB5753408A638B PUSH1 0x0 DUP1 LOG2 STOP JUMPDEST PUSH1 0x40 MLOAD PUSH3 0x461BCD PUSH1 0xE5 SHL DUP2 MSTORE PUSH1 0x20 PUSH1 0x4 DUP3 ADD MSTORE PUSH1 0x13 PUSH1 0x24 DUP3 ADD MSTORE PUSH19 0x496E76616C6964204445582061646472657373 PUSH1 0x68 SHL PUSH1 0x44 DUP3 ADD MSTORE PUSH1 0x64 SWAP1 REVERT JUMPDEST CALLVALUE PUSH2 0x575 JUMPI PUSH1 0x20 CALLDATASIZE PUSH1 0x3 NOT ADD SLT PUSH2 0x575 JUMPI PUSH2 0x15C9 PUSH2 0x2439 JUMP JUMPDEST PUSH1 0x40 DUP1 MLOAD PUSH4 0xFA67079 PUSH1 0xE2 SHL DUP2 MSTORE PUSH1 0x1 PUSH1 0x1 PUSH1 0xA0 SHL SUB SWAP1 SWAP3 AND PUSH1 0x4 DUP4 ADD MSTORE DUP2 PUSH1 0x24 DUP2 ADDRESS GAS STATICCALL DUP1 ISZERO PUSH2 0xD39 JUMPI PUSH1 0x0 SWAP2 PUSH1 0x0 SWAP2 PUSH2 0x1632 JUMPI JUMPDEST POP PUSH8 0x8AC7230489E80000 PUSH1 0x20 SWAP3 LT ISZERO SWAP1 DUP2 PUSH2 0x161F JUMPI POP PUSH1 0x40 MLOAD SWAP1 ISZERO ISZERO DUP2 MSTORE RETURN JUMPDEST PUSH8 0x8AC7230489E80000 SWAP2 POP LT ISZERO DUP3 PUSH2 0x72F JUMP JUMPDEST SWAP2 POP POP PUSH1 0x40 DUP2 RETURNDATASIZE PUSH1 0x40 GT PUSH2 0x166C JUMPI JUMPDEST DUP2 PUSH2 0x164E PUSH1 0x40 SWAP4 DUP4 PUSH2 0x283D JUMP JUMPDEST DUP2 ADD SUB SLT PUSH2 0x575 JUMPI DUP1 MLOAD PUSH1 0x20 SWAP1 SWAP2 ADD MLOAD PUSH8 0x8AC7230489E80000 PUSH2 0x15FF JUMP JUMPDEST RETURNDATASIZE SWAP2 POP PUSH2 0x1641 JUMP JUMPDEST CALLVALUE PUSH2 0x575 JUMPI PUSH1 0x20 CALLDATASIZE PUSH1 0x3 NOT ADD SLT PUSH2 0x575 JUMPI PUSH1 0x1 PUSH1 0x1 PUSH1 0xA0 SHL SUB PUSH2 0x1695 PUSH2 0x2439 JUMP JUMPDEST AND PUSH1 0x0 MSTORE PUSH1 0x9 PUSH1 0x20 MSTORE PUSH1 0x20 PUSH1 0xFF PUSH1 0x40 PUSH1 0x0 KECCAK256 SLOAD AND PUSH1 0x40 MLOAD SWAP1 ISZERO ISZERO DUP2 MSTORE RETURN JUMPDEST CALLVALUE PUSH2 0x575 JUMPI PUSH1 0x0 CALLDATASIZE PUSH1 0x3 NOT ADD SLT PUSH2 0x575 JUMPI PUSH2 0x16CC PUSH2 0x2B90 JUMP JUMPDEST PUSH1 0x0 DUP1 SLOAD PUSH1 0x1 PUSH1 0x1 PUSH1 0xA0 SHL SUB NOT DUP2 AND DUP3 SSTORE PUSH1 0x1 PUSH1 0x1 PUSH1 0xA0 SHL SUB AND PUSH32 0x8BE0079C531659141344CD1FD0A4F28419497F9722A3DAAFE3B4186F6B6457E0 DUP3 DUP1 LOG3 STOP JUMPDEST CALLVALUE PUSH2 0x575 JUMPI PUSH1 0x20 CALLDATASIZE PUSH1 0x3 NOT ADD SLT PUSH2 0x575 JUMPI PUSH1 0x1 PUSH1 0x1 PUSH1 0xA0 SHL SUB PUSH2 0x172D PUSH2 0x2439 JUMP JUMPDEST AND PUSH1 0x0 MSTORE PUSH1 0x1 PUSH1 0x20 MSTORE PUSH1 0x20 PUSH1 0x40 PUSH1 0x0 KECCAK256 SLOAD PUSH1 0x40 MLOAD SWAP1 DUP2 MSTORE RETURN JUMPDEST CALLVALUE PUSH2 0x575 JUMPI PUSH1 0x0 CALLDATASIZE PUSH1 0x3 NOT ADD SLT PUSH2 0x575 JUMPI PUSH1 0x20 PUSH1 0x40 MLOAD PUSH1 0x14 DUP2 MSTORE RETURN JUMPDEST CALLVALUE PUSH2 0x575 JUMPI PUSH1 0x0 CALLDATASIZE PUSH1 0x3 NOT ADD SLT PUSH2 0x575 JUMPI PUSH1 0xB SLOAD PUSH1 0x40 MLOAD PUSH1 0x1 PUSH1 0x1 PUSH1 0xA0 SHL SUB SWAP1 SWAP2 AND DUP2 MSTORE PUSH1 0x20 SWAP1 RETURN JUMPDEST PUSH2 0x244F JUMP JUMPDEST CALLVALUE PUSH2 0x575 JUMPI PUSH1 0x0 CALLDATASIZE PUSH1 0x3 NOT ADD SLT PUSH2 0x575 JUMPI PUSH1 0x20 PUSH1 0x40 MLOAD PUSH1 0x3 DUP2 MSTORE RETURN JUMPDEST PUSH2 0x17B5 CALLDATASIZE PUSH2 0x24D7 JUMP JUMPDEST SWAP1 DUP1 ISZERO ISZERO DUP1 PUSH2 0x1AD7 JUMPI JUMPDEST ISZERO PUSH2 0x1A92 JUMPI PUSH1 0x1 PUSH1 0x1 PUSH1 0xA0 SHL SUB DUP4 AND SWAP3 DUP4 ISZERO PUSH2 0x1A55 JUMPI DUP4 PUSH1 0x0 MSTORE PUSH1 0x1 PUSH1 0x20 MSTORE PUSH1 0x40 PUSH1 0x0 KECCAK256 SLOAD ISZERO DUP1 PUSH2 0x1A3F JUMPI JUMPDEST ISZERO PUSH2 0x19A4 JUMPI JUMPDEST PUSH2 0x17FD DUP3 ADDRESS CALLER DUP8 PUSH2 0x2CE5 JUMP JUMPDEST PUSH1 0x4 SLOAD PUSH1 0x1 PUSH1 0x1 PUSH1 0xA0 SHL SUB AND DUP4 PUSH2 0x1813 DUP3 PUSH2 0x2B48 JUMP JUMPDEST ISZERO PUSH2 0x1992 JUMPI SWAP1 POP CALLVALUE SUB PUSH2 0x1954 JUMPI JUMPDEST DUP4 PUSH1 0x0 MSTORE PUSH1 0x1 PUSH1 0x20 MSTORE PUSH1 0x40 PUSH1 0x0 KECCAK256 PUSH2 0x183A DUP4 DUP3 SLOAD PUSH2 0x28AB JUMP JUMPDEST SWAP1 SSTORE DUP4 PUSH1 0x0 MSTORE PUSH1 0x2 PUSH1 0x20 MSTORE PUSH1 0x40 PUSH1 0x0 KECCAK256 PUSH2 0x1855 DUP5 DUP3 SLOAD PUSH2 0x28AB JUMP JUMPDEST SWAP1 SSTORE DUP4 PUSH1 0x0 MSTORE PUSH1 0x9 PUSH1 0x20 MSTORE PUSH1 0xFF PUSH1 0x40 PUSH1 0x0 KECCAK256 SLOAD AND ISZERO PUSH2 0x18A2 JUMPI JUMPDEST POP PUSH1 0x40 SWAP1 PUSH32 0xAC1D76749E5447B7B16F5AB61447E1BD502F3BB4807AF3B28E620D1700A6EE45 SWAP3 DUP3 MLOAD SWAP2 DUP3 MSTORE PUSH1 0x20 DUP3 ADD MSTORE LOG2 STOP JUMPDEST SWAP1 PUSH1 0x8 SLOAD SWAP3 PUSH1 0x1 PUSH1 0x40 SHL DUP5 LT ISZERO PUSH2 0x9D8 JUMPI PUSH2 0x190E PUSH1 0x40 SWAP4 PUSH2 0x18EA DUP7 PUSH1 0x1 PUSH32 0xAC1D76749E5447B7B16F5AB61447E1BD502F3BB4807AF3B28E620D1700A6EE45 SWAP9 ADD PUSH1 0x8 SSTORE PUSH2 0x248E JUMP JUMPDEST DUP2 SLOAD PUSH1 0x1 PUSH1 0x1 PUSH1 0xA0 SHL SUB SWAP4 DUP5 AND PUSH1 0x3 SWAP3 SWAP1 SWAP3 SHL SWAP2 DUP3 SHL SWAP4 SWAP1 SWAP2 SHL NOT AND SWAP2 SWAP1 SWAP2 OR SWAP1 SSTORE JUMP JUMPDEST DUP5 PUSH1 0x0 MSTORE PUSH1 0x9 PUSH1 0x20 MSTORE DUP3 PUSH1 0x0 KECCAK256 PUSH1 0x1 PUSH1 0xFF NOT DUP3 SLOAD AND OR SWAP1 SSTORE DUP5 PUSH32 0x402F8A396B78C225022A54972367FD98A174C970FBF537400BB383A0690EBD78 PUSH1 0x0 DUP1 LOG2 SWAP3 POP SWAP1 PUSH2 0x186F JUMP JUMPDEST PUSH1 0x40 MLOAD PUSH3 0x461BCD PUSH1 0xE5 SHL DUP2 MSTORE PUSH1 0x20 PUSH1 0x4 DUP3 ADD MSTORE PUSH1 0x16 PUSH1 0x24 DUP3 ADD MSTORE PUSH22 0x125B98DBDC9C9958DD0810D3D4905308185B5BDD5B9D PUSH1 0x52 SHL PUSH1 0x44 DUP3 ADD MSTORE PUSH1 0x64 SWAP1 REVERT JUMPDEST PUSH2 0x199F SWAP2 ADDRESS SWAP1 CALLER SWAP1 PUSH2 0x2CE5 JUMP JUMPDEST PUSH2 0x1821 JUMP JUMPDEST DUP4 PUSH1 0x0 MSTORE PUSH1 0x1 PUSH1 0x20 MSTORE PUSH8 0x8AC7230489E80000 PUSH2 0x19C5 DUP4 PUSH1 0x40 PUSH1 0x0 KECCAK256 SLOAD PUSH2 0x28AB JUMP JUMPDEST LT ISZERO DUP1 PUSH2 0x1A16 JUMPI JUMPDEST PUSH2 0x17F1 JUMPI PUSH1 0x40 MLOAD PUSH3 0x461BCD PUSH1 0xE5 SHL DUP2 MSTORE PUSH1 0x20 PUSH1 0x4 DUP3 ADD MSTORE PUSH1 0x17 PUSH1 0x24 DUP3 ADD MSTORE PUSH32 0x42656C6F77206D696E696D756D206C6971756964697479000000000000000000 PUSH1 0x44 DUP3 ADD MSTORE PUSH1 0x64 SWAP1 REVERT JUMPDEST POP DUP4 PUSH1 0x0 MSTORE PUSH1 0x2 PUSH1 0x20 MSTORE PUSH8 0x8AC7230489E80000 PUSH2 0x1A38 DUP5 PUSH1 0x40 PUSH1 0x0 KECCAK256 SLOAD PUSH2 0x28AB JUMP JUMPDEST LT ISZERO PUSH2 0x19CD JUMP JUMPDEST POP DUP4 PUSH1 0x0 MSTORE PUSH1 0x2 PUSH1 0x20 MSTORE PUSH1 0x40 PUSH1 0x0 KECCAK256 SLOAD ISZERO PUSH2 0x17EB JUMP JUMPDEST PUSH1 0x40 MLOAD PUSH3 0x461BCD PUSH1 0xE5 SHL DUP2 MSTORE PUSH1 0x20 PUSH1 0x4 DUP3 ADD MSTORE PUSH1 0x15 PUSH1 0x24 DUP3 ADD MSTORE PUSH21 0x24B73B30B634B21031B932B0BA37B9103A37B5B2B7 PUSH1 0x59 SHL PUSH1 0x44 DUP3 ADD MSTORE PUSH1 0x64 SWAP1 REVERT JUMPDEST PUSH1 0x40 MLOAD PUSH3 0x461BCD PUSH1 0xE5 SHL DUP2 MSTORE PUSH1 0x20 PUSH1 0x4 DUP3 ADD MSTORE PUSH1 0x19 PUSH1 0x24 DUP3 ADD MSTORE PUSH32 0x496E76616C6964206C697175696469747920616D6F756E747300000000000000 PUSH1 0x44 DUP3 ADD MSTORE PUSH1 0x64 SWAP1 REVERT JUMPDEST POP DUP2 ISZERO ISZERO PUSH2 0x17BF JUMP JUMPDEST CALLVALUE PUSH2 0x575 JUMPI PUSH1 0x40 CALLDATASIZE PUSH1 0x3 NOT ADD SLT PUSH2 0x575 JUMPI PUSH2 0x1AF9 PUSH2 0x2439 JUMP JUMPDEST PUSH1 0x24 CALLDATALOAD SWAP1 PUSH2 0x1B05 PUSH2 0x2B90 JUMP JUMPDEST PUSH1 0x1 DUP1 PUSH1 0xA0 SHL SUB AND SWAP1 DUP2 PUSH1 0x0 MSTORE PUSH1 0x7 PUSH1 0x20 MSTORE PUSH1 0x40 PUSH1 0x0 KECCAK256 SWAP1 PUSH2 0x1B2D PUSH1 0xFF PUSH1 0x3 DUP5 ADD SLOAD AND PUSH2 0x28B8 JUMP JUMPDEST PUSH1 0x4 DUP3 ADD SWAP1 DUP2 SLOAD SWAP3 PUSH1 0x6 DUP5 LT ISZERO PUSH2 0x1DAA JUMPI PUSH1 0x1 PUSH1 0x40 SHL DUP5 LT ISZERO PUSH2 0x9D8 JUMPI PUSH1 0x40 DUP3 DUP7 SWAP4 PUSH1 0x1 PUSH32 0x469B6894B4B45F49C7C10AA3E70E1FAE20F0EBA89B628E3D69AF9D7A34EF8BCF SWAP5 PUSH2 0x1B84 DUP10 DUP4 PUSH1 0x6 SWAP12 ADD DUP11 SSTORE DUP10 PUSH2 0x24BF JUMP JUMPDEST DUP2 SLOAD SWAP1 PUSH1 0x3 SHL SWAP1 DUP6 DUP3 SHL SWAP2 PUSH1 0x0 NOT SWAP1 SHL NOT AND OR SWAP1 SSTORE ADD SSTORE DUP2 MLOAD SWAP1 DUP2 MSTORE TIMESTAMP PUSH1 0x20 DUP3 ADD MSTORE LOG2 SLOAD EQ PUSH2 0x1BAF JUMPI STOP JUMPDEST PUSH2 0x1BB7 PUSH2 0x2B90 JUMP JUMPDEST DUP1 PUSH1 0x0 MSTORE PUSH1 0x7 PUSH1 0x20 MSTORE PUSH1 0x40 PUSH1 0x0 KECCAK256 PUSH1 0x3 DUP2 ADD SWAP1 PUSH2 0x1BD7 PUSH1 0xFF DUP4 SLOAD AND PUSH2 0x28B8 JUMP JUMPDEST PUSH1 0x2 DUP2 ADD SLOAD PUSH1 0x78 DUP2 ADD DUP1 SWAP2 GT PUSH2 0x41F JUMPI TIMESTAMP LT PUSH2 0x530 JUMPI PUSH1 0x0 DUP4 DUP2 MSTORE PUSH1 0x7 PUSH1 0x20 MSTORE PUSH1 0x40 DUP2 KECCAK256 PUSH1 0x4 ADD DUP1 SLOAD DUP3 SWAP2 SWAP1 DUP3 JUMPDEST DUP2 DUP2 LT PUSH2 0x1D06 JUMPI POP POP DUP2 ISZERO SWAP1 POP PUSH2 0x1CFD JUMPI PUSH2 0x1C1F SWAP2 PUSH2 0x2501 JUMP JUMPDEST DUP1 PUSH8 0xDE0B6B3A7640000 MUL SWAP1 PUSH8 0xDE0B6B3A7640000 DUP3 DIV SUB PUSH2 0x41F JUMPI PUSH2 0x2710 SWAP1 DIV PUSH8 0xDE0B6B3A7640000 ADD SWAP1 DUP2 PUSH8 0xDE0B6B3A7640000 GT PUSH2 0x41F JUMPI PUSH32 0x928602A1348C2D5CC6354F7E6953A38BFAF42426CD5D8C83DC7C42B972CFCDB0 SWAP3 PUSH2 0x39E PUSH1 0x1 SWAP3 DUP5 DUP8 PUSH1 0x40 SWAP7 SWAP2 PUSH8 0x29A2241AF62C0000 DUP2 GT PUSH2 0x1CB3 JUMPI POP POP PUSH8 0x16345785D8A0000 DUP2 GT ISZERO PUSH2 0x3C3 JUMPI SWAP4 DUP5 SWAP2 ADD SLOAD PUSH2 0x2521 JUMP JUMPDEST PUSH32 0xFBB0338B3040D7B9BD8495DE3D07128625B3EAD1C3464340ED2E760A015D7447 SWAP2 SWAP3 POP DUP8 SWAP1 DUP2 MLOAD SWAP1 DUP2 MSTORE PUSH8 0x29A2241AF62C0000 PUSH1 0x20 DUP3 ADD MSTORE LOG2 PUSH8 0x29A2241AF62C0000 DUP8 DUP10 PUSH2 0x381 JUMP JUMPDEST POP POP PUSH1 0x0 PUSH2 0x1C1F JUMP JUMPDEST DUP1 PUSH2 0x1D14 JUMPI JUMPDEST PUSH1 0x1 ADD PUSH2 0x1C05 JUMP JUMPDEST PUSH2 0x1D1E DUP2 DUP5 PUSH2 0x24BF JUMP JUMPDEST SWAP1 SLOAD PUSH1 0x0 NOT DUP4 ADD SWAP2 PUSH1 0x3 SHL SHR DUP3 DUP3 GT PUSH2 0x41F JUMPI PUSH2 0x1D3B DUP3 DUP7 PUSH2 0x24BF JUMP JUMPDEST SWAP1 SLOAD SWAP1 PUSH1 0x3 SHL SHR LT PUSH2 0x1D4E JUMPI JUMPDEST POP PUSH2 0x1D0C JUMP JUMPDEST PUSH2 0x1D5C DUP3 DUP6 SWAP8 SWAP4 SWAP7 SWAP8 PUSH2 0x24BF JUMP JUMPDEST SWAP1 SLOAD SWAP1 PUSH1 0x3 SHL SHR SWAP1 PUSH2 0x1D74 PUSH1 0x0 SWAP3 PUSH2 0x4AC DUP4 DUP9 PUSH2 0x24BF JUMP JUMPDEST SWAP2 PUSH2 0x2710 DUP4 MUL SWAP3 DUP1 DUP5 DIV PUSH2 0x2710 EQ SWAP1 ISZERO OR ISZERO PUSH2 0x51C JUMPI SWAP3 PUSH2 0x4F5 PUSH2 0x1DA3 SWAP4 PUSH2 0x4E8 PUSH2 0x509 SWAP5 PUSH1 0x1 SWAP8 POP DUP10 PUSH2 0x24BF JUMP JUMPDEST SWAP4 SWAP1 PUSH2 0x1D48 JUMP JUMPDEST PUSH1 0x40 MLOAD PUSH3 0x461BCD PUSH1 0xE5 SHL DUP2 MSTORE PUSH1 0x20 PUSH1 0x4 DUP3 ADD MSTORE PUSH1 0x15 PUSH1 0x24 DUP3 ADD MSTORE PUSH21 0x13585E081CDB985C1CDA1BDD1CC81C995858DA1959 PUSH1 0x5A SHL PUSH1 0x44 DUP3 ADD MSTORE PUSH1 0x64 SWAP1 REVERT JUMPDEST CALLVALUE PUSH2 0x575 JUMPI PUSH1 0x0 CALLDATASIZE PUSH1 0x3 NOT ADD SLT PUSH2 0x575 JUMPI PUSH1 0x20 PUSH1 0x40 MLOAD PUSH3 0x93A80 DUP2 MSTORE RETURN JUMPDEST CALLVALUE PUSH2 0x575 JUMPI PUSH1 0x20 CALLDATASIZE PUSH1 0x3 NOT ADD SLT PUSH2 0x575 JUMPI PUSH2 0x1E1E PUSH2 0x2439 JUMP JUMPDEST PUSH1 0x5 SLOAD PUSH1 0x78 DUP2 ADD DUP1 SWAP2 GT PUSH2 0x41F JUMPI TIMESTAMP LT PUSH2 0x1E5A JUMPI PUSH1 0x1 PUSH1 0x1 PUSH1 0xA0 SHL SUB DUP2 AND PUSH1 0x0 SWAP1 DUP2 MSTORE PUSH1 0x6 PUSH1 0x20 MSTORE PUSH1 0x40 SWAP1 KECCAK256 SLOAD PUSH2 0x1E54 SWAP2 PUSH2 0x2BB9 JUMP JUMPDEST TIMESTAMP PUSH1 0x5 SSTORE STOP JUMPDEST PUSH1 0x40 MLOAD PUSH3 0x461BCD PUSH1 0xE5 SHL DUP2 MSTORE PUSH1 0x20 PUSH1 0x4 DUP3 ADD MSTORE PUSH1 0x17 PUSH1 0x24 DUP3 ADD MSTORE PUSH32 0x546F6F206561726C7920666F7220726562616C616E6365000000000000000000 PUSH1 0x44 DUP3 ADD MSTORE PUSH1 0x64 SWAP1 REVERT JUMPDEST CALLVALUE PUSH2 0x575 JUMPI PUSH1 0x20 CALLDATASIZE PUSH1 0x3 NOT ADD SLT PUSH2 0x575 JUMPI PUSH2 0x1EB8 PUSH2 0x2439 JUMP JUMPDEST PUSH1 0x1 PUSH1 0x1 PUSH1 0xA0 SHL SUB AND DUP1 ISZERO PUSH2 0x1F2B JUMPI DUP1 PUSH1 0x40 SWAP2 PUSH1 0x0 MSTORE PUSH1 0x9 PUSH1 0x20 MSTORE PUSH2 0x1EE3 PUSH1 0xFF DUP4 PUSH1 0x0 KECCAK256 SLOAD AND PUSH2 0x26B9 JUMP JUMPDEST DUP1 PUSH1 0x0 MSTORE PUSH1 0x1 PUSH1 0x20 MSTORE DUP2 PUSH1 0x0 KECCAK256 SLOAD SWAP1 PUSH2 0x1F05 PUSH1 0x1 DUP1 PUSH1 0xA0 SHL SUB PUSH1 0x4 SLOAD AND PUSH2 0x2B48 JUMP JUMPDEST ISZERO PUSH2 0x1F19 JUMPI POP SELFBALANCE JUMPDEST DUP3 MLOAD SWAP2 DUP3 MSTORE PUSH1 0x20 DUP3 ADD MSTORE RETURN JUMPDEST PUSH1 0x0 MSTORE PUSH1 0x2 PUSH1 0x20 MSTORE DUP2 PUSH1 0x0 KECCAK256 SLOAD PUSH2 0x1F0D JUMP JUMPDEST PUSH1 0x40 MLOAD PUSH3 0x461BCD PUSH1 0xE5 SHL DUP2 MSTORE PUSH1 0x20 PUSH1 0x4 DUP3 ADD MSTORE PUSH1 0x1D PUSH1 0x24 DUP3 ADD MSTORE PUSH32 0x496E76616C69642063726561746F7220746F6B656E2061646472657373000000 PUSH1 0x44 DUP3 ADD MSTORE PUSH1 0x64 SWAP1 REVERT JUMPDEST CALLVALUE PUSH2 0x575 JUMPI PUSH1 0x20 CALLDATASIZE PUSH1 0x3 NOT ADD SLT PUSH2 0x575 JUMPI PUSH1 0x4 CALLDATALOAD PUSH2 0x1F8C PUSH2 0x2B90 JUMP JUMPDEST DUP1 ISZERO PUSH2 0x20AA JUMPI PUSH1 0xB SLOAD PUSH1 0x1 PUSH1 0x1 PUSH1 0xA0 SHL SUB AND DUP1 ISZERO PUSH2 0x206C JUMPI PUSH1 0x4 DUP1 SLOAD PUSH1 0x40 MLOAD PUSH4 0x70A08231 PUSH1 0xE0 SHL DUP2 MSTORE ADDRESS SWAP3 DUP2 ADD SWAP3 SWAP1 SWAP3 MSTORE PUSH1 0x1 PUSH1 0x1 PUSH1 0xA0 SHL SUB AND SWAP2 PUSH1 0x20 DUP3 PUSH1 0x24 DUP2 DUP7 GAS STATICCALL DUP1 ISZERO PUSH2 0xD39 JUMPI DUP5 SWAP3 PUSH1 0x0 SWAP2 PUSH2 0x2033 JUMPI JUMPDEST POP SWAP3 PUSH2 0x1FF1 DUP4 PUSH2 0x1FF6 SWAP6 LT ISZERO PUSH2 0x285F JUMP JUMPDEST PUSH2 0x2CA5 JUMP JUMPDEST PUSH32 0x5743C23AA18E9C7C385E45094156D20B8A0436DDC5E68943713E62CE630951A1 PUSH1 0x40 PUSH1 0x1 DUP1 PUSH1 0xA0 SHL SUB PUSH1 0xB SLOAD AND SWAP3 DUP2 MLOAD SWAP1 DUP2 MSTORE TIMESTAMP PUSH1 0x20 DUP3 ADD MSTORE LOG2 STOP JUMPDEST SWAP3 POP POP PUSH1 0x20 DUP3 RETURNDATASIZE PUSH1 0x20 GT PUSH2 0x2064 JUMPI JUMPDEST DUP2 PUSH2 0x204F PUSH1 0x20 SWAP4 DUP4 PUSH2 0x283D JUMP JUMPDEST DUP2 ADD SUB SLT PUSH2 0x575 JUMPI SWAP1 MLOAD DUP4 SWAP2 SWAP1 PUSH2 0x1FF1 PUSH2 0x1FE0 JUMP JUMPDEST RETURNDATASIZE SWAP2 POP PUSH2 0x2042 JUMP JUMPDEST PUSH1 0x40 MLOAD PUSH3 0x461BCD PUSH1 0xE5 SHL DUP2 MSTORE PUSH1 0x20 PUSH1 0x4 DUP3 ADD MSTORE PUSH1 0x16 PUSH1 0x24 DUP3 ADD MSTORE PUSH22 0x111156081859191C995CDCC81A5CC81B9BDD081CD95D PUSH1 0x52 SHL PUSH1 0x44 DUP3 ADD MSTORE PUSH1 0x64 SWAP1 REVERT JUMPDEST PUSH1 0x64 PUSH1 0x40 MLOAD PUSH3 0x461BCD PUSH1 0xE5 SHL DUP2 MSTORE PUSH1 0x20 PUSH1 0x4 DUP3 ADD MSTORE PUSH1 0x20 PUSH1 0x24 DUP3 ADD MSTORE PUSH32 0x416D6F756E74206D7573742062652067726561746572207468616E207A65726F PUSH1 0x44 DUP3 ADD MSTORE REVERT JUMPDEST CALLVALUE PUSH2 0x575 JUMPI PUSH1 0x40 CALLDATASIZE PUSH1 0x3 NOT ADD SLT PUSH2 0x575 JUMPI PUSH2 0xF PUSH2 0x210A PUSH2 0x2439 JUMP JUMPDEST PUSH2 0x2112 PUSH2 0x2B90 JUMP JUMPDEST PUSH1 0x24 CALLDATALOAD SWAP1 PUSH2 0x2714 JUMP JUMPDEST CALLVALUE PUSH2 0x575 JUMPI PUSH1 0x0 CALLDATASIZE PUSH1 0x3 NOT ADD SLT PUSH2 0x575 JUMPI PUSH1 0x20 PUSH1 0x40 MLOAD PUSH1 0x6 DUP2 MSTORE RETURN JUMPDEST CALLVALUE PUSH2 0x575 JUMPI PUSH1 0x0 CALLDATASIZE PUSH1 0x3 NOT ADD SLT PUSH2 0x575 JUMPI PUSH1 0x20 PUSH1 0x40 MLOAD PUSH2 0x3E8 DUP2 MSTORE RETURN JUMPDEST CALLVALUE PUSH2 0x575 JUMPI PUSH1 0x0 CALLDATASIZE PUSH1 0x3 NOT ADD SLT PUSH2 0x575 JUMPI PUSH1 0x20 PUSH1 0x40 MLOAD PUSH32 0x3D962DF346299889E3DDD098BDD68CF335A1E370339BD306448317D39B39A66D DUP2 MSTORE RETURN JUMPDEST CALLVALUE PUSH2 0x575 JUMPI PUSH1 0x0 CALLDATASIZE PUSH1 0x3 NOT ADD SLT PUSH2 0x575 JUMPI PUSH1 0x20 PUSH1 0x40 MLOAD PUSH2 0xE10 DUP2 MSTORE RETURN JUMPDEST CALLVALUE PUSH2 0x575 JUMPI PUSH1 0x20 CALLDATASIZE PUSH1 0x3 NOT ADD SLT PUSH2 0x575 JUMPI PUSH1 0x4 CALLDATALOAD PUSH1 0x8 SLOAD DUP2 LT ISZERO PUSH2 0x575 JUMPI PUSH2 0x21D5 PUSH1 0x20 SWAP2 PUSH2 0x248E JUMP JUMPDEST SWAP1 SLOAD PUSH1 0x40 MLOAD PUSH1 0x3 SWAP3 SWAP1 SWAP3 SHL SHR PUSH1 0x1 PUSH1 0x1 PUSH1 0xA0 SHL SUB AND DUP2 MSTORE RETURN JUMPDEST CALLVALUE PUSH2 0x575 JUMPI PUSH1 0x20 CALLDATASIZE PUSH1 0x3 NOT ADD SLT PUSH2 0x575 JUMPI PUSH2 0x2207 PUSH2 0x2439 JUMP JUMPDEST PUSH2 0x220F PUSH2 0x2B90 JUMP JUMPDEST PUSH1 0x1 PUSH1 0x1 PUSH1 0xA0 SHL SUB AND PUSH1 0x0 DUP2 DUP2 MSTORE PUSH1 0x9 PUSH1 0x20 MSTORE PUSH1 0x40 SWAP1 KECCAK256 SLOAD PUSH2 0x2233 SWAP1 PUSH1 0xFF AND PUSH2 0x26B9 JUMP JUMPDEST PUSH1 0x0 JUMPDEST PUSH1 0x8 SLOAD SWAP1 DUP2 DUP2 LT ISZERO PUSH2 0x2331 JUMPI DUP3 PUSH2 0x224C DUP3 PUSH2 0x248E JUMP JUMPDEST SWAP1 SLOAD PUSH1 0x3 SWAP2 SWAP1 SWAP2 SHL SHR PUSH1 0x1 PUSH1 0x1 PUSH1 0xA0 SHL SUB AND EQ PUSH2 0x226D JUMPI PUSH1 0x1 SWAP2 POP ADD PUSH2 0x2236 JUMP JUMPDEST PUSH1 0x0 NOT DUP3 ADD SWAP2 DUP3 GT PUSH2 0x41F JUMPI DUP2 DUP2 SUB PUSH2 0x2303 JUMPI JUMPDEST POP POP PUSH1 0x8 SLOAD DUP1 ISZERO PUSH2 0x22ED JUMPI PUSH1 0x0 NOT ADD PUSH2 0x2299 DUP2 PUSH2 0x248E JUMP JUMPDEST DUP2 SLOAD SWAP1 PUSH1 0x1 DUP1 PUSH1 0xA0 SHL SUB SWAP1 PUSH1 0x3 SHL SHL NOT AND SWAP1 SSTORE PUSH1 0x8 SSTORE JUMPDEST DUP1 PUSH1 0x0 MSTORE PUSH1 0x9 PUSH1 0x20 MSTORE PUSH1 0x40 PUSH1 0x0 KECCAK256 PUSH1 0xFF NOT DUP2 SLOAD AND SWAP1 SSTORE PUSH32 0xFE00C1E8CD2C81E2FC9FBCFBD6EEF9904D0B41515821320D5C45ABE6E8BAAE55 PUSH1 0x0 DUP1 LOG2 STOP JUMPDEST PUSH4 0x4E487B71 PUSH1 0xE0 SHL PUSH1 0x0 MSTORE PUSH1 0x31 PUSH1 0x4 MSTORE PUSH1 0x24 PUSH1 0x0 REVERT JUMPDEST PUSH2 0x18EA PUSH2 0x2312 PUSH2 0x232A SWAP4 PUSH2 0x248E JUMP JUMPDEST SWAP1 SLOAD PUSH1 0x3 SWAP2 SWAP1 SWAP2 SHL SHR PUSH1 0x1 PUSH1 0x1 PUSH1 0xA0 SHL SUB AND SWAP2 PUSH2 0x248E JUMP JUMPDEST DUP2 DUP1 PUSH2 0x2281 JUMP JUMPDEST POP POP PUSH2 0x22B0 JUMP JUMPDEST CALLVALUE PUSH2 0x575 JUMPI PUSH1 0x20 CALLDATASIZE PUSH1 0x3 NOT ADD SLT PUSH2 0x575 JUMPI PUSH1 0x1 PUSH1 0x1 PUSH1 0xA0 SHL SUB PUSH2 0x2359 PUSH2 0x2439 JUMP JUMPDEST AND PUSH1 0x0 MSTORE PUSH1 0x3 PUSH1 0x20 MSTORE PUSH1 0x20 PUSH1 0x40 PUSH1 0x0 KECCAK256 SLOAD PUSH1 0x40 MLOAD SWAP1 DUP2 MSTORE RETURN JUMPDEST CALLVALUE PUSH2 0x575 JUMPI PUSH1 0x0 CALLDATASIZE PUSH1 0x3 NOT ADD SLT PUSH2 0x575 JUMPI PUSH1 0x20 PUSH1 0x40 MLOAD PUSH8 0x4563918244F40000 DUP2 MSTORE RETURN JUMPDEST CALLVALUE PUSH2 0x575 JUMPI PUSH1 0x0 CALLDATASIZE PUSH1 0x3 NOT ADD SLT PUSH2 0x575 JUMPI PUSH1 0x20 PUSH1 0x40 MLOAD PUSH8 0x16345785D8A0000 DUP2 MSTORE RETURN JUMPDEST CALLVALUE PUSH2 0x575 JUMPI PUSH1 0x40 CALLDATASIZE PUSH1 0x3 NOT ADD SLT PUSH2 0x575 JUMPI PUSH1 0x20 PUSH2 0x23D9 PUSH1 0x24 CALLDATALOAD PUSH1 0x4 CALLDATALOAD PUSH2 0x2521 JUMP JUMPDEST PUSH1 0x40 MLOAD SWAP1 DUP2 MSTORE RETURN JUMPDEST CALLVALUE PUSH2 0x575 JUMPI PUSH1 0x20 CALLDATASIZE PUSH1 0x3 NOT ADD SLT PUSH2 0x575 JUMPI PUSH1 0x1 PUSH1 0x1 PUSH1 0xA0 SHL SUB PUSH2 0x2402 PUSH2 0x2439 JUMP JUMPDEST AND PUSH1 0x0 MSTORE PUSH1 0xA PUSH1 0x20 MSTORE DUP1 PUSH2 0xB15 PUSH1 0x40 PUSH1 0x0 KECCAK256 DUP1 SLOAD SWAP1 PUSH1 0x2 PUSH1 0x1 DUP3 ADD SLOAD SWAP2 ADD SLOAD SWAP2 DUP5 PUSH1 0x40 SWAP2 SWAP5 SWAP4 SWAP3 PUSH1 0x60 DUP3 ADD SWAP6 DUP3 MSTORE PUSH1 0x20 DUP3 ADD MSTORE ADD MSTORE JUMP JUMPDEST PUSH1 0x4 CALLDATALOAD SWAP1 PUSH1 0x1 PUSH1 0x1 PUSH1 0xA0 SHL SUB DUP3 AND DUP3 SUB PUSH2 0x575 JUMPI JUMP JUMPDEST CALLVALUE PUSH2 0x575 JUMPI PUSH1 0x0 CALLDATASIZE PUSH1 0x3 NOT ADD SLT PUSH2 0x575 JUMPI PUSH1 0x20 PUSH1 0x40 MLOAD PUSH1 0x78 DUP2 MSTORE RETURN JUMPDEST CALLVALUE PUSH2 0x575 JUMPI PUSH1 0x0 CALLDATASIZE PUSH1 0x3 NOT ADD SLT PUSH2 0x575 JUMPI PUSH1 0x20 PUSH1 0x40 MLOAD PUSH8 0x8AC7230489E80000 DUP2 MSTORE RETURN JUMPDEST PUSH1 0x8 SLOAD DUP2 LT ISZERO PUSH2 0x24A9 JUMPI PUSH1 0x8 PUSH1 0x0 MSTORE PUSH1 0x20 PUSH1 0x0 KECCAK256 ADD SWAP1 PUSH1 0x0 SWAP1 JUMP JUMPDEST PUSH4 0x4E487B71 PUSH1 0xE0 SHL PUSH1 0x0 MSTORE PUSH1 0x32 PUSH1 0x4 MSTORE PUSH1 0x24 PUSH1 0x0 REVERT JUMPDEST DUP1 SLOAD DUP3 LT ISZERO PUSH2 0x24A9 JUMPI PUSH1 0x0 MSTORE PUSH1 0x20 PUSH1 0x0 KECCAK256 ADD SWAP1 PUSH1 0x0 SWAP1 JUMP JUMPDEST PUSH1 0x60 SWAP1 PUSH1 0x3 NOT ADD SLT PUSH2 0x575 JUMPI PUSH1 0x4 CALLDATALOAD PUSH1 0x1 PUSH1 0x1 PUSH1 0xA0 SHL SUB DUP2 AND DUP2 SUB PUSH2 0x575 JUMPI SWAP1 PUSH1 0x24 CALLDATALOAD SWAP1 PUSH1 0x44 CALLDATALOAD SWAP1 JUMP JUMPDEST DUP2 ISZERO PUSH2 0x250B JUMPI DIV SWAP1 JUMP JUMPDEST PUSH4 0x4E487B71 PUSH1 0xE0 SHL PUSH1 0x0 MSTORE PUSH1 0x12 PUSH1 0x4 MSTORE PUSH1 0x24 PUSH1 0x0 REVERT JUMPDEST SWAP1 DUP2 ISZERO PUSH2 0x2674 JUMPI PUSH8 0x16345785D8A0000 DUP2 LT PUSH2 0x2639 JUMPI PUSH8 0x29A2241AF62C0000 DUP2 GT PUSH2 0x25FE JUMPI DUP1 DUP3 MUL SWAP2 DUP1 DUP4 DIV DUP3 SUB PUSH2 0x41F JUMPI PUSH2 0x255D SWAP1 DUP4 PUSH2 0x2501 JUMP JUMPDEST SUB PUSH2 0x25B9 JUMPI PUSH8 0x8AC7230489E80000 DUP2 LT PUSH2 0x2574 JUMPI SWAP1 JUMP JUMPDEST PUSH1 0x40 MLOAD PUSH3 0x461BCD PUSH1 0xE5 SHL DUP2 MSTORE PUSH1 0x20 PUSH1 0x4 DUP3 ADD MSTORE PUSH1 0x17 PUSH1 0x24 DUP3 ADD MSTORE PUSH32 0x4C69717569646974792062656C6F77206D696E696D756D000000000000000000 PUSH1 0x44 DUP3 ADD MSTORE PUSH1 0x64 SWAP1 REVERT JUMPDEST PUSH1 0x40 MLOAD PUSH3 0x461BCD PUSH1 0xE5 SHL DUP2 MSTORE PUSH1 0x20 PUSH1 0x4 DUP3 ADD MSTORE PUSH1 0x1E PUSH1 0x24 DUP3 ADD MSTORE PUSH32 0x4C69717569646974792063616C63756C6174696F6E206F766572666C6F770000 PUSH1 0x44 DUP3 ADD MSTORE PUSH1 0x64 SWAP1 REVERT JUMPDEST PUSH1 0x40 MLOAD PUSH3 0x461BCD PUSH1 0xE5 SHL DUP2 MSTORE PUSH1 0x20 PUSH1 0x4 DUP3 ADD MSTORE PUSH1 0x13 PUSH1 0x24 DUP3 ADD MSTORE PUSH19 0x50726963652061626F7665206D6178696D756D PUSH1 0x68 SHL PUSH1 0x44 DUP3 ADD MSTORE PUSH1 0x64 SWAP1 REVERT JUMPDEST PUSH1 0x40 MLOAD PUSH3 0x461BCD PUSH1 0xE5 SHL DUP2 MSTORE PUSH1 0x20 PUSH1 0x4 DUP3 ADD MSTORE PUSH1 0x13 PUSH1 0x24 DUP3 ADD MSTORE PUSH19 0x50726963652062656C6F77206D696E696D756D PUSH1 0x68 SHL PUSH1 0x44 DUP3 ADD MSTORE PUSH1 0x64 SWAP1 REVERT JUMPDEST PUSH1 0x40 MLOAD PUSH3 0x461BCD PUSH1 0xE5 SHL DUP2 MSTORE PUSH1 0x20 PUSH1 0x4 DUP3 ADD MSTORE PUSH1 0x18 PUSH1 0x24 DUP3 ADD MSTORE PUSH32 0x496E76616C6964207375627363726962657220636F756E740000000000000000 PUSH1 0x44 DUP3 ADD MSTORE PUSH1 0x64 SWAP1 REVERT JUMPDEST ISZERO PUSH2 0x26C0 JUMPI JUMP JUMPDEST PUSH1 0x40 MLOAD PUSH3 0x461BCD PUSH1 0xE5 SHL DUP2 MSTORE PUSH1 0x20 PUSH1 0x4 DUP3 ADD MSTORE PUSH1 0x10 PUSH1 0x24 DUP3 ADD MSTORE PUSH16 0x141BDBDB081B9BDD081D1C9858DAD959 PUSH1 0x82 SHL PUSH1 0x44 DUP3 ADD MSTORE PUSH1 0x64 SWAP1 REVERT JUMPDEST SWAP2 SWAP1 DUP3 SUB SWAP2 DUP3 GT PUSH2 0x41F JUMPI JUMP JUMPDEST PUSH1 0x0 NOT DUP2 EQ PUSH2 0x41F JUMPI PUSH1 0x1 ADD SWAP1 JUMP JUMPDEST PUSH1 0x1 PUSH1 0x1 PUSH1 0xA0 SHL SUB DUP2 AND PUSH1 0x0 DUP2 DUP2 MSTORE PUSH1 0x6 PUSH1 0x20 MSTORE PUSH1 0x40 SWAP1 KECCAK256 DUP1 SLOAD SWAP3 SWAP4 SWAP2 SWAP3 ISZERO PUSH2 0x280D JUMPI PUSH1 0x1 DUP2 ADD SWAP3 DUP4 SLOAD PUSH1 0x50 DUP2 MUL SWAP1 DUP1 DUP3 DIV PUSH1 0x50 EQ SWAP1 ISZERO OR ISZERO PUSH2 0x41F JUMPI PUSH1 0x14 DUP5 MUL SWAP3 DUP5 DUP5 DIV PUSH1 0x14 EQ DUP6 ISZERO OR ISZERO PUSH2 0x41F JUMPI PUSH2 0x2778 PUSH1 0x3 SWAP5 SWAP3 PUSH1 0x64 DUP1 DUP8 SWAP6 DIV SWAP2 DIV PUSH2 0x28AB JUMP JUMPDEST DUP1 SWAP7 DUP7 DUP4 SSTORE SSTORE TIMESTAMP PUSH1 0x2 DUP3 ADD SSTORE ADD SWAP1 PUSH2 0x2790 DUP3 SLOAD PUSH2 0x2705 JUMP JUMPDEST DUP1 SWAP3 SSTORE PUSH32 0xCA21C0666034043E35144E1A6964B4519A124330E0122463475F81A0C189D119 PUSH1 0x40 MLOAD DUP1 PUSH2 0x27D5 TIMESTAMP DUP10 DUP10 DUP5 PUSH1 0x40 SWAP2 SWAP5 SWAP4 SWAP3 PUSH1 0x60 DUP3 ADD SWAP6 DUP3 MSTORE PUSH1 0x20 DUP3 ADD MSTORE ADD MSTORE JUMP JUMPDEST SUB SWAP1 LOG2 LT ISZERO PUSH2 0x27E3 JUMPI POP POP POP JUMP JUMPDEST PUSH1 0x6E DUP3 MUL DUP3 DUP2 DIV PUSH1 0x6E EQ DUP4 ISZERO OR ISZERO PUSH2 0x41F JUMPI PUSH1 0x64 SWAP1 DIV LT PUSH2 0x2802 JUMPI POP POP JUMP JUMPDEST PUSH2 0x280B SWAP2 PUSH2 0x2BB9 JUMP JUMPDEST JUMP JUMPDEST SWAP1 PUSH1 0x1 SWAP4 POP PUSH1 0x3 SWAP3 POP DUP1 DUP3 SSTORE DUP4 DUP3 ADD SSTORE ADD SSTORE JUMP JUMPDEST PUSH1 0x60 DUP2 ADD SWAP1 DUP2 LT PUSH8 0xFFFFFFFFFFFFFFFF DUP3 GT OR PUSH2 0x9D8 JUMPI PUSH1 0x40 MSTORE JUMP JUMPDEST SWAP1 PUSH1 0x1F DUP1 NOT SWAP2 ADD AND DUP2 ADD SWAP1 DUP2 LT PUSH8 0xFFFFFFFFFFFFFFFF DUP3 GT OR PUSH2 0x9D8 JUMPI PUSH1 0x40 MSTORE JUMP JUMPDEST ISZERO PUSH2 0x2866 JUMPI JUMP JUMPDEST PUSH1 0x40 MLOAD PUSH3 0x461BCD PUSH1 0xE5 SHL DUP2 MSTORE PUSH1 0x20 PUSH1 0x4 DUP3 ADD MSTORE PUSH1 0x1A PUSH1 0x24 DUP3 ADD MSTORE PUSH32 0x496E73756666696369656E7420434F52414C2062616C616E6365000000000000 PUSH1 0x44 DUP3 ADD MSTORE PUSH1 0x64 SWAP1 REVERT JUMPDEST SWAP2 SWAP1 DUP3 ADD DUP1 SWAP3 GT PUSH2 0x41F JUMPI JUMP JUMPDEST ISZERO PUSH2 0x28BF JUMPI JUMP JUMPDEST PUSH1 0x40 MLOAD PUSH3 0x461BCD PUSH1 0xE5 SHL DUP2 MSTORE PUSH1 0x20 PUSH1 0x4 DUP3 ADD MSTORE PUSH1 0x10 PUSH1 0x24 DUP3 ADD MSTORE PUSH16 0x4E6F7420696E20646973636F76657279 PUSH1 0x80 SHL PUSH1 0x44 DUP3 ADD MSTORE PUSH1 0x64 SWAP1 REVERT JUMPDEST PUSH1 0x1 DUP1 PUSH1 0xA0 SHL SUB AND PUSH1 0x0 MSTORE PUSH1 0xA PUSH1 0x20 MSTORE PUSH1 0x40 PUSH1 0x0 KECCAK256 PUSH1 0x1 DUP2 SLOAD SWAP2 ADD SLOAD SWAP1 PUSH3 0x93A7F NOT TIMESTAMP ADD SWAP1 TIMESTAMP DUP3 GT PUSH2 0x41F JUMPI LT PUSH2 0x2940 JUMPI PUSH8 0x8AC7230489E80000 GT PUSH2 0x293B JUMPI PUSH1 0x1 SWAP1 JUMP JUMPDEST PUSH1 0x0 SWAP1 JUMP JUMPDEST POP PUSH1 0x0 SWAP1 JUMP JUMPDEST ISZERO PUSH2 0x294D JUMPI JUMP JUMPDEST PUSH1 0x40 MLOAD PUSH3 0x461BCD PUSH1 0xE5 SHL DUP2 MSTORE PUSH1 0x20 PUSH1 0x4 DUP3 ADD MSTORE PUSH1 0x1F PUSH1 0x24 DUP3 ADD MSTORE PUSH32 0x4F6E6C79204445582063616E2063616C6C20746869732066756E6374696F6E00 PUSH1 0x44 DUP3 ADD MSTORE PUSH1 0x64 SWAP1 REVERT JUMPDEST PUSH1 0x40 MLOAD SWAP1 PUSH2 0x29A1 PUSH1 0x40 DUP4 PUSH2 0x283D JUMP JUMPDEST PUSH1 0x1D DUP3 MSTORE PUSH32 0x4E6F206665657320617661696C61626C6520746F2072656465706C6F79000000 PUSH1 0x20 DUP4 ADD MSTORE JUMP JUMPDEST ISZERO PUSH2 0x29D5 JUMPI POP JUMP JUMPDEST PUSH1 0x40 MLOAD SWAP1 PUSH3 0x461BCD PUSH1 0xE5 SHL DUP3 MSTORE PUSH1 0x20 PUSH1 0x4 DUP4 ADD MSTORE DUP2 DUP2 MLOAD SWAP2 DUP3 PUSH1 0x24 DUP4 ADD MSTORE PUSH1 0x0 JUMPDEST DUP4 DUP2 LT PUSH2 0x2A18 JUMPI POP POP DUP2 PUSH1 0x0 PUSH1 0x44 DUP1 SWAP5 DUP5 ADD ADD MSTORE PUSH1 0x1F DUP1 NOT SWAP2 ADD AND DUP2 ADD SUB ADD SWAP1 REVERT JUMPDEST PUSH1 0x20 DUP3 DUP3 ADD DUP2 ADD MLOAD PUSH1 0x44 DUP8 DUP5 ADD ADD MSTORE DUP6 SWAP4 POP ADD PUSH2 0x29F6 JUMP JUMPDEST PUSH1 0x40 MLOAD SWAP1 PUSH2 0x2A3F PUSH1 0x40 DUP4 PUSH2 0x283D JUMP JUMPDEST PUSH1 0x1B DUP3 MSTORE PUSH32 0x42656C6F77206D696E696D756D20666565207468726573686F6C640000000000 PUSH1 0x20 DUP4 ADD MSTORE JUMP JUMPDEST ISZERO PUSH2 0x2A72 JUMPI JUMP JUMPDEST PUSH1 0x40 MLOAD PUSH3 0x461BCD PUSH1 0xE5 SHL DUP2 MSTORE PUSH1 0x20 PUSH1 0x4 DUP3 ADD MSTORE PUSH1 0x1A PUSH1 0x24 DUP3 ADD MSTORE PUSH32 0x496E73756666696369656E7420746F6B656E2062616C616E6365000000000000 PUSH1 0x44 DUP3 ADD MSTORE PUSH1 0x64 SWAP1 REVERT JUMPDEST ISZERO PUSH2 0x2ABE JUMPI JUMP JUMPDEST PUSH1 0x40 MLOAD PUSH3 0x461BCD PUSH1 0xE5 SHL DUP2 MSTORE PUSH1 0x20 PUSH1 0x4 DUP3 ADD MSTORE PUSH1 0x16 PUSH1 0x24 DUP3 ADD MSTORE PUSH22 0x496E73756666696369656E7420532062616C616E6365 PUSH1 0x50 SHL PUSH1 0x44 DUP3 ADD MSTORE PUSH1 0x64 SWAP1 REVERT JUMPDEST ISZERO PUSH2 0x2B03 JUMPI JUMP JUMPDEST PUSH1 0x40 MLOAD PUSH3 0x461BCD PUSH1 0xE5 SHL DUP2 MSTORE PUSH1 0x20 PUSH1 0x4 DUP3 ADD MSTORE PUSH1 0x1B PUSH1 0x24 DUP3 ADD MSTORE PUSH32 0x43616E6E6F742072656D6F766520616C6C206C69717569646974790000000000 PUSH1 0x44 DUP3 ADD MSTORE PUSH1 0x64 SWAP1 REVERT JUMPDEST PUSH1 0x4 SLOAD PUSH1 0x1 PUSH1 0x1 PUSH1 0xA0 SHL SUB SWAP2 DUP3 AND SWAP2 AND DUP2 EQ SWAP1 DUP2 ISZERO PUSH2 0x2B87 JUMPI JUMPDEST DUP2 ISZERO PUSH2 0x2B6C JUMPI POP SWAP1 JUMP JUMPDEST PUSH20 0xEEEEEEEEEEEEEEEEEEEEEEEEEEEEEEEEEEEEEEEE SWAP2 POP EQ SWAP1 JUMP JUMPDEST DUP1 ISZERO SWAP2 POP PUSH2 0x2B62 JUMP JUMPDEST PUSH1 0x0 SLOAD PUSH1 0x1 PUSH1 0x1 PUSH1 0xA0 SHL SUB AND CALLER SUB PUSH2 0x2BA4 JUMPI JUMP JUMPDEST PUSH4 0x118CDAA7 PUSH1 0xE0 SHL PUSH1 0x0 MSTORE CALLER PUSH1 0x4 MSTORE PUSH1 0x24 PUSH1 0x0 REVERT JUMPDEST PUSH1 0x1 DUP1 PUSH1 0xA0 SHL SUB AND SWAP1 DUP2 PUSH1 0x0 MSTORE PUSH1 0x2 PUSH1 0x20 MSTORE PUSH8 0x8AC7230489E80000 PUSH1 0x40 PUSH1 0x0 KECCAK256 SLOAD LT PUSH2 0x2C3C JUMPI PUSH8 0xDE0B6B3A7640000 DUP2 MUL SWAP1 DUP1 DUP3 DIV PUSH8 0xDE0B6B3A7640000 EQ SWAP1 ISZERO OR ISZERO PUSH2 0x41F JUMPI PUSH1 0x20 PUSH32 0x8EB665708D1CBFA2DF196D5F041BC00AC33E9C6E0B42B64233AED0C7C84DA7E1 SWAP2 DUP4 PUSH1 0x0 MSTORE PUSH1 0x2 DUP3 MSTORE DUP1 PUSH1 0x40 PUSH1 0x0 KECCAK256 SSTORE PUSH1 0x40 MLOAD SWAP1 DUP2 MSTORE LOG2 JUMP JUMPDEST POP DUP1 PUSH1 0x0 MSTORE PUSH1 0x2 PUSH1 0x20 MSTORE PUSH32 0x43C29E41362BCEAE5B8F10CF00D57C5B525A270A7FF263F5C6B24158459B0BBE PUSH1 0x80 PUSH1 0x40 PUSH1 0x0 KECCAK256 SLOAD PUSH1 0x40 MLOAD SWAP1 DUP2 MSTORE PUSH1 0x40 PUSH1 0x20 DUP3 ADD MSTORE PUSH1 0x16 PUSH1 0x40 DUP3 ADD MSTORE PUSH22 0x496E73756666696369656E74206C6971756964697479 PUSH1 0x50 SHL PUSH1 0x60 DUP3 ADD MSTORE LOG2 JUMP JUMPDEST PUSH1 0x40 MLOAD PUSH4 0xA9059CBB PUSH1 0xE0 SHL PUSH1 0x20 DUP3 ADD MSTORE PUSH1 0x1 PUSH1 0x1 PUSH1 0xA0 SHL SUB SWAP1 SWAP3 AND PUSH1 0x24 DUP4 ADD MSTORE PUSH1 0x44 DUP1 DUP4 ADD SWAP4 SWAP1 SWAP4 MSTORE SWAP2 DUP2 MSTORE PUSH2 0x280B SWAP2 PUSH2 0x2CE0 PUSH1 0x64 DUP4 PUSH2 0x283D JUMP JUMPDEST PUSH2 0x2FE7 JUMP JUMPDEST PUSH1 0x40 MLOAD PUSH4 0x23B872DD PUSH1 0xE0 SHL PUSH1 0x20 DUP3 ADD MSTORE PUSH1 0x1 PUSH1 0x1 PUSH1 0xA0 SHL SUB SWAP3 DUP4 AND PUSH1 0x24 DUP3 ADD MSTORE SWAP3 SWAP1 SWAP2 AND PUSH1 0x44 DUP4 ADD MSTORE PUSH1 0x64 DUP1 DUP4 ADD SWAP4 SWAP1 SWAP4 MSTORE SWAP2 DUP2 MSTORE PUSH2 0x280B SWAP2 PUSH2 0x2CE0 PUSH1 0x84 DUP4 PUSH2 0x283D JUMP JUMPDEST PUSH1 0xC SLOAD PUSH1 0x1 PUSH1 0x1 PUSH1 0xA0 SHL SUB AND DUP1 ISZERO ISZERO DUP1 PUSH2 0x2D8A JUMPI JUMPDEST PUSH2 0x2D5B JUMPI JUMPDEST POP PUSH2 0x2D4C PUSH2 0x2E3B JUMP JUMPDEST PUSH1 0xC SLOAD PUSH1 0x1 PUSH1 0x1 PUSH1 0xA0 SHL SUB AND SWAP1 JUMP JUMPDEST DUP1 PUSH1 0x0 MSTORE PUSH1 0x9 PUSH1 0x20 MSTORE PUSH1 0xFF PUSH1 0x40 PUSH1 0x0 KECCAK256 SLOAD AND DUP1 PUSH2 0x2D7B JUMPI JUMPDEST ISZERO PUSH2 0x2D43 JUMPI SWAP1 JUMP JUMPDEST POP PUSH2 0x2D85 DUP2 PUSH2 0x28F7 JUMP JUMPDEST PUSH2 0x2D73 JUMP JUMPDEST POP PUSH1 0xE SLOAD PUSH2 0xE10 DUP2 ADD DUP1 SWAP2 GT PUSH2 0x41F JUMPI TIMESTAMP LT PUSH2 0x2D3E JUMP JUMPDEST PUSH1 0x1 PUSH1 0x1 PUSH1 0xA0 SHL SUB AND DUP1 ISZERO PUSH2 0x2E34 JUMPI DUP1 PUSH1 0x0 MSTORE PUSH1 0x2 PUSH1 0x20 MSTORE PUSH1 0x40 PUSH1 0x0 KECCAK256 SLOAD SWAP1 PUSH1 0x0 MSTORE PUSH1 0xA PUSH1 0x20 MSTORE PUSH8 0x8AC7230489E80000 PUSH1 0x40 PUSH1 0x0 KECCAK256 SWAP2 PUSH1 0x40 MLOAD PUSH2 0x2DE3 DUP2 PUSH2 0x2821 JUMP JUMPDEST DUP4 SLOAD DUP2 MSTORE PUSH1 0x40 PUSH1 0x2 PUSH1 0x1 DUP7 ADD SLOAD SWAP6 DUP7 PUSH1 0x20 DUP6 ADD MSTORE ADD SLOAD SWAP2 ADD MSTORE LT PUSH2 0x2E30 JUMPI PUSH9 0x1158E460913D00000 LT PUSH2 0x2E16 JUMPI PUSH1 0x1 SHR SWAP1 JUMP JUMPDEST PUSH1 0x4B DUP2 MUL SWAP1 DUP1 DUP3 DIV PUSH1 0x4B EQ SWAP1 ISZERO OR ISZERO PUSH2 0x41F JUMPI PUSH1 0x64 SWAP1 DIV SWAP1 JUMP JUMPDEST POP SWAP1 JUMP JUMPDEST POP POP PUSH1 0x0 SWAP1 JUMP JUMPDEST PUSH1 0xC DUP1 SLOAD PUSH1 0x1 PUSH1 0x1 PUSH1 0xA0 SHL SUB NOT AND SWAP1 SSTORE PUSH1 0x0 PUSH1 0xD SSTORE PUSH1 0x8 SLOAD DUP1 ISZERO PUSH2 0x2FE4 JUMPI PUSH3 0x93A7F NOT TIMESTAMP ADD SWAP1 TIMESTAMP DUP3 GT PUSH2 0x41F JUMPI PUSH1 0x0 JUMPDEST DUP2 DUP2 LT PUSH2 0x2EB8 JUMPI POP POP POP TIMESTAMP PUSH1 0xE SSTORE PUSH1 0x1 DUP1 PUSH1 0xA0 SHL SUB PUSH1 0xC SLOAD AND PUSH32 0x2BC000D157093A2097E6514A43C3BAEA9E0CFBE6EE606D000E64892A9EC425D PUSH1 0x40 PUSH1 0xD SLOAD DUP2 MLOAD SWAP1 DUP2 MSTORE TIMESTAMP PUSH1 0x20 DUP3 ADD MSTORE LOG2 JUMP JUMPDEST PUSH2 0x2EC1 DUP2 PUSH2 0x248E JUMP JUMPDEST PUSH1 0x1 DUP1 PUSH1 0xA0 SHL SUB SWAP2 SLOAD SWAP1 PUSH1 0x3 SHL SHR AND SWAP1 DUP2 PUSH1 0x0 MSTORE PUSH1 0xA PUSH1 0x20 MSTORE PUSH1 0x40 PUSH1 0x0 KECCAK256 PUSH1 0x40 MLOAD SWAP1 PUSH2 0x2EEC DUP3 PUSH2 0x2821 JUMP JUMPDEST DUP1 SLOAD DUP3 MSTORE PUSH1 0x2 PUSH1 0x1 DUP3 ADD SLOAD SWAP2 PUSH1 0x20 DUP5 ADD SWAP3 DUP4 MSTORE ADD SLOAD PUSH1 0x40 DUP4 ADD MSTORE DUP4 PUSH1 0x0 MSTORE PUSH1 0x9 PUSH1 0x20 MSTORE DUP6 PUSH1 0xFF PUSH1 0x40 PUSH1 0x0 KECCAK256 SLOAD AND ISZERO SWAP3 DUP4 ISZERO PUSH2 0x2FD9 JUMPI JUMPDEST POP POP DUP2 ISZERO PUSH2 0x2FC6 JUMPI JUMPDEST POP PUSH2 0x2FBD JUMPI DUP2 PUSH1 0x0 MSTORE PUSH1 0x2 PUSH1 0x20 MSTORE PUSH1 0x40 PUSH1 0x0 KECCAK256 SLOAD SWAP2 DUP1 PUSH1 0x0 MSTORE PUSH1 0xA PUSH1 0x20 MSTORE PUSH1 0x1 PUSH1 0x40 PUSH1 0x0 KECCAK256 ADD SLOAD PUSH1 0x7 DUP5 MUL SWAP4 DUP1 DUP6 DIV PUSH1 0x7 EQ SWAP1 ISZERO OR ISZERO PUSH2 0x41F JUMPI PUSH1 0x3 DUP2 MUL SWAP1 DUP1 DUP3 DIV PUSH1 0x3 EQ SWAP1 ISZERO OR ISZERO PUSH2 0x41F JUMPI PUSH2 0x2F86 PUSH1 0xA SWAP2 PUSH1 0x1 SWAP6 PUSH2 0x28AB JUMP JUMPDEST DIV SWAP1 PUSH1 0xD SLOAD DUP3 GT PUSH2 0x2F9B JUMPI JUMPDEST POP POP JUMPDEST ADD PUSH2 0x2E6B JUMP JUMPDEST PUSH12 0xFFFFFFFFFFFFFFFFFFFFFFFF PUSH1 0xA0 SHL PUSH1 0xC SLOAD AND OR PUSH1 0xC SSTORE PUSH1 0xD SSTORE CODESIZE DUP1 PUSH2 0x2F92 JUMP JUMPDEST PUSH1 0x1 SWAP2 POP PUSH2 0x2F95 JUMP JUMPDEST PUSH8 0x8AC7230489E80000 SWAP2 POP MLOAD LT CODESIZE PUSH2 0x2F2B JUMP JUMPDEST MLOAD LT SWAP2 POP DUP6 CODESIZE PUSH2 0x2F22 JUMP JUMPDEST POP JUMP JUMPDEST SWAP1 PUSH1 0x0 PUSH1 0x20 SWAP2 DUP3 DUP2 MLOAD SWAP2 ADD DUP3 DUP6 GAS CALL ISZERO PUSH2 0xD39 JUMPI PUSH1 0x0 MLOAD RETURNDATASIZE PUSH2 0x3039 JUMPI POP PUSH1 0x1 PUSH1 0x1 PUSH1 0xA0 SHL SUB DUP2 AND EXTCODESIZE ISZERO JUMPDEST PUSH2 0x3018 JUMPI POP JUMP JUMPDEST PUSH4 0x5274AFE7 PUSH1 0xE0 SHL PUSH1 0x0 SWAP1 DUP2 MSTORE PUSH1 0x1 PUSH1 0x1 PUSH1 0xA0 SHL SUB SWAP2 SWAP1 SWAP2 AND PUSH1 0x4 MSTORE PUSH1 0x24 SWAP1 REVERT JUMPDEST PUSH1 0x1 EQ ISZERO PUSH2 0x3011 JUMP INVALID LOG2 PUSH5 0x6970667358 0x22 SLT KECCAK256 0x2A CALL DUP10 SAR CALLCODE 0xAA DUP4 0x2A 0xB2 0xCB PUSH27 0x23A8D9E1268710033CFA6D9C9B57A58584BE595DCC64736F6C6343 STOP ADDMOD SHR STOP CALLER "},"methodIdentifiers":{"ACTIVITY_THRESHOLD()":"414f99ae","BASE_PRICE()":"f86325ed","DEX_ROLE()":"2ef97265","DISCOVERY_PERIOD()":"17359688","ENGAGEMENT_THRESHOLD()":"30ae7805","MAX_PRICE_MULTIPLIER()":"5889486e","MAX_SNAPSHOTS()":"31ad24f8","MIN_24H_VOLUME()":"993d3450","MIN_FEES_FOR_REDEPLOY()":"1b5a799a","MIN_LIQUIDITY()":"21b77d63","MIN_TOKEN_PRICE()":"1879dcf3","POOL_NEED_UPDATE_INTERVAL()":"2d957a8c","REBALANCE_INTERVAL()":"5c2da7cd","SNAPSHOT_INTERVAL()":"6d2beef1","addLiquidity(address,uint256,uint256)":"55776b77","autoRedeployFees(address)":"bc99f487","calculateInitialLiquidity(uint256,uint256)":"14f302ac","checkAndRebalance(address)":"3ec43350","collectFees(address,uint256)":"a033fcd4","collectedFees(address)":"1cead9a7","completePriceDiscovery(address)":"fb99d5f4","coralReserves(address)":"84f74a69","coralToken()":"bba2e140","creatorTokenReserves(address)":"708b9935","dex()":"692058c2","forcePoolNeedUpdate()":"bd368d48","getPoolActivity(address)":"f836c8f2","getPoolNeedInfo()":"d6f969e2","getReserves(address)":"3e99c1e4","getSmoothedMetrics(address)":"b1eb4835","getTrackedPools()":"b2098fa2","hasMinimumLiquidity(address)":"76fbf2d4","isNativeCoral(address)":"fb28ceb2","isPoolActive(address)":"a711e6a1","isTrackedPool(address)":"74a92c66","isValidLiquidity(uint256)":"e7c75b79","lastRebalanceTimestamp()":"b83d8157","mostNeededPool()":"a1ce9204","owner()":"8da5cb5b","poolActivity(address)":"051e0e67","priceDiscovery(address)":"e1aeb092","recordEngagementSnapshot(address,uint256)":"4e358af2","redeployFees(address,address)":"bd1e31aa","removeLiquidity(address,uint256,uint256)":"e38192e3","removePoolFromTracking(address)":"2253fc3c","renounceOwnership()":"715018a6","setDEX(address)":"7b66a723","startPriceDiscovery(address,uint256)":"8c93ca7c","tokenEngagement(address)":"f2fd23de","trackedPools(uint256)":"23bfa792","transferCoralToDEX(uint256)":"3c231efd","transferOwnership(address)":"f2fde38b","updateEngagementMetrics(address,uint256)":"3417c3d0","updatePoolActivity(address,uint256)":"e71e76c1","withdrawFees(address,uint256)":"ad3b1b47"}},"storageLayout":{"storage":[{"astId":8,"contract":"contracts/SaraLiquidityManager.sol:SaraLiquidityManager","label":"_owner","offset":0,"slot":"0","type":"t_address"},{"astId":2597,"contract":"contracts/SaraLiquidityManager.sol:SaraLiquidityManager","label":"creatorTokenReserves","offset":0,"slot":"1","type":"t_mapping(t_address,t_uint256)"},{"astId":2601,"contract":"contracts/SaraLiquidityManager.sol:SaraLiquidityManager","label":"coralReserves","offset":0,"slot":"2","type":"t_mapping(t_address,t_uint256)"},{"astId":2605,"contract":"contracts/SaraLiquidityManager.sol:SaraLiquidityManager","label":"collectedFees","offset":0,"slot":"3","type":"t_mapping(t_address,t_uint256)"},{"astId":2607,"contract":"contracts/SaraLiquidityManager.sol:SaraLiquidityManager","label":"coralToken","offset":0,"slot":"4","type":"t_address"},{"astId":2612,"contract":"contracts/SaraLiquidityManager.sol:SaraLiquidityManager","label":"lastRebalanceTimestamp","offset":0,"slot":"5","type":"t_uint256"},{"astId":2629,"contract":"contracts/SaraLiquidityManager.sol:SaraLiquidityManager","label":"tokenEngagement","offset":0,"slot":"6","type":"t_mapping(t_address,t_struct(EngagementMetrics)2624_storage)"},{"astId":2664,"contract":"contracts/SaraLiquidityManager.sol:SaraLiquidityManager","label":"priceDiscovery","offset":0,"slot":"7","type":"t_mapping(t_address,t_struct(PriceDiscoveryData)2659_storage)"},{"astId":2698,"contract":"contracts/SaraLiquidityManager.sol:SaraLiquidityManager","label":"trackedPools","offset":0,"slot":"8","type":"t_array(t_address)dyn_storage"},{"astId":2702,"contract":"contracts/SaraLiquidityManager.sol:SaraLiquidityManager","label":"isTrackedPool","offset":0,"slot":"9","type":"t_mapping(t_address,t_bool)"},{"astId":2765,"contract":"contracts/SaraLiquidityManager.sol:SaraLiquidityManager","label":"poolActivity","offset":0,"slot":"10","type":"t_mapping(t_address,t_struct(PoolActivity)2760_storage)"},{"astId":2795,"contract":"contracts/SaraLiquidityManager.sol:SaraLiquidityManager","label":"dex","offset":0,"slot":"11","type":"t_address"},{"astId":2810,"contract":"contracts/SaraLiquidityManager.sol:SaraLiquidityManager","label":"mostNeededPool","offset":0,"slot":"12","type":"t_struct(PoolNeedInfo)2807_storage"}],"types":{"t_address":{"encoding":"inplace","label":"address","numberOfBytes":"20"},"t_array(t_address)dyn_storage":{"base":"t_address","encoding":"dynamic_array","label":"address[]","numberOfBytes":"32"},"t_array(t_uint256)dyn_storage":{"base":"t_uint256","encoding":"dynamic_array","label":"uint256[]","numberOfBytes":"32"},"t_bool":{"encoding":"inplace","label":"bool","numberOfBytes":"1"},"t_mapping(t_address,t_bool)":{"encoding":"mapping","key":"t_address","label":"mapping(address => bool)","numberOfBytes":"32","value":"t_bool"},"t_mapping(t_address,t_struct(EngagementMetrics)2624_storage)":{"encoding":"mapping","key":"t_address","label":"mapping(address => struct SaraLiquidityManager.EngagementMetrics)","numberOfBytes":"32","value":"t_struct(EngagementMetrics)2624_storage"},"t_mapping(t_address,t_struct(PoolActivity)2760_storage)":{"encoding":"mapping","key":"t_address","label":"mapping(address => struct SaraLiquidityManager.PoolActivity)","numberOfBytes":"32","value":"t_struct(PoolActivity)2760_storage"},"t_mapping(t_address,t_struct(PriceDiscoveryData)2659_storage)":{"encoding":"mapping","key":"t_address","label":"mapping(address => struct SaraLiquidityManager.PriceDiscoveryData)","numberOfBytes":"32","value":"t_struct(PriceDiscoveryData)2659_storage"},"t_mapping(t_address,t_uint256)":{"encoding":"mapping","key":"t_address","label":"mapping(address => uint256)","numberOfBytes":"32","value":"t_uint256"},"t_struct(EngagementMetrics)2624_storage":{"encoding":"inplace","label":"struct SaraLiquidityManager.EngagementMetrics","members":[{"astId":2617,"contract":"contracts/SaraLiquidityManager.sol:SaraLiquidityManager","label":"lastSubscriberCount","offset":0,"slot":"0","type":"t_uint256"},{"astId":2619,"contract":"contracts/SaraLiquidityManager.sol:SaraLiquidityManager","label":"smoothedSubscriberCount","offset":0,"slot":"1","type":"t_uint256"},{"astId":2621,"contract":"contracts/SaraLiquidityManager.sol:SaraLiquidityManager","label":"lastUpdateTime","offset":0,"slot":"2","type":"t_uint256"},{"astId":2623,"contract":"contracts/SaraLiquidityManager.sol:SaraLiquidityManager","label":"updateCount","offset":0,"slot":"3","type":"t_uint256"}],"numberOfBytes":"128"},"t_struct(PoolActivity)2760_storage":{"encoding":"inplace","label":"struct SaraLiquidityManager.PoolActivity","members":[{"astId":2755,"contract":"contracts/SaraLiquidityManager.sol:SaraLiquidityManager","label":"lastTradeTimestamp","offset":0,"slot":"0","type":"t_uint256"},{"astId":2757,"contract":"contracts/SaraLiquidityManager.sol:SaraLiquidityManager","label":"tradingVolume24h","offset":0,"slot":"1","type":"t_uint256"},{"astId":2759,"contract":"contracts/SaraLiquidityManager.sol:SaraLiquidityManager","label":"lastVolumeUpdateTime","offset":0,"slot":"2","type":"t_uint256"}],"numberOfBytes":"96"},"t_struct(PoolNeedInfo)2807_storage":{"encoding":"inplace","label":"struct SaraLiquidityManager.PoolNeedInfo","members":[{"astId":2802,"contract":"contracts/SaraLiquidityManager.sol:SaraLiquidityManager","label":"pool","offset":0,"slot":"0","type":"t_address"},{"astId":2804,"contract":"contracts/SaraLiquidityManager.sol:SaraLiquidityManager","label":"score","offset":0,"slot":"1","type":"t_uint256"},{"astId":2806,"contract":"contracts/SaraLiquidityManager.sol:SaraLiquidityManager","label":"lastUpdateTime","offset":0,"slot":"2","type":"t_uint256"}],"numberOfBytes":"96"},"t_struct(PriceDiscoveryData)2659_storage":{"encoding":"inplace","label":"struct SaraLiquidityManager.PriceDiscoveryData","members":[{"astId":2649,"contract":"contracts/SaraLiquidityManager.sol:SaraLiquidityManager","label":"initialSubscribers","offset":0,"slot":"0","type":"t_uint256"},{"astId":2651,"contract":"contracts/SaraLiquidityManager.sol:SaraLiquidityManager","label":"currentSubscribers","offset":0,"slot":"1","type":"t_uint256"},{"astId":2653,"contract":"contracts/SaraLiquidityManager.sol:SaraLiquidityManager","label":"observationStartTime","offset":0,"slot":"2","type":"t_uint256"},{"astId":2655,"contract":"contracts/SaraLiquidityManager.sol:SaraLiquidityManager","label":"isInDiscovery","offset":0,"slot":"3","type":"t_bool"},{"astId":2658,"contract":"contracts/SaraLiquidityManager.sol:SaraLiquidityManager","label":"engagementSnapshots","offset":0,"slot":"4","type":"t_array(t_uint256)dyn_storage"}],"numberOfBytes":"160"},"t_uint256":{"encoding":"inplace","label":"uint256","numberOfBytes":"32"}}}}}}