{"contracts/SaraTokenRouter.sol":{"SaraTokenRouter":{"abi":[{"inputs":[{"internalType":"address","name":"_coralToken","type":"address"},{"internalType":"address","name":"_liquidityManager","type":"address"},{"internalType":"address","name":"_dex","type":"address"},{"internalType":"address","name":"_creatorTokenFactory","type":"address"}],"stateMutability":"nonpayable","type":"constructor"},{"inputs":[{"internalType":"address","name":"owner","type":"address"}],"name":"OwnableInvalidOwner","type":"error"},{"inputs":[{"internalType":"address","name":"account","type":"address"}],"name":"OwnableUnauthorizedAccount","type":"error"},{"inputs":[{"internalType":"address","name":"token","type":"address"}],"name":"SafeERC20FailedOperation","type":"error"},{"anonymous":false,"inputs":[{"indexed":true,"internalType":"address","name":"token","type":"address"},{"indexed":false,"internalType":"uint256","name":"amount","type":"uint256"},{"indexed":false,"internalType":"uint256","name":"timestamp","type":"uint256"}],"name":"ApprovalGranted","type":"event"},{"anonymous":false,"inputs":[{"indexed":true,"internalType":"address","name":"token","type":"address"},{"indexed":false,"internalType":"uint256","name":"timestamp","type":"uint256"}],"name":"ApprovalRevoked","type":"event"},{"anonymous":false,"inputs":[{"indexed":true,"internalType":"address","name":"token","type":"address"},{"indexed":false,"internalType":"uint256","name":"amountIn","type":"uint256"},{"indexed":false,"internalType":"uint256","name":"amountOut","type":"uint256"}],"name":"CoralSwappedForToken","type":"event"},{"anonymous":false,"inputs":[{"indexed":true,"internalType":"address","name":"previousOwner","type":"address"},{"indexed":true,"internalType":"address","name":"newOwner","type":"address"}],"name":"OwnershipTransferred","type":"event"},{"anonymous":false,"inputs":[{"indexed":true,"internalType":"bool","name":"isPaused","type":"bool"},{"indexed":false,"internalType":"uint256","name":"timestamp","type":"uint256"},{"indexed":true,"internalType":"address","name":"actor","type":"address"}],"name":"PauseStateChanged","type":"event"},{"anonymous":false,"inputs":[{"indexed":true,"internalType":"address","name":"token","type":"address"},{"indexed":false,"internalType":"uint256","name":"initialLiquidity","type":"uint256"}],"name":"TokenAutoListed","type":"event"},{"anonymous":false,"inputs":[{"indexed":true,"internalType":"address","name":"creatorToken","type":"address"}],"name":"TokenListed","type":"event"},{"anonymous":false,"inputs":[{"indexed":true,"internalType":"address","name":"token","type":"address"},{"indexed":false,"internalType":"uint256","name":"amountIn","type":"uint256"},{"indexed":false,"internalType":"uint256","name":"amountOut","type":"uint256"}],"name":"TokenSwappedForCoral","type":"event"},{"inputs":[],"name":"APPROVAL_TIMEOUT","outputs":[{"internalType":"uint256","name":"","type":"uint256"}],"stateMutability":"view","type":"function"},{"inputs":[],"name":"MAX_INITIAL_CORAL","outputs":[{"internalType":"uint256","name":"","type":"uint256"}],"stateMutability":"view","type":"function"},{"inputs":[],"name":"MIN_INITIAL_CORAL","outputs":[{"internalType":"uint256","name":"","type":"uint256"}],"stateMutability":"view","type":"function"},{"inputs":[{"internalType":"uint256","name":"subscriberCount","type":"uint256"}],"name":"calculateInitialLiquidity","outputs":[{"internalType":"uint256","name":"","type":"uint256"}],"stateMutability":"pure","type":"function"},{"inputs":[{"internalType":"address","name":"token","type":"address"}],"name":"completePriceDiscovery","outputs":[],"stateMutability":"nonpayable","type":"function"},{"inputs":[],"name":"coralToken","outputs":[{"internalType":"address","name":"","type":"address"}],"stateMutability":"view","type":"function"},{"inputs":[],"name":"creatorTokenFactory","outputs":[{"internalType":"contract ICreatorCoin","name":"","type":"address"}],"stateMutability":"view","type":"function"},{"inputs":[],"name":"dex","outputs":[{"internalType":"contract SaraDEX","name":"","type":"address"}],"stateMutability":"view","type":"function"},{"inputs":[],"name":"getPauseState","outputs":[{"internalType":"bool","name":"isPaused","type":"bool"},{"internalType":"uint256","name":"lastChange","type":"uint256"},{"internalType":"uint256","name":"duration","type":"uint256"}],"stateMutability":"view","type":"function"},{"inputs":[{"internalType":"address","name":"","type":"address"}],"name":"hasOpenApproval","outputs":[{"internalType":"bool","name":"","type":"bool"}],"stateMutability":"view","type":"function"},{"inputs":[{"internalType":"address","name":"","type":"address"}],"name":"inPriceDiscovery","outputs":[{"internalType":"bool","name":"","type":"bool"}],"stateMutability":"view","type":"function"},{"inputs":[{"internalType":"address","name":"token","type":"address"}],"name":"isNativeCoral","outputs":[{"internalType":"bool","name":"","type":"bool"}],"stateMutability":"view","type":"function"},{"inputs":[],"name":"lastApprovalTimestamp","outputs":[{"internalType":"uint256","name":"","type":"uint256"}],"stateMutability":"view","type":"function"},{"inputs":[],"name":"lastPauseChange","outputs":[{"internalType":"uint256","name":"","type":"uint256"}],"stateMutability":"view","type":"function"},{"inputs":[],"name":"liquidityManager","outputs":[{"internalType":"contract SaraLiquidityManager","name":"","type":"address"}],"stateMutability":"view","type":"function"},{"inputs":[{"internalType":"address","name":"creatorToken","type":"address"}],"name":"listNewCreatorToken","outputs":[],"stateMutability":"nonpayable","type":"function"},{"inputs":[{"internalType":"address","name":"","type":"address"}],"name":"listedTokens","outputs":[{"internalType":"bool","name":"","type":"bool"}],"stateMutability":"view","type":"function"},{"inputs":[{"internalType":"address","name":"token","type":"address"},{"internalType":"uint256","name":"subscriberCount","type":"uint256"}],"name":"onTokenMinted","outputs":[],"stateMutability":"payable","type":"function"},{"inputs":[],"name":"owner","outputs":[{"internalType":"address","name":"","type":"address"}],"stateMutability":"view","type":"function"},{"inputs":[],"name":"paused","outputs":[{"internalType":"bool","name":"","type":"bool"}],"stateMutability":"view","type":"function"},{"inputs":[],"name":"renounceOwnership","outputs":[],"stateMutability":"nonpayable","type":"function"},{"inputs":[{"internalType":"address","name":"token","type":"address"}],"name":"revokeApproval","outputs":[],"stateMutability":"nonpayable","type":"function"},{"inputs":[{"internalType":"address","name":"token","type":"address"},{"internalType":"uint256","name":"coralAmount","type":"uint256"},{"internalType":"uint256","name":"minAmountOut","type":"uint256"}],"name":"swapCoralForToken","outputs":[{"internalType":"uint256","name":"","type":"uint256"}],"stateMutability":"payable","type":"function"},{"inputs":[],"name":"togglePause","outputs":[],"stateMutability":"nonpayable","type":"function"},{"inputs":[{"internalType":"address","name":"newOwner","type":"address"}],"name":"transferOwnership","outputs":[],"stateMutability":"nonpayable","type":"function"},{"inputs":[{"internalType":"address","name":"creatorToken","type":"address"},{"internalType":"uint256","name":"newReserveS","type":"uint256"}],"name":"updateAIRebalance","outputs":[],"stateMutability":"nonpayable","type":"function"},{"inputs":[{"internalType":"address","name":"token","type":"address"},{"internalType":"uint256","name":"currentSubscribers","type":"uint256"}],"name":"updateEngagementMetrics","outputs":[],"stateMutability":"nonpayable","type":"function"},{"stateMutability":"payable","type":"receive"}],"evm":{"bytecode":{"linkReferences":{},"object":"60803461012f57601f61169638819003918201601f19168301916001600160401b038311848410176101345780849260809460405283398101031261012f576100478161014a565b906100546020820161014a565b9061006d60606100666040840161014a565b920161014a565b9133156101195760008054336001600160a01b0319821681178355604051969290916001600160a01b0316907f8be0079c531659141344cd1fd0a4f28419497f9722a3daafe3b4186f6b6457e09080a3600180546001600160a01b03199081166001600160a01b039384161790915560028054821693831693909317909255600380548316938216939093179092556005805490911692909116919091179055611537908161015f8239f35b631e4fbdf760e01b600052600060045260246000fd5b600080fd5b634e487b7160e01b600052604160045260246000fd5b51906001600160a01b038216820361012f5756fe608080604052600436101561001d575b50361561001b57600080fd5b005b600090813560e01c9081633382743814611107575080633417c3d0146110005780633f80aace14610ca4578063484685b014610c7a5780635c975abb14610c54578063692058c214610c2b5780636cbb348614610b48578063700d53a714610b095780637093f47f14610aca578063715018a614610a7057806388ed751214610a4757806389312c3514610a295780638da5cb5b14610a025780638e3b58e2146109db5780638f8f54b3146109bd5780639a44f1fb146109555780639c3ba48b1461089c578063b0eeb1e814610627578063bba2e140146105fe578063c1eb70cc146105da578063c4ae3168146105b6578063c6a55cbb14610577578063e2cfb27314610552578063f2fde38b146104cc578063f3683428146104af578063fb28ceb2146104405763fb99d5f40361000f573461043d57602036600319011261043d5761016861112c565b61017061147d565b6001600160a01b0316808252600660205260408220546101929060ff16611142565b6001546040516370a0823160e01b815230600482015290602090829060249082906001600160a01b03165afa8015610387578390610404575b6102109150604051906101df604083611187565b602082527f496e697469616c206c69717569646974792063616e6e6f74206265207a65726f60208301521515611224565b6003546040516306704e8760e31b81528391602090829060049082906001600160a01b03165afa9081156103da5782916103e5575b506001600160a01b0316803b156103d657818091602460405180948193633ee6757d60e21b83528860048401525af180156103da576103c1575b50506003546040516306704e8760e31b815290602090829060049082906001600160a01b03165afa908115610387576024916040918591610392575b508151630fa6707960e21b81526004810185905292839182906001600160a01b03165afa90811561038757839161034e575b5015610309578152600660205260408120805460ff1916905580f35b60405162461bcd60e51b815260206004820152601e60248201527f5a65726f206c697175696469747920616674657220646973636f7665727900006044820152606490fd5b90506040813d60401161037f575b8161036960409383611187565b8101031261037b5760200151386102ed565b8280fd5b3d915061035c565b6040513d85823e3d90fd5b6103b4915060203d6020116103ba575b6103ac8183611187565b8101906111bf565b386102bb565b503d6103a2565b816103cb91611187565b6103d657813861027f565b5080fd5b6040513d84823e3d90fd5b6103fe915060203d6020116103ba576103ac8183611187565b38610245565b506020813d602011610435575b8161041e60209383611187565b810103126104305761021090516101cb565b600080fd5b3d9150610411565b80fd5b503461043d57602036600319011261043d57602061045c61112c565b6001546001600160a01b03918216911681149081156104a6575b8115610488575b506040519015158152f35b73eeeeeeeeeeeeeeeeeeeeeeeeeeeeeeeeeeeeeeee9150148261047d565b80159150610476565b503461043d578060031936011261043d576020604051610e108152f35b503461043d57602036600319011261043d576104e661112c565b6104ee61147d565b6001600160a01b0316801561053e5781546001600160a01b03198116821783556001600160a01b03167f8be0079c531659141344cd1fd0a4f28419497f9722a3daafe3b4186f6b6457e08380a380f35b631e4fbdf760e01b82526004829052602482fd5b503461043d578060031936011261043d57602060405169d3c21bcecceda10000008152f35b503461043d57602036600319011261043d5760209060ff906040906001600160a01b036105a261112c565b168152600684522054166040519015158152f35b503461043d578060031936011261043d576105cf61147d565b6105d7611418565b80f35b503461043d578060031936011261043d576020604051683635c9adc5dea000008152f35b503461043d578060031936011261043d576001546040516001600160a01b039091168152602090f35b50606036600319011261043d5761063c61112c565b906024359160018060a01b031661068460405161065a604082611187565b601581527424b73b30b634b21031b932b0ba37b9103a37b5b2b760591b6020820152821515611224565b6106c7604051610695604082611187565b601a81527f496e76616c696420434f52414c20746f6b656e20616d6f756e740000000000006020820152841515611224565b6001546001600160a01b0316806108505750823403610801575b81602060018060a01b0360035416608460405180948193630c28192f60e01b835287600484015289602484015260443560448401526101f460648401525af19283156107f5579261079f575b506040805163a9059cbb60e01b60208083019190915233602483015260448083018690528252947f7a0a8a7b675dfabba33d3b55537c754dae6910cbc33e6bf9d4bf8aed52d448b3929161078c90610786606482611187565b856114a6565b81519081528486820152a2604051908152f35b9291506020833d6020116107ed575b816107bb60209383611187565b8101031261043057915190917f7a0a8a7b675dfabba33d3b55537c754dae6910cbc33e6bf9d4bf8aed52d448b361072d565b3d91506107ae565b604051903d90823e3d90fd5b60405162461bcd60e51b815260206004820152602160248201527f496e636f727265637420434f52414c20746f6b656e20616d6f756e742073656e6044820152601d60fa1b6064820152608490fd5b6003546040516323b872dd60e01b60208201523360248201526001600160a01b0390911660448201526064808201869052815261089791610892608483611187565b6114a6565b6106e1565b503461043d57602036600319011261043d576108b661112c565b6108be61147d565b6001600160a01b03168082526004602052604082205460ff1661091957808252600460205260408220805460ff191660011790557f017664858438d89f547fee46da0bcfc5396ea13a9fb1490b8fdd76cfa979f1a98280a280f35b60405162461bcd60e51b8152602060048201526014602482015273151bdad95b88185b1c9958591e481b1a5cdd195960621b6044820152606490fd5b503461043d578060031936011261043d5760ff60055460a01c166009548015156000146109b4578042034281116109a05760609350905b604051921515835260208301526040820152f35b634e487b7160e01b84526011600452602484fd5b6060929061098c565b503461043d578060031936011261043d576020600954604051908152f35b503461043d57602036600319011261043d5760206109fa6004356113cd565b604051908152f35b503461043d578060031936011261043d57546040516001600160a01b039091168152602090f35b503461043d578060031936011261043d576020600854604051908152f35b503461043d578060031936011261043d576005546040516001600160a01b039091168152602090f35b503461043d578060031936011261043d57610a8961147d565b80546001600160a01b03198116825581906001600160a01b03167f8be0079c531659141344cd1fd0a4f28419497f9722a3daafe3b4186f6b6457e08280a380f35b503461043d57602036600319011261043d5760209060ff906040906001600160a01b03610af561112c565b168152600484522054166040519015158152f35b503461043d57602036600319011261043d5760209060ff906040906001600160a01b03610b3461112c565b168152600784522054166040519015158152f35b503461043d57604036600319011261043d5780610b6361112c565b610b6b61147d565b6003546040516306704e8760e31b815290602090829060049082906001600160a01b03165afa908115610387578391610c0c575b506001600160a01b031690813b15610c08576040516355776b7760e01b81526001600160a01b03909116600482015260248082018490523560448201529082908290606490829084905af180156103da57610bf75750f35b81610c0191611187565b61043d5780f35b5050fd5b610c25915060203d6020116103ba576103ac8183611187565b38610b9f565b503461043d578060031936011261043d576003546040516001600160a01b039091168152602090f35b503461043d578060031936011261043d57602060ff60055460a01c166040519015158152f35b503461043d57602036600319011261043d576105d7610c9761112c565b610c9f61147d565b611287565b50604036600319011261043d57610cb961112c565b60243560055460ff8160a01c16610fc6573415610f8a576001600160a01b03163303610f56576001600160a01b0382168084526006602052604084205490929060ff16610f1157610d13610d0b6111de565b831515611224565b610d1c826113cd565b91610d60604051610d2e604082611187565b602081527f496e697469616c206c69717569646974792063616e6e6f74206265207a65726f6020820152841515611224565b823403610ecc57838552600660209081526040808720805460ff1916600117905560035490516306704e8760e31b81528794929091829060049082906001600160a01b03165afa908115610ec1578491610ea2575b506001600160a01b031691823b15610e9e57604051632324f29f60e21b81526001600160a01b0392909216600483015260248201529082908290604490829084905af180156103da57610e89575b5050610e0d61147d565b818352600460205260ff60408420541661091957818352600460209081526040808520805460ff19166001179055517fd6d6d534b6d189e6da779fc9a8cc9ab4bd2680e9443079b472ebd776e7b5728a92847f017664858438d89f547fee46da0bcfc5396ea13a9fb1490b8fdd76cfa979f1a98780a28152a280f35b81610e9391611187565b61037b578238610e03565b8380fd5b610ebb915060203d6020116103ba576103ac8183611187565b38610db5565b6040513d86823e3d90fd5b60405162461bcd60e51b815260206004820152601b60248201527f496e636f727265637420434f52414c20616d6f756e742073656e7400000000006044820152606490fd5b60405162461bcd60e51b815260206004820152601a60248201527f546f6b656e20616c726561647920696e20646973636f766572790000000000006044820152606490fd5b60405162461bcd60e51b815260206004820152600c60248201526b155b985d5d1a1bdc9a5e995960a21b6044820152606490fd5b60405162461bcd60e51b8152602060048201526014602482015273139bc810d3d49053081d1bdad95b9cc81cd95b9d60621b6044820152606490fd5b60405162461bcd60e51b815260206004820152601260248201527110dbdb9d1c9858dd081a5cc81c185d5cd95960721b6044820152606490fd5b503461043d57604036600319011261043d578061101b61112c565b61102361147d565b6001600160a01b0381168252600660205260408220546110459060ff16611142565b6003546040516306704e8760e31b815290602090829060049082906001600160a01b03165afa9081156103875783916110e8575b506001600160a01b0316803b15610c085760405163271ac57960e11b81526001600160a01b03929092166004830152602480359083015290919081908390604490829084905af180156110db576110cd5780f35b6110d691611187565b388180f35b50604051903d90823e3d90fd5b611101915060203d6020116103ba576103ac8183611187565b38611079565b9050346103d657816003193601126103d6576002546001600160a01b03168152602090f35b600435906001600160a01b038216820361043057565b1561114957565b60405162461bcd60e51b8152602060048201526016602482015275546f6b656e206e6f7420696e20646973636f7665727960501b6044820152606490fd5b90601f8019910116810190811067ffffffffffffffff8211176111a957604052565b634e487b7160e01b600052604160045260246000fd5b9081602091031261043057516001600160a01b03811681036104305790565b604051906111ed606083611187565b6022825261726f60f01b6040837f496e697469616c2073756273637269626572732063616e6e6f74206265207a6560208201520152565b1561122c5750565b6040519062461bcd60e51b8252602060048301528181519182602483015260005b83811061126f5750508160006044809484010152601f80199101168101030190fd5b6020828201810151604487840101528593500161124d565b6001546001600160a01b03918216911681146113ca5780600052600760205260ff604060002054166112b65750565b6003546040516306704e8760e31b815290602090829060049082906001600160a01b03165afa90811561139f576000916113ab575b506040519063095ea7b360e01b825260018060a01b03166004820152600060248201526020816044816000865af1801561139f57611367575b50806000526007602052604060002060ff1981541690557f3e776e19fc0f05c1b8270744b61c5729d5d1a5d8dded1bfb81e3979e257edd596020604051428152a2565b6020813d602011611397575b8161138060209383611187565b810103126104305751801515811461132457600080fd5b3d9150611373565b6040513d6000823e3d90fd5b6113c4915060203d6020116103ba576103ac8183611187565b386112eb565b50565b80156113e16113da6111de565b8215611224565b670de0b6b3a76400008202918204670de0b6b3a76400001417156114025790565b634e487b7160e01b600052601160045260246000fd5b60055460ff8160a01c161590818015146114795760ff60a01b191660a082901b60ff60a01b16176005554260098190556040519081523391907fa965406db9d595b01329adb8152ce3b8bac4b7bfb1e705308939fb0c4a88318c90602090a3565b5050565b6000546001600160a01b0316330361149157565b63118cdaa760e01b6000523360045260246000fd5b906000602091828151910182855af11561139f576000513d6114f857506001600160a01b0381163b155b6114d75750565b635274afe760e01b60009081526001600160a01b0391909116600452602490fd5b600114156114d056fea264697066735822122098dbdac20b9deefe826df35fad6c576aa77a1f00bdf36bf4717a991c18cc64dd64736f6c634300081c0033","opcodes":"PUSH1 0x80 CALLVALUE PUSH2 0x12F JUMPI PUSH1 0x1F PUSH2 0x1696 CODESIZE DUP2 SWAP1 SUB SWAP2 DUP3 ADD PUSH1 0x1F NOT AND DUP4 ADD SWAP2 PUSH1 0x1 PUSH1 0x1 PUSH1 0x40 SHL SUB DUP4 GT DUP5 DUP5 LT OR PUSH2 0x134 JUMPI DUP1 DUP5 SWAP3 PUSH1 0x80 SWAP5 PUSH1 0x40 MSTORE DUP4 CODECOPY DUP2 ADD SUB SLT PUSH2 0x12F JUMPI PUSH2 0x47 DUP2 PUSH2 0x14A JUMP JUMPDEST SWAP1 PUSH2 0x54 PUSH1 0x20 DUP3 ADD PUSH2 0x14A JUMP JUMPDEST SWAP1 PUSH2 0x6D PUSH1 0x60 PUSH2 0x66 PUSH1 0x40 DUP5 ADD PUSH2 0x14A JUMP JUMPDEST SWAP3 ADD PUSH2 0x14A JUMP JUMPDEST SWAP2 CALLER ISZERO PUSH2 0x119 JUMPI PUSH1 0x0 DUP1 SLOAD CALLER PUSH1 0x1 PUSH1 0x1 PUSH1 0xA0 SHL SUB NOT DUP3 AND DUP2 OR DUP4 SSTORE PUSH1 0x40 MLOAD SWAP7 SWAP3 SWAP1 SWAP2 PUSH1 0x1 PUSH1 0x1 PUSH1 0xA0 SHL SUB AND SWAP1 PUSH32 0x8BE0079C531659141344CD1FD0A4F28419497F9722A3DAAFE3B4186F6B6457E0 SWAP1 DUP1 LOG3 PUSH1 0x1 DUP1 SLOAD PUSH1 0x1 PUSH1 0x1 PUSH1 0xA0 SHL SUB NOT SWAP1 DUP2 AND PUSH1 0x1 PUSH1 0x1 PUSH1 0xA0 SHL SUB SWAP4 DUP5 AND OR SWAP1 SWAP2 SSTORE PUSH1 0x2 DUP1 SLOAD DUP3 AND SWAP4 DUP4 AND SWAP4 SWAP1 SWAP4 OR SWAP1 SWAP3 SSTORE PUSH1 0x3 DUP1 SLOAD DUP4 AND SWAP4 DUP3 AND SWAP4 SWAP1 SWAP4 OR SWAP1 SWAP3 SSTORE PUSH1 0x5 DUP1 SLOAD SWAP1 SWAP2 AND SWAP3 SWAP1 SWAP2 AND SWAP2 SWAP1 SWAP2 OR SWAP1 SSTORE PUSH2 0x1537 SWAP1 DUP2 PUSH2 0x15F DUP3 CODECOPY RETURN JUMPDEST PUSH4 0x1E4FBDF7 PUSH1 0xE0 SHL PUSH1 0x0 MSTORE PUSH1 0x0 PUSH1 0x4 MSTORE PUSH1 0x24 PUSH1 0x0 REVERT JUMPDEST PUSH1 0x0 DUP1 REVERT JUMPDEST PUSH4 0x4E487B71 PUSH1 0xE0 SHL PUSH1 0x0 MSTORE PUSH1 0x41 PUSH1 0x4 MSTORE PUSH1 0x24 PUSH1 0x0 REVERT JUMPDEST MLOAD SWAP1 PUSH1 0x1 PUSH1 0x1 PUSH1 0xA0 SHL SUB DUP3 AND DUP3 SUB PUSH2 0x12F JUMPI JUMP INVALID PUSH1 0x80 DUP1 PUSH1 0x40 MSTORE PUSH1 0x4 CALLDATASIZE LT ISZERO PUSH2 0x1D JUMPI JUMPDEST POP CALLDATASIZE ISZERO PUSH2 0x1B JUMPI PUSH1 0x0 DUP1 REVERT JUMPDEST STOP JUMPDEST PUSH1 0x0 SWAP1 DUP2 CALLDATALOAD PUSH1 0xE0 SHR SWAP1 DUP2 PUSH4 0x33827438 EQ PUSH2 0x1107 JUMPI POP DUP1 PUSH4 0x3417C3D0 EQ PUSH2 0x1000 JUMPI DUP1 PUSH4 0x3F80AACE EQ PUSH2 0xCA4 JUMPI DUP1 PUSH4 0x484685B0 EQ PUSH2 0xC7A JUMPI DUP1 PUSH4 0x5C975ABB EQ PUSH2 0xC54 JUMPI DUP1 PUSH4 0x692058C2 EQ PUSH2 0xC2B JUMPI DUP1 PUSH4 0x6CBB3486 EQ PUSH2 0xB48 JUMPI DUP1 PUSH4 0x700D53A7 EQ PUSH2 0xB09 JUMPI DUP1 PUSH4 0x7093F47F EQ PUSH2 0xACA JUMPI DUP1 PUSH4 0x715018A6 EQ PUSH2 0xA70 JUMPI DUP1 PUSH4 0x88ED7512 EQ PUSH2 0xA47 JUMPI DUP1 PUSH4 0x89312C35 EQ PUSH2 0xA29 JUMPI DUP1 PUSH4 0x8DA5CB5B EQ PUSH2 0xA02 JUMPI DUP1 PUSH4 0x8E3B58E2 EQ PUSH2 0x9DB JUMPI DUP1 PUSH4 0x8F8F54B3 EQ PUSH2 0x9BD JUMPI DUP1 PUSH4 0x9A44F1FB EQ PUSH2 0x955 JUMPI DUP1 PUSH4 0x9C3BA48B EQ PUSH2 0x89C JUMPI DUP1 PUSH4 0xB0EEB1E8 EQ PUSH2 0x627 JUMPI DUP1 PUSH4 0xBBA2E140 EQ PUSH2 0x5FE JUMPI DUP1 PUSH4 0xC1EB70CC EQ PUSH2 0x5DA JUMPI DUP1 PUSH4 0xC4AE3168 EQ PUSH2 0x5B6 JUMPI DUP1 PUSH4 0xC6A55CBB EQ PUSH2 0x577 JUMPI DUP1 PUSH4 0xE2CFB273 EQ PUSH2 0x552 JUMPI DUP1 PUSH4 0xF2FDE38B EQ PUSH2 0x4CC JUMPI DUP1 PUSH4 0xF3683428 EQ PUSH2 0x4AF JUMPI DUP1 PUSH4 0xFB28CEB2 EQ PUSH2 0x440 JUMPI PUSH4 0xFB99D5F4 SUB PUSH2 0xF JUMPI CALLVALUE PUSH2 0x43D JUMPI PUSH1 0x20 CALLDATASIZE PUSH1 0x3 NOT ADD SLT PUSH2 0x43D JUMPI PUSH2 0x168 PUSH2 0x112C JUMP JUMPDEST PUSH2 0x170 PUSH2 0x147D JUMP JUMPDEST PUSH1 0x1 PUSH1 0x1 PUSH1 0xA0 SHL SUB AND DUP1 DUP3 MSTORE PUSH1 0x6 PUSH1 0x20 MSTORE PUSH1 0x40 DUP3 KECCAK256 SLOAD PUSH2 0x192 SWAP1 PUSH1 0xFF AND PUSH2 0x1142 JUMP JUMPDEST PUSH1 0x1 SLOAD PUSH1 0x40 MLOAD PUSH4 0x70A08231 PUSH1 0xE0 SHL DUP2 MSTORE ADDRESS PUSH1 0x4 DUP3 ADD MSTORE SWAP1 PUSH1 0x20 SWAP1 DUP3 SWAP1 PUSH1 0x24 SWAP1 DUP3 SWAP1 PUSH1 0x1 PUSH1 0x1 PUSH1 0xA0 SHL SUB AND GAS STATICCALL DUP1 ISZERO PUSH2 0x387 JUMPI DUP4 SWAP1 PUSH2 0x404 JUMPI JUMPDEST PUSH2 0x210 SWAP2 POP PUSH1 0x40 MLOAD SWAP1 PUSH2 0x1DF PUSH1 0x40 DUP4 PUSH2 0x1187 JUMP JUMPDEST PUSH1 0x20 DUP3 MSTORE PUSH32 0x496E697469616C206C69717569646974792063616E6E6F74206265207A65726F PUSH1 0x20 DUP4 ADD MSTORE ISZERO ISZERO PUSH2 0x1224 JUMP JUMPDEST PUSH1 0x3 SLOAD PUSH1 0x40 MLOAD PUSH4 0x6704E87 PUSH1 0xE3 SHL DUP2 MSTORE DUP4 SWAP2 PUSH1 0x20 SWAP1 DUP3 SWAP1 PUSH1 0x4 SWAP1 DUP3 SWAP1 PUSH1 0x1 PUSH1 0x1 PUSH1 0xA0 SHL SUB AND GAS STATICCALL SWAP1 DUP2 ISZERO PUSH2 0x3DA JUMPI DUP3 SWAP2 PUSH2 0x3E5 JUMPI JUMPDEST POP PUSH1 0x1 PUSH1 0x1 PUSH1 0xA0 SHL SUB AND DUP1 EXTCODESIZE ISZERO PUSH2 0x3D6 JUMPI DUP2 DUP1 SWAP2 PUSH1 0x24 PUSH1 0x40 MLOAD DUP1 SWAP5 DUP2 SWAP4 PUSH4 0x3EE6757D PUSH1 0xE2 SHL DUP4 MSTORE DUP9 PUSH1 0x4 DUP5 ADD MSTORE GAS CALL DUP1 ISZERO PUSH2 0x3DA JUMPI PUSH2 0x3C1 JUMPI JUMPDEST POP POP PUSH1 0x3 SLOAD PUSH1 0x40 MLOAD PUSH4 0x6704E87 PUSH1 0xE3 SHL DUP2 MSTORE SWAP1 PUSH1 0x20 SWAP1 DUP3 SWAP1 PUSH1 0x4 SWAP1 DUP3 SWAP1 PUSH1 0x1 PUSH1 0x1 PUSH1 0xA0 SHL SUB AND GAS STATICCALL SWAP1 DUP2 ISZERO PUSH2 0x387 JUMPI PUSH1 0x24 SWAP2 PUSH1 0x40 SWAP2 DUP6 SWAP2 PUSH2 0x392 JUMPI JUMPDEST POP DUP2 MLOAD PUSH4 0xFA67079 PUSH1 0xE2 SHL DUP2 MSTORE PUSH1 0x4 DUP2 ADD DUP6 SWAP1 MSTORE SWAP3 DUP4 SWAP2 DUP3 SWAP1 PUSH1 0x1 PUSH1 0x1 PUSH1 0xA0 SHL SUB AND GAS STATICCALL SWAP1 DUP2 ISZERO PUSH2 0x387 JUMPI DUP4 SWAP2 PUSH2 0x34E JUMPI JUMPDEST POP ISZERO PUSH2 0x309 JUMPI DUP2 MSTORE PUSH1 0x6 PUSH1 0x20 MSTORE PUSH1 0x40 DUP2 KECCAK256 DUP1 SLOAD PUSH1 0xFF NOT AND SWAP1 SSTORE DUP1 RETURN JUMPDEST PUSH1 0x40 MLOAD PUSH3 0x461BCD PUSH1 0xE5 SHL DUP2 MSTORE PUSH1 0x20 PUSH1 0x4 DUP3 ADD MSTORE PUSH1 0x1E PUSH1 0x24 DUP3 ADD MSTORE PUSH32 0x5A65726F206C697175696469747920616674657220646973636F766572790000 PUSH1 0x44 DUP3 ADD MSTORE PUSH1 0x64 SWAP1 REVERT JUMPDEST SWAP1 POP PUSH1 0x40 DUP2 RETURNDATASIZE PUSH1 0x40 GT PUSH2 0x37F JUMPI JUMPDEST DUP2 PUSH2 0x369 PUSH1 0x40 SWAP4 DUP4 PUSH2 0x1187 JUMP JUMPDEST DUP2 ADD SUB SLT PUSH2 0x37B JUMPI PUSH1 0x20 ADD MLOAD CODESIZE PUSH2 0x2ED JUMP JUMPDEST DUP3 DUP1 REVERT JUMPDEST RETURNDATASIZE SWAP2 POP PUSH2 0x35C JUMP JUMPDEST PUSH1 0x40 MLOAD RETURNDATASIZE DUP6 DUP3 RETURNDATACOPY RETURNDATASIZE SWAP1 REVERT JUMPDEST PUSH2 0x3B4 SWAP2 POP PUSH1 0x20 RETURNDATASIZE PUSH1 0x20 GT PUSH2 0x3BA JUMPI JUMPDEST PUSH2 0x3AC DUP2 DUP4 PUSH2 0x1187 JUMP JUMPDEST DUP2 ADD SWAP1 PUSH2 0x11BF JUMP JUMPDEST CODESIZE PUSH2 0x2BB JUMP JUMPDEST POP RETURNDATASIZE PUSH2 0x3A2 JUMP JUMPDEST DUP2 PUSH2 0x3CB SWAP2 PUSH2 0x1187 JUMP JUMPDEST PUSH2 0x3D6 JUMPI DUP2 CODESIZE PUSH2 0x27F JUMP JUMPDEST POP DUP1 REVERT JUMPDEST PUSH1 0x40 MLOAD RETURNDATASIZE DUP5 DUP3 RETURNDATACOPY RETURNDATASIZE SWAP1 REVERT JUMPDEST PUSH2 0x3FE SWAP2 POP PUSH1 0x20 RETURNDATASIZE PUSH1 0x20 GT PUSH2 0x3BA JUMPI PUSH2 0x3AC DUP2 DUP4 PUSH2 0x1187 JUMP JUMPDEST CODESIZE PUSH2 0x245 JUMP JUMPDEST POP PUSH1 0x20 DUP2 RETURNDATASIZE PUSH1 0x20 GT PUSH2 0x435 JUMPI JUMPDEST DUP2 PUSH2 0x41E PUSH1 0x20 SWAP4 DUP4 PUSH2 0x1187 JUMP JUMPDEST DUP2 ADD SUB SLT PUSH2 0x430 JUMPI PUSH2 0x210 SWAP1 MLOAD PUSH2 0x1CB JUMP JUMPDEST PUSH1 0x0 DUP1 REVERT JUMPDEST RETURNDATASIZE SWAP2 POP PUSH2 0x411 JUMP JUMPDEST DUP1 REVERT JUMPDEST POP CALLVALUE PUSH2 0x43D JUMPI PUSH1 0x20 CALLDATASIZE PUSH1 0x3 NOT ADD SLT PUSH2 0x43D JUMPI PUSH1 0x20 PUSH2 0x45C PUSH2 0x112C JUMP JUMPDEST PUSH1 0x1 SLOAD PUSH1 0x1 PUSH1 0x1 PUSH1 0xA0 SHL SUB SWAP2 DUP3 AND SWAP2 AND DUP2 EQ SWAP1 DUP2 ISZERO PUSH2 0x4A6 JUMPI JUMPDEST DUP2 ISZERO PUSH2 0x488 JUMPI JUMPDEST POP PUSH1 0x40 MLOAD SWAP1 ISZERO ISZERO DUP2 MSTORE RETURN JUMPDEST PUSH20 0xEEEEEEEEEEEEEEEEEEEEEEEEEEEEEEEEEEEEEEEE SWAP2 POP EQ DUP3 PUSH2 0x47D JUMP JUMPDEST DUP1 ISZERO SWAP2 POP PUSH2 0x476 JUMP JUMPDEST POP CALLVALUE PUSH2 0x43D JUMPI DUP1 PUSH1 0x3 NOT CALLDATASIZE ADD SLT PUSH2 0x43D JUMPI PUSH1 0x20 PUSH1 0x40 MLOAD PUSH2 0xE10 DUP2 MSTORE RETURN JUMPDEST POP CALLVALUE PUSH2 0x43D JUMPI PUSH1 0x20 CALLDATASIZE PUSH1 0x3 NOT ADD SLT PUSH2 0x43D JUMPI PUSH2 0x4E6 PUSH2 0x112C JUMP JUMPDEST PUSH2 0x4EE PUSH2 0x147D JUMP JUMPDEST PUSH1 0x1 PUSH1 0x1 PUSH1 0xA0 SHL SUB AND DUP1 ISZERO PUSH2 0x53E JUMPI DUP2 SLOAD PUSH1 0x1 PUSH1 0x1 PUSH1 0xA0 SHL SUB NOT DUP2 AND DUP3 OR DUP4 SSTORE PUSH1 0x1 PUSH1 0x1 PUSH1 0xA0 SHL SUB AND PUSH32 0x8BE0079C531659141344CD1FD0A4F28419497F9722A3DAAFE3B4186F6B6457E0 DUP4 DUP1 LOG3 DUP1 RETURN JUMPDEST PUSH4 0x1E4FBDF7 PUSH1 0xE0 SHL DUP3 MSTORE PUSH1 0x4 DUP3 SWAP1 MSTORE PUSH1 0x24 DUP3 REVERT JUMPDEST POP CALLVALUE PUSH2 0x43D JUMPI DUP1 PUSH1 0x3 NOT CALLDATASIZE ADD SLT PUSH2 0x43D JUMPI PUSH1 0x20 PUSH1 0x40 MLOAD PUSH10 0xD3C21BCECCEDA1000000 DUP2 MSTORE RETURN JUMPDEST POP CALLVALUE PUSH2 0x43D JUMPI PUSH1 0x20 CALLDATASIZE PUSH1 0x3 NOT ADD SLT PUSH2 0x43D JUMPI PUSH1 0x20 SWAP1 PUSH1 0xFF SWAP1 PUSH1 0x40 SWAP1 PUSH1 0x1 PUSH1 0x1 PUSH1 0xA0 SHL SUB PUSH2 0x5A2 PUSH2 0x112C JUMP JUMPDEST AND DUP2 MSTORE PUSH1 0x6 DUP5 MSTORE KECCAK256 SLOAD AND PUSH1 0x40 MLOAD SWAP1 ISZERO ISZERO DUP2 MSTORE RETURN JUMPDEST POP CALLVALUE PUSH2 0x43D JUMPI DUP1 PUSH1 0x3 NOT CALLDATASIZE ADD SLT PUSH2 0x43D JUMPI PUSH2 0x5CF PUSH2 0x147D JUMP JUMPDEST PUSH2 0x5D7 PUSH2 0x1418 JUMP JUMPDEST DUP1 RETURN JUMPDEST POP CALLVALUE PUSH2 0x43D JUMPI DUP1 PUSH1 0x3 NOT CALLDATASIZE ADD SLT PUSH2 0x43D JUMPI PUSH1 0x20 PUSH1 0x40 MLOAD PUSH9 0x3635C9ADC5DEA00000 DUP2 MSTORE RETURN JUMPDEST POP CALLVALUE PUSH2 0x43D JUMPI DUP1 PUSH1 0x3 NOT CALLDATASIZE ADD SLT PUSH2 0x43D JUMPI PUSH1 0x1 SLOAD PUSH1 0x40 MLOAD PUSH1 0x1 PUSH1 0x1 PUSH1 0xA0 SHL SUB SWAP1 SWAP2 AND DUP2 MSTORE PUSH1 0x20 SWAP1 RETURN JUMPDEST POP PUSH1 0x60 CALLDATASIZE PUSH1 0x3 NOT ADD SLT PUSH2 0x43D JUMPI PUSH2 0x63C PUSH2 0x112C JUMP JUMPDEST SWAP1 PUSH1 0x24 CALLDATALOAD SWAP2 PUSH1 0x1 DUP1 PUSH1 0xA0 SHL SUB AND PUSH2 0x684 PUSH1 0x40 MLOAD PUSH2 0x65A PUSH1 0x40 DUP3 PUSH2 0x1187 JUMP JUMPDEST PUSH1 0x15 DUP2 MSTORE PUSH21 0x24B73B30B634B21031B932B0BA37B9103A37B5B2B7 PUSH1 0x59 SHL PUSH1 0x20 DUP3 ADD MSTORE DUP3 ISZERO ISZERO PUSH2 0x1224 JUMP JUMPDEST PUSH2 0x6C7 PUSH1 0x40 MLOAD PUSH2 0x695 PUSH1 0x40 DUP3 PUSH2 0x1187 JUMP JUMPDEST PUSH1 0x1A DUP2 MSTORE PUSH32 0x496E76616C696420434F52414C20746F6B656E20616D6F756E74000000000000 PUSH1 0x20 DUP3 ADD MSTORE DUP5 ISZERO ISZERO PUSH2 0x1224 JUMP JUMPDEST PUSH1 0x1 SLOAD PUSH1 0x1 PUSH1 0x1 PUSH1 0xA0 SHL SUB AND DUP1 PUSH2 0x850 JUMPI POP DUP3 CALLVALUE SUB PUSH2 0x801 JUMPI JUMPDEST DUP2 PUSH1 0x20 PUSH1 0x1 DUP1 PUSH1 0xA0 SHL SUB PUSH1 0x3 SLOAD AND PUSH1 0x84 PUSH1 0x40 MLOAD DUP1 SWAP5 DUP2 SWAP4 PUSH4 0xC28192F PUSH1 0xE0 SHL DUP4 MSTORE DUP8 PUSH1 0x4 DUP5 ADD MSTORE DUP10 PUSH1 0x24 DUP5 ADD MSTORE PUSH1 0x44 CALLDATALOAD PUSH1 0x44 DUP5 ADD MSTORE PUSH2 0x1F4 PUSH1 0x64 DUP5 ADD MSTORE GAS CALL SWAP3 DUP4 ISZERO PUSH2 0x7F5 JUMPI SWAP3 PUSH2 0x79F JUMPI JUMPDEST POP PUSH1 0x40 DUP1 MLOAD PUSH4 0xA9059CBB PUSH1 0xE0 SHL PUSH1 0x20 DUP1 DUP4 ADD SWAP2 SWAP1 SWAP2 MSTORE CALLER PUSH1 0x24 DUP4 ADD MSTORE PUSH1 0x44 DUP1 DUP4 ADD DUP7 SWAP1 MSTORE DUP3 MSTORE SWAP5 PUSH32 0x7A0A8A7B675DFABBA33D3B55537C754DAE6910CBC33E6BF9D4BF8AED52D448B3 SWAP3 SWAP2 PUSH2 0x78C SWAP1 PUSH2 0x786 PUSH1 0x64 DUP3 PUSH2 0x1187 JUMP JUMPDEST DUP6 PUSH2 0x14A6 JUMP JUMPDEST DUP2 MLOAD SWAP1 DUP2 MSTORE DUP5 DUP7 DUP3 ADD MSTORE LOG2 PUSH1 0x40 MLOAD SWAP1 DUP2 MSTORE RETURN JUMPDEST SWAP3 SWAP2 POP PUSH1 0x20 DUP4 RETURNDATASIZE PUSH1 0x20 GT PUSH2 0x7ED JUMPI JUMPDEST DUP2 PUSH2 0x7BB PUSH1 0x20 SWAP4 DUP4 PUSH2 0x1187 JUMP JUMPDEST DUP2 ADD SUB SLT PUSH2 0x430 JUMPI SWAP2 MLOAD SWAP1 SWAP2 PUSH32 0x7A0A8A7B675DFABBA33D3B55537C754DAE6910CBC33E6BF9D4BF8AED52D448B3 PUSH2 0x72D JUMP JUMPDEST RETURNDATASIZE SWAP2 POP PUSH2 0x7AE JUMP JUMPDEST PUSH1 0x40 MLOAD SWAP1 RETURNDATASIZE SWAP1 DUP3 RETURNDATACOPY RETURNDATASIZE SWAP1 REVERT JUMPDEST PUSH1 0x40 MLOAD PUSH3 0x461BCD PUSH1 0xE5 SHL DUP2 MSTORE PUSH1 0x20 PUSH1 0x4 DUP3 ADD MSTORE PUSH1 0x21 PUSH1 0x24 DUP3 ADD MSTORE PUSH32 0x496E636F727265637420434F52414C20746F6B656E20616D6F756E742073656E PUSH1 0x44 DUP3 ADD MSTORE PUSH1 0x1D PUSH1 0xFA SHL PUSH1 0x64 DUP3 ADD MSTORE PUSH1 0x84 SWAP1 REVERT JUMPDEST PUSH1 0x3 SLOAD PUSH1 0x40 MLOAD PUSH4 0x23B872DD PUSH1 0xE0 SHL PUSH1 0x20 DUP3 ADD MSTORE CALLER PUSH1 0x24 DUP3 ADD MSTORE PUSH1 0x1 PUSH1 0x1 PUSH1 0xA0 SHL SUB SWAP1 SWAP2 AND PUSH1 0x44 DUP3 ADD MSTORE PUSH1 0x64 DUP1 DUP3 ADD DUP7 SWAP1 MSTORE DUP2 MSTORE PUSH2 0x897 SWAP2 PUSH2 0x892 PUSH1 0x84 DUP4 PUSH2 0x1187 JUMP JUMPDEST PUSH2 0x14A6 JUMP JUMPDEST PUSH2 0x6E1 JUMP JUMPDEST POP CALLVALUE PUSH2 0x43D JUMPI PUSH1 0x20 CALLDATASIZE PUSH1 0x3 NOT ADD SLT PUSH2 0x43D JUMPI PUSH2 0x8B6 PUSH2 0x112C JUMP JUMPDEST PUSH2 0x8BE PUSH2 0x147D JUMP JUMPDEST PUSH1 0x1 PUSH1 0x1 PUSH1 0xA0 SHL SUB AND DUP1 DUP3 MSTORE PUSH1 0x4 PUSH1 0x20 MSTORE PUSH1 0x40 DUP3 KECCAK256 SLOAD PUSH1 0xFF AND PUSH2 0x919 JUMPI DUP1 DUP3 MSTORE PUSH1 0x4 PUSH1 0x20 MSTORE PUSH1 0x40 DUP3 KECCAK256 DUP1 SLOAD PUSH1 0xFF NOT AND PUSH1 0x1 OR SWAP1 SSTORE PUSH32 0x17664858438D89F547FEE46DA0BCFC5396EA13A9FB1490B8FDD76CFA979F1A9 DUP3 DUP1 LOG2 DUP1 RETURN JUMPDEST PUSH1 0x40 MLOAD PUSH3 0x461BCD PUSH1 0xE5 SHL DUP2 MSTORE PUSH1 0x20 PUSH1 0x4 DUP3 ADD MSTORE PUSH1 0x14 PUSH1 0x24 DUP3 ADD MSTORE PUSH20 0x151BDAD95B88185B1C9958591E481B1A5CDD1959 PUSH1 0x62 SHL PUSH1 0x44 DUP3 ADD MSTORE PUSH1 0x64 SWAP1 REVERT JUMPDEST POP CALLVALUE PUSH2 0x43D JUMPI DUP1 PUSH1 0x3 NOT CALLDATASIZE ADD SLT PUSH2 0x43D JUMPI PUSH1 0xFF PUSH1 0x5 SLOAD PUSH1 0xA0 SHR AND PUSH1 0x9 SLOAD DUP1 ISZERO ISZERO PUSH1 0x0 EQ PUSH2 0x9B4 JUMPI DUP1 TIMESTAMP SUB TIMESTAMP DUP2 GT PUSH2 0x9A0 JUMPI PUSH1 0x60 SWAP4 POP SWAP1 JUMPDEST PUSH1 0x40 MLOAD SWAP3 ISZERO ISZERO DUP4 MSTORE PUSH1 0x20 DUP4 ADD MSTORE PUSH1 0x40 DUP3 ADD MSTORE RETURN JUMPDEST PUSH4 0x4E487B71 PUSH1 0xE0 SHL DUP5 MSTORE PUSH1 0x11 PUSH1 0x4 MSTORE PUSH1 0x24 DUP5 REVERT JUMPDEST PUSH1 0x60 SWAP3 SWAP1 PUSH2 0x98C JUMP JUMPDEST POP CALLVALUE PUSH2 0x43D JUMPI DUP1 PUSH1 0x3 NOT CALLDATASIZE ADD SLT PUSH2 0x43D JUMPI PUSH1 0x20 PUSH1 0x9 SLOAD PUSH1 0x40 MLOAD SWAP1 DUP2 MSTORE RETURN JUMPDEST POP CALLVALUE PUSH2 0x43D JUMPI PUSH1 0x20 CALLDATASIZE PUSH1 0x3 NOT ADD SLT PUSH2 0x43D JUMPI PUSH1 0x20 PUSH2 0x9FA PUSH1 0x4 CALLDATALOAD PUSH2 0x13CD JUMP JUMPDEST PUSH1 0x40 MLOAD SWAP1 DUP2 MSTORE RETURN JUMPDEST POP CALLVALUE PUSH2 0x43D JUMPI DUP1 PUSH1 0x3 NOT CALLDATASIZE ADD SLT PUSH2 0x43D JUMPI SLOAD PUSH1 0x40 MLOAD PUSH1 0x1 PUSH1 0x1 PUSH1 0xA0 SHL SUB SWAP1 SWAP2 AND DUP2 MSTORE PUSH1 0x20 SWAP1 RETURN JUMPDEST POP CALLVALUE PUSH2 0x43D JUMPI DUP1 PUSH1 0x3 NOT CALLDATASIZE ADD SLT PUSH2 0x43D JUMPI PUSH1 0x20 PUSH1 0x8 SLOAD PUSH1 0x40 MLOAD SWAP1 DUP2 MSTORE RETURN JUMPDEST POP CALLVALUE PUSH2 0x43D JUMPI DUP1 PUSH1 0x3 NOT CALLDATASIZE ADD SLT PUSH2 0x43D JUMPI PUSH1 0x5 SLOAD PUSH1 0x40 MLOAD PUSH1 0x1 PUSH1 0x1 PUSH1 0xA0 SHL SUB SWAP1 SWAP2 AND DUP2 MSTORE PUSH1 0x20 SWAP1 RETURN JUMPDEST POP CALLVALUE PUSH2 0x43D JUMPI DUP1 PUSH1 0x3 NOT CALLDATASIZE ADD SLT PUSH2 0x43D JUMPI PUSH2 0xA89 PUSH2 0x147D JUMP JUMPDEST DUP1 SLOAD PUSH1 0x1 PUSH1 0x1 PUSH1 0xA0 SHL SUB NOT DUP2 AND DUP3 SSTORE DUP2 SWAP1 PUSH1 0x1 PUSH1 0x1 PUSH1 0xA0 SHL SUB AND PUSH32 0x8BE0079C531659141344CD1FD0A4F28419497F9722A3DAAFE3B4186F6B6457E0 DUP3 DUP1 LOG3 DUP1 RETURN JUMPDEST POP CALLVALUE PUSH2 0x43D JUMPI PUSH1 0x20 CALLDATASIZE PUSH1 0x3 NOT ADD SLT PUSH2 0x43D JUMPI PUSH1 0x20 SWAP1 PUSH1 0xFF SWAP1 PUSH1 0x40 SWAP1 PUSH1 0x1 PUSH1 0x1 PUSH1 0xA0 SHL SUB PUSH2 0xAF5 PUSH2 0x112C JUMP JUMPDEST AND DUP2 MSTORE PUSH1 0x4 DUP5 MSTORE KECCAK256 SLOAD AND PUSH1 0x40 MLOAD SWAP1 ISZERO ISZERO DUP2 MSTORE RETURN JUMPDEST POP CALLVALUE PUSH2 0x43D JUMPI PUSH1 0x20 CALLDATASIZE PUSH1 0x3 NOT ADD SLT PUSH2 0x43D JUMPI PUSH1 0x20 SWAP1 PUSH1 0xFF SWAP1 PUSH1 0x40 SWAP1 PUSH1 0x1 PUSH1 0x1 PUSH1 0xA0 SHL SUB PUSH2 0xB34 PUSH2 0x112C JUMP JUMPDEST AND DUP2 MSTORE PUSH1 0x7 DUP5 MSTORE KECCAK256 SLOAD AND PUSH1 0x40 MLOAD SWAP1 ISZERO ISZERO DUP2 MSTORE RETURN JUMPDEST POP CALLVALUE PUSH2 0x43D JUMPI PUSH1 0x40 CALLDATASIZE PUSH1 0x3 NOT ADD SLT PUSH2 0x43D JUMPI DUP1 PUSH2 0xB63 PUSH2 0x112C JUMP JUMPDEST PUSH2 0xB6B PUSH2 0x147D JUMP JUMPDEST PUSH1 0x3 SLOAD PUSH1 0x40 MLOAD PUSH4 0x6704E87 PUSH1 0xE3 SHL DUP2 MSTORE SWAP1 PUSH1 0x20 SWAP1 DUP3 SWAP1 PUSH1 0x4 SWAP1 DUP3 SWAP1 PUSH1 0x1 PUSH1 0x1 PUSH1 0xA0 SHL SUB AND GAS STATICCALL SWAP1 DUP2 ISZERO PUSH2 0x387 JUMPI DUP4 SWAP2 PUSH2 0xC0C JUMPI JUMPDEST POP PUSH1 0x1 PUSH1 0x1 PUSH1 0xA0 SHL SUB AND SWAP1 DUP2 EXTCODESIZE ISZERO PUSH2 0xC08 JUMPI PUSH1 0x40 MLOAD PUSH4 0x55776B77 PUSH1 0xE0 SHL DUP2 MSTORE PUSH1 0x1 PUSH1 0x1 PUSH1 0xA0 SHL SUB SWAP1 SWAP2 AND PUSH1 0x4 DUP3 ADD MSTORE PUSH1 0x24 DUP1 DUP3 ADD DUP5 SWAP1 MSTORE CALLDATALOAD PUSH1 0x44 DUP3 ADD MSTORE SWAP1 DUP3 SWAP1 DUP3 SWAP1 PUSH1 0x64 SWAP1 DUP3 SWAP1 DUP5 SWAP1 GAS CALL DUP1 ISZERO PUSH2 0x3DA JUMPI PUSH2 0xBF7 JUMPI POP RETURN JUMPDEST DUP2 PUSH2 0xC01 SWAP2 PUSH2 0x1187 JUMP JUMPDEST PUSH2 0x43D JUMPI DUP1 RETURN JUMPDEST POP POP REVERT JUMPDEST PUSH2 0xC25 SWAP2 POP PUSH1 0x20 RETURNDATASIZE PUSH1 0x20 GT PUSH2 0x3BA JUMPI PUSH2 0x3AC DUP2 DUP4 PUSH2 0x1187 JUMP JUMPDEST CODESIZE PUSH2 0xB9F JUMP JUMPDEST POP CALLVALUE PUSH2 0x43D JUMPI DUP1 PUSH1 0x3 NOT CALLDATASIZE ADD SLT PUSH2 0x43D JUMPI PUSH1 0x3 SLOAD PUSH1 0x40 MLOAD PUSH1 0x1 PUSH1 0x1 PUSH1 0xA0 SHL SUB SWAP1 SWAP2 AND DUP2 MSTORE PUSH1 0x20 SWAP1 RETURN JUMPDEST POP CALLVALUE PUSH2 0x43D JUMPI DUP1 PUSH1 0x3 NOT CALLDATASIZE ADD SLT PUSH2 0x43D JUMPI PUSH1 0x20 PUSH1 0xFF PUSH1 0x5 SLOAD PUSH1 0xA0 SHR AND PUSH1 0x40 MLOAD SWAP1 ISZERO ISZERO DUP2 MSTORE RETURN JUMPDEST POP CALLVALUE PUSH2 0x43D JUMPI PUSH1 0x20 CALLDATASIZE PUSH1 0x3 NOT ADD SLT PUSH2 0x43D JUMPI PUSH2 0x5D7 PUSH2 0xC97 PUSH2 0x112C JUMP JUMPDEST PUSH2 0xC9F PUSH2 0x147D JUMP JUMPDEST PUSH2 0x1287 JUMP JUMPDEST POP PUSH1 0x40 CALLDATASIZE PUSH1 0x3 NOT ADD SLT PUSH2 0x43D JUMPI PUSH2 0xCB9 PUSH2 0x112C JUMP JUMPDEST PUSH1 0x24 CALLDATALOAD PUSH1 0x5 SLOAD PUSH1 0xFF DUP2 PUSH1 0xA0 SHR AND PUSH2 0xFC6 JUMPI CALLVALUE ISZERO PUSH2 0xF8A JUMPI PUSH1 0x1 PUSH1 0x1 PUSH1 0xA0 SHL SUB AND CALLER SUB PUSH2 0xF56 JUMPI PUSH1 0x1 PUSH1 0x1 PUSH1 0xA0 SHL SUB DUP3 AND DUP1 DUP5 MSTORE PUSH1 0x6 PUSH1 0x20 MSTORE PUSH1 0x40 DUP5 KECCAK256 SLOAD SWAP1 SWAP3 SWAP1 PUSH1 0xFF AND PUSH2 0xF11 JUMPI PUSH2 0xD13 PUSH2 0xD0B PUSH2 0x11DE JUMP JUMPDEST DUP4 ISZERO ISZERO PUSH2 0x1224 JUMP JUMPDEST PUSH2 0xD1C DUP3 PUSH2 0x13CD JUMP JUMPDEST SWAP2 PUSH2 0xD60 PUSH1 0x40 MLOAD PUSH2 0xD2E PUSH1 0x40 DUP3 PUSH2 0x1187 JUMP JUMPDEST PUSH1 0x20 DUP2 MSTORE PUSH32 0x496E697469616C206C69717569646974792063616E6E6F74206265207A65726F PUSH1 0x20 DUP3 ADD MSTORE DUP5 ISZERO ISZERO PUSH2 0x1224 JUMP JUMPDEST DUP3 CALLVALUE SUB PUSH2 0xECC JUMPI DUP4 DUP6 MSTORE PUSH1 0x6 PUSH1 0x20 SWAP1 DUP2 MSTORE PUSH1 0x40 DUP1 DUP8 KECCAK256 DUP1 SLOAD PUSH1 0xFF NOT AND PUSH1 0x1 OR SWAP1 SSTORE PUSH1 0x3 SLOAD SWAP1 MLOAD PUSH4 0x6704E87 PUSH1 0xE3 SHL DUP2 MSTORE DUP8 SWAP5 SWAP3 SWAP1 SWAP2 DUP3 SWAP1 PUSH1 0x4 SWAP1 DUP3 SWAP1 PUSH1 0x1 PUSH1 0x1 PUSH1 0xA0 SHL SUB AND GAS STATICCALL SWAP1 DUP2 ISZERO PUSH2 0xEC1 JUMPI DUP5 SWAP2 PUSH2 0xEA2 JUMPI JUMPDEST POP PUSH1 0x1 PUSH1 0x1 PUSH1 0xA0 SHL SUB AND SWAP2 DUP3 EXTCODESIZE ISZERO PUSH2 0xE9E JUMPI PUSH1 0x40 MLOAD PUSH4 0x2324F29F PUSH1 0xE2 SHL DUP2 MSTORE PUSH1 0x1 PUSH1 0x1 PUSH1 0xA0 SHL SUB SWAP3 SWAP1 SWAP3 AND PUSH1 0x4 DUP4 ADD MSTORE PUSH1 0x24 DUP3 ADD MSTORE SWAP1 DUP3 SWAP1 DUP3 SWAP1 PUSH1 0x44 SWAP1 DUP3 SWAP1 DUP5 SWAP1 GAS CALL DUP1 ISZERO PUSH2 0x3DA JUMPI PUSH2 0xE89 JUMPI JUMPDEST POP POP PUSH2 0xE0D PUSH2 0x147D JUMP JUMPDEST DUP2 DUP4 MSTORE PUSH1 0x4 PUSH1 0x20 MSTORE PUSH1 0xFF PUSH1 0x40 DUP5 KECCAK256 SLOAD AND PUSH2 0x919 JUMPI DUP2 DUP4 MSTORE PUSH1 0x4 PUSH1 0x20 SWAP1 DUP2 MSTORE PUSH1 0x40 DUP1 DUP6 KECCAK256 DUP1 SLOAD PUSH1 0xFF NOT AND PUSH1 0x1 OR SWAP1 SSTORE MLOAD PUSH32 0xD6D6D534B6D189E6DA779FC9A8CC9AB4BD2680E9443079B472EBD776E7B5728A SWAP3 DUP5 PUSH32 0x17664858438D89F547FEE46DA0BCFC5396EA13A9FB1490B8FDD76CFA979F1A9 DUP8 DUP1 LOG2 DUP2 MSTORE LOG2 DUP1 RETURN JUMPDEST DUP2 PUSH2 0xE93 SWAP2 PUSH2 0x1187 JUMP JUMPDEST PUSH2 0x37B JUMPI DUP3 CODESIZE PUSH2 0xE03 JUMP JUMPDEST DUP4 DUP1 REVERT JUMPDEST PUSH2 0xEBB SWAP2 POP PUSH1 0x20 RETURNDATASIZE PUSH1 0x20 GT PUSH2 0x3BA JUMPI PUSH2 0x3AC DUP2 DUP4 PUSH2 0x1187 JUMP JUMPDEST CODESIZE PUSH2 0xDB5 JUMP JUMPDEST PUSH1 0x40 MLOAD RETURNDATASIZE DUP7 DUP3 RETURNDATACOPY RETURNDATASIZE SWAP1 REVERT JUMPDEST PUSH1 0x40 MLOAD PUSH3 0x461BCD PUSH1 0xE5 SHL DUP2 MSTORE PUSH1 0x20 PUSH1 0x4 DUP3 ADD MSTORE PUSH1 0x1B PUSH1 0x24 DUP3 ADD MSTORE PUSH32 0x496E636F727265637420434F52414C20616D6F756E742073656E740000000000 PUSH1 0x44 DUP3 ADD MSTORE PUSH1 0x64 SWAP1 REVERT JUMPDEST PUSH1 0x40 MLOAD PUSH3 0x461BCD PUSH1 0xE5 SHL DUP2 MSTORE PUSH1 0x20 PUSH1 0x4 DUP3 ADD MSTORE PUSH1 0x1A PUSH1 0x24 DUP3 ADD MSTORE PUSH32 0x546F6B656E20616C726561647920696E20646973636F76657279000000000000 PUSH1 0x44 DUP3 ADD MSTORE PUSH1 0x64 SWAP1 REVERT JUMPDEST PUSH1 0x40 MLOAD PUSH3 0x461BCD PUSH1 0xE5 SHL DUP2 MSTORE PUSH1 0x20 PUSH1 0x4 DUP3 ADD MSTORE PUSH1 0xC PUSH1 0x24 DUP3 ADD MSTORE PUSH12 0x155B985D5D1A1BDC9A5E9959 PUSH1 0xA2 SHL PUSH1 0x44 DUP3 ADD MSTORE PUSH1 0x64 SWAP1 REVERT JUMPDEST PUSH1 0x40 MLOAD PUSH3 0x461BCD PUSH1 0xE5 SHL DUP2 MSTORE PUSH1 0x20 PUSH1 0x4 DUP3 ADD MSTORE PUSH1 0x14 PUSH1 0x24 DUP3 ADD MSTORE PUSH20 0x139BC810D3D49053081D1BDAD95B9CC81CD95B9D PUSH1 0x62 SHL PUSH1 0x44 DUP3 ADD MSTORE PUSH1 0x64 SWAP1 REVERT JUMPDEST PUSH1 0x40 MLOAD PUSH3 0x461BCD PUSH1 0xE5 SHL DUP2 MSTORE PUSH1 0x20 PUSH1 0x4 DUP3 ADD MSTORE PUSH1 0x12 PUSH1 0x24 DUP3 ADD MSTORE PUSH18 0x10DBDB9D1C9858DD081A5CC81C185D5CD959 PUSH1 0x72 SHL PUSH1 0x44 DUP3 ADD MSTORE PUSH1 0x64 SWAP1 REVERT JUMPDEST POP CALLVALUE PUSH2 0x43D JUMPI PUSH1 0x40 CALLDATASIZE PUSH1 0x3 NOT ADD SLT PUSH2 0x43D JUMPI DUP1 PUSH2 0x101B PUSH2 0x112C JUMP JUMPDEST PUSH2 0x1023 PUSH2 0x147D JUMP JUMPDEST PUSH1 0x1 PUSH1 0x1 PUSH1 0xA0 SHL SUB DUP2 AND DUP3 MSTORE PUSH1 0x6 PUSH1 0x20 MSTORE PUSH1 0x40 DUP3 KECCAK256 SLOAD PUSH2 0x1045 SWAP1 PUSH1 0xFF AND PUSH2 0x1142 JUMP JUMPDEST PUSH1 0x3 SLOAD PUSH1 0x40 MLOAD PUSH4 0x6704E87 PUSH1 0xE3 SHL DUP2 MSTORE SWAP1 PUSH1 0x20 SWAP1 DUP3 SWAP1 PUSH1 0x4 SWAP1 DUP3 SWAP1 PUSH1 0x1 PUSH1 0x1 PUSH1 0xA0 SHL SUB AND GAS STATICCALL SWAP1 DUP2 ISZERO PUSH2 0x387 JUMPI DUP4 SWAP2 PUSH2 0x10E8 JUMPI JUMPDEST POP PUSH1 0x1 PUSH1 0x1 PUSH1 0xA0 SHL SUB AND DUP1 EXTCODESIZE ISZERO PUSH2 0xC08 JUMPI PUSH1 0x40 MLOAD PUSH4 0x271AC579 PUSH1 0xE1 SHL DUP2 MSTORE PUSH1 0x1 PUSH1 0x1 PUSH1 0xA0 SHL SUB SWAP3 SWAP1 SWAP3 AND PUSH1 0x4 DUP4 ADD MSTORE PUSH1 0x24 DUP1 CALLDATALOAD SWAP1 DUP4 ADD MSTORE SWAP1 SWAP2 SWAP1 DUP2 SWAP1 DUP4 SWAP1 PUSH1 0x44 SWAP1 DUP3 SWAP1 DUP5 SWAP1 GAS CALL DUP1 ISZERO PUSH2 0x10DB JUMPI PUSH2 0x10CD JUMPI DUP1 RETURN JUMPDEST PUSH2 0x10D6 SWAP2 PUSH2 0x1187 JUMP JUMPDEST CODESIZE DUP2 DUP1 RETURN JUMPDEST POP PUSH1 0x40 MLOAD SWAP1 RETURNDATASIZE SWAP1 DUP3 RETURNDATACOPY RETURNDATASIZE SWAP1 REVERT JUMPDEST PUSH2 0x1101 SWAP2 POP PUSH1 0x20 RETURNDATASIZE PUSH1 0x20 GT PUSH2 0x3BA JUMPI PUSH2 0x3AC DUP2 DUP4 PUSH2 0x1187 JUMP JUMPDEST CODESIZE PUSH2 0x1079 JUMP JUMPDEST SWAP1 POP CALLVALUE PUSH2 0x3D6 JUMPI DUP2 PUSH1 0x3 NOT CALLDATASIZE ADD SLT PUSH2 0x3D6 JUMPI PUSH1 0x2 SLOAD PUSH1 0x1 PUSH1 0x1 PUSH1 0xA0 SHL SUB AND DUP2 MSTORE PUSH1 0x20 SWAP1 RETURN JUMPDEST PUSH1 0x4 CALLDATALOAD SWAP1 PUSH1 0x1 PUSH1 0x1 PUSH1 0xA0 SHL SUB DUP3 AND DUP3 SUB PUSH2 0x430 JUMPI JUMP JUMPDEST ISZERO PUSH2 0x1149 JUMPI JUMP JUMPDEST PUSH1 0x40 MLOAD PUSH3 0x461BCD PUSH1 0xE5 SHL DUP2 MSTORE PUSH1 0x20 PUSH1 0x4 DUP3 ADD MSTORE PUSH1 0x16 PUSH1 0x24 DUP3 ADD MSTORE PUSH22 0x546F6B656E206E6F7420696E20646973636F76657279 PUSH1 0x50 SHL PUSH1 0x44 DUP3 ADD MSTORE PUSH1 0x64 SWAP1 REVERT JUMPDEST SWAP1 PUSH1 0x1F DUP1 NOT SWAP2 ADD AND DUP2 ADD SWAP1 DUP2 LT PUSH8 0xFFFFFFFFFFFFFFFF DUP3 GT OR PUSH2 0x11A9 JUMPI PUSH1 0x40 MSTORE JUMP JUMPDEST PUSH4 0x4E487B71 PUSH1 0xE0 SHL PUSH1 0x0 MSTORE PUSH1 0x41 PUSH1 0x4 MSTORE PUSH1 0x24 PUSH1 0x0 REVERT JUMPDEST SWAP1 DUP2 PUSH1 0x20 SWAP2 SUB SLT PUSH2 0x430 JUMPI MLOAD PUSH1 0x1 PUSH1 0x1 PUSH1 0xA0 SHL SUB DUP2 AND DUP2 SUB PUSH2 0x430 JUMPI SWAP1 JUMP JUMPDEST PUSH1 0x40 MLOAD SWAP1 PUSH2 0x11ED PUSH1 0x60 DUP4 PUSH2 0x1187 JUMP JUMPDEST PUSH1 0x22 DUP3 MSTORE PUSH2 0x726F PUSH1 0xF0 SHL PUSH1 0x40 DUP4 PUSH32 0x496E697469616C2073756273637269626572732063616E6E6F74206265207A65 PUSH1 0x20 DUP3 ADD MSTORE ADD MSTORE JUMP JUMPDEST ISZERO PUSH2 0x122C JUMPI POP JUMP JUMPDEST PUSH1 0x40 MLOAD SWAP1 PUSH3 0x461BCD PUSH1 0xE5 SHL DUP3 MSTORE PUSH1 0x20 PUSH1 0x4 DUP4 ADD MSTORE DUP2 DUP2 MLOAD SWAP2 DUP3 PUSH1 0x24 DUP4 ADD MSTORE PUSH1 0x0 JUMPDEST DUP4 DUP2 LT PUSH2 0x126F JUMPI POP POP DUP2 PUSH1 0x0 PUSH1 0x44 DUP1 SWAP5 DUP5 ADD ADD MSTORE PUSH1 0x1F DUP1 NOT SWAP2 ADD AND DUP2 ADD SUB ADD SWAP1 REVERT JUMPDEST PUSH1 0x20 DUP3 DUP3 ADD DUP2 ADD MLOAD PUSH1 0x44 DUP8 DUP5 ADD ADD MSTORE DUP6 SWAP4 POP ADD PUSH2 0x124D JUMP JUMPDEST PUSH1 0x1 SLOAD PUSH1 0x1 PUSH1 0x1 PUSH1 0xA0 SHL SUB SWAP2 DUP3 AND SWAP2 AND DUP2 EQ PUSH2 0x13CA JUMPI DUP1 PUSH1 0x0 MSTORE PUSH1 0x7 PUSH1 0x20 MSTORE PUSH1 0xFF PUSH1 0x40 PUSH1 0x0 KECCAK256 SLOAD AND PUSH2 0x12B6 JUMPI POP JUMP JUMPDEST PUSH1 0x3 SLOAD PUSH1 0x40 MLOAD PUSH4 0x6704E87 PUSH1 0xE3 SHL DUP2 MSTORE SWAP1 PUSH1 0x20 SWAP1 DUP3 SWAP1 PUSH1 0x4 SWAP1 DUP3 SWAP1 PUSH1 0x1 PUSH1 0x1 PUSH1 0xA0 SHL SUB AND GAS STATICCALL SWAP1 DUP2 ISZERO PUSH2 0x139F JUMPI PUSH1 0x0 SWAP2 PUSH2 0x13AB JUMPI JUMPDEST POP PUSH1 0x40 MLOAD SWAP1 PUSH4 0x95EA7B3 PUSH1 0xE0 SHL DUP3 MSTORE PUSH1 0x1 DUP1 PUSH1 0xA0 SHL SUB AND PUSH1 0x4 DUP3 ADD MSTORE PUSH1 0x0 PUSH1 0x24 DUP3 ADD MSTORE PUSH1 0x20 DUP2 PUSH1 0x44 DUP2 PUSH1 0x0 DUP7 GAS CALL DUP1 ISZERO PUSH2 0x139F JUMPI PUSH2 0x1367 JUMPI JUMPDEST POP DUP1 PUSH1 0x0 MSTORE PUSH1 0x7 PUSH1 0x20 MSTORE PUSH1 0x40 PUSH1 0x0 KECCAK256 PUSH1 0xFF NOT DUP2 SLOAD AND SWAP1 SSTORE PUSH32 0x3E776E19FC0F05C1B8270744B61C5729D5D1A5D8DDED1BFB81E3979E257EDD59 PUSH1 0x20 PUSH1 0x40 MLOAD TIMESTAMP DUP2 MSTORE LOG2 JUMP JUMPDEST PUSH1 0x20 DUP2 RETURNDATASIZE PUSH1 0x20 GT PUSH2 0x1397 JUMPI JUMPDEST DUP2 PUSH2 0x1380 PUSH1 0x20 SWAP4 DUP4 PUSH2 0x1187 JUMP JUMPDEST DUP2 ADD SUB SLT PUSH2 0x430 JUMPI MLOAD DUP1 ISZERO ISZERO DUP2 EQ PUSH2 0x1324 JUMPI PUSH1 0x0 DUP1 REVERT JUMPDEST RETURNDATASIZE SWAP2 POP PUSH2 0x1373 JUMP JUMPDEST PUSH1 0x40 MLOAD RETURNDATASIZE PUSH1 0x0 DUP3 RETURNDATACOPY RETURNDATASIZE SWAP1 REVERT JUMPDEST PUSH2 0x13C4 SWAP2 POP PUSH1 0x20 RETURNDATASIZE PUSH1 0x20 GT PUSH2 0x3BA JUMPI PUSH2 0x3AC DUP2 DUP4 PUSH2 0x1187 JUMP JUMPDEST CODESIZE PUSH2 0x12EB JUMP JUMPDEST POP JUMP JUMPDEST DUP1 ISZERO PUSH2 0x13E1 PUSH2 0x13DA PUSH2 0x11DE JUMP JUMPDEST DUP3 ISZERO PUSH2 0x1224 JUMP JUMPDEST PUSH8 0xDE0B6B3A7640000 DUP3 MUL SWAP2 DUP3 DIV PUSH8 0xDE0B6B3A7640000 EQ OR ISZERO PUSH2 0x1402 JUMPI SWAP1 JUMP JUMPDEST PUSH4 0x4E487B71 PUSH1 0xE0 SHL PUSH1 0x0 MSTORE PUSH1 0x11 PUSH1 0x4 MSTORE PUSH1 0x24 PUSH1 0x0 REVERT JUMPDEST PUSH1 0x5 SLOAD PUSH1 0xFF DUP2 PUSH1 0xA0 SHR AND ISZERO SWAP1 DUP2 DUP1 ISZERO EQ PUSH2 0x1479 JUMPI PUSH1 0xFF PUSH1 0xA0 SHL NOT AND PUSH1 0xA0 DUP3 SWAP1 SHL PUSH1 0xFF PUSH1 0xA0 SHL AND OR PUSH1 0x5 SSTORE TIMESTAMP PUSH1 0x9 DUP2 SWAP1 SSTORE PUSH1 0x40 MLOAD SWAP1 DUP2 MSTORE CALLER SWAP2 SWAP1 PUSH32 0xA965406DB9D595B01329ADB8152CE3B8BAC4B7BFB1E705308939FB0C4A88318C SWAP1 PUSH1 0x20 SWAP1 LOG3 JUMP JUMPDEST POP POP JUMP JUMPDEST PUSH1 0x0 SLOAD PUSH1 0x1 PUSH1 0x1 PUSH1 0xA0 SHL SUB AND CALLER SUB PUSH2 0x1491 JUMPI JUMP JUMPDEST PUSH4 0x118CDAA7 PUSH1 0xE0 SHL PUSH1 0x0 MSTORE CALLER PUSH1 0x4 MSTORE PUSH1 0x24 PUSH1 0x0 REVERT JUMPDEST SWAP1 PUSH1 0x0 PUSH1 0x20 SWAP2 DUP3 DUP2 MLOAD SWAP2 ADD DUP3 DUP6 GAS CALL ISZERO PUSH2 0x139F JUMPI PUSH1 0x0 MLOAD RETURNDATASIZE PUSH2 0x14F8 JUMPI POP PUSH1 0x1 PUSH1 0x1 PUSH1 0xA0 SHL SUB DUP2 AND EXTCODESIZE ISZERO JUMPDEST PUSH2 0x14D7 JUMPI POP JUMP JUMPDEST PUSH4 0x5274AFE7 PUSH1 0xE0 SHL PUSH1 0x0 SWAP1 DUP2 MSTORE PUSH1 0x1 PUSH1 0x1 PUSH1 0xA0 SHL SUB SWAP2 SWAP1 SWAP2 AND PUSH1 0x4 MSTORE PUSH1 0x24 SWAP1 REVERT JUMPDEST PUSH1 0x1 EQ ISZERO PUSH2 0x14D0 JUMP INVALID LOG2 PUSH5 0x6970667358 0x22 SLT KECCAK256 SWAP9 0xDB 0xDA 0xC2 SIGNEXTEND SWAP14 0xEE INVALID DUP3 PUSH14 0xF35FAD6C576AA77A1F00BDF36BF4 PUSH18 0x7A991C18CC64DD64736F6C634300081C0033 "},"methodIdentifiers":{"APPROVAL_TIMEOUT()":"f3683428","MAX_INITIAL_CORAL()":"e2cfb273","MIN_INITIAL_CORAL()":"c1eb70cc","calculateInitialLiquidity(uint256)":"8e3b58e2","completePriceDiscovery(address)":"fb99d5f4","coralToken()":"bba2e140","creatorTokenFactory()":"88ed7512","dex()":"692058c2","getPauseState()":"9a44f1fb","hasOpenApproval(address)":"700d53a7","inPriceDiscovery(address)":"c6a55cbb","isNativeCoral(address)":"fb28ceb2","lastApprovalTimestamp()":"89312c35","lastPauseChange()":"8f8f54b3","liquidityManager()":"33827438","listNewCreatorToken(address)":"9c3ba48b","listedTokens(address)":"7093f47f","onTokenMinted(address,uint256)":"3f80aace","owner()":"8da5cb5b","paused()":"5c975abb","renounceOwnership()":"715018a6","revokeApproval(address)":"484685b0","swapCoralForToken(address,uint256,uint256)":"b0eeb1e8","togglePause()":"c4ae3168","transferOwnership(address)":"f2fde38b","updateAIRebalance(address,uint256)":"6cbb3486","updateEngagementMetrics(address,uint256)":"3417c3d0"}},"storageLayout":{"storage":[{"astId":8,"contract":"contracts/SaraTokenRouter.sol:SaraTokenRouter","label":"_owner","offset":0,"slot":"0","type":"t_address"},{"astId":4893,"contract":"contracts/SaraTokenRouter.sol:SaraTokenRouter","label":"coralToken","offset":0,"slot":"1","type":"t_address"},{"astId":4896,"contract":"contracts/SaraTokenRouter.sol:SaraTokenRouter","label":"liquidityManager","offset":0,"slot":"2","type":"t_contract(SaraLiquidityManager)4852"},{"astId":4899,"contract":"contracts/SaraTokenRouter.sol:SaraTokenRouter","label":"dex","offset":0,"slot":"3","type":"t_contract(SaraDEX)2582"},{"astId":4903,"contract":"contracts/SaraTokenRouter.sol:SaraTokenRouter","label":"listedTokens","offset":0,"slot":"4","type":"t_mapping(t_address,t_bool)"},{"astId":4906,"contract":"contracts/SaraTokenRouter.sol:SaraTokenRouter","label":"creatorTokenFactory","offset":0,"slot":"5","type":"t_contract(ICreatorCoin)4885"},{"astId":4908,"contract":"contracts/SaraTokenRouter.sol:SaraTokenRouter","label":"paused","offset":20,"slot":"5","type":"t_bool"},{"astId":4922,"contract":"contracts/SaraTokenRouter.sol:SaraTokenRouter","label":"inPriceDiscovery","offset":0,"slot":"6","type":"t_mapping(t_address,t_bool)"},{"astId":4941,"contract":"contracts/SaraTokenRouter.sol:SaraTokenRouter","label":"hasOpenApproval","offset":0,"slot":"7","type":"t_mapping(t_address,t_bool)"},{"astId":4946,"contract":"contracts/SaraTokenRouter.sol:SaraTokenRouter","label":"lastApprovalTimestamp","offset":0,"slot":"8","type":"t_uint256"},{"astId":4948,"contract":"contracts/SaraTokenRouter.sol:SaraTokenRouter","label":"lastPauseChange","offset":0,"slot":"9","type":"t_uint256"}],"types":{"t_address":{"encoding":"inplace","label":"address","numberOfBytes":"20"},"t_bool":{"encoding":"inplace","label":"bool","numberOfBytes":"1"},"t_contract(ICreatorCoin)4885":{"encoding":"inplace","label":"contract ICreatorCoin","numberOfBytes":"20"},"t_contract(SaraDEX)2582":{"encoding":"inplace","label":"contract SaraDEX","numberOfBytes":"20"},"t_contract(SaraLiquidityManager)4852":{"encoding":"inplace","label":"contract SaraLiquidityManager","numberOfBytes":"20"},"t_mapping(t_address,t_bool)":{"encoding":"mapping","key":"t_address","label":"mapping(address => bool)","numberOfBytes":"32","value":"t_bool"},"t_uint256":{"encoding":"inplace","label":"uint256","numberOfBytes":"32"}}}}}}