{"contracts/CreatorCoin.sol":{"CreatorToken":{"abi":[{"inputs":[],"stateMutability":"nonpayable","type":"constructor"},{"inputs":[{"internalType":"address","name":"target","type":"address"}],"name":"AddressEmptyCode","type":"error"},{"inputs":[{"internalType":"address","name":"implementation","type":"address"}],"name":"ERC1967InvalidImplementation","type":"error"},{"inputs":[],"name":"ERC1967NonPayable","type":"error"},{"inputs":[],"name":"FailedCall","type":"error"},{"inputs":[],"name":"InvalidInitialization","type":"error"},{"inputs":[],"name":"NotInitializing","type":"error"},{"inputs":[{"internalType":"address","name":"owner","type":"address"}],"name":"OwnableInvalidOwner","type":"error"},{"inputs":[{"internalType":"address","name":"account","type":"address"}],"name":"OwnableUnauthorizedAccount","type":"error"},{"inputs":[],"name":"UUPSUnauthorizedCallContext","type":"error"},{"inputs":[{"internalType":"bytes32","name":"slot","type":"bytes32"}],"name":"UUPSUnsupportedProxiableUUID","type":"error"},{"anonymous":false,"inputs":[{"indexed":true,"internalType":"address","name":"tokenAddress","type":"address"},{"indexed":false,"internalType":"string","name":"creatorName","type":"string"},{"indexed":false,"internalType":"string","name":"symbol","type":"string"},{"indexed":false,"internalType":"uint256","name":"supply","type":"uint256"},{"indexed":false,"internalType":"string","name":"milestone","type":"string"}],"name":"CreatorTokenMinted","type":"event"},{"anonymous":false,"inputs":[{"indexed":false,"internalType":"uint64","name":"version","type":"uint64"}],"name":"Initialized","type":"event"},{"anonymous":false,"inputs":[{"indexed":true,"internalType":"address","name":"previousOwner","type":"address"},{"indexed":true,"internalType":"address","name":"newOwner","type":"address"}],"name":"OwnershipTransferred","type":"event"},{"anonymous":false,"inputs":[{"indexed":true,"internalType":"address","name":"implementation","type":"address"}],"name":"Upgraded","type":"event"},{"inputs":[],"name":"UPGRADE_INTERFACE_VERSION","outputs":[{"internalType":"string","name":"","type":"string"}],"stateMutability":"view","type":"function"},{"inputs":[{"internalType":"string","name":"","type":"string"}],"name":"creatorTokens","outputs":[{"internalType":"address","name":"","type":"address"}],"stateMutability":"view","type":"function"},{"inputs":[{"internalType":"string","name":"creatorName","type":"string"}],"name":"getCreatorToken","outputs":[{"internalType":"address","name":"","type":"address"}],"stateMutability":"view","type":"function"},{"inputs":[{"internalType":"address","name":"_admin","type":"address"}],"name":"initialize","outputs":[],"stateMutability":"nonpayable","type":"function"},{"inputs":[{"internalType":"string","name":"","type":"string"}],"name":"isTokenMinted","outputs":[{"internalType":"bool","name":"","type":"bool"}],"stateMutability":"view","type":"function"},{"inputs":[{"internalType":"address","name":"creator","type":"address"},{"internalType":"string","name":"name","type":"string"},{"internalType":"string","name":"image","type":"string"},{"internalType":"string","name":"channelLink","type":"string"},{"internalType":"uint256","name":"subscribers","type":"uint256"}],"name":"mintToken","outputs":[],"stateMutability":"nonpayable","type":"function"},{"inputs":[],"name":"owner","outputs":[{"internalType":"address","name":"","type":"address"}],"stateMutability":"view","type":"function"},{"inputs":[],"name":"proxiableUUID","outputs":[{"internalType":"bytes32","name":"","type":"bytes32"}],"stateMutability":"view","type":"function"},{"inputs":[],"name":"renounceOwnership","outputs":[],"stateMutability":"nonpayable","type":"function"},{"inputs":[{"internalType":"address","name":"newOwner","type":"address"}],"name":"transferOwnership","outputs":[],"stateMutability":"nonpayable","type":"function"},{"inputs":[{"internalType":"address","name":"newImplementation","type":"address"},{"internalType":"bytes","name":"data","type":"bytes"}],"name":"upgradeToAndCall","outputs":[],"stateMutability":"payable","type":"function"}],"evm":{"bytecode":{"linkReferences":{},"object":"60a080604052346100ea57306080527ff0c57e16840df040f15088dc2f81fe391c3923bec73e23a9662efc9c229c6a005460ff8160401c166100d9576002600160401b03196001600160401b03821601610073575b60405161226190816100f0823960805181818161077301526108190152f35b6001600160401b0319166001600160401b039081177ff0c57e16840df040f15088dc2f81fe391c3923bec73e23a9662efc9c229c6a005581527fc7f505b2f371ae2175ee4913f4499e1f2633a7b5936321eed1cdaeb6115181d290602090a13880610054565b63f92ee8a960e01b60005260046000fd5b600080fdfe6080604052600436101561001257600080fd5b60003560e01c806320503219146109df5780633680dc76146109df5780634f1ef286146107ca57806352d1902d14610760578063715018a6146106f65780638396c955146106945780638da5cb5b1461065e578063ad3cb1cc14610613578063c4d66de8146104bc578063f2fde38b146104915763fe394ed91461009557600080fd5b3461048c5760a036600319011261048c576100ae610afe565b60243567ffffffffffffffff811161048c576100ce903690600401610abd565b60443567ffffffffffffffff811161048c576100ee903690600401610abd565b9060643567ffffffffffffffff811161048c5761010f903690600401610abd565b926084359061011c610baf565b6040519160ff8451936020818188019661013781838a610adb565b810160018152030190205416610439576040918251956101578488610a48565b60038752601f19840136602089013760005b600381108061042f575b15610217576101828188610be5565b516001600160f81b03198116606160f81b81101580610209575b156101f4575060f81c601f190160ff81116101de5760f81b6001600160f81b03191660001a6101cb828a610be5565b535b60001981146101de57600101610169565b634e487b7160e01b600052601160045260246000fd5b905060001a610203828a610be5565b536101cd565b50603d60f91b81111561019c565b5086908896959685519361025a60066020878c61023a8d51809285850190610adb565b810165102a37b5b2b760d11b838201520301601919810188520186610a48565b61026386610c0c565b95670de0b6b3a7640000810295818704670de0b6b3a764000014821517156101de57885194611446928387019387851067ffffffffffffffff861117610419578796610300610322948f8f6102f2916102e58f6102d78f9c6101208f6101009f9c61030e9d610d8690398181520190610b14565b8d810360208f015290610b14565b918b8303908c0152610b14565b9088820360608a0152610b14565b908682036080880152610b14565b9060a085015283810360c085015289610b14565b60e083018890526001600160a01b0390931691015203906000f0801561040e5792610409926103f86103ea96936103c260207f708e91ce74ea329795459fafac97ab0fe014c3658fd236eaadfe6919bdd48b009a9860018060a01b03169b875182818c51610391818387610adb565b810160008152030190208d6bffffffffffffffffffffffff60a01b8254161790558751809381928c51928391610adb565b81016001815203019020600160ff198254161790558451978897608089526080890190610b14565b908782036020890152610b14565b928501528382036060850152610b14565b0390a2005b84513d6000823e3d90fd5b634e487b7160e01b600052604160045260246000fd5b5086518110610173565b60405162461bcd60e51b815260206004820152602560248201527f546f6b656e20616c7265616479206d696e74656420666f72207468697320637260448201526432b0ba37b960d91b6064820152608490fd5b600080fd5b3461048c57602036600319011261048c576104ba6104ad610afe565b6104b5610baf565b610b39565b005b3461048c57602036600319011261048c576104d5610afe565b60008051602061220c8339815191525460ff8160401c16159167ffffffffffffffff82168015908161060b575b6001149081610601575b1590816105f8575b506105e75767ffffffffffffffff19821660011760008051602061220c8339815191525561055391836105ba575b5061054b610cf6565b6104b5610cf6565b61055b610cf6565b61056157005b68ff00000000000000001960008051602061220c833981519152541660008051602061220c833981519152557fc7f505b2f371ae2175ee4913f4499e1f2633a7b5936321eed1cdaeb6115181d2602060405160018152a1005b68ffffffffffffffffff1916680100000000000000011760008051602061220c8339815191525583610542565b63f92ee8a960e01b60005260046000fd5b90501584610514565b303b15915061050c565b849150610502565b3461048c57600036600319011261048c5761065a60408051906106368183610a48565b60058252640352e302e360dc1b602083015251918291602083526020830190610b14565b0390f35b3461048c57600036600319011261048c576000805160206121cc833981519152546040516001600160a01b039091168152602090f35b3461048c57602036600319011261048c5760043567ffffffffffffffff811161048c5760ff6106e060206106cd81943690600401610abd565b8160405193828580945193849201610adb565b8101600181520301902054166040519015158152f35b3461048c57600036600319011261048c5761070f610baf565b6000805160206121cc83398151915280546001600160a01b031981169091556000906001600160a01b03167f8be0079c531659141344cd1fd0a4f28419497f9722a3daafe3b4186f6b6457e08280a3005b3461048c57600036600319011261048c577f00000000000000000000000000000000000000000000000000000000000000006001600160a01b031630036107b95760206040516000805160206121ec8339815191528152f35b63703e46dd60e11b60005260046000fd5b604036600319011261048c576107de610afe565b60243567ffffffffffffffff811161048c573660238201121561048c5761080f903690602481600401359101610a86565b6001600160a01b037f0000000000000000000000000000000000000000000000000000000000000000163081149081156109bc575b506107b957610851610baf565b6040516352d1902d60e01b81526001600160a01b0383169290602081600481875afa60009181610988575b506108965783634c9c8ce360e01b60005260045260246000fd5b806000805160206121ec8339815191528592036109745750813b15610960576000805160206121ec83398151915280546001600160a01b031916821790557fbc7cd75a20ee27fd9adebab32041f755214dbc6bffa90cc0225b39da2e5c2d3b600080a2815115610946576000808360206104ba95519101845af43d1561093e573d9161092183610a6a565b9261092f6040519485610a48565b83523d6000602085013e610d24565b606091610d24565b50503461094f57005b63b398979f60e01b60005260046000fd5b634c9c8ce360e01b60005260045260246000fd5b632a87526960e21b60005260045260246000fd5b9091506020813d6020116109b4575b816109a460209383610a48565b8101031261048c5751908561087c565b3d9150610997565b6000805160206121ec833981519152546001600160a01b03161415905083610844565b3461048c57602036600319011261048c5760043567ffffffffffffffff811161048c57610a126020913690600401610abd565b81610a266040519283815193849201610adb565b600090820190815281900382019020546040516001600160a01b039091168152f35b90601f8019910116810190811067ffffffffffffffff82111761041957604052565b67ffffffffffffffff811161041957601f01601f191660200190565b929192610a9282610a6a565b91610aa06040519384610a48565b82948184528183011161048c578281602093846000960137010152565b9080601f8301121561048c57816020610ad893359101610a86565b90565b60005b838110610aee5750506000910152565b8181015183820152602001610ade565b600435906001600160a01b038216820361048c57565b90602091610b2d81518092818552858086019101610adb565b601f01601f1916010190565b6001600160a01b03168015610b99576000805160206121cc83398151915280546001600160a01b0319811683179091556001600160a01b03167f8be0079c531659141344cd1fd0a4f28419497f9722a3daafe3b4186f6b6457e0600080a3565b631e4fbdf760e01b600052600060045260246000fd5b6000805160206121cc833981519152546001600160a01b03163303610bd057565b63118cdaa760e01b6000523360045260246000fd5b908151811015610bf6570160200190565b634e487b7160e01b600052603260045260246000fd5b62989680811015610cc257620f4240811015610c8f57620186a01115610c5b57604051610c3a604082610a48565b6011815270526973696e67205374617220426164676560781b602082015290565b604051610c69604082610a48565b60168152753130304b20537562736372696265727320426164676560501b602082015290565b50604051610c9e604082610a48565b6014815273314d20537562736372696265727320426164676560601b602082015290565b50604051610cd1604082610a48565b601581527431304d20537562736372696265727320426164676560581b602082015290565b60ff60008051602061220c8339815191525460401c1615610d1357565b631afcd79f60e31b60005260046000fd5b90610d4a5750805115610d3957805190602001fd5b63d6bda27560e01b60005260046000fd5b81511580610d7c575b610d5b575090565b639996b31560e01b60009081526001600160a01b0391909116600452602490fd5b50803b15610d5356fe60806040523461098757611446803803806100198161098c565b928339810190610120818303126109875780516001600160401b03811161098757826100469183016109b1565b60208201519091906001600160401b03811161098757836100689183016109b1565b60408201519093906001600160401b038111610987578161008a9184016109b1565b60608301516001600160401b03811161098757826100a99185016109b1565b60808401516001600160401b03811161098757836100c89186016109b1565b60a085015160c086015190949193916001600160401b038211610987576100f09187016109b1565b9661010060e08701519601519660018060a01b038816809803610987578051906001600160401b0382116104ec5760035490600182811c9216801561097d575b60208310146104cc5781601f84931161090d575b50602090601f83116001146108a55760009261089a575b50508160011b916000199060031b1c1916176003555b8051906001600160401b0382116104ec5760045490600182811c92168015610890575b60208310146104cc5781601f849311610820575b50602090601f83116001146107b8576000926107ad575b50508160011b916000199060031b1c1916176004555b8051906001600160401b0382116104ec5760055490600182811c921680156107a3575b60208310146104cc5781601f84931161074f575b50602090601f83116001146106e7576000926106dc575b50508160011b916000199060031b1c1916176005555b8051906001600160401b0382116104ec5760065490600182811c921680156106d2575b60208310146104cc5781601f849311610662575b50602090601f83116001146105fa576000926105ef575b50508160011b916000199060031b1c1916176006555b8051906001600160401b0382116104ec5760075490600182811c921680156105e5575b60208310146104cc5781601f849311610575575b50602090601f831160011461050d57600092610502575b50508160011b916000199060031b1c1916176007555b60085582516001600160401b0381116104ec57600954600181811c911680156104e2575b60208210146104cc57601f8111610467575b506020601f821160011461040057819293946000926103f5575b50508160011b916000199060031b1c1916176009555b81156103df576002548181018091116103c9576002557fddf252ad1be2c89b69c2b068fc378daa952ba7f163c4a11628f55a4df523b3ef602060009284845283825260408420818154019055604051908152a3604051610a299081610a1d8239f35b634e487b7160e01b600052601160045260246000fd5b63ec442f0560e01b600052600060045260246000fd5b015190503880610351565b601f198216906009600052806000209160005b81811061044f57509583600195969710610436575b505050811b01600955610367565b015160001960f88460031b161c19169055388080610428565b9192602060018192868b015181550194019201610413565b60096000527f6e1540171b6c0c960b71a7020d9f60077f6af931a8bbf590da0223dacf75c7af601f830160051c810191602084106104c2575b601f0160051c01905b8181106104b65750610337565b600081556001016104a9565b90915081906104a0565b634e487b7160e01b600052602260045260246000fd5b90607f1690610325565b634e487b7160e01b600052604160045260246000fd5b0151905038806102eb565b600760009081528281209350601f198516905b81811061055d5750908460019594939210610544575b505050811b01600755610301565b015160001960f88460031b161c19169055388080610536565b92936020600181928786015181550195019301610520565b60076000529091507fa66cc928b5edb82af9bd49922954155ab7b0942694bea4ce44661d9a8736c688601f840160051c810191602085106105db575b90601f859493920160051c01905b8181106105cc57506102d4565b600081558493506001016105bf565b90915081906105b1565b91607f16916102c0565b015190503880610287565b600660009081528281209350601f198516905b81811061064a5750908460019594939210610631575b505050811b0160065561029d565b015160001960f88460031b161c19169055388080610623565b9293602060018192878601518155019501930161060d565b60066000529091507ff652222313e28459528d920b65115c16c04f3efc82aaedc97be59f3f377c0d3f601f840160051c810191602085106106c8575b90601f859493920160051c01905b8181106106b95750610270565b600081558493506001016106ac565b909150819061069e565b91607f169161025c565b015190503880610223565b600560009081528281209350601f198516905b818110610737575090846001959493921061071e575b505050811b01600555610239565b015160001960f88460031b161c19169055388080610710565b929360206001819287860151815501950193016106fa565b90915060056000526020600020601f840160051c81019160208510610799575b90601f859493920160051c01905b81811061078a575061020c565b6000815584935060010161077d565b909150819061076f565b91607f16916101f8565b0151905038806101bf565b600460009081528281209350601f198516905b81811061080857509084600195949392106107ef575b505050811b016004556101d5565b015160001960f88460031b161c191690553880806107e1565b929360206001819287860151815501950193016107cb565b60046000529091507f8a35acfbc15ff81a39ae7d344fd709f28e8600b4aa8c65c6b64bfe7fe36bd19b601f840160051c81019160208510610886575b90601f859493920160051c01905b81811061087757506101a8565b6000815584935060010161086a565b909150819061085c565b91607f1691610194565b01519050388061015b565b600360009081528281209350601f198516905b8181106108f557509084600195949392106108dc575b505050811b01600355610171565b015160001960f88460031b161c191690553880806108ce565b929360206001819287860151815501950193016108b8565b60036000529091507fc2575a0e9e593c00f959f8c92f12db2869c3395a3b0502d05e2516446f71f85b601f840160051c81019160208510610973575b90601f859493920160051c01905b8181106109645750610144565b60008155849350600101610957565b9091508190610949565b91607f1691610130565b600080fd5b6040519190601f01601f191682016001600160401b038111838210176104ec57604052565b81601f82011215610987578051906001600160401b0382116104ec576109e0601f8301601f191660200161098c565b92828452602083830101116109875760005b828110610a0757505060206000918301015290565b806020809284010151828287010152016109f256fe6080604052600436101561001257600080fd5b60003560e01c806306fdde03146107e1578063095ea7b31461075b57806318160ddd1461073d5780631f6f90bd1461066557806323b872dd14610578578063313ce5671461055c57806370a082311461052257806395d89b411461044a5780639e2ce9d21461042c578063a9059cbb146103fb578063b90497e014610323578063dbac78061461022f578063dd62ed3e146101de5763e12afc1b146100b657600080fd5b346101d95760003660031901126101d95760405160006007548060011c906001811680156101cf575b6020831081146101bb5782855290811561019f5750600114610148575b50819003601f01601f191681019067ffffffffffffffff821181831017610132576040829052819061012e90826108b9565b0390f35b634e487b7160e01b600052604160045260246000fd5b600760009081529091507fa66cc928b5edb82af9bd49922954155ab7b0942694bea4ce44661d9a8736c6885b828210610189575060209150820101386100fc565b6001816020925483858801015201910190610174565b90506020925060ff191682840152151560051b820101386100fc565b634e487b7160e01b84526022600452602484fd5b91607f16916100df565b600080fd5b346101d95760403660031901126101d9576101f7610902565b6101ff610918565b6001600160a01b039182166000908152600160209081526040808320949093168252928352819020549051908152f35b346101d95760003660031901126101d95760405160006009548060011c90600181168015610319575b6020831081146101bb578285529081156102fd57506001146102a65750819003601f01601f191681019067ffffffffffffffff821181831017610132576040829052819061012e90826108b9565b600960009081529091507f6e1540171b6c0c960b71a7020d9f60077f6af931a8bbf590da0223dacf75c7af5b8282106102e7575060209150820101826100fc565b60018160209254838588010152019101906102d2565b90506020925060ff191682840152151560051b820101826100fc565b91607f1691610258565b346101d95760003660031901126101d95760405160006006548060011c906001811680156103f1575b6020831081146101bb578285529081156102fd575060011461039a5750819003601f01601f191681019067ffffffffffffffff821181831017610132576040829052819061012e90826108b9565b600660009081529091507ff652222313e28459528d920b65115c16c04f3efc82aaedc97be59f3f377c0d3f5b8282106103db575060209150820101826100fc565b60018160209254838588010152019101906103c6565b91607f169161034c565b346101d95760403660031901126101d957610421610417610902565b602435903361092e565b602060405160018152f35b346101d95760003660031901126101d9576020600854604051908152f35b346101d95760003660031901126101d95760405160006004548060011c90600181168015610518575b6020831081146101bb578285529081156102fd57506001146104c15750819003601f01601f191681019067ffffffffffffffff821181831017610132576040829052819061012e90826108b9565b600460009081529091507f8a35acfbc15ff81a39ae7d344fd709f28e8600b4aa8c65c6b64bfe7fe36bd19b5b828210610502575060209150820101826100fc565b60018160209254838588010152019101906104ed565b91607f1691610473565b346101d95760203660031901126101d9576001600160a01b03610543610902565b1660005260006020526020604060002054604051908152f35b346101d95760003660031901126101d957602060405160128152f35b346101d95760603660031901126101d957610591610902565b610599610918565b6001600160a01b03821660008181526001602090815260408083203384529091529020549092604435929160001981106105d9575b50610421935061092e565b83811061064857841561063257331561061c57610421946000526001602052604060002060018060a01b03331660005260205283604060002091039055846105ce565b634a1406b160e11b600052600060045260246000fd5b63e602df0560e01b600052600060045260246000fd5b8390637dc7a0d960e11b6000523360045260245260445260646000fd5b346101d95760003660031901126101d95760405160006005548060011c90600181168015610733575b6020831081146101bb578285529081156102fd57506001146106dc5750819003601f01601f191681019067ffffffffffffffff821181831017610132576040829052819061012e90826108b9565b600560009081529091507f036b6384b5eca791c62761152d0c79bb0604c104a5fb6f4eb0703f3154bb3db05b82821061071d575060209150820101826100fc565b6001816020925483858801015201910190610708565b91607f169161068e565b346101d95760003660031901126101d9576020600254604051908152f35b346101d95760403660031901126101d957610774610902565b602435903315610632576001600160a01b031690811561061c57336000526001602052604060002082600052602052806040600020556040519081527f8c5be1e5ebec7d5bd14f71427d1e84f3dd0314c0f7b2291e5b200ac8c7c3b92560203392a3602060405160018152f35b346101d95760003660031901126101d95760405160006003548060011c906001811680156108af575b6020831081146101bb578285529081156102fd57506001146108585750819003601f01601f191681019067ffffffffffffffff821181831017610132576040829052819061012e90826108b9565b600360009081529091507fc2575a0e9e593c00f959f8c92f12db2869c3395a3b0502d05e2516446f71f85b5b828210610899575060209150820101826100fc565b6001816020925483858801015201910190610884565b91607f169161080a565b91909160208152825180602083015260005b8181106108ec575060409293506000838284010152601f8019910116010190565b80602080928701015160408286010152016108cb565b600435906001600160a01b03821682036101d957565b602435906001600160a01b03821682036101d957565b6001600160a01b03169081156109dd576001600160a01b03169182156109c75760008281528060205260408120548281106109ad5791604082827fddf252ad1be2c89b69c2b068fc378daa952ba7f163c4a11628f55a4df523b3ef958760209652828652038282205586815280845220818154019055604051908152a3565b916064928463391434e360e21b8452600452602452604452fd5b63ec442f0560e01b600052600060045260246000fd5b634b637e8f60e11b600052600060045260246000fdfea26469706673582212209954f2ad444ed99c68c1f9406c954360c33ca3a332f10951f7c52be225c490f464736f6c634300081c00339016d09d72d40fdae2fd8ceac6b6234c7706214fd39c1cd1e609a0528c199300360894a13ba1a3210667c828492db98dca3e2076cc3735a920a3ca505d382bbcf0c57e16840df040f15088dc2f81fe391c3923bec73e23a9662efc9c229c6a00a2646970667358221220487da74d46f9851d54e506abb9538abbe1635b4342b8b8056634c81cc42129fd64736f6c634300081c0033","opcodes":"PUSH1 0xA0 DUP1 PUSH1 0x40 MSTORE CALLVALUE PUSH2 0xEA JUMPI ADDRESS PUSH1 0x80 MSTORE PUSH32 0xF0C57E16840DF040F15088DC2F81FE391C3923BEC73E23A9662EFC9C229C6A00 SLOAD PUSH1 0xFF DUP2 PUSH1 0x40 SHR AND PUSH2 0xD9 JUMPI PUSH1 0x2 PUSH1 0x1 PUSH1 0x40 SHL SUB NOT PUSH1 0x1 PUSH1 0x1 PUSH1 0x40 SHL SUB DUP3 AND ADD PUSH2 0x73 JUMPI JUMPDEST PUSH1 0x40 MLOAD PUSH2 0x2261 SWAP1 DUP2 PUSH2 0xF0 DUP3 CODECOPY PUSH1 0x80 MLOAD DUP2 DUP2 DUP2 PUSH2 0x773 ADD MSTORE PUSH2 0x819 ADD MSTORE RETURN JUMPDEST PUSH1 0x1 PUSH1 0x1 PUSH1 0x40 SHL SUB NOT AND PUSH1 0x1 PUSH1 0x1 PUSH1 0x40 SHL SUB SWAP1 DUP2 OR PUSH32 0xF0C57E16840DF040F15088DC2F81FE391C3923BEC73E23A9662EFC9C229C6A00 SSTORE DUP2 MSTORE PUSH32 0xC7F505B2F371AE2175EE4913F4499E1F2633A7B5936321EED1CDAEB6115181D2 SWAP1 PUSH1 0x20 SWAP1 LOG1 CODESIZE DUP1 PUSH2 0x54 JUMP JUMPDEST PUSH4 0xF92EE8A9 PUSH1 0xE0 SHL PUSH1 0x0 MSTORE PUSH1 0x4 PUSH1 0x0 REVERT JUMPDEST PUSH1 0x0 DUP1 REVERT INVALID PUSH1 0x80 PUSH1 0x40 MSTORE PUSH1 0x4 CALLDATASIZE LT ISZERO PUSH2 0x12 JUMPI PUSH1 0x0 DUP1 REVERT JUMPDEST PUSH1 0x0 CALLDATALOAD PUSH1 0xE0 SHR DUP1 PUSH4 0x20503219 EQ PUSH2 0x9DF JUMPI DUP1 PUSH4 0x3680DC76 EQ PUSH2 0x9DF JUMPI DUP1 PUSH4 0x4F1EF286 EQ PUSH2 0x7CA JUMPI DUP1 PUSH4 0x52D1902D EQ PUSH2 0x760 JUMPI DUP1 PUSH4 0x715018A6 EQ PUSH2 0x6F6 JUMPI DUP1 PUSH4 0x8396C955 EQ PUSH2 0x694 JUMPI DUP1 PUSH4 0x8DA5CB5B EQ PUSH2 0x65E JUMPI DUP1 PUSH4 0xAD3CB1CC EQ PUSH2 0x613 JUMPI DUP1 PUSH4 0xC4D66DE8 EQ PUSH2 0x4BC JUMPI DUP1 PUSH4 0xF2FDE38B EQ PUSH2 0x491 JUMPI PUSH4 0xFE394ED9 EQ PUSH2 0x95 JUMPI PUSH1 0x0 DUP1 REVERT JUMPDEST CALLVALUE PUSH2 0x48C JUMPI PUSH1 0xA0 CALLDATASIZE PUSH1 0x3 NOT ADD SLT PUSH2 0x48C JUMPI PUSH2 0xAE PUSH2 0xAFE JUMP JUMPDEST PUSH1 0x24 CALLDATALOAD PUSH8 0xFFFFFFFFFFFFFFFF DUP2 GT PUSH2 0x48C JUMPI PUSH2 0xCE SWAP1 CALLDATASIZE SWAP1 PUSH1 0x4 ADD PUSH2 0xABD JUMP JUMPDEST PUSH1 0x44 CALLDATALOAD PUSH8 0xFFFFFFFFFFFFFFFF DUP2 GT PUSH2 0x48C JUMPI PUSH2 0xEE SWAP1 CALLDATASIZE SWAP1 PUSH1 0x4 ADD PUSH2 0xABD JUMP JUMPDEST SWAP1 PUSH1 0x64 CALLDATALOAD PUSH8 0xFFFFFFFFFFFFFFFF DUP2 GT PUSH2 0x48C JUMPI PUSH2 0x10F SWAP1 CALLDATASIZE SWAP1 PUSH1 0x4 ADD PUSH2 0xABD JUMP JUMPDEST SWAP3 PUSH1 0x84 CALLDATALOAD SWAP1 PUSH2 0x11C PUSH2 0xBAF JUMP JUMPDEST PUSH1 0x40 MLOAD SWAP2 PUSH1 0xFF DUP5 MLOAD SWAP4 PUSH1 0x20 DUP2 DUP2 DUP9 ADD SWAP7 PUSH2 0x137 DUP2 DUP4 DUP11 PUSH2 0xADB JUMP JUMPDEST DUP2 ADD PUSH1 0x1 DUP2 MSTORE SUB ADD SWAP1 KECCAK256 SLOAD AND PUSH2 0x439 JUMPI PUSH1 0x40 SWAP2 DUP3 MLOAD SWAP6 PUSH2 0x157 DUP5 DUP9 PUSH2 0xA48 JUMP JUMPDEST PUSH1 0x3 DUP8 MSTORE PUSH1 0x1F NOT DUP5 ADD CALLDATASIZE PUSH1 0x20 DUP10 ADD CALLDATACOPY PUSH1 0x0 JUMPDEST PUSH1 0x3 DUP2 LT DUP1 PUSH2 0x42F JUMPI JUMPDEST ISZERO PUSH2 0x217 JUMPI PUSH2 0x182 DUP2 DUP9 PUSH2 0xBE5 JUMP JUMPDEST MLOAD PUSH1 0x1 PUSH1 0x1 PUSH1 0xF8 SHL SUB NOT DUP2 AND PUSH1 0x61 PUSH1 0xF8 SHL DUP2 LT ISZERO DUP1 PUSH2 0x209 JUMPI JUMPDEST ISZERO PUSH2 0x1F4 JUMPI POP PUSH1 0xF8 SHR PUSH1 0x1F NOT ADD PUSH1 0xFF DUP2 GT PUSH2 0x1DE JUMPI PUSH1 0xF8 SHL PUSH1 0x1 PUSH1 0x1 PUSH1 0xF8 SHL SUB NOT AND PUSH1 0x0 BYTE PUSH2 0x1CB DUP3 DUP11 PUSH2 0xBE5 JUMP JUMPDEST MSTORE8 JUMPDEST PUSH1 0x0 NOT DUP2 EQ PUSH2 0x1DE JUMPI PUSH1 0x1 ADD PUSH2 0x169 JUMP JUMPDEST PUSH4 0x4E487B71 PUSH1 0xE0 SHL PUSH1 0x0 MSTORE PUSH1 0x11 PUSH1 0x4 MSTORE PUSH1 0x24 PUSH1 0x0 REVERT JUMPDEST SWAP1 POP PUSH1 0x0 BYTE PUSH2 0x203 DUP3 DUP11 PUSH2 0xBE5 JUMP JUMPDEST MSTORE8 PUSH2 0x1CD JUMP JUMPDEST POP PUSH1 0x3D PUSH1 0xF9 SHL DUP2 GT ISZERO PUSH2 0x19C JUMP JUMPDEST POP DUP7 SWAP1 DUP9 SWAP7 SWAP6 SWAP7 DUP6 MLOAD SWAP4 PUSH2 0x25A PUSH1 0x6 PUSH1 0x20 DUP8 DUP13 PUSH2 0x23A DUP14 MLOAD DUP1 SWAP3 DUP6 DUP6 ADD SWAP1 PUSH2 0xADB JUMP JUMPDEST DUP2 ADD PUSH6 0x102A37B5B2B7 PUSH1 0xD1 SHL DUP4 DUP3 ADD MSTORE SUB ADD PUSH1 0x19 NOT DUP2 ADD DUP9 MSTORE ADD DUP7 PUSH2 0xA48 JUMP JUMPDEST PUSH2 0x263 DUP7 PUSH2 0xC0C JUMP JUMPDEST SWAP6 PUSH8 0xDE0B6B3A7640000 DUP2 MUL SWAP6 DUP2 DUP8 DIV PUSH8 0xDE0B6B3A7640000 EQ DUP3 ISZERO OR ISZERO PUSH2 0x1DE JUMPI DUP9 MLOAD SWAP5 PUSH2 0x1446 SWAP3 DUP4 DUP8 ADD SWAP4 DUP8 DUP6 LT PUSH8 0xFFFFFFFFFFFFFFFF DUP7 GT OR PUSH2 0x419 JUMPI DUP8 SWAP7 PUSH2 0x300 PUSH2 0x322 SWAP5 DUP16 DUP16 PUSH2 0x2F2 SWAP2 PUSH2 0x2E5 DUP16 PUSH2 0x2D7 DUP16 SWAP13 PUSH2 0x120 DUP16 PUSH2 0x100 SWAP16 SWAP13 PUSH2 0x30E SWAP14 PUSH2 0xD86 SWAP1 CODECOPY DUP2 DUP2 MSTORE ADD SWAP1 PUSH2 0xB14 JUMP JUMPDEST DUP14 DUP2 SUB PUSH1 0x20 DUP16 ADD MSTORE SWAP1 PUSH2 0xB14 JUMP JUMPDEST SWAP2 DUP12 DUP4 SUB SWAP1 DUP13 ADD MSTORE PUSH2 0xB14 JUMP JUMPDEST SWAP1 DUP9 DUP3 SUB PUSH1 0x60 DUP11 ADD MSTORE PUSH2 0xB14 JUMP JUMPDEST SWAP1 DUP7 DUP3 SUB PUSH1 0x80 DUP9 ADD MSTORE PUSH2 0xB14 JUMP JUMPDEST SWAP1 PUSH1 0xA0 DUP6 ADD MSTORE DUP4 DUP2 SUB PUSH1 0xC0 DUP6 ADD MSTORE DUP10 PUSH2 0xB14 JUMP JUMPDEST PUSH1 0xE0 DUP4 ADD DUP9 SWAP1 MSTORE PUSH1 0x1 PUSH1 0x1 PUSH1 0xA0 SHL SUB SWAP1 SWAP4 AND SWAP2 ADD MSTORE SUB SWAP1 PUSH1 0x0 CREATE DUP1 ISZERO PUSH2 0x40E JUMPI SWAP3 PUSH2 0x409 SWAP3 PUSH2 0x3F8 PUSH2 0x3EA SWAP7 SWAP4 PUSH2 0x3C2 PUSH1 0x20 PUSH32 0x708E91CE74EA329795459FAFAC97AB0FE014C3658FD236EAADFE6919BDD48B00 SWAP11 SWAP9 PUSH1 0x1 DUP1 PUSH1 0xA0 SHL SUB AND SWAP12 DUP8 MLOAD DUP3 DUP2 DUP13 MLOAD PUSH2 0x391 DUP2 DUP4 DUP8 PUSH2 0xADB JUMP JUMPDEST DUP2 ADD PUSH1 0x0 DUP2 MSTORE SUB ADD SWAP1 KECCAK256 DUP14 PUSH12 0xFFFFFFFFFFFFFFFFFFFFFFFF PUSH1 0xA0 SHL DUP3 SLOAD AND OR SWAP1 SSTORE DUP8 MLOAD DUP1 SWAP4 DUP2 SWAP3 DUP13 MLOAD SWAP3 DUP4 SWAP2 PUSH2 0xADB JUMP JUMPDEST DUP2 ADD PUSH1 0x1 DUP2 MSTORE SUB ADD SWAP1 KECCAK256 PUSH1 0x1 PUSH1 0xFF NOT DUP3 SLOAD AND OR SWAP1 SSTORE DUP5 MLOAD SWAP8 DUP9 SWAP8 PUSH1 0x80 DUP10 MSTORE PUSH1 0x80 DUP10 ADD SWAP1 PUSH2 0xB14 JUMP JUMPDEST SWAP1 DUP8 DUP3 SUB PUSH1 0x20 DUP10 ADD MSTORE PUSH2 0xB14 JUMP JUMPDEST SWAP3 DUP6 ADD MSTORE DUP4 DUP3 SUB PUSH1 0x60 DUP6 ADD MSTORE PUSH2 0xB14 JUMP JUMPDEST SUB SWAP1 LOG2 STOP JUMPDEST DUP5 MLOAD RETURNDATASIZE PUSH1 0x0 DUP3 RETURNDATACOPY RETURNDATASIZE SWAP1 REVERT JUMPDEST PUSH4 0x4E487B71 PUSH1 0xE0 SHL PUSH1 0x0 MSTORE PUSH1 0x41 PUSH1 0x4 MSTORE PUSH1 0x24 PUSH1 0x0 REVERT JUMPDEST POP DUP7 MLOAD DUP2 LT PUSH2 0x173 JUMP JUMPDEST PUSH1 0x40 MLOAD PUSH3 0x461BCD PUSH1 0xE5 SHL DUP2 MSTORE PUSH1 0x20 PUSH1 0x4 DUP3 ADD MSTORE PUSH1 0x25 PUSH1 0x24 DUP3 ADD MSTORE PUSH32 0x546F6B656E20616C7265616479206D696E74656420666F722074686973206372 PUSH1 0x44 DUP3 ADD MSTORE PUSH5 0x32B0BA37B9 PUSH1 0xD9 SHL PUSH1 0x64 DUP3 ADD MSTORE PUSH1 0x84 SWAP1 REVERT JUMPDEST PUSH1 0x0 DUP1 REVERT JUMPDEST CALLVALUE PUSH2 0x48C JUMPI PUSH1 0x20 CALLDATASIZE PUSH1 0x3 NOT ADD SLT PUSH2 0x48C JUMPI PUSH2 0x4BA PUSH2 0x4AD PUSH2 0xAFE JUMP JUMPDEST PUSH2 0x4B5 PUSH2 0xBAF JUMP JUMPDEST PUSH2 0xB39 JUMP JUMPDEST STOP JUMPDEST CALLVALUE PUSH2 0x48C JUMPI PUSH1 0x20 CALLDATASIZE PUSH1 0x3 NOT ADD SLT PUSH2 0x48C JUMPI PUSH2 0x4D5 PUSH2 0xAFE JUMP JUMPDEST PUSH1 0x0 DUP1 MLOAD PUSH1 0x20 PUSH2 0x220C DUP4 CODECOPY DUP2 MLOAD SWAP2 MSTORE SLOAD PUSH1 0xFF DUP2 PUSH1 0x40 SHR AND ISZERO SWAP2 PUSH8 0xFFFFFFFFFFFFFFFF DUP3 AND DUP1 ISZERO SWAP1 DUP2 PUSH2 0x60B JUMPI JUMPDEST PUSH1 0x1 EQ SWAP1 DUP2 PUSH2 0x601 JUMPI JUMPDEST ISZERO SWAP1 DUP2 PUSH2 0x5F8 JUMPI JUMPDEST POP PUSH2 0x5E7 JUMPI PUSH8 0xFFFFFFFFFFFFFFFF NOT DUP3 AND PUSH1 0x1 OR PUSH1 0x0 DUP1 MLOAD PUSH1 0x20 PUSH2 0x220C DUP4 CODECOPY DUP2 MLOAD SWAP2 MSTORE SSTORE PUSH2 0x553 SWAP2 DUP4 PUSH2 0x5BA JUMPI JUMPDEST POP PUSH2 0x54B PUSH2 0xCF6 JUMP JUMPDEST PUSH2 0x4B5 PUSH2 0xCF6 JUMP JUMPDEST PUSH2 0x55B PUSH2 0xCF6 JUMP JUMPDEST PUSH2 0x561 JUMPI STOP JUMPDEST PUSH9 0xFF0000000000000000 NOT PUSH1 0x0 DUP1 MLOAD PUSH1 0x20 PUSH2 0x220C DUP4 CODECOPY DUP2 MLOAD SWAP2 MSTORE SLOAD AND PUSH1 0x0 DUP1 MLOAD PUSH1 0x20 PUSH2 0x220C DUP4 CODECOPY DUP2 MLOAD SWAP2 MSTORE SSTORE PUSH32 0xC7F505B2F371AE2175EE4913F4499E1F2633A7B5936321EED1CDAEB6115181D2 PUSH1 0x20 PUSH1 0x40 MLOAD PUSH1 0x1 DUP2 MSTORE LOG1 STOP JUMPDEST PUSH9 0xFFFFFFFFFFFFFFFFFF NOT AND PUSH9 0x10000000000000001 OR PUSH1 0x0 DUP1 MLOAD PUSH1 0x20 PUSH2 0x220C DUP4 CODECOPY DUP2 MLOAD SWAP2 MSTORE SSTORE DUP4 PUSH2 0x542 JUMP JUMPDEST PUSH4 0xF92EE8A9 PUSH1 0xE0 SHL PUSH1 0x0 MSTORE PUSH1 0x4 PUSH1 0x0 REVERT JUMPDEST SWAP1 POP ISZERO DUP5 PUSH2 0x514 JUMP JUMPDEST ADDRESS EXTCODESIZE ISZERO SWAP2 POP PUSH2 0x50C JUMP JUMPDEST DUP5 SWAP2 POP PUSH2 0x502 JUMP JUMPDEST CALLVALUE PUSH2 0x48C JUMPI PUSH1 0x0 CALLDATASIZE PUSH1 0x3 NOT ADD SLT PUSH2 0x48C JUMPI PUSH2 0x65A PUSH1 0x40 DUP1 MLOAD SWAP1 PUSH2 0x636 DUP2 DUP4 PUSH2 0xA48 JUMP JUMPDEST PUSH1 0x5 DUP3 MSTORE PUSH5 0x352E302E3 PUSH1 0xDC SHL PUSH1 0x20 DUP4 ADD MSTORE MLOAD SWAP2 DUP3 SWAP2 PUSH1 0x20 DUP4 MSTORE PUSH1 0x20 DUP4 ADD SWAP1 PUSH2 0xB14 JUMP JUMPDEST SUB SWAP1 RETURN JUMPDEST CALLVALUE PUSH2 0x48C JUMPI PUSH1 0x0 CALLDATASIZE PUSH1 0x3 NOT ADD SLT PUSH2 0x48C JUMPI PUSH1 0x0 DUP1 MLOAD PUSH1 0x20 PUSH2 0x21CC DUP4 CODECOPY DUP2 MLOAD SWAP2 MSTORE SLOAD PUSH1 0x40 MLOAD PUSH1 0x1 PUSH1 0x1 PUSH1 0xA0 SHL SUB SWAP1 SWAP2 AND DUP2 MSTORE PUSH1 0x20 SWAP1 RETURN JUMPDEST CALLVALUE PUSH2 0x48C JUMPI PUSH1 0x20 CALLDATASIZE PUSH1 0x3 NOT ADD SLT PUSH2 0x48C JUMPI PUSH1 0x4 CALLDATALOAD PUSH8 0xFFFFFFFFFFFFFFFF DUP2 GT PUSH2 0x48C JUMPI PUSH1 0xFF PUSH2 0x6E0 PUSH1 0x20 PUSH2 0x6CD DUP2 SWAP5 CALLDATASIZE SWAP1 PUSH1 0x4 ADD PUSH2 0xABD JUMP JUMPDEST DUP2 PUSH1 0x40 MLOAD SWAP4 DUP3 DUP6 DUP1 SWAP5 MLOAD SWAP4 DUP5 SWAP3 ADD PUSH2 0xADB JUMP JUMPDEST DUP2 ADD PUSH1 0x1 DUP2 MSTORE SUB ADD SWAP1 KECCAK256 SLOAD AND PUSH1 0x40 MLOAD SWAP1 ISZERO ISZERO DUP2 MSTORE RETURN JUMPDEST CALLVALUE PUSH2 0x48C JUMPI PUSH1 0x0 CALLDATASIZE PUSH1 0x3 NOT ADD SLT PUSH2 0x48C JUMPI PUSH2 0x70F PUSH2 0xBAF JUMP JUMPDEST PUSH1 0x0 DUP1 MLOAD PUSH1 0x20 PUSH2 0x21CC DUP4 CODECOPY DUP2 MLOAD SWAP2 MSTORE DUP1 SLOAD PUSH1 0x1 PUSH1 0x1 PUSH1 0xA0 SHL SUB NOT DUP2 AND SWAP1 SWAP2 SSTORE PUSH1 0x0 SWAP1 PUSH1 0x1 PUSH1 0x1 PUSH1 0xA0 SHL SUB AND PUSH32 0x8BE0079C531659141344CD1FD0A4F28419497F9722A3DAAFE3B4186F6B6457E0 DUP3 DUP1 LOG3 STOP JUMPDEST CALLVALUE PUSH2 0x48C JUMPI PUSH1 0x0 CALLDATASIZE PUSH1 0x3 NOT ADD SLT PUSH2 0x48C JUMPI PUSH32 0x0 PUSH1 0x1 PUSH1 0x1 PUSH1 0xA0 SHL SUB AND ADDRESS SUB PUSH2 0x7B9 JUMPI PUSH1 0x20 PUSH1 0x40 MLOAD PUSH1 0x0 DUP1 MLOAD PUSH1 0x20 PUSH2 0x21EC DUP4 CODECOPY DUP2 MLOAD SWAP2 MSTORE DUP2 MSTORE RETURN JUMPDEST PUSH4 0x703E46DD PUSH1 0xE1 SHL PUSH1 0x0 MSTORE PUSH1 0x4 PUSH1 0x0 REVERT JUMPDEST PUSH1 0x40 CALLDATASIZE PUSH1 0x3 NOT ADD SLT PUSH2 0x48C JUMPI PUSH2 0x7DE PUSH2 0xAFE JUMP JUMPDEST PUSH1 0x24 CALLDATALOAD PUSH8 0xFFFFFFFFFFFFFFFF DUP2 GT PUSH2 0x48C JUMPI CALLDATASIZE PUSH1 0x23 DUP3 ADD SLT ISZERO PUSH2 0x48C JUMPI PUSH2 0x80F SWAP1 CALLDATASIZE SWAP1 PUSH1 0x24 DUP2 PUSH1 0x4 ADD CALLDATALOAD SWAP2 ADD PUSH2 0xA86 JUMP JUMPDEST PUSH1 0x1 PUSH1 0x1 PUSH1 0xA0 SHL SUB PUSH32 0x0 AND ADDRESS DUP2 EQ SWAP1 DUP2 ISZERO PUSH2 0x9BC JUMPI JUMPDEST POP PUSH2 0x7B9 JUMPI PUSH2 0x851 PUSH2 0xBAF JUMP JUMPDEST PUSH1 0x40 MLOAD PUSH4 0x52D1902D PUSH1 0xE0 SHL DUP2 MSTORE PUSH1 0x1 PUSH1 0x1 PUSH1 0xA0 SHL SUB DUP4 AND SWAP3 SWAP1 PUSH1 0x20 DUP2 PUSH1 0x4 DUP2 DUP8 GAS STATICCALL PUSH1 0x0 SWAP2 DUP2 PUSH2 0x988 JUMPI JUMPDEST POP PUSH2 0x896 JUMPI DUP4 PUSH4 0x4C9C8CE3 PUSH1 0xE0 SHL PUSH1 0x0 MSTORE PUSH1 0x4 MSTORE PUSH1 0x24 PUSH1 0x0 REVERT JUMPDEST DUP1 PUSH1 0x0 DUP1 MLOAD PUSH1 0x20 PUSH2 0x21EC DUP4 CODECOPY DUP2 MLOAD SWAP2 MSTORE DUP6 SWAP3 SUB PUSH2 0x974 JUMPI POP DUP2 EXTCODESIZE ISZERO PUSH2 0x960 JUMPI PUSH1 0x0 DUP1 MLOAD PUSH1 0x20 PUSH2 0x21EC DUP4 CODECOPY DUP2 MLOAD SWAP2 MSTORE DUP1 SLOAD PUSH1 0x1 PUSH1 0x1 PUSH1 0xA0 SHL SUB NOT AND DUP3 OR SWAP1 SSTORE PUSH32 0xBC7CD75A20EE27FD9ADEBAB32041F755214DBC6BFFA90CC0225B39DA2E5C2D3B PUSH1 0x0 DUP1 LOG2 DUP2 MLOAD ISZERO PUSH2 0x946 JUMPI PUSH1 0x0 DUP1 DUP4 PUSH1 0x20 PUSH2 0x4BA SWAP6 MLOAD SWAP2 ADD DUP5 GAS DELEGATECALL RETURNDATASIZE ISZERO PUSH2 0x93E JUMPI RETURNDATASIZE SWAP2 PUSH2 0x921 DUP4 PUSH2 0xA6A JUMP JUMPDEST SWAP3 PUSH2 0x92F PUSH1 0x40 MLOAD SWAP5 DUP6 PUSH2 0xA48 JUMP JUMPDEST DUP4 MSTORE RETURNDATASIZE PUSH1 0x0 PUSH1 0x20 DUP6 ADD RETURNDATACOPY PUSH2 0xD24 JUMP JUMPDEST PUSH1 0x60 SWAP2 PUSH2 0xD24 JUMP JUMPDEST POP POP CALLVALUE PUSH2 0x94F JUMPI STOP JUMPDEST PUSH4 0xB398979F PUSH1 0xE0 SHL PUSH1 0x0 MSTORE PUSH1 0x4 PUSH1 0x0 REVERT JUMPDEST PUSH4 0x4C9C8CE3 PUSH1 0xE0 SHL PUSH1 0x0 MSTORE PUSH1 0x4 MSTORE PUSH1 0x24 PUSH1 0x0 REVERT JUMPDEST PUSH4 0x2A875269 PUSH1 0xE2 SHL PUSH1 0x0 MSTORE PUSH1 0x4 MSTORE PUSH1 0x24 PUSH1 0x0 REVERT JUMPDEST SWAP1 SWAP2 POP PUSH1 0x20 DUP2 RETURNDATASIZE PUSH1 0x20 GT PUSH2 0x9B4 JUMPI JUMPDEST DUP2 PUSH2 0x9A4 PUSH1 0x20 SWAP4 DUP4 PUSH2 0xA48 JUMP JUMPDEST DUP2 ADD SUB SLT PUSH2 0x48C JUMPI MLOAD SWAP1 DUP6 PUSH2 0x87C JUMP JUMPDEST RETURNDATASIZE SWAP2 POP PUSH2 0x997 JUMP JUMPDEST PUSH1 0x0 DUP1 MLOAD PUSH1 0x20 PUSH2 0x21EC DUP4 CODECOPY DUP2 MLOAD SWAP2 MSTORE SLOAD PUSH1 0x1 PUSH1 0x1 PUSH1 0xA0 SHL SUB AND EQ ISZERO SWAP1 POP DUP4 PUSH2 0x844 JUMP JUMPDEST CALLVALUE PUSH2 0x48C JUMPI PUSH1 0x20 CALLDATASIZE PUSH1 0x3 NOT ADD SLT PUSH2 0x48C JUMPI PUSH1 0x4 CALLDATALOAD PUSH8 0xFFFFFFFFFFFFFFFF DUP2 GT PUSH2 0x48C JUMPI PUSH2 0xA12 PUSH1 0x20 SWAP2 CALLDATASIZE SWAP1 PUSH1 0x4 ADD PUSH2 0xABD JUMP JUMPDEST DUP2 PUSH2 0xA26 PUSH1 0x40 MLOAD SWAP3 DUP4 DUP2 MLOAD SWAP4 DUP5 SWAP3 ADD PUSH2 0xADB JUMP JUMPDEST PUSH1 0x0 SWAP1 DUP3 ADD SWAP1 DUP2 MSTORE DUP2 SWAP1 SUB DUP3 ADD SWAP1 KECCAK256 SLOAD PUSH1 0x40 MLOAD PUSH1 0x1 PUSH1 0x1 PUSH1 0xA0 SHL SUB SWAP1 SWAP2 AND DUP2 MSTORE RETURN JUMPDEST SWAP1 PUSH1 0x1F DUP1 NOT SWAP2 ADD AND DUP2 ADD SWAP1 DUP2 LT PUSH8 0xFFFFFFFFFFFFFFFF DUP3 GT OR PUSH2 0x419 JUMPI PUSH1 0x40 MSTORE JUMP JUMPDEST PUSH8 0xFFFFFFFFFFFFFFFF DUP2 GT PUSH2 0x419 JUMPI PUSH1 0x1F ADD PUSH1 0x1F NOT AND PUSH1 0x20 ADD SWAP1 JUMP JUMPDEST SWAP3 SWAP2 SWAP3 PUSH2 0xA92 DUP3 PUSH2 0xA6A JUMP JUMPDEST SWAP2 PUSH2 0xAA0 PUSH1 0x40 MLOAD SWAP4 DUP5 PUSH2 0xA48 JUMP JUMPDEST DUP3 SWAP5 DUP2 DUP5 MSTORE DUP2 DUP4 ADD GT PUSH2 0x48C JUMPI DUP3 DUP2 PUSH1 0x20 SWAP4 DUP5 PUSH1 0x0 SWAP7 ADD CALLDATACOPY ADD ADD MSTORE JUMP JUMPDEST SWAP1 DUP1 PUSH1 0x1F DUP4 ADD SLT ISZERO PUSH2 0x48C JUMPI DUP2 PUSH1 0x20 PUSH2 0xAD8 SWAP4 CALLDATALOAD SWAP2 ADD PUSH2 0xA86 JUMP JUMPDEST SWAP1 JUMP JUMPDEST PUSH1 0x0 JUMPDEST DUP4 DUP2 LT PUSH2 0xAEE JUMPI POP POP PUSH1 0x0 SWAP2 ADD MSTORE JUMP JUMPDEST DUP2 DUP2 ADD MLOAD DUP4 DUP3 ADD MSTORE PUSH1 0x20 ADD PUSH2 0xADE JUMP JUMPDEST PUSH1 0x4 CALLDATALOAD SWAP1 PUSH1 0x1 PUSH1 0x1 PUSH1 0xA0 SHL SUB DUP3 AND DUP3 SUB PUSH2 0x48C JUMPI JUMP JUMPDEST SWAP1 PUSH1 0x20 SWAP2 PUSH2 0xB2D DUP2 MLOAD DUP1 SWAP3 DUP2 DUP6 MSTORE DUP6 DUP1 DUP7 ADD SWAP2 ADD PUSH2 0xADB JUMP JUMPDEST PUSH1 0x1F ADD PUSH1 0x1F NOT AND ADD ADD SWAP1 JUMP JUMPDEST PUSH1 0x1 PUSH1 0x1 PUSH1 0xA0 SHL SUB AND DUP1 ISZERO PUSH2 0xB99 JUMPI PUSH1 0x0 DUP1 MLOAD PUSH1 0x20 PUSH2 0x21CC DUP4 CODECOPY DUP2 MLOAD SWAP2 MSTORE DUP1 SLOAD PUSH1 0x1 PUSH1 0x1 PUSH1 0xA0 SHL SUB NOT DUP2 AND DUP4 OR SWAP1 SWAP2 SSTORE PUSH1 0x1 PUSH1 0x1 PUSH1 0xA0 SHL SUB AND PUSH32 0x8BE0079C531659141344CD1FD0A4F28419497F9722A3DAAFE3B4186F6B6457E0 PUSH1 0x0 DUP1 LOG3 JUMP JUMPDEST PUSH4 0x1E4FBDF7 PUSH1 0xE0 SHL PUSH1 0x0 MSTORE PUSH1 0x0 PUSH1 0x4 MSTORE PUSH1 0x24 PUSH1 0x0 REVERT JUMPDEST PUSH1 0x0 DUP1 MLOAD PUSH1 0x20 PUSH2 0x21CC DUP4 CODECOPY DUP2 MLOAD SWAP2 MSTORE SLOAD PUSH1 0x1 PUSH1 0x1 PUSH1 0xA0 SHL SUB AND CALLER SUB PUSH2 0xBD0 JUMPI JUMP JUMPDEST PUSH4 0x118CDAA7 PUSH1 0xE0 SHL PUSH1 0x0 MSTORE CALLER PUSH1 0x4 MSTORE PUSH1 0x24 PUSH1 0x0 REVERT JUMPDEST SWAP1 DUP2 MLOAD DUP2 LT ISZERO PUSH2 0xBF6 JUMPI ADD PUSH1 0x20 ADD SWAP1 JUMP JUMPDEST PUSH4 0x4E487B71 PUSH1 0xE0 SHL PUSH1 0x0 MSTORE PUSH1 0x32 PUSH1 0x4 MSTORE PUSH1 0x24 PUSH1 0x0 REVERT JUMPDEST PUSH3 0x989680 DUP2 LT ISZERO PUSH2 0xCC2 JUMPI PUSH3 0xF4240 DUP2 LT ISZERO PUSH2 0xC8F JUMPI PUSH3 0x186A0 GT ISZERO PUSH2 0xC5B JUMPI PUSH1 0x40 MLOAD PUSH2 0xC3A PUSH1 0x40 DUP3 PUSH2 0xA48 JUMP JUMPDEST PUSH1 0x11 DUP2 MSTORE PUSH17 0x526973696E672053746172204261646765 PUSH1 0x78 SHL PUSH1 0x20 DUP3 ADD MSTORE SWAP1 JUMP JUMPDEST PUSH1 0x40 MLOAD PUSH2 0xC69 PUSH1 0x40 DUP3 PUSH2 0xA48 JUMP JUMPDEST PUSH1 0x16 DUP2 MSTORE PUSH22 0x3130304B205375627363726962657273204261646765 PUSH1 0x50 SHL PUSH1 0x20 DUP3 ADD MSTORE SWAP1 JUMP JUMPDEST POP PUSH1 0x40 MLOAD PUSH2 0xC9E PUSH1 0x40 DUP3 PUSH2 0xA48 JUMP JUMPDEST PUSH1 0x14 DUP2 MSTORE PUSH20 0x314D205375627363726962657273204261646765 PUSH1 0x60 SHL PUSH1 0x20 DUP3 ADD MSTORE SWAP1 JUMP JUMPDEST POP PUSH1 0x40 MLOAD PUSH2 0xCD1 PUSH1 0x40 DUP3 PUSH2 0xA48 JUMP JUMPDEST PUSH1 0x15 DUP2 MSTORE PUSH21 0x31304D205375627363726962657273204261646765 PUSH1 0x58 SHL PUSH1 0x20 DUP3 ADD MSTORE SWAP1 JUMP JUMPDEST PUSH1 0xFF PUSH1 0x0 DUP1 MLOAD PUSH1 0x20 PUSH2 0x220C DUP4 CODECOPY DUP2 MLOAD SWAP2 MSTORE SLOAD PUSH1 0x40 SHR AND ISZERO PUSH2 0xD13 JUMPI JUMP JUMPDEST PUSH4 0x1AFCD79F PUSH1 0xE3 SHL PUSH1 0x0 MSTORE PUSH1 0x4 PUSH1 0x0 REVERT JUMPDEST SWAP1 PUSH2 0xD4A JUMPI POP DUP1 MLOAD ISZERO PUSH2 0xD39 JUMPI DUP1 MLOAD SWAP1 PUSH1 0x20 ADD REVERT JUMPDEST PUSH4 0xD6BDA275 PUSH1 0xE0 SHL PUSH1 0x0 MSTORE PUSH1 0x4 PUSH1 0x0 REVERT JUMPDEST DUP2 MLOAD ISZERO DUP1 PUSH2 0xD7C JUMPI JUMPDEST PUSH2 0xD5B JUMPI POP SWAP1 JUMP JUMPDEST PUSH4 0x9996B315 PUSH1 0xE0 SHL PUSH1 0x0 SWAP1 DUP2 MSTORE PUSH1 0x1 PUSH1 0x1 PUSH1 0xA0 SHL SUB SWAP2 SWAP1 SWAP2 AND PUSH1 0x4 MSTORE PUSH1 0x24 SWAP1 REVERT JUMPDEST POP DUP1 EXTCODESIZE ISZERO PUSH2 0xD53 JUMP INVALID PUSH1 0x80 PUSH1 0x40 MSTORE CALLVALUE PUSH2 0x987 JUMPI PUSH2 0x1446 DUP1 CODESIZE SUB DUP1 PUSH2 0x19 DUP2 PUSH2 0x98C JUMP JUMPDEST SWAP3 DUP4 CODECOPY DUP2 ADD SWAP1 PUSH2 0x120 DUP2 DUP4 SUB SLT PUSH2 0x987 JUMPI DUP1 MLOAD PUSH1 0x1 PUSH1 0x1 PUSH1 0x40 SHL SUB DUP2 GT PUSH2 0x987 JUMPI DUP3 PUSH2 0x46 SWAP2 DUP4 ADD PUSH2 0x9B1 JUMP JUMPDEST PUSH1 0x20 DUP3 ADD MLOAD SWAP1 SWAP2 SWAP1 PUSH1 0x1 PUSH1 0x1 PUSH1 0x40 SHL SUB DUP2 GT PUSH2 0x987 JUMPI DUP4 PUSH2 0x68 SWAP2 DUP4 ADD PUSH2 0x9B1 JUMP JUMPDEST PUSH1 0x40 DUP3 ADD MLOAD SWAP1 SWAP4 SWAP1 PUSH1 0x1 PUSH1 0x1 PUSH1 0x40 SHL SUB DUP2 GT PUSH2 0x987 JUMPI DUP2 PUSH2 0x8A SWAP2 DUP5 ADD PUSH2 0x9B1 JUMP JUMPDEST PUSH1 0x60 DUP4 ADD MLOAD PUSH1 0x1 PUSH1 0x1 PUSH1 0x40 SHL SUB DUP2 GT PUSH2 0x987 JUMPI DUP3 PUSH2 0xA9 SWAP2 DUP6 ADD PUSH2 0x9B1 JUMP JUMPDEST PUSH1 0x80 DUP5 ADD MLOAD PUSH1 0x1 PUSH1 0x1 PUSH1 0x40 SHL SUB DUP2 GT PUSH2 0x987 JUMPI DUP4 PUSH2 0xC8 SWAP2 DUP7 ADD PUSH2 0x9B1 JUMP JUMPDEST PUSH1 0xA0 DUP6 ADD MLOAD PUSH1 0xC0 DUP7 ADD MLOAD SWAP1 SWAP5 SWAP2 SWAP4 SWAP2 PUSH1 0x1 PUSH1 0x1 PUSH1 0x40 SHL SUB DUP3 GT PUSH2 0x987 JUMPI PUSH2 0xF0 SWAP2 DUP8 ADD PUSH2 0x9B1 JUMP JUMPDEST SWAP7 PUSH2 0x100 PUSH1 0xE0 DUP8 ADD MLOAD SWAP7 ADD MLOAD SWAP7 PUSH1 0x1 DUP1 PUSH1 0xA0 SHL SUB DUP9 AND DUP1 SWAP9 SUB PUSH2 0x987 JUMPI DUP1 MLOAD SWAP1 PUSH1 0x1 PUSH1 0x1 PUSH1 0x40 SHL SUB DUP3 GT PUSH2 0x4EC JUMPI PUSH1 0x3 SLOAD SWAP1 PUSH1 0x1 DUP3 DUP2 SHR SWAP3 AND DUP1 ISZERO PUSH2 0x97D JUMPI JUMPDEST PUSH1 0x20 DUP4 LT EQ PUSH2 0x4CC JUMPI DUP2 PUSH1 0x1F DUP5 SWAP4 GT PUSH2 0x90D JUMPI JUMPDEST POP PUSH1 0x20 SWAP1 PUSH1 0x1F DUP4 GT PUSH1 0x1 EQ PUSH2 0x8A5 JUMPI PUSH1 0x0 SWAP3 PUSH2 0x89A JUMPI JUMPDEST POP POP DUP2 PUSH1 0x1 SHL SWAP2 PUSH1 0x0 NOT SWAP1 PUSH1 0x3 SHL SHR NOT AND OR PUSH1 0x3 SSTORE JUMPDEST DUP1 MLOAD SWAP1 PUSH1 0x1 PUSH1 0x1 PUSH1 0x40 SHL SUB DUP3 GT PUSH2 0x4EC JUMPI PUSH1 0x4 SLOAD SWAP1 PUSH1 0x1 DUP3 DUP2 SHR SWAP3 AND DUP1 ISZERO PUSH2 0x890 JUMPI JUMPDEST PUSH1 0x20 DUP4 LT EQ PUSH2 0x4CC JUMPI DUP2 PUSH1 0x1F DUP5 SWAP4 GT PUSH2 0x820 JUMPI JUMPDEST POP PUSH1 0x20 SWAP1 PUSH1 0x1F DUP4 GT PUSH1 0x1 EQ PUSH2 0x7B8 JUMPI PUSH1 0x0 SWAP3 PUSH2 0x7AD JUMPI JUMPDEST POP POP DUP2 PUSH1 0x1 SHL SWAP2 PUSH1 0x0 NOT SWAP1 PUSH1 0x3 SHL SHR NOT AND OR PUSH1 0x4 SSTORE JUMPDEST DUP1 MLOAD SWAP1 PUSH1 0x1 PUSH1 0x1 PUSH1 0x40 SHL SUB DUP3 GT PUSH2 0x4EC JUMPI PUSH1 0x5 SLOAD SWAP1 PUSH1 0x1 DUP3 DUP2 SHR SWAP3 AND DUP1 ISZERO PUSH2 0x7A3 JUMPI JUMPDEST PUSH1 0x20 DUP4 LT EQ PUSH2 0x4CC JUMPI DUP2 PUSH1 0x1F DUP5 SWAP4 GT PUSH2 0x74F JUMPI JUMPDEST POP PUSH1 0x20 SWAP1 PUSH1 0x1F DUP4 GT PUSH1 0x1 EQ PUSH2 0x6E7 JUMPI PUSH1 0x0 SWAP3 PUSH2 0x6DC JUMPI JUMPDEST POP POP DUP2 PUSH1 0x1 SHL SWAP2 PUSH1 0x0 NOT SWAP1 PUSH1 0x3 SHL SHR NOT AND OR PUSH1 0x5 SSTORE JUMPDEST DUP1 MLOAD SWAP1 PUSH1 0x1 PUSH1 0x1 PUSH1 0x40 SHL SUB DUP3 GT PUSH2 0x4EC JUMPI PUSH1 0x6 SLOAD SWAP1 PUSH1 0x1 DUP3 DUP2 SHR SWAP3 AND DUP1 ISZERO PUSH2 0x6D2 JUMPI JUMPDEST PUSH1 0x20 DUP4 LT EQ PUSH2 0x4CC JUMPI DUP2 PUSH1 0x1F DUP5 SWAP4 GT PUSH2 0x662 JUMPI JUMPDEST POP PUSH1 0x20 SWAP1 PUSH1 0x1F DUP4 GT PUSH1 0x1 EQ PUSH2 0x5FA JUMPI PUSH1 0x0 SWAP3 PUSH2 0x5EF JUMPI JUMPDEST POP POP DUP2 PUSH1 0x1 SHL SWAP2 PUSH1 0x0 NOT SWAP1 PUSH1 0x3 SHL SHR NOT AND OR PUSH1 0x6 SSTORE JUMPDEST DUP1 MLOAD SWAP1 PUSH1 0x1 PUSH1 0x1 PUSH1 0x40 SHL SUB DUP3 GT PUSH2 0x4EC JUMPI PUSH1 0x7 SLOAD SWAP1 PUSH1 0x1 DUP3 DUP2 SHR SWAP3 AND DUP1 ISZERO PUSH2 0x5E5 JUMPI JUMPDEST PUSH1 0x20 DUP4 LT EQ PUSH2 0x4CC JUMPI DUP2 PUSH1 0x1F DUP5 SWAP4 GT PUSH2 0x575 JUMPI JUMPDEST POP PUSH1 0x20 SWAP1 PUSH1 0x1F DUP4 GT PUSH1 0x1 EQ PUSH2 0x50D JUMPI PUSH1 0x0 SWAP3 PUSH2 0x502 JUMPI JUMPDEST POP POP DUP2 PUSH1 0x1 SHL SWAP2 PUSH1 0x0 NOT SWAP1 PUSH1 0x3 SHL SHR NOT AND OR PUSH1 0x7 SSTORE JUMPDEST PUSH1 0x8 SSTORE DUP3 MLOAD PUSH1 0x1 PUSH1 0x1 PUSH1 0x40 SHL SUB DUP2 GT PUSH2 0x4EC JUMPI PUSH1 0x9 SLOAD PUSH1 0x1 DUP2 DUP2 SHR SWAP2 AND DUP1 ISZERO PUSH2 0x4E2 JUMPI JUMPDEST PUSH1 0x20 DUP3 LT EQ PUSH2 0x4CC JUMPI PUSH1 0x1F DUP2 GT PUSH2 0x467 JUMPI JUMPDEST POP PUSH1 0x20 PUSH1 0x1F DUP3 GT PUSH1 0x1 EQ PUSH2 0x400 JUMPI DUP2 SWAP3 SWAP4 SWAP5 PUSH1 0x0 SWAP3 PUSH2 0x3F5 JUMPI JUMPDEST POP POP DUP2 PUSH1 0x1 SHL SWAP2 PUSH1 0x0 NOT SWAP1 PUSH1 0x3 SHL SHR NOT AND OR PUSH1 0x9 SSTORE JUMPDEST DUP2 ISZERO PUSH2 0x3DF JUMPI PUSH1 0x2 SLOAD DUP2 DUP2 ADD DUP1 SWAP2 GT PUSH2 0x3C9 JUMPI PUSH1 0x2 SSTORE PUSH32 0xDDF252AD1BE2C89B69C2B068FC378DAA952BA7F163C4A11628F55A4DF523B3EF PUSH1 0x20 PUSH1 0x0 SWAP3 DUP5 DUP5 MSTORE DUP4 DUP3 MSTORE PUSH1 0x40 DUP5 KECCAK256 DUP2 DUP2 SLOAD ADD SWAP1 SSTORE PUSH1 0x40 MLOAD SWAP1 DUP2 MSTORE LOG3 PUSH1 0x40 MLOAD PUSH2 0xA29 SWAP1 DUP2 PUSH2 0xA1D DUP3 CODECOPY RETURN JUMPDEST PUSH4 0x4E487B71 PUSH1 0xE0 SHL PUSH1 0x0 MSTORE PUSH1 0x11 PUSH1 0x4 MSTORE PUSH1 0x24 PUSH1 0x0 REVERT JUMPDEST PUSH4 0xEC442F05 PUSH1 0xE0 SHL PUSH1 0x0 MSTORE PUSH1 0x0 PUSH1 0x4 MSTORE PUSH1 0x24 PUSH1 0x0 REVERT JUMPDEST ADD MLOAD SWAP1 POP CODESIZE DUP1 PUSH2 0x351 JUMP JUMPDEST PUSH1 0x1F NOT DUP3 AND SWAP1 PUSH1 0x9 PUSH1 0x0 MSTORE DUP1 PUSH1 0x0 KECCAK256 SWAP2 PUSH1 0x0 JUMPDEST DUP2 DUP2 LT PUSH2 0x44F JUMPI POP SWAP6 DUP4 PUSH1 0x1 SWAP6 SWAP7 SWAP8 LT PUSH2 0x436 JUMPI JUMPDEST POP POP POP DUP2 SHL ADD PUSH1 0x9 SSTORE PUSH2 0x367 JUMP JUMPDEST ADD MLOAD PUSH1 0x0 NOT PUSH1 0xF8 DUP5 PUSH1 0x3 SHL AND SHR NOT AND SWAP1 SSTORE CODESIZE DUP1 DUP1 PUSH2 0x428 JUMP JUMPDEST SWAP2 SWAP3 PUSH1 0x20 PUSH1 0x1 DUP2 SWAP3 DUP7 DUP12 ADD MLOAD DUP2 SSTORE ADD SWAP5 ADD SWAP3 ADD PUSH2 0x413 JUMP JUMPDEST PUSH1 0x9 PUSH1 0x0 MSTORE PUSH32 0x6E1540171B6C0C960B71A7020D9F60077F6AF931A8BBF590DA0223DACF75C7AF PUSH1 0x1F DUP4 ADD PUSH1 0x5 SHR DUP2 ADD SWAP2 PUSH1 0x20 DUP5 LT PUSH2 0x4C2 JUMPI JUMPDEST PUSH1 0x1F ADD PUSH1 0x5 SHR ADD SWAP1 JUMPDEST DUP2 DUP2 LT PUSH2 0x4B6 JUMPI POP PUSH2 0x337 JUMP JUMPDEST PUSH1 0x0 DUP2 SSTORE PUSH1 0x1 ADD PUSH2 0x4A9 JUMP JUMPDEST SWAP1 SWAP2 POP DUP2 SWAP1 PUSH2 0x4A0 JUMP JUMPDEST PUSH4 0x4E487B71 PUSH1 0xE0 SHL PUSH1 0x0 MSTORE PUSH1 0x22 PUSH1 0x4 MSTORE PUSH1 0x24 PUSH1 0x0 REVERT JUMPDEST SWAP1 PUSH1 0x7F AND SWAP1 PUSH2 0x325 JUMP JUMPDEST PUSH4 0x4E487B71 PUSH1 0xE0 SHL PUSH1 0x0 MSTORE PUSH1 0x41 PUSH1 0x4 MSTORE PUSH1 0x24 PUSH1 0x0 REVERT JUMPDEST ADD MLOAD SWAP1 POP CODESIZE DUP1 PUSH2 0x2EB JUMP JUMPDEST PUSH1 0x7 PUSH1 0x0 SWAP1 DUP2 MSTORE DUP3 DUP2 KECCAK256 SWAP4 POP PUSH1 0x1F NOT DUP6 AND SWAP1 JUMPDEST DUP2 DUP2 LT PUSH2 0x55D JUMPI POP SWAP1 DUP5 PUSH1 0x1 SWAP6 SWAP5 SWAP4 SWAP3 LT PUSH2 0x544 JUMPI JUMPDEST POP POP POP DUP2 SHL ADD PUSH1 0x7 SSTORE PUSH2 0x301 JUMP JUMPDEST ADD MLOAD PUSH1 0x0 NOT PUSH1 0xF8 DUP5 PUSH1 0x3 SHL AND SHR NOT AND SWAP1 SSTORE CODESIZE DUP1 DUP1 PUSH2 0x536 JUMP JUMPDEST SWAP3 SWAP4 PUSH1 0x20 PUSH1 0x1 DUP2 SWAP3 DUP8 DUP7 ADD MLOAD DUP2 SSTORE ADD SWAP6 ADD SWAP4 ADD PUSH2 0x520 JUMP JUMPDEST PUSH1 0x7 PUSH1 0x0 MSTORE SWAP1 SWAP2 POP PUSH32 0xA66CC928B5EDB82AF9BD49922954155AB7B0942694BEA4CE44661D9A8736C688 PUSH1 0x1F DUP5 ADD PUSH1 0x5 SHR DUP2 ADD SWAP2 PUSH1 0x20 DUP6 LT PUSH2 0x5DB JUMPI JUMPDEST SWAP1 PUSH1 0x1F DUP6 SWAP5 SWAP4 SWAP3 ADD PUSH1 0x5 SHR ADD SWAP1 JUMPDEST DUP2 DUP2 LT PUSH2 0x5CC JUMPI POP PUSH2 0x2D4 JUMP JUMPDEST PUSH1 0x0 DUP2 SSTORE DUP5 SWAP4 POP PUSH1 0x1 ADD PUSH2 0x5BF JUMP JUMPDEST SWAP1 SWAP2 POP DUP2 SWAP1 PUSH2 0x5B1 JUMP JUMPDEST SWAP2 PUSH1 0x7F AND SWAP2 PUSH2 0x2C0 JUMP JUMPDEST ADD MLOAD SWAP1 POP CODESIZE DUP1 PUSH2 0x287 JUMP JUMPDEST PUSH1 0x6 PUSH1 0x0 SWAP1 DUP2 MSTORE DUP3 DUP2 KECCAK256 SWAP4 POP PUSH1 0x1F NOT DUP6 AND SWAP1 JUMPDEST DUP2 DUP2 LT PUSH2 0x64A JUMPI POP SWAP1 DUP5 PUSH1 0x1 SWAP6 SWAP5 SWAP4 SWAP3 LT PUSH2 0x631 JUMPI JUMPDEST POP POP POP DUP2 SHL ADD PUSH1 0x6 SSTORE PUSH2 0x29D JUMP JUMPDEST ADD MLOAD PUSH1 0x0 NOT PUSH1 0xF8 DUP5 PUSH1 0x3 SHL AND SHR NOT AND SWAP1 SSTORE CODESIZE DUP1 DUP1 PUSH2 0x623 JUMP JUMPDEST SWAP3 SWAP4 PUSH1 0x20 PUSH1 0x1 DUP2 SWAP3 DUP8 DUP7 ADD MLOAD DUP2 SSTORE ADD SWAP6 ADD SWAP4 ADD PUSH2 0x60D JUMP JUMPDEST PUSH1 0x6 PUSH1 0x0 MSTORE SWAP1 SWAP2 POP PUSH32 0xF652222313E28459528D920B65115C16C04F3EFC82AAEDC97BE59F3F377C0D3F PUSH1 0x1F DUP5 ADD PUSH1 0x5 SHR DUP2 ADD SWAP2 PUSH1 0x20 DUP6 LT PUSH2 0x6C8 JUMPI JUMPDEST SWAP1 PUSH1 0x1F DUP6 SWAP5 SWAP4 SWAP3 ADD PUSH1 0x5 SHR ADD SWAP1 JUMPDEST DUP2 DUP2 LT PUSH2 0x6B9 JUMPI POP PUSH2 0x270 JUMP JUMPDEST PUSH1 0x0 DUP2 SSTORE DUP5 SWAP4 POP PUSH1 0x1 ADD PUSH2 0x6AC JUMP JUMPDEST SWAP1 SWAP2 POP DUP2 SWAP1 PUSH2 0x69E JUMP JUMPDEST SWAP2 PUSH1 0x7F AND SWAP2 PUSH2 0x25C JUMP JUMPDEST ADD MLOAD SWAP1 POP CODESIZE DUP1 PUSH2 0x223 JUMP JUMPDEST PUSH1 0x5 PUSH1 0x0 SWAP1 DUP2 MSTORE DUP3 DUP2 KECCAK256 SWAP4 POP PUSH1 0x1F NOT DUP6 AND SWAP1 JUMPDEST DUP2 DUP2 LT PUSH2 0x737 JUMPI POP SWAP1 DUP5 PUSH1 0x1 SWAP6 SWAP5 SWAP4 SWAP3 LT PUSH2 0x71E JUMPI JUMPDEST POP POP POP DUP2 SHL ADD PUSH1 0x5 SSTORE PUSH2 0x239 JUMP JUMPDEST ADD MLOAD PUSH1 0x0 NOT PUSH1 0xF8 DUP5 PUSH1 0x3 SHL AND SHR NOT AND SWAP1 SSTORE CODESIZE DUP1 DUP1 PUSH2 0x710 JUMP JUMPDEST SWAP3 SWAP4 PUSH1 0x20 PUSH1 0x1 DUP2 SWAP3 DUP8 DUP7 ADD MLOAD DUP2 SSTORE ADD SWAP6 ADD SWAP4 ADD PUSH2 0x6FA JUMP JUMPDEST SWAP1 SWAP2 POP PUSH1 0x5 PUSH1 0x0 MSTORE PUSH1 0x20 PUSH1 0x0 KECCAK256 PUSH1 0x1F DUP5 ADD PUSH1 0x5 SHR DUP2 ADD SWAP2 PUSH1 0x20 DUP6 LT PUSH2 0x799 JUMPI JUMPDEST SWAP1 PUSH1 0x1F DUP6 SWAP5 SWAP4 SWAP3 ADD PUSH1 0x5 SHR ADD SWAP1 JUMPDEST DUP2 DUP2 LT PUSH2 0x78A JUMPI POP PUSH2 0x20C JUMP JUMPDEST PUSH1 0x0 DUP2 SSTORE DUP5 SWAP4 POP PUSH1 0x1 ADD PUSH2 0x77D JUMP JUMPDEST SWAP1 SWAP2 POP DUP2 SWAP1 PUSH2 0x76F JUMP JUMPDEST SWAP2 PUSH1 0x7F AND SWAP2 PUSH2 0x1F8 JUMP JUMPDEST ADD MLOAD SWAP1 POP CODESIZE DUP1 PUSH2 0x1BF JUMP JUMPDEST PUSH1 0x4 PUSH1 0x0 SWAP1 DUP2 MSTORE DUP3 DUP2 KECCAK256 SWAP4 POP PUSH1 0x1F NOT DUP6 AND SWAP1 JUMPDEST DUP2 DUP2 LT PUSH2 0x808 JUMPI POP SWAP1 DUP5 PUSH1 0x1 SWAP6 SWAP5 SWAP4 SWAP3 LT PUSH2 0x7EF JUMPI JUMPDEST POP POP POP DUP2 SHL ADD PUSH1 0x4 SSTORE PUSH2 0x1D5 JUMP JUMPDEST ADD MLOAD PUSH1 0x0 NOT PUSH1 0xF8 DUP5 PUSH1 0x3 SHL AND SHR NOT AND SWAP1 SSTORE CODESIZE DUP1 DUP1 PUSH2 0x7E1 JUMP JUMPDEST SWAP3 SWAP4 PUSH1 0x20 PUSH1 0x1 DUP2 SWAP3 DUP8 DUP7 ADD MLOAD DUP2 SSTORE ADD SWAP6 ADD SWAP4 ADD PUSH2 0x7CB JUMP JUMPDEST PUSH1 0x4 PUSH1 0x0 MSTORE SWAP1 SWAP2 POP PUSH32 0x8A35ACFBC15FF81A39AE7D344FD709F28E8600B4AA8C65C6B64BFE7FE36BD19B PUSH1 0x1F DUP5 ADD PUSH1 0x5 SHR DUP2 ADD SWAP2 PUSH1 0x20 DUP6 LT PUSH2 0x886 JUMPI JUMPDEST SWAP1 PUSH1 0x1F DUP6 SWAP5 SWAP4 SWAP3 ADD PUSH1 0x5 SHR ADD SWAP1 JUMPDEST DUP2 DUP2 LT PUSH2 0x877 JUMPI POP PUSH2 0x1A8 JUMP JUMPDEST PUSH1 0x0 DUP2 SSTORE DUP5 SWAP4 POP PUSH1 0x1 ADD PUSH2 0x86A JUMP JUMPDEST SWAP1 SWAP2 POP DUP2 SWAP1 PUSH2 0x85C JUMP JUMPDEST SWAP2 PUSH1 0x7F AND SWAP2 PUSH2 0x194 JUMP JUMPDEST ADD MLOAD SWAP1 POP CODESIZE DUP1 PUSH2 0x15B JUMP JUMPDEST PUSH1 0x3 PUSH1 0x0 SWAP1 DUP2 MSTORE DUP3 DUP2 KECCAK256 SWAP4 POP PUSH1 0x1F NOT DUP6 AND SWAP1 JUMPDEST DUP2 DUP2 LT PUSH2 0x8F5 JUMPI POP SWAP1 DUP5 PUSH1 0x1 SWAP6 SWAP5 SWAP4 SWAP3 LT PUSH2 0x8DC JUMPI JUMPDEST POP POP POP DUP2 SHL ADD PUSH1 0x3 SSTORE PUSH2 0x171 JUMP JUMPDEST ADD MLOAD PUSH1 0x0 NOT PUSH1 0xF8 DUP5 PUSH1 0x3 SHL AND SHR NOT AND SWAP1 SSTORE CODESIZE DUP1 DUP1 PUSH2 0x8CE JUMP JUMPDEST SWAP3 SWAP4 PUSH1 0x20 PUSH1 0x1 DUP2 SWAP3 DUP8 DUP7 ADD MLOAD DUP2 SSTORE ADD SWAP6 ADD SWAP4 ADD PUSH2 0x8B8 JUMP JUMPDEST PUSH1 0x3 PUSH1 0x0 MSTORE SWAP1 SWAP2 POP PUSH32 0xC2575A0E9E593C00F959F8C92F12DB2869C3395A3B0502D05E2516446F71F85B PUSH1 0x1F DUP5 ADD PUSH1 0x5 SHR DUP2 ADD SWAP2 PUSH1 0x20 DUP6 LT PUSH2 0x973 JUMPI JUMPDEST SWAP1 PUSH1 0x1F DUP6 SWAP5 SWAP4 SWAP3 ADD PUSH1 0x5 SHR ADD SWAP1 JUMPDEST DUP2 DUP2 LT PUSH2 0x964 JUMPI POP PUSH2 0x144 JUMP JUMPDEST PUSH1 0x0 DUP2 SSTORE DUP5 SWAP4 POP PUSH1 0x1 ADD PUSH2 0x957 JUMP JUMPDEST SWAP1 SWAP2 POP DUP2 SWAP1 PUSH2 0x949 JUMP JUMPDEST SWAP2 PUSH1 0x7F AND SWAP2 PUSH2 0x130 JUMP JUMPDEST PUSH1 0x0 DUP1 REVERT JUMPDEST PUSH1 0x40 MLOAD SWAP2 SWAP1 PUSH1 0x1F ADD PUSH1 0x1F NOT AND DUP3 ADD PUSH1 0x1 PUSH1 0x1 PUSH1 0x40 SHL SUB DUP2 GT DUP4 DUP3 LT OR PUSH2 0x4EC JUMPI PUSH1 0x40 MSTORE JUMP JUMPDEST DUP2 PUSH1 0x1F DUP3 ADD SLT ISZERO PUSH2 0x987 JUMPI DUP1 MLOAD SWAP1 PUSH1 0x1 PUSH1 0x1 PUSH1 0x40 SHL SUB DUP3 GT PUSH2 0x4EC JUMPI PUSH2 0x9E0 PUSH1 0x1F DUP4 ADD PUSH1 0x1F NOT AND PUSH1 0x20 ADD PUSH2 0x98C JUMP JUMPDEST SWAP3 DUP3 DUP5 MSTORE PUSH1 0x20 DUP4 DUP4 ADD ADD GT PUSH2 0x987 JUMPI PUSH1 0x0 JUMPDEST DUP3 DUP2 LT PUSH2 0xA07 JUMPI POP POP PUSH1 0x20 PUSH1 0x0 SWAP2 DUP4 ADD ADD MSTORE SWAP1 JUMP JUMPDEST DUP1 PUSH1 0x20 DUP1 SWAP3 DUP5 ADD ADD MLOAD DUP3 DUP3 DUP8 ADD ADD MSTORE ADD PUSH2 0x9F2 JUMP INVALID PUSH1 0x80 PUSH1 0x40 MSTORE PUSH1 0x4 CALLDATASIZE LT ISZERO PUSH2 0x12 JUMPI PUSH1 0x0 DUP1 REVERT JUMPDEST PUSH1 0x0 CALLDATALOAD PUSH1 0xE0 SHR DUP1 PUSH4 0x6FDDE03 EQ PUSH2 0x7E1 JUMPI DUP1 PUSH4 0x95EA7B3 EQ PUSH2 0x75B JUMPI DUP1 PUSH4 0x18160DDD EQ PUSH2 0x73D JUMPI DUP1 PUSH4 0x1F6F90BD EQ PUSH2 0x665 JUMPI DUP1 PUSH4 0x23B872DD EQ PUSH2 0x578 JUMPI DUP1 PUSH4 0x313CE567 EQ PUSH2 0x55C JUMPI DUP1 PUSH4 0x70A08231 EQ PUSH2 0x522 JUMPI DUP1 PUSH4 0x95D89B41 EQ PUSH2 0x44A JUMPI DUP1 PUSH4 0x9E2CE9D2 EQ PUSH2 0x42C JUMPI DUP1 PUSH4 0xA9059CBB EQ PUSH2 0x3FB JUMPI DUP1 PUSH4 0xB90497E0 EQ PUSH2 0x323 JUMPI DUP1 PUSH4 0xDBAC7806 EQ PUSH2 0x22F JUMPI DUP1 PUSH4 0xDD62ED3E EQ PUSH2 0x1DE JUMPI PUSH4 0xE12AFC1B EQ PUSH2 0xB6 JUMPI PUSH1 0x0 DUP1 REVERT JUMPDEST CALLVALUE PUSH2 0x1D9 JUMPI PUSH1 0x0 CALLDATASIZE PUSH1 0x3 NOT ADD SLT PUSH2 0x1D9 JUMPI PUSH1 0x40 MLOAD PUSH1 0x0 PUSH1 0x7 SLOAD DUP1 PUSH1 0x1 SHR SWAP1 PUSH1 0x1 DUP2 AND DUP1 ISZERO PUSH2 0x1CF JUMPI JUMPDEST PUSH1 0x20 DUP4 LT DUP2 EQ PUSH2 0x1BB JUMPI DUP3 DUP6 MSTORE SWAP1 DUP2 ISZERO PUSH2 0x19F JUMPI POP PUSH1 0x1 EQ PUSH2 0x148 JUMPI JUMPDEST POP DUP2 SWAP1 SUB PUSH1 0x1F ADD PUSH1 0x1F NOT AND DUP2 ADD SWAP1 PUSH8 0xFFFFFFFFFFFFFFFF DUP3 GT DUP2 DUP4 LT OR PUSH2 0x132 JUMPI PUSH1 0x40 DUP3 SWAP1 MSTORE DUP2 SWAP1 PUSH2 0x12E SWAP1 DUP3 PUSH2 0x8B9 JUMP JUMPDEST SUB SWAP1 RETURN JUMPDEST PUSH4 0x4E487B71 PUSH1 0xE0 SHL PUSH1 0x0 MSTORE PUSH1 0x41 PUSH1 0x4 MSTORE PUSH1 0x24 PUSH1 0x0 REVERT JUMPDEST PUSH1 0x7 PUSH1 0x0 SWAP1 DUP2 MSTORE SWAP1 SWAP2 POP PUSH32 0xA66CC928B5EDB82AF9BD49922954155AB7B0942694BEA4CE44661D9A8736C688 JUMPDEST DUP3 DUP3 LT PUSH2 0x189 JUMPI POP PUSH1 0x20 SWAP2 POP DUP3 ADD ADD CODESIZE PUSH2 0xFC JUMP JUMPDEST PUSH1 0x1 DUP2 PUSH1 0x20 SWAP3 SLOAD DUP4 DUP6 DUP9 ADD ADD MSTORE ADD SWAP2 ADD SWAP1 PUSH2 0x174 JUMP JUMPDEST SWAP1 POP PUSH1 0x20 SWAP3 POP PUSH1 0xFF NOT AND DUP3 DUP5 ADD MSTORE ISZERO ISZERO PUSH1 0x5 SHL DUP3 ADD ADD CODESIZE PUSH2 0xFC JUMP JUMPDEST PUSH4 0x4E487B71 PUSH1 0xE0 SHL DUP5 MSTORE PUSH1 0x22 PUSH1 0x4 MSTORE PUSH1 0x24 DUP5 REVERT JUMPDEST SWAP2 PUSH1 0x7F AND SWAP2 PUSH2 0xDF JUMP JUMPDEST PUSH1 0x0 DUP1 REVERT JUMPDEST CALLVALUE PUSH2 0x1D9 JUMPI PUSH1 0x40 CALLDATASIZE PUSH1 0x3 NOT ADD SLT PUSH2 0x1D9 JUMPI PUSH2 0x1F7 PUSH2 0x902 JUMP JUMPDEST PUSH2 0x1FF PUSH2 0x918 JUMP JUMPDEST PUSH1 0x1 PUSH1 0x1 PUSH1 0xA0 SHL SUB SWAP2 DUP3 AND PUSH1 0x0 SWAP1 DUP2 MSTORE PUSH1 0x1 PUSH1 0x20 SWAP1 DUP2 MSTORE PUSH1 0x40 DUP1 DUP4 KECCAK256 SWAP5 SWAP1 SWAP4 AND DUP3 MSTORE SWAP3 DUP4 MSTORE DUP2 SWAP1 KECCAK256 SLOAD SWAP1 MLOAD SWAP1 DUP2 MSTORE RETURN JUMPDEST CALLVALUE PUSH2 0x1D9 JUMPI PUSH1 0x0 CALLDATASIZE PUSH1 0x3 NOT ADD SLT PUSH2 0x1D9 JUMPI PUSH1 0x40 MLOAD PUSH1 0x0 PUSH1 0x9 SLOAD DUP1 PUSH1 0x1 SHR SWAP1 PUSH1 0x1 DUP2 AND DUP1 ISZERO PUSH2 0x319 JUMPI JUMPDEST PUSH1 0x20 DUP4 LT DUP2 EQ PUSH2 0x1BB JUMPI DUP3 DUP6 MSTORE SWAP1 DUP2 ISZERO PUSH2 0x2FD JUMPI POP PUSH1 0x1 EQ PUSH2 0x2A6 JUMPI POP DUP2 SWAP1 SUB PUSH1 0x1F ADD PUSH1 0x1F NOT AND DUP2 ADD SWAP1 PUSH8 0xFFFFFFFFFFFFFFFF DUP3 GT DUP2 DUP4 LT OR PUSH2 0x132 JUMPI PUSH1 0x40 DUP3 SWAP1 MSTORE DUP2 SWAP1 PUSH2 0x12E SWAP1 DUP3 PUSH2 0x8B9 JUMP JUMPDEST PUSH1 0x9 PUSH1 0x0 SWAP1 DUP2 MSTORE SWAP1 SWAP2 POP PUSH32 0x6E1540171B6C0C960B71A7020D9F60077F6AF931A8BBF590DA0223DACF75C7AF JUMPDEST DUP3 DUP3 LT PUSH2 0x2E7 JUMPI POP PUSH1 0x20 SWAP2 POP DUP3 ADD ADD DUP3 PUSH2 0xFC JUMP JUMPDEST PUSH1 0x1 DUP2 PUSH1 0x20 SWAP3 SLOAD DUP4 DUP6 DUP9 ADD ADD MSTORE ADD SWAP2 ADD SWAP1 PUSH2 0x2D2 JUMP JUMPDEST SWAP1 POP PUSH1 0x20 SWAP3 POP PUSH1 0xFF NOT AND DUP3 DUP5 ADD MSTORE ISZERO ISZERO PUSH1 0x5 SHL DUP3 ADD ADD DUP3 PUSH2 0xFC JUMP JUMPDEST SWAP2 PUSH1 0x7F AND SWAP2 PUSH2 0x258 JUMP JUMPDEST CALLVALUE PUSH2 0x1D9 JUMPI PUSH1 0x0 CALLDATASIZE PUSH1 0x3 NOT ADD SLT PUSH2 0x1D9 JUMPI PUSH1 0x40 MLOAD PUSH1 0x0 PUSH1 0x6 SLOAD DUP1 PUSH1 0x1 SHR SWAP1 PUSH1 0x1 DUP2 AND DUP1 ISZERO PUSH2 0x3F1 JUMPI JUMPDEST PUSH1 0x20 DUP4 LT DUP2 EQ PUSH2 0x1BB JUMPI DUP3 DUP6 MSTORE SWAP1 DUP2 ISZERO PUSH2 0x2FD JUMPI POP PUSH1 0x1 EQ PUSH2 0x39A JUMPI POP DUP2 SWAP1 SUB PUSH1 0x1F ADD PUSH1 0x1F NOT AND DUP2 ADD SWAP1 PUSH8 0xFFFFFFFFFFFFFFFF DUP3 GT DUP2 DUP4 LT OR PUSH2 0x132 JUMPI PUSH1 0x40 DUP3 SWAP1 MSTORE DUP2 SWAP1 PUSH2 0x12E SWAP1 DUP3 PUSH2 0x8B9 JUMP JUMPDEST PUSH1 0x6 PUSH1 0x0 SWAP1 DUP2 MSTORE SWAP1 SWAP2 POP PUSH32 0xF652222313E28459528D920B65115C16C04F3EFC82AAEDC97BE59F3F377C0D3F JUMPDEST DUP3 DUP3 LT PUSH2 0x3DB JUMPI POP PUSH1 0x20 SWAP2 POP DUP3 ADD ADD DUP3 PUSH2 0xFC JUMP JUMPDEST PUSH1 0x1 DUP2 PUSH1 0x20 SWAP3 SLOAD DUP4 DUP6 DUP9 ADD ADD MSTORE ADD SWAP2 ADD SWAP1 PUSH2 0x3C6 JUMP JUMPDEST SWAP2 PUSH1 0x7F AND SWAP2 PUSH2 0x34C JUMP JUMPDEST CALLVALUE PUSH2 0x1D9 JUMPI PUSH1 0x40 CALLDATASIZE PUSH1 0x3 NOT ADD SLT PUSH2 0x1D9 JUMPI PUSH2 0x421 PUSH2 0x417 PUSH2 0x902 JUMP JUMPDEST PUSH1 0x24 CALLDATALOAD SWAP1 CALLER PUSH2 0x92E JUMP JUMPDEST PUSH1 0x20 PUSH1 0x40 MLOAD PUSH1 0x1 DUP2 MSTORE RETURN JUMPDEST CALLVALUE PUSH2 0x1D9 JUMPI PUSH1 0x0 CALLDATASIZE PUSH1 0x3 NOT ADD SLT PUSH2 0x1D9 JUMPI PUSH1 0x20 PUSH1 0x8 SLOAD PUSH1 0x40 MLOAD SWAP1 DUP2 MSTORE RETURN JUMPDEST CALLVALUE PUSH2 0x1D9 JUMPI PUSH1 0x0 CALLDATASIZE PUSH1 0x3 NOT ADD SLT PUSH2 0x1D9 JUMPI PUSH1 0x40 MLOAD PUSH1 0x0 PUSH1 0x4 SLOAD DUP1 PUSH1 0x1 SHR SWAP1 PUSH1 0x1 DUP2 AND DUP1 ISZERO PUSH2 0x518 JUMPI JUMPDEST PUSH1 0x20 DUP4 LT DUP2 EQ PUSH2 0x1BB JUMPI DUP3 DUP6 MSTORE SWAP1 DUP2 ISZERO PUSH2 0x2FD JUMPI POP PUSH1 0x1 EQ PUSH2 0x4C1 JUMPI POP DUP2 SWAP1 SUB PUSH1 0x1F ADD PUSH1 0x1F NOT AND DUP2 ADD SWAP1 PUSH8 0xFFFFFFFFFFFFFFFF DUP3 GT DUP2 DUP4 LT OR PUSH2 0x132 JUMPI PUSH1 0x40 DUP3 SWAP1 MSTORE DUP2 SWAP1 PUSH2 0x12E SWAP1 DUP3 PUSH2 0x8B9 JUMP JUMPDEST PUSH1 0x4 PUSH1 0x0 SWAP1 DUP2 MSTORE SWAP1 SWAP2 POP PUSH32 0x8A35ACFBC15FF81A39AE7D344FD709F28E8600B4AA8C65C6B64BFE7FE36BD19B JUMPDEST DUP3 DUP3 LT PUSH2 0x502 JUMPI POP PUSH1 0x20 SWAP2 POP DUP3 ADD ADD DUP3 PUSH2 0xFC JUMP JUMPDEST PUSH1 0x1 DUP2 PUSH1 0x20 SWAP3 SLOAD DUP4 DUP6 DUP9 ADD ADD MSTORE ADD SWAP2 ADD SWAP1 PUSH2 0x4ED JUMP JUMPDEST SWAP2 PUSH1 0x7F AND SWAP2 PUSH2 0x473 JUMP JUMPDEST CALLVALUE PUSH2 0x1D9 JUMPI PUSH1 0x20 CALLDATASIZE PUSH1 0x3 NOT ADD SLT PUSH2 0x1D9 JUMPI PUSH1 0x1 PUSH1 0x1 PUSH1 0xA0 SHL SUB PUSH2 0x543 PUSH2 0x902 JUMP JUMPDEST AND PUSH1 0x0 MSTORE PUSH1 0x0 PUSH1 0x20 MSTORE PUSH1 0x20 PUSH1 0x40 PUSH1 0x0 KECCAK256 SLOAD PUSH1 0x40 MLOAD SWAP1 DUP2 MSTORE RETURN JUMPDEST CALLVALUE PUSH2 0x1D9 JUMPI PUSH1 0x0 CALLDATASIZE PUSH1 0x3 NOT ADD SLT PUSH2 0x1D9 JUMPI PUSH1 0x20 PUSH1 0x40 MLOAD PUSH1 0x12 DUP2 MSTORE RETURN JUMPDEST CALLVALUE PUSH2 0x1D9 JUMPI PUSH1 0x60 CALLDATASIZE PUSH1 0x3 NOT ADD SLT PUSH2 0x1D9 JUMPI PUSH2 0x591 PUSH2 0x902 JUMP JUMPDEST PUSH2 0x599 PUSH2 0x918 JUMP JUMPDEST PUSH1 0x1 PUSH1 0x1 PUSH1 0xA0 SHL SUB DUP3 AND PUSH1 0x0 DUP2 DUP2 MSTORE PUSH1 0x1 PUSH1 0x20 SWAP1 DUP2 MSTORE PUSH1 0x40 DUP1 DUP4 KECCAK256 CALLER DUP5 MSTORE SWAP1 SWAP2 MSTORE SWAP1 KECCAK256 SLOAD SWAP1 SWAP3 PUSH1 0x44 CALLDATALOAD SWAP3 SWAP2 PUSH1 0x0 NOT DUP2 LT PUSH2 0x5D9 JUMPI JUMPDEST POP PUSH2 0x421 SWAP4 POP PUSH2 0x92E JUMP JUMPDEST DUP4 DUP2 LT PUSH2 0x648 JUMPI DUP5 ISZERO PUSH2 0x632 JUMPI CALLER ISZERO PUSH2 0x61C JUMPI PUSH2 0x421 SWAP5 PUSH1 0x0 MSTORE PUSH1 0x1 PUSH1 0x20 MSTORE PUSH1 0x40 PUSH1 0x0 KECCAK256 PUSH1 0x1 DUP1 PUSH1 0xA0 SHL SUB CALLER AND PUSH1 0x0 MSTORE PUSH1 0x20 MSTORE DUP4 PUSH1 0x40 PUSH1 0x0 KECCAK256 SWAP2 SUB SWAP1 SSTORE DUP5 PUSH2 0x5CE JUMP JUMPDEST PUSH4 0x4A1406B1 PUSH1 0xE1 SHL PUSH1 0x0 MSTORE PUSH1 0x0 PUSH1 0x4 MSTORE PUSH1 0x24 PUSH1 0x0 REVERT JUMPDEST PUSH4 0xE602DF05 PUSH1 0xE0 SHL PUSH1 0x0 MSTORE PUSH1 0x0 PUSH1 0x4 MSTORE PUSH1 0x24 PUSH1 0x0 REVERT JUMPDEST DUP4 SWAP1 PUSH4 0x7DC7A0D9 PUSH1 0xE1 SHL PUSH1 0x0 MSTORE CALLER PUSH1 0x4 MSTORE PUSH1 0x24 MSTORE PUSH1 0x44 MSTORE PUSH1 0x64 PUSH1 0x0 REVERT JUMPDEST CALLVALUE PUSH2 0x1D9 JUMPI PUSH1 0x0 CALLDATASIZE PUSH1 0x3 NOT ADD SLT PUSH2 0x1D9 JUMPI PUSH1 0x40 MLOAD PUSH1 0x0 PUSH1 0x5 SLOAD DUP1 PUSH1 0x1 SHR SWAP1 PUSH1 0x1 DUP2 AND DUP1 ISZERO PUSH2 0x733 JUMPI JUMPDEST PUSH1 0x20 DUP4 LT DUP2 EQ PUSH2 0x1BB JUMPI DUP3 DUP6 MSTORE SWAP1 DUP2 ISZERO PUSH2 0x2FD JUMPI POP PUSH1 0x1 EQ PUSH2 0x6DC JUMPI POP DUP2 SWAP1 SUB PUSH1 0x1F ADD PUSH1 0x1F NOT AND DUP2 ADD SWAP1 PUSH8 0xFFFFFFFFFFFFFFFF DUP3 GT DUP2 DUP4 LT OR PUSH2 0x132 JUMPI PUSH1 0x40 DUP3 SWAP1 MSTORE DUP2 SWAP1 PUSH2 0x12E SWAP1 DUP3 PUSH2 0x8B9 JUMP JUMPDEST PUSH1 0x5 PUSH1 0x0 SWAP1 DUP2 MSTORE SWAP1 SWAP2 POP PUSH32 0x36B6384B5ECA791C62761152D0C79BB0604C104A5FB6F4EB0703F3154BB3DB0 JUMPDEST DUP3 DUP3 LT PUSH2 0x71D JUMPI POP PUSH1 0x20 SWAP2 POP DUP3 ADD ADD DUP3 PUSH2 0xFC JUMP JUMPDEST PUSH1 0x1 DUP2 PUSH1 0x20 SWAP3 SLOAD DUP4 DUP6 DUP9 ADD ADD MSTORE ADD SWAP2 ADD SWAP1 PUSH2 0x708 JUMP JUMPDEST SWAP2 PUSH1 0x7F AND SWAP2 PUSH2 0x68E JUMP JUMPDEST CALLVALUE PUSH2 0x1D9 JUMPI PUSH1 0x0 CALLDATASIZE PUSH1 0x3 NOT ADD SLT PUSH2 0x1D9 JUMPI PUSH1 0x20 PUSH1 0x2 SLOAD PUSH1 0x40 MLOAD SWAP1 DUP2 MSTORE RETURN JUMPDEST CALLVALUE PUSH2 0x1D9 JUMPI PUSH1 0x40 CALLDATASIZE PUSH1 0x3 NOT ADD SLT PUSH2 0x1D9 JUMPI PUSH2 0x774 PUSH2 0x902 JUMP JUMPDEST PUSH1 0x24 CALLDATALOAD SWAP1 CALLER ISZERO PUSH2 0x632 JUMPI PUSH1 0x1 PUSH1 0x1 PUSH1 0xA0 SHL SUB AND SWAP1 DUP2 ISZERO PUSH2 0x61C JUMPI CALLER PUSH1 0x0 MSTORE PUSH1 0x1 PUSH1 0x20 MSTORE PUSH1 0x40 PUSH1 0x0 KECCAK256 DUP3 PUSH1 0x0 MSTORE PUSH1 0x20 MSTORE DUP1 PUSH1 0x40 PUSH1 0x0 KECCAK256 SSTORE PUSH1 0x40 MLOAD SWAP1 DUP2 MSTORE PUSH32 0x8C5BE1E5EBEC7D5BD14F71427D1E84F3DD0314C0F7B2291E5B200AC8C7C3B925 PUSH1 0x20 CALLER SWAP3 LOG3 PUSH1 0x20 PUSH1 0x40 MLOAD PUSH1 0x1 DUP2 MSTORE RETURN JUMPDEST CALLVALUE PUSH2 0x1D9 JUMPI PUSH1 0x0 CALLDATASIZE PUSH1 0x3 NOT ADD SLT PUSH2 0x1D9 JUMPI PUSH1 0x40 MLOAD PUSH1 0x0 PUSH1 0x3 SLOAD DUP1 PUSH1 0x1 SHR SWAP1 PUSH1 0x1 DUP2 AND DUP1 ISZERO PUSH2 0x8AF JUMPI JUMPDEST PUSH1 0x20 DUP4 LT DUP2 EQ PUSH2 0x1BB JUMPI DUP3 DUP6 MSTORE SWAP1 DUP2 ISZERO PUSH2 0x2FD JUMPI POP PUSH1 0x1 EQ PUSH2 0x858 JUMPI POP DUP2 SWAP1 SUB PUSH1 0x1F ADD PUSH1 0x1F NOT AND DUP2 ADD SWAP1 PUSH8 0xFFFFFFFFFFFFFFFF DUP3 GT DUP2 DUP4 LT OR PUSH2 0x132 JUMPI PUSH1 0x40 DUP3 SWAP1 MSTORE DUP2 SWAP1 PUSH2 0x12E SWAP1 DUP3 PUSH2 0x8B9 JUMP JUMPDEST PUSH1 0x3 PUSH1 0x0 SWAP1 DUP2 MSTORE SWAP1 SWAP2 POP PUSH32 0xC2575A0E9E593C00F959F8C92F12DB2869C3395A3B0502D05E2516446F71F85B JUMPDEST DUP3 DUP3 LT PUSH2 0x899 JUMPI POP PUSH1 0x20 SWAP2 POP DUP3 ADD ADD DUP3 PUSH2 0xFC JUMP JUMPDEST PUSH1 0x1 DUP2 PUSH1 0x20 SWAP3 SLOAD DUP4 DUP6 DUP9 ADD ADD MSTORE ADD SWAP2 ADD SWAP1 PUSH2 0x884 JUMP JUMPDEST SWAP2 PUSH1 0x7F AND SWAP2 PUSH2 0x80A JUMP JUMPDEST SWAP2 SWAP1 SWAP2 PUSH1 0x20 DUP2 MSTORE DUP3 MLOAD DUP1 PUSH1 0x20 DUP4 ADD MSTORE PUSH1 0x0 JUMPDEST DUP2 DUP2 LT PUSH2 0x8EC JUMPI POP PUSH1 0x40 SWAP3 SWAP4 POP PUSH1 0x0 DUP4 DUP3 DUP5 ADD ADD MSTORE PUSH1 0x1F DUP1 NOT SWAP2 ADD AND ADD ADD SWAP1 JUMP JUMPDEST DUP1 PUSH1 0x20 DUP1 SWAP3 DUP8 ADD ADD MLOAD PUSH1 0x40 DUP3 DUP7 ADD ADD MSTORE ADD PUSH2 0x8CB JUMP JUMPDEST PUSH1 0x4 CALLDATALOAD SWAP1 PUSH1 0x1 PUSH1 0x1 PUSH1 0xA0 SHL SUB DUP3 AND DUP3 SUB PUSH2 0x1D9 JUMPI JUMP JUMPDEST PUSH1 0x24 CALLDATALOAD SWAP1 PUSH1 0x1 PUSH1 0x1 PUSH1 0xA0 SHL SUB DUP3 AND DUP3 SUB PUSH2 0x1D9 JUMPI JUMP JUMPDEST PUSH1 0x1 PUSH1 0x1 PUSH1 0xA0 SHL SUB AND SWAP1 DUP2 ISZERO PUSH2 0x9DD JUMPI PUSH1 0x1 PUSH1 0x1 PUSH1 0xA0 SHL SUB AND SWAP2 DUP3 ISZERO PUSH2 0x9C7 JUMPI PUSH1 0x0 DUP3 DUP2 MSTORE DUP1 PUSH1 0x20 MSTORE PUSH1 0x40 DUP2 KECCAK256 SLOAD DUP3 DUP2 LT PUSH2 0x9AD JUMPI SWAP2 PUSH1 0x40 DUP3 DUP3 PUSH32 0xDDF252AD1BE2C89B69C2B068FC378DAA952BA7F163C4A11628F55A4DF523B3EF SWAP6 DUP8 PUSH1 0x20 SWAP7 MSTORE DUP3 DUP7 MSTORE SUB DUP3 DUP3 KECCAK256 SSTORE DUP7 DUP2 MSTORE DUP1 DUP5 MSTORE KECCAK256 DUP2 DUP2 SLOAD ADD SWAP1 SSTORE PUSH1 0x40 MLOAD SWAP1 DUP2 MSTORE LOG3 JUMP JUMPDEST SWAP2 PUSH1 0x64 SWAP3 DUP5 PUSH4 0x391434E3 PUSH1 0xE2 SHL DUP5 MSTORE PUSH1 0x4 MSTORE PUSH1 0x24 MSTORE PUSH1 0x44 MSTORE REVERT JUMPDEST PUSH4 0xEC442F05 PUSH1 0xE0 SHL PUSH1 0x0 MSTORE PUSH1 0x0 PUSH1 0x4 MSTORE PUSH1 0x24 PUSH1 0x0 REVERT JUMPDEST PUSH4 0x4B637E8F PUSH1 0xE1 SHL PUSH1 0x0 MSTORE PUSH1 0x0 PUSH1 0x4 MSTORE PUSH1 0x24 PUSH1 0x0 REVERT INVALID LOG2 PUSH5 0x6970667358 0x22 SLT KECCAK256 SWAP10 SLOAD CALLCODE 0xAD PREVRANDAO 0x4E 0xD9 SWAP13 PUSH9 0xC1F9406C954360C33C LOG3 LOG3 ORIGIN CALL MULMOD MLOAD 0xF7 0xC5 0x2B 0xE2 0x25 0xC4 SWAP1 DELEGATECALL PUSH5 0x736F6C6343 STOP ADDMOD SHR STOP CALLER SWAP1 AND 0xD0 SWAP14 PUSH19 0xD40FDAE2FD8CEAC6B6234C7706214FD39C1CD1 0xE6 MULMOD LOG0 MSTORE DUP13 NOT SWAP4 STOP CALLDATASIZE ADDMOD SWAP5 LOG1 EXTCODESIZE LOG1 LOG3 0x21 MOD PUSH8 0xC828492DB98DCA3E KECCAK256 PUSH23 0xCC3735A920A3CA505D382BBCF0C57E16840DF040F15088 0xDC 0x2F DUP2 INVALID CODECOPY SHR CODECOPY 0x23 0xBE 0xC7 RETURNDATACOPY 0x23 0xA9 PUSH7 0x2EFC9C229C6A00 LOG2 PUSH5 0x6970667358 0x22 SLT KECCAK256 BASEFEE PUSH30 0xA74D46F9851D54E506ABB9538ABBE1635B4342B8B8056634C81CC42129FD PUSH5 0x736F6C6343 STOP ADDMOD SHR STOP CALLER "},"methodIdentifiers":{"UPGRADE_INTERFACE_VERSION()":"ad3cb1cc","creatorTokens(string)":"3680dc76","getCreatorToken(string)":"20503219","initialize(address)":"c4d66de8","isTokenMinted(string)":"8396c955","mintToken(address,string,string,string,uint256)":"fe394ed9","owner()":"8da5cb5b","proxiableUUID()":"52d1902d","renounceOwnership()":"715018a6","transferOwnership(address)":"f2fde38b","upgradeToAndCall(address,bytes)":"4f1ef286"}},"storageLayout":{"storage":[{"astId":2280,"contract":"contracts/CreatorCoin.sol:CreatorToken","label":"creatorTokens","offset":0,"slot":"0","type":"t_mapping(t_string_memory_ptr,t_address)"},{"astId":2284,"contract":"contracts/CreatorCoin.sol:CreatorToken","label":"isTokenMinted","offset":0,"slot":"1","type":"t_mapping(t_string_memory_ptr,t_bool)"}],"types":{"t_address":{"encoding":"inplace","label":"address","numberOfBytes":"20"},"t_bool":{"encoding":"inplace","label":"bool","numberOfBytes":"1"},"t_mapping(t_string_memory_ptr,t_address)":{"encoding":"mapping","key":"t_string_memory_ptr","label":"mapping(string => address)","numberOfBytes":"32","value":"t_address"},"t_mapping(t_string_memory_ptr,t_bool)":{"encoding":"mapping","key":"t_string_memory_ptr","label":"mapping(string => bool)","numberOfBytes":"32","value":"t_bool"},"t_string_memory_ptr":{"encoding":"bytes","label":"string","numberOfBytes":"32"}}}}}}