{"contracts/SaraLiquidityManager.sol":{"SaraLiquidityManager":{"abi":[{"inputs":[{"internalType":"address","name":"_coralToken","type":"address"}],"stateMutability":"nonpayable","type":"constructor"},{"inputs":[],"name":"AccessControlBadConfirmation","type":"error"},{"inputs":[{"internalType":"address","name":"account","type":"address"},{"internalType":"bytes32","name":"neededRole","type":"bytes32"}],"name":"AccessControlUnauthorizedAccount","type":"error"},{"inputs":[{"internalType":"address","name":"owner","type":"address"}],"name":"OwnableInvalidOwner","type":"error"},{"inputs":[{"internalType":"address","name":"account","type":"address"}],"name":"OwnableUnauthorizedAccount","type":"error"},{"inputs":[{"internalType":"address","name":"token","type":"address"}],"name":"SafeERC20FailedOperation","type":"error"},{"anonymous":false,"inputs":[{"indexed":true,"internalType":"address","name":"token","type":"address"},{"indexed":false,"internalType":"uint256","name":"amount","type":"uint256"},{"indexed":true,"internalType":"address","name":"targetPool","type":"address"},{"indexed":false,"internalType":"uint256","name":"coralAmount","type":"uint256"},{"indexed":false,"internalType":"uint256","name":"timestamp","type":"uint256"}],"name":"AutoFeesRedeployed","type":"event"},{"anonymous":false,"inputs":[{"indexed":true,"internalType":"address","name":"to","type":"address"},{"indexed":false,"internalType":"uint256","name":"amount","type":"uint256"},{"indexed":false,"internalType":"uint256","name":"timestamp","type":"uint256"}],"name":"CoralTokenTransferred","type":"event"},{"anonymous":false,"inputs":[{"indexed":true,"internalType":"address","name":"pool","type":"address"},{"indexed":false,"internalType":"uint256","name":"currentVolume","type":"uint256"},{"indexed":false,"internalType":"uint256","name":"lastUpdateTime","type":"uint256"},{"indexed":false,"internalType":"uint256","name":"currentTime","type":"uint256"}],"name":"DebugPoolActivity","type":"event"},{"anonymous":false,"inputs":[{"indexed":true,"internalType":"address","name":"pool","type":"address"},{"indexed":false,"internalType":"uint256","name":"score","type":"uint256"},{"indexed":false,"internalType":"uint256","name":"currentIndex","type":"uint256"},{"indexed":false,"internalType":"uint256","name":"batchEndIndex","type":"uint256"}],"name":"DebugPoolProcessed","type":"event"},{"anonymous":false,"inputs":[{"indexed":true,"internalType":"address","name":"pool","type":"address"},{"indexed":false,"internalType":"bool","name":"isTracked","type":"bool"},{"indexed":false,"internalType":"bool","name":"isActive","type":"bool"},{"indexed":false,"internalType":"uint256","name":"score","type":"uint256"}],"name":"DebugPoolStatus","type":"event"},{"anonymous":false,"inputs":[{"indexed":true,"internalType":"address","name":"targetPool","type":"address"},{"indexed":false,"internalType":"uint256","name":"amount","type":"uint256"},{"indexed":false,"internalType":"string","name":"reason","type":"string"}],"name":"DeploymentSkipped","type":"event"},{"anonymous":false,"inputs":[{"indexed":true,"internalType":"address","name":"token","type":"address"},{"indexed":false,"internalType":"uint256","name":"oldCount","type":"uint256"},{"indexed":false,"internalType":"uint256","name":"newCount","type":"uint256"},{"indexed":false,"internalType":"uint256","name":"percentChange","type":"uint256"}],"name":"EngagementChangeCalculated","type":"event"},{"anonymous":false,"inputs":[{"indexed":true,"internalType":"address","name":"token","type":"address"},{"indexed":false,"internalType":"uint256","name":"initialCount","type":"uint256"},{"indexed":false,"internalType":"uint256","name":"timestamp","type":"uint256"}],"name":"EngagementInitialized","type":"event"},{"anonymous":false,"inputs":[{"indexed":true,"internalType":"address","name":"token","type":"address"},{"indexed":false,"internalType":"uint256","name":"rawCount","type":"uint256"},{"indexed":false,"internalType":"uint256","name":"smoothedCount","type":"uint256"},{"indexed":false,"internalType":"uint256","name":"timestamp","type":"uint256"}],"name":"EngagementSmoothed","type":"event"},{"anonymous":false,"inputs":[{"indexed":true,"internalType":"address","name":"token","type":"address"},{"indexed":false,"internalType":"uint256","name":"subscribers","type":"uint256"},{"indexed":false,"internalType":"uint256","name":"timestamp","type":"uint256"}],"name":"EngagementSnapshotTaken","type":"event"},{"anonymous":false,"inputs":[{"indexed":true,"internalType":"address","name":"pool","type":"address"},{"indexed":false,"internalType":"uint256","name":"reserveAmount","type":"uint256"}],"name":"FallbackPoolSelected","type":"event"},{"anonymous":false,"inputs":[{"indexed":false,"internalType":"string","name":"operation","type":"string"},{"indexed":true,"internalType":"address","name":"token","type":"address"},{"indexed":false,"internalType":"uint256","name":"amount","type":"uint256"},{"indexed":true,"internalType":"address","name":"target","type":"address"}],"name":"FeeOperation","type":"event"},{"anonymous":false,"inputs":[{"indexed":true,"internalType":"address","name":"token","type":"address"},{"indexed":false,"internalType":"uint256","name":"amount","type":"uint256"}],"name":"FeesCollected","type":"event"},{"anonymous":false,"inputs":[{"indexed":true,"internalType":"address","name":"token","type":"address"},{"indexed":false,"internalType":"uint256","name":"amount","type":"uint256"},{"indexed":true,"internalType":"address","name":"targetPool","type":"address"}],"name":"FeesRedeployed","type":"event"},{"anonymous":false,"inputs":[{"indexed":true,"internalType":"address","name":"token","type":"address"},{"indexed":false,"internalType":"uint256","name":"amount","type":"uint256"}],"name":"FeesWithdrawn","type":"event"},{"anonymous":false,"inputs":[{"indexed":true,"internalType":"address","name":"creatorToken","type":"address"},{"indexed":false,"internalType":"uint256","name":"amountCreator","type":"uint256"},{"indexed":false,"internalType":"uint256","name":"amountCoral","type":"uint256"}],"name":"LiquidityAdded","type":"event"},{"anonymous":false,"inputs":[{"indexed":false,"internalType":"uint256","name":"subscriberCount","type":"uint256"},{"indexed":false,"internalType":"uint256","name":"price","type":"uint256"},{"indexed":false,"internalType":"uint256","name":"calculatedLiquidity","type":"uint256"},{"indexed":false,"internalType":"bool","name":"wasCapped","type":"bool"}],"name":"LiquidityCalculation","type":"event"},{"anonymous":false,"inputs":[{"indexed":true,"internalType":"address","name":"token","type":"address"},{"indexed":false,"internalType":"uint256","name":"cappedAmount","type":"uint256"}],"name":"LiquidityCapped","type":"event"},{"anonymous":false,"inputs":[{"indexed":false,"internalType":"string","name":"operation","type":"string"},{"indexed":true,"internalType":"address","name":"token","type":"address"},{"indexed":false,"internalType":"uint256","name":"amount","type":"uint256"},{"indexed":false,"internalType":"uint256","name":"timestamp","type":"uint256"}],"name":"LiquidityOperation","type":"event"},{"anonymous":false,"inputs":[{"indexed":true,"internalType":"address","name":"token","type":"address"},{"indexed":false,"internalType":"uint256","name":"newReserveCoral","type":"uint256"}],"name":"LiquidityRebalanced","type":"event"},{"anonymous":false,"inputs":[{"indexed":true,"internalType":"address","name":"creatorToken","type":"address"},{"indexed":false,"internalType":"uint256","name":"amountCreator","type":"uint256"},{"indexed":false,"internalType":"uint256","name":"amountCoral","type":"uint256"}],"name":"LiquidityRemoved","type":"event"},{"anonymous":false,"inputs":[{"indexed":true,"internalType":"address","name":"highestPool","type":"address"},{"indexed":false,"internalType":"uint256","name":"highestReserve","type":"uint256"},{"indexed":false,"internalType":"uint256","name":"proposedMax","type":"uint256"}],"name":"LiquidityThresholds","type":"event"},{"anonymous":false,"inputs":[{"indexed":true,"internalType":"address","name":"token","type":"address"},{"indexed":false,"internalType":"uint256","name":"minimumLiquidity","type":"uint256"},{"indexed":false,"internalType":"uint256","name":"safeLiquidity","type":"uint256"},{"indexed":false,"internalType":"uint256","name":"calculatedLiquidity","type":"uint256"}],"name":"LiquidityThresholds","type":"event"},{"anonymous":false,"inputs":[{"indexed":false,"internalType":"uint256","name":"proposedMax","type":"uint256"},{"indexed":false,"internalType":"uint256","name":"absoluteMax","type":"uint256"},{"indexed":false,"internalType":"bool","name":"withinLimits","type":"bool"}],"name":"LiquidityValidation","type":"event"},{"anonymous":false,"inputs":[{"indexed":false,"internalType":"uint256","name":"oldMax","type":"uint256"},{"indexed":false,"internalType":"uint256","name":"newMax","type":"uint256"}],"name":"MaxLiquidityUpdated","type":"event"},{"anonymous":false,"inputs":[{"indexed":true,"internalType":"address","name":"previousOwner","type":"address"},{"indexed":true,"internalType":"address","name":"newOwner","type":"address"}],"name":"OwnershipTransferred","type":"event"},{"anonymous":false,"inputs":[{"indexed":true,"internalType":"address","name":"pool","type":"address"},{"indexed":false,"internalType":"uint256","name":"volume24h","type":"uint256"}],"name":"PoolActivityUpdated","type":"event"},{"anonymous":false,"inputs":[{"indexed":true,"internalType":"address","name":"pool","type":"address"},{"indexed":false,"internalType":"uint256","name":"initialScore","type":"uint256"},{"indexed":false,"internalType":"uint256","name":"index","type":"uint256"}],"name":"PoolAdded","type":"event"},{"anonymous":false,"inputs":[{"indexed":true,"internalType":"address","name":"pool","type":"address"},{"indexed":false,"internalType":"uint256","name":"currentReserve","type":"uint256"},{"indexed":false,"internalType":"uint256","name":"maxLimit","type":"uint256"}],"name":"PoolLiquidityCheck","type":"event"},{"anonymous":false,"inputs":[{"indexed":true,"internalType":"address","name":"pool","type":"address"},{"indexed":false,"internalType":"uint256","name":"liquidity","type":"uint256"},{"indexed":false,"internalType":"uint256","name":"volume24h","type":"uint256"},{"indexed":false,"internalType":"uint256","name":"score","type":"uint256"}],"name":"PoolMetrics","type":"event"},{"anonymous":false,"inputs":[{"indexed":true,"internalType":"address","name":"pool","type":"address"},{"indexed":false,"internalType":"uint256","name":"score","type":"uint256"},{"indexed":false,"internalType":"uint256","name":"timestamp","type":"uint256"}],"name":"PoolNeedUpdated","type":"event"},{"anonymous":false,"inputs":[{"indexed":false,"internalType":"string","name":"operation","type":"string"},{"indexed":true,"internalType":"address","name":"pool","type":"address"},{"indexed":false,"internalType":"uint256","name":"score","type":"uint256"},{"indexed":false,"internalType":"uint256","name":"timestamp","type":"uint256"}],"name":"PoolOperation","type":"event"},{"anonymous":false,"inputs":[{"indexed":true,"internalType":"address","name":"pool","type":"address"},{"indexed":false,"internalType":"uint256","name":"finalScore","type":"uint256"},{"indexed":false,"internalType":"uint256","name":"liquidity","type":"uint256"},{"indexed":false,"internalType":"uint256","name":"volume","type":"uint256"},{"indexed":false,"internalType":"uint256","name":"liquidityWeight","type":"uint256"},{"indexed":false,"internalType":"uint256","name":"volumeWeight","type":"uint256"}],"name":"PoolScoreCalculated","type":"event"},{"anonymous":false,"inputs":[{"indexed":true,"internalType":"address","name":"pool","type":"address"},{"indexed":false,"internalType":"uint256","name":"score","type":"uint256"},{"indexed":false,"internalType":"uint256","name":"currentLiquidity","type":"uint256"}],"name":"PoolSelected","type":"event"},{"anonymous":false,"inputs":[{"indexed":true,"internalType":"address","name":"pool","type":"address"}],"name":"PoolTracked","type":"event"},{"anonymous":false,"inputs":[{"indexed":true,"internalType":"address","name":"pool","type":"address"}],"name":"PoolUntracked","type":"event"},{"anonymous":false,"inputs":[{"indexed":true,"internalType":"address","name":"pool","type":"address"},{"indexed":false,"internalType":"uint256","name":"oldScore","type":"uint256"},{"indexed":false,"internalType":"uint256","name":"newScore","type":"uint256"},{"indexed":false,"internalType":"uint256","name":"index","type":"uint256"}],"name":"PoolUpdated","type":"event"},{"anonymous":false,"inputs":[{"indexed":true,"internalType":"address","name":"token","type":"address"},{"indexed":false,"internalType":"uint256","name":"calculatedPrice","type":"uint256"},{"indexed":false,"internalType":"uint256","name":"cappedPrice","type":"uint256"}],"name":"PriceCapReached","type":"event"},{"anonymous":false,"inputs":[{"indexed":true,"internalType":"address","name":"token","type":"address"},{"indexed":false,"internalType":"uint256","name":"initialCoralPrice","type":"uint256"},{"indexed":false,"internalType":"uint256","name":"initialLiquidity","type":"uint256"}],"name":"PriceDiscoveryCompleted","type":"event"},{"anonymous":false,"inputs":[{"indexed":true,"internalType":"address","name":"token","type":"address"},{"indexed":false,"internalType":"uint256","name":"initialSubscribers","type":"uint256"}],"name":"PriceDiscoveryStarted","type":"event"},{"anonymous":false,"inputs":[{"indexed":true,"internalType":"address","name":"token","type":"address"},{"indexed":false,"internalType":"uint256","name":"originalAmount","type":"uint256"},{"indexed":false,"internalType":"uint256","name":"adjustedAmount","type":"uint256"},{"indexed":false,"internalType":"string","name":"reason","type":"string"}],"name":"RebalanceAdjusted","type":"event"},{"anonymous":false,"inputs":[{"indexed":true,"internalType":"address","name":"token","type":"address"},{"indexed":false,"internalType":"uint256","name":"oldLiquidity","type":"uint256"},{"indexed":false,"internalType":"uint256","name":"newLiquidity","type":"uint256"},{"indexed":false,"internalType":"string","name":"reason","type":"string"}],"name":"RebalanceMetrics","type":"event"},{"anonymous":false,"inputs":[{"indexed":true,"internalType":"address","name":"token","type":"address"},{"indexed":false,"internalType":"uint256","name":"currentValue","type":"uint256"},{"indexed":false,"internalType":"string","name":"reason","type":"string"}],"name":"RebalanceSkipped","type":"event"},{"anonymous":false,"inputs":[{"indexed":true,"internalType":"bytes32","name":"role","type":"bytes32"},{"indexed":true,"internalType":"bytes32","name":"previousAdminRole","type":"bytes32"},{"indexed":true,"internalType":"bytes32","name":"newAdminRole","type":"bytes32"}],"name":"RoleAdminChanged","type":"event"},{"anonymous":false,"inputs":[{"indexed":true,"internalType":"bytes32","name":"role","type":"bytes32"},{"indexed":true,"internalType":"address","name":"account","type":"address"},{"indexed":true,"internalType":"address","name":"sender","type":"address"}],"name":"RoleGranted","type":"event"},{"anonymous":false,"inputs":[{"indexed":false,"internalType":"string","name":"operation","type":"string"},{"indexed":true,"internalType":"address","name":"account","type":"address"},{"indexed":true,"internalType":"bytes32","name":"role","type":"bytes32"}],"name":"RoleOperation","type":"event"},{"anonymous":false,"inputs":[{"indexed":true,"internalType":"bytes32","name":"role","type":"bytes32"},{"indexed":true,"internalType":"address","name":"account","type":"address"},{"indexed":true,"internalType":"address","name":"sender","type":"address"}],"name":"RoleRevoked","type":"event"},{"anonymous":false,"inputs":[{"indexed":true,"internalType":"address","name":"pool","type":"address"},{"indexed":false,"internalType":"uint256","name":"lastVolume","type":"uint256"},{"indexed":false,"internalType":"uint256","name":"timestamp","type":"uint256"}],"name":"VolumeReset","type":"event"},{"anonymous":false,"inputs":[{"indexed":true,"internalType":"address","name":"account","type":"address"},{"indexed":false,"internalType":"uint256","name":"timestamp","type":"uint256"}],"name":"WithdrawAddressRemoved","type":"event"},{"anonymous":false,"inputs":[{"indexed":true,"internalType":"address","name":"account","type":"address"},{"indexed":false,"internalType":"uint256","name":"timestamp","type":"uint256"}],"name":"WithdrawAddressWhitelisted","type":"event"},{"anonymous":false,"inputs":[{"indexed":true,"internalType":"address","name":"caller","type":"address"},{"indexed":false,"internalType":"bool","name":"isWhitelisted","type":"bool"},{"indexed":false,"internalType":"uint256","name":"requestedAmount","type":"uint256"},{"indexed":false,"internalType":"uint256","name":"timestamp","type":"uint256"}],"name":"WithdrawalAttempt","type":"event"},{"inputs":[],"name":"ABSOLUTE_MAX_LIQUIDITY","outputs":[{"internalType":"uint256","name":"","type":"uint256"}],"stateMutability":"view","type":"function"},{"inputs":[],"name":"ACTIVITY_THRESHOLD","outputs":[{"internalType":"uint256","name":"","type":"uint256"}],"stateMutability":"view","type":"function"},{"inputs":[],"name":"BACKUP_DEX_ROLE","outputs":[{"internalType":"bytes32","name":"","type":"bytes32"}],"stateMutability":"view","type":"function"},{"inputs":[],"name":"BASE_PRICE","outputs":[{"internalType":"uint256","name":"","type":"uint256"}],"stateMutability":"view","type":"function"},{"inputs":[],"name":"DEFAULT_ADMIN_ROLE","outputs":[{"internalType":"bytes32","name":"","type":"bytes32"}],"stateMutability":"view","type":"function"},{"inputs":[],"name":"DEX_ROLE","outputs":[{"internalType":"bytes32","name":"","type":"bytes32"}],"stateMutability":"view","type":"function"},{"inputs":[],"name":"DISCOVERY_PERIOD","outputs":[{"internalType":"uint256","name":"","type":"uint256"}],"stateMutability":"view","type":"function"},{"inputs":[],"name":"ENGAGEMENT_THRESHOLD","outputs":[{"internalType":"uint256","name":"","type":"uint256"}],"stateMutability":"view","type":"function"},{"inputs":[],"name":"MAX_HISTORY_ENTRIES","outputs":[{"internalType":"uint256","name":"","type":"uint256"}],"stateMutability":"view","type":"function"},{"inputs":[],"name":"MAX_PRICE_MULTIPLIER","outputs":[{"internalType":"uint256","name":"","type":"uint256"}],"stateMutability":"view","type":"function"},{"inputs":[],"name":"MAX_SNAPSHOTS","outputs":[{"internalType":"uint256","name":"","type":"uint256"}],"stateMutability":"view","type":"function"},{"inputs":[],"name":"MIN_24H_VOLUME","outputs":[{"internalType":"uint256","name":"","type":"uint256"}],"stateMutability":"view","type":"function"},{"inputs":[],"name":"MIN_DEPLOYMENT_AMOUNT","outputs":[{"internalType":"uint256","name":"","type":"uint256"}],"stateMutability":"view","type":"function"},{"inputs":[],"name":"MIN_FEES_FOR_REDEPLOY","outputs":[{"internalType":"uint256","name":"","type":"uint256"}],"stateMutability":"view","type":"function"},{"inputs":[],"name":"MIN_LIQUIDITY","outputs":[{"internalType":"uint256","name":"","type":"uint256"}],"stateMutability":"view","type":"function"},{"inputs":[],"name":"MIN_TOKEN_PRICE","outputs":[{"internalType":"uint256","name":"","type":"uint256"}],"stateMutability":"view","type":"function"},{"inputs":[],"name":"POOL_NEED_UPDATE_INTERVAL","outputs":[{"internalType":"uint256","name":"","type":"uint256"}],"stateMutability":"view","type":"function"},{"inputs":[],"name":"REBALANCE_INTERVAL","outputs":[{"internalType":"uint256","name":"","type":"uint256"}],"stateMutability":"view","type":"function"},{"inputs":[],"name":"SNAPSHOT_INTERVAL","outputs":[{"internalType":"uint256","name":"","type":"uint256"}],"stateMutability":"view","type":"function"},{"inputs":[{"internalType":"address","name":"creatorToken","type":"address"},{"internalType":"uint256","name":"amountCreator","type":"uint256"},{"internalType":"uint256","name":"amountCoral","type":"uint256"}],"name":"addLiquidity","outputs":[{"internalType":"uint256","name":"","type":"uint256"}],"stateMutability":"nonpayable","type":"function"},{"inputs":[{"internalType":"address","name":"pool","type":"address"}],"name":"addPoolToTracking","outputs":[],"stateMutability":"nonpayable","type":"function"},{"inputs":[{"internalType":"address","name":"token","type":"address"}],"name":"autoRedeployFees","outputs":[],"stateMutability":"nonpayable","type":"function"},{"inputs":[{"internalType":"uint256","name":"subscriberCount","type":"uint256"},{"internalType":"uint256","name":"price","type":"uint256"}],"name":"calculateInitialLiquidity","outputs":[{"internalType":"uint256","name":"","type":"uint256"}],"stateMutability":"nonpayable","type":"function"},{"inputs":[{"internalType":"address","name":"token","type":"address"}],"name":"checkAndRebalance","outputs":[],"stateMutability":"nonpayable","type":"function"},{"inputs":[{"internalType":"address","name":"token","type":"address"},{"internalType":"uint256","name":"amount","type":"uint256"}],"name":"collectFees","outputs":[],"stateMutability":"nonpayable","type":"function"},{"inputs":[{"internalType":"address","name":"","type":"address"}],"name":"collectedFees","outputs":[{"internalType":"uint256","name":"","type":"uint256"}],"stateMutability":"view","type":"function"},{"inputs":[{"internalType":"address","name":"token","type":"address"}],"name":"completePriceDiscovery","outputs":[],"stateMutability":"nonpayable","type":"function"},{"inputs":[{"internalType":"address","name":"","type":"address"}],"name":"coralReserves","outputs":[{"internalType":"uint256","name":"","type":"uint256"}],"stateMutability":"view","type":"function"},{"inputs":[],"name":"coralToken","outputs":[{"internalType":"address","name":"","type":"address"}],"stateMutability":"view","type":"function"},{"inputs":[{"internalType":"address","name":"","type":"address"}],"name":"creatorTokenReserves","outputs":[{"internalType":"uint256","name":"","type":"uint256"}],"stateMutability":"view","type":"function"},{"inputs":[],"name":"dex","outputs":[{"internalType":"address","name":"","type":"address"}],"stateMutability":"view","type":"function"},{"inputs":[],"name":"getPoolNeedInfo","outputs":[{"internalType":"address","name":"pool","type":"address"},{"internalType":"uint256","name":"score","type":"uint256"},{"internalType":"uint256","name":"lastUpdate","type":"uint256"},{"internalType":"bool","name":"isStale","type":"bool"}],"stateMutability":"view","type":"function"},{"inputs":[{"internalType":"address","name":"creatorToken","type":"address"}],"name":"getReserves","outputs":[{"internalType":"uint256","name":"creatorReserve","type":"uint256"},{"internalType":"uint256","name":"coralReserve","type":"uint256"}],"stateMutability":"view","type":"function"},{"inputs":[{"internalType":"bytes32","name":"role","type":"bytes32"}],"name":"getRoleAdmin","outputs":[{"internalType":"bytes32","name":"","type":"bytes32"}],"stateMutability":"view","type":"function"},{"inputs":[{"internalType":"address","name":"token","type":"address"}],"name":"getSmoothedMetrics","outputs":[{"internalType":"uint256","name":"lastCount","type":"uint256"},{"internalType":"uint256","name":"smoothedCount","type":"uint256"},{"internalType":"uint256","name":"updateCount","type":"uint256"},{"internalType":"bool","name":"eligibleForRebalance","type":"bool"}],"stateMutability":"view","type":"function"},{"inputs":[{"internalType":"uint256","name":"n","type":"uint256"}],"name":"getTopPools","outputs":[{"internalType":"address[]","name":"","type":"address[]"}],"stateMutability":"view","type":"function"},{"inputs":[],"name":"getTrackedPools","outputs":[{"internalType":"address[]","name":"","type":"address[]"}],"stateMutability":"view","type":"function"},{"inputs":[{"internalType":"address","name":"pool","type":"address"}],"name":"getVolumeHistory","outputs":[{"components":[{"internalType":"uint256","name":"lastRecordedVolume","type":"uint256"},{"internalType":"uint256","name":"timestamp","type":"uint256"}],"internalType":"struct SaraLiquidityManager.VolumeHistory[]","name":"","type":"tuple[]"}],"stateMutability":"view","type":"function"},{"inputs":[{"internalType":"address","name":"account","type":"address"}],"name":"grantBackupDEXRole","outputs":[],"stateMutability":"nonpayable","type":"function"},{"inputs":[{"internalType":"bytes32","name":"role","type":"bytes32"},{"internalType":"address","name":"account","type":"address"}],"name":"grantRole","outputs":[],"stateMutability":"nonpayable","type":"function"},{"inputs":[{"internalType":"bytes32","name":"role","type":"bytes32"},{"internalType":"address","name":"account","type":"address"}],"name":"hasRole","outputs":[{"internalType":"bool","name":"","type":"bool"}],"stateMutability":"view","type":"function"},{"inputs":[{"internalType":"address","name":"creatorToken","type":"address"}],"name":"hasValidLiquidity","outputs":[{"internalType":"bool","name":"","type":"bool"}],"stateMutability":"view","type":"function"},{"inputs":[{"internalType":"address","name":"token","type":"address"}],"name":"isCoralToken","outputs":[{"internalType":"bool","name":"","type":"bool"}],"stateMutability":"view","type":"function"},{"inputs":[{"internalType":"address","name":"pool","type":"address"}],"name":"isPoolActive","outputs":[{"internalType":"bool","name":"","type":"bool"}],"stateMutability":"view","type":"function"},{"inputs":[{"internalType":"address","name":"","type":"address"}],"name":"isTrackedPool","outputs":[{"internalType":"bool","name":"","type":"bool"}],"stateMutability":"view","type":"function"},{"inputs":[{"internalType":"uint256","name":"liquidity","type":"uint256"}],"name":"isValidLiquidity","outputs":[{"internalType":"bool","name":"","type":"bool"}],"stateMutability":"view","type":"function"},{"inputs":[],"name":"lastRebalanceTimestamp","outputs":[{"internalType":"uint256","name":"","type":"uint256"}],"stateMutability":"view","type":"function"},{"inputs":[],"name":"maxLiquidityPerPool","outputs":[{"internalType":"uint256","name":"","type":"uint256"}],"stateMutability":"view","type":"function"},{"inputs":[],"name":"mostNeededPool","outputs":[{"internalType":"address","name":"pool","type":"address"},{"internalType":"uint256","name":"score","type":"uint256"},{"internalType":"uint256","name":"lastUpdateTime","type":"uint256"}],"stateMutability":"view","type":"function"},{"inputs":[],"name":"owner","outputs":[{"internalType":"address","name":"","type":"address"}],"stateMutability":"view","type":"function"},{"inputs":[{"internalType":"address","name":"","type":"address"}],"name":"poolActivity","outputs":[{"internalType":"uint256","name":"lastTradeTimestamp","type":"uint256"},{"internalType":"uint256","name":"tradingVolume24h","type":"uint256"},{"internalType":"uint256","name":"lastVolumeUpdateTime","type":"uint256"}],"stateMutability":"view","type":"function"},{"inputs":[],"name":"poolCount","outputs":[{"internalType":"uint256","name":"","type":"uint256"}],"stateMutability":"view","type":"function"},{"inputs":[{"internalType":"address","name":"","type":"address"}],"name":"priceDiscovery","outputs":[{"internalType":"uint256","name":"initialSubscribers","type":"uint256"},{"internalType":"uint256","name":"currentSubscribers","type":"uint256"},{"internalType":"uint256","name":"observationStartTime","type":"uint256"},{"internalType":"bool","name":"isInDiscovery","type":"bool"}],"stateMutability":"view","type":"function"},{"inputs":[{"internalType":"address","name":"token","type":"address"},{"internalType":"uint256","name":"currentSubscribers","type":"uint256"}],"name":"recordEngagementSnapshot","outputs":[],"stateMutability":"nonpayable","type":"function"},{"inputs":[{"internalType":"address","name":"token","type":"address"},{"internalType":"address","name":"targetPool","type":"address"}],"name":"redeployFees","outputs":[],"stateMutability":"nonpayable","type":"function"},{"inputs":[{"internalType":"address","name":"creatorToken","type":"address"},{"internalType":"uint256","name":"amountCreator","type":"uint256"},{"internalType":"uint256","name":"amountCoral","type":"uint256"}],"name":"removeLiquidity","outputs":[],"stateMutability":"nonpayable","type":"function"},{"inputs":[{"internalType":"address","name":"pool","type":"address"}],"name":"removePoolFromTracking","outputs":[],"stateMutability":"nonpayable","type":"function"},{"inputs":[{"internalType":"address","name":"account","type":"address"}],"name":"removeWithdrawAddress","outputs":[],"stateMutability":"nonpayable","type":"function"},{"inputs":[],"name":"renounceOwnership","outputs":[],"stateMutability":"nonpayable","type":"function"},{"inputs":[{"internalType":"bytes32","name":"role","type":"bytes32"},{"internalType":"address","name":"callerConfirmation","type":"address"}],"name":"renounceRole","outputs":[],"stateMutability":"nonpayable","type":"function"},{"inputs":[{"internalType":"address","name":"account","type":"address"}],"name":"revokeDEXRole","outputs":[],"stateMutability":"nonpayable","type":"function"},{"inputs":[{"internalType":"bytes32","name":"role","type":"bytes32"},{"internalType":"address","name":"account","type":"address"}],"name":"revokeRole","outputs":[],"stateMutability":"nonpayable","type":"function"},{"inputs":[{"internalType":"address","name":"_dex","type":"address"}],"name":"setDEX","outputs":[],"stateMutability":"nonpayable","type":"function"},{"inputs":[{"internalType":"uint256","name":"_newMax","type":"uint256"}],"name":"setMaxLiquidity","outputs":[],"stateMutability":"nonpayable","type":"function"},{"inputs":[{"internalType":"uint256","name":"","type":"uint256"}],"name":"sortedPools","outputs":[{"internalType":"address","name":"pool","type":"address"},{"internalType":"uint256","name":"score","type":"uint256"},{"internalType":"uint256","name":"lastUpdateTime","type":"uint256"},{"internalType":"uint256","name":"nextIndex","type":"uint256"},{"internalType":"uint256","name":"prevIndex","type":"uint256"}],"stateMutability":"view","type":"function"},{"inputs":[{"internalType":"address","name":"token","type":"address"},{"internalType":"uint256","name":"initialSubscribers","type":"uint256"}],"name":"startPriceDiscovery","outputs":[],"stateMutability":"nonpayable","type":"function"},{"inputs":[{"internalType":"bytes4","name":"interfaceId","type":"bytes4"}],"name":"supportsInterface","outputs":[{"internalType":"bool","name":"","type":"bool"}],"stateMutability":"view","type":"function"},{"inputs":[{"internalType":"address","name":"","type":"address"}],"name":"tokenEngagement","outputs":[{"internalType":"uint256","name":"lastSubscriberCount","type":"uint256"},{"internalType":"uint256","name":"smoothedSubscriberCount","type":"uint256"},{"internalType":"uint256","name":"lastUpdateTime","type":"uint256"},{"internalType":"uint256","name":"updateCount","type":"uint256"}],"stateMutability":"view","type":"function"},{"inputs":[],"name":"topPoolIndex","outputs":[{"internalType":"uint256","name":"","type":"uint256"}],"stateMutability":"view","type":"function"},{"inputs":[{"internalType":"uint256","name":"","type":"uint256"}],"name":"trackedPools","outputs":[{"internalType":"address","name":"","type":"address"}],"stateMutability":"view","type":"function"},{"inputs":[{"internalType":"uint256","name":"amount","type":"uint256"}],"name":"transferCoralToDEX","outputs":[],"stateMutability":"nonpayable","type":"function"},{"inputs":[{"internalType":"address","name":"newOwner","type":"address"}],"name":"transferOwnership","outputs":[],"stateMutability":"nonpayable","type":"function"},{"inputs":[{"internalType":"address","name":"token","type":"address"},{"internalType":"uint256","name":"newSubscriberCount","type":"uint256"}],"name":"updateEngagementMetrics","outputs":[],"stateMutability":"nonpayable","type":"function"},{"inputs":[{"internalType":"address","name":"pool","type":"address"},{"internalType":"uint256","name":"tradeAmount","type":"uint256"}],"name":"updatePoolActivity","outputs":[],"stateMutability":"nonpayable","type":"function"},{"inputs":[{"internalType":"address","name":"","type":"address"},{"internalType":"uint256","name":"","type":"uint256"}],"name":"volumeHistory","outputs":[{"internalType":"uint256","name":"lastRecordedVolume","type":"uint256"},{"internalType":"uint256","name":"timestamp","type":"uint256"}],"stateMutability":"view","type":"function"},{"inputs":[{"internalType":"address","name":"account","type":"address"}],"name":"whitelistWithdrawAddress","outputs":[],"stateMutability":"nonpayable","type":"function"},{"inputs":[{"internalType":"address","name":"","type":"address"}],"name":"whitelistedWithdrawAddresses","outputs":[{"internalType":"bool","name":"","type":"bool"}],"stateMutability":"view","type":"function"},{"inputs":[{"internalType":"address","name":"token","type":"address"},{"internalType":"uint256","name":"amount","type":"uint256"}],"name":"withdrawFees","outputs":[],"stateMutability":"nonpayable","type":"function"}],"evm":{"bytecode":{"linkReferences":{},"object":"6080346100ed57601f615b0f38819003918201601f19168301916001600160401b038311848410176100f2578084926020946040528339810103126100ed57516001600160a01b038116908190036100ed5733156100d75760008054336001600160a01b0319821681178355916001600160a01b03909116907f8be0079c531659141344cd1fd0a4f28419497f9722a3daafe3b4186f6b6457e09080a369021e19e0c9bab2400000601055600580546001600160a01b0319169190911790556100c733610108565b5060405161595890816101978239f35b631e4fbdf760e01b600052600060045260246000fd5b600080fd5b634e487b7160e01b600052604160045260246000fd5b6001600160a01b0381166000908152600080516020615aef833981519152602052604090205460ff16610190576001600160a01b03166000818152600080516020615aef83398151915260205260408120805460ff191660011790553391907f2f8788117e7eff1d82e926ec794901d17c78024a50270940304540a733656f0d8180a4600190565b5060009056fe608080604052600436101561001357600080fd5b60003560e01c90816301ffc9a714613ad3575080630502e222146139dd578063051e0e671461398257806306f2c5611461392357806314f302ac14613902578063173596881461287b5780631879dcf3146138df5780631b5a799a146138bc5780631ccf71eb146137e25780631cead9a7146137a857806321b77d6314611de85780632253fc3c1461365557806323bfa79214613613578063248a9ca3146135de5780632d957a8c146135c15780632ef97265146135985780632f2ff15d1461355857806330ae78051461353b57806331ad24f81461351f5780633417c3d0146134f257806336568abe146134ac5780633c231efd1461332f5780633e99c1e4146133005780633ec4335014613266578063414f99ae146132485780634e358af214612edb57806355776b771461289c5780635889486e146128805780635c2da7cd1461287b57806365b85ec41461284657806368d693c314612708578063692058c2146126df5780636ac7b41e146125e45780636d2beef1146125c85780636eb2ebda1461259f578063708b99351461256557806371081c8e14612261578063715018a61461220857806374a92c66146121c9578063783575391461218a5780637b66a7231461205c57806384f74a69146120225780638c93ca7c14611e635780638da5cb5b14611e3a57806391d1485414611ded578063993d345014611de85780639a92c4fe14611dc3578063a016974514611da5578063a033fcd414611d24578063a1ce920414611ced578063a217fddf14611cd1578063a270512314611bca578063a711e6a114611b9d578063ad3b1b47146117de578063afabdf1114611679578063b1a23fb41461165b578063b1eb4835146115ff578063b2098fa214611573578063b7f23d19146106be578063b83d815714611555578063bba2e1401461152c578063bc99f48714611126578063bd1e31aa146110f4578063c45cffab14611018578063cb01a4a414610ffc578063cd6f3cf414610f19578063d547741f14610ed2578063d55091f914610e74578063d6f969e214610e24578063e1aeb09214610dbd578063e38192e314610b85578063e71e76c114610807578063e7c75b79146107c6578063f2fd23de1461076a578063f2fde38b146106e1578063f525cb68146106c3578063f86325ed146106be5763fb99d5f41461037957600080fd5b346106b95760203660031901126106b957610392613b26565b61039a614954565b60018060a01b0316806000526008602052604060002060038101906103c260ff8354166143ca565b6002810154607881018091116105635742106106745760008381526008602052604081206004018054829190825b818110610582575050811590506105795761040a91613c83565b80670de0b6b3a76400000290670de0b6b3a7640000820403610563576127109004670de0b6b3a7640000019081670de0b6b3a764000011610563577f928602a1348c2d5cc6354f7e6953a38bfaf42426cd5d8c83dc7c42b972cfcdb0926104a06001928487604096916729a2241af62c00008111610519575b505067016345785d8a0000811115610507579384915b0154613cef565b906104b5678ac7230489e80000831015613ca3565b6010548083116104e5575b5085600052600360205281846000205560ff19815416905582519182526020820152a2005b915060006000805160206158238339815191526020848751908152a2386104c0565b5067016345785d8a0000938491610499565b7ffbb0338b3040d7b9bd8495de3d07128625b3ead1c3464340ed2e760a015d7447919250879081519081526729a2241af62c00006020820152a26729a2241af62c00008738610483565b634e487b7160e01b600052601160045260246000fd5b5050600061040a565b80610590575b6001016103f0565b61059a8184613bac565b905460001983019160031b1c828211610563576105b78286613bac565b90549060031b1c106105ca575b50610588565b6105d8828597939697613bac565b90549060031b1c906105fd6000926105f08388613bac565b90549060031b1c90614045565b91612710830292808404612710149015171561066057926106396106539361062c61064d946001975089613bac565b90549060031b1c90613c83565b61271081111561065a575061271090614052565b95614945565b93906105c4565b90614052565b634e487b7160e01b81526011600452602490fd5b60405162461bcd60e51b815260206004820152601d60248201527f446973636f7665727920706572696f64206e6f7420636f6d706c6574650000006044820152606490fd5b600080fd5b613c31565b346106b95760003660031901126106b9576020601854604051908152f35b346106b95760203660031901126106b9576106fa613b26565b610702614954565b6001600160a01b0316801561075457600080546001600160a01b03198116831782556001600160a01b0316907f8be0079c531659141344cd1fd0a4f28419497f9722a3daafe3b4186f6b6457e09080a3005b631e4fbdf760e01b600052600060045260246000fd5b346106b95760203660031901126106b9576001600160a01b0361078b613b26565b166000526007602052608060406000208054906001810154906003600282015491015491604051938452602084015260408301526060820152f35b346106b95760203660031901126106b9576020600435678ac7230489e8000081101590816107fa575b506040519015158152f35b90506010541015826107ef565b346106b95760403660031901126106b957610820613b26565b6024359060018060a01b03600c541633148015610b5f575b8015610b39575b61084890614577565b6000805160206157e38339815191526040516000805160206158438339815191523391806108998160609060208152600e60208201526d1858d8d95cdcd7d85d1d195b5c1d60921b60408201520190565b0390a360018060a01b03169081600052600b60205260406000209060018201805460028401938454908660008051602061590383398151915260a060405160608152601c60608201527f706f6f6c5f61637469766974795f7570646174655f73746172746564000000006080820152886020820152426040820152a2429055620151808101809111610563574210610b0357846000526011602052601e6040600020541015610a29575b84600052601160205260406000206040519061095e82613fac565b82825260208201904282528054600160401b811015610a135761098691600182018155613c54565b9390936109fd577f44b9262a170440091d8a6d407f47eaa54f9fb899c70142105a13147a3d3493ed96602096899560016040957f2bb5c25749fb1bf21eeb4372e3b614ca48502bcc17fd57ff79d32cff0873ebfc9751835551910155865542905581519081524286820152a25b54604051908152a2005b634e487b7160e01b600052600060045260246000fd5b634e487b7160e01b600052604160045260246000fd5b84600052601160205260406000205460001981019081116105635760005b818110610a9f575050846000526011602052604060002080548015610a89576000190190610a758282613c54565b6109fd576001816000809355015555610943565b634e487b7160e01b600052603160045260246000fd5b86600052601160205260406000206001820180831161056357610ac191613c54565b5090876000526011602052610ada816040600020613c54565b6109fd57826001938203610af1575b505001610a47565b80548255830154908301558880610ae9565b7f44b9262a170440091d8a6d407f47eaa54f9fb899c70142105a13147a3d3493ed9350602092610b3291614052565b81556109f3565b50336000908152600080516020615863833981519152602052604090205460ff1661083f565b503360009081526000805160206158e3833981519152602052604090205460ff16610838565b346106b957610b9336613bc4565b9091610b9d614954565b60018060a01b031691826000526002602052610bbe81604060002054614045565b836000526003602052678ac7230489e80000610bdf84604060002054614045565b9110610d7857678ac7230489e8000011610d335760407f96cd817c6329656790ef8fba7675405193677d39619571282f5e21f3a98cd0599184938460008051602061590383398151915260a0855160608152600660608201526572656d6f766560d01b60808201528560208201524287820152a2600085815260026020908152848220546003825291859020546010548651938452918301526040820152859060008051602061580383398151915290606090a284600052600260205282600020610cab838254614045565b905584600052600360205282600020610cc5828254614045565b905584600080516020615903833981519152845180610ce5428783614455565b0390a282519182526020820152a260008181526002602090815260408083205460038352928190205460105482519485529284015282015260008051602061580383398151915290606090a2005b60405162461bcd60e51b815260206004820152601b60248201527f434f52414c20726573657276652062656c6f77206d696e696d756d00000000006044820152606490fd5b60405162461bcd60e51b815260206004820152601d60248201527f43726561746f7220726573657276652062656c6f77206d696e696d756d0000006044820152606490fd5b346106b95760203660031901126106b9576001600160a01b03610dde613b26565b166000908152600860209081526040918290208054600182015460028301546003909301548551928352938201529283015260ff161515606082015280608081015b0390f35b346106b95760003660031901126106b957600d54600e54600f5490916001600160a01b031690610e1081019081811161056357608093604051938452602084015260408301524210156060820152f35b346106b95760403660031901126106b957610e8d613b26565b6001600160a01b03166000908152601160205260409020805460243591908210156106b957604091610ebe91613c54565b506001815491015482519182526020820152f35b346106b95760403660031901126106b957610f17600435610ef1613b3c565b90610f12610f0d82600052600160205260016040600020015490565b61497d565b615073565b005b346106b95760203660031901126106b9576001600160a01b03610f3a613b26565b1660005260116020526040600020805490610f5482614507565b91610f626040519384613fe4565b80835260208301809260005260206000206000915b838310610fcf5784866040519182916020830190602084525180915260408301919060005b818110610faa575050500390f35b8251805185526020908101518186015286955060409094019390920191600101610f9c565b60026020600192604051610fe281613fac565b855481528486015483820152815201920192019190610f77565b346106b95760003660031901126106b9576020604051601e8152f35b346106b95760203660031901126106b95760043561103581614507565b6110426040519182613fe4565b818152601f1961105183614507565b013660208301376000916017545b801515806110eb575b156110dd57600090815260166020526040902080546001600160a01b031661108f8161451f565b61109e575b506003015461105f565b83949194518210156110c757816110c091602060039460051b87010152614945565b9390611094565b634e487b7160e01b600052603260045260246000fd5b60405180610e208582613bee565b50818410611068565b346106b95760403660031901126106b957610f17611110613b26565b611118613b3c565b90611121614954565b614626565b346106b95760203660031901126106b95761113f613b26565b600c546001600160a01b031633148015611506575b80156114e0575b61116490614577565b6000805160206157e38339815191526040516000805160206158438339815191523391806111b58160609060208152600e60208201526d1858d8d95cdcd7d85d1d195b5c1d60921b60408201520190565b0390a36001600160a01b031680156114a3578060005260046020526040600020549061121a6040516111e8604082613fe4565b601d81527f4e6f206665657320617661696c61626c6520746f2072656465706c6f7900000060208201528315156145c3565b61126660405161122b604082613fe4565b601b81527f42656c6f77206d696e696d756d20666565207468726573686f6c6400000000006020820152674563918244f400008410156145c3565b61126e61517f565b6001600160a01b038116929083156114655761128a828261569f565b9182156114295782116113d8576040516370a0823160e01b8152306004820152602081602481875afa80156113cc578391600091611397575b5010611352578161132f7f5b1142ecb7caa10961adcac369fb4c5e7fa3629b1b53df070f2e8a2014c517779361134d93866000526004602052604060002061130c838254614045565b90558760005260036020526040600020611327838254614052565b9055866150f9565b60408051828152602081019290925242908201529081906060820190565b0390a3005b60405162461bcd60e51b815260206004820152601a60248201527f496e73756666696369656e7420746f6b656e2062616c616e63650000000000006044820152606490fd5b9150506020813d6020116113c4575b816113b360209383613fe4565b810103126106b957829051866112c3565b3d91506113a6565b6040513d6000823e3d90fd5b60405162461bcd60e51b8152602060048201526024808201527f4465706c6f7920616d6f756e74206578636565647320617661696c61626c65206044820152636665657360e01b6064820152608490fd5b60405162461bcd60e51b8152602060048201526014602482015273139bc819195c1b1bde5b595b9d081b995959195960621b6044820152606490fd5b60405162461bcd60e51b8152602060048201526016602482015275139bc81cdd5a5d18589b19481c1bdbdb08199bdd5b9960521b6044820152606490fd5b60405162461bcd60e51b8152602060048201526015602482015274496e76616c696420746f6b656e206164647265737360581b6044820152606490fd5b50336000908152600080516020615863833981519152602052604090205460ff1661115b565b503360009081526000805160206158e3833981519152602052604090205460ff16611154565b346106b95760003660031901126106b9576005546040516001600160a01b039091168152602090f35b346106b95760003660031901126106b9576020600654604051908152f35b346106b95760003660031901126106b95760405180602060095491828152019060096000527f6e1540171b6c0c960b71a7020d9f60077f6af931a8bbf590da0223dacf75c7af9060005b8181106115e057610e20856115d481870382613fe4565b60405191829182613bee565b82546001600160a01b03168452602090930192600192830192016115bd565b346106b95760203660031901126106b9576001600160a01b03611620613b26565b166000908152600760209081526040918290208054600182015460039283015485519283529382015292830182905211156060820152608090f35b346106b95760003660031901126106b9576020601054604051908152f35b346106b95760203660031901126106b957611692613b26565b61169a614954565b6001600160a01b0381169081156117a25781600052600a60205260ff60406000205416611766578160005260086020526116df60ff6003604060002001541615614409565b81600052600a6020526040600020600160ff1982541617905560095490600160401b821015610a135761171b82600161173f9401600955613b91565b81546001600160a01b0393841660039290921b91821b9390911b1916919091179055565b7f402f8a396b78c225022a54972367fd98a174c970fbf537400bb383a0690ebd78600080a2005b60405162461bcd60e51b8152602060048201526014602482015273141bdbdb08185b1c9958591e481d1c9858dad95960621b6044820152606490fd5b60405162461bcd60e51b8152602060048201526014602482015273496e76616c696420706f6f6c206164647265737360601b6044820152606490fd5b346106b95760403660031901126106b9576117f7613b26565b60243590611803614954565b60018060a01b03166000816000805160206158a38339815191526080604051604081526008604082015267776974686472617760c01b6060820152866020820152a333600052601260205260ff6040600020541615611b58578115611b13578060005260046020528160406000205410611ace576040516370a0823160e01b8152306004820152602081602481855afa80156113cc578291600091611a98575b5060606000805160206158038339815191529160405190815285602082015260006040820152a280600052600460205260406000206118e3838254614045565b90556040516370a0823160e01b8152306004820152602081602481855afa9081156113cc57600091611a63575b50828110611a1e576119238333846150f9565b6040516370a0823160e01b8152306004820152602081602481865afa9081156113cc5784906000926119e8575b5061195b9192614045565b036119a3576000805160206158a38339815191526040518061134d33958260408082526009908201526818dbdb5c1b195d195960ba1b60608201529190602060808401930152565b60405162461bcd60e51b815260206004820152601860248201527f5472616e7366657220616d6f756e74206d69736d6174636800000000000000006044820152606490fd5b9150506020813d602011611a16575b81611a0460209383613fe4565b810103126106b957518361195b611950565b3d91506119f7565b60405162461bcd60e51b815260206004820152601d60248201527f496e73756666696369656e7420636f6e74726163742062616c616e63650000006044820152606490fd5b906020823d602011611a90575b81611a7d60209383613fe4565b81010312611a8d57505183611910565b80fd5b3d9150611a70565b9150506020813d602011611ac6575b81611ab460209383613fe4565b810103126106b95751819060606118a3565b3d9150611aa7565b60405162461bcd60e51b815260206004820152601b60248201527f496e73756666696369656e7420636f6c6c6563746564206665657300000000006044820152606490fd5b60405162461bcd60e51b815260206004820152601d60248201527f416d6f756e74206d7573742062652067726561746572207468616e20300000006044820152606490fd5b60405162461bcd60e51b815260206004820152601d60248201527f4e6f7420617574686f72697a656420666f72207769746864726177616c0000006044820152606490fd5b346106b95760203660031901126106b9576020611bc0611bbb613b26565b61451f565b6040519015158152f35b346106b95760203660031901126106b957611be3613b26565b611beb614954565b6001600160a01b0316611bff811515614487565b80600052601260205260ff60406000205416611c8c57807f855511cc3694f64379908437d6d64458dc76d02482052bfb8a5b33a72c054c779160005260126020526040600020600160ff19825416179055600080516020615843833981519152606060405160208152601160208201527077686974656c6973745f6164647265737360781b6040820152a3005b60405162461bcd60e51b815260206004820152601b60248201527f4164647265737320616c72656164792077686974656c697374656400000000006044820152606490fd5b346106b95760003660031901126106b957602060405160008152f35b346106b95760003660031901126106b957606060018060a01b03600d5416600e54600f549060405192835260208301526040820152f35b346106b95760403660031901126106b9576000611d3f613b26565b6000805160206158a3833981519152608060243592611d5c614954565b60018060a01b031692838552600460205260408520611d7c828254614052565b90556040519060408252600760408301526618dbdb1b1958dd60ca1b60608301526020820152a3005b346106b95760003660031901126106b9576020601754604051908152f35b346106b95760003660031901126106b957602060405169d3c21bcecceda10000008152f35b613b6e565b346106b95760403660031901126106b957611e06613b3c565b600435600052600160205260406000209060018060a01b0316600052602052602060ff604060002054166040519015158152f35b346106b95760003660031901126106b9576000546040516001600160a01b039091168152602090f35b346106b95760403660031901126106b957611e7c613b26565b60243590611e88614954565b6001600160a01b031660008181526008602052604090206003015490919060ff16611fe657602090604051611ebd8382613fe4565b60008152600036813760405160a081019080821067ffffffffffffffff831117610a135760049160405283815284810184815260408201428152606083019160018352608084019586528860005260088852604060002093518455516001840155516002830155600382019051151560ff801983541691161790550190519081519167ffffffffffffffff8311610a1357600160401b8311610a135784908254848455808510611fbb575b5001906000528360002060005b838110611fa957867f9d3136590a24e6eb0d058d4d9b8c4d5be27926b0abfeca301a4d5fc0aaab775d8787604051908152a2005b82518282015591850191600101611f75565b83600052848360002091820191015b818110611fd75750611f68565b60008155879350600101611fca565b60405162461bcd60e51b8152602060048201526014602482015273416c726561647920696e20646973636f7665727960601b6044820152606490fd5b346106b95760203660031901126106b9576001600160a01b03612043613b26565b1660005260036020526020604060002054604051908152f35b346106b95760203660031901126106b957612075613b26565b61207d614954565b6001600160a01b03811690811561214f5760a0600080516020615903833981519152916000805160206157e38339815191526000946120e3600c549382600180881b038616956120cf878314156144c5565b6001600160601b03881b1617600c55614a52565b506000805160206158438339815191526040518061211b8160609060208152600560208201526419dc985b9d60da1b60408201520190565b0390a36040519060608252600b60608301526a19195e17dd5c19185d195960aa1b60808301526020820152426040820152a2005b60405162461bcd60e51b8152602060048201526013602482015272496e76616c696420444558206164647265737360681b6044820152606490fd5b346106b95760203660031901126106b9576001600160a01b036121ab613b26565b166000526012602052602060ff604060002054166040519015158152f35b346106b95760203660031901126106b9576001600160a01b036121ea613b26565b16600052600a602052602060ff604060002054166040519015158152f35b346106b95760003660031901126106b957612221614954565b600080546001600160a01b0319811682556001600160a01b03167f8be0079c531659141344cd1fd0a4f28419497f9722a3daafe3b4186f6b6457e08280a3005b346106b95760203660031901126106b95760043561227d614954565b601054600060008051602061590383398151915260a060405160608152601c60608201527f6d61785f6c69717569646974795f7570646174655f73746172746564000000006080820152846020820152856040820152a2678ac7230489e8000082106125215769d3c21bcecceda100000082116124e9578082146124a4577f5555555555555555555555555555555555555555555555555555555555555555821161245f5760095460005b8181106123b957600060008051602061590383398151915260a08587806010557fbd98e0bd24b2824759454dcb5d1c32ceb32a60e2a421fbe3bc9620e1f068529660408051848152836020820152a16040519160608352601e60608401527f6d61785f6c69717569646974795f7570646174655f636f6d706c657465640000608084015260208301526040820152a2005b6123c281613b91565b60018060a01b0391549060031b1c169081600052600360205260406000205491858311612421577fbf56b164ad586ba8cdd1ddf2c20cb0d5b567519a27ba02f05e835dd910d715ae60406001948151908152886020820152a201612328565b60405162461bcd60e51b8152602060048201526016602482015275141bdbdb08195e18d959591cc81b995dc81b1a5b5a5d60521b6044820152606490fd5b60405162461bcd60e51b815260206004820152601860248201527f4d617820776f756c64206361757365206f766572666c6f7700000000000000006044820152606490fd5b60405162461bcd60e51b815260206004820152601760248201527f4e6577206d61782073616d652061732063757272656e740000000000000000006044820152606490fd5b60405162461bcd60e51b815260206004820152601060248201526f09ccaee40dac2f040e8dede40d0d2ced60831b6044820152606490fd5b606460405162461bcd60e51b815260206004820152602060248201527f4e6577206d6178206d757374206265203e3d206d696e206c69717569646974796044820152fd5b346106b95760203660031901126106b9576001600160a01b03612586613b26565b1660005260026020526020604060002054604051908152f35b346106b95760003660031901126106b95760206040516000805160206158c38339815191528152f35b346106b95760003660031901126106b957602060405160148152f35b346106b95760203660031901126106b9576125fd613b26565b612605614954565b6001600160a01b03811661261a811515614487565b600c54612632906001600160a01b03168214156144c5565b6000818152600080516020615863833981519152602052604090205460ff166126a55761266d6000805160206158c3833981519152926149ba565b506000805160206158438339815191526040518061134d8160609060208152600560208201526419dc985b9d60da1b60408201520190565b60405162461bcd60e51b8152602060048201526012602482015271082d8e4cac2c8f240c4c2c6d6eae040888ab60731b6044820152606490fd5b346106b95760003660031901126106b957600c546040516001600160a01b039091168152602090f35b346106b95760203660031901126106b957612721613b26565b612729614954565b6001600160a01b03811661273e811515614487565b600c546001600160a01b031681146128015760008181526000805160206158e383398151915260205260409020546000805160206157e3833981519152929060ff166127f2575b6000828152600080516020615863833981519152602052604090205460ff166127e2575b506000805160206158438339815191526040518061134d816060906020815260066020820152657265766f6b6560d01b60408201520190565b6127eb90614fdd565b50826127a9565b6127fb81614f47565b50612785565b60405162461bcd60e51b815260206004820152601e60248201527f43616e6e6f74207265766f6b652066726f6d207072696d6172792044455800006044820152606490fd5b346106b95760203660031901126106b9576020612861613b26565b6005546040516001600160a01b0392831691909216148152f35b613b52565b346106b95760003660031901126106b957602060405160038152f35b346106b9576128aa36613bc4565b909160018060a01b03168060008051602061590383398151915260a060405160608152600360608201526218591960ea1b6080820152856020820152426040820152a28015612e9e5782151580612e95575b15612e505780600052600a60205261291b60ff60406000205416614006565b80600052600860205261299360ff6003604060002001541680600014612e37578260008051602061590383398151915260a060015b60ff6040519160608352601660608401527570726963655f646973636f766572795f73746174757360501b6080840152166020820152426040820152a215614409565b678ac7230489e800008210612de65760105492838311612d9557816000526002602052604060002054938260005260036020526040600020549083600080516020615803833981519152604051806129fe85878c846040919493926060820195825260208201520152565b0390a2612a0b8583614052565b11612d3d576040516370a0823160e01b8152336004820152602081602481875afa9081156113cc57600091612d0b575b506005546040516370a0823160e01b815233600482015290602090829060249082906001600160a01b03165afa9182156113cc578491600093612cd4575b5010612c845784612a8b9110156142e9565b612a978230338661513b565b612aad84303360018060a01b036005541661513b565b6040516370a0823160e01b815233600482015294602086602481875afa9586156113cc57600096612c50575b506005546040516370a0823160e01b815233600482015290602090829060249082906001600160a01b03165afa9081156113cc57600091612c16575b5092612b83867fac1d76749e5447b7b16f5ab61447e1bd502f3bb4807af3b28e620d1700a6ee4594612b71846040968a600080516020615803833981519152606060209f839d8c51918252602082015260008c820152a2614052565b8760005260028b528560002055614052565b8460005260038852826000205583600080516020615903833981519152835180612bae428683614455565b0390a281519081528587820152a28060005260028352600080516020615803833981519152604060002054826000526003855260406000205490612c0b601054604051938493846040919493926060820195825260208201520152565b0390a2604051908152f35b919390506020823d602011612c48575b81612c3360209383613fe4565b810103126106b9579051909290612b83612b15565b3d9150612c26565b9095506020813d602011612c7c575b81612c6c60209383613fe4565b810103126106b957519486612ad9565b3d9150612c5f565b60405162461bcd60e51b815260206004820152602260248201527f496e73756666696369656e742043726561746f7220546f6b656e2062616c616e604482015261636560f01b6064820152608490fd5b915091506020813d602011612d03575b81612cf160209383613fe4565b810103126106b9578390519188612a79565b3d9150612ce4565b90506020813d602011612d35575b81612d2660209383613fe4565b810103126106b9575186612a3b565b3d9150612d19565b60405162461bcd60e51b815260206004820152602a60248201527f546f74616c20434f52414c206c697175696469747920776f756c6420657863656044820152696564206d6178696d756d60b01b6064820152608490fd5b60405162461bcd60e51b8152602060048201526024808201527f434f52414c20616d6f756e742061626f7665206d6178696d756d206c697175696044820152636469747960e01b6064820152608490fd5b60405162461bcd60e51b8152602060048201526024808201527f434f52414c20616d6f756e742062656c6f77206d696e696d756d206c697175696044820152636469747960e01b6064820152608490fd5b8260008051602061590383398151915260a06000612950565b60405162461bcd60e51b815260206004820152601960248201527f496e76616c6964206c697175696469747920616d6f756e7473000000000000006044820152606490fd5b508115156128fc565b60405162461bcd60e51b815260206004820152601560248201527424b73b30b634b21031b932b0ba37b9103a37b5b2b760591b6044820152606490fd5b346106b95760403660031901126106b957612ef4613b26565b60243590612f00614954565b60018060a01b031690816000526008602052604060002090612f2860ff6003840154166143ca565b6004820190815492600684101561320b57600160401b841015610a1357604082869360017f469b6894b4b45f49c7c10aa3e70e1fae20f0eba89b628e3d69af9d7a34ef8bcf94612f7f898360069b018a5589613bac565b81549060031b9085821b91600019901b191617905501558151908152426020820152a25414612faa57005b612fb2614954565b80600052600860205260406000206003810190612fd260ff8354166143ca565b6002810154607881018091116105635742106106745760008381526008602052604081206004018054829190825b8181106131675750508115905061315e5761301a91613c83565b80670de0b6b3a76400000290670de0b6b3a7640000820403610563576127109004670de0b6b3a7640000019081670de0b6b3a764000011610563577f928602a1348c2d5cc6354f7e6953a38bfaf42426cd5d8c83dc7c42b972cfcdb0926130ae6001928487604096916729a2241af62c0000811161311457505067016345785d8a0000811115610507579384910154613cef565b906130c3678ac7230489e80000831015613ca3565b6010548083116130f2575085600052600360205281846000205560ff19815416905582519182526020820152a2005b915060006000805160206158238339815191526020848751908152a2866104c0565b7ffbb0338b3040d7b9bd8495de3d07128625b3ead1c3464340ed2e760a015d7447919250879081519081526729a2241af62c00006020820152a26729a2241af62c00008789610483565b5050600061301a565b80613175575b600101613000565b61317f8184613bac565b905460001983019160031b1c8282116105635761319c8286613bac565b90549060031b1c106131af575b5061316d565b6131bd828597939697613bac565b90549060031b1c906131d56000926105f08388613bac565b91612710830292808404612710149015171561066057926106396132049361062c61064d946001975089613bac565b93906131a9565b60405162461bcd60e51b815260206004820152601560248201527413585e081cdb985c1cda1bdd1cc81c995858da1959605a1b6044820152606490fd5b346106b95760003660031901126106b957602060405162093a808152f35b346106b95760203660031901126106b95761327f613b26565b600654607881018091116105635742106132bb576001600160a01b0381166000908152600760205260409020546132b591614bb3565b42600655005b60405162461bcd60e51b815260206004820152601760248201527f546f6f206561726c7920666f7220726562616c616e63650000000000000000006044820152606490fd5b346106b95760203660031901126106b957604061332361331e613b26565b614335565b82519182526020820152f35b346106b95760203660031901126106b95760043561334b614954565b801561346857600c546001600160a01b0316801561342a576005546040516370a0823160e01b81523060048201526001600160a01b0390911691602082602481865afa80156113cc5784926000916133f1575b50926133af836133b49510156142e9565b6150f9565b7f5743c23aa18e9c7c385e45094156d20b8a0436ddc5e68943713e62ce630951a1604060018060a01b03600c5416928151908152426020820152a2005b9250506020823d602011613422575b8161340d60209383613fe4565b810103126106b95790518391906133af61339e565b3d9150613400565b60405162461bcd60e51b8152602060048201526016602482015275111156081859191c995cdcc81a5cc81b9bdd081cd95d60521b6044820152606490fd5b606460405162461bcd60e51b815260206004820152602060248201527f416d6f756e74206d7573742062652067726561746572207468616e207a65726f6044820152fd5b346106b95760403660031901126106b9576134c5613b3c565b336001600160a01b038216036134e157610f1790600435615073565b63334bd91960e11b60005260046000fd5b346106b95760403660031901126106b957610f1761350e613b26565b613516614954565b6024359061405f565b346106b95760003660031901126106b957602060405160068152f35b346106b95760003660031901126106b95760206040516103e88152f35b346106b95760403660031901126106b957610f17600435613577613b3c565b90613593610f0d82600052600160205260016040600020015490565b614aea565b346106b95760003660031901126106b95760206040516000805160206157e38339815191528152f35b346106b95760003660031901126106b9576020604051610e108152f35b346106b95760203660031901126106b957602061360b600435600052600160205260016040600020015490565b604051908152f35b346106b95760203660031901126106b9576004356009548110156106b95761363c602091613b91565b905460405160039290921b1c6001600160a01b03168152f35b346106b95760203660031901126106b95761366e613b26565b613676614954565b6001600160a01b03166000818152600a602052604090205461369a9060ff16614006565b60005b60095490818110156137a157826136b382613b91565b905460039190911b1c6001600160a01b0316146136d457600191500161369d565b600019820191821161056357818103613773575b50506009548015610a89576000190161370081613b91565b81549060018060a01b039060031b1b191690556009555b80600052600a602052604060002060ff19815416905560008051602061588383398151915260a060405160608152600e60608201526d1c1bdbdb17dd5b9d1c9858dad95960921b608082015260006020820152426040820152a2005b61171b61378261379a93613b91565b905460039190911b1c6001600160a01b031691613b91565b81806136e8565b5050613717565b346106b95760203660031901126106b9576001600160a01b036137c9613b26565b1660005260046020526020604060002054604051908152f35b346106b95760203660031901126106b9576137fb613b26565b60408051630fa6707960e21b81526001600160a01b03909216600483015281602481305afa80156113cc57600090819061387e575b60209250678ac7230489e800008210159182613871575b508161385e575b816107fa57506040519015158152f35b678ac7230489e80000811015915061384e565b6010541015915083613847565b50906040813d6040116138b4575b8161389960409383613fe4565b810103126138b05760208092508151910151613830565b5080fd5b3d915061388c565b346106b95760003660031901126106b9576020604051674563918244f400008152f35b346106b95760003660031901126106b957602060405167016345785d8a00008152f35b346106b95760403660031901126106b957602061360b602435600435613cef565b346106b95760203660031901126106b957600435600052601660205260a06040600020600180831b0381541690600181015490600281015460046003830154920154926040519485526020850152604084015260608301526080820152f35b346106b95760203660031901126106b9576001600160a01b036139a3613b26565b16600052600b60205260406000208054610e2060026001840154930154604051938493846040919493926060820195825260208201520152565b346106b95760203660031901126106b9576139f6613b26565b6139fe614954565b6001600160a01b031660008181526012602052604090205460ff1615613a8e57807f855511cc3694f64379908437d6d64458dc76d02482052bfb8a5b33a72c054c77916000526012602052604060002060ff1981541690556000805160206158438339815191526040518061134d816060906020815260066020820152657265766f6b6560d01b60408201520190565b60405162461bcd60e51b815260206004820152601760248201527f41646472657373206e6f742077686974656c69737465640000000000000000006044820152606490fd5b346106b95760203660031901126106b9576004359063ffffffff60e01b82168092036106b957602091637965db0b60e01b8114908115613b15575b5015158152f35b6301ffc9a760e01b14905083613b0e565b600435906001600160a01b03821682036106b957565b602435906001600160a01b03821682036106b957565b346106b95760003660031901126106b957602060405160788152f35b346106b95760003660031901126106b9576020604051678ac7230489e800008152f35b6009548110156110c757600960005260206000200190600090565b80548210156110c75760005260206000200190600090565b60609060031901126106b9576004356001600160a01b03811681036106b957906024359060443590565b602060408183019282815284518094520192019060005b818110613c125750505090565b82516001600160a01b0316845260209384019390920191600101613c05565b346106b95760003660031901126106b9576020604051670de0b6b3a76400008152f35b80548210156110c75760005260206000209060011b0190600090565b8181029291811591840414171561056357565b8115613c8d570490565b634e487b7160e01b600052601260045260246000fd5b15613caa57565b60405162461bcd60e51b815260206004820152601760248201527f4c69717569646974792062656c6f77206d696e696d756d0000000000000000006044820152606490fd5b600060008051602061590383398151915260c060405160608152602560608201527f696e697469616c5f6c69717569646974795f63616c63756c6174696f6e5f7374608082015264185c9d195960da1b60a0820152846020820152856040820152a28015613f67578115613f2b5767016345785d8a00008210613ef0576729a2241af62c00008211613eb55781600019048111613e705781613d9091613c70565b90601054600060008051602061590383398151915260a06040516060815260116060820152707072655f6361705f6c697175696469747960781b6080820152866020820152846040820152a2808311613e50575060008051602061590383398151915260a0600092613e0c678ac7230489e80000861015613ca3565b6040519060608252601a60608301527f66696e616c5f6c69717569646974795f63616c63756c6174656400000000000060808301528560208301526040820152a290565b91505060006000805160206158238339815191526020604051848152a290565b60405162461bcd60e51b815260206004820152601760248201527f4d756c7469706c69636174696f6e206f766572666c6f770000000000000000006044820152606490fd5b60405162461bcd60e51b815260206004820152601360248201527250726963652061626f7665206d6178696d756d60681b6044820152606490fd5b60405162461bcd60e51b815260206004820152601360248201527250726963652062656c6f77206d696e696d756d60681b6044820152606490fd5b60405162461bcd60e51b815260206004820152601460248201527350726963652063616e6e6f74206265207a65726f60601b6044820152606490fd5b60405162461bcd60e51b815260206004820152601860248201527f496e76616c6964207375627363726962657220636f756e7400000000000000006044820152606490fd5b6040810190811067ffffffffffffffff821117610a1357604052565b6060810190811067ffffffffffffffff821117610a1357604052565b90601f8019910116810190811067ffffffffffffffff821117610a1357604052565b1561400d57565b60405162461bcd60e51b815260206004820152601060248201526f141bdbdb081b9bdd081d1c9858dad95960821b6044820152606490fd5b9190820391821161056357565b9190820180921161056357565b9060018060a01b038216908160005260076020526040600020916001830180549360038101908154908460008051602061590383398151915260a060405160608152601960608201527f656e676167656d656e745f7570646174655f73746172746564000000000000006080820152896020820152426040820152a2811561428b576050870287810460501488151715610563576014870290878204601414881517156105635760648061411593049104614052565b968088111561425d576141288189614045565b60648102908082046064149015171561056357889161414691613c83565b945b87835555600242910155600181018082116105635760039255837fca21c0666034043e35144e1a6964b4519a124330e0122463475f81a0c189d119604051806141a4428b8b846040919493926060820195825260208201520152565b0390a210156141b5575b5050505050565b600a116141f65750606e8202828104606e14831517156105635760649004106141e6575b50505b38808080806141ae565b6141ef91614bb3565b38806141d9565b92505060807f43c29e41362bceae5b8f10cf00d57c5b525a270a7ff263f5c6b24158459b0bbe9160405190815260406020820152601e60408201527f4368616e67652062656c6f77206d696e696d756d207468726573686f6c6400006060820152a26141dc565b6142678882614045565b60648102908082046064149015171561056357889161428591613c83565b94614148565b8580959850600080516020615883833981519152975060a09692506001949155555560405190606082526016606083015275195b99d859d95b595b9d17da5b9a5d1a585b1a5e995960521b60808301526020820152426040820152a2565b156142f057565b60405162461bcd60e51b815260206004820152601a60248201527f496e73756666696369656e7420434f52414c2062616c616e63650000000000006044820152606490fd5b6001600160a01b03169081156143855781600052600a60205260ff604060002054161561437d5781600052600260205260406000205491600052600360205260406000205490565b600091508190565b60405162461bcd60e51b815260206004820152601d60248201527f496e76616c69642063726561746f7220746f6b656e20616464726573730000006044820152606490fd5b156143d157565b60405162461bcd60e51b815260206004820152601060248201526f4e6f7420696e20646973636f7665727960801b6044820152606490fd5b1561441057565b60405162461bcd60e51b815260206004820152601c60248201527f507269636520646973636f76657279206e6f7420636f6d706c657465000000006044820152606490fd5b60608082526009908201526818dbdb5c1b195d195960ba1b60808201529092919060409060a081019460208201520152565b1561448e57565b60405162461bcd60e51b815260206004820152600f60248201526e496e76616c6964206164647265737360881b6044820152606490fd5b156144cc57565b60405162461bcd60e51b8152602060048201526013602482015272082d8e4cac2c8f240e0e4d2dac2e4f240888ab606b1b6044820152606490fd5b67ffffffffffffffff8111610a135760051b60200190565b6001600160a01b03166000908152600b6020526040902080548015908115614560575b5061455a576001678ac7230489e80000910154101590565b50600090565b905062093a80810180911161056357421138614542565b1561457e57565b60405162461bcd60e51b815260206004820152601c60248201527f43616c6c6572206973206e6f7420617574686f72697a656420444558000000006044820152606490fd5b156145cb5750565b6040519062461bcd60e51b8252602060048301528181519182602483015260005b83811061460e5750508160006044809484010152601f80199101168101030190fd5b602082820181015160448784010152859350016145ec565b60018060a01b031660018060a01b0382169182826000805160206158a3833981519152608060405160408152600860408201526772656465706c6f7960c01b606082015260006020820152a38160005260046020526040600020549081156148eb57674563918244f400008210614887576040516370a0823160e01b8152306004820152602081602481875afa80156113cc578391600091614852575b5084600080516020615803833981519152606060405184815285602082015260006040820152a2106147e3576000838152600460205260408120556005546000805160206158a3833981519152926147a392909182906001600160a01b031686036147a857614745918760005260036020526040600020611327838254614052565b84847fa2e59056a8017237dd27a52d5981fb4983f1a43828d018d9ba6e76c801fe90596020604051858152a35b6040519182918260408082526009908201526818dbdb5c1b195d195960ba1b60608201529190602060808401930152565b0390a3565b6147b291866150f9565b84847fa2e59056a8017237dd27a52d5981fb4983f1a43828d018d9ba6e76c801fe90596020604051858152a3614772565b507f4a74ccb009fe8e58c74acbb8e4eba7f17f113cc4a42830e287cb344e283b38729150604051908152604060208201528061484d60408201604090601d81527f496e73756666696369656e7420636f6e74726163742062616c616e636500000060208201520190565b0390a2565b91506020823d60201161487f575b8161486d60209383613fe4565b81010312611a8d5750829051386146c3565b3d9150614860565b507f4a74ccb009fe8e58c74acbb8e4eba7f17f113cc4a42830e287cb344e283b3872915060809060405190815260406020820152601b60408201527f42656c6f77206d696e696d756d20666565207468726573686f6c6400000000006060820152a2565b507f4a74ccb009fe8e58c74acbb8e4eba7f17f113cc4a42830e287cb344e283b387291506080906040519081526040602082015260136040820152724e6f206665657320746f2072656465706c6f7960681b6060820152a2565b60001981146105635760010190565b6000546001600160a01b0316330361496857565b63118cdaa760e01b6000523360045260246000fd5b600081815260016020908152604080832033845290915290205460ff16156149a25750565b63e2517d3f60e01b6000523360045260245260446000fd5b6001600160a01b0381166000908152600080516020615863833981519152602052604090205460ff1661455a576001600160a01b0316600081815260008051602061586383398151915260205260408120805460ff191660011790553391906000805160206158c3833981519152907f2f8788117e7eff1d82e926ec794901d17c78024a50270940304540a733656f0d9080a4600190565b6001600160a01b03811660009081526000805160206158e3833981519152602052604090205460ff1661455a576001600160a01b031660008181526000805160206158e383398151915260205260408120805460ff191660011790553391906000805160206157e3833981519152907f2f8788117e7eff1d82e926ec794901d17c78024a50270940304540a733656f0d9080a4600190565b60008181526001602090815260408083206001600160a01b038616845290915290205460ff16614b725760008181526001602081815260408084206001600160a01b0396909616808552959091528220805460ff19169091179055339291907f2f8788117e7eff1d82e926ec794901d17c78024a50270940304540a733656f0d9080a4600190565b5050600090565b909160a09282526020820152606060408201526013606082015272149958985b185b98d94818dbdb5c1b195d1959606a1b60808201520190565b6001600160a01b03166000818152600360205260409081902054905191929183917fd5fbf25fb569fbaa4f45320be0052de918d607298a2a5158579a543c3682c11691908190614c04908083614b79565b0390a2816000526003602052678ac7230489e8000060406000205410614ede577812725dd1d243aba0e75fe645cc4873f9e65afe688c928e1f218111614e8a57670de0b6b3a7640000810290808204670de0b6b3a764000014901517156105635780829190827f078500306b159d266ecdcd5d7767d0b781932a0896e6de6539ee693a704583b56060604051678ac7230489e80000815267d02ab486cedc00006020820152846040820152a267d02ab486cedc00008110614deb575b507fd5fbf25fb569fbaa4f45320be0052de918d607298a2a5158579a543c3682c1169150601054808211614dc9575b508260005260036020528260008051602061590383398151915260a06040600020546040519060608252601060608301526f7072655f7570646174655f737461746560801b60808301526020820152846040820152a260008381526003602081815260408084208054908690556002835293819020549282526010548151938452918301859052820152849060008051602061580383398151915290606090a2837f8eb665708d1cbfa2df196d5f041bc00ac33e9c6e0b42b64233aed0c7c84da7e16020604051858152a261484d60405192839283614b79565b905082600080516020615823833981519152602083604051908152a238614cef565b7ff8f759ef15ae76bcaed46ee5ff4930cd73c55ebe7feae9f2f95e93e15765c8cf915060a09060405190815267d02ab486cedc0000602082015260606040820152601760608201527f456e666f7263696e6720736166657479206275666665720000000000000000006080820152a28067d02ab486cedc00007fd5fbf25fb569fbaa4f45320be0052de918d607298a2a5158579a543c3682c116614cc0565b60405162461bcd60e51b815260206004820152602660248201527f4f766572666c6f77207269736b20696e206c69717569646974792063616c63756044820152653630ba34b7b760d11b6064820152608490fd5b508060005260036020527f43c29e41362bceae5b8f10cf00d57c5b525a270a7ff263f5c6b24158459b0bbe6080604060002054604051908152604060208201526016604082015275496e73756666696369656e74206c697175696469747960501b6060820152a2565b6001600160a01b03811660009081526000805160206158e3833981519152602052604090205460ff161561455a576001600160a01b031660008181526000805160206158e383398151915260205260408120805460ff191690553391906000805160206157e3833981519152907ff6391f5c32d9c69d2a47ea670b442974b53935d1edc7fd64eb21e047a839171b9080a4600190565b6001600160a01b0381166000908152600080516020615863833981519152602052604090205460ff161561455a576001600160a01b0316600081815260008051602061586383398151915260205260408120805460ff191690553391906000805160206158c3833981519152907ff6391f5c32d9c69d2a47ea670b442974b53935d1edc7fd64eb21e047a839171b9080a4600190565b60008181526001602090815260408083206001600160a01b038616845290915290205460ff1615614b725760008181526001602090815260408083206001600160a01b0395909516808452949091528120805460ff19169055339291907ff6391f5c32d9c69d2a47ea670b442974b53935d1edc7fd64eb21e047a839171b9080a4600190565b60405163a9059cbb60e01b60208201526001600160a01b03909216602483015260448083019390935291815261513991615134606483613fe4565b615768565b565b6040516323b872dd60e01b60208201526001600160a01b03928316602482015292909116604483015260648083019390935291815261513991615134608483613fe4565b600d546001600160a01b03166000818152600a602052604090205460ff161590811561568e575b508015615676575b615241575b600d546001600160a01b03166000818152600a602052604090205460ff16158015615231575b6151e05790565b50600060008051602061590383398151915260a06040516060815260146060820152731b9bd7dd985b1a5917dc1bdbdb1cd7d99bdd5b9960621b6080820152426020820152836040820152a2600090565b5061523b8161451f565b156151d9565b600060008051602061590383398151915260a0604051606081526013606082015272666f7263696e675f706f6f6c5f75706461746560681b6080820152426020820152836040820152a2601554600954600060008051602061588383398151915260a060405160608152601860608201527f706f6f6c5f6e6565645f7570646174655f7374617274656400000000000000006080820152856020820152846040820152a2600a82018083116105635781808210911802189060009182915b8181106153fd5750600954918215613c8d579190066015556001600160a01b0316906000805160206158838339815191529060a090831515806153d9575b615381575b6040519060608252601660608301527518985d18da17dd5c19185d1957d8dbdb5c1b195d195960521b60808301526020820152426040820152a26151b3565b836001600160601b03831b600d541617600d5580600e5542600f558383836040516060815260116060820152701c1bdbdb17db99595917dd5c19185d1959607a1b6080820152846020820152426040820152a2615342565b50600e5481118061533d57506153f7600180841b03600d541661451f565b1561533d565b61540681613b91565b905460039190911b1c6001600160a01b03166154218161451f565b156156295780600052600360205260406000205481600052600b6020526001604060002001549069021e19e0c9bab24000008104600501806005116105635769010f0cf064dd59200000830460030190816003116105635784927f81b825a5c8f36995208769e66cd92a494001553f569b0767b66942af9cfa65879260a092600a8111156156235750600a905b600a81111561561d5750600a905b600a6154d56154cb8386613c70565b61065a858b613c70565b0496604051938885526020850152604084015260608301526080820152a281600052601460205260406000205480156000146155ed575060405161551881613fc8565b828152602081019082825260408101428152601354600160401b811015610a135780600161554992016013556157c3565b9390936109fd5760029260018060a01b039051166001600160601b0360a01b855416178455516001840155519101556013548260005260146020526040600020555b8581116155e2575b9060008051602061588383398151915260a0600194936040519060608252600e60608301526d1c1bdbdb17dc1c9bd8d95cdcd95960921b60808301526020820152426040820152a25b016152ff565b945092508284615593565b60001981019081116105635780826001615609615611946157c3565b5001556157c3565b5060024291015561558b565b906154bc565b906154ae565b9060019160008051602061588383398151915260a060405160608152600d60608201526c706f6f6c5f696e61637469766560981b60808201526000602082015260006040820152a26155dc565b50600f54610e108101809111610563574210156151ae565b615698915061451f565b15386151a6565b6001600160a01b03168015614b7257670de0b6b3a76400008210614b725780600052600360205260406000205490600052600b602052678ac7230489e800006040600020916040516156f081613fc8565b83548152604060026001860154958660208501520154910152106000146157345750805b670de0b6b3a76400008110614b72578181111561572f575090565b905090565b6801158e460913d00000101561575f57604b8102818104604b14821517156105635760649004615714565b8060011c615714565b906000602091828151910182855af1156113cc576000513d6157ba57506001600160a01b0381163b155b6157995750565b635274afe760e01b60009081526001600160a01b0391909116600452602490fd5b60011415615792565b6013548110156110c7576013600052600360206000209102019060009056fe3d962df346299889e3ddd098bdd68cf335a1e370339bd306448317d39b39a66d72e170fd318563be2751ca3be93e9f1921d5a6051a295cea9759a57953d8e87a52815f7ef39cfe1f42d5c23d10919cc9fbebd17d9edbc1132eee0079a50dc945c10526fb968814275769551eecacdd8dc6f8fa4321845f7519c819b95b04b62082fb30387f7034eec77298003ed11a78bfd357ce4188786ace62a78239de1d84ed5941377c8af2e968d347b354e48e58e2d6578fefd738820a5ccfca78f9b4832af63b40e5ba31ae18b3acf18a8644c9c93fe8fee862ab8ed4220c45d9656a34bf68135d840b7d2e69e8dce11f7f9e158069f12649d1dda9ba2a0ae4f561defb7ada6dbb520616cff5d6f574aff5a85f6d0dabe1f7d96c08fe8e54d79bfca6e005a1edf8904f27f92726c49fc4a4f3240c05ce893bb6cff6306f76d38a7fe7b9a2646970667358221220a0545db917e958780dfa0d4b7be944e22cc4abd1a99aeb795b2a969daaf0fde964736f6c634300081c0033a6eef7e35abe7026729641147f7915573c7e97b47efa546f5f6e3230263bcb49","opcodes":"PUSH1 0x80 CALLVALUE PUSH2 0xED JUMPI PUSH1 0x1F PUSH2 0x5B0F CODESIZE DUP2 SWAP1 SUB SWAP2 DUP3 ADD PUSH1 0x1F NOT AND DUP4 ADD SWAP2 PUSH1 0x1 PUSH1 0x1 PUSH1 0x40 SHL SUB DUP4 GT DUP5 DUP5 LT OR PUSH2 0xF2 JUMPI DUP1 DUP5 SWAP3 PUSH1 0x20 SWAP5 PUSH1 0x40 MSTORE DUP4 CODECOPY DUP2 ADD SUB SLT PUSH2 0xED JUMPI MLOAD PUSH1 0x1 PUSH1 0x1 PUSH1 0xA0 SHL SUB DUP2 AND SWAP1 DUP2 SWAP1 SUB PUSH2 0xED JUMPI CALLER ISZERO PUSH2 0xD7 JUMPI PUSH1 0x0 DUP1 SLOAD CALLER PUSH1 0x1 PUSH1 0x1 PUSH1 0xA0 SHL SUB NOT DUP3 AND DUP2 OR DUP4 SSTORE SWAP2 PUSH1 0x1 PUSH1 0x1 PUSH1 0xA0 SHL SUB SWAP1 SWAP2 AND SWAP1 PUSH32 0x8BE0079C531659141344CD1FD0A4F28419497F9722A3DAAFE3B4186F6B6457E0 SWAP1 DUP1 LOG3 PUSH10 0x21E19E0C9BAB2400000 PUSH1 0x10 SSTORE PUSH1 0x5 DUP1 SLOAD PUSH1 0x1 PUSH1 0x1 PUSH1 0xA0 SHL SUB NOT AND SWAP2 SWAP1 SWAP2 OR SWAP1 SSTORE PUSH2 0xC7 CALLER PUSH2 0x108 JUMP JUMPDEST POP PUSH1 0x40 MLOAD PUSH2 0x5958 SWAP1 DUP2 PUSH2 0x197 DUP3 CODECOPY RETURN JUMPDEST PUSH4 0x1E4FBDF7 PUSH1 0xE0 SHL PUSH1 0x0 MSTORE PUSH1 0x0 PUSH1 0x4 MSTORE PUSH1 0x24 PUSH1 0x0 REVERT JUMPDEST PUSH1 0x0 DUP1 REVERT JUMPDEST PUSH4 0x4E487B71 PUSH1 0xE0 SHL PUSH1 0x0 MSTORE PUSH1 0x41 PUSH1 0x4 MSTORE PUSH1 0x24 PUSH1 0x0 REVERT JUMPDEST PUSH1 0x1 PUSH1 0x1 PUSH1 0xA0 SHL SUB DUP2 AND PUSH1 0x0 SWAP1 DUP2 MSTORE PUSH1 0x0 DUP1 MLOAD PUSH1 0x20 PUSH2 0x5AEF DUP4 CODECOPY DUP2 MLOAD SWAP2 MSTORE PUSH1 0x20 MSTORE PUSH1 0x40 SWAP1 KECCAK256 SLOAD PUSH1 0xFF AND PUSH2 0x190 JUMPI PUSH1 0x1 PUSH1 0x1 PUSH1 0xA0 SHL SUB AND PUSH1 0x0 DUP2 DUP2 MSTORE PUSH1 0x0 DUP1 MLOAD PUSH1 0x20 PUSH2 0x5AEF DUP4 CODECOPY DUP2 MLOAD SWAP2 MSTORE PUSH1 0x20 MSTORE PUSH1 0x40 DUP2 KECCAK256 DUP1 SLOAD PUSH1 0xFF NOT AND PUSH1 0x1 OR SWAP1 SSTORE CALLER SWAP2 SWAP1 PUSH32 0x2F8788117E7EFF1D82E926EC794901D17C78024A50270940304540A733656F0D DUP2 DUP1 LOG4 PUSH1 0x1 SWAP1 JUMP JUMPDEST POP PUSH1 0x0 SWAP1 JUMP INVALID PUSH1 0x80 DUP1 PUSH1 0x40 MSTORE PUSH1 0x4 CALLDATASIZE LT ISZERO PUSH2 0x13 JUMPI PUSH1 0x0 DUP1 REVERT JUMPDEST PUSH1 0x0 CALLDATALOAD PUSH1 0xE0 SHR SWAP1 DUP2 PUSH4 0x1FFC9A7 EQ PUSH2 0x3AD3 JUMPI POP DUP1 PUSH4 0x502E222 EQ PUSH2 0x39DD JUMPI DUP1 PUSH4 0x51E0E67 EQ PUSH2 0x3982 JUMPI DUP1 PUSH4 0x6F2C561 EQ PUSH2 0x3923 JUMPI DUP1 PUSH4 0x14F302AC EQ PUSH2 0x3902 JUMPI DUP1 PUSH4 0x17359688 EQ PUSH2 0x287B JUMPI DUP1 PUSH4 0x1879DCF3 EQ PUSH2 0x38DF JUMPI DUP1 PUSH4 0x1B5A799A EQ PUSH2 0x38BC JUMPI DUP1 PUSH4 0x1CCF71EB EQ PUSH2 0x37E2 JUMPI DUP1 PUSH4 0x1CEAD9A7 EQ PUSH2 0x37A8 JUMPI DUP1 PUSH4 0x21B77D63 EQ PUSH2 0x1DE8 JUMPI DUP1 PUSH4 0x2253FC3C EQ PUSH2 0x3655 JUMPI DUP1 PUSH4 0x23BFA792 EQ PUSH2 0x3613 JUMPI DUP1 PUSH4 0x248A9CA3 EQ PUSH2 0x35DE JUMPI DUP1 PUSH4 0x2D957A8C EQ PUSH2 0x35C1 JUMPI DUP1 PUSH4 0x2EF97265 EQ PUSH2 0x3598 JUMPI DUP1 PUSH4 0x2F2FF15D EQ PUSH2 0x3558 JUMPI DUP1 PUSH4 0x30AE7805 EQ PUSH2 0x353B JUMPI DUP1 PUSH4 0x31AD24F8 EQ PUSH2 0x351F JUMPI DUP1 PUSH4 0x3417C3D0 EQ PUSH2 0x34F2 JUMPI DUP1 PUSH4 0x36568ABE EQ PUSH2 0x34AC JUMPI DUP1 PUSH4 0x3C231EFD EQ PUSH2 0x332F JUMPI DUP1 PUSH4 0x3E99C1E4 EQ PUSH2 0x3300 JUMPI DUP1 PUSH4 0x3EC43350 EQ PUSH2 0x3266 JUMPI DUP1 PUSH4 0x414F99AE EQ PUSH2 0x3248 JUMPI DUP1 PUSH4 0x4E358AF2 EQ PUSH2 0x2EDB JUMPI DUP1 PUSH4 0x55776B77 EQ PUSH2 0x289C JUMPI DUP1 PUSH4 0x5889486E EQ PUSH2 0x2880 JUMPI DUP1 PUSH4 0x5C2DA7CD EQ PUSH2 0x287B JUMPI DUP1 PUSH4 0x65B85EC4 EQ PUSH2 0x2846 JUMPI DUP1 PUSH4 0x68D693C3 EQ PUSH2 0x2708 JUMPI DUP1 PUSH4 0x692058C2 EQ PUSH2 0x26DF JUMPI DUP1 PUSH4 0x6AC7B41E EQ PUSH2 0x25E4 JUMPI DUP1 PUSH4 0x6D2BEEF1 EQ PUSH2 0x25C8 JUMPI DUP1 PUSH4 0x6EB2EBDA EQ PUSH2 0x259F JUMPI DUP1 PUSH4 0x708B9935 EQ PUSH2 0x2565 JUMPI DUP1 PUSH4 0x71081C8E EQ PUSH2 0x2261 JUMPI DUP1 PUSH4 0x715018A6 EQ PUSH2 0x2208 JUMPI DUP1 PUSH4 0x74A92C66 EQ PUSH2 0x21C9 JUMPI DUP1 PUSH4 0x78357539 EQ PUSH2 0x218A JUMPI DUP1 PUSH4 0x7B66A723 EQ PUSH2 0x205C JUMPI DUP1 PUSH4 0x84F74A69 EQ PUSH2 0x2022 JUMPI DUP1 PUSH4 0x8C93CA7C EQ PUSH2 0x1E63 JUMPI DUP1 PUSH4 0x8DA5CB5B EQ PUSH2 0x1E3A JUMPI DUP1 PUSH4 0x91D14854 EQ PUSH2 0x1DED JUMPI DUP1 PUSH4 0x993D3450 EQ PUSH2 0x1DE8 JUMPI DUP1 PUSH4 0x9A92C4FE EQ PUSH2 0x1DC3 JUMPI DUP1 PUSH4 0xA0169745 EQ PUSH2 0x1DA5 JUMPI DUP1 PUSH4 0xA033FCD4 EQ PUSH2 0x1D24 JUMPI DUP1 PUSH4 0xA1CE9204 EQ PUSH2 0x1CED JUMPI DUP1 PUSH4 0xA217FDDF EQ PUSH2 0x1CD1 JUMPI DUP1 PUSH4 0xA2705123 EQ PUSH2 0x1BCA JUMPI DUP1 PUSH4 0xA711E6A1 EQ PUSH2 0x1B9D JUMPI DUP1 PUSH4 0xAD3B1B47 EQ PUSH2 0x17DE JUMPI DUP1 PUSH4 0xAFABDF11 EQ PUSH2 0x1679 JUMPI DUP1 PUSH4 0xB1A23FB4 EQ PUSH2 0x165B JUMPI DUP1 PUSH4 0xB1EB4835 EQ PUSH2 0x15FF JUMPI DUP1 PUSH4 0xB2098FA2 EQ PUSH2 0x1573 JUMPI DUP1 PUSH4 0xB7F23D19 EQ PUSH2 0x6BE JUMPI DUP1 PUSH4 0xB83D8157 EQ PUSH2 0x1555 JUMPI DUP1 PUSH4 0xBBA2E140 EQ PUSH2 0x152C JUMPI DUP1 PUSH4 0xBC99F487 EQ PUSH2 0x1126 JUMPI DUP1 PUSH4 0xBD1E31AA EQ PUSH2 0x10F4 JUMPI DUP1 PUSH4 0xC45CFFAB EQ PUSH2 0x1018 JUMPI DUP1 PUSH4 0xCB01A4A4 EQ PUSH2 0xFFC JUMPI DUP1 PUSH4 0xCD6F3CF4 EQ PUSH2 0xF19 JUMPI DUP1 PUSH4 0xD547741F EQ PUSH2 0xED2 JUMPI DUP1 PUSH4 0xD55091F9 EQ PUSH2 0xE74 JUMPI DUP1 PUSH4 0xD6F969E2 EQ PUSH2 0xE24 JUMPI DUP1 PUSH4 0xE1AEB092 EQ PUSH2 0xDBD JUMPI DUP1 PUSH4 0xE38192E3 EQ PUSH2 0xB85 JUMPI DUP1 PUSH4 0xE71E76C1 EQ PUSH2 0x807 JUMPI DUP1 PUSH4 0xE7C75B79 EQ PUSH2 0x7C6 JUMPI DUP1 PUSH4 0xF2FD23DE EQ PUSH2 0x76A JUMPI DUP1 PUSH4 0xF2FDE38B EQ PUSH2 0x6E1 JUMPI DUP1 PUSH4 0xF525CB68 EQ PUSH2 0x6C3 JUMPI DUP1 PUSH4 0xF86325ED EQ PUSH2 0x6BE JUMPI PUSH4 0xFB99D5F4 EQ PUSH2 0x379 JUMPI PUSH1 0x0 DUP1 REVERT JUMPDEST CALLVALUE PUSH2 0x6B9 JUMPI PUSH1 0x20 CALLDATASIZE PUSH1 0x3 NOT ADD SLT PUSH2 0x6B9 JUMPI PUSH2 0x392 PUSH2 0x3B26 JUMP JUMPDEST PUSH2 0x39A PUSH2 0x4954 JUMP JUMPDEST PUSH1 0x1 DUP1 PUSH1 0xA0 SHL SUB AND DUP1 PUSH1 0x0 MSTORE PUSH1 0x8 PUSH1 0x20 MSTORE PUSH1 0x40 PUSH1 0x0 KECCAK256 PUSH1 0x3 DUP2 ADD SWAP1 PUSH2 0x3C2 PUSH1 0xFF DUP4 SLOAD AND PUSH2 0x43CA JUMP JUMPDEST PUSH1 0x2 DUP2 ADD SLOAD PUSH1 0x78 DUP2 ADD DUP1 SWAP2 GT PUSH2 0x563 JUMPI TIMESTAMP LT PUSH2 0x674 JUMPI PUSH1 0x0 DUP4 DUP2 MSTORE PUSH1 0x8 PUSH1 0x20 MSTORE PUSH1 0x40 DUP2 KECCAK256 PUSH1 0x4 ADD DUP1 SLOAD DUP3 SWAP2 SWAP1 DUP3 JUMPDEST DUP2 DUP2 LT PUSH2 0x582 JUMPI POP POP DUP2 ISZERO SWAP1 POP PUSH2 0x579 JUMPI PUSH2 0x40A SWAP2 PUSH2 0x3C83 JUMP JUMPDEST DUP1 PUSH8 0xDE0B6B3A7640000 MUL SWAP1 PUSH8 0xDE0B6B3A7640000 DUP3 DIV SUB PUSH2 0x563 JUMPI PUSH2 0x2710 SWAP1 DIV PUSH8 0xDE0B6B3A7640000 ADD SWAP1 DUP2 PUSH8 0xDE0B6B3A7640000 GT PUSH2 0x563 JUMPI PUSH32 0x928602A1348C2D5CC6354F7E6953A38BFAF42426CD5D8C83DC7C42B972CFCDB0 SWAP3 PUSH2 0x4A0 PUSH1 0x1 SWAP3 DUP5 DUP8 PUSH1 0x40 SWAP7 SWAP2 PUSH8 0x29A2241AF62C0000 DUP2 GT PUSH2 0x519 JUMPI JUMPDEST POP POP PUSH8 0x16345785D8A0000 DUP2 GT ISZERO PUSH2 0x507 JUMPI SWAP4 DUP5 SWAP2 JUMPDEST ADD SLOAD PUSH2 0x3CEF JUMP JUMPDEST SWAP1 PUSH2 0x4B5 PUSH8 0x8AC7230489E80000 DUP4 LT ISZERO PUSH2 0x3CA3 JUMP JUMPDEST PUSH1 0x10 SLOAD DUP1 DUP4 GT PUSH2 0x4E5 JUMPI JUMPDEST POP DUP6 PUSH1 0x0 MSTORE PUSH1 0x3 PUSH1 0x20 MSTORE DUP2 DUP5 PUSH1 0x0 KECCAK256 SSTORE PUSH1 0xFF NOT DUP2 SLOAD AND SWAP1 SSTORE DUP3 MLOAD SWAP2 DUP3 MSTORE PUSH1 0x20 DUP3 ADD MSTORE LOG2 STOP JUMPDEST SWAP2 POP PUSH1 0x0 PUSH1 0x0 DUP1 MLOAD PUSH1 0x20 PUSH2 0x5823 DUP4 CODECOPY DUP2 MLOAD SWAP2 MSTORE PUSH1 0x20 DUP5 DUP8 MLOAD SWAP1 DUP2 MSTORE LOG2 CODESIZE PUSH2 0x4C0 JUMP JUMPDEST POP PUSH8 0x16345785D8A0000 SWAP4 DUP5 SWAP2 PUSH2 0x499 JUMP JUMPDEST PUSH32 0xFBB0338B3040D7B9BD8495DE3D07128625B3EAD1C3464340ED2E760A015D7447 SWAP2 SWAP3 POP DUP8 SWAP1 DUP2 MLOAD SWAP1 DUP2 MSTORE PUSH8 0x29A2241AF62C0000 PUSH1 0x20 DUP3 ADD MSTORE LOG2 PUSH8 0x29A2241AF62C0000 DUP8 CODESIZE PUSH2 0x483 JUMP JUMPDEST PUSH4 0x4E487B71 PUSH1 0xE0 SHL PUSH1 0x0 MSTORE PUSH1 0x11 PUSH1 0x4 MSTORE PUSH1 0x24 PUSH1 0x0 REVERT JUMPDEST POP POP PUSH1 0x0 PUSH2 0x40A JUMP JUMPDEST DUP1 PUSH2 0x590 JUMPI JUMPDEST PUSH1 0x1 ADD PUSH2 0x3F0 JUMP JUMPDEST PUSH2 0x59A DUP2 DUP5 PUSH2 0x3BAC JUMP JUMPDEST SWAP1 SLOAD PUSH1 0x0 NOT DUP4 ADD SWAP2 PUSH1 0x3 SHL SHR DUP3 DUP3 GT PUSH2 0x563 JUMPI PUSH2 0x5B7 DUP3 DUP7 PUSH2 0x3BAC JUMP JUMPDEST SWAP1 SLOAD SWAP1 PUSH1 0x3 SHL SHR LT PUSH2 0x5CA JUMPI JUMPDEST POP PUSH2 0x588 JUMP JUMPDEST PUSH2 0x5D8 DUP3 DUP6 SWAP8 SWAP4 SWAP7 SWAP8 PUSH2 0x3BAC JUMP JUMPDEST SWAP1 SLOAD SWAP1 PUSH1 0x3 SHL SHR SWAP1 PUSH2 0x5FD PUSH1 0x0 SWAP3 PUSH2 0x5F0 DUP4 DUP9 PUSH2 0x3BAC JUMP JUMPDEST SWAP1 SLOAD SWAP1 PUSH1 0x3 SHL SHR SWAP1 PUSH2 0x4045 JUMP JUMPDEST SWAP2 PUSH2 0x2710 DUP4 MUL SWAP3 DUP1 DUP5 DIV PUSH2 0x2710 EQ SWAP1 ISZERO OR ISZERO PUSH2 0x660 JUMPI SWAP3 PUSH2 0x639 PUSH2 0x653 SWAP4 PUSH2 0x62C PUSH2 0x64D SWAP5 PUSH1 0x1 SWAP8 POP DUP10 PUSH2 0x3BAC JUMP JUMPDEST SWAP1 SLOAD SWAP1 PUSH1 0x3 SHL SHR SWAP1 PUSH2 0x3C83 JUMP JUMPDEST PUSH2 0x2710 DUP2 GT ISZERO PUSH2 0x65A JUMPI POP PUSH2 0x2710 SWAP1 PUSH2 0x4052 JUMP JUMPDEST SWAP6 PUSH2 0x4945 JUMP JUMPDEST SWAP4 SWAP1 PUSH2 0x5C4 JUMP JUMPDEST SWAP1 PUSH2 0x4052 JUMP JUMPDEST PUSH4 0x4E487B71 PUSH1 0xE0 SHL DUP2 MSTORE PUSH1 0x11 PUSH1 0x4 MSTORE PUSH1 0x24 SWAP1 REVERT JUMPDEST PUSH1 0x40 MLOAD PUSH3 0x461BCD PUSH1 0xE5 SHL DUP2 MSTORE PUSH1 0x20 PUSH1 0x4 DUP3 ADD MSTORE PUSH1 0x1D PUSH1 0x24 DUP3 ADD MSTORE PUSH32 0x446973636F7665727920706572696F64206E6F7420636F6D706C657465000000 PUSH1 0x44 DUP3 ADD MSTORE PUSH1 0x64 SWAP1 REVERT JUMPDEST PUSH1 0x0 DUP1 REVERT JUMPDEST PUSH2 0x3C31 JUMP JUMPDEST CALLVALUE PUSH2 0x6B9 JUMPI PUSH1 0x0 CALLDATASIZE PUSH1 0x3 NOT ADD SLT PUSH2 0x6B9 JUMPI PUSH1 0x20 PUSH1 0x18 SLOAD PUSH1 0x40 MLOAD SWAP1 DUP2 MSTORE RETURN JUMPDEST CALLVALUE PUSH2 0x6B9 JUMPI PUSH1 0x20 CALLDATASIZE PUSH1 0x3 NOT ADD SLT PUSH2 0x6B9 JUMPI PUSH2 0x6FA PUSH2 0x3B26 JUMP JUMPDEST PUSH2 0x702 PUSH2 0x4954 JUMP JUMPDEST PUSH1 0x1 PUSH1 0x1 PUSH1 0xA0 SHL SUB AND DUP1 ISZERO PUSH2 0x754 JUMPI PUSH1 0x0 DUP1 SLOAD PUSH1 0x1 PUSH1 0x1 PUSH1 0xA0 SHL SUB NOT DUP2 AND DUP4 OR DUP3 SSTORE PUSH1 0x1 PUSH1 0x1 PUSH1 0xA0 SHL SUB AND SWAP1 PUSH32 0x8BE0079C531659141344CD1FD0A4F28419497F9722A3DAAFE3B4186F6B6457E0 SWAP1 DUP1 LOG3 STOP JUMPDEST PUSH4 0x1E4FBDF7 PUSH1 0xE0 SHL PUSH1 0x0 MSTORE PUSH1 0x0 PUSH1 0x4 MSTORE PUSH1 0x24 PUSH1 0x0 REVERT JUMPDEST CALLVALUE PUSH2 0x6B9 JUMPI PUSH1 0x20 CALLDATASIZE PUSH1 0x3 NOT ADD SLT PUSH2 0x6B9 JUMPI PUSH1 0x1 PUSH1 0x1 PUSH1 0xA0 SHL SUB PUSH2 0x78B PUSH2 0x3B26 JUMP JUMPDEST AND PUSH1 0x0 MSTORE PUSH1 0x7 PUSH1 0x20 MSTORE PUSH1 0x80 PUSH1 0x40 PUSH1 0x0 KECCAK256 DUP1 SLOAD SWAP1 PUSH1 0x1 DUP2 ADD SLOAD SWAP1 PUSH1 0x3 PUSH1 0x2 DUP3 ADD SLOAD SWAP2 ADD SLOAD SWAP2 PUSH1 0x40 MLOAD SWAP4 DUP5 MSTORE PUSH1 0x20 DUP5 ADD MSTORE PUSH1 0x40 DUP4 ADD MSTORE PUSH1 0x60 DUP3 ADD MSTORE RETURN JUMPDEST CALLVALUE PUSH2 0x6B9 JUMPI PUSH1 0x20 CALLDATASIZE PUSH1 0x3 NOT ADD SLT PUSH2 0x6B9 JUMPI PUSH1 0x20 PUSH1 0x4 CALLDATALOAD PUSH8 0x8AC7230489E80000 DUP2 LT ISZERO SWAP1 DUP2 PUSH2 0x7FA JUMPI JUMPDEST POP PUSH1 0x40 MLOAD SWAP1 ISZERO ISZERO DUP2 MSTORE RETURN JUMPDEST SWAP1 POP PUSH1 0x10 SLOAD LT ISZERO DUP3 PUSH2 0x7EF JUMP JUMPDEST CALLVALUE PUSH2 0x6B9 JUMPI PUSH1 0x40 CALLDATASIZE PUSH1 0x3 NOT ADD SLT PUSH2 0x6B9 JUMPI PUSH2 0x820 PUSH2 0x3B26 JUMP JUMPDEST PUSH1 0x24 CALLDATALOAD SWAP1 PUSH1 0x1 DUP1 PUSH1 0xA0 SHL SUB PUSH1 0xC SLOAD AND CALLER EQ DUP1 ISZERO PUSH2 0xB5F JUMPI JUMPDEST DUP1 ISZERO PUSH2 0xB39 JUMPI JUMPDEST PUSH2 0x848 SWAP1 PUSH2 0x4577 JUMP JUMPDEST PUSH1 0x0 DUP1 MLOAD PUSH1 0x20 PUSH2 0x57E3 DUP4 CODECOPY DUP2 MLOAD SWAP2 MSTORE PUSH1 0x40 MLOAD PUSH1 0x0 DUP1 MLOAD PUSH1 0x20 PUSH2 0x5843 DUP4 CODECOPY DUP2 MLOAD SWAP2 MSTORE CALLER SWAP2 DUP1 PUSH2 0x899 DUP2 PUSH1 0x60 SWAP1 PUSH1 0x20 DUP2 MSTORE PUSH1 0xE PUSH1 0x20 DUP3 ADD MSTORE PUSH14 0x1858D8D95CDCD7D85D1D195B5C1D PUSH1 0x92 SHL PUSH1 0x40 DUP3 ADD MSTORE ADD SWAP1 JUMP JUMPDEST SUB SWAP1 LOG3 PUSH1 0x1 DUP1 PUSH1 0xA0 SHL SUB AND SWAP1 DUP2 PUSH1 0x0 MSTORE PUSH1 0xB PUSH1 0x20 MSTORE PUSH1 0x40 PUSH1 0x0 KECCAK256 SWAP1 PUSH1 0x1 DUP3 ADD DUP1 SLOAD PUSH1 0x2 DUP5 ADD SWAP4 DUP5 SLOAD SWAP1 DUP7 PUSH1 0x0 DUP1 MLOAD PUSH1 0x20 PUSH2 0x5903 DUP4 CODECOPY DUP2 MLOAD SWAP2 MSTORE PUSH1 0xA0 PUSH1 0x40 MLOAD PUSH1 0x60 DUP2 MSTORE PUSH1 0x1C PUSH1 0x60 DUP3 ADD MSTORE PUSH32 0x706F6F6C5F61637469766974795F7570646174655F7374617274656400000000 PUSH1 0x80 DUP3 ADD MSTORE DUP9 PUSH1 0x20 DUP3 ADD MSTORE TIMESTAMP PUSH1 0x40 DUP3 ADD MSTORE LOG2 TIMESTAMP SWAP1 SSTORE PUSH3 0x15180 DUP2 ADD DUP1 SWAP2 GT PUSH2 0x563 JUMPI TIMESTAMP LT PUSH2 0xB03 JUMPI DUP5 PUSH1 0x0 MSTORE PUSH1 0x11 PUSH1 0x20 MSTORE PUSH1 0x1E PUSH1 0x40 PUSH1 0x0 KECCAK256 SLOAD LT ISZERO PUSH2 0xA29 JUMPI JUMPDEST DUP5 PUSH1 0x0 MSTORE PUSH1 0x11 PUSH1 0x20 MSTORE PUSH1 0x40 PUSH1 0x0 KECCAK256 PUSH1 0x40 MLOAD SWAP1 PUSH2 0x95E DUP3 PUSH2 0x3FAC JUMP JUMPDEST DUP3 DUP3 MSTORE PUSH1 0x20 DUP3 ADD SWAP1 TIMESTAMP DUP3 MSTORE DUP1 SLOAD PUSH1 0x1 PUSH1 0x40 SHL DUP2 LT ISZERO PUSH2 0xA13 JUMPI PUSH2 0x986 SWAP2 PUSH1 0x1 DUP3 ADD DUP2 SSTORE PUSH2 0x3C54 JUMP JUMPDEST SWAP4 SWAP1 SWAP4 PUSH2 0x9FD JUMPI PUSH32 0x44B9262A170440091D8A6D407F47EAA54F9FB899C70142105A13147A3D3493ED SWAP7 PUSH1 0x20 SWAP7 DUP10 SWAP6 PUSH1 0x1 PUSH1 0x40 SWAP6 PUSH32 0x2BB5C25749FB1BF21EEB4372E3B614CA48502BCC17FD57FF79D32CFF0873EBFC SWAP8 MLOAD DUP4 SSTORE MLOAD SWAP2 ADD SSTORE DUP7 SSTORE TIMESTAMP SWAP1 SSTORE DUP2 MLOAD SWAP1 DUP2 MSTORE TIMESTAMP DUP7 DUP3 ADD MSTORE LOG2 JUMPDEST SLOAD PUSH1 0x40 MLOAD SWAP1 DUP2 MSTORE LOG2 STOP JUMPDEST PUSH4 0x4E487B71 PUSH1 0xE0 SHL PUSH1 0x0 MSTORE PUSH1 0x0 PUSH1 0x4 MSTORE PUSH1 0x24 PUSH1 0x0 REVERT JUMPDEST PUSH4 0x4E487B71 PUSH1 0xE0 SHL PUSH1 0x0 MSTORE PUSH1 0x41 PUSH1 0x4 MSTORE PUSH1 0x24 PUSH1 0x0 REVERT JUMPDEST DUP5 PUSH1 0x0 MSTORE PUSH1 0x11 PUSH1 0x20 MSTORE PUSH1 0x40 PUSH1 0x0 KECCAK256 SLOAD PUSH1 0x0 NOT DUP2 ADD SWAP1 DUP2 GT PUSH2 0x563 JUMPI PUSH1 0x0 JUMPDEST DUP2 DUP2 LT PUSH2 0xA9F JUMPI POP POP DUP5 PUSH1 0x0 MSTORE PUSH1 0x11 PUSH1 0x20 MSTORE PUSH1 0x40 PUSH1 0x0 KECCAK256 DUP1 SLOAD DUP1 ISZERO PUSH2 0xA89 JUMPI PUSH1 0x0 NOT ADD SWAP1 PUSH2 0xA75 DUP3 DUP3 PUSH2 0x3C54 JUMP JUMPDEST PUSH2 0x9FD JUMPI PUSH1 0x1 DUP2 PUSH1 0x0 DUP1 SWAP4 SSTORE ADD SSTORE SSTORE PUSH2 0x943 JUMP JUMPDEST PUSH4 0x4E487B71 PUSH1 0xE0 SHL PUSH1 0x0 MSTORE PUSH1 0x31 PUSH1 0x4 MSTORE PUSH1 0x24 PUSH1 0x0 REVERT JUMPDEST DUP7 PUSH1 0x0 MSTORE PUSH1 0x11 PUSH1 0x20 MSTORE PUSH1 0x40 PUSH1 0x0 KECCAK256 PUSH1 0x1 DUP3 ADD DUP1 DUP4 GT PUSH2 0x563 JUMPI PUSH2 0xAC1 SWAP2 PUSH2 0x3C54 JUMP JUMPDEST POP SWAP1 DUP8 PUSH1 0x0 MSTORE PUSH1 0x11 PUSH1 0x20 MSTORE PUSH2 0xADA DUP2 PUSH1 0x40 PUSH1 0x0 KECCAK256 PUSH2 0x3C54 JUMP JUMPDEST PUSH2 0x9FD JUMPI DUP3 PUSH1 0x1 SWAP4 DUP3 SUB PUSH2 0xAF1 JUMPI JUMPDEST POP POP ADD PUSH2 0xA47 JUMP JUMPDEST DUP1 SLOAD DUP3 SSTORE DUP4 ADD SLOAD SWAP1 DUP4 ADD SSTORE DUP9 DUP1 PUSH2 0xAE9 JUMP JUMPDEST PUSH32 0x44B9262A170440091D8A6D407F47EAA54F9FB899C70142105A13147A3D3493ED SWAP4 POP PUSH1 0x20 SWAP3 PUSH2 0xB32 SWAP2 PUSH2 0x4052 JUMP JUMPDEST DUP2 SSTORE PUSH2 0x9F3 JUMP JUMPDEST POP CALLER PUSH1 0x0 SWAP1 DUP2 MSTORE PUSH1 0x0 DUP1 MLOAD PUSH1 0x20 PUSH2 0x5863 DUP4 CODECOPY DUP2 MLOAD SWAP2 MSTORE PUSH1 0x20 MSTORE PUSH1 0x40 SWAP1 KECCAK256 SLOAD PUSH1 0xFF AND PUSH2 0x83F JUMP JUMPDEST POP CALLER PUSH1 0x0 SWAP1 DUP2 MSTORE PUSH1 0x0 DUP1 MLOAD PUSH1 0x20 PUSH2 0x58E3 DUP4 CODECOPY DUP2 MLOAD SWAP2 MSTORE PUSH1 0x20 MSTORE PUSH1 0x40 SWAP1 KECCAK256 SLOAD PUSH1 0xFF AND PUSH2 0x838 JUMP JUMPDEST CALLVALUE PUSH2 0x6B9 JUMPI PUSH2 0xB93 CALLDATASIZE PUSH2 0x3BC4 JUMP JUMPDEST SWAP1 SWAP2 PUSH2 0xB9D PUSH2 0x4954 JUMP JUMPDEST PUSH1 0x1 DUP1 PUSH1 0xA0 SHL SUB AND SWAP2 DUP3 PUSH1 0x0 MSTORE PUSH1 0x2 PUSH1 0x20 MSTORE PUSH2 0xBBE DUP2 PUSH1 0x40 PUSH1 0x0 KECCAK256 SLOAD PUSH2 0x4045 JUMP JUMPDEST DUP4 PUSH1 0x0 MSTORE PUSH1 0x3 PUSH1 0x20 MSTORE PUSH8 0x8AC7230489E80000 PUSH2 0xBDF DUP5 PUSH1 0x40 PUSH1 0x0 KECCAK256 SLOAD PUSH2 0x4045 JUMP JUMPDEST SWAP2 LT PUSH2 0xD78 JUMPI PUSH8 0x8AC7230489E80000 GT PUSH2 0xD33 JUMPI PUSH1 0x40 PUSH32 0x96CD817C6329656790EF8FBA7675405193677D39619571282F5E21F3A98CD059 SWAP2 DUP5 SWAP4 DUP5 PUSH1 0x0 DUP1 MLOAD PUSH1 0x20 PUSH2 0x5903 DUP4 CODECOPY DUP2 MLOAD SWAP2 MSTORE PUSH1 0xA0 DUP6 MLOAD PUSH1 0x60 DUP2 MSTORE PUSH1 0x6 PUSH1 0x60 DUP3 ADD MSTORE PUSH6 0x72656D6F7665 PUSH1 0xD0 SHL PUSH1 0x80 DUP3 ADD MSTORE DUP6 PUSH1 0x20 DUP3 ADD MSTORE TIMESTAMP DUP8 DUP3 ADD MSTORE LOG2 PUSH1 0x0 DUP6 DUP2 MSTORE PUSH1 0x2 PUSH1 0x20 SWAP1 DUP2 MSTORE DUP5 DUP3 KECCAK256 SLOAD PUSH1 0x3 DUP3 MSTORE SWAP2 DUP6 SWAP1 KECCAK256 SLOAD PUSH1 0x10 SLOAD DUP7 MLOAD SWAP4 DUP5 MSTORE SWAP2 DUP4 ADD MSTORE PUSH1 0x40 DUP3 ADD MSTORE DUP6 SWAP1 PUSH1 0x0 DUP1 MLOAD PUSH1 0x20 PUSH2 0x5803 DUP4 CODECOPY DUP2 MLOAD SWAP2 MSTORE SWAP1 PUSH1 0x60 SWAP1 LOG2 DUP5 PUSH1 0x0 MSTORE PUSH1 0x2 PUSH1 0x20 MSTORE DUP3 PUSH1 0x0 KECCAK256 PUSH2 0xCAB DUP4 DUP3 SLOAD PUSH2 0x4045 JUMP JUMPDEST SWAP1 SSTORE DUP5 PUSH1 0x0 MSTORE PUSH1 0x3 PUSH1 0x20 MSTORE DUP3 PUSH1 0x0 KECCAK256 PUSH2 0xCC5 DUP3 DUP3 SLOAD PUSH2 0x4045 JUMP JUMPDEST SWAP1 SSTORE DUP5 PUSH1 0x0 DUP1 MLOAD PUSH1 0x20 PUSH2 0x5903 DUP4 CODECOPY DUP2 MLOAD SWAP2 MSTORE DUP5 MLOAD DUP1 PUSH2 0xCE5 TIMESTAMP DUP8 DUP4 PUSH2 0x4455 JUMP JUMPDEST SUB SWAP1 LOG2 DUP3 MLOAD SWAP2 DUP3 MSTORE PUSH1 0x20 DUP3 ADD MSTORE LOG2 PUSH1 0x0 DUP2 DUP2 MSTORE PUSH1 0x2 PUSH1 0x20 SWAP1 DUP2 MSTORE PUSH1 0x40 DUP1 DUP4 KECCAK256 SLOAD PUSH1 0x3 DUP4 MSTORE SWAP3 DUP2 SWAP1 KECCAK256 SLOAD PUSH1 0x10 SLOAD DUP3 MLOAD SWAP5 DUP6 MSTORE SWAP3 DUP5 ADD MSTORE DUP3 ADD MSTORE PUSH1 0x0 DUP1 MLOAD PUSH1 0x20 PUSH2 0x5803 DUP4 CODECOPY DUP2 MLOAD SWAP2 MSTORE SWAP1 PUSH1 0x60 SWAP1 LOG2 STOP JUMPDEST PUSH1 0x40 MLOAD PUSH3 0x461BCD PUSH1 0xE5 SHL DUP2 MSTORE PUSH1 0x20 PUSH1 0x4 DUP3 ADD MSTORE PUSH1 0x1B PUSH1 0x24 DUP3 ADD MSTORE PUSH32 0x434F52414C20726573657276652062656C6F77206D696E696D756D0000000000 PUSH1 0x44 DUP3 ADD MSTORE PUSH1 0x64 SWAP1 REVERT JUMPDEST PUSH1 0x40 MLOAD PUSH3 0x461BCD PUSH1 0xE5 SHL DUP2 MSTORE PUSH1 0x20 PUSH1 0x4 DUP3 ADD MSTORE PUSH1 0x1D PUSH1 0x24 DUP3 ADD MSTORE PUSH32 0x43726561746F7220726573657276652062656C6F77206D696E696D756D000000 PUSH1 0x44 DUP3 ADD MSTORE PUSH1 0x64 SWAP1 REVERT JUMPDEST CALLVALUE PUSH2 0x6B9 JUMPI PUSH1 0x20 CALLDATASIZE PUSH1 0x3 NOT ADD SLT PUSH2 0x6B9 JUMPI PUSH1 0x1 PUSH1 0x1 PUSH1 0xA0 SHL SUB PUSH2 0xDDE PUSH2 0x3B26 JUMP JUMPDEST AND PUSH1 0x0 SWAP1 DUP2 MSTORE PUSH1 0x8 PUSH1 0x20 SWAP1 DUP2 MSTORE PUSH1 0x40 SWAP2 DUP3 SWAP1 KECCAK256 DUP1 SLOAD PUSH1 0x1 DUP3 ADD SLOAD PUSH1 0x2 DUP4 ADD SLOAD PUSH1 0x3 SWAP1 SWAP4 ADD SLOAD DUP6 MLOAD SWAP3 DUP4 MSTORE SWAP4 DUP3 ADD MSTORE SWAP3 DUP4 ADD MSTORE PUSH1 0xFF AND ISZERO ISZERO PUSH1 0x60 DUP3 ADD MSTORE DUP1 PUSH1 0x80 DUP2 ADD JUMPDEST SUB SWAP1 RETURN JUMPDEST CALLVALUE PUSH2 0x6B9 JUMPI PUSH1 0x0 CALLDATASIZE PUSH1 0x3 NOT ADD SLT PUSH2 0x6B9 JUMPI PUSH1 0xD SLOAD PUSH1 0xE SLOAD PUSH1 0xF SLOAD SWAP1 SWAP2 PUSH1 0x1 PUSH1 0x1 PUSH1 0xA0 SHL SUB AND SWAP1 PUSH2 0xE10 DUP2 ADD SWAP1 DUP2 DUP2 GT PUSH2 0x563 JUMPI PUSH1 0x80 SWAP4 PUSH1 0x40 MLOAD SWAP4 DUP5 MSTORE PUSH1 0x20 DUP5 ADD MSTORE PUSH1 0x40 DUP4 ADD MSTORE TIMESTAMP LT ISZERO PUSH1 0x60 DUP3 ADD MSTORE RETURN JUMPDEST CALLVALUE PUSH2 0x6B9 JUMPI PUSH1 0x40 CALLDATASIZE PUSH1 0x3 NOT ADD SLT PUSH2 0x6B9 JUMPI PUSH2 0xE8D PUSH2 0x3B26 JUMP JUMPDEST PUSH1 0x1 PUSH1 0x1 PUSH1 0xA0 SHL SUB AND PUSH1 0x0 SWAP1 DUP2 MSTORE PUSH1 0x11 PUSH1 0x20 MSTORE PUSH1 0x40 SWAP1 KECCAK256 DUP1 SLOAD PUSH1 0x24 CALLDATALOAD SWAP2 SWAP1 DUP3 LT ISZERO PUSH2 0x6B9 JUMPI PUSH1 0x40 SWAP2 PUSH2 0xEBE SWAP2 PUSH2 0x3C54 JUMP JUMPDEST POP PUSH1 0x1 DUP2 SLOAD SWAP2 ADD SLOAD DUP3 MLOAD SWAP2 DUP3 MSTORE PUSH1 0x20 DUP3 ADD MSTORE RETURN JUMPDEST CALLVALUE PUSH2 0x6B9 JUMPI PUSH1 0x40 CALLDATASIZE PUSH1 0x3 NOT ADD SLT PUSH2 0x6B9 JUMPI PUSH2 0xF17 PUSH1 0x4 CALLDATALOAD PUSH2 0xEF1 PUSH2 0x3B3C JUMP JUMPDEST SWAP1 PUSH2 0xF12 PUSH2 0xF0D DUP3 PUSH1 0x0 MSTORE PUSH1 0x1 PUSH1 0x20 MSTORE PUSH1 0x1 PUSH1 0x40 PUSH1 0x0 KECCAK256 ADD SLOAD SWAP1 JUMP JUMPDEST PUSH2 0x497D JUMP JUMPDEST PUSH2 0x5073 JUMP JUMPDEST STOP JUMPDEST CALLVALUE PUSH2 0x6B9 JUMPI PUSH1 0x20 CALLDATASIZE PUSH1 0x3 NOT ADD SLT PUSH2 0x6B9 JUMPI PUSH1 0x1 PUSH1 0x1 PUSH1 0xA0 SHL SUB PUSH2 0xF3A PUSH2 0x3B26 JUMP JUMPDEST AND PUSH1 0x0 MSTORE PUSH1 0x11 PUSH1 0x20 MSTORE PUSH1 0x40 PUSH1 0x0 KECCAK256 DUP1 SLOAD SWAP1 PUSH2 0xF54 DUP3 PUSH2 0x4507 JUMP JUMPDEST SWAP2 PUSH2 0xF62 PUSH1 0x40 MLOAD SWAP4 DUP5 PUSH2 0x3FE4 JUMP JUMPDEST DUP1 DUP4 MSTORE PUSH1 0x20 DUP4 ADD DUP1 SWAP3 PUSH1 0x0 MSTORE PUSH1 0x20 PUSH1 0x0 KECCAK256 PUSH1 0x0 SWAP2 JUMPDEST DUP4 DUP4 LT PUSH2 0xFCF JUMPI DUP5 DUP7 PUSH1 0x40 MLOAD SWAP2 DUP3 SWAP2 PUSH1 0x20 DUP4 ADD SWAP1 PUSH1 0x20 DUP5 MSTORE MLOAD DUP1 SWAP2 MSTORE PUSH1 0x40 DUP4 ADD SWAP2 SWAP1 PUSH1 0x0 JUMPDEST DUP2 DUP2 LT PUSH2 0xFAA JUMPI POP POP POP SUB SWAP1 RETURN JUMPDEST DUP3 MLOAD DUP1 MLOAD DUP6 MSTORE PUSH1 0x20 SWAP1 DUP2 ADD MLOAD DUP2 DUP7 ADD MSTORE DUP7 SWAP6 POP PUSH1 0x40 SWAP1 SWAP5 ADD SWAP4 SWAP1 SWAP3 ADD SWAP2 PUSH1 0x1 ADD PUSH2 0xF9C JUMP JUMPDEST PUSH1 0x2 PUSH1 0x20 PUSH1 0x1 SWAP3 PUSH1 0x40 MLOAD PUSH2 0xFE2 DUP2 PUSH2 0x3FAC JUMP JUMPDEST DUP6 SLOAD DUP2 MSTORE DUP5 DUP7 ADD SLOAD DUP4 DUP3 ADD MSTORE DUP2 MSTORE ADD SWAP3 ADD SWAP3 ADD SWAP2 SWAP1 PUSH2 0xF77 JUMP JUMPDEST CALLVALUE PUSH2 0x6B9 JUMPI PUSH1 0x0 CALLDATASIZE PUSH1 0x3 NOT ADD SLT PUSH2 0x6B9 JUMPI PUSH1 0x20 PUSH1 0x40 MLOAD PUSH1 0x1E DUP2 MSTORE RETURN JUMPDEST CALLVALUE PUSH2 0x6B9 JUMPI PUSH1 0x20 CALLDATASIZE PUSH1 0x3 NOT ADD SLT PUSH2 0x6B9 JUMPI PUSH1 0x4 CALLDATALOAD PUSH2 0x1035 DUP2 PUSH2 0x4507 JUMP JUMPDEST PUSH2 0x1042 PUSH1 0x40 MLOAD SWAP2 DUP3 PUSH2 0x3FE4 JUMP JUMPDEST DUP2 DUP2 MSTORE PUSH1 0x1F NOT PUSH2 0x1051 DUP4 PUSH2 0x4507 JUMP JUMPDEST ADD CALLDATASIZE PUSH1 0x20 DUP4 ADD CALLDATACOPY PUSH1 0x0 SWAP2 PUSH1 0x17 SLOAD JUMPDEST DUP1 ISZERO ISZERO DUP1 PUSH2 0x10EB JUMPI JUMPDEST ISZERO PUSH2 0x10DD JUMPI PUSH1 0x0 SWAP1 DUP2 MSTORE PUSH1 0x16 PUSH1 0x20 MSTORE PUSH1 0x40 SWAP1 KECCAK256 DUP1 SLOAD PUSH1 0x1 PUSH1 0x1 PUSH1 0xA0 SHL SUB AND PUSH2 0x108F DUP2 PUSH2 0x451F JUMP JUMPDEST PUSH2 0x109E JUMPI JUMPDEST POP PUSH1 0x3 ADD SLOAD PUSH2 0x105F JUMP JUMPDEST DUP4 SWAP5 SWAP2 SWAP5 MLOAD DUP3 LT ISZERO PUSH2 0x10C7 JUMPI DUP2 PUSH2 0x10C0 SWAP2 PUSH1 0x20 PUSH1 0x3 SWAP5 PUSH1 0x5 SHL DUP8 ADD ADD MSTORE PUSH2 0x4945 JUMP JUMPDEST SWAP4 SWAP1 PUSH2 0x1094 JUMP JUMPDEST PUSH4 0x4E487B71 PUSH1 0xE0 SHL PUSH1 0x0 MSTORE PUSH1 0x32 PUSH1 0x4 MSTORE PUSH1 0x24 PUSH1 0x0 REVERT JUMPDEST PUSH1 0x40 MLOAD DUP1 PUSH2 0xE20 DUP6 DUP3 PUSH2 0x3BEE JUMP JUMPDEST POP DUP2 DUP5 LT PUSH2 0x1068 JUMP JUMPDEST CALLVALUE PUSH2 0x6B9 JUMPI PUSH1 0x40 CALLDATASIZE PUSH1 0x3 NOT ADD SLT PUSH2 0x6B9 JUMPI PUSH2 0xF17 PUSH2 0x1110 PUSH2 0x3B26 JUMP JUMPDEST PUSH2 0x1118 PUSH2 0x3B3C JUMP JUMPDEST SWAP1 PUSH2 0x1121 PUSH2 0x4954 JUMP JUMPDEST PUSH2 0x4626 JUMP JUMPDEST CALLVALUE PUSH2 0x6B9 JUMPI PUSH1 0x20 CALLDATASIZE PUSH1 0x3 NOT ADD SLT PUSH2 0x6B9 JUMPI PUSH2 0x113F PUSH2 0x3B26 JUMP JUMPDEST PUSH1 0xC SLOAD PUSH1 0x1 PUSH1 0x1 PUSH1 0xA0 SHL SUB AND CALLER EQ DUP1 ISZERO PUSH2 0x1506 JUMPI JUMPDEST DUP1 ISZERO PUSH2 0x14E0 JUMPI JUMPDEST PUSH2 0x1164 SWAP1 PUSH2 0x4577 JUMP JUMPDEST PUSH1 0x0 DUP1 MLOAD PUSH1 0x20 PUSH2 0x57E3 DUP4 CODECOPY DUP2 MLOAD SWAP2 MSTORE PUSH1 0x40 MLOAD PUSH1 0x0 DUP1 MLOAD PUSH1 0x20 PUSH2 0x5843 DUP4 CODECOPY DUP2 MLOAD SWAP2 MSTORE CALLER SWAP2 DUP1 PUSH2 0x11B5 DUP2 PUSH1 0x60 SWAP1 PUSH1 0x20 DUP2 MSTORE PUSH1 0xE PUSH1 0x20 DUP3 ADD MSTORE PUSH14 0x1858D8D95CDCD7D85D1D195B5C1D PUSH1 0x92 SHL PUSH1 0x40 DUP3 ADD MSTORE ADD SWAP1 JUMP JUMPDEST SUB SWAP1 LOG3 PUSH1 0x1 PUSH1 0x1 PUSH1 0xA0 SHL SUB AND DUP1 ISZERO PUSH2 0x14A3 JUMPI DUP1 PUSH1 0x0 MSTORE PUSH1 0x4 PUSH1 0x20 MSTORE PUSH1 0x40 PUSH1 0x0 KECCAK256 SLOAD SWAP1 PUSH2 0x121A PUSH1 0x40 MLOAD PUSH2 0x11E8 PUSH1 0x40 DUP3 PUSH2 0x3FE4 JUMP JUMPDEST PUSH1 0x1D DUP2 MSTORE PUSH32 0x4E6F206665657320617661696C61626C6520746F2072656465706C6F79000000 PUSH1 0x20 DUP3 ADD MSTORE DUP4 ISZERO ISZERO PUSH2 0x45C3 JUMP JUMPDEST PUSH2 0x1266 PUSH1 0x40 MLOAD PUSH2 0x122B PUSH1 0x40 DUP3 PUSH2 0x3FE4 JUMP JUMPDEST PUSH1 0x1B DUP2 MSTORE PUSH32 0x42656C6F77206D696E696D756D20666565207468726573686F6C640000000000 PUSH1 0x20 DUP3 ADD MSTORE PUSH8 0x4563918244F40000 DUP5 LT ISZERO PUSH2 0x45C3 JUMP JUMPDEST PUSH2 0x126E PUSH2 0x517F JUMP JUMPDEST PUSH1 0x1 PUSH1 0x1 PUSH1 0xA0 SHL SUB DUP2 AND SWAP3 SWAP1 DUP4 ISZERO PUSH2 0x1465 JUMPI PUSH2 0x128A DUP3 DUP3 PUSH2 0x569F JUMP JUMPDEST SWAP2 DUP3 ISZERO PUSH2 0x1429 JUMPI DUP3 GT PUSH2 0x13D8 JUMPI PUSH1 0x40 MLOAD PUSH4 0x70A08231 PUSH1 0xE0 SHL DUP2 MSTORE ADDRESS PUSH1 0x4 DUP3 ADD MSTORE PUSH1 0x20 DUP2 PUSH1 0x24 DUP2 DUP8 GAS STATICCALL DUP1 ISZERO PUSH2 0x13CC JUMPI DUP4 SWAP2 PUSH1 0x0 SWAP2 PUSH2 0x1397 JUMPI JUMPDEST POP LT PUSH2 0x1352 JUMPI DUP2 PUSH2 0x132F PUSH32 0x5B1142ECB7CAA10961ADCAC369FB4C5E7FA3629B1B53DF070F2E8A2014C51777 SWAP4 PUSH2 0x134D SWAP4 DUP7 PUSH1 0x0 MSTORE PUSH1 0x4 PUSH1 0x20 MSTORE PUSH1 0x40 PUSH1 0x0 KECCAK256 PUSH2 0x130C DUP4 DUP3 SLOAD PUSH2 0x4045 JUMP JUMPDEST SWAP1 SSTORE DUP8 PUSH1 0x0 MSTORE PUSH1 0x3 PUSH1 0x20 MSTORE PUSH1 0x40 PUSH1 0x0 KECCAK256 PUSH2 0x1327 DUP4 DUP3 SLOAD PUSH2 0x4052 JUMP JUMPDEST SWAP1 SSTORE DUP7 PUSH2 0x50F9 JUMP JUMPDEST PUSH1 0x40 DUP1 MLOAD DUP3 DUP2 MSTORE PUSH1 0x20 DUP2 ADD SWAP3 SWAP1 SWAP3 MSTORE TIMESTAMP SWAP1 DUP3 ADD MSTORE SWAP1 DUP2 SWAP1 PUSH1 0x60 DUP3 ADD SWAP1 JUMP JUMPDEST SUB SWAP1 LOG3 STOP JUMPDEST PUSH1 0x40 MLOAD PUSH3 0x461BCD PUSH1 0xE5 SHL DUP2 MSTORE PUSH1 0x20 PUSH1 0x4 DUP3 ADD MSTORE PUSH1 0x1A PUSH1 0x24 DUP3 ADD MSTORE PUSH32 0x496E73756666696369656E7420746F6B656E2062616C616E6365000000000000 PUSH1 0x44 DUP3 ADD MSTORE PUSH1 0x64 SWAP1 REVERT JUMPDEST SWAP2 POP POP PUSH1 0x20 DUP2 RETURNDATASIZE PUSH1 0x20 GT PUSH2 0x13C4 JUMPI JUMPDEST DUP2 PUSH2 0x13B3 PUSH1 0x20 SWAP4 DUP4 PUSH2 0x3FE4 JUMP JUMPDEST DUP2 ADD SUB SLT PUSH2 0x6B9 JUMPI DUP3 SWAP1 MLOAD DUP7 PUSH2 0x12C3 JUMP JUMPDEST RETURNDATASIZE SWAP2 POP PUSH2 0x13A6 JUMP JUMPDEST PUSH1 0x40 MLOAD RETURNDATASIZE PUSH1 0x0 DUP3 RETURNDATACOPY RETURNDATASIZE SWAP1 REVERT JUMPDEST PUSH1 0x40 MLOAD PUSH3 0x461BCD PUSH1 0xE5 SHL DUP2 MSTORE PUSH1 0x20 PUSH1 0x4 DUP3 ADD MSTORE PUSH1 0x24 DUP1 DUP3 ADD MSTORE PUSH32 0x4465706C6F7920616D6F756E74206578636565647320617661696C61626C6520 PUSH1 0x44 DUP3 ADD MSTORE PUSH4 0x66656573 PUSH1 0xE0 SHL PUSH1 0x64 DUP3 ADD MSTORE PUSH1 0x84 SWAP1 REVERT JUMPDEST PUSH1 0x40 MLOAD PUSH3 0x461BCD PUSH1 0xE5 SHL DUP2 MSTORE PUSH1 0x20 PUSH1 0x4 DUP3 ADD MSTORE PUSH1 0x14 PUSH1 0x24 DUP3 ADD MSTORE PUSH20 0x139BC819195C1B1BDE5B595B9D081B9959591959 PUSH1 0x62 SHL PUSH1 0x44 DUP3 ADD MSTORE PUSH1 0x64 SWAP1 REVERT JUMPDEST PUSH1 0x40 MLOAD PUSH3 0x461BCD PUSH1 0xE5 SHL DUP2 MSTORE PUSH1 0x20 PUSH1 0x4 DUP3 ADD MSTORE PUSH1 0x16 PUSH1 0x24 DUP3 ADD MSTORE PUSH22 0x139BC81CDD5A5D18589B19481C1BDBDB08199BDD5B99 PUSH1 0x52 SHL PUSH1 0x44 DUP3 ADD MSTORE PUSH1 0x64 SWAP1 REVERT JUMPDEST PUSH1 0x40 MLOAD PUSH3 0x461BCD PUSH1 0xE5 SHL DUP2 MSTORE PUSH1 0x20 PUSH1 0x4 DUP3 ADD MSTORE PUSH1 0x15 PUSH1 0x24 DUP3 ADD MSTORE PUSH21 0x496E76616C696420746F6B656E2061646472657373 PUSH1 0x58 SHL PUSH1 0x44 DUP3 ADD MSTORE PUSH1 0x64 SWAP1 REVERT JUMPDEST POP CALLER PUSH1 0x0 SWAP1 DUP2 MSTORE PUSH1 0x0 DUP1 MLOAD PUSH1 0x20 PUSH2 0x5863 DUP4 CODECOPY DUP2 MLOAD SWAP2 MSTORE PUSH1 0x20 MSTORE PUSH1 0x40 SWAP1 KECCAK256 SLOAD PUSH1 0xFF AND PUSH2 0x115B JUMP JUMPDEST POP CALLER PUSH1 0x0 SWAP1 DUP2 MSTORE PUSH1 0x0 DUP1 MLOAD PUSH1 0x20 PUSH2 0x58E3 DUP4 CODECOPY DUP2 MLOAD SWAP2 MSTORE PUSH1 0x20 MSTORE PUSH1 0x40 SWAP1 KECCAK256 SLOAD PUSH1 0xFF AND PUSH2 0x1154 JUMP JUMPDEST CALLVALUE PUSH2 0x6B9 JUMPI PUSH1 0x0 CALLDATASIZE PUSH1 0x3 NOT ADD SLT PUSH2 0x6B9 JUMPI PUSH1 0x5 SLOAD PUSH1 0x40 MLOAD PUSH1 0x1 PUSH1 0x1 PUSH1 0xA0 SHL SUB SWAP1 SWAP2 AND DUP2 MSTORE PUSH1 0x20 SWAP1 RETURN JUMPDEST CALLVALUE PUSH2 0x6B9 JUMPI PUSH1 0x0 CALLDATASIZE PUSH1 0x3 NOT ADD SLT PUSH2 0x6B9 JUMPI PUSH1 0x20 PUSH1 0x6 SLOAD PUSH1 0x40 MLOAD SWAP1 DUP2 MSTORE RETURN JUMPDEST CALLVALUE PUSH2 0x6B9 JUMPI PUSH1 0x0 CALLDATASIZE PUSH1 0x3 NOT ADD SLT PUSH2 0x6B9 JUMPI PUSH1 0x40 MLOAD DUP1 PUSH1 0x20 PUSH1 0x9 SLOAD SWAP2 DUP3 DUP2 MSTORE ADD SWAP1 PUSH1 0x9 PUSH1 0x0 MSTORE PUSH32 0x6E1540171B6C0C960B71A7020D9F60077F6AF931A8BBF590DA0223DACF75C7AF SWAP1 PUSH1 0x0 JUMPDEST DUP2 DUP2 LT PUSH2 0x15E0 JUMPI PUSH2 0xE20 DUP6 PUSH2 0x15D4 DUP2 DUP8 SUB DUP3 PUSH2 0x3FE4 JUMP JUMPDEST PUSH1 0x40 MLOAD SWAP2 DUP3 SWAP2 DUP3 PUSH2 0x3BEE JUMP JUMPDEST DUP3 SLOAD PUSH1 0x1 PUSH1 0x1 PUSH1 0xA0 SHL SUB AND DUP5 MSTORE PUSH1 0x20 SWAP1 SWAP4 ADD SWAP3 PUSH1 0x1 SWAP3 DUP4 ADD SWAP3 ADD PUSH2 0x15BD JUMP JUMPDEST CALLVALUE PUSH2 0x6B9 JUMPI PUSH1 0x20 CALLDATASIZE PUSH1 0x3 NOT ADD SLT PUSH2 0x6B9 JUMPI PUSH1 0x1 PUSH1 0x1 PUSH1 0xA0 SHL SUB PUSH2 0x1620 PUSH2 0x3B26 JUMP JUMPDEST AND PUSH1 0x0 SWAP1 DUP2 MSTORE PUSH1 0x7 PUSH1 0x20 SWAP1 DUP2 MSTORE PUSH1 0x40 SWAP2 DUP3 SWAP1 KECCAK256 DUP1 SLOAD PUSH1 0x1 DUP3 ADD SLOAD PUSH1 0x3 SWAP3 DUP4 ADD SLOAD DUP6 MLOAD SWAP3 DUP4 MSTORE SWAP4 DUP3 ADD MSTORE SWAP3 DUP4 ADD DUP3 SWAP1 MSTORE GT ISZERO PUSH1 0x60 DUP3 ADD MSTORE PUSH1 0x80 SWAP1 RETURN JUMPDEST CALLVALUE PUSH2 0x6B9 JUMPI PUSH1 0x0 CALLDATASIZE PUSH1 0x3 NOT ADD SLT PUSH2 0x6B9 JUMPI PUSH1 0x20 PUSH1 0x10 SLOAD PUSH1 0x40 MLOAD SWAP1 DUP2 MSTORE RETURN JUMPDEST CALLVALUE PUSH2 0x6B9 JUMPI PUSH1 0x20 CALLDATASIZE PUSH1 0x3 NOT ADD SLT PUSH2 0x6B9 JUMPI PUSH2 0x1692 PUSH2 0x3B26 JUMP JUMPDEST PUSH2 0x169A PUSH2 0x4954 JUMP JUMPDEST PUSH1 0x1 PUSH1 0x1 PUSH1 0xA0 SHL SUB DUP2 AND SWAP1 DUP2 ISZERO PUSH2 0x17A2 JUMPI DUP2 PUSH1 0x0 MSTORE PUSH1 0xA PUSH1 0x20 MSTORE PUSH1 0xFF PUSH1 0x40 PUSH1 0x0 KECCAK256 SLOAD AND PUSH2 0x1766 JUMPI DUP2 PUSH1 0x0 MSTORE PUSH1 0x8 PUSH1 0x20 MSTORE PUSH2 0x16DF PUSH1 0xFF PUSH1 0x3 PUSH1 0x40 PUSH1 0x0 KECCAK256 ADD SLOAD AND ISZERO PUSH2 0x4409 JUMP JUMPDEST DUP2 PUSH1 0x0 MSTORE PUSH1 0xA PUSH1 0x20 MSTORE PUSH1 0x40 PUSH1 0x0 KECCAK256 PUSH1 0x1 PUSH1 0xFF NOT DUP3 SLOAD AND OR SWAP1 SSTORE PUSH1 0x9 SLOAD SWAP1 PUSH1 0x1 PUSH1 0x40 SHL DUP3 LT ISZERO PUSH2 0xA13 JUMPI PUSH2 0x171B DUP3 PUSH1 0x1 PUSH2 0x173F SWAP5 ADD PUSH1 0x9 SSTORE PUSH2 0x3B91 JUMP JUMPDEST DUP2 SLOAD PUSH1 0x1 PUSH1 0x1 PUSH1 0xA0 SHL SUB SWAP4 DUP5 AND PUSH1 0x3 SWAP3 SWAP1 SWAP3 SHL SWAP2 DUP3 SHL SWAP4 SWAP1 SWAP2 SHL NOT AND SWAP2 SWAP1 SWAP2 OR SWAP1 SSTORE JUMP JUMPDEST PUSH32 0x402F8A396B78C225022A54972367FD98A174C970FBF537400BB383A0690EBD78 PUSH1 0x0 DUP1 LOG2 STOP JUMPDEST PUSH1 0x40 MLOAD PUSH3 0x461BCD PUSH1 0xE5 SHL DUP2 MSTORE PUSH1 0x20 PUSH1 0x4 DUP3 ADD MSTORE PUSH1 0x14 PUSH1 0x24 DUP3 ADD MSTORE PUSH20 0x141BDBDB08185B1C9958591E481D1C9858DAD959 PUSH1 0x62 SHL PUSH1 0x44 DUP3 ADD MSTORE PUSH1 0x64 SWAP1 REVERT JUMPDEST PUSH1 0x40 MLOAD PUSH3 0x461BCD PUSH1 0xE5 SHL DUP2 MSTORE PUSH1 0x20 PUSH1 0x4 DUP3 ADD MSTORE PUSH1 0x14 PUSH1 0x24 DUP3 ADD MSTORE PUSH20 0x496E76616C696420706F6F6C2061646472657373 PUSH1 0x60 SHL PUSH1 0x44 DUP3 ADD MSTORE PUSH1 0x64 SWAP1 REVERT JUMPDEST CALLVALUE PUSH2 0x6B9 JUMPI PUSH1 0x40 CALLDATASIZE PUSH1 0x3 NOT ADD SLT PUSH2 0x6B9 JUMPI PUSH2 0x17F7 PUSH2 0x3B26 JUMP JUMPDEST PUSH1 0x24 CALLDATALOAD SWAP1 PUSH2 0x1803 PUSH2 0x4954 JUMP JUMPDEST PUSH1 0x1 DUP1 PUSH1 0xA0 SHL SUB AND PUSH1 0x0 DUP2 PUSH1 0x0 DUP1 MLOAD PUSH1 0x20 PUSH2 0x58A3 DUP4 CODECOPY DUP2 MLOAD SWAP2 MSTORE PUSH1 0x80 PUSH1 0x40 MLOAD PUSH1 0x40 DUP2 MSTORE PUSH1 0x8 PUSH1 0x40 DUP3 ADD MSTORE PUSH8 0x7769746864726177 PUSH1 0xC0 SHL PUSH1 0x60 DUP3 ADD MSTORE DUP7 PUSH1 0x20 DUP3 ADD MSTORE LOG3 CALLER PUSH1 0x0 MSTORE PUSH1 0x12 PUSH1 0x20 MSTORE PUSH1 0xFF PUSH1 0x40 PUSH1 0x0 KECCAK256 SLOAD AND ISZERO PUSH2 0x1B58 JUMPI DUP2 ISZERO PUSH2 0x1B13 JUMPI DUP1 PUSH1 0x0 MSTORE PUSH1 0x4 PUSH1 0x20 MSTORE DUP2 PUSH1 0x40 PUSH1 0x0 KECCAK256 SLOAD LT PUSH2 0x1ACE JUMPI PUSH1 0x40 MLOAD PUSH4 0x70A08231 PUSH1 0xE0 SHL DUP2 MSTORE ADDRESS PUSH1 0x4 DUP3 ADD MSTORE PUSH1 0x20 DUP2 PUSH1 0x24 DUP2 DUP6 GAS STATICCALL DUP1 ISZERO PUSH2 0x13CC JUMPI DUP3 SWAP2 PUSH1 0x0 SWAP2 PUSH2 0x1A98 JUMPI JUMPDEST POP PUSH1 0x60 PUSH1 0x0 DUP1 MLOAD PUSH1 0x20 PUSH2 0x5803 DUP4 CODECOPY DUP2 MLOAD SWAP2 MSTORE SWAP2 PUSH1 0x40 MLOAD SWAP1 DUP2 MSTORE DUP6 PUSH1 0x20 DUP3 ADD MSTORE PUSH1 0x0 PUSH1 0x40 DUP3 ADD MSTORE LOG2 DUP1 PUSH1 0x0 MSTORE PUSH1 0x4 PUSH1 0x20 MSTORE PUSH1 0x40 PUSH1 0x0 KECCAK256 PUSH2 0x18E3 DUP4 DUP3 SLOAD PUSH2 0x4045 JUMP JUMPDEST SWAP1 SSTORE PUSH1 0x40 MLOAD PUSH4 0x70A08231 PUSH1 0xE0 SHL DUP2 MSTORE ADDRESS PUSH1 0x4 DUP3 ADD MSTORE PUSH1 0x20 DUP2 PUSH1 0x24 DUP2 DUP6 GAS STATICCALL SWAP1 DUP2 ISZERO PUSH2 0x13CC JUMPI PUSH1 0x0 SWAP2 PUSH2 0x1A63 JUMPI JUMPDEST POP DUP3 DUP2 LT PUSH2 0x1A1E JUMPI PUSH2 0x1923 DUP4 CALLER DUP5 PUSH2 0x50F9 JUMP JUMPDEST PUSH1 0x40 MLOAD PUSH4 0x70A08231 PUSH1 0xE0 SHL DUP2 MSTORE ADDRESS PUSH1 0x4 DUP3 ADD MSTORE PUSH1 0x20 DUP2 PUSH1 0x24 DUP2 DUP7 GAS STATICCALL SWAP1 DUP2 ISZERO PUSH2 0x13CC JUMPI DUP5 SWAP1 PUSH1 0x0 SWAP3 PUSH2 0x19E8 JUMPI JUMPDEST POP PUSH2 0x195B SWAP2 SWAP3 PUSH2 0x4045 JUMP JUMPDEST SUB PUSH2 0x19A3 JUMPI PUSH1 0x0 DUP1 MLOAD PUSH1 0x20 PUSH2 0x58A3 DUP4 CODECOPY DUP2 MLOAD SWAP2 MSTORE PUSH1 0x40 MLOAD DUP1 PUSH2 0x134D CALLER SWAP6 DUP3 PUSH1 0x40 DUP1 DUP3 MSTORE PUSH1 0x9 SWAP1 DUP3 ADD MSTORE PUSH9 0x18DBDB5C1B195D1959 PUSH1 0xBA SHL PUSH1 0x60 DUP3 ADD MSTORE SWAP2 SWAP1 PUSH1 0x20 PUSH1 0x80 DUP5 ADD SWAP4 ADD MSTORE JUMP JUMPDEST PUSH1 0x40 MLOAD PUSH3 0x461BCD PUSH1 0xE5 SHL DUP2 MSTORE PUSH1 0x20 PUSH1 0x4 DUP3 ADD MSTORE PUSH1 0x18 PUSH1 0x24 DUP3 ADD MSTORE PUSH32 0x5472616E7366657220616D6F756E74206D69736D617463680000000000000000 PUSH1 0x44 DUP3 ADD MSTORE PUSH1 0x64 SWAP1 REVERT JUMPDEST SWAP2 POP POP PUSH1 0x20 DUP2 RETURNDATASIZE PUSH1 0x20 GT PUSH2 0x1A16 JUMPI JUMPDEST DUP2 PUSH2 0x1A04 PUSH1 0x20 SWAP4 DUP4 PUSH2 0x3FE4 JUMP JUMPDEST DUP2 ADD SUB SLT PUSH2 0x6B9 JUMPI MLOAD DUP4 PUSH2 0x195B PUSH2 0x1950 JUMP JUMPDEST RETURNDATASIZE SWAP2 POP PUSH2 0x19F7 JUMP JUMPDEST PUSH1 0x40 MLOAD PUSH3 0x461BCD PUSH1 0xE5 SHL DUP2 MSTORE PUSH1 0x20 PUSH1 0x4 DUP3 ADD MSTORE PUSH1 0x1D PUSH1 0x24 DUP3 ADD MSTORE PUSH32 0x496E73756666696369656E7420636F6E74726163742062616C616E6365000000 PUSH1 0x44 DUP3 ADD MSTORE PUSH1 0x64 SWAP1 REVERT JUMPDEST SWAP1 PUSH1 0x20 DUP3 RETURNDATASIZE PUSH1 0x20 GT PUSH2 0x1A90 JUMPI JUMPDEST DUP2 PUSH2 0x1A7D PUSH1 0x20 SWAP4 DUP4 PUSH2 0x3FE4 JUMP JUMPDEST DUP2 ADD SUB SLT PUSH2 0x1A8D JUMPI POP MLOAD DUP4 PUSH2 0x1910 JUMP JUMPDEST DUP1 REVERT JUMPDEST RETURNDATASIZE SWAP2 POP PUSH2 0x1A70 JUMP JUMPDEST SWAP2 POP POP PUSH1 0x20 DUP2 RETURNDATASIZE PUSH1 0x20 GT PUSH2 0x1AC6 JUMPI JUMPDEST DUP2 PUSH2 0x1AB4 PUSH1 0x20 SWAP4 DUP4 PUSH2 0x3FE4 JUMP JUMPDEST DUP2 ADD SUB SLT PUSH2 0x6B9 JUMPI MLOAD DUP2 SWAP1 PUSH1 0x60 PUSH2 0x18A3 JUMP JUMPDEST RETURNDATASIZE SWAP2 POP PUSH2 0x1AA7 JUMP JUMPDEST PUSH1 0x40 MLOAD PUSH3 0x461BCD PUSH1 0xE5 SHL DUP2 MSTORE PUSH1 0x20 PUSH1 0x4 DUP3 ADD MSTORE PUSH1 0x1B PUSH1 0x24 DUP3 ADD MSTORE PUSH32 0x496E73756666696369656E7420636F6C6C656374656420666565730000000000 PUSH1 0x44 DUP3 ADD MSTORE PUSH1 0x64 SWAP1 REVERT JUMPDEST PUSH1 0x40 MLOAD PUSH3 0x461BCD PUSH1 0xE5 SHL DUP2 MSTORE PUSH1 0x20 PUSH1 0x4 DUP3 ADD MSTORE PUSH1 0x1D PUSH1 0x24 DUP3 ADD MSTORE PUSH32 0x416D6F756E74206D7573742062652067726561746572207468616E2030000000 PUSH1 0x44 DUP3 ADD MSTORE PUSH1 0x64 SWAP1 REVERT JUMPDEST PUSH1 0x40 MLOAD PUSH3 0x461BCD PUSH1 0xE5 SHL DUP2 MSTORE PUSH1 0x20 PUSH1 0x4 DUP3 ADD MSTORE PUSH1 0x1D PUSH1 0x24 DUP3 ADD MSTORE PUSH32 0x4E6F7420617574686F72697A656420666F72207769746864726177616C000000 PUSH1 0x44 DUP3 ADD MSTORE PUSH1 0x64 SWAP1 REVERT JUMPDEST CALLVALUE PUSH2 0x6B9 JUMPI PUSH1 0x20 CALLDATASIZE PUSH1 0x3 NOT ADD SLT PUSH2 0x6B9 JUMPI PUSH1 0x20 PUSH2 0x1BC0 PUSH2 0x1BBB PUSH2 0x3B26 JUMP JUMPDEST PUSH2 0x451F JUMP JUMPDEST PUSH1 0x40 MLOAD SWAP1 ISZERO ISZERO DUP2 MSTORE RETURN JUMPDEST CALLVALUE PUSH2 0x6B9 JUMPI PUSH1 0x20 CALLDATASIZE PUSH1 0x3 NOT ADD SLT PUSH2 0x6B9 JUMPI PUSH2 0x1BE3 PUSH2 0x3B26 JUMP JUMPDEST PUSH2 0x1BEB PUSH2 0x4954 JUMP JUMPDEST PUSH1 0x1 PUSH1 0x1 PUSH1 0xA0 SHL SUB AND PUSH2 0x1BFF DUP2 ISZERO ISZERO PUSH2 0x4487 JUMP JUMPDEST DUP1 PUSH1 0x0 MSTORE PUSH1 0x12 PUSH1 0x20 MSTORE PUSH1 0xFF PUSH1 0x40 PUSH1 0x0 KECCAK256 SLOAD AND PUSH2 0x1C8C JUMPI DUP1 PUSH32 0x855511CC3694F64379908437D6D64458DC76D02482052BFB8A5B33A72C054C77 SWAP2 PUSH1 0x0 MSTORE PUSH1 0x12 PUSH1 0x20 MSTORE PUSH1 0x40 PUSH1 0x0 KECCAK256 PUSH1 0x1 PUSH1 0xFF NOT DUP3 SLOAD AND OR SWAP1 SSTORE PUSH1 0x0 DUP1 MLOAD PUSH1 0x20 PUSH2 0x5843 DUP4 CODECOPY DUP2 MLOAD SWAP2 MSTORE PUSH1 0x60 PUSH1 0x40 MLOAD PUSH1 0x20 DUP2 MSTORE PUSH1 0x11 PUSH1 0x20 DUP3 ADD MSTORE PUSH17 0x77686974656C6973745F61646472657373 PUSH1 0x78 SHL PUSH1 0x40 DUP3 ADD MSTORE LOG3 STOP JUMPDEST PUSH1 0x40 MLOAD PUSH3 0x461BCD PUSH1 0xE5 SHL DUP2 MSTORE PUSH1 0x20 PUSH1 0x4 DUP3 ADD MSTORE PUSH1 0x1B PUSH1 0x24 DUP3 ADD MSTORE PUSH32 0x4164647265737320616C72656164792077686974656C69737465640000000000 PUSH1 0x44 DUP3 ADD MSTORE PUSH1 0x64 SWAP1 REVERT JUMPDEST CALLVALUE PUSH2 0x6B9 JUMPI PUSH1 0x0 CALLDATASIZE PUSH1 0x3 NOT ADD SLT PUSH2 0x6B9 JUMPI PUSH1 0x20 PUSH1 0x40 MLOAD PUSH1 0x0 DUP2 MSTORE RETURN JUMPDEST CALLVALUE PUSH2 0x6B9 JUMPI PUSH1 0x0 CALLDATASIZE PUSH1 0x3 NOT ADD SLT PUSH2 0x6B9 JUMPI PUSH1 0x60 PUSH1 0x1 DUP1 PUSH1 0xA0 SHL SUB PUSH1 0xD SLOAD AND PUSH1 0xE SLOAD PUSH1 0xF SLOAD SWAP1 PUSH1 0x40 MLOAD SWAP3 DUP4 MSTORE PUSH1 0x20 DUP4 ADD MSTORE PUSH1 0x40 DUP3 ADD MSTORE RETURN JUMPDEST CALLVALUE PUSH2 0x6B9 JUMPI PUSH1 0x40 CALLDATASIZE PUSH1 0x3 NOT ADD SLT PUSH2 0x6B9 JUMPI PUSH1 0x0 PUSH2 0x1D3F PUSH2 0x3B26 JUMP JUMPDEST PUSH1 0x0 DUP1 MLOAD PUSH1 0x20 PUSH2 0x58A3 DUP4 CODECOPY DUP2 MLOAD SWAP2 MSTORE PUSH1 0x80 PUSH1 0x24 CALLDATALOAD SWAP3 PUSH2 0x1D5C PUSH2 0x4954 JUMP JUMPDEST PUSH1 0x1 DUP1 PUSH1 0xA0 SHL SUB AND SWAP3 DUP4 DUP6 MSTORE PUSH1 0x4 PUSH1 0x20 MSTORE PUSH1 0x40 DUP6 KECCAK256 PUSH2 0x1D7C DUP3 DUP3 SLOAD PUSH2 0x4052 JUMP JUMPDEST SWAP1 SSTORE PUSH1 0x40 MLOAD SWAP1 PUSH1 0x40 DUP3 MSTORE PUSH1 0x7 PUSH1 0x40 DUP4 ADD MSTORE PUSH7 0x18DBDB1B1958DD PUSH1 0xCA SHL PUSH1 0x60 DUP4 ADD MSTORE PUSH1 0x20 DUP3 ADD MSTORE LOG3 STOP JUMPDEST CALLVALUE PUSH2 0x6B9 JUMPI PUSH1 0x0 CALLDATASIZE PUSH1 0x3 NOT ADD SLT PUSH2 0x6B9 JUMPI PUSH1 0x20 PUSH1 0x17 SLOAD PUSH1 0x40 MLOAD SWAP1 DUP2 MSTORE RETURN JUMPDEST CALLVALUE PUSH2 0x6B9 JUMPI PUSH1 0x0 CALLDATASIZE PUSH1 0x3 NOT ADD SLT PUSH2 0x6B9 JUMPI PUSH1 0x20 PUSH1 0x40 MLOAD PUSH10 0xD3C21BCECCEDA1000000 DUP2 MSTORE RETURN JUMPDEST PUSH2 0x3B6E JUMP JUMPDEST CALLVALUE PUSH2 0x6B9 JUMPI PUSH1 0x40 CALLDATASIZE PUSH1 0x3 NOT ADD SLT PUSH2 0x6B9 JUMPI PUSH2 0x1E06 PUSH2 0x3B3C JUMP JUMPDEST PUSH1 0x4 CALLDATALOAD PUSH1 0x0 MSTORE PUSH1 0x1 PUSH1 0x20 MSTORE PUSH1 0x40 PUSH1 0x0 KECCAK256 SWAP1 PUSH1 0x1 DUP1 PUSH1 0xA0 SHL SUB AND PUSH1 0x0 MSTORE PUSH1 0x20 MSTORE PUSH1 0x20 PUSH1 0xFF PUSH1 0x40 PUSH1 0x0 KECCAK256 SLOAD AND PUSH1 0x40 MLOAD SWAP1 ISZERO ISZERO DUP2 MSTORE RETURN JUMPDEST CALLVALUE PUSH2 0x6B9 JUMPI PUSH1 0x0 CALLDATASIZE PUSH1 0x3 NOT ADD SLT PUSH2 0x6B9 JUMPI PUSH1 0x0 SLOAD PUSH1 0x40 MLOAD PUSH1 0x1 PUSH1 0x1 PUSH1 0xA0 SHL SUB SWAP1 SWAP2 AND DUP2 MSTORE PUSH1 0x20 SWAP1 RETURN JUMPDEST CALLVALUE PUSH2 0x6B9 JUMPI PUSH1 0x40 CALLDATASIZE PUSH1 0x3 NOT ADD SLT PUSH2 0x6B9 JUMPI PUSH2 0x1E7C PUSH2 0x3B26 JUMP JUMPDEST PUSH1 0x24 CALLDATALOAD SWAP1 PUSH2 0x1E88 PUSH2 0x4954 JUMP JUMPDEST PUSH1 0x1 PUSH1 0x1 PUSH1 0xA0 SHL SUB AND PUSH1 0x0 DUP2 DUP2 MSTORE PUSH1 0x8 PUSH1 0x20 MSTORE PUSH1 0x40 SWAP1 KECCAK256 PUSH1 0x3 ADD SLOAD SWAP1 SWAP2 SWAP1 PUSH1 0xFF AND PUSH2 0x1FE6 JUMPI PUSH1 0x20 SWAP1 PUSH1 0x40 MLOAD PUSH2 0x1EBD DUP4 DUP3 PUSH2 0x3FE4 JUMP JUMPDEST PUSH1 0x0 DUP2 MSTORE PUSH1 0x0 CALLDATASIZE DUP2 CALLDATACOPY PUSH1 0x40 MLOAD PUSH1 0xA0 DUP2 ADD SWAP1 DUP1 DUP3 LT PUSH8 0xFFFFFFFFFFFFFFFF DUP4 GT OR PUSH2 0xA13 JUMPI PUSH1 0x4 SWAP2 PUSH1 0x40 MSTORE DUP4 DUP2 MSTORE DUP5 DUP2 ADD DUP5 DUP2 MSTORE PUSH1 0x40 DUP3 ADD TIMESTAMP DUP2 MSTORE PUSH1 0x60 DUP4 ADD SWAP2 PUSH1 0x1 DUP4 MSTORE PUSH1 0x80 DUP5 ADD SWAP6 DUP7 MSTORE DUP9 PUSH1 0x0 MSTORE PUSH1 0x8 DUP9 MSTORE PUSH1 0x40 PUSH1 0x0 KECCAK256 SWAP4 MLOAD DUP5 SSTORE MLOAD PUSH1 0x1 DUP5 ADD SSTORE MLOAD PUSH1 0x2 DUP4 ADD SSTORE PUSH1 0x3 DUP3 ADD SWAP1 MLOAD ISZERO ISZERO PUSH1 0xFF DUP1 NOT DUP4 SLOAD AND SWAP2 AND OR SWAP1 SSTORE ADD SWAP1 MLOAD SWAP1 DUP2 MLOAD SWAP2 PUSH8 0xFFFFFFFFFFFFFFFF DUP4 GT PUSH2 0xA13 JUMPI PUSH1 0x1 PUSH1 0x40 SHL DUP4 GT PUSH2 0xA13 JUMPI DUP5 SWAP1 DUP3 SLOAD DUP5 DUP5 SSTORE DUP1 DUP6 LT PUSH2 0x1FBB JUMPI JUMPDEST POP ADD SWAP1 PUSH1 0x0 MSTORE DUP4 PUSH1 0x0 KECCAK256 PUSH1 0x0 JUMPDEST DUP4 DUP2 LT PUSH2 0x1FA9 JUMPI DUP7 PUSH32 0x9D3136590A24E6EB0D058D4D9B8C4D5BE27926B0ABFECA301A4D5FC0AAAB775D DUP8 DUP8 PUSH1 0x40 MLOAD SWAP1 DUP2 MSTORE LOG2 STOP JUMPDEST DUP3 MLOAD DUP3 DUP3 ADD SSTORE SWAP2 DUP6 ADD SWAP2 PUSH1 0x1 ADD PUSH2 0x1F75 JUMP JUMPDEST DUP4 PUSH1 0x0 MSTORE DUP5 DUP4 PUSH1 0x0 KECCAK256 SWAP2 DUP3 ADD SWAP2 ADD JUMPDEST DUP2 DUP2 LT PUSH2 0x1FD7 JUMPI POP PUSH2 0x1F68 JUMP JUMPDEST PUSH1 0x0 DUP2 SSTORE DUP8 SWAP4 POP PUSH1 0x1 ADD PUSH2 0x1FCA JUMP JUMPDEST PUSH1 0x40 MLOAD PUSH3 0x461BCD PUSH1 0xE5 SHL DUP2 MSTORE PUSH1 0x20 PUSH1 0x4 DUP3 ADD MSTORE PUSH1 0x14 PUSH1 0x24 DUP3 ADD MSTORE PUSH20 0x416C726561647920696E20646973636F76657279 PUSH1 0x60 SHL PUSH1 0x44 DUP3 ADD MSTORE PUSH1 0x64 SWAP1 REVERT JUMPDEST CALLVALUE PUSH2 0x6B9 JUMPI PUSH1 0x20 CALLDATASIZE PUSH1 0x3 NOT ADD SLT PUSH2 0x6B9 JUMPI PUSH1 0x1 PUSH1 0x1 PUSH1 0xA0 SHL SUB PUSH2 0x2043 PUSH2 0x3B26 JUMP JUMPDEST AND PUSH1 0x0 MSTORE PUSH1 0x3 PUSH1 0x20 MSTORE PUSH1 0x20 PUSH1 0x40 PUSH1 0x0 KECCAK256 SLOAD PUSH1 0x40 MLOAD SWAP1 DUP2 MSTORE RETURN JUMPDEST CALLVALUE PUSH2 0x6B9 JUMPI PUSH1 0x20 CALLDATASIZE PUSH1 0x3 NOT ADD SLT PUSH2 0x6B9 JUMPI PUSH2 0x2075 PUSH2 0x3B26 JUMP JUMPDEST PUSH2 0x207D PUSH2 0x4954 JUMP JUMPDEST PUSH1 0x1 PUSH1 0x1 PUSH1 0xA0 SHL SUB DUP2 AND SWAP1 DUP2 ISZERO PUSH2 0x214F JUMPI PUSH1 0xA0 PUSH1 0x0 DUP1 MLOAD PUSH1 0x20 PUSH2 0x5903 DUP4 CODECOPY DUP2 MLOAD SWAP2 MSTORE SWAP2 PUSH1 0x0 DUP1 MLOAD PUSH1 0x20 PUSH2 0x57E3 DUP4 CODECOPY DUP2 MLOAD SWAP2 MSTORE PUSH1 0x0 SWAP5 PUSH2 0x20E3 PUSH1 0xC SLOAD SWAP4 DUP3 PUSH1 0x1 DUP1 DUP9 SHL SUB DUP7 AND SWAP6 PUSH2 0x20CF DUP8 DUP4 EQ ISZERO PUSH2 0x44C5 JUMP JUMPDEST PUSH1 0x1 PUSH1 0x1 PUSH1 0x60 SHL SUB DUP9 SHL AND OR PUSH1 0xC SSTORE PUSH2 0x4A52 JUMP JUMPDEST POP PUSH1 0x0 DUP1 MLOAD PUSH1 0x20 PUSH2 0x5843 DUP4 CODECOPY DUP2 MLOAD SWAP2 MSTORE PUSH1 0x40 MLOAD DUP1 PUSH2 0x211B DUP2 PUSH1 0x60 SWAP1 PUSH1 0x20 DUP2 MSTORE PUSH1 0x5 PUSH1 0x20 DUP3 ADD MSTORE PUSH5 0x19DC985B9D PUSH1 0xDA SHL PUSH1 0x40 DUP3 ADD MSTORE ADD SWAP1 JUMP JUMPDEST SUB SWAP1 LOG3 PUSH1 0x40 MLOAD SWAP1 PUSH1 0x60 DUP3 MSTORE PUSH1 0xB PUSH1 0x60 DUP4 ADD MSTORE PUSH11 0x19195E17DD5C19185D1959 PUSH1 0xAA SHL PUSH1 0x80 DUP4 ADD MSTORE PUSH1 0x20 DUP3 ADD MSTORE TIMESTAMP PUSH1 0x40 DUP3 ADD MSTORE LOG2 STOP JUMPDEST PUSH1 0x40 MLOAD PUSH3 0x461BCD PUSH1 0xE5 SHL DUP2 MSTORE PUSH1 0x20 PUSH1 0x4 DUP3 ADD MSTORE PUSH1 0x13 PUSH1 0x24 DUP3 ADD MSTORE PUSH19 0x496E76616C6964204445582061646472657373 PUSH1 0x68 SHL PUSH1 0x44 DUP3 ADD MSTORE PUSH1 0x64 SWAP1 REVERT JUMPDEST CALLVALUE PUSH2 0x6B9 JUMPI PUSH1 0x20 CALLDATASIZE PUSH1 0x3 NOT ADD SLT PUSH2 0x6B9 JUMPI PUSH1 0x1 PUSH1 0x1 PUSH1 0xA0 SHL SUB PUSH2 0x21AB PUSH2 0x3B26 JUMP JUMPDEST AND PUSH1 0x0 MSTORE PUSH1 0x12 PUSH1 0x20 MSTORE PUSH1 0x20 PUSH1 0xFF PUSH1 0x40 PUSH1 0x0 KECCAK256 SLOAD AND PUSH1 0x40 MLOAD SWAP1 ISZERO ISZERO DUP2 MSTORE RETURN JUMPDEST CALLVALUE PUSH2 0x6B9 JUMPI PUSH1 0x20 CALLDATASIZE PUSH1 0x3 NOT ADD SLT PUSH2 0x6B9 JUMPI PUSH1 0x1 PUSH1 0x1 PUSH1 0xA0 SHL SUB PUSH2 0x21EA PUSH2 0x3B26 JUMP JUMPDEST AND PUSH1 0x0 MSTORE PUSH1 0xA PUSH1 0x20 MSTORE PUSH1 0x20 PUSH1 0xFF PUSH1 0x40 PUSH1 0x0 KECCAK256 SLOAD AND PUSH1 0x40 MLOAD SWAP1 ISZERO ISZERO DUP2 MSTORE RETURN JUMPDEST CALLVALUE PUSH2 0x6B9 JUMPI PUSH1 0x0 CALLDATASIZE PUSH1 0x3 NOT ADD SLT PUSH2 0x6B9 JUMPI PUSH2 0x2221 PUSH2 0x4954 JUMP JUMPDEST PUSH1 0x0 DUP1 SLOAD PUSH1 0x1 PUSH1 0x1 PUSH1 0xA0 SHL SUB NOT DUP2 AND DUP3 SSTORE PUSH1 0x1 PUSH1 0x1 PUSH1 0xA0 SHL SUB AND PUSH32 0x8BE0079C531659141344CD1FD0A4F28419497F9722A3DAAFE3B4186F6B6457E0 DUP3 DUP1 LOG3 STOP JUMPDEST CALLVALUE PUSH2 0x6B9 JUMPI PUSH1 0x20 CALLDATASIZE PUSH1 0x3 NOT ADD SLT PUSH2 0x6B9 JUMPI PUSH1 0x4 CALLDATALOAD PUSH2 0x227D PUSH2 0x4954 JUMP JUMPDEST PUSH1 0x10 SLOAD PUSH1 0x0 PUSH1 0x0 DUP1 MLOAD PUSH1 0x20 PUSH2 0x5903 DUP4 CODECOPY DUP2 MLOAD SWAP2 MSTORE PUSH1 0xA0 PUSH1 0x40 MLOAD PUSH1 0x60 DUP2 MSTORE PUSH1 0x1C PUSH1 0x60 DUP3 ADD MSTORE PUSH32 0x6D61785F6C69717569646974795F7570646174655F7374617274656400000000 PUSH1 0x80 DUP3 ADD MSTORE DUP5 PUSH1 0x20 DUP3 ADD MSTORE DUP6 PUSH1 0x40 DUP3 ADD MSTORE LOG2 PUSH8 0x8AC7230489E80000 DUP3 LT PUSH2 0x2521 JUMPI PUSH10 0xD3C21BCECCEDA1000000 DUP3 GT PUSH2 0x24E9 JUMPI DUP1 DUP3 EQ PUSH2 0x24A4 JUMPI PUSH32 0x5555555555555555555555555555555555555555555555555555555555555555 DUP3 GT PUSH2 0x245F JUMPI PUSH1 0x9 SLOAD PUSH1 0x0 JUMPDEST DUP2 DUP2 LT PUSH2 0x23B9 JUMPI PUSH1 0x0 PUSH1 0x0 DUP1 MLOAD PUSH1 0x20 PUSH2 0x5903 DUP4 CODECOPY DUP2 MLOAD SWAP2 MSTORE PUSH1 0xA0 DUP6 DUP8 DUP1 PUSH1 0x10 SSTORE PUSH32 0xBD98E0BD24B2824759454DCB5D1C32CEB32A60E2A421FBE3BC9620E1F0685296 PUSH1 0x40 DUP1 MLOAD DUP5 DUP2 MSTORE DUP4 PUSH1 0x20 DUP3 ADD MSTORE LOG1 PUSH1 0x40 MLOAD SWAP2 PUSH1 0x60 DUP4 MSTORE PUSH1 0x1E PUSH1 0x60 DUP5 ADD MSTORE PUSH32 0x6D61785F6C69717569646974795F7570646174655F636F6D706C657465640000 PUSH1 0x80 DUP5 ADD MSTORE PUSH1 0x20 DUP4 ADD MSTORE PUSH1 0x40 DUP3 ADD MSTORE LOG2 STOP JUMPDEST PUSH2 0x23C2 DUP2 PUSH2 0x3B91 JUMP JUMPDEST PUSH1 0x1 DUP1 PUSH1 0xA0 SHL SUB SWAP2 SLOAD SWAP1 PUSH1 0x3 SHL SHR AND SWAP1 DUP2 PUSH1 0x0 MSTORE PUSH1 0x3 PUSH1 0x20 MSTORE PUSH1 0x40 PUSH1 0x0 KECCAK256 SLOAD SWAP2 DUP6 DUP4 GT PUSH2 0x2421 JUMPI PUSH32 0xBF56B164AD586BA8CDD1DDF2C20CB0D5B567519A27BA02F05E835DD910D715AE PUSH1 0x40 PUSH1 0x1 SWAP5 DUP2 MLOAD SWAP1 DUP2 MSTORE DUP9 PUSH1 0x20 DUP3 ADD MSTORE LOG2 ADD PUSH2 0x2328 JUMP JUMPDEST PUSH1 0x40 MLOAD PUSH3 0x461BCD PUSH1 0xE5 SHL DUP2 MSTORE PUSH1 0x20 PUSH1 0x4 DUP3 ADD MSTORE PUSH1 0x16 PUSH1 0x24 DUP3 ADD MSTORE PUSH22 0x141BDBDB08195E18D959591CC81B995DC81B1A5B5A5D PUSH1 0x52 SHL PUSH1 0x44 DUP3 ADD MSTORE PUSH1 0x64 SWAP1 REVERT JUMPDEST PUSH1 0x40 MLOAD PUSH3 0x461BCD PUSH1 0xE5 SHL DUP2 MSTORE PUSH1 0x20 PUSH1 0x4 DUP3 ADD MSTORE PUSH1 0x18 PUSH1 0x24 DUP3 ADD MSTORE PUSH32 0x4D617820776F756C64206361757365206F766572666C6F770000000000000000 PUSH1 0x44 DUP3 ADD MSTORE PUSH1 0x64 SWAP1 REVERT JUMPDEST PUSH1 0x40 MLOAD PUSH3 0x461BCD PUSH1 0xE5 SHL DUP2 MSTORE PUSH1 0x20 PUSH1 0x4 DUP3 ADD MSTORE PUSH1 0x17 PUSH1 0x24 DUP3 ADD MSTORE PUSH32 0x4E6577206D61782073616D652061732063757272656E74000000000000000000 PUSH1 0x44 DUP3 ADD MSTORE PUSH1 0x64 SWAP1 REVERT JUMPDEST PUSH1 0x40 MLOAD PUSH3 0x461BCD PUSH1 0xE5 SHL DUP2 MSTORE PUSH1 0x20 PUSH1 0x4 DUP3 ADD MSTORE PUSH1 0x10 PUSH1 0x24 DUP3 ADD MSTORE PUSH16 0x9CCAEE40DAC2F040E8DEDE40D0D2CED PUSH1 0x83 SHL PUSH1 0x44 DUP3 ADD MSTORE PUSH1 0x64 SWAP1 REVERT JUMPDEST PUSH1 0x64 PUSH1 0x40 MLOAD PUSH3 0x461BCD PUSH1 0xE5 SHL DUP2 MSTORE PUSH1 0x20 PUSH1 0x4 DUP3 ADD MSTORE PUSH1 0x20 PUSH1 0x24 DUP3 ADD MSTORE PUSH32 0x4E6577206D6178206D757374206265203E3D206D696E206C6971756964697479 PUSH1 0x44 DUP3 ADD MSTORE REVERT JUMPDEST CALLVALUE PUSH2 0x6B9 JUMPI PUSH1 0x20 CALLDATASIZE PUSH1 0x3 NOT ADD SLT PUSH2 0x6B9 JUMPI PUSH1 0x1 PUSH1 0x1 PUSH1 0xA0 SHL SUB PUSH2 0x2586 PUSH2 0x3B26 JUMP JUMPDEST AND PUSH1 0x0 MSTORE PUSH1 0x2 PUSH1 0x20 MSTORE PUSH1 0x20 PUSH1 0x40 PUSH1 0x0 KECCAK256 SLOAD PUSH1 0x40 MLOAD SWAP1 DUP2 MSTORE RETURN JUMPDEST CALLVALUE PUSH2 0x6B9 JUMPI PUSH1 0x0 CALLDATASIZE PUSH1 0x3 NOT ADD SLT PUSH2 0x6B9 JUMPI PUSH1 0x20 PUSH1 0x40 MLOAD PUSH1 0x0 DUP1 MLOAD PUSH1 0x20 PUSH2 0x58C3 DUP4 CODECOPY DUP2 MLOAD SWAP2 MSTORE DUP2 MSTORE RETURN JUMPDEST CALLVALUE PUSH2 0x6B9 JUMPI PUSH1 0x0 CALLDATASIZE PUSH1 0x3 NOT ADD SLT PUSH2 0x6B9 JUMPI PUSH1 0x20 PUSH1 0x40 MLOAD PUSH1 0x14 DUP2 MSTORE RETURN JUMPDEST CALLVALUE PUSH2 0x6B9 JUMPI PUSH1 0x20 CALLDATASIZE PUSH1 0x3 NOT ADD SLT PUSH2 0x6B9 JUMPI PUSH2 0x25FD PUSH2 0x3B26 JUMP JUMPDEST PUSH2 0x2605 PUSH2 0x4954 JUMP JUMPDEST PUSH1 0x1 PUSH1 0x1 PUSH1 0xA0 SHL SUB DUP2 AND PUSH2 0x261A DUP2 ISZERO ISZERO PUSH2 0x4487 JUMP JUMPDEST PUSH1 0xC SLOAD PUSH2 0x2632 SWAP1 PUSH1 0x1 PUSH1 0x1 PUSH1 0xA0 SHL SUB AND DUP3 EQ ISZERO PUSH2 0x44C5 JUMP JUMPDEST PUSH1 0x0 DUP2 DUP2 MSTORE PUSH1 0x0 DUP1 MLOAD PUSH1 0x20 PUSH2 0x5863 DUP4 CODECOPY DUP2 MLOAD SWAP2 MSTORE PUSH1 0x20 MSTORE PUSH1 0x40 SWAP1 KECCAK256 SLOAD PUSH1 0xFF AND PUSH2 0x26A5 JUMPI PUSH2 0x266D PUSH1 0x0 DUP1 MLOAD PUSH1 0x20 PUSH2 0x58C3 DUP4 CODECOPY DUP2 MLOAD SWAP2 MSTORE SWAP3 PUSH2 0x49BA JUMP JUMPDEST POP PUSH1 0x0 DUP1 MLOAD PUSH1 0x20 PUSH2 0x5843 DUP4 CODECOPY DUP2 MLOAD SWAP2 MSTORE PUSH1 0x40 MLOAD DUP1 PUSH2 0x134D DUP2 PUSH1 0x60 SWAP1 PUSH1 0x20 DUP2 MSTORE PUSH1 0x5 PUSH1 0x20 DUP3 ADD MSTORE PUSH5 0x19DC985B9D PUSH1 0xDA SHL PUSH1 0x40 DUP3 ADD MSTORE ADD SWAP1 JUMP JUMPDEST PUSH1 0x40 MLOAD PUSH3 0x461BCD PUSH1 0xE5 SHL DUP2 MSTORE PUSH1 0x20 PUSH1 0x4 DUP3 ADD MSTORE PUSH1 0x12 PUSH1 0x24 DUP3 ADD MSTORE PUSH18 0x82D8E4CAC2C8F240C4C2C6D6EAE040888AB PUSH1 0x73 SHL PUSH1 0x44 DUP3 ADD MSTORE PUSH1 0x64 SWAP1 REVERT JUMPDEST CALLVALUE PUSH2 0x6B9 JUMPI PUSH1 0x0 CALLDATASIZE PUSH1 0x3 NOT ADD SLT PUSH2 0x6B9 JUMPI PUSH1 0xC SLOAD PUSH1 0x40 MLOAD PUSH1 0x1 PUSH1 0x1 PUSH1 0xA0 SHL SUB SWAP1 SWAP2 AND DUP2 MSTORE PUSH1 0x20 SWAP1 RETURN JUMPDEST CALLVALUE PUSH2 0x6B9 JUMPI PUSH1 0x20 CALLDATASIZE PUSH1 0x3 NOT ADD SLT PUSH2 0x6B9 JUMPI PUSH2 0x2721 PUSH2 0x3B26 JUMP JUMPDEST PUSH2 0x2729 PUSH2 0x4954 JUMP JUMPDEST PUSH1 0x1 PUSH1 0x1 PUSH1 0xA0 SHL SUB DUP2 AND PUSH2 0x273E DUP2 ISZERO ISZERO PUSH2 0x4487 JUMP JUMPDEST PUSH1 0xC SLOAD PUSH1 0x1 PUSH1 0x1 PUSH1 0xA0 SHL SUB AND DUP2 EQ PUSH2 0x2801 JUMPI PUSH1 0x0 DUP2 DUP2 MSTORE PUSH1 0x0 DUP1 MLOAD PUSH1 0x20 PUSH2 0x58E3 DUP4 CODECOPY DUP2 MLOAD SWAP2 MSTORE PUSH1 0x20 MSTORE PUSH1 0x40 SWAP1 KECCAK256 SLOAD PUSH1 0x0 DUP1 MLOAD PUSH1 0x20 PUSH2 0x57E3 DUP4 CODECOPY DUP2 MLOAD SWAP2 MSTORE SWAP3 SWAP1 PUSH1 0xFF AND PUSH2 0x27F2 JUMPI JUMPDEST PUSH1 0x0 DUP3 DUP2 MSTORE PUSH1 0x0 DUP1 MLOAD PUSH1 0x20 PUSH2 0x5863 DUP4 CODECOPY DUP2 MLOAD SWAP2 MSTORE PUSH1 0x20 MSTORE PUSH1 0x40 SWAP1 KECCAK256 SLOAD PUSH1 0xFF AND PUSH2 0x27E2 JUMPI JUMPDEST POP PUSH1 0x0 DUP1 MLOAD PUSH1 0x20 PUSH2 0x5843 DUP4 CODECOPY DUP2 MLOAD SWAP2 MSTORE PUSH1 0x40 MLOAD DUP1 PUSH2 0x134D DUP2 PUSH1 0x60 SWAP1 PUSH1 0x20 DUP2 MSTORE PUSH1 0x6 PUSH1 0x20 DUP3 ADD MSTORE PUSH6 0x7265766F6B65 PUSH1 0xD0 SHL PUSH1 0x40 DUP3 ADD MSTORE ADD SWAP1 JUMP JUMPDEST PUSH2 0x27EB SWAP1 PUSH2 0x4FDD JUMP JUMPDEST POP DUP3 PUSH2 0x27A9 JUMP JUMPDEST PUSH2 0x27FB DUP2 PUSH2 0x4F47 JUMP JUMPDEST POP PUSH2 0x2785 JUMP JUMPDEST PUSH1 0x40 MLOAD PUSH3 0x461BCD PUSH1 0xE5 SHL DUP2 MSTORE PUSH1 0x20 PUSH1 0x4 DUP3 ADD MSTORE PUSH1 0x1E PUSH1 0x24 DUP3 ADD MSTORE PUSH32 0x43616E6E6F74207265766F6B652066726F6D207072696D617279204445580000 PUSH1 0x44 DUP3 ADD MSTORE PUSH1 0x64 SWAP1 REVERT JUMPDEST CALLVALUE PUSH2 0x6B9 JUMPI PUSH1 0x20 CALLDATASIZE PUSH1 0x3 NOT ADD SLT PUSH2 0x6B9 JUMPI PUSH1 0x20 PUSH2 0x2861 PUSH2 0x3B26 JUMP JUMPDEST PUSH1 0x5 SLOAD PUSH1 0x40 MLOAD PUSH1 0x1 PUSH1 0x1 PUSH1 0xA0 SHL SUB SWAP3 DUP4 AND SWAP2 SWAP1 SWAP3 AND EQ DUP2 MSTORE RETURN JUMPDEST PUSH2 0x3B52 JUMP JUMPDEST CALLVALUE PUSH2 0x6B9 JUMPI PUSH1 0x0 CALLDATASIZE PUSH1 0x3 NOT ADD SLT PUSH2 0x6B9 JUMPI PUSH1 0x20 PUSH1 0x40 MLOAD PUSH1 0x3 DUP2 MSTORE RETURN JUMPDEST CALLVALUE PUSH2 0x6B9 JUMPI PUSH2 0x28AA CALLDATASIZE PUSH2 0x3BC4 JUMP JUMPDEST SWAP1 SWAP2 PUSH1 0x1 DUP1 PUSH1 0xA0 SHL SUB AND DUP1 PUSH1 0x0 DUP1 MLOAD PUSH1 0x20 PUSH2 0x5903 DUP4 CODECOPY DUP2 MLOAD SWAP2 MSTORE PUSH1 0xA0 PUSH1 0x40 MLOAD PUSH1 0x60 DUP2 MSTORE PUSH1 0x3 PUSH1 0x60 DUP3 ADD MSTORE PUSH3 0x185919 PUSH1 0xEA SHL PUSH1 0x80 DUP3 ADD MSTORE DUP6 PUSH1 0x20 DUP3 ADD MSTORE TIMESTAMP PUSH1 0x40 DUP3 ADD MSTORE LOG2 DUP1 ISZERO PUSH2 0x2E9E JUMPI DUP3 ISZERO ISZERO DUP1 PUSH2 0x2E95 JUMPI JUMPDEST ISZERO PUSH2 0x2E50 JUMPI DUP1 PUSH1 0x0 MSTORE PUSH1 0xA PUSH1 0x20 MSTORE PUSH2 0x291B PUSH1 0xFF PUSH1 0x40 PUSH1 0x0 KECCAK256 SLOAD AND PUSH2 0x4006 JUMP JUMPDEST DUP1 PUSH1 0x0 MSTORE PUSH1 0x8 PUSH1 0x20 MSTORE PUSH2 0x2993 PUSH1 0xFF PUSH1 0x3 PUSH1 0x40 PUSH1 0x0 KECCAK256 ADD SLOAD AND DUP1 PUSH1 0x0 EQ PUSH2 0x2E37 JUMPI DUP3 PUSH1 0x0 DUP1 MLOAD PUSH1 0x20 PUSH2 0x5903 DUP4 CODECOPY DUP2 MLOAD SWAP2 MSTORE PUSH1 0xA0 PUSH1 0x1 JUMPDEST PUSH1 0xFF PUSH1 0x40 MLOAD SWAP2 PUSH1 0x60 DUP4 MSTORE PUSH1 0x16 PUSH1 0x60 DUP5 ADD MSTORE PUSH22 0x70726963655F646973636F766572795F737461747573 PUSH1 0x50 SHL PUSH1 0x80 DUP5 ADD MSTORE AND PUSH1 0x20 DUP3 ADD MSTORE TIMESTAMP PUSH1 0x40 DUP3 ADD MSTORE LOG2 ISZERO PUSH2 0x4409 JUMP JUMPDEST PUSH8 0x8AC7230489E80000 DUP3 LT PUSH2 0x2DE6 JUMPI PUSH1 0x10 SLOAD SWAP3 DUP4 DUP4 GT PUSH2 0x2D95 JUMPI DUP2 PUSH1 0x0 MSTORE PUSH1 0x2 PUSH1 0x20 MSTORE PUSH1 0x40 PUSH1 0x0 KECCAK256 SLOAD SWAP4 DUP3 PUSH1 0x0 MSTORE PUSH1 0x3 PUSH1 0x20 MSTORE PUSH1 0x40 PUSH1 0x0 KECCAK256 SLOAD SWAP1 DUP4 PUSH1 0x0 DUP1 MLOAD PUSH1 0x20 PUSH2 0x5803 DUP4 CODECOPY DUP2 MLOAD SWAP2 MSTORE PUSH1 0x40 MLOAD DUP1 PUSH2 0x29FE DUP6 DUP8 DUP13 DUP5 PUSH1 0x40 SWAP2 SWAP5 SWAP4 SWAP3 PUSH1 0x60 DUP3 ADD SWAP6 DUP3 MSTORE PUSH1 0x20 DUP3 ADD MSTORE ADD MSTORE JUMP JUMPDEST SUB SWAP1 LOG2 PUSH2 0x2A0B DUP6 DUP4 PUSH2 0x4052 JUMP JUMPDEST GT PUSH2 0x2D3D JUMPI PUSH1 0x40 MLOAD PUSH4 0x70A08231 PUSH1 0xE0 SHL DUP2 MSTORE CALLER PUSH1 0x4 DUP3 ADD MSTORE PUSH1 0x20 DUP2 PUSH1 0x24 DUP2 DUP8 GAS STATICCALL SWAP1 DUP2 ISZERO PUSH2 0x13CC JUMPI PUSH1 0x0 SWAP2 PUSH2 0x2D0B JUMPI JUMPDEST POP PUSH1 0x5 SLOAD PUSH1 0x40 MLOAD PUSH4 0x70A08231 PUSH1 0xE0 SHL DUP2 MSTORE CALLER PUSH1 0x4 DUP3 ADD MSTORE SWAP1 PUSH1 0x20 SWAP1 DUP3 SWAP1 PUSH1 0x24 SWAP1 DUP3 SWAP1 PUSH1 0x1 PUSH1 0x1 PUSH1 0xA0 SHL SUB AND GAS STATICCALL SWAP2 DUP3 ISZERO PUSH2 0x13CC JUMPI DUP5 SWAP2 PUSH1 0x0 SWAP4 PUSH2 0x2CD4 JUMPI JUMPDEST POP LT PUSH2 0x2C84 JUMPI DUP5 PUSH2 0x2A8B SWAP2 LT ISZERO PUSH2 0x42E9 JUMP JUMPDEST PUSH2 0x2A97 DUP3 ADDRESS CALLER DUP7 PUSH2 0x513B JUMP JUMPDEST PUSH2 0x2AAD DUP5 ADDRESS CALLER PUSH1 0x1 DUP1 PUSH1 0xA0 SHL SUB PUSH1 0x5 SLOAD AND PUSH2 0x513B JUMP JUMPDEST PUSH1 0x40 MLOAD PUSH4 0x70A08231 PUSH1 0xE0 SHL DUP2 MSTORE CALLER PUSH1 0x4 DUP3 ADD MSTORE SWAP5 PUSH1 0x20 DUP7 PUSH1 0x24 DUP2 DUP8 GAS STATICCALL SWAP6 DUP7 ISZERO PUSH2 0x13CC JUMPI PUSH1 0x0 SWAP7 PUSH2 0x2C50 JUMPI JUMPDEST POP PUSH1 0x5 SLOAD PUSH1 0x40 MLOAD PUSH4 0x70A08231 PUSH1 0xE0 SHL DUP2 MSTORE CALLER PUSH1 0x4 DUP3 ADD MSTORE SWAP1 PUSH1 0x20 SWAP1 DUP3 SWAP1 PUSH1 0x24 SWAP1 DUP3 SWAP1 PUSH1 0x1 PUSH1 0x1 PUSH1 0xA0 SHL SUB AND GAS STATICCALL SWAP1 DUP2 ISZERO PUSH2 0x13CC JUMPI PUSH1 0x0 SWAP2 PUSH2 0x2C16 JUMPI JUMPDEST POP SWAP3 PUSH2 0x2B83 DUP7 PUSH32 0xAC1D76749E5447B7B16F5AB61447E1BD502F3BB4807AF3B28E620D1700A6EE45 SWAP5 PUSH2 0x2B71 DUP5 PUSH1 0x40 SWAP7 DUP11 PUSH1 0x0 DUP1 MLOAD PUSH1 0x20 PUSH2 0x5803 DUP4 CODECOPY DUP2 MLOAD SWAP2 MSTORE PUSH1 0x60 PUSH1 0x20 SWAP16 DUP4 SWAP14 DUP13 MLOAD SWAP2 DUP3 MSTORE PUSH1 0x20 DUP3 ADD MSTORE PUSH1 0x0 DUP13 DUP3 ADD MSTORE LOG2 PUSH2 0x4052 JUMP JUMPDEST DUP8 PUSH1 0x0 MSTORE PUSH1 0x2 DUP12 MSTORE DUP6 PUSH1 0x0 KECCAK256 SSTORE PUSH2 0x4052 JUMP JUMPDEST DUP5 PUSH1 0x0 MSTORE PUSH1 0x3 DUP9 MSTORE DUP3 PUSH1 0x0 KECCAK256 SSTORE DUP4 PUSH1 0x0 DUP1 MLOAD PUSH1 0x20 PUSH2 0x5903 DUP4 CODECOPY DUP2 MLOAD SWAP2 MSTORE DUP4 MLOAD DUP1 PUSH2 0x2BAE TIMESTAMP DUP7 DUP4 PUSH2 0x4455 JUMP JUMPDEST SUB SWAP1 LOG2 DUP2 MLOAD SWAP1 DUP2 MSTORE DUP6 DUP8 DUP3 ADD MSTORE LOG2 DUP1 PUSH1 0x0 MSTORE PUSH1 0x2 DUP4 MSTORE PUSH1 0x0 DUP1 MLOAD PUSH1 0x20 PUSH2 0x5803 DUP4 CODECOPY DUP2 MLOAD SWAP2 MSTORE PUSH1 0x40 PUSH1 0x0 KECCAK256 SLOAD DUP3 PUSH1 0x0 MSTORE PUSH1 0x3 DUP6 MSTORE PUSH1 0x40 PUSH1 0x0 KECCAK256 SLOAD SWAP1 PUSH2 0x2C0B PUSH1 0x10 SLOAD PUSH1 0x40 MLOAD SWAP4 DUP5 SWAP4 DUP5 PUSH1 0x40 SWAP2 SWAP5 SWAP4 SWAP3 PUSH1 0x60 DUP3 ADD SWAP6 DUP3 MSTORE PUSH1 0x20 DUP3 ADD MSTORE ADD MSTORE JUMP JUMPDEST SUB SWAP1 LOG2 PUSH1 0x40 MLOAD SWAP1 DUP2 MSTORE RETURN JUMPDEST SWAP2 SWAP4 SWAP1 POP PUSH1 0x20 DUP3 RETURNDATASIZE PUSH1 0x20 GT PUSH2 0x2C48 JUMPI JUMPDEST DUP2 PUSH2 0x2C33 PUSH1 0x20 SWAP4 DUP4 PUSH2 0x3FE4 JUMP JUMPDEST DUP2 ADD SUB SLT PUSH2 0x6B9 JUMPI SWAP1 MLOAD SWAP1 SWAP3 SWAP1 PUSH2 0x2B83 PUSH2 0x2B15 JUMP JUMPDEST RETURNDATASIZE SWAP2 POP PUSH2 0x2C26 JUMP JUMPDEST SWAP1 SWAP6 POP PUSH1 0x20 DUP2 RETURNDATASIZE PUSH1 0x20 GT PUSH2 0x2C7C JUMPI JUMPDEST DUP2 PUSH2 0x2C6C PUSH1 0x20 SWAP4 DUP4 PUSH2 0x3FE4 JUMP JUMPDEST DUP2 ADD SUB SLT PUSH2 0x6B9 JUMPI MLOAD SWAP5 DUP7 PUSH2 0x2AD9 JUMP JUMPDEST RETURNDATASIZE SWAP2 POP PUSH2 0x2C5F JUMP JUMPDEST PUSH1 0x40 MLOAD PUSH3 0x461BCD PUSH1 0xE5 SHL DUP2 MSTORE PUSH1 0x20 PUSH1 0x4 DUP3 ADD MSTORE PUSH1 0x22 PUSH1 0x24 DUP3 ADD MSTORE PUSH32 0x496E73756666696369656E742043726561746F7220546F6B656E2062616C616E PUSH1 0x44 DUP3 ADD MSTORE PUSH2 0x6365 PUSH1 0xF0 SHL PUSH1 0x64 DUP3 ADD MSTORE PUSH1 0x84 SWAP1 REVERT JUMPDEST SWAP2 POP SWAP2 POP PUSH1 0x20 DUP2 RETURNDATASIZE PUSH1 0x20 GT PUSH2 0x2D03 JUMPI JUMPDEST DUP2 PUSH2 0x2CF1 PUSH1 0x20 SWAP4 DUP4 PUSH2 0x3FE4 JUMP JUMPDEST DUP2 ADD SUB SLT PUSH2 0x6B9 JUMPI DUP4 SWAP1 MLOAD SWAP2 DUP9 PUSH2 0x2A79 JUMP JUMPDEST RETURNDATASIZE SWAP2 POP PUSH2 0x2CE4 JUMP JUMPDEST SWAP1 POP PUSH1 0x20 DUP2 RETURNDATASIZE PUSH1 0x20 GT PUSH2 0x2D35 JUMPI JUMPDEST DUP2 PUSH2 0x2D26 PUSH1 0x20 SWAP4 DUP4 PUSH2 0x3FE4 JUMP JUMPDEST DUP2 ADD SUB SLT PUSH2 0x6B9 JUMPI MLOAD DUP7 PUSH2 0x2A3B JUMP JUMPDEST RETURNDATASIZE SWAP2 POP PUSH2 0x2D19 JUMP JUMPDEST PUSH1 0x40 MLOAD PUSH3 0x461BCD PUSH1 0xE5 SHL DUP2 MSTORE PUSH1 0x20 PUSH1 0x4 DUP3 ADD MSTORE PUSH1 0x2A PUSH1 0x24 DUP3 ADD MSTORE PUSH32 0x546F74616C20434F52414C206C697175696469747920776F756C642065786365 PUSH1 0x44 DUP3 ADD MSTORE PUSH10 0x6564206D6178696D756D PUSH1 0xB0 SHL PUSH1 0x64 DUP3 ADD MSTORE PUSH1 0x84 SWAP1 REVERT JUMPDEST PUSH1 0x40 MLOAD PUSH3 0x461BCD PUSH1 0xE5 SHL DUP2 MSTORE PUSH1 0x20 PUSH1 0x4 DUP3 ADD MSTORE PUSH1 0x24 DUP1 DUP3 ADD MSTORE PUSH32 0x434F52414C20616D6F756E742061626F7665206D6178696D756D206C69717569 PUSH1 0x44 DUP3 ADD MSTORE PUSH4 0x64697479 PUSH1 0xE0 SHL PUSH1 0x64 DUP3 ADD MSTORE PUSH1 0x84 SWAP1 REVERT JUMPDEST PUSH1 0x40 MLOAD PUSH3 0x461BCD PUSH1 0xE5 SHL DUP2 MSTORE PUSH1 0x20 PUSH1 0x4 DUP3 ADD MSTORE PUSH1 0x24 DUP1 DUP3 ADD MSTORE PUSH32 0x434F52414C20616D6F756E742062656C6F77206D696E696D756D206C69717569 PUSH1 0x44 DUP3 ADD MSTORE PUSH4 0x64697479 PUSH1 0xE0 SHL PUSH1 0x64 DUP3 ADD MSTORE PUSH1 0x84 SWAP1 REVERT JUMPDEST DUP3 PUSH1 0x0 DUP1 MLOAD PUSH1 0x20 PUSH2 0x5903 DUP4 CODECOPY DUP2 MLOAD SWAP2 MSTORE PUSH1 0xA0 PUSH1 0x0 PUSH2 0x2950 JUMP JUMPDEST PUSH1 0x40 MLOAD PUSH3 0x461BCD PUSH1 0xE5 SHL DUP2 MSTORE PUSH1 0x20 PUSH1 0x4 DUP3 ADD MSTORE PUSH1 0x19 PUSH1 0x24 DUP3 ADD MSTORE PUSH32 0x496E76616C6964206C697175696469747920616D6F756E747300000000000000 PUSH1 0x44 DUP3 ADD MSTORE PUSH1 0x64 SWAP1 REVERT JUMPDEST POP DUP2 ISZERO ISZERO PUSH2 0x28FC JUMP JUMPDEST PUSH1 0x40 MLOAD PUSH3 0x461BCD PUSH1 0xE5 SHL DUP2 MSTORE PUSH1 0x20 PUSH1 0x4 DUP3 ADD MSTORE PUSH1 0x15 PUSH1 0x24 DUP3 ADD MSTORE PUSH21 0x24B73B30B634B21031B932B0BA37B9103A37B5B2B7 PUSH1 0x59 SHL PUSH1 0x44 DUP3 ADD MSTORE PUSH1 0x64 SWAP1 REVERT JUMPDEST CALLVALUE PUSH2 0x6B9 JUMPI PUSH1 0x40 CALLDATASIZE PUSH1 0x3 NOT ADD SLT PUSH2 0x6B9 JUMPI PUSH2 0x2EF4 PUSH2 0x3B26 JUMP JUMPDEST PUSH1 0x24 CALLDATALOAD SWAP1 PUSH2 0x2F00 PUSH2 0x4954 JUMP JUMPDEST PUSH1 0x1 DUP1 PUSH1 0xA0 SHL SUB AND SWAP1 DUP2 PUSH1 0x0 MSTORE PUSH1 0x8 PUSH1 0x20 MSTORE PUSH1 0x40 PUSH1 0x0 KECCAK256 SWAP1 PUSH2 0x2F28 PUSH1 0xFF PUSH1 0x3 DUP5 ADD SLOAD AND PUSH2 0x43CA JUMP JUMPDEST PUSH1 0x4 DUP3 ADD SWAP1 DUP2 SLOAD SWAP3 PUSH1 0x6 DUP5 LT ISZERO PUSH2 0x320B JUMPI PUSH1 0x1 PUSH1 0x40 SHL DUP5 LT ISZERO PUSH2 0xA13 JUMPI PUSH1 0x40 DUP3 DUP7 SWAP4 PUSH1 0x1 PUSH32 0x469B6894B4B45F49C7C10AA3E70E1FAE20F0EBA89B628E3D69AF9D7A34EF8BCF SWAP5 PUSH2 0x2F7F DUP10 DUP4 PUSH1 0x6 SWAP12 ADD DUP11 SSTORE DUP10 PUSH2 0x3BAC JUMP JUMPDEST DUP2 SLOAD SWAP1 PUSH1 0x3 SHL SWAP1 DUP6 DUP3 SHL SWAP2 PUSH1 0x0 NOT SWAP1 SHL NOT AND OR SWAP1 SSTORE ADD SSTORE DUP2 MLOAD SWAP1 DUP2 MSTORE TIMESTAMP PUSH1 0x20 DUP3 ADD MSTORE LOG2 SLOAD EQ PUSH2 0x2FAA JUMPI STOP JUMPDEST PUSH2 0x2FB2 PUSH2 0x4954 JUMP JUMPDEST DUP1 PUSH1 0x0 MSTORE PUSH1 0x8 PUSH1 0x20 MSTORE PUSH1 0x40 PUSH1 0x0 KECCAK256 PUSH1 0x3 DUP2 ADD SWAP1 PUSH2 0x2FD2 PUSH1 0xFF DUP4 SLOAD AND PUSH2 0x43CA JUMP JUMPDEST PUSH1 0x2 DUP2 ADD SLOAD PUSH1 0x78 DUP2 ADD DUP1 SWAP2 GT PUSH2 0x563 JUMPI TIMESTAMP LT PUSH2 0x674 JUMPI PUSH1 0x0 DUP4 DUP2 MSTORE PUSH1 0x8 PUSH1 0x20 MSTORE PUSH1 0x40 DUP2 KECCAK256 PUSH1 0x4 ADD DUP1 SLOAD DUP3 SWAP2 SWAP1 DUP3 JUMPDEST DUP2 DUP2 LT PUSH2 0x3167 JUMPI POP POP DUP2 ISZERO SWAP1 POP PUSH2 0x315E JUMPI PUSH2 0x301A SWAP2 PUSH2 0x3C83 JUMP JUMPDEST DUP1 PUSH8 0xDE0B6B3A7640000 MUL SWAP1 PUSH8 0xDE0B6B3A7640000 DUP3 DIV SUB PUSH2 0x563 JUMPI PUSH2 0x2710 SWAP1 DIV PUSH8 0xDE0B6B3A7640000 ADD SWAP1 DUP2 PUSH8 0xDE0B6B3A7640000 GT PUSH2 0x563 JUMPI PUSH32 0x928602A1348C2D5CC6354F7E6953A38BFAF42426CD5D8C83DC7C42B972CFCDB0 SWAP3 PUSH2 0x30AE PUSH1 0x1 SWAP3 DUP5 DUP8 PUSH1 0x40 SWAP7 SWAP2 PUSH8 0x29A2241AF62C0000 DUP2 GT PUSH2 0x3114 JUMPI POP POP PUSH8 0x16345785D8A0000 DUP2 GT ISZERO PUSH2 0x507 JUMPI SWAP4 DUP5 SWAP2 ADD SLOAD PUSH2 0x3CEF JUMP JUMPDEST SWAP1 PUSH2 0x30C3 PUSH8 0x8AC7230489E80000 DUP4 LT ISZERO PUSH2 0x3CA3 JUMP JUMPDEST PUSH1 0x10 SLOAD DUP1 DUP4 GT PUSH2 0x30F2 JUMPI POP DUP6 PUSH1 0x0 MSTORE PUSH1 0x3 PUSH1 0x20 MSTORE DUP2 DUP5 PUSH1 0x0 KECCAK256 SSTORE PUSH1 0xFF NOT DUP2 SLOAD AND SWAP1 SSTORE DUP3 MLOAD SWAP2 DUP3 MSTORE PUSH1 0x20 DUP3 ADD MSTORE LOG2 STOP JUMPDEST SWAP2 POP PUSH1 0x0 PUSH1 0x0 DUP1 MLOAD PUSH1 0x20 PUSH2 0x5823 DUP4 CODECOPY DUP2 MLOAD SWAP2 MSTORE PUSH1 0x20 DUP5 DUP8 MLOAD SWAP1 DUP2 MSTORE LOG2 DUP7 PUSH2 0x4C0 JUMP JUMPDEST PUSH32 0xFBB0338B3040D7B9BD8495DE3D07128625B3EAD1C3464340ED2E760A015D7447 SWAP2 SWAP3 POP DUP8 SWAP1 DUP2 MLOAD SWAP1 DUP2 MSTORE PUSH8 0x29A2241AF62C0000 PUSH1 0x20 DUP3 ADD MSTORE LOG2 PUSH8 0x29A2241AF62C0000 DUP8 DUP10 PUSH2 0x483 JUMP JUMPDEST POP POP PUSH1 0x0 PUSH2 0x301A JUMP JUMPDEST DUP1 PUSH2 0x3175 JUMPI JUMPDEST PUSH1 0x1 ADD PUSH2 0x3000 JUMP JUMPDEST PUSH2 0x317F DUP2 DUP5 PUSH2 0x3BAC JUMP JUMPDEST SWAP1 SLOAD PUSH1 0x0 NOT DUP4 ADD SWAP2 PUSH1 0x3 SHL SHR DUP3 DUP3 GT PUSH2 0x563 JUMPI PUSH2 0x319C DUP3 DUP7 PUSH2 0x3BAC JUMP JUMPDEST SWAP1 SLOAD SWAP1 PUSH1 0x3 SHL SHR LT PUSH2 0x31AF JUMPI JUMPDEST POP PUSH2 0x316D JUMP JUMPDEST PUSH2 0x31BD DUP3 DUP6 SWAP8 SWAP4 SWAP7 SWAP8 PUSH2 0x3BAC JUMP JUMPDEST SWAP1 SLOAD SWAP1 PUSH1 0x3 SHL SHR SWAP1 PUSH2 0x31D5 PUSH1 0x0 SWAP3 PUSH2 0x5F0 DUP4 DUP9 PUSH2 0x3BAC JUMP JUMPDEST SWAP2 PUSH2 0x2710 DUP4 MUL SWAP3 DUP1 DUP5 DIV PUSH2 0x2710 EQ SWAP1 ISZERO OR ISZERO PUSH2 0x660 JUMPI SWAP3 PUSH2 0x639 PUSH2 0x3204 SWAP4 PUSH2 0x62C PUSH2 0x64D SWAP5 PUSH1 0x1 SWAP8 POP DUP10 PUSH2 0x3BAC JUMP JUMPDEST SWAP4 SWAP1 PUSH2 0x31A9 JUMP JUMPDEST PUSH1 0x40 MLOAD PUSH3 0x461BCD PUSH1 0xE5 SHL DUP2 MSTORE PUSH1 0x20 PUSH1 0x4 DUP3 ADD MSTORE PUSH1 0x15 PUSH1 0x24 DUP3 ADD MSTORE PUSH21 0x13585E081CDB985C1CDA1BDD1CC81C995858DA1959 PUSH1 0x5A SHL PUSH1 0x44 DUP3 ADD MSTORE PUSH1 0x64 SWAP1 REVERT JUMPDEST CALLVALUE PUSH2 0x6B9 JUMPI PUSH1 0x0 CALLDATASIZE PUSH1 0x3 NOT ADD SLT PUSH2 0x6B9 JUMPI PUSH1 0x20 PUSH1 0x40 MLOAD PUSH3 0x93A80 DUP2 MSTORE RETURN JUMPDEST CALLVALUE PUSH2 0x6B9 JUMPI PUSH1 0x20 CALLDATASIZE PUSH1 0x3 NOT ADD SLT PUSH2 0x6B9 JUMPI PUSH2 0x327F PUSH2 0x3B26 JUMP JUMPDEST PUSH1 0x6 SLOAD PUSH1 0x78 DUP2 ADD DUP1 SWAP2 GT PUSH2 0x563 JUMPI TIMESTAMP LT PUSH2 0x32BB JUMPI PUSH1 0x1 PUSH1 0x1 PUSH1 0xA0 SHL SUB DUP2 AND PUSH1 0x0 SWAP1 DUP2 MSTORE PUSH1 0x7 PUSH1 0x20 MSTORE PUSH1 0x40 SWAP1 KECCAK256 SLOAD PUSH2 0x32B5 SWAP2 PUSH2 0x4BB3 JUMP JUMPDEST TIMESTAMP PUSH1 0x6 SSTORE STOP JUMPDEST PUSH1 0x40 MLOAD PUSH3 0x461BCD PUSH1 0xE5 SHL DUP2 MSTORE PUSH1 0x20 PUSH1 0x4 DUP3 ADD MSTORE PUSH1 0x17 PUSH1 0x24 DUP3 ADD MSTORE PUSH32 0x546F6F206561726C7920666F7220726562616C616E6365000000000000000000 PUSH1 0x44 DUP3 ADD MSTORE PUSH1 0x64 SWAP1 REVERT JUMPDEST CALLVALUE PUSH2 0x6B9 JUMPI PUSH1 0x20 CALLDATASIZE PUSH1 0x3 NOT ADD SLT PUSH2 0x6B9 JUMPI PUSH1 0x40 PUSH2 0x3323 PUSH2 0x331E PUSH2 0x3B26 JUMP JUMPDEST PUSH2 0x4335 JUMP JUMPDEST DUP3 MLOAD SWAP2 DUP3 MSTORE PUSH1 0x20 DUP3 ADD MSTORE RETURN JUMPDEST CALLVALUE PUSH2 0x6B9 JUMPI PUSH1 0x20 CALLDATASIZE PUSH1 0x3 NOT ADD SLT PUSH2 0x6B9 JUMPI PUSH1 0x4 CALLDATALOAD PUSH2 0x334B PUSH2 0x4954 JUMP JUMPDEST DUP1 ISZERO PUSH2 0x3468 JUMPI PUSH1 0xC SLOAD PUSH1 0x1 PUSH1 0x1 PUSH1 0xA0 SHL SUB AND DUP1 ISZERO PUSH2 0x342A JUMPI PUSH1 0x5 SLOAD PUSH1 0x40 MLOAD PUSH4 0x70A08231 PUSH1 0xE0 SHL DUP2 MSTORE ADDRESS PUSH1 0x4 DUP3 ADD MSTORE PUSH1 0x1 PUSH1 0x1 PUSH1 0xA0 SHL SUB SWAP1 SWAP2 AND SWAP2 PUSH1 0x20 DUP3 PUSH1 0x24 DUP2 DUP7 GAS STATICCALL DUP1 ISZERO PUSH2 0x13CC JUMPI DUP5 SWAP3 PUSH1 0x0 SWAP2 PUSH2 0x33F1 JUMPI JUMPDEST POP SWAP3 PUSH2 0x33AF DUP4 PUSH2 0x33B4 SWAP6 LT ISZERO PUSH2 0x42E9 JUMP JUMPDEST PUSH2 0x50F9 JUMP JUMPDEST PUSH32 0x5743C23AA18E9C7C385E45094156D20B8A0436DDC5E68943713E62CE630951A1 PUSH1 0x40 PUSH1 0x1 DUP1 PUSH1 0xA0 SHL SUB PUSH1 0xC SLOAD AND SWAP3 DUP2 MLOAD SWAP1 DUP2 MSTORE TIMESTAMP PUSH1 0x20 DUP3 ADD MSTORE LOG2 STOP JUMPDEST SWAP3 POP POP PUSH1 0x20 DUP3 RETURNDATASIZE PUSH1 0x20 GT PUSH2 0x3422 JUMPI JUMPDEST DUP2 PUSH2 0x340D PUSH1 0x20 SWAP4 DUP4 PUSH2 0x3FE4 JUMP JUMPDEST DUP2 ADD SUB SLT PUSH2 0x6B9 JUMPI SWAP1 MLOAD DUP4 SWAP2 SWAP1 PUSH2 0x33AF PUSH2 0x339E JUMP JUMPDEST RETURNDATASIZE SWAP2 POP PUSH2 0x3400 JUMP JUMPDEST PUSH1 0x40 MLOAD PUSH3 0x461BCD PUSH1 0xE5 SHL DUP2 MSTORE PUSH1 0x20 PUSH1 0x4 DUP3 ADD MSTORE PUSH1 0x16 PUSH1 0x24 DUP3 ADD MSTORE PUSH22 0x111156081859191C995CDCC81A5CC81B9BDD081CD95D PUSH1 0x52 SHL PUSH1 0x44 DUP3 ADD MSTORE PUSH1 0x64 SWAP1 REVERT JUMPDEST PUSH1 0x64 PUSH1 0x40 MLOAD PUSH3 0x461BCD PUSH1 0xE5 SHL DUP2 MSTORE PUSH1 0x20 PUSH1 0x4 DUP3 ADD MSTORE PUSH1 0x20 PUSH1 0x24 DUP3 ADD MSTORE PUSH32 0x416D6F756E74206D7573742062652067726561746572207468616E207A65726F PUSH1 0x44 DUP3 ADD MSTORE REVERT JUMPDEST CALLVALUE PUSH2 0x6B9 JUMPI PUSH1 0x40 CALLDATASIZE PUSH1 0x3 NOT ADD SLT PUSH2 0x6B9 JUMPI PUSH2 0x34C5 PUSH2 0x3B3C JUMP JUMPDEST CALLER PUSH1 0x1 PUSH1 0x1 PUSH1 0xA0 SHL SUB DUP3 AND SUB PUSH2 0x34E1 JUMPI PUSH2 0xF17 SWAP1 PUSH1 0x4 CALLDATALOAD PUSH2 0x5073 JUMP JUMPDEST PUSH4 0x334BD919 PUSH1 0xE1 SHL PUSH1 0x0 MSTORE PUSH1 0x4 PUSH1 0x0 REVERT JUMPDEST CALLVALUE PUSH2 0x6B9 JUMPI PUSH1 0x40 CALLDATASIZE PUSH1 0x3 NOT ADD SLT PUSH2 0x6B9 JUMPI PUSH2 0xF17 PUSH2 0x350E PUSH2 0x3B26 JUMP JUMPDEST PUSH2 0x3516 PUSH2 0x4954 JUMP JUMPDEST PUSH1 0x24 CALLDATALOAD SWAP1 PUSH2 0x405F JUMP JUMPDEST CALLVALUE PUSH2 0x6B9 JUMPI PUSH1 0x0 CALLDATASIZE PUSH1 0x3 NOT ADD SLT PUSH2 0x6B9 JUMPI PUSH1 0x20 PUSH1 0x40 MLOAD PUSH1 0x6 DUP2 MSTORE RETURN JUMPDEST CALLVALUE PUSH2 0x6B9 JUMPI PUSH1 0x0 CALLDATASIZE PUSH1 0x3 NOT ADD SLT PUSH2 0x6B9 JUMPI PUSH1 0x20 PUSH1 0x40 MLOAD PUSH2 0x3E8 DUP2 MSTORE RETURN JUMPDEST CALLVALUE PUSH2 0x6B9 JUMPI PUSH1 0x40 CALLDATASIZE PUSH1 0x3 NOT ADD SLT PUSH2 0x6B9 JUMPI PUSH2 0xF17 PUSH1 0x4 CALLDATALOAD PUSH2 0x3577 PUSH2 0x3B3C JUMP JUMPDEST SWAP1 PUSH2 0x3593 PUSH2 0xF0D DUP3 PUSH1 0x0 MSTORE PUSH1 0x1 PUSH1 0x20 MSTORE PUSH1 0x1 PUSH1 0x40 PUSH1 0x0 KECCAK256 ADD SLOAD SWAP1 JUMP JUMPDEST PUSH2 0x4AEA JUMP JUMPDEST CALLVALUE PUSH2 0x6B9 JUMPI PUSH1 0x0 CALLDATASIZE PUSH1 0x3 NOT ADD SLT PUSH2 0x6B9 JUMPI PUSH1 0x20 PUSH1 0x40 MLOAD PUSH1 0x0 DUP1 MLOAD PUSH1 0x20 PUSH2 0x57E3 DUP4 CODECOPY DUP2 MLOAD SWAP2 MSTORE DUP2 MSTORE RETURN JUMPDEST CALLVALUE PUSH2 0x6B9 JUMPI PUSH1 0x0 CALLDATASIZE PUSH1 0x3 NOT ADD SLT PUSH2 0x6B9 JUMPI PUSH1 0x20 PUSH1 0x40 MLOAD PUSH2 0xE10 DUP2 MSTORE RETURN JUMPDEST CALLVALUE PUSH2 0x6B9 JUMPI PUSH1 0x20 CALLDATASIZE PUSH1 0x3 NOT ADD SLT PUSH2 0x6B9 JUMPI PUSH1 0x20 PUSH2 0x360B PUSH1 0x4 CALLDATALOAD PUSH1 0x0 MSTORE PUSH1 0x1 PUSH1 0x20 MSTORE PUSH1 0x1 PUSH1 0x40 PUSH1 0x0 KECCAK256 ADD SLOAD SWAP1 JUMP JUMPDEST PUSH1 0x40 MLOAD SWAP1 DUP2 MSTORE RETURN JUMPDEST CALLVALUE PUSH2 0x6B9 JUMPI PUSH1 0x20 CALLDATASIZE PUSH1 0x3 NOT ADD SLT PUSH2 0x6B9 JUMPI PUSH1 0x4 CALLDATALOAD PUSH1 0x9 SLOAD DUP2 LT ISZERO PUSH2 0x6B9 JUMPI PUSH2 0x363C PUSH1 0x20 SWAP2 PUSH2 0x3B91 JUMP JUMPDEST SWAP1 SLOAD PUSH1 0x40 MLOAD PUSH1 0x3 SWAP3 SWAP1 SWAP3 SHL SHR PUSH1 0x1 PUSH1 0x1 PUSH1 0xA0 SHL SUB AND DUP2 MSTORE RETURN JUMPDEST CALLVALUE PUSH2 0x6B9 JUMPI PUSH1 0x20 CALLDATASIZE PUSH1 0x3 NOT ADD SLT PUSH2 0x6B9 JUMPI PUSH2 0x366E PUSH2 0x3B26 JUMP JUMPDEST PUSH2 0x3676 PUSH2 0x4954 JUMP JUMPDEST PUSH1 0x1 PUSH1 0x1 PUSH1 0xA0 SHL SUB AND PUSH1 0x0 DUP2 DUP2 MSTORE PUSH1 0xA PUSH1 0x20 MSTORE PUSH1 0x40 SWAP1 KECCAK256 SLOAD PUSH2 0x369A SWAP1 PUSH1 0xFF AND PUSH2 0x4006 JUMP JUMPDEST PUSH1 0x0 JUMPDEST PUSH1 0x9 SLOAD SWAP1 DUP2 DUP2 LT ISZERO PUSH2 0x37A1 JUMPI DUP3 PUSH2 0x36B3 DUP3 PUSH2 0x3B91 JUMP JUMPDEST SWAP1 SLOAD PUSH1 0x3 SWAP2 SWAP1 SWAP2 SHL SHR PUSH1 0x1 PUSH1 0x1 PUSH1 0xA0 SHL SUB AND EQ PUSH2 0x36D4 JUMPI PUSH1 0x1 SWAP2 POP ADD PUSH2 0x369D JUMP JUMPDEST PUSH1 0x0 NOT DUP3 ADD SWAP2 DUP3 GT PUSH2 0x563 JUMPI DUP2 DUP2 SUB PUSH2 0x3773 JUMPI JUMPDEST POP POP PUSH1 0x9 SLOAD DUP1 ISZERO PUSH2 0xA89 JUMPI PUSH1 0x0 NOT ADD PUSH2 0x3700 DUP2 PUSH2 0x3B91 JUMP JUMPDEST DUP2 SLOAD SWAP1 PUSH1 0x1 DUP1 PUSH1 0xA0 SHL SUB SWAP1 PUSH1 0x3 SHL SHL NOT AND SWAP1 SSTORE PUSH1 0x9 SSTORE JUMPDEST DUP1 PUSH1 0x0 MSTORE PUSH1 0xA PUSH1 0x20 MSTORE PUSH1 0x40 PUSH1 0x0 KECCAK256 PUSH1 0xFF NOT DUP2 SLOAD AND SWAP1 SSTORE PUSH1 0x0 DUP1 MLOAD PUSH1 0x20 PUSH2 0x5883 DUP4 CODECOPY DUP2 MLOAD SWAP2 MSTORE PUSH1 0xA0 PUSH1 0x40 MLOAD PUSH1 0x60 DUP2 MSTORE PUSH1 0xE PUSH1 0x60 DUP3 ADD MSTORE PUSH14 0x1C1BDBDB17DD5B9D1C9858DAD959 PUSH1 0x92 SHL PUSH1 0x80 DUP3 ADD MSTORE PUSH1 0x0 PUSH1 0x20 DUP3 ADD MSTORE TIMESTAMP PUSH1 0x40 DUP3 ADD MSTORE LOG2 STOP JUMPDEST PUSH2 0x171B PUSH2 0x3782 PUSH2 0x379A SWAP4 PUSH2 0x3B91 JUMP JUMPDEST SWAP1 SLOAD PUSH1 0x3 SWAP2 SWAP1 SWAP2 SHL SHR PUSH1 0x1 PUSH1 0x1 PUSH1 0xA0 SHL SUB AND SWAP2 PUSH2 0x3B91 JUMP JUMPDEST DUP2 DUP1 PUSH2 0x36E8 JUMP JUMPDEST POP POP PUSH2 0x3717 JUMP JUMPDEST CALLVALUE PUSH2 0x6B9 JUMPI PUSH1 0x20 CALLDATASIZE PUSH1 0x3 NOT ADD SLT PUSH2 0x6B9 JUMPI PUSH1 0x1 PUSH1 0x1 PUSH1 0xA0 SHL SUB PUSH2 0x37C9 PUSH2 0x3B26 JUMP JUMPDEST AND PUSH1 0x0 MSTORE PUSH1 0x4 PUSH1 0x20 MSTORE PUSH1 0x20 PUSH1 0x40 PUSH1 0x0 KECCAK256 SLOAD PUSH1 0x40 MLOAD SWAP1 DUP2 MSTORE RETURN JUMPDEST CALLVALUE PUSH2 0x6B9 JUMPI PUSH1 0x20 CALLDATASIZE PUSH1 0x3 NOT ADD SLT PUSH2 0x6B9 JUMPI PUSH2 0x37FB PUSH2 0x3B26 JUMP JUMPDEST PUSH1 0x40 DUP1 MLOAD PUSH4 0xFA67079 PUSH1 0xE2 SHL DUP2 MSTORE PUSH1 0x1 PUSH1 0x1 PUSH1 0xA0 SHL SUB SWAP1 SWAP3 AND PUSH1 0x4 DUP4 ADD MSTORE DUP2 PUSH1 0x24 DUP2 ADDRESS GAS STATICCALL DUP1 ISZERO PUSH2 0x13CC JUMPI PUSH1 0x0 SWAP1 DUP2 SWAP1 PUSH2 0x387E JUMPI JUMPDEST PUSH1 0x20 SWAP3 POP PUSH8 0x8AC7230489E80000 DUP3 LT ISZERO SWAP2 DUP3 PUSH2 0x3871 JUMPI JUMPDEST POP DUP2 PUSH2 0x385E JUMPI JUMPDEST DUP2 PUSH2 0x7FA JUMPI POP PUSH1 0x40 MLOAD SWAP1 ISZERO ISZERO DUP2 MSTORE RETURN JUMPDEST PUSH8 0x8AC7230489E80000 DUP2 LT ISZERO SWAP2 POP PUSH2 0x384E JUMP JUMPDEST PUSH1 0x10 SLOAD LT ISZERO SWAP2 POP DUP4 PUSH2 0x3847 JUMP JUMPDEST POP SWAP1 PUSH1 0x40 DUP2 RETURNDATASIZE PUSH1 0x40 GT PUSH2 0x38B4 JUMPI JUMPDEST DUP2 PUSH2 0x3899 PUSH1 0x40 SWAP4 DUP4 PUSH2 0x3FE4 JUMP JUMPDEST DUP2 ADD SUB SLT PUSH2 0x38B0 JUMPI PUSH1 0x20 DUP1 SWAP3 POP DUP2 MLOAD SWAP2 ADD MLOAD PUSH2 0x3830 JUMP JUMPDEST POP DUP1 REVERT JUMPDEST RETURNDATASIZE SWAP2 POP PUSH2 0x388C JUMP JUMPDEST CALLVALUE PUSH2 0x6B9 JUMPI PUSH1 0x0 CALLDATASIZE PUSH1 0x3 NOT ADD SLT PUSH2 0x6B9 JUMPI PUSH1 0x20 PUSH1 0x40 MLOAD PUSH8 0x4563918244F40000 DUP2 MSTORE RETURN JUMPDEST CALLVALUE PUSH2 0x6B9 JUMPI PUSH1 0x0 CALLDATASIZE PUSH1 0x3 NOT ADD SLT PUSH2 0x6B9 JUMPI PUSH1 0x20 PUSH1 0x40 MLOAD PUSH8 0x16345785D8A0000 DUP2 MSTORE RETURN JUMPDEST CALLVALUE PUSH2 0x6B9 JUMPI PUSH1 0x40 CALLDATASIZE PUSH1 0x3 NOT ADD SLT PUSH2 0x6B9 JUMPI PUSH1 0x20 PUSH2 0x360B PUSH1 0x24 CALLDATALOAD PUSH1 0x4 CALLDATALOAD PUSH2 0x3CEF JUMP JUMPDEST CALLVALUE PUSH2 0x6B9 JUMPI PUSH1 0x20 CALLDATASIZE PUSH1 0x3 NOT ADD SLT PUSH2 0x6B9 JUMPI PUSH1 0x4 CALLDATALOAD PUSH1 0x0 MSTORE PUSH1 0x16 PUSH1 0x20 MSTORE PUSH1 0xA0 PUSH1 0x40 PUSH1 0x0 KECCAK256 PUSH1 0x1 DUP1 DUP4 SHL SUB DUP2 SLOAD AND SWAP1 PUSH1 0x1 DUP2 ADD SLOAD SWAP1 PUSH1 0x2 DUP2 ADD SLOAD PUSH1 0x4 PUSH1 0x3 DUP4 ADD SLOAD SWAP3 ADD SLOAD SWAP3 PUSH1 0x40 MLOAD SWAP5 DUP6 MSTORE PUSH1 0x20 DUP6 ADD MSTORE PUSH1 0x40 DUP5 ADD MSTORE PUSH1 0x60 DUP4 ADD MSTORE PUSH1 0x80 DUP3 ADD MSTORE RETURN JUMPDEST CALLVALUE PUSH2 0x6B9 JUMPI PUSH1 0x20 CALLDATASIZE PUSH1 0x3 NOT ADD SLT PUSH2 0x6B9 JUMPI PUSH1 0x1 PUSH1 0x1 PUSH1 0xA0 SHL SUB PUSH2 0x39A3 PUSH2 0x3B26 JUMP JUMPDEST AND PUSH1 0x0 MSTORE PUSH1 0xB PUSH1 0x20 MSTORE PUSH1 0x40 PUSH1 0x0 KECCAK256 DUP1 SLOAD PUSH2 0xE20 PUSH1 0x2 PUSH1 0x1 DUP5 ADD SLOAD SWAP4 ADD SLOAD PUSH1 0x40 MLOAD SWAP4 DUP5 SWAP4 DUP5 PUSH1 0x40 SWAP2 SWAP5 SWAP4 SWAP3 PUSH1 0x60 DUP3 ADD SWAP6 DUP3 MSTORE PUSH1 0x20 DUP3 ADD MSTORE ADD MSTORE JUMP JUMPDEST CALLVALUE PUSH2 0x6B9 JUMPI PUSH1 0x20 CALLDATASIZE PUSH1 0x3 NOT ADD SLT PUSH2 0x6B9 JUMPI PUSH2 0x39F6 PUSH2 0x3B26 JUMP JUMPDEST PUSH2 0x39FE PUSH2 0x4954 JUMP JUMPDEST PUSH1 0x1 PUSH1 0x1 PUSH1 0xA0 SHL SUB AND PUSH1 0x0 DUP2 DUP2 MSTORE PUSH1 0x12 PUSH1 0x20 MSTORE PUSH1 0x40 SWAP1 KECCAK256 SLOAD PUSH1 0xFF AND ISZERO PUSH2 0x3A8E JUMPI DUP1 PUSH32 0x855511CC3694F64379908437D6D64458DC76D02482052BFB8A5B33A72C054C77 SWAP2 PUSH1 0x0 MSTORE PUSH1 0x12 PUSH1 0x20 MSTORE PUSH1 0x40 PUSH1 0x0 KECCAK256 PUSH1 0xFF NOT DUP2 SLOAD AND SWAP1 SSTORE PUSH1 0x0 DUP1 MLOAD PUSH1 0x20 PUSH2 0x5843 DUP4 CODECOPY DUP2 MLOAD SWAP2 MSTORE PUSH1 0x40 MLOAD DUP1 PUSH2 0x134D DUP2 PUSH1 0x60 SWAP1 PUSH1 0x20 DUP2 MSTORE PUSH1 0x6 PUSH1 0x20 DUP3 ADD MSTORE PUSH6 0x7265766F6B65 PUSH1 0xD0 SHL PUSH1 0x40 DUP3 ADD MSTORE ADD SWAP1 JUMP JUMPDEST PUSH1 0x40 MLOAD PUSH3 0x461BCD PUSH1 0xE5 SHL DUP2 MSTORE PUSH1 0x20 PUSH1 0x4 DUP3 ADD MSTORE PUSH1 0x17 PUSH1 0x24 DUP3 ADD MSTORE PUSH32 0x41646472657373206E6F742077686974656C6973746564000000000000000000 PUSH1 0x44 DUP3 ADD MSTORE PUSH1 0x64 SWAP1 REVERT JUMPDEST CALLVALUE PUSH2 0x6B9 JUMPI PUSH1 0x20 CALLDATASIZE PUSH1 0x3 NOT ADD SLT PUSH2 0x6B9 JUMPI PUSH1 0x4 CALLDATALOAD SWAP1 PUSH4 0xFFFFFFFF PUSH1 0xE0 SHL DUP3 AND DUP1 SWAP3 SUB PUSH2 0x6B9 JUMPI PUSH1 0x20 SWAP2 PUSH4 0x7965DB0B PUSH1 0xE0 SHL DUP2 EQ SWAP1 DUP2 ISZERO PUSH2 0x3B15 JUMPI JUMPDEST POP ISZERO ISZERO DUP2 MSTORE RETURN JUMPDEST PUSH4 0x1FFC9A7 PUSH1 0xE0 SHL EQ SWAP1 POP DUP4 PUSH2 0x3B0E JUMP JUMPDEST PUSH1 0x4 CALLDATALOAD SWAP1 PUSH1 0x1 PUSH1 0x1 PUSH1 0xA0 SHL SUB DUP3 AND DUP3 SUB PUSH2 0x6B9 JUMPI JUMP JUMPDEST PUSH1 0x24 CALLDATALOAD SWAP1 PUSH1 0x1 PUSH1 0x1 PUSH1 0xA0 SHL SUB DUP3 AND DUP3 SUB PUSH2 0x6B9 JUMPI JUMP JUMPDEST CALLVALUE PUSH2 0x6B9 JUMPI PUSH1 0x0 CALLDATASIZE PUSH1 0x3 NOT ADD SLT PUSH2 0x6B9 JUMPI PUSH1 0x20 PUSH1 0x40 MLOAD PUSH1 0x78 DUP2 MSTORE RETURN JUMPDEST CALLVALUE PUSH2 0x6B9 JUMPI PUSH1 0x0 CALLDATASIZE PUSH1 0x3 NOT ADD SLT PUSH2 0x6B9 JUMPI PUSH1 0x20 PUSH1 0x40 MLOAD PUSH8 0x8AC7230489E80000 DUP2 MSTORE RETURN JUMPDEST PUSH1 0x9 SLOAD DUP2 LT ISZERO PUSH2 0x10C7 JUMPI PUSH1 0x9 PUSH1 0x0 MSTORE PUSH1 0x20 PUSH1 0x0 KECCAK256 ADD SWAP1 PUSH1 0x0 SWAP1 JUMP JUMPDEST DUP1 SLOAD DUP3 LT ISZERO PUSH2 0x10C7 JUMPI PUSH1 0x0 MSTORE PUSH1 0x20 PUSH1 0x0 KECCAK256 ADD SWAP1 PUSH1 0x0 SWAP1 JUMP JUMPDEST PUSH1 0x60 SWAP1 PUSH1 0x3 NOT ADD SLT PUSH2 0x6B9 JUMPI PUSH1 0x4 CALLDATALOAD PUSH1 0x1 PUSH1 0x1 PUSH1 0xA0 SHL SUB DUP2 AND DUP2 SUB PUSH2 0x6B9 JUMPI SWAP1 PUSH1 0x24 CALLDATALOAD SWAP1 PUSH1 0x44 CALLDATALOAD SWAP1 JUMP JUMPDEST PUSH1 0x20 PUSH1 0x40 DUP2 DUP4 ADD SWAP3 DUP3 DUP2 MSTORE DUP5 MLOAD DUP1 SWAP5 MSTORE ADD SWAP3 ADD SWAP1 PUSH1 0x0 JUMPDEST DUP2 DUP2 LT PUSH2 0x3C12 JUMPI POP POP POP SWAP1 JUMP JUMPDEST DUP3 MLOAD PUSH1 0x1 PUSH1 0x1 PUSH1 0xA0 SHL SUB AND DUP5 MSTORE PUSH1 0x20 SWAP4 DUP5 ADD SWAP4 SWAP1 SWAP3 ADD SWAP2 PUSH1 0x1 ADD PUSH2 0x3C05 JUMP JUMPDEST CALLVALUE PUSH2 0x6B9 JUMPI PUSH1 0x0 CALLDATASIZE PUSH1 0x3 NOT ADD SLT PUSH2 0x6B9 JUMPI PUSH1 0x20 PUSH1 0x40 MLOAD PUSH8 0xDE0B6B3A7640000 DUP2 MSTORE RETURN JUMPDEST DUP1 SLOAD DUP3 LT ISZERO PUSH2 0x10C7 JUMPI PUSH1 0x0 MSTORE PUSH1 0x20 PUSH1 0x0 KECCAK256 SWAP1 PUSH1 0x1 SHL ADD SWAP1 PUSH1 0x0 SWAP1 JUMP JUMPDEST DUP2 DUP2 MUL SWAP3 SWAP2 DUP2 ISZERO SWAP2 DUP5 DIV EQ OR ISZERO PUSH2 0x563 JUMPI JUMP JUMPDEST DUP2 ISZERO PUSH2 0x3C8D JUMPI DIV SWAP1 JUMP JUMPDEST PUSH4 0x4E487B71 PUSH1 0xE0 SHL PUSH1 0x0 MSTORE PUSH1 0x12 PUSH1 0x4 MSTORE PUSH1 0x24 PUSH1 0x0 REVERT JUMPDEST ISZERO PUSH2 0x3CAA JUMPI JUMP JUMPDEST PUSH1 0x40 MLOAD PUSH3 0x461BCD PUSH1 0xE5 SHL DUP2 MSTORE PUSH1 0x20 PUSH1 0x4 DUP3 ADD MSTORE PUSH1 0x17 PUSH1 0x24 DUP3 ADD MSTORE PUSH32 0x4C69717569646974792062656C6F77206D696E696D756D000000000000000000 PUSH1 0x44 DUP3 ADD MSTORE PUSH1 0x64 SWAP1 REVERT JUMPDEST PUSH1 0x0 PUSH1 0x0 DUP1 MLOAD PUSH1 0x20 PUSH2 0x5903 DUP4 CODECOPY DUP2 MLOAD SWAP2 MSTORE PUSH1 0xC0 PUSH1 0x40 MLOAD PUSH1 0x60 DUP2 MSTORE PUSH1 0x25 PUSH1 0x60 DUP3 ADD MSTORE PUSH32 0x696E697469616C5F6C69717569646974795F63616C63756C6174696F6E5F7374 PUSH1 0x80 DUP3 ADD MSTORE PUSH5 0x185C9D1959 PUSH1 0xDA SHL PUSH1 0xA0 DUP3 ADD MSTORE DUP5 PUSH1 0x20 DUP3 ADD MSTORE DUP6 PUSH1 0x40 DUP3 ADD MSTORE LOG2 DUP1 ISZERO PUSH2 0x3F67 JUMPI DUP2 ISZERO PUSH2 0x3F2B JUMPI PUSH8 0x16345785D8A0000 DUP3 LT PUSH2 0x3EF0 JUMPI PUSH8 0x29A2241AF62C0000 DUP3 GT PUSH2 0x3EB5 JUMPI DUP2 PUSH1 0x0 NOT DIV DUP2 GT PUSH2 0x3E70 JUMPI DUP2 PUSH2 0x3D90 SWAP2 PUSH2 0x3C70 JUMP JUMPDEST SWAP1 PUSH1 0x10 SLOAD PUSH1 0x0 PUSH1 0x0 DUP1 MLOAD PUSH1 0x20 PUSH2 0x5903 DUP4 CODECOPY DUP2 MLOAD SWAP2 MSTORE PUSH1 0xA0 PUSH1 0x40 MLOAD PUSH1 0x60 DUP2 MSTORE PUSH1 0x11 PUSH1 0x60 DUP3 ADD MSTORE PUSH17 0x7072655F6361705F6C6971756964697479 PUSH1 0x78 SHL PUSH1 0x80 DUP3 ADD MSTORE DUP7 PUSH1 0x20 DUP3 ADD MSTORE DUP5 PUSH1 0x40 DUP3 ADD MSTORE LOG2 DUP1 DUP4 GT PUSH2 0x3E50 JUMPI POP PUSH1 0x0 DUP1 MLOAD PUSH1 0x20 PUSH2 0x5903 DUP4 CODECOPY DUP2 MLOAD SWAP2 MSTORE PUSH1 0xA0 PUSH1 0x0 SWAP3 PUSH2 0x3E0C PUSH8 0x8AC7230489E80000 DUP7 LT ISZERO PUSH2 0x3CA3 JUMP JUMPDEST PUSH1 0x40 MLOAD SWAP1 PUSH1 0x60 DUP3 MSTORE PUSH1 0x1A PUSH1 0x60 DUP4 ADD MSTORE PUSH32 0x66696E616C5F6C69717569646974795F63616C63756C61746564000000000000 PUSH1 0x80 DUP4 ADD MSTORE DUP6 PUSH1 0x20 DUP4 ADD MSTORE PUSH1 0x40 DUP3 ADD MSTORE LOG2 SWAP1 JUMP JUMPDEST SWAP2 POP POP PUSH1 0x0 PUSH1 0x0 DUP1 MLOAD PUSH1 0x20 PUSH2 0x5823 DUP4 CODECOPY DUP2 MLOAD SWAP2 MSTORE PUSH1 0x20 PUSH1 0x40 MLOAD DUP5 DUP2 MSTORE LOG2 SWAP1 JUMP JUMPDEST PUSH1 0x40 MLOAD PUSH3 0x461BCD PUSH1 0xE5 SHL DUP2 MSTORE PUSH1 0x20 PUSH1 0x4 DUP3 ADD MSTORE PUSH1 0x17 PUSH1 0x24 DUP3 ADD MSTORE PUSH32 0x4D756C7469706C69636174696F6E206F766572666C6F77000000000000000000 PUSH1 0x44 DUP3 ADD MSTORE PUSH1 0x64 SWAP1 REVERT JUMPDEST PUSH1 0x40 MLOAD PUSH3 0x461BCD PUSH1 0xE5 SHL DUP2 MSTORE PUSH1 0x20 PUSH1 0x4 DUP3 ADD MSTORE PUSH1 0x13 PUSH1 0x24 DUP3 ADD MSTORE PUSH19 0x50726963652061626F7665206D6178696D756D PUSH1 0x68 SHL PUSH1 0x44 DUP3 ADD MSTORE PUSH1 0x64 SWAP1 REVERT JUMPDEST PUSH1 0x40 MLOAD PUSH3 0x461BCD PUSH1 0xE5 SHL DUP2 MSTORE PUSH1 0x20 PUSH1 0x4 DUP3 ADD MSTORE PUSH1 0x13 PUSH1 0x24 DUP3 ADD MSTORE PUSH19 0x50726963652062656C6F77206D696E696D756D PUSH1 0x68 SHL PUSH1 0x44 DUP3 ADD MSTORE PUSH1 0x64 SWAP1 REVERT JUMPDEST PUSH1 0x40 MLOAD PUSH3 0x461BCD PUSH1 0xE5 SHL DUP2 MSTORE PUSH1 0x20 PUSH1 0x4 DUP3 ADD MSTORE PUSH1 0x14 PUSH1 0x24 DUP3 ADD MSTORE PUSH20 0x50726963652063616E6E6F74206265207A65726F PUSH1 0x60 SHL PUSH1 0x44 DUP3 ADD MSTORE PUSH1 0x64 SWAP1 REVERT JUMPDEST PUSH1 0x40 MLOAD PUSH3 0x461BCD PUSH1 0xE5 SHL DUP2 MSTORE PUSH1 0x20 PUSH1 0x4 DUP3 ADD MSTORE PUSH1 0x18 PUSH1 0x24 DUP3 ADD MSTORE PUSH32 0x496E76616C6964207375627363726962657220636F756E740000000000000000 PUSH1 0x44 DUP3 ADD MSTORE PUSH1 0x64 SWAP1 REVERT JUMPDEST PUSH1 0x40 DUP2 ADD SWAP1 DUP2 LT PUSH8 0xFFFFFFFFFFFFFFFF DUP3 GT OR PUSH2 0xA13 JUMPI PUSH1 0x40 MSTORE JUMP JUMPDEST PUSH1 0x60 DUP2 ADD SWAP1 DUP2 LT PUSH8 0xFFFFFFFFFFFFFFFF DUP3 GT OR PUSH2 0xA13 JUMPI PUSH1 0x40 MSTORE JUMP JUMPDEST SWAP1 PUSH1 0x1F DUP1 NOT SWAP2 ADD AND DUP2 ADD SWAP1 DUP2 LT PUSH8 0xFFFFFFFFFFFFFFFF DUP3 GT OR PUSH2 0xA13 JUMPI PUSH1 0x40 MSTORE JUMP JUMPDEST ISZERO PUSH2 0x400D JUMPI JUMP JUMPDEST PUSH1 0x40 MLOAD PUSH3 0x461BCD PUSH1 0xE5 SHL DUP2 MSTORE PUSH1 0x20 PUSH1 0x4 DUP3 ADD MSTORE PUSH1 0x10 PUSH1 0x24 DUP3 ADD MSTORE PUSH16 0x141BDBDB081B9BDD081D1C9858DAD959 PUSH1 0x82 SHL PUSH1 0x44 DUP3 ADD MSTORE PUSH1 0x64 SWAP1 REVERT JUMPDEST SWAP2 SWAP1 DUP3 SUB SWAP2 DUP3 GT PUSH2 0x563 JUMPI JUMP JUMPDEST SWAP2 SWAP1 DUP3 ADD DUP1 SWAP3 GT PUSH2 0x563 JUMPI JUMP JUMPDEST SWAP1 PUSH1 0x1 DUP1 PUSH1 0xA0 SHL SUB DUP3 AND SWAP1 DUP2 PUSH1 0x0 MSTORE PUSH1 0x7 PUSH1 0x20 MSTORE PUSH1 0x40 PUSH1 0x0 KECCAK256 SWAP2 PUSH1 0x1 DUP4 ADD DUP1 SLOAD SWAP4 PUSH1 0x3 DUP2 ADD SWAP1 DUP2 SLOAD SWAP1 DUP5 PUSH1 0x0 DUP1 MLOAD PUSH1 0x20 PUSH2 0x5903 DUP4 CODECOPY DUP2 MLOAD SWAP2 MSTORE PUSH1 0xA0 PUSH1 0x40 MLOAD PUSH1 0x60 DUP2 MSTORE PUSH1 0x19 PUSH1 0x60 DUP3 ADD MSTORE PUSH32 0x656E676167656D656E745F7570646174655F7374617274656400000000000000 PUSH1 0x80 DUP3 ADD MSTORE DUP10 PUSH1 0x20 DUP3 ADD MSTORE TIMESTAMP PUSH1 0x40 DUP3 ADD MSTORE LOG2 DUP2 ISZERO PUSH2 0x428B JUMPI PUSH1 0x50 DUP8 MUL DUP8 DUP2 DIV PUSH1 0x50 EQ DUP9 ISZERO OR ISZERO PUSH2 0x563 JUMPI PUSH1 0x14 DUP8 MUL SWAP1 DUP8 DUP3 DIV PUSH1 0x14 EQ DUP9 ISZERO OR ISZERO PUSH2 0x563 JUMPI PUSH1 0x64 DUP1 PUSH2 0x4115 SWAP4 DIV SWAP2 DIV PUSH2 0x4052 JUMP JUMPDEST SWAP7 DUP1 DUP9 GT ISZERO PUSH2 0x425D JUMPI PUSH2 0x4128 DUP2 DUP10 PUSH2 0x4045 JUMP JUMPDEST PUSH1 0x64 DUP2 MUL SWAP1 DUP1 DUP3 DIV PUSH1 0x64 EQ SWAP1 ISZERO OR ISZERO PUSH2 0x563 JUMPI DUP9 SWAP2 PUSH2 0x4146 SWAP2 PUSH2 0x3C83 JUMP JUMPDEST SWAP5 JUMPDEST DUP8 DUP4 SSTORE SSTORE PUSH1 0x2 TIMESTAMP SWAP2 ADD SSTORE PUSH1 0x1 DUP2 ADD DUP1 DUP3 GT PUSH2 0x563 JUMPI PUSH1 0x3 SWAP3 SSTORE DUP4 PUSH32 0xCA21C0666034043E35144E1A6964B4519A124330E0122463475F81A0C189D119 PUSH1 0x40 MLOAD DUP1 PUSH2 0x41A4 TIMESTAMP DUP12 DUP12 DUP5 PUSH1 0x40 SWAP2 SWAP5 SWAP4 SWAP3 PUSH1 0x60 DUP3 ADD SWAP6 DUP3 MSTORE PUSH1 0x20 DUP3 ADD MSTORE ADD MSTORE JUMP JUMPDEST SUB SWAP1 LOG2 LT ISZERO PUSH2 0x41B5 JUMPI JUMPDEST POP POP POP POP POP JUMP JUMPDEST PUSH1 0xA GT PUSH2 0x41F6 JUMPI POP PUSH1 0x6E DUP3 MUL DUP3 DUP2 DIV PUSH1 0x6E EQ DUP4 ISZERO OR ISZERO PUSH2 0x563 JUMPI PUSH1 0x64 SWAP1 DIV LT PUSH2 0x41E6 JUMPI JUMPDEST POP POP JUMPDEST CODESIZE DUP1 DUP1 DUP1 DUP1 PUSH2 0x41AE JUMP JUMPDEST PUSH2 0x41EF SWAP2 PUSH2 0x4BB3 JUMP JUMPDEST CODESIZE DUP1 PUSH2 0x41D9 JUMP JUMPDEST SWAP3 POP POP PUSH1 0x80 PUSH32 0x43C29E41362BCEAE5B8F10CF00D57C5B525A270A7FF263F5C6B24158459B0BBE SWAP2 PUSH1 0x40 MLOAD SWAP1 DUP2 MSTORE PUSH1 0x40 PUSH1 0x20 DUP3 ADD MSTORE PUSH1 0x1E PUSH1 0x40 DUP3 ADD MSTORE PUSH32 0x4368616E67652062656C6F77206D696E696D756D207468726573686F6C640000 PUSH1 0x60 DUP3 ADD MSTORE LOG2 PUSH2 0x41DC JUMP JUMPDEST PUSH2 0x4267 DUP9 DUP3 PUSH2 0x4045 JUMP JUMPDEST PUSH1 0x64 DUP2 MUL SWAP1 DUP1 DUP3 DIV PUSH1 0x64 EQ SWAP1 ISZERO OR ISZERO PUSH2 0x563 JUMPI DUP9 SWAP2 PUSH2 0x4285 SWAP2 PUSH2 0x3C83 JUMP JUMPDEST SWAP5 PUSH2 0x4148 JUMP JUMPDEST DUP6 DUP1 SWAP6 SWAP9 POP PUSH1 0x0 DUP1 MLOAD PUSH1 0x20 PUSH2 0x5883 DUP4 CODECOPY DUP2 MLOAD SWAP2 MSTORE SWAP8 POP PUSH1 0xA0 SWAP7 SWAP3 POP PUSH1 0x1 SWAP5 SWAP2 SSTORE SSTORE SSTORE PUSH1 0x40 MLOAD SWAP1 PUSH1 0x60 DUP3 MSTORE PUSH1 0x16 PUSH1 0x60 DUP4 ADD MSTORE PUSH22 0x195B99D859D95B595B9D17DA5B9A5D1A585B1A5E9959 PUSH1 0x52 SHL PUSH1 0x80 DUP4 ADD MSTORE PUSH1 0x20 DUP3 ADD MSTORE TIMESTAMP PUSH1 0x40 DUP3 ADD MSTORE LOG2 JUMP JUMPDEST ISZERO PUSH2 0x42F0 JUMPI JUMP JUMPDEST PUSH1 0x40 MLOAD PUSH3 0x461BCD PUSH1 0xE5 SHL DUP2 MSTORE PUSH1 0x20 PUSH1 0x4 DUP3 ADD MSTORE PUSH1 0x1A PUSH1 0x24 DUP3 ADD MSTORE PUSH32 0x496E73756666696369656E7420434F52414C2062616C616E6365000000000000 PUSH1 0x44 DUP3 ADD MSTORE PUSH1 0x64 SWAP1 REVERT JUMPDEST PUSH1 0x1 PUSH1 0x1 PUSH1 0xA0 SHL SUB AND SWAP1 DUP2 ISZERO PUSH2 0x4385 JUMPI DUP2 PUSH1 0x0 MSTORE PUSH1 0xA PUSH1 0x20 MSTORE PUSH1 0xFF PUSH1 0x40 PUSH1 0x0 KECCAK256 SLOAD AND ISZERO PUSH2 0x437D JUMPI DUP2 PUSH1 0x0 MSTORE PUSH1 0x2 PUSH1 0x20 MSTORE PUSH1 0x40 PUSH1 0x0 KECCAK256 SLOAD SWAP2 PUSH1 0x0 MSTORE PUSH1 0x3 PUSH1 0x20 MSTORE PUSH1 0x40 PUSH1 0x0 KECCAK256 SLOAD SWAP1 JUMP JUMPDEST PUSH1 0x0 SWAP2 POP DUP2 SWAP1 JUMP JUMPDEST PUSH1 0x40 MLOAD PUSH3 0x461BCD PUSH1 0xE5 SHL DUP2 MSTORE PUSH1 0x20 PUSH1 0x4 DUP3 ADD MSTORE PUSH1 0x1D PUSH1 0x24 DUP3 ADD MSTORE PUSH32 0x496E76616C69642063726561746F7220746F6B656E2061646472657373000000 PUSH1 0x44 DUP3 ADD MSTORE PUSH1 0x64 SWAP1 REVERT JUMPDEST ISZERO PUSH2 0x43D1 JUMPI JUMP JUMPDEST PUSH1 0x40 MLOAD PUSH3 0x461BCD PUSH1 0xE5 SHL DUP2 MSTORE PUSH1 0x20 PUSH1 0x4 DUP3 ADD MSTORE PUSH1 0x10 PUSH1 0x24 DUP3 ADD MSTORE PUSH16 0x4E6F7420696E20646973636F76657279 PUSH1 0x80 SHL PUSH1 0x44 DUP3 ADD MSTORE PUSH1 0x64 SWAP1 REVERT JUMPDEST ISZERO PUSH2 0x4410 JUMPI JUMP JUMPDEST PUSH1 0x40 MLOAD PUSH3 0x461BCD PUSH1 0xE5 SHL DUP2 MSTORE PUSH1 0x20 PUSH1 0x4 DUP3 ADD MSTORE PUSH1 0x1C PUSH1 0x24 DUP3 ADD MSTORE PUSH32 0x507269636520646973636F76657279206E6F7420636F6D706C65746500000000 PUSH1 0x44 DUP3 ADD MSTORE PUSH1 0x64 SWAP1 REVERT JUMPDEST PUSH1 0x60 DUP1 DUP3 MSTORE PUSH1 0x9 SWAP1 DUP3 ADD MSTORE PUSH9 0x18DBDB5C1B195D1959 PUSH1 0xBA SHL PUSH1 0x80 DUP3 ADD MSTORE SWAP1 SWAP3 SWAP2 SWAP1 PUSH1 0x40 SWAP1 PUSH1 0xA0 DUP2 ADD SWAP5 PUSH1 0x20 DUP3 ADD MSTORE ADD MSTORE JUMP JUMPDEST ISZERO PUSH2 0x448E JUMPI JUMP JUMPDEST PUSH1 0x40 MLOAD PUSH3 0x461BCD PUSH1 0xE5 SHL DUP2 MSTORE PUSH1 0x20 PUSH1 0x4 DUP3 ADD MSTORE PUSH1 0xF PUSH1 0x24 DUP3 ADD MSTORE PUSH15 0x496E76616C69642061646472657373 PUSH1 0x88 SHL PUSH1 0x44 DUP3 ADD MSTORE PUSH1 0x64 SWAP1 REVERT JUMPDEST ISZERO PUSH2 0x44CC JUMPI JUMP JUMPDEST PUSH1 0x40 MLOAD PUSH3 0x461BCD PUSH1 0xE5 SHL DUP2 MSTORE PUSH1 0x20 PUSH1 0x4 DUP3 ADD MSTORE PUSH1 0x13 PUSH1 0x24 DUP3 ADD MSTORE PUSH19 0x82D8E4CAC2C8F240E0E4D2DAC2E4F240888AB PUSH1 0x6B SHL PUSH1 0x44 DUP3 ADD MSTORE PUSH1 0x64 SWAP1 REVERT JUMPDEST PUSH8 0xFFFFFFFFFFFFFFFF DUP2 GT PUSH2 0xA13 JUMPI PUSH1 0x5 SHL PUSH1 0x20 ADD SWAP1 JUMP JUMPDEST PUSH1 0x1 PUSH1 0x1 PUSH1 0xA0 SHL SUB AND PUSH1 0x0 SWAP1 DUP2 MSTORE PUSH1 0xB PUSH1 0x20 MSTORE PUSH1 0x40 SWAP1 KECCAK256 DUP1 SLOAD DUP1 ISZERO SWAP1 DUP2 ISZERO PUSH2 0x4560 JUMPI JUMPDEST POP PUSH2 0x455A JUMPI PUSH1 0x1 PUSH8 0x8AC7230489E80000 SWAP2 ADD SLOAD LT ISZERO SWAP1 JUMP JUMPDEST POP PUSH1 0x0 SWAP1 JUMP JUMPDEST SWAP1 POP PUSH3 0x93A80 DUP2 ADD DUP1 SWAP2 GT PUSH2 0x563 JUMPI TIMESTAMP GT CODESIZE PUSH2 0x4542 JUMP JUMPDEST ISZERO PUSH2 0x457E JUMPI JUMP JUMPDEST PUSH1 0x40 MLOAD PUSH3 0x461BCD PUSH1 0xE5 SHL DUP2 MSTORE PUSH1 0x20 PUSH1 0x4 DUP3 ADD MSTORE PUSH1 0x1C PUSH1 0x24 DUP3 ADD MSTORE PUSH32 0x43616C6C6572206973206E6F7420617574686F72697A65642044455800000000 PUSH1 0x44 DUP3 ADD MSTORE PUSH1 0x64 SWAP1 REVERT JUMPDEST ISZERO PUSH2 0x45CB JUMPI POP JUMP JUMPDEST PUSH1 0x40 MLOAD SWAP1 PUSH3 0x461BCD PUSH1 0xE5 SHL DUP3 MSTORE PUSH1 0x20 PUSH1 0x4 DUP4 ADD MSTORE DUP2 DUP2 MLOAD SWAP2 DUP3 PUSH1 0x24 DUP4 ADD MSTORE PUSH1 0x0 JUMPDEST DUP4 DUP2 LT PUSH2 0x460E JUMPI POP POP DUP2 PUSH1 0x0 PUSH1 0x44 DUP1 SWAP5 DUP5 ADD ADD MSTORE PUSH1 0x1F DUP1 NOT SWAP2 ADD AND DUP2 ADD SUB ADD SWAP1 REVERT JUMPDEST PUSH1 0x20 DUP3 DUP3 ADD DUP2 ADD MLOAD PUSH1 0x44 DUP8 DUP5 ADD ADD MSTORE DUP6 SWAP4 POP ADD PUSH2 0x45EC JUMP JUMPDEST PUSH1 0x1 DUP1 PUSH1 0xA0 SHL SUB AND PUSH1 0x1 DUP1 PUSH1 0xA0 SHL SUB DUP3 AND SWAP2 DUP3 DUP3 PUSH1 0x0 DUP1 MLOAD PUSH1 0x20 PUSH2 0x58A3 DUP4 CODECOPY DUP2 MLOAD SWAP2 MSTORE PUSH1 0x80 PUSH1 0x40 MLOAD PUSH1 0x40 DUP2 MSTORE PUSH1 0x8 PUSH1 0x40 DUP3 ADD MSTORE PUSH8 0x72656465706C6F79 PUSH1 0xC0 SHL PUSH1 0x60 DUP3 ADD MSTORE PUSH1 0x0 PUSH1 0x20 DUP3 ADD MSTORE LOG3 DUP2 PUSH1 0x0 MSTORE PUSH1 0x4 PUSH1 0x20 MSTORE PUSH1 0x40 PUSH1 0x0 KECCAK256 SLOAD SWAP1 DUP2 ISZERO PUSH2 0x48EB JUMPI PUSH8 0x4563918244F40000 DUP3 LT PUSH2 0x4887 JUMPI PUSH1 0x40 MLOAD PUSH4 0x70A08231 PUSH1 0xE0 SHL DUP2 MSTORE ADDRESS PUSH1 0x4 DUP3 ADD MSTORE PUSH1 0x20 DUP2 PUSH1 0x24 DUP2 DUP8 GAS STATICCALL DUP1 ISZERO PUSH2 0x13CC JUMPI DUP4 SWAP2 PUSH1 0x0 SWAP2 PUSH2 0x4852 JUMPI JUMPDEST POP DUP5 PUSH1 0x0 DUP1 MLOAD PUSH1 0x20 PUSH2 0x5803 DUP4 CODECOPY DUP2 MLOAD SWAP2 MSTORE PUSH1 0x60 PUSH1 0x40 MLOAD DUP5 DUP2 MSTORE DUP6 PUSH1 0x20 DUP3 ADD MSTORE PUSH1 0x0 PUSH1 0x40 DUP3 ADD MSTORE LOG2 LT PUSH2 0x47E3 JUMPI PUSH1 0x0 DUP4 DUP2 MSTORE PUSH1 0x4 PUSH1 0x20 MSTORE PUSH1 0x40 DUP2 KECCAK256 SSTORE PUSH1 0x5 SLOAD PUSH1 0x0 DUP1 MLOAD PUSH1 0x20 PUSH2 0x58A3 DUP4 CODECOPY DUP2 MLOAD SWAP2 MSTORE SWAP3 PUSH2 0x47A3 SWAP3 SWAP1 SWAP2 DUP3 SWAP1 PUSH1 0x1 PUSH1 0x1 PUSH1 0xA0 SHL SUB AND DUP7 SUB PUSH2 0x47A8 JUMPI PUSH2 0x4745 SWAP2 DUP8 PUSH1 0x0 MSTORE PUSH1 0x3 PUSH1 0x20 MSTORE PUSH1 0x40 PUSH1 0x0 KECCAK256 PUSH2 0x1327 DUP4 DUP3 SLOAD PUSH2 0x4052 JUMP JUMPDEST DUP5 DUP5 PUSH32 0xA2E59056A8017237DD27A52D5981FB4983F1A43828D018D9BA6E76C801FE9059 PUSH1 0x20 PUSH1 0x40 MLOAD DUP6 DUP2 MSTORE LOG3 JUMPDEST PUSH1 0x40 MLOAD SWAP2 DUP3 SWAP2 DUP3 PUSH1 0x40 DUP1 DUP3 MSTORE PUSH1 0x9 SWAP1 DUP3 ADD MSTORE PUSH9 0x18DBDB5C1B195D1959 PUSH1 0xBA SHL PUSH1 0x60 DUP3 ADD MSTORE SWAP2 SWAP1 PUSH1 0x20 PUSH1 0x80 DUP5 ADD SWAP4 ADD MSTORE JUMP JUMPDEST SUB SWAP1 LOG3 JUMP JUMPDEST PUSH2 0x47B2 SWAP2 DUP7 PUSH2 0x50F9 JUMP JUMPDEST DUP5 DUP5 PUSH32 0xA2E59056A8017237DD27A52D5981FB4983F1A43828D018D9BA6E76C801FE9059 PUSH1 0x20 PUSH1 0x40 MLOAD DUP6 DUP2 MSTORE LOG3 PUSH2 0x4772 JUMP JUMPDEST POP PUSH32 0x4A74CCB009FE8E58C74ACBB8E4EBA7F17F113CC4A42830E287CB344E283B3872 SWAP2 POP PUSH1 0x40 MLOAD SWAP1 DUP2 MSTORE PUSH1 0x40 PUSH1 0x20 DUP3 ADD MSTORE DUP1 PUSH2 0x484D PUSH1 0x40 DUP3 ADD PUSH1 0x40 SWAP1 PUSH1 0x1D DUP2 MSTORE PUSH32 0x496E73756666696369656E7420636F6E74726163742062616C616E6365000000 PUSH1 0x20 DUP3 ADD MSTORE ADD SWAP1 JUMP JUMPDEST SUB SWAP1 LOG2 JUMP JUMPDEST SWAP2 POP PUSH1 0x20 DUP3 RETURNDATASIZE PUSH1 0x20 GT PUSH2 0x487F JUMPI JUMPDEST DUP2 PUSH2 0x486D PUSH1 0x20 SWAP4 DUP4 PUSH2 0x3FE4 JUMP JUMPDEST DUP2 ADD SUB SLT PUSH2 0x1A8D JUMPI POP DUP3 SWAP1 MLOAD CODESIZE PUSH2 0x46C3 JUMP JUMPDEST RETURNDATASIZE SWAP2 POP PUSH2 0x4860 JUMP JUMPDEST POP PUSH32 0x4A74CCB009FE8E58C74ACBB8E4EBA7F17F113CC4A42830E287CB344E283B3872 SWAP2 POP PUSH1 0x80 SWAP1 PUSH1 0x40 MLOAD SWAP1 DUP2 MSTORE PUSH1 0x40 PUSH1 0x20 DUP3 ADD MSTORE PUSH1 0x1B PUSH1 0x40 DUP3 ADD MSTORE PUSH32 0x42656C6F77206D696E696D756D20666565207468726573686F6C640000000000 PUSH1 0x60 DUP3 ADD MSTORE LOG2 JUMP JUMPDEST POP PUSH32 0x4A74CCB009FE8E58C74ACBB8E4EBA7F17F113CC4A42830E287CB344E283B3872 SWAP2 POP PUSH1 0x80 SWAP1 PUSH1 0x40 MLOAD SWAP1 DUP2 MSTORE PUSH1 0x40 PUSH1 0x20 DUP3 ADD MSTORE PUSH1 0x13 PUSH1 0x40 DUP3 ADD MSTORE PUSH19 0x4E6F206665657320746F2072656465706C6F79 PUSH1 0x68 SHL PUSH1 0x60 DUP3 ADD MSTORE LOG2 JUMP JUMPDEST PUSH1 0x0 NOT DUP2 EQ PUSH2 0x563 JUMPI PUSH1 0x1 ADD SWAP1 JUMP JUMPDEST PUSH1 0x0 SLOAD PUSH1 0x1 PUSH1 0x1 PUSH1 0xA0 SHL SUB AND CALLER SUB PUSH2 0x4968 JUMPI JUMP JUMPDEST PUSH4 0x118CDAA7 PUSH1 0xE0 SHL PUSH1 0x0 MSTORE CALLER PUSH1 0x4 MSTORE PUSH1 0x24 PUSH1 0x0 REVERT JUMPDEST PUSH1 0x0 DUP2 DUP2 MSTORE PUSH1 0x1 PUSH1 0x20 SWAP1 DUP2 MSTORE PUSH1 0x40 DUP1 DUP4 KECCAK256 CALLER DUP5 MSTORE SWAP1 SWAP2 MSTORE SWAP1 KECCAK256 SLOAD PUSH1 0xFF AND ISZERO PUSH2 0x49A2 JUMPI POP JUMP JUMPDEST PUSH4 0xE2517D3F PUSH1 0xE0 SHL PUSH1 0x0 MSTORE CALLER PUSH1 0x4 MSTORE PUSH1 0x24 MSTORE PUSH1 0x44 PUSH1 0x0 REVERT JUMPDEST PUSH1 0x1 PUSH1 0x1 PUSH1 0xA0 SHL SUB DUP2 AND PUSH1 0x0 SWAP1 DUP2 MSTORE PUSH1 0x0 DUP1 MLOAD PUSH1 0x20 PUSH2 0x5863 DUP4 CODECOPY DUP2 MLOAD SWAP2 MSTORE PUSH1 0x20 MSTORE PUSH1 0x40 SWAP1 KECCAK256 SLOAD PUSH1 0xFF AND PUSH2 0x455A JUMPI PUSH1 0x1 PUSH1 0x1 PUSH1 0xA0 SHL SUB AND PUSH1 0x0 DUP2 DUP2 MSTORE PUSH1 0x0 DUP1 MLOAD PUSH1 0x20 PUSH2 0x5863 DUP4 CODECOPY DUP2 MLOAD SWAP2 MSTORE PUSH1 0x20 MSTORE PUSH1 0x40 DUP2 KECCAK256 DUP1 SLOAD PUSH1 0xFF NOT AND PUSH1 0x1 OR SWAP1 SSTORE CALLER SWAP2 SWAP1 PUSH1 0x0 DUP1 MLOAD PUSH1 0x20 PUSH2 0x58C3 DUP4 CODECOPY DUP2 MLOAD SWAP2 MSTORE SWAP1 PUSH32 0x2F8788117E7EFF1D82E926EC794901D17C78024A50270940304540A733656F0D SWAP1 DUP1 LOG4 PUSH1 0x1 SWAP1 JUMP JUMPDEST PUSH1 0x1 PUSH1 0x1 PUSH1 0xA0 SHL SUB DUP2 AND PUSH1 0x0 SWAP1 DUP2 MSTORE PUSH1 0x0 DUP1 MLOAD PUSH1 0x20 PUSH2 0x58E3 DUP4 CODECOPY DUP2 MLOAD SWAP2 MSTORE PUSH1 0x20 MSTORE PUSH1 0x40 SWAP1 KECCAK256 SLOAD PUSH1 0xFF AND PUSH2 0x455A JUMPI PUSH1 0x1 PUSH1 0x1 PUSH1 0xA0 SHL SUB AND PUSH1 0x0 DUP2 DUP2 MSTORE PUSH1 0x0 DUP1 MLOAD PUSH1 0x20 PUSH2 0x58E3 DUP4 CODECOPY DUP2 MLOAD SWAP2 MSTORE PUSH1 0x20 MSTORE PUSH1 0x40 DUP2 KECCAK256 DUP1 SLOAD PUSH1 0xFF NOT AND PUSH1 0x1 OR SWAP1 SSTORE CALLER SWAP2 SWAP1 PUSH1 0x0 DUP1 MLOAD PUSH1 0x20 PUSH2 0x57E3 DUP4 CODECOPY DUP2 MLOAD SWAP2 MSTORE SWAP1 PUSH32 0x2F8788117E7EFF1D82E926EC794901D17C78024A50270940304540A733656F0D SWAP1 DUP1 LOG4 PUSH1 0x1 SWAP1 JUMP JUMPDEST PUSH1 0x0 DUP2 DUP2 MSTORE PUSH1 0x1 PUSH1 0x20 SWAP1 DUP2 MSTORE PUSH1 0x40 DUP1 DUP4 KECCAK256 PUSH1 0x1 PUSH1 0x1 PUSH1 0xA0 SHL SUB DUP7 AND DUP5 MSTORE SWAP1 SWAP2 MSTORE SWAP1 KECCAK256 SLOAD PUSH1 0xFF AND PUSH2 0x4B72 JUMPI PUSH1 0x0 DUP2 DUP2 MSTORE PUSH1 0x1 PUSH1 0x20 DUP2 DUP2 MSTORE PUSH1 0x40 DUP1 DUP5 KECCAK256 PUSH1 0x1 PUSH1 0x1 PUSH1 0xA0 SHL SUB SWAP7 SWAP1 SWAP7 AND DUP1 DUP6 MSTORE SWAP6 SWAP1 SWAP2 MSTORE DUP3 KECCAK256 DUP1 SLOAD PUSH1 0xFF NOT AND SWAP1 SWAP2 OR SWAP1 SSTORE CALLER SWAP3 SWAP2 SWAP1 PUSH32 0x2F8788117E7EFF1D82E926EC794901D17C78024A50270940304540A733656F0D SWAP1 DUP1 LOG4 PUSH1 0x1 SWAP1 JUMP JUMPDEST POP POP PUSH1 0x0 SWAP1 JUMP JUMPDEST SWAP1 SWAP2 PUSH1 0xA0 SWAP3 DUP3 MSTORE PUSH1 0x20 DUP3 ADD MSTORE PUSH1 0x60 PUSH1 0x40 DUP3 ADD MSTORE PUSH1 0x13 PUSH1 0x60 DUP3 ADD MSTORE PUSH19 0x149958985B185B98D94818DBDB5C1B195D1959 PUSH1 0x6A SHL PUSH1 0x80 DUP3 ADD MSTORE ADD SWAP1 JUMP JUMPDEST PUSH1 0x1 PUSH1 0x1 PUSH1 0xA0 SHL SUB AND PUSH1 0x0 DUP2 DUP2 MSTORE PUSH1 0x3 PUSH1 0x20 MSTORE PUSH1 0x40 SWAP1 DUP2 SWAP1 KECCAK256 SLOAD SWAP1 MLOAD SWAP2 SWAP3 SWAP2 DUP4 SWAP2 PUSH32 0xD5FBF25FB569FBAA4F45320BE0052DE918D607298A2A5158579A543C3682C116 SWAP2 SWAP1 DUP2 SWAP1 PUSH2 0x4C04 SWAP1 DUP1 DUP4 PUSH2 0x4B79 JUMP JUMPDEST SUB SWAP1 LOG2 DUP2 PUSH1 0x0 MSTORE PUSH1 0x3 PUSH1 0x20 MSTORE PUSH8 0x8AC7230489E80000 PUSH1 0x40 PUSH1 0x0 KECCAK256 SLOAD LT PUSH2 0x4EDE JUMPI PUSH25 0x12725DD1D243ABA0E75FE645CC4873F9E65AFE688C928E1F21 DUP2 GT PUSH2 0x4E8A JUMPI PUSH8 0xDE0B6B3A7640000 DUP2 MUL SWAP1 DUP1 DUP3 DIV PUSH8 0xDE0B6B3A7640000 EQ SWAP1 ISZERO OR ISZERO PUSH2 0x563 JUMPI DUP1 DUP3 SWAP2 SWAP1 DUP3 PUSH32 0x78500306B159D266ECDCD5D7767D0B781932A0896E6DE6539EE693A704583B5 PUSH1 0x60 PUSH1 0x40 MLOAD PUSH8 0x8AC7230489E80000 DUP2 MSTORE PUSH8 0xD02AB486CEDC0000 PUSH1 0x20 DUP3 ADD MSTORE DUP5 PUSH1 0x40 DUP3 ADD MSTORE LOG2 PUSH8 0xD02AB486CEDC0000 DUP2 LT PUSH2 0x4DEB JUMPI JUMPDEST POP PUSH32 0xD5FBF25FB569FBAA4F45320BE0052DE918D607298A2A5158579A543C3682C116 SWAP2 POP PUSH1 0x10 SLOAD DUP1 DUP3 GT PUSH2 0x4DC9 JUMPI JUMPDEST POP DUP3 PUSH1 0x0 MSTORE PUSH1 0x3 PUSH1 0x20 MSTORE DUP3 PUSH1 0x0 DUP1 MLOAD PUSH1 0x20 PUSH2 0x5903 DUP4 CODECOPY DUP2 MLOAD SWAP2 MSTORE PUSH1 0xA0 PUSH1 0x40 PUSH1 0x0 KECCAK256 SLOAD PUSH1 0x40 MLOAD SWAP1 PUSH1 0x60 DUP3 MSTORE PUSH1 0x10 PUSH1 0x60 DUP4 ADD MSTORE PUSH16 0x7072655F7570646174655F7374617465 PUSH1 0x80 SHL PUSH1 0x80 DUP4 ADD MSTORE PUSH1 0x20 DUP3 ADD MSTORE DUP5 PUSH1 0x40 DUP3 ADD MSTORE LOG2 PUSH1 0x0 DUP4 DUP2 MSTORE PUSH1 0x3 PUSH1 0x20 DUP2 DUP2 MSTORE PUSH1 0x40 DUP1 DUP5 KECCAK256 DUP1 SLOAD SWAP1 DUP7 SWAP1 SSTORE PUSH1 0x2 DUP4 MSTORE SWAP4 DUP2 SWAP1 KECCAK256 SLOAD SWAP3 DUP3 MSTORE PUSH1 0x10 SLOAD DUP2 MLOAD SWAP4 DUP5 MSTORE SWAP2 DUP4 ADD DUP6 SWAP1 MSTORE DUP3 ADD MSTORE DUP5 SWAP1 PUSH1 0x0 DUP1 MLOAD PUSH1 0x20 PUSH2 0x5803 DUP4 CODECOPY DUP2 MLOAD SWAP2 MSTORE SWAP1 PUSH1 0x60 SWAP1 LOG2 DUP4 PUSH32 0x8EB665708D1CBFA2DF196D5F041BC00AC33E9C6E0B42B64233AED0C7C84DA7E1 PUSH1 0x20 PUSH1 0x40 MLOAD DUP6 DUP2 MSTORE LOG2 PUSH2 0x484D PUSH1 0x40 MLOAD SWAP3 DUP4 SWAP3 DUP4 PUSH2 0x4B79 JUMP JUMPDEST SWAP1 POP DUP3 PUSH1 0x0 DUP1 MLOAD PUSH1 0x20 PUSH2 0x5823 DUP4 CODECOPY DUP2 MLOAD SWAP2 MSTORE PUSH1 0x20 DUP4 PUSH1 0x40 MLOAD SWAP1 DUP2 MSTORE LOG2 CODESIZE PUSH2 0x4CEF JUMP JUMPDEST PUSH32 0xF8F759EF15AE76BCAED46EE5FF4930CD73C55EBE7FEAE9F2F95E93E15765C8CF SWAP2 POP PUSH1 0xA0 SWAP1 PUSH1 0x40 MLOAD SWAP1 DUP2 MSTORE PUSH8 0xD02AB486CEDC0000 PUSH1 0x20 DUP3 ADD MSTORE PUSH1 0x60 PUSH1 0x40 DUP3 ADD MSTORE PUSH1 0x17 PUSH1 0x60 DUP3 ADD MSTORE PUSH32 0x456E666F7263696E672073616665747920627566666572000000000000000000 PUSH1 0x80 DUP3 ADD MSTORE LOG2 DUP1 PUSH8 0xD02AB486CEDC0000 PUSH32 0xD5FBF25FB569FBAA4F45320BE0052DE918D607298A2A5158579A543C3682C116 PUSH2 0x4CC0 JUMP JUMPDEST PUSH1 0x40 MLOAD PUSH3 0x461BCD PUSH1 0xE5 SHL DUP2 MSTORE PUSH1 0x20 PUSH1 0x4 DUP3 ADD MSTORE PUSH1 0x26 PUSH1 0x24 DUP3 ADD MSTORE PUSH32 0x4F766572666C6F77207269736B20696E206C69717569646974792063616C6375 PUSH1 0x44 DUP3 ADD MSTORE PUSH6 0x3630BA34B7B7 PUSH1 0xD1 SHL PUSH1 0x64 DUP3 ADD MSTORE PUSH1 0x84 SWAP1 REVERT JUMPDEST POP DUP1 PUSH1 0x0 MSTORE PUSH1 0x3 PUSH1 0x20 MSTORE PUSH32 0x43C29E41362BCEAE5B8F10CF00D57C5B525A270A7FF263F5C6B24158459B0BBE PUSH1 0x80 PUSH1 0x40 PUSH1 0x0 KECCAK256 SLOAD PUSH1 0x40 MLOAD SWAP1 DUP2 MSTORE PUSH1 0x40 PUSH1 0x20 DUP3 ADD MSTORE PUSH1 0x16 PUSH1 0x40 DUP3 ADD MSTORE PUSH22 0x496E73756666696369656E74206C6971756964697479 PUSH1 0x50 SHL PUSH1 0x60 DUP3 ADD MSTORE LOG2 JUMP JUMPDEST PUSH1 0x1 PUSH1 0x1 PUSH1 0xA0 SHL SUB DUP2 AND PUSH1 0x0 SWAP1 DUP2 MSTORE PUSH1 0x0 DUP1 MLOAD PUSH1 0x20 PUSH2 0x58E3 DUP4 CODECOPY DUP2 MLOAD SWAP2 MSTORE PUSH1 0x20 MSTORE PUSH1 0x40 SWAP1 KECCAK256 SLOAD PUSH1 0xFF AND ISZERO PUSH2 0x455A JUMPI PUSH1 0x1 PUSH1 0x1 PUSH1 0xA0 SHL SUB AND PUSH1 0x0 DUP2 DUP2 MSTORE PUSH1 0x0 DUP1 MLOAD PUSH1 0x20 PUSH2 0x58E3 DUP4 CODECOPY DUP2 MLOAD SWAP2 MSTORE PUSH1 0x20 MSTORE PUSH1 0x40 DUP2 KECCAK256 DUP1 SLOAD PUSH1 0xFF NOT AND SWAP1 SSTORE CALLER SWAP2 SWAP1 PUSH1 0x0 DUP1 MLOAD PUSH1 0x20 PUSH2 0x57E3 DUP4 CODECOPY DUP2 MLOAD SWAP2 MSTORE SWAP1 PUSH32 0xF6391F5C32D9C69D2A47EA670B442974B53935D1EDC7FD64EB21E047A839171B SWAP1 DUP1 LOG4 PUSH1 0x1 SWAP1 JUMP JUMPDEST PUSH1 0x1 PUSH1 0x1 PUSH1 0xA0 SHL SUB DUP2 AND PUSH1 0x0 SWAP1 DUP2 MSTORE PUSH1 0x0 DUP1 MLOAD PUSH1 0x20 PUSH2 0x5863 DUP4 CODECOPY DUP2 MLOAD SWAP2 MSTORE PUSH1 0x20 MSTORE PUSH1 0x40 SWAP1 KECCAK256 SLOAD PUSH1 0xFF AND ISZERO PUSH2 0x455A JUMPI PUSH1 0x1 PUSH1 0x1 PUSH1 0xA0 SHL SUB AND PUSH1 0x0 DUP2 DUP2 MSTORE PUSH1 0x0 DUP1 MLOAD PUSH1 0x20 PUSH2 0x5863 DUP4 CODECOPY DUP2 MLOAD SWAP2 MSTORE PUSH1 0x20 MSTORE PUSH1 0x40 DUP2 KECCAK256 DUP1 SLOAD PUSH1 0xFF NOT AND SWAP1 SSTORE CALLER SWAP2 SWAP1 PUSH1 0x0 DUP1 MLOAD PUSH1 0x20 PUSH2 0x58C3 DUP4 CODECOPY DUP2 MLOAD SWAP2 MSTORE SWAP1 PUSH32 0xF6391F5C32D9C69D2A47EA670B442974B53935D1EDC7FD64EB21E047A839171B SWAP1 DUP1 LOG4 PUSH1 0x1 SWAP1 JUMP JUMPDEST PUSH1 0x0 DUP2 DUP2 MSTORE PUSH1 0x1 PUSH1 0x20 SWAP1 DUP2 MSTORE PUSH1 0x40 DUP1 DUP4 KECCAK256 PUSH1 0x1 PUSH1 0x1 PUSH1 0xA0 SHL SUB DUP7 AND DUP5 MSTORE SWAP1 SWAP2 MSTORE SWAP1 KECCAK256 SLOAD PUSH1 0xFF AND ISZERO PUSH2 0x4B72 JUMPI PUSH1 0x0 DUP2 DUP2 MSTORE PUSH1 0x1 PUSH1 0x20 SWAP1 DUP2 MSTORE PUSH1 0x40 DUP1 DUP4 KECCAK256 PUSH1 0x1 PUSH1 0x1 PUSH1 0xA0 SHL SUB SWAP6 SWAP1 SWAP6 AND DUP1 DUP5 MSTORE SWAP5 SWAP1 SWAP2 MSTORE DUP2 KECCAK256 DUP1 SLOAD PUSH1 0xFF NOT AND SWAP1 SSTORE CALLER SWAP3 SWAP2 SWAP1 PUSH32 0xF6391F5C32D9C69D2A47EA670B442974B53935D1EDC7FD64EB21E047A839171B SWAP1 DUP1 LOG4 PUSH1 0x1 SWAP1 JUMP JUMPDEST PUSH1 0x40 MLOAD PUSH4 0xA9059CBB PUSH1 0xE0 SHL PUSH1 0x20 DUP3 ADD MSTORE PUSH1 0x1 PUSH1 0x1 PUSH1 0xA0 SHL SUB SWAP1 SWAP3 AND PUSH1 0x24 DUP4 ADD MSTORE PUSH1 0x44 DUP1 DUP4 ADD SWAP4 SWAP1 SWAP4 MSTORE SWAP2 DUP2 MSTORE PUSH2 0x5139 SWAP2 PUSH2 0x5134 PUSH1 0x64 DUP4 PUSH2 0x3FE4 JUMP JUMPDEST PUSH2 0x5768 JUMP JUMPDEST JUMP JUMPDEST PUSH1 0x40 MLOAD PUSH4 0x23B872DD PUSH1 0xE0 SHL PUSH1 0x20 DUP3 ADD MSTORE PUSH1 0x1 PUSH1 0x1 PUSH1 0xA0 SHL SUB SWAP3 DUP4 AND PUSH1 0x24 DUP3 ADD MSTORE SWAP3 SWAP1 SWAP2 AND PUSH1 0x44 DUP4 ADD MSTORE PUSH1 0x64 DUP1 DUP4 ADD SWAP4 SWAP1 SWAP4 MSTORE SWAP2 DUP2 MSTORE PUSH2 0x5139 SWAP2 PUSH2 0x5134 PUSH1 0x84 DUP4 PUSH2 0x3FE4 JUMP JUMPDEST PUSH1 0xD SLOAD PUSH1 0x1 PUSH1 0x1 PUSH1 0xA0 SHL SUB AND PUSH1 0x0 DUP2 DUP2 MSTORE PUSH1 0xA PUSH1 0x20 MSTORE PUSH1 0x40 SWAP1 KECCAK256 SLOAD PUSH1 0xFF AND ISZERO SWAP1 DUP2 ISZERO PUSH2 0x568E JUMPI JUMPDEST POP DUP1 ISZERO PUSH2 0x5676 JUMPI JUMPDEST PUSH2 0x5241 JUMPI JUMPDEST PUSH1 0xD SLOAD PUSH1 0x1 PUSH1 0x1 PUSH1 0xA0 SHL SUB AND PUSH1 0x0 DUP2 DUP2 MSTORE PUSH1 0xA PUSH1 0x20 MSTORE PUSH1 0x40 SWAP1 KECCAK256 SLOAD PUSH1 0xFF AND ISZERO DUP1 ISZERO PUSH2 0x5231 JUMPI JUMPDEST PUSH2 0x51E0 JUMPI SWAP1 JUMP JUMPDEST POP PUSH1 0x0 PUSH1 0x0 DUP1 MLOAD PUSH1 0x20 PUSH2 0x5903 DUP4 CODECOPY DUP2 MLOAD SWAP2 MSTORE PUSH1 0xA0 PUSH1 0x40 MLOAD PUSH1 0x60 DUP2 MSTORE PUSH1 0x14 PUSH1 0x60 DUP3 ADD MSTORE PUSH20 0x1B9BD7DD985B1A5917DC1BDBDB1CD7D99BDD5B99 PUSH1 0x62 SHL PUSH1 0x80 DUP3 ADD MSTORE TIMESTAMP PUSH1 0x20 DUP3 ADD MSTORE DUP4 PUSH1 0x40 DUP3 ADD MSTORE LOG2 PUSH1 0x0 SWAP1 JUMP JUMPDEST POP PUSH2 0x523B DUP2 PUSH2 0x451F JUMP JUMPDEST ISZERO PUSH2 0x51D9 JUMP JUMPDEST PUSH1 0x0 PUSH1 0x0 DUP1 MLOAD PUSH1 0x20 PUSH2 0x5903 DUP4 CODECOPY DUP2 MLOAD SWAP2 MSTORE PUSH1 0xA0 PUSH1 0x40 MLOAD PUSH1 0x60 DUP2 MSTORE PUSH1 0x13 PUSH1 0x60 DUP3 ADD MSTORE PUSH19 0x666F7263696E675F706F6F6C5F757064617465 PUSH1 0x68 SHL PUSH1 0x80 DUP3 ADD MSTORE TIMESTAMP PUSH1 0x20 DUP3 ADD MSTORE DUP4 PUSH1 0x40 DUP3 ADD MSTORE LOG2 PUSH1 0x15 SLOAD PUSH1 0x9 SLOAD PUSH1 0x0 PUSH1 0x0 DUP1 MLOAD PUSH1 0x20 PUSH2 0x5883 DUP4 CODECOPY DUP2 MLOAD SWAP2 MSTORE PUSH1 0xA0 PUSH1 0x40 MLOAD PUSH1 0x60 DUP2 MSTORE PUSH1 0x18 PUSH1 0x60 DUP3 ADD MSTORE PUSH32 0x706F6F6C5F6E6565645F7570646174655F737461727465640000000000000000 PUSH1 0x80 DUP3 ADD MSTORE DUP6 PUSH1 0x20 DUP3 ADD MSTORE DUP5 PUSH1 0x40 DUP3 ADD MSTORE LOG2 PUSH1 0xA DUP3 ADD DUP1 DUP4 GT PUSH2 0x563 JUMPI DUP2 DUP1 DUP3 LT SWAP2 XOR MUL XOR SWAP1 PUSH1 0x0 SWAP2 DUP3 SWAP2 JUMPDEST DUP2 DUP2 LT PUSH2 0x53FD JUMPI POP PUSH1 0x9 SLOAD SWAP2 DUP3 ISZERO PUSH2 0x3C8D JUMPI SWAP2 SWAP1 MOD PUSH1 0x15 SSTORE PUSH1 0x1 PUSH1 0x1 PUSH1 0xA0 SHL SUB AND SWAP1 PUSH1 0x0 DUP1 MLOAD PUSH1 0x20 PUSH2 0x5883 DUP4 CODECOPY DUP2 MLOAD SWAP2 MSTORE SWAP1 PUSH1 0xA0 SWAP1 DUP4 ISZERO ISZERO DUP1 PUSH2 0x53D9 JUMPI JUMPDEST PUSH2 0x5381 JUMPI JUMPDEST PUSH1 0x40 MLOAD SWAP1 PUSH1 0x60 DUP3 MSTORE PUSH1 0x16 PUSH1 0x60 DUP4 ADD MSTORE PUSH22 0x18985D18DA17DD5C19185D1957D8DBDB5C1B195D1959 PUSH1 0x52 SHL PUSH1 0x80 DUP4 ADD MSTORE PUSH1 0x20 DUP3 ADD MSTORE TIMESTAMP PUSH1 0x40 DUP3 ADD MSTORE LOG2 PUSH2 0x51B3 JUMP JUMPDEST DUP4 PUSH1 0x1 PUSH1 0x1 PUSH1 0x60 SHL SUB DUP4 SHL PUSH1 0xD SLOAD AND OR PUSH1 0xD SSTORE DUP1 PUSH1 0xE SSTORE TIMESTAMP PUSH1 0xF SSTORE DUP4 DUP4 DUP4 PUSH1 0x40 MLOAD PUSH1 0x60 DUP2 MSTORE PUSH1 0x11 PUSH1 0x60 DUP3 ADD MSTORE PUSH17 0x1C1BDBDB17DB99595917DD5C19185D1959 PUSH1 0x7A SHL PUSH1 0x80 DUP3 ADD MSTORE DUP5 PUSH1 0x20 DUP3 ADD MSTORE TIMESTAMP PUSH1 0x40 DUP3 ADD MSTORE LOG2 PUSH2 0x5342 JUMP JUMPDEST POP PUSH1 0xE SLOAD DUP2 GT DUP1 PUSH2 0x533D JUMPI POP PUSH2 0x53F7 PUSH1 0x1 DUP1 DUP5 SHL SUB PUSH1 0xD SLOAD AND PUSH2 0x451F JUMP JUMPDEST ISZERO PUSH2 0x533D JUMP JUMPDEST PUSH2 0x5406 DUP2 PUSH2 0x3B91 JUMP JUMPDEST SWAP1 SLOAD PUSH1 0x3 SWAP2 SWAP1 SWAP2 SHL SHR PUSH1 0x1 PUSH1 0x1 PUSH1 0xA0 SHL SUB AND PUSH2 0x5421 DUP2 PUSH2 0x451F JUMP JUMPDEST ISZERO PUSH2 0x5629 JUMPI DUP1 PUSH1 0x0 MSTORE PUSH1 0x3 PUSH1 0x20 MSTORE PUSH1 0x40 PUSH1 0x0 KECCAK256 SLOAD DUP2 PUSH1 0x0 MSTORE PUSH1 0xB PUSH1 0x20 MSTORE PUSH1 0x1 PUSH1 0x40 PUSH1 0x0 KECCAK256 ADD SLOAD SWAP1 PUSH10 0x21E19E0C9BAB2400000 DUP2 DIV PUSH1 0x5 ADD DUP1 PUSH1 0x5 GT PUSH2 0x563 JUMPI PUSH10 0x10F0CF064DD59200000 DUP4 DIV PUSH1 0x3 ADD SWAP1 DUP2 PUSH1 0x3 GT PUSH2 0x563 JUMPI DUP5 SWAP3 PUSH32 0x81B825A5C8F36995208769E66CD92A494001553F569B0767B66942AF9CFA6587 SWAP3 PUSH1 0xA0 SWAP3 PUSH1 0xA DUP2 GT ISZERO PUSH2 0x5623 JUMPI POP PUSH1 0xA SWAP1 JUMPDEST PUSH1 0xA DUP2 GT ISZERO PUSH2 0x561D JUMPI POP PUSH1 0xA SWAP1 JUMPDEST PUSH1 0xA PUSH2 0x54D5 PUSH2 0x54CB DUP4 DUP7 PUSH2 0x3C70 JUMP JUMPDEST PUSH2 0x65A DUP6 DUP12 PUSH2 0x3C70 JUMP JUMPDEST DIV SWAP7 PUSH1 0x40 MLOAD SWAP4 DUP9 DUP6 MSTORE PUSH1 0x20 DUP6 ADD MSTORE PUSH1 0x40 DUP5 ADD MSTORE PUSH1 0x60 DUP4 ADD MSTORE PUSH1 0x80 DUP3 ADD MSTORE LOG2 DUP2 PUSH1 0x0 MSTORE PUSH1 0x14 PUSH1 0x20 MSTORE PUSH1 0x40 PUSH1 0x0 KECCAK256 SLOAD DUP1 ISZERO PUSH1 0x0 EQ PUSH2 0x55ED JUMPI POP PUSH1 0x40 MLOAD PUSH2 0x5518 DUP2 PUSH2 0x3FC8 JUMP JUMPDEST DUP3 DUP2 MSTORE PUSH1 0x20 DUP2 ADD SWAP1 DUP3 DUP3 MSTORE PUSH1 0x40 DUP2 ADD TIMESTAMP DUP2 MSTORE PUSH1 0x13 SLOAD PUSH1 0x1 PUSH1 0x40 SHL DUP2 LT ISZERO PUSH2 0xA13 JUMPI DUP1 PUSH1 0x1 PUSH2 0x5549 SWAP3 ADD PUSH1 0x13 SSTORE PUSH2 0x57C3 JUMP JUMPDEST SWAP4 SWAP1 SWAP4 PUSH2 0x9FD JUMPI PUSH1 0x2 SWAP3 PUSH1 0x1 DUP1 PUSH1 0xA0 SHL SUB SWAP1 MLOAD AND PUSH1 0x1 PUSH1 0x1 PUSH1 0x60 SHL SUB PUSH1 0xA0 SHL DUP6 SLOAD AND OR DUP5 SSTORE MLOAD PUSH1 0x1 DUP5 ADD SSTORE MLOAD SWAP2 ADD SSTORE PUSH1 0x13 SLOAD DUP3 PUSH1 0x0 MSTORE PUSH1 0x14 PUSH1 0x20 MSTORE PUSH1 0x40 PUSH1 0x0 KECCAK256 SSTORE JUMPDEST DUP6 DUP2 GT PUSH2 0x55E2 JUMPI JUMPDEST SWAP1 PUSH1 0x0 DUP1 MLOAD PUSH1 0x20 PUSH2 0x5883 DUP4 CODECOPY DUP2 MLOAD SWAP2 MSTORE PUSH1 0xA0 PUSH1 0x1 SWAP5 SWAP4 PUSH1 0x40 MLOAD SWAP1 PUSH1 0x60 DUP3 MSTORE PUSH1 0xE PUSH1 0x60 DUP4 ADD MSTORE PUSH14 0x1C1BDBDB17DC1C9BD8D95CDCD959 PUSH1 0x92 SHL PUSH1 0x80 DUP4 ADD MSTORE PUSH1 0x20 DUP3 ADD MSTORE TIMESTAMP PUSH1 0x40 DUP3 ADD MSTORE LOG2 JUMPDEST ADD PUSH2 0x52FF JUMP JUMPDEST SWAP5 POP SWAP3 POP DUP3 DUP5 PUSH2 0x5593 JUMP JUMPDEST PUSH1 0x0 NOT DUP2 ADD SWAP1 DUP2 GT PUSH2 0x563 JUMPI DUP1 DUP3 PUSH1 0x1 PUSH2 0x5609 PUSH2 0x5611 SWAP5 PUSH2 0x57C3 JUMP JUMPDEST POP ADD SSTORE PUSH2 0x57C3 JUMP JUMPDEST POP PUSH1 0x2 TIMESTAMP SWAP2 ADD SSTORE PUSH2 0x558B JUMP JUMPDEST SWAP1 PUSH2 0x54BC JUMP JUMPDEST SWAP1 PUSH2 0x54AE JUMP JUMPDEST SWAP1 PUSH1 0x1 SWAP2 PUSH1 0x0 DUP1 MLOAD PUSH1 0x20 PUSH2 0x5883 DUP4 CODECOPY DUP2 MLOAD SWAP2 MSTORE PUSH1 0xA0 PUSH1 0x40 MLOAD PUSH1 0x60 DUP2 MSTORE PUSH1 0xD PUSH1 0x60 DUP3 ADD MSTORE PUSH13 0x706F6F6C5F696E616374697665 PUSH1 0x98 SHL PUSH1 0x80 DUP3 ADD MSTORE PUSH1 0x0 PUSH1 0x20 DUP3 ADD MSTORE PUSH1 0x0 PUSH1 0x40 DUP3 ADD MSTORE LOG2 PUSH2 0x55DC JUMP JUMPDEST POP PUSH1 0xF SLOAD PUSH2 0xE10 DUP2 ADD DUP1 SWAP2 GT PUSH2 0x563 JUMPI TIMESTAMP LT ISZERO PUSH2 0x51AE JUMP JUMPDEST PUSH2 0x5698 SWAP2 POP PUSH2 0x451F JUMP JUMPDEST ISZERO CODESIZE PUSH2 0x51A6 JUMP JUMPDEST PUSH1 0x1 PUSH1 0x1 PUSH1 0xA0 SHL SUB AND DUP1 ISZERO PUSH2 0x4B72 JUMPI PUSH8 0xDE0B6B3A7640000 DUP3 LT PUSH2 0x4B72 JUMPI DUP1 PUSH1 0x0 MSTORE PUSH1 0x3 PUSH1 0x20 MSTORE PUSH1 0x40 PUSH1 0x0 KECCAK256 SLOAD SWAP1 PUSH1 0x0 MSTORE PUSH1 0xB PUSH1 0x20 MSTORE PUSH8 0x8AC7230489E80000 PUSH1 0x40 PUSH1 0x0 KECCAK256 SWAP2 PUSH1 0x40 MLOAD PUSH2 0x56F0 DUP2 PUSH2 0x3FC8 JUMP JUMPDEST DUP4 SLOAD DUP2 MSTORE PUSH1 0x40 PUSH1 0x2 PUSH1 0x1 DUP7 ADD SLOAD SWAP6 DUP7 PUSH1 0x20 DUP6 ADD MSTORE ADD SLOAD SWAP2 ADD MSTORE LT PUSH1 0x0 EQ PUSH2 0x5734 JUMPI POP DUP1 JUMPDEST PUSH8 0xDE0B6B3A7640000 DUP2 LT PUSH2 0x4B72 JUMPI DUP2 DUP2 GT ISZERO PUSH2 0x572F JUMPI POP SWAP1 JUMP JUMPDEST SWAP1 POP SWAP1 JUMP JUMPDEST PUSH9 0x1158E460913D00000 LT ISZERO PUSH2 0x575F JUMPI PUSH1 0x4B DUP2 MUL DUP2 DUP2 DIV PUSH1 0x4B EQ DUP3 ISZERO OR ISZERO PUSH2 0x563 JUMPI PUSH1 0x64 SWAP1 DIV PUSH2 0x5714 JUMP JUMPDEST DUP1 PUSH1 0x1 SHR PUSH2 0x5714 JUMP JUMPDEST SWAP1 PUSH1 0x0 PUSH1 0x20 SWAP2 DUP3 DUP2 MLOAD SWAP2 ADD DUP3 DUP6 GAS CALL ISZERO PUSH2 0x13CC JUMPI PUSH1 0x0 MLOAD RETURNDATASIZE PUSH2 0x57BA JUMPI POP PUSH1 0x1 PUSH1 0x1 PUSH1 0xA0 SHL SUB DUP2 AND EXTCODESIZE ISZERO JUMPDEST PUSH2 0x5799 JUMPI POP JUMP JUMPDEST PUSH4 0x5274AFE7 PUSH1 0xE0 SHL PUSH1 0x0 SWAP1 DUP2 MSTORE PUSH1 0x1 PUSH1 0x1 PUSH1 0xA0 SHL SUB SWAP2 SWAP1 SWAP2 AND PUSH1 0x4 MSTORE PUSH1 0x24 SWAP1 REVERT JUMPDEST PUSH1 0x1 EQ ISZERO PUSH2 0x5792 JUMP JUMPDEST PUSH1 0x13 SLOAD DUP2 LT ISZERO PUSH2 0x10C7 JUMPI PUSH1 0x13 PUSH1 0x0 MSTORE PUSH1 0x3 PUSH1 0x20 PUSH1 0x0 KECCAK256 SWAP2 MUL ADD SWAP1 PUSH1 0x0 SWAP1 JUMP INVALID RETURNDATASIZE SWAP7 0x2D RETURN CHAINID 0x29 SWAP9 DUP10 0xE3 0xDD 0xD0 SWAP9 0xBD 0xD6 DUP13 RETURN CALLDATALOAD LOG1 0xE3 PUSH17 0x339BD306448317D39B39A66D72E170FD31 DUP6 PUSH4 0xBE2751CA EXTCODESIZE 0xE9 RETURNDATACOPY SWAP16 NOT 0x21 0xD5 0xA6 SDIV BYTE 0x29 TLOAD 0xEA SWAP8 MSIZE 0xA5 PUSH26 0x53D8E87A52815F7EF39CFE1F42D5C23D10919CC9FBEBD17D9EDB 0xC1 SGT 0x2E 0xEE STOP PUSH26 0xA50DC945C10526FB968814275769551EECACDD8DC6F8FA432184 PUSH0 PUSH22 0x19C819B95B04B62082FB30387F7034EEC77298003ED1 BYTE PUSH25 0xBFD357CE4188786ACE62A78239DE1D84ED5941377C8AF2E968 0xD3 SELFBALANCE 0xB3 SLOAD 0xE4 DUP15 PC 0xE2 0xD6 JUMPI DUP16 0xEF 0xD7 CODESIZE DUP3 EXP TLOAD 0xCF 0xCA PUSH25 0xF9B4832AF63B40E5BA31AE18B3ACF18A8644C9C93FE8FEE862 0xAB DUP15 0xD4 0x22 0xC GASLIMIT 0xD9 PUSH6 0x6A34BF68135D DUP5 SIGNEXTEND PUSH30 0x2E69E8DCE11F7F9E158069F12649D1DDA9BA2A0AE4F561DEFB7ADA6DBB52 MOD AND 0xCF CREATE2 0xD6 CREATE2 PUSH21 0xAFF5A85F6D0DABE1F7D96C08FE8E54D79BFCA6E005 LOG1 0xED 0xF8 SWAP1 0x4F 0x27 0xF9 0x27 0x26 0xC4 SWAP16 0xC4 LOG4 RETURN 0x24 0xC SDIV 0xCE DUP10 EXTCODESIZE 0xB6 0xCF 0xF6 ADDRESS PUSH16 0x76D38A7FE7B9A2646970667358221220 LOG0 SLOAD TSTORE 0xB9 OR 0xE9 PC PUSH25 0xDFA0D4B7BE944E22CC4ABD1A99AEB795B2A969DAAF0FDE964 PUSH20 0x6F6C634300081C0033A6EEF7E35ABE7026729641 EQ PUSH32 0x7915573C7E97B47EFA546F5F6E3230263BCB4900000000000000000000000000 "},"methodIdentifiers":{"ABSOLUTE_MAX_LIQUIDITY()":"9a92c4fe","ACTIVITY_THRESHOLD()":"414f99ae","BACKUP_DEX_ROLE()":"6eb2ebda","BASE_PRICE()":"f86325ed","DEFAULT_ADMIN_ROLE()":"a217fddf","DEX_ROLE()":"2ef97265","DISCOVERY_PERIOD()":"17359688","ENGAGEMENT_THRESHOLD()":"30ae7805","MAX_HISTORY_ENTRIES()":"cb01a4a4","MAX_PRICE_MULTIPLIER()":"5889486e","MAX_SNAPSHOTS()":"31ad24f8","MIN_24H_VOLUME()":"993d3450","MIN_DEPLOYMENT_AMOUNT()":"b7f23d19","MIN_FEES_FOR_REDEPLOY()":"1b5a799a","MIN_LIQUIDITY()":"21b77d63","MIN_TOKEN_PRICE()":"1879dcf3","POOL_NEED_UPDATE_INTERVAL()":"2d957a8c","REBALANCE_INTERVAL()":"5c2da7cd","SNAPSHOT_INTERVAL()":"6d2beef1","addLiquidity(address,uint256,uint256)":"55776b77","addPoolToTracking(address)":"afabdf11","autoRedeployFees(address)":"bc99f487","calculateInitialLiquidity(uint256,uint256)":"14f302ac","checkAndRebalance(address)":"3ec43350","collectFees(address,uint256)":"a033fcd4","collectedFees(address)":"1cead9a7","completePriceDiscovery(address)":"fb99d5f4","coralReserves(address)":"84f74a69","coralToken()":"bba2e140","creatorTokenReserves(address)":"708b9935","dex()":"692058c2","getPoolNeedInfo()":"d6f969e2","getReserves(address)":"3e99c1e4","getRoleAdmin(bytes32)":"248a9ca3","getSmoothedMetrics(address)":"b1eb4835","getTopPools(uint256)":"c45cffab","getTrackedPools()":"b2098fa2","getVolumeHistory(address)":"cd6f3cf4","grantBackupDEXRole(address)":"6ac7b41e","grantRole(bytes32,address)":"2f2ff15d","hasRole(bytes32,address)":"91d14854","hasValidLiquidity(address)":"1ccf71eb","isCoralToken(address)":"65b85ec4","isPoolActive(address)":"a711e6a1","isTrackedPool(address)":"74a92c66","isValidLiquidity(uint256)":"e7c75b79","lastRebalanceTimestamp()":"b83d8157","maxLiquidityPerPool()":"b1a23fb4","mostNeededPool()":"a1ce9204","owner()":"8da5cb5b","poolActivity(address)":"051e0e67","poolCount()":"f525cb68","priceDiscovery(address)":"e1aeb092","recordEngagementSnapshot(address,uint256)":"4e358af2","redeployFees(address,address)":"bd1e31aa","removeLiquidity(address,uint256,uint256)":"e38192e3","removePoolFromTracking(address)":"2253fc3c","removeWithdrawAddress(address)":"0502e222","renounceOwnership()":"715018a6","renounceRole(bytes32,address)":"36568abe","revokeDEXRole(address)":"68d693c3","revokeRole(bytes32,address)":"d547741f","setDEX(address)":"7b66a723","setMaxLiquidity(uint256)":"71081c8e","sortedPools(uint256)":"06f2c561","startPriceDiscovery(address,uint256)":"8c93ca7c","supportsInterface(bytes4)":"01ffc9a7","tokenEngagement(address)":"f2fd23de","topPoolIndex()":"a0169745","trackedPools(uint256)":"23bfa792","transferCoralToDEX(uint256)":"3c231efd","transferOwnership(address)":"f2fde38b","updateEngagementMetrics(address,uint256)":"3417c3d0","updatePoolActivity(address,uint256)":"e71e76c1","volumeHistory(address,uint256)":"d55091f9","whitelistWithdrawAddress(address)":"a2705123","whitelistedWithdrawAddresses(address)":"78357539","withdrawFees(address,uint256)":"ad3b1b47"}},"storageLayout":{"storage":[{"astId":387,"contract":"contracts/SaraLiquidityManager.sol:SaraLiquidityManager","label":"_owner","offset":0,"slot":"0","type":"t_address"},{"astId":26,"contract":"contracts/SaraLiquidityManager.sol:SaraLiquidityManager","label":"_roles","offset":0,"slot":"1","type":"t_mapping(t_bytes32,t_struct(RoleData)21_storage)"},{"astId":6336,"contract":"contracts/SaraLiquidityManager.sol:SaraLiquidityManager","label":"creatorTokenReserves","offset":0,"slot":"2","type":"t_mapping(t_address,t_uint256)"},{"astId":6340,"contract":"contracts/SaraLiquidityManager.sol:SaraLiquidityManager","label":"coralReserves","offset":0,"slot":"3","type":"t_mapping(t_address,t_uint256)"},{"astId":6344,"contract":"contracts/SaraLiquidityManager.sol:SaraLiquidityManager","label":"collectedFees","offset":0,"slot":"4","type":"t_mapping(t_address,t_uint256)"},{"astId":6346,"contract":"contracts/SaraLiquidityManager.sol:SaraLiquidityManager","label":"coralToken","offset":0,"slot":"5","type":"t_address"},{"astId":6351,"contract":"contracts/SaraLiquidityManager.sol:SaraLiquidityManager","label":"lastRebalanceTimestamp","offset":0,"slot":"6","type":"t_uint256"},{"astId":6368,"contract":"contracts/SaraLiquidityManager.sol:SaraLiquidityManager","label":"tokenEngagement","offset":0,"slot":"7","type":"t_mapping(t_address,t_struct(EngagementMetrics)6363_storage)"},{"astId":6403,"contract":"contracts/SaraLiquidityManager.sol:SaraLiquidityManager","label":"priceDiscovery","offset":0,"slot":"8","type":"t_mapping(t_address,t_struct(PriceDiscoveryData)6398_storage)"},{"astId":6437,"contract":"contracts/SaraLiquidityManager.sol:SaraLiquidityManager","label":"trackedPools","offset":0,"slot":"9","type":"t_array(t_address)dyn_storage"},{"astId":6441,"contract":"contracts/SaraLiquidityManager.sol:SaraLiquidityManager","label":"isTrackedPool","offset":0,"slot":"10","type":"t_mapping(t_address,t_bool)"},{"astId":6504,"contract":"contracts/SaraLiquidityManager.sol:SaraLiquidityManager","label":"poolActivity","offset":0,"slot":"11","type":"t_mapping(t_address,t_struct(PoolActivity)6499_storage)"},{"astId":6532,"contract":"contracts/SaraLiquidityManager.sol:SaraLiquidityManager","label":"dex","offset":0,"slot":"12","type":"t_address"},{"astId":6552,"contract":"contracts/SaraLiquidityManager.sol:SaraLiquidityManager","label":"mostNeededPool","offset":0,"slot":"13","type":"t_struct(PoolNeedInfo)6549_storage"},{"astId":6568,"contract":"contracts/SaraLiquidityManager.sol:SaraLiquidityManager","label":"maxLiquidityPerPool","offset":0,"slot":"16","type":"t_uint256"},{"astId":6648,"contract":"contracts/SaraLiquidityManager.sol:SaraLiquidityManager","label":"volumeHistory","offset":0,"slot":"17","type":"t_mapping(t_address,t_array(t_struct(VolumeHistory)6642_storage)dyn_storage)"},{"astId":6655,"contract":"contracts/SaraLiquidityManager.sol:SaraLiquidityManager","label":"whitelistedWithdrawAddresses","offset":0,"slot":"18","type":"t_mapping(t_address,t_bool)"},{"astId":6678,"contract":"contracts/SaraLiquidityManager.sol:SaraLiquidityManager","label":"poolScores","offset":0,"slot":"19","type":"t_array(t_struct(PoolScore)6674_storage)dyn_storage"},{"astId":6682,"contract":"contracts/SaraLiquidityManager.sol:SaraLiquidityManager","label":"poolScoreIndex","offset":0,"slot":"20","type":"t_mapping(t_address,t_uint256)"},{"astId":6687,"contract":"contracts/SaraLiquidityManager.sol:SaraLiquidityManager","label":"lastProcessedIndex","offset":0,"slot":"21","type":"t_uint256"},{"astId":6706,"contract":"contracts/SaraLiquidityManager.sol:SaraLiquidityManager","label":"sortedPools","offset":0,"slot":"22","type":"t_mapping(t_uint256,t_struct(SortedPool)6701_storage)"},{"astId":6708,"contract":"contracts/SaraLiquidityManager.sol:SaraLiquidityManager","label":"topPoolIndex","offset":0,"slot":"23","type":"t_uint256"},{"astId":6710,"contract":"contracts/SaraLiquidityManager.sol:SaraLiquidityManager","label":"poolCount","offset":0,"slot":"24","type":"t_uint256"}],"types":{"t_address":{"encoding":"inplace","label":"address","numberOfBytes":"20"},"t_array(t_address)dyn_storage":{"base":"t_address","encoding":"dynamic_array","label":"address[]","numberOfBytes":"32"},"t_array(t_struct(PoolScore)6674_storage)dyn_storage":{"base":"t_struct(PoolScore)6674_storage","encoding":"dynamic_array","label":"struct SaraLiquidityManager.PoolScore[]","numberOfBytes":"32"},"t_array(t_struct(VolumeHistory)6642_storage)dyn_storage":{"base":"t_struct(VolumeHistory)6642_storage","encoding":"dynamic_array","label":"struct SaraLiquidityManager.VolumeHistory[]","numberOfBytes":"32"},"t_array(t_uint256)dyn_storage":{"base":"t_uint256","encoding":"dynamic_array","label":"uint256[]","numberOfBytes":"32"},"t_bool":{"encoding":"inplace","label":"bool","numberOfBytes":"1"},"t_bytes32":{"encoding":"inplace","label":"bytes32","numberOfBytes":"32"},"t_mapping(t_address,t_array(t_struct(VolumeHistory)6642_storage)dyn_storage)":{"encoding":"mapping","key":"t_address","label":"mapping(address => struct SaraLiquidityManager.VolumeHistory[])","numberOfBytes":"32","value":"t_array(t_struct(VolumeHistory)6642_storage)dyn_storage"},"t_mapping(t_address,t_bool)":{"encoding":"mapping","key":"t_address","label":"mapping(address => bool)","numberOfBytes":"32","value":"t_bool"},"t_mapping(t_address,t_struct(EngagementMetrics)6363_storage)":{"encoding":"mapping","key":"t_address","label":"mapping(address => struct SaraLiquidityManager.EngagementMetrics)","numberOfBytes":"32","value":"t_struct(EngagementMetrics)6363_storage"},"t_mapping(t_address,t_struct(PoolActivity)6499_storage)":{"encoding":"mapping","key":"t_address","label":"mapping(address => struct SaraLiquidityManager.PoolActivity)","numberOfBytes":"32","value":"t_struct(PoolActivity)6499_storage"},"t_mapping(t_address,t_struct(PriceDiscoveryData)6398_storage)":{"encoding":"mapping","key":"t_address","label":"mapping(address => struct SaraLiquidityManager.PriceDiscoveryData)","numberOfBytes":"32","value":"t_struct(PriceDiscoveryData)6398_storage"},"t_mapping(t_address,t_uint256)":{"encoding":"mapping","key":"t_address","label":"mapping(address => uint256)","numberOfBytes":"32","value":"t_uint256"},"t_mapping(t_bytes32,t_struct(RoleData)21_storage)":{"encoding":"mapping","key":"t_bytes32","label":"mapping(bytes32 => struct AccessControl.RoleData)","numberOfBytes":"32","value":"t_struct(RoleData)21_storage"},"t_mapping(t_uint256,t_struct(SortedPool)6701_storage)":{"encoding":"mapping","key":"t_uint256","label":"mapping(uint256 => struct SaraLiquidityManager.SortedPool)","numberOfBytes":"32","value":"t_struct(SortedPool)6701_storage"},"t_struct(EngagementMetrics)6363_storage":{"encoding":"inplace","label":"struct SaraLiquidityManager.EngagementMetrics","members":[{"astId":6356,"contract":"contracts/SaraLiquidityManager.sol:SaraLiquidityManager","label":"lastSubscriberCount","offset":0,"slot":"0","type":"t_uint256"},{"astId":6358,"contract":"contracts/SaraLiquidityManager.sol:SaraLiquidityManager","label":"smoothedSubscriberCount","offset":0,"slot":"1","type":"t_uint256"},{"astId":6360,"contract":"contracts/SaraLiquidityManager.sol:SaraLiquidityManager","label":"lastUpdateTime","offset":0,"slot":"2","type":"t_uint256"},{"astId":6362,"contract":"contracts/SaraLiquidityManager.sol:SaraLiquidityManager","label":"updateCount","offset":0,"slot":"3","type":"t_uint256"}],"numberOfBytes":"128"},"t_struct(PoolActivity)6499_storage":{"encoding":"inplace","label":"struct SaraLiquidityManager.PoolActivity","members":[{"astId":6494,"contract":"contracts/SaraLiquidityManager.sol:SaraLiquidityManager","label":"lastTradeTimestamp","offset":0,"slot":"0","type":"t_uint256"},{"astId":6496,"contract":"contracts/SaraLiquidityManager.sol:SaraLiquidityManager","label":"tradingVolume24h","offset":0,"slot":"1","type":"t_uint256"},{"astId":6498,"contract":"contracts/SaraLiquidityManager.sol:SaraLiquidityManager","label":"lastVolumeUpdateTime","offset":0,"slot":"2","type":"t_uint256"}],"numberOfBytes":"96"},"t_struct(PoolNeedInfo)6549_storage":{"encoding":"inplace","label":"struct SaraLiquidityManager.PoolNeedInfo","members":[{"astId":6544,"contract":"contracts/SaraLiquidityManager.sol:SaraLiquidityManager","label":"pool","offset":0,"slot":"0","type":"t_address"},{"astId":6546,"contract":"contracts/SaraLiquidityManager.sol:SaraLiquidityManager","label":"score","offset":0,"slot":"1","type":"t_uint256"},{"astId":6548,"contract":"contracts/SaraLiquidityManager.sol:SaraLiquidityManager","label":"lastUpdateTime","offset":0,"slot":"2","type":"t_uint256"}],"numberOfBytes":"96"},"t_struct(PoolScore)6674_storage":{"encoding":"inplace","label":"struct SaraLiquidityManager.PoolScore","members":[{"astId":6669,"contract":"contracts/SaraLiquidityManager.sol:SaraLiquidityManager","label":"pool","offset":0,"slot":"0","type":"t_address"},{"astId":6671,"contract":"contracts/SaraLiquidityManager.sol:SaraLiquidityManager","label":"score","offset":0,"slot":"1","type":"t_uint256"},{"astId":6673,"contract":"contracts/SaraLiquidityManager.sol:SaraLiquidityManager","label":"lastUpdateTime","offset":0,"slot":"2","type":"t_uint256"}],"numberOfBytes":"96"},"t_struct(PriceDiscoveryData)6398_storage":{"encoding":"inplace","label":"struct SaraLiquidityManager.PriceDiscoveryData","members":[{"astId":6388,"contract":"contracts/SaraLiquidityManager.sol:SaraLiquidityManager","label":"initialSubscribers","offset":0,"slot":"0","type":"t_uint256"},{"astId":6390,"contract":"contracts/SaraLiquidityManager.sol:SaraLiquidityManager","label":"currentSubscribers","offset":0,"slot":"1","type":"t_uint256"},{"astId":6392,"contract":"contracts/SaraLiquidityManager.sol:SaraLiquidityManager","label":"observationStartTime","offset":0,"slot":"2","type":"t_uint256"},{"astId":6394,"contract":"contracts/SaraLiquidityManager.sol:SaraLiquidityManager","label":"isInDiscovery","offset":0,"slot":"3","type":"t_bool"},{"astId":6397,"contract":"contracts/SaraLiquidityManager.sol:SaraLiquidityManager","label":"engagementSnapshots","offset":0,"slot":"4","type":"t_array(t_uint256)dyn_storage"}],"numberOfBytes":"160"},"t_struct(RoleData)21_storage":{"encoding":"inplace","label":"struct AccessControl.RoleData","members":[{"astId":18,"contract":"contracts/SaraLiquidityManager.sol:SaraLiquidityManager","label":"hasRole","offset":0,"slot":"0","type":"t_mapping(t_address,t_bool)"},{"astId":20,"contract":"contracts/SaraLiquidityManager.sol:SaraLiquidityManager","label":"adminRole","offset":0,"slot":"1","type":"t_bytes32"}],"numberOfBytes":"64"},"t_struct(SortedPool)6701_storage":{"encoding":"inplace","label":"struct SaraLiquidityManager.SortedPool","members":[{"astId":6692,"contract":"contracts/SaraLiquidityManager.sol:SaraLiquidityManager","label":"pool","offset":0,"slot":"0","type":"t_address"},{"astId":6694,"contract":"contracts/SaraLiquidityManager.sol:SaraLiquidityManager","label":"score","offset":0,"slot":"1","type":"t_uint256"},{"astId":6696,"contract":"contracts/SaraLiquidityManager.sol:SaraLiquidityManager","label":"lastUpdateTime","offset":0,"slot":"2","type":"t_uint256"},{"astId":6698,"contract":"contracts/SaraLiquidityManager.sol:SaraLiquidityManager","label":"nextIndex","offset":0,"slot":"3","type":"t_uint256"},{"astId":6700,"contract":"contracts/SaraLiquidityManager.sol:SaraLiquidityManager","label":"prevIndex","offset":0,"slot":"4","type":"t_uint256"}],"numberOfBytes":"160"},"t_struct(VolumeHistory)6642_storage":{"encoding":"inplace","label":"struct SaraLiquidityManager.VolumeHistory","members":[{"astId":6639,"contract":"contracts/SaraLiquidityManager.sol:SaraLiquidityManager","label":"lastRecordedVolume","offset":0,"slot":"0","type":"t_uint256"},{"astId":6641,"contract":"contracts/SaraLiquidityManager.sol:SaraLiquidityManager","label":"timestamp","offset":0,"slot":"1","type":"t_uint256"}],"numberOfBytes":"64"},"t_uint256":{"encoding":"inplace","label":"uint256","numberOfBytes":"32"}}}}}}