{"contracts/SaraDEX.sol":{"SaraDEX":{"abi":[{"inputs":[{"internalType":"address","name":"_coralToken","type":"address"},{"internalType":"address payable","name":"_liquidityManager","type":"address"}],"stateMutability":"nonpayable","type":"constructor"},{"inputs":[],"name":"AccessControlBadConfirmation","type":"error"},{"inputs":[{"internalType":"address","name":"account","type":"address"},{"internalType":"bytes32","name":"neededRole","type":"bytes32"}],"name":"AccessControlUnauthorizedAccount","type":"error"},{"inputs":[{"internalType":"address","name":"owner","type":"address"}],"name":"OwnableInvalidOwner","type":"error"},{"inputs":[{"internalType":"address","name":"account","type":"address"}],"name":"OwnableUnauthorizedAccount","type":"error"},{"inputs":[{"internalType":"address","name":"token","type":"address"}],"name":"SafeERC20FailedOperation","type":"error"},{"anonymous":false,"inputs":[{"indexed":true,"internalType":"address","name":"token","type":"address"},{"indexed":false,"internalType":"uint256","name":"storedFees","type":"uint256"}],"name":"CoralAutoRedeploymentFailed","type":"event"},{"anonymous":false,"inputs":[{"indexed":true,"internalType":"address","name":"token","type":"address"},{"indexed":false,"internalType":"uint256","name":"amount","type":"uint256"}],"name":"CoralFeesRedeployed","type":"event"},{"anonymous":false,"inputs":[{"indexed":true,"internalType":"address","name":"token","type":"address"},{"indexed":false,"internalType":"uint256","name":"amount","type":"uint256"},{"indexed":false,"internalType":"uint256","name":"timestamp","type":"uint256"}],"name":"CoralFeesWithdrawn","type":"event"},{"anonymous":false,"inputs":[{"indexed":true,"internalType":"address","name":"user","type":"address"},{"indexed":true,"internalType":"address","name":"creatorToken","type":"address"},{"indexed":false,"internalType":"uint256","name":"amountIn","type":"uint256"},{"indexed":false,"internalType":"uint256","name":"amountOut","type":"uint256"},{"indexed":false,"internalType":"uint256","name":"fee","type":"uint256"}],"name":"CoralSwapExecuted","type":"event"},{"anonymous":false,"inputs":[{"indexed":true,"internalType":"address","name":"token","type":"address"},{"indexed":false,"internalType":"uint256","name":"amount","type":"uint256"},{"indexed":false,"internalType":"uint256","name":"timestamp","type":"uint256"}],"name":"CoralTokensRequested","type":"event"},{"anonymous":false,"inputs":[{"indexed":true,"internalType":"address","name":"to","type":"address"},{"indexed":false,"internalType":"uint256","name":"amount","type":"uint256"},{"indexed":false,"internalType":"uint256","name":"timestamp","type":"uint256"}],"name":"CoralTransferred","type":"event"},{"anonymous":false,"inputs":[{"indexed":false,"internalType":"uint256","name":"oldSlippage","type":"uint256"},{"indexed":false,"internalType":"uint256","name":"newSlippage","type":"uint256"},{"indexed":true,"internalType":"address","name":"updater","type":"address"}],"name":"MaxSlippageUpdated","type":"event"},{"anonymous":false,"inputs":[{"indexed":true,"internalType":"address","name":"previousOwner","type":"address"},{"indexed":true,"internalType":"address","name":"newOwner","type":"address"}],"name":"OwnershipTransferred","type":"event"},{"anonymous":false,"inputs":[{"indexed":true,"internalType":"bytes32","name":"role","type":"bytes32"},{"indexed":true,"internalType":"bytes32","name":"previousAdminRole","type":"bytes32"},{"indexed":true,"internalType":"bytes32","name":"newAdminRole","type":"bytes32"}],"name":"RoleAdminChanged","type":"event"},{"anonymous":false,"inputs":[{"indexed":true,"internalType":"bytes32","name":"role","type":"bytes32"},{"indexed":true,"internalType":"address","name":"account","type":"address"},{"indexed":true,"internalType":"address","name":"sender","type":"address"}],"name":"RoleGranted","type":"event"},{"anonymous":false,"inputs":[{"indexed":true,"internalType":"bytes32","name":"role","type":"bytes32"},{"indexed":true,"internalType":"address","name":"account","type":"address"},{"indexed":true,"internalType":"address","name":"sender","type":"address"}],"name":"RoleRevoked","type":"event"},{"anonymous":false,"inputs":[{"indexed":false,"internalType":"uint256","name":"oldFee","type":"uint256"},{"indexed":false,"internalType":"uint256","name":"newFee","type":"uint256"},{"indexed":true,"internalType":"address","name":"updater","type":"address"}],"name":"SwapFeeUpdated","type":"event"},{"inputs":[],"name":"ABSOLUTE_MAX_SLIPPAGE","outputs":[{"internalType":"uint256","name":"","type":"uint256"}],"stateMutability":"view","type":"function"},{"inputs":[],"name":"AUTO_REDEPLOY_THRESHOLD","outputs":[{"internalType":"uint256","name":"","type":"uint256"}],"stateMutability":"view","type":"function"},{"inputs":[],"name":"DEFAULT_ADMIN_ROLE","outputs":[{"internalType":"bytes32","name":"","type":"bytes32"}],"stateMutability":"view","type":"function"},{"inputs":[],"name":"DEFAULT_MAX_SLIPPAGE","outputs":[{"internalType":"uint256","name":"","type":"uint256"}],"stateMutability":"view","type":"function"},{"inputs":[],"name":"LIQUIDITY_MANAGER_ROLE","outputs":[{"internalType":"bytes32","name":"","type":"bytes32"}],"stateMutability":"view","type":"function"},{"inputs":[],"name":"MAXIMUM_ALLOWED_SLIPPAGE","outputs":[{"internalType":"uint256","name":"","type":"uint256"}],"stateMutability":"view","type":"function"},{"inputs":[],"name":"MAX_FEE_STORAGE","outputs":[{"internalType":"uint256","name":"","type":"uint256"}],"stateMutability":"view","type":"function"},{"inputs":[],"name":"MAX_SINGLE_SWAP","outputs":[{"internalType":"uint256","name":"","type":"uint256"}],"stateMutability":"view","type":"function"},{"inputs":[],"name":"MAX_SWAP_AMOUNT_PERCENT","outputs":[{"internalType":"uint256","name":"","type":"uint256"}],"stateMutability":"view","type":"function"},{"inputs":[],"name":"MIN_OUTPUT_AMOUNT","outputs":[{"internalType":"uint256","name":"","type":"uint256"}],"stateMutability":"view","type":"function"},{"inputs":[],"name":"MIN_SWAP_AMOUNT","outputs":[{"internalType":"uint256","name":"","type":"uint256"}],"stateMutability":"view","type":"function"},{"inputs":[],"name":"MIN_TIME_BETWEEN_SWAPS","outputs":[{"internalType":"uint256","name":"","type":"uint256"}],"stateMutability":"view","type":"function"},{"inputs":[{"internalType":"address","name":"token","type":"address"}],"name":"checkFeesForRedeployment","outputs":[{"internalType":"bool","name":"needsRedeploy","type":"bool"},{"internalType":"uint256","name":"amount","type":"uint256"}],"stateMutability":"view","type":"function"},{"inputs":[],"name":"coralToken","outputs":[{"internalType":"address","name":"","type":"address"}],"stateMutability":"view","type":"function"},{"inputs":[{"internalType":"uint256","name":"amountIn","type":"uint256"},{"internalType":"uint256","name":"reserveIn","type":"uint256"},{"internalType":"uint256","name":"reserveOut","type":"uint256"}],"name":"getAmountOut","outputs":[{"internalType":"uint256","name":"","type":"uint256"}],"stateMutability":"pure","type":"function"},{"inputs":[{"internalType":"uint256","name":"amountIn","type":"uint256"},{"internalType":"address[]","name":"path","type":"address[]"}],"name":"getAmountOutWithFees","outputs":[{"internalType":"uint256","name":"","type":"uint256"}],"stateMutability":"view","type":"function"},{"inputs":[{"internalType":"bytes32","name":"role","type":"bytes32"}],"name":"getRoleAdmin","outputs":[{"internalType":"bytes32","name":"","type":"bytes32"}],"stateMutability":"view","type":"function"},{"inputs":[],"name":"getSlippageSettings","outputs":[{"internalType":"uint256","name":"defaultSlippage","type":"uint256"},{"internalType":"uint256","name":"currentMaxSlippage","type":"uint256"},{"internalType":"uint256","name":"absoluteMaximum","type":"uint256"}],"stateMutability":"view","type":"function"},{"inputs":[{"internalType":"address","name":"token","type":"address"}],"name":"getWithdrawableFees","outputs":[{"internalType":"uint256","name":"","type":"uint256"}],"stateMutability":"view","type":"function"},{"inputs":[{"internalType":"bytes32","name":"role","type":"bytes32"},{"internalType":"address","name":"account","type":"address"}],"name":"grantRole","outputs":[],"stateMutability":"nonpayable","type":"function"},{"inputs":[{"internalType":"bytes32","name":"role","type":"bytes32"},{"internalType":"address","name":"account","type":"address"}],"name":"hasRole","outputs":[{"internalType":"bool","name":"","type":"bool"}],"stateMutability":"view","type":"function"},{"inputs":[{"internalType":"address","name":"token","type":"address"},{"internalType":"uint256","name":"amount","type":"uint256"}],"name":"hasTokenBalance","outputs":[{"internalType":"bool","name":"","type":"bool"}],"stateMutability":"view","type":"function"},{"inputs":[{"internalType":"address","name":"token","type":"address"}],"name":"isNativeCoral","outputs":[{"internalType":"bool","name":"","type":"bool"}],"stateMutability":"pure","type":"function"},{"inputs":[{"internalType":"uint256","name":"amount","type":"uint256"}],"name":"isValidSwapAmount","outputs":[{"internalType":"bool","name":"","type":"bool"}],"stateMutability":"pure","type":"function"},{"inputs":[{"internalType":"address","name":"","type":"address"}],"name":"lastSwapTimestamp","outputs":[{"internalType":"uint256","name":"","type":"uint256"}],"stateMutability":"view","type":"function"},{"inputs":[],"name":"liquidityManager","outputs":[{"internalType":"contract SaraLiquidityManager","name":"","type":"address"}],"stateMutability":"view","type":"function"},{"inputs":[],"name":"owner","outputs":[{"internalType":"address","name":"","type":"address"}],"stateMutability":"view","type":"function"},{"inputs":[],"name":"renounceOwnership","outputs":[],"stateMutability":"nonpayable","type":"function"},{"inputs":[{"internalType":"bytes32","name":"role","type":"bytes32"},{"internalType":"address","name":"callerConfirmation","type":"address"}],"name":"renounceRole","outputs":[],"stateMutability":"nonpayable","type":"function"},{"inputs":[{"internalType":"bytes32","name":"role","type":"bytes32"},{"internalType":"address","name":"account","type":"address"}],"name":"revokeRole","outputs":[],"stateMutability":"nonpayable","type":"function"},{"inputs":[{"internalType":"address","name":"","type":"address"}],"name":"storedFees","outputs":[{"internalType":"uint256","name":"","type":"uint256"}],"stateMutability":"view","type":"function"},{"inputs":[{"internalType":"bytes4","name":"interfaceId","type":"bytes4"}],"name":"supportsInterface","outputs":[{"internalType":"bool","name":"","type":"bool"}],"stateMutability":"view","type":"function"},{"inputs":[{"internalType":"address","name":"creatorToken","type":"address"},{"internalType":"uint256","name":"amountIn","type":"uint256"},{"internalType":"uint256","name":"minAmountOut","type":"uint256"},{"internalType":"uint256","name":"maxSlippage","type":"uint256"}],"name":"swapCoralForCreatorToken","outputs":[{"internalType":"uint256","name":"","type":"uint256"}],"stateMutability":"nonpayable","type":"function"},{"inputs":[{"internalType":"address","name":"creatorToken","type":"address"},{"internalType":"uint256","name":"amountIn","type":"uint256"},{"internalType":"uint256","name":"minAmountOut","type":"uint256"},{"internalType":"uint256","name":"maxSlippage","type":"uint256"}],"name":"swapCreatorTokenForCoral","outputs":[],"stateMutability":"nonpayable","type":"function"},{"inputs":[],"name":"swapFee","outputs":[{"internalType":"uint256","name":"","type":"uint256"}],"stateMutability":"view","type":"function"},{"inputs":[{"internalType":"address","name":"newOwner","type":"address"}],"name":"transferOwnership","outputs":[],"stateMutability":"nonpayable","type":"function"},{"inputs":[{"internalType":"uint256","name":"newMaxSlippage","type":"uint256"}],"name":"updateMaxSlippage","outputs":[],"stateMutability":"nonpayable","type":"function"},{"inputs":[{"internalType":"uint256","name":"newFee","type":"uint256"}],"name":"updateSwapFee","outputs":[],"stateMutability":"nonpayable","type":"function"},{"inputs":[{"internalType":"uint256","name":"slippage","type":"uint256"}],"name":"validateSlippage","outputs":[{"internalType":"bool","name":"","type":"bool"},{"internalType":"string","name":"","type":"string"}],"stateMutability":"view","type":"function"},{"inputs":[{"internalType":"address","name":"token","type":"address"},{"internalType":"uint256","name":"amount","type":"uint256"}],"name":"withdrawStoredFees","outputs":[],"stateMutability":"nonpayable","type":"function"}],"evm":{"bytecode":{"linkReferences":{},"object":"60a03461015857601f61243838819003918201601f19168301916001600160401b0383118484101761015d5780849260409485528339810103126101585780516001600160a01b038116919082900361015857602001516001600160a01b038116908190036101585733156101425760008054336001600160a01b03198216811783556100f8949290916001600160a01b0316907f8be0079c531659141344cd1fd0a4f28419497f9722a3daafe3b4186f6b6457e09080a3601e6004556101f46080526103e8600755600280546001600160a01b031990811692909217905560038054909116821790556100f233610173565b506101ef565b50604051612150908161028882396080518181816102420152818161044d0152818161095e01528181610a3301528181610e8c0152818161136c015281816115590152611c580152f35b631e4fbdf760e01b600052600060045260246000fd5b600080fd5b634e487b7160e01b600052604160045260246000fd5b6001600160a01b03811660009081526000805160206123f8833981519152602052604090205460ff166101e9576001600160a01b031660008181526000805160206123f883398151915260205260408120805460ff191660011790553391906000805160206123d88339815191528180a4600190565b50600090565b6001600160a01b0381166000908152600080516020612418833981519152602052604090205460ff166101e9576001600160a01b0316600081815260008051602061241883398151915260205260408120805460ff191660011790553391907f77e60b99a50d27fb027f6912a507d956105b4148adab27a86d235c8bcca8fa2f906000805160206123d88339815191529080a460019056fe608080604052600436101561001357600080fd5b60003560e01c90816301ffc9a7146115db5750806302e9d3e8146115a1578063054d50d41461157d5780630c28192f146112fe57806311a9992e146112e2578063125c1204146102b657806313079df514611099578063242f05511461105e578063248a9ca314611031578063268b69cb14610fd55780632f2ff15d14610f955780633382743814610f6c57806336568abe14610f2657806354cf2aeb14610f085780636604b53a14610e29578063715018a614610eaf578063797cb5a214610d9057806385015e0914610e745780638ac058cc14610e575780638da5cb5b14610e2e57806390cd369414610e2957806391d1485414610ddc57806394590aca14610d9557806399f34c1214610d90578063a08a522014610c04578063a217fddf14610be8578063bba2e14014610bbf578063bf16f65a14610a63578063c54e1d3814610a17578063c838889e146109e6578063d547741f1461099f578063d855dc7e14610983578063dcefe5b6146103fb578063e7b0444c146103dd578063e7ca44ef146103b8578063f2c75fa014610379578063f2fde38b146102f0578063f81bdc23146102b6578063f896acc7146102015763fb28ceb2146101d757600080fd5b346101fc5760203660031901126101fc576101f061162e565b50602060405160008152f35b600080fd5b346101fc5760203660031901126101fc5760043561021d611f44565b6007549061023561022c611ba8565b83831415611b08565b610269610240611be3565b7f0000000000000000000000000000000000000000000000000000000000000000831015611b08565b61027f610274611c1e565b6107d0831115611b08565b8060075560405191825260208201527f701caa0f8ada7952fb1d301bdfc04ed8b66396fe0181a18d0f2fe16ea0af154760403392a2005b346101fc5760203660031901126101fc576001600160a01b036102d761162e565b1660005260066020526020604060002054604051908152f35b346101fc5760203660031901126101fc5761030961162e565b610311611f44565b6001600160a01b0316801561036357600080546001600160a01b03198116831782556001600160a01b0316907f8be0079c531659141344cd1fd0a4f28419497f9722a3daafe3b4186f6b6457e09080a3005b631e4fbdf760e01b600052600060045260246000fd5b346101fc5760203660031901126101fc57610395600435611c4d565b906103b4604051928392151583526040602084015260408301906116ce565b0390f35b346101fc5760003660031901126101fc57602060405169021e19e0c9bab24000008152f35b346101fc5760003660031901126101fc576020600754604051908152f35b346101fc576104093661165a565b929092336000526005602052604060002054603c810180911161088a5761043290421015611979565b6104406007548211156119b6565b801561095b57925b6104747f00000000000000000000000000000000000000000000000000000000000000008510156119f6565b60035460408051630fa6707960e21b81526001600160a01b0385811660048301819052979391929183916024918391165afa801561070457600091829161092a575b508186116108e5576002546104d59087906001600160a01b0316611b38565b156108a05760058202908282046005148315171561088a576105409261050360646105099404891115611a83565b8761172f565b9261053961271061053261052b826105236004548a61170f565b048098611ac0565b958661170f565b0484611ac0565b10156119b6565b6040516370a0823160e01b8152336004820152602081602481895afa8015610704578591600091610855575b501061080557604051636eb1769f60e11b8152336004820152306024820152602081604481895afa80156107045785916000916107d0575b501061077f576105b684303388611cbc565b3315610746578015610710576002546040516370a0823160e01b81523060048201526001600160a01b0390911690602081602481855afa908115610704576000916106b2575b507f5eb78b6fb12f1af3519b0bbd134251f3b57d2c31dcc8a5fcb871971ce5eb8a71946106448461067b9461063d889583610635611acd565b911015611b08565b3390611f09565b6040518481524260208201527f997d41a3a2d02ddf7873eeeaa626fcc250ea57a73e1dad920f8656df12fcd9af60403392a2611d07565b336000526005602052426040600020556106ad6040519283923396846040919493926060820195825260208201520152565b0390a3005b90506020813d6020116106fc575b816106cd60209383611a35565b810103126101fc57517f5eb78b6fb12f1af3519b0bbd134251f3b57d2c31dcc8a5fcb871971ce5eb8a716105fc565b3d91506106c0565b6040513d6000823e3d90fd5b60405162461bcd60e51b815260206004820152600e60248201526d125b9d985b1a5908185b5bdd5b9d60921b6044820152606490fd5b60405162461bcd60e51b8152602060048201526011602482015270125b9d985b1a59081c9958da5c1a595b9d607a1b6044820152606490fd5b60405162461bcd60e51b8152602060048201526024808201527f496e73756666696369656e742063726561746f7220746f6b656e20616c6c6f77604482015263616e636560e01b6064820152608490fd5b9150506020813d6020116107fd575b816107ec60209383611a35565b810103126101fc57849051876105a4565b3d91506107df565b60405162461bcd60e51b815260206004820152602260248201527f496e73756666696369656e742063726561746f7220746f6b656e2062616c616e604482015261636560f01b6064820152608490fd5b9150506020813d602011610882575b8161087160209383611a35565b810103126101fc578490518761056c565b3d9150610864565b634e487b7160e01b600052601160045260246000fd5b60405162461bcd60e51b815260206004820152601c60248201527f4e6f20434f52414c206c697175696469747920617661696c61626c65000000006044820152606490fd5b60405162461bcd60e51b815260206004820152601e60248201527f496e73756666696369656e742063726561746f72206c697175696469747900006044820152606490fd5b905061094e915060403d604011610954575b6109468183611a35565b810190611a6d565b876104b6565b503d61093c565b507f000000000000000000000000000000000000000000000000000000000000000092610448565b346101fc5760003660031901126101fc57602060405160058152f35b346101fc5760403660031901126101fc576109e46004356109be611644565b906109df6109da82600052600160205260016040600020015490565b611f6d565b612039565b005b346101fc5760403660031901126101fc576020610a0d610a0461162e565b60243590611b38565b6040519015158152f35b346101fc5760003660031901126101fc576060600754604051907f0000000000000000000000000000000000000000000000000000000000000000825260208201526107d06040820152f35b346101fc5760203660031901126101fc573360009081527fa3a28e4f80d0370a78b193fd33bfbf2f186095dc1b2bb43340c272507b8d707a60205260409020546004359060ff1615610b7a5760648111610b3e5760045490818114610af9578060045560405191825260208201527febec684f5bc1195db981300ece744bc7e58ddd0013fba15583c6ce3c5eb4cdec60403392a2005b60405162461bcd60e51b815260206004820152601760248201527f4e6577206665652073616d652061732063757272656e740000000000000000006044820152606490fd5b60405162461bcd60e51b81526020600482015260146024820152734665652063616e6e6f742065786365656420312560601b6044820152606490fd5b60405162461bcd60e51b815260206004820152601760248201527f4e6f742061206c6971756964697479206d616e616765720000000000000000006044820152606490fd5b346101fc5760003660031901126101fc576002546040516001600160a01b039091168152602090f35b346101fc5760003660031901126101fc57602060405160008152f35b346101fc5760403660031901126101fc5760243567ffffffffffffffff81116101fc57366023820112156101fc57806004013567ffffffffffffffff81116101fc573660248260051b840101116101fc5760028110610d55576003546001600160a01b0316916000198201828111926000929091600435855b61088a5781851015610d31576001850180861161088a5784811015610d1b5760249060051b840101359060018060a01b0382168092036101fc5760405191630fa6707960e21b835260048301526040826024818b5afa801561070457600192610cf0926000918293610cf9575b5061172f565b94019385610c7d565b909250610d14915060403d8111610954576109468183611a35565b918b610cea565b634e487b7160e01b600052603260045260246000fd5b610d4d602091612710610d466004548361170f565b0490611ac0565b604051908152f35b60405162461bcd60e51b8152602060048201526013602482015272092dcecc2d8d2c840e0c2e8d040d8cadccee8d606b1b6044820152606490fd5b6116ac565b346101fc5760203660031901126101fc57602060043566038d7ea4c680008110159081610dc8575b506040519015158152f35b683635c9adc5dea000009150111582610dbd565b346101fc5760403660031901126101fc57610df5611644565b600435600052600160205260406000209060018060a01b0316600052602052602060ff604060002054166040519015158152f35b611688565b346101fc5760003660031901126101fc576000546040516001600160a01b039091168152602090f35b346101fc5760003660031901126101fc5760206040516107d08152f35b346101fc5760003660031901126101fc5760206040517f00000000000000000000000000000000000000000000000000000000000000008152f35b346101fc5760003660031901126101fc57610ec8611f44565b600080546001600160a01b0319811682556001600160a01b03167f8be0079c531659141344cd1fd0a4f28419497f9722a3daafe3b4186f6b6457e08280a3005b346101fc5760003660031901126101fc576020600454604051908152f35b346101fc5760403660031901126101fc57610f3f611644565b336001600160a01b03821603610f5b576109e490600435612039565b63334bd91960e11b60005260046000fd5b346101fc5760003660031901126101fc576003546040516001600160a01b039091168152602090f35b346101fc5760403660031901126101fc576109e4600435610fb4611644565b90610fd06109da82600052600160205260016040600020015490565b611faa565b346101fc5760203660031901126101fc576001600160a01b03610ff661162e565b16600052600660205260408060002054683635c9adc5dea000008110159081600014611029575b82519182526020820152f35b50600061101d565b346101fc5760203660031901126101fc576020610d4d600435600052600160205260016040600020015490565b346101fc5760003660031901126101fc5760206040517f77e60b99a50d27fb027f6912a507d956105b4148adab27a86d235c8bcca8fa2f8152f35b346101fc5760403660031901126101fc576110b261162e565b602435906110be611f44565b6001600160a01b03169081156112a557801561126057816000526006602052806040600020541061121b5769021e19e0c9bab240000081116111dd578160005260066020526040600020611113828254611ac0565b90556040516370a0823160e01b8152306004820152602081602481865afa9081156107045760009161118b575b50816111726040927fa423987bc38eff6f10df0f3a2bc41f3394177d8602562dc2f98baabec8c811ab94610635611acd565b61117d813386611f09565b8151908152426020820152a2005b90506020813d6020116111d5575b816111a660209383611a35565b810103126101fc57517fa423987bc38eff6f10df0f3a2bc41f3394177d8602562dc2f98baabec8c811ab611140565b3d9150611199565b60405162461bcd60e51b8152602060048201526016602482015275416d6f756e742065786365656473206d6178696d756d60501b6044820152606490fd5b60405162461bcd60e51b815260206004820152601860248201527f496e73756666696369656e742073746f726564206665657300000000000000006044820152606490fd5b60405162461bcd60e51b815260206004820152601960248201527f496e76616c6964207769746864726177616c20616d6f756e74000000000000006044820152606490fd5b60405162461bcd60e51b8152602060048201526015602482015274496e76616c696420746f6b656e206164647265737360581b6044820152606490fd5b346101fc5760003660031901126101fc576020604051603c8152f35b346101fc5761130c3661165a565b92919092336000526005602052604060002054603c810180911161088a5761133690421015611979565b600254611351908390309033906001600160a01b0316611cbc565b61135f6007548211156119b6565b801561155357611392905b7f000000000000000000000000000000000000000000000000000000000000000011156119f6565b60035460408051630fa6707960e21b81526001600160a01b0385811660048301819052949391929183916024918391165afa90811561070457600090600092611531575b5080151580611528575b156114ea5760058202918083046005148115171561088a5761140a60646114109404851115611a83565b8361172f565b9384106114a5577f5eb78b6fb12f1af3519b0bbd134251f3b57d2c31dcc8a5fcb871971ce5eb8a7161149a61145d6114636020976127106114536004548361170f565b0492838092611ac0565b97611d07565b33600052600587524260406000205561147d863387611f09565b604080519485526020850187905284015233929081906060820190565b0390a3604051908152f35b60405162461bcd60e51b815260206004820152601a60248201527f496e73756666696369656e74206f757470757420616d6f756e740000000000006044820152606490fd5b60405162461bcd60e51b8152602060048201526016602482015275496e73756666696369656e74206c697175696469747960501b6044820152606490fd5b508115156113e0565b905061154c915060403d604011610954576109468183611a35565b90866113d6565b506113927f000000000000000000000000000000000000000000000000000000000000000061136a565b346101fc5760603660031901126101fc576020610d4d60443560243560043561172f565b346101fc5760203660031901126101fc576001600160a01b036115c261162e565b1660005260056020526020604060002054604051908152f35b346101fc5760203660031901126101fc576004359063ffffffff60e01b82168092036101fc57602091637965db0b60e01b811490811561161d575b5015158152f35b6301ffc9a760e01b14905083611616565b600435906001600160a01b03821682036101fc57565b602435906001600160a01b03821682036101fc57565b60809060031901126101fc576004356001600160a01b03811681036101fc5790602435906044359060643590565b346101fc5760003660031901126101fc576020604051683635c9adc5dea000008152f35b346101fc5760003660031901126101fc57602060405166038d7ea4c680008152f35b919082519283825260005b8481106116fa575050826000602080949584010152601f8019910116010190565b806020809284010151828286010152016116d9565b8181029291811591840414171561088a57565b9190820180921161088a57565b801561193d57811592831580611934575b156118fc578282116118b75766038d7ea4c68000821061187b577e41bbb2f80a4553f6c19ad51e8e40314cc63a07b3fef911341fd6eab024f994821161182a576103e582029182046103e50361088a5761179a908261170f565b926103e883029283046103e814171561088a576117b691611722565b908115611814570466038d7ea4c6800081106117cf5790565b60405162461bcd60e51b815260206004820152601960248201527f53776170206f75747075742062656c6f77206d696e696d756d000000000000006044820152606490fd5b634e487b7160e01b600052601260045260246000fd5b60405162461bcd60e51b8152602060048201526024808201527f416d6f756e7420746f6f206c6172676520666f72206665652063616c63756c616044820152633a34b7b760e11b6064820152608490fd5b60405162461bcd60e51b8152602060048201526014602482015273416d6f756e742062656c6f77206d696e696d756d60601b6044820152606490fd5b60405162461bcd60e51b815260206004820152601c60248201527f5377617020616d6f756e742065786365656473207265736572766573000000006044820152606490fd5b60405162461bcd60e51b815260206004820152601060248201526f496e76616c696420726573657276657360801b6044820152606490fd5b50801515611740565b60405162461bcd60e51b8152602060048201526014602482015273125b9d985b1a59081a5b9c1d5d08185b5bdd5b9d60621b6044820152606490fd5b1561198057565b60405162461bcd60e51b815260206004820152600e60248201526d546f6f206d616e7920737761707360901b6044820152606490fd5b156119bd57565b60405162461bcd60e51b81526020600482015260116024820152700a6d8d2e0e0c2ceca40e8dede40d0d2ced607b1b6044820152606490fd5b156119fd57565b60405162461bcd60e51b815260206004820152601060248201526f496e76616c696420736c69707061676560801b6044820152606490fd5b90601f8019910116810190811067ffffffffffffffff821117611a5757604052565b634e487b7160e01b600052604160045260246000fd5b91908260409103126101fc576020825192015190565b15611a8a57565b60405162461bcd60e51b815260206004820152600e60248201526d5377617020746f6f206c6172676560901b6044820152606490fd5b9190820391821161088a57565b60405190611adc604083611a35565b602082527f496e73756666696369656e7420434f52414c20746f6b656e2062616c616e63656020830152565b15611b105750565b60405162461bcd60e51b815260206004820152908190611b349060248301906116ce565b0390fd5b6040516370a0823160e01b815230600482015290602090829060249082906001600160a01b03165afa90811561070457600091611b76575b50101590565b90506020813d602011611ba0575b81611b9160209383611a35565b810103126101fc575138611b70565b3d9150611b84565b60405190611bb7604083611a35565b601c82527f4e657720736c6970706167652073616d652061732063757272656e74000000006020830152565b60405190611bf2604083611a35565b601c82527f43616e6e6f74206265206c6f776572207468616e2064656661756c74000000006020830152565b60405190611c2d604083611a35565b601182527043616e6e6f74206578636565642032302560781b6020830152565b6007548114611cb3577f00000000000000000000000000000000000000000000000000000000000000008110611caa576107d010611c9d57600190604051611c96602082611a35565b6000815290565b611ca5611c1e565b600091565b50611ca5611be3565b50611ca5611ba8565b6040516323b872dd60e01b60208201526001600160a01b039283166024820152929091166044830152606480830193909352918152611d0591611d00608483611a35565b6120bf565b565b60009060018060a01b031691828252600660205269021e19e0c9bab2400000611d34826040852054611722565b11611ec4578282526006602052611d5060408320918254611722565b90558181526006602052683635c9adc5dea0000060408220541015611d73575050565b81815260066020526040812054828252600660205260408220549160018060a01b0360035416803b15611ec05781809160246040518095819363bc99f48760e01b83528a60048401525af19182611eb0575b5090611dfb57507fc2af8177b25272aa44b4eafdf3cc4916749b55dced944e081e11d1e1a9ac7ec29150602090604051908152a2565b838152600660205260409020548381611e3f5750507f030a9a7748b75a6ebf9c7cb2beac00be9bcc421abcf4793aa03dd54a461594ac9150602090604051908152a2565b60209250611e6e827fc2af8177b25272aa44b4eafdf3cc4916749b55dced944e081e11d1e1a9ac7ec295611ac0565b80611e7f575b5050604051908152a2565b837f030a9a7748b75a6ebf9c7cb2beac00be9bcc421abcf4793aa03dd54a461594ac91604051908152a28338611e74565b81611eba91611a35565b38611dc5565b5080fd5b60405162461bcd60e51b815260206004820152601960248201527f4665652073746f72616765206c696d69742072656163686564000000000000006044820152606490fd5b60405163a9059cbb60e01b60208201526001600160a01b039092166024830152604480830193909352918152611d0591611d00606483611a35565b6000546001600160a01b03163303611f5857565b63118cdaa760e01b6000523360045260246000fd5b600081815260016020908152604080832033845290915290205460ff1615611f925750565b63e2517d3f60e01b6000523360045260245260446000fd5b60008181526001602090815260408083206001600160a01b038616845290915290205460ff166120325760008181526001602081815260408084206001600160a01b0396909616808552959091528220805460ff19169091179055339291907f2f8788117e7eff1d82e926ec794901d17c78024a50270940304540a733656f0d9080a4600190565b5050600090565b60008181526001602090815260408083206001600160a01b038616845290915290205460ff16156120325760008181526001602090815260408083206001600160a01b0395909516808452949091528120805460ff19169055339291907ff6391f5c32d9c69d2a47ea670b442974b53935d1edc7fd64eb21e047a839171b9080a4600190565b906000602091828151910182855af115610704576000513d61211157506001600160a01b0381163b155b6120f05750565b635274afe760e01b60009081526001600160a01b0391909116600452602490fd5b600114156120e956fea2646970667358221220f0265bc94521326318c8daeb399299033f364535c835e304cb4c0f977da612fa64736f6c634300081c00332f8788117e7eff1d82e926ec794901d17c78024a50270940304540a733656f0da6eef7e35abe7026729641147f7915573c7e97b47efa546f5f6e3230263bcb49a3a28e4f80d0370a78b193fd33bfbf2f186095dc1b2bb43340c272507b8d707a","opcodes":"PUSH1 0xA0 CALLVALUE PUSH2 0x158 JUMPI PUSH1 0x1F PUSH2 0x2438 CODESIZE DUP2 SWAP1 SUB SWAP2 DUP3 ADD PUSH1 0x1F NOT AND DUP4 ADD SWAP2 PUSH1 0x1 PUSH1 0x1 PUSH1 0x40 SHL SUB DUP4 GT DUP5 DUP5 LT OR PUSH2 0x15D JUMPI DUP1 DUP5 SWAP3 PUSH1 0x40 SWAP5 DUP6 MSTORE DUP4 CODECOPY DUP2 ADD SUB SLT PUSH2 0x158 JUMPI DUP1 MLOAD PUSH1 0x1 PUSH1 0x1 PUSH1 0xA0 SHL SUB DUP2 AND SWAP2 SWAP1 DUP3 SWAP1 SUB PUSH2 0x158 JUMPI PUSH1 0x20 ADD MLOAD PUSH1 0x1 PUSH1 0x1 PUSH1 0xA0 SHL SUB DUP2 AND SWAP1 DUP2 SWAP1 SUB PUSH2 0x158 JUMPI CALLER ISZERO PUSH2 0x142 JUMPI PUSH1 0x0 DUP1 SLOAD CALLER PUSH1 0x1 PUSH1 0x1 PUSH1 0xA0 SHL SUB NOT DUP3 AND DUP2 OR DUP4 SSTORE PUSH2 0xF8 SWAP5 SWAP3 SWAP1 SWAP2 PUSH1 0x1 PUSH1 0x1 PUSH1 0xA0 SHL SUB AND SWAP1 PUSH32 0x8BE0079C531659141344CD1FD0A4F28419497F9722A3DAAFE3B4186F6B6457E0 SWAP1 DUP1 LOG3 PUSH1 0x1E PUSH1 0x4 SSTORE PUSH2 0x1F4 PUSH1 0x80 MSTORE PUSH2 0x3E8 PUSH1 0x7 SSTORE PUSH1 0x2 DUP1 SLOAD PUSH1 0x1 PUSH1 0x1 PUSH1 0xA0 SHL SUB NOT SWAP1 DUP2 AND SWAP3 SWAP1 SWAP3 OR SWAP1 SSTORE PUSH1 0x3 DUP1 SLOAD SWAP1 SWAP2 AND DUP3 OR SWAP1 SSTORE PUSH2 0xF2 CALLER PUSH2 0x173 JUMP JUMPDEST POP PUSH2 0x1EF JUMP JUMPDEST POP PUSH1 0x40 MLOAD PUSH2 0x2150 SWAP1 DUP2 PUSH2 0x288 DUP3 CODECOPY PUSH1 0x80 MLOAD DUP2 DUP2 DUP2 PUSH2 0x242 ADD MSTORE DUP2 DUP2 PUSH2 0x44D ADD MSTORE DUP2 DUP2 PUSH2 0x95E ADD MSTORE DUP2 DUP2 PUSH2 0xA33 ADD MSTORE DUP2 DUP2 PUSH2 0xE8C ADD MSTORE DUP2 DUP2 PUSH2 0x136C ADD MSTORE DUP2 DUP2 PUSH2 0x1559 ADD MSTORE PUSH2 0x1C58 ADD MSTORE RETURN JUMPDEST PUSH4 0x1E4FBDF7 PUSH1 0xE0 SHL PUSH1 0x0 MSTORE PUSH1 0x0 PUSH1 0x4 MSTORE PUSH1 0x24 PUSH1 0x0 REVERT JUMPDEST PUSH1 0x0 DUP1 REVERT JUMPDEST PUSH4 0x4E487B71 PUSH1 0xE0 SHL PUSH1 0x0 MSTORE PUSH1 0x41 PUSH1 0x4 MSTORE PUSH1 0x24 PUSH1 0x0 REVERT JUMPDEST PUSH1 0x1 PUSH1 0x1 PUSH1 0xA0 SHL SUB DUP2 AND PUSH1 0x0 SWAP1 DUP2 MSTORE PUSH1 0x0 DUP1 MLOAD PUSH1 0x20 PUSH2 0x23F8 DUP4 CODECOPY DUP2 MLOAD SWAP2 MSTORE PUSH1 0x20 MSTORE PUSH1 0x40 SWAP1 KECCAK256 SLOAD PUSH1 0xFF AND PUSH2 0x1E9 JUMPI PUSH1 0x1 PUSH1 0x1 PUSH1 0xA0 SHL SUB AND PUSH1 0x0 DUP2 DUP2 MSTORE PUSH1 0x0 DUP1 MLOAD PUSH1 0x20 PUSH2 0x23F8 DUP4 CODECOPY DUP2 MLOAD SWAP2 MSTORE PUSH1 0x20 MSTORE PUSH1 0x40 DUP2 KECCAK256 DUP1 SLOAD PUSH1 0xFF NOT AND PUSH1 0x1 OR SWAP1 SSTORE CALLER SWAP2 SWAP1 PUSH1 0x0 DUP1 MLOAD PUSH1 0x20 PUSH2 0x23D8 DUP4 CODECOPY DUP2 MLOAD SWAP2 MSTORE DUP2 DUP1 LOG4 PUSH1 0x1 SWAP1 JUMP JUMPDEST POP PUSH1 0x0 SWAP1 JUMP JUMPDEST PUSH1 0x1 PUSH1 0x1 PUSH1 0xA0 SHL SUB DUP2 AND PUSH1 0x0 SWAP1 DUP2 MSTORE PUSH1 0x0 DUP1 MLOAD PUSH1 0x20 PUSH2 0x2418 DUP4 CODECOPY DUP2 MLOAD SWAP2 MSTORE PUSH1 0x20 MSTORE PUSH1 0x40 SWAP1 KECCAK256 SLOAD PUSH1 0xFF AND PUSH2 0x1E9 JUMPI PUSH1 0x1 PUSH1 0x1 PUSH1 0xA0 SHL SUB AND PUSH1 0x0 DUP2 DUP2 MSTORE PUSH1 0x0 DUP1 MLOAD PUSH1 0x20 PUSH2 0x2418 DUP4 CODECOPY DUP2 MLOAD SWAP2 MSTORE PUSH1 0x20 MSTORE PUSH1 0x40 DUP2 KECCAK256 DUP1 SLOAD PUSH1 0xFF NOT AND PUSH1 0x1 OR SWAP1 SSTORE CALLER SWAP2 SWAP1 PUSH32 0x77E60B99A50D27FB027F6912A507D956105B4148ADAB27A86D235C8BCCA8FA2F SWAP1 PUSH1 0x0 DUP1 MLOAD PUSH1 0x20 PUSH2 0x23D8 DUP4 CODECOPY DUP2 MLOAD SWAP2 MSTORE SWAP1 DUP1 LOG4 PUSH1 0x1 SWAP1 JUMP INVALID PUSH1 0x80 DUP1 PUSH1 0x40 MSTORE PUSH1 0x4 CALLDATASIZE LT ISZERO PUSH2 0x13 JUMPI PUSH1 0x0 DUP1 REVERT JUMPDEST PUSH1 0x0 CALLDATALOAD PUSH1 0xE0 SHR SWAP1 DUP2 PUSH4 0x1FFC9A7 EQ PUSH2 0x15DB JUMPI POP DUP1 PUSH4 0x2E9D3E8 EQ PUSH2 0x15A1 JUMPI DUP1 PUSH4 0x54D50D4 EQ PUSH2 0x157D JUMPI DUP1 PUSH4 0xC28192F EQ PUSH2 0x12FE JUMPI DUP1 PUSH4 0x11A9992E EQ PUSH2 0x12E2 JUMPI DUP1 PUSH4 0x125C1204 EQ PUSH2 0x2B6 JUMPI DUP1 PUSH4 0x13079DF5 EQ PUSH2 0x1099 JUMPI DUP1 PUSH4 0x242F0551 EQ PUSH2 0x105E JUMPI DUP1 PUSH4 0x248A9CA3 EQ PUSH2 0x1031 JUMPI DUP1 PUSH4 0x268B69CB EQ PUSH2 0xFD5 JUMPI DUP1 PUSH4 0x2F2FF15D EQ PUSH2 0xF95 JUMPI DUP1 PUSH4 0x33827438 EQ PUSH2 0xF6C JUMPI DUP1 PUSH4 0x36568ABE EQ PUSH2 0xF26 JUMPI DUP1 PUSH4 0x54CF2AEB EQ PUSH2 0xF08 JUMPI DUP1 PUSH4 0x6604B53A EQ PUSH2 0xE29 JUMPI DUP1 PUSH4 0x715018A6 EQ PUSH2 0xEAF JUMPI DUP1 PUSH4 0x797CB5A2 EQ PUSH2 0xD90 JUMPI DUP1 PUSH4 0x85015E09 EQ PUSH2 0xE74 JUMPI DUP1 PUSH4 0x8AC058CC EQ PUSH2 0xE57 JUMPI DUP1 PUSH4 0x8DA5CB5B EQ PUSH2 0xE2E JUMPI DUP1 PUSH4 0x90CD3694 EQ PUSH2 0xE29 JUMPI DUP1 PUSH4 0x91D14854 EQ PUSH2 0xDDC JUMPI DUP1 PUSH4 0x94590ACA EQ PUSH2 0xD95 JUMPI DUP1 PUSH4 0x99F34C12 EQ PUSH2 0xD90 JUMPI DUP1 PUSH4 0xA08A5220 EQ PUSH2 0xC04 JUMPI DUP1 PUSH4 0xA217FDDF EQ PUSH2 0xBE8 JUMPI DUP1 PUSH4 0xBBA2E140 EQ PUSH2 0xBBF JUMPI DUP1 PUSH4 0xBF16F65A EQ PUSH2 0xA63 JUMPI DUP1 PUSH4 0xC54E1D38 EQ PUSH2 0xA17 JUMPI DUP1 PUSH4 0xC838889E EQ PUSH2 0x9E6 JUMPI DUP1 PUSH4 0xD547741F EQ PUSH2 0x99F JUMPI DUP1 PUSH4 0xD855DC7E EQ PUSH2 0x983 JUMPI DUP1 PUSH4 0xDCEFE5B6 EQ PUSH2 0x3FB JUMPI DUP1 PUSH4 0xE7B0444C EQ PUSH2 0x3DD JUMPI DUP1 PUSH4 0xE7CA44EF EQ PUSH2 0x3B8 JUMPI DUP1 PUSH4 0xF2C75FA0 EQ PUSH2 0x379 JUMPI DUP1 PUSH4 0xF2FDE38B EQ PUSH2 0x2F0 JUMPI DUP1 PUSH4 0xF81BDC23 EQ PUSH2 0x2B6 JUMPI DUP1 PUSH4 0xF896ACC7 EQ PUSH2 0x201 JUMPI PUSH4 0xFB28CEB2 EQ PUSH2 0x1D7 JUMPI PUSH1 0x0 DUP1 REVERT JUMPDEST CALLVALUE PUSH2 0x1FC JUMPI PUSH1 0x20 CALLDATASIZE PUSH1 0x3 NOT ADD SLT PUSH2 0x1FC JUMPI PUSH2 0x1F0 PUSH2 0x162E JUMP JUMPDEST POP PUSH1 0x20 PUSH1 0x40 MLOAD PUSH1 0x0 DUP2 MSTORE RETURN JUMPDEST PUSH1 0x0 DUP1 REVERT JUMPDEST CALLVALUE PUSH2 0x1FC JUMPI PUSH1 0x20 CALLDATASIZE PUSH1 0x3 NOT ADD SLT PUSH2 0x1FC JUMPI PUSH1 0x4 CALLDATALOAD PUSH2 0x21D PUSH2 0x1F44 JUMP JUMPDEST PUSH1 0x7 SLOAD SWAP1 PUSH2 0x235 PUSH2 0x22C PUSH2 0x1BA8 JUMP JUMPDEST DUP4 DUP4 EQ ISZERO PUSH2 0x1B08 JUMP JUMPDEST PUSH2 0x269 PUSH2 0x240 PUSH2 0x1BE3 JUMP JUMPDEST PUSH32 0x0 DUP4 LT ISZERO PUSH2 0x1B08 JUMP JUMPDEST PUSH2 0x27F PUSH2 0x274 PUSH2 0x1C1E JUMP JUMPDEST PUSH2 0x7D0 DUP4 GT ISZERO PUSH2 0x1B08 JUMP JUMPDEST DUP1 PUSH1 0x7 SSTORE PUSH1 0x40 MLOAD SWAP2 DUP3 MSTORE PUSH1 0x20 DUP3 ADD MSTORE PUSH32 0x701CAA0F8ADA7952FB1D301BDFC04ED8B66396FE0181A18D0F2FE16EA0AF1547 PUSH1 0x40 CALLER SWAP3 LOG2 STOP JUMPDEST CALLVALUE PUSH2 0x1FC JUMPI PUSH1 0x20 CALLDATASIZE PUSH1 0x3 NOT ADD SLT PUSH2 0x1FC JUMPI PUSH1 0x1 PUSH1 0x1 PUSH1 0xA0 SHL SUB PUSH2 0x2D7 PUSH2 0x162E JUMP JUMPDEST AND PUSH1 0x0 MSTORE PUSH1 0x6 PUSH1 0x20 MSTORE PUSH1 0x20 PUSH1 0x40 PUSH1 0x0 KECCAK256 SLOAD PUSH1 0x40 MLOAD SWAP1 DUP2 MSTORE RETURN JUMPDEST CALLVALUE PUSH2 0x1FC JUMPI PUSH1 0x20 CALLDATASIZE PUSH1 0x3 NOT ADD SLT PUSH2 0x1FC JUMPI PUSH2 0x309 PUSH2 0x162E JUMP JUMPDEST PUSH2 0x311 PUSH2 0x1F44 JUMP JUMPDEST PUSH1 0x1 PUSH1 0x1 PUSH1 0xA0 SHL SUB AND DUP1 ISZERO PUSH2 0x363 JUMPI PUSH1 0x0 DUP1 SLOAD PUSH1 0x1 PUSH1 0x1 PUSH1 0xA0 SHL SUB NOT DUP2 AND DUP4 OR DUP3 SSTORE PUSH1 0x1 PUSH1 0x1 PUSH1 0xA0 SHL SUB AND SWAP1 PUSH32 0x8BE0079C531659141344CD1FD0A4F28419497F9722A3DAAFE3B4186F6B6457E0 SWAP1 DUP1 LOG3 STOP JUMPDEST PUSH4 0x1E4FBDF7 PUSH1 0xE0 SHL PUSH1 0x0 MSTORE PUSH1 0x0 PUSH1 0x4 MSTORE PUSH1 0x24 PUSH1 0x0 REVERT JUMPDEST CALLVALUE PUSH2 0x1FC JUMPI PUSH1 0x20 CALLDATASIZE PUSH1 0x3 NOT ADD SLT PUSH2 0x1FC JUMPI PUSH2 0x395 PUSH1 0x4 CALLDATALOAD PUSH2 0x1C4D JUMP JUMPDEST SWAP1 PUSH2 0x3B4 PUSH1 0x40 MLOAD SWAP3 DUP4 SWAP3 ISZERO ISZERO DUP4 MSTORE PUSH1 0x40 PUSH1 0x20 DUP5 ADD MSTORE PUSH1 0x40 DUP4 ADD SWAP1 PUSH2 0x16CE JUMP JUMPDEST SUB SWAP1 RETURN JUMPDEST CALLVALUE PUSH2 0x1FC JUMPI PUSH1 0x0 CALLDATASIZE PUSH1 0x3 NOT ADD SLT PUSH2 0x1FC JUMPI PUSH1 0x20 PUSH1 0x40 MLOAD PUSH10 0x21E19E0C9BAB2400000 DUP2 MSTORE RETURN JUMPDEST CALLVALUE PUSH2 0x1FC JUMPI PUSH1 0x0 CALLDATASIZE PUSH1 0x3 NOT ADD SLT PUSH2 0x1FC JUMPI PUSH1 0x20 PUSH1 0x7 SLOAD PUSH1 0x40 MLOAD SWAP1 DUP2 MSTORE RETURN JUMPDEST CALLVALUE PUSH2 0x1FC JUMPI PUSH2 0x409 CALLDATASIZE PUSH2 0x165A JUMP JUMPDEST SWAP3 SWAP1 SWAP3 CALLER PUSH1 0x0 MSTORE PUSH1 0x5 PUSH1 0x20 MSTORE PUSH1 0x40 PUSH1 0x0 KECCAK256 SLOAD PUSH1 0x3C DUP2 ADD DUP1 SWAP2 GT PUSH2 0x88A JUMPI PUSH2 0x432 SWAP1 TIMESTAMP LT ISZERO PUSH2 0x1979 JUMP JUMPDEST PUSH2 0x440 PUSH1 0x7 SLOAD DUP3 GT ISZERO PUSH2 0x19B6 JUMP JUMPDEST DUP1 ISZERO PUSH2 0x95B JUMPI SWAP3 JUMPDEST PUSH2 0x474 PUSH32 0x0 DUP6 LT ISZERO PUSH2 0x19F6 JUMP JUMPDEST PUSH1 0x3 SLOAD PUSH1 0x40 DUP1 MLOAD PUSH4 0xFA67079 PUSH1 0xE2 SHL DUP2 MSTORE PUSH1 0x1 PUSH1 0x1 PUSH1 0xA0 SHL SUB DUP6 DUP2 AND PUSH1 0x4 DUP4 ADD DUP2 SWAP1 MSTORE SWAP8 SWAP4 SWAP2 SWAP3 SWAP2 DUP4 SWAP2 PUSH1 0x24 SWAP2 DUP4 SWAP2 AND GAS STATICCALL DUP1 ISZERO PUSH2 0x704 JUMPI PUSH1 0x0 SWAP2 DUP3 SWAP2 PUSH2 0x92A JUMPI JUMPDEST POP DUP2 DUP7 GT PUSH2 0x8E5 JUMPI PUSH1 0x2 SLOAD PUSH2 0x4D5 SWAP1 DUP8 SWAP1 PUSH1 0x1 PUSH1 0x1 PUSH1 0xA0 SHL SUB AND PUSH2 0x1B38 JUMP JUMPDEST ISZERO PUSH2 0x8A0 JUMPI PUSH1 0x5 DUP3 MUL SWAP1 DUP3 DUP3 DIV PUSH1 0x5 EQ DUP4 ISZERO OR ISZERO PUSH2 0x88A JUMPI PUSH2 0x540 SWAP3 PUSH2 0x503 PUSH1 0x64 PUSH2 0x509 SWAP5 DIV DUP10 GT ISZERO PUSH2 0x1A83 JUMP JUMPDEST DUP8 PUSH2 0x172F JUMP JUMPDEST SWAP3 PUSH2 0x539 PUSH2 0x2710 PUSH2 0x532 PUSH2 0x52B DUP3 PUSH2 0x523 PUSH1 0x4 SLOAD DUP11 PUSH2 0x170F JUMP JUMPDEST DIV DUP1 SWAP9 PUSH2 0x1AC0 JUMP JUMPDEST SWAP6 DUP7 PUSH2 0x170F JUMP JUMPDEST DIV DUP5 PUSH2 0x1AC0 JUMP JUMPDEST LT ISZERO PUSH2 0x19B6 JUMP JUMPDEST PUSH1 0x40 MLOAD PUSH4 0x70A08231 PUSH1 0xE0 SHL DUP2 MSTORE CALLER PUSH1 0x4 DUP3 ADD MSTORE PUSH1 0x20 DUP2 PUSH1 0x24 DUP2 DUP10 GAS STATICCALL DUP1 ISZERO PUSH2 0x704 JUMPI DUP6 SWAP2 PUSH1 0x0 SWAP2 PUSH2 0x855 JUMPI JUMPDEST POP LT PUSH2 0x805 JUMPI PUSH1 0x40 MLOAD PUSH4 0x6EB1769F PUSH1 0xE1 SHL DUP2 MSTORE CALLER PUSH1 0x4 DUP3 ADD MSTORE ADDRESS PUSH1 0x24 DUP3 ADD MSTORE PUSH1 0x20 DUP2 PUSH1 0x44 DUP2 DUP10 GAS STATICCALL DUP1 ISZERO PUSH2 0x704 JUMPI DUP6 SWAP2 PUSH1 0x0 SWAP2 PUSH2 0x7D0 JUMPI JUMPDEST POP LT PUSH2 0x77F JUMPI PUSH2 0x5B6 DUP5 ADDRESS CALLER DUP9 PUSH2 0x1CBC JUMP JUMPDEST CALLER ISZERO PUSH2 0x746 JUMPI DUP1 ISZERO PUSH2 0x710 JUMPI PUSH1 0x2 SLOAD PUSH1 0x40 MLOAD PUSH4 0x70A08231 PUSH1 0xE0 SHL DUP2 MSTORE ADDRESS PUSH1 0x4 DUP3 ADD MSTORE PUSH1 0x1 PUSH1 0x1 PUSH1 0xA0 SHL SUB SWAP1 SWAP2 AND SWAP1 PUSH1 0x20 DUP2 PUSH1 0x24 DUP2 DUP6 GAS STATICCALL SWAP1 DUP2 ISZERO PUSH2 0x704 JUMPI PUSH1 0x0 SWAP2 PUSH2 0x6B2 JUMPI JUMPDEST POP PUSH32 0x5EB78B6FB12F1AF3519B0BBD134251F3B57D2C31DCC8A5FCB871971CE5EB8A71 SWAP5 PUSH2 0x644 DUP5 PUSH2 0x67B SWAP5 PUSH2 0x63D DUP9 SWAP6 DUP4 PUSH2 0x635 PUSH2 0x1ACD JUMP JUMPDEST SWAP2 LT ISZERO PUSH2 0x1B08 JUMP JUMPDEST CALLER SWAP1 PUSH2 0x1F09 JUMP JUMPDEST PUSH1 0x40 MLOAD DUP5 DUP2 MSTORE TIMESTAMP PUSH1 0x20 DUP3 ADD MSTORE PUSH32 0x997D41A3A2D02DDF7873EEEAA626FCC250EA57A73E1DAD920F8656DF12FCD9AF PUSH1 0x40 CALLER SWAP3 LOG2 PUSH2 0x1D07 JUMP JUMPDEST CALLER PUSH1 0x0 MSTORE PUSH1 0x5 PUSH1 0x20 MSTORE TIMESTAMP PUSH1 0x40 PUSH1 0x0 KECCAK256 SSTORE PUSH2 0x6AD PUSH1 0x40 MLOAD SWAP3 DUP4 SWAP3 CALLER SWAP7 DUP5 PUSH1 0x40 SWAP2 SWAP5 SWAP4 SWAP3 PUSH1 0x60 DUP3 ADD SWAP6 DUP3 MSTORE PUSH1 0x20 DUP3 ADD MSTORE ADD MSTORE JUMP JUMPDEST SUB SWAP1 LOG3 STOP JUMPDEST SWAP1 POP PUSH1 0x20 DUP2 RETURNDATASIZE PUSH1 0x20 GT PUSH2 0x6FC JUMPI JUMPDEST DUP2 PUSH2 0x6CD PUSH1 0x20 SWAP4 DUP4 PUSH2 0x1A35 JUMP JUMPDEST DUP2 ADD SUB SLT PUSH2 0x1FC JUMPI MLOAD PUSH32 0x5EB78B6FB12F1AF3519B0BBD134251F3B57D2C31DCC8A5FCB871971CE5EB8A71 PUSH2 0x5FC JUMP JUMPDEST RETURNDATASIZE SWAP2 POP PUSH2 0x6C0 JUMP JUMPDEST PUSH1 0x40 MLOAD RETURNDATASIZE PUSH1 0x0 DUP3 RETURNDATACOPY RETURNDATASIZE SWAP1 REVERT JUMPDEST PUSH1 0x40 MLOAD PUSH3 0x461BCD PUSH1 0xE5 SHL DUP2 MSTORE PUSH1 0x20 PUSH1 0x4 DUP3 ADD MSTORE PUSH1 0xE PUSH1 0x24 DUP3 ADD MSTORE PUSH14 0x125B9D985B1A5908185B5BDD5B9D PUSH1 0x92 SHL PUSH1 0x44 DUP3 ADD MSTORE PUSH1 0x64 SWAP1 REVERT JUMPDEST PUSH1 0x40 MLOAD PUSH3 0x461BCD PUSH1 0xE5 SHL DUP2 MSTORE PUSH1 0x20 PUSH1 0x4 DUP3 ADD MSTORE PUSH1 0x11 PUSH1 0x24 DUP3 ADD MSTORE PUSH17 0x125B9D985B1A59081C9958DA5C1A595B9D PUSH1 0x7A SHL PUSH1 0x44 DUP3 ADD MSTORE PUSH1 0x64 SWAP1 REVERT JUMPDEST PUSH1 0x40 MLOAD PUSH3 0x461BCD PUSH1 0xE5 SHL DUP2 MSTORE PUSH1 0x20 PUSH1 0x4 DUP3 ADD MSTORE PUSH1 0x24 DUP1 DUP3 ADD MSTORE PUSH32 0x496E73756666696369656E742063726561746F7220746F6B656E20616C6C6F77 PUSH1 0x44 DUP3 ADD MSTORE PUSH4 0x616E6365 PUSH1 0xE0 SHL PUSH1 0x64 DUP3 ADD MSTORE PUSH1 0x84 SWAP1 REVERT JUMPDEST SWAP2 POP POP PUSH1 0x20 DUP2 RETURNDATASIZE PUSH1 0x20 GT PUSH2 0x7FD JUMPI JUMPDEST DUP2 PUSH2 0x7EC PUSH1 0x20 SWAP4 DUP4 PUSH2 0x1A35 JUMP JUMPDEST DUP2 ADD SUB SLT PUSH2 0x1FC JUMPI DUP5 SWAP1 MLOAD DUP8 PUSH2 0x5A4 JUMP JUMPDEST RETURNDATASIZE SWAP2 POP PUSH2 0x7DF JUMP JUMPDEST PUSH1 0x40 MLOAD PUSH3 0x461BCD PUSH1 0xE5 SHL DUP2 MSTORE PUSH1 0x20 PUSH1 0x4 DUP3 ADD MSTORE PUSH1 0x22 PUSH1 0x24 DUP3 ADD MSTORE PUSH32 0x496E73756666696369656E742063726561746F7220746F6B656E2062616C616E PUSH1 0x44 DUP3 ADD MSTORE PUSH2 0x6365 PUSH1 0xF0 SHL PUSH1 0x64 DUP3 ADD MSTORE PUSH1 0x84 SWAP1 REVERT JUMPDEST SWAP2 POP POP PUSH1 0x20 DUP2 RETURNDATASIZE PUSH1 0x20 GT PUSH2 0x882 JUMPI JUMPDEST DUP2 PUSH2 0x871 PUSH1 0x20 SWAP4 DUP4 PUSH2 0x1A35 JUMP JUMPDEST DUP2 ADD SUB SLT PUSH2 0x1FC JUMPI DUP5 SWAP1 MLOAD DUP8 PUSH2 0x56C JUMP JUMPDEST RETURNDATASIZE SWAP2 POP PUSH2 0x864 JUMP JUMPDEST PUSH4 0x4E487B71 PUSH1 0xE0 SHL PUSH1 0x0 MSTORE PUSH1 0x11 PUSH1 0x4 MSTORE PUSH1 0x24 PUSH1 0x0 REVERT JUMPDEST PUSH1 0x40 MLOAD PUSH3 0x461BCD PUSH1 0xE5 SHL DUP2 MSTORE PUSH1 0x20 PUSH1 0x4 DUP3 ADD MSTORE PUSH1 0x1C PUSH1 0x24 DUP3 ADD MSTORE PUSH32 0x4E6F20434F52414C206C697175696469747920617661696C61626C6500000000 PUSH1 0x44 DUP3 ADD MSTORE PUSH1 0x64 SWAP1 REVERT JUMPDEST PUSH1 0x40 MLOAD PUSH3 0x461BCD PUSH1 0xE5 SHL DUP2 MSTORE PUSH1 0x20 PUSH1 0x4 DUP3 ADD MSTORE PUSH1 0x1E PUSH1 0x24 DUP3 ADD MSTORE PUSH32 0x496E73756666696369656E742063726561746F72206C69717569646974790000 PUSH1 0x44 DUP3 ADD MSTORE PUSH1 0x64 SWAP1 REVERT JUMPDEST SWAP1 POP PUSH2 0x94E SWAP2 POP PUSH1 0x40 RETURNDATASIZE PUSH1 0x40 GT PUSH2 0x954 JUMPI JUMPDEST PUSH2 0x946 DUP2 DUP4 PUSH2 0x1A35 JUMP JUMPDEST DUP2 ADD SWAP1 PUSH2 0x1A6D JUMP JUMPDEST DUP8 PUSH2 0x4B6 JUMP JUMPDEST POP RETURNDATASIZE PUSH2 0x93C JUMP JUMPDEST POP PUSH32 0x0 SWAP3 PUSH2 0x448 JUMP JUMPDEST CALLVALUE PUSH2 0x1FC JUMPI PUSH1 0x0 CALLDATASIZE PUSH1 0x3 NOT ADD SLT PUSH2 0x1FC JUMPI PUSH1 0x20 PUSH1 0x40 MLOAD PUSH1 0x5 DUP2 MSTORE RETURN JUMPDEST CALLVALUE PUSH2 0x1FC JUMPI PUSH1 0x40 CALLDATASIZE PUSH1 0x3 NOT ADD SLT PUSH2 0x1FC JUMPI PUSH2 0x9E4 PUSH1 0x4 CALLDATALOAD PUSH2 0x9BE PUSH2 0x1644 JUMP JUMPDEST SWAP1 PUSH2 0x9DF PUSH2 0x9DA DUP3 PUSH1 0x0 MSTORE PUSH1 0x1 PUSH1 0x20 MSTORE PUSH1 0x1 PUSH1 0x40 PUSH1 0x0 KECCAK256 ADD SLOAD SWAP1 JUMP JUMPDEST PUSH2 0x1F6D JUMP JUMPDEST PUSH2 0x2039 JUMP JUMPDEST STOP JUMPDEST CALLVALUE PUSH2 0x1FC JUMPI PUSH1 0x40 CALLDATASIZE PUSH1 0x3 NOT ADD SLT PUSH2 0x1FC JUMPI PUSH1 0x20 PUSH2 0xA0D PUSH2 0xA04 PUSH2 0x162E JUMP JUMPDEST PUSH1 0x24 CALLDATALOAD SWAP1 PUSH2 0x1B38 JUMP JUMPDEST PUSH1 0x40 MLOAD SWAP1 ISZERO ISZERO DUP2 MSTORE RETURN JUMPDEST CALLVALUE PUSH2 0x1FC JUMPI PUSH1 0x0 CALLDATASIZE PUSH1 0x3 NOT ADD SLT PUSH2 0x1FC JUMPI PUSH1 0x60 PUSH1 0x7 SLOAD PUSH1 0x40 MLOAD SWAP1 PUSH32 0x0 DUP3 MSTORE PUSH1 0x20 DUP3 ADD MSTORE PUSH2 0x7D0 PUSH1 0x40 DUP3 ADD MSTORE RETURN JUMPDEST CALLVALUE PUSH2 0x1FC JUMPI PUSH1 0x20 CALLDATASIZE PUSH1 0x3 NOT ADD SLT PUSH2 0x1FC JUMPI CALLER PUSH1 0x0 SWAP1 DUP2 MSTORE PUSH32 0xA3A28E4F80D0370A78B193FD33BFBF2F186095DC1B2BB43340C272507B8D707A PUSH1 0x20 MSTORE PUSH1 0x40 SWAP1 KECCAK256 SLOAD PUSH1 0x4 CALLDATALOAD SWAP1 PUSH1 0xFF AND ISZERO PUSH2 0xB7A JUMPI PUSH1 0x64 DUP2 GT PUSH2 0xB3E JUMPI PUSH1 0x4 SLOAD SWAP1 DUP2 DUP2 EQ PUSH2 0xAF9 JUMPI DUP1 PUSH1 0x4 SSTORE PUSH1 0x40 MLOAD SWAP2 DUP3 MSTORE PUSH1 0x20 DUP3 ADD MSTORE PUSH32 0xEBEC684F5BC1195DB981300ECE744BC7E58DDD0013FBA15583C6CE3C5EB4CDEC PUSH1 0x40 CALLER SWAP3 LOG2 STOP JUMPDEST PUSH1 0x40 MLOAD PUSH3 0x461BCD PUSH1 0xE5 SHL DUP2 MSTORE PUSH1 0x20 PUSH1 0x4 DUP3 ADD MSTORE PUSH1 0x17 PUSH1 0x24 DUP3 ADD MSTORE PUSH32 0x4E6577206665652073616D652061732063757272656E74000000000000000000 PUSH1 0x44 DUP3 ADD MSTORE PUSH1 0x64 SWAP1 REVERT JUMPDEST PUSH1 0x40 MLOAD PUSH3 0x461BCD PUSH1 0xE5 SHL DUP2 MSTORE PUSH1 0x20 PUSH1 0x4 DUP3 ADD MSTORE PUSH1 0x14 PUSH1 0x24 DUP3 ADD MSTORE PUSH20 0x4665652063616E6E6F7420657863656564203125 PUSH1 0x60 SHL PUSH1 0x44 DUP3 ADD MSTORE PUSH1 0x64 SWAP1 REVERT JUMPDEST PUSH1 0x40 MLOAD PUSH3 0x461BCD PUSH1 0xE5 SHL DUP2 MSTORE PUSH1 0x20 PUSH1 0x4 DUP3 ADD MSTORE PUSH1 0x17 PUSH1 0x24 DUP3 ADD MSTORE PUSH32 0x4E6F742061206C6971756964697479206D616E61676572000000000000000000 PUSH1 0x44 DUP3 ADD MSTORE PUSH1 0x64 SWAP1 REVERT JUMPDEST CALLVALUE PUSH2 0x1FC JUMPI PUSH1 0x0 CALLDATASIZE PUSH1 0x3 NOT ADD SLT PUSH2 0x1FC JUMPI PUSH1 0x2 SLOAD PUSH1 0x40 MLOAD PUSH1 0x1 PUSH1 0x1 PUSH1 0xA0 SHL SUB SWAP1 SWAP2 AND DUP2 MSTORE PUSH1 0x20 SWAP1 RETURN JUMPDEST CALLVALUE PUSH2 0x1FC JUMPI PUSH1 0x0 CALLDATASIZE PUSH1 0x3 NOT ADD SLT PUSH2 0x1FC JUMPI PUSH1 0x20 PUSH1 0x40 MLOAD PUSH1 0x0 DUP2 MSTORE RETURN JUMPDEST CALLVALUE PUSH2 0x1FC JUMPI PUSH1 0x40 CALLDATASIZE PUSH1 0x3 NOT ADD SLT PUSH2 0x1FC JUMPI PUSH1 0x24 CALLDATALOAD PUSH8 0xFFFFFFFFFFFFFFFF DUP2 GT PUSH2 0x1FC JUMPI CALLDATASIZE PUSH1 0x23 DUP3 ADD SLT ISZERO PUSH2 0x1FC JUMPI DUP1 PUSH1 0x4 ADD CALLDATALOAD PUSH8 0xFFFFFFFFFFFFFFFF DUP2 GT PUSH2 0x1FC JUMPI CALLDATASIZE PUSH1 0x24 DUP3 PUSH1 0x5 SHL DUP5 ADD ADD GT PUSH2 0x1FC JUMPI PUSH1 0x2 DUP2 LT PUSH2 0xD55 JUMPI PUSH1 0x3 SLOAD PUSH1 0x1 PUSH1 0x1 PUSH1 0xA0 SHL SUB AND SWAP2 PUSH1 0x0 NOT DUP3 ADD DUP3 DUP2 GT SWAP3 PUSH1 0x0 SWAP3 SWAP1 SWAP2 PUSH1 0x4 CALLDATALOAD DUP6 JUMPDEST PUSH2 0x88A JUMPI DUP2 DUP6 LT ISZERO PUSH2 0xD31 JUMPI PUSH1 0x1 DUP6 ADD DUP1 DUP7 GT PUSH2 0x88A JUMPI DUP5 DUP2 LT ISZERO PUSH2 0xD1B JUMPI PUSH1 0x24 SWAP1 PUSH1 0x5 SHL DUP5 ADD ADD CALLDATALOAD SWAP1 PUSH1 0x1 DUP1 PUSH1 0xA0 SHL SUB DUP3 AND DUP1 SWAP3 SUB PUSH2 0x1FC JUMPI PUSH1 0x40 MLOAD SWAP2 PUSH4 0xFA67079 PUSH1 0xE2 SHL DUP4 MSTORE PUSH1 0x4 DUP4 ADD MSTORE PUSH1 0x40 DUP3 PUSH1 0x24 DUP2 DUP12 GAS STATICCALL DUP1 ISZERO PUSH2 0x704 JUMPI PUSH1 0x1 SWAP3 PUSH2 0xCF0 SWAP3 PUSH1 0x0 SWAP2 DUP3 SWAP4 PUSH2 0xCF9 JUMPI JUMPDEST POP PUSH2 0x172F JUMP JUMPDEST SWAP5 ADD SWAP4 DUP6 PUSH2 0xC7D JUMP JUMPDEST SWAP1 SWAP3 POP PUSH2 0xD14 SWAP2 POP PUSH1 0x40 RETURNDATASIZE DUP2 GT PUSH2 0x954 JUMPI PUSH2 0x946 DUP2 DUP4 PUSH2 0x1A35 JUMP JUMPDEST SWAP2 DUP12 PUSH2 0xCEA JUMP JUMPDEST PUSH4 0x4E487B71 PUSH1 0xE0 SHL PUSH1 0x0 MSTORE PUSH1 0x32 PUSH1 0x4 MSTORE PUSH1 0x24 PUSH1 0x0 REVERT JUMPDEST PUSH2 0xD4D PUSH1 0x20 SWAP2 PUSH2 0x2710 PUSH2 0xD46 PUSH1 0x4 SLOAD DUP4 PUSH2 0x170F JUMP JUMPDEST DIV SWAP1 PUSH2 0x1AC0 JUMP JUMPDEST PUSH1 0x40 MLOAD SWAP1 DUP2 MSTORE RETURN JUMPDEST PUSH1 0x40 MLOAD PUSH3 0x461BCD PUSH1 0xE5 SHL DUP2 MSTORE PUSH1 0x20 PUSH1 0x4 DUP3 ADD MSTORE PUSH1 0x13 PUSH1 0x24 DUP3 ADD MSTORE PUSH19 0x92DCECC2D8D2C840E0C2E8D040D8CADCCEE8D PUSH1 0x6B SHL PUSH1 0x44 DUP3 ADD MSTORE PUSH1 0x64 SWAP1 REVERT JUMPDEST PUSH2 0x16AC JUMP JUMPDEST CALLVALUE PUSH2 0x1FC JUMPI PUSH1 0x20 CALLDATASIZE PUSH1 0x3 NOT ADD SLT PUSH2 0x1FC JUMPI PUSH1 0x20 PUSH1 0x4 CALLDATALOAD PUSH7 0x38D7EA4C68000 DUP2 LT ISZERO SWAP1 DUP2 PUSH2 0xDC8 JUMPI JUMPDEST POP PUSH1 0x40 MLOAD SWAP1 ISZERO ISZERO DUP2 MSTORE RETURN JUMPDEST PUSH9 0x3635C9ADC5DEA00000 SWAP2 POP GT ISZERO DUP3 PUSH2 0xDBD JUMP JUMPDEST CALLVALUE PUSH2 0x1FC JUMPI PUSH1 0x40 CALLDATASIZE PUSH1 0x3 NOT ADD SLT PUSH2 0x1FC JUMPI PUSH2 0xDF5 PUSH2 0x1644 JUMP JUMPDEST PUSH1 0x4 CALLDATALOAD PUSH1 0x0 MSTORE PUSH1 0x1 PUSH1 0x20 MSTORE PUSH1 0x40 PUSH1 0x0 KECCAK256 SWAP1 PUSH1 0x1 DUP1 PUSH1 0xA0 SHL SUB AND PUSH1 0x0 MSTORE PUSH1 0x20 MSTORE PUSH1 0x20 PUSH1 0xFF PUSH1 0x40 PUSH1 0x0 KECCAK256 SLOAD AND PUSH1 0x40 MLOAD SWAP1 ISZERO ISZERO DUP2 MSTORE RETURN JUMPDEST PUSH2 0x1688 JUMP JUMPDEST CALLVALUE PUSH2 0x1FC JUMPI PUSH1 0x0 CALLDATASIZE PUSH1 0x3 NOT ADD SLT PUSH2 0x1FC JUMPI PUSH1 0x0 SLOAD PUSH1 0x40 MLOAD PUSH1 0x1 PUSH1 0x1 PUSH1 0xA0 SHL SUB SWAP1 SWAP2 AND DUP2 MSTORE PUSH1 0x20 SWAP1 RETURN JUMPDEST CALLVALUE PUSH2 0x1FC JUMPI PUSH1 0x0 CALLDATASIZE PUSH1 0x3 NOT ADD SLT PUSH2 0x1FC JUMPI PUSH1 0x20 PUSH1 0x40 MLOAD PUSH2 0x7D0 DUP2 MSTORE RETURN JUMPDEST CALLVALUE PUSH2 0x1FC JUMPI PUSH1 0x0 CALLDATASIZE PUSH1 0x3 NOT ADD SLT PUSH2 0x1FC JUMPI PUSH1 0x20 PUSH1 0x40 MLOAD PUSH32 0x0 DUP2 MSTORE RETURN JUMPDEST CALLVALUE PUSH2 0x1FC JUMPI PUSH1 0x0 CALLDATASIZE PUSH1 0x3 NOT ADD SLT PUSH2 0x1FC JUMPI PUSH2 0xEC8 PUSH2 0x1F44 JUMP JUMPDEST PUSH1 0x0 DUP1 SLOAD PUSH1 0x1 PUSH1 0x1 PUSH1 0xA0 SHL SUB NOT DUP2 AND DUP3 SSTORE PUSH1 0x1 PUSH1 0x1 PUSH1 0xA0 SHL SUB AND PUSH32 0x8BE0079C531659141344CD1FD0A4F28419497F9722A3DAAFE3B4186F6B6457E0 DUP3 DUP1 LOG3 STOP JUMPDEST CALLVALUE PUSH2 0x1FC JUMPI PUSH1 0x0 CALLDATASIZE PUSH1 0x3 NOT ADD SLT PUSH2 0x1FC JUMPI PUSH1 0x20 PUSH1 0x4 SLOAD PUSH1 0x40 MLOAD SWAP1 DUP2 MSTORE RETURN JUMPDEST CALLVALUE PUSH2 0x1FC JUMPI PUSH1 0x40 CALLDATASIZE PUSH1 0x3 NOT ADD SLT PUSH2 0x1FC JUMPI PUSH2 0xF3F PUSH2 0x1644 JUMP JUMPDEST CALLER PUSH1 0x1 PUSH1 0x1 PUSH1 0xA0 SHL SUB DUP3 AND SUB PUSH2 0xF5B JUMPI PUSH2 0x9E4 SWAP1 PUSH1 0x4 CALLDATALOAD PUSH2 0x2039 JUMP JUMPDEST PUSH4 0x334BD919 PUSH1 0xE1 SHL PUSH1 0x0 MSTORE PUSH1 0x4 PUSH1 0x0 REVERT JUMPDEST CALLVALUE PUSH2 0x1FC JUMPI PUSH1 0x0 CALLDATASIZE PUSH1 0x3 NOT ADD SLT PUSH2 0x1FC JUMPI PUSH1 0x3 SLOAD PUSH1 0x40 MLOAD PUSH1 0x1 PUSH1 0x1 PUSH1 0xA0 SHL SUB SWAP1 SWAP2 AND DUP2 MSTORE PUSH1 0x20 SWAP1 RETURN JUMPDEST CALLVALUE PUSH2 0x1FC JUMPI PUSH1 0x40 CALLDATASIZE PUSH1 0x3 NOT ADD SLT PUSH2 0x1FC JUMPI PUSH2 0x9E4 PUSH1 0x4 CALLDATALOAD PUSH2 0xFB4 PUSH2 0x1644 JUMP JUMPDEST SWAP1 PUSH2 0xFD0 PUSH2 0x9DA DUP3 PUSH1 0x0 MSTORE PUSH1 0x1 PUSH1 0x20 MSTORE PUSH1 0x1 PUSH1 0x40 PUSH1 0x0 KECCAK256 ADD SLOAD SWAP1 JUMP JUMPDEST PUSH2 0x1FAA JUMP JUMPDEST CALLVALUE PUSH2 0x1FC JUMPI PUSH1 0x20 CALLDATASIZE PUSH1 0x3 NOT ADD SLT PUSH2 0x1FC JUMPI PUSH1 0x1 PUSH1 0x1 PUSH1 0xA0 SHL SUB PUSH2 0xFF6 PUSH2 0x162E JUMP JUMPDEST AND PUSH1 0x0 MSTORE PUSH1 0x6 PUSH1 0x20 MSTORE PUSH1 0x40 DUP1 PUSH1 0x0 KECCAK256 SLOAD PUSH9 0x3635C9ADC5DEA00000 DUP2 LT ISZERO SWAP1 DUP2 PUSH1 0x0 EQ PUSH2 0x1029 JUMPI JUMPDEST DUP3 MLOAD SWAP2 DUP3 MSTORE PUSH1 0x20 DUP3 ADD MSTORE RETURN JUMPDEST POP PUSH1 0x0 PUSH2 0x101D JUMP JUMPDEST CALLVALUE PUSH2 0x1FC JUMPI PUSH1 0x20 CALLDATASIZE PUSH1 0x3 NOT ADD SLT PUSH2 0x1FC JUMPI PUSH1 0x20 PUSH2 0xD4D PUSH1 0x4 CALLDATALOAD PUSH1 0x0 MSTORE PUSH1 0x1 PUSH1 0x20 MSTORE PUSH1 0x1 PUSH1 0x40 PUSH1 0x0 KECCAK256 ADD SLOAD SWAP1 JUMP JUMPDEST CALLVALUE PUSH2 0x1FC JUMPI PUSH1 0x0 CALLDATASIZE PUSH1 0x3 NOT ADD SLT PUSH2 0x1FC JUMPI PUSH1 0x20 PUSH1 0x40 MLOAD PUSH32 0x77E60B99A50D27FB027F6912A507D956105B4148ADAB27A86D235C8BCCA8FA2F DUP2 MSTORE RETURN JUMPDEST CALLVALUE PUSH2 0x1FC JUMPI PUSH1 0x40 CALLDATASIZE PUSH1 0x3 NOT ADD SLT PUSH2 0x1FC JUMPI PUSH2 0x10B2 PUSH2 0x162E JUMP JUMPDEST PUSH1 0x24 CALLDATALOAD SWAP1 PUSH2 0x10BE PUSH2 0x1F44 JUMP JUMPDEST PUSH1 0x1 PUSH1 0x1 PUSH1 0xA0 SHL SUB AND SWAP1 DUP2 ISZERO PUSH2 0x12A5 JUMPI DUP1 ISZERO PUSH2 0x1260 JUMPI DUP2 PUSH1 0x0 MSTORE PUSH1 0x6 PUSH1 0x20 MSTORE DUP1 PUSH1 0x40 PUSH1 0x0 KECCAK256 SLOAD LT PUSH2 0x121B JUMPI PUSH10 0x21E19E0C9BAB2400000 DUP2 GT PUSH2 0x11DD JUMPI DUP2 PUSH1 0x0 MSTORE PUSH1 0x6 PUSH1 0x20 MSTORE PUSH1 0x40 PUSH1 0x0 KECCAK256 PUSH2 0x1113 DUP3 DUP3 SLOAD PUSH2 0x1AC0 JUMP JUMPDEST SWAP1 SSTORE PUSH1 0x40 MLOAD PUSH4 0x70A08231 PUSH1 0xE0 SHL DUP2 MSTORE ADDRESS PUSH1 0x4 DUP3 ADD MSTORE PUSH1 0x20 DUP2 PUSH1 0x24 DUP2 DUP7 GAS STATICCALL SWAP1 DUP2 ISZERO PUSH2 0x704 JUMPI PUSH1 0x0 SWAP2 PUSH2 0x118B JUMPI JUMPDEST POP DUP2 PUSH2 0x1172 PUSH1 0x40 SWAP3 PUSH32 0xA423987BC38EFF6F10DF0F3A2BC41F3394177D8602562DC2F98BAABEC8C811AB SWAP5 PUSH2 0x635 PUSH2 0x1ACD JUMP JUMPDEST PUSH2 0x117D DUP2 CALLER DUP7 PUSH2 0x1F09 JUMP JUMPDEST DUP2 MLOAD SWAP1 DUP2 MSTORE TIMESTAMP PUSH1 0x20 DUP3 ADD MSTORE LOG2 STOP JUMPDEST SWAP1 POP PUSH1 0x20 DUP2 RETURNDATASIZE PUSH1 0x20 GT PUSH2 0x11D5 JUMPI JUMPDEST DUP2 PUSH2 0x11A6 PUSH1 0x20 SWAP4 DUP4 PUSH2 0x1A35 JUMP JUMPDEST DUP2 ADD SUB SLT PUSH2 0x1FC JUMPI MLOAD PUSH32 0xA423987BC38EFF6F10DF0F3A2BC41F3394177D8602562DC2F98BAABEC8C811AB PUSH2 0x1140 JUMP JUMPDEST RETURNDATASIZE SWAP2 POP PUSH2 0x1199 JUMP JUMPDEST PUSH1 0x40 MLOAD PUSH3 0x461BCD PUSH1 0xE5 SHL DUP2 MSTORE PUSH1 0x20 PUSH1 0x4 DUP3 ADD MSTORE PUSH1 0x16 PUSH1 0x24 DUP3 ADD MSTORE PUSH22 0x416D6F756E742065786365656473206D6178696D756D PUSH1 0x50 SHL PUSH1 0x44 DUP3 ADD MSTORE PUSH1 0x64 SWAP1 REVERT JUMPDEST PUSH1 0x40 MLOAD PUSH3 0x461BCD PUSH1 0xE5 SHL DUP2 MSTORE PUSH1 0x20 PUSH1 0x4 DUP3 ADD MSTORE PUSH1 0x18 PUSH1 0x24 DUP3 ADD MSTORE PUSH32 0x496E73756666696369656E742073746F72656420666565730000000000000000 PUSH1 0x44 DUP3 ADD MSTORE PUSH1 0x64 SWAP1 REVERT JUMPDEST PUSH1 0x40 MLOAD PUSH3 0x461BCD PUSH1 0xE5 SHL DUP2 MSTORE PUSH1 0x20 PUSH1 0x4 DUP3 ADD MSTORE PUSH1 0x19 PUSH1 0x24 DUP3 ADD MSTORE PUSH32 0x496E76616C6964207769746864726177616C20616D6F756E7400000000000000 PUSH1 0x44 DUP3 ADD MSTORE PUSH1 0x64 SWAP1 REVERT JUMPDEST PUSH1 0x40 MLOAD PUSH3 0x461BCD PUSH1 0xE5 SHL DUP2 MSTORE PUSH1 0x20 PUSH1 0x4 DUP3 ADD MSTORE PUSH1 0x15 PUSH1 0x24 DUP3 ADD MSTORE PUSH21 0x496E76616C696420746F6B656E2061646472657373 PUSH1 0x58 SHL PUSH1 0x44 DUP3 ADD MSTORE PUSH1 0x64 SWAP1 REVERT JUMPDEST CALLVALUE PUSH2 0x1FC JUMPI PUSH1 0x0 CALLDATASIZE PUSH1 0x3 NOT ADD SLT PUSH2 0x1FC JUMPI PUSH1 0x20 PUSH1 0x40 MLOAD PUSH1 0x3C DUP2 MSTORE RETURN JUMPDEST CALLVALUE PUSH2 0x1FC JUMPI PUSH2 0x130C CALLDATASIZE PUSH2 0x165A JUMP JUMPDEST SWAP3 SWAP2 SWAP1 SWAP3 CALLER PUSH1 0x0 MSTORE PUSH1 0x5 PUSH1 0x20 MSTORE PUSH1 0x40 PUSH1 0x0 KECCAK256 SLOAD PUSH1 0x3C DUP2 ADD DUP1 SWAP2 GT PUSH2 0x88A JUMPI PUSH2 0x1336 SWAP1 TIMESTAMP LT ISZERO PUSH2 0x1979 JUMP JUMPDEST PUSH1 0x2 SLOAD PUSH2 0x1351 SWAP1 DUP4 SWAP1 ADDRESS SWAP1 CALLER SWAP1 PUSH1 0x1 PUSH1 0x1 PUSH1 0xA0 SHL SUB AND PUSH2 0x1CBC JUMP JUMPDEST PUSH2 0x135F PUSH1 0x7 SLOAD DUP3 GT ISZERO PUSH2 0x19B6 JUMP JUMPDEST DUP1 ISZERO PUSH2 0x1553 JUMPI PUSH2 0x1392 SWAP1 JUMPDEST PUSH32 0x0 GT ISZERO PUSH2 0x19F6 JUMP JUMPDEST PUSH1 0x3 SLOAD PUSH1 0x40 DUP1 MLOAD PUSH4 0xFA67079 PUSH1 0xE2 SHL DUP2 MSTORE PUSH1 0x1 PUSH1 0x1 PUSH1 0xA0 SHL SUB DUP6 DUP2 AND PUSH1 0x4 DUP4 ADD DUP2 SWAP1 MSTORE SWAP5 SWAP4 SWAP2 SWAP3 SWAP2 DUP4 SWAP2 PUSH1 0x24 SWAP2 DUP4 SWAP2 AND GAS STATICCALL SWAP1 DUP2 ISZERO PUSH2 0x704 JUMPI PUSH1 0x0 SWAP1 PUSH1 0x0 SWAP3 PUSH2 0x1531 JUMPI JUMPDEST POP DUP1 ISZERO ISZERO DUP1 PUSH2 0x1528 JUMPI JUMPDEST ISZERO PUSH2 0x14EA JUMPI PUSH1 0x5 DUP3 MUL SWAP2 DUP1 DUP4 DIV PUSH1 0x5 EQ DUP2 ISZERO OR ISZERO PUSH2 0x88A JUMPI PUSH2 0x140A PUSH1 0x64 PUSH2 0x1410 SWAP5 DIV DUP6 GT ISZERO PUSH2 0x1A83 JUMP JUMPDEST DUP4 PUSH2 0x172F JUMP JUMPDEST SWAP4 DUP5 LT PUSH2 0x14A5 JUMPI PUSH32 0x5EB78B6FB12F1AF3519B0BBD134251F3B57D2C31DCC8A5FCB871971CE5EB8A71 PUSH2 0x149A PUSH2 0x145D PUSH2 0x1463 PUSH1 0x20 SWAP8 PUSH2 0x2710 PUSH2 0x1453 PUSH1 0x4 SLOAD DUP4 PUSH2 0x170F JUMP JUMPDEST DIV SWAP3 DUP4 DUP1 SWAP3 PUSH2 0x1AC0 JUMP JUMPDEST SWAP8 PUSH2 0x1D07 JUMP JUMPDEST CALLER PUSH1 0x0 MSTORE PUSH1 0x5 DUP8 MSTORE TIMESTAMP PUSH1 0x40 PUSH1 0x0 KECCAK256 SSTORE PUSH2 0x147D DUP7 CALLER DUP8 PUSH2 0x1F09 JUMP JUMPDEST PUSH1 0x40 DUP1 MLOAD SWAP5 DUP6 MSTORE PUSH1 0x20 DUP6 ADD DUP8 SWAP1 MSTORE DUP5 ADD MSTORE CALLER SWAP3 SWAP1 DUP2 SWAP1 PUSH1 0x60 DUP3 ADD SWAP1 JUMP JUMPDEST SUB SWAP1 LOG3 PUSH1 0x40 MLOAD SWAP1 DUP2 MSTORE RETURN JUMPDEST PUSH1 0x40 MLOAD PUSH3 0x461BCD PUSH1 0xE5 SHL DUP2 MSTORE PUSH1 0x20 PUSH1 0x4 DUP3 ADD MSTORE PUSH1 0x1A PUSH1 0x24 DUP3 ADD MSTORE PUSH32 0x496E73756666696369656E74206F757470757420616D6F756E74000000000000 PUSH1 0x44 DUP3 ADD MSTORE PUSH1 0x64 SWAP1 REVERT JUMPDEST PUSH1 0x40 MLOAD PUSH3 0x461BCD PUSH1 0xE5 SHL DUP2 MSTORE PUSH1 0x20 PUSH1 0x4 DUP3 ADD MSTORE PUSH1 0x16 PUSH1 0x24 DUP3 ADD MSTORE PUSH22 0x496E73756666696369656E74206C6971756964697479 PUSH1 0x50 SHL PUSH1 0x44 DUP3 ADD MSTORE PUSH1 0x64 SWAP1 REVERT JUMPDEST POP DUP2 ISZERO ISZERO PUSH2 0x13E0 JUMP JUMPDEST SWAP1 POP PUSH2 0x154C SWAP2 POP PUSH1 0x40 RETURNDATASIZE PUSH1 0x40 GT PUSH2 0x954 JUMPI PUSH2 0x946 DUP2 DUP4 PUSH2 0x1A35 JUMP JUMPDEST SWAP1 DUP7 PUSH2 0x13D6 JUMP JUMPDEST POP PUSH2 0x1392 PUSH32 0x0 PUSH2 0x136A JUMP JUMPDEST CALLVALUE PUSH2 0x1FC JUMPI PUSH1 0x60 CALLDATASIZE PUSH1 0x3 NOT ADD SLT PUSH2 0x1FC JUMPI PUSH1 0x20 PUSH2 0xD4D PUSH1 0x44 CALLDATALOAD PUSH1 0x24 CALLDATALOAD PUSH1 0x4 CALLDATALOAD PUSH2 0x172F JUMP JUMPDEST CALLVALUE PUSH2 0x1FC JUMPI PUSH1 0x20 CALLDATASIZE PUSH1 0x3 NOT ADD SLT PUSH2 0x1FC JUMPI PUSH1 0x1 PUSH1 0x1 PUSH1 0xA0 SHL SUB PUSH2 0x15C2 PUSH2 0x162E JUMP JUMPDEST AND PUSH1 0x0 MSTORE PUSH1 0x5 PUSH1 0x20 MSTORE PUSH1 0x20 PUSH1 0x40 PUSH1 0x0 KECCAK256 SLOAD PUSH1 0x40 MLOAD SWAP1 DUP2 MSTORE RETURN JUMPDEST CALLVALUE PUSH2 0x1FC JUMPI PUSH1 0x20 CALLDATASIZE PUSH1 0x3 NOT ADD SLT PUSH2 0x1FC JUMPI PUSH1 0x4 CALLDATALOAD SWAP1 PUSH4 0xFFFFFFFF PUSH1 0xE0 SHL DUP3 AND DUP1 SWAP3 SUB PUSH2 0x1FC JUMPI PUSH1 0x20 SWAP2 PUSH4 0x7965DB0B PUSH1 0xE0 SHL DUP2 EQ SWAP1 DUP2 ISZERO PUSH2 0x161D JUMPI JUMPDEST POP ISZERO ISZERO DUP2 MSTORE RETURN JUMPDEST PUSH4 0x1FFC9A7 PUSH1 0xE0 SHL EQ SWAP1 POP DUP4 PUSH2 0x1616 JUMP JUMPDEST PUSH1 0x4 CALLDATALOAD SWAP1 PUSH1 0x1 PUSH1 0x1 PUSH1 0xA0 SHL SUB DUP3 AND DUP3 SUB PUSH2 0x1FC JUMPI JUMP JUMPDEST PUSH1 0x24 CALLDATALOAD SWAP1 PUSH1 0x1 PUSH1 0x1 PUSH1 0xA0 SHL SUB DUP3 AND DUP3 SUB PUSH2 0x1FC JUMPI JUMP JUMPDEST PUSH1 0x80 SWAP1 PUSH1 0x3 NOT ADD SLT PUSH2 0x1FC JUMPI PUSH1 0x4 CALLDATALOAD PUSH1 0x1 PUSH1 0x1 PUSH1 0xA0 SHL SUB DUP2 AND DUP2 SUB PUSH2 0x1FC JUMPI SWAP1 PUSH1 0x24 CALLDATALOAD SWAP1 PUSH1 0x44 CALLDATALOAD SWAP1 PUSH1 0x64 CALLDATALOAD SWAP1 JUMP JUMPDEST CALLVALUE PUSH2 0x1FC JUMPI PUSH1 0x0 CALLDATASIZE PUSH1 0x3 NOT ADD SLT PUSH2 0x1FC JUMPI PUSH1 0x20 PUSH1 0x40 MLOAD PUSH9 0x3635C9ADC5DEA00000 DUP2 MSTORE RETURN JUMPDEST CALLVALUE PUSH2 0x1FC JUMPI PUSH1 0x0 CALLDATASIZE PUSH1 0x3 NOT ADD SLT PUSH2 0x1FC JUMPI PUSH1 0x20 PUSH1 0x40 MLOAD PUSH7 0x38D7EA4C68000 DUP2 MSTORE RETURN JUMPDEST SWAP2 SWAP1 DUP3 MLOAD SWAP3 DUP4 DUP3 MSTORE PUSH1 0x0 JUMPDEST DUP5 DUP2 LT PUSH2 0x16FA JUMPI POP POP DUP3 PUSH1 0x0 PUSH1 0x20 DUP1 SWAP5 SWAP6 DUP5 ADD ADD MSTORE PUSH1 0x1F DUP1 NOT SWAP2 ADD AND ADD ADD SWAP1 JUMP JUMPDEST DUP1 PUSH1 0x20 DUP1 SWAP3 DUP5 ADD ADD MLOAD DUP3 DUP3 DUP7 ADD ADD MSTORE ADD PUSH2 0x16D9 JUMP JUMPDEST DUP2 DUP2 MUL SWAP3 SWAP2 DUP2 ISZERO SWAP2 DUP5 DIV EQ OR ISZERO PUSH2 0x88A JUMPI JUMP JUMPDEST SWAP2 SWAP1 DUP3 ADD DUP1 SWAP3 GT PUSH2 0x88A JUMPI JUMP JUMPDEST DUP1 ISZERO PUSH2 0x193D JUMPI DUP2 ISZERO SWAP3 DUP4 ISZERO DUP1 PUSH2 0x1934 JUMPI JUMPDEST ISZERO PUSH2 0x18FC JUMPI DUP3 DUP3 GT PUSH2 0x18B7 JUMPI PUSH7 0x38D7EA4C68000 DUP3 LT PUSH2 0x187B JUMPI PUSH31 0x41BBB2F80A4553F6C19AD51E8E40314CC63A07B3FEF911341FD6EAB024F994 DUP3 GT PUSH2 0x182A JUMPI PUSH2 0x3E5 DUP3 MUL SWAP2 DUP3 DIV PUSH2 0x3E5 SUB PUSH2 0x88A JUMPI PUSH2 0x179A SWAP1 DUP3 PUSH2 0x170F JUMP JUMPDEST SWAP3 PUSH2 0x3E8 DUP4 MUL SWAP3 DUP4 DIV PUSH2 0x3E8 EQ OR ISZERO PUSH2 0x88A JUMPI PUSH2 0x17B6 SWAP2 PUSH2 0x1722 JUMP JUMPDEST SWAP1 DUP2 ISZERO PUSH2 0x1814 JUMPI DIV PUSH7 0x38D7EA4C68000 DUP2 LT PUSH2 0x17CF JUMPI SWAP1 JUMP JUMPDEST PUSH1 0x40 MLOAD PUSH3 0x461BCD PUSH1 0xE5 SHL DUP2 MSTORE PUSH1 0x20 PUSH1 0x4 DUP3 ADD MSTORE PUSH1 0x19 PUSH1 0x24 DUP3 ADD MSTORE PUSH32 0x53776170206F75747075742062656C6F77206D696E696D756D00000000000000 PUSH1 0x44 DUP3 ADD MSTORE PUSH1 0x64 SWAP1 REVERT JUMPDEST PUSH4 0x4E487B71 PUSH1 0xE0 SHL PUSH1 0x0 MSTORE PUSH1 0x12 PUSH1 0x4 MSTORE PUSH1 0x24 PUSH1 0x0 REVERT JUMPDEST PUSH1 0x40 MLOAD PUSH3 0x461BCD PUSH1 0xE5 SHL DUP2 MSTORE PUSH1 0x20 PUSH1 0x4 DUP3 ADD MSTORE PUSH1 0x24 DUP1 DUP3 ADD MSTORE PUSH32 0x416D6F756E7420746F6F206C6172676520666F72206665652063616C63756C61 PUSH1 0x44 DUP3 ADD MSTORE PUSH4 0x3A34B7B7 PUSH1 0xE1 SHL PUSH1 0x64 DUP3 ADD MSTORE PUSH1 0x84 SWAP1 REVERT JUMPDEST PUSH1 0x40 MLOAD PUSH3 0x461BCD PUSH1 0xE5 SHL DUP2 MSTORE PUSH1 0x20 PUSH1 0x4 DUP3 ADD MSTORE PUSH1 0x14 PUSH1 0x24 DUP3 ADD MSTORE PUSH20 0x416D6F756E742062656C6F77206D696E696D756D PUSH1 0x60 SHL PUSH1 0x44 DUP3 ADD MSTORE PUSH1 0x64 SWAP1 REVERT JUMPDEST PUSH1 0x40 MLOAD PUSH3 0x461BCD PUSH1 0xE5 SHL DUP2 MSTORE PUSH1 0x20 PUSH1 0x4 DUP3 ADD MSTORE PUSH1 0x1C PUSH1 0x24 DUP3 ADD MSTORE PUSH32 0x5377617020616D6F756E74206578636565647320726573657276657300000000 PUSH1 0x44 DUP3 ADD MSTORE PUSH1 0x64 SWAP1 REVERT JUMPDEST PUSH1 0x40 MLOAD PUSH3 0x461BCD PUSH1 0xE5 SHL DUP2 MSTORE PUSH1 0x20 PUSH1 0x4 DUP3 ADD MSTORE PUSH1 0x10 PUSH1 0x24 DUP3 ADD MSTORE PUSH16 0x496E76616C6964207265736572766573 PUSH1 0x80 SHL PUSH1 0x44 DUP3 ADD MSTORE PUSH1 0x64 SWAP1 REVERT JUMPDEST POP DUP1 ISZERO ISZERO PUSH2 0x1740 JUMP JUMPDEST PUSH1 0x40 MLOAD PUSH3 0x461BCD PUSH1 0xE5 SHL DUP2 MSTORE PUSH1 0x20 PUSH1 0x4 DUP3 ADD MSTORE PUSH1 0x14 PUSH1 0x24 DUP3 ADD MSTORE PUSH20 0x125B9D985B1A59081A5B9C1D5D08185B5BDD5B9D PUSH1 0x62 SHL PUSH1 0x44 DUP3 ADD MSTORE PUSH1 0x64 SWAP1 REVERT JUMPDEST ISZERO PUSH2 0x1980 JUMPI JUMP JUMPDEST PUSH1 0x40 MLOAD PUSH3 0x461BCD PUSH1 0xE5 SHL DUP2 MSTORE PUSH1 0x20 PUSH1 0x4 DUP3 ADD MSTORE PUSH1 0xE PUSH1 0x24 DUP3 ADD MSTORE PUSH14 0x546F6F206D616E79207377617073 PUSH1 0x90 SHL PUSH1 0x44 DUP3 ADD MSTORE PUSH1 0x64 SWAP1 REVERT JUMPDEST ISZERO PUSH2 0x19BD JUMPI JUMP JUMPDEST PUSH1 0x40 MLOAD PUSH3 0x461BCD PUSH1 0xE5 SHL DUP2 MSTORE PUSH1 0x20 PUSH1 0x4 DUP3 ADD MSTORE PUSH1 0x11 PUSH1 0x24 DUP3 ADD MSTORE PUSH17 0xA6D8D2E0E0C2CECA40E8DEDE40D0D2CED PUSH1 0x7B SHL PUSH1 0x44 DUP3 ADD MSTORE PUSH1 0x64 SWAP1 REVERT JUMPDEST ISZERO PUSH2 0x19FD JUMPI JUMP JUMPDEST PUSH1 0x40 MLOAD PUSH3 0x461BCD PUSH1 0xE5 SHL DUP2 MSTORE PUSH1 0x20 PUSH1 0x4 DUP3 ADD MSTORE PUSH1 0x10 PUSH1 0x24 DUP3 ADD MSTORE PUSH16 0x496E76616C696420736C697070616765 PUSH1 0x80 SHL PUSH1 0x44 DUP3 ADD MSTORE PUSH1 0x64 SWAP1 REVERT JUMPDEST SWAP1 PUSH1 0x1F DUP1 NOT SWAP2 ADD AND DUP2 ADD SWAP1 DUP2 LT PUSH8 0xFFFFFFFFFFFFFFFF DUP3 GT OR PUSH2 0x1A57 JUMPI PUSH1 0x40 MSTORE JUMP JUMPDEST PUSH4 0x4E487B71 PUSH1 0xE0 SHL PUSH1 0x0 MSTORE PUSH1 0x41 PUSH1 0x4 MSTORE PUSH1 0x24 PUSH1 0x0 REVERT JUMPDEST SWAP2 SWAP1 DUP3 PUSH1 0x40 SWAP2 SUB SLT PUSH2 0x1FC JUMPI PUSH1 0x20 DUP3 MLOAD SWAP3 ADD MLOAD SWAP1 JUMP JUMPDEST ISZERO PUSH2 0x1A8A JUMPI JUMP JUMPDEST PUSH1 0x40 MLOAD PUSH3 0x461BCD PUSH1 0xE5 SHL DUP2 MSTORE PUSH1 0x20 PUSH1 0x4 DUP3 ADD MSTORE PUSH1 0xE PUSH1 0x24 DUP3 ADD MSTORE PUSH14 0x5377617020746F6F206C61726765 PUSH1 0x90 SHL PUSH1 0x44 DUP3 ADD MSTORE PUSH1 0x64 SWAP1 REVERT JUMPDEST SWAP2 SWAP1 DUP3 SUB SWAP2 DUP3 GT PUSH2 0x88A JUMPI JUMP JUMPDEST PUSH1 0x40 MLOAD SWAP1 PUSH2 0x1ADC PUSH1 0x40 DUP4 PUSH2 0x1A35 JUMP JUMPDEST PUSH1 0x20 DUP3 MSTORE PUSH32 0x496E73756666696369656E7420434F52414C20746F6B656E2062616C616E6365 PUSH1 0x20 DUP4 ADD MSTORE JUMP JUMPDEST ISZERO PUSH2 0x1B10 JUMPI POP JUMP JUMPDEST PUSH1 0x40 MLOAD PUSH3 0x461BCD PUSH1 0xE5 SHL DUP2 MSTORE PUSH1 0x20 PUSH1 0x4 DUP3 ADD MSTORE SWAP1 DUP2 SWAP1 PUSH2 0x1B34 SWAP1 PUSH1 0x24 DUP4 ADD SWAP1 PUSH2 0x16CE JUMP JUMPDEST SUB SWAP1 REVERT JUMPDEST PUSH1 0x40 MLOAD PUSH4 0x70A08231 PUSH1 0xE0 SHL DUP2 MSTORE ADDRESS PUSH1 0x4 DUP3 ADD MSTORE SWAP1 PUSH1 0x20 SWAP1 DUP3 SWAP1 PUSH1 0x24 SWAP1 DUP3 SWAP1 PUSH1 0x1 PUSH1 0x1 PUSH1 0xA0 SHL SUB AND GAS STATICCALL SWAP1 DUP2 ISZERO PUSH2 0x704 JUMPI PUSH1 0x0 SWAP2 PUSH2 0x1B76 JUMPI JUMPDEST POP LT ISZERO SWAP1 JUMP JUMPDEST SWAP1 POP PUSH1 0x20 DUP2 RETURNDATASIZE PUSH1 0x20 GT PUSH2 0x1BA0 JUMPI JUMPDEST DUP2 PUSH2 0x1B91 PUSH1 0x20 SWAP4 DUP4 PUSH2 0x1A35 JUMP JUMPDEST DUP2 ADD SUB SLT PUSH2 0x1FC JUMPI MLOAD CODESIZE PUSH2 0x1B70 JUMP JUMPDEST RETURNDATASIZE SWAP2 POP PUSH2 0x1B84 JUMP JUMPDEST PUSH1 0x40 MLOAD SWAP1 PUSH2 0x1BB7 PUSH1 0x40 DUP4 PUSH2 0x1A35 JUMP JUMPDEST PUSH1 0x1C DUP3 MSTORE PUSH32 0x4E657720736C6970706167652073616D652061732063757272656E7400000000 PUSH1 0x20 DUP4 ADD MSTORE JUMP JUMPDEST PUSH1 0x40 MLOAD SWAP1 PUSH2 0x1BF2 PUSH1 0x40 DUP4 PUSH2 0x1A35 JUMP JUMPDEST PUSH1 0x1C DUP3 MSTORE PUSH32 0x43616E6E6F74206265206C6F776572207468616E2064656661756C7400000000 PUSH1 0x20 DUP4 ADD MSTORE JUMP JUMPDEST PUSH1 0x40 MLOAD SWAP1 PUSH2 0x1C2D PUSH1 0x40 DUP4 PUSH2 0x1A35 JUMP JUMPDEST PUSH1 0x11 DUP3 MSTORE PUSH17 0x43616E6E6F742065786365656420323025 PUSH1 0x78 SHL PUSH1 0x20 DUP4 ADD MSTORE JUMP JUMPDEST PUSH1 0x7 SLOAD DUP2 EQ PUSH2 0x1CB3 JUMPI PUSH32 0x0 DUP2 LT PUSH2 0x1CAA JUMPI PUSH2 0x7D0 LT PUSH2 0x1C9D JUMPI PUSH1 0x1 SWAP1 PUSH1 0x40 MLOAD PUSH2 0x1C96 PUSH1 0x20 DUP3 PUSH2 0x1A35 JUMP JUMPDEST PUSH1 0x0 DUP2 MSTORE SWAP1 JUMP JUMPDEST PUSH2 0x1CA5 PUSH2 0x1C1E JUMP JUMPDEST PUSH1 0x0 SWAP2 JUMP JUMPDEST POP PUSH2 0x1CA5 PUSH2 0x1BE3 JUMP JUMPDEST POP PUSH2 0x1CA5 PUSH2 0x1BA8 JUMP JUMPDEST PUSH1 0x40 MLOAD PUSH4 0x23B872DD PUSH1 0xE0 SHL PUSH1 0x20 DUP3 ADD MSTORE PUSH1 0x1 PUSH1 0x1 PUSH1 0xA0 SHL SUB SWAP3 DUP4 AND PUSH1 0x24 DUP3 ADD MSTORE SWAP3 SWAP1 SWAP2 AND PUSH1 0x44 DUP4 ADD MSTORE PUSH1 0x64 DUP1 DUP4 ADD SWAP4 SWAP1 SWAP4 MSTORE SWAP2 DUP2 MSTORE PUSH2 0x1D05 SWAP2 PUSH2 0x1D00 PUSH1 0x84 DUP4 PUSH2 0x1A35 JUMP JUMPDEST PUSH2 0x20BF JUMP JUMPDEST JUMP JUMPDEST PUSH1 0x0 SWAP1 PUSH1 0x1 DUP1 PUSH1 0xA0 SHL SUB AND SWAP2 DUP3 DUP3 MSTORE PUSH1 0x6 PUSH1 0x20 MSTORE PUSH10 0x21E19E0C9BAB2400000 PUSH2 0x1D34 DUP3 PUSH1 0x40 DUP6 KECCAK256 SLOAD PUSH2 0x1722 JUMP JUMPDEST GT PUSH2 0x1EC4 JUMPI DUP3 DUP3 MSTORE PUSH1 0x6 PUSH1 0x20 MSTORE PUSH2 0x1D50 PUSH1 0x40 DUP4 KECCAK256 SWAP2 DUP3 SLOAD PUSH2 0x1722 JUMP JUMPDEST SWAP1 SSTORE DUP2 DUP2 MSTORE PUSH1 0x6 PUSH1 0x20 MSTORE PUSH9 0x3635C9ADC5DEA00000 PUSH1 0x40 DUP3 KECCAK256 SLOAD LT ISZERO PUSH2 0x1D73 JUMPI POP POP JUMP JUMPDEST DUP2 DUP2 MSTORE PUSH1 0x6 PUSH1 0x20 MSTORE PUSH1 0x40 DUP2 KECCAK256 SLOAD DUP3 DUP3 MSTORE PUSH1 0x6 PUSH1 0x20 MSTORE PUSH1 0x40 DUP3 KECCAK256 SLOAD SWAP2 PUSH1 0x1 DUP1 PUSH1 0xA0 SHL SUB PUSH1 0x3 SLOAD AND DUP1 EXTCODESIZE ISZERO PUSH2 0x1EC0 JUMPI DUP2 DUP1 SWAP2 PUSH1 0x24 PUSH1 0x40 MLOAD DUP1 SWAP6 DUP2 SWAP4 PUSH4 0xBC99F487 PUSH1 0xE0 SHL DUP4 MSTORE DUP11 PUSH1 0x4 DUP5 ADD MSTORE GAS CALL SWAP2 DUP3 PUSH2 0x1EB0 JUMPI JUMPDEST POP SWAP1 PUSH2 0x1DFB JUMPI POP PUSH32 0xC2AF8177B25272AA44B4EAFDF3CC4916749B55DCED944E081E11D1E1A9AC7EC2 SWAP2 POP PUSH1 0x20 SWAP1 PUSH1 0x40 MLOAD SWAP1 DUP2 MSTORE LOG2 JUMP JUMPDEST DUP4 DUP2 MSTORE PUSH1 0x6 PUSH1 0x20 MSTORE PUSH1 0x40 SWAP1 KECCAK256 SLOAD DUP4 DUP2 PUSH2 0x1E3F JUMPI POP POP PUSH32 0x30A9A7748B75A6EBF9C7CB2BEAC00BE9BCC421ABCF4793AA03DD54A461594AC SWAP2 POP PUSH1 0x20 SWAP1 PUSH1 0x40 MLOAD SWAP1 DUP2 MSTORE LOG2 JUMP JUMPDEST PUSH1 0x20 SWAP3 POP PUSH2 0x1E6E DUP3 PUSH32 0xC2AF8177B25272AA44B4EAFDF3CC4916749B55DCED944E081E11D1E1A9AC7EC2 SWAP6 PUSH2 0x1AC0 JUMP JUMPDEST DUP1 PUSH2 0x1E7F JUMPI JUMPDEST POP POP PUSH1 0x40 MLOAD SWAP1 DUP2 MSTORE LOG2 JUMP JUMPDEST DUP4 PUSH32 0x30A9A7748B75A6EBF9C7CB2BEAC00BE9BCC421ABCF4793AA03DD54A461594AC SWAP2 PUSH1 0x40 MLOAD SWAP1 DUP2 MSTORE LOG2 DUP4 CODESIZE PUSH2 0x1E74 JUMP JUMPDEST DUP2 PUSH2 0x1EBA SWAP2 PUSH2 0x1A35 JUMP JUMPDEST CODESIZE PUSH2 0x1DC5 JUMP JUMPDEST POP DUP1 REVERT JUMPDEST PUSH1 0x40 MLOAD PUSH3 0x461BCD PUSH1 0xE5 SHL DUP2 MSTORE PUSH1 0x20 PUSH1 0x4 DUP3 ADD MSTORE PUSH1 0x19 PUSH1 0x24 DUP3 ADD MSTORE PUSH32 0x4665652073746F72616765206C696D6974207265616368656400000000000000 PUSH1 0x44 DUP3 ADD MSTORE PUSH1 0x64 SWAP1 REVERT JUMPDEST PUSH1 0x40 MLOAD PUSH4 0xA9059CBB PUSH1 0xE0 SHL PUSH1 0x20 DUP3 ADD MSTORE PUSH1 0x1 PUSH1 0x1 PUSH1 0xA0 SHL SUB SWAP1 SWAP3 AND PUSH1 0x24 DUP4 ADD MSTORE PUSH1 0x44 DUP1 DUP4 ADD SWAP4 SWAP1 SWAP4 MSTORE SWAP2 DUP2 MSTORE PUSH2 0x1D05 SWAP2 PUSH2 0x1D00 PUSH1 0x64 DUP4 PUSH2 0x1A35 JUMP JUMPDEST PUSH1 0x0 SLOAD PUSH1 0x1 PUSH1 0x1 PUSH1 0xA0 SHL SUB AND CALLER SUB PUSH2 0x1F58 JUMPI JUMP JUMPDEST PUSH4 0x118CDAA7 PUSH1 0xE0 SHL PUSH1 0x0 MSTORE CALLER PUSH1 0x4 MSTORE PUSH1 0x24 PUSH1 0x0 REVERT JUMPDEST PUSH1 0x0 DUP2 DUP2 MSTORE PUSH1 0x1 PUSH1 0x20 SWAP1 DUP2 MSTORE PUSH1 0x40 DUP1 DUP4 KECCAK256 CALLER DUP5 MSTORE SWAP1 SWAP2 MSTORE SWAP1 KECCAK256 SLOAD PUSH1 0xFF AND ISZERO PUSH2 0x1F92 JUMPI POP JUMP JUMPDEST PUSH4 0xE2517D3F PUSH1 0xE0 SHL PUSH1 0x0 MSTORE CALLER PUSH1 0x4 MSTORE PUSH1 0x24 MSTORE PUSH1 0x44 PUSH1 0x0 REVERT JUMPDEST PUSH1 0x0 DUP2 DUP2 MSTORE PUSH1 0x1 PUSH1 0x20 SWAP1 DUP2 MSTORE PUSH1 0x40 DUP1 DUP4 KECCAK256 PUSH1 0x1 PUSH1 0x1 PUSH1 0xA0 SHL SUB DUP7 AND DUP5 MSTORE SWAP1 SWAP2 MSTORE SWAP1 KECCAK256 SLOAD PUSH1 0xFF AND PUSH2 0x2032 JUMPI PUSH1 0x0 DUP2 DUP2 MSTORE PUSH1 0x1 PUSH1 0x20 DUP2 DUP2 MSTORE PUSH1 0x40 DUP1 DUP5 KECCAK256 PUSH1 0x1 PUSH1 0x1 PUSH1 0xA0 SHL SUB SWAP7 SWAP1 SWAP7 AND DUP1 DUP6 MSTORE SWAP6 SWAP1 SWAP2 MSTORE DUP3 KECCAK256 DUP1 SLOAD PUSH1 0xFF NOT AND SWAP1 SWAP2 OR SWAP1 SSTORE CALLER SWAP3 SWAP2 SWAP1 PUSH32 0x2F8788117E7EFF1D82E926EC794901D17C78024A50270940304540A733656F0D SWAP1 DUP1 LOG4 PUSH1 0x1 SWAP1 JUMP JUMPDEST POP POP PUSH1 0x0 SWAP1 JUMP JUMPDEST PUSH1 0x0 DUP2 DUP2 MSTORE PUSH1 0x1 PUSH1 0x20 SWAP1 DUP2 MSTORE PUSH1 0x40 DUP1 DUP4 KECCAK256 PUSH1 0x1 PUSH1 0x1 PUSH1 0xA0 SHL SUB DUP7 AND DUP5 MSTORE SWAP1 SWAP2 MSTORE SWAP1 KECCAK256 SLOAD PUSH1 0xFF AND ISZERO PUSH2 0x2032 JUMPI PUSH1 0x0 DUP2 DUP2 MSTORE PUSH1 0x1 PUSH1 0x20 SWAP1 DUP2 MSTORE PUSH1 0x40 DUP1 DUP4 KECCAK256 PUSH1 0x1 PUSH1 0x1 PUSH1 0xA0 SHL SUB SWAP6 SWAP1 SWAP6 AND DUP1 DUP5 MSTORE SWAP5 SWAP1 SWAP2 MSTORE DUP2 KECCAK256 DUP1 SLOAD PUSH1 0xFF NOT AND SWAP1 SSTORE CALLER SWAP3 SWAP2 SWAP1 PUSH32 0xF6391F5C32D9C69D2A47EA670B442974B53935D1EDC7FD64EB21E047A839171B SWAP1 DUP1 LOG4 PUSH1 0x1 SWAP1 JUMP JUMPDEST SWAP1 PUSH1 0x0 PUSH1 0x20 SWAP2 DUP3 DUP2 MLOAD SWAP2 ADD DUP3 DUP6 GAS CALL ISZERO PUSH2 0x704 JUMPI PUSH1 0x0 MLOAD RETURNDATASIZE PUSH2 0x2111 JUMPI POP PUSH1 0x1 PUSH1 0x1 PUSH1 0xA0 SHL SUB DUP2 AND EXTCODESIZE ISZERO JUMPDEST PUSH2 0x20F0 JUMPI POP JUMP JUMPDEST PUSH4 0x5274AFE7 PUSH1 0xE0 SHL PUSH1 0x0 SWAP1 DUP2 MSTORE PUSH1 0x1 PUSH1 0x1 PUSH1 0xA0 SHL SUB SWAP2 SWAP1 SWAP2 AND PUSH1 0x4 MSTORE PUSH1 0x24 SWAP1 REVERT JUMPDEST PUSH1 0x1 EQ ISZERO PUSH2 0x20E9 JUMP INVALID LOG2 PUSH5 0x6970667358 0x22 SLT KECCAK256 CREATE 0x26 JUMPDEST 0xC9 GASLIMIT 0x21 ORIGIN PUSH4 0x18C8DAEB CODECOPY SWAP3 SWAP10 SUB EXTCODEHASH CALLDATASIZE GASLIMIT CALLDATALOAD 0xC8 CALLDATALOAD 0xE3 DIV 0xCB 0x4C 0xF SWAP8 PUSH30 0xA612FA64736F6C634300081C00332F8788117E7EFF1D82E926EC794901D1 PUSH29 0x78024A50270940304540A733656F0DA6EEF7E35ABE7026729641147F79 ISZERO JUMPI EXTCODECOPY PUSH31 0x97B47EFA546F5F6E3230263BCB49A3A28E4F80D0370A78B193FD33BFBF2F18 PUSH1 0x95 0xDC SHL 0x2B 0xB4 CALLER BLOCKHASH 0xC2 PUSH19 0x507B8D707A0000000000000000000000000000 "},"methodIdentifiers":{"ABSOLUTE_MAX_SLIPPAGE()":"e7b0444c","AUTO_REDEPLOY_THRESHOLD()":"90cd3694","DEFAULT_ADMIN_ROLE()":"a217fddf","DEFAULT_MAX_SLIPPAGE()":"85015e09","LIQUIDITY_MANAGER_ROLE()":"242f0551","MAXIMUM_ALLOWED_SLIPPAGE()":"8ac058cc","MAX_FEE_STORAGE()":"e7ca44ef","MAX_SINGLE_SWAP()":"6604b53a","MAX_SWAP_AMOUNT_PERCENT()":"d855dc7e","MIN_OUTPUT_AMOUNT()":"797cb5a2","MIN_SWAP_AMOUNT()":"99f34c12","MIN_TIME_BETWEEN_SWAPS()":"11a9992e","checkFeesForRedeployment(address)":"268b69cb","coralToken()":"bba2e140","getAmountOut(uint256,uint256,uint256)":"054d50d4","getAmountOutWithFees(uint256,address[])":"a08a5220","getRoleAdmin(bytes32)":"248a9ca3","getSlippageSettings()":"c54e1d38","getWithdrawableFees(address)":"f81bdc23","grantRole(bytes32,address)":"2f2ff15d","hasRole(bytes32,address)":"91d14854","hasTokenBalance(address,uint256)":"c838889e","isNativeCoral(address)":"fb28ceb2","isValidSwapAmount(uint256)":"94590aca","lastSwapTimestamp(address)":"02e9d3e8","liquidityManager()":"33827438","owner()":"8da5cb5b","renounceOwnership()":"715018a6","renounceRole(bytes32,address)":"36568abe","revokeRole(bytes32,address)":"d547741f","storedFees(address)":"125c1204","supportsInterface(bytes4)":"01ffc9a7","swapCoralForCreatorToken(address,uint256,uint256,uint256)":"0c28192f","swapCreatorTokenForCoral(address,uint256,uint256,uint256)":"dcefe5b6","swapFee()":"54cf2aeb","transferOwnership(address)":"f2fde38b","updateMaxSlippage(uint256)":"f896acc7","updateSwapFee(uint256)":"bf16f65a","validateSlippage(uint256)":"f2c75fa0","withdrawStoredFees(address,uint256)":"13079df5"}},"storageLayout":{"storage":[{"astId":387,"contract":"contracts/SaraDEX.sol:SaraDEX","label":"_owner","offset":0,"slot":"0","type":"t_address"},{"astId":26,"contract":"contracts/SaraDEX.sol:SaraDEX","label":"_roles","offset":0,"slot":"1","type":"t_mapping(t_bytes32,t_struct(RoleData)21_storage)"},{"astId":4683,"contract":"contracts/SaraDEX.sol:SaraDEX","label":"coralToken","offset":0,"slot":"2","type":"t_address"},{"astId":4686,"contract":"contracts/SaraDEX.sol:SaraDEX","label":"liquidityManager","offset":0,"slot":"3","type":"t_contract(SaraLiquidityManager)10467"},{"astId":4689,"contract":"contracts/SaraDEX.sol:SaraDEX","label":"swapFee","offset":0,"slot":"4","type":"t_uint256"},{"astId":4693,"contract":"contracts/SaraDEX.sol:SaraDEX","label":"lastSwapTimestamp","offset":0,"slot":"5","type":"t_mapping(t_address,t_uint256)"},{"astId":4703,"contract":"contracts/SaraDEX.sol:SaraDEX","label":"storedFees","offset":0,"slot":"6","type":"t_mapping(t_address,t_uint256)"},{"astId":4719,"contract":"contracts/SaraDEX.sol:SaraDEX","label":"ABSOLUTE_MAX_SLIPPAGE","offset":0,"slot":"7","type":"t_uint256"}],"types":{"t_address":{"encoding":"inplace","label":"address","numberOfBytes":"20"},"t_bool":{"encoding":"inplace","label":"bool","numberOfBytes":"1"},"t_bytes32":{"encoding":"inplace","label":"bytes32","numberOfBytes":"32"},"t_contract(SaraLiquidityManager)10467":{"encoding":"inplace","label":"contract SaraLiquidityManager","numberOfBytes":"20"},"t_mapping(t_address,t_bool)":{"encoding":"mapping","key":"t_address","label":"mapping(address => bool)","numberOfBytes":"32","value":"t_bool"},"t_mapping(t_address,t_uint256)":{"encoding":"mapping","key":"t_address","label":"mapping(address => uint256)","numberOfBytes":"32","value":"t_uint256"},"t_mapping(t_bytes32,t_struct(RoleData)21_storage)":{"encoding":"mapping","key":"t_bytes32","label":"mapping(bytes32 => struct AccessControl.RoleData)","numberOfBytes":"32","value":"t_struct(RoleData)21_storage"},"t_struct(RoleData)21_storage":{"encoding":"inplace","label":"struct AccessControl.RoleData","members":[{"astId":18,"contract":"contracts/SaraDEX.sol:SaraDEX","label":"hasRole","offset":0,"slot":"0","type":"t_mapping(t_address,t_bool)"},{"astId":20,"contract":"contracts/SaraDEX.sol:SaraDEX","label":"adminRole","offset":0,"slot":"1","type":"t_bytes32"}],"numberOfBytes":"64"},"t_uint256":{"encoding":"inplace","label":"uint256","numberOfBytes":"32"}}}}}}