{"contracts/SaraTokenRouter.sol":{"SaraTokenRouter":{"abi":[{"inputs":[{"internalType":"address","name":"_coralToken","type":"address"},{"internalType":"address","name":"_liquidityManager","type":"address"},{"internalType":"address","name":"_dex","type":"address"},{"internalType":"address","name":"_creatorTokenFactory","type":"address"}],"stateMutability":"nonpayable","type":"constructor"},{"inputs":[{"internalType":"address","name":"owner","type":"address"}],"name":"OwnableInvalidOwner","type":"error"},{"inputs":[{"internalType":"address","name":"account","type":"address"}],"name":"OwnableUnauthorizedAccount","type":"error"},{"inputs":[],"name":"ReentrancyGuardReentrantCall","type":"error"},{"inputs":[{"internalType":"address","name":"token","type":"address"}],"name":"SafeERC20FailedOperation","type":"error"},{"anonymous":false,"inputs":[{"indexed":true,"internalType":"address","name":"token","type":"address"},{"indexed":false,"internalType":"uint256","name":"amount","type":"uint256"},{"indexed":false,"internalType":"uint256","name":"timestamp","type":"uint256"}],"name":"ApprovalGranted","type":"event"},{"anonymous":false,"inputs":[{"indexed":true,"internalType":"address","name":"token","type":"address"},{"indexed":false,"internalType":"uint256","name":"timestamp","type":"uint256"}],"name":"ApprovalRevoked","type":"event"},{"anonymous":false,"inputs":[{"indexed":true,"internalType":"address","name":"token","type":"address"},{"indexed":false,"internalType":"uint256","name":"amountIn","type":"uint256"},{"indexed":false,"internalType":"uint256","name":"amountOut","type":"uint256"}],"name":"CoralSwappedForToken","type":"event"},{"anonymous":false,"inputs":[{"indexed":true,"internalType":"address","name":"token","type":"address"},{"indexed":true,"internalType":"address","name":"to","type":"address"},{"indexed":false,"internalType":"uint256","name":"amount","type":"uint256"},{"indexed":false,"internalType":"uint256","name":"timestamp","type":"uint256"},{"indexed":false,"internalType":"enum SaraTokenRouter.WithdrawReason","name":"reason","type":"uint8"}],"name":"EmergencyWithdraw","type":"event"},{"anonymous":false,"inputs":[{"indexed":true,"internalType":"address","name":"previousOwner","type":"address"},{"indexed":true,"internalType":"address","name":"newOwner","type":"address"}],"name":"OwnershipTransferred","type":"event"},{"anonymous":false,"inputs":[{"indexed":true,"internalType":"bool","name":"isPaused","type":"bool"},{"indexed":false,"internalType":"uint256","name":"timestamp","type":"uint256"},{"indexed":true,"internalType":"address","name":"actor","type":"address"}],"name":"PauseStateChanged","type":"event"},{"anonymous":false,"inputs":[{"indexed":true,"internalType":"address","name":"token","type":"address"},{"indexed":false,"internalType":"uint256","name":"timestamp","type":"uint256"}],"name":"PriceDiscoveryCompleted","type":"event"},{"anonymous":false,"inputs":[{"indexed":true,"internalType":"address","name":"token","type":"address"},{"indexed":false,"internalType":"uint256","name":"timestamp","type":"uint256"}],"name":"PriceDiscoveryFailed","type":"event"},{"anonymous":false,"inputs":[{"indexed":true,"internalType":"address","name":"token","type":"address"},{"indexed":false,"internalType":"uint256","name":"initialLiquidity","type":"uint256"}],"name":"TokenAutoListed","type":"event"},{"anonymous":false,"inputs":[{"indexed":true,"internalType":"address","name":"creatorToken","type":"address"}],"name":"TokenListed","type":"event"},{"anonymous":false,"inputs":[{"indexed":true,"internalType":"address","name":"token","type":"address"},{"indexed":false,"internalType":"uint256","name":"amountIn","type":"uint256"},{"indexed":false,"internalType":"uint256","name":"amountOut","type":"uint256"}],"name":"TokenSwappedForCoral","type":"event"},{"inputs":[],"name":"APPROVAL_TIMEOUT","outputs":[{"internalType":"uint256","name":"","type":"uint256"}],"stateMutability":"view","type":"function"},{"inputs":[],"name":"MAX_INITIAL_CORAL","outputs":[{"internalType":"uint256","name":"","type":"uint256"}],"stateMutability":"view","type":"function"},{"inputs":[],"name":"MIN_INITIAL_CORAL","outputs":[{"internalType":"uint256","name":"","type":"uint256"}],"stateMutability":"view","type":"function"},{"inputs":[{"internalType":"uint256","name":"subscriberCount","type":"uint256"}],"name":"calculateInitialLiquidity","outputs":[{"internalType":"uint256","name":"","type":"uint256"}],"stateMutability":"pure","type":"function"},{"inputs":[{"internalType":"address","name":"token","type":"address"}],"name":"completePriceDiscovery","outputs":[],"stateMutability":"nonpayable","type":"function"},{"inputs":[],"name":"coralToken","outputs":[{"internalType":"address","name":"","type":"address"}],"stateMutability":"view","type":"function"},{"inputs":[],"name":"creatorTokenFactory","outputs":[{"internalType":"contract ICreatorCoin","name":"","type":"address"}],"stateMutability":"view","type":"function"},{"inputs":[],"name":"dex","outputs":[{"internalType":"contract SaraDEX","name":"","type":"address"}],"stateMutability":"view","type":"function"},{"inputs":[{"internalType":"address","name":"to","type":"address"},{"internalType":"uint256","name":"amount","type":"uint256"},{"internalType":"enum SaraTokenRouter.WithdrawReason","name":"reason","type":"uint8"}],"name":"emergencyWithdrawCoral","outputs":[],"stateMutability":"nonpayable","type":"function"},{"inputs":[],"name":"getPauseState","outputs":[{"internalType":"bool","name":"isPaused","type":"bool"},{"internalType":"uint256","name":"lastChange","type":"uint256"},{"internalType":"uint256","name":"duration","type":"uint256"}],"stateMutability":"view","type":"function"},{"inputs":[{"internalType":"address","name":"","type":"address"}],"name":"hasOpenApproval","outputs":[{"internalType":"bool","name":"","type":"bool"}],"stateMutability":"view","type":"function"},{"inputs":[{"internalType":"address","name":"","type":"address"}],"name":"inPriceDiscovery","outputs":[{"internalType":"bool","name":"","type":"bool"}],"stateMutability":"view","type":"function"},{"inputs":[],"name":"lastApprovalTimestamp","outputs":[{"internalType":"uint256","name":"","type":"uint256"}],"stateMutability":"view","type":"function"},{"inputs":[],"name":"lastPauseChange","outputs":[{"internalType":"uint256","name":"","type":"uint256"}],"stateMutability":"view","type":"function"},{"inputs":[],"name":"liquidityManager","outputs":[{"internalType":"contract SaraLiquidityManager","name":"","type":"address"}],"stateMutability":"view","type":"function"},{"inputs":[{"internalType":"address","name":"creatorToken","type":"address"}],"name":"listNewCreatorToken","outputs":[],"stateMutability":"nonpayable","type":"function"},{"inputs":[{"internalType":"address","name":"","type":"address"}],"name":"listedTokens","outputs":[{"internalType":"bool","name":"","type":"bool"}],"stateMutability":"view","type":"function"},{"inputs":[{"internalType":"address","name":"token","type":"address"},{"internalType":"uint256","name":"subscriberCount","type":"uint256"}],"name":"onTokenMinted","outputs":[],"stateMutability":"nonpayable","type":"function"},{"inputs":[],"name":"owner","outputs":[{"internalType":"address","name":"","type":"address"}],"stateMutability":"view","type":"function"},{"inputs":[],"name":"paused","outputs":[{"internalType":"bool","name":"","type":"bool"}],"stateMutability":"view","type":"function"},{"inputs":[],"name":"renounceOwnership","outputs":[],"stateMutability":"nonpayable","type":"function"},{"inputs":[{"internalType":"address","name":"token","type":"address"}],"name":"revokeApproval","outputs":[],"stateMutability":"nonpayable","type":"function"},{"inputs":[{"internalType":"address","name":"token","type":"address"},{"internalType":"uint256","name":"coralAmount","type":"uint256"},{"internalType":"uint256","name":"minAmountOut","type":"uint256"}],"name":"swapCoralForToken","outputs":[{"internalType":"uint256","name":"","type":"uint256"}],"stateMutability":"nonpayable","type":"function"},{"inputs":[],"name":"togglePause","outputs":[],"stateMutability":"nonpayable","type":"function"},{"inputs":[{"internalType":"address","name":"newOwner","type":"address"}],"name":"transferOwnership","outputs":[],"stateMutability":"nonpayable","type":"function"},{"inputs":[{"internalType":"address","name":"creatorToken","type":"address"},{"internalType":"uint256","name":"newReserveS","type":"uint256"}],"name":"updateAIRebalance","outputs":[],"stateMutability":"nonpayable","type":"function"},{"inputs":[{"internalType":"address","name":"token","type":"address"},{"internalType":"uint256","name":"currentSubscribers","type":"uint256"}],"name":"updateEngagementMetrics","outputs":[],"stateMutability":"nonpayable","type":"function"}],"evm":{"bytecode":{"linkReferences":{},"object":"60803461013357601f611c0c38819003918201601f19168301916001600160401b0383118484101761013857808492608094604052833981010312610133576100478161014e565b906100546020820161014e565b9061006d60606100666040840161014e565b920161014e565b91331561011d5760008054336001600160a01b0319821681178355604051969290916001600160a01b0316907f8be0079c531659141344cd1fd0a4f28419497f9722a3daafe3b4186f6b6457e09080a360018055600280546001600160a01b03199081166001600160a01b039384161790915560038054821693831693909317909255600480548316938216939093179092556006805490911692909116919091179055611aa990816101638239f35b631e4fbdf760e01b600052600060045260246000fd5b600080fd5b634e487b7160e01b600052604160045260246000fd5b51906001600160a01b03821682036101335756fe608080604052600436101561001357600080fd5b600090813560e01c90816333827438146115cb575080633417c3d0146115115780633f80aace1461112f578063484685b0146111025780635c975abb146110dc578063692058c2146110b35780636cbb34861461101a578063700d53a714610fdb5780637093f47f14610f9c578063715018a614610f4257806388ed751214610f1957806389312c3514610efb5780638da5cb5b14610ed45780638e3b58e214610ead5780638f8f54b314610e8f5780639a44f1fb14610e275780639c3ba48b14610b94578063b0eeb1e814610784578063bba2e1401461075b578063c1eb70cc14610737578063c4ae3168146106c1578063c6a55cbb14610682578063e2cfb2731461065d578063e63c453d146104bc578063f2fde38b14610436578063f3683428146104195763fb99d5f41461014a57600080fd5b34610416576020366003190112610416576101636115f0565b61016b611946565b6101736119ba565b6001600160a01b0316808252600760205260408220546101959060ff16611606565b6002546040516370a0823160e01b815230600482015290602090829060249082906001600160a01b03165afa80156103d25783906103dd575b6102139150604051906101e260408361164b565b602082527f496e697469616c206c69717569646974792063616e6e6f74206265207a65726f6020830152151561170a565b60035460408051630fa6707960e21b81526004810184905291829060249082906001600160a01b03165afa9081156103d25783916103b1575b50818352600760205260408320805460ff1916905560035483906001600160a01b0316803b156103ad57818091602460405180948193633ee6757d60e21b83528960048401525af180156103a257610389575b505060035460408051630fa6707960e21b81526004810185905291829060249082906001600160a01b03165afa90811561037e57849161034d575b501115610312577f8f626108ec6dbb00865cbc0da4f6cc0866bb2e90c351aa607b1a5f4d7607b7da6020604051428152a26001805580f35b60405162461bcd60e51b8152602060048201526013602482015272131a5c5d5a591a5d1e481b9bdd081859191959606a1b6044820152606490fd5b61036f915060403d604011610377575b610367818361164b565b810190611930565b9050386102da565b503d61035d565b6040513d86823e3d90fd5b816103939161164b565b61039e57823861029f565b8280fd5b6040513d84823e3d90fd5b5080fd5b6103ca915060403d60401161037757610367818361164b565b90503861024c565b6040513d85823e3d90fd5b506020813d60201161040e575b816103f76020938361164b565b810103126104095761021390516101ce565b600080fd5b3d91506103ea565b80fd5b50346104165780600319360112610416576020604051610e108152f35b5034610416576020366003190112610416576104506115f0565b610458611946565b6001600160a01b031680156104a85781546001600160a01b03198116821783556001600160a01b03167f8be0079c531659141344cd1fd0a4f28419497f9722a3daafe3b4186f6b6457e08380a380f35b631e4fbdf760e01b82526004829052602482fd5b5034610416576060366003190112610416576104d66115f0565b602435604435916003831015610659576104ee611946565b6104f66119ba565b6001600160a01b03811680156106225761051860ff60065460a01c1615611683565b6002546040516370a0823160e01b81523060048201526001600160a01b039091169190602081602481865afa9081156106175787916105e5575b5084116105a057817fd6904cf5b5e9f829853e263f3843fac5453fd36b81cec3559c5018a0de89d64e606061059997604051908882524260208301526040820152a36119dc565b6001805580f35b60405162461bcd60e51b815260206004820152601a60248201527f496e73756666696369656e7420434f52414c2062616c616e63650000000000006044820152606490fd5b90506020813d60201161060f575b816106006020938361164b565b81010312610409575138610552565b3d91506105f3565b6040513d89823e3d90fd5b60405162461bcd60e51b815260206004820152600f60248201526e496e76616c6964206164647265737360881b6044820152606490fd5b8380fd5b5034610416578060031936011261041657602060405169d3c21bcecceda10000008152f35b50346104165760203660031901126104165760209060ff906040906001600160a01b036106ad6115f0565b168152600784522054166040519015158152f35b50346104165780600319360112610416576106da611946565b60065460ff60a01b60ff8260a01c161560a01b169060ff60a01b1916178060065542600a556040514281527fa965406db9d595b01329adb8152ce3b8bac4b7bfb1e705308939fb0c4a88318c602060ff339460a01c16151592a380f35b50346104165780600319360112610416576020604051683635c9adc5dea000008152f35b50346104165780600319360112610416576002546040516001600160a01b039091168152602090f35b50346104165760603660031901126104165761079e6115f0565b9060243591604435906107b960ff60065460a01c1615611683565b6107c16119ba565b60018060a01b0316906108056040516107db60408261164b565b601581527424b73b30b634b21031b932b0ba37b9103a37b5b2b760591b602082015283151561170a565b61084860405161081660408261164b565b601a81527f496e76616c696420434f52414c20746f6b656e20616d6f756e74000000000000602082015285151561170a565b818352600760205260ff604084205416610b4f57818352600560205260ff60408420541615610b175760025461088c908590309033906001600160a01b031661196f565b60025460048054604051636eb1769f60e11b815230928101929092526001600160a01b0390811660248301819052921690602081604481855afa908115610b0c5790869392918491610ad7575b508781106109f8575b505050602060018060a01b0360045416608460405180948193630c28192f60e01b83528860048401528a60248401528760448401526101f460648401525af19384156109ec57936109b8575b50821061097f578181610973927f7a0a8a7b675dfabba33d3b55537c754dae6910cbc33e6bf9d4bf8aed52d448b3604060209781519081528589820152a233906119dc565b60018055604051908152f35b60405162461bcd60e51b81526020600482015260116024820152700a6d8d2e0e0c2ceca40e8dede40d0d2ced607b1b6044820152606490fd5b9092506020813d6020116109e4575b816109d46020938361164b565b810103126104095751913861092e565b3d91506109c7565b604051903d90823e3d90fd5b610a81575b50506002546004805460405163095ea7b360e01b81526001600160a01b039182169281019290925260248201889052909250602091839160449183918991165af1801561037e57610a52575b808085926108e2565b610a739060203d602011610a7a575b610a6b818361164b565b81019061177c565b5038610a49565b503d610a61565b6044602092604051948593849263095ea7b360e01b845260048401528160248401525af1801561037e57610ab8575b8084916109fd565b610ad09060203d602011610a7a57610a6b818361164b565b5038610ab0565b9350506020833d602011610b04575b81610af36020938361164b565b8101031261040957859251386108d9565b3d9150610ae6565b6040513d88823e3d90fd5b60405162461bcd60e51b815260206004820152601060248201526f151bdad95b881b9bdd081b1a5cdd195960821b6044820152606490fd5b60405162461bcd60e51b815260206004820152601860248201527f546f6b656e20696e20707269636520646973636f7665727900000000000000006044820152606490fd5b503461041657602036600319011261041657610bae6115f0565b610bb6611946565b6001600160a01b03168015610dea57808252600560205260ff604083205416610dae576040516318160ddd60e01b8152602081600481855afa9081156103d2578391610d7c575b5015610d3f57808252600760205260ff604083205416610cfa57600354604051633a54963360e11b81526004810183905290602090829060249082906001600160a01b03165afa9081156103d2578391610cdb575b5015610c9657807f017664858438d89f547fee46da0bcfc5396ea13a9fb1490b8fdd76cfa979f1a98380a28152600560205260408120805460ff1916600117905580f35b60405162461bcd60e51b815260206004820152601b60248201527f4c697175696469747920706f6f6c206e6f7420747261636b65642100000000006044820152606490fd5b610cf4915060203d602011610a7a57610a6b818361164b565b38610c52565b60405162461bcd60e51b815260206004820152601e60248201527f546f6b656e207374696c6c20696e20707269636520646973636f7665727900006044820152606490fd5b60405162461bcd60e51b8152602060048201526015602482015274546f6b656e20686173207a65726f20737570706c7960581b6044820152606490fd5b90506020813d602011610da6575b81610d976020938361164b565b81010312610409575138610bfd565b3d9150610d8a565b60405162461bcd60e51b8152602060048201526014602482015273151bdad95b88185b1c9958591e481b1a5cdd195960621b6044820152606490fd5b60405162461bcd60e51b8152602060048201526015602482015274496e76616c696420746f6b656e206164647265737360581b6044820152606490fd5b503461041657806003193601126104165760ff60065460a01c16600a54801515600014610e8657804203428111610e725760609350905b604051921515835260208301526040820152f35b634e487b7160e01b84526011600452602484fd5b60609290610e5e565b50346104165780600319360112610416576020600a54604051908152f35b5034610416576020366003190112610416576020610ecc6004356118e5565b604051908152f35b5034610416578060031936011261041657546040516001600160a01b039091168152602090f35b50346104165780600319360112610416576020600954604051908152f35b50346104165780600319360112610416576006546040516001600160a01b039091168152602090f35b5034610416578060031936011261041657610f5b611946565b80546001600160a01b03198116825581906001600160a01b03167f8be0079c531659141344cd1fd0a4f28419497f9722a3daafe3b4186f6b6457e08280a380f35b50346104165760203660031901126104165760209060ff906040906001600160a01b03610fc76115f0565b168152600584522054166040519015158152f35b50346104165760203660031901126104165760209060ff906040906001600160a01b036110066115f0565b168152600884522054166040519015158152f35b5034610416576040366003190112610416578060206110376115f0565b61103f611946565b6003546040516355776b7760e01b81526001600160a01b0392831660048201526024808201869052356044820152938492606492849291165af180156103a257611087575080f35b6110a89060203d6020116110ac575b6110a0818361164b565b81019061176d565b5080f35b503d611096565b50346104165780600319360112610416576004546040516001600160a01b039091168152602090f35b5034610416578060031936011261041657602060ff60065460a01c166040519015158152f35b50346104165760203660031901126104165761112c61111f6115f0565b611127611946565b611794565b80f35b5034610416576040366003190112610416576111496115f0565b60243560065461115f60ff8260a01c1615611683565b6001600160a01b031633036114dd576001600160a01b0382168084526007602052604084205490929060ff16611498576111a261119a6116c4565b83151561170a565b6111ab826118e5565b916111ef6040516111bd60408261164b565b602081527f496e697469616c206c69717569646974792063616e6e6f74206265207a65726f602082015284151561170a565b600254604051636eb1769f60e11b81523360048201523060248201526001600160a01b039091169290602081604481875afa80156106175785918891611463575b501061141e576112458487943090339061196f565b848352600760205260408320805460ff191660011790556003546001600160a01b031691823b1561065957604051632324f29f60e21b81526001600160a01b0392909216600483015260248201529082908290604490829084905af180156103a257611409575b50506112b6611946565b8115610dea57818352600560205260ff604084205416610dae576040516318160ddd60e01b8152602081600481865afa90811561037e5784916113d7575b5015610d3f57818352600760205260ff604084205416610cfa57600354604051633a54963360e11b81526004810184905290602090829060249082906001600160a01b03165afa90811561037e5784916113b8575b5015610c965760207fd6d6d534b6d189e6da779fc9a8cc9ab4bd2680e9443079b472ebd776e7b5728a9160405190847f017664858438d89f547fee46da0bcfc5396ea13a9fb1490b8fdd76cfa979f1a98780a28486526005835260408620805460ff191660011790558152a280f35b6113d1915060203d602011610a7a57610a6b818361164b565b38611349565b90506020813d602011611401575b816113f26020938361164b565b810103126104095751386112f4565b3d91506113e5565b816114139161164b565b61039e5782386112ac565b60405162461bcd60e51b815260206004820152601c60248201527f496e73756666696369656e7420434f52414c20616c6c6f77616e6365000000006044820152606490fd5b9150506020813d602011611490575b8161147f6020938361164b565b810103126104095784905138611230565b3d9150611472565b60405162461bcd60e51b815260206004820152601a60248201527f546f6b656e20616c726561647920696e20646973636f766572790000000000006044820152606490fd5b60405162461bcd60e51b815260206004820152600c60248201526b155b985d5d1a1bdc9a5e995960a21b6044820152606490fd5b5034610416576040366003190112610416578061152c6115f0565b611534611946565b6001600160a01b0381168252600760205260408220546115569060ff16611606565b6003546001600160a01b0316803b156115c75760405163271ac57960e11b81526001600160a01b03929092166004830152602480359083015290919081908390604490829084905af180156115ba576115ac5780f35b6115b59161164b565b388180f35b50604051903d90823e3d90fd5b5050fd5b9050346103ad57816003193601126103ad576003546001600160a01b03168152602090f35b600435906001600160a01b038216820361040957565b1561160d57565b60405162461bcd60e51b8152602060048201526016602482015275546f6b656e206e6f7420696e20646973636f7665727960501b6044820152606490fd5b90601f8019910116810190811067ffffffffffffffff82111761166d57604052565b634e487b7160e01b600052604160045260246000fd5b1561168a57565b60405162461bcd60e51b815260206004820152601260248201527110dbdb9d1c9858dd081a5cc81c185d5cd95960721b6044820152606490fd5b604051906116d360608361164b565b6022825261726f60f01b6040837f496e697469616c2073756273637269626572732063616e6e6f74206265207a6560208201520152565b156117125750565b6040519062461bcd60e51b8252602060048301528181519182602483015260005b8381106117555750508160006044809484010152601f80199101168101030190fd5b60208282018101516044878401015285935001611733565b90816020910312610409575190565b90816020910312610409575180151581036104095790565b6002546001600160a01b03918216911681146118e257600354604051636eb1769f60e11b81523060048201526001600160a01b039091166024820181905290602081604481865afa90811561188c576000916118b0575b50151580611898575b6117fc575050565b6040519063095ea7b360e01b82526004820152600060248201526020816044816000865af1801561188c5761186f575b50806000526008602052604060002060ff1981541690557f3e776e19fc0f05c1b8270744b61c5729d5d1a5d8dded1bfb81e3979e257edd596020604051428152a2565b6118879060203d602011610a7a57610a6b818361164b565b61182c565b6040513d6000823e3d90fd5b5081600052600860205260ff604060002054166117f4565b90506020813d6020116118da575b816118cb6020938361164b565b810103126104095751386117eb565b3d91506118be565b50565b80156118f96118f26116c4565b821561170a565b670de0b6b3a76400008202918204670de0b6b3a764000014171561191a5790565b634e487b7160e01b600052601160045260246000fd5b9190826040910312610409576020825192015190565b6000546001600160a01b0316330361195a57565b63118cdaa760e01b6000523360045260246000fd5b6040516323b872dd60e01b60208201526001600160a01b0392831660248201529290911660448301526064808301939093529181526119b8916119b360848361164b565b611a18565b565b6002600154146119cb576002600155565b633ee5aeb560e01b60005260046000fd5b60405163a9059cbb60e01b60208201526001600160a01b039290921660248301526044808301939093529181526119b8916119b360648361164b565b906000602091828151910182855af11561188c576000513d611a6a57506001600160a01b0381163b155b611a495750565b635274afe760e01b60009081526001600160a01b0391909116600452602490fd5b60011415611a4256fea2646970667358221220e5bf9f5b1aab7ba859d21b4dbe8fe447c81594e6628f6c4b90c684352bc103b364736f6c634300081c0033","opcodes":"PUSH1 0x80 CALLVALUE PUSH2 0x133 JUMPI PUSH1 0x1F PUSH2 0x1C0C CODESIZE DUP2 SWAP1 SUB SWAP2 DUP3 ADD PUSH1 0x1F NOT AND DUP4 ADD SWAP2 PUSH1 0x1 PUSH1 0x1 PUSH1 0x40 SHL SUB DUP4 GT DUP5 DUP5 LT OR PUSH2 0x138 JUMPI DUP1 DUP5 SWAP3 PUSH1 0x80 SWAP5 PUSH1 0x40 MSTORE DUP4 CODECOPY DUP2 ADD SUB SLT PUSH2 0x133 JUMPI PUSH2 0x47 DUP2 PUSH2 0x14E JUMP JUMPDEST SWAP1 PUSH2 0x54 PUSH1 0x20 DUP3 ADD PUSH2 0x14E JUMP JUMPDEST SWAP1 PUSH2 0x6D PUSH1 0x60 PUSH2 0x66 PUSH1 0x40 DUP5 ADD PUSH2 0x14E JUMP JUMPDEST SWAP3 ADD PUSH2 0x14E JUMP JUMPDEST SWAP2 CALLER ISZERO PUSH2 0x11D JUMPI PUSH1 0x0 DUP1 SLOAD CALLER PUSH1 0x1 PUSH1 0x1 PUSH1 0xA0 SHL SUB NOT DUP3 AND DUP2 OR DUP4 SSTORE PUSH1 0x40 MLOAD SWAP7 SWAP3 SWAP1 SWAP2 PUSH1 0x1 PUSH1 0x1 PUSH1 0xA0 SHL SUB AND SWAP1 PUSH32 0x8BE0079C531659141344CD1FD0A4F28419497F9722A3DAAFE3B4186F6B6457E0 SWAP1 DUP1 LOG3 PUSH1 0x1 DUP1 SSTORE PUSH1 0x2 DUP1 SLOAD PUSH1 0x1 PUSH1 0x1 PUSH1 0xA0 SHL SUB NOT SWAP1 DUP2 AND PUSH1 0x1 PUSH1 0x1 PUSH1 0xA0 SHL SUB SWAP4 DUP5 AND OR SWAP1 SWAP2 SSTORE PUSH1 0x3 DUP1 SLOAD DUP3 AND SWAP4 DUP4 AND SWAP4 SWAP1 SWAP4 OR SWAP1 SWAP3 SSTORE PUSH1 0x4 DUP1 SLOAD DUP4 AND SWAP4 DUP3 AND SWAP4 SWAP1 SWAP4 OR SWAP1 SWAP3 SSTORE PUSH1 0x6 DUP1 SLOAD SWAP1 SWAP2 AND SWAP3 SWAP1 SWAP2 AND SWAP2 SWAP1 SWAP2 OR SWAP1 SSTORE PUSH2 0x1AA9 SWAP1 DUP2 PUSH2 0x163 DUP3 CODECOPY RETURN JUMPDEST PUSH4 0x1E4FBDF7 PUSH1 0xE0 SHL PUSH1 0x0 MSTORE PUSH1 0x0 PUSH1 0x4 MSTORE PUSH1 0x24 PUSH1 0x0 REVERT JUMPDEST PUSH1 0x0 DUP1 REVERT JUMPDEST PUSH4 0x4E487B71 PUSH1 0xE0 SHL PUSH1 0x0 MSTORE PUSH1 0x41 PUSH1 0x4 MSTORE PUSH1 0x24 PUSH1 0x0 REVERT JUMPDEST MLOAD SWAP1 PUSH1 0x1 PUSH1 0x1 PUSH1 0xA0 SHL SUB DUP3 AND DUP3 SUB PUSH2 0x133 JUMPI JUMP INVALID PUSH1 0x80 DUP1 PUSH1 0x40 MSTORE PUSH1 0x4 CALLDATASIZE LT ISZERO PUSH2 0x13 JUMPI PUSH1 0x0 DUP1 REVERT JUMPDEST PUSH1 0x0 SWAP1 DUP2 CALLDATALOAD PUSH1 0xE0 SHR SWAP1 DUP2 PUSH4 0x33827438 EQ PUSH2 0x15CB JUMPI POP DUP1 PUSH4 0x3417C3D0 EQ PUSH2 0x1511 JUMPI DUP1 PUSH4 0x3F80AACE EQ PUSH2 0x112F JUMPI DUP1 PUSH4 0x484685B0 EQ PUSH2 0x1102 JUMPI DUP1 PUSH4 0x5C975ABB EQ PUSH2 0x10DC JUMPI DUP1 PUSH4 0x692058C2 EQ PUSH2 0x10B3 JUMPI DUP1 PUSH4 0x6CBB3486 EQ PUSH2 0x101A JUMPI DUP1 PUSH4 0x700D53A7 EQ PUSH2 0xFDB JUMPI DUP1 PUSH4 0x7093F47F EQ PUSH2 0xF9C JUMPI DUP1 PUSH4 0x715018A6 EQ PUSH2 0xF42 JUMPI DUP1 PUSH4 0x88ED7512 EQ PUSH2 0xF19 JUMPI DUP1 PUSH4 0x89312C35 EQ PUSH2 0xEFB JUMPI DUP1 PUSH4 0x8DA5CB5B EQ PUSH2 0xED4 JUMPI DUP1 PUSH4 0x8E3B58E2 EQ PUSH2 0xEAD JUMPI DUP1 PUSH4 0x8F8F54B3 EQ PUSH2 0xE8F JUMPI DUP1 PUSH4 0x9A44F1FB EQ PUSH2 0xE27 JUMPI DUP1 PUSH4 0x9C3BA48B EQ PUSH2 0xB94 JUMPI DUP1 PUSH4 0xB0EEB1E8 EQ PUSH2 0x784 JUMPI DUP1 PUSH4 0xBBA2E140 EQ PUSH2 0x75B JUMPI DUP1 PUSH4 0xC1EB70CC EQ PUSH2 0x737 JUMPI DUP1 PUSH4 0xC4AE3168 EQ PUSH2 0x6C1 JUMPI DUP1 PUSH4 0xC6A55CBB EQ PUSH2 0x682 JUMPI DUP1 PUSH4 0xE2CFB273 EQ PUSH2 0x65D JUMPI DUP1 PUSH4 0xE63C453D EQ PUSH2 0x4BC JUMPI DUP1 PUSH4 0xF2FDE38B EQ PUSH2 0x436 JUMPI DUP1 PUSH4 0xF3683428 EQ PUSH2 0x419 JUMPI PUSH4 0xFB99D5F4 EQ PUSH2 0x14A JUMPI PUSH1 0x0 DUP1 REVERT JUMPDEST CALLVALUE PUSH2 0x416 JUMPI PUSH1 0x20 CALLDATASIZE PUSH1 0x3 NOT ADD SLT PUSH2 0x416 JUMPI PUSH2 0x163 PUSH2 0x15F0 JUMP JUMPDEST PUSH2 0x16B PUSH2 0x1946 JUMP JUMPDEST PUSH2 0x173 PUSH2 0x19BA JUMP JUMPDEST PUSH1 0x1 PUSH1 0x1 PUSH1 0xA0 SHL SUB AND DUP1 DUP3 MSTORE PUSH1 0x7 PUSH1 0x20 MSTORE PUSH1 0x40 DUP3 KECCAK256 SLOAD PUSH2 0x195 SWAP1 PUSH1 0xFF AND PUSH2 0x1606 JUMP JUMPDEST PUSH1 0x2 SLOAD PUSH1 0x40 MLOAD PUSH4 0x70A08231 PUSH1 0xE0 SHL DUP2 MSTORE ADDRESS PUSH1 0x4 DUP3 ADD MSTORE SWAP1 PUSH1 0x20 SWAP1 DUP3 SWAP1 PUSH1 0x24 SWAP1 DUP3 SWAP1 PUSH1 0x1 PUSH1 0x1 PUSH1 0xA0 SHL SUB AND GAS STATICCALL DUP1 ISZERO PUSH2 0x3D2 JUMPI DUP4 SWAP1 PUSH2 0x3DD JUMPI JUMPDEST PUSH2 0x213 SWAP2 POP PUSH1 0x40 MLOAD SWAP1 PUSH2 0x1E2 PUSH1 0x40 DUP4 PUSH2 0x164B JUMP JUMPDEST PUSH1 0x20 DUP3 MSTORE PUSH32 0x496E697469616C206C69717569646974792063616E6E6F74206265207A65726F PUSH1 0x20 DUP4 ADD MSTORE ISZERO ISZERO PUSH2 0x170A JUMP JUMPDEST PUSH1 0x3 SLOAD PUSH1 0x40 DUP1 MLOAD PUSH4 0xFA67079 PUSH1 0xE2 SHL DUP2 MSTORE PUSH1 0x4 DUP2 ADD DUP5 SWAP1 MSTORE SWAP2 DUP3 SWAP1 PUSH1 0x24 SWAP1 DUP3 SWAP1 PUSH1 0x1 PUSH1 0x1 PUSH1 0xA0 SHL SUB AND GAS STATICCALL SWAP1 DUP2 ISZERO PUSH2 0x3D2 JUMPI DUP4 SWAP2 PUSH2 0x3B1 JUMPI JUMPDEST POP DUP2 DUP4 MSTORE PUSH1 0x7 PUSH1 0x20 MSTORE PUSH1 0x40 DUP4 KECCAK256 DUP1 SLOAD PUSH1 0xFF NOT AND SWAP1 SSTORE PUSH1 0x3 SLOAD DUP4 SWAP1 PUSH1 0x1 PUSH1 0x1 PUSH1 0xA0 SHL SUB AND DUP1 EXTCODESIZE ISZERO PUSH2 0x3AD JUMPI DUP2 DUP1 SWAP2 PUSH1 0x24 PUSH1 0x40 MLOAD DUP1 SWAP5 DUP2 SWAP4 PUSH4 0x3EE6757D PUSH1 0xE2 SHL DUP4 MSTORE DUP10 PUSH1 0x4 DUP5 ADD MSTORE GAS CALL DUP1 ISZERO PUSH2 0x3A2 JUMPI PUSH2 0x389 JUMPI JUMPDEST POP POP PUSH1 0x3 SLOAD PUSH1 0x40 DUP1 MLOAD PUSH4 0xFA67079 PUSH1 0xE2 SHL DUP2 MSTORE PUSH1 0x4 DUP2 ADD DUP6 SWAP1 MSTORE SWAP2 DUP3 SWAP1 PUSH1 0x24 SWAP1 DUP3 SWAP1 PUSH1 0x1 PUSH1 0x1 PUSH1 0xA0 SHL SUB AND GAS STATICCALL SWAP1 DUP2 ISZERO PUSH2 0x37E JUMPI DUP5 SWAP2 PUSH2 0x34D JUMPI JUMPDEST POP GT ISZERO PUSH2 0x312 JUMPI PUSH32 0x8F626108EC6DBB00865CBC0DA4F6CC0866BB2E90C351AA607B1A5F4D7607B7DA PUSH1 0x20 PUSH1 0x40 MLOAD TIMESTAMP DUP2 MSTORE LOG2 PUSH1 0x1 DUP1 SSTORE DUP1 RETURN JUMPDEST PUSH1 0x40 MLOAD PUSH3 0x461BCD PUSH1 0xE5 SHL DUP2 MSTORE PUSH1 0x20 PUSH1 0x4 DUP3 ADD MSTORE PUSH1 0x13 PUSH1 0x24 DUP3 ADD MSTORE PUSH19 0x131A5C5D5A591A5D1E481B9BDD081859191959 PUSH1 0x6A SHL PUSH1 0x44 DUP3 ADD MSTORE PUSH1 0x64 SWAP1 REVERT JUMPDEST PUSH2 0x36F SWAP2 POP PUSH1 0x40 RETURNDATASIZE PUSH1 0x40 GT PUSH2 0x377 JUMPI JUMPDEST PUSH2 0x367 DUP2 DUP4 PUSH2 0x164B JUMP JUMPDEST DUP2 ADD SWAP1 PUSH2 0x1930 JUMP JUMPDEST SWAP1 POP CODESIZE PUSH2 0x2DA JUMP JUMPDEST POP RETURNDATASIZE PUSH2 0x35D JUMP JUMPDEST PUSH1 0x40 MLOAD RETURNDATASIZE DUP7 DUP3 RETURNDATACOPY RETURNDATASIZE SWAP1 REVERT JUMPDEST DUP2 PUSH2 0x393 SWAP2 PUSH2 0x164B JUMP JUMPDEST PUSH2 0x39E JUMPI DUP3 CODESIZE PUSH2 0x29F JUMP JUMPDEST DUP3 DUP1 REVERT JUMPDEST PUSH1 0x40 MLOAD RETURNDATASIZE DUP5 DUP3 RETURNDATACOPY RETURNDATASIZE SWAP1 REVERT JUMPDEST POP DUP1 REVERT JUMPDEST PUSH2 0x3CA SWAP2 POP PUSH1 0x40 RETURNDATASIZE PUSH1 0x40 GT PUSH2 0x377 JUMPI PUSH2 0x367 DUP2 DUP4 PUSH2 0x164B JUMP JUMPDEST SWAP1 POP CODESIZE PUSH2 0x24C JUMP JUMPDEST PUSH1 0x40 MLOAD RETURNDATASIZE DUP6 DUP3 RETURNDATACOPY RETURNDATASIZE SWAP1 REVERT JUMPDEST POP PUSH1 0x20 DUP2 RETURNDATASIZE PUSH1 0x20 GT PUSH2 0x40E JUMPI JUMPDEST DUP2 PUSH2 0x3F7 PUSH1 0x20 SWAP4 DUP4 PUSH2 0x164B JUMP JUMPDEST DUP2 ADD SUB SLT PUSH2 0x409 JUMPI PUSH2 0x213 SWAP1 MLOAD PUSH2 0x1CE JUMP JUMPDEST PUSH1 0x0 DUP1 REVERT JUMPDEST RETURNDATASIZE SWAP2 POP PUSH2 0x3EA JUMP JUMPDEST DUP1 REVERT JUMPDEST POP CALLVALUE PUSH2 0x416 JUMPI DUP1 PUSH1 0x3 NOT CALLDATASIZE ADD SLT PUSH2 0x416 JUMPI PUSH1 0x20 PUSH1 0x40 MLOAD PUSH2 0xE10 DUP2 MSTORE RETURN JUMPDEST POP CALLVALUE PUSH2 0x416 JUMPI PUSH1 0x20 CALLDATASIZE PUSH1 0x3 NOT ADD SLT PUSH2 0x416 JUMPI PUSH2 0x450 PUSH2 0x15F0 JUMP JUMPDEST PUSH2 0x458 PUSH2 0x1946 JUMP JUMPDEST PUSH1 0x1 PUSH1 0x1 PUSH1 0xA0 SHL SUB AND DUP1 ISZERO PUSH2 0x4A8 JUMPI DUP2 SLOAD PUSH1 0x1 PUSH1 0x1 PUSH1 0xA0 SHL SUB NOT DUP2 AND DUP3 OR DUP4 SSTORE PUSH1 0x1 PUSH1 0x1 PUSH1 0xA0 SHL SUB AND PUSH32 0x8BE0079C531659141344CD1FD0A4F28419497F9722A3DAAFE3B4186F6B6457E0 DUP4 DUP1 LOG3 DUP1 RETURN JUMPDEST PUSH4 0x1E4FBDF7 PUSH1 0xE0 SHL DUP3 MSTORE PUSH1 0x4 DUP3 SWAP1 MSTORE PUSH1 0x24 DUP3 REVERT JUMPDEST POP CALLVALUE PUSH2 0x416 JUMPI PUSH1 0x60 CALLDATASIZE PUSH1 0x3 NOT ADD SLT PUSH2 0x416 JUMPI PUSH2 0x4D6 PUSH2 0x15F0 JUMP JUMPDEST PUSH1 0x24 CALLDATALOAD PUSH1 0x44 CALLDATALOAD SWAP2 PUSH1 0x3 DUP4 LT ISZERO PUSH2 0x659 JUMPI PUSH2 0x4EE PUSH2 0x1946 JUMP JUMPDEST PUSH2 0x4F6 PUSH2 0x19BA JUMP JUMPDEST PUSH1 0x1 PUSH1 0x1 PUSH1 0xA0 SHL SUB DUP2 AND DUP1 ISZERO PUSH2 0x622 JUMPI PUSH2 0x518 PUSH1 0xFF PUSH1 0x6 SLOAD PUSH1 0xA0 SHR AND ISZERO PUSH2 0x1683 JUMP JUMPDEST PUSH1 0x2 SLOAD PUSH1 0x40 MLOAD PUSH4 0x70A08231 PUSH1 0xE0 SHL DUP2 MSTORE ADDRESS PUSH1 0x4 DUP3 ADD MSTORE PUSH1 0x1 PUSH1 0x1 PUSH1 0xA0 SHL SUB SWAP1 SWAP2 AND SWAP2 SWAP1 PUSH1 0x20 DUP2 PUSH1 0x24 DUP2 DUP7 GAS STATICCALL SWAP1 DUP2 ISZERO PUSH2 0x617 JUMPI DUP8 SWAP2 PUSH2 0x5E5 JUMPI JUMPDEST POP DUP5 GT PUSH2 0x5A0 JUMPI DUP2 PUSH32 0xD6904CF5B5E9F829853E263F3843FAC5453FD36B81CEC3559C5018A0DE89D64E PUSH1 0x60 PUSH2 0x599 SWAP8 PUSH1 0x40 MLOAD SWAP1 DUP9 DUP3 MSTORE TIMESTAMP PUSH1 0x20 DUP4 ADD MSTORE PUSH1 0x40 DUP3 ADD MSTORE LOG3 PUSH2 0x19DC JUMP JUMPDEST PUSH1 0x1 DUP1 SSTORE DUP1 RETURN JUMPDEST PUSH1 0x40 MLOAD PUSH3 0x461BCD PUSH1 0xE5 SHL DUP2 MSTORE PUSH1 0x20 PUSH1 0x4 DUP3 ADD MSTORE PUSH1 0x1A PUSH1 0x24 DUP3 ADD MSTORE PUSH32 0x496E73756666696369656E7420434F52414C2062616C616E6365000000000000 PUSH1 0x44 DUP3 ADD MSTORE PUSH1 0x64 SWAP1 REVERT JUMPDEST SWAP1 POP PUSH1 0x20 DUP2 RETURNDATASIZE PUSH1 0x20 GT PUSH2 0x60F JUMPI JUMPDEST DUP2 PUSH2 0x600 PUSH1 0x20 SWAP4 DUP4 PUSH2 0x164B JUMP JUMPDEST DUP2 ADD SUB SLT PUSH2 0x409 JUMPI MLOAD CODESIZE PUSH2 0x552 JUMP JUMPDEST RETURNDATASIZE SWAP2 POP PUSH2 0x5F3 JUMP JUMPDEST PUSH1 0x40 MLOAD RETURNDATASIZE DUP10 DUP3 RETURNDATACOPY RETURNDATASIZE SWAP1 REVERT JUMPDEST PUSH1 0x40 MLOAD PUSH3 0x461BCD PUSH1 0xE5 SHL DUP2 MSTORE PUSH1 0x20 PUSH1 0x4 DUP3 ADD MSTORE PUSH1 0xF PUSH1 0x24 DUP3 ADD MSTORE PUSH15 0x496E76616C69642061646472657373 PUSH1 0x88 SHL PUSH1 0x44 DUP3 ADD MSTORE PUSH1 0x64 SWAP1 REVERT JUMPDEST DUP4 DUP1 REVERT JUMPDEST POP CALLVALUE PUSH2 0x416 JUMPI DUP1 PUSH1 0x3 NOT CALLDATASIZE ADD SLT PUSH2 0x416 JUMPI PUSH1 0x20 PUSH1 0x40 MLOAD PUSH10 0xD3C21BCECCEDA1000000 DUP2 MSTORE RETURN JUMPDEST POP CALLVALUE PUSH2 0x416 JUMPI PUSH1 0x20 CALLDATASIZE PUSH1 0x3 NOT ADD SLT PUSH2 0x416 JUMPI PUSH1 0x20 SWAP1 PUSH1 0xFF SWAP1 PUSH1 0x40 SWAP1 PUSH1 0x1 PUSH1 0x1 PUSH1 0xA0 SHL SUB PUSH2 0x6AD PUSH2 0x15F0 JUMP JUMPDEST AND DUP2 MSTORE PUSH1 0x7 DUP5 MSTORE KECCAK256 SLOAD AND PUSH1 0x40 MLOAD SWAP1 ISZERO ISZERO DUP2 MSTORE RETURN JUMPDEST POP CALLVALUE PUSH2 0x416 JUMPI DUP1 PUSH1 0x3 NOT CALLDATASIZE ADD SLT PUSH2 0x416 JUMPI PUSH2 0x6DA PUSH2 0x1946 JUMP JUMPDEST PUSH1 0x6 SLOAD PUSH1 0xFF PUSH1 0xA0 SHL PUSH1 0xFF DUP3 PUSH1 0xA0 SHR AND ISZERO PUSH1 0xA0 SHL AND SWAP1 PUSH1 0xFF PUSH1 0xA0 SHL NOT AND OR DUP1 PUSH1 0x6 SSTORE TIMESTAMP PUSH1 0xA SSTORE PUSH1 0x40 MLOAD TIMESTAMP DUP2 MSTORE PUSH32 0xA965406DB9D595B01329ADB8152CE3B8BAC4B7BFB1E705308939FB0C4A88318C PUSH1 0x20 PUSH1 0xFF CALLER SWAP5 PUSH1 0xA0 SHR AND ISZERO ISZERO SWAP3 LOG3 DUP1 RETURN JUMPDEST POP CALLVALUE PUSH2 0x416 JUMPI DUP1 PUSH1 0x3 NOT CALLDATASIZE ADD SLT PUSH2 0x416 JUMPI PUSH1 0x20 PUSH1 0x40 MLOAD PUSH9 0x3635C9ADC5DEA00000 DUP2 MSTORE RETURN JUMPDEST POP CALLVALUE PUSH2 0x416 JUMPI DUP1 PUSH1 0x3 NOT CALLDATASIZE ADD SLT PUSH2 0x416 JUMPI PUSH1 0x2 SLOAD PUSH1 0x40 MLOAD PUSH1 0x1 PUSH1 0x1 PUSH1 0xA0 SHL SUB SWAP1 SWAP2 AND DUP2 MSTORE PUSH1 0x20 SWAP1 RETURN JUMPDEST POP CALLVALUE PUSH2 0x416 JUMPI PUSH1 0x60 CALLDATASIZE PUSH1 0x3 NOT ADD SLT PUSH2 0x416 JUMPI PUSH2 0x79E PUSH2 0x15F0 JUMP JUMPDEST SWAP1 PUSH1 0x24 CALLDATALOAD SWAP2 PUSH1 0x44 CALLDATALOAD SWAP1 PUSH2 0x7B9 PUSH1 0xFF PUSH1 0x6 SLOAD PUSH1 0xA0 SHR AND ISZERO PUSH2 0x1683 JUMP JUMPDEST PUSH2 0x7C1 PUSH2 0x19BA JUMP JUMPDEST PUSH1 0x1 DUP1 PUSH1 0xA0 SHL SUB AND SWAP1 PUSH2 0x805 PUSH1 0x40 MLOAD PUSH2 0x7DB PUSH1 0x40 DUP3 PUSH2 0x164B JUMP JUMPDEST PUSH1 0x15 DUP2 MSTORE PUSH21 0x24B73B30B634B21031B932B0BA37B9103A37B5B2B7 PUSH1 0x59 SHL PUSH1 0x20 DUP3 ADD MSTORE DUP4 ISZERO ISZERO PUSH2 0x170A JUMP JUMPDEST PUSH2 0x848 PUSH1 0x40 MLOAD PUSH2 0x816 PUSH1 0x40 DUP3 PUSH2 0x164B JUMP JUMPDEST PUSH1 0x1A DUP2 MSTORE PUSH32 0x496E76616C696420434F52414C20746F6B656E20616D6F756E74000000000000 PUSH1 0x20 DUP3 ADD MSTORE DUP6 ISZERO ISZERO PUSH2 0x170A JUMP JUMPDEST DUP2 DUP4 MSTORE PUSH1 0x7 PUSH1 0x20 MSTORE PUSH1 0xFF PUSH1 0x40 DUP5 KECCAK256 SLOAD AND PUSH2 0xB4F JUMPI DUP2 DUP4 MSTORE PUSH1 0x5 PUSH1 0x20 MSTORE PUSH1 0xFF PUSH1 0x40 DUP5 KECCAK256 SLOAD AND ISZERO PUSH2 0xB17 JUMPI PUSH1 0x2 SLOAD PUSH2 0x88C SWAP1 DUP6 SWAP1 ADDRESS SWAP1 CALLER SWAP1 PUSH1 0x1 PUSH1 0x1 PUSH1 0xA0 SHL SUB AND PUSH2 0x196F JUMP JUMPDEST PUSH1 0x2 SLOAD PUSH1 0x4 DUP1 SLOAD PUSH1 0x40 MLOAD PUSH4 0x6EB1769F PUSH1 0xE1 SHL DUP2 MSTORE ADDRESS SWAP3 DUP2 ADD SWAP3 SWAP1 SWAP3 MSTORE PUSH1 0x1 PUSH1 0x1 PUSH1 0xA0 SHL SUB SWAP1 DUP2 AND PUSH1 0x24 DUP4 ADD DUP2 SWAP1 MSTORE SWAP3 AND SWAP1 PUSH1 0x20 DUP2 PUSH1 0x44 DUP2 DUP6 GAS STATICCALL SWAP1 DUP2 ISZERO PUSH2 0xB0C JUMPI SWAP1 DUP7 SWAP4 SWAP3 SWAP2 DUP5 SWAP2 PUSH2 0xAD7 JUMPI JUMPDEST POP DUP8 DUP2 LT PUSH2 0x9F8 JUMPI JUMPDEST POP POP POP PUSH1 0x20 PUSH1 0x1 DUP1 PUSH1 0xA0 SHL SUB PUSH1 0x4 SLOAD AND PUSH1 0x84 PUSH1 0x40 MLOAD DUP1 SWAP5 DUP2 SWAP4 PUSH4 0xC28192F PUSH1 0xE0 SHL DUP4 MSTORE DUP9 PUSH1 0x4 DUP5 ADD MSTORE DUP11 PUSH1 0x24 DUP5 ADD MSTORE DUP8 PUSH1 0x44 DUP5 ADD MSTORE PUSH2 0x1F4 PUSH1 0x64 DUP5 ADD MSTORE GAS CALL SWAP4 DUP5 ISZERO PUSH2 0x9EC JUMPI SWAP4 PUSH2 0x9B8 JUMPI JUMPDEST POP DUP3 LT PUSH2 0x97F JUMPI DUP2 DUP2 PUSH2 0x973 SWAP3 PUSH32 0x7A0A8A7B675DFABBA33D3B55537C754DAE6910CBC33E6BF9D4BF8AED52D448B3 PUSH1 0x40 PUSH1 0x20 SWAP8 DUP2 MLOAD SWAP1 DUP2 MSTORE DUP6 DUP10 DUP3 ADD MSTORE LOG2 CALLER SWAP1 PUSH2 0x19DC JUMP JUMPDEST PUSH1 0x1 DUP1 SSTORE PUSH1 0x40 MLOAD SWAP1 DUP2 MSTORE RETURN JUMPDEST PUSH1 0x40 MLOAD PUSH3 0x461BCD PUSH1 0xE5 SHL DUP2 MSTORE PUSH1 0x20 PUSH1 0x4 DUP3 ADD MSTORE PUSH1 0x11 PUSH1 0x24 DUP3 ADD MSTORE PUSH17 0xA6D8D2E0E0C2CECA40E8DEDE40D0D2CED PUSH1 0x7B SHL PUSH1 0x44 DUP3 ADD MSTORE PUSH1 0x64 SWAP1 REVERT JUMPDEST SWAP1 SWAP3 POP PUSH1 0x20 DUP2 RETURNDATASIZE PUSH1 0x20 GT PUSH2 0x9E4 JUMPI JUMPDEST DUP2 PUSH2 0x9D4 PUSH1 0x20 SWAP4 DUP4 PUSH2 0x164B JUMP JUMPDEST DUP2 ADD SUB SLT PUSH2 0x409 JUMPI MLOAD SWAP2 CODESIZE PUSH2 0x92E JUMP JUMPDEST RETURNDATASIZE SWAP2 POP PUSH2 0x9C7 JUMP JUMPDEST PUSH1 0x40 MLOAD SWAP1 RETURNDATASIZE SWAP1 DUP3 RETURNDATACOPY RETURNDATASIZE SWAP1 REVERT JUMPDEST PUSH2 0xA81 JUMPI JUMPDEST POP POP PUSH1 0x2 SLOAD PUSH1 0x4 DUP1 SLOAD PUSH1 0x40 MLOAD PUSH4 0x95EA7B3 PUSH1 0xE0 SHL DUP2 MSTORE PUSH1 0x1 PUSH1 0x1 PUSH1 0xA0 SHL SUB SWAP2 DUP3 AND SWAP3 DUP2 ADD SWAP3 SWAP1 SWAP3 MSTORE PUSH1 0x24 DUP3 ADD DUP9 SWAP1 MSTORE SWAP1 SWAP3 POP PUSH1 0x20 SWAP2 DUP4 SWAP2 PUSH1 0x44 SWAP2 DUP4 SWAP2 DUP10 SWAP2 AND GAS CALL DUP1 ISZERO PUSH2 0x37E JUMPI PUSH2 0xA52 JUMPI JUMPDEST DUP1 DUP1 DUP6 SWAP3 PUSH2 0x8E2 JUMP JUMPDEST PUSH2 0xA73 SWAP1 PUSH1 0x20 RETURNDATASIZE PUSH1 0x20 GT PUSH2 0xA7A JUMPI JUMPDEST PUSH2 0xA6B DUP2 DUP4 PUSH2 0x164B JUMP JUMPDEST DUP2 ADD SWAP1 PUSH2 0x177C JUMP JUMPDEST POP CODESIZE PUSH2 0xA49 JUMP JUMPDEST POP RETURNDATASIZE PUSH2 0xA61 JUMP JUMPDEST PUSH1 0x44 PUSH1 0x20 SWAP3 PUSH1 0x40 MLOAD SWAP5 DUP6 SWAP4 DUP5 SWAP3 PUSH4 0x95EA7B3 PUSH1 0xE0 SHL DUP5 MSTORE PUSH1 0x4 DUP5 ADD MSTORE DUP2 PUSH1 0x24 DUP5 ADD MSTORE GAS CALL DUP1 ISZERO PUSH2 0x37E JUMPI PUSH2 0xAB8 JUMPI JUMPDEST DUP1 DUP5 SWAP2 PUSH2 0x9FD JUMP JUMPDEST PUSH2 0xAD0 SWAP1 PUSH1 0x20 RETURNDATASIZE PUSH1 0x20 GT PUSH2 0xA7A JUMPI PUSH2 0xA6B DUP2 DUP4 PUSH2 0x164B JUMP JUMPDEST POP CODESIZE PUSH2 0xAB0 JUMP JUMPDEST SWAP4 POP POP PUSH1 0x20 DUP4 RETURNDATASIZE PUSH1 0x20 GT PUSH2 0xB04 JUMPI JUMPDEST DUP2 PUSH2 0xAF3 PUSH1 0x20 SWAP4 DUP4 PUSH2 0x164B JUMP JUMPDEST DUP2 ADD SUB SLT PUSH2 0x409 JUMPI DUP6 SWAP3 MLOAD CODESIZE PUSH2 0x8D9 JUMP JUMPDEST RETURNDATASIZE SWAP2 POP PUSH2 0xAE6 JUMP JUMPDEST PUSH1 0x40 MLOAD RETURNDATASIZE DUP9 DUP3 RETURNDATACOPY RETURNDATASIZE SWAP1 REVERT JUMPDEST PUSH1 0x40 MLOAD PUSH3 0x461BCD PUSH1 0xE5 SHL DUP2 MSTORE PUSH1 0x20 PUSH1 0x4 DUP3 ADD MSTORE PUSH1 0x10 PUSH1 0x24 DUP3 ADD MSTORE PUSH16 0x151BDAD95B881B9BDD081B1A5CDD1959 PUSH1 0x82 SHL PUSH1 0x44 DUP3 ADD MSTORE PUSH1 0x64 SWAP1 REVERT JUMPDEST PUSH1 0x40 MLOAD PUSH3 0x461BCD PUSH1 0xE5 SHL DUP2 MSTORE PUSH1 0x20 PUSH1 0x4 DUP3 ADD MSTORE PUSH1 0x18 PUSH1 0x24 DUP3 ADD MSTORE PUSH32 0x546F6B656E20696E20707269636520646973636F766572790000000000000000 PUSH1 0x44 DUP3 ADD MSTORE PUSH1 0x64 SWAP1 REVERT JUMPDEST POP CALLVALUE PUSH2 0x416 JUMPI PUSH1 0x20 CALLDATASIZE PUSH1 0x3 NOT ADD SLT PUSH2 0x416 JUMPI PUSH2 0xBAE PUSH2 0x15F0 JUMP JUMPDEST PUSH2 0xBB6 PUSH2 0x1946 JUMP JUMPDEST PUSH1 0x1 PUSH1 0x1 PUSH1 0xA0 SHL SUB AND DUP1 ISZERO PUSH2 0xDEA JUMPI DUP1 DUP3 MSTORE PUSH1 0x5 PUSH1 0x20 MSTORE PUSH1 0xFF PUSH1 0x40 DUP4 KECCAK256 SLOAD AND PUSH2 0xDAE JUMPI PUSH1 0x40 MLOAD PUSH4 0x18160DDD PUSH1 0xE0 SHL DUP2 MSTORE PUSH1 0x20 DUP2 PUSH1 0x4 DUP2 DUP6 GAS STATICCALL SWAP1 DUP2 ISZERO PUSH2 0x3D2 JUMPI DUP4 SWAP2 PUSH2 0xD7C JUMPI JUMPDEST POP ISZERO PUSH2 0xD3F JUMPI DUP1 DUP3 MSTORE PUSH1 0x7 PUSH1 0x20 MSTORE PUSH1 0xFF PUSH1 0x40 DUP4 KECCAK256 SLOAD AND PUSH2 0xCFA JUMPI PUSH1 0x3 SLOAD PUSH1 0x40 MLOAD PUSH4 0x3A549633 PUSH1 0xE1 SHL DUP2 MSTORE PUSH1 0x4 DUP2 ADD DUP4 SWAP1 MSTORE SWAP1 PUSH1 0x20 SWAP1 DUP3 SWAP1 PUSH1 0x24 SWAP1 DUP3 SWAP1 PUSH1 0x1 PUSH1 0x1 PUSH1 0xA0 SHL SUB AND GAS STATICCALL SWAP1 DUP2 ISZERO PUSH2 0x3D2 JUMPI DUP4 SWAP2 PUSH2 0xCDB JUMPI JUMPDEST POP ISZERO PUSH2 0xC96 JUMPI DUP1 PUSH32 0x17664858438D89F547FEE46DA0BCFC5396EA13A9FB1490B8FDD76CFA979F1A9 DUP4 DUP1 LOG2 DUP2 MSTORE PUSH1 0x5 PUSH1 0x20 MSTORE PUSH1 0x40 DUP2 KECCAK256 DUP1 SLOAD PUSH1 0xFF NOT AND PUSH1 0x1 OR SWAP1 SSTORE DUP1 RETURN JUMPDEST PUSH1 0x40 MLOAD PUSH3 0x461BCD PUSH1 0xE5 SHL DUP2 MSTORE PUSH1 0x20 PUSH1 0x4 DUP3 ADD MSTORE PUSH1 0x1B PUSH1 0x24 DUP3 ADD MSTORE PUSH32 0x4C697175696469747920706F6F6C206E6F7420747261636B6564210000000000 PUSH1 0x44 DUP3 ADD MSTORE PUSH1 0x64 SWAP1 REVERT JUMPDEST PUSH2 0xCF4 SWAP2 POP PUSH1 0x20 RETURNDATASIZE PUSH1 0x20 GT PUSH2 0xA7A JUMPI PUSH2 0xA6B DUP2 DUP4 PUSH2 0x164B JUMP JUMPDEST CODESIZE PUSH2 0xC52 JUMP JUMPDEST PUSH1 0x40 MLOAD PUSH3 0x461BCD PUSH1 0xE5 SHL DUP2 MSTORE PUSH1 0x20 PUSH1 0x4 DUP3 ADD MSTORE PUSH1 0x1E PUSH1 0x24 DUP3 ADD MSTORE PUSH32 0x546F6B656E207374696C6C20696E20707269636520646973636F766572790000 PUSH1 0x44 DUP3 ADD MSTORE PUSH1 0x64 SWAP1 REVERT JUMPDEST PUSH1 0x40 MLOAD PUSH3 0x461BCD PUSH1 0xE5 SHL DUP2 MSTORE PUSH1 0x20 PUSH1 0x4 DUP3 ADD MSTORE PUSH1 0x15 PUSH1 0x24 DUP3 ADD MSTORE PUSH21 0x546F6B656E20686173207A65726F20737570706C79 PUSH1 0x58 SHL PUSH1 0x44 DUP3 ADD MSTORE PUSH1 0x64 SWAP1 REVERT JUMPDEST SWAP1 POP PUSH1 0x20 DUP2 RETURNDATASIZE PUSH1 0x20 GT PUSH2 0xDA6 JUMPI JUMPDEST DUP2 PUSH2 0xD97 PUSH1 0x20 SWAP4 DUP4 PUSH2 0x164B JUMP JUMPDEST DUP2 ADD SUB SLT PUSH2 0x409 JUMPI MLOAD CODESIZE PUSH2 0xBFD JUMP JUMPDEST RETURNDATASIZE SWAP2 POP PUSH2 0xD8A JUMP JUMPDEST PUSH1 0x40 MLOAD PUSH3 0x461BCD PUSH1 0xE5 SHL DUP2 MSTORE PUSH1 0x20 PUSH1 0x4 DUP3 ADD MSTORE PUSH1 0x14 PUSH1 0x24 DUP3 ADD MSTORE PUSH20 0x151BDAD95B88185B1C9958591E481B1A5CDD1959 PUSH1 0x62 SHL PUSH1 0x44 DUP3 ADD MSTORE PUSH1 0x64 SWAP1 REVERT JUMPDEST PUSH1 0x40 MLOAD PUSH3 0x461BCD PUSH1 0xE5 SHL DUP2 MSTORE PUSH1 0x20 PUSH1 0x4 DUP3 ADD MSTORE PUSH1 0x15 PUSH1 0x24 DUP3 ADD MSTORE PUSH21 0x496E76616C696420746F6B656E2061646472657373 PUSH1 0x58 SHL PUSH1 0x44 DUP3 ADD MSTORE PUSH1 0x64 SWAP1 REVERT JUMPDEST POP CALLVALUE PUSH2 0x416 JUMPI DUP1 PUSH1 0x3 NOT CALLDATASIZE ADD SLT PUSH2 0x416 JUMPI PUSH1 0xFF PUSH1 0x6 SLOAD PUSH1 0xA0 SHR AND PUSH1 0xA SLOAD DUP1 ISZERO ISZERO PUSH1 0x0 EQ PUSH2 0xE86 JUMPI DUP1 TIMESTAMP SUB TIMESTAMP DUP2 GT PUSH2 0xE72 JUMPI PUSH1 0x60 SWAP4 POP SWAP1 JUMPDEST PUSH1 0x40 MLOAD SWAP3 ISZERO ISZERO DUP4 MSTORE PUSH1 0x20 DUP4 ADD MSTORE PUSH1 0x40 DUP3 ADD MSTORE RETURN JUMPDEST PUSH4 0x4E487B71 PUSH1 0xE0 SHL DUP5 MSTORE PUSH1 0x11 PUSH1 0x4 MSTORE PUSH1 0x24 DUP5 REVERT JUMPDEST PUSH1 0x60 SWAP3 SWAP1 PUSH2 0xE5E JUMP JUMPDEST POP CALLVALUE PUSH2 0x416 JUMPI DUP1 PUSH1 0x3 NOT CALLDATASIZE ADD SLT PUSH2 0x416 JUMPI PUSH1 0x20 PUSH1 0xA SLOAD PUSH1 0x40 MLOAD SWAP1 DUP2 MSTORE RETURN JUMPDEST POP CALLVALUE PUSH2 0x416 JUMPI PUSH1 0x20 CALLDATASIZE PUSH1 0x3 NOT ADD SLT PUSH2 0x416 JUMPI PUSH1 0x20 PUSH2 0xECC PUSH1 0x4 CALLDATALOAD PUSH2 0x18E5 JUMP JUMPDEST PUSH1 0x40 MLOAD SWAP1 DUP2 MSTORE RETURN JUMPDEST POP CALLVALUE PUSH2 0x416 JUMPI DUP1 PUSH1 0x3 NOT CALLDATASIZE ADD SLT PUSH2 0x416 JUMPI SLOAD PUSH1 0x40 MLOAD PUSH1 0x1 PUSH1 0x1 PUSH1 0xA0 SHL SUB SWAP1 SWAP2 AND DUP2 MSTORE PUSH1 0x20 SWAP1 RETURN JUMPDEST POP CALLVALUE PUSH2 0x416 JUMPI DUP1 PUSH1 0x3 NOT CALLDATASIZE ADD SLT PUSH2 0x416 JUMPI PUSH1 0x20 PUSH1 0x9 SLOAD PUSH1 0x40 MLOAD SWAP1 DUP2 MSTORE RETURN JUMPDEST POP CALLVALUE PUSH2 0x416 JUMPI DUP1 PUSH1 0x3 NOT CALLDATASIZE ADD SLT PUSH2 0x416 JUMPI PUSH1 0x6 SLOAD PUSH1 0x40 MLOAD PUSH1 0x1 PUSH1 0x1 PUSH1 0xA0 SHL SUB SWAP1 SWAP2 AND DUP2 MSTORE PUSH1 0x20 SWAP1 RETURN JUMPDEST POP CALLVALUE PUSH2 0x416 JUMPI DUP1 PUSH1 0x3 NOT CALLDATASIZE ADD SLT PUSH2 0x416 JUMPI PUSH2 0xF5B PUSH2 0x1946 JUMP JUMPDEST DUP1 SLOAD PUSH1 0x1 PUSH1 0x1 PUSH1 0xA0 SHL SUB NOT DUP2 AND DUP3 SSTORE DUP2 SWAP1 PUSH1 0x1 PUSH1 0x1 PUSH1 0xA0 SHL SUB AND PUSH32 0x8BE0079C531659141344CD1FD0A4F28419497F9722A3DAAFE3B4186F6B6457E0 DUP3 DUP1 LOG3 DUP1 RETURN JUMPDEST POP CALLVALUE PUSH2 0x416 JUMPI PUSH1 0x20 CALLDATASIZE PUSH1 0x3 NOT ADD SLT PUSH2 0x416 JUMPI PUSH1 0x20 SWAP1 PUSH1 0xFF SWAP1 PUSH1 0x40 SWAP1 PUSH1 0x1 PUSH1 0x1 PUSH1 0xA0 SHL SUB PUSH2 0xFC7 PUSH2 0x15F0 JUMP JUMPDEST AND DUP2 MSTORE PUSH1 0x5 DUP5 MSTORE KECCAK256 SLOAD AND PUSH1 0x40 MLOAD SWAP1 ISZERO ISZERO DUP2 MSTORE RETURN JUMPDEST POP CALLVALUE PUSH2 0x416 JUMPI PUSH1 0x20 CALLDATASIZE PUSH1 0x3 NOT ADD SLT PUSH2 0x416 JUMPI PUSH1 0x20 SWAP1 PUSH1 0xFF SWAP1 PUSH1 0x40 SWAP1 PUSH1 0x1 PUSH1 0x1 PUSH1 0xA0 SHL SUB PUSH2 0x1006 PUSH2 0x15F0 JUMP JUMPDEST AND DUP2 MSTORE PUSH1 0x8 DUP5 MSTORE KECCAK256 SLOAD AND PUSH1 0x40 MLOAD SWAP1 ISZERO ISZERO DUP2 MSTORE RETURN JUMPDEST POP CALLVALUE PUSH2 0x416 JUMPI PUSH1 0x40 CALLDATASIZE PUSH1 0x3 NOT ADD SLT PUSH2 0x416 JUMPI DUP1 PUSH1 0x20 PUSH2 0x1037 PUSH2 0x15F0 JUMP JUMPDEST PUSH2 0x103F PUSH2 0x1946 JUMP JUMPDEST PUSH1 0x3 SLOAD PUSH1 0x40 MLOAD PUSH4 0x55776B77 PUSH1 0xE0 SHL DUP2 MSTORE PUSH1 0x1 PUSH1 0x1 PUSH1 0xA0 SHL SUB SWAP3 DUP4 AND PUSH1 0x4 DUP3 ADD MSTORE PUSH1 0x24 DUP1 DUP3 ADD DUP7 SWAP1 MSTORE CALLDATALOAD PUSH1 0x44 DUP3 ADD MSTORE SWAP4 DUP5 SWAP3 PUSH1 0x64 SWAP3 DUP5 SWAP3 SWAP2 AND GAS CALL DUP1 ISZERO PUSH2 0x3A2 JUMPI PUSH2 0x1087 JUMPI POP DUP1 RETURN JUMPDEST PUSH2 0x10A8 SWAP1 PUSH1 0x20 RETURNDATASIZE PUSH1 0x20 GT PUSH2 0x10AC JUMPI JUMPDEST PUSH2 0x10A0 DUP2 DUP4 PUSH2 0x164B JUMP JUMPDEST DUP2 ADD SWAP1 PUSH2 0x176D JUMP JUMPDEST POP DUP1 RETURN JUMPDEST POP RETURNDATASIZE PUSH2 0x1096 JUMP JUMPDEST POP CALLVALUE PUSH2 0x416 JUMPI DUP1 PUSH1 0x3 NOT CALLDATASIZE ADD SLT PUSH2 0x416 JUMPI PUSH1 0x4 SLOAD PUSH1 0x40 MLOAD PUSH1 0x1 PUSH1 0x1 PUSH1 0xA0 SHL SUB SWAP1 SWAP2 AND DUP2 MSTORE PUSH1 0x20 SWAP1 RETURN JUMPDEST POP CALLVALUE PUSH2 0x416 JUMPI DUP1 PUSH1 0x3 NOT CALLDATASIZE ADD SLT PUSH2 0x416 JUMPI PUSH1 0x20 PUSH1 0xFF PUSH1 0x6 SLOAD PUSH1 0xA0 SHR AND PUSH1 0x40 MLOAD SWAP1 ISZERO ISZERO DUP2 MSTORE RETURN JUMPDEST POP CALLVALUE PUSH2 0x416 JUMPI PUSH1 0x20 CALLDATASIZE PUSH1 0x3 NOT ADD SLT PUSH2 0x416 JUMPI PUSH2 0x112C PUSH2 0x111F PUSH2 0x15F0 JUMP JUMPDEST PUSH2 0x1127 PUSH2 0x1946 JUMP JUMPDEST PUSH2 0x1794 JUMP JUMPDEST DUP1 RETURN JUMPDEST POP CALLVALUE PUSH2 0x416 JUMPI PUSH1 0x40 CALLDATASIZE PUSH1 0x3 NOT ADD SLT PUSH2 0x416 JUMPI PUSH2 0x1149 PUSH2 0x15F0 JUMP JUMPDEST PUSH1 0x24 CALLDATALOAD PUSH1 0x6 SLOAD PUSH2 0x115F PUSH1 0xFF DUP3 PUSH1 0xA0 SHR AND ISZERO PUSH2 0x1683 JUMP JUMPDEST PUSH1 0x1 PUSH1 0x1 PUSH1 0xA0 SHL SUB AND CALLER SUB PUSH2 0x14DD JUMPI PUSH1 0x1 PUSH1 0x1 PUSH1 0xA0 SHL SUB DUP3 AND DUP1 DUP5 MSTORE PUSH1 0x7 PUSH1 0x20 MSTORE PUSH1 0x40 DUP5 KECCAK256 SLOAD SWAP1 SWAP3 SWAP1 PUSH1 0xFF AND PUSH2 0x1498 JUMPI PUSH2 0x11A2 PUSH2 0x119A PUSH2 0x16C4 JUMP JUMPDEST DUP4 ISZERO ISZERO PUSH2 0x170A JUMP JUMPDEST PUSH2 0x11AB DUP3 PUSH2 0x18E5 JUMP JUMPDEST SWAP2 PUSH2 0x11EF PUSH1 0x40 MLOAD PUSH2 0x11BD PUSH1 0x40 DUP3 PUSH2 0x164B JUMP JUMPDEST PUSH1 0x20 DUP2 MSTORE PUSH32 0x496E697469616C206C69717569646974792063616E6E6F74206265207A65726F PUSH1 0x20 DUP3 ADD MSTORE DUP5 ISZERO ISZERO PUSH2 0x170A JUMP JUMPDEST PUSH1 0x2 SLOAD PUSH1 0x40 MLOAD PUSH4 0x6EB1769F PUSH1 0xE1 SHL DUP2 MSTORE CALLER PUSH1 0x4 DUP3 ADD MSTORE ADDRESS PUSH1 0x24 DUP3 ADD MSTORE PUSH1 0x1 PUSH1 0x1 PUSH1 0xA0 SHL SUB SWAP1 SWAP2 AND SWAP3 SWAP1 PUSH1 0x20 DUP2 PUSH1 0x44 DUP2 DUP8 GAS STATICCALL DUP1 ISZERO PUSH2 0x617 JUMPI DUP6 SWAP2 DUP9 SWAP2 PUSH2 0x1463 JUMPI JUMPDEST POP LT PUSH2 0x141E JUMPI PUSH2 0x1245 DUP5 DUP8 SWAP5 ADDRESS SWAP1 CALLER SWAP1 PUSH2 0x196F JUMP JUMPDEST DUP5 DUP4 MSTORE PUSH1 0x7 PUSH1 0x20 MSTORE PUSH1 0x40 DUP4 KECCAK256 DUP1 SLOAD PUSH1 0xFF NOT AND PUSH1 0x1 OR SWAP1 SSTORE PUSH1 0x3 SLOAD PUSH1 0x1 PUSH1 0x1 PUSH1 0xA0 SHL SUB AND SWAP2 DUP3 EXTCODESIZE ISZERO PUSH2 0x659 JUMPI PUSH1 0x40 MLOAD PUSH4 0x2324F29F PUSH1 0xE2 SHL DUP2 MSTORE PUSH1 0x1 PUSH1 0x1 PUSH1 0xA0 SHL SUB SWAP3 SWAP1 SWAP3 AND PUSH1 0x4 DUP4 ADD MSTORE PUSH1 0x24 DUP3 ADD MSTORE SWAP1 DUP3 SWAP1 DUP3 SWAP1 PUSH1 0x44 SWAP1 DUP3 SWAP1 DUP5 SWAP1 GAS CALL DUP1 ISZERO PUSH2 0x3A2 JUMPI PUSH2 0x1409 JUMPI JUMPDEST POP POP PUSH2 0x12B6 PUSH2 0x1946 JUMP JUMPDEST DUP2 ISZERO PUSH2 0xDEA JUMPI DUP2 DUP4 MSTORE PUSH1 0x5 PUSH1 0x20 MSTORE PUSH1 0xFF PUSH1 0x40 DUP5 KECCAK256 SLOAD AND PUSH2 0xDAE JUMPI PUSH1 0x40 MLOAD PUSH4 0x18160DDD PUSH1 0xE0 SHL DUP2 MSTORE PUSH1 0x20 DUP2 PUSH1 0x4 DUP2 DUP7 GAS STATICCALL SWAP1 DUP2 ISZERO PUSH2 0x37E JUMPI DUP5 SWAP2 PUSH2 0x13D7 JUMPI JUMPDEST POP ISZERO PUSH2 0xD3F JUMPI DUP2 DUP4 MSTORE PUSH1 0x7 PUSH1 0x20 MSTORE PUSH1 0xFF PUSH1 0x40 DUP5 KECCAK256 SLOAD AND PUSH2 0xCFA JUMPI PUSH1 0x3 SLOAD PUSH1 0x40 MLOAD PUSH4 0x3A549633 PUSH1 0xE1 SHL DUP2 MSTORE PUSH1 0x4 DUP2 ADD DUP5 SWAP1 MSTORE SWAP1 PUSH1 0x20 SWAP1 DUP3 SWAP1 PUSH1 0x24 SWAP1 DUP3 SWAP1 PUSH1 0x1 PUSH1 0x1 PUSH1 0xA0 SHL SUB AND GAS STATICCALL SWAP1 DUP2 ISZERO PUSH2 0x37E JUMPI DUP5 SWAP2 PUSH2 0x13B8 JUMPI JUMPDEST POP ISZERO PUSH2 0xC96 JUMPI PUSH1 0x20 PUSH32 0xD6D6D534B6D189E6DA779FC9A8CC9AB4BD2680E9443079B472EBD776E7B5728A SWAP2 PUSH1 0x40 MLOAD SWAP1 DUP5 PUSH32 0x17664858438D89F547FEE46DA0BCFC5396EA13A9FB1490B8FDD76CFA979F1A9 DUP8 DUP1 LOG2 DUP5 DUP7 MSTORE PUSH1 0x5 DUP4 MSTORE PUSH1 0x40 DUP7 KECCAK256 DUP1 SLOAD PUSH1 0xFF NOT AND PUSH1 0x1 OR SWAP1 SSTORE DUP2 MSTORE LOG2 DUP1 RETURN JUMPDEST PUSH2 0x13D1 SWAP2 POP PUSH1 0x20 RETURNDATASIZE PUSH1 0x20 GT PUSH2 0xA7A JUMPI PUSH2 0xA6B DUP2 DUP4 PUSH2 0x164B JUMP JUMPDEST CODESIZE PUSH2 0x1349 JUMP JUMPDEST SWAP1 POP PUSH1 0x20 DUP2 RETURNDATASIZE PUSH1 0x20 GT PUSH2 0x1401 JUMPI JUMPDEST DUP2 PUSH2 0x13F2 PUSH1 0x20 SWAP4 DUP4 PUSH2 0x164B JUMP JUMPDEST DUP2 ADD SUB SLT PUSH2 0x409 JUMPI MLOAD CODESIZE PUSH2 0x12F4 JUMP JUMPDEST RETURNDATASIZE SWAP2 POP PUSH2 0x13E5 JUMP JUMPDEST DUP2 PUSH2 0x1413 SWAP2 PUSH2 0x164B JUMP JUMPDEST PUSH2 0x39E JUMPI DUP3 CODESIZE PUSH2 0x12AC JUMP JUMPDEST PUSH1 0x40 MLOAD PUSH3 0x461BCD PUSH1 0xE5 SHL DUP2 MSTORE PUSH1 0x20 PUSH1 0x4 DUP3 ADD MSTORE PUSH1 0x1C PUSH1 0x24 DUP3 ADD MSTORE PUSH32 0x496E73756666696369656E7420434F52414C20616C6C6F77616E636500000000 PUSH1 0x44 DUP3 ADD MSTORE PUSH1 0x64 SWAP1 REVERT JUMPDEST SWAP2 POP POP PUSH1 0x20 DUP2 RETURNDATASIZE PUSH1 0x20 GT PUSH2 0x1490 JUMPI JUMPDEST DUP2 PUSH2 0x147F PUSH1 0x20 SWAP4 DUP4 PUSH2 0x164B JUMP JUMPDEST DUP2 ADD SUB SLT PUSH2 0x409 JUMPI DUP5 SWAP1 MLOAD CODESIZE PUSH2 0x1230 JUMP JUMPDEST RETURNDATASIZE SWAP2 POP PUSH2 0x1472 JUMP JUMPDEST PUSH1 0x40 MLOAD PUSH3 0x461BCD PUSH1 0xE5 SHL DUP2 MSTORE PUSH1 0x20 PUSH1 0x4 DUP3 ADD MSTORE PUSH1 0x1A PUSH1 0x24 DUP3 ADD MSTORE PUSH32 0x546F6B656E20616C726561647920696E20646973636F76657279000000000000 PUSH1 0x44 DUP3 ADD MSTORE PUSH1 0x64 SWAP1 REVERT JUMPDEST PUSH1 0x40 MLOAD PUSH3 0x461BCD PUSH1 0xE5 SHL DUP2 MSTORE PUSH1 0x20 PUSH1 0x4 DUP3 ADD MSTORE PUSH1 0xC PUSH1 0x24 DUP3 ADD MSTORE PUSH12 0x155B985D5D1A1BDC9A5E9959 PUSH1 0xA2 SHL PUSH1 0x44 DUP3 ADD MSTORE PUSH1 0x64 SWAP1 REVERT JUMPDEST POP CALLVALUE PUSH2 0x416 JUMPI PUSH1 0x40 CALLDATASIZE PUSH1 0x3 NOT ADD SLT PUSH2 0x416 JUMPI DUP1 PUSH2 0x152C PUSH2 0x15F0 JUMP JUMPDEST PUSH2 0x1534 PUSH2 0x1946 JUMP JUMPDEST PUSH1 0x1 PUSH1 0x1 PUSH1 0xA0 SHL SUB DUP2 AND DUP3 MSTORE PUSH1 0x7 PUSH1 0x20 MSTORE PUSH1 0x40 DUP3 KECCAK256 SLOAD PUSH2 0x1556 SWAP1 PUSH1 0xFF AND PUSH2 0x1606 JUMP JUMPDEST PUSH1 0x3 SLOAD PUSH1 0x1 PUSH1 0x1 PUSH1 0xA0 SHL SUB AND DUP1 EXTCODESIZE ISZERO PUSH2 0x15C7 JUMPI PUSH1 0x40 MLOAD PUSH4 0x271AC579 PUSH1 0xE1 SHL DUP2 MSTORE PUSH1 0x1 PUSH1 0x1 PUSH1 0xA0 SHL SUB SWAP3 SWAP1 SWAP3 AND PUSH1 0x4 DUP4 ADD MSTORE PUSH1 0x24 DUP1 CALLDATALOAD SWAP1 DUP4 ADD MSTORE SWAP1 SWAP2 SWAP1 DUP2 SWAP1 DUP4 SWAP1 PUSH1 0x44 SWAP1 DUP3 SWAP1 DUP5 SWAP1 GAS CALL DUP1 ISZERO PUSH2 0x15BA JUMPI PUSH2 0x15AC JUMPI DUP1 RETURN JUMPDEST PUSH2 0x15B5 SWAP2 PUSH2 0x164B JUMP JUMPDEST CODESIZE DUP2 DUP1 RETURN JUMPDEST POP PUSH1 0x40 MLOAD SWAP1 RETURNDATASIZE SWAP1 DUP3 RETURNDATACOPY RETURNDATASIZE SWAP1 REVERT JUMPDEST POP POP REVERT JUMPDEST SWAP1 POP CALLVALUE PUSH2 0x3AD JUMPI DUP2 PUSH1 0x3 NOT CALLDATASIZE ADD SLT PUSH2 0x3AD JUMPI PUSH1 0x3 SLOAD PUSH1 0x1 PUSH1 0x1 PUSH1 0xA0 SHL SUB AND DUP2 MSTORE PUSH1 0x20 SWAP1 RETURN JUMPDEST PUSH1 0x4 CALLDATALOAD SWAP1 PUSH1 0x1 PUSH1 0x1 PUSH1 0xA0 SHL SUB DUP3 AND DUP3 SUB PUSH2 0x409 JUMPI JUMP JUMPDEST ISZERO PUSH2 0x160D JUMPI JUMP JUMPDEST PUSH1 0x40 MLOAD PUSH3 0x461BCD PUSH1 0xE5 SHL DUP2 MSTORE PUSH1 0x20 PUSH1 0x4 DUP3 ADD MSTORE PUSH1 0x16 PUSH1 0x24 DUP3 ADD MSTORE PUSH22 0x546F6B656E206E6F7420696E20646973636F76657279 PUSH1 0x50 SHL PUSH1 0x44 DUP3 ADD MSTORE PUSH1 0x64 SWAP1 REVERT JUMPDEST SWAP1 PUSH1 0x1F DUP1 NOT SWAP2 ADD AND DUP2 ADD SWAP1 DUP2 LT PUSH8 0xFFFFFFFFFFFFFFFF DUP3 GT OR PUSH2 0x166D JUMPI PUSH1 0x40 MSTORE JUMP JUMPDEST PUSH4 0x4E487B71 PUSH1 0xE0 SHL PUSH1 0x0 MSTORE PUSH1 0x41 PUSH1 0x4 MSTORE PUSH1 0x24 PUSH1 0x0 REVERT JUMPDEST ISZERO PUSH2 0x168A JUMPI JUMP JUMPDEST PUSH1 0x40 MLOAD PUSH3 0x461BCD PUSH1 0xE5 SHL DUP2 MSTORE PUSH1 0x20 PUSH1 0x4 DUP3 ADD MSTORE PUSH1 0x12 PUSH1 0x24 DUP3 ADD MSTORE PUSH18 0x10DBDB9D1C9858DD081A5CC81C185D5CD959 PUSH1 0x72 SHL PUSH1 0x44 DUP3 ADD MSTORE PUSH1 0x64 SWAP1 REVERT JUMPDEST PUSH1 0x40 MLOAD SWAP1 PUSH2 0x16D3 PUSH1 0x60 DUP4 PUSH2 0x164B JUMP JUMPDEST PUSH1 0x22 DUP3 MSTORE PUSH2 0x726F PUSH1 0xF0 SHL PUSH1 0x40 DUP4 PUSH32 0x496E697469616C2073756273637269626572732063616E6E6F74206265207A65 PUSH1 0x20 DUP3 ADD MSTORE ADD MSTORE JUMP JUMPDEST ISZERO PUSH2 0x1712 JUMPI POP JUMP JUMPDEST PUSH1 0x40 MLOAD SWAP1 PUSH3 0x461BCD PUSH1 0xE5 SHL DUP3 MSTORE PUSH1 0x20 PUSH1 0x4 DUP4 ADD MSTORE DUP2 DUP2 MLOAD SWAP2 DUP3 PUSH1 0x24 DUP4 ADD MSTORE PUSH1 0x0 JUMPDEST DUP4 DUP2 LT PUSH2 0x1755 JUMPI POP POP DUP2 PUSH1 0x0 PUSH1 0x44 DUP1 SWAP5 DUP5 ADD ADD MSTORE PUSH1 0x1F DUP1 NOT SWAP2 ADD AND DUP2 ADD SUB ADD SWAP1 REVERT JUMPDEST PUSH1 0x20 DUP3 DUP3 ADD DUP2 ADD MLOAD PUSH1 0x44 DUP8 DUP5 ADD ADD MSTORE DUP6 SWAP4 POP ADD PUSH2 0x1733 JUMP JUMPDEST SWAP1 DUP2 PUSH1 0x20 SWAP2 SUB SLT PUSH2 0x409 JUMPI MLOAD SWAP1 JUMP JUMPDEST SWAP1 DUP2 PUSH1 0x20 SWAP2 SUB SLT PUSH2 0x409 JUMPI MLOAD DUP1 ISZERO ISZERO DUP2 SUB PUSH2 0x409 JUMPI SWAP1 JUMP JUMPDEST PUSH1 0x2 SLOAD PUSH1 0x1 PUSH1 0x1 PUSH1 0xA0 SHL SUB SWAP2 DUP3 AND SWAP2 AND DUP2 EQ PUSH2 0x18E2 JUMPI PUSH1 0x3 SLOAD PUSH1 0x40 MLOAD PUSH4 0x6EB1769F PUSH1 0xE1 SHL DUP2 MSTORE ADDRESS PUSH1 0x4 DUP3 ADD MSTORE PUSH1 0x1 PUSH1 0x1 PUSH1 0xA0 SHL SUB SWAP1 SWAP2 AND PUSH1 0x24 DUP3 ADD DUP2 SWAP1 MSTORE SWAP1 PUSH1 0x20 DUP2 PUSH1 0x44 DUP2 DUP7 GAS STATICCALL SWAP1 DUP2 ISZERO PUSH2 0x188C JUMPI PUSH1 0x0 SWAP2 PUSH2 0x18B0 JUMPI JUMPDEST POP ISZERO ISZERO DUP1 PUSH2 0x1898 JUMPI JUMPDEST PUSH2 0x17FC JUMPI POP POP JUMP JUMPDEST PUSH1 0x40 MLOAD SWAP1 PUSH4 0x95EA7B3 PUSH1 0xE0 SHL DUP3 MSTORE PUSH1 0x4 DUP3 ADD MSTORE PUSH1 0x0 PUSH1 0x24 DUP3 ADD MSTORE PUSH1 0x20 DUP2 PUSH1 0x44 DUP2 PUSH1 0x0 DUP7 GAS CALL DUP1 ISZERO PUSH2 0x188C JUMPI PUSH2 0x186F JUMPI JUMPDEST POP DUP1 PUSH1 0x0 MSTORE PUSH1 0x8 PUSH1 0x20 MSTORE PUSH1 0x40 PUSH1 0x0 KECCAK256 PUSH1 0xFF NOT DUP2 SLOAD AND SWAP1 SSTORE PUSH32 0x3E776E19FC0F05C1B8270744B61C5729D5D1A5D8DDED1BFB81E3979E257EDD59 PUSH1 0x20 PUSH1 0x40 MLOAD TIMESTAMP DUP2 MSTORE LOG2 JUMP JUMPDEST PUSH2 0x1887 SWAP1 PUSH1 0x20 RETURNDATASIZE PUSH1 0x20 GT PUSH2 0xA7A JUMPI PUSH2 0xA6B DUP2 DUP4 PUSH2 0x164B JUMP JUMPDEST PUSH2 0x182C JUMP JUMPDEST PUSH1 0x40 MLOAD RETURNDATASIZE PUSH1 0x0 DUP3 RETURNDATACOPY RETURNDATASIZE SWAP1 REVERT JUMPDEST POP DUP2 PUSH1 0x0 MSTORE PUSH1 0x8 PUSH1 0x20 MSTORE PUSH1 0xFF PUSH1 0x40 PUSH1 0x0 KECCAK256 SLOAD AND PUSH2 0x17F4 JUMP JUMPDEST SWAP1 POP PUSH1 0x20 DUP2 RETURNDATASIZE PUSH1 0x20 GT PUSH2 0x18DA JUMPI JUMPDEST DUP2 PUSH2 0x18CB PUSH1 0x20 SWAP4 DUP4 PUSH2 0x164B JUMP JUMPDEST DUP2 ADD SUB SLT PUSH2 0x409 JUMPI MLOAD CODESIZE PUSH2 0x17EB JUMP JUMPDEST RETURNDATASIZE SWAP2 POP PUSH2 0x18BE JUMP JUMPDEST POP JUMP JUMPDEST DUP1 ISZERO PUSH2 0x18F9 PUSH2 0x18F2 PUSH2 0x16C4 JUMP JUMPDEST DUP3 ISZERO PUSH2 0x170A JUMP JUMPDEST PUSH8 0xDE0B6B3A7640000 DUP3 MUL SWAP2 DUP3 DIV PUSH8 0xDE0B6B3A7640000 EQ OR ISZERO PUSH2 0x191A JUMPI SWAP1 JUMP JUMPDEST PUSH4 0x4E487B71 PUSH1 0xE0 SHL PUSH1 0x0 MSTORE PUSH1 0x11 PUSH1 0x4 MSTORE PUSH1 0x24 PUSH1 0x0 REVERT JUMPDEST SWAP2 SWAP1 DUP3 PUSH1 0x40 SWAP2 SUB SLT PUSH2 0x409 JUMPI PUSH1 0x20 DUP3 MLOAD SWAP3 ADD MLOAD SWAP1 JUMP JUMPDEST PUSH1 0x0 SLOAD PUSH1 0x1 PUSH1 0x1 PUSH1 0xA0 SHL SUB AND CALLER SUB PUSH2 0x195A JUMPI JUMP JUMPDEST PUSH4 0x118CDAA7 PUSH1 0xE0 SHL PUSH1 0x0 MSTORE CALLER PUSH1 0x4 MSTORE PUSH1 0x24 PUSH1 0x0 REVERT JUMPDEST PUSH1 0x40 MLOAD PUSH4 0x23B872DD PUSH1 0xE0 SHL PUSH1 0x20 DUP3 ADD MSTORE PUSH1 0x1 PUSH1 0x1 PUSH1 0xA0 SHL SUB SWAP3 DUP4 AND PUSH1 0x24 DUP3 ADD MSTORE SWAP3 SWAP1 SWAP2 AND PUSH1 0x44 DUP4 ADD MSTORE PUSH1 0x64 DUP1 DUP4 ADD SWAP4 SWAP1 SWAP4 MSTORE SWAP2 DUP2 MSTORE PUSH2 0x19B8 SWAP2 PUSH2 0x19B3 PUSH1 0x84 DUP4 PUSH2 0x164B JUMP JUMPDEST PUSH2 0x1A18 JUMP JUMPDEST JUMP JUMPDEST PUSH1 0x2 PUSH1 0x1 SLOAD EQ PUSH2 0x19CB JUMPI PUSH1 0x2 PUSH1 0x1 SSTORE JUMP JUMPDEST PUSH4 0x3EE5AEB5 PUSH1 0xE0 SHL PUSH1 0x0 MSTORE PUSH1 0x4 PUSH1 0x0 REVERT JUMPDEST PUSH1 0x40 MLOAD PUSH4 0xA9059CBB PUSH1 0xE0 SHL PUSH1 0x20 DUP3 ADD MSTORE PUSH1 0x1 PUSH1 0x1 PUSH1 0xA0 SHL SUB SWAP3 SWAP1 SWAP3 AND PUSH1 0x24 DUP4 ADD MSTORE PUSH1 0x44 DUP1 DUP4 ADD SWAP4 SWAP1 SWAP4 MSTORE SWAP2 DUP2 MSTORE PUSH2 0x19B8 SWAP2 PUSH2 0x19B3 PUSH1 0x64 DUP4 PUSH2 0x164B JUMP JUMPDEST SWAP1 PUSH1 0x0 PUSH1 0x20 SWAP2 DUP3 DUP2 MLOAD SWAP2 ADD DUP3 DUP6 GAS CALL ISZERO PUSH2 0x188C JUMPI PUSH1 0x0 MLOAD RETURNDATASIZE PUSH2 0x1A6A JUMPI POP PUSH1 0x1 PUSH1 0x1 PUSH1 0xA0 SHL SUB DUP2 AND EXTCODESIZE ISZERO JUMPDEST PUSH2 0x1A49 JUMPI POP JUMP JUMPDEST PUSH4 0x5274AFE7 PUSH1 0xE0 SHL PUSH1 0x0 SWAP1 DUP2 MSTORE PUSH1 0x1 PUSH1 0x1 PUSH1 0xA0 SHL SUB SWAP2 SWAP1 SWAP2 AND PUSH1 0x4 MSTORE PUSH1 0x24 SWAP1 REVERT JUMPDEST PUSH1 0x1 EQ ISZERO PUSH2 0x1A42 JUMP INVALID LOG2 PUSH5 0x6970667358 0x22 SLT KECCAK256 0xE5 0xBF SWAP16 JUMPDEST BYTE 0xAB PUSH28 0xA859D21B4DBE8FE447C81594E6628F6C4B90C684352BC103B364736F PUSH13 0x634300081C0033000000000000 "},"methodIdentifiers":{"APPROVAL_TIMEOUT()":"f3683428","MAX_INITIAL_CORAL()":"e2cfb273","MIN_INITIAL_CORAL()":"c1eb70cc","calculateInitialLiquidity(uint256)":"8e3b58e2","completePriceDiscovery(address)":"fb99d5f4","coralToken()":"bba2e140","creatorTokenFactory()":"88ed7512","dex()":"692058c2","emergencyWithdrawCoral(address,uint256,uint8)":"e63c453d","getPauseState()":"9a44f1fb","hasOpenApproval(address)":"700d53a7","inPriceDiscovery(address)":"c6a55cbb","lastApprovalTimestamp()":"89312c35","lastPauseChange()":"8f8f54b3","liquidityManager()":"33827438","listNewCreatorToken(address)":"9c3ba48b","listedTokens(address)":"7093f47f","onTokenMinted(address,uint256)":"3f80aace","owner()":"8da5cb5b","paused()":"5c975abb","renounceOwnership()":"715018a6","revokeApproval(address)":"484685b0","swapCoralForToken(address,uint256,uint256)":"b0eeb1e8","togglePause()":"c4ae3168","transferOwnership(address)":"f2fde38b","updateAIRebalance(address,uint256)":"6cbb3486","updateEngagementMetrics(address,uint256)":"3417c3d0"}},"storageLayout":{"storage":[{"astId":387,"contract":"contracts/SaraTokenRouter.sol:SaraTokenRouter","label":"_owner","offset":0,"slot":"0","type":"t_address"},{"astId":1874,"contract":"contracts/SaraTokenRouter.sol:SaraTokenRouter","label":"_status","offset":0,"slot":"1","type":"t_uint256"},{"astId":11206,"contract":"contracts/SaraTokenRouter.sol:SaraTokenRouter","label":"coralToken","offset":0,"slot":"2","type":"t_address"},{"astId":11209,"contract":"contracts/SaraTokenRouter.sol:SaraTokenRouter","label":"liquidityManager","offset":0,"slot":"3","type":"t_contract(SaraLiquidityManager)11158"},{"astId":11212,"contract":"contracts/SaraTokenRouter.sol:SaraTokenRouter","label":"dex","offset":0,"slot":"4","type":"t_contract(SaraDEX)7026"},{"astId":11216,"contract":"contracts/SaraTokenRouter.sol:SaraTokenRouter","label":"listedTokens","offset":0,"slot":"5","type":"t_mapping(t_address,t_bool)"},{"astId":11219,"contract":"contracts/SaraTokenRouter.sol:SaraTokenRouter","label":"creatorTokenFactory","offset":0,"slot":"6","type":"t_contract(ICreatorCoin)11192"},{"astId":11221,"contract":"contracts/SaraTokenRouter.sol:SaraTokenRouter","label":"paused","offset":20,"slot":"6","type":"t_bool"},{"astId":11235,"contract":"contracts/SaraTokenRouter.sol:SaraTokenRouter","label":"inPriceDiscovery","offset":0,"slot":"7","type":"t_mapping(t_address,t_bool)"},{"astId":11254,"contract":"contracts/SaraTokenRouter.sol:SaraTokenRouter","label":"hasOpenApproval","offset":0,"slot":"8","type":"t_mapping(t_address,t_bool)"},{"astId":11259,"contract":"contracts/SaraTokenRouter.sol:SaraTokenRouter","label":"lastApprovalTimestamp","offset":0,"slot":"9","type":"t_uint256"},{"astId":11261,"contract":"contracts/SaraTokenRouter.sol:SaraTokenRouter","label":"lastPauseChange","offset":0,"slot":"10","type":"t_uint256"}],"types":{"t_address":{"encoding":"inplace","label":"address","numberOfBytes":"20"},"t_bool":{"encoding":"inplace","label":"bool","numberOfBytes":"1"},"t_contract(ICreatorCoin)11192":{"encoding":"inplace","label":"contract ICreatorCoin","numberOfBytes":"20"},"t_contract(SaraDEX)7026":{"encoding":"inplace","label":"contract SaraDEX","numberOfBytes":"20"},"t_contract(SaraLiquidityManager)11158":{"encoding":"inplace","label":"contract SaraLiquidityManager","numberOfBytes":"20"},"t_mapping(t_address,t_bool)":{"encoding":"mapping","key":"t_address","label":"mapping(address => bool)","numberOfBytes":"32","value":"t_bool"},"t_uint256":{"encoding":"inplace","label":"uint256","numberOfBytes":"32"}}}}}}