{"contracts/SaraLiquidityManager.sol":{"SaraLiquidityManager":{"abi":[{"inputs":[{"internalType":"address","name":"_coralToken","type":"address"}],"stateMutability":"nonpayable","type":"constructor"},{"inputs":[],"name":"AccessControlBadConfirmation","type":"error"},{"inputs":[{"internalType":"address","name":"account","type":"address"},{"internalType":"bytes32","name":"neededRole","type":"bytes32"}],"name":"AccessControlUnauthorizedAccount","type":"error"},{"inputs":[{"internalType":"address","name":"owner","type":"address"}],"name":"OwnableInvalidOwner","type":"error"},{"inputs":[{"internalType":"address","name":"account","type":"address"}],"name":"OwnableUnauthorizedAccount","type":"error"},{"inputs":[{"internalType":"address","name":"token","type":"address"}],"name":"SafeERC20FailedOperation","type":"error"},{"anonymous":false,"inputs":[{"indexed":true,"internalType":"address","name":"token","type":"address"},{"indexed":false,"internalType":"uint256","name":"amount","type":"uint256"},{"indexed":true,"internalType":"address","name":"targetPool","type":"address"},{"indexed":false,"internalType":"uint256","name":"coralAmount","type":"uint256"},{"indexed":false,"internalType":"uint256","name":"timestamp","type":"uint256"}],"name":"AutoFeesRedeployed","type":"event"},{"anonymous":false,"inputs":[{"indexed":true,"internalType":"address","name":"to","type":"address"},{"indexed":false,"internalType":"uint256","name":"amount","type":"uint256"},{"indexed":false,"internalType":"uint256","name":"timestamp","type":"uint256"}],"name":"CoralTokenTransferred","type":"event"},{"anonymous":false,"inputs":[{"indexed":true,"internalType":"address","name":"newDEX","type":"address"}],"name":"DEXUpdated","type":"event"},{"anonymous":false,"inputs":[{"indexed":true,"internalType":"address","name":"targetPool","type":"address"},{"indexed":false,"internalType":"uint256","name":"calculatedAmount","type":"uint256"},{"indexed":false,"internalType":"string","name":"reason","type":"string"}],"name":"DeploymentSkipped","type":"event"},{"anonymous":false,"inputs":[{"indexed":true,"internalType":"address","name":"token","type":"address"},{"indexed":false,"internalType":"uint256","name":"rawCount","type":"uint256"},{"indexed":false,"internalType":"uint256","name":"smoothedCount","type":"uint256"},{"indexed":false,"internalType":"uint256","name":"timestamp","type":"uint256"}],"name":"EngagementSmoothed","type":"event"},{"anonymous":false,"inputs":[{"indexed":true,"internalType":"address","name":"token","type":"address"},{"indexed":false,"internalType":"uint256","name":"subscribers","type":"uint256"},{"indexed":false,"internalType":"uint256","name":"timestamp","type":"uint256"}],"name":"EngagementSnapshotTaken","type":"event"},{"anonymous":false,"inputs":[{"indexed":true,"internalType":"address","name":"pool","type":"address"},{"indexed":false,"internalType":"uint256","name":"reserveAmount","type":"uint256"}],"name":"FallbackPoolSelected","type":"event"},{"anonymous":false,"inputs":[{"indexed":true,"internalType":"address","name":"token","type":"address"},{"indexed":false,"internalType":"uint256","name":"amount","type":"uint256"}],"name":"FeesCollected","type":"event"},{"anonymous":false,"inputs":[{"indexed":true,"internalType":"address","name":"token","type":"address"},{"indexed":false,"internalType":"uint256","name":"amount","type":"uint256"},{"indexed":true,"internalType":"address","name":"targetPool","type":"address"}],"name":"FeesRedeployed","type":"event"},{"anonymous":false,"inputs":[{"indexed":true,"internalType":"address","name":"token","type":"address"},{"indexed":false,"internalType":"uint256","name":"amount","type":"uint256"}],"name":"FeesWithdrawn","type":"event"},{"anonymous":false,"inputs":[{"indexed":true,"internalType":"address","name":"creatorToken","type":"address"},{"indexed":false,"internalType":"uint256","name":"amountCreator","type":"uint256"},{"indexed":false,"internalType":"uint256","name":"amountCoral","type":"uint256"}],"name":"LiquidityAdded","type":"event"},{"anonymous":false,"inputs":[{"indexed":true,"internalType":"address","name":"token","type":"address"},{"indexed":false,"internalType":"uint256","name":"cappedAmount","type":"uint256"}],"name":"LiquidityCapped","type":"event"},{"anonymous":false,"inputs":[{"indexed":true,"internalType":"address","name":"token","type":"address"},{"indexed":false,"internalType":"uint256","name":"newReserveCoral","type":"uint256"}],"name":"LiquidityRebalanced","type":"event"},{"anonymous":false,"inputs":[{"indexed":true,"internalType":"address","name":"creatorToken","type":"address"},{"indexed":false,"internalType":"uint256","name":"amountCreator","type":"uint256"},{"indexed":false,"internalType":"uint256","name":"amountCoral","type":"uint256"}],"name":"LiquidityRemoved","type":"event"},{"anonymous":false,"inputs":[{"indexed":false,"internalType":"uint256","name":"oldMax","type":"uint256"},{"indexed":false,"internalType":"uint256","name":"newMax","type":"uint256"},{"indexed":false,"internalType":"uint256","name":"timestamp","type":"uint256"}],"name":"MaxLiquidityUpdated","type":"event"},{"anonymous":false,"inputs":[{"indexed":true,"internalType":"address","name":"previousOwner","type":"address"},{"indexed":true,"internalType":"address","name":"newOwner","type":"address"}],"name":"OwnershipTransferred","type":"event"},{"anonymous":false,"inputs":[{"indexed":true,"internalType":"address","name":"pool","type":"address"},{"indexed":false,"internalType":"uint256","name":"volume24h","type":"uint256"},{"indexed":false,"internalType":"uint256","name":"timestamp","type":"uint256"}],"name":"PoolActivityUpdated","type":"event"},{"anonymous":false,"inputs":[{"indexed":true,"internalType":"address","name":"pool","type":"address"},{"indexed":false,"internalType":"uint256","name":"score","type":"uint256"},{"indexed":false,"internalType":"uint256","name":"timestamp","type":"uint256"}],"name":"PoolNeedUpdated","type":"event"},{"anonymous":false,"inputs":[{"indexed":true,"internalType":"address","name":"pool","type":"address"},{"indexed":false,"internalType":"uint256","name":"score","type":"uint256"},{"indexed":false,"internalType":"uint256","name":"currentLiquidity","type":"uint256"}],"name":"PoolSelected","type":"event"},{"anonymous":false,"inputs":[{"indexed":true,"internalType":"address","name":"pool","type":"address"}],"name":"PoolTracked","type":"event"},{"anonymous":false,"inputs":[{"indexed":true,"internalType":"address","name":"pool","type":"address"}],"name":"PoolUntracked","type":"event"},{"anonymous":false,"inputs":[{"indexed":true,"internalType":"address","name":"token","type":"address"},{"indexed":false,"internalType":"uint256","name":"calculatedPrice","type":"uint256"},{"indexed":false,"internalType":"uint256","name":"cappedPrice","type":"uint256"}],"name":"PriceCapReached","type":"event"},{"anonymous":false,"inputs":[{"indexed":true,"internalType":"address","name":"token","type":"address"},{"indexed":false,"internalType":"uint256","name":"initialCoralPrice","type":"uint256"},{"indexed":false,"internalType":"uint256","name":"initialLiquidity","type":"uint256"}],"name":"PriceDiscoveryCompleted","type":"event"},{"anonymous":false,"inputs":[{"indexed":true,"internalType":"address","name":"token","type":"address"},{"indexed":false,"internalType":"uint256","name":"initialSubscribers","type":"uint256"}],"name":"PriceDiscoveryStarted","type":"event"},{"anonymous":false,"inputs":[{"indexed":true,"internalType":"address","name":"token","type":"address"},{"indexed":false,"internalType":"uint256","name":"coralReserve","type":"uint256"},{"indexed":false,"internalType":"string","name":"reason","type":"string"}],"name":"RebalanceSkipped","type":"event"},{"anonymous":false,"inputs":[{"indexed":true,"internalType":"bytes32","name":"role","type":"bytes32"},{"indexed":true,"internalType":"bytes32","name":"previousAdminRole","type":"bytes32"},{"indexed":true,"internalType":"bytes32","name":"newAdminRole","type":"bytes32"}],"name":"RoleAdminChanged","type":"event"},{"anonymous":false,"inputs":[{"indexed":true,"internalType":"bytes32","name":"role","type":"bytes32"},{"indexed":true,"internalType":"address","name":"account","type":"address"},{"indexed":true,"internalType":"address","name":"sender","type":"address"}],"name":"RoleGranted","type":"event"},{"anonymous":false,"inputs":[{"indexed":true,"internalType":"bytes32","name":"role","type":"bytes32"},{"indexed":true,"internalType":"address","name":"account","type":"address"},{"indexed":true,"internalType":"address","name":"sender","type":"address"}],"name":"RoleRevoked","type":"event"},{"inputs":[],"name":"ACTIVITY_THRESHOLD","outputs":[{"internalType":"uint256","name":"","type":"uint256"}],"stateMutability":"view","type":"function"},{"inputs":[],"name":"BASE_PRICE","outputs":[{"internalType":"uint256","name":"","type":"uint256"}],"stateMutability":"view","type":"function"},{"inputs":[],"name":"DEFAULT_ADMIN_ROLE","outputs":[{"internalType":"bytes32","name":"","type":"bytes32"}],"stateMutability":"view","type":"function"},{"inputs":[],"name":"DEX_ROLE","outputs":[{"internalType":"bytes32","name":"","type":"bytes32"}],"stateMutability":"view","type":"function"},{"inputs":[],"name":"DISCOVERY_PERIOD","outputs":[{"internalType":"uint256","name":"","type":"uint256"}],"stateMutability":"view","type":"function"},{"inputs":[],"name":"ENGAGEMENT_THRESHOLD","outputs":[{"internalType":"uint256","name":"","type":"uint256"}],"stateMutability":"view","type":"function"},{"inputs":[],"name":"MAX_PRICE_MULTIPLIER","outputs":[{"internalType":"uint256","name":"","type":"uint256"}],"stateMutability":"view","type":"function"},{"inputs":[],"name":"MAX_SNAPSHOTS","outputs":[{"internalType":"uint256","name":"","type":"uint256"}],"stateMutability":"view","type":"function"},{"inputs":[],"name":"MIN_24H_VOLUME","outputs":[{"internalType":"uint256","name":"","type":"uint256"}],"stateMutability":"view","type":"function"},{"inputs":[],"name":"MIN_DEPLOYMENT_AMOUNT","outputs":[{"internalType":"uint256","name":"","type":"uint256"}],"stateMutability":"view","type":"function"},{"inputs":[],"name":"MIN_FEES_FOR_REDEPLOY","outputs":[{"internalType":"uint256","name":"","type":"uint256"}],"stateMutability":"view","type":"function"},{"inputs":[],"name":"MIN_LIQUIDITY","outputs":[{"internalType":"uint256","name":"","type":"uint256"}],"stateMutability":"view","type":"function"},{"inputs":[],"name":"MIN_TOKEN_PRICE","outputs":[{"internalType":"uint256","name":"","type":"uint256"}],"stateMutability":"view","type":"function"},{"inputs":[],"name":"POOL_NEED_UPDATE_INTERVAL","outputs":[{"internalType":"uint256","name":"","type":"uint256"}],"stateMutability":"view","type":"function"},{"inputs":[],"name":"REBALANCE_INTERVAL","outputs":[{"internalType":"uint256","name":"","type":"uint256"}],"stateMutability":"view","type":"function"},{"inputs":[],"name":"SNAPSHOT_INTERVAL","outputs":[{"internalType":"uint256","name":"","type":"uint256"}],"stateMutability":"view","type":"function"},{"inputs":[{"internalType":"address","name":"creatorToken","type":"address"},{"internalType":"uint256","name":"amountCreator","type":"uint256"},{"internalType":"uint256","name":"amountCoral","type":"uint256"}],"name":"addLiquidity","outputs":[],"stateMutability":"nonpayable","type":"function"},{"inputs":[{"internalType":"address","name":"token","type":"address"}],"name":"autoRedeployFees","outputs":[],"stateMutability":"nonpayable","type":"function"},{"inputs":[{"internalType":"uint256","name":"subscriberCount","type":"uint256"},{"internalType":"uint256","name":"price","type":"uint256"}],"name":"calculateInitialLiquidity","outputs":[{"internalType":"uint256","name":"","type":"uint256"}],"stateMutability":"view","type":"function"},{"inputs":[{"internalType":"address","name":"token","type":"address"}],"name":"checkAndRebalance","outputs":[],"stateMutability":"nonpayable","type":"function"},{"inputs":[{"internalType":"address","name":"token","type":"address"},{"internalType":"uint256","name":"amount","type":"uint256"}],"name":"collectFees","outputs":[],"stateMutability":"nonpayable","type":"function"},{"inputs":[{"internalType":"address","name":"","type":"address"}],"name":"collectedFees","outputs":[{"internalType":"uint256","name":"","type":"uint256"}],"stateMutability":"view","type":"function"},{"inputs":[{"internalType":"address","name":"token","type":"address"}],"name":"completePriceDiscovery","outputs":[],"stateMutability":"nonpayable","type":"function"},{"inputs":[{"internalType":"address","name":"","type":"address"}],"name":"coralReserves","outputs":[{"internalType":"uint256","name":"","type":"uint256"}],"stateMutability":"view","type":"function"},{"inputs":[],"name":"coralToken","outputs":[{"internalType":"address","name":"","type":"address"}],"stateMutability":"view","type":"function"},{"inputs":[{"internalType":"address","name":"","type":"address"}],"name":"creatorTokenReserves","outputs":[{"internalType":"uint256","name":"","type":"uint256"}],"stateMutability":"view","type":"function"},{"inputs":[],"name":"dex","outputs":[{"internalType":"address","name":"","type":"address"}],"stateMutability":"view","type":"function"},{"inputs":[],"name":"forcePoolNeedUpdate","outputs":[],"stateMutability":"nonpayable","type":"function"},{"inputs":[],"name":"getLiquidityLimits","outputs":[{"internalType":"uint256","name":"min","type":"uint256"},{"internalType":"uint256","name":"max","type":"uint256"}],"stateMutability":"view","type":"function"},{"inputs":[{"internalType":"address","name":"pool","type":"address"}],"name":"getPoolActivity","outputs":[{"internalType":"uint256","name":"lastTrade","type":"uint256"},{"internalType":"uint256","name":"volume24h","type":"uint256"},{"internalType":"bool","name":"isActive","type":"bool"}],"stateMutability":"view","type":"function"},{"inputs":[],"name":"getPoolNeedInfo","outputs":[{"internalType":"address","name":"pool","type":"address"},{"internalType":"uint256","name":"score","type":"uint256"},{"internalType":"uint256","name":"lastUpdate","type":"uint256"},{"internalType":"bool","name":"isStale","type":"bool"}],"stateMutability":"view","type":"function"},{"inputs":[{"internalType":"address","name":"creatorToken","type":"address"}],"name":"getReserves","outputs":[{"internalType":"uint256","name":"creatorReserve","type":"uint256"},{"internalType":"uint256","name":"coralReserve","type":"uint256"}],"stateMutability":"view","type":"function"},{"inputs":[{"internalType":"bytes32","name":"role","type":"bytes32"}],"name":"getRoleAdmin","outputs":[{"internalType":"bytes32","name":"","type":"bytes32"}],"stateMutability":"view","type":"function"},{"inputs":[{"internalType":"address","name":"token","type":"address"}],"name":"getSmoothedMetrics","outputs":[{"internalType":"uint256","name":"lastCount","type":"uint256"},{"internalType":"uint256","name":"smoothedCount","type":"uint256"},{"internalType":"uint256","name":"updateCount","type":"uint256"},{"internalType":"bool","name":"eligibleForRebalance","type":"bool"}],"stateMutability":"view","type":"function"},{"inputs":[],"name":"getTrackedPools","outputs":[{"internalType":"address[]","name":"","type":"address[]"}],"stateMutability":"view","type":"function"},{"inputs":[{"internalType":"address","name":"account","type":"address"}],"name":"grantDEXRole","outputs":[],"stateMutability":"nonpayable","type":"function"},{"inputs":[{"internalType":"bytes32","name":"role","type":"bytes32"},{"internalType":"address","name":"account","type":"address"}],"name":"grantRole","outputs":[],"stateMutability":"nonpayable","type":"function"},{"inputs":[{"internalType":"bytes32","name":"role","type":"bytes32"},{"internalType":"address","name":"account","type":"address"}],"name":"hasRole","outputs":[{"internalType":"bool","name":"","type":"bool"}],"stateMutability":"view","type":"function"},{"inputs":[{"internalType":"address","name":"creatorToken","type":"address"}],"name":"hasValidLiquidity","outputs":[{"internalType":"bool","name":"","type":"bool"}],"stateMutability":"view","type":"function"},{"inputs":[{"internalType":"address","name":"token","type":"address"}],"name":"isNativeCoral","outputs":[{"internalType":"bool","name":"","type":"bool"}],"stateMutability":"pure","type":"function"},{"inputs":[{"internalType":"address","name":"pool","type":"address"}],"name":"isPoolActive","outputs":[{"internalType":"bool","name":"","type":"bool"}],"stateMutability":"view","type":"function"},{"inputs":[{"internalType":"address","name":"","type":"address"}],"name":"isTrackedPool","outputs":[{"internalType":"bool","name":"","type":"bool"}],"stateMutability":"view","type":"function"},{"inputs":[{"internalType":"uint256","name":"liquidity","type":"uint256"}],"name":"isValidLiquidity","outputs":[{"internalType":"bool","name":"","type":"bool"}],"stateMutability":"view","type":"function"},{"inputs":[],"name":"lastRebalanceTimestamp","outputs":[{"internalType":"uint256","name":"","type":"uint256"}],"stateMutability":"view","type":"function"},{"inputs":[],"name":"maxLiquidityPerPool","outputs":[{"internalType":"uint256","name":"","type":"uint256"}],"stateMutability":"view","type":"function"},{"inputs":[],"name":"mostNeededPool","outputs":[{"internalType":"address","name":"pool","type":"address"},{"internalType":"uint256","name":"score","type":"uint256"},{"internalType":"uint256","name":"lastUpdateTime","type":"uint256"}],"stateMutability":"view","type":"function"},{"inputs":[],"name":"owner","outputs":[{"internalType":"address","name":"","type":"address"}],"stateMutability":"view","type":"function"},{"inputs":[{"internalType":"address","name":"","type":"address"}],"name":"poolActivity","outputs":[{"internalType":"uint256","name":"lastTradeTimestamp","type":"uint256"},{"internalType":"uint256","name":"tradingVolume24h","type":"uint256"},{"internalType":"uint256","name":"lastVolumeUpdateTime","type":"uint256"}],"stateMutability":"view","type":"function"},{"inputs":[{"internalType":"address","name":"","type":"address"}],"name":"priceDiscovery","outputs":[{"internalType":"uint256","name":"initialSubscribers","type":"uint256"},{"internalType":"uint256","name":"currentSubscribers","type":"uint256"},{"internalType":"uint256","name":"observationStartTime","type":"uint256"},{"internalType":"bool","name":"isInDiscovery","type":"bool"}],"stateMutability":"view","type":"function"},{"inputs":[{"internalType":"address","name":"token","type":"address"},{"internalType":"uint256","name":"currentSubscribers","type":"uint256"}],"name":"recordEngagementSnapshot","outputs":[],"stateMutability":"nonpayable","type":"function"},{"inputs":[{"internalType":"address","name":"token","type":"address"},{"internalType":"address","name":"targetPool","type":"address"}],"name":"redeployFees","outputs":[],"stateMutability":"nonpayable","type":"function"},{"inputs":[{"internalType":"address","name":"creatorToken","type":"address"},{"internalType":"uint256","name":"amountCreator","type":"uint256"},{"internalType":"uint256","name":"amountCoral","type":"uint256"}],"name":"removeLiquidity","outputs":[],"stateMutability":"nonpayable","type":"function"},{"inputs":[{"internalType":"address","name":"pool","type":"address"}],"name":"removePoolFromTracking","outputs":[],"stateMutability":"nonpayable","type":"function"},{"inputs":[],"name":"renounceOwnership","outputs":[],"stateMutability":"nonpayable","type":"function"},{"inputs":[{"internalType":"bytes32","name":"role","type":"bytes32"},{"internalType":"address","name":"callerConfirmation","type":"address"}],"name":"renounceRole","outputs":[],"stateMutability":"nonpayable","type":"function"},{"inputs":[{"internalType":"address","name":"account","type":"address"}],"name":"revokeDEXRole","outputs":[],"stateMutability":"nonpayable","type":"function"},{"inputs":[{"internalType":"bytes32","name":"role","type":"bytes32"},{"internalType":"address","name":"account","type":"address"}],"name":"revokeRole","outputs":[],"stateMutability":"nonpayable","type":"function"},{"inputs":[{"internalType":"address","name":"_dex","type":"address"}],"name":"setDEX","outputs":[],"stateMutability":"nonpayable","type":"function"},{"inputs":[{"internalType":"uint256","name":"_newMax","type":"uint256"}],"name":"setMaxLiquidity","outputs":[],"stateMutability":"nonpayable","type":"function"},{"inputs":[{"internalType":"address","name":"token","type":"address"},{"internalType":"uint256","name":"initialSubscribers","type":"uint256"}],"name":"startPriceDiscovery","outputs":[],"stateMutability":"nonpayable","type":"function"},{"inputs":[{"internalType":"bytes4","name":"interfaceId","type":"bytes4"}],"name":"supportsInterface","outputs":[{"internalType":"bool","name":"","type":"bool"}],"stateMutability":"view","type":"function"},{"inputs":[{"internalType":"address","name":"","type":"address"}],"name":"tokenEngagement","outputs":[{"internalType":"uint256","name":"lastSubscriberCount","type":"uint256"},{"internalType":"uint256","name":"smoothedSubscriberCount","type":"uint256"},{"internalType":"uint256","name":"lastUpdateTime","type":"uint256"},{"internalType":"uint256","name":"updateCount","type":"uint256"}],"stateMutability":"view","type":"function"},{"inputs":[{"internalType":"uint256","name":"","type":"uint256"}],"name":"trackedPools","outputs":[{"internalType":"address","name":"","type":"address"}],"stateMutability":"view","type":"function"},{"inputs":[{"internalType":"uint256","name":"amount","type":"uint256"}],"name":"transferCoralToDEX","outputs":[],"stateMutability":"nonpayable","type":"function"},{"inputs":[{"internalType":"address","name":"newOwner","type":"address"}],"name":"transferOwnership","outputs":[],"stateMutability":"nonpayable","type":"function"},{"inputs":[{"internalType":"address","name":"token","type":"address"},{"internalType":"uint256","name":"newSubscriberCount","type":"uint256"}],"name":"updateEngagementMetrics","outputs":[],"stateMutability":"nonpayable","type":"function"},{"inputs":[{"internalType":"address","name":"pool","type":"address"},{"internalType":"uint256","name":"tradeAmount","type":"uint256"}],"name":"updatePoolActivity","outputs":[],"stateMutability":"nonpayable","type":"function"},{"inputs":[{"internalType":"address","name":"token","type":"address"},{"internalType":"uint256","name":"amount","type":"uint256"}],"name":"withdrawFees","outputs":[],"stateMutability":"nonpayable","type":"function"}],"evm":{"bytecode":{"linkReferences":{},"object":"6080346100ed57601f613a6a38819003918201601f19168301916001600160401b038311848410176100f2578084926020946040528339810103126100ed57516001600160a01b038116908190036100ed5733156100d75760008054336001600160a01b0319821681178355916001600160a01b03909116907f8be0079c531659141344cd1fd0a4f28419497f9722a3daafe3b4186f6b6457e09080a369021e19e0c9bab2400000601055600580546001600160a01b0319169190911790556100c733610108565b506040516138b390816101978239f35b631e4fbdf760e01b600052600060045260246000fd5b600080fd5b634e487b7160e01b600052604160045260246000fd5b6001600160a01b0381166000908152600080516020613a4a833981519152602052604090205460ff16610190576001600160a01b03166000818152600080516020613a4a83398151915260205260408120805460ff191660011790553391907f2f8788117e7eff1d82e926ec794901d17c78024a50270940304540a733656f0d8180a4600190565b5060009056fe608080604052600436101561001357600080fd5b60003560e01c90816301ffc9a71461285b57508063051e0e671461280057806314f302ac146127df5780631735968814611a5c5780631879dcf3146127bc5780631b5a799a146127995780631ccf71eb146126bf5780631cead9a71461268557806321b77d63146113ad5780632253fc3c1461250757806323bfa792146124c5578063248a9ca3146124905780632d957a8c146124735780632ef972651461244a5780632f2ff15d1461240a57806330ae7805146123ed57806331ad24f8146123d15780633417c3d0146123a457806336568abe1461235e5780633c231efd146121e45780633e99c1e4146121b55780633ec433501461211b578063414f99ae146120fd5780634e358af214611df657806355776b7714611a7d5780635889486e14611a615780635c2da7cd14611a5c57806365f9297814611a3157806368d693c314611996578063692058c21461196d5780636d2beef114611951578063708b99351461191757806371081c8e146117fc578063715018a6146117a357806374a92c66146117645780637b66a7231461167f57806384f74a6914611645578063863ab9c8146115fd5780638c93ca7c146114285780638da5cb5b146113ff57806391d14854146113b2578063993d3450146113ad578063a033fcd414611341578063a1ce92041461130a578063a217fddf146112ee578063a711e6a1146112c1578063ad3b1b4714611171578063b1a23fb414611153578063b1eb4835146110f7578063b2098fa21461102b578063b7f23d1914610633578063b83d81571461100d578063bba2e14014610fe4578063bc99f48714610cfd578063bd1e31aa14610b53578063bd368d4814610b32578063d547741f14610aeb578063d6f969e214610a9b578063e1aeb09214610a34578063e38192e314610889578063e71e76c1146107b5578063e7c75b7914610774578063f2fd23de14610718578063f2fde38b1461068f578063f836c8f214610638578063f86325ed14610633578063fb28ceb21461060e5763fb99d5f41461030b57600080fd5b34610609576020366003190112610609576103246128ae565b61032c61309c565b60018060a01b03168060005260086020526040600020600381019061035460ff835416612e45565b6002810154607881018091116104b35742106105c45760008381526008602052604081206004018054829190825b8181106104d2575050811590506104c95761039c916129af565b80670de0b6b3a76400000290670de0b6b3a76400008204036104b3576127109004670de0b6b3a7640000019081670de0b6b3a7640000116104b3577f928602a1348c2d5cc6354f7e6953a38bfaf42426cd5d8c83dc7c42b972cfcdb0926104326001928487604096916729a2241af62c00008111610469575b505067016345785d8a0000811115610457579384915b01546129cf565b9085600052600360205281846000205560ff19815416905582519182526020820152a2005b5067016345785d8a000093849161042b565b7ffbb0338b3040d7b9bd8495de3d07128625b3ead1c3464340ed2e760a015d7447919250879081519081526729a2241af62c00006020820152a26729a2241af62c00008738610415565b634e487b7160e01b600052601160045260246000fd5b5050600061039c565b806104e0575b600101610382565b6104ea818461294a565b905460001983019160031b1c8282116104b357610507828661294a565b90549060031b1c1061051a575b506104d8565b61052882859793969761294a565b90549060031b1c9061054d600092610540838861294a565b90549060031b1c90612bf3565b9161271083029280840461271014901517156105b057926105896105a39361057c61059d94600197508961294a565b90549060031b1c906129af565b6127108111156105aa575061271090612e38565b95612c3c565b9390610514565b90612e38565b634e487b7160e01b81526011600452602490fd5b60405162461bcd60e51b815260206004820152601d60248201527f446973636f7665727920706572696f64206e6f7420636f6d706c6574650000006044820152606490fd5b600080fd5b34610609576020366003190112610609576106276128ae565b50602060405160008152f35b61298c565b346106095760203660031901126106095760606106536128ae565b60018060a01b038116600052600b60205260406000209061067a6001835493015491612ec2565b90604051928352602083015215156040820152f35b34610609576020366003190112610609576106a86128ae565b6106b061309c565b6001600160a01b0316801561070257600080546001600160a01b03198116831782556001600160a01b0316907f8be0079c531659141344cd1fd0a4f28419497f9722a3daafe3b4186f6b6457e09080a3005b631e4fbdf760e01b600052600060045260246000fd5b34610609576020366003190112610609576001600160a01b036107396128ae565b166000526007602052608060406000208054906001810154906003600282015491015491604051938452602084015260408301526060820152f35b34610609576020366003190112610609576020600435678ac7230489e8000081101590816107a8575b506040519015158152f35b905060105410158261079d565b34610609576040366003190112610609576107ce6128ae565b33600090815260008051602061385e833981519152602052604090205460243591906107fc9060ff16612fa1565b60018060a01b03169081600052600b60205260406000209042825560028201918254906201518082018092116104b3577f339a588d56f667ba0a8358be57070b2b0c9f5159d43eba838ef1da89159b985a93604093600193421061087257838301554290555b01548151908152426020820152a2005b9050610882838301918254612e38565b9055610862565b346106095761089736612962565b916108a061309c565b60018060a01b03169182600052600260205281604060002054106109ef5782600052600360205280604060002054106109aa577f96cd817c6329656790ef8fba7675405193677d39619571282f5e21f3a98cd05991604091846000526002602052610922678ac7230489e8000061091b848660002054612bf3565b1015613050565b846000526003602052610945678ac7230489e8000061091b838660002054612bf3565b8460005260026020528260002061095d838254612bf3565b905584600052600360205282600020610977828254612bf3565b9055610984823387613471565b60055461099d90829033906001600160a01b0316613471565b82519182526020820152a2005b60405162461bcd60e51b815260206004820152601c60248201527f496e73756666696369656e7420434f52414c206c6971756964697479000000006044820152606490fd5b60405162461bcd60e51b815260206004820152601e60248201527f496e73756666696369656e742063726561746f72206c697175696469747900006044820152606490fd5b34610609576020366003190112610609576001600160a01b03610a556128ae565b166000908152600860209081526040918290208054600182015460028301546003909301548551928352938201529283015260ff161515606082015280608081015b0390f35b3461060957600036600319011261060957600d54600e54600f5490916001600160a01b031690610e108101908181116104b357608093604051938452602084015260408301524210156060820152f35b3461060957604036600319011261060957610b30600435610b0a6128c4565b90610b2b610b2682600052600160205260016040600020015490565b6130c5565b6133eb565b005b3461060957600036600319011261060957610b4b61309c565b610b30613636565b3461060957604036600319011261060957610b6c6128ae565b610b746128c4565b90610b7d61309c565b60018060a01b031680600052600460205260406000205491610bd8604051610ba6604082612bd1565b601d81527f4e6f206665657320617661696c61626c6520746f2072656465706c6f790000006020820152841515612fed565b610c24604051610be9604082612bd1565b601b81527f42656c6f77206d696e696d756d20666565207468726573686f6c6400000000006020820152674563918244f40000851015612fed565b8160005260046020526040600020610c3d848254612bf3565b90556040516370a0823160e01b8152306004820152602081602481865afa8015610cf1578491600091610cba575b5091610c9c6020927fa2e59056a8017237dd27a52d5981fb4983f1a43828d018d9ba6e76c801fe9059941015612f55565b610ca7858286613471565b6040519485526001600160a01b031693a3005b9150506020813d602011610ce9575b81610cd660209383612bd1565b8101031261060957518390610c9c610c6b565b3d9150610cc9565b6040513d6000823e3d90fd5b3461060957602036600319011261060957610d166128ae565b33600090815260008051602061385e8339815191526020526040902054610d3f9060ff16612fa1565b6001600160a01b0316610d53811515612f11565b80600052600460205260406000205490610da6604051610d74604082612bd1565b601d81527f4e6f206665657320617661696c61626c6520746f2072656465706c6f790000006020820152831515612fed565b610df2604051610db7604082612bd1565b601b81527f42656c6f77206d696e696d756d20666565207468726573686f6c6400000000006020820152674563918244f40000841015612fed565b610dfa6134f5565b6001600160a01b038116928315610fa657610e15818361356d565b908115610f6a578111610f19576040516370a0823160e01b8152306004820152602081602481875afa908115610cf157600091610ee3575b5090610ec0817f5b1142ecb7caa10961adcac369fb4c5e7fa3629b1b53df070f2e8a2014c5177794610e8482610ede961015612f55565b8660005260046020526040600020610e9d838254612bf3565b90558760005260036020526040600020610eb8838254612e38565b905586613471565b60408051828152602081019290925242908201529081906060820190565b0390a3005b9190506020823d602011610f11575b81610eff60209383612bd1565b81010312610609579051610ec0610e4d565b3d9150610ef2565b60405162461bcd60e51b8152602060048201526024808201527f4465706c6f7920616d6f756e74206578636565647320617661696c61626c65206044820152636665657360e01b6064820152608490fd5b60405162461bcd60e51b8152602060048201526014602482015273139bc819195c1b1bde5b595b9d081b995959195960621b6044820152606490fd5b60405162461bcd60e51b8152602060048201526016602482015275139bc81cdd5a5d18589b19481c1bdbdb08199bdd5b9960521b6044820152606490fd5b34610609576000366003190112610609576005546040516001600160a01b039091168152602090f35b34610609576000366003190112610609576020600654604051908152f35b34610609576000366003190112610609576040518060206009549283815201809260096000527f6e1540171b6c0c960b71a7020d9f60077f6af931a8bbf590da0223dacf75c7af9060005b8181106110d8575050508161108c910382612bd1565b6040519182916020830190602084525180915260408301919060005b8181106110b6575050500390f35b82516001600160a01b03168452859450602093840193909201916001016110a8565b82546001600160a01b0316845260209093019260019283019201611076565b34610609576020366003190112610609576001600160a01b036111186128ae565b166000908152600760209081526040918290208054600182015460039283015485519283529382015292830182905211156060820152608090f35b34610609576000366003190112610609576020601054604051908152f35b346106095760403660031901126106095761118a6128ae565b6024359061119661309c565b6001600160a01b0316906111ab821515612f11565b6111b6811515612d58565b81600052600460205280604060002054106112885781600052600460205260406000206111e4828254612bf3565b90556040516370a0823160e01b8152306004820152602081602481865afa908115610cf157600091611256575b50816112427fc0819c13be868895eb93e40eaceb96de976442fa1d404e5c55f14bb65a8c489a936020931015612f55565b61124d813386613471565b604051908152a2005b90506020813d602011611280575b8161127160209383612bd1565b81010312610609575181611211565b3d9150611264565b60405162461bcd60e51b8152602060048201526011602482015270496e73756666696369656e74206665657360781b6044820152606490fd5b346106095760203660031901126106095760206112e46112df6128ae565b612ec2565b6040519015158152f35b3461060957600036600319011261060957602060405160008152f35b3461060957600036600319011261060957606060018060a01b03600d5416600e54600f549060405192835260208301526040820152f35b346106095760403660031901126106095761135a6128ae565b7f9dc46f23cfb5ddcad0ae7ea2be38d47fec07bb9382ec7e564efc69e036dd66ce60206024359260018060a01b031692836000526004825260406000206113a2828254612e38565b9055604051908152a2005b6128f6565b34610609576040366003190112610609576113cb6128c4565b600435600052600160205260406000209060018060a01b0316600052602052602060ff604060002054166040519015158152f35b34610609576000366003190112610609576000546040516001600160a01b039091168152602090f35b34610609576040366003190112610609576114416128ae565b6024359061144d61309c565b6001600160a01b031660008181526008602052604090206003015490919060ff166115c1576020906040516114828382612bd1565b60008152600036813760405160a081019080821067ffffffffffffffff8311176115ab5760049160405283815284810184815260408201428152606083019160018352608084019586528860005260088852604060002093518455516001840155516002830155600382019051151560ff801983541691161790550190519081519167ffffffffffffffff83116115ab57600160401b83116115ab5784908254848455808510611580575b5001906000528360002060005b83811061156e57867f9d3136590a24e6eb0d058d4d9b8c4d5be27926b0abfeca301a4d5fc0aaab775d8787604051908152a2005b8251828201559185019160010161153a565b83600052848360002091820191015b81811061159c575061152d565b6000815587935060010161158f565b634e487b7160e01b600052604160045260246000fd5b60405162461bcd60e51b8152602060048201526014602482015273416c726561647920696e20646973636f7665727960601b6044820152606490fd5b3461060957602036600319011261060957610b306116196128ae565b61162161309c565b6116356001600160a01b0382161515612e84565b611640610b26612c00565b613102565b34610609576020366003190112610609576001600160a01b036116666128ae565b1660005260036020526020604060002054604051908152f35b34610609576020366003190112610609576116986128ae565b6116a061309c565b6001600160a01b03811690811561172957600c546116d491906001600160a01b03168061170e575b50611640610b26612c00565b50600c80546001600160a01b031916821790557ff4f735542e91d7c018c02855a6a19fbbcf7f4d7fb006982ebcbb5753408a638b600080a2005b6117229061171d610b26612c00565b613355565b50836116c8565b60405162461bcd60e51b8152602060048201526013602482015272496e76616c696420444558206164647265737360681b6044820152606490fd5b34610609576020366003190112610609576001600160a01b036117856128ae565b16600052600a602052602060ff604060002054166040519015158152f35b34610609576000366003190112610609576117bc61309c565b600080546001600160a01b0319811682556001600160a01b03167f8be0079c531659141344cd1fd0a4f28419497f9722a3daafe3b4186f6b6457e08280a3005b346106095760203660031901126106095760043561181861309c565b678ac7230489e8000081106118d3577f5555555555555555555555555555555555555555555555555555555555555555811161189f577f9d1c8f51bfa9236921a779a0d8059d62d17a5e5fa3520a82ece79d16bce1ef2c90601054908060105561189a6040519283924291846040919493926060820195825260208201520152565b0390a1005b60405162461bcd60e51b815260206004820152600c60248201526b09ac2f040e8dede40d0d2ced60a31b6044820152606490fd5b606460405162461bcd60e51b815260206004820152602060248201527f4e6577206d6178206d757374206265203e3d206d696e206c69717569646974796044820152fd5b34610609576020366003190112610609576001600160a01b036119386128ae565b1660005260026020526020604060002054604051908152f35b3461060957600036600319011261060957602060405160148152f35b3461060957600036600319011261060957600c546040516001600160a01b039091168152602090f35b34610609576020366003190112610609576119af6128ae565b6119b761309c565b6001600160a01b0381166119cc811515612e84565b600c546001600160a01b0316146119ec57610b309061171d610b26612c00565b60405162461bcd60e51b815260206004820152601e60248201527f43616e6e6f74207265766f6b652066726f6d207072696d6172792044455800006044820152606490fd5b34610609576000366003190112610609576040601054815190678ac7230489e8000082526020820152f35b6128da565b3461060957600036600319011261060957602060405160038152f35b3461060957611a8b36612962565b9080151580611ded575b15611da8576001600160a01b038316928315611d6b578360005260026020526040600020541580611d55575b15611cba575b836000526002602052611adf82604060002054612e38565b601054809111159081611c98575b5015611c4857611aff823033876134b1565b611b1583303360018060a01b03600554166134b1565b8360005260026020526040600020611b2e838254612e38565b90558360005260036020526040600020611b49848254612e38565b905583600052600a60205260ff6040600020541615611b96575b506040907fac1d76749e5447b7b16f5ab61447e1bd502f3bb4807af3b28e620d1700a6ee459282519182526020820152a2005b9060095492600160401b8410156115ab57611c02604093611bde8660017fac1d76749e5447b7b16f5ab61447e1bd502f3bb4807af3b28e620d1700a6ee459801600955612919565b81546001600160a01b0393841660039290921b91821b9390911b1916919091179055565b84600052600a60205282600020600160ff19825416179055847f402f8a396b78c225022a54972367fd98a174c970fbf537400bb383a0690ebd78600080a2925090611b63565b60405162461bcd60e51b815260206004820152602260248201527f45786365656473206d6178696d756d206c69717569646974792070657220706f6044820152611bdb60f21b6064820152608490fd5b9050846000526003602052611cb284604060002054612e38565b111585611aed565b836000526002602052678ac7230489e80000611cdb83604060002054612e38565b101580611d2c575b611ac75760405162461bcd60e51b815260206004820152601760248201527f42656c6f77206d696e696d756d206c69717569646974790000000000000000006044820152606490fd5b50836000526003602052678ac7230489e80000611d4e84604060002054612e38565b1015611ce3565b5083600052600360205260406000205415611ac1565b60405162461bcd60e51b815260206004820152601560248201527424b73b30b634b21031b932b0ba37b9103a37b5b2b760591b6044820152606490fd5b60405162461bcd60e51b815260206004820152601960248201527f496e76616c6964206c697175696469747920616d6f756e7473000000000000006044820152606490fd5b50811515611a95565b3461060957604036600319011261060957611e0f6128ae565b60243590611e1b61309c565b60018060a01b031690816000526008602052604060002090611e4360ff600384015416612e45565b600482019081549260068410156120c057600160401b8410156115ab57604082869360017f469b6894b4b45f49c7c10aa3e70e1fae20f0eba89b628e3d69af9d7a34ef8bcf94611e9a898360069b018a558961294a565b81549060031b9085821b91600019901b191617905501558151908152426020820152a25414611ec557005b611ecd61309c565b80600052600860205260406000206003810190611eed60ff835416612e45565b6002810154607881018091116104b35742106105c45760008381526008602052604081206004018054829190825b81811061201c5750508115905061201357611f35916129af565b80670de0b6b3a76400000290670de0b6b3a76400008204036104b3576127109004670de0b6b3a7640000019081670de0b6b3a7640000116104b3577f928602a1348c2d5cc6354f7e6953a38bfaf42426cd5d8c83dc7c42b972cfcdb0926104326001928487604096916729a2241af62c00008111611fc957505067016345785d8a00008111156104575793849101546129cf565b7ffbb0338b3040d7b9bd8495de3d07128625b3ead1c3464340ed2e760a015d7447919250879081519081526729a2241af62c00006020820152a26729a2241af62c00008789610415565b50506000611f35565b8061202a575b600101611f1b565b612034818461294a565b905460001983019160031b1c8282116104b357612051828661294a565b90549060031b1c10612064575b50612022565b61207282859793969761294a565b90549060031b1c9061208a600092610540838861294a565b9161271083029280840461271014901517156105b057926105896120b99361057c61059d94600197508961294a565b939061205e565b60405162461bcd60e51b815260206004820152601560248201527413585e081cdb985c1cda1bdd1cc81c995858da1959605a1b6044820152606490fd5b3461060957600036600319011261060957602060405162093a808152f35b34610609576020366003190112610609576121346128ae565b600654607881018091116104b3574210612170576001600160a01b03811660009081526007602052604090205461216a91613229565b42600655005b60405162461bcd60e51b815260206004820152601760248201527f546f6f206561726c7920666f7220726562616c616e63650000000000000000006044820152606490fd5b346106095760203660031901126106095760406121d86121d36128ae565b612da3565b82519182526020820152f35b346106095760203660031901126106095760043561220061309c565b61220b811515612d58565b600c546001600160a01b03168015612320576005546040516370a0823160e01b81523060048201526001600160a01b0390911690602081602481855afa8015610cf15784916000916122eb575b50106122a657612269918391613471565b7f5743c23aa18e9c7c385e45094156d20b8a0436ddc5e68943713e62ce630951a1604060018060a01b03600c5416928151908152426020820152a2005b60405162461bcd60e51b815260206004820152601a60248201527f496e73756666696369656e7420434f52414c2062616c616e63650000000000006044820152606490fd5b9150506020813d602011612318575b8161230760209383612bd1565b810103126106095783905185612258565b3d91506122fa565b60405162461bcd60e51b8152602060048201526016602482015275111156081859191c995cdcc81a5cc81b9bdd081cd95d60521b6044820152606490fd5b34610609576040366003190112610609576123776128c4565b336001600160a01b0382160361239357610b30906004356133eb565b63334bd91960e11b60005260046000fd5b3461060957604036600319011261060957610b306123c06128ae565b6123c861309c565b60243590612c4b565b3461060957600036600319011261060957602060405160068152f35b346106095760003660031901126106095760206040516103e88152f35b3461060957604036600319011261060957610b306004356124296128c4565b90612445610b2682600052600160205260016040600020015490565b61319a565b3461060957600036600319011261060957602060405160008051602061383e8339815191528152f35b34610609576000366003190112610609576020604051610e108152f35b346106095760203660031901126106095760206124bd600435600052600160205260016040600020015490565b604051908152f35b3461060957602036600319011261060957600435600954811015610609576124ee602091612919565b905460405160039290921b1c6001600160a01b03168152f35b34610609576020366003190112610609576125206128ae565b61252861309c565b6001600160a01b03166000818152600a602052604090205460ff161561264d5760005b6009549081811015612646578261256182612919565b905460039190911b1c6001600160a01b03161461258257600191500161254b565b60001982019182116104b357818103612618575b5050600954801561260257600019016125ae81612919565b81549060018060a01b039060031b1b191690556009555b80600052600a602052604060002060ff1981541690557ffe00c1e8cd2c81e2fc9fbcfbd6eef9904d0b41515821320d5c45abe6e8baae55600080a2005b634e487b7160e01b600052603160045260246000fd5b611bde61262761263f93612919565b905460039190911b1c6001600160a01b031691612919565b8180612596565b50506125c5565b60405162461bcd60e51b815260206004820152601060248201526f141bdbdb081b9bdd081d1c9858dad95960821b6044820152606490fd5b34610609576020366003190112610609576001600160a01b036126a66128ae565b1660005260046020526020604060002054604051908152f35b34610609576020366003190112610609576126d86128ae565b60408051630fa6707960e21b81526001600160a01b03909216600483015281602481305afa8015610cf157600090819061275b575b60209250678ac7230489e80000821015918261274e575b508161273b575b816107a857506040519015158152f35b678ac7230489e80000811015915061272b565b6010541015915083612724565b50906040813d604011612791575b8161277660409383612bd1565b8101031261278d576020809250815191015161270d565b5080fd5b3d9150612769565b34610609576000366003190112610609576020604051674563918244f400008152f35b3461060957600036600319011261060957602060405167016345785d8a00008152f35b346106095760403660031901126106095760206124bd6024356004356129cf565b34610609576020366003190112610609576001600160a01b036128216128ae565b16600052600b60205260406000208054610a9760026001840154930154604051938493846040919493926060820195825260208201520152565b34610609576020366003190112610609576004359063ffffffff60e01b821680920361060957602091637965db0b60e01b811490811561289d575b5015158152f35b6301ffc9a760e01b14905083612896565b600435906001600160a01b038216820361060957565b602435906001600160a01b038216820361060957565b3461060957600036600319011261060957602060405160788152f35b34610609576000366003190112610609576020604051678ac7230489e800008152f35b60095481101561293457600960005260206000200190600090565b634e487b7160e01b600052603260045260246000fd5b80548210156129345760005260206000200190600090565b6060906003190112610609576004356001600160a01b038116810361060957906024359060443590565b34610609576000366003190112610609576020604051670de0b6b3a76400008152f35b81156129b9570490565b634e487b7160e01b600052601260045260246000fd5b908115612b705767016345785d8a00008110612b35576729a2241af62c00008111612afa5780156129b95780600019048211612ab557808202918204036104b357678ac7230489e800008110612a70576010548111612a2b5790565b60405162461bcd60e51b815260206004820152601760248201527f4c69717569646974792061626f7665206d6178696d756d0000000000000000006044820152606490fd5b60405162461bcd60e51b815260206004820152601760248201527f4c69717569646974792062656c6f77206d696e696d756d0000000000000000006044820152606490fd5b60405162461bcd60e51b815260206004820152601760248201527f4d756c7469706c69636174696f6e206f766572666c6f770000000000000000006044820152606490fd5b60405162461bcd60e51b815260206004820152601360248201527250726963652061626f7665206d6178696d756d60681b6044820152606490fd5b60405162461bcd60e51b815260206004820152601360248201527250726963652062656c6f77206d696e696d756d60681b6044820152606490fd5b60405162461bcd60e51b815260206004820152601860248201527f496e76616c6964207375627363726962657220636f756e7400000000000000006044820152606490fd5b6060810190811067ffffffffffffffff8211176115ab57604052565b90601f8019910116810190811067ffffffffffffffff8211176115ab57604052565b919082039182116104b357565b60008051602061383e83398151915260005260016020527f7ada6dbb520616cff5d6f574aff5a85f6d0dabe1f7d96c08fe8e54d79bfca6e15490565b60001981146104b35760010190565b6001600160a01b038116600081815260076020526040902080549293919215612d4457600181019283546050810290808204605014901517156104b3576014840292848404601414851517156104b357612caf600394926064808795049104612e38565b8096868355554260028201550190612cc78254612c3c565b8092557fca21c0666034043e35144e1a6964b4519a124330e0122463475f81a0c189d11960405180612d0c428989846040919493926060820195825260208201520152565b0390a21015612d1a57505050565b606e8202828104606e14831517156104b3576064900410612d39575050565b612d4291613229565b565b906001935060039250808255838201550155565b15612d5f57565b606460405162461bcd60e51b815260206004820152602060248201527f416d6f756e74206d7573742062652067726561746572207468616e207a65726f6044820152fd5b6001600160a01b0316908115612df35781600052600a60205260ff6040600020541615612deb5781600052600260205260406000205491600052600360205260406000205490565b600091508190565b60405162461bcd60e51b815260206004820152601d60248201527f496e76616c69642063726561746f7220746f6b656e20616464726573730000006044820152606490fd5b919082018092116104b357565b15612e4c57565b60405162461bcd60e51b815260206004820152601060248201526f4e6f7420696e20646973636f7665727960801b6044820152606490fd5b15612e8b57565b60405162461bcd60e51b815260206004820152600f60248201526e496e76616c6964206164647265737360881b6044820152606490fd5b60018060a01b0316600052600b6020526040600020600181549101549062093a7f194201904282116104b35710612f0b57678ac7230489e8000011612f0657600190565b600090565b50600090565b15612f1857565b60405162461bcd60e51b8152602060048201526015602482015274496e76616c696420746f6b656e206164647265737360581b6044820152606490fd5b15612f5c57565b60405162461bcd60e51b815260206004820152601a60248201527f496e73756666696369656e7420746f6b656e2062616c616e63650000000000006044820152606490fd5b15612fa857565b60405162461bcd60e51b815260206004820152601d60248201527f43616c6c657220646f6573206e6f7420686176652044455820726f6c650000006044820152606490fd5b15612ff55750565b6040519062461bcd60e51b8252602060048301528181519182602483015260005b8381106130385750508160006044809484010152601f80199101168101030190fd5b60208282018101516044878401015285935001613016565b1561305757565b60405162461bcd60e51b815260206004820152601b60248201527f43616e6e6f742072656d6f766520616c6c206c697175696469747900000000006044820152606490fd5b6000546001600160a01b031633036130b057565b63118cdaa760e01b6000523360045260246000fd5b600081815260016020908152604080832033845290915290205460ff16156130ea5750565b63e2517d3f60e01b6000523360045260245260446000fd5b6001600160a01b038116600090815260008051602061385e833981519152602052604090205460ff16612f0b576001600160a01b0316600081815260008051602061385e83398151915260205260408120805460ff1916600117905533919060008051602061383e833981519152907f2f8788117e7eff1d82e926ec794901d17c78024a50270940304540a733656f0d9080a4600190565b60008181526001602090815260408083206001600160a01b038616845290915290205460ff166132225760008181526001602081815260408084206001600160a01b0396909616808552959091528220805460ff19169091179055339291907f2f8788117e7eff1d82e926ec794901d17c78024a50270940304540a733656f0d9080a4600190565b5050600090565b60018060a01b031690816000526003602052678ac7230489e80000604060002054106132ec57670de0b6b3a7640000810290808204670de0b6b3a764000014901517156104b3576010547f8eb665708d1cbfa2df196d5f041bc00ac33e9c6e0b42b64233aed0c7c84da7e1916020918082116132b9575b50836000526003825280604060002055604051908152a2565b9050837f52815f7ef39cfe1f42d5c23d10919cc9fbebd17d9edbc1132eee0079a50dc9458383604051908152a2386132a0565b508060005260036020527f43c29e41362bceae5b8f10cf00d57c5b525a270a7ff263f5c6b24158459b0bbe6080604060002054604051908152604060208201526016604082015275496e73756666696369656e74206c697175696469747960501b6060820152a2565b6001600160a01b038116600090815260008051602061385e833981519152602052604090205460ff1615612f0b576001600160a01b0316600081815260008051602061385e83398151915260205260408120805460ff1916905533919060008051602061383e833981519152907ff6391f5c32d9c69d2a47ea670b442974b53935d1edc7fd64eb21e047a839171b9080a4600190565b60008181526001602090815260408083206001600160a01b038616845290915290205460ff16156132225760008181526001602090815260408083206001600160a01b0395909516808452949091528120805460ff19169055339291907ff6391f5c32d9c69d2a47ea670b442974b53935d1edc7fd64eb21e047a839171b9080a4600190565b60405163a9059cbb60e01b60208201526001600160a01b039092166024830152604480830193909352918152612d42916134ac606483612bd1565b6137e2565b6040516323b872dd60e01b60208201526001600160a01b039283166024820152929091166044830152606480830193909352918152612d42916134ac608483612bd1565b600d546001600160a01b031680151580613556575b613527575b50613518613636565b600d546001600160a01b031690565b80600052600a60205260ff6040600020541680613547575b1561350f5790565b5061355181612ec2565b61353f565b50600f54610e1081018091116104b357421061350a565b6001600160a01b0316801561322257670de0b6b3a764000082106132225780600052600360205260406000205490600052600b602052678ac7230489e800006040600020916040516135be81612bb5565b83548152604060026001860154958660208501520154910152106000146136025750805b670de0b6b3a7640000811061322257818111156135fd575090565b905090565b6801158e460913d00000101561362d57604b8102818104604b14821517156104b357606490046135e2565b8060011c6135e2565b600d80546001600160a01b03191690556000600e5560095480156137df5762093a7f194201904282116104b35760005b8181106136b35750505042600f5560018060a01b03600d54167f02bc000d157093a2097e6514a43c3baea9e0cfbe6ee606d000e64892a9ec425d6040600e548151908152426020820152a2565b6136bc81612919565b60018060a01b0391549060031b1c169081600052600b6020526040600020604051906136e782612bb5565b805482526002600182015491602084019283520154604083015283600052600a6020528560ff60406000205416159283156137d4575b505081156137c1575b506137b8578160005260036020526040600020549180600052600b6020526001604060002001546007840293808504600714901517156104b3576003810290808204600314901517156104b357613781600a91600195612e38565b0490600e548211613796575b50505b01613666565b6bffffffffffffffffffffffff60a01b600d541617600d55600e55388061378d565b60019150613790565b678ac7230489e800009150511038613726565b51109150853861371d565b50565b906000602091828151910182855af115610cf1576000513d61383457506001600160a01b0381163b155b6138135750565b635274afe760e01b60009081526001600160a01b0391909116600452602490fd5b6001141561380c56fe3d962df346299889e3ddd098bdd68cf335a1e370339bd306448317d39b39a66d7ada6dbb520616cff5d6f574aff5a85f6d0dabe1f7d96c08fe8e54d79bfca6e0a2646970667358221220c1dc27162e29780ddbf6f23267c2aad1d72c63bc90f97907b1576f2f37e6d4ed64736f6c634300081c0033a6eef7e35abe7026729641147f7915573c7e97b47efa546f5f6e3230263bcb49","opcodes":"PUSH1 0x80 CALLVALUE PUSH2 0xED JUMPI PUSH1 0x1F PUSH2 0x3A6A CODESIZE DUP2 SWAP1 SUB SWAP2 DUP3 ADD PUSH1 0x1F NOT AND DUP4 ADD SWAP2 PUSH1 0x1 PUSH1 0x1 PUSH1 0x40 SHL SUB DUP4 GT DUP5 DUP5 LT OR PUSH2 0xF2 JUMPI DUP1 DUP5 SWAP3 PUSH1 0x20 SWAP5 PUSH1 0x40 MSTORE DUP4 CODECOPY DUP2 ADD SUB SLT PUSH2 0xED JUMPI MLOAD PUSH1 0x1 PUSH1 0x1 PUSH1 0xA0 SHL SUB DUP2 AND SWAP1 DUP2 SWAP1 SUB PUSH2 0xED JUMPI CALLER ISZERO PUSH2 0xD7 JUMPI PUSH1 0x0 DUP1 SLOAD CALLER PUSH1 0x1 PUSH1 0x1 PUSH1 0xA0 SHL SUB NOT DUP3 AND DUP2 OR DUP4 SSTORE SWAP2 PUSH1 0x1 PUSH1 0x1 PUSH1 0xA0 SHL SUB SWAP1 SWAP2 AND SWAP1 PUSH32 0x8BE0079C531659141344CD1FD0A4F28419497F9722A3DAAFE3B4186F6B6457E0 SWAP1 DUP1 LOG3 PUSH10 0x21E19E0C9BAB2400000 PUSH1 0x10 SSTORE PUSH1 0x5 DUP1 SLOAD PUSH1 0x1 PUSH1 0x1 PUSH1 0xA0 SHL SUB NOT AND SWAP2 SWAP1 SWAP2 OR SWAP1 SSTORE PUSH2 0xC7 CALLER PUSH2 0x108 JUMP JUMPDEST POP PUSH1 0x40 MLOAD PUSH2 0x38B3 SWAP1 DUP2 PUSH2 0x197 DUP3 CODECOPY RETURN JUMPDEST PUSH4 0x1E4FBDF7 PUSH1 0xE0 SHL PUSH1 0x0 MSTORE PUSH1 0x0 PUSH1 0x4 MSTORE PUSH1 0x24 PUSH1 0x0 REVERT JUMPDEST PUSH1 0x0 DUP1 REVERT JUMPDEST PUSH4 0x4E487B71 PUSH1 0xE0 SHL PUSH1 0x0 MSTORE PUSH1 0x41 PUSH1 0x4 MSTORE PUSH1 0x24 PUSH1 0x0 REVERT JUMPDEST PUSH1 0x1 PUSH1 0x1 PUSH1 0xA0 SHL SUB DUP2 AND PUSH1 0x0 SWAP1 DUP2 MSTORE PUSH1 0x0 DUP1 MLOAD PUSH1 0x20 PUSH2 0x3A4A DUP4 CODECOPY DUP2 MLOAD SWAP2 MSTORE PUSH1 0x20 MSTORE PUSH1 0x40 SWAP1 KECCAK256 SLOAD PUSH1 0xFF AND PUSH2 0x190 JUMPI PUSH1 0x1 PUSH1 0x1 PUSH1 0xA0 SHL SUB AND PUSH1 0x0 DUP2 DUP2 MSTORE PUSH1 0x0 DUP1 MLOAD PUSH1 0x20 PUSH2 0x3A4A DUP4 CODECOPY DUP2 MLOAD SWAP2 MSTORE PUSH1 0x20 MSTORE PUSH1 0x40 DUP2 KECCAK256 DUP1 SLOAD PUSH1 0xFF NOT AND PUSH1 0x1 OR SWAP1 SSTORE CALLER SWAP2 SWAP1 PUSH32 0x2F8788117E7EFF1D82E926EC794901D17C78024A50270940304540A733656F0D DUP2 DUP1 LOG4 PUSH1 0x1 SWAP1 JUMP JUMPDEST POP PUSH1 0x0 SWAP1 JUMP INVALID PUSH1 0x80 DUP1 PUSH1 0x40 MSTORE PUSH1 0x4 CALLDATASIZE LT ISZERO PUSH2 0x13 JUMPI PUSH1 0x0 DUP1 REVERT JUMPDEST PUSH1 0x0 CALLDATALOAD PUSH1 0xE0 SHR SWAP1 DUP2 PUSH4 0x1FFC9A7 EQ PUSH2 0x285B JUMPI POP DUP1 PUSH4 0x51E0E67 EQ PUSH2 0x2800 JUMPI DUP1 PUSH4 0x14F302AC EQ PUSH2 0x27DF JUMPI DUP1 PUSH4 0x17359688 EQ PUSH2 0x1A5C JUMPI DUP1 PUSH4 0x1879DCF3 EQ PUSH2 0x27BC JUMPI DUP1 PUSH4 0x1B5A799A EQ PUSH2 0x2799 JUMPI DUP1 PUSH4 0x1CCF71EB EQ PUSH2 0x26BF JUMPI DUP1 PUSH4 0x1CEAD9A7 EQ PUSH2 0x2685 JUMPI DUP1 PUSH4 0x21B77D63 EQ PUSH2 0x13AD JUMPI DUP1 PUSH4 0x2253FC3C EQ PUSH2 0x2507 JUMPI DUP1 PUSH4 0x23BFA792 EQ PUSH2 0x24C5 JUMPI DUP1 PUSH4 0x248A9CA3 EQ PUSH2 0x2490 JUMPI DUP1 PUSH4 0x2D957A8C EQ PUSH2 0x2473 JUMPI DUP1 PUSH4 0x2EF97265 EQ PUSH2 0x244A JUMPI DUP1 PUSH4 0x2F2FF15D EQ PUSH2 0x240A JUMPI DUP1 PUSH4 0x30AE7805 EQ PUSH2 0x23ED JUMPI DUP1 PUSH4 0x31AD24F8 EQ PUSH2 0x23D1 JUMPI DUP1 PUSH4 0x3417C3D0 EQ PUSH2 0x23A4 JUMPI DUP1 PUSH4 0x36568ABE EQ PUSH2 0x235E JUMPI DUP1 PUSH4 0x3C231EFD EQ PUSH2 0x21E4 JUMPI DUP1 PUSH4 0x3E99C1E4 EQ PUSH2 0x21B5 JUMPI DUP1 PUSH4 0x3EC43350 EQ PUSH2 0x211B JUMPI DUP1 PUSH4 0x414F99AE EQ PUSH2 0x20FD JUMPI DUP1 PUSH4 0x4E358AF2 EQ PUSH2 0x1DF6 JUMPI DUP1 PUSH4 0x55776B77 EQ PUSH2 0x1A7D JUMPI DUP1 PUSH4 0x5889486E EQ PUSH2 0x1A61 JUMPI DUP1 PUSH4 0x5C2DA7CD EQ PUSH2 0x1A5C JUMPI DUP1 PUSH4 0x65F92978 EQ PUSH2 0x1A31 JUMPI DUP1 PUSH4 0x68D693C3 EQ PUSH2 0x1996 JUMPI DUP1 PUSH4 0x692058C2 EQ PUSH2 0x196D JUMPI DUP1 PUSH4 0x6D2BEEF1 EQ PUSH2 0x1951 JUMPI DUP1 PUSH4 0x708B9935 EQ PUSH2 0x1917 JUMPI DUP1 PUSH4 0x71081C8E EQ PUSH2 0x17FC JUMPI DUP1 PUSH4 0x715018A6 EQ PUSH2 0x17A3 JUMPI DUP1 PUSH4 0x74A92C66 EQ PUSH2 0x1764 JUMPI DUP1 PUSH4 0x7B66A723 EQ PUSH2 0x167F JUMPI DUP1 PUSH4 0x84F74A69 EQ PUSH2 0x1645 JUMPI DUP1 PUSH4 0x863AB9C8 EQ PUSH2 0x15FD JUMPI DUP1 PUSH4 0x8C93CA7C EQ PUSH2 0x1428 JUMPI DUP1 PUSH4 0x8DA5CB5B EQ PUSH2 0x13FF JUMPI DUP1 PUSH4 0x91D14854 EQ PUSH2 0x13B2 JUMPI DUP1 PUSH4 0x993D3450 EQ PUSH2 0x13AD JUMPI DUP1 PUSH4 0xA033FCD4 EQ PUSH2 0x1341 JUMPI DUP1 PUSH4 0xA1CE9204 EQ PUSH2 0x130A JUMPI DUP1 PUSH4 0xA217FDDF EQ PUSH2 0x12EE JUMPI DUP1 PUSH4 0xA711E6A1 EQ PUSH2 0x12C1 JUMPI DUP1 PUSH4 0xAD3B1B47 EQ PUSH2 0x1171 JUMPI DUP1 PUSH4 0xB1A23FB4 EQ PUSH2 0x1153 JUMPI DUP1 PUSH4 0xB1EB4835 EQ PUSH2 0x10F7 JUMPI DUP1 PUSH4 0xB2098FA2 EQ PUSH2 0x102B JUMPI DUP1 PUSH4 0xB7F23D19 EQ PUSH2 0x633 JUMPI DUP1 PUSH4 0xB83D8157 EQ PUSH2 0x100D JUMPI DUP1 PUSH4 0xBBA2E140 EQ PUSH2 0xFE4 JUMPI DUP1 PUSH4 0xBC99F487 EQ PUSH2 0xCFD JUMPI DUP1 PUSH4 0xBD1E31AA EQ PUSH2 0xB53 JUMPI DUP1 PUSH4 0xBD368D48 EQ PUSH2 0xB32 JUMPI DUP1 PUSH4 0xD547741F EQ PUSH2 0xAEB JUMPI DUP1 PUSH4 0xD6F969E2 EQ PUSH2 0xA9B JUMPI DUP1 PUSH4 0xE1AEB092 EQ PUSH2 0xA34 JUMPI DUP1 PUSH4 0xE38192E3 EQ PUSH2 0x889 JUMPI DUP1 PUSH4 0xE71E76C1 EQ PUSH2 0x7B5 JUMPI DUP1 PUSH4 0xE7C75B79 EQ PUSH2 0x774 JUMPI DUP1 PUSH4 0xF2FD23DE EQ PUSH2 0x718 JUMPI DUP1 PUSH4 0xF2FDE38B EQ PUSH2 0x68F JUMPI DUP1 PUSH4 0xF836C8F2 EQ PUSH2 0x638 JUMPI DUP1 PUSH4 0xF86325ED EQ PUSH2 0x633 JUMPI DUP1 PUSH4 0xFB28CEB2 EQ PUSH2 0x60E JUMPI PUSH4 0xFB99D5F4 EQ PUSH2 0x30B JUMPI PUSH1 0x0 DUP1 REVERT JUMPDEST CALLVALUE PUSH2 0x609 JUMPI PUSH1 0x20 CALLDATASIZE PUSH1 0x3 NOT ADD SLT PUSH2 0x609 JUMPI PUSH2 0x324 PUSH2 0x28AE JUMP JUMPDEST PUSH2 0x32C PUSH2 0x309C JUMP JUMPDEST PUSH1 0x1 DUP1 PUSH1 0xA0 SHL SUB AND DUP1 PUSH1 0x0 MSTORE PUSH1 0x8 PUSH1 0x20 MSTORE PUSH1 0x40 PUSH1 0x0 KECCAK256 PUSH1 0x3 DUP2 ADD SWAP1 PUSH2 0x354 PUSH1 0xFF DUP4 SLOAD AND PUSH2 0x2E45 JUMP JUMPDEST PUSH1 0x2 DUP2 ADD SLOAD PUSH1 0x78 DUP2 ADD DUP1 SWAP2 GT PUSH2 0x4B3 JUMPI TIMESTAMP LT PUSH2 0x5C4 JUMPI PUSH1 0x0 DUP4 DUP2 MSTORE PUSH1 0x8 PUSH1 0x20 MSTORE PUSH1 0x40 DUP2 KECCAK256 PUSH1 0x4 ADD DUP1 SLOAD DUP3 SWAP2 SWAP1 DUP3 JUMPDEST DUP2 DUP2 LT PUSH2 0x4D2 JUMPI POP POP DUP2 ISZERO SWAP1 POP PUSH2 0x4C9 JUMPI PUSH2 0x39C SWAP2 PUSH2 0x29AF JUMP JUMPDEST DUP1 PUSH8 0xDE0B6B3A7640000 MUL SWAP1 PUSH8 0xDE0B6B3A7640000 DUP3 DIV SUB PUSH2 0x4B3 JUMPI PUSH2 0x2710 SWAP1 DIV PUSH8 0xDE0B6B3A7640000 ADD SWAP1 DUP2 PUSH8 0xDE0B6B3A7640000 GT PUSH2 0x4B3 JUMPI PUSH32 0x928602A1348C2D5CC6354F7E6953A38BFAF42426CD5D8C83DC7C42B972CFCDB0 SWAP3 PUSH2 0x432 PUSH1 0x1 SWAP3 DUP5 DUP8 PUSH1 0x40 SWAP7 SWAP2 PUSH8 0x29A2241AF62C0000 DUP2 GT PUSH2 0x469 JUMPI JUMPDEST POP POP PUSH8 0x16345785D8A0000 DUP2 GT ISZERO PUSH2 0x457 JUMPI SWAP4 DUP5 SWAP2 JUMPDEST ADD SLOAD PUSH2 0x29CF JUMP JUMPDEST SWAP1 DUP6 PUSH1 0x0 MSTORE PUSH1 0x3 PUSH1 0x20 MSTORE DUP2 DUP5 PUSH1 0x0 KECCAK256 SSTORE PUSH1 0xFF NOT DUP2 SLOAD AND SWAP1 SSTORE DUP3 MLOAD SWAP2 DUP3 MSTORE PUSH1 0x20 DUP3 ADD MSTORE LOG2 STOP JUMPDEST POP PUSH8 0x16345785D8A0000 SWAP4 DUP5 SWAP2 PUSH2 0x42B JUMP JUMPDEST PUSH32 0xFBB0338B3040D7B9BD8495DE3D07128625B3EAD1C3464340ED2E760A015D7447 SWAP2 SWAP3 POP DUP8 SWAP1 DUP2 MLOAD SWAP1 DUP2 MSTORE PUSH8 0x29A2241AF62C0000 PUSH1 0x20 DUP3 ADD MSTORE LOG2 PUSH8 0x29A2241AF62C0000 DUP8 CODESIZE PUSH2 0x415 JUMP JUMPDEST PUSH4 0x4E487B71 PUSH1 0xE0 SHL PUSH1 0x0 MSTORE PUSH1 0x11 PUSH1 0x4 MSTORE PUSH1 0x24 PUSH1 0x0 REVERT JUMPDEST POP POP PUSH1 0x0 PUSH2 0x39C JUMP JUMPDEST DUP1 PUSH2 0x4E0 JUMPI JUMPDEST PUSH1 0x1 ADD PUSH2 0x382 JUMP JUMPDEST PUSH2 0x4EA DUP2 DUP5 PUSH2 0x294A JUMP JUMPDEST SWAP1 SLOAD PUSH1 0x0 NOT DUP4 ADD SWAP2 PUSH1 0x3 SHL SHR DUP3 DUP3 GT PUSH2 0x4B3 JUMPI PUSH2 0x507 DUP3 DUP7 PUSH2 0x294A JUMP JUMPDEST SWAP1 SLOAD SWAP1 PUSH1 0x3 SHL SHR LT PUSH2 0x51A JUMPI JUMPDEST POP PUSH2 0x4D8 JUMP JUMPDEST PUSH2 0x528 DUP3 DUP6 SWAP8 SWAP4 SWAP7 SWAP8 PUSH2 0x294A JUMP JUMPDEST SWAP1 SLOAD SWAP1 PUSH1 0x3 SHL SHR SWAP1 PUSH2 0x54D PUSH1 0x0 SWAP3 PUSH2 0x540 DUP4 DUP9 PUSH2 0x294A JUMP JUMPDEST SWAP1 SLOAD SWAP1 PUSH1 0x3 SHL SHR SWAP1 PUSH2 0x2BF3 JUMP JUMPDEST SWAP2 PUSH2 0x2710 DUP4 MUL SWAP3 DUP1 DUP5 DIV PUSH2 0x2710 EQ SWAP1 ISZERO OR ISZERO PUSH2 0x5B0 JUMPI SWAP3 PUSH2 0x589 PUSH2 0x5A3 SWAP4 PUSH2 0x57C PUSH2 0x59D SWAP5 PUSH1 0x1 SWAP8 POP DUP10 PUSH2 0x294A JUMP JUMPDEST SWAP1 SLOAD SWAP1 PUSH1 0x3 SHL SHR SWAP1 PUSH2 0x29AF JUMP JUMPDEST PUSH2 0x2710 DUP2 GT ISZERO PUSH2 0x5AA JUMPI POP PUSH2 0x2710 SWAP1 PUSH2 0x2E38 JUMP JUMPDEST SWAP6 PUSH2 0x2C3C JUMP JUMPDEST SWAP4 SWAP1 PUSH2 0x514 JUMP JUMPDEST SWAP1 PUSH2 0x2E38 JUMP JUMPDEST PUSH4 0x4E487B71 PUSH1 0xE0 SHL DUP2 MSTORE PUSH1 0x11 PUSH1 0x4 MSTORE PUSH1 0x24 SWAP1 REVERT JUMPDEST PUSH1 0x40 MLOAD PUSH3 0x461BCD PUSH1 0xE5 SHL DUP2 MSTORE PUSH1 0x20 PUSH1 0x4 DUP3 ADD MSTORE PUSH1 0x1D PUSH1 0x24 DUP3 ADD MSTORE PUSH32 0x446973636F7665727920706572696F64206E6F7420636F6D706C657465000000 PUSH1 0x44 DUP3 ADD MSTORE PUSH1 0x64 SWAP1 REVERT JUMPDEST PUSH1 0x0 DUP1 REVERT JUMPDEST CALLVALUE PUSH2 0x609 JUMPI PUSH1 0x20 CALLDATASIZE PUSH1 0x3 NOT ADD SLT PUSH2 0x609 JUMPI PUSH2 0x627 PUSH2 0x28AE JUMP JUMPDEST POP PUSH1 0x20 PUSH1 0x40 MLOAD PUSH1 0x0 DUP2 MSTORE RETURN JUMPDEST PUSH2 0x298C JUMP JUMPDEST CALLVALUE PUSH2 0x609 JUMPI PUSH1 0x20 CALLDATASIZE PUSH1 0x3 NOT ADD SLT PUSH2 0x609 JUMPI PUSH1 0x60 PUSH2 0x653 PUSH2 0x28AE JUMP JUMPDEST PUSH1 0x1 DUP1 PUSH1 0xA0 SHL SUB DUP2 AND PUSH1 0x0 MSTORE PUSH1 0xB PUSH1 0x20 MSTORE PUSH1 0x40 PUSH1 0x0 KECCAK256 SWAP1 PUSH2 0x67A PUSH1 0x1 DUP4 SLOAD SWAP4 ADD SLOAD SWAP2 PUSH2 0x2EC2 JUMP JUMPDEST SWAP1 PUSH1 0x40 MLOAD SWAP3 DUP4 MSTORE PUSH1 0x20 DUP4 ADD MSTORE ISZERO ISZERO PUSH1 0x40 DUP3 ADD MSTORE RETURN JUMPDEST CALLVALUE PUSH2 0x609 JUMPI PUSH1 0x20 CALLDATASIZE PUSH1 0x3 NOT ADD SLT PUSH2 0x609 JUMPI PUSH2 0x6A8 PUSH2 0x28AE JUMP JUMPDEST PUSH2 0x6B0 PUSH2 0x309C JUMP JUMPDEST PUSH1 0x1 PUSH1 0x1 PUSH1 0xA0 SHL SUB AND DUP1 ISZERO PUSH2 0x702 JUMPI PUSH1 0x0 DUP1 SLOAD PUSH1 0x1 PUSH1 0x1 PUSH1 0xA0 SHL SUB NOT DUP2 AND DUP4 OR DUP3 SSTORE PUSH1 0x1 PUSH1 0x1 PUSH1 0xA0 SHL SUB AND SWAP1 PUSH32 0x8BE0079C531659141344CD1FD0A4F28419497F9722A3DAAFE3B4186F6B6457E0 SWAP1 DUP1 LOG3 STOP JUMPDEST PUSH4 0x1E4FBDF7 PUSH1 0xE0 SHL PUSH1 0x0 MSTORE PUSH1 0x0 PUSH1 0x4 MSTORE PUSH1 0x24 PUSH1 0x0 REVERT JUMPDEST CALLVALUE PUSH2 0x609 JUMPI PUSH1 0x20 CALLDATASIZE PUSH1 0x3 NOT ADD SLT PUSH2 0x609 JUMPI PUSH1 0x1 PUSH1 0x1 PUSH1 0xA0 SHL SUB PUSH2 0x739 PUSH2 0x28AE JUMP JUMPDEST AND PUSH1 0x0 MSTORE PUSH1 0x7 PUSH1 0x20 MSTORE PUSH1 0x80 PUSH1 0x40 PUSH1 0x0 KECCAK256 DUP1 SLOAD SWAP1 PUSH1 0x1 DUP2 ADD SLOAD SWAP1 PUSH1 0x3 PUSH1 0x2 DUP3 ADD SLOAD SWAP2 ADD SLOAD SWAP2 PUSH1 0x40 MLOAD SWAP4 DUP5 MSTORE PUSH1 0x20 DUP5 ADD MSTORE PUSH1 0x40 DUP4 ADD MSTORE PUSH1 0x60 DUP3 ADD MSTORE RETURN JUMPDEST CALLVALUE PUSH2 0x609 JUMPI PUSH1 0x20 CALLDATASIZE PUSH1 0x3 NOT ADD SLT PUSH2 0x609 JUMPI PUSH1 0x20 PUSH1 0x4 CALLDATALOAD PUSH8 0x8AC7230489E80000 DUP2 LT ISZERO SWAP1 DUP2 PUSH2 0x7A8 JUMPI JUMPDEST POP PUSH1 0x40 MLOAD SWAP1 ISZERO ISZERO DUP2 MSTORE RETURN JUMPDEST SWAP1 POP PUSH1 0x10 SLOAD LT ISZERO DUP3 PUSH2 0x79D JUMP JUMPDEST CALLVALUE PUSH2 0x609 JUMPI PUSH1 0x40 CALLDATASIZE PUSH1 0x3 NOT ADD SLT PUSH2 0x609 JUMPI PUSH2 0x7CE PUSH2 0x28AE JUMP JUMPDEST CALLER PUSH1 0x0 SWAP1 DUP2 MSTORE PUSH1 0x0 DUP1 MLOAD PUSH1 0x20 PUSH2 0x385E DUP4 CODECOPY DUP2 MLOAD SWAP2 MSTORE PUSH1 0x20 MSTORE PUSH1 0x40 SWAP1 KECCAK256 SLOAD PUSH1 0x24 CALLDATALOAD SWAP2 SWAP1 PUSH2 0x7FC SWAP1 PUSH1 0xFF AND PUSH2 0x2FA1 JUMP JUMPDEST PUSH1 0x1 DUP1 PUSH1 0xA0 SHL SUB AND SWAP1 DUP2 PUSH1 0x0 MSTORE PUSH1 0xB PUSH1 0x20 MSTORE PUSH1 0x40 PUSH1 0x0 KECCAK256 SWAP1 TIMESTAMP DUP3 SSTORE PUSH1 0x2 DUP3 ADD SWAP2 DUP3 SLOAD SWAP1 PUSH3 0x15180 DUP3 ADD DUP1 SWAP3 GT PUSH2 0x4B3 JUMPI PUSH32 0x339A588D56F667BA0A8358BE57070B2B0C9F5159D43EBA838EF1DA89159B985A SWAP4 PUSH1 0x40 SWAP4 PUSH1 0x1 SWAP4 TIMESTAMP LT PUSH2 0x872 JUMPI DUP4 DUP4 ADD SSTORE TIMESTAMP SWAP1 SSTORE JUMPDEST ADD SLOAD DUP2 MLOAD SWAP1 DUP2 MSTORE TIMESTAMP PUSH1 0x20 DUP3 ADD MSTORE LOG2 STOP JUMPDEST SWAP1 POP PUSH2 0x882 DUP4 DUP4 ADD SWAP2 DUP3 SLOAD PUSH2 0x2E38 JUMP JUMPDEST SWAP1 SSTORE PUSH2 0x862 JUMP JUMPDEST CALLVALUE PUSH2 0x609 JUMPI PUSH2 0x897 CALLDATASIZE PUSH2 0x2962 JUMP JUMPDEST SWAP2 PUSH2 0x8A0 PUSH2 0x309C JUMP JUMPDEST PUSH1 0x1 DUP1 PUSH1 0xA0 SHL SUB AND SWAP2 DUP3 PUSH1 0x0 MSTORE PUSH1 0x2 PUSH1 0x20 MSTORE DUP2 PUSH1 0x40 PUSH1 0x0 KECCAK256 SLOAD LT PUSH2 0x9EF JUMPI DUP3 PUSH1 0x0 MSTORE PUSH1 0x3 PUSH1 0x20 MSTORE DUP1 PUSH1 0x40 PUSH1 0x0 KECCAK256 SLOAD LT PUSH2 0x9AA JUMPI PUSH32 0x96CD817C6329656790EF8FBA7675405193677D39619571282F5E21F3A98CD059 SWAP2 PUSH1 0x40 SWAP2 DUP5 PUSH1 0x0 MSTORE PUSH1 0x2 PUSH1 0x20 MSTORE PUSH2 0x922 PUSH8 0x8AC7230489E80000 PUSH2 0x91B DUP5 DUP7 PUSH1 0x0 KECCAK256 SLOAD PUSH2 0x2BF3 JUMP JUMPDEST LT ISZERO PUSH2 0x3050 JUMP JUMPDEST DUP5 PUSH1 0x0 MSTORE PUSH1 0x3 PUSH1 0x20 MSTORE PUSH2 0x945 PUSH8 0x8AC7230489E80000 PUSH2 0x91B DUP4 DUP7 PUSH1 0x0 KECCAK256 SLOAD PUSH2 0x2BF3 JUMP JUMPDEST DUP5 PUSH1 0x0 MSTORE PUSH1 0x2 PUSH1 0x20 MSTORE DUP3 PUSH1 0x0 KECCAK256 PUSH2 0x95D DUP4 DUP3 SLOAD PUSH2 0x2BF3 JUMP JUMPDEST SWAP1 SSTORE DUP5 PUSH1 0x0 MSTORE PUSH1 0x3 PUSH1 0x20 MSTORE DUP3 PUSH1 0x0 KECCAK256 PUSH2 0x977 DUP3 DUP3 SLOAD PUSH2 0x2BF3 JUMP JUMPDEST SWAP1 SSTORE PUSH2 0x984 DUP3 CALLER DUP8 PUSH2 0x3471 JUMP JUMPDEST PUSH1 0x5 SLOAD PUSH2 0x99D SWAP1 DUP3 SWAP1 CALLER SWAP1 PUSH1 0x1 PUSH1 0x1 PUSH1 0xA0 SHL SUB AND PUSH2 0x3471 JUMP JUMPDEST DUP3 MLOAD SWAP2 DUP3 MSTORE PUSH1 0x20 DUP3 ADD MSTORE LOG2 STOP JUMPDEST PUSH1 0x40 MLOAD PUSH3 0x461BCD PUSH1 0xE5 SHL DUP2 MSTORE PUSH1 0x20 PUSH1 0x4 DUP3 ADD MSTORE PUSH1 0x1C PUSH1 0x24 DUP3 ADD MSTORE PUSH32 0x496E73756666696369656E7420434F52414C206C697175696469747900000000 PUSH1 0x44 DUP3 ADD MSTORE PUSH1 0x64 SWAP1 REVERT JUMPDEST PUSH1 0x40 MLOAD PUSH3 0x461BCD PUSH1 0xE5 SHL DUP2 MSTORE PUSH1 0x20 PUSH1 0x4 DUP3 ADD MSTORE PUSH1 0x1E PUSH1 0x24 DUP3 ADD MSTORE PUSH32 0x496E73756666696369656E742063726561746F72206C69717569646974790000 PUSH1 0x44 DUP3 ADD MSTORE PUSH1 0x64 SWAP1 REVERT JUMPDEST CALLVALUE PUSH2 0x609 JUMPI PUSH1 0x20 CALLDATASIZE PUSH1 0x3 NOT ADD SLT PUSH2 0x609 JUMPI PUSH1 0x1 PUSH1 0x1 PUSH1 0xA0 SHL SUB PUSH2 0xA55 PUSH2 0x28AE JUMP JUMPDEST AND PUSH1 0x0 SWAP1 DUP2 MSTORE PUSH1 0x8 PUSH1 0x20 SWAP1 DUP2 MSTORE PUSH1 0x40 SWAP2 DUP3 SWAP1 KECCAK256 DUP1 SLOAD PUSH1 0x1 DUP3 ADD SLOAD PUSH1 0x2 DUP4 ADD SLOAD PUSH1 0x3 SWAP1 SWAP4 ADD SLOAD DUP6 MLOAD SWAP3 DUP4 MSTORE SWAP4 DUP3 ADD MSTORE SWAP3 DUP4 ADD MSTORE PUSH1 0xFF AND ISZERO ISZERO PUSH1 0x60 DUP3 ADD MSTORE DUP1 PUSH1 0x80 DUP2 ADD JUMPDEST SUB SWAP1 RETURN JUMPDEST CALLVALUE PUSH2 0x609 JUMPI PUSH1 0x0 CALLDATASIZE PUSH1 0x3 NOT ADD SLT PUSH2 0x609 JUMPI PUSH1 0xD SLOAD PUSH1 0xE SLOAD PUSH1 0xF SLOAD SWAP1 SWAP2 PUSH1 0x1 PUSH1 0x1 PUSH1 0xA0 SHL SUB AND SWAP1 PUSH2 0xE10 DUP2 ADD SWAP1 DUP2 DUP2 GT PUSH2 0x4B3 JUMPI PUSH1 0x80 SWAP4 PUSH1 0x40 MLOAD SWAP4 DUP5 MSTORE PUSH1 0x20 DUP5 ADD MSTORE PUSH1 0x40 DUP4 ADD MSTORE TIMESTAMP LT ISZERO PUSH1 0x60 DUP3 ADD MSTORE RETURN JUMPDEST CALLVALUE PUSH2 0x609 JUMPI PUSH1 0x40 CALLDATASIZE PUSH1 0x3 NOT ADD SLT PUSH2 0x609 JUMPI PUSH2 0xB30 PUSH1 0x4 CALLDATALOAD PUSH2 0xB0A PUSH2 0x28C4 JUMP JUMPDEST SWAP1 PUSH2 0xB2B PUSH2 0xB26 DUP3 PUSH1 0x0 MSTORE PUSH1 0x1 PUSH1 0x20 MSTORE PUSH1 0x1 PUSH1 0x40 PUSH1 0x0 KECCAK256 ADD SLOAD SWAP1 JUMP JUMPDEST PUSH2 0x30C5 JUMP JUMPDEST PUSH2 0x33EB JUMP JUMPDEST STOP JUMPDEST CALLVALUE PUSH2 0x609 JUMPI PUSH1 0x0 CALLDATASIZE PUSH1 0x3 NOT ADD SLT PUSH2 0x609 JUMPI PUSH2 0xB4B PUSH2 0x309C JUMP JUMPDEST PUSH2 0xB30 PUSH2 0x3636 JUMP JUMPDEST CALLVALUE PUSH2 0x609 JUMPI PUSH1 0x40 CALLDATASIZE PUSH1 0x3 NOT ADD SLT PUSH2 0x609 JUMPI PUSH2 0xB6C PUSH2 0x28AE JUMP JUMPDEST PUSH2 0xB74 PUSH2 0x28C4 JUMP JUMPDEST SWAP1 PUSH2 0xB7D PUSH2 0x309C JUMP JUMPDEST PUSH1 0x1 DUP1 PUSH1 0xA0 SHL SUB AND DUP1 PUSH1 0x0 MSTORE PUSH1 0x4 PUSH1 0x20 MSTORE PUSH1 0x40 PUSH1 0x0 KECCAK256 SLOAD SWAP2 PUSH2 0xBD8 PUSH1 0x40 MLOAD PUSH2 0xBA6 PUSH1 0x40 DUP3 PUSH2 0x2BD1 JUMP JUMPDEST PUSH1 0x1D DUP2 MSTORE PUSH32 0x4E6F206665657320617661696C61626C6520746F2072656465706C6F79000000 PUSH1 0x20 DUP3 ADD MSTORE DUP5 ISZERO ISZERO PUSH2 0x2FED JUMP JUMPDEST PUSH2 0xC24 PUSH1 0x40 MLOAD PUSH2 0xBE9 PUSH1 0x40 DUP3 PUSH2 0x2BD1 JUMP JUMPDEST PUSH1 0x1B DUP2 MSTORE PUSH32 0x42656C6F77206D696E696D756D20666565207468726573686F6C640000000000 PUSH1 0x20 DUP3 ADD MSTORE PUSH8 0x4563918244F40000 DUP6 LT ISZERO PUSH2 0x2FED JUMP JUMPDEST DUP2 PUSH1 0x0 MSTORE PUSH1 0x4 PUSH1 0x20 MSTORE PUSH1 0x40 PUSH1 0x0 KECCAK256 PUSH2 0xC3D DUP5 DUP3 SLOAD PUSH2 0x2BF3 JUMP JUMPDEST SWAP1 SSTORE PUSH1 0x40 MLOAD PUSH4 0x70A08231 PUSH1 0xE0 SHL DUP2 MSTORE ADDRESS PUSH1 0x4 DUP3 ADD MSTORE PUSH1 0x20 DUP2 PUSH1 0x24 DUP2 DUP7 GAS STATICCALL DUP1 ISZERO PUSH2 0xCF1 JUMPI DUP5 SWAP2 PUSH1 0x0 SWAP2 PUSH2 0xCBA JUMPI JUMPDEST POP SWAP2 PUSH2 0xC9C PUSH1 0x20 SWAP3 PUSH32 0xA2E59056A8017237DD27A52D5981FB4983F1A43828D018D9BA6E76C801FE9059 SWAP5 LT ISZERO PUSH2 0x2F55 JUMP JUMPDEST PUSH2 0xCA7 DUP6 DUP3 DUP7 PUSH2 0x3471 JUMP JUMPDEST PUSH1 0x40 MLOAD SWAP5 DUP6 MSTORE PUSH1 0x1 PUSH1 0x1 PUSH1 0xA0 SHL SUB AND SWAP4 LOG3 STOP JUMPDEST SWAP2 POP POP PUSH1 0x20 DUP2 RETURNDATASIZE PUSH1 0x20 GT PUSH2 0xCE9 JUMPI JUMPDEST DUP2 PUSH2 0xCD6 PUSH1 0x20 SWAP4 DUP4 PUSH2 0x2BD1 JUMP JUMPDEST DUP2 ADD SUB SLT PUSH2 0x609 JUMPI MLOAD DUP4 SWAP1 PUSH2 0xC9C PUSH2 0xC6B JUMP JUMPDEST RETURNDATASIZE SWAP2 POP PUSH2 0xCC9 JUMP JUMPDEST PUSH1 0x40 MLOAD RETURNDATASIZE PUSH1 0x0 DUP3 RETURNDATACOPY RETURNDATASIZE SWAP1 REVERT JUMPDEST CALLVALUE PUSH2 0x609 JUMPI PUSH1 0x20 CALLDATASIZE PUSH1 0x3 NOT ADD SLT PUSH2 0x609 JUMPI PUSH2 0xD16 PUSH2 0x28AE JUMP JUMPDEST CALLER PUSH1 0x0 SWAP1 DUP2 MSTORE PUSH1 0x0 DUP1 MLOAD PUSH1 0x20 PUSH2 0x385E DUP4 CODECOPY DUP2 MLOAD SWAP2 MSTORE PUSH1 0x20 MSTORE PUSH1 0x40 SWAP1 KECCAK256 SLOAD PUSH2 0xD3F SWAP1 PUSH1 0xFF AND PUSH2 0x2FA1 JUMP JUMPDEST PUSH1 0x1 PUSH1 0x1 PUSH1 0xA0 SHL SUB AND PUSH2 0xD53 DUP2 ISZERO ISZERO PUSH2 0x2F11 JUMP JUMPDEST DUP1 PUSH1 0x0 MSTORE PUSH1 0x4 PUSH1 0x20 MSTORE PUSH1 0x40 PUSH1 0x0 KECCAK256 SLOAD SWAP1 PUSH2 0xDA6 PUSH1 0x40 MLOAD PUSH2 0xD74 PUSH1 0x40 DUP3 PUSH2 0x2BD1 JUMP JUMPDEST PUSH1 0x1D DUP2 MSTORE PUSH32 0x4E6F206665657320617661696C61626C6520746F2072656465706C6F79000000 PUSH1 0x20 DUP3 ADD MSTORE DUP4 ISZERO ISZERO PUSH2 0x2FED JUMP JUMPDEST PUSH2 0xDF2 PUSH1 0x40 MLOAD PUSH2 0xDB7 PUSH1 0x40 DUP3 PUSH2 0x2BD1 JUMP JUMPDEST PUSH1 0x1B DUP2 MSTORE PUSH32 0x42656C6F77206D696E696D756D20666565207468726573686F6C640000000000 PUSH1 0x20 DUP3 ADD MSTORE PUSH8 0x4563918244F40000 DUP5 LT ISZERO PUSH2 0x2FED JUMP JUMPDEST PUSH2 0xDFA PUSH2 0x34F5 JUMP JUMPDEST PUSH1 0x1 PUSH1 0x1 PUSH1 0xA0 SHL SUB DUP2 AND SWAP3 DUP4 ISZERO PUSH2 0xFA6 JUMPI PUSH2 0xE15 DUP2 DUP4 PUSH2 0x356D JUMP JUMPDEST SWAP1 DUP2 ISZERO PUSH2 0xF6A JUMPI DUP2 GT PUSH2 0xF19 JUMPI PUSH1 0x40 MLOAD PUSH4 0x70A08231 PUSH1 0xE0 SHL DUP2 MSTORE ADDRESS PUSH1 0x4 DUP3 ADD MSTORE PUSH1 0x20 DUP2 PUSH1 0x24 DUP2 DUP8 GAS STATICCALL SWAP1 DUP2 ISZERO PUSH2 0xCF1 JUMPI PUSH1 0x0 SWAP2 PUSH2 0xEE3 JUMPI JUMPDEST POP SWAP1 PUSH2 0xEC0 DUP2 PUSH32 0x5B1142ECB7CAA10961ADCAC369FB4C5E7FA3629B1B53DF070F2E8A2014C51777 SWAP5 PUSH2 0xE84 DUP3 PUSH2 0xEDE SWAP7 LT ISZERO PUSH2 0x2F55 JUMP JUMPDEST DUP7 PUSH1 0x0 MSTORE PUSH1 0x4 PUSH1 0x20 MSTORE PUSH1 0x40 PUSH1 0x0 KECCAK256 PUSH2 0xE9D DUP4 DUP3 SLOAD PUSH2 0x2BF3 JUMP JUMPDEST SWAP1 SSTORE DUP8 PUSH1 0x0 MSTORE PUSH1 0x3 PUSH1 0x20 MSTORE PUSH1 0x40 PUSH1 0x0 KECCAK256 PUSH2 0xEB8 DUP4 DUP3 SLOAD PUSH2 0x2E38 JUMP JUMPDEST SWAP1 SSTORE DUP7 PUSH2 0x3471 JUMP JUMPDEST PUSH1 0x40 DUP1 MLOAD DUP3 DUP2 MSTORE PUSH1 0x20 DUP2 ADD SWAP3 SWAP1 SWAP3 MSTORE TIMESTAMP SWAP1 DUP3 ADD MSTORE SWAP1 DUP2 SWAP1 PUSH1 0x60 DUP3 ADD SWAP1 JUMP JUMPDEST SUB SWAP1 LOG3 STOP JUMPDEST SWAP2 SWAP1 POP PUSH1 0x20 DUP3 RETURNDATASIZE PUSH1 0x20 GT PUSH2 0xF11 JUMPI JUMPDEST DUP2 PUSH2 0xEFF PUSH1 0x20 SWAP4 DUP4 PUSH2 0x2BD1 JUMP JUMPDEST DUP2 ADD SUB SLT PUSH2 0x609 JUMPI SWAP1 MLOAD PUSH2 0xEC0 PUSH2 0xE4D JUMP JUMPDEST RETURNDATASIZE SWAP2 POP PUSH2 0xEF2 JUMP JUMPDEST PUSH1 0x40 MLOAD PUSH3 0x461BCD PUSH1 0xE5 SHL DUP2 MSTORE PUSH1 0x20 PUSH1 0x4 DUP3 ADD MSTORE PUSH1 0x24 DUP1 DUP3 ADD MSTORE PUSH32 0x4465706C6F7920616D6F756E74206578636565647320617661696C61626C6520 PUSH1 0x44 DUP3 ADD MSTORE PUSH4 0x66656573 PUSH1 0xE0 SHL PUSH1 0x64 DUP3 ADD MSTORE PUSH1 0x84 SWAP1 REVERT JUMPDEST PUSH1 0x40 MLOAD PUSH3 0x461BCD PUSH1 0xE5 SHL DUP2 MSTORE PUSH1 0x20 PUSH1 0x4 DUP3 ADD MSTORE PUSH1 0x14 PUSH1 0x24 DUP3 ADD MSTORE PUSH20 0x139BC819195C1B1BDE5B595B9D081B9959591959 PUSH1 0x62 SHL PUSH1 0x44 DUP3 ADD MSTORE PUSH1 0x64 SWAP1 REVERT JUMPDEST PUSH1 0x40 MLOAD PUSH3 0x461BCD PUSH1 0xE5 SHL DUP2 MSTORE PUSH1 0x20 PUSH1 0x4 DUP3 ADD MSTORE PUSH1 0x16 PUSH1 0x24 DUP3 ADD MSTORE PUSH22 0x139BC81CDD5A5D18589B19481C1BDBDB08199BDD5B99 PUSH1 0x52 SHL PUSH1 0x44 DUP3 ADD MSTORE PUSH1 0x64 SWAP1 REVERT JUMPDEST CALLVALUE PUSH2 0x609 JUMPI PUSH1 0x0 CALLDATASIZE PUSH1 0x3 NOT ADD SLT PUSH2 0x609 JUMPI PUSH1 0x5 SLOAD PUSH1 0x40 MLOAD PUSH1 0x1 PUSH1 0x1 PUSH1 0xA0 SHL SUB SWAP1 SWAP2 AND DUP2 MSTORE PUSH1 0x20 SWAP1 RETURN JUMPDEST CALLVALUE PUSH2 0x609 JUMPI PUSH1 0x0 CALLDATASIZE PUSH1 0x3 NOT ADD SLT PUSH2 0x609 JUMPI PUSH1 0x20 PUSH1 0x6 SLOAD PUSH1 0x40 MLOAD SWAP1 DUP2 MSTORE RETURN JUMPDEST CALLVALUE PUSH2 0x609 JUMPI PUSH1 0x0 CALLDATASIZE PUSH1 0x3 NOT ADD SLT PUSH2 0x609 JUMPI PUSH1 0x40 MLOAD DUP1 PUSH1 0x20 PUSH1 0x9 SLOAD SWAP3 DUP4 DUP2 MSTORE ADD DUP1 SWAP3 PUSH1 0x9 PUSH1 0x0 MSTORE PUSH32 0x6E1540171B6C0C960B71A7020D9F60077F6AF931A8BBF590DA0223DACF75C7AF SWAP1 PUSH1 0x0 JUMPDEST DUP2 DUP2 LT PUSH2 0x10D8 JUMPI POP POP POP DUP2 PUSH2 0x108C SWAP2 SUB DUP3 PUSH2 0x2BD1 JUMP JUMPDEST PUSH1 0x40 MLOAD SWAP2 DUP3 SWAP2 PUSH1 0x20 DUP4 ADD SWAP1 PUSH1 0x20 DUP5 MSTORE MLOAD DUP1 SWAP2 MSTORE PUSH1 0x40 DUP4 ADD SWAP2 SWAP1 PUSH1 0x0 JUMPDEST DUP2 DUP2 LT PUSH2 0x10B6 JUMPI POP POP POP SUB SWAP1 RETURN JUMPDEST DUP3 MLOAD PUSH1 0x1 PUSH1 0x1 PUSH1 0xA0 SHL SUB AND DUP5 MSTORE DUP6 SWAP5 POP PUSH1 0x20 SWAP4 DUP5 ADD SWAP4 SWAP1 SWAP3 ADD SWAP2 PUSH1 0x1 ADD PUSH2 0x10A8 JUMP JUMPDEST DUP3 SLOAD PUSH1 0x1 PUSH1 0x1 PUSH1 0xA0 SHL SUB AND DUP5 MSTORE PUSH1 0x20 SWAP1 SWAP4 ADD SWAP3 PUSH1 0x1 SWAP3 DUP4 ADD SWAP3 ADD PUSH2 0x1076 JUMP JUMPDEST CALLVALUE PUSH2 0x609 JUMPI PUSH1 0x20 CALLDATASIZE PUSH1 0x3 NOT ADD SLT PUSH2 0x609 JUMPI PUSH1 0x1 PUSH1 0x1 PUSH1 0xA0 SHL SUB PUSH2 0x1118 PUSH2 0x28AE JUMP JUMPDEST AND PUSH1 0x0 SWAP1 DUP2 MSTORE PUSH1 0x7 PUSH1 0x20 SWAP1 DUP2 MSTORE PUSH1 0x40 SWAP2 DUP3 SWAP1 KECCAK256 DUP1 SLOAD PUSH1 0x1 DUP3 ADD SLOAD PUSH1 0x3 SWAP3 DUP4 ADD SLOAD DUP6 MLOAD SWAP3 DUP4 MSTORE SWAP4 DUP3 ADD MSTORE SWAP3 DUP4 ADD DUP3 SWAP1 MSTORE GT ISZERO PUSH1 0x60 DUP3 ADD MSTORE PUSH1 0x80 SWAP1 RETURN JUMPDEST CALLVALUE PUSH2 0x609 JUMPI PUSH1 0x0 CALLDATASIZE PUSH1 0x3 NOT ADD SLT PUSH2 0x609 JUMPI PUSH1 0x20 PUSH1 0x10 SLOAD PUSH1 0x40 MLOAD SWAP1 DUP2 MSTORE RETURN JUMPDEST CALLVALUE PUSH2 0x609 JUMPI PUSH1 0x40 CALLDATASIZE PUSH1 0x3 NOT ADD SLT PUSH2 0x609 JUMPI PUSH2 0x118A PUSH2 0x28AE JUMP JUMPDEST PUSH1 0x24 CALLDATALOAD SWAP1 PUSH2 0x1196 PUSH2 0x309C JUMP JUMPDEST PUSH1 0x1 PUSH1 0x1 PUSH1 0xA0 SHL SUB AND SWAP1 PUSH2 0x11AB DUP3 ISZERO ISZERO PUSH2 0x2F11 JUMP JUMPDEST PUSH2 0x11B6 DUP2 ISZERO ISZERO PUSH2 0x2D58 JUMP JUMPDEST DUP2 PUSH1 0x0 MSTORE PUSH1 0x4 PUSH1 0x20 MSTORE DUP1 PUSH1 0x40 PUSH1 0x0 KECCAK256 SLOAD LT PUSH2 0x1288 JUMPI DUP2 PUSH1 0x0 MSTORE PUSH1 0x4 PUSH1 0x20 MSTORE PUSH1 0x40 PUSH1 0x0 KECCAK256 PUSH2 0x11E4 DUP3 DUP3 SLOAD PUSH2 0x2BF3 JUMP JUMPDEST SWAP1 SSTORE PUSH1 0x40 MLOAD PUSH4 0x70A08231 PUSH1 0xE0 SHL DUP2 MSTORE ADDRESS PUSH1 0x4 DUP3 ADD MSTORE PUSH1 0x20 DUP2 PUSH1 0x24 DUP2 DUP7 GAS STATICCALL SWAP1 DUP2 ISZERO PUSH2 0xCF1 JUMPI PUSH1 0x0 SWAP2 PUSH2 0x1256 JUMPI JUMPDEST POP DUP2 PUSH2 0x1242 PUSH32 0xC0819C13BE868895EB93E40EACEB96DE976442FA1D404E5C55F14BB65A8C489A SWAP4 PUSH1 0x20 SWAP4 LT ISZERO PUSH2 0x2F55 JUMP JUMPDEST PUSH2 0x124D DUP2 CALLER DUP7 PUSH2 0x3471 JUMP JUMPDEST PUSH1 0x40 MLOAD SWAP1 DUP2 MSTORE LOG2 STOP JUMPDEST SWAP1 POP PUSH1 0x20 DUP2 RETURNDATASIZE PUSH1 0x20 GT PUSH2 0x1280 JUMPI JUMPDEST DUP2 PUSH2 0x1271 PUSH1 0x20 SWAP4 DUP4 PUSH2 0x2BD1 JUMP JUMPDEST DUP2 ADD SUB SLT PUSH2 0x609 JUMPI MLOAD DUP2 PUSH2 0x1211 JUMP JUMPDEST RETURNDATASIZE SWAP2 POP PUSH2 0x1264 JUMP JUMPDEST PUSH1 0x40 MLOAD PUSH3 0x461BCD PUSH1 0xE5 SHL DUP2 MSTORE PUSH1 0x20 PUSH1 0x4 DUP3 ADD MSTORE PUSH1 0x11 PUSH1 0x24 DUP3 ADD MSTORE PUSH17 0x496E73756666696369656E742066656573 PUSH1 0x78 SHL PUSH1 0x44 DUP3 ADD MSTORE PUSH1 0x64 SWAP1 REVERT JUMPDEST CALLVALUE PUSH2 0x609 JUMPI PUSH1 0x20 CALLDATASIZE PUSH1 0x3 NOT ADD SLT PUSH2 0x609 JUMPI PUSH1 0x20 PUSH2 0x12E4 PUSH2 0x12DF PUSH2 0x28AE JUMP JUMPDEST PUSH2 0x2EC2 JUMP JUMPDEST PUSH1 0x40 MLOAD SWAP1 ISZERO ISZERO DUP2 MSTORE RETURN JUMPDEST CALLVALUE PUSH2 0x609 JUMPI PUSH1 0x0 CALLDATASIZE PUSH1 0x3 NOT ADD SLT PUSH2 0x609 JUMPI PUSH1 0x20 PUSH1 0x40 MLOAD PUSH1 0x0 DUP2 MSTORE RETURN JUMPDEST CALLVALUE PUSH2 0x609 JUMPI PUSH1 0x0 CALLDATASIZE PUSH1 0x3 NOT ADD SLT PUSH2 0x609 JUMPI PUSH1 0x60 PUSH1 0x1 DUP1 PUSH1 0xA0 SHL SUB PUSH1 0xD SLOAD AND PUSH1 0xE SLOAD PUSH1 0xF SLOAD SWAP1 PUSH1 0x40 MLOAD SWAP3 DUP4 MSTORE PUSH1 0x20 DUP4 ADD MSTORE PUSH1 0x40 DUP3 ADD MSTORE RETURN JUMPDEST CALLVALUE PUSH2 0x609 JUMPI PUSH1 0x40 CALLDATASIZE PUSH1 0x3 NOT ADD SLT PUSH2 0x609 JUMPI PUSH2 0x135A PUSH2 0x28AE JUMP JUMPDEST PUSH32 0x9DC46F23CFB5DDCAD0AE7EA2BE38D47FEC07BB9382EC7E564EFC69E036DD66CE PUSH1 0x20 PUSH1 0x24 CALLDATALOAD SWAP3 PUSH1 0x1 DUP1 PUSH1 0xA0 SHL SUB AND SWAP3 DUP4 PUSH1 0x0 MSTORE PUSH1 0x4 DUP3 MSTORE PUSH1 0x40 PUSH1 0x0 KECCAK256 PUSH2 0x13A2 DUP3 DUP3 SLOAD PUSH2 0x2E38 JUMP JUMPDEST SWAP1 SSTORE PUSH1 0x40 MLOAD SWAP1 DUP2 MSTORE LOG2 STOP JUMPDEST PUSH2 0x28F6 JUMP JUMPDEST CALLVALUE PUSH2 0x609 JUMPI PUSH1 0x40 CALLDATASIZE PUSH1 0x3 NOT ADD SLT PUSH2 0x609 JUMPI PUSH2 0x13CB PUSH2 0x28C4 JUMP JUMPDEST PUSH1 0x4 CALLDATALOAD PUSH1 0x0 MSTORE PUSH1 0x1 PUSH1 0x20 MSTORE PUSH1 0x40 PUSH1 0x0 KECCAK256 SWAP1 PUSH1 0x1 DUP1 PUSH1 0xA0 SHL SUB AND PUSH1 0x0 MSTORE PUSH1 0x20 MSTORE PUSH1 0x20 PUSH1 0xFF PUSH1 0x40 PUSH1 0x0 KECCAK256 SLOAD AND PUSH1 0x40 MLOAD SWAP1 ISZERO ISZERO DUP2 MSTORE RETURN JUMPDEST CALLVALUE PUSH2 0x609 JUMPI PUSH1 0x0 CALLDATASIZE PUSH1 0x3 NOT ADD SLT PUSH2 0x609 JUMPI PUSH1 0x0 SLOAD PUSH1 0x40 MLOAD PUSH1 0x1 PUSH1 0x1 PUSH1 0xA0 SHL SUB SWAP1 SWAP2 AND DUP2 MSTORE PUSH1 0x20 SWAP1 RETURN JUMPDEST CALLVALUE PUSH2 0x609 JUMPI PUSH1 0x40 CALLDATASIZE PUSH1 0x3 NOT ADD SLT PUSH2 0x609 JUMPI PUSH2 0x1441 PUSH2 0x28AE JUMP JUMPDEST PUSH1 0x24 CALLDATALOAD SWAP1 PUSH2 0x144D PUSH2 0x309C JUMP JUMPDEST PUSH1 0x1 PUSH1 0x1 PUSH1 0xA0 SHL SUB AND PUSH1 0x0 DUP2 DUP2 MSTORE PUSH1 0x8 PUSH1 0x20 MSTORE PUSH1 0x40 SWAP1 KECCAK256 PUSH1 0x3 ADD SLOAD SWAP1 SWAP2 SWAP1 PUSH1 0xFF AND PUSH2 0x15C1 JUMPI PUSH1 0x20 SWAP1 PUSH1 0x40 MLOAD PUSH2 0x1482 DUP4 DUP3 PUSH2 0x2BD1 JUMP JUMPDEST PUSH1 0x0 DUP2 MSTORE PUSH1 0x0 CALLDATASIZE DUP2 CALLDATACOPY PUSH1 0x40 MLOAD PUSH1 0xA0 DUP2 ADD SWAP1 DUP1 DUP3 LT PUSH8 0xFFFFFFFFFFFFFFFF DUP4 GT OR PUSH2 0x15AB JUMPI PUSH1 0x4 SWAP2 PUSH1 0x40 MSTORE DUP4 DUP2 MSTORE DUP5 DUP2 ADD DUP5 DUP2 MSTORE PUSH1 0x40 DUP3 ADD TIMESTAMP DUP2 MSTORE PUSH1 0x60 DUP4 ADD SWAP2 PUSH1 0x1 DUP4 MSTORE PUSH1 0x80 DUP5 ADD SWAP6 DUP7 MSTORE DUP9 PUSH1 0x0 MSTORE PUSH1 0x8 DUP9 MSTORE PUSH1 0x40 PUSH1 0x0 KECCAK256 SWAP4 MLOAD DUP5 SSTORE MLOAD PUSH1 0x1 DUP5 ADD SSTORE MLOAD PUSH1 0x2 DUP4 ADD SSTORE PUSH1 0x3 DUP3 ADD SWAP1 MLOAD ISZERO ISZERO PUSH1 0xFF DUP1 NOT DUP4 SLOAD AND SWAP2 AND OR SWAP1 SSTORE ADD SWAP1 MLOAD SWAP1 DUP2 MLOAD SWAP2 PUSH8 0xFFFFFFFFFFFFFFFF DUP4 GT PUSH2 0x15AB JUMPI PUSH1 0x1 PUSH1 0x40 SHL DUP4 GT PUSH2 0x15AB JUMPI DUP5 SWAP1 DUP3 SLOAD DUP5 DUP5 SSTORE DUP1 DUP6 LT PUSH2 0x1580 JUMPI JUMPDEST POP ADD SWAP1 PUSH1 0x0 MSTORE DUP4 PUSH1 0x0 KECCAK256 PUSH1 0x0 JUMPDEST DUP4 DUP2 LT PUSH2 0x156E JUMPI DUP7 PUSH32 0x9D3136590A24E6EB0D058D4D9B8C4D5BE27926B0ABFECA301A4D5FC0AAAB775D DUP8 DUP8 PUSH1 0x40 MLOAD SWAP1 DUP2 MSTORE LOG2 STOP JUMPDEST DUP3 MLOAD DUP3 DUP3 ADD SSTORE SWAP2 DUP6 ADD SWAP2 PUSH1 0x1 ADD PUSH2 0x153A JUMP JUMPDEST DUP4 PUSH1 0x0 MSTORE DUP5 DUP4 PUSH1 0x0 KECCAK256 SWAP2 DUP3 ADD SWAP2 ADD JUMPDEST DUP2 DUP2 LT PUSH2 0x159C JUMPI POP PUSH2 0x152D JUMP JUMPDEST PUSH1 0x0 DUP2 SSTORE DUP8 SWAP4 POP PUSH1 0x1 ADD PUSH2 0x158F JUMP JUMPDEST PUSH4 0x4E487B71 PUSH1 0xE0 SHL PUSH1 0x0 MSTORE PUSH1 0x41 PUSH1 0x4 MSTORE PUSH1 0x24 PUSH1 0x0 REVERT JUMPDEST PUSH1 0x40 MLOAD PUSH3 0x461BCD PUSH1 0xE5 SHL DUP2 MSTORE PUSH1 0x20 PUSH1 0x4 DUP3 ADD MSTORE PUSH1 0x14 PUSH1 0x24 DUP3 ADD MSTORE PUSH20 0x416C726561647920696E20646973636F76657279 PUSH1 0x60 SHL PUSH1 0x44 DUP3 ADD MSTORE PUSH1 0x64 SWAP1 REVERT JUMPDEST CALLVALUE PUSH2 0x609 JUMPI PUSH1 0x20 CALLDATASIZE PUSH1 0x3 NOT ADD SLT PUSH2 0x609 JUMPI PUSH2 0xB30 PUSH2 0x1619 PUSH2 0x28AE JUMP JUMPDEST PUSH2 0x1621 PUSH2 0x309C JUMP JUMPDEST PUSH2 0x1635 PUSH1 0x1 PUSH1 0x1 PUSH1 0xA0 SHL SUB DUP3 AND ISZERO ISZERO PUSH2 0x2E84 JUMP JUMPDEST PUSH2 0x1640 PUSH2 0xB26 PUSH2 0x2C00 JUMP JUMPDEST PUSH2 0x3102 JUMP JUMPDEST CALLVALUE PUSH2 0x609 JUMPI PUSH1 0x20 CALLDATASIZE PUSH1 0x3 NOT ADD SLT PUSH2 0x609 JUMPI PUSH1 0x1 PUSH1 0x1 PUSH1 0xA0 SHL SUB PUSH2 0x1666 PUSH2 0x28AE JUMP JUMPDEST AND PUSH1 0x0 MSTORE PUSH1 0x3 PUSH1 0x20 MSTORE PUSH1 0x20 PUSH1 0x40 PUSH1 0x0 KECCAK256 SLOAD PUSH1 0x40 MLOAD SWAP1 DUP2 MSTORE RETURN JUMPDEST CALLVALUE PUSH2 0x609 JUMPI PUSH1 0x20 CALLDATASIZE PUSH1 0x3 NOT ADD SLT PUSH2 0x609 JUMPI PUSH2 0x1698 PUSH2 0x28AE JUMP JUMPDEST PUSH2 0x16A0 PUSH2 0x309C JUMP JUMPDEST PUSH1 0x1 PUSH1 0x1 PUSH1 0xA0 SHL SUB DUP2 AND SWAP1 DUP2 ISZERO PUSH2 0x1729 JUMPI PUSH1 0xC SLOAD PUSH2 0x16D4 SWAP2 SWAP1 PUSH1 0x1 PUSH1 0x1 PUSH1 0xA0 SHL SUB AND DUP1 PUSH2 0x170E JUMPI JUMPDEST POP PUSH2 0x1640 PUSH2 0xB26 PUSH2 0x2C00 JUMP JUMPDEST POP PUSH1 0xC DUP1 SLOAD PUSH1 0x1 PUSH1 0x1 PUSH1 0xA0 SHL SUB NOT AND DUP3 OR SWAP1 SSTORE PUSH32 0xF4F735542E91D7C018C02855A6A19FBBCF7F4D7FB006982EBCBB5753408A638B PUSH1 0x0 DUP1 LOG2 STOP JUMPDEST PUSH2 0x1722 SWAP1 PUSH2 0x171D PUSH2 0xB26 PUSH2 0x2C00 JUMP JUMPDEST PUSH2 0x3355 JUMP JUMPDEST POP DUP4 PUSH2 0x16C8 JUMP JUMPDEST PUSH1 0x40 MLOAD PUSH3 0x461BCD PUSH1 0xE5 SHL DUP2 MSTORE PUSH1 0x20 PUSH1 0x4 DUP3 ADD MSTORE PUSH1 0x13 PUSH1 0x24 DUP3 ADD MSTORE PUSH19 0x496E76616C6964204445582061646472657373 PUSH1 0x68 SHL PUSH1 0x44 DUP3 ADD MSTORE PUSH1 0x64 SWAP1 REVERT JUMPDEST CALLVALUE PUSH2 0x609 JUMPI PUSH1 0x20 CALLDATASIZE PUSH1 0x3 NOT ADD SLT PUSH2 0x609 JUMPI PUSH1 0x1 PUSH1 0x1 PUSH1 0xA0 SHL SUB PUSH2 0x1785 PUSH2 0x28AE JUMP JUMPDEST AND PUSH1 0x0 MSTORE PUSH1 0xA PUSH1 0x20 MSTORE PUSH1 0x20 PUSH1 0xFF PUSH1 0x40 PUSH1 0x0 KECCAK256 SLOAD AND PUSH1 0x40 MLOAD SWAP1 ISZERO ISZERO DUP2 MSTORE RETURN JUMPDEST CALLVALUE PUSH2 0x609 JUMPI PUSH1 0x0 CALLDATASIZE PUSH1 0x3 NOT ADD SLT PUSH2 0x609 JUMPI PUSH2 0x17BC PUSH2 0x309C JUMP JUMPDEST PUSH1 0x0 DUP1 SLOAD PUSH1 0x1 PUSH1 0x1 PUSH1 0xA0 SHL SUB NOT DUP2 AND DUP3 SSTORE PUSH1 0x1 PUSH1 0x1 PUSH1 0xA0 SHL SUB AND PUSH32 0x8BE0079C531659141344CD1FD0A4F28419497F9722A3DAAFE3B4186F6B6457E0 DUP3 DUP1 LOG3 STOP JUMPDEST CALLVALUE PUSH2 0x609 JUMPI PUSH1 0x20 CALLDATASIZE PUSH1 0x3 NOT ADD SLT PUSH2 0x609 JUMPI PUSH1 0x4 CALLDATALOAD PUSH2 0x1818 PUSH2 0x309C JUMP JUMPDEST PUSH8 0x8AC7230489E80000 DUP2 LT PUSH2 0x18D3 JUMPI PUSH32 0x5555555555555555555555555555555555555555555555555555555555555555 DUP2 GT PUSH2 0x189F JUMPI PUSH32 0x9D1C8F51BFA9236921A779A0D8059D62D17A5E5FA3520A82ECE79D16BCE1EF2C SWAP1 PUSH1 0x10 SLOAD SWAP1 DUP1 PUSH1 0x10 SSTORE PUSH2 0x189A PUSH1 0x40 MLOAD SWAP3 DUP4 SWAP3 TIMESTAMP SWAP2 DUP5 PUSH1 0x40 SWAP2 SWAP5 SWAP4 SWAP3 PUSH1 0x60 DUP3 ADD SWAP6 DUP3 MSTORE PUSH1 0x20 DUP3 ADD MSTORE ADD MSTORE JUMP JUMPDEST SUB SWAP1 LOG1 STOP JUMPDEST PUSH1 0x40 MLOAD PUSH3 0x461BCD PUSH1 0xE5 SHL DUP2 MSTORE PUSH1 0x20 PUSH1 0x4 DUP3 ADD MSTORE PUSH1 0xC PUSH1 0x24 DUP3 ADD MSTORE PUSH12 0x9AC2F040E8DEDE40D0D2CED PUSH1 0xA3 SHL PUSH1 0x44 DUP3 ADD MSTORE PUSH1 0x64 SWAP1 REVERT JUMPDEST PUSH1 0x64 PUSH1 0x40 MLOAD PUSH3 0x461BCD PUSH1 0xE5 SHL DUP2 MSTORE PUSH1 0x20 PUSH1 0x4 DUP3 ADD MSTORE PUSH1 0x20 PUSH1 0x24 DUP3 ADD MSTORE PUSH32 0x4E6577206D6178206D757374206265203E3D206D696E206C6971756964697479 PUSH1 0x44 DUP3 ADD MSTORE REVERT JUMPDEST CALLVALUE PUSH2 0x609 JUMPI PUSH1 0x20 CALLDATASIZE PUSH1 0x3 NOT ADD SLT PUSH2 0x609 JUMPI PUSH1 0x1 PUSH1 0x1 PUSH1 0xA0 SHL SUB PUSH2 0x1938 PUSH2 0x28AE JUMP JUMPDEST AND PUSH1 0x0 MSTORE PUSH1 0x2 PUSH1 0x20 MSTORE PUSH1 0x20 PUSH1 0x40 PUSH1 0x0 KECCAK256 SLOAD PUSH1 0x40 MLOAD SWAP1 DUP2 MSTORE RETURN JUMPDEST CALLVALUE PUSH2 0x609 JUMPI PUSH1 0x0 CALLDATASIZE PUSH1 0x3 NOT ADD SLT PUSH2 0x609 JUMPI PUSH1 0x20 PUSH1 0x40 MLOAD PUSH1 0x14 DUP2 MSTORE RETURN JUMPDEST CALLVALUE PUSH2 0x609 JUMPI PUSH1 0x0 CALLDATASIZE PUSH1 0x3 NOT ADD SLT PUSH2 0x609 JUMPI PUSH1 0xC SLOAD PUSH1 0x40 MLOAD PUSH1 0x1 PUSH1 0x1 PUSH1 0xA0 SHL SUB SWAP1 SWAP2 AND DUP2 MSTORE PUSH1 0x20 SWAP1 RETURN JUMPDEST CALLVALUE PUSH2 0x609 JUMPI PUSH1 0x20 CALLDATASIZE PUSH1 0x3 NOT ADD SLT PUSH2 0x609 JUMPI PUSH2 0x19AF PUSH2 0x28AE JUMP JUMPDEST PUSH2 0x19B7 PUSH2 0x309C JUMP JUMPDEST PUSH1 0x1 PUSH1 0x1 PUSH1 0xA0 SHL SUB DUP2 AND PUSH2 0x19CC DUP2 ISZERO ISZERO PUSH2 0x2E84 JUMP JUMPDEST PUSH1 0xC SLOAD PUSH1 0x1 PUSH1 0x1 PUSH1 0xA0 SHL SUB AND EQ PUSH2 0x19EC JUMPI PUSH2 0xB30 SWAP1 PUSH2 0x171D PUSH2 0xB26 PUSH2 0x2C00 JUMP JUMPDEST PUSH1 0x40 MLOAD PUSH3 0x461BCD PUSH1 0xE5 SHL DUP2 MSTORE PUSH1 0x20 PUSH1 0x4 DUP3 ADD MSTORE PUSH1 0x1E PUSH1 0x24 DUP3 ADD MSTORE PUSH32 0x43616E6E6F74207265766F6B652066726F6D207072696D617279204445580000 PUSH1 0x44 DUP3 ADD MSTORE PUSH1 0x64 SWAP1 REVERT JUMPDEST CALLVALUE PUSH2 0x609 JUMPI PUSH1 0x0 CALLDATASIZE PUSH1 0x3 NOT ADD SLT PUSH2 0x609 JUMPI PUSH1 0x40 PUSH1 0x10 SLOAD DUP2 MLOAD SWAP1 PUSH8 0x8AC7230489E80000 DUP3 MSTORE PUSH1 0x20 DUP3 ADD MSTORE RETURN JUMPDEST PUSH2 0x28DA JUMP JUMPDEST CALLVALUE PUSH2 0x609 JUMPI PUSH1 0x0 CALLDATASIZE PUSH1 0x3 NOT ADD SLT PUSH2 0x609 JUMPI PUSH1 0x20 PUSH1 0x40 MLOAD PUSH1 0x3 DUP2 MSTORE RETURN JUMPDEST CALLVALUE PUSH2 0x609 JUMPI PUSH2 0x1A8B CALLDATASIZE PUSH2 0x2962 JUMP JUMPDEST SWAP1 DUP1 ISZERO ISZERO DUP1 PUSH2 0x1DED JUMPI JUMPDEST ISZERO PUSH2 0x1DA8 JUMPI PUSH1 0x1 PUSH1 0x1 PUSH1 0xA0 SHL SUB DUP4 AND SWAP3 DUP4 ISZERO PUSH2 0x1D6B JUMPI DUP4 PUSH1 0x0 MSTORE PUSH1 0x2 PUSH1 0x20 MSTORE PUSH1 0x40 PUSH1 0x0 KECCAK256 SLOAD ISZERO DUP1 PUSH2 0x1D55 JUMPI JUMPDEST ISZERO PUSH2 0x1CBA JUMPI JUMPDEST DUP4 PUSH1 0x0 MSTORE PUSH1 0x2 PUSH1 0x20 MSTORE PUSH2 0x1ADF DUP3 PUSH1 0x40 PUSH1 0x0 KECCAK256 SLOAD PUSH2 0x2E38 JUMP JUMPDEST PUSH1 0x10 SLOAD DUP1 SWAP2 GT ISZERO SWAP1 DUP2 PUSH2 0x1C98 JUMPI JUMPDEST POP ISZERO PUSH2 0x1C48 JUMPI PUSH2 0x1AFF DUP3 ADDRESS CALLER DUP8 PUSH2 0x34B1 JUMP JUMPDEST PUSH2 0x1B15 DUP4 ADDRESS CALLER PUSH1 0x1 DUP1 PUSH1 0xA0 SHL SUB PUSH1 0x5 SLOAD AND PUSH2 0x34B1 JUMP JUMPDEST DUP4 PUSH1 0x0 MSTORE PUSH1 0x2 PUSH1 0x20 MSTORE PUSH1 0x40 PUSH1 0x0 KECCAK256 PUSH2 0x1B2E DUP4 DUP3 SLOAD PUSH2 0x2E38 JUMP JUMPDEST SWAP1 SSTORE DUP4 PUSH1 0x0 MSTORE PUSH1 0x3 PUSH1 0x20 MSTORE PUSH1 0x40 PUSH1 0x0 KECCAK256 PUSH2 0x1B49 DUP5 DUP3 SLOAD PUSH2 0x2E38 JUMP JUMPDEST SWAP1 SSTORE DUP4 PUSH1 0x0 MSTORE PUSH1 0xA PUSH1 0x20 MSTORE PUSH1 0xFF PUSH1 0x40 PUSH1 0x0 KECCAK256 SLOAD AND ISZERO PUSH2 0x1B96 JUMPI JUMPDEST POP PUSH1 0x40 SWAP1 PUSH32 0xAC1D76749E5447B7B16F5AB61447E1BD502F3BB4807AF3B28E620D1700A6EE45 SWAP3 DUP3 MLOAD SWAP2 DUP3 MSTORE PUSH1 0x20 DUP3 ADD MSTORE LOG2 STOP JUMPDEST SWAP1 PUSH1 0x9 SLOAD SWAP3 PUSH1 0x1 PUSH1 0x40 SHL DUP5 LT ISZERO PUSH2 0x15AB JUMPI PUSH2 0x1C02 PUSH1 0x40 SWAP4 PUSH2 0x1BDE DUP7 PUSH1 0x1 PUSH32 0xAC1D76749E5447B7B16F5AB61447E1BD502F3BB4807AF3B28E620D1700A6EE45 SWAP9 ADD PUSH1 0x9 SSTORE PUSH2 0x2919 JUMP JUMPDEST DUP2 SLOAD PUSH1 0x1 PUSH1 0x1 PUSH1 0xA0 SHL SUB SWAP4 DUP5 AND PUSH1 0x3 SWAP3 SWAP1 SWAP3 SHL SWAP2 DUP3 SHL SWAP4 SWAP1 SWAP2 SHL NOT AND SWAP2 SWAP1 SWAP2 OR SWAP1 SSTORE JUMP JUMPDEST DUP5 PUSH1 0x0 MSTORE PUSH1 0xA PUSH1 0x20 MSTORE DUP3 PUSH1 0x0 KECCAK256 PUSH1 0x1 PUSH1 0xFF NOT DUP3 SLOAD AND OR SWAP1 SSTORE DUP5 PUSH32 0x402F8A396B78C225022A54972367FD98A174C970FBF537400BB383A0690EBD78 PUSH1 0x0 DUP1 LOG2 SWAP3 POP SWAP1 PUSH2 0x1B63 JUMP JUMPDEST PUSH1 0x40 MLOAD PUSH3 0x461BCD PUSH1 0xE5 SHL DUP2 MSTORE PUSH1 0x20 PUSH1 0x4 DUP3 ADD MSTORE PUSH1 0x22 PUSH1 0x24 DUP3 ADD MSTORE PUSH32 0x45786365656473206D6178696D756D206C69717569646974792070657220706F PUSH1 0x44 DUP3 ADD MSTORE PUSH2 0x1BDB PUSH1 0xF2 SHL PUSH1 0x64 DUP3 ADD MSTORE PUSH1 0x84 SWAP1 REVERT JUMPDEST SWAP1 POP DUP5 PUSH1 0x0 MSTORE PUSH1 0x3 PUSH1 0x20 MSTORE PUSH2 0x1CB2 DUP5 PUSH1 0x40 PUSH1 0x0 KECCAK256 SLOAD PUSH2 0x2E38 JUMP JUMPDEST GT ISZERO DUP6 PUSH2 0x1AED JUMP JUMPDEST DUP4 PUSH1 0x0 MSTORE PUSH1 0x2 PUSH1 0x20 MSTORE PUSH8 0x8AC7230489E80000 PUSH2 0x1CDB DUP4 PUSH1 0x40 PUSH1 0x0 KECCAK256 SLOAD PUSH2 0x2E38 JUMP JUMPDEST LT ISZERO DUP1 PUSH2 0x1D2C JUMPI JUMPDEST PUSH2 0x1AC7 JUMPI PUSH1 0x40 MLOAD PUSH3 0x461BCD PUSH1 0xE5 SHL DUP2 MSTORE PUSH1 0x20 PUSH1 0x4 DUP3 ADD MSTORE PUSH1 0x17 PUSH1 0x24 DUP3 ADD MSTORE PUSH32 0x42656C6F77206D696E696D756D206C6971756964697479000000000000000000 PUSH1 0x44 DUP3 ADD MSTORE PUSH1 0x64 SWAP1 REVERT JUMPDEST POP DUP4 PUSH1 0x0 MSTORE PUSH1 0x3 PUSH1 0x20 MSTORE PUSH8 0x8AC7230489E80000 PUSH2 0x1D4E DUP5 PUSH1 0x40 PUSH1 0x0 KECCAK256 SLOAD PUSH2 0x2E38 JUMP JUMPDEST LT ISZERO PUSH2 0x1CE3 JUMP JUMPDEST POP DUP4 PUSH1 0x0 MSTORE PUSH1 0x3 PUSH1 0x20 MSTORE PUSH1 0x40 PUSH1 0x0 KECCAK256 SLOAD ISZERO PUSH2 0x1AC1 JUMP JUMPDEST PUSH1 0x40 MLOAD PUSH3 0x461BCD PUSH1 0xE5 SHL DUP2 MSTORE PUSH1 0x20 PUSH1 0x4 DUP3 ADD MSTORE PUSH1 0x15 PUSH1 0x24 DUP3 ADD MSTORE PUSH21 0x24B73B30B634B21031B932B0BA37B9103A37B5B2B7 PUSH1 0x59 SHL PUSH1 0x44 DUP3 ADD MSTORE PUSH1 0x64 SWAP1 REVERT JUMPDEST PUSH1 0x40 MLOAD PUSH3 0x461BCD PUSH1 0xE5 SHL DUP2 MSTORE PUSH1 0x20 PUSH1 0x4 DUP3 ADD MSTORE PUSH1 0x19 PUSH1 0x24 DUP3 ADD MSTORE PUSH32 0x496E76616C6964206C697175696469747920616D6F756E747300000000000000 PUSH1 0x44 DUP3 ADD MSTORE PUSH1 0x64 SWAP1 REVERT JUMPDEST POP DUP2 ISZERO ISZERO PUSH2 0x1A95 JUMP JUMPDEST CALLVALUE PUSH2 0x609 JUMPI PUSH1 0x40 CALLDATASIZE PUSH1 0x3 NOT ADD SLT PUSH2 0x609 JUMPI PUSH2 0x1E0F PUSH2 0x28AE JUMP JUMPDEST PUSH1 0x24 CALLDATALOAD SWAP1 PUSH2 0x1E1B PUSH2 0x309C JUMP JUMPDEST PUSH1 0x1 DUP1 PUSH1 0xA0 SHL SUB AND SWAP1 DUP2 PUSH1 0x0 MSTORE PUSH1 0x8 PUSH1 0x20 MSTORE PUSH1 0x40 PUSH1 0x0 KECCAK256 SWAP1 PUSH2 0x1E43 PUSH1 0xFF PUSH1 0x3 DUP5 ADD SLOAD AND PUSH2 0x2E45 JUMP JUMPDEST PUSH1 0x4 DUP3 ADD SWAP1 DUP2 SLOAD SWAP3 PUSH1 0x6 DUP5 LT ISZERO PUSH2 0x20C0 JUMPI PUSH1 0x1 PUSH1 0x40 SHL DUP5 LT ISZERO PUSH2 0x15AB JUMPI PUSH1 0x40 DUP3 DUP7 SWAP4 PUSH1 0x1 PUSH32 0x469B6894B4B45F49C7C10AA3E70E1FAE20F0EBA89B628E3D69AF9D7A34EF8BCF SWAP5 PUSH2 0x1E9A DUP10 DUP4 PUSH1 0x6 SWAP12 ADD DUP11 SSTORE DUP10 PUSH2 0x294A JUMP JUMPDEST DUP2 SLOAD SWAP1 PUSH1 0x3 SHL SWAP1 DUP6 DUP3 SHL SWAP2 PUSH1 0x0 NOT SWAP1 SHL NOT AND OR SWAP1 SSTORE ADD SSTORE DUP2 MLOAD SWAP1 DUP2 MSTORE TIMESTAMP PUSH1 0x20 DUP3 ADD MSTORE LOG2 SLOAD EQ PUSH2 0x1EC5 JUMPI STOP JUMPDEST PUSH2 0x1ECD PUSH2 0x309C JUMP JUMPDEST DUP1 PUSH1 0x0 MSTORE PUSH1 0x8 PUSH1 0x20 MSTORE PUSH1 0x40 PUSH1 0x0 KECCAK256 PUSH1 0x3 DUP2 ADD SWAP1 PUSH2 0x1EED PUSH1 0xFF DUP4 SLOAD AND PUSH2 0x2E45 JUMP JUMPDEST PUSH1 0x2 DUP2 ADD SLOAD PUSH1 0x78 DUP2 ADD DUP1 SWAP2 GT PUSH2 0x4B3 JUMPI TIMESTAMP LT PUSH2 0x5C4 JUMPI PUSH1 0x0 DUP4 DUP2 MSTORE PUSH1 0x8 PUSH1 0x20 MSTORE PUSH1 0x40 DUP2 KECCAK256 PUSH1 0x4 ADD DUP1 SLOAD DUP3 SWAP2 SWAP1 DUP3 JUMPDEST DUP2 DUP2 LT PUSH2 0x201C JUMPI POP POP DUP2 ISZERO SWAP1 POP PUSH2 0x2013 JUMPI PUSH2 0x1F35 SWAP2 PUSH2 0x29AF JUMP JUMPDEST DUP1 PUSH8 0xDE0B6B3A7640000 MUL SWAP1 PUSH8 0xDE0B6B3A7640000 DUP3 DIV SUB PUSH2 0x4B3 JUMPI PUSH2 0x2710 SWAP1 DIV PUSH8 0xDE0B6B3A7640000 ADD SWAP1 DUP2 PUSH8 0xDE0B6B3A7640000 GT PUSH2 0x4B3 JUMPI PUSH32 0x928602A1348C2D5CC6354F7E6953A38BFAF42426CD5D8C83DC7C42B972CFCDB0 SWAP3 PUSH2 0x432 PUSH1 0x1 SWAP3 DUP5 DUP8 PUSH1 0x40 SWAP7 SWAP2 PUSH8 0x29A2241AF62C0000 DUP2 GT PUSH2 0x1FC9 JUMPI POP POP PUSH8 0x16345785D8A0000 DUP2 GT ISZERO PUSH2 0x457 JUMPI SWAP4 DUP5 SWAP2 ADD SLOAD PUSH2 0x29CF JUMP JUMPDEST PUSH32 0xFBB0338B3040D7B9BD8495DE3D07128625B3EAD1C3464340ED2E760A015D7447 SWAP2 SWAP3 POP DUP8 SWAP1 DUP2 MLOAD SWAP1 DUP2 MSTORE PUSH8 0x29A2241AF62C0000 PUSH1 0x20 DUP3 ADD MSTORE LOG2 PUSH8 0x29A2241AF62C0000 DUP8 DUP10 PUSH2 0x415 JUMP JUMPDEST POP POP PUSH1 0x0 PUSH2 0x1F35 JUMP JUMPDEST DUP1 PUSH2 0x202A JUMPI JUMPDEST PUSH1 0x1 ADD PUSH2 0x1F1B JUMP JUMPDEST PUSH2 0x2034 DUP2 DUP5 PUSH2 0x294A JUMP JUMPDEST SWAP1 SLOAD PUSH1 0x0 NOT DUP4 ADD SWAP2 PUSH1 0x3 SHL SHR DUP3 DUP3 GT PUSH2 0x4B3 JUMPI PUSH2 0x2051 DUP3 DUP7 PUSH2 0x294A JUMP JUMPDEST SWAP1 SLOAD SWAP1 PUSH1 0x3 SHL SHR LT PUSH2 0x2064 JUMPI JUMPDEST POP PUSH2 0x2022 JUMP JUMPDEST PUSH2 0x2072 DUP3 DUP6 SWAP8 SWAP4 SWAP7 SWAP8 PUSH2 0x294A JUMP JUMPDEST SWAP1 SLOAD SWAP1 PUSH1 0x3 SHL SHR SWAP1 PUSH2 0x208A PUSH1 0x0 SWAP3 PUSH2 0x540 DUP4 DUP9 PUSH2 0x294A JUMP JUMPDEST SWAP2 PUSH2 0x2710 DUP4 MUL SWAP3 DUP1 DUP5 DIV PUSH2 0x2710 EQ SWAP1 ISZERO OR ISZERO PUSH2 0x5B0 JUMPI SWAP3 PUSH2 0x589 PUSH2 0x20B9 SWAP4 PUSH2 0x57C PUSH2 0x59D SWAP5 PUSH1 0x1 SWAP8 POP DUP10 PUSH2 0x294A JUMP JUMPDEST SWAP4 SWAP1 PUSH2 0x205E JUMP JUMPDEST PUSH1 0x40 MLOAD PUSH3 0x461BCD PUSH1 0xE5 SHL DUP2 MSTORE PUSH1 0x20 PUSH1 0x4 DUP3 ADD MSTORE PUSH1 0x15 PUSH1 0x24 DUP3 ADD MSTORE PUSH21 0x13585E081CDB985C1CDA1BDD1CC81C995858DA1959 PUSH1 0x5A SHL PUSH1 0x44 DUP3 ADD MSTORE PUSH1 0x64 SWAP1 REVERT JUMPDEST CALLVALUE PUSH2 0x609 JUMPI PUSH1 0x0 CALLDATASIZE PUSH1 0x3 NOT ADD SLT PUSH2 0x609 JUMPI PUSH1 0x20 PUSH1 0x40 MLOAD PUSH3 0x93A80 DUP2 MSTORE RETURN JUMPDEST CALLVALUE PUSH2 0x609 JUMPI PUSH1 0x20 CALLDATASIZE PUSH1 0x3 NOT ADD SLT PUSH2 0x609 JUMPI PUSH2 0x2134 PUSH2 0x28AE JUMP JUMPDEST PUSH1 0x6 SLOAD PUSH1 0x78 DUP2 ADD DUP1 SWAP2 GT PUSH2 0x4B3 JUMPI TIMESTAMP LT PUSH2 0x2170 JUMPI PUSH1 0x1 PUSH1 0x1 PUSH1 0xA0 SHL SUB DUP2 AND PUSH1 0x0 SWAP1 DUP2 MSTORE PUSH1 0x7 PUSH1 0x20 MSTORE PUSH1 0x40 SWAP1 KECCAK256 SLOAD PUSH2 0x216A SWAP2 PUSH2 0x3229 JUMP JUMPDEST TIMESTAMP PUSH1 0x6 SSTORE STOP JUMPDEST PUSH1 0x40 MLOAD PUSH3 0x461BCD PUSH1 0xE5 SHL DUP2 MSTORE PUSH1 0x20 PUSH1 0x4 DUP3 ADD MSTORE PUSH1 0x17 PUSH1 0x24 DUP3 ADD MSTORE PUSH32 0x546F6F206561726C7920666F7220726562616C616E6365000000000000000000 PUSH1 0x44 DUP3 ADD MSTORE PUSH1 0x64 SWAP1 REVERT JUMPDEST CALLVALUE PUSH2 0x609 JUMPI PUSH1 0x20 CALLDATASIZE PUSH1 0x3 NOT ADD SLT PUSH2 0x609 JUMPI PUSH1 0x40 PUSH2 0x21D8 PUSH2 0x21D3 PUSH2 0x28AE JUMP JUMPDEST PUSH2 0x2DA3 JUMP JUMPDEST DUP3 MLOAD SWAP2 DUP3 MSTORE PUSH1 0x20 DUP3 ADD MSTORE RETURN JUMPDEST CALLVALUE PUSH2 0x609 JUMPI PUSH1 0x20 CALLDATASIZE PUSH1 0x3 NOT ADD SLT PUSH2 0x609 JUMPI PUSH1 0x4 CALLDATALOAD PUSH2 0x2200 PUSH2 0x309C JUMP JUMPDEST PUSH2 0x220B DUP2 ISZERO ISZERO PUSH2 0x2D58 JUMP JUMPDEST PUSH1 0xC SLOAD PUSH1 0x1 PUSH1 0x1 PUSH1 0xA0 SHL SUB AND DUP1 ISZERO PUSH2 0x2320 JUMPI PUSH1 0x5 SLOAD PUSH1 0x40 MLOAD PUSH4 0x70A08231 PUSH1 0xE0 SHL DUP2 MSTORE ADDRESS PUSH1 0x4 DUP3 ADD MSTORE PUSH1 0x1 PUSH1 0x1 PUSH1 0xA0 SHL SUB SWAP1 SWAP2 AND SWAP1 PUSH1 0x20 DUP2 PUSH1 0x24 DUP2 DUP6 GAS STATICCALL DUP1 ISZERO PUSH2 0xCF1 JUMPI DUP5 SWAP2 PUSH1 0x0 SWAP2 PUSH2 0x22EB JUMPI JUMPDEST POP LT PUSH2 0x22A6 JUMPI PUSH2 0x2269 SWAP2 DUP4 SWAP2 PUSH2 0x3471 JUMP JUMPDEST PUSH32 0x5743C23AA18E9C7C385E45094156D20B8A0436DDC5E68943713E62CE630951A1 PUSH1 0x40 PUSH1 0x1 DUP1 PUSH1 0xA0 SHL SUB PUSH1 0xC SLOAD AND SWAP3 DUP2 MLOAD SWAP1 DUP2 MSTORE TIMESTAMP PUSH1 0x20 DUP3 ADD MSTORE LOG2 STOP JUMPDEST PUSH1 0x40 MLOAD PUSH3 0x461BCD PUSH1 0xE5 SHL DUP2 MSTORE PUSH1 0x20 PUSH1 0x4 DUP3 ADD MSTORE PUSH1 0x1A PUSH1 0x24 DUP3 ADD MSTORE PUSH32 0x496E73756666696369656E7420434F52414C2062616C616E6365000000000000 PUSH1 0x44 DUP3 ADD MSTORE PUSH1 0x64 SWAP1 REVERT JUMPDEST SWAP2 POP POP PUSH1 0x20 DUP2 RETURNDATASIZE PUSH1 0x20 GT PUSH2 0x2318 JUMPI JUMPDEST DUP2 PUSH2 0x2307 PUSH1 0x20 SWAP4 DUP4 PUSH2 0x2BD1 JUMP JUMPDEST DUP2 ADD SUB SLT PUSH2 0x609 JUMPI DUP4 SWAP1 MLOAD DUP6 PUSH2 0x2258 JUMP JUMPDEST RETURNDATASIZE SWAP2 POP PUSH2 0x22FA JUMP JUMPDEST PUSH1 0x40 MLOAD PUSH3 0x461BCD PUSH1 0xE5 SHL DUP2 MSTORE PUSH1 0x20 PUSH1 0x4 DUP3 ADD MSTORE PUSH1 0x16 PUSH1 0x24 DUP3 ADD MSTORE PUSH22 0x111156081859191C995CDCC81A5CC81B9BDD081CD95D PUSH1 0x52 SHL PUSH1 0x44 DUP3 ADD MSTORE PUSH1 0x64 SWAP1 REVERT JUMPDEST CALLVALUE PUSH2 0x609 JUMPI PUSH1 0x40 CALLDATASIZE PUSH1 0x3 NOT ADD SLT PUSH2 0x609 JUMPI PUSH2 0x2377 PUSH2 0x28C4 JUMP JUMPDEST CALLER PUSH1 0x1 PUSH1 0x1 PUSH1 0xA0 SHL SUB DUP3 AND SUB PUSH2 0x2393 JUMPI PUSH2 0xB30 SWAP1 PUSH1 0x4 CALLDATALOAD PUSH2 0x33EB JUMP JUMPDEST PUSH4 0x334BD919 PUSH1 0xE1 SHL PUSH1 0x0 MSTORE PUSH1 0x4 PUSH1 0x0 REVERT JUMPDEST CALLVALUE PUSH2 0x609 JUMPI PUSH1 0x40 CALLDATASIZE PUSH1 0x3 NOT ADD SLT PUSH2 0x609 JUMPI PUSH2 0xB30 PUSH2 0x23C0 PUSH2 0x28AE JUMP JUMPDEST PUSH2 0x23C8 PUSH2 0x309C JUMP JUMPDEST PUSH1 0x24 CALLDATALOAD SWAP1 PUSH2 0x2C4B JUMP JUMPDEST CALLVALUE PUSH2 0x609 JUMPI PUSH1 0x0 CALLDATASIZE PUSH1 0x3 NOT ADD SLT PUSH2 0x609 JUMPI PUSH1 0x20 PUSH1 0x40 MLOAD PUSH1 0x6 DUP2 MSTORE RETURN JUMPDEST CALLVALUE PUSH2 0x609 JUMPI PUSH1 0x0 CALLDATASIZE PUSH1 0x3 NOT ADD SLT PUSH2 0x609 JUMPI PUSH1 0x20 PUSH1 0x40 MLOAD PUSH2 0x3E8 DUP2 MSTORE RETURN JUMPDEST CALLVALUE PUSH2 0x609 JUMPI PUSH1 0x40 CALLDATASIZE PUSH1 0x3 NOT ADD SLT PUSH2 0x609 JUMPI PUSH2 0xB30 PUSH1 0x4 CALLDATALOAD PUSH2 0x2429 PUSH2 0x28C4 JUMP JUMPDEST SWAP1 PUSH2 0x2445 PUSH2 0xB26 DUP3 PUSH1 0x0 MSTORE PUSH1 0x1 PUSH1 0x20 MSTORE PUSH1 0x1 PUSH1 0x40 PUSH1 0x0 KECCAK256 ADD SLOAD SWAP1 JUMP JUMPDEST PUSH2 0x319A JUMP JUMPDEST CALLVALUE PUSH2 0x609 JUMPI PUSH1 0x0 CALLDATASIZE PUSH1 0x3 NOT ADD SLT PUSH2 0x609 JUMPI PUSH1 0x20 PUSH1 0x40 MLOAD PUSH1 0x0 DUP1 MLOAD PUSH1 0x20 PUSH2 0x383E DUP4 CODECOPY DUP2 MLOAD SWAP2 MSTORE DUP2 MSTORE RETURN JUMPDEST CALLVALUE PUSH2 0x609 JUMPI PUSH1 0x0 CALLDATASIZE PUSH1 0x3 NOT ADD SLT PUSH2 0x609 JUMPI PUSH1 0x20 PUSH1 0x40 MLOAD PUSH2 0xE10 DUP2 MSTORE RETURN JUMPDEST CALLVALUE PUSH2 0x609 JUMPI PUSH1 0x20 CALLDATASIZE PUSH1 0x3 NOT ADD SLT PUSH2 0x609 JUMPI PUSH1 0x20 PUSH2 0x24BD PUSH1 0x4 CALLDATALOAD PUSH1 0x0 MSTORE PUSH1 0x1 PUSH1 0x20 MSTORE PUSH1 0x1 PUSH1 0x40 PUSH1 0x0 KECCAK256 ADD SLOAD SWAP1 JUMP JUMPDEST PUSH1 0x40 MLOAD SWAP1 DUP2 MSTORE RETURN JUMPDEST CALLVALUE PUSH2 0x609 JUMPI PUSH1 0x20 CALLDATASIZE PUSH1 0x3 NOT ADD SLT PUSH2 0x609 JUMPI PUSH1 0x4 CALLDATALOAD PUSH1 0x9 SLOAD DUP2 LT ISZERO PUSH2 0x609 JUMPI PUSH2 0x24EE PUSH1 0x20 SWAP2 PUSH2 0x2919 JUMP JUMPDEST SWAP1 SLOAD PUSH1 0x40 MLOAD PUSH1 0x3 SWAP3 SWAP1 SWAP3 SHL SHR PUSH1 0x1 PUSH1 0x1 PUSH1 0xA0 SHL SUB AND DUP2 MSTORE RETURN JUMPDEST CALLVALUE PUSH2 0x609 JUMPI PUSH1 0x20 CALLDATASIZE PUSH1 0x3 NOT ADD SLT PUSH2 0x609 JUMPI PUSH2 0x2520 PUSH2 0x28AE JUMP JUMPDEST PUSH2 0x2528 PUSH2 0x309C JUMP JUMPDEST PUSH1 0x1 PUSH1 0x1 PUSH1 0xA0 SHL SUB AND PUSH1 0x0 DUP2 DUP2 MSTORE PUSH1 0xA PUSH1 0x20 MSTORE PUSH1 0x40 SWAP1 KECCAK256 SLOAD PUSH1 0xFF AND ISZERO PUSH2 0x264D JUMPI PUSH1 0x0 JUMPDEST PUSH1 0x9 SLOAD SWAP1 DUP2 DUP2 LT ISZERO PUSH2 0x2646 JUMPI DUP3 PUSH2 0x2561 DUP3 PUSH2 0x2919 JUMP JUMPDEST SWAP1 SLOAD PUSH1 0x3 SWAP2 SWAP1 SWAP2 SHL SHR PUSH1 0x1 PUSH1 0x1 PUSH1 0xA0 SHL SUB AND EQ PUSH2 0x2582 JUMPI PUSH1 0x1 SWAP2 POP ADD PUSH2 0x254B JUMP JUMPDEST PUSH1 0x0 NOT DUP3 ADD SWAP2 DUP3 GT PUSH2 0x4B3 JUMPI DUP2 DUP2 SUB PUSH2 0x2618 JUMPI JUMPDEST POP POP PUSH1 0x9 SLOAD DUP1 ISZERO PUSH2 0x2602 JUMPI PUSH1 0x0 NOT ADD PUSH2 0x25AE DUP2 PUSH2 0x2919 JUMP JUMPDEST DUP2 SLOAD SWAP1 PUSH1 0x1 DUP1 PUSH1 0xA0 SHL SUB SWAP1 PUSH1 0x3 SHL SHL NOT AND SWAP1 SSTORE PUSH1 0x9 SSTORE JUMPDEST DUP1 PUSH1 0x0 MSTORE PUSH1 0xA PUSH1 0x20 MSTORE PUSH1 0x40 PUSH1 0x0 KECCAK256 PUSH1 0xFF NOT DUP2 SLOAD AND SWAP1 SSTORE PUSH32 0xFE00C1E8CD2C81E2FC9FBCFBD6EEF9904D0B41515821320D5C45ABE6E8BAAE55 PUSH1 0x0 DUP1 LOG2 STOP JUMPDEST PUSH4 0x4E487B71 PUSH1 0xE0 SHL PUSH1 0x0 MSTORE PUSH1 0x31 PUSH1 0x4 MSTORE PUSH1 0x24 PUSH1 0x0 REVERT JUMPDEST PUSH2 0x1BDE PUSH2 0x2627 PUSH2 0x263F SWAP4 PUSH2 0x2919 JUMP JUMPDEST SWAP1 SLOAD PUSH1 0x3 SWAP2 SWAP1 SWAP2 SHL SHR PUSH1 0x1 PUSH1 0x1 PUSH1 0xA0 SHL SUB AND SWAP2 PUSH2 0x2919 JUMP JUMPDEST DUP2 DUP1 PUSH2 0x2596 JUMP JUMPDEST POP POP PUSH2 0x25C5 JUMP JUMPDEST PUSH1 0x40 MLOAD PUSH3 0x461BCD PUSH1 0xE5 SHL DUP2 MSTORE PUSH1 0x20 PUSH1 0x4 DUP3 ADD MSTORE PUSH1 0x10 PUSH1 0x24 DUP3 ADD MSTORE PUSH16 0x141BDBDB081B9BDD081D1C9858DAD959 PUSH1 0x82 SHL PUSH1 0x44 DUP3 ADD MSTORE PUSH1 0x64 SWAP1 REVERT JUMPDEST CALLVALUE PUSH2 0x609 JUMPI PUSH1 0x20 CALLDATASIZE PUSH1 0x3 NOT ADD SLT PUSH2 0x609 JUMPI PUSH1 0x1 PUSH1 0x1 PUSH1 0xA0 SHL SUB PUSH2 0x26A6 PUSH2 0x28AE JUMP JUMPDEST AND PUSH1 0x0 MSTORE PUSH1 0x4 PUSH1 0x20 MSTORE PUSH1 0x20 PUSH1 0x40 PUSH1 0x0 KECCAK256 SLOAD PUSH1 0x40 MLOAD SWAP1 DUP2 MSTORE RETURN JUMPDEST CALLVALUE PUSH2 0x609 JUMPI PUSH1 0x20 CALLDATASIZE PUSH1 0x3 NOT ADD SLT PUSH2 0x609 JUMPI PUSH2 0x26D8 PUSH2 0x28AE JUMP JUMPDEST PUSH1 0x40 DUP1 MLOAD PUSH4 0xFA67079 PUSH1 0xE2 SHL DUP2 MSTORE PUSH1 0x1 PUSH1 0x1 PUSH1 0xA0 SHL SUB SWAP1 SWAP3 AND PUSH1 0x4 DUP4 ADD MSTORE DUP2 PUSH1 0x24 DUP2 ADDRESS GAS STATICCALL DUP1 ISZERO PUSH2 0xCF1 JUMPI PUSH1 0x0 SWAP1 DUP2 SWAP1 PUSH2 0x275B JUMPI JUMPDEST PUSH1 0x20 SWAP3 POP PUSH8 0x8AC7230489E80000 DUP3 LT ISZERO SWAP2 DUP3 PUSH2 0x274E JUMPI JUMPDEST POP DUP2 PUSH2 0x273B JUMPI JUMPDEST DUP2 PUSH2 0x7A8 JUMPI POP PUSH1 0x40 MLOAD SWAP1 ISZERO ISZERO DUP2 MSTORE RETURN JUMPDEST PUSH8 0x8AC7230489E80000 DUP2 LT ISZERO SWAP2 POP PUSH2 0x272B JUMP JUMPDEST PUSH1 0x10 SLOAD LT ISZERO SWAP2 POP DUP4 PUSH2 0x2724 JUMP JUMPDEST POP SWAP1 PUSH1 0x40 DUP2 RETURNDATASIZE PUSH1 0x40 GT PUSH2 0x2791 JUMPI JUMPDEST DUP2 PUSH2 0x2776 PUSH1 0x40 SWAP4 DUP4 PUSH2 0x2BD1 JUMP JUMPDEST DUP2 ADD SUB SLT PUSH2 0x278D JUMPI PUSH1 0x20 DUP1 SWAP3 POP DUP2 MLOAD SWAP2 ADD MLOAD PUSH2 0x270D JUMP JUMPDEST POP DUP1 REVERT JUMPDEST RETURNDATASIZE SWAP2 POP PUSH2 0x2769 JUMP JUMPDEST CALLVALUE PUSH2 0x609 JUMPI PUSH1 0x0 CALLDATASIZE PUSH1 0x3 NOT ADD SLT PUSH2 0x609 JUMPI PUSH1 0x20 PUSH1 0x40 MLOAD PUSH8 0x4563918244F40000 DUP2 MSTORE RETURN JUMPDEST CALLVALUE PUSH2 0x609 JUMPI PUSH1 0x0 CALLDATASIZE PUSH1 0x3 NOT ADD SLT PUSH2 0x609 JUMPI PUSH1 0x20 PUSH1 0x40 MLOAD PUSH8 0x16345785D8A0000 DUP2 MSTORE RETURN JUMPDEST CALLVALUE PUSH2 0x609 JUMPI PUSH1 0x40 CALLDATASIZE PUSH1 0x3 NOT ADD SLT PUSH2 0x609 JUMPI PUSH1 0x20 PUSH2 0x24BD PUSH1 0x24 CALLDATALOAD PUSH1 0x4 CALLDATALOAD PUSH2 0x29CF JUMP JUMPDEST CALLVALUE PUSH2 0x609 JUMPI PUSH1 0x20 CALLDATASIZE PUSH1 0x3 NOT ADD SLT PUSH2 0x609 JUMPI PUSH1 0x1 PUSH1 0x1 PUSH1 0xA0 SHL SUB PUSH2 0x2821 PUSH2 0x28AE JUMP JUMPDEST AND PUSH1 0x0 MSTORE PUSH1 0xB PUSH1 0x20 MSTORE PUSH1 0x40 PUSH1 0x0 KECCAK256 DUP1 SLOAD PUSH2 0xA97 PUSH1 0x2 PUSH1 0x1 DUP5 ADD SLOAD SWAP4 ADD SLOAD PUSH1 0x40 MLOAD SWAP4 DUP5 SWAP4 DUP5 PUSH1 0x40 SWAP2 SWAP5 SWAP4 SWAP3 PUSH1 0x60 DUP3 ADD SWAP6 DUP3 MSTORE PUSH1 0x20 DUP3 ADD MSTORE ADD MSTORE JUMP JUMPDEST CALLVALUE PUSH2 0x609 JUMPI PUSH1 0x20 CALLDATASIZE PUSH1 0x3 NOT ADD SLT PUSH2 0x609 JUMPI PUSH1 0x4 CALLDATALOAD SWAP1 PUSH4 0xFFFFFFFF PUSH1 0xE0 SHL DUP3 AND DUP1 SWAP3 SUB PUSH2 0x609 JUMPI PUSH1 0x20 SWAP2 PUSH4 0x7965DB0B PUSH1 0xE0 SHL DUP2 EQ SWAP1 DUP2 ISZERO PUSH2 0x289D JUMPI JUMPDEST POP ISZERO ISZERO DUP2 MSTORE RETURN JUMPDEST PUSH4 0x1FFC9A7 PUSH1 0xE0 SHL EQ SWAP1 POP DUP4 PUSH2 0x2896 JUMP JUMPDEST PUSH1 0x4 CALLDATALOAD SWAP1 PUSH1 0x1 PUSH1 0x1 PUSH1 0xA0 SHL SUB DUP3 AND DUP3 SUB PUSH2 0x609 JUMPI JUMP JUMPDEST PUSH1 0x24 CALLDATALOAD SWAP1 PUSH1 0x1 PUSH1 0x1 PUSH1 0xA0 SHL SUB DUP3 AND DUP3 SUB PUSH2 0x609 JUMPI JUMP JUMPDEST CALLVALUE PUSH2 0x609 JUMPI PUSH1 0x0 CALLDATASIZE PUSH1 0x3 NOT ADD SLT PUSH2 0x609 JUMPI PUSH1 0x20 PUSH1 0x40 MLOAD PUSH1 0x78 DUP2 MSTORE RETURN JUMPDEST CALLVALUE PUSH2 0x609 JUMPI PUSH1 0x0 CALLDATASIZE PUSH1 0x3 NOT ADD SLT PUSH2 0x609 JUMPI PUSH1 0x20 PUSH1 0x40 MLOAD PUSH8 0x8AC7230489E80000 DUP2 MSTORE RETURN JUMPDEST PUSH1 0x9 SLOAD DUP2 LT ISZERO PUSH2 0x2934 JUMPI PUSH1 0x9 PUSH1 0x0 MSTORE PUSH1 0x20 PUSH1 0x0 KECCAK256 ADD SWAP1 PUSH1 0x0 SWAP1 JUMP JUMPDEST PUSH4 0x4E487B71 PUSH1 0xE0 SHL PUSH1 0x0 MSTORE PUSH1 0x32 PUSH1 0x4 MSTORE PUSH1 0x24 PUSH1 0x0 REVERT JUMPDEST DUP1 SLOAD DUP3 LT ISZERO PUSH2 0x2934 JUMPI PUSH1 0x0 MSTORE PUSH1 0x20 PUSH1 0x0 KECCAK256 ADD SWAP1 PUSH1 0x0 SWAP1 JUMP JUMPDEST PUSH1 0x60 SWAP1 PUSH1 0x3 NOT ADD SLT PUSH2 0x609 JUMPI PUSH1 0x4 CALLDATALOAD PUSH1 0x1 PUSH1 0x1 PUSH1 0xA0 SHL SUB DUP2 AND DUP2 SUB PUSH2 0x609 JUMPI SWAP1 PUSH1 0x24 CALLDATALOAD SWAP1 PUSH1 0x44 CALLDATALOAD SWAP1 JUMP JUMPDEST CALLVALUE PUSH2 0x609 JUMPI PUSH1 0x0 CALLDATASIZE PUSH1 0x3 NOT ADD SLT PUSH2 0x609 JUMPI PUSH1 0x20 PUSH1 0x40 MLOAD PUSH8 0xDE0B6B3A7640000 DUP2 MSTORE RETURN JUMPDEST DUP2 ISZERO PUSH2 0x29B9 JUMPI DIV SWAP1 JUMP JUMPDEST PUSH4 0x4E487B71 PUSH1 0xE0 SHL PUSH1 0x0 MSTORE PUSH1 0x12 PUSH1 0x4 MSTORE PUSH1 0x24 PUSH1 0x0 REVERT JUMPDEST SWAP1 DUP2 ISZERO PUSH2 0x2B70 JUMPI PUSH8 0x16345785D8A0000 DUP2 LT PUSH2 0x2B35 JUMPI PUSH8 0x29A2241AF62C0000 DUP2 GT PUSH2 0x2AFA JUMPI DUP1 ISZERO PUSH2 0x29B9 JUMPI DUP1 PUSH1 0x0 NOT DIV DUP3 GT PUSH2 0x2AB5 JUMPI DUP1 DUP3 MUL SWAP2 DUP3 DIV SUB PUSH2 0x4B3 JUMPI PUSH8 0x8AC7230489E80000 DUP2 LT PUSH2 0x2A70 JUMPI PUSH1 0x10 SLOAD DUP2 GT PUSH2 0x2A2B JUMPI SWAP1 JUMP JUMPDEST PUSH1 0x40 MLOAD PUSH3 0x461BCD PUSH1 0xE5 SHL DUP2 MSTORE PUSH1 0x20 PUSH1 0x4 DUP3 ADD MSTORE PUSH1 0x17 PUSH1 0x24 DUP3 ADD MSTORE PUSH32 0x4C69717569646974792061626F7665206D6178696D756D000000000000000000 PUSH1 0x44 DUP3 ADD MSTORE PUSH1 0x64 SWAP1 REVERT JUMPDEST PUSH1 0x40 MLOAD PUSH3 0x461BCD PUSH1 0xE5 SHL DUP2 MSTORE PUSH1 0x20 PUSH1 0x4 DUP3 ADD MSTORE PUSH1 0x17 PUSH1 0x24 DUP3 ADD MSTORE PUSH32 0x4C69717569646974792062656C6F77206D696E696D756D000000000000000000 PUSH1 0x44 DUP3 ADD MSTORE PUSH1 0x64 SWAP1 REVERT JUMPDEST PUSH1 0x40 MLOAD PUSH3 0x461BCD PUSH1 0xE5 SHL DUP2 MSTORE PUSH1 0x20 PUSH1 0x4 DUP3 ADD MSTORE PUSH1 0x17 PUSH1 0x24 DUP3 ADD MSTORE PUSH32 0x4D756C7469706C69636174696F6E206F766572666C6F77000000000000000000 PUSH1 0x44 DUP3 ADD MSTORE PUSH1 0x64 SWAP1 REVERT JUMPDEST PUSH1 0x40 MLOAD PUSH3 0x461BCD PUSH1 0xE5 SHL DUP2 MSTORE PUSH1 0x20 PUSH1 0x4 DUP3 ADD MSTORE PUSH1 0x13 PUSH1 0x24 DUP3 ADD MSTORE PUSH19 0x50726963652061626F7665206D6178696D756D PUSH1 0x68 SHL PUSH1 0x44 DUP3 ADD MSTORE PUSH1 0x64 SWAP1 REVERT JUMPDEST PUSH1 0x40 MLOAD PUSH3 0x461BCD PUSH1 0xE5 SHL DUP2 MSTORE PUSH1 0x20 PUSH1 0x4 DUP3 ADD MSTORE PUSH1 0x13 PUSH1 0x24 DUP3 ADD MSTORE PUSH19 0x50726963652062656C6F77206D696E696D756D PUSH1 0x68 SHL PUSH1 0x44 DUP3 ADD MSTORE PUSH1 0x64 SWAP1 REVERT JUMPDEST PUSH1 0x40 MLOAD PUSH3 0x461BCD PUSH1 0xE5 SHL DUP2 MSTORE PUSH1 0x20 PUSH1 0x4 DUP3 ADD MSTORE PUSH1 0x18 PUSH1 0x24 DUP3 ADD MSTORE PUSH32 0x496E76616C6964207375627363726962657220636F756E740000000000000000 PUSH1 0x44 DUP3 ADD MSTORE PUSH1 0x64 SWAP1 REVERT JUMPDEST PUSH1 0x60 DUP2 ADD SWAP1 DUP2 LT PUSH8 0xFFFFFFFFFFFFFFFF DUP3 GT OR PUSH2 0x15AB JUMPI PUSH1 0x40 MSTORE JUMP JUMPDEST SWAP1 PUSH1 0x1F DUP1 NOT SWAP2 ADD AND DUP2 ADD SWAP1 DUP2 LT PUSH8 0xFFFFFFFFFFFFFFFF DUP3 GT OR PUSH2 0x15AB JUMPI PUSH1 0x40 MSTORE JUMP JUMPDEST SWAP2 SWAP1 DUP3 SUB SWAP2 DUP3 GT PUSH2 0x4B3 JUMPI JUMP JUMPDEST PUSH1 0x0 DUP1 MLOAD PUSH1 0x20 PUSH2 0x383E DUP4 CODECOPY DUP2 MLOAD SWAP2 MSTORE PUSH1 0x0 MSTORE PUSH1 0x1 PUSH1 0x20 MSTORE PUSH32 0x7ADA6DBB520616CFF5D6F574AFF5A85F6D0DABE1F7D96C08FE8E54D79BFCA6E1 SLOAD SWAP1 JUMP JUMPDEST PUSH1 0x0 NOT DUP2 EQ PUSH2 0x4B3 JUMPI PUSH1 0x1 ADD SWAP1 JUMP JUMPDEST PUSH1 0x1 PUSH1 0x1 PUSH1 0xA0 SHL SUB DUP2 AND PUSH1 0x0 DUP2 DUP2 MSTORE PUSH1 0x7 PUSH1 0x20 MSTORE PUSH1 0x40 SWAP1 KECCAK256 DUP1 SLOAD SWAP3 SWAP4 SWAP2 SWAP3 ISZERO PUSH2 0x2D44 JUMPI PUSH1 0x1 DUP2 ADD SWAP3 DUP4 SLOAD PUSH1 0x50 DUP2 MUL SWAP1 DUP1 DUP3 DIV PUSH1 0x50 EQ SWAP1 ISZERO OR ISZERO PUSH2 0x4B3 JUMPI PUSH1 0x14 DUP5 MUL SWAP3 DUP5 DUP5 DIV PUSH1 0x14 EQ DUP6 ISZERO OR ISZERO PUSH2 0x4B3 JUMPI PUSH2 0x2CAF PUSH1 0x3 SWAP5 SWAP3 PUSH1 0x64 DUP1 DUP8 SWAP6 DIV SWAP2 DIV PUSH2 0x2E38 JUMP JUMPDEST DUP1 SWAP7 DUP7 DUP4 SSTORE SSTORE TIMESTAMP PUSH1 0x2 DUP3 ADD SSTORE ADD SWAP1 PUSH2 0x2CC7 DUP3 SLOAD PUSH2 0x2C3C JUMP JUMPDEST DUP1 SWAP3 SSTORE PUSH32 0xCA21C0666034043E35144E1A6964B4519A124330E0122463475F81A0C189D119 PUSH1 0x40 MLOAD DUP1 PUSH2 0x2D0C TIMESTAMP DUP10 DUP10 DUP5 PUSH1 0x40 SWAP2 SWAP5 SWAP4 SWAP3 PUSH1 0x60 DUP3 ADD SWAP6 DUP3 MSTORE PUSH1 0x20 DUP3 ADD MSTORE ADD MSTORE JUMP JUMPDEST SUB SWAP1 LOG2 LT ISZERO PUSH2 0x2D1A JUMPI POP POP POP JUMP JUMPDEST PUSH1 0x6E DUP3 MUL DUP3 DUP2 DIV PUSH1 0x6E EQ DUP4 ISZERO OR ISZERO PUSH2 0x4B3 JUMPI PUSH1 0x64 SWAP1 DIV LT PUSH2 0x2D39 JUMPI POP POP JUMP JUMPDEST PUSH2 0x2D42 SWAP2 PUSH2 0x3229 JUMP JUMPDEST JUMP JUMPDEST SWAP1 PUSH1 0x1 SWAP4 POP PUSH1 0x3 SWAP3 POP DUP1 DUP3 SSTORE DUP4 DUP3 ADD SSTORE ADD SSTORE JUMP JUMPDEST ISZERO PUSH2 0x2D5F JUMPI JUMP JUMPDEST PUSH1 0x64 PUSH1 0x40 MLOAD PUSH3 0x461BCD PUSH1 0xE5 SHL DUP2 MSTORE PUSH1 0x20 PUSH1 0x4 DUP3 ADD MSTORE PUSH1 0x20 PUSH1 0x24 DUP3 ADD MSTORE PUSH32 0x416D6F756E74206D7573742062652067726561746572207468616E207A65726F PUSH1 0x44 DUP3 ADD MSTORE REVERT JUMPDEST PUSH1 0x1 PUSH1 0x1 PUSH1 0xA0 SHL SUB AND SWAP1 DUP2 ISZERO PUSH2 0x2DF3 JUMPI DUP2 PUSH1 0x0 MSTORE PUSH1 0xA PUSH1 0x20 MSTORE PUSH1 0xFF PUSH1 0x40 PUSH1 0x0 KECCAK256 SLOAD AND ISZERO PUSH2 0x2DEB JUMPI DUP2 PUSH1 0x0 MSTORE PUSH1 0x2 PUSH1 0x20 MSTORE PUSH1 0x40 PUSH1 0x0 KECCAK256 SLOAD SWAP2 PUSH1 0x0 MSTORE PUSH1 0x3 PUSH1 0x20 MSTORE PUSH1 0x40 PUSH1 0x0 KECCAK256 SLOAD SWAP1 JUMP JUMPDEST PUSH1 0x0 SWAP2 POP DUP2 SWAP1 JUMP JUMPDEST PUSH1 0x40 MLOAD PUSH3 0x461BCD PUSH1 0xE5 SHL DUP2 MSTORE PUSH1 0x20 PUSH1 0x4 DUP3 ADD MSTORE PUSH1 0x1D PUSH1 0x24 DUP3 ADD MSTORE PUSH32 0x496E76616C69642063726561746F7220746F6B656E2061646472657373000000 PUSH1 0x44 DUP3 ADD MSTORE PUSH1 0x64 SWAP1 REVERT JUMPDEST SWAP2 SWAP1 DUP3 ADD DUP1 SWAP3 GT PUSH2 0x4B3 JUMPI JUMP JUMPDEST ISZERO PUSH2 0x2E4C JUMPI JUMP JUMPDEST PUSH1 0x40 MLOAD PUSH3 0x461BCD PUSH1 0xE5 SHL DUP2 MSTORE PUSH1 0x20 PUSH1 0x4 DUP3 ADD MSTORE PUSH1 0x10 PUSH1 0x24 DUP3 ADD MSTORE PUSH16 0x4E6F7420696E20646973636F76657279 PUSH1 0x80 SHL PUSH1 0x44 DUP3 ADD MSTORE PUSH1 0x64 SWAP1 REVERT JUMPDEST ISZERO PUSH2 0x2E8B JUMPI JUMP JUMPDEST PUSH1 0x40 MLOAD PUSH3 0x461BCD PUSH1 0xE5 SHL DUP2 MSTORE PUSH1 0x20 PUSH1 0x4 DUP3 ADD MSTORE PUSH1 0xF PUSH1 0x24 DUP3 ADD MSTORE PUSH15 0x496E76616C69642061646472657373 PUSH1 0x88 SHL PUSH1 0x44 DUP3 ADD MSTORE PUSH1 0x64 SWAP1 REVERT JUMPDEST PUSH1 0x1 DUP1 PUSH1 0xA0 SHL SUB AND PUSH1 0x0 MSTORE PUSH1 0xB PUSH1 0x20 MSTORE PUSH1 0x40 PUSH1 0x0 KECCAK256 PUSH1 0x1 DUP2 SLOAD SWAP2 ADD SLOAD SWAP1 PUSH3 0x93A7F NOT TIMESTAMP ADD SWAP1 TIMESTAMP DUP3 GT PUSH2 0x4B3 JUMPI LT PUSH2 0x2F0B JUMPI PUSH8 0x8AC7230489E80000 GT PUSH2 0x2F06 JUMPI PUSH1 0x1 SWAP1 JUMP JUMPDEST PUSH1 0x0 SWAP1 JUMP JUMPDEST POP PUSH1 0x0 SWAP1 JUMP JUMPDEST ISZERO PUSH2 0x2F18 JUMPI JUMP JUMPDEST PUSH1 0x40 MLOAD PUSH3 0x461BCD PUSH1 0xE5 SHL DUP2 MSTORE PUSH1 0x20 PUSH1 0x4 DUP3 ADD MSTORE PUSH1 0x15 PUSH1 0x24 DUP3 ADD MSTORE PUSH21 0x496E76616C696420746F6B656E2061646472657373 PUSH1 0x58 SHL PUSH1 0x44 DUP3 ADD MSTORE PUSH1 0x64 SWAP1 REVERT JUMPDEST ISZERO PUSH2 0x2F5C JUMPI JUMP JUMPDEST PUSH1 0x40 MLOAD PUSH3 0x461BCD PUSH1 0xE5 SHL DUP2 MSTORE PUSH1 0x20 PUSH1 0x4 DUP3 ADD MSTORE PUSH1 0x1A PUSH1 0x24 DUP3 ADD MSTORE PUSH32 0x496E73756666696369656E7420746F6B656E2062616C616E6365000000000000 PUSH1 0x44 DUP3 ADD MSTORE PUSH1 0x64 SWAP1 REVERT JUMPDEST ISZERO PUSH2 0x2FA8 JUMPI JUMP JUMPDEST PUSH1 0x40 MLOAD PUSH3 0x461BCD PUSH1 0xE5 SHL DUP2 MSTORE PUSH1 0x20 PUSH1 0x4 DUP3 ADD MSTORE PUSH1 0x1D PUSH1 0x24 DUP3 ADD MSTORE PUSH32 0x43616C6C657220646F6573206E6F7420686176652044455820726F6C65000000 PUSH1 0x44 DUP3 ADD MSTORE PUSH1 0x64 SWAP1 REVERT JUMPDEST ISZERO PUSH2 0x2FF5 JUMPI POP JUMP JUMPDEST PUSH1 0x40 MLOAD SWAP1 PUSH3 0x461BCD PUSH1 0xE5 SHL DUP3 MSTORE PUSH1 0x20 PUSH1 0x4 DUP4 ADD MSTORE DUP2 DUP2 MLOAD SWAP2 DUP3 PUSH1 0x24 DUP4 ADD MSTORE PUSH1 0x0 JUMPDEST DUP4 DUP2 LT PUSH2 0x3038 JUMPI POP POP DUP2 PUSH1 0x0 PUSH1 0x44 DUP1 SWAP5 DUP5 ADD ADD MSTORE PUSH1 0x1F DUP1 NOT SWAP2 ADD AND DUP2 ADD SUB ADD SWAP1 REVERT JUMPDEST PUSH1 0x20 DUP3 DUP3 ADD DUP2 ADD MLOAD PUSH1 0x44 DUP8 DUP5 ADD ADD MSTORE DUP6 SWAP4 POP ADD PUSH2 0x3016 JUMP JUMPDEST ISZERO PUSH2 0x3057 JUMPI JUMP JUMPDEST PUSH1 0x40 MLOAD PUSH3 0x461BCD PUSH1 0xE5 SHL DUP2 MSTORE PUSH1 0x20 PUSH1 0x4 DUP3 ADD MSTORE PUSH1 0x1B PUSH1 0x24 DUP3 ADD MSTORE PUSH32 0x43616E6E6F742072656D6F766520616C6C206C69717569646974790000000000 PUSH1 0x44 DUP3 ADD MSTORE PUSH1 0x64 SWAP1 REVERT JUMPDEST PUSH1 0x0 SLOAD PUSH1 0x1 PUSH1 0x1 PUSH1 0xA0 SHL SUB AND CALLER SUB PUSH2 0x30B0 JUMPI JUMP JUMPDEST PUSH4 0x118CDAA7 PUSH1 0xE0 SHL PUSH1 0x0 MSTORE CALLER PUSH1 0x4 MSTORE PUSH1 0x24 PUSH1 0x0 REVERT JUMPDEST PUSH1 0x0 DUP2 DUP2 MSTORE PUSH1 0x1 PUSH1 0x20 SWAP1 DUP2 MSTORE PUSH1 0x40 DUP1 DUP4 KECCAK256 CALLER DUP5 MSTORE SWAP1 SWAP2 MSTORE SWAP1 KECCAK256 SLOAD PUSH1 0xFF AND ISZERO PUSH2 0x30EA JUMPI POP JUMP JUMPDEST PUSH4 0xE2517D3F PUSH1 0xE0 SHL PUSH1 0x0 MSTORE CALLER PUSH1 0x4 MSTORE PUSH1 0x24 MSTORE PUSH1 0x44 PUSH1 0x0 REVERT JUMPDEST PUSH1 0x1 PUSH1 0x1 PUSH1 0xA0 SHL SUB DUP2 AND PUSH1 0x0 SWAP1 DUP2 MSTORE PUSH1 0x0 DUP1 MLOAD PUSH1 0x20 PUSH2 0x385E DUP4 CODECOPY DUP2 MLOAD SWAP2 MSTORE PUSH1 0x20 MSTORE PUSH1 0x40 SWAP1 KECCAK256 SLOAD PUSH1 0xFF AND PUSH2 0x2F0B JUMPI PUSH1 0x1 PUSH1 0x1 PUSH1 0xA0 SHL SUB AND PUSH1 0x0 DUP2 DUP2 MSTORE PUSH1 0x0 DUP1 MLOAD PUSH1 0x20 PUSH2 0x385E DUP4 CODECOPY DUP2 MLOAD SWAP2 MSTORE PUSH1 0x20 MSTORE PUSH1 0x40 DUP2 KECCAK256 DUP1 SLOAD PUSH1 0xFF NOT AND PUSH1 0x1 OR SWAP1 SSTORE CALLER SWAP2 SWAP1 PUSH1 0x0 DUP1 MLOAD PUSH1 0x20 PUSH2 0x383E DUP4 CODECOPY DUP2 MLOAD SWAP2 MSTORE SWAP1 PUSH32 0x2F8788117E7EFF1D82E926EC794901D17C78024A50270940304540A733656F0D SWAP1 DUP1 LOG4 PUSH1 0x1 SWAP1 JUMP JUMPDEST PUSH1 0x0 DUP2 DUP2 MSTORE PUSH1 0x1 PUSH1 0x20 SWAP1 DUP2 MSTORE PUSH1 0x40 DUP1 DUP4 KECCAK256 PUSH1 0x1 PUSH1 0x1 PUSH1 0xA0 SHL SUB DUP7 AND DUP5 MSTORE SWAP1 SWAP2 MSTORE SWAP1 KECCAK256 SLOAD PUSH1 0xFF AND PUSH2 0x3222 JUMPI PUSH1 0x0 DUP2 DUP2 MSTORE PUSH1 0x1 PUSH1 0x20 DUP2 DUP2 MSTORE PUSH1 0x40 DUP1 DUP5 KECCAK256 PUSH1 0x1 PUSH1 0x1 PUSH1 0xA0 SHL SUB SWAP7 SWAP1 SWAP7 AND DUP1 DUP6 MSTORE SWAP6 SWAP1 SWAP2 MSTORE DUP3 KECCAK256 DUP1 SLOAD PUSH1 0xFF NOT AND SWAP1 SWAP2 OR SWAP1 SSTORE CALLER SWAP3 SWAP2 SWAP1 PUSH32 0x2F8788117E7EFF1D82E926EC794901D17C78024A50270940304540A733656F0D SWAP1 DUP1 LOG4 PUSH1 0x1 SWAP1 JUMP JUMPDEST POP POP PUSH1 0x0 SWAP1 JUMP JUMPDEST PUSH1 0x1 DUP1 PUSH1 0xA0 SHL SUB AND SWAP1 DUP2 PUSH1 0x0 MSTORE PUSH1 0x3 PUSH1 0x20 MSTORE PUSH8 0x8AC7230489E80000 PUSH1 0x40 PUSH1 0x0 KECCAK256 SLOAD LT PUSH2 0x32EC JUMPI PUSH8 0xDE0B6B3A7640000 DUP2 MUL SWAP1 DUP1 DUP3 DIV PUSH8 0xDE0B6B3A7640000 EQ SWAP1 ISZERO OR ISZERO PUSH2 0x4B3 JUMPI PUSH1 0x10 SLOAD PUSH32 0x8EB665708D1CBFA2DF196D5F041BC00AC33E9C6E0B42B64233AED0C7C84DA7E1 SWAP2 PUSH1 0x20 SWAP2 DUP1 DUP3 GT PUSH2 0x32B9 JUMPI JUMPDEST POP DUP4 PUSH1 0x0 MSTORE PUSH1 0x3 DUP3 MSTORE DUP1 PUSH1 0x40 PUSH1 0x0 KECCAK256 SSTORE PUSH1 0x40 MLOAD SWAP1 DUP2 MSTORE LOG2 JUMP JUMPDEST SWAP1 POP DUP4 PUSH32 0x52815F7EF39CFE1F42D5C23D10919CC9FBEBD17D9EDBC1132EEE0079A50DC945 DUP4 DUP4 PUSH1 0x40 MLOAD SWAP1 DUP2 MSTORE LOG2 CODESIZE PUSH2 0x32A0 JUMP JUMPDEST POP DUP1 PUSH1 0x0 MSTORE PUSH1 0x3 PUSH1 0x20 MSTORE PUSH32 0x43C29E41362BCEAE5B8F10CF00D57C5B525A270A7FF263F5C6B24158459B0BBE PUSH1 0x80 PUSH1 0x40 PUSH1 0x0 KECCAK256 SLOAD PUSH1 0x40 MLOAD SWAP1 DUP2 MSTORE PUSH1 0x40 PUSH1 0x20 DUP3 ADD MSTORE PUSH1 0x16 PUSH1 0x40 DUP3 ADD MSTORE PUSH22 0x496E73756666696369656E74206C6971756964697479 PUSH1 0x50 SHL PUSH1 0x60 DUP3 ADD MSTORE LOG2 JUMP JUMPDEST PUSH1 0x1 PUSH1 0x1 PUSH1 0xA0 SHL SUB DUP2 AND PUSH1 0x0 SWAP1 DUP2 MSTORE PUSH1 0x0 DUP1 MLOAD PUSH1 0x20 PUSH2 0x385E DUP4 CODECOPY DUP2 MLOAD SWAP2 MSTORE PUSH1 0x20 MSTORE PUSH1 0x40 SWAP1 KECCAK256 SLOAD PUSH1 0xFF AND ISZERO PUSH2 0x2F0B JUMPI PUSH1 0x1 PUSH1 0x1 PUSH1 0xA0 SHL SUB AND PUSH1 0x0 DUP2 DUP2 MSTORE PUSH1 0x0 DUP1 MLOAD PUSH1 0x20 PUSH2 0x385E DUP4 CODECOPY DUP2 MLOAD SWAP2 MSTORE PUSH1 0x20 MSTORE PUSH1 0x40 DUP2 KECCAK256 DUP1 SLOAD PUSH1 0xFF NOT AND SWAP1 SSTORE CALLER SWAP2 SWAP1 PUSH1 0x0 DUP1 MLOAD PUSH1 0x20 PUSH2 0x383E DUP4 CODECOPY DUP2 MLOAD SWAP2 MSTORE SWAP1 PUSH32 0xF6391F5C32D9C69D2A47EA670B442974B53935D1EDC7FD64EB21E047A839171B SWAP1 DUP1 LOG4 PUSH1 0x1 SWAP1 JUMP JUMPDEST PUSH1 0x0 DUP2 DUP2 MSTORE PUSH1 0x1 PUSH1 0x20 SWAP1 DUP2 MSTORE PUSH1 0x40 DUP1 DUP4 KECCAK256 PUSH1 0x1 PUSH1 0x1 PUSH1 0xA0 SHL SUB DUP7 AND DUP5 MSTORE SWAP1 SWAP2 MSTORE SWAP1 KECCAK256 SLOAD PUSH1 0xFF AND ISZERO PUSH2 0x3222 JUMPI PUSH1 0x0 DUP2 DUP2 MSTORE PUSH1 0x1 PUSH1 0x20 SWAP1 DUP2 MSTORE PUSH1 0x40 DUP1 DUP4 KECCAK256 PUSH1 0x1 PUSH1 0x1 PUSH1 0xA0 SHL SUB SWAP6 SWAP1 SWAP6 AND DUP1 DUP5 MSTORE SWAP5 SWAP1 SWAP2 MSTORE DUP2 KECCAK256 DUP1 SLOAD PUSH1 0xFF NOT AND SWAP1 SSTORE CALLER SWAP3 SWAP2 SWAP1 PUSH32 0xF6391F5C32D9C69D2A47EA670B442974B53935D1EDC7FD64EB21E047A839171B SWAP1 DUP1 LOG4 PUSH1 0x1 SWAP1 JUMP JUMPDEST PUSH1 0x40 MLOAD PUSH4 0xA9059CBB PUSH1 0xE0 SHL PUSH1 0x20 DUP3 ADD MSTORE PUSH1 0x1 PUSH1 0x1 PUSH1 0xA0 SHL SUB SWAP1 SWAP3 AND PUSH1 0x24 DUP4 ADD MSTORE PUSH1 0x44 DUP1 DUP4 ADD SWAP4 SWAP1 SWAP4 MSTORE SWAP2 DUP2 MSTORE PUSH2 0x2D42 SWAP2 PUSH2 0x34AC PUSH1 0x64 DUP4 PUSH2 0x2BD1 JUMP JUMPDEST PUSH2 0x37E2 JUMP JUMPDEST PUSH1 0x40 MLOAD PUSH4 0x23B872DD PUSH1 0xE0 SHL PUSH1 0x20 DUP3 ADD MSTORE PUSH1 0x1 PUSH1 0x1 PUSH1 0xA0 SHL SUB SWAP3 DUP4 AND PUSH1 0x24 DUP3 ADD MSTORE SWAP3 SWAP1 SWAP2 AND PUSH1 0x44 DUP4 ADD MSTORE PUSH1 0x64 DUP1 DUP4 ADD SWAP4 SWAP1 SWAP4 MSTORE SWAP2 DUP2 MSTORE PUSH2 0x2D42 SWAP2 PUSH2 0x34AC PUSH1 0x84 DUP4 PUSH2 0x2BD1 JUMP JUMPDEST PUSH1 0xD SLOAD PUSH1 0x1 PUSH1 0x1 PUSH1 0xA0 SHL SUB AND DUP1 ISZERO ISZERO DUP1 PUSH2 0x3556 JUMPI JUMPDEST PUSH2 0x3527 JUMPI JUMPDEST POP PUSH2 0x3518 PUSH2 0x3636 JUMP JUMPDEST PUSH1 0xD SLOAD PUSH1 0x1 PUSH1 0x1 PUSH1 0xA0 SHL SUB AND SWAP1 JUMP JUMPDEST DUP1 PUSH1 0x0 MSTORE PUSH1 0xA PUSH1 0x20 MSTORE PUSH1 0xFF PUSH1 0x40 PUSH1 0x0 KECCAK256 SLOAD AND DUP1 PUSH2 0x3547 JUMPI JUMPDEST ISZERO PUSH2 0x350F JUMPI SWAP1 JUMP JUMPDEST POP PUSH2 0x3551 DUP2 PUSH2 0x2EC2 JUMP JUMPDEST PUSH2 0x353F JUMP JUMPDEST POP PUSH1 0xF SLOAD PUSH2 0xE10 DUP2 ADD DUP1 SWAP2 GT PUSH2 0x4B3 JUMPI TIMESTAMP LT PUSH2 0x350A JUMP JUMPDEST PUSH1 0x1 PUSH1 0x1 PUSH1 0xA0 SHL SUB AND DUP1 ISZERO PUSH2 0x3222 JUMPI PUSH8 0xDE0B6B3A7640000 DUP3 LT PUSH2 0x3222 JUMPI DUP1 PUSH1 0x0 MSTORE PUSH1 0x3 PUSH1 0x20 MSTORE PUSH1 0x40 PUSH1 0x0 KECCAK256 SLOAD SWAP1 PUSH1 0x0 MSTORE PUSH1 0xB PUSH1 0x20 MSTORE PUSH8 0x8AC7230489E80000 PUSH1 0x40 PUSH1 0x0 KECCAK256 SWAP2 PUSH1 0x40 MLOAD PUSH2 0x35BE DUP2 PUSH2 0x2BB5 JUMP JUMPDEST DUP4 SLOAD DUP2 MSTORE PUSH1 0x40 PUSH1 0x2 PUSH1 0x1 DUP7 ADD SLOAD SWAP6 DUP7 PUSH1 0x20 DUP6 ADD MSTORE ADD SLOAD SWAP2 ADD MSTORE LT PUSH1 0x0 EQ PUSH2 0x3602 JUMPI POP DUP1 JUMPDEST PUSH8 0xDE0B6B3A7640000 DUP2 LT PUSH2 0x3222 JUMPI DUP2 DUP2 GT ISZERO PUSH2 0x35FD JUMPI POP SWAP1 JUMP JUMPDEST SWAP1 POP SWAP1 JUMP JUMPDEST PUSH9 0x1158E460913D00000 LT ISZERO PUSH2 0x362D JUMPI PUSH1 0x4B DUP2 MUL DUP2 DUP2 DIV PUSH1 0x4B EQ DUP3 ISZERO OR ISZERO PUSH2 0x4B3 JUMPI PUSH1 0x64 SWAP1 DIV PUSH2 0x35E2 JUMP JUMPDEST DUP1 PUSH1 0x1 SHR PUSH2 0x35E2 JUMP JUMPDEST PUSH1 0xD DUP1 SLOAD PUSH1 0x1 PUSH1 0x1 PUSH1 0xA0 SHL SUB NOT AND SWAP1 SSTORE PUSH1 0x0 PUSH1 0xE SSTORE PUSH1 0x9 SLOAD DUP1 ISZERO PUSH2 0x37DF JUMPI PUSH3 0x93A7F NOT TIMESTAMP ADD SWAP1 TIMESTAMP DUP3 GT PUSH2 0x4B3 JUMPI PUSH1 0x0 JUMPDEST DUP2 DUP2 LT PUSH2 0x36B3 JUMPI POP POP POP TIMESTAMP PUSH1 0xF SSTORE PUSH1 0x1 DUP1 PUSH1 0xA0 SHL SUB PUSH1 0xD SLOAD AND PUSH32 0x2BC000D157093A2097E6514A43C3BAEA9E0CFBE6EE606D000E64892A9EC425D PUSH1 0x40 PUSH1 0xE SLOAD DUP2 MLOAD SWAP1 DUP2 MSTORE TIMESTAMP PUSH1 0x20 DUP3 ADD MSTORE LOG2 JUMP JUMPDEST PUSH2 0x36BC DUP2 PUSH2 0x2919 JUMP JUMPDEST PUSH1 0x1 DUP1 PUSH1 0xA0 SHL SUB SWAP2 SLOAD SWAP1 PUSH1 0x3 SHL SHR AND SWAP1 DUP2 PUSH1 0x0 MSTORE PUSH1 0xB PUSH1 0x20 MSTORE PUSH1 0x40 PUSH1 0x0 KECCAK256 PUSH1 0x40 MLOAD SWAP1 PUSH2 0x36E7 DUP3 PUSH2 0x2BB5 JUMP JUMPDEST DUP1 SLOAD DUP3 MSTORE PUSH1 0x2 PUSH1 0x1 DUP3 ADD SLOAD SWAP2 PUSH1 0x20 DUP5 ADD SWAP3 DUP4 MSTORE ADD SLOAD PUSH1 0x40 DUP4 ADD MSTORE DUP4 PUSH1 0x0 MSTORE PUSH1 0xA PUSH1 0x20 MSTORE DUP6 PUSH1 0xFF PUSH1 0x40 PUSH1 0x0 KECCAK256 SLOAD AND ISZERO SWAP3 DUP4 ISZERO PUSH2 0x37D4 JUMPI JUMPDEST POP POP DUP2 ISZERO PUSH2 0x37C1 JUMPI JUMPDEST POP PUSH2 0x37B8 JUMPI DUP2 PUSH1 0x0 MSTORE PUSH1 0x3 PUSH1 0x20 MSTORE PUSH1 0x40 PUSH1 0x0 KECCAK256 SLOAD SWAP2 DUP1 PUSH1 0x0 MSTORE PUSH1 0xB PUSH1 0x20 MSTORE PUSH1 0x1 PUSH1 0x40 PUSH1 0x0 KECCAK256 ADD SLOAD PUSH1 0x7 DUP5 MUL SWAP4 DUP1 DUP6 DIV PUSH1 0x7 EQ SWAP1 ISZERO OR ISZERO PUSH2 0x4B3 JUMPI PUSH1 0x3 DUP2 MUL SWAP1 DUP1 DUP3 DIV PUSH1 0x3 EQ SWAP1 ISZERO OR ISZERO PUSH2 0x4B3 JUMPI PUSH2 0x3781 PUSH1 0xA SWAP2 PUSH1 0x1 SWAP6 PUSH2 0x2E38 JUMP JUMPDEST DIV SWAP1 PUSH1 0xE SLOAD DUP3 GT PUSH2 0x3796 JUMPI JUMPDEST POP POP JUMPDEST ADD PUSH2 0x3666 JUMP JUMPDEST PUSH12 0xFFFFFFFFFFFFFFFFFFFFFFFF PUSH1 0xA0 SHL PUSH1 0xD SLOAD AND OR PUSH1 0xD SSTORE PUSH1 0xE SSTORE CODESIZE DUP1 PUSH2 0x378D JUMP JUMPDEST PUSH1 0x1 SWAP2 POP PUSH2 0x3790 JUMP JUMPDEST PUSH8 0x8AC7230489E80000 SWAP2 POP MLOAD LT CODESIZE PUSH2 0x3726 JUMP JUMPDEST MLOAD LT SWAP2 POP DUP6 CODESIZE PUSH2 0x371D JUMP JUMPDEST POP JUMP JUMPDEST SWAP1 PUSH1 0x0 PUSH1 0x20 SWAP2 DUP3 DUP2 MLOAD SWAP2 ADD DUP3 DUP6 GAS CALL ISZERO PUSH2 0xCF1 JUMPI PUSH1 0x0 MLOAD RETURNDATASIZE PUSH2 0x3834 JUMPI POP PUSH1 0x1 PUSH1 0x1 PUSH1 0xA0 SHL SUB DUP2 AND EXTCODESIZE ISZERO JUMPDEST PUSH2 0x3813 JUMPI POP JUMP JUMPDEST PUSH4 0x5274AFE7 PUSH1 0xE0 SHL PUSH1 0x0 SWAP1 DUP2 MSTORE PUSH1 0x1 PUSH1 0x1 PUSH1 0xA0 SHL SUB SWAP2 SWAP1 SWAP2 AND PUSH1 0x4 MSTORE PUSH1 0x24 SWAP1 REVERT JUMPDEST PUSH1 0x1 EQ ISZERO PUSH2 0x380C JUMP INVALID RETURNDATASIZE SWAP7 0x2D RETURN CHAINID 0x29 SWAP9 DUP10 0xE3 0xDD 0xD0 SWAP9 0xBD 0xD6 DUP13 RETURN CALLDATALOAD LOG1 0xE3 PUSH17 0x339BD306448317D39B39A66D7ADA6DBB52 MOD AND 0xCF CREATE2 0xD6 CREATE2 PUSH21 0xAFF5A85F6D0DABE1F7D96C08FE8E54D79BFCA6E0A2 PUSH5 0x6970667358 0x22 SLT KECCAK256 0xC1 0xDC 0x27 AND 0x2E 0x29 PUSH25 0xDDBF6F23267C2AAD1D72C63BC90F97907B1576F2F37E6D4ED PUSH5 0x736F6C6343 STOP ADDMOD SHR STOP CALLER 0xA6 0xEE 0xF7 0xE3 GAS 0xBE PUSH17 0x26729641147F7915573C7E97B47EFA546F PUSH0 PUSH15 0x3230263BCB49000000000000000000 "},"methodIdentifiers":{"ACTIVITY_THRESHOLD()":"414f99ae","BASE_PRICE()":"f86325ed","DEFAULT_ADMIN_ROLE()":"a217fddf","DEX_ROLE()":"2ef97265","DISCOVERY_PERIOD()":"17359688","ENGAGEMENT_THRESHOLD()":"30ae7805","MAX_PRICE_MULTIPLIER()":"5889486e","MAX_SNAPSHOTS()":"31ad24f8","MIN_24H_VOLUME()":"993d3450","MIN_DEPLOYMENT_AMOUNT()":"b7f23d19","MIN_FEES_FOR_REDEPLOY()":"1b5a799a","MIN_LIQUIDITY()":"21b77d63","MIN_TOKEN_PRICE()":"1879dcf3","POOL_NEED_UPDATE_INTERVAL()":"2d957a8c","REBALANCE_INTERVAL()":"5c2da7cd","SNAPSHOT_INTERVAL()":"6d2beef1","addLiquidity(address,uint256,uint256)":"55776b77","autoRedeployFees(address)":"bc99f487","calculateInitialLiquidity(uint256,uint256)":"14f302ac","checkAndRebalance(address)":"3ec43350","collectFees(address,uint256)":"a033fcd4","collectedFees(address)":"1cead9a7","completePriceDiscovery(address)":"fb99d5f4","coralReserves(address)":"84f74a69","coralToken()":"bba2e140","creatorTokenReserves(address)":"708b9935","dex()":"692058c2","forcePoolNeedUpdate()":"bd368d48","getLiquidityLimits()":"65f92978","getPoolActivity(address)":"f836c8f2","getPoolNeedInfo()":"d6f969e2","getReserves(address)":"3e99c1e4","getRoleAdmin(bytes32)":"248a9ca3","getSmoothedMetrics(address)":"b1eb4835","getTrackedPools()":"b2098fa2","grantDEXRole(address)":"863ab9c8","grantRole(bytes32,address)":"2f2ff15d","hasRole(bytes32,address)":"91d14854","hasValidLiquidity(address)":"1ccf71eb","isNativeCoral(address)":"fb28ceb2","isPoolActive(address)":"a711e6a1","isTrackedPool(address)":"74a92c66","isValidLiquidity(uint256)":"e7c75b79","lastRebalanceTimestamp()":"b83d8157","maxLiquidityPerPool()":"b1a23fb4","mostNeededPool()":"a1ce9204","owner()":"8da5cb5b","poolActivity(address)":"051e0e67","priceDiscovery(address)":"e1aeb092","recordEngagementSnapshot(address,uint256)":"4e358af2","redeployFees(address,address)":"bd1e31aa","removeLiquidity(address,uint256,uint256)":"e38192e3","removePoolFromTracking(address)":"2253fc3c","renounceOwnership()":"715018a6","renounceRole(bytes32,address)":"36568abe","revokeDEXRole(address)":"68d693c3","revokeRole(bytes32,address)":"d547741f","setDEX(address)":"7b66a723","setMaxLiquidity(uint256)":"71081c8e","startPriceDiscovery(address,uint256)":"8c93ca7c","supportsInterface(bytes4)":"01ffc9a7","tokenEngagement(address)":"f2fd23de","trackedPools(uint256)":"23bfa792","transferCoralToDEX(uint256)":"3c231efd","transferOwnership(address)":"f2fde38b","updateEngagementMetrics(address,uint256)":"3417c3d0","updatePoolActivity(address,uint256)":"e71e76c1","withdrawFees(address,uint256)":"ad3b1b47"}},"storageLayout":{"storage":[{"astId":387,"contract":"contracts/SaraLiquidityManager.sol:SaraLiquidityManager","label":"_owner","offset":0,"slot":"0","type":"t_address"},{"astId":26,"contract":"contracts/SaraLiquidityManager.sol:SaraLiquidityManager","label":"_roles","offset":0,"slot":"1","type":"t_mapping(t_bytes32,t_struct(RoleData)21_storage)"},{"astId":2912,"contract":"contracts/SaraLiquidityManager.sol:SaraLiquidityManager","label":"creatorTokenReserves","offset":0,"slot":"2","type":"t_mapping(t_address,t_uint256)"},{"astId":2916,"contract":"contracts/SaraLiquidityManager.sol:SaraLiquidityManager","label":"coralReserves","offset":0,"slot":"3","type":"t_mapping(t_address,t_uint256)"},{"astId":2920,"contract":"contracts/SaraLiquidityManager.sol:SaraLiquidityManager","label":"collectedFees","offset":0,"slot":"4","type":"t_mapping(t_address,t_uint256)"},{"astId":2922,"contract":"contracts/SaraLiquidityManager.sol:SaraLiquidityManager","label":"coralToken","offset":0,"slot":"5","type":"t_address"},{"astId":2927,"contract":"contracts/SaraLiquidityManager.sol:SaraLiquidityManager","label":"lastRebalanceTimestamp","offset":0,"slot":"6","type":"t_uint256"},{"astId":2944,"contract":"contracts/SaraLiquidityManager.sol:SaraLiquidityManager","label":"tokenEngagement","offset":0,"slot":"7","type":"t_mapping(t_address,t_struct(EngagementMetrics)2939_storage)"},{"astId":2979,"contract":"contracts/SaraLiquidityManager.sol:SaraLiquidityManager","label":"priceDiscovery","offset":0,"slot":"8","type":"t_mapping(t_address,t_struct(PriceDiscoveryData)2974_storage)"},{"astId":3013,"contract":"contracts/SaraLiquidityManager.sol:SaraLiquidityManager","label":"trackedPools","offset":0,"slot":"9","type":"t_array(t_address)dyn_storage"},{"astId":3017,"contract":"contracts/SaraLiquidityManager.sol:SaraLiquidityManager","label":"isTrackedPool","offset":0,"slot":"10","type":"t_mapping(t_address,t_bool)"},{"astId":3080,"contract":"contracts/SaraLiquidityManager.sol:SaraLiquidityManager","label":"poolActivity","offset":0,"slot":"11","type":"t_mapping(t_address,t_struct(PoolActivity)3075_storage)"},{"astId":3110,"contract":"contracts/SaraLiquidityManager.sol:SaraLiquidityManager","label":"dex","offset":0,"slot":"12","type":"t_address"},{"astId":3125,"contract":"contracts/SaraLiquidityManager.sol:SaraLiquidityManager","label":"mostNeededPool","offset":0,"slot":"13","type":"t_struct(PoolNeedInfo)3122_storage"},{"astId":3141,"contract":"contracts/SaraLiquidityManager.sol:SaraLiquidityManager","label":"maxLiquidityPerPool","offset":0,"slot":"16","type":"t_uint256"}],"types":{"t_address":{"encoding":"inplace","label":"address","numberOfBytes":"20"},"t_array(t_address)dyn_storage":{"base":"t_address","encoding":"dynamic_array","label":"address[]","numberOfBytes":"32"},"t_array(t_uint256)dyn_storage":{"base":"t_uint256","encoding":"dynamic_array","label":"uint256[]","numberOfBytes":"32"},"t_bool":{"encoding":"inplace","label":"bool","numberOfBytes":"1"},"t_bytes32":{"encoding":"inplace","label":"bytes32","numberOfBytes":"32"},"t_mapping(t_address,t_bool)":{"encoding":"mapping","key":"t_address","label":"mapping(address => bool)","numberOfBytes":"32","value":"t_bool"},"t_mapping(t_address,t_struct(EngagementMetrics)2939_storage)":{"encoding":"mapping","key":"t_address","label":"mapping(address => struct SaraLiquidityManager.EngagementMetrics)","numberOfBytes":"32","value":"t_struct(EngagementMetrics)2939_storage"},"t_mapping(t_address,t_struct(PoolActivity)3075_storage)":{"encoding":"mapping","key":"t_address","label":"mapping(address => struct SaraLiquidityManager.PoolActivity)","numberOfBytes":"32","value":"t_struct(PoolActivity)3075_storage"},"t_mapping(t_address,t_struct(PriceDiscoveryData)2974_storage)":{"encoding":"mapping","key":"t_address","label":"mapping(address => struct SaraLiquidityManager.PriceDiscoveryData)","numberOfBytes":"32","value":"t_struct(PriceDiscoveryData)2974_storage"},"t_mapping(t_address,t_uint256)":{"encoding":"mapping","key":"t_address","label":"mapping(address => uint256)","numberOfBytes":"32","value":"t_uint256"},"t_mapping(t_bytes32,t_struct(RoleData)21_storage)":{"encoding":"mapping","key":"t_bytes32","label":"mapping(bytes32 => struct AccessControl.RoleData)","numberOfBytes":"32","value":"t_struct(RoleData)21_storage"},"t_struct(EngagementMetrics)2939_storage":{"encoding":"inplace","label":"struct SaraLiquidityManager.EngagementMetrics","members":[{"astId":2932,"contract":"contracts/SaraLiquidityManager.sol:SaraLiquidityManager","label":"lastSubscriberCount","offset":0,"slot":"0","type":"t_uint256"},{"astId":2934,"contract":"contracts/SaraLiquidityManager.sol:SaraLiquidityManager","label":"smoothedSubscriberCount","offset":0,"slot":"1","type":"t_uint256"},{"astId":2936,"contract":"contracts/SaraLiquidityManager.sol:SaraLiquidityManager","label":"lastUpdateTime","offset":0,"slot":"2","type":"t_uint256"},{"astId":2938,"contract":"contracts/SaraLiquidityManager.sol:SaraLiquidityManager","label":"updateCount","offset":0,"slot":"3","type":"t_uint256"}],"numberOfBytes":"128"},"t_struct(PoolActivity)3075_storage":{"encoding":"inplace","label":"struct SaraLiquidityManager.PoolActivity","members":[{"astId":3070,"contract":"contracts/SaraLiquidityManager.sol:SaraLiquidityManager","label":"lastTradeTimestamp","offset":0,"slot":"0","type":"t_uint256"},{"astId":3072,"contract":"contracts/SaraLiquidityManager.sol:SaraLiquidityManager","label":"tradingVolume24h","offset":0,"slot":"1","type":"t_uint256"},{"astId":3074,"contract":"contracts/SaraLiquidityManager.sol:SaraLiquidityManager","label":"lastVolumeUpdateTime","offset":0,"slot":"2","type":"t_uint256"}],"numberOfBytes":"96"},"t_struct(PoolNeedInfo)3122_storage":{"encoding":"inplace","label":"struct SaraLiquidityManager.PoolNeedInfo","members":[{"astId":3117,"contract":"contracts/SaraLiquidityManager.sol:SaraLiquidityManager","label":"pool","offset":0,"slot":"0","type":"t_address"},{"astId":3119,"contract":"contracts/SaraLiquidityManager.sol:SaraLiquidityManager","label":"score","offset":0,"slot":"1","type":"t_uint256"},{"astId":3121,"contract":"contracts/SaraLiquidityManager.sol:SaraLiquidityManager","label":"lastUpdateTime","offset":0,"slot":"2","type":"t_uint256"}],"numberOfBytes":"96"},"t_struct(PriceDiscoveryData)2974_storage":{"encoding":"inplace","label":"struct SaraLiquidityManager.PriceDiscoveryData","members":[{"astId":2964,"contract":"contracts/SaraLiquidityManager.sol:SaraLiquidityManager","label":"initialSubscribers","offset":0,"slot":"0","type":"t_uint256"},{"astId":2966,"contract":"contracts/SaraLiquidityManager.sol:SaraLiquidityManager","label":"currentSubscribers","offset":0,"slot":"1","type":"t_uint256"},{"astId":2968,"contract":"contracts/SaraLiquidityManager.sol:SaraLiquidityManager","label":"observationStartTime","offset":0,"slot":"2","type":"t_uint256"},{"astId":2970,"contract":"contracts/SaraLiquidityManager.sol:SaraLiquidityManager","label":"isInDiscovery","offset":0,"slot":"3","type":"t_bool"},{"astId":2973,"contract":"contracts/SaraLiquidityManager.sol:SaraLiquidityManager","label":"engagementSnapshots","offset":0,"slot":"4","type":"t_array(t_uint256)dyn_storage"}],"numberOfBytes":"160"},"t_struct(RoleData)21_storage":{"encoding":"inplace","label":"struct AccessControl.RoleData","members":[{"astId":18,"contract":"contracts/SaraLiquidityManager.sol:SaraLiquidityManager","label":"hasRole","offset":0,"slot":"0","type":"t_mapping(t_address,t_bool)"},{"astId":20,"contract":"contracts/SaraLiquidityManager.sol:SaraLiquidityManager","label":"adminRole","offset":0,"slot":"1","type":"t_bytes32"}],"numberOfBytes":"64"},"t_uint256":{"encoding":"inplace","label":"uint256","numberOfBytes":"32"}}}}}}