{
  "_format": "hh-sol-artifact-1",
  "contractName": "SaraDEX",
  "sourceName": "contracts/SaraDEX.sol",
  "abi": [
    {
      "inputs": [
        {
          "internalType": "address",
          "name": "_coralToken",
          "type": "address"
        },
        {
          "internalType": "address payable",
          "name": "_liquidityManager",
          "type": "address"
        }
      ],
      "stateMutability": "nonpayable",
      "type": "constructor"
    },
    {
      "inputs": [],
      "name": "AccessControlBadConfirmation",
      "type": "error"
    },
    {
      "inputs": [
        {
          "internalType": "address",
          "name": "account",
          "type": "address"
        },
        {
          "internalType": "bytes32",
          "name": "neededRole",
          "type": "bytes32"
        }
      ],
      "name": "AccessControlUnauthorizedAccount",
      "type": "error"
    },
    {
      "inputs": [
        {
          "internalType": "address",
          "name": "owner",
          "type": "address"
        }
      ],
      "name": "OwnableInvalidOwner",
      "type": "error"
    },
    {
      "inputs": [
        {
          "internalType": "address",
          "name": "account",
          "type": "address"
        }
      ],
      "name": "OwnableUnauthorizedAccount",
      "type": "error"
    },
    {
      "inputs": [
        {
          "internalType": "address",
          "name": "token",
          "type": "address"
        }
      ],
      "name": "SafeERC20FailedOperation",
      "type": "error"
    },
    {
      "anonymous": false,
      "inputs": [
        {
          "indexed": true,
          "internalType": "address",
          "name": "token",
          "type": "address"
        },
        {
          "indexed": false,
          "internalType": "uint256",
          "name": "storedFees",
          "type": "uint256"
        }
      ],
      "name": "CoralAutoRedeploymentFailed",
      "type": "event"
    },
    {
      "anonymous": false,
      "inputs": [
        {
          "indexed": true,
          "internalType": "address",
          "name": "token",
          "type": "address"
        },
        {
          "indexed": false,
          "internalType": "uint256",
          "name": "amount",
          "type": "uint256"
        }
      ],
      "name": "CoralFeesRedeployed",
      "type": "event"
    },
    {
      "anonymous": false,
      "inputs": [
        {
          "indexed": true,
          "internalType": "address",
          "name": "token",
          "type": "address"
        },
        {
          "indexed": false,
          "internalType": "uint256",
          "name": "amount",
          "type": "uint256"
        },
        {
          "indexed": false,
          "internalType": "uint256",
          "name": "timestamp",
          "type": "uint256"
        }
      ],
      "name": "CoralFeesWithdrawn",
      "type": "event"
    },
    {
      "anonymous": false,
      "inputs": [
        {
          "indexed": true,
          "internalType": "address",
          "name": "user",
          "type": "address"
        },
        {
          "indexed": true,
          "internalType": "address",
          "name": "creatorToken",
          "type": "address"
        },
        {
          "indexed": false,
          "internalType": "uint256",
          "name": "amountIn",
          "type": "uint256"
        },
        {
          "indexed": false,
          "internalType": "uint256",
          "name": "amountOut",
          "type": "uint256"
        },
        {
          "indexed": false,
          "internalType": "uint256",
          "name": "fee",
          "type": "uint256"
        }
      ],
      "name": "CoralSwapExecuted",
      "type": "event"
    },
    {
      "anonymous": false,
      "inputs": [
        {
          "indexed": true,
          "internalType": "address",
          "name": "token",
          "type": "address"
        },
        {
          "indexed": false,
          "internalType": "uint256",
          "name": "amount",
          "type": "uint256"
        },
        {
          "indexed": false,
          "internalType": "uint256",
          "name": "timestamp",
          "type": "uint256"
        }
      ],
      "name": "CoralTokensRequested",
      "type": "event"
    },
    {
      "anonymous": false,
      "inputs": [
        {
          "indexed": true,
          "internalType": "address",
          "name": "to",
          "type": "address"
        },
        {
          "indexed": false,
          "internalType": "uint256",
          "name": "amount",
          "type": "uint256"
        },
        {
          "indexed": false,
          "internalType": "uint256",
          "name": "timestamp",
          "type": "uint256"
        }
      ],
      "name": "CoralTransferred",
      "type": "event"
    },
    {
      "anonymous": false,
      "inputs": [
        {
          "indexed": false,
          "internalType": "uint256",
          "name": "oldSlippage",
          "type": "uint256"
        },
        {
          "indexed": false,
          "internalType": "uint256",
          "name": "newSlippage",
          "type": "uint256"
        },
        {
          "indexed": true,
          "internalType": "address",
          "name": "updater",
          "type": "address"
        }
      ],
      "name": "MaxSlippageUpdated",
      "type": "event"
    },
    {
      "anonymous": false,
      "inputs": [
        {
          "indexed": true,
          "internalType": "address",
          "name": "previousOwner",
          "type": "address"
        },
        {
          "indexed": true,
          "internalType": "address",
          "name": "newOwner",
          "type": "address"
        }
      ],
      "name": "OwnershipTransferred",
      "type": "event"
    },
    {
      "anonymous": false,
      "inputs": [
        {
          "indexed": true,
          "internalType": "bytes32",
          "name": "role",
          "type": "bytes32"
        },
        {
          "indexed": true,
          "internalType": "bytes32",
          "name": "previousAdminRole",
          "type": "bytes32"
        },
        {
          "indexed": true,
          "internalType": "bytes32",
          "name": "newAdminRole",
          "type": "bytes32"
        }
      ],
      "name": "RoleAdminChanged",
      "type": "event"
    },
    {
      "anonymous": false,
      "inputs": [
        {
          "indexed": true,
          "internalType": "bytes32",
          "name": "role",
          "type": "bytes32"
        },
        {
          "indexed": true,
          "internalType": "address",
          "name": "account",
          "type": "address"
        },
        {
          "indexed": true,
          "internalType": "address",
          "name": "sender",
          "type": "address"
        }
      ],
      "name": "RoleGranted",
      "type": "event"
    },
    {
      "anonymous": false,
      "inputs": [
        {
          "indexed": true,
          "internalType": "bytes32",
          "name": "role",
          "type": "bytes32"
        },
        {
          "indexed": true,
          "internalType": "address",
          "name": "account",
          "type": "address"
        },
        {
          "indexed": true,
          "internalType": "address",
          "name": "sender",
          "type": "address"
        }
      ],
      "name": "RoleRevoked",
      "type": "event"
    },
    {
      "anonymous": false,
      "inputs": [
        {
          "indexed": false,
          "internalType": "uint256",
          "name": "oldFee",
          "type": "uint256"
        },
        {
          "indexed": false,
          "internalType": "uint256",
          "name": "newFee",
          "type": "uint256"
        },
        {
          "indexed": true,
          "internalType": "address",
          "name": "updater",
          "type": "address"
        }
      ],
      "name": "SwapFeeUpdated",
      "type": "event"
    },
    {
      "inputs": [],
      "name": "ABSOLUTE_MAX_SLIPPAGE",
      "outputs": [
        {
          "internalType": "uint256",
          "name": "",
          "type": "uint256"
        }
      ],
      "stateMutability": "view",
      "type": "function"
    },
    {
      "inputs": [],
      "name": "AUTO_REDEPLOY_THRESHOLD",
      "outputs": [
        {
          "internalType": "uint256",
          "name": "",
          "type": "uint256"
        }
      ],
      "stateMutability": "view",
      "type": "function"
    },
    {
      "inputs": [],
      "name": "DEFAULT_ADMIN_ROLE",
      "outputs": [
        {
          "internalType": "bytes32",
          "name": "",
          "type": "bytes32"
        }
      ],
      "stateMutability": "view",
      "type": "function"
    },
    {
      "inputs": [],
      "name": "DEFAULT_MAX_SLIPPAGE",
      "outputs": [
        {
          "internalType": "uint256",
          "name": "",
          "type": "uint256"
        }
      ],
      "stateMutability": "view",
      "type": "function"
    },
    {
      "inputs": [],
      "name": "LIQUIDITY_MANAGER_ROLE",
      "outputs": [
        {
          "internalType": "bytes32",
          "name": "",
          "type": "bytes32"
        }
      ],
      "stateMutability": "view",
      "type": "function"
    },
    {
      "inputs": [],
      "name": "MAXIMUM_ALLOWED_SLIPPAGE",
      "outputs": [
        {
          "internalType": "uint256",
          "name": "",
          "type": "uint256"
        }
      ],
      "stateMutability": "view",
      "type": "function"
    },
    {
      "inputs": [],
      "name": "MAX_FEE_STORAGE",
      "outputs": [
        {
          "internalType": "uint256",
          "name": "",
          "type": "uint256"
        }
      ],
      "stateMutability": "view",
      "type": "function"
    },
    {
      "inputs": [],
      "name": "MAX_SINGLE_SWAP",
      "outputs": [
        {
          "internalType": "uint256",
          "name": "",
          "type": "uint256"
        }
      ],
      "stateMutability": "view",
      "type": "function"
    },
    {
      "inputs": [],
      "name": "MAX_SWAP_AMOUNT_PERCENT",
      "outputs": [
        {
          "internalType": "uint256",
          "name": "",
          "type": "uint256"
        }
      ],
      "stateMutability": "view",
      "type": "function"
    },
    {
      "inputs": [],
      "name": "MIN_OUTPUT_AMOUNT",
      "outputs": [
        {
          "internalType": "uint256",
          "name": "",
          "type": "uint256"
        }
      ],
      "stateMutability": "view",
      "type": "function"
    },
    {
      "inputs": [],
      "name": "MIN_SWAP_AMOUNT",
      "outputs": [
        {
          "internalType": "uint256",
          "name": "",
          "type": "uint256"
        }
      ],
      "stateMutability": "view",
      "type": "function"
    },
    {
      "inputs": [],
      "name": "MIN_TIME_BETWEEN_SWAPS",
      "outputs": [
        {
          "internalType": "uint256",
          "name": "",
          "type": "uint256"
        }
      ],
      "stateMutability": "view",
      "type": "function"
    },
    {
      "inputs": [
        {
          "internalType": "address",
          "name": "token",
          "type": "address"
        }
      ],
      "name": "checkFeesForRedeployment",
      "outputs": [
        {
          "internalType": "bool",
          "name": "needsRedeploy",
          "type": "bool"
        },
        {
          "internalType": "uint256",
          "name": "amount",
          "type": "uint256"
        }
      ],
      "stateMutability": "view",
      "type": "function"
    },
    {
      "inputs": [],
      "name": "coralToken",
      "outputs": [
        {
          "internalType": "address",
          "name": "",
          "type": "address"
        }
      ],
      "stateMutability": "view",
      "type": "function"
    },
    {
      "inputs": [
        {
          "internalType": "uint256",
          "name": "amountIn",
          "type": "uint256"
        },
        {
          "internalType": "uint256",
          "name": "reserveIn",
          "type": "uint256"
        },
        {
          "internalType": "uint256",
          "name": "reserveOut",
          "type": "uint256"
        }
      ],
      "name": "getAmountOut",
      "outputs": [
        {
          "internalType": "uint256",
          "name": "",
          "type": "uint256"
        }
      ],
      "stateMutability": "pure",
      "type": "function"
    },
    {
      "inputs": [
        {
          "internalType": "uint256",
          "name": "amountIn",
          "type": "uint256"
        },
        {
          "internalType": "address[]",
          "name": "path",
          "type": "address[]"
        }
      ],
      "name": "getAmountOutWithFees",
      "outputs": [
        {
          "internalType": "uint256",
          "name": "",
          "type": "uint256"
        }
      ],
      "stateMutability": "view",
      "type": "function"
    },
    {
      "inputs": [
        {
          "internalType": "bytes32",
          "name": "role",
          "type": "bytes32"
        }
      ],
      "name": "getRoleAdmin",
      "outputs": [
        {
          "internalType": "bytes32",
          "name": "",
          "type": "bytes32"
        }
      ],
      "stateMutability": "view",
      "type": "function"
    },
    {
      "inputs": [],
      "name": "getSlippageSettings",
      "outputs": [
        {
          "internalType": "uint256",
          "name": "defaultSlippage",
          "type": "uint256"
        },
        {
          "internalType": "uint256",
          "name": "currentMaxSlippage",
          "type": "uint256"
        },
        {
          "internalType": "uint256",
          "name": "absoluteMaximum",
          "type": "uint256"
        }
      ],
      "stateMutability": "view",
      "type": "function"
    },
    {
      "inputs": [
        {
          "internalType": "address",
          "name": "token",
          "type": "address"
        }
      ],
      "name": "getWithdrawableFees",
      "outputs": [
        {
          "internalType": "uint256",
          "name": "",
          "type": "uint256"
        }
      ],
      "stateMutability": "view",
      "type": "function"
    },
    {
      "inputs": [
        {
          "internalType": "bytes32",
          "name": "role",
          "type": "bytes32"
        },
        {
          "internalType": "address",
          "name": "account",
          "type": "address"
        }
      ],
      "name": "grantRole",
      "outputs": [],
      "stateMutability": "nonpayable",
      "type": "function"
    },
    {
      "inputs": [
        {
          "internalType": "bytes32",
          "name": "role",
          "type": "bytes32"
        },
        {
          "internalType": "address",
          "name": "account",
          "type": "address"
        }
      ],
      "name": "hasRole",
      "outputs": [
        {
          "internalType": "bool",
          "name": "",
          "type": "bool"
        }
      ],
      "stateMutability": "view",
      "type": "function"
    },
    {
      "inputs": [
        {
          "internalType": "address",
          "name": "token",
          "type": "address"
        },
        {
          "internalType": "uint256",
          "name": "amount",
          "type": "uint256"
        }
      ],
      "name": "hasTokenBalance",
      "outputs": [
        {
          "internalType": "bool",
          "name": "",
          "type": "bool"
        }
      ],
      "stateMutability": "view",
      "type": "function"
    },
    {
      "inputs": [
        {
          "internalType": "address",
          "name": "token",
          "type": "address"
        }
      ],
      "name": "isNativeCoral",
      "outputs": [
        {
          "internalType": "bool",
          "name": "",
          "type": "bool"
        }
      ],
      "stateMutability": "pure",
      "type": "function"
    },
    {
      "inputs": [
        {
          "internalType": "uint256",
          "name": "amount",
          "type": "uint256"
        }
      ],
      "name": "isValidSwapAmount",
      "outputs": [
        {
          "internalType": "bool",
          "name": "",
          "type": "bool"
        }
      ],
      "stateMutability": "pure",
      "type": "function"
    },
    {
      "inputs": [
        {
          "internalType": "address",
          "name": "",
          "type": "address"
        }
      ],
      "name": "lastSwapTimestamp",
      "outputs": [
        {
          "internalType": "uint256",
          "name": "",
          "type": "uint256"
        }
      ],
      "stateMutability": "view",
      "type": "function"
    },
    {
      "inputs": [],
      "name": "liquidityManager",
      "outputs": [
        {
          "internalType": "contract SaraLiquidityManager",
          "name": "",
          "type": "address"
        }
      ],
      "stateMutability": "view",
      "type": "function"
    },
    {
      "inputs": [],
      "name": "owner",
      "outputs": [
        {
          "internalType": "address",
          "name": "",
          "type": "address"
        }
      ],
      "stateMutability": "view",
      "type": "function"
    },
    {
      "inputs": [],
      "name": "renounceOwnership",
      "outputs": [],
      "stateMutability": "nonpayable",
      "type": "function"
    },
    {
      "inputs": [
        {
          "internalType": "bytes32",
          "name": "role",
          "type": "bytes32"
        },
        {
          "internalType": "address",
          "name": "callerConfirmation",
          "type": "address"
        }
      ],
      "name": "renounceRole",
      "outputs": [],
      "stateMutability": "nonpayable",
      "type": "function"
    },
    {
      "inputs": [
        {
          "internalType": "bytes32",
          "name": "role",
          "type": "bytes32"
        },
        {
          "internalType": "address",
          "name": "account",
          "type": "address"
        }
      ],
      "name": "revokeRole",
      "outputs": [],
      "stateMutability": "nonpayable",
      "type": "function"
    },
    {
      "inputs": [
        {
          "internalType": "address",
          "name": "",
          "type": "address"
        }
      ],
      "name": "storedFees",
      "outputs": [
        {
          "internalType": "uint256",
          "name": "",
          "type": "uint256"
        }
      ],
      "stateMutability": "view",
      "type": "function"
    },
    {
      "inputs": [
        {
          "internalType": "bytes4",
          "name": "interfaceId",
          "type": "bytes4"
        }
      ],
      "name": "supportsInterface",
      "outputs": [
        {
          "internalType": "bool",
          "name": "",
          "type": "bool"
        }
      ],
      "stateMutability": "view",
      "type": "function"
    },
    {
      "inputs": [
        {
          "internalType": "address",
          "name": "creatorToken",
          "type": "address"
        },
        {
          "internalType": "uint256",
          "name": "amountIn",
          "type": "uint256"
        },
        {
          "internalType": "uint256",
          "name": "minAmountOut",
          "type": "uint256"
        },
        {
          "internalType": "uint256",
          "name": "maxSlippage",
          "type": "uint256"
        }
      ],
      "name": "swapCoralForCreatorToken",
      "outputs": [
        {
          "internalType": "uint256",
          "name": "",
          "type": "uint256"
        }
      ],
      "stateMutability": "nonpayable",
      "type": "function"
    },
    {
      "inputs": [
        {
          "internalType": "address",
          "name": "creatorToken",
          "type": "address"
        },
        {
          "internalType": "uint256",
          "name": "amountIn",
          "type": "uint256"
        },
        {
          "internalType": "uint256",
          "name": "minAmountOut",
          "type": "uint256"
        },
        {
          "internalType": "uint256",
          "name": "maxSlippage",
          "type": "uint256"
        }
      ],
      "name": "swapCreatorTokenForCoral",
      "outputs": [],
      "stateMutability": "nonpayable",
      "type": "function"
    },
    {
      "inputs": [],
      "name": "swapFee",
      "outputs": [
        {
          "internalType": "uint256",
          "name": "",
          "type": "uint256"
        }
      ],
      "stateMutability": "view",
      "type": "function"
    },
    {
      "inputs": [
        {
          "internalType": "address",
          "name": "newOwner",
          "type": "address"
        }
      ],
      "name": "transferOwnership",
      "outputs": [],
      "stateMutability": "nonpayable",
      "type": "function"
    },
    {
      "inputs": [
        {
          "internalType": "uint256",
          "name": "newMaxSlippage",
          "type": "uint256"
        }
      ],
      "name": "updateMaxSlippage",
      "outputs": [],
      "stateMutability": "nonpayable",
      "type": "function"
    },
    {
      "inputs": [
        {
          "internalType": "uint256",
          "name": "newFee",
          "type": "uint256"
        }
      ],
      "name": "updateSwapFee",
      "outputs": [],
      "stateMutability": "nonpayable",
      "type": "function"
    },
    {
      "inputs": [
        {
          "internalType": "uint256",
          "name": "slippage",
          "type": "uint256"
        }
      ],
      "name": "validateSlippage",
      "outputs": [
        {
          "internalType": "bool",
          "name": "",
          "type": "bool"
        },
        {
          "internalType": "string",
          "name": "",
          "type": "string"
        }
      ],
      "stateMutability": "view",
      "type": "function"
    },
    {
      "inputs": [
        {
          "internalType": "address",
          "name": "token",
          "type": "address"
        },
        {
          "internalType": "uint256",
          "name": "amount",
          "type": "uint256"
        }
      ],
      "name": "withdrawStoredFees",
      "outputs": [],
      "stateMutability": "nonpayable",
      "type": "function"
    }
  ],
  "bytecode": "0x60a03461014a57601f61271f38819003918201601f19168301916001600160401b0383118484101761014f57808492604094855283398101031261014a5780516001600160a01b038116919082900361014a57602001516001600160a01b0381169081900361014a5733156101345760008054336001600160a01b03198216811783556100f8949290916001600160a01b0316907f8be0079c531659141344cd1fd0a4f28419497f9722a3daafe3b4186f6b6457e09080a3601e6004556101f46080526103e8600755600280546001600160a01b031990811692909217905560038054909116821790556100f233610165565b506101e1565b50604051612445908161027a82396080518181816102420152818161044a0152818161099101528181610a6401528181610ec20152611f2d0152f35b631e4fbdf760e01b600052600060045260246000fd5b600080fd5b634e487b7160e01b600052604160045260246000fd5b6001600160a01b03811660009081526000805160206126df833981519152602052604090205460ff166101db576001600160a01b031660008181526000805160206126df83398151915260205260408120805460ff191660011790553391906000805160206126bf8339815191528180a4600190565b50600090565b6001600160a01b03811660009081526000805160206126ff833981519152602052604090205460ff166101db576001600160a01b031660008181526000805160206126ff83398151915260205260408120805460ff191660011790553391907f77e60b99a50d27fb027f6912a507d956105b4148adab27a86d235c8bcca8fa2f906000805160206126bf8339815191529080a460019056fe608080604052600436101561001357600080fd5b60003560e01c90816301ffc9a7146118655750806302e9d3e81461182b578063054d50d4146118075780630c28192f1461133457806311a9992e14611318578063125c1204146102b657806313079df5146110cf578063242f055114611094578063248a9ca314611067578063268b69cb1461100b5780632f2ff15d14610fcb5780633382743814610fa257806336568abe14610f5c57806354cf2aeb14610f3e5780636604b53a14610e5f578063715018a614610ee5578063797cb5a214610dc657806385015e0914610eaa5780638ac058cc14610e8d5780638da5cb5b14610e6457806390cd369414610e5f57806391d1485414610e1257806394590aca14610dcb57806399f34c1214610dc6578063a08a522014610c3a578063a217fddf14610c1e578063bba2e14014610bf5578063bf16f65a14610a99578063c54e1d3814610a4a578063c838889e14610a19578063d547741f146109d2578063d855dc7e146109b6578063dcefe5b6146103fb578063e7b0444c146103dd578063e7ca44ef146103b8578063f2c75fa014610379578063f2fde38b146102f0578063f81bdc23146102b6578063f896acc7146102015763fb28ceb2146101d757600080fd5b346101fc5760203660031901126101fc576101f06118b8565b50602060405160008152f35b600080fd5b346101fc5760203660031901126101fc5760043561021d612239565b6007549061023561022c611e7d565b83831415611d9d565b610269610240611eb8565b7f0000000000000000000000000000000000000000000000000000000000000000831015611d9d565b61027f610274611ef3565b6107d0831115611d9d565b8060075560405191825260208201527f701caa0f8ada7952fb1d301bdfc04ed8b66396fe0181a18d0f2fe16ea0af154760403392a2005b346101fc5760203660031901126101fc576001600160a01b036102d76118b8565b1660005260066020526020604060002054604051908152f35b346101fc5760203660031901126101fc576103096118b8565b610311612239565b6001600160a01b0316801561036357600080546001600160a01b03198116831782556001600160a01b0316907f8be0079c531659141344cd1fd0a4f28419497f9722a3daafe3b4186f6b6457e09080a3005b631e4fbdf760e01b600052600060045260246000fd5b346101fc5760203660031901126101fc57610395600435611f22565b906103b460405192839215158352604060208401526040830190611958565b0390f35b346101fc5760003660031901126101fc57602060405169021e19e0c9bab24000008152f35b346101fc5760003660031901126101fc576020600754604051908152f35b346101fc57610409366118e4565b929092336000526005602052604060002054603c81018091116108855761043290421015611c8d565b610440600754821115611e3d565b801561098e57925b7f000000000000000000000000000000000000000000000000000000000000000084106109565760035460408051630fa6707960e21b81526001600160a01b0385811660048301819052979391929183916024918391165afa80156106ff576000918291610925575b508186116108e0576002546104d09087906001600160a01b0316611dcd565b1561089b576005820290828204600514831517156108855761053b926104fe60646105049404891115611d18565b876119d9565b9261053461271061052d6105268261051e6004548a6119b9565b048098611d55565b95866119b9565b0484611d55565b1015611e3d565b6040516370a0823160e01b8152336004820152602081602481895afa80156106ff578591600091610850575b501061080057604051636eb1769f60e11b8152336004820152306024820152602081604481895afa80156106ff5785916000916107cb575b501061077a576105b184303388611f91565b331561074157801561070b576002546040516370a0823160e01b81523060048201526001600160a01b0390911690602081602481855afa9081156106ff576000916106ad575b507f5eb78b6fb12f1af3519b0bbd134251f3b57d2c31dcc8a5fcb871971ce5eb8a719461063f8461067694610638889583610630611d62565b911015611d9d565b33906121fe565b6040518481524260208201527f997d41a3a2d02ddf7873eeeaa626fcc250ea57a73e1dad920f8656df12fcd9af60403392a2611fdc565b336000526005602052426040600020556106a86040519283923396846040919493926060820195825260208201520152565b0390a3005b90506020813d6020116106f7575b816106c860209383611cca565b810103126101fc57517f5eb78b6fb12f1af3519b0bbd134251f3b57d2c31dcc8a5fcb871971ce5eb8a716105f7565b3d91506106bb565b6040513d6000823e3d90fd5b60405162461bcd60e51b815260206004820152600e60248201526d125b9d985b1a5908185b5bdd5b9d60921b6044820152606490fd5b60405162461bcd60e51b8152602060048201526011602482015270125b9d985b1a59081c9958da5c1a595b9d607a1b6044820152606490fd5b60405162461bcd60e51b8152602060048201526024808201527f496e73756666696369656e742063726561746f7220746f6b656e20616c6c6f77604482015263616e636560e01b6064820152608490fd5b9150506020813d6020116107f8575b816107e760209383611cca565b810103126101fc578490518761059f565b3d91506107da565b60405162461bcd60e51b815260206004820152602260248201527f496e73756666696369656e742063726561746f7220746f6b656e2062616c616e604482015261636560f01b6064820152608490fd5b9150506020813d60201161087d575b8161086c60209383611cca565b810103126101fc5784905187610567565b3d915061085f565b634e487b7160e01b600052601160045260246000fd5b60405162461bcd60e51b815260206004820152601c60248201527f4e6f20434f52414c206c697175696469747920617661696c61626c65000000006044820152606490fd5b60405162461bcd60e51b815260206004820152601e60248201527f496e73756666696369656e742063726561746f72206c697175696469747900006044820152606490fd5b9050610949915060403d60401161094f575b6109418183611cca565b810190611d02565b876104b1565b503d610937565b60405162461bcd60e51b815260206004820152601060248201526f496e76616c696420736c69707061676560801b6044820152606490fd5b507f000000000000000000000000000000000000000000000000000000000000000092610448565b346101fc5760003660031901126101fc57602060405160058152f35b346101fc5760403660031901126101fc57610a176004356109f16118ce565b90610a12610a0d82600052600160205260016040600020015490565b612262565b61232e565b005b346101fc5760403660031901126101fc576020610a40610a376118b8565b60243590611dcd565b6040519015158152f35b346101fc5760003660031901126101fc57600754604080517f0000000000000000000000000000000000000000000000000000000000000000815260208101929092526107d090820152606090f35b346101fc5760203660031901126101fc573360009081527fa3a28e4f80d0370a78b193fd33bfbf2f186095dc1b2bb43340c272507b8d707a60205260409020546004359060ff1615610bb05760648111610b745760045490818114610b2f578060045560405191825260208201527febec684f5bc1195db981300ece744bc7e58ddd0013fba15583c6ce3c5eb4cdec60403392a2005b60405162461bcd60e51b815260206004820152601760248201527f4e6577206665652073616d652061732063757272656e740000000000000000006044820152606490fd5b60405162461bcd60e51b81526020600482015260146024820152734665652063616e6e6f742065786365656420312560601b6044820152606490fd5b60405162461bcd60e51b815260206004820152601760248201527f4e6f742061206c6971756964697479206d616e616765720000000000000000006044820152606490fd5b346101fc5760003660031901126101fc576002546040516001600160a01b039091168152602090f35b346101fc5760003660031901126101fc57602060405160008152f35b346101fc5760403660031901126101fc5760243567ffffffffffffffff81116101fc57366023820112156101fc57806004013567ffffffffffffffff81116101fc573660248260051b840101116101fc5760028110610d8b576003546001600160a01b0316916000198201828111926000929091600435855b6108855781851015610d6757600185018086116108855784811015610d515760249060051b840101359060018060a01b0382168092036101fc5760405191630fa6707960e21b835260048301526040826024818b5afa80156106ff57600192610d26926000918293610d2f575b506119d9565b94019385610cb3565b909250610d4a915060403d811161094f576109418183611cca565b918b610d20565b634e487b7160e01b600052603260045260246000fd5b610d83602091612710610d7c600454836119b9565b0490611d55565b604051908152f35b60405162461bcd60e51b8152602060048201526013602482015272092dcecc2d8d2c840e0c2e8d040d8cadccee8d606b1b6044820152606490fd5b611936565b346101fc5760203660031901126101fc57602060043566038d7ea4c680008110159081610dfe575b506040519015158152f35b683635c9adc5dea000009150111582610df3565b346101fc5760403660031901126101fc57610e2b6118ce565b600435600052600160205260406000209060018060a01b0316600052602052602060ff604060002054166040519015158152f35b611912565b346101fc5760003660031901126101fc576000546040516001600160a01b039091168152602090f35b346101fc5760003660031901126101fc5760206040516107d08152f35b346101fc5760003660031901126101fc5760206040517f00000000000000000000000000000000000000000000000000000000000000008152f35b346101fc5760003660031901126101fc57610efe612239565b600080546001600160a01b0319811682556001600160a01b03167f8be0079c531659141344cd1fd0a4f28419497f9722a3daafe3b4186f6b6457e08280a3005b346101fc5760003660031901126101fc576020600454604051908152f35b346101fc5760403660031901126101fc57610f756118ce565b336001600160a01b03821603610f9157610a179060043561232e565b63334bd91960e11b60005260046000fd5b346101fc5760003660031901126101fc576003546040516001600160a01b039091168152602090f35b346101fc5760403660031901126101fc57610a17600435610fea6118ce565b90611006610a0d82600052600160205260016040600020015490565b61229f565b346101fc5760203660031901126101fc576001600160a01b0361102c6118b8565b16600052600660205260408060002054683635c9adc5dea00000811015908160001461105f575b82519182526020820152f35b506000611053565b346101fc5760203660031901126101fc576020610d83600435600052600160205260016040600020015490565b346101fc5760003660031901126101fc5760206040517f77e60b99a50d27fb027f6912a507d956105b4148adab27a86d235c8bcca8fa2f8152f35b346101fc5760403660031901126101fc576110e86118b8565b602435906110f4612239565b6001600160a01b03169081156112db5780156112965781600052600660205280604060002054106112515769021e19e0c9bab24000008111611213578160005260066020526040600020611149828254611d55565b90556040516370a0823160e01b8152306004820152602081602481865afa9081156106ff576000916111c1575b50816111a86040927fa423987bc38eff6f10df0f3a2bc41f3394177d8602562dc2f98baabec8c811ab94610630611d62565b6111b38133866121fe565b8151908152426020820152a2005b90506020813d60201161120b575b816111dc60209383611cca565b810103126101fc57517fa423987bc38eff6f10df0f3a2bc41f3394177d8602562dc2f98baabec8c811ab611176565b3d91506111cf565b60405162461bcd60e51b8152602060048201526016602482015275416d6f756e742065786365656473206d6178696d756d60501b6044820152606490fd5b60405162461bcd60e51b815260206004820152601860248201527f496e73756666696369656e742073746f726564206665657300000000000000006044820152606490fd5b60405162461bcd60e51b815260206004820152601960248201527f496e76616c6964207769746864726177616c20616d6f756e74000000000000006044820152606490fd5b60405162461bcd60e51b8152602060048201526015602482015274496e76616c696420746f6b656e206164647265737360581b6044820152606490fd5b346101fc5760003660031901126101fc576020604051603c8152f35b346101fc57611342366118e4565b913360005260056020526040600020546117dc575b66038d7ea4c68000811061179757683635c9adc5dea0000081116117525760035460408051630fa6707960e21b81526001600160a01b0387811660048301819052919691959391929187916024918391165afa9081156106ff57600095869261172e575b5085156116dd5781156116985768056bc75e2d631000008211611676575b6002546113f4908590309033906001600160a01b0316611f91565b60075480911160001461167057505b604051630153543560e21b8152600481018490526024810182905260448101869052906000602083606481305afa90928382611636575b505061162f57611454915061144f86856119b9565b611999565b935b84156115ea57600a81048511611599575b5080611548575b50611489612710611481600454866119b9565b048094611d55565b928315611503576114f8816114c17f5eb78b6fb12f1af3519b0bbd134251f3b57d2c31dcc8a5fcb871971ce5eb8a7193602098611fdc565b3360005260058752426040600020556114db8633876121fe565b604080519485526020850187905284015233929081906060820190565b0390a3604051908152f35b60405162461bcd60e51b815260206004820152601860248201527f4f757470757420616674657220666565206973207a65726f00000000000000006044820152606490fd5b8310611554578461146e565b60405162461bcd60e51b815260206004820152601a60248201527f496e73756666696369656e74206f757470757420616d6f756e740000000000006044820152606490fd5b84116115a55785611467565b60405162461bcd60e51b815260206004820152601e60248201527f4f757470757420657863656564732063726561746f72207265736572766500006044820152606490fd5b60405162461bcd60e51b815260206004820152601960248201527f43616c63756c61746564206f7574707574206973207a65726f000000000000006044820152606490fd5b5093611456565b909193506020823d602011611668575b8161165360209383611cca565b8101031261166557505191888061143a565b80fd5b3d9150611646565b50611403565b600582028281046005036108855760646116939104851115611d18565b6113d9565b60405162461bcd60e51b815260206004820152601c60248201527f496e73756666696369656e7420434f52414c206c6971756964697479000000006044820152606490fd5b60405162461bcd60e51b8152602060048201526024808201527f496e73756666696369656e742063726561746f7220746f6b656e206c697175696044820152636469747960e01b6064820152608490fd5b90955061174a915060403d60401161094f576109418183611cca565b9094876113bb565b60405162461bcd60e51b815260206004820152601960248201527f416d6f756e742061626f7665206d6178696d756d2073776170000000000000006044820152606490fd5b60405162461bcd60e51b815260206004820152601960248201527f416d6f756e742062656c6f77206d696e696d756d2073776170000000000000006044820152606490fd5b336000526005602052604060002054603c81018091116108855761180290421015611c8d565b611357565b346101fc5760603660031901126101fc576020610d836044356024356004356119d9565b346101fc5760203660031901126101fc576001600160a01b0361184c6118b8565b1660005260056020526020604060002054604051908152f35b346101fc5760203660031901126101fc576004359063ffffffff60e01b82168092036101fc57602091637965db0b60e01b81149081156118a7575b5015158152f35b6301ffc9a760e01b149050836118a0565b600435906001600160a01b03821682036101fc57565b602435906001600160a01b03821682036101fc57565b60809060031901126101fc576004356001600160a01b03811681036101fc5790602435906044359060643590565b346101fc5760003660031901126101fc576020604051683635c9adc5dea000008152f35b346101fc5760003660031901126101fc57602060405166038d7ea4c680008152f35b919082519283825260005b848110611984575050826000602080949584010152601f8019910116010190565b80602080928401015182828601015201611963565b81156119a3570490565b634e487b7160e01b600052601260045260246000fd5b8181029291811591840414171561088557565b9190820180921161088557565b90918115611c5157821590811580611c48575b15611c1057600a84048311611bc3575b66038d7ea4c680008310611b87577e41bbb2f80a4553f6c19ad51e8e40314cc63a07b3fef911341fd6eab024f9948311611b36576103e583029283046103e50361088557611a4a90836119b9565b916103e88402918483046103e814171561088557611a67916119cc565b8015611af257611a7691611999565b9066038d7ea4c68000821080918192611adf575b50611a93575090565b611a9a5790565b60405162461bcd60e51b815260206004820152601960248201527f53776170206f75747075742062656c6f77206d696e696d756d000000000000006044820152606490fd5b68056bc75e2d6310000091501138611a8a565b606460405162461bcd60e51b815260206004820152602060248201527f4469766973696f6e206279207a65726f20696e20676574416d6f756e744f75746044820152fd5b60405162461bcd60e51b8152602060048201526024808201527f416d6f756e7420746f6f206c6172676520666f72206665652063616c63756c616044820152633a34b7b760e11b6064820152608490fd5b60405162461bcd60e51b8152602060048201526014602482015273416d6f756e742062656c6f77206d696e696d756d60601b6044820152606490fd5b838311156119fc5760405162461bcd60e51b815260206004820152601c60248201527f5377617020616d6f756e742065786365656473207265736572766573000000006044820152606490fd5b60405162461bcd60e51b815260206004820152601060248201526f496e76616c696420726573657276657360801b6044820152606490fd5b508015156119ec565b60405162461bcd60e51b8152602060048201526014602482015273125b9d985b1a59081a5b9c1d5d08185b5bdd5b9d60621b6044820152606490fd5b15611c9457565b60405162461bcd60e51b815260206004820152600e60248201526d546f6f206d616e7920737761707360901b6044820152606490fd5b90601f8019910116810190811067ffffffffffffffff821117611cec57604052565b634e487b7160e01b600052604160045260246000fd5b91908260409103126101fc576020825192015190565b15611d1f57565b60405162461bcd60e51b815260206004820152600e60248201526d5377617020746f6f206c6172676560901b6044820152606490fd5b9190820391821161088557565b60405190611d71604083611cca565b602082527f496e73756666696369656e7420434f52414c20746f6b656e2062616c616e63656020830152565b15611da55750565b60405162461bcd60e51b815260206004820152908190611dc9906024830190611958565b0390fd5b6040516370a0823160e01b815230600482015290602090829060249082906001600160a01b03165afa9081156106ff57600091611e0b575b50101590565b90506020813d602011611e35575b81611e2660209383611cca565b810103126101fc575138611e05565b3d9150611e19565b15611e4457565b60405162461bcd60e51b81526020600482015260116024820152700a6d8d2e0e0c2ceca40e8dede40d0d2ced607b1b6044820152606490fd5b60405190611e8c604083611cca565b601c82527f4e657720736c6970706167652073616d652061732063757272656e74000000006020830152565b60405190611ec7604083611cca565b601c82527f43616e6e6f74206265206c6f776572207468616e2064656661756c74000000006020830152565b60405190611f02604083611cca565b601182527043616e6e6f74206578636565642032302560781b6020830152565b6007548114611f88577f00000000000000000000000000000000000000000000000000000000000000008110611f7f576107d010611f7257600190604051611f6b602082611cca565b6000815290565b611f7a611ef3565b600091565b50611f7a611eb8565b50611f7a611e7d565b6040516323b872dd60e01b60208201526001600160a01b039283166024820152929091166044830152606480830193909352918152611fda91611fd5608483611cca565b6123b4565b565b60018060a01b03169081600052600660205269021e19e0c9bab2400000612008826040600020546119cc565b116121b95781600052600660205261202660406000209182546119cc565b9055806000526006602052683635c9adc5dea00000604060002054101561204a5750565b600081815260066020908152604080832054600354915163bc99f48760e01b81526004810186905290938493919283916024918391906001600160a01b03165af19081612181575b506120c5575060207fc2af8177b25272aa44b4eafdf3cc4916749b55dced944e081e11d1e1a9ac7ec291604051908152a2565b908260005260066020526040600020548381156000146121105750507f030a9a7748b75a6ebf9c7cb2beac00be9bcc421abcf4793aa03dd54a461594ac9150602090604051908152a2565b6020925061213f827fc2af8177b25272aa44b4eafdf3cc4916749b55dced944e081e11d1e1a9ac7ec295611d55565b80612150575b5050604051908152a2565b837f030a9a7748b75a6ebf9c7cb2beac00be9bcc421abcf4793aa03dd54a461594ac91604051908152a28338612145565b6020813d6020116121b1575b8161219a60209383611cca565b810103126101fc5751801515811461209257600080fd5b3d915061218d565b60405162461bcd60e51b815260206004820152601960248201527f4665652073746f72616765206c696d69742072656163686564000000000000006044820152606490fd5b60405163a9059cbb60e01b60208201526001600160a01b039092166024830152604480830193909352918152611fda91611fd5606483611cca565b6000546001600160a01b0316330361224d57565b63118cdaa760e01b6000523360045260246000fd5b600081815260016020908152604080832033845290915290205460ff16156122875750565b63e2517d3f60e01b6000523360045260245260446000fd5b60008181526001602090815260408083206001600160a01b038616845290915290205460ff166123275760008181526001602081815260408084206001600160a01b0396909616808552959091528220805460ff19169091179055339291907f2f8788117e7eff1d82e926ec794901d17c78024a50270940304540a733656f0d9080a4600190565b5050600090565b60008181526001602090815260408083206001600160a01b038616845290915290205460ff16156123275760008181526001602090815260408083206001600160a01b0395909516808452949091528120805460ff19169055339291907ff6391f5c32d9c69d2a47ea670b442974b53935d1edc7fd64eb21e047a839171b9080a4600190565b906000602091828151910182855af1156106ff576000513d61240657506001600160a01b0381163b155b6123e55750565b635274afe760e01b60009081526001600160a01b0391909116600452602490fd5b600114156123de56fea2646970667358221220b941b0df71221c2cf9125c9b64f3916c77eeef1c1973a78b6a34405ca331498264736f6c634300081c00332f8788117e7eff1d82e926ec794901d17c78024a50270940304540a733656f0da6eef7e35abe7026729641147f7915573c7e97b47efa546f5f6e3230263bcb49a3a28e4f80d0370a78b193fd33bfbf2f186095dc1b2bb43340c272507b8d707a",
  "linkReferences": {},
  "deployedLinkReferences": {}
}