{
  "_format": "hh-sol-artifact-1",
  "contractName": "SaraDEX",
  "sourceName": "contracts/SaraDEX.sol",
  "abi": [
    {
      "inputs": [
        {
          "internalType": "address",
          "name": "_coralToken",
          "type": "address"
        },
        {
          "internalType": "address payable",
          "name": "_liquidityManager",
          "type": "address"
        }
      ],
      "stateMutability": "nonpayable",
      "type": "constructor"
    },
    {
      "inputs": [
        {
          "internalType": "address",
          "name": "owner",
          "type": "address"
        }
      ],
      "name": "OwnableInvalidOwner",
      "type": "error"
    },
    {
      "inputs": [
        {
          "internalType": "address",
          "name": "account",
          "type": "address"
        }
      ],
      "name": "OwnableUnauthorizedAccount",
      "type": "error"
    },
    {
      "inputs": [
        {
          "internalType": "address",
          "name": "token",
          "type": "address"
        }
      ],
      "name": "SafeERC20FailedOperation",
      "type": "error"
    },
    {
      "anonymous": false,
      "inputs": [
        {
          "indexed": true,
          "internalType": "address",
          "name": "token",
          "type": "address"
        },
        {
          "indexed": false,
          "internalType": "uint256",
          "name": "storedFees",
          "type": "uint256"
        }
      ],
      "name": "CoralAutoRedeploymentFailed",
      "type": "event"
    },
    {
      "anonymous": false,
      "inputs": [
        {
          "indexed": true,
          "internalType": "address",
          "name": "token",
          "type": "address"
        },
        {
          "indexed": false,
          "internalType": "uint256",
          "name": "amount",
          "type": "uint256"
        }
      ],
      "name": "CoralFeesRedeployed",
      "type": "event"
    },
    {
      "anonymous": false,
      "inputs": [
        {
          "indexed": true,
          "internalType": "address",
          "name": "token",
          "type": "address"
        },
        {
          "indexed": false,
          "internalType": "uint256",
          "name": "amount",
          "type": "uint256"
        },
        {
          "indexed": false,
          "internalType": "uint256",
          "name": "timestamp",
          "type": "uint256"
        }
      ],
      "name": "CoralFeesWithdrawn",
      "type": "event"
    },
    {
      "anonymous": false,
      "inputs": [
        {
          "indexed": true,
          "internalType": "address",
          "name": "user",
          "type": "address"
        },
        {
          "indexed": true,
          "internalType": "address",
          "name": "creatorToken",
          "type": "address"
        },
        {
          "indexed": false,
          "internalType": "uint256",
          "name": "amountIn",
          "type": "uint256"
        },
        {
          "indexed": false,
          "internalType": "uint256",
          "name": "amountOut",
          "type": "uint256"
        },
        {
          "indexed": false,
          "internalType": "uint256",
          "name": "fee",
          "type": "uint256"
        }
      ],
      "name": "CoralSwapExecuted",
      "type": "event"
    },
    {
      "anonymous": false,
      "inputs": [
        {
          "indexed": true,
          "internalType": "address",
          "name": "token",
          "type": "address"
        },
        {
          "indexed": false,
          "internalType": "uint256",
          "name": "amount",
          "type": "uint256"
        },
        {
          "indexed": false,
          "internalType": "uint256",
          "name": "timestamp",
          "type": "uint256"
        }
      ],
      "name": "CoralTokensRequested",
      "type": "event"
    },
    {
      "anonymous": false,
      "inputs": [
        {
          "indexed": true,
          "internalType": "address",
          "name": "to",
          "type": "address"
        },
        {
          "indexed": false,
          "internalType": "uint256",
          "name": "amount",
          "type": "uint256"
        },
        {
          "indexed": false,
          "internalType": "uint256",
          "name": "timestamp",
          "type": "uint256"
        }
      ],
      "name": "CoralTransferred",
      "type": "event"
    },
    {
      "anonymous": false,
      "inputs": [
        {
          "indexed": false,
          "internalType": "uint256",
          "name": "oldSlippage",
          "type": "uint256"
        },
        {
          "indexed": false,
          "internalType": "uint256",
          "name": "newSlippage",
          "type": "uint256"
        },
        {
          "indexed": true,
          "internalType": "address",
          "name": "updater",
          "type": "address"
        }
      ],
      "name": "MaxSlippageUpdated",
      "type": "event"
    },
    {
      "anonymous": false,
      "inputs": [
        {
          "indexed": true,
          "internalType": "address",
          "name": "previousOwner",
          "type": "address"
        },
        {
          "indexed": true,
          "internalType": "address",
          "name": "newOwner",
          "type": "address"
        }
      ],
      "name": "OwnershipTransferred",
      "type": "event"
    },
    {
      "inputs": [],
      "name": "ABSOLUTE_MAX_SLIPPAGE",
      "outputs": [
        {
          "internalType": "uint256",
          "name": "",
          "type": "uint256"
        }
      ],
      "stateMutability": "view",
      "type": "function"
    },
    {
      "inputs": [],
      "name": "AUTO_REDEPLOY_THRESHOLD",
      "outputs": [
        {
          "internalType": "uint256",
          "name": "",
          "type": "uint256"
        }
      ],
      "stateMutability": "view",
      "type": "function"
    },
    {
      "inputs": [],
      "name": "DEFAULT_MAX_SLIPPAGE",
      "outputs": [
        {
          "internalType": "uint256",
          "name": "",
          "type": "uint256"
        }
      ],
      "stateMutability": "view",
      "type": "function"
    },
    {
      "inputs": [],
      "name": "MAXIMUM_ALLOWED_SLIPPAGE",
      "outputs": [
        {
          "internalType": "uint256",
          "name": "",
          "type": "uint256"
        }
      ],
      "stateMutability": "view",
      "type": "function"
    },
    {
      "inputs": [],
      "name": "MAX_FEE_STORAGE",
      "outputs": [
        {
          "internalType": "uint256",
          "name": "",
          "type": "uint256"
        }
      ],
      "stateMutability": "view",
      "type": "function"
    },
    {
      "inputs": [],
      "name": "MAX_SINGLE_SWAP",
      "outputs": [
        {
          "internalType": "uint256",
          "name": "",
          "type": "uint256"
        }
      ],
      "stateMutability": "view",
      "type": "function"
    },
    {
      "inputs": [],
      "name": "MAX_SWAP_AMOUNT_PERCENT",
      "outputs": [
        {
          "internalType": "uint256",
          "name": "",
          "type": "uint256"
        }
      ],
      "stateMutability": "view",
      "type": "function"
    },
    {
      "inputs": [],
      "name": "MIN_OUTPUT_AMOUNT",
      "outputs": [
        {
          "internalType": "uint256",
          "name": "",
          "type": "uint256"
        }
      ],
      "stateMutability": "view",
      "type": "function"
    },
    {
      "inputs": [],
      "name": "MIN_SWAP_AMOUNT",
      "outputs": [
        {
          "internalType": "uint256",
          "name": "",
          "type": "uint256"
        }
      ],
      "stateMutability": "view",
      "type": "function"
    },
    {
      "inputs": [],
      "name": "MIN_TIME_BETWEEN_SWAPS",
      "outputs": [
        {
          "internalType": "uint256",
          "name": "",
          "type": "uint256"
        }
      ],
      "stateMutability": "view",
      "type": "function"
    },
    {
      "inputs": [],
      "name": "canHandleNativeCoral",
      "outputs": [
        {
          "internalType": "bool",
          "name": "",
          "type": "bool"
        }
      ],
      "stateMutability": "view",
      "type": "function"
    },
    {
      "inputs": [
        {
          "internalType": "address",
          "name": "token",
          "type": "address"
        }
      ],
      "name": "checkFeesForRedeployment",
      "outputs": [
        {
          "internalType": "bool",
          "name": "needsRedeploy",
          "type": "bool"
        },
        {
          "internalType": "uint256",
          "name": "amount",
          "type": "uint256"
        }
      ],
      "stateMutability": "view",
      "type": "function"
    },
    {
      "inputs": [],
      "name": "coralToken",
      "outputs": [
        {
          "internalType": "address",
          "name": "",
          "type": "address"
        }
      ],
      "stateMutability": "view",
      "type": "function"
    },
    {
      "inputs": [
        {
          "internalType": "uint256",
          "name": "amountIn",
          "type": "uint256"
        },
        {
          "internalType": "uint256",
          "name": "reserveIn",
          "type": "uint256"
        },
        {
          "internalType": "uint256",
          "name": "reserveOut",
          "type": "uint256"
        }
      ],
      "name": "getAmountOut",
      "outputs": [
        {
          "internalType": "uint256",
          "name": "",
          "type": "uint256"
        }
      ],
      "stateMutability": "pure",
      "type": "function"
    },
    {
      "inputs": [
        {
          "internalType": "uint256",
          "name": "amountIn",
          "type": "uint256"
        },
        {
          "internalType": "address[]",
          "name": "path",
          "type": "address[]"
        }
      ],
      "name": "getAmountOutWithFees",
      "outputs": [
        {
          "internalType": "uint256",
          "name": "",
          "type": "uint256"
        }
      ],
      "stateMutability": "view",
      "type": "function"
    },
    {
      "inputs": [],
      "name": "getNativeCoralBalance",
      "outputs": [
        {
          "internalType": "uint256",
          "name": "",
          "type": "uint256"
        }
      ],
      "stateMutability": "view",
      "type": "function"
    },
    {
      "inputs": [],
      "name": "getSlippageSettings",
      "outputs": [
        {
          "internalType": "uint256",
          "name": "defaultSlippage",
          "type": "uint256"
        },
        {
          "internalType": "uint256",
          "name": "currentMaxSlippage",
          "type": "uint256"
        },
        {
          "internalType": "uint256",
          "name": "absoluteMaximum",
          "type": "uint256"
        }
      ],
      "stateMutability": "view",
      "type": "function"
    },
    {
      "inputs": [
        {
          "internalType": "address",
          "name": "token",
          "type": "address"
        }
      ],
      "name": "getWithdrawableFees",
      "outputs": [
        {
          "internalType": "uint256",
          "name": "",
          "type": "uint256"
        }
      ],
      "stateMutability": "view",
      "type": "function"
    },
    {
      "inputs": [
        {
          "internalType": "address",
          "name": "token",
          "type": "address"
        },
        {
          "internalType": "uint256",
          "name": "amount",
          "type": "uint256"
        }
      ],
      "name": "hasTokenBalance",
      "outputs": [
        {
          "internalType": "bool",
          "name": "",
          "type": "bool"
        }
      ],
      "stateMutability": "view",
      "type": "function"
    },
    {
      "inputs": [
        {
          "internalType": "address",
          "name": "token",
          "type": "address"
        }
      ],
      "name": "isNativeCoral",
      "outputs": [
        {
          "internalType": "bool",
          "name": "",
          "type": "bool"
        }
      ],
      "stateMutability": "view",
      "type": "function"
    },
    {
      "inputs": [
        {
          "internalType": "uint256",
          "name": "amount",
          "type": "uint256"
        }
      ],
      "name": "isValidSwapAmount",
      "outputs": [
        {
          "internalType": "bool",
          "name": "",
          "type": "bool"
        }
      ],
      "stateMutability": "pure",
      "type": "function"
    },
    {
      "inputs": [
        {
          "internalType": "address",
          "name": "",
          "type": "address"
        }
      ],
      "name": "lastSwapTimestamp",
      "outputs": [
        {
          "internalType": "uint256",
          "name": "",
          "type": "uint256"
        }
      ],
      "stateMutability": "view",
      "type": "function"
    },
    {
      "inputs": [],
      "name": "liquidityManager",
      "outputs": [
        {
          "internalType": "contract SaraLiquidityManager",
          "name": "",
          "type": "address"
        }
      ],
      "stateMutability": "view",
      "type": "function"
    },
    {
      "inputs": [],
      "name": "owner",
      "outputs": [
        {
          "internalType": "address",
          "name": "",
          "type": "address"
        }
      ],
      "stateMutability": "view",
      "type": "function"
    },
    {
      "inputs": [],
      "name": "renounceOwnership",
      "outputs": [],
      "stateMutability": "nonpayable",
      "type": "function"
    },
    {
      "inputs": [
        {
          "internalType": "address",
          "name": "",
          "type": "address"
        }
      ],
      "name": "storedFees",
      "outputs": [
        {
          "internalType": "uint256",
          "name": "",
          "type": "uint256"
        }
      ],
      "stateMutability": "view",
      "type": "function"
    },
    {
      "inputs": [
        {
          "internalType": "address",
          "name": "creatorToken",
          "type": "address"
        },
        {
          "internalType": "uint256",
          "name": "amountIn",
          "type": "uint256"
        },
        {
          "internalType": "uint256",
          "name": "minAmountOut",
          "type": "uint256"
        },
        {
          "internalType": "uint256",
          "name": "maxSlippage",
          "type": "uint256"
        }
      ],
      "name": "swapCoralForCreatorToken",
      "outputs": [
        {
          "internalType": "uint256",
          "name": "",
          "type": "uint256"
        }
      ],
      "stateMutability": "payable",
      "type": "function"
    },
    {
      "inputs": [
        {
          "internalType": "address",
          "name": "creatorToken",
          "type": "address"
        },
        {
          "internalType": "uint256",
          "name": "amountIn",
          "type": "uint256"
        },
        {
          "internalType": "uint256",
          "name": "minAmountOut",
          "type": "uint256"
        },
        {
          "internalType": "uint256",
          "name": "maxSlippage",
          "type": "uint256"
        }
      ],
      "name": "swapCreatorTokenForCoral",
      "outputs": [],
      "stateMutability": "nonpayable",
      "type": "function"
    },
    {
      "inputs": [],
      "name": "swapFee",
      "outputs": [
        {
          "internalType": "uint256",
          "name": "",
          "type": "uint256"
        }
      ],
      "stateMutability": "view",
      "type": "function"
    },
    {
      "inputs": [
        {
          "internalType": "address",
          "name": "newOwner",
          "type": "address"
        }
      ],
      "name": "transferOwnership",
      "outputs": [],
      "stateMutability": "nonpayable",
      "type": "function"
    },
    {
      "inputs": [
        {
          "internalType": "uint256",
          "name": "newMaxSlippage",
          "type": "uint256"
        }
      ],
      "name": "updateMaxSlippage",
      "outputs": [],
      "stateMutability": "nonpayable",
      "type": "function"
    },
    {
      "inputs": [
        {
          "internalType": "uint256",
          "name": "slippage",
          "type": "uint256"
        }
      ],
      "name": "validateSlippage",
      "outputs": [
        {
          "internalType": "bool",
          "name": "",
          "type": "bool"
        },
        {
          "internalType": "string",
          "name": "",
          "type": "string"
        }
      ],
      "stateMutability": "view",
      "type": "function"
    },
    {
      "inputs": [
        {
          "internalType": "address",
          "name": "token",
          "type": "address"
        },
        {
          "internalType": "uint256",
          "name": "amount",
          "type": "uint256"
        }
      ],
      "name": "withdrawStoredFees",
      "outputs": [],
      "stateMutability": "nonpayable",
      "type": "function"
    },
    {
      "stateMutability": "payable",
      "type": "receive"
    }
  ],
  "bytecode": "0x60a03461014457601f61238438819003918201601f19168301916001600160401b038311848410176101495780849260409485528339810103126101445780516001600160a01b038116919082900361014457602001516001600160a01b0381169081900361014457331561012e5760008054336001600160a01b0319821681178355604051949290916001600160a01b0316907f8be0079c531659141344cd1fd0a4f28419497f9722a3daafe3b4186f6b6457e09080a3601e6003556101f46080526103e860065560018060a01b0319600154161760015560018060a01b031960025416176002556122249081610160823960805181818161020801528181610413015281816109b801528181610a3c01528181610cec0152818161118f015281816115a40152611e410152f35b631e4fbdf760e01b600052600060045260246000fd5b600080fd5b634e487b7160e01b600052604160045260246000fdfe608080604052600436101561001d575b50361561001b57600080fd5b005b60003560e01c90816302e9d3e8146115ed57508063054d50d4146115c95780630c28192f1461114257806311a9992e14611126578063125c12041461027c57806313079df514610e34578063268b69cb14610dd85780633382743814610daf57806354cf2aeb14610d9157806365804d5114610d685780636604b53a14610c89578063715018a614610d0f578063797cb5a214610c3d57806385015e0914610cd45780638ac058cc14610cb75780638da5cb5b14610c8e57806390cd369414610c8957806394590aca14610c4257806399f34c1214610c3d578063a08a522014610ab1578063a5b1590514610a95578063bba2e14014610a6c578063c54e1d3814610a20578063c838889e146109f9578063d855dc7e146109dd578063dcefe5b6146103c1578063e7b0444c146103a3578063e7ca44ef1461037e578063f2c75fa01461033f578063f2fde38b146102b6578063f81bdc231461027c578063f896acc7146101c75763fb28ceb214610195573861000f565b346101c25760203660031901126101c25760206101b86101b3611623565b611ea5565b6040519015158152f35b600080fd5b346101c25760203660031901126101c2576004356101e36120fe565b600654906101fb6101f2611d91565b83831415611bbf565b61022f610206611dcc565b7f0000000000000000000000000000000000000000000000000000000000000000831015611bbf565b61024561023a611e07565b6107d0831115611bbf565b8060065560405191825260208201527f701caa0f8ada7952fb1d301bdfc04ed8b66396fe0181a18d0f2fe16ea0af154760403392a2005b346101c25760203660031901126101c2576001600160a01b0361029d611623565b1660005260056020526020604060002054604051908152f35b346101c25760203660031901126101c2576102cf611623565b6102d76120fe565b6001600160a01b0316801561032957600080546001600160a01b03198116831782556001600160a01b0316907f8be0079c531659141344cd1fd0a4f28419497f9722a3daafe3b4186f6b6457e09080a3005b631e4fbdf760e01b600052600060045260246000fd5b346101c25760203660031901126101c25761035b600435611e36565b9061037a604051928392151583526040602084015260408301906116ad565b0390f35b346101c25760003660031901126101c257602060405169021e19e0c9bab24000008152f35b346101c25760003660031901126101c2576020600654604051908152f35b346101c2576103cf36611639565b929092336000526004602052604060002054603c8101809111610929576103f8904210156119e4565b610406600654821115611a21565b80156109b557925b61043a7f0000000000000000000000000000000000000000000000000000000000000000851015611a61565b60025460408051630fa6707960e21b81526001600160a01b0385811660048301819052979391929183916024918391165afa80156107b8576000918291610984575b5081861161093f576001546104a49061049f9088906001600160a01b0316611c86565b611aee565b6005820290828204600514831517156109295761050a926104cd60646104d39404891115611b3a565b8761170e565b926105036127106104fc6104f5826104ed6003548a6116ee565b048098611b77565b95866116ee565b0484611b77565b1015611a21565b6040516370a0823160e01b8152336004820152602081602481895afa80156107b85785906000906108f3575b61054292501015611bef565b604051636eb1769f60e11b8152336004820152306024820152602081604481895afa80156107b85785916000916108be575b501061086d5761058684303388611efd565b33156108345780156107fe576001546001600160a01b03166105a781611ea5565b156106c5575061068e826000805160206121cf83398151915294610657476105d96105d0611b84565b87831015611bbf565b61064660008080808a335af16105ed611c46565b50604051906105fd606083611aa0565b603182527f4661696c656420746f2067657420434f52414c20746f6b656e732066726f6d206020830152702634b8bab4b234ba3c9026b0b730b3b2b960791b6040830152611bbf565b610651864792611b77565b14612127565b6040518481524260208201527f997d41a3a2d02ddf7873eeeaa626fcc250ea57a73e1dad920f8656df12fcd9af60403392a2611f83565b336000526004602052426040600020556106c06040519283923396846040919493926060820195825260208201520152565b0390a3005b6040516370a0823160e01b8152306004820152602081602481855afa9081156107b85783906000926107c4575b506107159060249361070e610705611b84565b83861015611bbf565b3390611f48565b6001546040516370a0823160e01b81523060048201529260209184919082906001600160a01b03165afa9182156107b857600092610776575b506000805160206121cf8339815191529461077161068e93610651868895611b77565b610657565b91506020823d6020116107b0575b8161079160209383611aa0565b810103126101c2579051906000805160206121cf83398151915261074e565b3d9150610784565b6040513d6000823e3d90fd5b9190506020823d6020116107f6575b816107e060209383611aa0565b810103126107f3575051826107156106f2565b80fd5b3d91506107d3565b60405162461bcd60e51b815260206004820152600e60248201526d125b9d985b1a5908185b5bdd5b9d60921b6044820152606490fd5b60405162461bcd60e51b8152602060048201526011602482015270125b9d985b1a59081c9958da5c1a595b9d607a1b6044820152606490fd5b60405162461bcd60e51b8152602060048201526024808201527f496e73756666696369656e742063726561746f7220746f6b656e20616c6c6f77604482015263616e636560e01b6064820152608490fd5b9150506020813d6020116108eb575b816108da60209383611aa0565b810103126101c25784905187610574565b3d91506108cd565b50506020813d602011610921575b8161090e60209383611aa0565b810103126101c257846105429151610536565b3d9150610901565b634e487b7160e01b600052601160045260246000fd5b60405162461bcd60e51b815260206004820152601e60248201527f496e73756666696369656e742063726561746f72206c697175696469747900006044820152606490fd5b90506109a8915060403d6040116109ae575b6109a08183611aa0565b810190611ad8565b8761047c565b503d610996565b507f00000000000000000000000000000000000000000000000000000000000000009261040e565b346101c25760003660031901126101c257602060405160058152f35b346101c25760403660031901126101c25760206101b8610a17611623565b60243590611c86565b346101c25760003660031901126101c2576060600654604051907f0000000000000000000000000000000000000000000000000000000000000000825260208201526107d06040820152f35b346101c25760003660031901126101c2576001546040516001600160a01b039091168152602090f35b346101c25760003660031901126101c257602047604051908152f35b346101c25760403660031901126101c25760243567ffffffffffffffff81116101c257366023820112156101c257806004013567ffffffffffffffff81116101c2573660248260051b840101116101c25760028110610c02576002546001600160a01b0316916000198201828111926000929091600435855b6109295781851015610bde57600185018086116109295784811015610bc85760249060051b840101359060018060a01b0382168092036101c25760405191630fa6707960e21b835260048301526040826024818b5afa80156107b857600192610b9d926000918293610ba6575b5061170e565b94019385610b2a565b909250610bc1915060403d81116109ae576109a08183611aa0565b918b610b97565b634e487b7160e01b600052603260045260246000fd5b610bfa602091612710610bf3600354836116ee565b0490611b77565b604051908152f35b60405162461bcd60e51b8152602060048201526013602482015272092dcecc2d8d2c840e0c2e8d040d8cadccee8d606b1b6044820152606490fd5b61168b565b346101c25760203660031901126101c257602060043566038d7ea4c680008110159081610c75575b506040519015158152f35b683635c9adc5dea000009150111582610c6a565b611667565b346101c25760003660031901126101c2576000546040516001600160a01b039091168152602090f35b346101c25760003660031901126101c25760206040516107d08152f35b346101c25760003660031901126101c25760206040517f00000000000000000000000000000000000000000000000000000000000000008152f35b346101c25760003660031901126101c257610d286120fe565b600080546001600160a01b0319811682556001600160a01b03167f8be0079c531659141344cd1fd0a4f28419497f9722a3daafe3b4186f6b6457e08280a3005b346101c25760003660031901126101c2576001546020906101b8906001600160a01b0316611ea5565b346101c25760003660031901126101c2576020600354604051908152f35b346101c25760003660031901126101c2576002546040516001600160a01b039091168152602090f35b346101c25760203660031901126101c2576001600160a01b03610df9611623565b16600052600560205260408060002054683635c9adc5dea000008110159081600014610e2c575b82519182526020820152f35b506000610e20565b346101c25760403660031901126101c257610e4d611623565b602435610e586120fe565b6001600160a01b0382169182156110e95781156110a457826000526005602052816040600020541061105f5769021e19e0c9bab2400000821161102157610eb9908360005260056020526040600020610eb2848254611b77565b9055611ea5565b15610f5a57610ed381471015610ecd611b84565b90611bbf565b600080808084335af1610ee4611c46565b5015610f1d5760407fa423987bc38eff6f10df0f3a2bc41f3394177d8602562dc2f98baabec8c811ab915b8151908152426020820152a2005b60405162461bcd60e51b815260206004820152601560248201527410d3d49053081d1c985b9cd9995c8819985a5b1959605a1b6044820152606490fd5b6040516370a0823160e01b8152306004820152602081602481865afa9081156107b857600091610fcf575b5081610fbf6040927fa423987bc38eff6f10df0f3a2bc41f3394177d8602562dc2f98baabec8c811ab94610fb7611b84565b911015611bbf565b610fca813386611f48565b610f0f565b90506020813d602011611019575b81610fea60209383611aa0565b810103126101c257517fa423987bc38eff6f10df0f3a2bc41f3394177d8602562dc2f98baabec8c811ab610f85565b3d9150610fdd565b60405162461bcd60e51b8152602060048201526016602482015275416d6f756e742065786365656473206d6178696d756d60501b6044820152606490fd5b60405162461bcd60e51b815260206004820152601860248201527f496e73756666696369656e742073746f726564206665657300000000000000006044820152606490fd5b60405162461bcd60e51b815260206004820152601960248201527f496e76616c6964207769746864726177616c20616d6f756e74000000000000006044820152606490fd5b60405162461bcd60e51b8152602060048201526015602482015274496e76616c696420746f6b656e206164647265737360581b6044820152606490fd5b346101c25760003660031901126101c2576020604051603c8152f35b61114b36611639565b929092336000526004602052604060002054603c810180911161092957611174904210156119e4565b611182600654821115611a21565b80156115a157915b6111b67f0000000000000000000000000000000000000000000000000000000000000000841015611a61565b60025460408051630fa6707960e21b81526001600160a01b0385811660048301819052959391929183916024918391165afa80156107b857600091600091611580575b506001546001600160a01b03169161121461049f8685611c86565b81851161153b5780156114f657600582029082820460051483151715610929576112819261124a60646112509404881115611b3a565b8661170e565b9661050361271061127a6112738261126b8d600354906116ee565b04809c611b77565b998a6116ee565b0488611b77565b61128a81611ea5565b156113ba5750813403611366575b6040516370a0823160e01b8152306004820152602081602481875afa9081156107b857600091611334575b50856112fa6020976000805160206121cf833981519152946112ea89611329961015611bef565b6112f589338a611f48565b611f83565b336000526004875242604060002055604051918291873396846040919493926060820195825260208201520152565b0390a3604051908152f35b90506020813d60201161135e575b8161134f60209383611aa0565b810103126101c25751856112c3565b3d9150611342565b60405162461bcd60e51b815260206004820152602660248201527f4d7573742073656e6420657861637420616d6f756e74206f66206e61746976656044820152650810d3d4905360d21b6064820152608490fd5b6040516370a0823160e01b8152336004820152602081602481855afa80156107b8576000906114c2575b6113f2915084610fb7611b84565b604051636eb1769f60e11b8152336004820152306024820152602081604481855afa80156107b857849160009161148d575b501061143d57826114389130903390611efd565b611298565b60405162461bcd60e51b815260206004820152602260248201527f496e73756666696369656e7420434f52414c20746f6b656e20616c6c6f77616e604482015261636560f01b6064820152608490fd5b9150506020813d6020116114ba575b816114a960209383611aa0565b810103126101c25783905188611424565b3d915061149c565b506020813d6020116114ee575b816114dc60209383611aa0565b810103126101c2576113f290516113e4565b3d91506114cf565b60405162461bcd60e51b815260206004820152601a60248201527f4e6f2063726561746f7220746f6b656e206c69717569646974790000000000006044820152606490fd5b60405162461bcd60e51b815260206004820152601a60248201527f496e73756666696369656e7420434f52414c20696e20706f6f6c0000000000006044820152606490fd5b905061159b915060403d6040116109ae576109a08183611aa0565b876111f9565b507f00000000000000000000000000000000000000000000000000000000000000009161118a565b346101c25760603660031901126101c2576020610bfa60443560243560043561170e565b346101c25760203660031901126101c2576020906001600160a01b03611611611623565b16600052600482526040600020548152f35b600435906001600160a01b03821682036101c257565b60809060031901126101c2576004356001600160a01b03811681036101c25790602435906044359060643590565b346101c25760003660031901126101c2576020604051683635c9adc5dea000008152f35b346101c25760003660031901126101c257602060405166038d7ea4c680008152f35b919082519283825260005b8481106116d9575050826000602080949584010152601f8019910116010190565b806020809284010151828286010152016116b8565b8181029291811591840414171561092957565b9190820180921161092957565b80156119a85781159182158061199f575b15611967578082116119225766038d7ea4c6800082106118e6577e41bbb2f80a4553f6c19ad51e8e40314cc63a07b3fef911341fd6eab024f9948211611895576103e582029182046103e50361092957811561187f57816000190484116118305761178c600094836116ee565b926103e882029182046103e814171561181c57906117a991611701565b91821561180857500466038d7ea4c6800081106117c35790565b60405162461bcd60e51b815260206004820152601960248201527f53776170206f75747075742062656c6f77206d696e696d756d000000000000006044820152606490fd5b634e487b7160e01b81526012600452602490fd5b634e487b7160e01b84526011600452602484fd5b60405162461bcd60e51b815260206004820152602160248201527f506f74656e7469616c206f766572666c6f7720696e2063616c63756c6174696f6044820152603760f91b6064820152608490fd5b634e487b7160e01b600052601260045260246000fd5b60405162461bcd60e51b8152602060048201526024808201527f416d6f756e7420746f6f206c6172676520666f72206665652063616c63756c616044820152633a34b7b760e11b6064820152608490fd5b60405162461bcd60e51b8152602060048201526014602482015273416d6f756e742062656c6f77206d696e696d756d60601b6044820152606490fd5b60405162461bcd60e51b815260206004820152601c60248201527f5377617020616d6f756e742065786365656473207265736572766573000000006044820152606490fd5b60405162461bcd60e51b815260206004820152601060248201526f496e76616c696420726573657276657360801b6044820152606490fd5b5083151561171f565b60405162461bcd60e51b8152602060048201526014602482015273125b9d985b1a59081a5b9c1d5d08185b5bdd5b9d60621b6044820152606490fd5b156119eb57565b60405162461bcd60e51b815260206004820152600e60248201526d546f6f206d616e7920737761707360901b6044820152606490fd5b15611a2857565b60405162461bcd60e51b81526020600482015260116024820152700a6d8d2e0e0c2ceca40e8dede40d0d2ced607b1b6044820152606490fd5b15611a6857565b60405162461bcd60e51b815260206004820152601060248201526f496e76616c696420736c69707061676560801b6044820152606490fd5b90601f8019910116810190811067ffffffffffffffff821117611ac257604052565b634e487b7160e01b600052604160045260246000fd5b91908260409103126101c2576020825192015190565b15611af557565b60405162461bcd60e51b815260206004820152601c60248201527f4e6f20434f52414c206c697175696469747920617661696c61626c65000000006044820152606490fd5b15611b4157565b60405162461bcd60e51b815260206004820152600e60248201526d5377617020746f6f206c6172676560901b6044820152606490fd5b9190820391821161092957565b60405190611b93604083611aa0565b602082527f496e73756666696369656e7420434f52414c20746f6b656e2062616c616e63656020830152565b15611bc75750565b60405162461bcd60e51b815260206004820152908190611beb9060248301906116ad565b0390fd5b15611bf657565b60405162461bcd60e51b815260206004820152602260248201527f496e73756666696369656e742063726561746f7220746f6b656e2062616c616e604482015261636560f01b6064820152608490fd5b3d15611c81573d9067ffffffffffffffff8211611ac25760405191611c75601f8201601f191660200184611aa0565b82523d6000602084013e565b606090565b6001546001600160a01b038281169291168214611d0357506020602491604051928380926370a0823160e01b82523060048301525afa9081156107b857600091611cd1575b50101590565b90506020813d602011611cfb575b81611cec60209383611aa0565b810103126101c2575138611ccb565b3d9150611cdf565b611d0c90611ea5565b6000919015611d1d57505047101590565b6020602491604051928380926370a0823160e01b82523060048301525afa918215611d85578092611d50575b5050101590565b9091506020823d602011611d7d575b81611d6c60209383611aa0565b810103126107f35750513880611d49565b3d9150611d5f565b604051903d90823e3d90fd5b60405190611da0604083611aa0565b601c82527f4e657720736c6970706167652073616d652061732063757272656e74000000006020830152565b60405190611ddb604083611aa0565b601c82527f43616e6e6f74206265206c6f776572207468616e2064656661756c74000000006020830152565b60405190611e16604083611aa0565b601182527043616e6e6f74206578636565642032302560781b6020830152565b6006548114611e9c577f00000000000000000000000000000000000000000000000000000000000000008110611e93576107d010611e8657600190604051611e7f602082611aa0565b6000815290565b611e8e611e07565b600091565b50611e8e611dcc565b50611e8e611d91565b6001546001600160a01b0391821691168114908115611ef4575b8115611ed6575b5080611ecf5790565b5047151590565b73eeeeeeeeeeeeeeeeeeeeeeeeeeeeeeeeeeeeeeee91501438611ec6565b80159150611ebf565b6040516323b872dd60e01b60208201526001600160a01b039283166024820152929091166044830152606480830193909352918152611f4691611f41608483611aa0565b612173565b565b60405163a9059cbb60e01b60208201526001600160a01b039092166024830152604480830193909352918152611f4691611f41606483611aa0565b60009060018060a01b031691828252600560205269021e19e0c9bab2400000611fb0826040852054611701565b116120b9578282526005602052611fcc60408320918254611701565b90558181526005602052683635c9adc5dea0000060408220541015611fef575050565b818152600560205260408120546002549091906001600160a01b0316803b156120b55781809160246040518095819363bc99f48760e01b83528960048401525af191826120a5575b509061206b575060207fc2af8177b25272aa44b4eafdf3cc4916749b55dced944e081e11d1e1a9ac7ec291604051908152a2565b7f030a9a7748b75a6ebf9c7cb2beac00be9bcc421abcf4793aa03dd54a461594ac91818460209352600583526040812055604051908152a2565b816120af91611aa0565b38612037565b5080fd5b60405162461bcd60e51b815260206004820152601960248201527f4665652073746f72616765206c696d69742072656163686564000000000000006044820152606490fd5b6000546001600160a01b0316330361211257565b63118cdaa760e01b6000523360045260246000fd5b1561212e57565b60405162461bcd60e51b815260206004820152601860248201527f5472616e7366657220616d6f756e74206d69736d6174636800000000000000006044820152606490fd5b906000602091828151910182855af1156107b8576000513d6121c557506001600160a01b0381163b155b6121a45750565b635274afe760e01b60009081526001600160a01b0391909116600452602490fd5b6001141561219d56fe5eb78b6fb12f1af3519b0bbd134251f3b57d2c31dcc8a5fcb871971ce5eb8a71a26469706673582212201df88c762ccca6ae600c110b18af4ee3098d98cd507b5309524ada506595777764736f6c634300081c0033",
  "linkReferences": {},
  "deployedLinkReferences": {}
}