{
  "_format": "hh-sol-artifact-1",
  "contractName": "SaraDEX",
  "sourceName": "contracts/SaraDEX.sol",
  "abi": [
    {
      "inputs": [
        {
          "internalType": "address",
          "name": "_coralToken",
          "type": "address"
        },
        {
          "internalType": "address payable",
          "name": "_liquidityManager",
          "type": "address"
        }
      ],
      "stateMutability": "nonpayable",
      "type": "constructor"
    },
    {
      "inputs": [],
      "name": "AccessControlBadConfirmation",
      "type": "error"
    },
    {
      "inputs": [
        {
          "internalType": "address",
          "name": "account",
          "type": "address"
        },
        {
          "internalType": "bytes32",
          "name": "neededRole",
          "type": "bytes32"
        }
      ],
      "name": "AccessControlUnauthorizedAccount",
      "type": "error"
    },
    {
      "inputs": [
        {
          "internalType": "address",
          "name": "owner",
          "type": "address"
        }
      ],
      "name": "OwnableInvalidOwner",
      "type": "error"
    },
    {
      "inputs": [
        {
          "internalType": "address",
          "name": "account",
          "type": "address"
        }
      ],
      "name": "OwnableUnauthorizedAccount",
      "type": "error"
    },
    {
      "inputs": [
        {
          "internalType": "address",
          "name": "token",
          "type": "address"
        }
      ],
      "name": "SafeERC20FailedOperation",
      "type": "error"
    },
    {
      "anonymous": false,
      "inputs": [
        {
          "indexed": true,
          "internalType": "address",
          "name": "token",
          "type": "address"
        },
        {
          "indexed": false,
          "internalType": "uint256",
          "name": "storedFees",
          "type": "uint256"
        }
      ],
      "name": "CoralAutoRedeploymentFailed",
      "type": "event"
    },
    {
      "anonymous": false,
      "inputs": [
        {
          "indexed": true,
          "internalType": "address",
          "name": "token",
          "type": "address"
        },
        {
          "indexed": false,
          "internalType": "uint256",
          "name": "amount",
          "type": "uint256"
        }
      ],
      "name": "CoralFeesRedeployed",
      "type": "event"
    },
    {
      "anonymous": false,
      "inputs": [
        {
          "indexed": true,
          "internalType": "address",
          "name": "token",
          "type": "address"
        },
        {
          "indexed": false,
          "internalType": "uint256",
          "name": "amount",
          "type": "uint256"
        },
        {
          "indexed": false,
          "internalType": "uint256",
          "name": "timestamp",
          "type": "uint256"
        }
      ],
      "name": "CoralFeesWithdrawn",
      "type": "event"
    },
    {
      "anonymous": false,
      "inputs": [
        {
          "indexed": true,
          "internalType": "address",
          "name": "user",
          "type": "address"
        },
        {
          "indexed": true,
          "internalType": "address",
          "name": "creatorToken",
          "type": "address"
        },
        {
          "indexed": false,
          "internalType": "uint256",
          "name": "amountIn",
          "type": "uint256"
        },
        {
          "indexed": false,
          "internalType": "uint256",
          "name": "amountOut",
          "type": "uint256"
        },
        {
          "indexed": false,
          "internalType": "uint256",
          "name": "fee",
          "type": "uint256"
        }
      ],
      "name": "CoralSwapExecuted",
      "type": "event"
    },
    {
      "anonymous": false,
      "inputs": [
        {
          "indexed": true,
          "internalType": "address",
          "name": "token",
          "type": "address"
        },
        {
          "indexed": false,
          "internalType": "uint256",
          "name": "amount",
          "type": "uint256"
        },
        {
          "indexed": false,
          "internalType": "uint256",
          "name": "timestamp",
          "type": "uint256"
        }
      ],
      "name": "CoralTokensRequested",
      "type": "event"
    },
    {
      "anonymous": false,
      "inputs": [
        {
          "indexed": true,
          "internalType": "address",
          "name": "to",
          "type": "address"
        },
        {
          "indexed": false,
          "internalType": "uint256",
          "name": "amount",
          "type": "uint256"
        },
        {
          "indexed": false,
          "internalType": "uint256",
          "name": "timestamp",
          "type": "uint256"
        }
      ],
      "name": "CoralTransferred",
      "type": "event"
    },
    {
      "anonymous": false,
      "inputs": [
        {
          "indexed": false,
          "internalType": "uint256",
          "name": "oldSlippage",
          "type": "uint256"
        },
        {
          "indexed": false,
          "internalType": "uint256",
          "name": "newSlippage",
          "type": "uint256"
        },
        {
          "indexed": true,
          "internalType": "address",
          "name": "updater",
          "type": "address"
        }
      ],
      "name": "MaxSlippageUpdated",
      "type": "event"
    },
    {
      "anonymous": false,
      "inputs": [
        {
          "indexed": true,
          "internalType": "address",
          "name": "previousOwner",
          "type": "address"
        },
        {
          "indexed": true,
          "internalType": "address",
          "name": "newOwner",
          "type": "address"
        }
      ],
      "name": "OwnershipTransferred",
      "type": "event"
    },
    {
      "anonymous": false,
      "inputs": [
        {
          "indexed": true,
          "internalType": "bytes32",
          "name": "role",
          "type": "bytes32"
        },
        {
          "indexed": true,
          "internalType": "bytes32",
          "name": "previousAdminRole",
          "type": "bytes32"
        },
        {
          "indexed": true,
          "internalType": "bytes32",
          "name": "newAdminRole",
          "type": "bytes32"
        }
      ],
      "name": "RoleAdminChanged",
      "type": "event"
    },
    {
      "anonymous": false,
      "inputs": [
        {
          "indexed": true,
          "internalType": "bytes32",
          "name": "role",
          "type": "bytes32"
        },
        {
          "indexed": true,
          "internalType": "address",
          "name": "account",
          "type": "address"
        },
        {
          "indexed": true,
          "internalType": "address",
          "name": "sender",
          "type": "address"
        }
      ],
      "name": "RoleGranted",
      "type": "event"
    },
    {
      "anonymous": false,
      "inputs": [
        {
          "indexed": true,
          "internalType": "bytes32",
          "name": "role",
          "type": "bytes32"
        },
        {
          "indexed": true,
          "internalType": "address",
          "name": "account",
          "type": "address"
        },
        {
          "indexed": true,
          "internalType": "address",
          "name": "sender",
          "type": "address"
        }
      ],
      "name": "RoleRevoked",
      "type": "event"
    },
    {
      "anonymous": false,
      "inputs": [
        {
          "indexed": false,
          "internalType": "uint256",
          "name": "oldFee",
          "type": "uint256"
        },
        {
          "indexed": false,
          "internalType": "uint256",
          "name": "newFee",
          "type": "uint256"
        },
        {
          "indexed": true,
          "internalType": "address",
          "name": "updater",
          "type": "address"
        }
      ],
      "name": "SwapFeeUpdated",
      "type": "event"
    },
    {
      "inputs": [],
      "name": "ABSOLUTE_MAX_SLIPPAGE",
      "outputs": [
        {
          "internalType": "uint256",
          "name": "",
          "type": "uint256"
        }
      ],
      "stateMutability": "view",
      "type": "function"
    },
    {
      "inputs": [],
      "name": "AUTO_REDEPLOY_THRESHOLD",
      "outputs": [
        {
          "internalType": "uint256",
          "name": "",
          "type": "uint256"
        }
      ],
      "stateMutability": "view",
      "type": "function"
    },
    {
      "inputs": [],
      "name": "DEFAULT_ADMIN_ROLE",
      "outputs": [
        {
          "internalType": "bytes32",
          "name": "",
          "type": "bytes32"
        }
      ],
      "stateMutability": "view",
      "type": "function"
    },
    {
      "inputs": [],
      "name": "DEFAULT_MAX_SLIPPAGE",
      "outputs": [
        {
          "internalType": "uint256",
          "name": "",
          "type": "uint256"
        }
      ],
      "stateMutability": "view",
      "type": "function"
    },
    {
      "inputs": [],
      "name": "LIQUIDITY_MANAGER_ROLE",
      "outputs": [
        {
          "internalType": "bytes32",
          "name": "",
          "type": "bytes32"
        }
      ],
      "stateMutability": "view",
      "type": "function"
    },
    {
      "inputs": [],
      "name": "MAXIMUM_ALLOWED_SLIPPAGE",
      "outputs": [
        {
          "internalType": "uint256",
          "name": "",
          "type": "uint256"
        }
      ],
      "stateMutability": "view",
      "type": "function"
    },
    {
      "inputs": [],
      "name": "MAX_FEE_STORAGE",
      "outputs": [
        {
          "internalType": "uint256",
          "name": "",
          "type": "uint256"
        }
      ],
      "stateMutability": "view",
      "type": "function"
    },
    {
      "inputs": [],
      "name": "MAX_SINGLE_SWAP",
      "outputs": [
        {
          "internalType": "uint256",
          "name": "",
          "type": "uint256"
        }
      ],
      "stateMutability": "view",
      "type": "function"
    },
    {
      "inputs": [],
      "name": "MAX_SWAP_AMOUNT_PERCENT",
      "outputs": [
        {
          "internalType": "uint256",
          "name": "",
          "type": "uint256"
        }
      ],
      "stateMutability": "view",
      "type": "function"
    },
    {
      "inputs": [],
      "name": "MIN_OUTPUT_AMOUNT",
      "outputs": [
        {
          "internalType": "uint256",
          "name": "",
          "type": "uint256"
        }
      ],
      "stateMutability": "view",
      "type": "function"
    },
    {
      "inputs": [],
      "name": "MIN_SWAP_AMOUNT",
      "outputs": [
        {
          "internalType": "uint256",
          "name": "",
          "type": "uint256"
        }
      ],
      "stateMutability": "view",
      "type": "function"
    },
    {
      "inputs": [],
      "name": "MIN_TIME_BETWEEN_SWAPS",
      "outputs": [
        {
          "internalType": "uint256",
          "name": "",
          "type": "uint256"
        }
      ],
      "stateMutability": "view",
      "type": "function"
    },
    {
      "inputs": [
        {
          "internalType": "address",
          "name": "token",
          "type": "address"
        }
      ],
      "name": "checkFeesForRedeployment",
      "outputs": [
        {
          "internalType": "bool",
          "name": "needsRedeploy",
          "type": "bool"
        },
        {
          "internalType": "uint256",
          "name": "amount",
          "type": "uint256"
        }
      ],
      "stateMutability": "view",
      "type": "function"
    },
    {
      "inputs": [],
      "name": "coralToken",
      "outputs": [
        {
          "internalType": "address",
          "name": "",
          "type": "address"
        }
      ],
      "stateMutability": "view",
      "type": "function"
    },
    {
      "inputs": [
        {
          "internalType": "uint256",
          "name": "amountIn",
          "type": "uint256"
        },
        {
          "internalType": "uint256",
          "name": "reserveIn",
          "type": "uint256"
        },
        {
          "internalType": "uint256",
          "name": "reserveOut",
          "type": "uint256"
        }
      ],
      "name": "getAmountOut",
      "outputs": [
        {
          "internalType": "uint256",
          "name": "",
          "type": "uint256"
        }
      ],
      "stateMutability": "pure",
      "type": "function"
    },
    {
      "inputs": [
        {
          "internalType": "uint256",
          "name": "amountIn",
          "type": "uint256"
        },
        {
          "internalType": "address[]",
          "name": "path",
          "type": "address[]"
        }
      ],
      "name": "getAmountOutWithFees",
      "outputs": [
        {
          "internalType": "uint256",
          "name": "",
          "type": "uint256"
        }
      ],
      "stateMutability": "view",
      "type": "function"
    },
    {
      "inputs": [
        {
          "internalType": "bytes32",
          "name": "role",
          "type": "bytes32"
        }
      ],
      "name": "getRoleAdmin",
      "outputs": [
        {
          "internalType": "bytes32",
          "name": "",
          "type": "bytes32"
        }
      ],
      "stateMutability": "view",
      "type": "function"
    },
    {
      "inputs": [],
      "name": "getSlippageSettings",
      "outputs": [
        {
          "internalType": "uint256",
          "name": "defaultSlippage",
          "type": "uint256"
        },
        {
          "internalType": "uint256",
          "name": "currentMaxSlippage",
          "type": "uint256"
        },
        {
          "internalType": "uint256",
          "name": "absoluteMaximum",
          "type": "uint256"
        }
      ],
      "stateMutability": "view",
      "type": "function"
    },
    {
      "inputs": [
        {
          "internalType": "address",
          "name": "token",
          "type": "address"
        }
      ],
      "name": "getWithdrawableFees",
      "outputs": [
        {
          "internalType": "uint256",
          "name": "",
          "type": "uint256"
        }
      ],
      "stateMutability": "view",
      "type": "function"
    },
    {
      "inputs": [
        {
          "internalType": "bytes32",
          "name": "role",
          "type": "bytes32"
        },
        {
          "internalType": "address",
          "name": "account",
          "type": "address"
        }
      ],
      "name": "grantRole",
      "outputs": [],
      "stateMutability": "nonpayable",
      "type": "function"
    },
    {
      "inputs": [
        {
          "internalType": "bytes32",
          "name": "role",
          "type": "bytes32"
        },
        {
          "internalType": "address",
          "name": "account",
          "type": "address"
        }
      ],
      "name": "hasRole",
      "outputs": [
        {
          "internalType": "bool",
          "name": "",
          "type": "bool"
        }
      ],
      "stateMutability": "view",
      "type": "function"
    },
    {
      "inputs": [
        {
          "internalType": "address",
          "name": "token",
          "type": "address"
        },
        {
          "internalType": "uint256",
          "name": "amount",
          "type": "uint256"
        }
      ],
      "name": "hasTokenBalance",
      "outputs": [
        {
          "internalType": "bool",
          "name": "",
          "type": "bool"
        }
      ],
      "stateMutability": "view",
      "type": "function"
    },
    {
      "inputs": [
        {
          "internalType": "address",
          "name": "token",
          "type": "address"
        }
      ],
      "name": "isNativeCoral",
      "outputs": [
        {
          "internalType": "bool",
          "name": "",
          "type": "bool"
        }
      ],
      "stateMutability": "pure",
      "type": "function"
    },
    {
      "inputs": [
        {
          "internalType": "uint256",
          "name": "amount",
          "type": "uint256"
        }
      ],
      "name": "isValidSwapAmount",
      "outputs": [
        {
          "internalType": "bool",
          "name": "",
          "type": "bool"
        }
      ],
      "stateMutability": "pure",
      "type": "function"
    },
    {
      "inputs": [
        {
          "internalType": "address",
          "name": "",
          "type": "address"
        }
      ],
      "name": "lastSwapTimestamp",
      "outputs": [
        {
          "internalType": "uint256",
          "name": "",
          "type": "uint256"
        }
      ],
      "stateMutability": "view",
      "type": "function"
    },
    {
      "inputs": [],
      "name": "liquidityManager",
      "outputs": [
        {
          "internalType": "contract SaraLiquidityManager",
          "name": "",
          "type": "address"
        }
      ],
      "stateMutability": "view",
      "type": "function"
    },
    {
      "inputs": [],
      "name": "owner",
      "outputs": [
        {
          "internalType": "address",
          "name": "",
          "type": "address"
        }
      ],
      "stateMutability": "view",
      "type": "function"
    },
    {
      "inputs": [],
      "name": "renounceOwnership",
      "outputs": [],
      "stateMutability": "nonpayable",
      "type": "function"
    },
    {
      "inputs": [
        {
          "internalType": "bytes32",
          "name": "role",
          "type": "bytes32"
        },
        {
          "internalType": "address",
          "name": "callerConfirmation",
          "type": "address"
        }
      ],
      "name": "renounceRole",
      "outputs": [],
      "stateMutability": "nonpayable",
      "type": "function"
    },
    {
      "inputs": [
        {
          "internalType": "bytes32",
          "name": "role",
          "type": "bytes32"
        },
        {
          "internalType": "address",
          "name": "account",
          "type": "address"
        }
      ],
      "name": "revokeRole",
      "outputs": [],
      "stateMutability": "nonpayable",
      "type": "function"
    },
    {
      "inputs": [
        {
          "internalType": "address",
          "name": "",
          "type": "address"
        }
      ],
      "name": "storedFees",
      "outputs": [
        {
          "internalType": "uint256",
          "name": "",
          "type": "uint256"
        }
      ],
      "stateMutability": "view",
      "type": "function"
    },
    {
      "inputs": [
        {
          "internalType": "bytes4",
          "name": "interfaceId",
          "type": "bytes4"
        }
      ],
      "name": "supportsInterface",
      "outputs": [
        {
          "internalType": "bool",
          "name": "",
          "type": "bool"
        }
      ],
      "stateMutability": "view",
      "type": "function"
    },
    {
      "inputs": [
        {
          "internalType": "address",
          "name": "creatorToken",
          "type": "address"
        },
        {
          "internalType": "uint256",
          "name": "amountIn",
          "type": "uint256"
        },
        {
          "internalType": "uint256",
          "name": "minAmountOut",
          "type": "uint256"
        },
        {
          "internalType": "uint256",
          "name": "maxSlippage",
          "type": "uint256"
        }
      ],
      "name": "swapCoralForCreatorToken",
      "outputs": [
        {
          "internalType": "uint256",
          "name": "",
          "type": "uint256"
        }
      ],
      "stateMutability": "nonpayable",
      "type": "function"
    },
    {
      "inputs": [
        {
          "internalType": "address",
          "name": "creatorToken",
          "type": "address"
        },
        {
          "internalType": "uint256",
          "name": "amountIn",
          "type": "uint256"
        },
        {
          "internalType": "uint256",
          "name": "minAmountOut",
          "type": "uint256"
        },
        {
          "internalType": "uint256",
          "name": "maxSlippage",
          "type": "uint256"
        }
      ],
      "name": "swapCreatorTokenForCoral",
      "outputs": [],
      "stateMutability": "nonpayable",
      "type": "function"
    },
    {
      "inputs": [],
      "name": "swapFee",
      "outputs": [
        {
          "internalType": "uint256",
          "name": "",
          "type": "uint256"
        }
      ],
      "stateMutability": "view",
      "type": "function"
    },
    {
      "inputs": [
        {
          "internalType": "address",
          "name": "newOwner",
          "type": "address"
        }
      ],
      "name": "transferOwnership",
      "outputs": [],
      "stateMutability": "nonpayable",
      "type": "function"
    },
    {
      "inputs": [
        {
          "internalType": "uint256",
          "name": "newMaxSlippage",
          "type": "uint256"
        }
      ],
      "name": "updateMaxSlippage",
      "outputs": [],
      "stateMutability": "nonpayable",
      "type": "function"
    },
    {
      "inputs": [
        {
          "internalType": "uint256",
          "name": "newFee",
          "type": "uint256"
        }
      ],
      "name": "updateSwapFee",
      "outputs": [],
      "stateMutability": "nonpayable",
      "type": "function"
    },
    {
      "inputs": [
        {
          "internalType": "uint256",
          "name": "slippage",
          "type": "uint256"
        }
      ],
      "name": "validateSlippage",
      "outputs": [
        {
          "internalType": "bool",
          "name": "",
          "type": "bool"
        },
        {
          "internalType": "string",
          "name": "",
          "type": "string"
        }
      ],
      "stateMutability": "view",
      "type": "function"
    },
    {
      "inputs": [
        {
          "internalType": "address",
          "name": "token",
          "type": "address"
        },
        {
          "internalType": "uint256",
          "name": "amount",
          "type": "uint256"
        }
      ],
      "name": "withdrawStoredFees",
      "outputs": [],
      "stateMutability": "nonpayable",
      "type": "function"
    }
  ],
  "bytecode": "0x60a03461015857601f61243838819003918201601f19168301916001600160401b0383118484101761015d5780849260409485528339810103126101585780516001600160a01b038116919082900361015857602001516001600160a01b038116908190036101585733156101425760008054336001600160a01b03198216811783556100f8949290916001600160a01b0316907f8be0079c531659141344cd1fd0a4f28419497f9722a3daafe3b4186f6b6457e09080a3601e6004556101f46080526103e8600755600280546001600160a01b031990811692909217905560038054909116821790556100f233610173565b506101ef565b50604051612150908161028882396080518181816102420152818161044d0152818161095e01528181610a3301528181610e8c0152818161136c015281816115590152611c580152f35b631e4fbdf760e01b600052600060045260246000fd5b600080fd5b634e487b7160e01b600052604160045260246000fd5b6001600160a01b03811660009081526000805160206123f8833981519152602052604090205460ff166101e9576001600160a01b031660008181526000805160206123f883398151915260205260408120805460ff191660011790553391906000805160206123d88339815191528180a4600190565b50600090565b6001600160a01b0381166000908152600080516020612418833981519152602052604090205460ff166101e9576001600160a01b0316600081815260008051602061241883398151915260205260408120805460ff191660011790553391907f77e60b99a50d27fb027f6912a507d956105b4148adab27a86d235c8bcca8fa2f906000805160206123d88339815191529080a460019056fe608080604052600436101561001357600080fd5b60003560e01c90816301ffc9a7146115db5750806302e9d3e8146115a1578063054d50d41461157d5780630c28192f146112fe57806311a9992e146112e2578063125c1204146102b657806313079df514611099578063242f05511461105e578063248a9ca314611031578063268b69cb14610fd55780632f2ff15d14610f955780633382743814610f6c57806336568abe14610f2657806354cf2aeb14610f085780636604b53a14610e29578063715018a614610eaf578063797cb5a214610d9057806385015e0914610e745780638ac058cc14610e575780638da5cb5b14610e2e57806390cd369414610e2957806391d1485414610ddc57806394590aca14610d9557806399f34c1214610d90578063a08a522014610c04578063a217fddf14610be8578063bba2e14014610bbf578063bf16f65a14610a63578063c54e1d3814610a17578063c838889e146109e6578063d547741f1461099f578063d855dc7e14610983578063dcefe5b6146103fb578063e7b0444c146103dd578063e7ca44ef146103b8578063f2c75fa014610379578063f2fde38b146102f0578063f81bdc23146102b6578063f896acc7146102015763fb28ceb2146101d757600080fd5b346101fc5760203660031901126101fc576101f061162e565b50602060405160008152f35b600080fd5b346101fc5760203660031901126101fc5760043561021d611f44565b6007549061023561022c611ba8565b83831415611b08565b610269610240611be3565b7f0000000000000000000000000000000000000000000000000000000000000000831015611b08565b61027f610274611c1e565b6107d0831115611b08565b8060075560405191825260208201527f701caa0f8ada7952fb1d301bdfc04ed8b66396fe0181a18d0f2fe16ea0af154760403392a2005b346101fc5760203660031901126101fc576001600160a01b036102d761162e565b1660005260066020526020604060002054604051908152f35b346101fc5760203660031901126101fc5761030961162e565b610311611f44565b6001600160a01b0316801561036357600080546001600160a01b03198116831782556001600160a01b0316907f8be0079c531659141344cd1fd0a4f28419497f9722a3daafe3b4186f6b6457e09080a3005b631e4fbdf760e01b600052600060045260246000fd5b346101fc5760203660031901126101fc57610395600435611c4d565b906103b4604051928392151583526040602084015260408301906116ce565b0390f35b346101fc5760003660031901126101fc57602060405169021e19e0c9bab24000008152f35b346101fc5760003660031901126101fc576020600754604051908152f35b346101fc576104093661165a565b929092336000526005602052604060002054603c810180911161088a5761043290421015611979565b6104406007548211156119b6565b801561095b57925b6104747f00000000000000000000000000000000000000000000000000000000000000008510156119f6565b60035460408051630fa6707960e21b81526001600160a01b0385811660048301819052979391929183916024918391165afa801561070457600091829161092a575b508186116108e5576002546104d59087906001600160a01b0316611b38565b156108a05760058202908282046005148315171561088a576105409261050360646105099404891115611a83565b8761172f565b9261053961271061053261052b826105236004548a61170f565b048098611ac0565b958661170f565b0484611ac0565b10156119b6565b6040516370a0823160e01b8152336004820152602081602481895afa8015610704578591600091610855575b501061080557604051636eb1769f60e11b8152336004820152306024820152602081604481895afa80156107045785916000916107d0575b501061077f576105b684303388611cbc565b3315610746578015610710576002546040516370a0823160e01b81523060048201526001600160a01b0390911690602081602481855afa908115610704576000916106b2575b507f5eb78b6fb12f1af3519b0bbd134251f3b57d2c31dcc8a5fcb871971ce5eb8a71946106448461067b9461063d889583610635611acd565b911015611b08565b3390611f09565b6040518481524260208201527f997d41a3a2d02ddf7873eeeaa626fcc250ea57a73e1dad920f8656df12fcd9af60403392a2611d07565b336000526005602052426040600020556106ad6040519283923396846040919493926060820195825260208201520152565b0390a3005b90506020813d6020116106fc575b816106cd60209383611a35565b810103126101fc57517f5eb78b6fb12f1af3519b0bbd134251f3b57d2c31dcc8a5fcb871971ce5eb8a716105fc565b3d91506106c0565b6040513d6000823e3d90fd5b60405162461bcd60e51b815260206004820152600e60248201526d125b9d985b1a5908185b5bdd5b9d60921b6044820152606490fd5b60405162461bcd60e51b8152602060048201526011602482015270125b9d985b1a59081c9958da5c1a595b9d607a1b6044820152606490fd5b60405162461bcd60e51b8152602060048201526024808201527f496e73756666696369656e742063726561746f7220746f6b656e20616c6c6f77604482015263616e636560e01b6064820152608490fd5b9150506020813d6020116107fd575b816107ec60209383611a35565b810103126101fc57849051876105a4565b3d91506107df565b60405162461bcd60e51b815260206004820152602260248201527f496e73756666696369656e742063726561746f7220746f6b656e2062616c616e604482015261636560f01b6064820152608490fd5b9150506020813d602011610882575b8161087160209383611a35565b810103126101fc578490518761056c565b3d9150610864565b634e487b7160e01b600052601160045260246000fd5b60405162461bcd60e51b815260206004820152601c60248201527f4e6f20434f52414c206c697175696469747920617661696c61626c65000000006044820152606490fd5b60405162461bcd60e51b815260206004820152601e60248201527f496e73756666696369656e742063726561746f72206c697175696469747900006044820152606490fd5b905061094e915060403d604011610954575b6109468183611a35565b810190611a6d565b876104b6565b503d61093c565b507f000000000000000000000000000000000000000000000000000000000000000092610448565b346101fc5760003660031901126101fc57602060405160058152f35b346101fc5760403660031901126101fc576109e46004356109be611644565b906109df6109da82600052600160205260016040600020015490565b611f6d565b612039565b005b346101fc5760403660031901126101fc576020610a0d610a0461162e565b60243590611b38565b6040519015158152f35b346101fc5760003660031901126101fc576060600754604051907f0000000000000000000000000000000000000000000000000000000000000000825260208201526107d06040820152f35b346101fc5760203660031901126101fc573360009081527fa3a28e4f80d0370a78b193fd33bfbf2f186095dc1b2bb43340c272507b8d707a60205260409020546004359060ff1615610b7a5760648111610b3e5760045490818114610af9578060045560405191825260208201527febec684f5bc1195db981300ece744bc7e58ddd0013fba15583c6ce3c5eb4cdec60403392a2005b60405162461bcd60e51b815260206004820152601760248201527f4e6577206665652073616d652061732063757272656e740000000000000000006044820152606490fd5b60405162461bcd60e51b81526020600482015260146024820152734665652063616e6e6f742065786365656420312560601b6044820152606490fd5b60405162461bcd60e51b815260206004820152601760248201527f4e6f742061206c6971756964697479206d616e616765720000000000000000006044820152606490fd5b346101fc5760003660031901126101fc576002546040516001600160a01b039091168152602090f35b346101fc5760003660031901126101fc57602060405160008152f35b346101fc5760403660031901126101fc5760243567ffffffffffffffff81116101fc57366023820112156101fc57806004013567ffffffffffffffff81116101fc573660248260051b840101116101fc5760028110610d55576003546001600160a01b0316916000198201828111926000929091600435855b61088a5781851015610d31576001850180861161088a5784811015610d1b5760249060051b840101359060018060a01b0382168092036101fc5760405191630fa6707960e21b835260048301526040826024818b5afa801561070457600192610cf0926000918293610cf9575b5061172f565b94019385610c7d565b909250610d14915060403d8111610954576109468183611a35565b918b610cea565b634e487b7160e01b600052603260045260246000fd5b610d4d602091612710610d466004548361170f565b0490611ac0565b604051908152f35b60405162461bcd60e51b8152602060048201526013602482015272092dcecc2d8d2c840e0c2e8d040d8cadccee8d606b1b6044820152606490fd5b6116ac565b346101fc5760203660031901126101fc57602060043566038d7ea4c680008110159081610dc8575b506040519015158152f35b683635c9adc5dea000009150111582610dbd565b346101fc5760403660031901126101fc57610df5611644565b600435600052600160205260406000209060018060a01b0316600052602052602060ff604060002054166040519015158152f35b611688565b346101fc5760003660031901126101fc576000546040516001600160a01b039091168152602090f35b346101fc5760003660031901126101fc5760206040516107d08152f35b346101fc5760003660031901126101fc5760206040517f00000000000000000000000000000000000000000000000000000000000000008152f35b346101fc5760003660031901126101fc57610ec8611f44565b600080546001600160a01b0319811682556001600160a01b03167f8be0079c531659141344cd1fd0a4f28419497f9722a3daafe3b4186f6b6457e08280a3005b346101fc5760003660031901126101fc576020600454604051908152f35b346101fc5760403660031901126101fc57610f3f611644565b336001600160a01b03821603610f5b576109e490600435612039565b63334bd91960e11b60005260046000fd5b346101fc5760003660031901126101fc576003546040516001600160a01b039091168152602090f35b346101fc5760403660031901126101fc576109e4600435610fb4611644565b90610fd06109da82600052600160205260016040600020015490565b611faa565b346101fc5760203660031901126101fc576001600160a01b03610ff661162e565b16600052600660205260408060002054683635c9adc5dea000008110159081600014611029575b82519182526020820152f35b50600061101d565b346101fc5760203660031901126101fc576020610d4d600435600052600160205260016040600020015490565b346101fc5760003660031901126101fc5760206040517f77e60b99a50d27fb027f6912a507d956105b4148adab27a86d235c8bcca8fa2f8152f35b346101fc5760403660031901126101fc576110b261162e565b602435906110be611f44565b6001600160a01b03169081156112a557801561126057816000526006602052806040600020541061121b5769021e19e0c9bab240000081116111dd578160005260066020526040600020611113828254611ac0565b90556040516370a0823160e01b8152306004820152602081602481865afa9081156107045760009161118b575b50816111726040927fa423987bc38eff6f10df0f3a2bc41f3394177d8602562dc2f98baabec8c811ab94610635611acd565b61117d813386611f09565b8151908152426020820152a2005b90506020813d6020116111d5575b816111a660209383611a35565b810103126101fc57517fa423987bc38eff6f10df0f3a2bc41f3394177d8602562dc2f98baabec8c811ab611140565b3d9150611199565b60405162461bcd60e51b8152602060048201526016602482015275416d6f756e742065786365656473206d6178696d756d60501b6044820152606490fd5b60405162461bcd60e51b815260206004820152601860248201527f496e73756666696369656e742073746f726564206665657300000000000000006044820152606490fd5b60405162461bcd60e51b815260206004820152601960248201527f496e76616c6964207769746864726177616c20616d6f756e74000000000000006044820152606490fd5b60405162461bcd60e51b8152602060048201526015602482015274496e76616c696420746f6b656e206164647265737360581b6044820152606490fd5b346101fc5760003660031901126101fc576020604051603c8152f35b346101fc5761130c3661165a565b92919092336000526005602052604060002054603c810180911161088a5761133690421015611979565b600254611351908390309033906001600160a01b0316611cbc565b61135f6007548211156119b6565b801561155357611392905b7f000000000000000000000000000000000000000000000000000000000000000011156119f6565b60035460408051630fa6707960e21b81526001600160a01b0385811660048301819052949391929183916024918391165afa90811561070457600090600092611531575b5080151580611528575b156114ea5760058202918083046005148115171561088a5761140a60646114109404851115611a83565b8361172f565b9384106114a5577f5eb78b6fb12f1af3519b0bbd134251f3b57d2c31dcc8a5fcb871971ce5eb8a7161149a61145d6114636020976127106114536004548361170f565b0492838092611ac0565b97611d07565b33600052600587524260406000205561147d863387611f09565b604080519485526020850187905284015233929081906060820190565b0390a3604051908152f35b60405162461bcd60e51b815260206004820152601a60248201527f496e73756666696369656e74206f757470757420616d6f756e740000000000006044820152606490fd5b60405162461bcd60e51b8152602060048201526016602482015275496e73756666696369656e74206c697175696469747960501b6044820152606490fd5b508115156113e0565b905061154c915060403d604011610954576109468183611a35565b90866113d6565b506113927f000000000000000000000000000000000000000000000000000000000000000061136a565b346101fc5760603660031901126101fc576020610d4d60443560243560043561172f565b346101fc5760203660031901126101fc576001600160a01b036115c261162e565b1660005260056020526020604060002054604051908152f35b346101fc5760203660031901126101fc576004359063ffffffff60e01b82168092036101fc57602091637965db0b60e01b811490811561161d575b5015158152f35b6301ffc9a760e01b14905083611616565b600435906001600160a01b03821682036101fc57565b602435906001600160a01b03821682036101fc57565b60809060031901126101fc576004356001600160a01b03811681036101fc5790602435906044359060643590565b346101fc5760003660031901126101fc576020604051683635c9adc5dea000008152f35b346101fc5760003660031901126101fc57602060405166038d7ea4c680008152f35b919082519283825260005b8481106116fa575050826000602080949584010152601f8019910116010190565b806020809284010151828286010152016116d9565b8181029291811591840414171561088a57565b9190820180921161088a57565b801561193d57811592831580611934575b156118fc578282116118b75766038d7ea4c68000821061187b577e41bbb2f80a4553f6c19ad51e8e40314cc63a07b3fef911341fd6eab024f994821161182a576103e582029182046103e50361088a5761179a908261170f565b926103e883029283046103e814171561088a576117b691611722565b908115611814570466038d7ea4c6800081106117cf5790565b60405162461bcd60e51b815260206004820152601960248201527f53776170206f75747075742062656c6f77206d696e696d756d000000000000006044820152606490fd5b634e487b7160e01b600052601260045260246000fd5b60405162461bcd60e51b8152602060048201526024808201527f416d6f756e7420746f6f206c6172676520666f72206665652063616c63756c616044820152633a34b7b760e11b6064820152608490fd5b60405162461bcd60e51b8152602060048201526014602482015273416d6f756e742062656c6f77206d696e696d756d60601b6044820152606490fd5b60405162461bcd60e51b815260206004820152601c60248201527f5377617020616d6f756e742065786365656473207265736572766573000000006044820152606490fd5b60405162461bcd60e51b815260206004820152601060248201526f496e76616c696420726573657276657360801b6044820152606490fd5b50801515611740565b60405162461bcd60e51b8152602060048201526014602482015273125b9d985b1a59081a5b9c1d5d08185b5bdd5b9d60621b6044820152606490fd5b1561198057565b60405162461bcd60e51b815260206004820152600e60248201526d546f6f206d616e7920737761707360901b6044820152606490fd5b156119bd57565b60405162461bcd60e51b81526020600482015260116024820152700a6d8d2e0e0c2ceca40e8dede40d0d2ced607b1b6044820152606490fd5b156119fd57565b60405162461bcd60e51b815260206004820152601060248201526f496e76616c696420736c69707061676560801b6044820152606490fd5b90601f8019910116810190811067ffffffffffffffff821117611a5757604052565b634e487b7160e01b600052604160045260246000fd5b91908260409103126101fc576020825192015190565b15611a8a57565b60405162461bcd60e51b815260206004820152600e60248201526d5377617020746f6f206c6172676560901b6044820152606490fd5b9190820391821161088a57565b60405190611adc604083611a35565b602082527f496e73756666696369656e7420434f52414c20746f6b656e2062616c616e63656020830152565b15611b105750565b60405162461bcd60e51b815260206004820152908190611b349060248301906116ce565b0390fd5b6040516370a0823160e01b815230600482015290602090829060249082906001600160a01b03165afa90811561070457600091611b76575b50101590565b90506020813d602011611ba0575b81611b9160209383611a35565b810103126101fc575138611b70565b3d9150611b84565b60405190611bb7604083611a35565b601c82527f4e657720736c6970706167652073616d652061732063757272656e74000000006020830152565b60405190611bf2604083611a35565b601c82527f43616e6e6f74206265206c6f776572207468616e2064656661756c74000000006020830152565b60405190611c2d604083611a35565b601182527043616e6e6f74206578636565642032302560781b6020830152565b6007548114611cb3577f00000000000000000000000000000000000000000000000000000000000000008110611caa576107d010611c9d57600190604051611c96602082611a35565b6000815290565b611ca5611c1e565b600091565b50611ca5611be3565b50611ca5611ba8565b6040516323b872dd60e01b60208201526001600160a01b039283166024820152929091166044830152606480830193909352918152611d0591611d00608483611a35565b6120bf565b565b60009060018060a01b031691828252600660205269021e19e0c9bab2400000611d34826040852054611722565b11611ec4578282526006602052611d5060408320918254611722565b90558181526006602052683635c9adc5dea0000060408220541015611d73575050565b81815260066020526040812054828252600660205260408220549160018060a01b0360035416803b15611ec05781809160246040518095819363bc99f48760e01b83528a60048401525af19182611eb0575b5090611dfb57507fc2af8177b25272aa44b4eafdf3cc4916749b55dced944e081e11d1e1a9ac7ec29150602090604051908152a2565b838152600660205260409020548381611e3f5750507f030a9a7748b75a6ebf9c7cb2beac00be9bcc421abcf4793aa03dd54a461594ac9150602090604051908152a2565b60209250611e6e827fc2af8177b25272aa44b4eafdf3cc4916749b55dced944e081e11d1e1a9ac7ec295611ac0565b80611e7f575b5050604051908152a2565b837f030a9a7748b75a6ebf9c7cb2beac00be9bcc421abcf4793aa03dd54a461594ac91604051908152a28338611e74565b81611eba91611a35565b38611dc5565b5080fd5b60405162461bcd60e51b815260206004820152601960248201527f4665652073746f72616765206c696d69742072656163686564000000000000006044820152606490fd5b60405163a9059cbb60e01b60208201526001600160a01b039092166024830152604480830193909352918152611d0591611d00606483611a35565b6000546001600160a01b03163303611f5857565b63118cdaa760e01b6000523360045260246000fd5b600081815260016020908152604080832033845290915290205460ff1615611f925750565b63e2517d3f60e01b6000523360045260245260446000fd5b60008181526001602090815260408083206001600160a01b038616845290915290205460ff166120325760008181526001602081815260408084206001600160a01b0396909616808552959091528220805460ff19169091179055339291907f2f8788117e7eff1d82e926ec794901d17c78024a50270940304540a733656f0d9080a4600190565b5050600090565b60008181526001602090815260408083206001600160a01b038616845290915290205460ff16156120325760008181526001602090815260408083206001600160a01b0395909516808452949091528120805460ff19169055339291907ff6391f5c32d9c69d2a47ea670b442974b53935d1edc7fd64eb21e047a839171b9080a4600190565b906000602091828151910182855af115610704576000513d61211157506001600160a01b0381163b155b6120f05750565b635274afe760e01b60009081526001600160a01b0391909116600452602490fd5b600114156120e956fea2646970667358221220ae1998fe3a8ca9bf9eabc8b1b94d359dea7553c3c636864777c6df981e27cdb564736f6c634300081c00332f8788117e7eff1d82e926ec794901d17c78024a50270940304540a733656f0da6eef7e35abe7026729641147f7915573c7e97b47efa546f5f6e3230263bcb49a3a28e4f80d0370a78b193fd33bfbf2f186095dc1b2bb43340c272507b8d707a",
  "linkReferences": {},
  "deployedLinkReferences": {}
}