{
  "_format": "hh-sol-artifact-1",
  "contractName": "SaraLiquidityManager",
  "sourceName": "contracts/SaraLiquidityManager.sol",
  "abi": [
    {
      "inputs": [
        {
          "internalType": "address",
          "name": "_coralToken",
          "type": "address"
        }
      ],
      "stateMutability": "nonpayable",
      "type": "constructor"
    },
    {
      "inputs": [],
      "name": "AccessControlBadConfirmation",
      "type": "error"
    },
    {
      "inputs": [
        {
          "internalType": "address",
          "name": "account",
          "type": "address"
        },
        {
          "internalType": "bytes32",
          "name": "neededRole",
          "type": "bytes32"
        }
      ],
      "name": "AccessControlUnauthorizedAccount",
      "type": "error"
    },
    {
      "inputs": [
        {
          "internalType": "address",
          "name": "owner",
          "type": "address"
        }
      ],
      "name": "OwnableInvalidOwner",
      "type": "error"
    },
    {
      "inputs": [
        {
          "internalType": "address",
          "name": "account",
          "type": "address"
        }
      ],
      "name": "OwnableUnauthorizedAccount",
      "type": "error"
    },
    {
      "inputs": [
        {
          "internalType": "address",
          "name": "token",
          "type": "address"
        }
      ],
      "name": "SafeERC20FailedOperation",
      "type": "error"
    },
    {
      "anonymous": false,
      "inputs": [
        {
          "indexed": true,
          "internalType": "address",
          "name": "token",
          "type": "address"
        },
        {
          "indexed": false,
          "internalType": "uint256",
          "name": "amount",
          "type": "uint256"
        },
        {
          "indexed": true,
          "internalType": "address",
          "name": "targetPool",
          "type": "address"
        },
        {
          "indexed": false,
          "internalType": "uint256",
          "name": "coralAmount",
          "type": "uint256"
        },
        {
          "indexed": false,
          "internalType": "uint256",
          "name": "timestamp",
          "type": "uint256"
        }
      ],
      "name": "AutoFeesRedeployed",
      "type": "event"
    },
    {
      "anonymous": false,
      "inputs": [
        {
          "indexed": true,
          "internalType": "address",
          "name": "to",
          "type": "address"
        },
        {
          "indexed": false,
          "internalType": "uint256",
          "name": "amount",
          "type": "uint256"
        },
        {
          "indexed": false,
          "internalType": "uint256",
          "name": "timestamp",
          "type": "uint256"
        }
      ],
      "name": "CoralTokenTransferred",
      "type": "event"
    },
    {
      "anonymous": false,
      "inputs": [
        {
          "indexed": true,
          "internalType": "address",
          "name": "newDEX",
          "type": "address"
        }
      ],
      "name": "DEXUpdated",
      "type": "event"
    },
    {
      "anonymous": false,
      "inputs": [
        {
          "indexed": true,
          "internalType": "address",
          "name": "targetPool",
          "type": "address"
        },
        {
          "indexed": false,
          "internalType": "uint256",
          "name": "calculatedAmount",
          "type": "uint256"
        },
        {
          "indexed": false,
          "internalType": "string",
          "name": "reason",
          "type": "string"
        }
      ],
      "name": "DeploymentSkipped",
      "type": "event"
    },
    {
      "anonymous": false,
      "inputs": [
        {
          "indexed": true,
          "internalType": "address",
          "name": "token",
          "type": "address"
        },
        {
          "indexed": false,
          "internalType": "uint256",
          "name": "rawCount",
          "type": "uint256"
        },
        {
          "indexed": false,
          "internalType": "uint256",
          "name": "smoothedCount",
          "type": "uint256"
        },
        {
          "indexed": false,
          "internalType": "uint256",
          "name": "timestamp",
          "type": "uint256"
        }
      ],
      "name": "EngagementSmoothed",
      "type": "event"
    },
    {
      "anonymous": false,
      "inputs": [
        {
          "indexed": true,
          "internalType": "address",
          "name": "token",
          "type": "address"
        },
        {
          "indexed": false,
          "internalType": "uint256",
          "name": "subscribers",
          "type": "uint256"
        },
        {
          "indexed": false,
          "internalType": "uint256",
          "name": "timestamp",
          "type": "uint256"
        }
      ],
      "name": "EngagementSnapshotTaken",
      "type": "event"
    },
    {
      "anonymous": false,
      "inputs": [
        {
          "indexed": true,
          "internalType": "address",
          "name": "pool",
          "type": "address"
        },
        {
          "indexed": false,
          "internalType": "uint256",
          "name": "reserveAmount",
          "type": "uint256"
        }
      ],
      "name": "FallbackPoolSelected",
      "type": "event"
    },
    {
      "anonymous": false,
      "inputs": [
        {
          "indexed": true,
          "internalType": "address",
          "name": "token",
          "type": "address"
        },
        {
          "indexed": false,
          "internalType": "uint256",
          "name": "amount",
          "type": "uint256"
        }
      ],
      "name": "FeesCollected",
      "type": "event"
    },
    {
      "anonymous": false,
      "inputs": [
        {
          "indexed": true,
          "internalType": "address",
          "name": "token",
          "type": "address"
        },
        {
          "indexed": false,
          "internalType": "uint256",
          "name": "amount",
          "type": "uint256"
        },
        {
          "indexed": true,
          "internalType": "address",
          "name": "targetPool",
          "type": "address"
        }
      ],
      "name": "FeesRedeployed",
      "type": "event"
    },
    {
      "anonymous": false,
      "inputs": [
        {
          "indexed": true,
          "internalType": "address",
          "name": "token",
          "type": "address"
        },
        {
          "indexed": false,
          "internalType": "uint256",
          "name": "amount",
          "type": "uint256"
        }
      ],
      "name": "FeesWithdrawn",
      "type": "event"
    },
    {
      "anonymous": false,
      "inputs": [
        {
          "indexed": true,
          "internalType": "address",
          "name": "creatorToken",
          "type": "address"
        },
        {
          "indexed": false,
          "internalType": "uint256",
          "name": "amountCreator",
          "type": "uint256"
        },
        {
          "indexed": false,
          "internalType": "uint256",
          "name": "amountCoral",
          "type": "uint256"
        }
      ],
      "name": "LiquidityAdded",
      "type": "event"
    },
    {
      "anonymous": false,
      "inputs": [
        {
          "indexed": true,
          "internalType": "address",
          "name": "token",
          "type": "address"
        },
        {
          "indexed": false,
          "internalType": "uint256",
          "name": "cappedAmount",
          "type": "uint256"
        }
      ],
      "name": "LiquidityCapped",
      "type": "event"
    },
    {
      "anonymous": false,
      "inputs": [
        {
          "indexed": true,
          "internalType": "address",
          "name": "token",
          "type": "address"
        },
        {
          "indexed": false,
          "internalType": "uint256",
          "name": "newReserveCoral",
          "type": "uint256"
        }
      ],
      "name": "LiquidityRebalanced",
      "type": "event"
    },
    {
      "anonymous": false,
      "inputs": [
        {
          "indexed": true,
          "internalType": "address",
          "name": "creatorToken",
          "type": "address"
        },
        {
          "indexed": false,
          "internalType": "uint256",
          "name": "amountCreator",
          "type": "uint256"
        },
        {
          "indexed": false,
          "internalType": "uint256",
          "name": "amountCoral",
          "type": "uint256"
        }
      ],
      "name": "LiquidityRemoved",
      "type": "event"
    },
    {
      "anonymous": false,
      "inputs": [
        {
          "indexed": false,
          "internalType": "uint256",
          "name": "oldMax",
          "type": "uint256"
        },
        {
          "indexed": false,
          "internalType": "uint256",
          "name": "newMax",
          "type": "uint256"
        },
        {
          "indexed": false,
          "internalType": "uint256",
          "name": "timestamp",
          "type": "uint256"
        }
      ],
      "name": "MaxLiquidityUpdated",
      "type": "event"
    },
    {
      "anonymous": false,
      "inputs": [
        {
          "indexed": true,
          "internalType": "address",
          "name": "previousOwner",
          "type": "address"
        },
        {
          "indexed": true,
          "internalType": "address",
          "name": "newOwner",
          "type": "address"
        }
      ],
      "name": "OwnershipTransferred",
      "type": "event"
    },
    {
      "anonymous": false,
      "inputs": [
        {
          "indexed": true,
          "internalType": "address",
          "name": "pool",
          "type": "address"
        },
        {
          "indexed": false,
          "internalType": "uint256",
          "name": "volume24h",
          "type": "uint256"
        },
        {
          "indexed": false,
          "internalType": "uint256",
          "name": "timestamp",
          "type": "uint256"
        }
      ],
      "name": "PoolActivityUpdated",
      "type": "event"
    },
    {
      "anonymous": false,
      "inputs": [
        {
          "indexed": true,
          "internalType": "address",
          "name": "pool",
          "type": "address"
        },
        {
          "indexed": false,
          "internalType": "uint256",
          "name": "score",
          "type": "uint256"
        },
        {
          "indexed": false,
          "internalType": "uint256",
          "name": "timestamp",
          "type": "uint256"
        }
      ],
      "name": "PoolNeedUpdated",
      "type": "event"
    },
    {
      "anonymous": false,
      "inputs": [
        {
          "indexed": true,
          "internalType": "address",
          "name": "pool",
          "type": "address"
        },
        {
          "indexed": false,
          "internalType": "uint256",
          "name": "score",
          "type": "uint256"
        },
        {
          "indexed": false,
          "internalType": "uint256",
          "name": "currentLiquidity",
          "type": "uint256"
        }
      ],
      "name": "PoolSelected",
      "type": "event"
    },
    {
      "anonymous": false,
      "inputs": [
        {
          "indexed": true,
          "internalType": "address",
          "name": "pool",
          "type": "address"
        }
      ],
      "name": "PoolTracked",
      "type": "event"
    },
    {
      "anonymous": false,
      "inputs": [
        {
          "indexed": true,
          "internalType": "address",
          "name": "pool",
          "type": "address"
        }
      ],
      "name": "PoolUntracked",
      "type": "event"
    },
    {
      "anonymous": false,
      "inputs": [
        {
          "indexed": true,
          "internalType": "address",
          "name": "token",
          "type": "address"
        },
        {
          "indexed": false,
          "internalType": "uint256",
          "name": "calculatedPrice",
          "type": "uint256"
        },
        {
          "indexed": false,
          "internalType": "uint256",
          "name": "cappedPrice",
          "type": "uint256"
        }
      ],
      "name": "PriceCapReached",
      "type": "event"
    },
    {
      "anonymous": false,
      "inputs": [
        {
          "indexed": true,
          "internalType": "address",
          "name": "token",
          "type": "address"
        },
        {
          "indexed": false,
          "internalType": "uint256",
          "name": "initialCoralPrice",
          "type": "uint256"
        },
        {
          "indexed": false,
          "internalType": "uint256",
          "name": "initialLiquidity",
          "type": "uint256"
        }
      ],
      "name": "PriceDiscoveryCompleted",
      "type": "event"
    },
    {
      "anonymous": false,
      "inputs": [
        {
          "indexed": true,
          "internalType": "address",
          "name": "token",
          "type": "address"
        },
        {
          "indexed": false,
          "internalType": "uint256",
          "name": "initialSubscribers",
          "type": "uint256"
        }
      ],
      "name": "PriceDiscoveryStarted",
      "type": "event"
    },
    {
      "anonymous": false,
      "inputs": [
        {
          "indexed": true,
          "internalType": "address",
          "name": "token",
          "type": "address"
        },
        {
          "indexed": false,
          "internalType": "uint256",
          "name": "coralReserve",
          "type": "uint256"
        },
        {
          "indexed": false,
          "internalType": "string",
          "name": "reason",
          "type": "string"
        }
      ],
      "name": "RebalanceSkipped",
      "type": "event"
    },
    {
      "anonymous": false,
      "inputs": [
        {
          "indexed": true,
          "internalType": "bytes32",
          "name": "role",
          "type": "bytes32"
        },
        {
          "indexed": true,
          "internalType": "bytes32",
          "name": "previousAdminRole",
          "type": "bytes32"
        },
        {
          "indexed": true,
          "internalType": "bytes32",
          "name": "newAdminRole",
          "type": "bytes32"
        }
      ],
      "name": "RoleAdminChanged",
      "type": "event"
    },
    {
      "anonymous": false,
      "inputs": [
        {
          "indexed": true,
          "internalType": "bytes32",
          "name": "role",
          "type": "bytes32"
        },
        {
          "indexed": true,
          "internalType": "address",
          "name": "account",
          "type": "address"
        },
        {
          "indexed": true,
          "internalType": "address",
          "name": "sender",
          "type": "address"
        }
      ],
      "name": "RoleGranted",
      "type": "event"
    },
    {
      "anonymous": false,
      "inputs": [
        {
          "indexed": true,
          "internalType": "bytes32",
          "name": "role",
          "type": "bytes32"
        },
        {
          "indexed": true,
          "internalType": "address",
          "name": "account",
          "type": "address"
        },
        {
          "indexed": true,
          "internalType": "address",
          "name": "sender",
          "type": "address"
        }
      ],
      "name": "RoleRevoked",
      "type": "event"
    },
    {
      "inputs": [],
      "name": "ACTIVITY_THRESHOLD",
      "outputs": [
        {
          "internalType": "uint256",
          "name": "",
          "type": "uint256"
        }
      ],
      "stateMutability": "view",
      "type": "function"
    },
    {
      "inputs": [],
      "name": "BASE_PRICE",
      "outputs": [
        {
          "internalType": "uint256",
          "name": "",
          "type": "uint256"
        }
      ],
      "stateMutability": "view",
      "type": "function"
    },
    {
      "inputs": [],
      "name": "DEFAULT_ADMIN_ROLE",
      "outputs": [
        {
          "internalType": "bytes32",
          "name": "",
          "type": "bytes32"
        }
      ],
      "stateMutability": "view",
      "type": "function"
    },
    {
      "inputs": [],
      "name": "DEX_ROLE",
      "outputs": [
        {
          "internalType": "bytes32",
          "name": "",
          "type": "bytes32"
        }
      ],
      "stateMutability": "view",
      "type": "function"
    },
    {
      "inputs": [],
      "name": "DISCOVERY_PERIOD",
      "outputs": [
        {
          "internalType": "uint256",
          "name": "",
          "type": "uint256"
        }
      ],
      "stateMutability": "view",
      "type": "function"
    },
    {
      "inputs": [],
      "name": "ENGAGEMENT_THRESHOLD",
      "outputs": [
        {
          "internalType": "uint256",
          "name": "",
          "type": "uint256"
        }
      ],
      "stateMutability": "view",
      "type": "function"
    },
    {
      "inputs": [],
      "name": "MAX_PRICE_MULTIPLIER",
      "outputs": [
        {
          "internalType": "uint256",
          "name": "",
          "type": "uint256"
        }
      ],
      "stateMutability": "view",
      "type": "function"
    },
    {
      "inputs": [],
      "name": "MAX_SNAPSHOTS",
      "outputs": [
        {
          "internalType": "uint256",
          "name": "",
          "type": "uint256"
        }
      ],
      "stateMutability": "view",
      "type": "function"
    },
    {
      "inputs": [],
      "name": "MIN_24H_VOLUME",
      "outputs": [
        {
          "internalType": "uint256",
          "name": "",
          "type": "uint256"
        }
      ],
      "stateMutability": "view",
      "type": "function"
    },
    {
      "inputs": [],
      "name": "MIN_DEPLOYMENT_AMOUNT",
      "outputs": [
        {
          "internalType": "uint256",
          "name": "",
          "type": "uint256"
        }
      ],
      "stateMutability": "view",
      "type": "function"
    },
    {
      "inputs": [],
      "name": "MIN_FEES_FOR_REDEPLOY",
      "outputs": [
        {
          "internalType": "uint256",
          "name": "",
          "type": "uint256"
        }
      ],
      "stateMutability": "view",
      "type": "function"
    },
    {
      "inputs": [],
      "name": "MIN_LIQUIDITY",
      "outputs": [
        {
          "internalType": "uint256",
          "name": "",
          "type": "uint256"
        }
      ],
      "stateMutability": "view",
      "type": "function"
    },
    {
      "inputs": [],
      "name": "MIN_TOKEN_PRICE",
      "outputs": [
        {
          "internalType": "uint256",
          "name": "",
          "type": "uint256"
        }
      ],
      "stateMutability": "view",
      "type": "function"
    },
    {
      "inputs": [],
      "name": "POOL_NEED_UPDATE_INTERVAL",
      "outputs": [
        {
          "internalType": "uint256",
          "name": "",
          "type": "uint256"
        }
      ],
      "stateMutability": "view",
      "type": "function"
    },
    {
      "inputs": [],
      "name": "REBALANCE_INTERVAL",
      "outputs": [
        {
          "internalType": "uint256",
          "name": "",
          "type": "uint256"
        }
      ],
      "stateMutability": "view",
      "type": "function"
    },
    {
      "inputs": [],
      "name": "SNAPSHOT_INTERVAL",
      "outputs": [
        {
          "internalType": "uint256",
          "name": "",
          "type": "uint256"
        }
      ],
      "stateMutability": "view",
      "type": "function"
    },
    {
      "inputs": [
        {
          "internalType": "address",
          "name": "creatorToken",
          "type": "address"
        },
        {
          "internalType": "uint256",
          "name": "amountCreator",
          "type": "uint256"
        },
        {
          "internalType": "uint256",
          "name": "amountCoral",
          "type": "uint256"
        }
      ],
      "name": "addLiquidity",
      "outputs": [],
      "stateMutability": "nonpayable",
      "type": "function"
    },
    {
      "inputs": [
        {
          "internalType": "address",
          "name": "token",
          "type": "address"
        }
      ],
      "name": "autoRedeployFees",
      "outputs": [],
      "stateMutability": "nonpayable",
      "type": "function"
    },
    {
      "inputs": [
        {
          "internalType": "uint256",
          "name": "subscriberCount",
          "type": "uint256"
        },
        {
          "internalType": "uint256",
          "name": "price",
          "type": "uint256"
        }
      ],
      "name": "calculateInitialLiquidity",
      "outputs": [
        {
          "internalType": "uint256",
          "name": "",
          "type": "uint256"
        }
      ],
      "stateMutability": "view",
      "type": "function"
    },
    {
      "inputs": [
        {
          "internalType": "address",
          "name": "token",
          "type": "address"
        }
      ],
      "name": "checkAndRebalance",
      "outputs": [],
      "stateMutability": "nonpayable",
      "type": "function"
    },
    {
      "inputs": [
        {
          "internalType": "address",
          "name": "token",
          "type": "address"
        },
        {
          "internalType": "uint256",
          "name": "amount",
          "type": "uint256"
        }
      ],
      "name": "collectFees",
      "outputs": [],
      "stateMutability": "nonpayable",
      "type": "function"
    },
    {
      "inputs": [
        {
          "internalType": "address",
          "name": "",
          "type": "address"
        }
      ],
      "name": "collectedFees",
      "outputs": [
        {
          "internalType": "uint256",
          "name": "",
          "type": "uint256"
        }
      ],
      "stateMutability": "view",
      "type": "function"
    },
    {
      "inputs": [
        {
          "internalType": "address",
          "name": "token",
          "type": "address"
        }
      ],
      "name": "completePriceDiscovery",
      "outputs": [],
      "stateMutability": "nonpayable",
      "type": "function"
    },
    {
      "inputs": [
        {
          "internalType": "address",
          "name": "",
          "type": "address"
        }
      ],
      "name": "coralReserves",
      "outputs": [
        {
          "internalType": "uint256",
          "name": "",
          "type": "uint256"
        }
      ],
      "stateMutability": "view",
      "type": "function"
    },
    {
      "inputs": [],
      "name": "coralToken",
      "outputs": [
        {
          "internalType": "address",
          "name": "",
          "type": "address"
        }
      ],
      "stateMutability": "view",
      "type": "function"
    },
    {
      "inputs": [
        {
          "internalType": "address",
          "name": "",
          "type": "address"
        }
      ],
      "name": "creatorTokenReserves",
      "outputs": [
        {
          "internalType": "uint256",
          "name": "",
          "type": "uint256"
        }
      ],
      "stateMutability": "view",
      "type": "function"
    },
    {
      "inputs": [],
      "name": "dex",
      "outputs": [
        {
          "internalType": "address",
          "name": "",
          "type": "address"
        }
      ],
      "stateMutability": "view",
      "type": "function"
    },
    {
      "inputs": [],
      "name": "forcePoolNeedUpdate",
      "outputs": [],
      "stateMutability": "nonpayable",
      "type": "function"
    },
    {
      "inputs": [],
      "name": "getLiquidityLimits",
      "outputs": [
        {
          "internalType": "uint256",
          "name": "min",
          "type": "uint256"
        },
        {
          "internalType": "uint256",
          "name": "max",
          "type": "uint256"
        }
      ],
      "stateMutability": "view",
      "type": "function"
    },
    {
      "inputs": [
        {
          "internalType": "address",
          "name": "pool",
          "type": "address"
        }
      ],
      "name": "getPoolActivity",
      "outputs": [
        {
          "internalType": "uint256",
          "name": "lastTrade",
          "type": "uint256"
        },
        {
          "internalType": "uint256",
          "name": "volume24h",
          "type": "uint256"
        },
        {
          "internalType": "bool",
          "name": "isActive",
          "type": "bool"
        }
      ],
      "stateMutability": "view",
      "type": "function"
    },
    {
      "inputs": [],
      "name": "getPoolNeedInfo",
      "outputs": [
        {
          "internalType": "address",
          "name": "pool",
          "type": "address"
        },
        {
          "internalType": "uint256",
          "name": "score",
          "type": "uint256"
        },
        {
          "internalType": "uint256",
          "name": "lastUpdate",
          "type": "uint256"
        },
        {
          "internalType": "bool",
          "name": "isStale",
          "type": "bool"
        }
      ],
      "stateMutability": "view",
      "type": "function"
    },
    {
      "inputs": [
        {
          "internalType": "address",
          "name": "creatorToken",
          "type": "address"
        }
      ],
      "name": "getReserves",
      "outputs": [
        {
          "internalType": "uint256",
          "name": "creatorReserve",
          "type": "uint256"
        },
        {
          "internalType": "uint256",
          "name": "coralReserve",
          "type": "uint256"
        }
      ],
      "stateMutability": "view",
      "type": "function"
    },
    {
      "inputs": [
        {
          "internalType": "bytes32",
          "name": "role",
          "type": "bytes32"
        }
      ],
      "name": "getRoleAdmin",
      "outputs": [
        {
          "internalType": "bytes32",
          "name": "",
          "type": "bytes32"
        }
      ],
      "stateMutability": "view",
      "type": "function"
    },
    {
      "inputs": [
        {
          "internalType": "address",
          "name": "token",
          "type": "address"
        }
      ],
      "name": "getSmoothedMetrics",
      "outputs": [
        {
          "internalType": "uint256",
          "name": "lastCount",
          "type": "uint256"
        },
        {
          "internalType": "uint256",
          "name": "smoothedCount",
          "type": "uint256"
        },
        {
          "internalType": "uint256",
          "name": "updateCount",
          "type": "uint256"
        },
        {
          "internalType": "bool",
          "name": "eligibleForRebalance",
          "type": "bool"
        }
      ],
      "stateMutability": "view",
      "type": "function"
    },
    {
      "inputs": [],
      "name": "getTrackedPools",
      "outputs": [
        {
          "internalType": "address[]",
          "name": "",
          "type": "address[]"
        }
      ],
      "stateMutability": "view",
      "type": "function"
    },
    {
      "inputs": [
        {
          "internalType": "address",
          "name": "account",
          "type": "address"
        }
      ],
      "name": "grantDEXRole",
      "outputs": [],
      "stateMutability": "nonpayable",
      "type": "function"
    },
    {
      "inputs": [
        {
          "internalType": "bytes32",
          "name": "role",
          "type": "bytes32"
        },
        {
          "internalType": "address",
          "name": "account",
          "type": "address"
        }
      ],
      "name": "grantRole",
      "outputs": [],
      "stateMutability": "nonpayable",
      "type": "function"
    },
    {
      "inputs": [
        {
          "internalType": "bytes32",
          "name": "role",
          "type": "bytes32"
        },
        {
          "internalType": "address",
          "name": "account",
          "type": "address"
        }
      ],
      "name": "hasRole",
      "outputs": [
        {
          "internalType": "bool",
          "name": "",
          "type": "bool"
        }
      ],
      "stateMutability": "view",
      "type": "function"
    },
    {
      "inputs": [
        {
          "internalType": "address",
          "name": "creatorToken",
          "type": "address"
        }
      ],
      "name": "hasValidLiquidity",
      "outputs": [
        {
          "internalType": "bool",
          "name": "",
          "type": "bool"
        }
      ],
      "stateMutability": "view",
      "type": "function"
    },
    {
      "inputs": [
        {
          "internalType": "address",
          "name": "token",
          "type": "address"
        }
      ],
      "name": "isNativeCoral",
      "outputs": [
        {
          "internalType": "bool",
          "name": "",
          "type": "bool"
        }
      ],
      "stateMutability": "pure",
      "type": "function"
    },
    {
      "inputs": [
        {
          "internalType": "address",
          "name": "pool",
          "type": "address"
        }
      ],
      "name": "isPoolActive",
      "outputs": [
        {
          "internalType": "bool",
          "name": "",
          "type": "bool"
        }
      ],
      "stateMutability": "view",
      "type": "function"
    },
    {
      "inputs": [
        {
          "internalType": "address",
          "name": "",
          "type": "address"
        }
      ],
      "name": "isTrackedPool",
      "outputs": [
        {
          "internalType": "bool",
          "name": "",
          "type": "bool"
        }
      ],
      "stateMutability": "view",
      "type": "function"
    },
    {
      "inputs": [
        {
          "internalType": "uint256",
          "name": "liquidity",
          "type": "uint256"
        }
      ],
      "name": "isValidLiquidity",
      "outputs": [
        {
          "internalType": "bool",
          "name": "",
          "type": "bool"
        }
      ],
      "stateMutability": "view",
      "type": "function"
    },
    {
      "inputs": [],
      "name": "lastRebalanceTimestamp",
      "outputs": [
        {
          "internalType": "uint256",
          "name": "",
          "type": "uint256"
        }
      ],
      "stateMutability": "view",
      "type": "function"
    },
    {
      "inputs": [],
      "name": "maxLiquidityPerPool",
      "outputs": [
        {
          "internalType": "uint256",
          "name": "",
          "type": "uint256"
        }
      ],
      "stateMutability": "view",
      "type": "function"
    },
    {
      "inputs": [],
      "name": "mostNeededPool",
      "outputs": [
        {
          "internalType": "address",
          "name": "pool",
          "type": "address"
        },
        {
          "internalType": "uint256",
          "name": "score",
          "type": "uint256"
        },
        {
          "internalType": "uint256",
          "name": "lastUpdateTime",
          "type": "uint256"
        }
      ],
      "stateMutability": "view",
      "type": "function"
    },
    {
      "inputs": [],
      "name": "owner",
      "outputs": [
        {
          "internalType": "address",
          "name": "",
          "type": "address"
        }
      ],
      "stateMutability": "view",
      "type": "function"
    },
    {
      "inputs": [
        {
          "internalType": "address",
          "name": "",
          "type": "address"
        }
      ],
      "name": "poolActivity",
      "outputs": [
        {
          "internalType": "uint256",
          "name": "lastTradeTimestamp",
          "type": "uint256"
        },
        {
          "internalType": "uint256",
          "name": "tradingVolume24h",
          "type": "uint256"
        },
        {
          "internalType": "uint256",
          "name": "lastVolumeUpdateTime",
          "type": "uint256"
        }
      ],
      "stateMutability": "view",
      "type": "function"
    },
    {
      "inputs": [
        {
          "internalType": "address",
          "name": "",
          "type": "address"
        }
      ],
      "name": "priceDiscovery",
      "outputs": [
        {
          "internalType": "uint256",
          "name": "initialSubscribers",
          "type": "uint256"
        },
        {
          "internalType": "uint256",
          "name": "currentSubscribers",
          "type": "uint256"
        },
        {
          "internalType": "uint256",
          "name": "observationStartTime",
          "type": "uint256"
        },
        {
          "internalType": "bool",
          "name": "isInDiscovery",
          "type": "bool"
        }
      ],
      "stateMutability": "view",
      "type": "function"
    },
    {
      "inputs": [
        {
          "internalType": "address",
          "name": "token",
          "type": "address"
        },
        {
          "internalType": "uint256",
          "name": "currentSubscribers",
          "type": "uint256"
        }
      ],
      "name": "recordEngagementSnapshot",
      "outputs": [],
      "stateMutability": "nonpayable",
      "type": "function"
    },
    {
      "inputs": [
        {
          "internalType": "address",
          "name": "token",
          "type": "address"
        },
        {
          "internalType": "address",
          "name": "targetPool",
          "type": "address"
        }
      ],
      "name": "redeployFees",
      "outputs": [],
      "stateMutability": "nonpayable",
      "type": "function"
    },
    {
      "inputs": [
        {
          "internalType": "address",
          "name": "creatorToken",
          "type": "address"
        },
        {
          "internalType": "uint256",
          "name": "amountCreator",
          "type": "uint256"
        },
        {
          "internalType": "uint256",
          "name": "amountCoral",
          "type": "uint256"
        }
      ],
      "name": "removeLiquidity",
      "outputs": [],
      "stateMutability": "nonpayable",
      "type": "function"
    },
    {
      "inputs": [
        {
          "internalType": "address",
          "name": "pool",
          "type": "address"
        }
      ],
      "name": "removePoolFromTracking",
      "outputs": [],
      "stateMutability": "nonpayable",
      "type": "function"
    },
    {
      "inputs": [],
      "name": "renounceOwnership",
      "outputs": [],
      "stateMutability": "nonpayable",
      "type": "function"
    },
    {
      "inputs": [
        {
          "internalType": "bytes32",
          "name": "role",
          "type": "bytes32"
        },
        {
          "internalType": "address",
          "name": "callerConfirmation",
          "type": "address"
        }
      ],
      "name": "renounceRole",
      "outputs": [],
      "stateMutability": "nonpayable",
      "type": "function"
    },
    {
      "inputs": [
        {
          "internalType": "address",
          "name": "account",
          "type": "address"
        }
      ],
      "name": "revokeDEXRole",
      "outputs": [],
      "stateMutability": "nonpayable",
      "type": "function"
    },
    {
      "inputs": [
        {
          "internalType": "bytes32",
          "name": "role",
          "type": "bytes32"
        },
        {
          "internalType": "address",
          "name": "account",
          "type": "address"
        }
      ],
      "name": "revokeRole",
      "outputs": [],
      "stateMutability": "nonpayable",
      "type": "function"
    },
    {
      "inputs": [
        {
          "internalType": "address",
          "name": "_dex",
          "type": "address"
        }
      ],
      "name": "setDEX",
      "outputs": [],
      "stateMutability": "nonpayable",
      "type": "function"
    },
    {
      "inputs": [
        {
          "internalType": "uint256",
          "name": "_newMax",
          "type": "uint256"
        }
      ],
      "name": "setMaxLiquidity",
      "outputs": [],
      "stateMutability": "nonpayable",
      "type": "function"
    },
    {
      "inputs": [
        {
          "internalType": "address",
          "name": "token",
          "type": "address"
        },
        {
          "internalType": "uint256",
          "name": "initialSubscribers",
          "type": "uint256"
        }
      ],
      "name": "startPriceDiscovery",
      "outputs": [],
      "stateMutability": "nonpayable",
      "type": "function"
    },
    {
      "inputs": [
        {
          "internalType": "bytes4",
          "name": "interfaceId",
          "type": "bytes4"
        }
      ],
      "name": "supportsInterface",
      "outputs": [
        {
          "internalType": "bool",
          "name": "",
          "type": "bool"
        }
      ],
      "stateMutability": "view",
      "type": "function"
    },
    {
      "inputs": [
        {
          "internalType": "address",
          "name": "",
          "type": "address"
        }
      ],
      "name": "tokenEngagement",
      "outputs": [
        {
          "internalType": "uint256",
          "name": "lastSubscriberCount",
          "type": "uint256"
        },
        {
          "internalType": "uint256",
          "name": "smoothedSubscriberCount",
          "type": "uint256"
        },
        {
          "internalType": "uint256",
          "name": "lastUpdateTime",
          "type": "uint256"
        },
        {
          "internalType": "uint256",
          "name": "updateCount",
          "type": "uint256"
        }
      ],
      "stateMutability": "view",
      "type": "function"
    },
    {
      "inputs": [
        {
          "internalType": "uint256",
          "name": "",
          "type": "uint256"
        }
      ],
      "name": "trackedPools",
      "outputs": [
        {
          "internalType": "address",
          "name": "",
          "type": "address"
        }
      ],
      "stateMutability": "view",
      "type": "function"
    },
    {
      "inputs": [
        {
          "internalType": "uint256",
          "name": "amount",
          "type": "uint256"
        }
      ],
      "name": "transferCoralToDEX",
      "outputs": [],
      "stateMutability": "nonpayable",
      "type": "function"
    },
    {
      "inputs": [
        {
          "internalType": "address",
          "name": "newOwner",
          "type": "address"
        }
      ],
      "name": "transferOwnership",
      "outputs": [],
      "stateMutability": "nonpayable",
      "type": "function"
    },
    {
      "inputs": [
        {
          "internalType": "address",
          "name": "token",
          "type": "address"
        },
        {
          "internalType": "uint256",
          "name": "newSubscriberCount",
          "type": "uint256"
        }
      ],
      "name": "updateEngagementMetrics",
      "outputs": [],
      "stateMutability": "nonpayable",
      "type": "function"
    },
    {
      "inputs": [
        {
          "internalType": "address",
          "name": "pool",
          "type": "address"
        },
        {
          "internalType": "uint256",
          "name": "tradeAmount",
          "type": "uint256"
        }
      ],
      "name": "updatePoolActivity",
      "outputs": [],
      "stateMutability": "nonpayable",
      "type": "function"
    },
    {
      "inputs": [
        {
          "internalType": "address",
          "name": "token",
          "type": "address"
        },
        {
          "internalType": "uint256",
          "name": "amount",
          "type": "uint256"
        }
      ],
      "name": "withdrawFees",
      "outputs": [],
      "stateMutability": "nonpayable",
      "type": "function"
    }
  ],
  "bytecode": "0x6080346100ed57601f613a6a38819003918201601f19168301916001600160401b038311848410176100f2578084926020946040528339810103126100ed57516001600160a01b038116908190036100ed5733156100d75760008054336001600160a01b0319821681178355916001600160a01b03909116907f8be0079c531659141344cd1fd0a4f28419497f9722a3daafe3b4186f6b6457e09080a369021e19e0c9bab2400000601055600580546001600160a01b0319169190911790556100c733610108565b506040516138b390816101978239f35b631e4fbdf760e01b600052600060045260246000fd5b600080fd5b634e487b7160e01b600052604160045260246000fd5b6001600160a01b0381166000908152600080516020613a4a833981519152602052604090205460ff16610190576001600160a01b03166000818152600080516020613a4a83398151915260205260408120805460ff191660011790553391907f2f8788117e7eff1d82e926ec794901d17c78024a50270940304540a733656f0d8180a4600190565b5060009056fe608080604052600436101561001357600080fd5b60003560e01c90816301ffc9a71461285b57508063051e0e671461280057806314f302ac146127df5780631735968814611a5c5780631879dcf3146127bc5780631b5a799a146127995780631ccf71eb146126bf5780631cead9a71461268557806321b77d63146113ad5780632253fc3c1461250757806323bfa792146124c5578063248a9ca3146124905780632d957a8c146124735780632ef972651461244a5780632f2ff15d1461240a57806330ae7805146123ed57806331ad24f8146123d15780633417c3d0146123a457806336568abe1461235e5780633c231efd146121e45780633e99c1e4146121b55780633ec433501461211b578063414f99ae146120fd5780634e358af214611df657806355776b7714611a7d5780635889486e14611a615780635c2da7cd14611a5c57806365f9297814611a3157806368d693c314611996578063692058c21461196d5780636d2beef114611951578063708b99351461191757806371081c8e146117fc578063715018a6146117a357806374a92c66146117645780637b66a7231461167f57806384f74a6914611645578063863ab9c8146115fd5780638c93ca7c146114285780638da5cb5b146113ff57806391d14854146113b2578063993d3450146113ad578063a033fcd414611341578063a1ce92041461130a578063a217fddf146112ee578063a711e6a1146112c1578063ad3b1b4714611171578063b1a23fb414611153578063b1eb4835146110f7578063b2098fa21461102b578063b7f23d1914610633578063b83d81571461100d578063bba2e14014610fe4578063bc99f48714610cfd578063bd1e31aa14610b53578063bd368d4814610b32578063d547741f14610aeb578063d6f969e214610a9b578063e1aeb09214610a34578063e38192e314610889578063e71e76c1146107b5578063e7c75b7914610774578063f2fd23de14610718578063f2fde38b1461068f578063f836c8f214610638578063f86325ed14610633578063fb28ceb21461060e5763fb99d5f41461030b57600080fd5b34610609576020366003190112610609576103246128ae565b61032c61309c565b60018060a01b03168060005260086020526040600020600381019061035460ff835416612e45565b6002810154607881018091116104b35742106105c45760008381526008602052604081206004018054829190825b8181106104d2575050811590506104c95761039c916129af565b80670de0b6b3a76400000290670de0b6b3a76400008204036104b3576127109004670de0b6b3a7640000019081670de0b6b3a7640000116104b3577f928602a1348c2d5cc6354f7e6953a38bfaf42426cd5d8c83dc7c42b972cfcdb0926104326001928487604096916729a2241af62c00008111610469575b505067016345785d8a0000811115610457579384915b01546129cf565b9085600052600360205281846000205560ff19815416905582519182526020820152a2005b5067016345785d8a000093849161042b565b7ffbb0338b3040d7b9bd8495de3d07128625b3ead1c3464340ed2e760a015d7447919250879081519081526729a2241af62c00006020820152a26729a2241af62c00008738610415565b634e487b7160e01b600052601160045260246000fd5b5050600061039c565b806104e0575b600101610382565b6104ea818461294a565b905460001983019160031b1c8282116104b357610507828661294a565b90549060031b1c1061051a575b506104d8565b61052882859793969761294a565b90549060031b1c9061054d600092610540838861294a565b90549060031b1c90612bf3565b9161271083029280840461271014901517156105b057926105896105a39361057c61059d94600197508961294a565b90549060031b1c906129af565b6127108111156105aa575061271090612e38565b95612c3c565b9390610514565b90612e38565b634e487b7160e01b81526011600452602490fd5b60405162461bcd60e51b815260206004820152601d60248201527f446973636f7665727920706572696f64206e6f7420636f6d706c6574650000006044820152606490fd5b600080fd5b34610609576020366003190112610609576106276128ae565b50602060405160008152f35b61298c565b346106095760203660031901126106095760606106536128ae565b60018060a01b038116600052600b60205260406000209061067a6001835493015491612ec2565b90604051928352602083015215156040820152f35b34610609576020366003190112610609576106a86128ae565b6106b061309c565b6001600160a01b0316801561070257600080546001600160a01b03198116831782556001600160a01b0316907f8be0079c531659141344cd1fd0a4f28419497f9722a3daafe3b4186f6b6457e09080a3005b631e4fbdf760e01b600052600060045260246000fd5b34610609576020366003190112610609576001600160a01b036107396128ae565b166000526007602052608060406000208054906001810154906003600282015491015491604051938452602084015260408301526060820152f35b34610609576020366003190112610609576020600435678ac7230489e8000081101590816107a8575b506040519015158152f35b905060105410158261079d565b34610609576040366003190112610609576107ce6128ae565b33600090815260008051602061385e833981519152602052604090205460243591906107fc9060ff16612fa1565b60018060a01b03169081600052600b60205260406000209042825560028201918254906201518082018092116104b3577f339a588d56f667ba0a8358be57070b2b0c9f5159d43eba838ef1da89159b985a93604093600193421061087257838301554290555b01548151908152426020820152a2005b9050610882838301918254612e38565b9055610862565b346106095761089736612962565b916108a061309c565b60018060a01b03169182600052600260205281604060002054106109ef5782600052600360205280604060002054106109aa577f96cd817c6329656790ef8fba7675405193677d39619571282f5e21f3a98cd05991604091846000526002602052610922678ac7230489e8000061091b848660002054612bf3565b1015613050565b846000526003602052610945678ac7230489e8000061091b838660002054612bf3565b8460005260026020528260002061095d838254612bf3565b905584600052600360205282600020610977828254612bf3565b9055610984823387613471565b60055461099d90829033906001600160a01b0316613471565b82519182526020820152a2005b60405162461bcd60e51b815260206004820152601c60248201527f496e73756666696369656e7420434f52414c206c6971756964697479000000006044820152606490fd5b60405162461bcd60e51b815260206004820152601e60248201527f496e73756666696369656e742063726561746f72206c697175696469747900006044820152606490fd5b34610609576020366003190112610609576001600160a01b03610a556128ae565b166000908152600860209081526040918290208054600182015460028301546003909301548551928352938201529283015260ff161515606082015280608081015b0390f35b3461060957600036600319011261060957600d54600e54600f5490916001600160a01b031690610e108101908181116104b357608093604051938452602084015260408301524210156060820152f35b3461060957604036600319011261060957610b30600435610b0a6128c4565b90610b2b610b2682600052600160205260016040600020015490565b6130c5565b6133eb565b005b3461060957600036600319011261060957610b4b61309c565b610b30613636565b3461060957604036600319011261060957610b6c6128ae565b610b746128c4565b90610b7d61309c565b60018060a01b031680600052600460205260406000205491610bd8604051610ba6604082612bd1565b601d81527f4e6f206665657320617661696c61626c6520746f2072656465706c6f790000006020820152841515612fed565b610c24604051610be9604082612bd1565b601b81527f42656c6f77206d696e696d756d20666565207468726573686f6c6400000000006020820152674563918244f40000851015612fed565b8160005260046020526040600020610c3d848254612bf3565b90556040516370a0823160e01b8152306004820152602081602481865afa8015610cf1578491600091610cba575b5091610c9c6020927fa2e59056a8017237dd27a52d5981fb4983f1a43828d018d9ba6e76c801fe9059941015612f55565b610ca7858286613471565b6040519485526001600160a01b031693a3005b9150506020813d602011610ce9575b81610cd660209383612bd1565b8101031261060957518390610c9c610c6b565b3d9150610cc9565b6040513d6000823e3d90fd5b3461060957602036600319011261060957610d166128ae565b33600090815260008051602061385e8339815191526020526040902054610d3f9060ff16612fa1565b6001600160a01b0316610d53811515612f11565b80600052600460205260406000205490610da6604051610d74604082612bd1565b601d81527f4e6f206665657320617661696c61626c6520746f2072656465706c6f790000006020820152831515612fed565b610df2604051610db7604082612bd1565b601b81527f42656c6f77206d696e696d756d20666565207468726573686f6c6400000000006020820152674563918244f40000841015612fed565b610dfa6134f5565b6001600160a01b038116928315610fa657610e15818361356d565b908115610f6a578111610f19576040516370a0823160e01b8152306004820152602081602481875afa908115610cf157600091610ee3575b5090610ec0817f5b1142ecb7caa10961adcac369fb4c5e7fa3629b1b53df070f2e8a2014c5177794610e8482610ede961015612f55565b8660005260046020526040600020610e9d838254612bf3565b90558760005260036020526040600020610eb8838254612e38565b905586613471565b60408051828152602081019290925242908201529081906060820190565b0390a3005b9190506020823d602011610f11575b81610eff60209383612bd1565b81010312610609579051610ec0610e4d565b3d9150610ef2565b60405162461bcd60e51b8152602060048201526024808201527f4465706c6f7920616d6f756e74206578636565647320617661696c61626c65206044820152636665657360e01b6064820152608490fd5b60405162461bcd60e51b8152602060048201526014602482015273139bc819195c1b1bde5b595b9d081b995959195960621b6044820152606490fd5b60405162461bcd60e51b8152602060048201526016602482015275139bc81cdd5a5d18589b19481c1bdbdb08199bdd5b9960521b6044820152606490fd5b34610609576000366003190112610609576005546040516001600160a01b039091168152602090f35b34610609576000366003190112610609576020600654604051908152f35b34610609576000366003190112610609576040518060206009549283815201809260096000527f6e1540171b6c0c960b71a7020d9f60077f6af931a8bbf590da0223dacf75c7af9060005b8181106110d8575050508161108c910382612bd1565b6040519182916020830190602084525180915260408301919060005b8181106110b6575050500390f35b82516001600160a01b03168452859450602093840193909201916001016110a8565b82546001600160a01b0316845260209093019260019283019201611076565b34610609576020366003190112610609576001600160a01b036111186128ae565b166000908152600760209081526040918290208054600182015460039283015485519283529382015292830182905211156060820152608090f35b34610609576000366003190112610609576020601054604051908152f35b346106095760403660031901126106095761118a6128ae565b6024359061119661309c565b6001600160a01b0316906111ab821515612f11565b6111b6811515612d58565b81600052600460205280604060002054106112885781600052600460205260406000206111e4828254612bf3565b90556040516370a0823160e01b8152306004820152602081602481865afa908115610cf157600091611256575b50816112427fc0819c13be868895eb93e40eaceb96de976442fa1d404e5c55f14bb65a8c489a936020931015612f55565b61124d813386613471565b604051908152a2005b90506020813d602011611280575b8161127160209383612bd1565b81010312610609575181611211565b3d9150611264565b60405162461bcd60e51b8152602060048201526011602482015270496e73756666696369656e74206665657360781b6044820152606490fd5b346106095760203660031901126106095760206112e46112df6128ae565b612ec2565b6040519015158152f35b3461060957600036600319011261060957602060405160008152f35b3461060957600036600319011261060957606060018060a01b03600d5416600e54600f549060405192835260208301526040820152f35b346106095760403660031901126106095761135a6128ae565b7f9dc46f23cfb5ddcad0ae7ea2be38d47fec07bb9382ec7e564efc69e036dd66ce60206024359260018060a01b031692836000526004825260406000206113a2828254612e38565b9055604051908152a2005b6128f6565b34610609576040366003190112610609576113cb6128c4565b600435600052600160205260406000209060018060a01b0316600052602052602060ff604060002054166040519015158152f35b34610609576000366003190112610609576000546040516001600160a01b039091168152602090f35b34610609576040366003190112610609576114416128ae565b6024359061144d61309c565b6001600160a01b031660008181526008602052604090206003015490919060ff166115c1576020906040516114828382612bd1565b60008152600036813760405160a081019080821067ffffffffffffffff8311176115ab5760049160405283815284810184815260408201428152606083019160018352608084019586528860005260088852604060002093518455516001840155516002830155600382019051151560ff801983541691161790550190519081519167ffffffffffffffff83116115ab57600160401b83116115ab5784908254848455808510611580575b5001906000528360002060005b83811061156e57867f9d3136590a24e6eb0d058d4d9b8c4d5be27926b0abfeca301a4d5fc0aaab775d8787604051908152a2005b8251828201559185019160010161153a565b83600052848360002091820191015b81811061159c575061152d565b6000815587935060010161158f565b634e487b7160e01b600052604160045260246000fd5b60405162461bcd60e51b8152602060048201526014602482015273416c726561647920696e20646973636f7665727960601b6044820152606490fd5b3461060957602036600319011261060957610b306116196128ae565b61162161309c565b6116356001600160a01b0382161515612e84565b611640610b26612c00565b613102565b34610609576020366003190112610609576001600160a01b036116666128ae565b1660005260036020526020604060002054604051908152f35b34610609576020366003190112610609576116986128ae565b6116a061309c565b6001600160a01b03811690811561172957600c546116d491906001600160a01b03168061170e575b50611640610b26612c00565b50600c80546001600160a01b031916821790557ff4f735542e91d7c018c02855a6a19fbbcf7f4d7fb006982ebcbb5753408a638b600080a2005b6117229061171d610b26612c00565b613355565b50836116c8565b60405162461bcd60e51b8152602060048201526013602482015272496e76616c696420444558206164647265737360681b6044820152606490fd5b34610609576020366003190112610609576001600160a01b036117856128ae565b16600052600a602052602060ff604060002054166040519015158152f35b34610609576000366003190112610609576117bc61309c565b600080546001600160a01b0319811682556001600160a01b03167f8be0079c531659141344cd1fd0a4f28419497f9722a3daafe3b4186f6b6457e08280a3005b346106095760203660031901126106095760043561181861309c565b678ac7230489e8000081106118d3577f5555555555555555555555555555555555555555555555555555555555555555811161189f577f9d1c8f51bfa9236921a779a0d8059d62d17a5e5fa3520a82ece79d16bce1ef2c90601054908060105561189a6040519283924291846040919493926060820195825260208201520152565b0390a1005b60405162461bcd60e51b815260206004820152600c60248201526b09ac2f040e8dede40d0d2ced60a31b6044820152606490fd5b606460405162461bcd60e51b815260206004820152602060248201527f4e6577206d6178206d757374206265203e3d206d696e206c69717569646974796044820152fd5b34610609576020366003190112610609576001600160a01b036119386128ae565b1660005260026020526020604060002054604051908152f35b3461060957600036600319011261060957602060405160148152f35b3461060957600036600319011261060957600c546040516001600160a01b039091168152602090f35b34610609576020366003190112610609576119af6128ae565b6119b761309c565b6001600160a01b0381166119cc811515612e84565b600c546001600160a01b0316146119ec57610b309061171d610b26612c00565b60405162461bcd60e51b815260206004820152601e60248201527f43616e6e6f74207265766f6b652066726f6d207072696d6172792044455800006044820152606490fd5b34610609576000366003190112610609576040601054815190678ac7230489e8000082526020820152f35b6128da565b3461060957600036600319011261060957602060405160038152f35b3461060957611a8b36612962565b9080151580611ded575b15611da8576001600160a01b038316928315611d6b578360005260026020526040600020541580611d55575b15611cba575b836000526002602052611adf82604060002054612e38565b601054809111159081611c98575b5015611c4857611aff823033876134b1565b611b1583303360018060a01b03600554166134b1565b8360005260026020526040600020611b2e838254612e38565b90558360005260036020526040600020611b49848254612e38565b905583600052600a60205260ff6040600020541615611b96575b506040907fac1d76749e5447b7b16f5ab61447e1bd502f3bb4807af3b28e620d1700a6ee459282519182526020820152a2005b9060095492600160401b8410156115ab57611c02604093611bde8660017fac1d76749e5447b7b16f5ab61447e1bd502f3bb4807af3b28e620d1700a6ee459801600955612919565b81546001600160a01b0393841660039290921b91821b9390911b1916919091179055565b84600052600a60205282600020600160ff19825416179055847f402f8a396b78c225022a54972367fd98a174c970fbf537400bb383a0690ebd78600080a2925090611b63565b60405162461bcd60e51b815260206004820152602260248201527f45786365656473206d6178696d756d206c69717569646974792070657220706f6044820152611bdb60f21b6064820152608490fd5b9050846000526003602052611cb284604060002054612e38565b111585611aed565b836000526002602052678ac7230489e80000611cdb83604060002054612e38565b101580611d2c575b611ac75760405162461bcd60e51b815260206004820152601760248201527f42656c6f77206d696e696d756d206c69717569646974790000000000000000006044820152606490fd5b50836000526003602052678ac7230489e80000611d4e84604060002054612e38565b1015611ce3565b5083600052600360205260406000205415611ac1565b60405162461bcd60e51b815260206004820152601560248201527424b73b30b634b21031b932b0ba37b9103a37b5b2b760591b6044820152606490fd5b60405162461bcd60e51b815260206004820152601960248201527f496e76616c6964206c697175696469747920616d6f756e7473000000000000006044820152606490fd5b50811515611a95565b3461060957604036600319011261060957611e0f6128ae565b60243590611e1b61309c565b60018060a01b031690816000526008602052604060002090611e4360ff600384015416612e45565b600482019081549260068410156120c057600160401b8410156115ab57604082869360017f469b6894b4b45f49c7c10aa3e70e1fae20f0eba89b628e3d69af9d7a34ef8bcf94611e9a898360069b018a558961294a565b81549060031b9085821b91600019901b191617905501558151908152426020820152a25414611ec557005b611ecd61309c565b80600052600860205260406000206003810190611eed60ff835416612e45565b6002810154607881018091116104b35742106105c45760008381526008602052604081206004018054829190825b81811061201c5750508115905061201357611f35916129af565b80670de0b6b3a76400000290670de0b6b3a76400008204036104b3576127109004670de0b6b3a7640000019081670de0b6b3a7640000116104b3577f928602a1348c2d5cc6354f7e6953a38bfaf42426cd5d8c83dc7c42b972cfcdb0926104326001928487604096916729a2241af62c00008111611fc957505067016345785d8a00008111156104575793849101546129cf565b7ffbb0338b3040d7b9bd8495de3d07128625b3ead1c3464340ed2e760a015d7447919250879081519081526729a2241af62c00006020820152a26729a2241af62c00008789610415565b50506000611f35565b8061202a575b600101611f1b565b612034818461294a565b905460001983019160031b1c8282116104b357612051828661294a565b90549060031b1c10612064575b50612022565b61207282859793969761294a565b90549060031b1c9061208a600092610540838861294a565b9161271083029280840461271014901517156105b057926105896120b99361057c61059d94600197508961294a565b939061205e565b60405162461bcd60e51b815260206004820152601560248201527413585e081cdb985c1cda1bdd1cc81c995858da1959605a1b6044820152606490fd5b3461060957600036600319011261060957602060405162093a808152f35b34610609576020366003190112610609576121346128ae565b600654607881018091116104b3574210612170576001600160a01b03811660009081526007602052604090205461216a91613229565b42600655005b60405162461bcd60e51b815260206004820152601760248201527f546f6f206561726c7920666f7220726562616c616e63650000000000000000006044820152606490fd5b346106095760203660031901126106095760406121d86121d36128ae565b612da3565b82519182526020820152f35b346106095760203660031901126106095760043561220061309c565b61220b811515612d58565b600c546001600160a01b03168015612320576005546040516370a0823160e01b81523060048201526001600160a01b0390911690602081602481855afa8015610cf15784916000916122eb575b50106122a657612269918391613471565b7f5743c23aa18e9c7c385e45094156d20b8a0436ddc5e68943713e62ce630951a1604060018060a01b03600c5416928151908152426020820152a2005b60405162461bcd60e51b815260206004820152601a60248201527f496e73756666696369656e7420434f52414c2062616c616e63650000000000006044820152606490fd5b9150506020813d602011612318575b8161230760209383612bd1565b810103126106095783905185612258565b3d91506122fa565b60405162461bcd60e51b8152602060048201526016602482015275111156081859191c995cdcc81a5cc81b9bdd081cd95d60521b6044820152606490fd5b34610609576040366003190112610609576123776128c4565b336001600160a01b0382160361239357610b30906004356133eb565b63334bd91960e11b60005260046000fd5b3461060957604036600319011261060957610b306123c06128ae565b6123c861309c565b60243590612c4b565b3461060957600036600319011261060957602060405160068152f35b346106095760003660031901126106095760206040516103e88152f35b3461060957604036600319011261060957610b306004356124296128c4565b90612445610b2682600052600160205260016040600020015490565b61319a565b3461060957600036600319011261060957602060405160008051602061383e8339815191528152f35b34610609576000366003190112610609576020604051610e108152f35b346106095760203660031901126106095760206124bd600435600052600160205260016040600020015490565b604051908152f35b3461060957602036600319011261060957600435600954811015610609576124ee602091612919565b905460405160039290921b1c6001600160a01b03168152f35b34610609576020366003190112610609576125206128ae565b61252861309c565b6001600160a01b03166000818152600a602052604090205460ff161561264d5760005b6009549081811015612646578261256182612919565b905460039190911b1c6001600160a01b03161461258257600191500161254b565b60001982019182116104b357818103612618575b5050600954801561260257600019016125ae81612919565b81549060018060a01b039060031b1b191690556009555b80600052600a602052604060002060ff1981541690557ffe00c1e8cd2c81e2fc9fbcfbd6eef9904d0b41515821320d5c45abe6e8baae55600080a2005b634e487b7160e01b600052603160045260246000fd5b611bde61262761263f93612919565b905460039190911b1c6001600160a01b031691612919565b8180612596565b50506125c5565b60405162461bcd60e51b815260206004820152601060248201526f141bdbdb081b9bdd081d1c9858dad95960821b6044820152606490fd5b34610609576020366003190112610609576001600160a01b036126a66128ae565b1660005260046020526020604060002054604051908152f35b34610609576020366003190112610609576126d86128ae565b60408051630fa6707960e21b81526001600160a01b03909216600483015281602481305afa8015610cf157600090819061275b575b60209250678ac7230489e80000821015918261274e575b508161273b575b816107a857506040519015158152f35b678ac7230489e80000811015915061272b565b6010541015915083612724565b50906040813d604011612791575b8161277660409383612bd1565b8101031261278d576020809250815191015161270d565b5080fd5b3d9150612769565b34610609576000366003190112610609576020604051674563918244f400008152f35b3461060957600036600319011261060957602060405167016345785d8a00008152f35b346106095760403660031901126106095760206124bd6024356004356129cf565b34610609576020366003190112610609576001600160a01b036128216128ae565b16600052600b60205260406000208054610a9760026001840154930154604051938493846040919493926060820195825260208201520152565b34610609576020366003190112610609576004359063ffffffff60e01b821680920361060957602091637965db0b60e01b811490811561289d575b5015158152f35b6301ffc9a760e01b14905083612896565b600435906001600160a01b038216820361060957565b602435906001600160a01b038216820361060957565b3461060957600036600319011261060957602060405160788152f35b34610609576000366003190112610609576020604051678ac7230489e800008152f35b60095481101561293457600960005260206000200190600090565b634e487b7160e01b600052603260045260246000fd5b80548210156129345760005260206000200190600090565b6060906003190112610609576004356001600160a01b038116810361060957906024359060443590565b34610609576000366003190112610609576020604051670de0b6b3a76400008152f35b81156129b9570490565b634e487b7160e01b600052601260045260246000fd5b908115612b705767016345785d8a00008110612b35576729a2241af62c00008111612afa5780156129b95780600019048211612ab557808202918204036104b357678ac7230489e800008110612a70576010548111612a2b5790565b60405162461bcd60e51b815260206004820152601760248201527f4c69717569646974792061626f7665206d6178696d756d0000000000000000006044820152606490fd5b60405162461bcd60e51b815260206004820152601760248201527f4c69717569646974792062656c6f77206d696e696d756d0000000000000000006044820152606490fd5b60405162461bcd60e51b815260206004820152601760248201527f4d756c7469706c69636174696f6e206f766572666c6f770000000000000000006044820152606490fd5b60405162461bcd60e51b815260206004820152601360248201527250726963652061626f7665206d6178696d756d60681b6044820152606490fd5b60405162461bcd60e51b815260206004820152601360248201527250726963652062656c6f77206d696e696d756d60681b6044820152606490fd5b60405162461bcd60e51b815260206004820152601860248201527f496e76616c6964207375627363726962657220636f756e7400000000000000006044820152606490fd5b6060810190811067ffffffffffffffff8211176115ab57604052565b90601f8019910116810190811067ffffffffffffffff8211176115ab57604052565b919082039182116104b357565b60008051602061383e83398151915260005260016020527f7ada6dbb520616cff5d6f574aff5a85f6d0dabe1f7d96c08fe8e54d79bfca6e15490565b60001981146104b35760010190565b6001600160a01b038116600081815260076020526040902080549293919215612d4457600181019283546050810290808204605014901517156104b3576014840292848404601414851517156104b357612caf600394926064808795049104612e38565b8096868355554260028201550190612cc78254612c3c565b8092557fca21c0666034043e35144e1a6964b4519a124330e0122463475f81a0c189d11960405180612d0c428989846040919493926060820195825260208201520152565b0390a21015612d1a57505050565b606e8202828104606e14831517156104b3576064900410612d39575050565b612d4291613229565b565b906001935060039250808255838201550155565b15612d5f57565b606460405162461bcd60e51b815260206004820152602060248201527f416d6f756e74206d7573742062652067726561746572207468616e207a65726f6044820152fd5b6001600160a01b0316908115612df35781600052600a60205260ff6040600020541615612deb5781600052600260205260406000205491600052600360205260406000205490565b600091508190565b60405162461bcd60e51b815260206004820152601d60248201527f496e76616c69642063726561746f7220746f6b656e20616464726573730000006044820152606490fd5b919082018092116104b357565b15612e4c57565b60405162461bcd60e51b815260206004820152601060248201526f4e6f7420696e20646973636f7665727960801b6044820152606490fd5b15612e8b57565b60405162461bcd60e51b815260206004820152600f60248201526e496e76616c6964206164647265737360881b6044820152606490fd5b60018060a01b0316600052600b6020526040600020600181549101549062093a7f194201904282116104b35710612f0b57678ac7230489e8000011612f0657600190565b600090565b50600090565b15612f1857565b60405162461bcd60e51b8152602060048201526015602482015274496e76616c696420746f6b656e206164647265737360581b6044820152606490fd5b15612f5c57565b60405162461bcd60e51b815260206004820152601a60248201527f496e73756666696369656e7420746f6b656e2062616c616e63650000000000006044820152606490fd5b15612fa857565b60405162461bcd60e51b815260206004820152601d60248201527f43616c6c657220646f6573206e6f7420686176652044455820726f6c650000006044820152606490fd5b15612ff55750565b6040519062461bcd60e51b8252602060048301528181519182602483015260005b8381106130385750508160006044809484010152601f80199101168101030190fd5b60208282018101516044878401015285935001613016565b1561305757565b60405162461bcd60e51b815260206004820152601b60248201527f43616e6e6f742072656d6f766520616c6c206c697175696469747900000000006044820152606490fd5b6000546001600160a01b031633036130b057565b63118cdaa760e01b6000523360045260246000fd5b600081815260016020908152604080832033845290915290205460ff16156130ea5750565b63e2517d3f60e01b6000523360045260245260446000fd5b6001600160a01b038116600090815260008051602061385e833981519152602052604090205460ff16612f0b576001600160a01b0316600081815260008051602061385e83398151915260205260408120805460ff1916600117905533919060008051602061383e833981519152907f2f8788117e7eff1d82e926ec794901d17c78024a50270940304540a733656f0d9080a4600190565b60008181526001602090815260408083206001600160a01b038616845290915290205460ff166132225760008181526001602081815260408084206001600160a01b0396909616808552959091528220805460ff19169091179055339291907f2f8788117e7eff1d82e926ec794901d17c78024a50270940304540a733656f0d9080a4600190565b5050600090565b60018060a01b031690816000526003602052678ac7230489e80000604060002054106132ec57670de0b6b3a7640000810290808204670de0b6b3a764000014901517156104b3576010547f8eb665708d1cbfa2df196d5f041bc00ac33e9c6e0b42b64233aed0c7c84da7e1916020918082116132b9575b50836000526003825280604060002055604051908152a2565b9050837f52815f7ef39cfe1f42d5c23d10919cc9fbebd17d9edbc1132eee0079a50dc9458383604051908152a2386132a0565b508060005260036020527f43c29e41362bceae5b8f10cf00d57c5b525a270a7ff263f5c6b24158459b0bbe6080604060002054604051908152604060208201526016604082015275496e73756666696369656e74206c697175696469747960501b6060820152a2565b6001600160a01b038116600090815260008051602061385e833981519152602052604090205460ff1615612f0b576001600160a01b0316600081815260008051602061385e83398151915260205260408120805460ff1916905533919060008051602061383e833981519152907ff6391f5c32d9c69d2a47ea670b442974b53935d1edc7fd64eb21e047a839171b9080a4600190565b60008181526001602090815260408083206001600160a01b038616845290915290205460ff16156132225760008181526001602090815260408083206001600160a01b0395909516808452949091528120805460ff19169055339291907ff6391f5c32d9c69d2a47ea670b442974b53935d1edc7fd64eb21e047a839171b9080a4600190565b60405163a9059cbb60e01b60208201526001600160a01b039092166024830152604480830193909352918152612d42916134ac606483612bd1565b6137e2565b6040516323b872dd60e01b60208201526001600160a01b039283166024820152929091166044830152606480830193909352918152612d42916134ac608483612bd1565b600d546001600160a01b031680151580613556575b613527575b50613518613636565b600d546001600160a01b031690565b80600052600a60205260ff6040600020541680613547575b1561350f5790565b5061355181612ec2565b61353f565b50600f54610e1081018091116104b357421061350a565b6001600160a01b0316801561322257670de0b6b3a764000082106132225780600052600360205260406000205490600052600b602052678ac7230489e800006040600020916040516135be81612bb5565b83548152604060026001860154958660208501520154910152106000146136025750805b670de0b6b3a7640000811061322257818111156135fd575090565b905090565b6801158e460913d00000101561362d57604b8102818104604b14821517156104b357606490046135e2565b8060011c6135e2565b600d80546001600160a01b03191690556000600e5560095480156137df5762093a7f194201904282116104b35760005b8181106136b35750505042600f5560018060a01b03600d54167f02bc000d157093a2097e6514a43c3baea9e0cfbe6ee606d000e64892a9ec425d6040600e548151908152426020820152a2565b6136bc81612919565b60018060a01b0391549060031b1c169081600052600b6020526040600020604051906136e782612bb5565b805482526002600182015491602084019283520154604083015283600052600a6020528560ff60406000205416159283156137d4575b505081156137c1575b506137b8578160005260036020526040600020549180600052600b6020526001604060002001546007840293808504600714901517156104b3576003810290808204600314901517156104b357613781600a91600195612e38565b0490600e548211613796575b50505b01613666565b6bffffffffffffffffffffffff60a01b600d541617600d55600e55388061378d565b60019150613790565b678ac7230489e800009150511038613726565b51109150853861371d565b50565b906000602091828151910182855af115610cf1576000513d61383457506001600160a01b0381163b155b6138135750565b635274afe760e01b60009081526001600160a01b0391909116600452602490fd5b6001141561380c56fe3d962df346299889e3ddd098bdd68cf335a1e370339bd306448317d39b39a66d7ada6dbb520616cff5d6f574aff5a85f6d0dabe1f7d96c08fe8e54d79bfca6e0a2646970667358221220c1dc27162e29780ddbf6f23267c2aad1d72c63bc90f97907b1576f2f37e6d4ed64736f6c634300081c0033a6eef7e35abe7026729641147f7915573c7e97b47efa546f5f6e3230263bcb49",
  "linkReferences": {},
  "deployedLinkReferences": {}
}