{
  "_format": "hh-sol-artifact-1",
  "contractName": "SaraLiquidityManager",
  "sourceName": "contracts/SaraLiquidityManager.sol",
  "abi": [
    {
      "inputs": [
        {
          "internalType": "address",
          "name": "_coralToken",
          "type": "address"
        }
      ],
      "stateMutability": "nonpayable",
      "type": "constructor"
    },
    {
      "inputs": [],
      "name": "AccessControlBadConfirmation",
      "type": "error"
    },
    {
      "inputs": [
        {
          "internalType": "address",
          "name": "account",
          "type": "address"
        },
        {
          "internalType": "bytes32",
          "name": "neededRole",
          "type": "bytes32"
        }
      ],
      "name": "AccessControlUnauthorizedAccount",
      "type": "error"
    },
    {
      "inputs": [
        {
          "internalType": "address",
          "name": "spender",
          "type": "address"
        },
        {
          "internalType": "uint256",
          "name": "allowance",
          "type": "uint256"
        },
        {
          "internalType": "uint256",
          "name": "needed",
          "type": "uint256"
        }
      ],
      "name": "ERC20InsufficientAllowance",
      "type": "error"
    },
    {
      "inputs": [
        {
          "internalType": "address",
          "name": "sender",
          "type": "address"
        },
        {
          "internalType": "uint256",
          "name": "balance",
          "type": "uint256"
        },
        {
          "internalType": "uint256",
          "name": "needed",
          "type": "uint256"
        }
      ],
      "name": "ERC20InsufficientBalance",
      "type": "error"
    },
    {
      "inputs": [
        {
          "internalType": "address",
          "name": "approver",
          "type": "address"
        }
      ],
      "name": "ERC20InvalidApprover",
      "type": "error"
    },
    {
      "inputs": [
        {
          "internalType": "address",
          "name": "receiver",
          "type": "address"
        }
      ],
      "name": "ERC20InvalidReceiver",
      "type": "error"
    },
    {
      "inputs": [
        {
          "internalType": "address",
          "name": "sender",
          "type": "address"
        }
      ],
      "name": "ERC20InvalidSender",
      "type": "error"
    },
    {
      "inputs": [
        {
          "internalType": "address",
          "name": "spender",
          "type": "address"
        }
      ],
      "name": "ERC20InvalidSpender",
      "type": "error"
    },
    {
      "inputs": [
        {
          "internalType": "address",
          "name": "owner",
          "type": "address"
        }
      ],
      "name": "OwnableInvalidOwner",
      "type": "error"
    },
    {
      "inputs": [
        {
          "internalType": "address",
          "name": "account",
          "type": "address"
        }
      ],
      "name": "OwnableUnauthorizedAccount",
      "type": "error"
    },
    {
      "inputs": [],
      "name": "ReentrancyGuardReentrantCall",
      "type": "error"
    },
    {
      "inputs": [
        {
          "internalType": "address",
          "name": "token",
          "type": "address"
        }
      ],
      "name": "SafeERC20FailedOperation",
      "type": "error"
    },
    {
      "anonymous": false,
      "inputs": [
        {
          "indexed": true,
          "internalType": "address",
          "name": "owner",
          "type": "address"
        },
        {
          "indexed": true,
          "internalType": "address",
          "name": "spender",
          "type": "address"
        },
        {
          "indexed": false,
          "internalType": "uint256",
          "name": "value",
          "type": "uint256"
        }
      ],
      "name": "Approval",
      "type": "event"
    },
    {
      "anonymous": false,
      "inputs": [
        {
          "indexed": true,
          "internalType": "address",
          "name": "token",
          "type": "address"
        },
        {
          "indexed": false,
          "internalType": "uint256",
          "name": "amount",
          "type": "uint256"
        },
        {
          "indexed": true,
          "internalType": "address",
          "name": "targetPool",
          "type": "address"
        },
        {
          "indexed": false,
          "internalType": "uint256",
          "name": "coralAmount",
          "type": "uint256"
        },
        {
          "indexed": false,
          "internalType": "uint256",
          "name": "timestamp",
          "type": "uint256"
        }
      ],
      "name": "AutoFeesRedeployed",
      "type": "event"
    },
    {
      "anonymous": false,
      "inputs": [
        {
          "indexed": true,
          "internalType": "address",
          "name": "to",
          "type": "address"
        },
        {
          "indexed": false,
          "internalType": "uint256",
          "name": "amount",
          "type": "uint256"
        },
        {
          "indexed": false,
          "internalType": "uint256",
          "name": "timestamp",
          "type": "uint256"
        }
      ],
      "name": "CoralTokenTransferred",
      "type": "event"
    },
    {
      "anonymous": false,
      "inputs": [
        {
          "indexed": true,
          "internalType": "address",
          "name": "pool",
          "type": "address"
        },
        {
          "indexed": false,
          "internalType": "uint256",
          "name": "currentVolume",
          "type": "uint256"
        },
        {
          "indexed": false,
          "internalType": "uint256",
          "name": "lastUpdateTime",
          "type": "uint256"
        },
        {
          "indexed": false,
          "internalType": "uint256",
          "name": "currentTime",
          "type": "uint256"
        }
      ],
      "name": "DebugPoolActivity",
      "type": "event"
    },
    {
      "anonymous": false,
      "inputs": [
        {
          "indexed": true,
          "internalType": "address",
          "name": "pool",
          "type": "address"
        },
        {
          "indexed": false,
          "internalType": "uint256",
          "name": "score",
          "type": "uint256"
        },
        {
          "indexed": false,
          "internalType": "uint256",
          "name": "currentIndex",
          "type": "uint256"
        },
        {
          "indexed": false,
          "internalType": "uint256",
          "name": "batchEndIndex",
          "type": "uint256"
        }
      ],
      "name": "DebugPoolProcessed",
      "type": "event"
    },
    {
      "anonymous": false,
      "inputs": [
        {
          "indexed": true,
          "internalType": "address",
          "name": "pool",
          "type": "address"
        },
        {
          "indexed": false,
          "internalType": "bool",
          "name": "isTracked",
          "type": "bool"
        },
        {
          "indexed": false,
          "internalType": "bool",
          "name": "isActive",
          "type": "bool"
        },
        {
          "indexed": false,
          "internalType": "uint256",
          "name": "score",
          "type": "uint256"
        }
      ],
      "name": "DebugPoolStatus",
      "type": "event"
    },
    {
      "anonymous": false,
      "inputs": [
        {
          "indexed": true,
          "internalType": "address",
          "name": "targetPool",
          "type": "address"
        },
        {
          "indexed": false,
          "internalType": "uint256",
          "name": "amount",
          "type": "uint256"
        },
        {
          "indexed": false,
          "internalType": "string",
          "name": "reason",
          "type": "string"
        }
      ],
      "name": "DeploymentSkipped",
      "type": "event"
    },
    {
      "anonymous": false,
      "inputs": [
        {
          "indexed": true,
          "internalType": "address",
          "name": "token",
          "type": "address"
        },
        {
          "indexed": false,
          "internalType": "uint256",
          "name": "oldCount",
          "type": "uint256"
        },
        {
          "indexed": false,
          "internalType": "uint256",
          "name": "newCount",
          "type": "uint256"
        },
        {
          "indexed": false,
          "internalType": "uint256",
          "name": "percentChange",
          "type": "uint256"
        }
      ],
      "name": "EngagementChangeCalculated",
      "type": "event"
    },
    {
      "anonymous": false,
      "inputs": [
        {
          "indexed": true,
          "internalType": "address",
          "name": "token",
          "type": "address"
        },
        {
          "indexed": false,
          "internalType": "uint256",
          "name": "initialCount",
          "type": "uint256"
        },
        {
          "indexed": false,
          "internalType": "uint256",
          "name": "timestamp",
          "type": "uint256"
        }
      ],
      "name": "EngagementInitialized",
      "type": "event"
    },
    {
      "anonymous": false,
      "inputs": [
        {
          "indexed": true,
          "internalType": "address",
          "name": "token",
          "type": "address"
        },
        {
          "indexed": false,
          "internalType": "uint256",
          "name": "rawCount",
          "type": "uint256"
        },
        {
          "indexed": false,
          "internalType": "uint256",
          "name": "smoothedCount",
          "type": "uint256"
        },
        {
          "indexed": false,
          "internalType": "uint256",
          "name": "timestamp",
          "type": "uint256"
        }
      ],
      "name": "EngagementSmoothed",
      "type": "event"
    },
    {
      "anonymous": false,
      "inputs": [
        {
          "indexed": true,
          "internalType": "address",
          "name": "token",
          "type": "address"
        },
        {
          "indexed": false,
          "internalType": "uint256",
          "name": "subscribers",
          "type": "uint256"
        },
        {
          "indexed": false,
          "internalType": "uint256",
          "name": "timestamp",
          "type": "uint256"
        }
      ],
      "name": "EngagementSnapshotTaken",
      "type": "event"
    },
    {
      "anonymous": false,
      "inputs": [
        {
          "indexed": true,
          "internalType": "address",
          "name": "pool",
          "type": "address"
        },
        {
          "indexed": false,
          "internalType": "uint256",
          "name": "reserveAmount",
          "type": "uint256"
        }
      ],
      "name": "FallbackPoolSelected",
      "type": "event"
    },
    {
      "anonymous": false,
      "inputs": [
        {
          "indexed": false,
          "internalType": "string",
          "name": "operation",
          "type": "string"
        },
        {
          "indexed": true,
          "internalType": "address",
          "name": "token",
          "type": "address"
        },
        {
          "indexed": false,
          "internalType": "uint256",
          "name": "amount",
          "type": "uint256"
        },
        {
          "indexed": true,
          "internalType": "address",
          "name": "target",
          "type": "address"
        }
      ],
      "name": "FeeOperation",
      "type": "event"
    },
    {
      "anonymous": false,
      "inputs": [
        {
          "indexed": true,
          "internalType": "address",
          "name": "token",
          "type": "address"
        },
        {
          "indexed": false,
          "internalType": "uint256",
          "name": "amount",
          "type": "uint256"
        }
      ],
      "name": "FeesCollected",
      "type": "event"
    },
    {
      "anonymous": false,
      "inputs": [
        {
          "indexed": true,
          "internalType": "address",
          "name": "token",
          "type": "address"
        },
        {
          "indexed": false,
          "internalType": "uint256",
          "name": "amount",
          "type": "uint256"
        },
        {
          "indexed": true,
          "internalType": "address",
          "name": "targetPool",
          "type": "address"
        }
      ],
      "name": "FeesRedeployed",
      "type": "event"
    },
    {
      "anonymous": false,
      "inputs": [
        {
          "indexed": true,
          "internalType": "address",
          "name": "token",
          "type": "address"
        },
        {
          "indexed": false,
          "internalType": "uint256",
          "name": "amount",
          "type": "uint256"
        }
      ],
      "name": "FeesWithdrawn",
      "type": "event"
    },
    {
      "anonymous": false,
      "inputs": [
        {
          "indexed": true,
          "internalType": "address",
          "name": "creatorToken",
          "type": "address"
        },
        {
          "indexed": false,
          "internalType": "uint256",
          "name": "amountCreator",
          "type": "uint256"
        },
        {
          "indexed": false,
          "internalType": "uint256",
          "name": "amountCoral",
          "type": "uint256"
        },
        {
          "indexed": false,
          "internalType": "uint256",
          "name": "liquidity",
          "type": "uint256"
        }
      ],
      "name": "LiquidityAdded",
      "type": "event"
    },
    {
      "anonymous": false,
      "inputs": [
        {
          "indexed": false,
          "internalType": "uint256",
          "name": "subscriberCount",
          "type": "uint256"
        },
        {
          "indexed": false,
          "internalType": "uint256",
          "name": "price",
          "type": "uint256"
        },
        {
          "indexed": false,
          "internalType": "uint256",
          "name": "calculatedLiquidity",
          "type": "uint256"
        },
        {
          "indexed": false,
          "internalType": "bool",
          "name": "wasCapped",
          "type": "bool"
        }
      ],
      "name": "LiquidityCalculation",
      "type": "event"
    },
    {
      "anonymous": false,
      "inputs": [
        {
          "indexed": true,
          "internalType": "address",
          "name": "token",
          "type": "address"
        },
        {
          "indexed": false,
          "internalType": "uint256",
          "name": "cappedAmount",
          "type": "uint256"
        }
      ],
      "name": "LiquidityCapped",
      "type": "event"
    },
    {
      "anonymous": false,
      "inputs": [
        {
          "indexed": false,
          "internalType": "string",
          "name": "operation",
          "type": "string"
        },
        {
          "indexed": true,
          "internalType": "address",
          "name": "token",
          "type": "address"
        },
        {
          "indexed": false,
          "internalType": "uint256",
          "name": "amount",
          "type": "uint256"
        },
        {
          "indexed": false,
          "internalType": "uint256",
          "name": "timestamp",
          "type": "uint256"
        }
      ],
      "name": "LiquidityOperation",
      "type": "event"
    },
    {
      "anonymous": false,
      "inputs": [
        {
          "indexed": true,
          "internalType": "address",
          "name": "token",
          "type": "address"
        },
        {
          "indexed": false,
          "internalType": "uint256",
          "name": "newReserveCoral",
          "type": "uint256"
        }
      ],
      "name": "LiquidityRebalanced",
      "type": "event"
    },
    {
      "anonymous": false,
      "inputs": [
        {
          "indexed": true,
          "internalType": "address",
          "name": "creatorToken",
          "type": "address"
        },
        {
          "indexed": false,
          "internalType": "uint256",
          "name": "amountCreator",
          "type": "uint256"
        },
        {
          "indexed": false,
          "internalType": "uint256",
          "name": "amountCoral",
          "type": "uint256"
        }
      ],
      "name": "LiquidityRemoved",
      "type": "event"
    },
    {
      "anonymous": false,
      "inputs": [
        {
          "indexed": true,
          "internalType": "address",
          "name": "highestPool",
          "type": "address"
        },
        {
          "indexed": false,
          "internalType": "uint256",
          "name": "highestReserve",
          "type": "uint256"
        },
        {
          "indexed": false,
          "internalType": "uint256",
          "name": "proposedMax",
          "type": "uint256"
        }
      ],
      "name": "LiquidityThresholds",
      "type": "event"
    },
    {
      "anonymous": false,
      "inputs": [
        {
          "indexed": true,
          "internalType": "address",
          "name": "token",
          "type": "address"
        },
        {
          "indexed": false,
          "internalType": "uint256",
          "name": "minimumLiquidity",
          "type": "uint256"
        },
        {
          "indexed": false,
          "internalType": "uint256",
          "name": "safeLiquidity",
          "type": "uint256"
        },
        {
          "indexed": false,
          "internalType": "uint256",
          "name": "calculatedLiquidity",
          "type": "uint256"
        }
      ],
      "name": "LiquidityThresholds",
      "type": "event"
    },
    {
      "anonymous": false,
      "inputs": [
        {
          "indexed": false,
          "internalType": "uint256",
          "name": "proposedMax",
          "type": "uint256"
        },
        {
          "indexed": false,
          "internalType": "uint256",
          "name": "absoluteMax",
          "type": "uint256"
        },
        {
          "indexed": false,
          "internalType": "bool",
          "name": "withinLimits",
          "type": "bool"
        }
      ],
      "name": "LiquidityValidation",
      "type": "event"
    },
    {
      "anonymous": false,
      "inputs": [
        {
          "indexed": false,
          "internalType": "uint256",
          "name": "oldMax",
          "type": "uint256"
        },
        {
          "indexed": false,
          "internalType": "uint256",
          "name": "newMax",
          "type": "uint256"
        }
      ],
      "name": "MaxLiquidityUpdated",
      "type": "event"
    },
    {
      "anonymous": false,
      "inputs": [
        {
          "indexed": true,
          "internalType": "address",
          "name": "previousOwner",
          "type": "address"
        },
        {
          "indexed": true,
          "internalType": "address",
          "name": "newOwner",
          "type": "address"
        }
      ],
      "name": "OwnershipTransferred",
      "type": "event"
    },
    {
      "anonymous": false,
      "inputs": [
        {
          "indexed": true,
          "internalType": "address",
          "name": "pool",
          "type": "address"
        },
        {
          "indexed": false,
          "internalType": "uint256",
          "name": "volume24h",
          "type": "uint256"
        }
      ],
      "name": "PoolActivityUpdated",
      "type": "event"
    },
    {
      "anonymous": false,
      "inputs": [
        {
          "indexed": true,
          "internalType": "address",
          "name": "pool",
          "type": "address"
        },
        {
          "indexed": false,
          "internalType": "uint256",
          "name": "initialScore",
          "type": "uint256"
        },
        {
          "indexed": false,
          "internalType": "uint256",
          "name": "index",
          "type": "uint256"
        }
      ],
      "name": "PoolAdded",
      "type": "event"
    },
    {
      "anonymous": false,
      "inputs": [
        {
          "indexed": true,
          "internalType": "address",
          "name": "pool",
          "type": "address"
        },
        {
          "indexed": false,
          "internalType": "uint256",
          "name": "currentReserve",
          "type": "uint256"
        },
        {
          "indexed": false,
          "internalType": "uint256",
          "name": "maxLimit",
          "type": "uint256"
        }
      ],
      "name": "PoolLiquidityCheck",
      "type": "event"
    },
    {
      "anonymous": false,
      "inputs": [
        {
          "indexed": true,
          "internalType": "address",
          "name": "pool",
          "type": "address"
        },
        {
          "indexed": false,
          "internalType": "uint256",
          "name": "liquidity",
          "type": "uint256"
        },
        {
          "indexed": false,
          "internalType": "uint256",
          "name": "volume24h",
          "type": "uint256"
        },
        {
          "indexed": false,
          "internalType": "uint256",
          "name": "score",
          "type": "uint256"
        }
      ],
      "name": "PoolMetrics",
      "type": "event"
    },
    {
      "anonymous": false,
      "inputs": [
        {
          "indexed": true,
          "internalType": "address",
          "name": "pool",
          "type": "address"
        },
        {
          "indexed": false,
          "internalType": "uint256",
          "name": "score",
          "type": "uint256"
        },
        {
          "indexed": false,
          "internalType": "uint256",
          "name": "timestamp",
          "type": "uint256"
        }
      ],
      "name": "PoolNeedUpdated",
      "type": "event"
    },
    {
      "anonymous": false,
      "inputs": [
        {
          "indexed": false,
          "internalType": "string",
          "name": "operation",
          "type": "string"
        },
        {
          "indexed": true,
          "internalType": "address",
          "name": "pool",
          "type": "address"
        },
        {
          "indexed": false,
          "internalType": "uint256",
          "name": "score",
          "type": "uint256"
        },
        {
          "indexed": false,
          "internalType": "uint256",
          "name": "timestamp",
          "type": "uint256"
        }
      ],
      "name": "PoolOperation",
      "type": "event"
    },
    {
      "anonymous": false,
      "inputs": [
        {
          "indexed": true,
          "internalType": "address",
          "name": "pool",
          "type": "address"
        },
        {
          "indexed": false,
          "internalType": "uint256",
          "name": "finalScore",
          "type": "uint256"
        },
        {
          "indexed": false,
          "internalType": "uint256",
          "name": "liquidity",
          "type": "uint256"
        },
        {
          "indexed": false,
          "internalType": "uint256",
          "name": "volume",
          "type": "uint256"
        },
        {
          "indexed": false,
          "internalType": "uint256",
          "name": "liquidityWeight",
          "type": "uint256"
        },
        {
          "indexed": false,
          "internalType": "uint256",
          "name": "volumeWeight",
          "type": "uint256"
        }
      ],
      "name": "PoolScoreCalculated",
      "type": "event"
    },
    {
      "anonymous": false,
      "inputs": [
        {
          "indexed": true,
          "internalType": "address",
          "name": "pool",
          "type": "address"
        },
        {
          "indexed": false,
          "internalType": "uint256",
          "name": "score",
          "type": "uint256"
        },
        {
          "indexed": false,
          "internalType": "uint256",
          "name": "currentLiquidity",
          "type": "uint256"
        }
      ],
      "name": "PoolSelected",
      "type": "event"
    },
    {
      "anonymous": false,
      "inputs": [
        {
          "indexed": true,
          "internalType": "address",
          "name": "pool",
          "type": "address"
        }
      ],
      "name": "PoolTracked",
      "type": "event"
    },
    {
      "anonymous": false,
      "inputs": [
        {
          "indexed": true,
          "internalType": "address",
          "name": "pool",
          "type": "address"
        }
      ],
      "name": "PoolUntracked",
      "type": "event"
    },
    {
      "anonymous": false,
      "inputs": [
        {
          "indexed": true,
          "internalType": "address",
          "name": "pool",
          "type": "address"
        },
        {
          "indexed": false,
          "internalType": "uint256",
          "name": "oldScore",
          "type": "uint256"
        },
        {
          "indexed": false,
          "internalType": "uint256",
          "name": "newScore",
          "type": "uint256"
        },
        {
          "indexed": false,
          "internalType": "uint256",
          "name": "index",
          "type": "uint256"
        }
      ],
      "name": "PoolUpdated",
      "type": "event"
    },
    {
      "anonymous": false,
      "inputs": [
        {
          "indexed": true,
          "internalType": "address",
          "name": "token",
          "type": "address"
        },
        {
          "indexed": false,
          "internalType": "uint256",
          "name": "calculatedPrice",
          "type": "uint256"
        },
        {
          "indexed": false,
          "internalType": "uint256",
          "name": "cappedPrice",
          "type": "uint256"
        }
      ],
      "name": "PriceCapReached",
      "type": "event"
    },
    {
      "anonymous": false,
      "inputs": [
        {
          "indexed": true,
          "internalType": "address",
          "name": "token",
          "type": "address"
        },
        {
          "indexed": false,
          "internalType": "uint256",
          "name": "initialCoralPrice",
          "type": "uint256"
        },
        {
          "indexed": false,
          "internalType": "uint256",
          "name": "initialLiquidity",
          "type": "uint256"
        }
      ],
      "name": "PriceDiscoveryCompleted",
      "type": "event"
    },
    {
      "anonymous": false,
      "inputs": [
        {
          "indexed": true,
          "internalType": "address",
          "name": "token",
          "type": "address"
        },
        {
          "indexed": false,
          "internalType": "uint256",
          "name": "initialSubscribers",
          "type": "uint256"
        }
      ],
      "name": "PriceDiscoveryStarted",
      "type": "event"
    },
    {
      "anonymous": false,
      "inputs": [
        {
          "indexed": true,
          "internalType": "address",
          "name": "token",
          "type": "address"
        },
        {
          "indexed": false,
          "internalType": "uint256",
          "name": "originalAmount",
          "type": "uint256"
        },
        {
          "indexed": false,
          "internalType": "uint256",
          "name": "adjustedAmount",
          "type": "uint256"
        },
        {
          "indexed": false,
          "internalType": "string",
          "name": "reason",
          "type": "string"
        }
      ],
      "name": "RebalanceAdjusted",
      "type": "event"
    },
    {
      "anonymous": false,
      "inputs": [
        {
          "indexed": true,
          "internalType": "address",
          "name": "token",
          "type": "address"
        },
        {
          "indexed": false,
          "internalType": "uint256",
          "name": "oldLiquidity",
          "type": "uint256"
        },
        {
          "indexed": false,
          "internalType": "uint256",
          "name": "newLiquidity",
          "type": "uint256"
        },
        {
          "indexed": false,
          "internalType": "string",
          "name": "reason",
          "type": "string"
        }
      ],
      "name": "RebalanceMetrics",
      "type": "event"
    },
    {
      "anonymous": false,
      "inputs": [
        {
          "indexed": true,
          "internalType": "address",
          "name": "token",
          "type": "address"
        },
        {
          "indexed": false,
          "internalType": "uint256",
          "name": "currentValue",
          "type": "uint256"
        },
        {
          "indexed": false,
          "internalType": "string",
          "name": "reason",
          "type": "string"
        }
      ],
      "name": "RebalanceSkipped",
      "type": "event"
    },
    {
      "anonymous": false,
      "inputs": [
        {
          "indexed": true,
          "internalType": "address",
          "name": "token",
          "type": "address"
        },
        {
          "indexed": false,
          "internalType": "uint256",
          "name": "creatorReserve",
          "type": "uint256"
        },
        {
          "indexed": false,
          "internalType": "uint256",
          "name": "coralReserve",
          "type": "uint256"
        }
      ],
      "name": "ReservesUpdated",
      "type": "event"
    },
    {
      "anonymous": false,
      "inputs": [
        {
          "indexed": true,
          "internalType": "bytes32",
          "name": "role",
          "type": "bytes32"
        },
        {
          "indexed": true,
          "internalType": "bytes32",
          "name": "previousAdminRole",
          "type": "bytes32"
        },
        {
          "indexed": true,
          "internalType": "bytes32",
          "name": "newAdminRole",
          "type": "bytes32"
        }
      ],
      "name": "RoleAdminChanged",
      "type": "event"
    },
    {
      "anonymous": false,
      "inputs": [
        {
          "indexed": true,
          "internalType": "bytes32",
          "name": "role",
          "type": "bytes32"
        },
        {
          "indexed": true,
          "internalType": "address",
          "name": "account",
          "type": "address"
        },
        {
          "indexed": true,
          "internalType": "address",
          "name": "sender",
          "type": "address"
        }
      ],
      "name": "RoleGranted",
      "type": "event"
    },
    {
      "anonymous": false,
      "inputs": [
        {
          "indexed": false,
          "internalType": "string",
          "name": "operation",
          "type": "string"
        },
        {
          "indexed": true,
          "internalType": "address",
          "name": "account",
          "type": "address"
        },
        {
          "indexed": true,
          "internalType": "bytes32",
          "name": "role",
          "type": "bytes32"
        }
      ],
      "name": "RoleOperation",
      "type": "event"
    },
    {
      "anonymous": false,
      "inputs": [
        {
          "indexed": true,
          "internalType": "bytes32",
          "name": "role",
          "type": "bytes32"
        },
        {
          "indexed": true,
          "internalType": "address",
          "name": "account",
          "type": "address"
        },
        {
          "indexed": true,
          "internalType": "address",
          "name": "sender",
          "type": "address"
        }
      ],
      "name": "RoleRevoked",
      "type": "event"
    },
    {
      "anonymous": false,
      "inputs": [
        {
          "indexed": true,
          "internalType": "address",
          "name": "from",
          "type": "address"
        },
        {
          "indexed": true,
          "internalType": "address",
          "name": "to",
          "type": "address"
        },
        {
          "indexed": false,
          "internalType": "uint256",
          "name": "value",
          "type": "uint256"
        }
      ],
      "name": "Transfer",
      "type": "event"
    },
    {
      "anonymous": false,
      "inputs": [
        {
          "indexed": true,
          "internalType": "address",
          "name": "pool",
          "type": "address"
        },
        {
          "indexed": false,
          "internalType": "uint256",
          "name": "lastVolume",
          "type": "uint256"
        },
        {
          "indexed": false,
          "internalType": "uint256",
          "name": "timestamp",
          "type": "uint256"
        }
      ],
      "name": "VolumeReset",
      "type": "event"
    },
    {
      "anonymous": false,
      "inputs": [
        {
          "indexed": true,
          "internalType": "address",
          "name": "account",
          "type": "address"
        },
        {
          "indexed": false,
          "internalType": "uint256",
          "name": "timestamp",
          "type": "uint256"
        }
      ],
      "name": "WithdrawAddressRemoved",
      "type": "event"
    },
    {
      "anonymous": false,
      "inputs": [
        {
          "indexed": true,
          "internalType": "address",
          "name": "account",
          "type": "address"
        },
        {
          "indexed": false,
          "internalType": "uint256",
          "name": "timestamp",
          "type": "uint256"
        }
      ],
      "name": "WithdrawAddressWhitelisted",
      "type": "event"
    },
    {
      "anonymous": false,
      "inputs": [
        {
          "indexed": true,
          "internalType": "address",
          "name": "caller",
          "type": "address"
        },
        {
          "indexed": false,
          "internalType": "bool",
          "name": "isWhitelisted",
          "type": "bool"
        },
        {
          "indexed": false,
          "internalType": "uint256",
          "name": "requestedAmount",
          "type": "uint256"
        },
        {
          "indexed": false,
          "internalType": "uint256",
          "name": "timestamp",
          "type": "uint256"
        }
      ],
      "name": "WithdrawalAttempt",
      "type": "event"
    },
    {
      "inputs": [],
      "name": "ABSOLUTE_MAX_LIQUIDITY",
      "outputs": [
        {
          "internalType": "uint256",
          "name": "",
          "type": "uint256"
        }
      ],
      "stateMutability": "view",
      "type": "function"
    },
    {
      "inputs": [],
      "name": "ACTIVITY_THRESHOLD",
      "outputs": [
        {
          "internalType": "uint256",
          "name": "",
          "type": "uint256"
        }
      ],
      "stateMutability": "view",
      "type": "function"
    },
    {
      "inputs": [],
      "name": "BACKUP_DEX_ROLE",
      "outputs": [
        {
          "internalType": "bytes32",
          "name": "",
          "type": "bytes32"
        }
      ],
      "stateMutability": "view",
      "type": "function"
    },
    {
      "inputs": [],
      "name": "BASE_PRICE",
      "outputs": [
        {
          "internalType": "uint256",
          "name": "",
          "type": "uint256"
        }
      ],
      "stateMutability": "view",
      "type": "function"
    },
    {
      "inputs": [],
      "name": "DEFAULT_ADMIN_ROLE",
      "outputs": [
        {
          "internalType": "bytes32",
          "name": "",
          "type": "bytes32"
        }
      ],
      "stateMutability": "view",
      "type": "function"
    },
    {
      "inputs": [],
      "name": "DEX_ROLE",
      "outputs": [
        {
          "internalType": "bytes32",
          "name": "",
          "type": "bytes32"
        }
      ],
      "stateMutability": "view",
      "type": "function"
    },
    {
      "inputs": [],
      "name": "DISCOVERY_PERIOD",
      "outputs": [
        {
          "internalType": "uint256",
          "name": "",
          "type": "uint256"
        }
      ],
      "stateMutability": "view",
      "type": "function"
    },
    {
      "inputs": [],
      "name": "ENGAGEMENT_THRESHOLD",
      "outputs": [
        {
          "internalType": "uint256",
          "name": "",
          "type": "uint256"
        }
      ],
      "stateMutability": "view",
      "type": "function"
    },
    {
      "inputs": [],
      "name": "MAX_HISTORY_ENTRIES",
      "outputs": [
        {
          "internalType": "uint256",
          "name": "",
          "type": "uint256"
        }
      ],
      "stateMutability": "view",
      "type": "function"
    },
    {
      "inputs": [],
      "name": "MAX_PRICE_MULTIPLIER",
      "outputs": [
        {
          "internalType": "uint256",
          "name": "",
          "type": "uint256"
        }
      ],
      "stateMutability": "view",
      "type": "function"
    },
    {
      "inputs": [],
      "name": "MAX_SNAPSHOTS",
      "outputs": [
        {
          "internalType": "uint256",
          "name": "",
          "type": "uint256"
        }
      ],
      "stateMutability": "view",
      "type": "function"
    },
    {
      "inputs": [],
      "name": "MIN_24H_VOLUME",
      "outputs": [
        {
          "internalType": "uint256",
          "name": "",
          "type": "uint256"
        }
      ],
      "stateMutability": "view",
      "type": "function"
    },
    {
      "inputs": [],
      "name": "MIN_DEPLOYMENT_AMOUNT",
      "outputs": [
        {
          "internalType": "uint256",
          "name": "",
          "type": "uint256"
        }
      ],
      "stateMutability": "view",
      "type": "function"
    },
    {
      "inputs": [],
      "name": "MIN_FEES_FOR_REDEPLOY",
      "outputs": [
        {
          "internalType": "uint256",
          "name": "",
          "type": "uint256"
        }
      ],
      "stateMutability": "view",
      "type": "function"
    },
    {
      "inputs": [],
      "name": "MIN_LIQUIDITY",
      "outputs": [
        {
          "internalType": "uint256",
          "name": "",
          "type": "uint256"
        }
      ],
      "stateMutability": "view",
      "type": "function"
    },
    {
      "inputs": [],
      "name": "MIN_TOKEN_PRICE",
      "outputs": [
        {
          "internalType": "uint256",
          "name": "",
          "type": "uint256"
        }
      ],
      "stateMutability": "view",
      "type": "function"
    },
    {
      "inputs": [],
      "name": "POOL_NEED_UPDATE_INTERVAL",
      "outputs": [
        {
          "internalType": "uint256",
          "name": "",
          "type": "uint256"
        }
      ],
      "stateMutability": "view",
      "type": "function"
    },
    {
      "inputs": [],
      "name": "REBALANCE_INTERVAL",
      "outputs": [
        {
          "internalType": "uint256",
          "name": "",
          "type": "uint256"
        }
      ],
      "stateMutability": "view",
      "type": "function"
    },
    {
      "inputs": [],
      "name": "SNAPSHOT_INTERVAL",
      "outputs": [
        {
          "internalType": "uint256",
          "name": "",
          "type": "uint256"
        }
      ],
      "stateMutability": "view",
      "type": "function"
    },
    {
      "inputs": [
        {
          "internalType": "address",
          "name": "creatorToken",
          "type": "address"
        },
        {
          "internalType": "uint256",
          "name": "creatorTokenAmount",
          "type": "uint256"
        }
      ],
      "name": "addCreatorTokenLiquidity",
      "outputs": [],
      "stateMutability": "nonpayable",
      "type": "function"
    },
    {
      "inputs": [
        {
          "internalType": "address",
          "name": "creatorToken",
          "type": "address"
        },
        {
          "internalType": "uint256",
          "name": "amountCreator",
          "type": "uint256"
        },
        {
          "internalType": "uint256",
          "name": "amountCoral",
          "type": "uint256"
        }
      ],
      "name": "addLiquidity",
      "outputs": [
        {
          "internalType": "uint256",
          "name": "liquidity",
          "type": "uint256"
        }
      ],
      "stateMutability": "nonpayable",
      "type": "function"
    },
    {
      "inputs": [
        {
          "internalType": "address",
          "name": "pool",
          "type": "address"
        }
      ],
      "name": "addPoolToTracking",
      "outputs": [],
      "stateMutability": "nonpayable",
      "type": "function"
    },
    {
      "inputs": [
        {
          "internalType": "address",
          "name": "owner",
          "type": "address"
        },
        {
          "internalType": "address",
          "name": "spender",
          "type": "address"
        }
      ],
      "name": "allowance",
      "outputs": [
        {
          "internalType": "uint256",
          "name": "",
          "type": "uint256"
        }
      ],
      "stateMutability": "view",
      "type": "function"
    },
    {
      "inputs": [
        {
          "internalType": "address",
          "name": "spender",
          "type": "address"
        },
        {
          "internalType": "uint256",
          "name": "value",
          "type": "uint256"
        }
      ],
      "name": "approve",
      "outputs": [
        {
          "internalType": "bool",
          "name": "",
          "type": "bool"
        }
      ],
      "stateMutability": "nonpayable",
      "type": "function"
    },
    {
      "inputs": [
        {
          "internalType": "address",
          "name": "token",
          "type": "address"
        }
      ],
      "name": "autoRedeployFees",
      "outputs": [
        {
          "internalType": "bool",
          "name": "",
          "type": "bool"
        }
      ],
      "stateMutability": "nonpayable",
      "type": "function"
    },
    {
      "inputs": [
        {
          "internalType": "address",
          "name": "account",
          "type": "address"
        }
      ],
      "name": "balanceOf",
      "outputs": [
        {
          "internalType": "uint256",
          "name": "",
          "type": "uint256"
        }
      ],
      "stateMutability": "view",
      "type": "function"
    },
    {
      "inputs": [
        {
          "internalType": "uint256",
          "name": "subscriberCount",
          "type": "uint256"
        },
        {
          "internalType": "uint256",
          "name": "price",
          "type": "uint256"
        }
      ],
      "name": "calculateInitialLiquidity",
      "outputs": [
        {
          "internalType": "uint256",
          "name": "",
          "type": "uint256"
        }
      ],
      "stateMutability": "nonpayable",
      "type": "function"
    },
    {
      "inputs": [
        {
          "internalType": "address",
          "name": "token",
          "type": "address"
        }
      ],
      "name": "calculateInitialLiquidity",
      "outputs": [
        {
          "internalType": "uint256",
          "name": "",
          "type": "uint256"
        }
      ],
      "stateMutability": "nonpayable",
      "type": "function"
    },
    {
      "inputs": [
        {
          "internalType": "address",
          "name": "token",
          "type": "address"
        }
      ],
      "name": "checkAndRebalance",
      "outputs": [],
      "stateMutability": "nonpayable",
      "type": "function"
    },
    {
      "inputs": [
        {
          "internalType": "address",
          "name": "token",
          "type": "address"
        },
        {
          "internalType": "uint256",
          "name": "amount",
          "type": "uint256"
        }
      ],
      "name": "collectFees",
      "outputs": [],
      "stateMutability": "nonpayable",
      "type": "function"
    },
    {
      "inputs": [
        {
          "internalType": "address",
          "name": "",
          "type": "address"
        }
      ],
      "name": "collectedFees",
      "outputs": [
        {
          "internalType": "uint256",
          "name": "",
          "type": "uint256"
        }
      ],
      "stateMutability": "view",
      "type": "function"
    },
    {
      "inputs": [
        {
          "internalType": "address",
          "name": "creatorToken",
          "type": "address"
        }
      ],
      "name": "completePriceDiscovery",
      "outputs": [],
      "stateMutability": "nonpayable",
      "type": "function"
    },
    {
      "inputs": [
        {
          "internalType": "address",
          "name": "",
          "type": "address"
        }
      ],
      "name": "coralReserves",
      "outputs": [
        {
          "internalType": "uint256",
          "name": "",
          "type": "uint256"
        }
      ],
      "stateMutability": "view",
      "type": "function"
    },
    {
      "inputs": [],
      "name": "coralToken",
      "outputs": [
        {
          "internalType": "address",
          "name": "",
          "type": "address"
        }
      ],
      "stateMutability": "view",
      "type": "function"
    },
    {
      "inputs": [
        {
          "internalType": "address",
          "name": "",
          "type": "address"
        }
      ],
      "name": "creatorTokenReserves",
      "outputs": [
        {
          "internalType": "uint256",
          "name": "",
          "type": "uint256"
        }
      ],
      "stateMutability": "view",
      "type": "function"
    },
    {
      "inputs": [],
      "name": "decimals",
      "outputs": [
        {
          "internalType": "uint8",
          "name": "",
          "type": "uint8"
        }
      ],
      "stateMutability": "view",
      "type": "function"
    },
    {
      "inputs": [],
      "name": "dex",
      "outputs": [
        {
          "internalType": "address",
          "name": "",
          "type": "address"
        }
      ],
      "stateMutability": "view",
      "type": "function"
    },
    {
      "inputs": [],
      "name": "getPoolNeedInfo",
      "outputs": [
        {
          "internalType": "address",
          "name": "pool",
          "type": "address"
        },
        {
          "internalType": "uint256",
          "name": "score",
          "type": "uint256"
        },
        {
          "internalType": "uint256",
          "name": "lastUpdate",
          "type": "uint256"
        },
        {
          "internalType": "bool",
          "name": "isStale",
          "type": "bool"
        }
      ],
      "stateMutability": "view",
      "type": "function"
    },
    {
      "inputs": [
        {
          "internalType": "address",
          "name": "creatorToken",
          "type": "address"
        }
      ],
      "name": "getReserves",
      "outputs": [
        {
          "internalType": "uint256",
          "name": "creatorReserve",
          "type": "uint256"
        },
        {
          "internalType": "uint256",
          "name": "coralReserve",
          "type": "uint256"
        }
      ],
      "stateMutability": "view",
      "type": "function"
    },
    {
      "inputs": [
        {
          "internalType": "bytes32",
          "name": "role",
          "type": "bytes32"
        }
      ],
      "name": "getRoleAdmin",
      "outputs": [
        {
          "internalType": "bytes32",
          "name": "",
          "type": "bytes32"
        }
      ],
      "stateMutability": "view",
      "type": "function"
    },
    {
      "inputs": [
        {
          "internalType": "address",
          "name": "token",
          "type": "address"
        }
      ],
      "name": "getSmoothedMetrics",
      "outputs": [
        {
          "internalType": "uint256",
          "name": "lastCount",
          "type": "uint256"
        },
        {
          "internalType": "uint256",
          "name": "smoothedCount",
          "type": "uint256"
        },
        {
          "internalType": "uint256",
          "name": "updateCount",
          "type": "uint256"
        },
        {
          "internalType": "bool",
          "name": "eligibleForRebalance",
          "type": "bool"
        }
      ],
      "stateMutability": "view",
      "type": "function"
    },
    {
      "inputs": [
        {
          "internalType": "uint256",
          "name": "n",
          "type": "uint256"
        }
      ],
      "name": "getTopPools",
      "outputs": [
        {
          "internalType": "address[]",
          "name": "",
          "type": "address[]"
        }
      ],
      "stateMutability": "view",
      "type": "function"
    },
    {
      "inputs": [],
      "name": "getTrackedPools",
      "outputs": [
        {
          "internalType": "address[]",
          "name": "",
          "type": "address[]"
        }
      ],
      "stateMutability": "view",
      "type": "function"
    },
    {
      "inputs": [
        {
          "internalType": "address",
          "name": "pool",
          "type": "address"
        }
      ],
      "name": "getVolumeHistory",
      "outputs": [
        {
          "components": [
            {
              "internalType": "uint256",
              "name": "lastRecordedVolume",
              "type": "uint256"
            },
            {
              "internalType": "uint256",
              "name": "timestamp",
              "type": "uint256"
            }
          ],
          "internalType": "struct SaraLiquidityManager.VolumeHistory[]",
          "name": "",
          "type": "tuple[]"
        }
      ],
      "stateMutability": "view",
      "type": "function"
    },
    {
      "inputs": [
        {
          "internalType": "address",
          "name": "account",
          "type": "address"
        }
      ],
      "name": "grantBackupDEXRole",
      "outputs": [],
      "stateMutability": "nonpayable",
      "type": "function"
    },
    {
      "inputs": [
        {
          "internalType": "bytes32",
          "name": "role",
          "type": "bytes32"
        },
        {
          "internalType": "address",
          "name": "account",
          "type": "address"
        }
      ],
      "name": "grantRole",
      "outputs": [],
      "stateMutability": "nonpayable",
      "type": "function"
    },
    {
      "inputs": [
        {
          "internalType": "bytes32",
          "name": "role",
          "type": "bytes32"
        },
        {
          "internalType": "address",
          "name": "account",
          "type": "address"
        }
      ],
      "name": "hasRole",
      "outputs": [
        {
          "internalType": "bool",
          "name": "",
          "type": "bool"
        }
      ],
      "stateMutability": "view",
      "type": "function"
    },
    {
      "inputs": [
        {
          "internalType": "address",
          "name": "creatorToken",
          "type": "address"
        }
      ],
      "name": "hasValidLiquidity",
      "outputs": [
        {
          "internalType": "bool",
          "name": "",
          "type": "bool"
        }
      ],
      "stateMutability": "view",
      "type": "function"
    },
    {
      "inputs": [
        {
          "internalType": "address",
          "name": "token",
          "type": "address"
        }
      ],
      "name": "isCoralToken",
      "outputs": [
        {
          "internalType": "bool",
          "name": "",
          "type": "bool"
        }
      ],
      "stateMutability": "view",
      "type": "function"
    },
    {
      "inputs": [
        {
          "internalType": "address",
          "name": "pool",
          "type": "address"
        }
      ],
      "name": "isPoolActive",
      "outputs": [
        {
          "internalType": "bool",
          "name": "",
          "type": "bool"
        }
      ],
      "stateMutability": "view",
      "type": "function"
    },
    {
      "inputs": [
        {
          "internalType": "address",
          "name": "",
          "type": "address"
        }
      ],
      "name": "isTrackedPool",
      "outputs": [
        {
          "internalType": "bool",
          "name": "",
          "type": "bool"
        }
      ],
      "stateMutability": "view",
      "type": "function"
    },
    {
      "inputs": [
        {
          "internalType": "uint256",
          "name": "liquidity",
          "type": "uint256"
        }
      ],
      "name": "isValidLiquidity",
      "outputs": [
        {
          "internalType": "bool",
          "name": "",
          "type": "bool"
        }
      ],
      "stateMutability": "view",
      "type": "function"
    },
    {
      "inputs": [],
      "name": "lastRebalanceTimestamp",
      "outputs": [
        {
          "internalType": "uint256",
          "name": "",
          "type": "uint256"
        }
      ],
      "stateMutability": "view",
      "type": "function"
    },
    {
      "inputs": [],
      "name": "maxLiquidityPerPool",
      "outputs": [
        {
          "internalType": "uint256",
          "name": "",
          "type": "uint256"
        }
      ],
      "stateMutability": "view",
      "type": "function"
    },
    {
      "inputs": [],
      "name": "mostNeededPool",
      "outputs": [
        {
          "internalType": "address",
          "name": "pool",
          "type": "address"
        },
        {
          "internalType": "uint256",
          "name": "score",
          "type": "uint256"
        },
        {
          "internalType": "uint256",
          "name": "lastUpdateTime",
          "type": "uint256"
        }
      ],
      "stateMutability": "view",
      "type": "function"
    },
    {
      "inputs": [],
      "name": "name",
      "outputs": [
        {
          "internalType": "string",
          "name": "",
          "type": "string"
        }
      ],
      "stateMutability": "view",
      "type": "function"
    },
    {
      "inputs": [],
      "name": "owner",
      "outputs": [
        {
          "internalType": "address",
          "name": "",
          "type": "address"
        }
      ],
      "stateMutability": "view",
      "type": "function"
    },
    {
      "inputs": [
        {
          "internalType": "address",
          "name": "",
          "type": "address"
        }
      ],
      "name": "poolActivity",
      "outputs": [
        {
          "internalType": "uint256",
          "name": "lastTradeTimestamp",
          "type": "uint256"
        },
        {
          "internalType": "uint256",
          "name": "tradingVolume24h",
          "type": "uint256"
        },
        {
          "internalType": "uint256",
          "name": "lastVolumeUpdateTime",
          "type": "uint256"
        }
      ],
      "stateMutability": "view",
      "type": "function"
    },
    {
      "inputs": [],
      "name": "poolCount",
      "outputs": [
        {
          "internalType": "uint256",
          "name": "",
          "type": "uint256"
        }
      ],
      "stateMutability": "view",
      "type": "function"
    },
    {
      "inputs": [
        {
          "internalType": "address",
          "name": "",
          "type": "address"
        }
      ],
      "name": "priceDiscovery",
      "outputs": [
        {
          "internalType": "uint256",
          "name": "initialSubscribers",
          "type": "uint256"
        },
        {
          "internalType": "uint256",
          "name": "currentSubscribers",
          "type": "uint256"
        },
        {
          "internalType": "uint256",
          "name": "observationStartTime",
          "type": "uint256"
        },
        {
          "internalType": "bool",
          "name": "isInDiscovery",
          "type": "bool"
        }
      ],
      "stateMutability": "view",
      "type": "function"
    },
    {
      "inputs": [
        {
          "internalType": "address",
          "name": "token",
          "type": "address"
        },
        {
          "internalType": "uint256",
          "name": "currentSubscribers",
          "type": "uint256"
        }
      ],
      "name": "recordEngagementSnapshot",
      "outputs": [],
      "stateMutability": "nonpayable",
      "type": "function"
    },
    {
      "inputs": [
        {
          "internalType": "address",
          "name": "token",
          "type": "address"
        },
        {
          "internalType": "address",
          "name": "targetPool",
          "type": "address"
        }
      ],
      "name": "redeployFees",
      "outputs": [],
      "stateMutability": "nonpayable",
      "type": "function"
    },
    {
      "inputs": [
        {
          "internalType": "address",
          "name": "creatorToken",
          "type": "address"
        },
        {
          "internalType": "uint256",
          "name": "amountCreator",
          "type": "uint256"
        },
        {
          "internalType": "uint256",
          "name": "amountCoral",
          "type": "uint256"
        }
      ],
      "name": "removeLiquidity",
      "outputs": [],
      "stateMutability": "nonpayable",
      "type": "function"
    },
    {
      "inputs": [
        {
          "internalType": "address",
          "name": "pool",
          "type": "address"
        }
      ],
      "name": "removePoolFromTracking",
      "outputs": [],
      "stateMutability": "nonpayable",
      "type": "function"
    },
    {
      "inputs": [
        {
          "internalType": "address",
          "name": "account",
          "type": "address"
        }
      ],
      "name": "removeWithdrawAddress",
      "outputs": [],
      "stateMutability": "nonpayable",
      "type": "function"
    },
    {
      "inputs": [],
      "name": "renounceOwnership",
      "outputs": [],
      "stateMutability": "nonpayable",
      "type": "function"
    },
    {
      "inputs": [
        {
          "internalType": "bytes32",
          "name": "role",
          "type": "bytes32"
        },
        {
          "internalType": "address",
          "name": "callerConfirmation",
          "type": "address"
        }
      ],
      "name": "renounceRole",
      "outputs": [],
      "stateMutability": "nonpayable",
      "type": "function"
    },
    {
      "inputs": [
        {
          "internalType": "address",
          "name": "account",
          "type": "address"
        }
      ],
      "name": "revokeDEXRole",
      "outputs": [],
      "stateMutability": "nonpayable",
      "type": "function"
    },
    {
      "inputs": [
        {
          "internalType": "bytes32",
          "name": "role",
          "type": "bytes32"
        },
        {
          "internalType": "address",
          "name": "account",
          "type": "address"
        }
      ],
      "name": "revokeRole",
      "outputs": [],
      "stateMutability": "nonpayable",
      "type": "function"
    },
    {
      "inputs": [
        {
          "internalType": "address",
          "name": "_dex",
          "type": "address"
        }
      ],
      "name": "setDEX",
      "outputs": [],
      "stateMutability": "nonpayable",
      "type": "function"
    },
    {
      "inputs": [
        {
          "internalType": "uint256",
          "name": "",
          "type": "uint256"
        }
      ],
      "name": "sortedPools",
      "outputs": [
        {
          "internalType": "address",
          "name": "pool",
          "type": "address"
        },
        {
          "internalType": "uint256",
          "name": "score",
          "type": "uint256"
        },
        {
          "internalType": "uint256",
          "name": "lastUpdateTime",
          "type": "uint256"
        },
        {
          "internalType": "uint256",
          "name": "nextIndex",
          "type": "uint256"
        },
        {
          "internalType": "uint256",
          "name": "prevIndex",
          "type": "uint256"
        }
      ],
      "stateMutability": "view",
      "type": "function"
    },
    {
      "inputs": [
        {
          "internalType": "address",
          "name": "token",
          "type": "address"
        },
        {
          "internalType": "uint256",
          "name": "initialSubscribers",
          "type": "uint256"
        }
      ],
      "name": "startPriceDiscovery",
      "outputs": [],
      "stateMutability": "nonpayable",
      "type": "function"
    },
    {
      "inputs": [
        {
          "internalType": "bytes4",
          "name": "interfaceId",
          "type": "bytes4"
        }
      ],
      "name": "supportsInterface",
      "outputs": [
        {
          "internalType": "bool",
          "name": "",
          "type": "bool"
        }
      ],
      "stateMutability": "view",
      "type": "function"
    },
    {
      "inputs": [],
      "name": "symbol",
      "outputs": [
        {
          "internalType": "string",
          "name": "",
          "type": "string"
        }
      ],
      "stateMutability": "view",
      "type": "function"
    },
    {
      "inputs": [
        {
          "internalType": "address",
          "name": "",
          "type": "address"
        }
      ],
      "name": "tokenEngagement",
      "outputs": [
        {
          "internalType": "uint256",
          "name": "lastSubscriberCount",
          "type": "uint256"
        },
        {
          "internalType": "uint256",
          "name": "smoothedSubscriberCount",
          "type": "uint256"
        },
        {
          "internalType": "uint256",
          "name": "lastUpdateTime",
          "type": "uint256"
        },
        {
          "internalType": "uint256",
          "name": "updateCount",
          "type": "uint256"
        }
      ],
      "stateMutability": "view",
      "type": "function"
    },
    {
      "inputs": [],
      "name": "topPoolIndex",
      "outputs": [
        {
          "internalType": "uint256",
          "name": "",
          "type": "uint256"
        }
      ],
      "stateMutability": "view",
      "type": "function"
    },
    {
      "inputs": [],
      "name": "totalSupply",
      "outputs": [
        {
          "internalType": "uint256",
          "name": "",
          "type": "uint256"
        }
      ],
      "stateMutability": "view",
      "type": "function"
    },
    {
      "inputs": [
        {
          "internalType": "uint256",
          "name": "",
          "type": "uint256"
        }
      ],
      "name": "trackedPools",
      "outputs": [
        {
          "internalType": "address",
          "name": "",
          "type": "address"
        }
      ],
      "stateMutability": "view",
      "type": "function"
    },
    {
      "inputs": [
        {
          "internalType": "address",
          "name": "to",
          "type": "address"
        },
        {
          "internalType": "uint256",
          "name": "value",
          "type": "uint256"
        }
      ],
      "name": "transfer",
      "outputs": [
        {
          "internalType": "bool",
          "name": "",
          "type": "bool"
        }
      ],
      "stateMutability": "nonpayable",
      "type": "function"
    },
    {
      "inputs": [
        {
          "internalType": "uint256",
          "name": "amount",
          "type": "uint256"
        }
      ],
      "name": "transferCoralToDEX",
      "outputs": [],
      "stateMutability": "nonpayable",
      "type": "function"
    },
    {
      "inputs": [
        {
          "internalType": "address",
          "name": "from",
          "type": "address"
        },
        {
          "internalType": "address",
          "name": "to",
          "type": "address"
        },
        {
          "internalType": "uint256",
          "name": "value",
          "type": "uint256"
        }
      ],
      "name": "transferFrom",
      "outputs": [
        {
          "internalType": "bool",
          "name": "",
          "type": "bool"
        }
      ],
      "stateMutability": "nonpayable",
      "type": "function"
    },
    {
      "inputs": [
        {
          "internalType": "address",
          "name": "newOwner",
          "type": "address"
        }
      ],
      "name": "transferOwnership",
      "outputs": [],
      "stateMutability": "nonpayable",
      "type": "function"
    },
    {
      "inputs": [
        {
          "internalType": "address",
          "name": "token",
          "type": "address"
        },
        {
          "internalType": "uint256",
          "name": "newSubscriberCount",
          "type": "uint256"
        }
      ],
      "name": "updateEngagementMetrics",
      "outputs": [],
      "stateMutability": "nonpayable",
      "type": "function"
    },
    {
      "inputs": [
        {
          "internalType": "uint256",
          "name": "newMax",
          "type": "uint256"
        }
      ],
      "name": "updateMaxLiquidityPerPool",
      "outputs": [],
      "stateMutability": "nonpayable",
      "type": "function"
    },
    {
      "inputs": [
        {
          "internalType": "address",
          "name": "pool",
          "type": "address"
        },
        {
          "internalType": "uint256",
          "name": "tradeAmount",
          "type": "uint256"
        }
      ],
      "name": "updatePoolActivity",
      "outputs": [],
      "stateMutability": "nonpayable",
      "type": "function"
    },
    {
      "inputs": [
        {
          "internalType": "address",
          "name": "",
          "type": "address"
        },
        {
          "internalType": "uint256",
          "name": "",
          "type": "uint256"
        }
      ],
      "name": "volumeHistory",
      "outputs": [
        {
          "internalType": "uint256",
          "name": "lastRecordedVolume",
          "type": "uint256"
        },
        {
          "internalType": "uint256",
          "name": "timestamp",
          "type": "uint256"
        }
      ],
      "stateMutability": "view",
      "type": "function"
    },
    {
      "inputs": [
        {
          "internalType": "address",
          "name": "account",
          "type": "address"
        }
      ],
      "name": "whitelistWithdrawAddress",
      "outputs": [],
      "stateMutability": "nonpayable",
      "type": "function"
    },
    {
      "inputs": [
        {
          "internalType": "address",
          "name": "",
          "type": "address"
        }
      ],
      "name": "whitelistedWithdrawAddresses",
      "outputs": [
        {
          "internalType": "bool",
          "name": "",
          "type": "bool"
        }
      ],
      "stateMutability": "view",
      "type": "function"
    },
    {
      "inputs": [
        {
          "internalType": "address",
          "name": "token",
          "type": "address"
        },
        {
          "internalType": "uint256",
          "name": "amount",
          "type": "uint256"
        }
      ],
      "name": "withdrawFees",
      "outputs": [],
      "stateMutability": "nonpayable",
      "type": "function"
    }
  ],
  "bytecode": "0x6080604052346103f8576157036020813803918261001c816103fd565b9384928339810103126103f857516001600160a01b038116908190036103f85761004660406103fd565b90601482527f53617261204c697175696469747920546f6b656e000000000000000000000000602083015261007b60406103fd565b90600382526214d31560ea1b602083015233156103e25760008054336001600160a01b0319821681178355916001600160a01b03909116907f8be0079c531659141344cd1fd0a4f28419497f9722a3daafe3b4186f6b6457e09080a3600160025582516001600160401b0381116102eb57600654600181811c911680156103d8575b60208210146102cb57601f8111610373575b506020601f821160011461030c5781929394600092610301575b50508160011b916000199060031b1c1916176006555b81516001600160401b0381116102eb57600754600181811c911680156102e1575b60208210146102cb57601f8111610266575b50602092601f821160011461020157928192936000926101f6575b50508160011b916000199060031b1c1916176007555b69021e19e0c9bab2400000601855600b80546001600160a01b0319169190911790556101ce33610422565b506078600f55601460105569021e19e0c9bab240000060185560405161523290816104b18239f35b01519050388061018d565b601f198216936007600052806000209160005b86811061024e5750836001959610610235575b505050811b016007556101a3565b015160001960f88460031b161c19169055388080610227565b91926020600181928685015181550194019201610214565b60076000527fa66cc928b5edb82af9bd49922954155ab7b0942694bea4ce44661d9a8736c688601f830160051c810191602084106102c1575b601f0160051c01905b8181106102b55750610172565b600081556001016102a8565b909150819061029f565b634e487b7160e01b600052602260045260246000fd5b90607f1690610160565b634e487b7160e01b600052604160045260246000fd5b015190503880610129565b601f198216906006600052806000209160005b81811061035b57509583600195969710610342575b505050811b0160065561013f565b015160001960f88460031b161c19169055388080610334565b9192602060018192868b01518155019401920161031f565b60066000527ff652222313e28459528d920b65115c16c04f3efc82aaedc97be59f3f377c0d3f601f830160051c810191602084106103ce575b601f0160051c01905b8181106103c2575061010f565b600081556001016103b5565b90915081906103ac565b90607f16906100fd565b631e4fbdf760e01b600052600060045260246000fd5b600080fd5b6040519190601f01601f191682016001600160401b038111838210176102eb57604052565b6001600160a01b03811660009081526000805160206156e3833981519152602052604090205460ff166104aa576001600160a01b031660008181526000805160206156e383398151915260205260408120805460ff191660011790553391907f2f8788117e7eff1d82e926ec794901d17c78024a50270940304540a733656f0d8180a4600190565b5060009056fe608080604052600436101561001357600080fd5b60003560e01c90816301ffc9a7146135f5575080630502e222146134ff578063051e0e67146134a457806306f2c5611461344557806306fdde0314613386578063095ea7b31461330057806314f302ac146132df57806317359688146132c157806318160ddd146132a35780631879dcf3146132805780631b5a799a1461325d5780631ccf71eb146131835780631cead9a71461314957806321b77d6314611a7e5780632253fc3c14612fe457806323b872dd14612ef757806323bfa79214612eb5578063248a9ca314612e885780632570411f14612e5d5780632d957a8c14612e405780632ef9726514612e175780632f2ff15d14612dd757806330ae780514612dba578063313ce56714612d9e57806331ad24f814612d825780633417c3d014612d5557806336568abe14612d0f5780633c231efd14612b565780633e99c1e414612b275780633ec4335014612a8d578063414f99ae14612a6f5780634e358af21461290857806355776b77146125305780635889486e146125145780635c2da7cd146124f85780635ca7adb71461235257806365b85ec41461231d57806368d693c3146121df578063692058c2146121b65780636ac7b41e146120bb5780636d2beef11461209d5780636eb2ebda14612074578063708b99351461203a57806370a0823114612000578063715018a614611fa757806374a92c6614611f685780637835753914611f295780637b66a72314611df657806384f74a6914611dbc5780638c93ca7c14611bfd5780638da5cb5b14611bd457806391d1485414611b8757806395d89b4114611a83578063993d345014611a7e5780639a92c4fe14611a59578063a016974514611a3b578063a033fcd4146119ba578063a1ce920414611983578063a217fddf14611967578063a270512314611860578063a711e6a11461183d578063a9059cbb1461180c578063ad3b1b471461143c578063afabdf1114611297578063b1a23fb414611279578063b1eb48351461121d578063b2098fa214611191578063b7f23d191461050a578063b83d815714611173578063bba2e1401461114a578063bc99f4871461111d578063bd1e31aa146110eb578063c45cffab1461100f578063cb01a4a414610ff3578063cd6f3cf414610f10578063d547741f14610ec9578063d55091f914610e6b578063d6f969e214610e1b578063dd62ed3e14610dca578063e1aeb09214610d63578063e38192e314610b03578063e71e76c11461073a578063e7c75b79146106f9578063e9b6910f14610611578063f2fd23de146105b5578063f2fde38b1461052c578063f525cb681461050f578063f86325ed1461050a5763fb99d5f4146103f257600080fd5b346105055760203660031901126105055761040b613648565b610413614617565b60018060a01b0381169081600052601260205261043760ff60406000205416613b3f565b81600052600e60205260ff60036040600020015416156104c7576060816104986104817f64b83944e79c3ce8d4c297411de637c3e102d064677aac0c163976ebdcd6f50e94613b8b565b809286600052600860205260406000205490614f26565b83600052600e602052600360406000200160ff19815416905560405190600082528060208301526040820152a2005b60405162461bcd60e51b81526020600482015260166024820152754e6f7420696e20707269636520646973636f7665727960501b6044820152606490fd5b600080fd5b613780565b346105055760003660031901126105055760208054604051908152f35b3461050557602036600319011261050557610545613648565b61054d614617565b6001600160a01b0316801561059f57600080546001600160a01b03198116831782556001600160a01b0316907f8be0079c531659141344cd1fd0a4f28419497f9722a3daafe3b4186f6b6457e09080a3005b631e4fbdf760e01b600052600060045260246000fd5b34610505576020366003190112610505576001600160a01b036105d6613648565b16600052600d602052608060406000208054906001810154906003600282015491015491604051938452602084015260408301526060820152f35b346105055760203660031901126105055760043561062d614617565b678ac7230489e8000081106106c45769152d02c7e14af680000081116106865760407fbd98e0bd24b2824759454dcb5d1c32ceb32a60e2a421fbe3bc9620e1f068529691601854908060185582519182526020820152a1005b60405162461bcd60e51b8152602060048201526016602482015275115e18d959591cc818589cdbdb1d5d19481b1a5b5a5d60521b6044820152606490fd5b60405162461bcd60e51b815260206004820152600d60248201526c42656c6f77206d696e696d756d60981b6044820152606490fd5b34610505576020366003190112610505576020600435678ac7230489e80000811015908161072d575b506040519015158152f35b9050601854101582610722565b3461050557604036600319011261050557610753613648565b6024359060018060a01b036014541633148015610add575b8015610ab7575b15610a72576000805160206150fd83398151915260405160208152600e60208201526d1858d8d95cdcd7d85d1d195b5c1d60921b604082015260008051602061513d83398151915260603392a360018060a01b0316908160005260136020526040600020906001820180546002840193845490866000805160206151dd83398151915260a060405160608152601c60608201527f706f6f6c5f61637469766974795f7570646174655f73746172746564000000006080820152886020820152426040820152a2429055620151808101809111610a26574210610a3c57846000526019602052601e604060002054101561094c575b846000526019602052604060002060405190610881826137bf565b82825260208201904282528054600160401b811015610936576108a9916001820181556137a3565b939093610920577f44b9262a170440091d8a6d407f47eaa54f9fb899c70142105a13147a3d3493ed96602096899560016040957f2bb5c25749fb1bf21eeb4372e3b614ca48502bcc17fd57ff79d32cff0873ebfc9751835551910155865542905581519081524286820152a25b54604051908152a2005b634e487b7160e01b600052600060045260246000fd5b634e487b7160e01b600052604160045260246000fd5b8460005260196020526040600020546000198101908111610a265760005b8181106109c25750508460005260196020526040600020805480156109ac57600019019061099882826137a3565b610920576001816000809355015555610866565b634e487b7160e01b600052603160045260246000fd5b866000526019602052604060002060018201808311610a26576109e4916137a3565b50908760005260196020526109fd8160406000206137a3565b61092057826001938203610a14575b50500161096a565b80548255830154908301558880610a0c565b634e487b7160e01b600052601160045260246000fd5b7f44b9262a170440091d8a6d407f47eaa54f9fb899c70142105a13147a3d3493ed9350602092610a6b91613d92565b8155610916565b60405162461bcd60e51b815260206004820152601c60248201527f43616c6c6572206973206e6f7420617574686f72697a656420444558000000006044820152606490fd5b5033600090815260008051602061515d833981519152602052604090205460ff16610772565b503360009081526000805160206151bd833981519152602052604090205460ff1661076b565b3461050557610b1136613713565b9091610b1b614617565b60018060a01b031691826000526008602052610b3c81604060002054613b7e565b836000526009602052678ac7230489e80000610b5d84604060002054613b7e565b9110610d1e57678ac7230489e8000011610cd95760407f96cd817c6329656790ef8fba7675405193677d39619571282f5e21f3a98cd059918493846000805160206151dd83398151915260a0855160608152600660608201526572656d6f766560d01b60808201528560208201524287820152a2600085815260086020908152848220546009825291859020546018548651938452918301526040820152859060008051602061511d83398151915290606090a284600052600860205282600020610c29838254613b7e565b905584600052600960205282600020610c43828254613b7e565b9055846000805160206151dd83398151915284516060815280610c8060608201604090600981526818dbdb5c1b195d195960ba1b60208201520190565b86602083015242888301520390a282519182526020820152a260008181526008602090815260408083205460098352928190205460185482519485529284015282015260008051602061511d83398151915290606090a2005b60405162461bcd60e51b815260206004820152601b60248201527f434f52414c20726573657276652062656c6f77206d696e696d756d00000000006044820152606490fd5b60405162461bcd60e51b815260206004820152601d60248201527f43726561746f7220726573657276652062656c6f77206d696e696d756d0000006044820152606490fd5b34610505576020366003190112610505576001600160a01b03610d84613648565b166000908152600e60209081526040918290208054600182015460028301546003909301548551928352938201529283015260ff161515606082015280608081015b0390f35b3461050557604036600319011261050557610de3613648565b610deb61365e565b6001600160a01b039182166000908152600460209081526040808320949093168252928352819020549051908152f35b346105055760003660031901126105055760155460165460175490916001600160a01b031690610e10810190818111610a2657608093604051938452602084015260408301524210156060820152f35b3461050557604036600319011261050557610e84613648565b6001600160a01b031660009081526019602052604090208054602435919082101561050557604091610eb5916137a3565b506001815491015482519182526020820152f35b3461050557604036600319011261050557610f0e600435610ee861365e565b90610f09610f0482600052600160205260016040600020015490565b6146f2565b614dfa565b005b34610505576020366003190112610505576001600160a01b03610f31613648565b1660005260196020526040600020805490610f4b82614135565b91610f5960405193846137db565b80835260208301809260005260206000206000915b838310610fc65784866040519182916020830190602084525180915260408301919060005b818110610fa1575050500390f35b8251805185526020908101518186015286955060409094019390920191600101610f93565b60026020600192604051610fd9816137bf565b855481528486015483820152815201920192019190610f6e565b34610505576000366003190112610505576020604051601e8152f35b346105055760203660031901126105055760043561102c81614135565b61103960405191826137db565b818152601f1961104883614135565b01366020830137600091601f545b801515806110e2575b156110d4576000908152601e6020526040902080546001600160a01b03166110868161414d565b611095575b5060030154611056565b83949194518210156110be57816110b791602060039460051b87010152614608565b939061108b565b634e487b7160e01b600052603260045260246000fd5b60405180610dc6858261373d565b5081841061105f565b3461050557604036600319011261050557610f0e611107613648565b61110f61365e565b90611118614617565b6142e1565b3461050557602036600319011261050557602061114061113b613648565b6141a5565b6040519015158152f35b3461050557600036600319011261050557600b546040516001600160a01b039091168152602090f35b34610505576000366003190112610505576020600c54604051908152f35b346105055760003660031901126105055760405180602060115491828152019060116000527f31ecc21a745e3968a04e9570e4425bc18fa8019c68028196b546d1669c200c689060005b8181106111fe57610dc6856111f2818703826137db565b6040519182918261373d565b82546001600160a01b03168452602090930192600192830192016111db565b34610505576020366003190112610505576001600160a01b0361123e613648565b166000908152600d60209081526040918290208054600182015460039283015485519283529382015292830182905211156060820152608090f35b34610505576000366003190112610505576020601854604051908152f35b34610505576020366003190112610505576112b0613648565b6112b8614617565b6001600160a01b0381169081156114005781600052601260205260ff604060002054166113c45781600052600e60205260ff6003604060002001541661137f578160005260126020526040600020600160ff1982541617905560115490600160401b8210156109365761133482600161135894016011556136e0565b81546001600160a01b0393841660039290921b91821b9390911b1916919091179055565b7f402f8a396b78c225022a54972367fd98a174c970fbf537400bb383a0690ebd78600080a2005b60405162461bcd60e51b815260206004820152601c60248201527f507269636520646973636f76657279206e6f7420636f6d706c657465000000006044820152606490fd5b60405162461bcd60e51b8152602060048201526014602482015273141bdbdb08185b1c9958591e481d1c9858dad95960621b6044820152606490fd5b60405162461bcd60e51b8152602060048201526014602482015273496e76616c696420706f6f6c206164647265737360601b6044820152606490fd5b3461050557604036600319011261050557611455613648565b60243590611461614617565b60018060a01b031660008160008051602061517d8339815191526080604051604081526008604082015267776974686472617760c01b6060820152866020820152a333600052601a60205260ff60406000205416156117c75781156117825780600052600a602052816040600020541061173d576040516370a0823160e01b8152306004820152602081602481855afa8015611681578291600091611707575b50606060008051602061511d8339815191529160405190815285602082015260006040820152a280600052600a6020526040600020611541838254613b7e565b90556040516370a0823160e01b8152306004820152602081602481855afa908115611681576000916116d2575b5082811061168d57611581833384614e80565b6040516370a0823160e01b8152306004820152602081602481865afa90811561168157849060009261164b575b506115b99192613b7e565b036116065760008051602061517d8339815191526040518061160133958260408082526009908201526818dbdb5c1b195d195960ba1b60608201529190602060808401930152565b0390a3005b60405162461bcd60e51b815260206004820152601860248201527f5472616e7366657220616d6f756e74206d69736d6174636800000000000000006044820152606490fd5b9150506020813d602011611679575b81611667602093836137db565b810103126105055751836115b96115ae565b3d915061165a565b6040513d6000823e3d90fd5b60405162461bcd60e51b815260206004820152601d60248201527f496e73756666696369656e7420636f6e74726163742062616c616e63650000006044820152606490fd5b906020823d6020116116ff575b816116ec602093836137db565b810103126116fc5750518361156e565b80fd5b3d91506116df565b9150506020813d602011611735575b81611723602093836137db565b81010312610505575181906060611501565b3d9150611716565b60405162461bcd60e51b815260206004820152601b60248201527f496e73756666696369656e7420636f6c6c6563746564206665657300000000006044820152606490fd5b60405162461bcd60e51b815260206004820152601d60248201527f416d6f756e74206d7573742062652067726561746572207468616e20300000006044820152606490fd5b60405162461bcd60e51b815260206004820152601d60248201527f4e6f7420617574686f72697a656420666f72207769746864726177616c0000006044820152606490fd5b3461050557604036600319011261050557611832611828613648565b6024359033614640565b602060405160018152f35b3461050557602036600319011261050557602061114061185b613648565b61414d565b3461050557602036600319011261050557611879613648565b611881614617565b6001600160a01b03166118958115156140b5565b80600052601a60205260ff6040600020541661192257807f855511cc3694f64379908437d6d64458dc76d02482052bfb8a5b33a72c054c7791600052601a6020526040600020600160ff1982541617905560008051602061513d833981519152606060405160208152601160208201527077686974656c6973745f6164647265737360781b6040820152a3005b60405162461bcd60e51b815260206004820152601b60248201527f4164647265737320616c72656164792077686974656c697374656400000000006044820152606490fd5b3461050557600036600319011261050557602060405160008152f35b3461050557600036600319011261050557606060018060a01b03601554166016546017549060405192835260208301526040820152f35b346105055760403660031901126105055760006119d5613648565b60008051602061517d8339815191526080602435926119f2614617565b60018060a01b031692838552600a60205260408520611a12828254613d92565b90556040519060408252600760408301526618dbdb1b1958dd60ca1b60608301526020820152a3005b34610505576000366003190112610505576020601f54604051908152f35b3461050557600036600319011261050557602060405169152d02c7e14af68000008152f35b6136bd565b346105055760003660031901126105055760405160006007548060011c90600181168015611b7d575b602083108114611b6957828552908115611b455750600114611ae5575b610dc683611ad9818503826137db565b60405191829182613674565b91905060076000527fa66cc928b5edb82af9bd49922954155ab7b0942694bea4ce44661d9a8736c688916000905b808210611b2b57509091508101602001611ad9611ac9565b919260018160209254838588010152019101909291611b13565b60ff191660208086019190915291151560051b84019091019150611ad99050611ac9565b634e487b7160e01b84526022600452602484fd5b91607f1691611aac565b3461050557604036600319011261050557611ba061365e565b600435600052600160205260406000209060018060a01b0316600052602052602060ff604060002054166040519015158152f35b34610505576000366003190112610505576000546040516001600160a01b039091168152602090f35b3461050557604036600319011261050557611c16613648565b60243590611c22614617565b6001600160a01b03166000818152600e602052604090206003015490919060ff16611d8057602090604051611c5783826137db565b60008152600036813760405160a081019080821067ffffffffffffffff83111761093657600491604052838152848101848152604082014281526060830191600183526080840195865288600052600e8852604060002093518455516001840155516002830155600382019051151560ff801983541691161790550190519081519167ffffffffffffffff831161093657600160401b83116109365784908254848455808510611d55575b5001906000528360002060005b838110611d4357867f9d3136590a24e6eb0d058d4d9b8c4d5be27926b0abfeca301a4d5fc0aaab775d8787604051908152a2005b82518282015591850191600101611d0f565b83600052848360002091820191015b818110611d715750611d02565b60008155879350600101611d64565b60405162461bcd60e51b8152602060048201526014602482015273416c726561647920696e20646973636f7665727960601b6044820152606490fd5b34610505576020366003190112610505576001600160a01b03611ddd613648565b1660005260096020526020604060002054604051908152f35b3461050557602036600319011261050557611e0f613648565b611e17614617565b6001600160a01b038116908115611eee5760a06000805160206151dd833981519152916000805160206150fd833981519152600094611e826014549382600180881b03861695611e69878314156140f3565b6bffffffffffffffffffffffff881b16176014556147c7565b5060008051602061513d83398151915260405180611eba8160609060208152600560208201526419dc985b9d60da1b60408201520190565b0390a36040519060608252600b60608301526a19195e17dd5c19185d195960aa1b60808301526020820152426040820152a2005b60405162461bcd60e51b8152602060048201526013602482015272496e76616c696420444558206164647265737360681b6044820152606490fd5b34610505576020366003190112610505576001600160a01b03611f4a613648565b16600052601a602052602060ff604060002054166040519015158152f35b34610505576020366003190112610505576001600160a01b03611f89613648565b166000526012602052602060ff604060002054166040519015158152f35b3461050557600036600319011261050557611fc0614617565b600080546001600160a01b0319811682556001600160a01b03167f8be0079c531659141344cd1fd0a4f28419497f9722a3daafe3b4186f6b6457e08280a3005b34610505576020366003190112610505576001600160a01b03612021613648565b1660005260036020526020604060002054604051908152f35b34610505576020366003190112610505576001600160a01b0361205b613648565b1660005260086020526020604060002054604051908152f35b3461050557600036600319011261050557602060405160008051602061519d8339815191528152f35b34610505576000366003190112610505576020601054604051908152f35b34610505576020366003190112610505576120d4613648565b6120dc614617565b6001600160a01b0381166120f18115156140b5565b601454612109906001600160a01b03168214156140f3565b600081815260008051602061515d833981519152602052604090205460ff1661217c5761214460008051602061519d8339815191529261472f565b5060008051602061513d833981519152604051806116018160609060208152600560208201526419dc985b9d60da1b60408201520190565b60405162461bcd60e51b8152602060048201526012602482015271082d8e4cac2c8f240c4c2c6d6eae040888ab60731b6044820152606490fd5b34610505576000366003190112610505576014546040516001600160a01b039091168152602090f35b34610505576020366003190112610505576121f8613648565b612200614617565b6001600160a01b0381166122158115156140b5565b6014546001600160a01b031681146122d85760008181526000805160206151bd83398151915260205260409020546000805160206150fd833981519152929060ff166122c9575b600082815260008051602061515d833981519152602052604090205460ff166122b9575b5060008051602061513d83398151915260405180611601816060906020815260066020820152657265766f6b6560d01b60408201520190565b6122c290614d64565b5082612280565b6122d281614cce565b5061225c565b60405162461bcd60e51b815260206004820152601e60248201527f43616e6e6f74207265766f6b652066726f6d207072696d6172792044455800006044820152606490fd5b34610505576020366003190112610505576020612338613648565b600b546040516001600160a01b0392831691909216148152f35b346105055760403660031901126105055761236b613648565b602435612376614ec2565b60018060a01b0382169182600052601260205261239a60ff60406000205416613b3f565b82600052600e60205260ff600360406000200154166124b357678ac7230489e800008210612477576123cb8161407f565b92908315612432577f64b83944e79c3ce8d4c297411de637c3e102d064677aac0c163976ebdcd6f50e93606093612411846124179461240c8230338d614ee2565b613d92565b90614f26565b60405190808252600060208301526040820152a26001600255005b60405162461bcd60e51b815260206004820152601960248201527f4e6f20434f52414c206c697175696469747920657869737473000000000000006044820152606490fd5b60405162461bcd60e51b8152602060048201526014602482015273416d6f756e742062656c6f77206d696e696d756d60601b6044820152606490fd5b60405162461bcd60e51b815260206004820152601860248201527f546f6b656e20696e20707269636520646973636f7665727900000000000000006044820152606490fd5b3461050557600036600319011261050557602060405160788152f35b3461050557600036600319011261050557602060405160038152f35b346105055761253e36613713565b9190612548614ec2565b6001600160a01b03821690838161256084151561403b565b1515806128ff575b156128ba57678ac7230489e8000081106128695782600052601260205261259660ff60406000205416613b3f565b61259f8461407f565b949091601854906125b08783613b7e565b9081811161280f575b50508087116127be576125cc8787613d92565b1161276d576125dd83303387614ee2565b6125f386303360018060a01b03600b5416614ee2565b811580612765575b156127325761261261260d87856137fd565b614fda565b945b85156126ed576126318761262b8661263796613d92565b92613d92565b91614f26565b33156126d7576020937f64b83944e79c3ce8d4c297411de637c3e102d064677aac0c163976ebdcd6f50e9161266e85600554613d92565b6005553360005260038652604060002085815401905560405185815260007fddf252ad1be2c89b69c2b068fc378daa952ba7f163c4a11628f55a4df523b3ef883393a3604080519182526020820192909252908101849052606090a26001600255604051908152f35b63ec442f0560e01b600052600060045260246000fd5b60405162461bcd60e51b815260206004820152601d60248201527f496e73756666696369656e74206c6971756964697479206d696e7465640000006044820152606490fd5b6005546127568661274a61274f8661274a868a6137fd565b613810565b938a6137fd565b90818082109118021894612614565b5084156125fb565b60405162461bcd60e51b8152602060048201526024808201527f546f74616c206c697175696469747920776f756c6420657863656564206d6178604482015263696d756d60e01b6064820152608490fd5b60405162461bcd60e51b8152602060048201526024808201527f434f52414c20616d6f756e742061626f7665206d6178696d756d206c697175696044820152636469747960e01b6064820152608490fd5b6000805160206151dd8339815191529198508692955060a090604051906060825260146060830152731b1a5c5d5a591a5d1e57d8591a9d5cdd1b595b9d60621b60808301526020820152896040820152a2859287806125b9565b60405162461bcd60e51b8152602060048201526024808201527f434f52414c20616d6f756e742062656c6f77206d696e696d756d206c697175696044820152636469747960e01b6064820152608490fd5b60405162461bcd60e51b815260206004820152601860248201527f5a65726f20616d6f756e7473206e6f7420616c6c6f77656400000000000000006044820152606490fd5b50801515612568565b3461050557604036600319011261050557612921613648565b6024359061292d614617565b6001600160a01b0381166000818152600e6020526040902060038101549193909160ff1615612a3757600482019081549260068410156129fa57600160401b84101561093657604082879360017f469b6894b4b45f49c7c10aa3e70e1fae20f0eba89b628e3d69af9d7a34ef8bcf946129ad898360069b018a55896136fb565b81549060031b9085821b91600019901b191617905501558151908152426020820152a254146129d857005b6129e0614617565b81600052601260205261043760ff60406000205416613b3f565b60405162461bcd60e51b815260206004820152601560248201527413585e081cdb985c1cda1bdd1cc81c995858da1959605a1b6044820152606490fd5b60405162461bcd60e51b815260206004820152601060248201526f4e6f7420696e20646973636f7665727960801b6044820152606490fd5b3461050557600036600319011261050557602060405162093a808152f35b3461050557602036600319011261050557612aa6613648565b600c5460788101809111610a26574210612ae2576001600160a01b0381166000908152600d6020526040902054612adc91614928565b42600c55005b60405162461bcd60e51b815260206004820152601760248201527f546f6f206561726c7920666f7220726562616c616e63650000000000000000006044820152606490fd5b34610505576020366003190112610505576040612b4a612b45613648565b61407f565b82519182526020820152f35b3461050557602036600319011261050557600435612b72614617565b8015612ccb576014546001600160a01b03168015612c8d57600b546040516370a0823160e01b81523060048201526001600160a01b0390911690602081602481855afa8015611681578491600091612c58575b5010612c1357612bd6918391614e80565b7f5743c23aa18e9c7c385e45094156d20b8a0436ddc5e68943713e62ce630951a1604060018060a01b0360145416928151908152426020820152a2005b60405162461bcd60e51b815260206004820152601a60248201527f496e73756666696369656e7420434f52414c2062616c616e63650000000000006044820152606490fd5b9150506020813d602011612c85575b81612c74602093836137db565b810103126105055783905185612bc5565b3d9150612c67565b60405162461bcd60e51b8152602060048201526016602482015275111156081859191c995cdcc81a5cc81b9bdd081cd95d60521b6044820152606490fd5b606460405162461bcd60e51b815260206004820152602060248201527f416d6f756e74206d7573742062652067726561746572207468616e207a65726f6044820152fd5b3461050557604036600319011261050557612d2861365e565b336001600160a01b03821603612d4457610f0e90600435614dfa565b63334bd91960e11b60005260046000fd5b3461050557604036600319011261050557610f0e612d71613648565b612d79614617565b60243590613d9f565b3461050557600036600319011261050557602060405160068152f35b3461050557600036600319011261050557602060405160128152f35b346105055760003660031901126105055760206040516103e88152f35b3461050557604036600319011261050557610f0e600435612df661365e565b90612e12610f0482600052600160205260016040600020015490565b61485f565b346105055760003660031901126105055760206040516000805160206150fd8339815191528152f35b34610505576000366003190112610505576020604051610e108152f35b34610505576020366003190112610505576020612e80612e7b613648565b613b8b565b604051908152f35b34610505576020366003190112610505576020612e80600435600052600160205260016040600020015490565b346105055760203660031901126105055760043560115481101561050557612ede6020916136e0565b905460405160039290921b1c6001600160a01b03168152f35b3461050557606036600319011261050557612f10613648565b612f1861365e565b6001600160a01b0382166000818152600460209081526040808320338452909152902054909260443592916000198110612f58575b506118329350614640565b838110612fc7578415612fb1573315612f9b57611832946000526004602052604060002060018060a01b0333166000526020528360406000209103905584612f4d565b634a1406b160e11b600052600060045260246000fd5b63e602df0560e01b600052600060045260246000fd5b8390637dc7a0d960e11b6000523360045260245260445260646000fd5b3461050557602036600319011261050557612ffd613648565b613005614617565b6001600160a01b03166000818152601260205260409020546130299060ff16613b3f565b60005b60115490818110156131425782613042826136e0565b905460039190911b1c6001600160a01b03161461306357600191500161302c565b6000198201918211610a2657818103613114575b505060115480156109ac576000190161308f816136e0565b81549060018060a01b039060031b1b191690556011555b806000526012602052604060002060ff1981541690557fed5941377c8af2e968d347b354e48e58e2d6578fefd738820a5ccfca78f9b48360a060405160608152600e60608201526d1c1bdbdb17dd5b9d1c9858dad95960921b608082015260006020820152426040820152a2005b61133461312361313b936136e0565b905460039190911b1c6001600160a01b0316916136e0565b8180613077565b50506130a6565b34610505576020366003190112610505576001600160a01b0361316a613648565b16600052600a6020526020604060002054604051908152f35b346105055760203660031901126105055761319c613648565b60408051630fa6707960e21b81526001600160a01b03909216600483015281602481305afa801561168157600090819061321f575b60209250678ac7230489e800008210159182613212575b50816131ff575b8161072d57506040519015158152f35b678ac7230489e8000081101591506131ef565b60185410159150836131e8565b50906040813d604011613255575b8161323a604093836137db565b8101031261325157602080925081519101516131d1565b5080fd5b3d915061322d565b34610505576000366003190112610505576020604051674563918244f400008152f35b3461050557600036600319011261050557602060405167016345785d8a00008152f35b34610505576000366003190112610505576020600554604051908152f35b34610505576000366003190112610505576020600f54604051908152f35b34610505576040366003190112610505576020612e80602435600435613830565b3461050557604036600319011261050557613319613648565b602435903315612fb1576001600160a01b0316908115612f9b57336000526004602052604060002082600052602052806040600020556040519081527f8c5be1e5ebec7d5bd14f71427d1e84f3dd0314c0f7b2291e5b200ac8c7c3b92560203392a3602060405160018152f35b346105055760003660031901126105055760405160006006548060011c9060018116801561343b575b602083108114611b6957828552908115611b4557506001146133db57610dc683611ad9818503826137db565b91905060066000527ff652222313e28459528d920b65115c16c04f3efc82aaedc97be59f3f377c0d3f916000905b80821061342157509091508101602001611ad9611ac9565b919260018160209254838588010152019101909291613409565b91607f16916133af565b3461050557602036600319011261050557600435600052601e60205260a06040600020600180831b0381541690600181015490600281015460046003830154920154926040519485526020850152604084015260608301526080820152f35b34610505576020366003190112610505576001600160a01b036134c5613648565b16600052601360205260406000208054610dc660026001840154930154604051938493846040919493926060820195825260208201520152565b3461050557602036600319011261050557613518613648565b613520614617565b6001600160a01b03166000818152601a602052604090205460ff16156135b057807f855511cc3694f64379908437d6d64458dc76d02482052bfb8a5b33a72c054c7791600052601a602052604060002060ff19815416905560008051602061513d83398151915260405180611601816060906020815260066020820152657265766f6b6560d01b60408201520190565b60405162461bcd60e51b815260206004820152601760248201527f41646472657373206e6f742077686974656c69737465640000000000000000006044820152606490fd5b34610505576020366003190112610505576004359063ffffffff60e01b821680920361050557602091637965db0b60e01b8114908115613637575b5015158152f35b6301ffc9a760e01b14905083613630565b600435906001600160a01b038216820361050557565b602435906001600160a01b038216820361050557565b91909160208152825180602083015260005b8181106136a7575060409293506000838284010152601f8019910116010190565b8060208092870101516040828601015201613686565b34610505576000366003190112610505576020604051678ac7230489e800008152f35b6011548110156110be57601160005260206000200190600090565b80548210156110be5760005260206000200190600090565b6060906003190112610505576004356001600160a01b038116810361050557906024359060443590565b602060408183019282815284518094520192019060005b8181106137615750505090565b82516001600160a01b0316845260209384019390920191600101613754565b34610505576000366003190112610505576020604051670de0b6b3a76400008152f35b80548210156110be5760005260206000209060011b0190600090565b6040810190811067ffffffffffffffff82111761093657604052565b90601f8019910116810190811067ffffffffffffffff82111761093657604052565b81810292918115918404141715610a2657565b811561381a570490565b634e487b7160e01b600052601260045260246000fd5b60006000805160206151dd83398151915260c060405160608152602560608201527f696e697469616c5f6c69717569646974795f63616c63756c6174696f6e5f7374608082015264185c9d195960da1b60a0820152846020820152856040820152a28015613afa578115613abe5767016345785d8a00008210613a83576729a2241af62c00008211613a485781600019048111613a0357816138d1916137fd565b9060185460006000805160206151dd83398151915260a06040516060815260116060820152707072655f6361705f6c697175696469747960781b6080820152866020820152846040820152a28083116139d15750678ac7230489e80000821061398c576000805160206151dd83398151915260a06000926040519060608252601a60608301527f66696e616c5f6c69717569646974795f63616c63756c6174656400000000000060808301528560208301526040820152a290565b60405162461bcd60e51b815260206004820152601760248201527f4c69717569646974792062656c6f77206d696e696d756d0000000000000000006044820152606490fd5b91505060007f52815f7ef39cfe1f42d5c23d10919cc9fbebd17d9edbc1132eee0079a50dc9456020604051848152a290565b60405162461bcd60e51b815260206004820152601760248201527f4d756c7469706c69636174696f6e206f766572666c6f770000000000000000006044820152606490fd5b60405162461bcd60e51b815260206004820152601360248201527250726963652061626f7665206d6178696d756d60681b6044820152606490fd5b60405162461bcd60e51b815260206004820152601360248201527250726963652062656c6f77206d696e696d756d60681b6044820152606490fd5b60405162461bcd60e51b815260206004820152601460248201527350726963652063616e6e6f74206265207a65726f60601b6044820152606490fd5b60405162461bcd60e51b815260206004820152601860248201527f496e76616c6964207375627363726962657220636f756e7400000000000000006044820152606490fd5b15613b4657565b60405162461bcd60e51b815260206004820152601060248201526f141bdbdb081b9bdd081d1c9858dad95960821b6044820152606490fd5b91908203918211610a2657565b6001600160a01b03166000818152600e60205260408120600481018054919291829190825b818110613ca057505081159050613c9757613bca91613810565b80670de0b6b3a76400000290670de0b6b3a7640000820403610a26576127109004670de0b6b3a76400000180670de0b6b3a764000011610a2657613c3792816729a2241af62c00008111613c4c575b505067016345785d8a0000811115613c3a57600190915b0154613830565b90565b50600167016345785d8a000091613c30565b7ffbb0338b3040d7b9bd8495de3d07128625b3ead1c3464340ed2e760a015d744791925060409081519081526729a2241af62c00006020820152a26729a2241af62c00003880613c19565b50506000613bca565b80613cae575b600101613bb0565b613cb881846136fb565b905460001983019160031b1c828211610a2657613cd582866136fb565b90549060031b1c10613ce8575b50613ca6565b613cf68285979396976136fb565b90549060031b1c90613d1b600092613d0e83886136fb565b90549060031b1c90613b7e565b916127108302928084046127101490151715613d7e5792613d57613d7193613d4a613d6b9460019750896136fb565b90549060031b1c90613810565b612710811115613d78575061271090613d92565b95614608565b9390613ce2565b90613d92565b634e487b7160e01b81526011600452602490fd5b91908201809211610a2657565b9060018060a01b0382169081600052600d602052604060002091600183018054936003810190815490846000805160206151dd83398151915260a060405160608152601960608201527f656e676167656d656e745f7570646174655f73746172746564000000000000006080820152896020820152426040820152a28115613fcb576050870287810460501488151715610a2657601487029087820460141488151715610a2657606480613e5593049104613d92565b9680881115613f9d57613e688189613b7e565b606481029080820460641490151715610a26578891613e8691613810565b945b8783555560024291015560018101808211610a265760039255837fca21c0666034043e35144e1a6964b4519a124330e0122463475f81a0c189d11960405180613ee4428b8b846040919493926060820195825260208201520152565b0390a21015613ef5575b5050505050565b600a11613f365750606e8202828104606e1483151715610a26576064900410613f26575b50505b3880808080613eee565b613f2f91614928565b3880613f19565b92505060807f43c29e41362bceae5b8f10cf00d57c5b525a270a7ff263f5c6b24158459b0bbe9160405190815260406020820152601e60408201527f4368616e67652062656c6f77206d696e696d756d207468726573686f6c6400006060820152a2613f1c565b613fa78882613b7e565b606481029080820460641490151715610a26578891613fc591613810565b94613e88565b85809598507fed5941377c8af2e968d347b354e48e58e2d6578fefd738820a5ccfca78f9b483975060a09692506001949155555560405190606082526016606083015275195b99d859d95b595b9d17da5b9a5d1a585b1a5e995960521b60808301526020820152426040820152a2565b1561404257565b60405162461bcd60e51b815260206004820152601560248201527424b73b30b634b21031b932b0ba37b9103a37b5b2b760591b6044820152606490fd5b6001600160a01b03169061409482151561403b565b81600052600860205260406000205491600052600960205260406000205490565b156140bc57565b60405162461bcd60e51b815260206004820152600f60248201526e496e76616c6964206164647265737360881b6044820152606490fd5b156140fa57565b60405162461bcd60e51b8152602060048201526013602482015272082d8e4cac2c8f240e0e4d2dac2e4f240888ab606b1b6044820152606490fd5b67ffffffffffffffff81116109365760051b60200190565b6001600160a01b031660009081526013602052604090208054801590811561418e575b50614188576001678ac7230489e80000910154101590565b50600090565b905062093a808101809111610a2657421138614170565b6014546001600160a01b0316330361429c5760018060a01b038116908160005260126020526141db60ff60406000205416613b3f565b81600052600a6020526040600020548015614294576141f98261407f565b919061420783601854613b7e565b80831161428c575b508161421f575050505050600090565b6000805160206151dd8339815191529360a0936126318461262b8161424396613d92565b83600052600a602052600060408120556040519060608252601060608301526f19995957dc9959195c1b1bde5b595b9d60821b60808301528060208301526040820152a2600190565b91503861420f565b505050600190565b60405162461bcd60e51b815260206004820152601a60248201527f4f6e6c79204445582063616e2072656465706c6f7920666565730000000000006044820152606490fd5b60018060a01b031660018060a01b03821691828260008051602061517d833981519152608060405160408152600860408201526772656465706c6f7960c01b606082015260006020820152a381600052600a6020526040600020549081156145ae57674563918244f40000821061454a576040516370a0823160e01b8152306004820152602081602481875afa8015611681578391600091614515575b508460008051602061511d833981519152606060405184815285602082015260006040820152a2106144a6576000838152600a6020526040812055600b5460008051602061517d8339815191529261446692909182906001600160a01b0316860361446b57614408918760005260096020526040600020614400838254613d92565b905586614e80565b84847fa2e59056a8017237dd27a52d5981fb4983f1a43828d018d9ba6e76c801fe90596020604051858152a35b6040519182918260408082526009908201526818dbdb5c1b195d195960ba1b60608201529190602060808401930152565b0390a3565b6144759186614e80565b84847fa2e59056a8017237dd27a52d5981fb4983f1a43828d018d9ba6e76c801fe90596020604051858152a3614435565b507f4a74ccb009fe8e58c74acbb8e4eba7f17f113cc4a42830e287cb344e283b38729150604051908152604060208201528061451060408201604090601d81527f496e73756666696369656e7420636f6e74726163742062616c616e636500000060208201520190565b0390a2565b91506020823d602011614542575b81614530602093836137db565b810103126116fc57508290513861437e565b3d9150614523565b507f4a74ccb009fe8e58c74acbb8e4eba7f17f113cc4a42830e287cb344e283b3872915060809060405190815260406020820152601b60408201527f42656c6f77206d696e696d756d20666565207468726573686f6c6400000000006060820152a2565b507f4a74ccb009fe8e58c74acbb8e4eba7f17f113cc4a42830e287cb344e283b387291506080906040519081526040602082015260136040820152724e6f206665657320746f2072656465706c6f7960681b6060820152a2565b6000198114610a265760010190565b6000546001600160a01b0316330361462b57565b63118cdaa760e01b6000523360045260246000fd5b6001600160a01b03169081156146dc576001600160a01b03169182156126d7576000828152600360205260408120548281106146c25791604082827fddf252ad1be2c89b69c2b068fc378daa952ba7f163c4a11628f55a4df523b3ef9587602096526003865203828220558681526003845220818154019055604051908152a3565b916064928463391434e360e21b8452600452602452604452fd5b634b637e8f60e11b600052600060045260246000fd5b600081815260016020908152604080832033845290915290205460ff16156147175750565b63e2517d3f60e01b6000523360045260245260446000fd5b6001600160a01b038116600090815260008051602061515d833981519152602052604090205460ff16614188576001600160a01b0316600081815260008051602061515d83398151915260205260408120805460ff1916600117905533919060008051602061519d833981519152907f2f8788117e7eff1d82e926ec794901d17c78024a50270940304540a733656f0d9080a4600190565b6001600160a01b03811660009081526000805160206151bd833981519152602052604090205460ff16614188576001600160a01b031660008181526000805160206151bd83398151915260205260408120805460ff191660011790553391906000805160206150fd833981519152907f2f8788117e7eff1d82e926ec794901d17c78024a50270940304540a733656f0d9080a4600190565b60008181526001602090815260408083206001600160a01b038616845290915290205460ff166148e75760008181526001602081815260408084206001600160a01b0396909616808552959091528220805460ff19169091179055339291907f2f8788117e7eff1d82e926ec794901d17c78024a50270940304540a733656f0d9080a4600190565b5050600090565b909160a09282526020820152606060408201526013606082015272149958985b185b98d94818dbdb5c1b195d1959606a1b60808201520190565b6001600160a01b03166000818152600960205260409081902054905191929183917fd5fbf25fb569fbaa4f45320be0052de918d607298a2a5158579a543c3682c116919081906149799080836148ee565b0390a2816000526009602052678ac7230489e8000060406000205410614c65577812725dd1d243aba0e75fe645cc4873f9e65afe688c928e1f218111614c1157670de0b6b3a7640000810290808204670de0b6b3a76400001490151715610a265780829190827f078500306b159d266ecdcd5d7767d0b781932a0896e6de6539ee693a704583b56060604051678ac7230489e80000815267d02ab486cedc00006020820152846040820152a267d02ab486cedc00008110614b72575b507fd5fbf25fb569fbaa4f45320be0052de918d607298a2a5158579a543c3682c1169150601854808211614b3e575b50826000526009602052826000805160206151dd83398151915260a06040600020546040519060608252601060608301526f7072655f7570646174655f737461746560801b60808301526020820152846040820152a260008381526009602081815260408084208054908690556008835293819020549282526018548151938452918301859052820152849060008051602061511d83398151915290606090a2837f8eb665708d1cbfa2df196d5f041bc00ac33e9c6e0b42b64233aed0c7c84da7e16020604051858152a2614510604051928392836148ee565b9050827f52815f7ef39cfe1f42d5c23d10919cc9fbebd17d9edbc1132eee0079a50dc945602083604051908152a238614a64565b7ff8f759ef15ae76bcaed46ee5ff4930cd73c55ebe7feae9f2f95e93e15765c8cf915060a09060405190815267d02ab486cedc0000602082015260606040820152601760608201527f456e666f7263696e6720736166657479206275666665720000000000000000006080820152a28067d02ab486cedc00007fd5fbf25fb569fbaa4f45320be0052de918d607298a2a5158579a543c3682c116614a35565b60405162461bcd60e51b815260206004820152602660248201527f4f766572666c6f77207269736b20696e206c69717569646974792063616c63756044820152653630ba34b7b760d11b6064820152608490fd5b508060005260096020527f43c29e41362bceae5b8f10cf00d57c5b525a270a7ff263f5c6b24158459b0bbe6080604060002054604051908152604060208201526016604082015275496e73756666696369656e74206c697175696469747960501b6060820152a2565b6001600160a01b03811660009081526000805160206151bd833981519152602052604090205460ff1615614188576001600160a01b031660008181526000805160206151bd83398151915260205260408120805460ff191690553391906000805160206150fd833981519152907ff6391f5c32d9c69d2a47ea670b442974b53935d1edc7fd64eb21e047a839171b9080a4600190565b6001600160a01b038116600090815260008051602061515d833981519152602052604090205460ff1615614188576001600160a01b0316600081815260008051602061515d83398151915260205260408120805460ff1916905533919060008051602061519d833981519152907ff6391f5c32d9c69d2a47ea670b442974b53935d1edc7fd64eb21e047a839171b9080a4600190565b60008181526001602090815260408083206001600160a01b038616845290915290205460ff16156148e75760008181526001602090815260408083206001600160a01b0395909516808452949091528120805460ff19169055339291907ff6391f5c32d9c69d2a47ea670b442974b53935d1edc7fd64eb21e047a839171b9080a4600190565b60405163a9059cbb60e01b60208201526001600160a01b039092166024830152604480830193909352918152614ec091614ebb6064836137db565b614f7f565b565b6002805414614ed15760028055565b633ee5aeb560e01b60005260046000fd5b6040516323b872dd60e01b60208201526001600160a01b039283166024820152929091166044830152606480830193909352918152614ec091614ebb6084836137db565b7fa2c850dc6f3f3d2193ff68281de055559c5468fc0c89311bca2d25f8e50a38f59160409160018060a01b03169384600052600860205281836000205584600052600960205280836000205582519182526020820152a2565b906000602091828151910182855af115611681576000513d614fd157506001600160a01b0381163b155b614fb05750565b635274afe760e01b60009081526001600160a01b0391909116600452602490fd5b60011415614fa9565b6001811115613c3757806001600160801b8210156150eb575b600482600160401b61509d9410156150de575b6401000000008110156150d1575b620100008110156150c4575b6101008110156150b8575b60108110156150ac575b10156150a4575b60030260011c61504c8184613810565b0160011c61505a8184613810565b0160011c6150688184613810565b0160011c6150768184613810565b0160011c6150848184613810565b0160011c6150928184613810565b0160011c8092613810565b8111900390565b60011b61503c565b811c9160021b91615035565b60081c91811b9161502b565b60101c9160081b91615020565b60201c9160101b91615014565b60401c9160201b91615006565b5050608081901c600160401b614ff356fe3d962df346299889e3ddd098bdd68cf335a1e370339bd306448317d39b39a66d72e170fd318563be2751ca3be93e9f1921d5a6051a295cea9759a57953d8e87ac10526fb968814275769551eecacdd8dc6f8fa4321845f7519c819b95b04b62082fb30387f7034eec77298003ed11a78bfd357ce4188786ace62a78239de1d842af63b40e5ba31ae18b3acf18a8644c9c93fe8fee862ab8ed4220c45d9656a34bf68135d840b7d2e69e8dce11f7f9e158069f12649d1dda9ba2a0ae4f561defb7ada6dbb520616cff5d6f574aff5a85f6d0dabe1f7d96c08fe8e54d79bfca6e005a1edf8904f27f92726c49fc4a4f3240c05ce893bb6cff6306f76d38a7fe7b9a26469706673582212208662ee55fcc87c9bfbf92fbd88552b141fa09ea82872dda20f1cd517062b4b7f64736f6c634300081c0033a6eef7e35abe7026729641147f7915573c7e97b47efa546f5f6e3230263bcb49",
  "linkReferences": {},
  "deployedLinkReferences": {}
}