{
  "_format": "hh-sol-artifact-1",
  "contractName": "SaraTokenRouter",
  "sourceName": "contracts/SaraTokenRouter.sol",
  "abi": [
    {
      "inputs": [
        {
          "internalType": "address",
          "name": "_coralToken",
          "type": "address"
        },
        {
          "internalType": "address",
          "name": "_liquidityManager",
          "type": "address"
        },
        {
          "internalType": "address",
          "name": "_dex",
          "type": "address"
        },
        {
          "internalType": "address",
          "name": "_creatorTokenFactory",
          "type": "address"
        }
      ],
      "stateMutability": "nonpayable",
      "type": "constructor"
    },
    {
      "inputs": [
        {
          "internalType": "address",
          "name": "owner",
          "type": "address"
        }
      ],
      "name": "OwnableInvalidOwner",
      "type": "error"
    },
    {
      "inputs": [
        {
          "internalType": "address",
          "name": "account",
          "type": "address"
        }
      ],
      "name": "OwnableUnauthorizedAccount",
      "type": "error"
    },
    {
      "inputs": [],
      "name": "ReentrancyGuardReentrantCall",
      "type": "error"
    },
    {
      "inputs": [
        {
          "internalType": "address",
          "name": "token",
          "type": "address"
        }
      ],
      "name": "SafeERC20FailedOperation",
      "type": "error"
    },
    {
      "anonymous": false,
      "inputs": [
        {
          "indexed": true,
          "internalType": "address",
          "name": "token",
          "type": "address"
        },
        {
          "indexed": false,
          "internalType": "uint256",
          "name": "amount",
          "type": "uint256"
        },
        {
          "indexed": false,
          "internalType": "uint256",
          "name": "timestamp",
          "type": "uint256"
        }
      ],
      "name": "ApprovalGranted",
      "type": "event"
    },
    {
      "anonymous": false,
      "inputs": [
        {
          "indexed": true,
          "internalType": "address",
          "name": "token",
          "type": "address"
        },
        {
          "indexed": false,
          "internalType": "uint256",
          "name": "timestamp",
          "type": "uint256"
        }
      ],
      "name": "ApprovalRevoked",
      "type": "event"
    },
    {
      "anonymous": false,
      "inputs": [
        {
          "indexed": true,
          "internalType": "address",
          "name": "token",
          "type": "address"
        },
        {
          "indexed": false,
          "internalType": "uint256",
          "name": "amountIn",
          "type": "uint256"
        },
        {
          "indexed": false,
          "internalType": "uint256",
          "name": "amountOut",
          "type": "uint256"
        }
      ],
      "name": "CoralSwappedForToken",
      "type": "event"
    },
    {
      "anonymous": false,
      "inputs": [
        {
          "indexed": true,
          "internalType": "address",
          "name": "token",
          "type": "address"
        },
        {
          "indexed": true,
          "internalType": "address",
          "name": "to",
          "type": "address"
        },
        {
          "indexed": false,
          "internalType": "uint256",
          "name": "amount",
          "type": "uint256"
        },
        {
          "indexed": false,
          "internalType": "uint256",
          "name": "timestamp",
          "type": "uint256"
        },
        {
          "indexed": false,
          "internalType": "enum SaraTokenRouter.WithdrawReason",
          "name": "reason",
          "type": "uint8"
        }
      ],
      "name": "EmergencyWithdraw",
      "type": "event"
    },
    {
      "anonymous": false,
      "inputs": [
        {
          "indexed": true,
          "internalType": "address",
          "name": "previousOwner",
          "type": "address"
        },
        {
          "indexed": true,
          "internalType": "address",
          "name": "newOwner",
          "type": "address"
        }
      ],
      "name": "OwnershipTransferred",
      "type": "event"
    },
    {
      "anonymous": false,
      "inputs": [
        {
          "indexed": true,
          "internalType": "bool",
          "name": "isPaused",
          "type": "bool"
        },
        {
          "indexed": false,
          "internalType": "uint256",
          "name": "timestamp",
          "type": "uint256"
        },
        {
          "indexed": true,
          "internalType": "address",
          "name": "actor",
          "type": "address"
        }
      ],
      "name": "PauseStateChanged",
      "type": "event"
    },
    {
      "anonymous": false,
      "inputs": [
        {
          "indexed": true,
          "internalType": "address",
          "name": "token",
          "type": "address"
        },
        {
          "indexed": false,
          "internalType": "uint256",
          "name": "timestamp",
          "type": "uint256"
        }
      ],
      "name": "PriceDiscoveryCompleted",
      "type": "event"
    },
    {
      "anonymous": false,
      "inputs": [
        {
          "indexed": true,
          "internalType": "address",
          "name": "token",
          "type": "address"
        },
        {
          "indexed": false,
          "internalType": "uint256",
          "name": "timestamp",
          "type": "uint256"
        }
      ],
      "name": "PriceDiscoveryFailed",
      "type": "event"
    },
    {
      "anonymous": false,
      "inputs": [
        {
          "indexed": true,
          "internalType": "address",
          "name": "token",
          "type": "address"
        },
        {
          "indexed": false,
          "internalType": "uint256",
          "name": "initialLiquidity",
          "type": "uint256"
        }
      ],
      "name": "TokenAutoListed",
      "type": "event"
    },
    {
      "anonymous": false,
      "inputs": [
        {
          "indexed": true,
          "internalType": "address",
          "name": "creatorToken",
          "type": "address"
        }
      ],
      "name": "TokenListed",
      "type": "event"
    },
    {
      "anonymous": false,
      "inputs": [
        {
          "indexed": true,
          "internalType": "address",
          "name": "token",
          "type": "address"
        },
        {
          "indexed": false,
          "internalType": "uint256",
          "name": "amountIn",
          "type": "uint256"
        },
        {
          "indexed": false,
          "internalType": "uint256",
          "name": "amountOut",
          "type": "uint256"
        }
      ],
      "name": "TokenSwappedForCoral",
      "type": "event"
    },
    {
      "inputs": [],
      "name": "APPROVAL_TIMEOUT",
      "outputs": [
        {
          "internalType": "uint256",
          "name": "",
          "type": "uint256"
        }
      ],
      "stateMutability": "view",
      "type": "function"
    },
    {
      "inputs": [],
      "name": "MAX_INITIAL_CORAL",
      "outputs": [
        {
          "internalType": "uint256",
          "name": "",
          "type": "uint256"
        }
      ],
      "stateMutability": "view",
      "type": "function"
    },
    {
      "inputs": [],
      "name": "MIN_INITIAL_CORAL",
      "outputs": [
        {
          "internalType": "uint256",
          "name": "",
          "type": "uint256"
        }
      ],
      "stateMutability": "view",
      "type": "function"
    },
    {
      "inputs": [
        {
          "internalType": "uint256",
          "name": "subscriberCount",
          "type": "uint256"
        }
      ],
      "name": "calculateInitialLiquidity",
      "outputs": [
        {
          "internalType": "uint256",
          "name": "",
          "type": "uint256"
        }
      ],
      "stateMutability": "pure",
      "type": "function"
    },
    {
      "inputs": [
        {
          "internalType": "address",
          "name": "token",
          "type": "address"
        }
      ],
      "name": "completePriceDiscovery",
      "outputs": [],
      "stateMutability": "nonpayable",
      "type": "function"
    },
    {
      "inputs": [],
      "name": "coralToken",
      "outputs": [
        {
          "internalType": "address",
          "name": "",
          "type": "address"
        }
      ],
      "stateMutability": "view",
      "type": "function"
    },
    {
      "inputs": [],
      "name": "creatorTokenFactory",
      "outputs": [
        {
          "internalType": "contract ICreatorCoin",
          "name": "",
          "type": "address"
        }
      ],
      "stateMutability": "view",
      "type": "function"
    },
    {
      "inputs": [],
      "name": "dex",
      "outputs": [
        {
          "internalType": "contract SaraDEX",
          "name": "",
          "type": "address"
        }
      ],
      "stateMutability": "view",
      "type": "function"
    },
    {
      "inputs": [
        {
          "internalType": "address",
          "name": "to",
          "type": "address"
        },
        {
          "internalType": "uint256",
          "name": "amount",
          "type": "uint256"
        },
        {
          "internalType": "enum SaraTokenRouter.WithdrawReason",
          "name": "reason",
          "type": "uint8"
        }
      ],
      "name": "emergencyWithdrawCoral",
      "outputs": [],
      "stateMutability": "nonpayable",
      "type": "function"
    },
    {
      "inputs": [],
      "name": "getPauseState",
      "outputs": [
        {
          "internalType": "bool",
          "name": "isPaused",
          "type": "bool"
        },
        {
          "internalType": "uint256",
          "name": "lastChange",
          "type": "uint256"
        },
        {
          "internalType": "uint256",
          "name": "duration",
          "type": "uint256"
        }
      ],
      "stateMutability": "view",
      "type": "function"
    },
    {
      "inputs": [
        {
          "internalType": "address",
          "name": "",
          "type": "address"
        }
      ],
      "name": "hasOpenApproval",
      "outputs": [
        {
          "internalType": "bool",
          "name": "",
          "type": "bool"
        }
      ],
      "stateMutability": "view",
      "type": "function"
    },
    {
      "inputs": [
        {
          "internalType": "address",
          "name": "",
          "type": "address"
        }
      ],
      "name": "inPriceDiscovery",
      "outputs": [
        {
          "internalType": "bool",
          "name": "",
          "type": "bool"
        }
      ],
      "stateMutability": "view",
      "type": "function"
    },
    {
      "inputs": [],
      "name": "lastApprovalTimestamp",
      "outputs": [
        {
          "internalType": "uint256",
          "name": "",
          "type": "uint256"
        }
      ],
      "stateMutability": "view",
      "type": "function"
    },
    {
      "inputs": [],
      "name": "lastPauseChange",
      "outputs": [
        {
          "internalType": "uint256",
          "name": "",
          "type": "uint256"
        }
      ],
      "stateMutability": "view",
      "type": "function"
    },
    {
      "inputs": [],
      "name": "liquidityManager",
      "outputs": [
        {
          "internalType": "contract SaraLiquidityManager",
          "name": "",
          "type": "address"
        }
      ],
      "stateMutability": "view",
      "type": "function"
    },
    {
      "inputs": [
        {
          "internalType": "address",
          "name": "creatorToken",
          "type": "address"
        }
      ],
      "name": "listNewCreatorToken",
      "outputs": [],
      "stateMutability": "nonpayable",
      "type": "function"
    },
    {
      "inputs": [
        {
          "internalType": "address",
          "name": "",
          "type": "address"
        }
      ],
      "name": "listedTokens",
      "outputs": [
        {
          "internalType": "bool",
          "name": "",
          "type": "bool"
        }
      ],
      "stateMutability": "view",
      "type": "function"
    },
    {
      "inputs": [
        {
          "internalType": "address",
          "name": "token",
          "type": "address"
        },
        {
          "internalType": "uint256",
          "name": "subscriberCount",
          "type": "uint256"
        }
      ],
      "name": "onTokenMinted",
      "outputs": [],
      "stateMutability": "nonpayable",
      "type": "function"
    },
    {
      "inputs": [],
      "name": "owner",
      "outputs": [
        {
          "internalType": "address",
          "name": "",
          "type": "address"
        }
      ],
      "stateMutability": "view",
      "type": "function"
    },
    {
      "inputs": [],
      "name": "paused",
      "outputs": [
        {
          "internalType": "bool",
          "name": "",
          "type": "bool"
        }
      ],
      "stateMutability": "view",
      "type": "function"
    },
    {
      "inputs": [],
      "name": "renounceOwnership",
      "outputs": [],
      "stateMutability": "nonpayable",
      "type": "function"
    },
    {
      "inputs": [
        {
          "internalType": "address",
          "name": "token",
          "type": "address"
        }
      ],
      "name": "revokeApproval",
      "outputs": [],
      "stateMutability": "nonpayable",
      "type": "function"
    },
    {
      "inputs": [
        {
          "internalType": "address",
          "name": "token",
          "type": "address"
        },
        {
          "internalType": "uint256",
          "name": "coralAmount",
          "type": "uint256"
        },
        {
          "internalType": "uint256",
          "name": "minAmountOut",
          "type": "uint256"
        }
      ],
      "name": "swapCoralForToken",
      "outputs": [
        {
          "internalType": "uint256",
          "name": "",
          "type": "uint256"
        }
      ],
      "stateMutability": "nonpayable",
      "type": "function"
    },
    {
      "inputs": [],
      "name": "togglePause",
      "outputs": [],
      "stateMutability": "nonpayable",
      "type": "function"
    },
    {
      "inputs": [
        {
          "internalType": "address",
          "name": "newOwner",
          "type": "address"
        }
      ],
      "name": "transferOwnership",
      "outputs": [],
      "stateMutability": "nonpayable",
      "type": "function"
    },
    {
      "inputs": [
        {
          "internalType": "address",
          "name": "creatorToken",
          "type": "address"
        },
        {
          "internalType": "uint256",
          "name": "newReserveS",
          "type": "uint256"
        }
      ],
      "name": "updateAIRebalance",
      "outputs": [],
      "stateMutability": "nonpayable",
      "type": "function"
    },
    {
      "inputs": [
        {
          "internalType": "address",
          "name": "token",
          "type": "address"
        },
        {
          "internalType": "uint256",
          "name": "currentSubscribers",
          "type": "uint256"
        }
      ],
      "name": "updateEngagementMetrics",
      "outputs": [],
      "stateMutability": "nonpayable",
      "type": "function"
    }
  ],
  "bytecode": "0x60803461013357601f611c0c38819003918201601f19168301916001600160401b0383118484101761013857808492608094604052833981010312610133576100478161014e565b906100546020820161014e565b9061006d60606100666040840161014e565b920161014e565b91331561011d5760008054336001600160a01b0319821681178355604051969290916001600160a01b0316907f8be0079c531659141344cd1fd0a4f28419497f9722a3daafe3b4186f6b6457e09080a360018055600280546001600160a01b03199081166001600160a01b039384161790915560038054821693831693909317909255600480548316938216939093179092556006805490911692909116919091179055611aa990816101638239f35b631e4fbdf760e01b600052600060045260246000fd5b600080fd5b634e487b7160e01b600052604160045260246000fd5b51906001600160a01b03821682036101335756fe608080604052600436101561001357600080fd5b600090813560e01c90816333827438146115cb575080633417c3d0146115115780633f80aace1461112f578063484685b0146111025780635c975abb146110dc578063692058c2146110b35780636cbb34861461101a578063700d53a714610fdb5780637093f47f14610f9c578063715018a614610f4257806388ed751214610f1957806389312c3514610efb5780638da5cb5b14610ed45780638e3b58e214610ead5780638f8f54b314610e8f5780639a44f1fb14610e275780639c3ba48b14610b94578063b0eeb1e814610784578063bba2e1401461075b578063c1eb70cc14610737578063c4ae3168146106c1578063c6a55cbb14610682578063e2cfb2731461065d578063e63c453d146104bc578063f2fde38b14610436578063f3683428146104195763fb99d5f41461014a57600080fd5b34610416576020366003190112610416576101636115f0565b61016b611946565b6101736119ba565b6001600160a01b0316808252600760205260408220546101959060ff16611606565b6002546040516370a0823160e01b815230600482015290602090829060249082906001600160a01b03165afa80156103d25783906103dd575b6102139150604051906101e260408361164b565b602082527f496e697469616c206c69717569646974792063616e6e6f74206265207a65726f6020830152151561170a565b60035460408051630fa6707960e21b81526004810184905291829060249082906001600160a01b03165afa9081156103d25783916103b1575b50818352600760205260408320805460ff1916905560035483906001600160a01b0316803b156103ad57818091602460405180948193633ee6757d60e21b83528960048401525af180156103a257610389575b505060035460408051630fa6707960e21b81526004810185905291829060249082906001600160a01b03165afa90811561037e57849161034d575b501115610312577f8f626108ec6dbb00865cbc0da4f6cc0866bb2e90c351aa607b1a5f4d7607b7da6020604051428152a26001805580f35b60405162461bcd60e51b8152602060048201526013602482015272131a5c5d5a591a5d1e481b9bdd081859191959606a1b6044820152606490fd5b61036f915060403d604011610377575b610367818361164b565b810190611930565b9050386102da565b503d61035d565b6040513d86823e3d90fd5b816103939161164b565b61039e57823861029f565b8280fd5b6040513d84823e3d90fd5b5080fd5b6103ca915060403d60401161037757610367818361164b565b90503861024c565b6040513d85823e3d90fd5b506020813d60201161040e575b816103f76020938361164b565b810103126104095761021390516101ce565b600080fd5b3d91506103ea565b80fd5b50346104165780600319360112610416576020604051610e108152f35b5034610416576020366003190112610416576104506115f0565b610458611946565b6001600160a01b031680156104a85781546001600160a01b03198116821783556001600160a01b03167f8be0079c531659141344cd1fd0a4f28419497f9722a3daafe3b4186f6b6457e08380a380f35b631e4fbdf760e01b82526004829052602482fd5b5034610416576060366003190112610416576104d66115f0565b602435604435916003831015610659576104ee611946565b6104f66119ba565b6001600160a01b03811680156106225761051860ff60065460a01c1615611683565b6002546040516370a0823160e01b81523060048201526001600160a01b039091169190602081602481865afa9081156106175787916105e5575b5084116105a057817fd6904cf5b5e9f829853e263f3843fac5453fd36b81cec3559c5018a0de89d64e606061059997604051908882524260208301526040820152a36119dc565b6001805580f35b60405162461bcd60e51b815260206004820152601a60248201527f496e73756666696369656e7420434f52414c2062616c616e63650000000000006044820152606490fd5b90506020813d60201161060f575b816106006020938361164b565b81010312610409575138610552565b3d91506105f3565b6040513d89823e3d90fd5b60405162461bcd60e51b815260206004820152600f60248201526e496e76616c6964206164647265737360881b6044820152606490fd5b8380fd5b5034610416578060031936011261041657602060405169d3c21bcecceda10000008152f35b50346104165760203660031901126104165760209060ff906040906001600160a01b036106ad6115f0565b168152600784522054166040519015158152f35b50346104165780600319360112610416576106da611946565b60065460ff60a01b60ff8260a01c161560a01b169060ff60a01b1916178060065542600a556040514281527fa965406db9d595b01329adb8152ce3b8bac4b7bfb1e705308939fb0c4a88318c602060ff339460a01c16151592a380f35b50346104165780600319360112610416576020604051683635c9adc5dea000008152f35b50346104165780600319360112610416576002546040516001600160a01b039091168152602090f35b50346104165760603660031901126104165761079e6115f0565b9060243591604435906107b960ff60065460a01c1615611683565b6107c16119ba565b60018060a01b0316906108056040516107db60408261164b565b601581527424b73b30b634b21031b932b0ba37b9103a37b5b2b760591b602082015283151561170a565b61084860405161081660408261164b565b601a81527f496e76616c696420434f52414c20746f6b656e20616d6f756e74000000000000602082015285151561170a565b818352600760205260ff604084205416610b4f57818352600560205260ff60408420541615610b175760025461088c908590309033906001600160a01b031661196f565b60025460048054604051636eb1769f60e11b815230928101929092526001600160a01b0390811660248301819052921690602081604481855afa908115610b0c5790869392918491610ad7575b508781106109f8575b505050602060018060a01b0360045416608460405180948193630c28192f60e01b83528860048401528a60248401528760448401526101f460648401525af19384156109ec57936109b8575b50821061097f578181610973927f7a0a8a7b675dfabba33d3b55537c754dae6910cbc33e6bf9d4bf8aed52d448b3604060209781519081528589820152a233906119dc565b60018055604051908152f35b60405162461bcd60e51b81526020600482015260116024820152700a6d8d2e0e0c2ceca40e8dede40d0d2ced607b1b6044820152606490fd5b9092506020813d6020116109e4575b816109d46020938361164b565b810103126104095751913861092e565b3d91506109c7565b604051903d90823e3d90fd5b610a81575b50506002546004805460405163095ea7b360e01b81526001600160a01b039182169281019290925260248201889052909250602091839160449183918991165af1801561037e57610a52575b808085926108e2565b610a739060203d602011610a7a575b610a6b818361164b565b81019061177c565b5038610a49565b503d610a61565b6044602092604051948593849263095ea7b360e01b845260048401528160248401525af1801561037e57610ab8575b8084916109fd565b610ad09060203d602011610a7a57610a6b818361164b565b5038610ab0565b9350506020833d602011610b04575b81610af36020938361164b565b8101031261040957859251386108d9565b3d9150610ae6565b6040513d88823e3d90fd5b60405162461bcd60e51b815260206004820152601060248201526f151bdad95b881b9bdd081b1a5cdd195960821b6044820152606490fd5b60405162461bcd60e51b815260206004820152601860248201527f546f6b656e20696e20707269636520646973636f7665727900000000000000006044820152606490fd5b503461041657602036600319011261041657610bae6115f0565b610bb6611946565b6001600160a01b03168015610dea57808252600560205260ff604083205416610dae576040516318160ddd60e01b8152602081600481855afa9081156103d2578391610d7c575b5015610d3f57808252600760205260ff604083205416610cfa57600354604051633a54963360e11b81526004810183905290602090829060249082906001600160a01b03165afa9081156103d2578391610cdb575b5015610c9657807f017664858438d89f547fee46da0bcfc5396ea13a9fb1490b8fdd76cfa979f1a98380a28152600560205260408120805460ff1916600117905580f35b60405162461bcd60e51b815260206004820152601b60248201527f4c697175696469747920706f6f6c206e6f7420747261636b65642100000000006044820152606490fd5b610cf4915060203d602011610a7a57610a6b818361164b565b38610c52565b60405162461bcd60e51b815260206004820152601e60248201527f546f6b656e207374696c6c20696e20707269636520646973636f7665727900006044820152606490fd5b60405162461bcd60e51b8152602060048201526015602482015274546f6b656e20686173207a65726f20737570706c7960581b6044820152606490fd5b90506020813d602011610da6575b81610d976020938361164b565b81010312610409575138610bfd565b3d9150610d8a565b60405162461bcd60e51b8152602060048201526014602482015273151bdad95b88185b1c9958591e481b1a5cdd195960621b6044820152606490fd5b60405162461bcd60e51b8152602060048201526015602482015274496e76616c696420746f6b656e206164647265737360581b6044820152606490fd5b503461041657806003193601126104165760ff60065460a01c16600a54801515600014610e8657804203428111610e725760609350905b604051921515835260208301526040820152f35b634e487b7160e01b84526011600452602484fd5b60609290610e5e565b50346104165780600319360112610416576020600a54604051908152f35b5034610416576020366003190112610416576020610ecc6004356118e5565b604051908152f35b5034610416578060031936011261041657546040516001600160a01b039091168152602090f35b50346104165780600319360112610416576020600954604051908152f35b50346104165780600319360112610416576006546040516001600160a01b039091168152602090f35b5034610416578060031936011261041657610f5b611946565b80546001600160a01b03198116825581906001600160a01b03167f8be0079c531659141344cd1fd0a4f28419497f9722a3daafe3b4186f6b6457e08280a380f35b50346104165760203660031901126104165760209060ff906040906001600160a01b03610fc76115f0565b168152600584522054166040519015158152f35b50346104165760203660031901126104165760209060ff906040906001600160a01b036110066115f0565b168152600884522054166040519015158152f35b5034610416576040366003190112610416578060206110376115f0565b61103f611946565b6003546040516355776b7760e01b81526001600160a01b0392831660048201526024808201869052356044820152938492606492849291165af180156103a257611087575080f35b6110a89060203d6020116110ac575b6110a0818361164b565b81019061176d565b5080f35b503d611096565b50346104165780600319360112610416576004546040516001600160a01b039091168152602090f35b5034610416578060031936011261041657602060ff60065460a01c166040519015158152f35b50346104165760203660031901126104165761112c61111f6115f0565b611127611946565b611794565b80f35b5034610416576040366003190112610416576111496115f0565b60243560065461115f60ff8260a01c1615611683565b6001600160a01b031633036114dd576001600160a01b0382168084526007602052604084205490929060ff16611498576111a261119a6116c4565b83151561170a565b6111ab826118e5565b916111ef6040516111bd60408261164b565b602081527f496e697469616c206c69717569646974792063616e6e6f74206265207a65726f602082015284151561170a565b600254604051636eb1769f60e11b81523360048201523060248201526001600160a01b039091169290602081604481875afa80156106175785918891611463575b501061141e576112458487943090339061196f565b848352600760205260408320805460ff191660011790556003546001600160a01b031691823b1561065957604051632324f29f60e21b81526001600160a01b0392909216600483015260248201529082908290604490829084905af180156103a257611409575b50506112b6611946565b8115610dea57818352600560205260ff604084205416610dae576040516318160ddd60e01b8152602081600481865afa90811561037e5784916113d7575b5015610d3f57818352600760205260ff604084205416610cfa57600354604051633a54963360e11b81526004810184905290602090829060249082906001600160a01b03165afa90811561037e5784916113b8575b5015610c965760207fd6d6d534b6d189e6da779fc9a8cc9ab4bd2680e9443079b472ebd776e7b5728a9160405190847f017664858438d89f547fee46da0bcfc5396ea13a9fb1490b8fdd76cfa979f1a98780a28486526005835260408620805460ff191660011790558152a280f35b6113d1915060203d602011610a7a57610a6b818361164b565b38611349565b90506020813d602011611401575b816113f26020938361164b565b810103126104095751386112f4565b3d91506113e5565b816114139161164b565b61039e5782386112ac565b60405162461bcd60e51b815260206004820152601c60248201527f496e73756666696369656e7420434f52414c20616c6c6f77616e6365000000006044820152606490fd5b9150506020813d602011611490575b8161147f6020938361164b565b810103126104095784905138611230565b3d9150611472565b60405162461bcd60e51b815260206004820152601a60248201527f546f6b656e20616c726561647920696e20646973636f766572790000000000006044820152606490fd5b60405162461bcd60e51b815260206004820152600c60248201526b155b985d5d1a1bdc9a5e995960a21b6044820152606490fd5b5034610416576040366003190112610416578061152c6115f0565b611534611946565b6001600160a01b0381168252600760205260408220546115569060ff16611606565b6003546001600160a01b0316803b156115c75760405163271ac57960e11b81526001600160a01b03929092166004830152602480359083015290919081908390604490829084905af180156115ba576115ac5780f35b6115b59161164b565b388180f35b50604051903d90823e3d90fd5b5050fd5b9050346103ad57816003193601126103ad576003546001600160a01b03168152602090f35b600435906001600160a01b038216820361040957565b1561160d57565b60405162461bcd60e51b8152602060048201526016602482015275546f6b656e206e6f7420696e20646973636f7665727960501b6044820152606490fd5b90601f8019910116810190811067ffffffffffffffff82111761166d57604052565b634e487b7160e01b600052604160045260246000fd5b1561168a57565b60405162461bcd60e51b815260206004820152601260248201527110dbdb9d1c9858dd081a5cc81c185d5cd95960721b6044820152606490fd5b604051906116d360608361164b565b6022825261726f60f01b6040837f496e697469616c2073756273637269626572732063616e6e6f74206265207a6560208201520152565b156117125750565b6040519062461bcd60e51b8252602060048301528181519182602483015260005b8381106117555750508160006044809484010152601f80199101168101030190fd5b60208282018101516044878401015285935001611733565b90816020910312610409575190565b90816020910312610409575180151581036104095790565b6002546001600160a01b03918216911681146118e257600354604051636eb1769f60e11b81523060048201526001600160a01b039091166024820181905290602081604481865afa90811561188c576000916118b0575b50151580611898575b6117fc575050565b6040519063095ea7b360e01b82526004820152600060248201526020816044816000865af1801561188c5761186f575b50806000526008602052604060002060ff1981541690557f3e776e19fc0f05c1b8270744b61c5729d5d1a5d8dded1bfb81e3979e257edd596020604051428152a2565b6118879060203d602011610a7a57610a6b818361164b565b61182c565b6040513d6000823e3d90fd5b5081600052600860205260ff604060002054166117f4565b90506020813d6020116118da575b816118cb6020938361164b565b810103126104095751386117eb565b3d91506118be565b50565b80156118f96118f26116c4565b821561170a565b670de0b6b3a76400008202918204670de0b6b3a764000014171561191a5790565b634e487b7160e01b600052601160045260246000fd5b9190826040910312610409576020825192015190565b6000546001600160a01b0316330361195a57565b63118cdaa760e01b6000523360045260246000fd5b6040516323b872dd60e01b60208201526001600160a01b0392831660248201529290911660448301526064808301939093529181526119b8916119b360848361164b565b611a18565b565b6002600154146119cb576002600155565b633ee5aeb560e01b60005260046000fd5b60405163a9059cbb60e01b60208201526001600160a01b039290921660248301526044808301939093529181526119b8916119b360648361164b565b906000602091828151910182855af11561188c576000513d611a6a57506001600160a01b0381163b155b611a495750565b635274afe760e01b60009081526001600160a01b0391909116600452602490fd5b60011415611a4256fea2646970667358221220691f4d9cb3e4068b6568ec5d030ed36cd5f862a07bb50c04deef2b8e15ef09a064736f6c634300081c0033",
  "linkReferences": {},
  "deployedLinkReferences": {}
}