{
  "_format": "hh-sol-artifact-1",
  "contractName": "SaraTokenRouter",
  "sourceName": "contracts/SaraTokenRouter.sol",
  "abi": [
    {
      "inputs": [
        {
          "internalType": "address",
          "name": "_coralToken",
          "type": "address"
        },
        {
          "internalType": "address",
          "name": "_liquidityManager",
          "type": "address"
        },
        {
          "internalType": "address",
          "name": "_dex",
          "type": "address"
        },
        {
          "internalType": "address",
          "name": "_creatorTokenFactory",
          "type": "address"
        }
      ],
      "stateMutability": "nonpayable",
      "type": "constructor"
    },
    {
      "inputs": [
        {
          "internalType": "address",
          "name": "owner",
          "type": "address"
        }
      ],
      "name": "OwnableInvalidOwner",
      "type": "error"
    },
    {
      "inputs": [
        {
          "internalType": "address",
          "name": "account",
          "type": "address"
        }
      ],
      "name": "OwnableUnauthorizedAccount",
      "type": "error"
    },
    {
      "inputs": [
        {
          "internalType": "address",
          "name": "token",
          "type": "address"
        }
      ],
      "name": "SafeERC20FailedOperation",
      "type": "error"
    },
    {
      "anonymous": false,
      "inputs": [
        {
          "indexed": true,
          "internalType": "address",
          "name": "token",
          "type": "address"
        },
        {
          "indexed": false,
          "internalType": "uint256",
          "name": "amount",
          "type": "uint256"
        },
        {
          "indexed": false,
          "internalType": "uint256",
          "name": "timestamp",
          "type": "uint256"
        }
      ],
      "name": "ApprovalGranted",
      "type": "event"
    },
    {
      "anonymous": false,
      "inputs": [
        {
          "indexed": true,
          "internalType": "address",
          "name": "token",
          "type": "address"
        },
        {
          "indexed": false,
          "internalType": "uint256",
          "name": "timestamp",
          "type": "uint256"
        }
      ],
      "name": "ApprovalRevoked",
      "type": "event"
    },
    {
      "anonymous": false,
      "inputs": [
        {
          "indexed": true,
          "internalType": "address",
          "name": "token",
          "type": "address"
        },
        {
          "indexed": false,
          "internalType": "uint256",
          "name": "amountIn",
          "type": "uint256"
        },
        {
          "indexed": false,
          "internalType": "uint256",
          "name": "amountOut",
          "type": "uint256"
        }
      ],
      "name": "CoralSwappedForToken",
      "type": "event"
    },
    {
      "anonymous": false,
      "inputs": [
        {
          "indexed": true,
          "internalType": "address",
          "name": "previousOwner",
          "type": "address"
        },
        {
          "indexed": true,
          "internalType": "address",
          "name": "newOwner",
          "type": "address"
        }
      ],
      "name": "OwnershipTransferred",
      "type": "event"
    },
    {
      "anonymous": false,
      "inputs": [
        {
          "indexed": true,
          "internalType": "bool",
          "name": "isPaused",
          "type": "bool"
        },
        {
          "indexed": false,
          "internalType": "uint256",
          "name": "timestamp",
          "type": "uint256"
        },
        {
          "indexed": true,
          "internalType": "address",
          "name": "actor",
          "type": "address"
        }
      ],
      "name": "PauseStateChanged",
      "type": "event"
    },
    {
      "anonymous": false,
      "inputs": [
        {
          "indexed": true,
          "internalType": "address",
          "name": "token",
          "type": "address"
        },
        {
          "indexed": false,
          "internalType": "uint256",
          "name": "initialLiquidity",
          "type": "uint256"
        }
      ],
      "name": "TokenAutoListed",
      "type": "event"
    },
    {
      "anonymous": false,
      "inputs": [
        {
          "indexed": true,
          "internalType": "address",
          "name": "creatorToken",
          "type": "address"
        }
      ],
      "name": "TokenListed",
      "type": "event"
    },
    {
      "anonymous": false,
      "inputs": [
        {
          "indexed": true,
          "internalType": "address",
          "name": "token",
          "type": "address"
        },
        {
          "indexed": false,
          "internalType": "uint256",
          "name": "amountIn",
          "type": "uint256"
        },
        {
          "indexed": false,
          "internalType": "uint256",
          "name": "amountOut",
          "type": "uint256"
        }
      ],
      "name": "TokenSwappedForCoral",
      "type": "event"
    },
    {
      "inputs": [],
      "name": "APPROVAL_TIMEOUT",
      "outputs": [
        {
          "internalType": "uint256",
          "name": "",
          "type": "uint256"
        }
      ],
      "stateMutability": "view",
      "type": "function"
    },
    {
      "inputs": [],
      "name": "MAX_INITIAL_CORAL",
      "outputs": [
        {
          "internalType": "uint256",
          "name": "",
          "type": "uint256"
        }
      ],
      "stateMutability": "view",
      "type": "function"
    },
    {
      "inputs": [],
      "name": "MIN_INITIAL_CORAL",
      "outputs": [
        {
          "internalType": "uint256",
          "name": "",
          "type": "uint256"
        }
      ],
      "stateMutability": "view",
      "type": "function"
    },
    {
      "inputs": [
        {
          "internalType": "uint256",
          "name": "subscriberCount",
          "type": "uint256"
        }
      ],
      "name": "calculateInitialLiquidity",
      "outputs": [
        {
          "internalType": "uint256",
          "name": "",
          "type": "uint256"
        }
      ],
      "stateMutability": "pure",
      "type": "function"
    },
    {
      "inputs": [
        {
          "internalType": "address",
          "name": "token",
          "type": "address"
        }
      ],
      "name": "completePriceDiscovery",
      "outputs": [],
      "stateMutability": "nonpayable",
      "type": "function"
    },
    {
      "inputs": [],
      "name": "coralToken",
      "outputs": [
        {
          "internalType": "address",
          "name": "",
          "type": "address"
        }
      ],
      "stateMutability": "view",
      "type": "function"
    },
    {
      "inputs": [],
      "name": "creatorTokenFactory",
      "outputs": [
        {
          "internalType": "contract ICreatorCoin",
          "name": "",
          "type": "address"
        }
      ],
      "stateMutability": "view",
      "type": "function"
    },
    {
      "inputs": [],
      "name": "dex",
      "outputs": [
        {
          "internalType": "contract SaraDEX",
          "name": "",
          "type": "address"
        }
      ],
      "stateMutability": "view",
      "type": "function"
    },
    {
      "inputs": [],
      "name": "getPauseState",
      "outputs": [
        {
          "internalType": "bool",
          "name": "isPaused",
          "type": "bool"
        },
        {
          "internalType": "uint256",
          "name": "lastChange",
          "type": "uint256"
        },
        {
          "internalType": "uint256",
          "name": "duration",
          "type": "uint256"
        }
      ],
      "stateMutability": "view",
      "type": "function"
    },
    {
      "inputs": [
        {
          "internalType": "address",
          "name": "",
          "type": "address"
        }
      ],
      "name": "hasOpenApproval",
      "outputs": [
        {
          "internalType": "bool",
          "name": "",
          "type": "bool"
        }
      ],
      "stateMutability": "view",
      "type": "function"
    },
    {
      "inputs": [
        {
          "internalType": "address",
          "name": "",
          "type": "address"
        }
      ],
      "name": "inPriceDiscovery",
      "outputs": [
        {
          "internalType": "bool",
          "name": "",
          "type": "bool"
        }
      ],
      "stateMutability": "view",
      "type": "function"
    },
    {
      "inputs": [
        {
          "internalType": "address",
          "name": "token",
          "type": "address"
        }
      ],
      "name": "isNativeCoral",
      "outputs": [
        {
          "internalType": "bool",
          "name": "",
          "type": "bool"
        }
      ],
      "stateMutability": "view",
      "type": "function"
    },
    {
      "inputs": [],
      "name": "lastApprovalTimestamp",
      "outputs": [
        {
          "internalType": "uint256",
          "name": "",
          "type": "uint256"
        }
      ],
      "stateMutability": "view",
      "type": "function"
    },
    {
      "inputs": [],
      "name": "lastPauseChange",
      "outputs": [
        {
          "internalType": "uint256",
          "name": "",
          "type": "uint256"
        }
      ],
      "stateMutability": "view",
      "type": "function"
    },
    {
      "inputs": [],
      "name": "liquidityManager",
      "outputs": [
        {
          "internalType": "contract SaraLiquidityManager",
          "name": "",
          "type": "address"
        }
      ],
      "stateMutability": "view",
      "type": "function"
    },
    {
      "inputs": [
        {
          "internalType": "address",
          "name": "creatorToken",
          "type": "address"
        }
      ],
      "name": "listNewCreatorToken",
      "outputs": [],
      "stateMutability": "nonpayable",
      "type": "function"
    },
    {
      "inputs": [
        {
          "internalType": "address",
          "name": "",
          "type": "address"
        }
      ],
      "name": "listedTokens",
      "outputs": [
        {
          "internalType": "bool",
          "name": "",
          "type": "bool"
        }
      ],
      "stateMutability": "view",
      "type": "function"
    },
    {
      "inputs": [
        {
          "internalType": "address",
          "name": "token",
          "type": "address"
        },
        {
          "internalType": "uint256",
          "name": "subscriberCount",
          "type": "uint256"
        }
      ],
      "name": "onTokenMinted",
      "outputs": [],
      "stateMutability": "payable",
      "type": "function"
    },
    {
      "inputs": [],
      "name": "owner",
      "outputs": [
        {
          "internalType": "address",
          "name": "",
          "type": "address"
        }
      ],
      "stateMutability": "view",
      "type": "function"
    },
    {
      "inputs": [],
      "name": "paused",
      "outputs": [
        {
          "internalType": "bool",
          "name": "",
          "type": "bool"
        }
      ],
      "stateMutability": "view",
      "type": "function"
    },
    {
      "inputs": [],
      "name": "renounceOwnership",
      "outputs": [],
      "stateMutability": "nonpayable",
      "type": "function"
    },
    {
      "inputs": [
        {
          "internalType": "address",
          "name": "token",
          "type": "address"
        }
      ],
      "name": "revokeApproval",
      "outputs": [],
      "stateMutability": "nonpayable",
      "type": "function"
    },
    {
      "inputs": [
        {
          "internalType": "address",
          "name": "token",
          "type": "address"
        },
        {
          "internalType": "uint256",
          "name": "coralAmount",
          "type": "uint256"
        },
        {
          "internalType": "uint256",
          "name": "minAmountOut",
          "type": "uint256"
        }
      ],
      "name": "swapCoralForToken",
      "outputs": [
        {
          "internalType": "uint256",
          "name": "",
          "type": "uint256"
        }
      ],
      "stateMutability": "payable",
      "type": "function"
    },
    {
      "inputs": [],
      "name": "togglePause",
      "outputs": [],
      "stateMutability": "nonpayable",
      "type": "function"
    },
    {
      "inputs": [
        {
          "internalType": "address",
          "name": "newOwner",
          "type": "address"
        }
      ],
      "name": "transferOwnership",
      "outputs": [],
      "stateMutability": "nonpayable",
      "type": "function"
    },
    {
      "inputs": [
        {
          "internalType": "address",
          "name": "creatorToken",
          "type": "address"
        },
        {
          "internalType": "uint256",
          "name": "newReserveS",
          "type": "uint256"
        }
      ],
      "name": "updateAIRebalance",
      "outputs": [],
      "stateMutability": "nonpayable",
      "type": "function"
    },
    {
      "inputs": [
        {
          "internalType": "address",
          "name": "token",
          "type": "address"
        },
        {
          "internalType": "uint256",
          "name": "currentSubscribers",
          "type": "uint256"
        }
      ],
      "name": "updateEngagementMetrics",
      "outputs": [],
      "stateMutability": "nonpayable",
      "type": "function"
    },
    {
      "stateMutability": "payable",
      "type": "receive"
    }
  ],
  "bytecode": "0x60803461012f57601f61169638819003918201601f19168301916001600160401b038311848410176101345780849260809460405283398101031261012f576100478161014a565b906100546020820161014a565b9061006d60606100666040840161014a565b920161014a565b9133156101195760008054336001600160a01b0319821681178355604051969290916001600160a01b0316907f8be0079c531659141344cd1fd0a4f28419497f9722a3daafe3b4186f6b6457e09080a3600180546001600160a01b03199081166001600160a01b039384161790915560028054821693831693909317909255600380548316938216939093179092556005805490911692909116919091179055611537908161015f8239f35b631e4fbdf760e01b600052600060045260246000fd5b600080fd5b634e487b7160e01b600052604160045260246000fd5b51906001600160a01b038216820361012f5756fe608080604052600436101561001d575b50361561001b57600080fd5b005b600090813560e01c9081633382743814611107575080633417c3d0146110005780633f80aace14610ca4578063484685b014610c7a5780635c975abb14610c54578063692058c214610c2b5780636cbb348614610b48578063700d53a714610b095780637093f47f14610aca578063715018a614610a7057806388ed751214610a4757806389312c3514610a295780638da5cb5b14610a025780638e3b58e2146109db5780638f8f54b3146109bd5780639a44f1fb146109555780639c3ba48b1461089c578063b0eeb1e814610627578063bba2e140146105fe578063c1eb70cc146105da578063c4ae3168146105b6578063c6a55cbb14610577578063e2cfb27314610552578063f2fde38b146104cc578063f3683428146104af578063fb28ceb2146104405763fb99d5f40361000f573461043d57602036600319011261043d5761016861112c565b61017061147d565b6001600160a01b0316808252600660205260408220546101929060ff16611142565b6001546040516370a0823160e01b815230600482015290602090829060249082906001600160a01b03165afa8015610387578390610404575b6102109150604051906101df604083611187565b602082527f496e697469616c206c69717569646974792063616e6e6f74206265207a65726f60208301521515611224565b6003546040516306704e8760e31b81528391602090829060049082906001600160a01b03165afa9081156103da5782916103e5575b506001600160a01b0316803b156103d657818091602460405180948193633ee6757d60e21b83528860048401525af180156103da576103c1575b50506003546040516306704e8760e31b815290602090829060049082906001600160a01b03165afa908115610387576024916040918591610392575b508151630fa6707960e21b81526004810185905292839182906001600160a01b03165afa90811561038757839161034e575b5015610309578152600660205260408120805460ff1916905580f35b60405162461bcd60e51b815260206004820152601e60248201527f5a65726f206c697175696469747920616674657220646973636f7665727900006044820152606490fd5b90506040813d60401161037f575b8161036960409383611187565b8101031261037b5760200151386102ed565b8280fd5b3d915061035c565b6040513d85823e3d90fd5b6103b4915060203d6020116103ba575b6103ac8183611187565b8101906111bf565b386102bb565b503d6103a2565b816103cb91611187565b6103d657813861027f565b5080fd5b6040513d84823e3d90fd5b6103fe915060203d6020116103ba576103ac8183611187565b38610245565b506020813d602011610435575b8161041e60209383611187565b810103126104305761021090516101cb565b600080fd5b3d9150610411565b80fd5b503461043d57602036600319011261043d57602061045c61112c565b6001546001600160a01b03918216911681149081156104a6575b8115610488575b506040519015158152f35b73eeeeeeeeeeeeeeeeeeeeeeeeeeeeeeeeeeeeeeee9150148261047d565b80159150610476565b503461043d578060031936011261043d576020604051610e108152f35b503461043d57602036600319011261043d576104e661112c565b6104ee61147d565b6001600160a01b0316801561053e5781546001600160a01b03198116821783556001600160a01b03167f8be0079c531659141344cd1fd0a4f28419497f9722a3daafe3b4186f6b6457e08380a380f35b631e4fbdf760e01b82526004829052602482fd5b503461043d578060031936011261043d57602060405169d3c21bcecceda10000008152f35b503461043d57602036600319011261043d5760209060ff906040906001600160a01b036105a261112c565b168152600684522054166040519015158152f35b503461043d578060031936011261043d576105cf61147d565b6105d7611418565b80f35b503461043d578060031936011261043d576020604051683635c9adc5dea000008152f35b503461043d578060031936011261043d576001546040516001600160a01b039091168152602090f35b50606036600319011261043d5761063c61112c565b906024359160018060a01b031661068460405161065a604082611187565b601581527424b73b30b634b21031b932b0ba37b9103a37b5b2b760591b6020820152821515611224565b6106c7604051610695604082611187565b601a81527f496e76616c696420434f52414c20746f6b656e20616d6f756e740000000000006020820152841515611224565b6001546001600160a01b0316806108505750823403610801575b81602060018060a01b0360035416608460405180948193630c28192f60e01b835287600484015289602484015260443560448401526101f460648401525af19283156107f5579261079f575b506040805163a9059cbb60e01b60208083019190915233602483015260448083018690528252947f7a0a8a7b675dfabba33d3b55537c754dae6910cbc33e6bf9d4bf8aed52d448b3929161078c90610786606482611187565b856114a6565b81519081528486820152a2604051908152f35b9291506020833d6020116107ed575b816107bb60209383611187565b8101031261043057915190917f7a0a8a7b675dfabba33d3b55537c754dae6910cbc33e6bf9d4bf8aed52d448b361072d565b3d91506107ae565b604051903d90823e3d90fd5b60405162461bcd60e51b815260206004820152602160248201527f496e636f727265637420434f52414c20746f6b656e20616d6f756e742073656e6044820152601d60fa1b6064820152608490fd5b6003546040516323b872dd60e01b60208201523360248201526001600160a01b0390911660448201526064808201869052815261089791610892608483611187565b6114a6565b6106e1565b503461043d57602036600319011261043d576108b661112c565b6108be61147d565b6001600160a01b03168082526004602052604082205460ff1661091957808252600460205260408220805460ff191660011790557f017664858438d89f547fee46da0bcfc5396ea13a9fb1490b8fdd76cfa979f1a98280a280f35b60405162461bcd60e51b8152602060048201526014602482015273151bdad95b88185b1c9958591e481b1a5cdd195960621b6044820152606490fd5b503461043d578060031936011261043d5760ff60055460a01c166009548015156000146109b4578042034281116109a05760609350905b604051921515835260208301526040820152f35b634e487b7160e01b84526011600452602484fd5b6060929061098c565b503461043d578060031936011261043d576020600954604051908152f35b503461043d57602036600319011261043d5760206109fa6004356113cd565b604051908152f35b503461043d578060031936011261043d57546040516001600160a01b039091168152602090f35b503461043d578060031936011261043d576020600854604051908152f35b503461043d578060031936011261043d576005546040516001600160a01b039091168152602090f35b503461043d578060031936011261043d57610a8961147d565b80546001600160a01b03198116825581906001600160a01b03167f8be0079c531659141344cd1fd0a4f28419497f9722a3daafe3b4186f6b6457e08280a380f35b503461043d57602036600319011261043d5760209060ff906040906001600160a01b03610af561112c565b168152600484522054166040519015158152f35b503461043d57602036600319011261043d5760209060ff906040906001600160a01b03610b3461112c565b168152600784522054166040519015158152f35b503461043d57604036600319011261043d5780610b6361112c565b610b6b61147d565b6003546040516306704e8760e31b815290602090829060049082906001600160a01b03165afa908115610387578391610c0c575b506001600160a01b031690813b15610c08576040516355776b7760e01b81526001600160a01b03909116600482015260248082018490523560448201529082908290606490829084905af180156103da57610bf75750f35b81610c0191611187565b61043d5780f35b5050fd5b610c25915060203d6020116103ba576103ac8183611187565b38610b9f565b503461043d578060031936011261043d576003546040516001600160a01b039091168152602090f35b503461043d578060031936011261043d57602060ff60055460a01c166040519015158152f35b503461043d57602036600319011261043d576105d7610c9761112c565b610c9f61147d565b611287565b50604036600319011261043d57610cb961112c565b60243560055460ff8160a01c16610fc6573415610f8a576001600160a01b03163303610f56576001600160a01b0382168084526006602052604084205490929060ff16610f1157610d13610d0b6111de565b831515611224565b610d1c826113cd565b91610d60604051610d2e604082611187565b602081527f496e697469616c206c69717569646974792063616e6e6f74206265207a65726f6020820152841515611224565b823403610ecc57838552600660209081526040808720805460ff1916600117905560035490516306704e8760e31b81528794929091829060049082906001600160a01b03165afa908115610ec1578491610ea2575b506001600160a01b031691823b15610e9e57604051632324f29f60e21b81526001600160a01b0392909216600483015260248201529082908290604490829084905af180156103da57610e89575b5050610e0d61147d565b818352600460205260ff60408420541661091957818352600460209081526040808520805460ff19166001179055517fd6d6d534b6d189e6da779fc9a8cc9ab4bd2680e9443079b472ebd776e7b5728a92847f017664858438d89f547fee46da0bcfc5396ea13a9fb1490b8fdd76cfa979f1a98780a28152a280f35b81610e9391611187565b61037b578238610e03565b8380fd5b610ebb915060203d6020116103ba576103ac8183611187565b38610db5565b6040513d86823e3d90fd5b60405162461bcd60e51b815260206004820152601b60248201527f496e636f727265637420434f52414c20616d6f756e742073656e7400000000006044820152606490fd5b60405162461bcd60e51b815260206004820152601a60248201527f546f6b656e20616c726561647920696e20646973636f766572790000000000006044820152606490fd5b60405162461bcd60e51b815260206004820152600c60248201526b155b985d5d1a1bdc9a5e995960a21b6044820152606490fd5b60405162461bcd60e51b8152602060048201526014602482015273139bc810d3d49053081d1bdad95b9cc81cd95b9d60621b6044820152606490fd5b60405162461bcd60e51b815260206004820152601260248201527110dbdb9d1c9858dd081a5cc81c185d5cd95960721b6044820152606490fd5b503461043d57604036600319011261043d578061101b61112c565b61102361147d565b6001600160a01b0381168252600660205260408220546110459060ff16611142565b6003546040516306704e8760e31b815290602090829060049082906001600160a01b03165afa9081156103875783916110e8575b506001600160a01b0316803b15610c085760405163271ac57960e11b81526001600160a01b03929092166004830152602480359083015290919081908390604490829084905af180156110db576110cd5780f35b6110d691611187565b388180f35b50604051903d90823e3d90fd5b611101915060203d6020116103ba576103ac8183611187565b38611079565b9050346103d657816003193601126103d6576002546001600160a01b03168152602090f35b600435906001600160a01b038216820361043057565b1561114957565b60405162461bcd60e51b8152602060048201526016602482015275546f6b656e206e6f7420696e20646973636f7665727960501b6044820152606490fd5b90601f8019910116810190811067ffffffffffffffff8211176111a957604052565b634e487b7160e01b600052604160045260246000fd5b9081602091031261043057516001600160a01b03811681036104305790565b604051906111ed606083611187565b6022825261726f60f01b6040837f496e697469616c2073756273637269626572732063616e6e6f74206265207a6560208201520152565b1561122c5750565b6040519062461bcd60e51b8252602060048301528181519182602483015260005b83811061126f5750508160006044809484010152601f80199101168101030190fd5b6020828201810151604487840101528593500161124d565b6001546001600160a01b03918216911681146113ca5780600052600760205260ff604060002054166112b65750565b6003546040516306704e8760e31b815290602090829060049082906001600160a01b03165afa90811561139f576000916113ab575b506040519063095ea7b360e01b825260018060a01b03166004820152600060248201526020816044816000865af1801561139f57611367575b50806000526007602052604060002060ff1981541690557f3e776e19fc0f05c1b8270744b61c5729d5d1a5d8dded1bfb81e3979e257edd596020604051428152a2565b6020813d602011611397575b8161138060209383611187565b810103126104305751801515811461132457600080fd5b3d9150611373565b6040513d6000823e3d90fd5b6113c4915060203d6020116103ba576103ac8183611187565b386112eb565b50565b80156113e16113da6111de565b8215611224565b670de0b6b3a76400008202918204670de0b6b3a76400001417156114025790565b634e487b7160e01b600052601160045260246000fd5b60055460ff8160a01c161590818015146114795760ff60a01b191660a082901b60ff60a01b16176005554260098190556040519081523391907fa965406db9d595b01329adb8152ce3b8bac4b7bfb1e705308939fb0c4a88318c90602090a3565b5050565b6000546001600160a01b0316330361149157565b63118cdaa760e01b6000523360045260246000fd5b906000602091828151910182855af11561139f576000513d6114f857506001600160a01b0381163b155b6114d75750565b635274afe760e01b60009081526001600160a01b0391909116600452602490fd5b600114156114d056fea264697066735822122098dbdac20b9deefe826df35fad6c576aa77a1f00bdf36bf4717a991c18cc64dd64736f6c634300081c0033",
  "linkReferences": {},
  "deployedLinkReferences": {}
}