{
  "_format": "hh-sol-artifact-1",
  "contractName": "SaraTokenRouter",
  "sourceName": "contracts/SaraTokenRouter.sol",
  "abi": [
    {
      "inputs": [
        {
          "internalType": "address",
          "name": "_coralToken",
          "type": "address"
        },
        {
          "internalType": "address",
          "name": "_liquidityManager",
          "type": "address"
        },
        {
          "internalType": "address",
          "name": "_dex",
          "type": "address"
        },
        {
          "internalType": "address",
          "name": "_creatorTokenFactory",
          "type": "address"
        }
      ],
      "stateMutability": "nonpayable",
      "type": "constructor"
    },
    {
      "inputs": [
        {
          "internalType": "address",
          "name": "owner",
          "type": "address"
        }
      ],
      "name": "OwnableInvalidOwner",
      "type": "error"
    },
    {
      "inputs": [
        {
          "internalType": "address",
          "name": "account",
          "type": "address"
        }
      ],
      "name": "OwnableUnauthorizedAccount",
      "type": "error"
    },
    {
      "inputs": [],
      "name": "ReentrancyGuardReentrantCall",
      "type": "error"
    },
    {
      "inputs": [
        {
          "internalType": "address",
          "name": "token",
          "type": "address"
        }
      ],
      "name": "SafeERC20FailedOperation",
      "type": "error"
    },
    {
      "anonymous": false,
      "inputs": [
        {
          "indexed": true,
          "internalType": "address",
          "name": "token",
          "type": "address"
        },
        {
          "indexed": false,
          "internalType": "uint256",
          "name": "amount",
          "type": "uint256"
        },
        {
          "indexed": false,
          "internalType": "uint256",
          "name": "timestamp",
          "type": "uint256"
        }
      ],
      "name": "ApprovalGranted",
      "type": "event"
    },
    {
      "anonymous": false,
      "inputs": [
        {
          "indexed": true,
          "internalType": "address",
          "name": "token",
          "type": "address"
        },
        {
          "indexed": false,
          "internalType": "uint256",
          "name": "timestamp",
          "type": "uint256"
        }
      ],
      "name": "ApprovalRevoked",
      "type": "event"
    },
    {
      "anonymous": false,
      "inputs": [
        {
          "indexed": true,
          "internalType": "address",
          "name": "token",
          "type": "address"
        },
        {
          "indexed": false,
          "internalType": "uint256",
          "name": "amountIn",
          "type": "uint256"
        },
        {
          "indexed": false,
          "internalType": "uint256",
          "name": "amountOut",
          "type": "uint256"
        }
      ],
      "name": "CoralSwappedForToken",
      "type": "event"
    },
    {
      "anonymous": false,
      "inputs": [
        {
          "indexed": true,
          "internalType": "address",
          "name": "token",
          "type": "address"
        },
        {
          "indexed": true,
          "internalType": "address",
          "name": "to",
          "type": "address"
        },
        {
          "indexed": false,
          "internalType": "uint256",
          "name": "amount",
          "type": "uint256"
        },
        {
          "indexed": false,
          "internalType": "uint256",
          "name": "timestamp",
          "type": "uint256"
        },
        {
          "indexed": false,
          "internalType": "enum SaraTokenRouter.WithdrawReason",
          "name": "reason",
          "type": "uint8"
        }
      ],
      "name": "EmergencyWithdraw",
      "type": "event"
    },
    {
      "anonymous": false,
      "inputs": [
        {
          "indexed": true,
          "internalType": "address",
          "name": "previousOwner",
          "type": "address"
        },
        {
          "indexed": true,
          "internalType": "address",
          "name": "newOwner",
          "type": "address"
        }
      ],
      "name": "OwnershipTransferred",
      "type": "event"
    },
    {
      "anonymous": false,
      "inputs": [
        {
          "indexed": true,
          "internalType": "bool",
          "name": "isPaused",
          "type": "bool"
        },
        {
          "indexed": false,
          "internalType": "uint256",
          "name": "timestamp",
          "type": "uint256"
        },
        {
          "indexed": true,
          "internalType": "address",
          "name": "actor",
          "type": "address"
        }
      ],
      "name": "PauseStateChanged",
      "type": "event"
    },
    {
      "anonymous": false,
      "inputs": [
        {
          "indexed": true,
          "internalType": "address",
          "name": "token",
          "type": "address"
        },
        {
          "indexed": false,
          "internalType": "uint256",
          "name": "timestamp",
          "type": "uint256"
        }
      ],
      "name": "PriceDiscoveryCompleted",
      "type": "event"
    },
    {
      "anonymous": false,
      "inputs": [
        {
          "indexed": true,
          "internalType": "address",
          "name": "token",
          "type": "address"
        },
        {
          "indexed": false,
          "internalType": "uint256",
          "name": "timestamp",
          "type": "uint256"
        }
      ],
      "name": "PriceDiscoveryFailed",
      "type": "event"
    },
    {
      "anonymous": false,
      "inputs": [
        {
          "indexed": true,
          "internalType": "address",
          "name": "token",
          "type": "address"
        },
        {
          "indexed": false,
          "internalType": "uint256",
          "name": "initialLiquidity",
          "type": "uint256"
        }
      ],
      "name": "TokenAutoListed",
      "type": "event"
    },
    {
      "anonymous": false,
      "inputs": [
        {
          "indexed": true,
          "internalType": "address",
          "name": "creatorToken",
          "type": "address"
        }
      ],
      "name": "TokenListed",
      "type": "event"
    },
    {
      "anonymous": false,
      "inputs": [
        {
          "indexed": true,
          "internalType": "address",
          "name": "token",
          "type": "address"
        },
        {
          "indexed": false,
          "internalType": "uint256",
          "name": "amountIn",
          "type": "uint256"
        },
        {
          "indexed": false,
          "internalType": "uint256",
          "name": "amountOut",
          "type": "uint256"
        }
      ],
      "name": "TokenSwappedForCoral",
      "type": "event"
    },
    {
      "inputs": [],
      "name": "APPROVAL_TIMEOUT",
      "outputs": [
        {
          "internalType": "uint256",
          "name": "",
          "type": "uint256"
        }
      ],
      "stateMutability": "view",
      "type": "function"
    },
    {
      "inputs": [],
      "name": "MAX_INITIAL_CORAL",
      "outputs": [
        {
          "internalType": "uint256",
          "name": "",
          "type": "uint256"
        }
      ],
      "stateMutability": "view",
      "type": "function"
    },
    {
      "inputs": [],
      "name": "MIN_INITIAL_CORAL",
      "outputs": [
        {
          "internalType": "uint256",
          "name": "",
          "type": "uint256"
        }
      ],
      "stateMutability": "view",
      "type": "function"
    },
    {
      "inputs": [
        {
          "internalType": "uint256",
          "name": "subscriberCount",
          "type": "uint256"
        }
      ],
      "name": "calculateInitialLiquidity",
      "outputs": [
        {
          "internalType": "uint256",
          "name": "",
          "type": "uint256"
        }
      ],
      "stateMutability": "pure",
      "type": "function"
    },
    {
      "inputs": [
        {
          "internalType": "address",
          "name": "token",
          "type": "address"
        }
      ],
      "name": "completePriceDiscovery",
      "outputs": [],
      "stateMutability": "nonpayable",
      "type": "function"
    },
    {
      "inputs": [],
      "name": "coralToken",
      "outputs": [
        {
          "internalType": "address",
          "name": "",
          "type": "address"
        }
      ],
      "stateMutability": "view",
      "type": "function"
    },
    {
      "inputs": [],
      "name": "creatorTokenFactory",
      "outputs": [
        {
          "internalType": "contract ICreatorCoin",
          "name": "",
          "type": "address"
        }
      ],
      "stateMutability": "view",
      "type": "function"
    },
    {
      "inputs": [],
      "name": "dex",
      "outputs": [
        {
          "internalType": "contract SaraDEX",
          "name": "",
          "type": "address"
        }
      ],
      "stateMutability": "view",
      "type": "function"
    },
    {
      "inputs": [
        {
          "internalType": "address",
          "name": "to",
          "type": "address"
        },
        {
          "internalType": "uint256",
          "name": "amount",
          "type": "uint256"
        },
        {
          "internalType": "enum SaraTokenRouter.WithdrawReason",
          "name": "reason",
          "type": "uint8"
        }
      ],
      "name": "emergencyWithdrawCoral",
      "outputs": [],
      "stateMutability": "nonpayable",
      "type": "function"
    },
    {
      "inputs": [],
      "name": "getPauseState",
      "outputs": [
        {
          "internalType": "bool",
          "name": "isPaused",
          "type": "bool"
        },
        {
          "internalType": "uint256",
          "name": "lastChange",
          "type": "uint256"
        },
        {
          "internalType": "uint256",
          "name": "duration",
          "type": "uint256"
        }
      ],
      "stateMutability": "view",
      "type": "function"
    },
    {
      "inputs": [
        {
          "internalType": "address",
          "name": "",
          "type": "address"
        }
      ],
      "name": "hasOpenApproval",
      "outputs": [
        {
          "internalType": "bool",
          "name": "",
          "type": "bool"
        }
      ],
      "stateMutability": "view",
      "type": "function"
    },
    {
      "inputs": [
        {
          "internalType": "address",
          "name": "",
          "type": "address"
        }
      ],
      "name": "inPriceDiscovery",
      "outputs": [
        {
          "internalType": "bool",
          "name": "",
          "type": "bool"
        }
      ],
      "stateMutability": "view",
      "type": "function"
    },
    {
      "inputs": [],
      "name": "lastApprovalTimestamp",
      "outputs": [
        {
          "internalType": "uint256",
          "name": "",
          "type": "uint256"
        }
      ],
      "stateMutability": "view",
      "type": "function"
    },
    {
      "inputs": [],
      "name": "lastPauseChange",
      "outputs": [
        {
          "internalType": "uint256",
          "name": "",
          "type": "uint256"
        }
      ],
      "stateMutability": "view",
      "type": "function"
    },
    {
      "inputs": [],
      "name": "liquidityManager",
      "outputs": [
        {
          "internalType": "contract SaraLiquidityManager",
          "name": "",
          "type": "address"
        }
      ],
      "stateMutability": "view",
      "type": "function"
    },
    {
      "inputs": [
        {
          "internalType": "address",
          "name": "creatorToken",
          "type": "address"
        }
      ],
      "name": "listNewCreatorToken",
      "outputs": [],
      "stateMutability": "nonpayable",
      "type": "function"
    },
    {
      "inputs": [
        {
          "internalType": "address",
          "name": "",
          "type": "address"
        }
      ],
      "name": "listedTokens",
      "outputs": [
        {
          "internalType": "bool",
          "name": "",
          "type": "bool"
        }
      ],
      "stateMutability": "view",
      "type": "function"
    },
    {
      "inputs": [
        {
          "internalType": "address",
          "name": "token",
          "type": "address"
        },
        {
          "internalType": "uint256",
          "name": "subscriberCount",
          "type": "uint256"
        }
      ],
      "name": "onTokenMinted",
      "outputs": [],
      "stateMutability": "nonpayable",
      "type": "function"
    },
    {
      "inputs": [],
      "name": "owner",
      "outputs": [
        {
          "internalType": "address",
          "name": "",
          "type": "address"
        }
      ],
      "stateMutability": "view",
      "type": "function"
    },
    {
      "inputs": [],
      "name": "paused",
      "outputs": [
        {
          "internalType": "bool",
          "name": "",
          "type": "bool"
        }
      ],
      "stateMutability": "view",
      "type": "function"
    },
    {
      "inputs": [],
      "name": "renounceOwnership",
      "outputs": [],
      "stateMutability": "nonpayable",
      "type": "function"
    },
    {
      "inputs": [
        {
          "internalType": "address",
          "name": "token",
          "type": "address"
        }
      ],
      "name": "revokeApproval",
      "outputs": [],
      "stateMutability": "nonpayable",
      "type": "function"
    },
    {
      "inputs": [
        {
          "internalType": "address",
          "name": "token",
          "type": "address"
        },
        {
          "internalType": "uint256",
          "name": "coralAmount",
          "type": "uint256"
        },
        {
          "internalType": "uint256",
          "name": "minAmountOut",
          "type": "uint256"
        }
      ],
      "name": "swapCoralForToken",
      "outputs": [
        {
          "internalType": "uint256",
          "name": "",
          "type": "uint256"
        }
      ],
      "stateMutability": "nonpayable",
      "type": "function"
    },
    {
      "inputs": [],
      "name": "togglePause",
      "outputs": [],
      "stateMutability": "nonpayable",
      "type": "function"
    },
    {
      "inputs": [
        {
          "internalType": "address",
          "name": "newOwner",
          "type": "address"
        }
      ],
      "name": "transferOwnership",
      "outputs": [],
      "stateMutability": "nonpayable",
      "type": "function"
    },
    {
      "inputs": [
        {
          "internalType": "address",
          "name": "creatorToken",
          "type": "address"
        },
        {
          "internalType": "uint256",
          "name": "newReserveS",
          "type": "uint256"
        }
      ],
      "name": "updateAIRebalance",
      "outputs": [],
      "stateMutability": "nonpayable",
      "type": "function"
    },
    {
      "inputs": [
        {
          "internalType": "address",
          "name": "token",
          "type": "address"
        },
        {
          "internalType": "uint256",
          "name": "currentSubscribers",
          "type": "uint256"
        }
      ],
      "name": "updateEngagementMetrics",
      "outputs": [],
      "stateMutability": "nonpayable",
      "type": "function"
    }
  ],
  "bytecode": "0x60803461013357601f61194138819003918201601f19168301916001600160401b0383118484101761013857808492608094604052833981010312610133576100478161014e565b906100546020820161014e565b9061006d60606100666040840161014e565b920161014e565b91331561011d5760008054336001600160a01b0319821681178355604051969290916001600160a01b0316907f8be0079c531659141344cd1fd0a4f28419497f9722a3daafe3b4186f6b6457e09080a360018055600280546001600160a01b03199081166001600160a01b0393841617909155600380548216938316939093179092556004805483169382169390931790925560068054909116929091169190911790556117de90816101638239f35b631e4fbdf760e01b600052600060045260246000fd5b600080fd5b634e487b7160e01b600052604160045260246000fd5b51906001600160a01b03821682036101335756fe608080604052600436101561001357600080fd5b600090813560e01c908163338274381461130f575080633417c3d0146112595780633f80aace14610f4e578063484685b014610f215780635c975abb14610efb578063692058c214610ed25780636cbb348614610e40578063700d53a714610e015780637093f47f14610dc2578063715018a614610d6857806388ed751214610d3f57806389312c3514610d215780638da5cb5b14610cfa5780638e3b58e214610cd35780638f8f54b314610cb55780639a44f1fb14610c4d5780639c3ba48b14610b94578063b0eeb1e814610784578063bba2e1401461075b578063c1eb70cc14610737578063c4ae3168146106c1578063c6a55cbb14610682578063e2cfb2731461065d578063e63c453d146104bc578063f2fde38b14610436578063f3683428146104195763fb99d5f41461014a57600080fd5b3461041657602036600319011261041657610163611334565b61016b61167b565b6101736116ef565b6001600160a01b0316808252600760205260408220546101959060ff1661134a565b6002546040516370a0823160e01b815230600482015290602090829060249082906001600160a01b03165afa80156103d25783906103dd575b6102139150604051906101e260408361138f565b602082527f496e697469616c206c69717569646974792063616e6e6f74206265207a65726f6020830152151561144e565b60035460408051630fa6707960e21b81526004810184905291829060249082906001600160a01b03165afa9081156103d25783916103b1575b50818352600760205260408320805460ff1916905560035483906001600160a01b0316803b156103ad57818091602460405180948193633ee6757d60e21b83528960048401525af180156103a257610389575b505060035460408051630fa6707960e21b81526004810185905291829060249082906001600160a01b03165afa90811561037e57849161034d575b501115610312577f8f626108ec6dbb00865cbc0da4f6cc0866bb2e90c351aa607b1a5f4d7607b7da6020604051428152a26001805580f35b60405162461bcd60e51b8152602060048201526013602482015272131a5c5d5a591a5d1e481b9bdd081859191959606a1b6044820152606490fd5b61036f915060403d604011610377575b610367818361138f565b810190611665565b9050386102da565b503d61035d565b6040513d86823e3d90fd5b816103939161138f565b61039e57823861029f565b8280fd5b6040513d84823e3d90fd5b5080fd5b6103ca915060403d60401161037757610367818361138f565b90503861024c565b6040513d85823e3d90fd5b506020813d60201161040e575b816103f76020938361138f565b810103126104095761021390516101ce565b600080fd5b3d91506103ea565b80fd5b50346104165780600319360112610416576020604051610e108152f35b503461041657602036600319011261041657610450611334565b61045861167b565b6001600160a01b031680156104a85781546001600160a01b03198116821783556001600160a01b03167f8be0079c531659141344cd1fd0a4f28419497f9722a3daafe3b4186f6b6457e08380a380f35b631e4fbdf760e01b82526004829052602482fd5b5034610416576060366003190112610416576104d6611334565b602435604435916003831015610659576104ee61167b565b6104f66116ef565b6001600160a01b03811680156106225761051860ff60065460a01c16156113c7565b6002546040516370a0823160e01b81523060048201526001600160a01b039091169190602081602481865afa9081156106175787916105e5575b5084116105a057817fd6904cf5b5e9f829853e263f3843fac5453fd36b81cec3559c5018a0de89d64e606061059997604051908882524260208301526040820152a3611711565b6001805580f35b60405162461bcd60e51b815260206004820152601a60248201527f496e73756666696369656e7420434f52414c2062616c616e63650000000000006044820152606490fd5b90506020813d60201161060f575b816106006020938361138f565b81010312610409575138610552565b3d91506105f3565b6040513d89823e3d90fd5b60405162461bcd60e51b815260206004820152600f60248201526e496e76616c6964206164647265737360881b6044820152606490fd5b8380fd5b5034610416578060031936011261041657602060405169d3c21bcecceda10000008152f35b50346104165760203660031901126104165760209060ff906040906001600160a01b036106ad611334565b168152600784522054166040519015158152f35b50346104165780600319360112610416576106da61167b565b60065460ff60a01b60ff8260a01c161560a01b169060ff60a01b1916178060065542600a556040514281527fa965406db9d595b01329adb8152ce3b8bac4b7bfb1e705308939fb0c4a88318c602060ff339460a01c16151592a380f35b50346104165780600319360112610416576020604051683635c9adc5dea000008152f35b50346104165780600319360112610416576002546040516001600160a01b039091168152602090f35b50346104165760603660031901126104165761079e611334565b9060243591604435906107b960ff60065460a01c16156113c7565b6107c16116ef565b60018060a01b0316906108056040516107db60408261138f565b601581527424b73b30b634b21031b932b0ba37b9103a37b5b2b760591b602082015283151561144e565b61084860405161081660408261138f565b601a81527f496e76616c696420434f52414c20746f6b656e20616d6f756e74000000000000602082015285151561144e565b818352600760205260ff604084205416610b4f57818352600560205260ff60408420541615610b175760025461088c908590309033906001600160a01b03166116a4565b60025460048054604051636eb1769f60e11b815230928101929092526001600160a01b0390811660248301819052921690602081604481855afa908115610b0c5790869392918491610ad7575b508781106109f8575b505050602060018060a01b0360045416608460405180948193630c28192f60e01b83528860048401528a60248401528760448401526101f460648401525af19384156109ec57936109b8575b50821061097f578181610973927f7a0a8a7b675dfabba33d3b55537c754dae6910cbc33e6bf9d4bf8aed52d448b3604060209781519081528589820152a23390611711565b60018055604051908152f35b60405162461bcd60e51b81526020600482015260116024820152700a6d8d2e0e0c2ceca40e8dede40d0d2ced607b1b6044820152606490fd5b9092506020813d6020116109e4575b816109d46020938361138f565b810103126104095751913861092e565b3d91506109c7565b604051903d90823e3d90fd5b610a81575b50506002546004805460405163095ea7b360e01b81526001600160a01b039182169281019290925260248201889052909250602091839160449183918991165af1801561037e57610a52575b808085926108e2565b610a739060203d602011610a7a575b610a6b818361138f565b8101906114b1565b5038610a49565b503d610a61565b6044602092604051948593849263095ea7b360e01b845260048401528160248401525af1801561037e57610ab8575b8084916109fd565b610ad09060203d602011610a7a57610a6b818361138f565b5038610ab0565b9350506020833d602011610b04575b81610af36020938361138f565b8101031261040957859251386108d9565b3d9150610ae6565b6040513d88823e3d90fd5b60405162461bcd60e51b815260206004820152601060248201526f151bdad95b881b9bdd081b1a5cdd195960821b6044820152606490fd5b60405162461bcd60e51b815260206004820152601860248201527f546f6b656e20696e20707269636520646973636f7665727900000000000000006044820152606490fd5b503461041657602036600319011261041657610bae611334565b610bb661167b565b6001600160a01b03168082526005602052604082205460ff16610c1157808252600560205260408220805460ff191660011790557f017664858438d89f547fee46da0bcfc5396ea13a9fb1490b8fdd76cfa979f1a98280a280f35b60405162461bcd60e51b8152602060048201526014602482015273151bdad95b88185b1c9958591e481b1a5cdd195960621b6044820152606490fd5b503461041657806003193601126104165760ff60065460a01c16600a54801515600014610cac57804203428111610c985760609350905b604051921515835260208301526040820152f35b634e487b7160e01b84526011600452602484fd5b60609290610c84565b50346104165780600319360112610416576020600a54604051908152f35b5034610416576020366003190112610416576020610cf260043561161a565b604051908152f35b5034610416578060031936011261041657546040516001600160a01b039091168152602090f35b50346104165780600319360112610416576020600954604051908152f35b50346104165780600319360112610416576006546040516001600160a01b039091168152602090f35b5034610416578060031936011261041657610d8161167b565b80546001600160a01b03198116825581906001600160a01b03167f8be0079c531659141344cd1fd0a4f28419497f9722a3daafe3b4186f6b6457e08280a380f35b50346104165760203660031901126104165760209060ff906040906001600160a01b03610ded611334565b168152600584522054166040519015158152f35b50346104165760203660031901126104165760209060ff906040906001600160a01b03610e2c611334565b168152600884522054166040519015158152f35b50346104165760403660031901126104165780610e5b611334565b610e6361167b565b6003546001600160a01b031690813b15610ece576040516355776b7760e01b81526001600160a01b03909116600482015260248082018490523560448201529082908290606490829084905af180156103a257610ebd5750f35b81610ec79161138f565b6104165780f35b5050fd5b50346104165780600319360112610416576004546040516001600160a01b039091168152602090f35b5034610416578060031936011261041657602060ff60065460a01c166040519015158152f35b503461041657602036600319011261041657610f4b610f3e611334565b610f4661167b565b6114c9565b80f35b503461041657604036600319011261041657610f68611334565b602435600654610f7e60ff8260a01c16156113c7565b6001600160a01b03163303611225576001600160a01b0382168084526007602052604084205490929060ff166111e057610fc1610fb9611408565b83151561144e565b610fca8261161a565b9161100e604051610fdc60408261138f565b602081527f496e697469616c206c69717569646974792063616e6e6f74206265207a65726f602082015284151561144e565b600254604051636eb1769f60e11b81523360048201523060248201526001600160a01b039091169290602081604481875afa801561061757859188916111ab575b501061116657611064848794309033906116a4565b848352600760205260408320805460ff191660011790556003546001600160a01b031691823b1561065957604051632324f29f60e21b81526001600160a01b0392909216600483015260248201529082908290604490829084905af180156103a257611151575b50506110d561167b565b818352600560205260ff604084205416610c1157818352600560209081526040808520805460ff19166001179055517fd6d6d534b6d189e6da779fc9a8cc9ab4bd2680e9443079b472ebd776e7b5728a92847f017664858438d89f547fee46da0bcfc5396ea13a9fb1490b8fdd76cfa979f1a98780a28152a280f35b8161115b9161138f565b61039e5782386110cb565b60405162461bcd60e51b815260206004820152601c60248201527f496e73756666696369656e7420434f52414c20616c6c6f77616e6365000000006044820152606490fd5b9150506020813d6020116111d8575b816111c76020938361138f565b81010312610409578490513861104f565b3d91506111ba565b60405162461bcd60e51b815260206004820152601a60248201527f546f6b656e20616c726561647920696e20646973636f766572790000000000006044820152606490fd5b60405162461bcd60e51b815260206004820152600c60248201526b155b985d5d1a1bdc9a5e995960a21b6044820152606490fd5b50346104165760403660031901126104165780611274611334565b61127c61167b565b6001600160a01b03811682526007602052604082205461129e9060ff1661134a565b6003546001600160a01b0316803b15610ece5760405163271ac57960e11b81526001600160a01b03929092166004830152602480359083015290919081908390604490829084905af18015611302576112f45780f35b6112fd9161138f565b388180f35b50604051903d90823e3d90fd5b9050346103ad57816003193601126103ad576003546001600160a01b03168152602090f35b600435906001600160a01b038216820361040957565b1561135157565b60405162461bcd60e51b8152602060048201526016602482015275546f6b656e206e6f7420696e20646973636f7665727960501b6044820152606490fd5b90601f8019910116810190811067ffffffffffffffff8211176113b157604052565b634e487b7160e01b600052604160045260246000fd5b156113ce57565b60405162461bcd60e51b815260206004820152601260248201527110dbdb9d1c9858dd081a5cc81c185d5cd95960721b6044820152606490fd5b6040519061141760608361138f565b6022825261726f60f01b6040837f496e697469616c2073756273637269626572732063616e6e6f74206265207a6560208201520152565b156114565750565b6040519062461bcd60e51b8252602060048301528181519182602483015260005b8381106114995750508160006044809484010152601f80199101168101030190fd5b60208282018101516044878401015285935001611477565b90816020910312610409575180151581036104095790565b6002546001600160a01b039182169116811461161757600354604051636eb1769f60e11b81523060048201526001600160a01b039091166024820181905290602081604481865afa9081156115c1576000916115e5575b501515806115cd575b611531575050565b6040519063095ea7b360e01b82526004820152600060248201526020816044816000865af180156115c1576115a4575b50806000526008602052604060002060ff1981541690557f3e776e19fc0f05c1b8270744b61c5729d5d1a5d8dded1bfb81e3979e257edd596020604051428152a2565b6115bc9060203d602011610a7a57610a6b818361138f565b611561565b6040513d6000823e3d90fd5b5081600052600860205260ff60406000205416611529565b90506020813d60201161160f575b816116006020938361138f565b81010312610409575138611520565b3d91506115f3565b50565b801561162e611627611408565b821561144e565b670de0b6b3a76400008202918204670de0b6b3a764000014171561164f5790565b634e487b7160e01b600052601160045260246000fd5b9190826040910312610409576020825192015190565b6000546001600160a01b0316330361168f57565b63118cdaa760e01b6000523360045260246000fd5b6040516323b872dd60e01b60208201526001600160a01b0392831660248201529290911660448301526064808301939093529181526116ed916116e860848361138f565b61174d565b565b600260015414611700576002600155565b633ee5aeb560e01b60005260046000fd5b60405163a9059cbb60e01b60208201526001600160a01b039290921660248301526044808301939093529181526116ed916116e860648361138f565b906000602091828151910182855af1156115c1576000513d61179f57506001600160a01b0381163b155b61177e5750565b635274afe760e01b60009081526001600160a01b0391909116600452602490fd5b6001141561177756fea26469706673582212209bca6a4cf2cd94d100165f08f76e7c3da43324a8f921d669be80371964479c4364736f6c634300081c0033",
  "linkReferences": {},
  "deployedLinkReferences": {}
}